{
  "abi": [
    {
      "inputs": [
        {
          "internalType": "string",
          "name": "_institute_name",
          "type": "string"
        },
        {
          "internalType": "address",
          "name": "_institute_address",
          "type": "address"
        },
        {
          "internalType": "string",
          "name": "_unique_id",
          "type": "string"
        },
        {
          "internalType": "address",
          "name": "_MOE_address",
          "type": "address"
        }
      ],
      "stateMutability": "nonpayable",
      "type": "constructor"
    },
    {
      "inputs": [
        {
          "internalType": "string",
          "name": "_student_name",
          "type": "string"
        },
        {
          "internalType": "address",
          "name": "_student",
          "type": "address"
        },
        {
          "internalType": "string",
          "name": "_startdate",
          "type": "string"
        },
        {
          "internalType": "string",
          "name": "_enddate",
          "type": "string"
        },
        {
          "internalType": "string",
          "name": "_description",
          "type": "string"
        },
        {
          "internalType": "string",
          "name": "_cert_type",
          "type": "string"
        }
      ],
      "name": "addEducation",
      "outputs": [
        {
          "internalType": "bytes32",
          "name": "",
          "type": "bytes32"
        }
      ],
      "stateMutability": "nonpayable",
      "type": "function"
    },
    {
      "inputs": [
        {
          "internalType": "address",
          "name": "_student",
          "type": "address"
        },
        {
          "internalType": "string",
          "name": "_cert_type",
          "type": "string"
        }
      ],
      "name": "getCertByAddress",
      "outputs": [
        {
          "internalType": "string",
          "name": "",
          "type": "string"
        },
        {
          "internalType": "address",
          "name": "",
          "type": "address"
        },
        {
          "internalType": "address",
          "name": "",
          "type": "address"
        },
        {
          "internalType": "string",
          "name": "",
          "type": "string"
        },
        {
          "internalType": "string",
          "name": "",
          "type": "string"
        },
        {
          "internalType": "bool",
          "name": "",
          "type": "bool"
        },
        {
          "internalType": "string",
          "name": "",
          "type": "string"
        }
      ],
      "stateMutability": "view",
      "type": "function"
    },
    {
      "inputs": [],
      "name": "getCertifiedStudentCount",
      "outputs": [
        {
          "internalType": "uint256",
          "name": "",
          "type": "uint256"
        }
      ],
      "stateMutability": "view",
      "type": "function"
    },
    {
      "inputs": [
        {
          "internalType": "uint256",
          "name": "_index",
          "type": "uint256"
        }
      ],
      "name": "getcertByIndex",
      "outputs": [
        {
          "internalType": "string",
          "name": "",
          "type": "string"
        },
        {
          "internalType": "address",
          "name": "",
          "type": "address"
        },
        {
          "internalType": "address",
          "name": "",
          "type": "address"
        },
        {
          "internalType": "string",
          "name": "",
          "type": "string"
        },
        {
          "internalType": "string",
          "name": "",
          "type": "string"
        },
        {
          "internalType": "bool",
          "name": "",
          "type": "bool"
        },
        {
          "internalType": "string",
          "name": "",
          "type": "string"
        }
      ],
      "stateMutability": "view",
      "type": "function"
    },
    {
      "inputs": [
        {
          "internalType": "address",
          "name": "_student",
          "type": "address"
        },
        {
          "internalType": "string",
          "name": "_cert_type",
          "type": "string"
        }
      ],
      "name": "verify_cert",
      "outputs": [
        {
          "internalType": "bytes32",
          "name": "",
          "type": "bytes32"
        }
      ],
      "stateMutability": "nonpayable",
      "type": "function"
    }
  ],
  "devdoc": {
    "kind": "dev",
    "methods": {},
    "version": 1
  },
  "evm": {
    "assembly": "    /* \"institute.sol\":60:4222  contract institute {... */\n  mstore(0x40, 0x80)\n    /* \"institute.sol\":220:635  constructor(... */\n  callvalue\n  dup1\n  iszero\n  tag_1\n  jumpi\n  0x00\n  dup1\n  revert\ntag_1:\n  pop\n  mload(0x40)\n  sub(codesize, bytecodeSize)\n  dup1\n  bytecodeSize\n  dup4\n  codecopy\n  dup2\n  dup2\n  add\n  0x40\n  mstore\n  dup2\n  add\n  swap1\n  tag_2\n  swap2\n  swap1\n  tag_3\n  jump\t// in\ntag_2:\n    /* \"institute.sol\":464:479  _institute_name */\n  dup4\n    /* \"institute.sol\":447:461  institute_name */\n  0x02\n    /* \"institute.sol\":447:479  institute_name = _institute_name */\n  swap1\n  dup1\n  mload\n  swap1\n  0x20\n  add\n  swap1\n  tag_6\n  swap3\n  swap2\n  swap1\n  tag_7\n  jump\t// in\ntag_6:\n  pop\n    /* \"institute.sol\":510:528  _institute_address */\n  dup3\n    /* \"institute.sol\":490:507  institute_address */\n  0x00\n  dup1\n    /* \"institute.sol\":490:528  institute_address = _institute_address */\n  0x0100\n  exp\n  dup2\n  sload\n  dup2\n  0xffffffffffffffffffffffffffffffffffffffff\n  mul\n  not\n  and\n  swap1\n  dup4\n  0xffffffffffffffffffffffffffffffffffffffff\n  and\n  mul\n  or\n  swap1\n  sstore\n  pop\n    /* \"institute.sol\":551:561  _unique_id */\n  dup2\n    /* \"institute.sol\":539:548  unique_id */\n  0x01\n    /* \"institute.sol\":539:561  unique_id = _unique_id */\n  swap1\n  dup1\n  mload\n  swap1\n  0x20\n  add\n  swap1\n  tag_8\n  swap3\n  swap2\n  swap1\n  tag_7\n  jump\t// in\ntag_8:\n  pop\n    /* \"institute.sol\":586:598  _MOE_address */\n  dup1\n    /* \"institute.sol\":572:583  MOE_address */\n  0x04\n  0x00\n    /* \"institute.sol\":572:598  MOE_address = _MOE_address */\n  0x0100\n  exp\n  dup2\n  sload\n  dup2\n  0xffffffffffffffffffffffffffffffffffffffff\n  mul\n  not\n  and\n  swap1\n  dup4\n  0xffffffffffffffffffffffffffffffffffffffff\n  and\n  mul\n  or\n  swap1\n  sstore\n  pop\n    /* \"institute.sol\":220:635  constructor(... */\n  pop\n  pop\n  pop\n  pop\n    /* \"institute.sol\":60:4222  contract institute {... */\n  jump(tag_9)\ntag_7:\n  dup3\n  dup1\n  sload\n  tag_10\n  swap1\n  tag_11\n  jump\t// in\ntag_10:\n  swap1\n  0x00\n  mstore\n  keccak256(0x00, 0x20)\n  swap1\n  0x1f\n  add\n  0x20\n  swap1\n  div\n  dup2\n  add\n  swap3\n  dup3\n  tag_13\n  jumpi\n  0x00\n  dup6\n  sstore\n  jump(tag_12)\ntag_13:\n  dup3\n  0x1f\n  lt\n  tag_14\n  jumpi\n  dup1\n  mload\n  not(0xff)\n  and\n  dup4\n  dup1\n  add\n  or\n  dup6\n  sstore\n  jump(tag_12)\ntag_14:\n  dup3\n  dup1\n  add\n  0x01\n  add\n  dup6\n  sstore\n  dup3\n  iszero\n  tag_12\n  jumpi\n  swap2\n  dup3\n  add\ntag_15:\n  dup3\n  dup2\n  gt\n  iszero\n  tag_16\n  jumpi\n  dup3\n  mload\n  dup3\n  sstore\n  swap2\n  0x20\n  add\n  swap2\n  swap1\n  0x01\n  add\n  swap1\n  jump(tag_15)\ntag_16:\ntag_12:\n  pop\n  swap1\n  pop\n  tag_17\n  swap2\n  swap1\n  tag_18\n  jump\t// in\ntag_17:\n  pop\n  swap1\n  jump\t// out\ntag_18:\ntag_19:\n  dup1\n  dup3\n  gt\n  iszero\n  tag_20\n  jumpi\n  0x00\n  dup2\n  0x00\n  swap1\n  sstore\n  pop\n  0x01\n  add\n  jump(tag_19)\ntag_20:\n  pop\n  swap1\n  jump\t// out\n    /* \"#utility.yul\":7:82   */\ntag_21:\n    /* \"#utility.yul\":40:46   */\n  0x00\n    /* \"#utility.yul\":73:75   */\n  0x40\n    /* \"#utility.yul\":67:76   */\n  mload\n    /* \"#utility.yul\":57:76   */\n  swap1\n  pop\n    /* \"#utility.yul\":7:82   */\n  swap1\n  jump\t// out\n    /* \"#utility.yul\":88:205   */\ntag_22:\n    /* \"#utility.yul\":197:198   */\n  0x00\n    /* \"#utility.yul\":194:195   */\n  dup1\n    /* \"#utility.yul\":187:199   */\n  revert\n    /* \"#utility.yul\":211:328   */\ntag_23:\n    /* \"#utility.yul\":320:321   */\n  0x00\n    /* \"#utility.yul\":317:318   */\n  dup1\n    /* \"#utility.yul\":310:322   */\n  revert\n    /* \"#utility.yul\":334:451   */\ntag_24:\n    /* \"#utility.yul\":443:444   */\n  0x00\n    /* \"#utility.yul\":440:441   */\n  dup1\n    /* \"#utility.yul\":433:445   */\n  revert\n    /* \"#utility.yul\":457:574   */\ntag_25:\n    /* \"#utility.yul\":566:567   */\n  0x00\n    /* \"#utility.yul\":563:564   */\n  dup1\n    /* \"#utility.yul\":556:568   */\n  revert\n    /* \"#utility.yul\":580:682   */\ntag_26:\n    /* \"#utility.yul\":621:627   */\n  0x00\n    /* \"#utility.yul\":672:674   */\n  0x1f\n    /* \"#utility.yul\":668:675   */\n  not\n    /* \"#utility.yul\":663:665   */\n  0x1f\n    /* \"#utility.yul\":656:661   */\n  dup4\n    /* \"#utility.yul\":652:666   */\n  add\n    /* \"#utility.yul\":648:676   */\n  and\n    /* \"#utility.yul\":638:676   */\n  swap1\n  pop\n    /* \"#utility.yul\":580:682   */\n  swap2\n  swap1\n  pop\n  jump\t// out\n    /* \"#utility.yul\":688:868   */\ntag_27:\n    /* \"#utility.yul\":736:813   */\n  0x4e487b7100000000000000000000000000000000000000000000000000000000\n    /* \"#utility.yul\":733:734   */\n  0x00\n    /* \"#utility.yul\":726:814   */\n  mstore\n    /* \"#utility.yul\":833:837   */\n  0x41\n    /* \"#utility.yul\":830:831   */\n  0x04\n    /* \"#utility.yul\":823:838   */\n  mstore\n    /* \"#utility.yul\":857:861   */\n  0x24\n    /* \"#utility.yul\":854:855   */\n  0x00\n    /* \"#utility.yul\":847:862   */\n  revert\n    /* \"#utility.yul\":874:1155   */\ntag_28:\n    /* \"#utility.yul\":957:984   */\n  tag_48\n    /* \"#utility.yul\":979:983   */\n  dup3\n    /* \"#utility.yul\":957:984   */\n  tag_26\n  jump\t// in\ntag_48:\n    /* \"#utility.yul\":949:955   */\n  dup2\n    /* \"#utility.yul\":945:985   */\n  add\n    /* \"#utility.yul\":1087:1093   */\n  dup2\n    /* \"#utility.yul\":1075:1085   */\n  dup2\n    /* \"#utility.yul\":1072:1094   */\n  lt\n    /* \"#utility.yul\":1051:1069   */\n  0xffffffffffffffff\n    /* \"#utility.yul\":1039:1049   */\n  dup3\n    /* \"#utility.yul\":1036:1070   */\n  gt\n    /* \"#utility.yul\":1033:1095   */\n  or\n    /* \"#utility.yul\":1030:1118   */\n  iszero\n  tag_49\n  jumpi\n    /* \"#utility.yul\":1098:1116   */\n  tag_50\n  tag_27\n  jump\t// in\ntag_50:\n    /* \"#utility.yul\":1030:1118   */\ntag_49:\n    /* \"#utility.yul\":1138:1148   */\n  dup1\n    /* \"#utility.yul\":1134:1136   */\n  0x40\n    /* \"#utility.yul\":1127:1149   */\n  mstore\n    /* \"#utility.yul\":917:1155   */\n  pop\n    /* \"#utility.yul\":874:1155   */\n  pop\n  pop\n  jump\t// out\n    /* \"#utility.yul\":1161:1290   */\ntag_29:\n    /* \"#utility.yul\":1195:1201   */\n  0x00\n    /* \"#utility.yul\":1222:1242   */\n  tag_52\n  tag_21\n  jump\t// in\ntag_52:\n    /* \"#utility.yul\":1212:1242   */\n  swap1\n  pop\n    /* \"#utility.yul\":1251:1284   */\n  tag_53\n    /* \"#utility.yul\":1279:1283   */\n  dup3\n    /* \"#utility.yul\":1271:1277   */\n  dup3\n    /* \"#utility.yul\":1251:1284   */\n  tag_28\n  jump\t// in\ntag_53:\n    /* \"#utility.yul\":1161:1290   */\n  swap2\n  swap1\n  pop\n  jump\t// out\n    /* \"#utility.yul\":1296:1604   */\ntag_30:\n    /* \"#utility.yul\":1358:1362   */\n  0x00\n    /* \"#utility.yul\":1448:1466   */\n  0xffffffffffffffff\n    /* \"#utility.yul\":1440:1446   */\n  dup3\n    /* \"#utility.yul\":1437:1467   */\n  gt\n    /* \"#utility.yul\":1434:1490   */\n  iszero\n  tag_55\n  jumpi\n    /* \"#utility.yul\":1470:1488   */\n  tag_56\n  tag_27\n  jump\t// in\ntag_56:\n    /* \"#utility.yul\":1434:1490   */\ntag_55:\n    /* \"#utility.yul\":1508:1537   */\n  tag_57\n    /* \"#utility.yul\":1530:1536   */\n  dup3\n    /* \"#utility.yul\":1508:1537   */\n  tag_26\n  jump\t// in\ntag_57:\n    /* \"#utility.yul\":1500:1537   */\n  swap1\n  pop\n    /* \"#utility.yul\":1592:1596   */\n  0x20\n    /* \"#utility.yul\":1586:1590   */\n  dup2\n    /* \"#utility.yul\":1582:1597   */\n  add\n    /* \"#utility.yul\":1574:1597   */\n  swap1\n  pop\n    /* \"#utility.yul\":1296:1604   */\n  swap2\n  swap1\n  pop\n  jump\t// out\n    /* \"#utility.yul\":1610:1917   */\ntag_31:\n    /* \"#utility.yul\":1678:1679   */\n  0x00\n    /* \"#utility.yul\":1688:1801   */\ntag_59:\n    /* \"#utility.yul\":1702:1708   */\n  dup4\n    /* \"#utility.yul\":1699:1700   */\n  dup2\n    /* \"#utility.yul\":1696:1709   */\n  lt\n    /* \"#utility.yul\":1688:1801   */\n  iszero\n  tag_61\n  jumpi\n    /* \"#utility.yul\":1787:1788   */\n  dup1\n    /* \"#utility.yul\":1782:1785   */\n  dup3\n    /* \"#utility.yul\":1778:1789   */\n  add\n    /* \"#utility.yul\":1772:1790   */\n  mload\n    /* \"#utility.yul\":1768:1769   */\n  dup2\n    /* \"#utility.yul\":1763:1766   */\n  dup5\n    /* \"#utility.yul\":1759:1770   */\n  add\n    /* \"#utility.yul\":1752:1791   */\n  mstore\n    /* \"#utility.yul\":1724:1726   */\n  0x20\n    /* \"#utility.yul\":1721:1722   */\n  dup2\n    /* \"#utility.yul\":1717:1727   */\n  add\n    /* \"#utility.yul\":1712:1727   */\n  swap1\n  pop\n    /* \"#utility.yul\":1688:1801   */\n  jump(tag_59)\ntag_61:\n    /* \"#utility.yul\":1819:1825   */\n  dup4\n    /* \"#utility.yul\":1816:1817   */\n  dup2\n    /* \"#utility.yul\":1813:1826   */\n  gt\n    /* \"#utility.yul\":1810:1911   */\n  iszero\n  tag_62\n  jumpi\n    /* \"#utility.yul\":1899:1900   */\n  0x00\n    /* \"#utility.yul\":1890:1896   */\n  dup5\n    /* \"#utility.yul\":1885:1888   */\n  dup5\n    /* \"#utility.yul\":1881:1897   */\n  add\n    /* \"#utility.yul\":1874:1901   */\n  mstore\n    /* \"#utility.yul\":1810:1911   */\ntag_62:\n    /* \"#utility.yul\":1659:1917   */\n  pop\n    /* \"#utility.yul\":1610:1917   */\n  pop\n  pop\n  pop\n  jump\t// out\n    /* \"#utility.yul\":1923:2344   */\ntag_32:\n    /* \"#utility.yul\":2012:2017   */\n  0x00\n    /* \"#utility.yul\":2037:2103   */\n  tag_64\n    /* \"#utility.yul\":2053:2102   */\n  tag_65\n    /* \"#utility.yul\":2095:2101   */\n  dup5\n    /* \"#utility.yul\":2053:2102   */\n  tag_30\n  jump\t// in\ntag_65:\n    /* \"#utility.yul\":2037:2103   */\n  tag_29\n  jump\t// in\ntag_64:\n    /* \"#utility.yul\":2028:2103   */\n  swap1\n  pop\n    /* \"#utility.yul\":2126:2132   */\n  dup3\n    /* \"#utility.yul\":2119:2124   */\n  dup2\n    /* \"#utility.yul\":2112:2133   */\n  mstore\n    /* \"#utility.yul\":2164:2168   */\n  0x20\n    /* \"#utility.yul\":2157:2162   */\n  dup2\n    /* \"#utility.yul\":2153:2169   */\n  add\n    /* \"#utility.yul\":2202:2205   */\n  dup5\n    /* \"#utility.yul\":2193:2199   */\n  dup5\n    /* \"#utility.yul\":2188:2191   */\n  dup5\n    /* \"#utility.yul\":2184:2200   */\n  add\n    /* \"#utility.yul\":2181:2206   */\n  gt\n    /* \"#utility.yul\":2178:2290   */\n  iszero\n  tag_66\n  jumpi\n    /* \"#utility.yul\":2209:2288   */\n  tag_67\n  tag_25\n  jump\t// in\ntag_67:\n    /* \"#utility.yul\":2178:2290   */\ntag_66:\n    /* \"#utility.yul\":2299:2338   */\n  tag_68\n    /* \"#utility.yul\":2331:2337   */\n  dup5\n    /* \"#utility.yul\":2326:2329   */\n  dup3\n    /* \"#utility.yul\":2321:2324   */\n  dup6\n    /* \"#utility.yul\":2299:2338   */\n  tag_31\n  jump\t// in\ntag_68:\n    /* \"#utility.yul\":2018:2344   */\n  pop\n    /* \"#utility.yul\":1923:2344   */\n  swap4\n  swap3\n  pop\n  pop\n  pop\n  jump\t// out\n    /* \"#utility.yul\":2364:2719   */\ntag_33:\n    /* \"#utility.yul\":2431:2436   */\n  0x00\n    /* \"#utility.yul\":2480:2483   */\n  dup3\n    /* \"#utility.yul\":2473:2477   */\n  0x1f\n    /* \"#utility.yul\":2465:2471   */\n  dup4\n    /* \"#utility.yul\":2461:2478   */\n  add\n    /* \"#utility.yul\":2457:2484   */\n  slt\n    /* \"#utility.yul\":2447:2569   */\n  tag_70\n  jumpi\n    /* \"#utility.yul\":2488:2567   */\n  tag_71\n  tag_24\n  jump\t// in\ntag_71:\n    /* \"#utility.yul\":2447:2569   */\ntag_70:\n    /* \"#utility.yul\":2598:2604   */\n  dup2\n    /* \"#utility.yul\":2592:2605   */\n  mload\n    /* \"#utility.yul\":2623:2713   */\n  tag_72\n    /* \"#utility.yul\":2709:2712   */\n  dup5\n    /* \"#utility.yul\":2701:2707   */\n  dup3\n    /* \"#utility.yul\":2694:2698   */\n  0x20\n    /* \"#utility.yul\":2686:2692   */\n  dup7\n    /* \"#utility.yul\":2682:2699   */\n  add\n    /* \"#utility.yul\":2623:2713   */\n  tag_32\n  jump\t// in\ntag_72:\n    /* \"#utility.yul\":2614:2713   */\n  swap2\n  pop\n    /* \"#utility.yul\":2437:2719   */\n  pop\n    /* \"#utility.yul\":2364:2719   */\n  swap3\n  swap2\n  pop\n  pop\n  jump\t// out\n    /* \"#utility.yul\":2725:2851   */\ntag_34:\n    /* \"#utility.yul\":2762:2769   */\n  0x00\n    /* \"#utility.yul\":2802:2844   */\n  0xffffffffffffffffffffffffffffffffffffffff\n    /* \"#utility.yul\":2795:2800   */\n  dup3\n    /* \"#utility.yul\":2791:2845   */\n  and\n    /* \"#utility.yul\":2780:2845   */\n  swap1\n  pop\n    /* \"#utility.yul\":2725:2851   */\n  swap2\n  swap1\n  pop\n  jump\t// out\n    /* \"#utility.yul\":2857:2953   */\ntag_35:\n    /* \"#utility.yul\":2894:2901   */\n  0x00\n    /* \"#utility.yul\":2923:2947   */\n  tag_75\n    /* \"#utility.yul\":2941:2946   */\n  dup3\n    /* \"#utility.yul\":2923:2947   */\n  tag_34\n  jump\t// in\ntag_75:\n    /* \"#utility.yul\":2912:2947   */\n  swap1\n  pop\n    /* \"#utility.yul\":2857:2953   */\n  swap2\n  swap1\n  pop\n  jump\t// out\n    /* \"#utility.yul\":2959:3081   */\ntag_36:\n    /* \"#utility.yul\":3032:3056   */\n  tag_77\n    /* \"#utility.yul\":3050:3055   */\n  dup2\n    /* \"#utility.yul\":3032:3056   */\n  tag_35\n  jump\t// in\ntag_77:\n    /* \"#utility.yul\":3025:3030   */\n  dup2\n    /* \"#utility.yul\":3022:3057   */\n  eq\n    /* \"#utility.yul\":3012:3075   */\n  tag_78\n  jumpi\n    /* \"#utility.yul\":3071:3072   */\n  0x00\n    /* \"#utility.yul\":3068:3069   */\n  dup1\n    /* \"#utility.yul\":3061:3073   */\n  revert\n    /* \"#utility.yul\":3012:3075   */\ntag_78:\n    /* \"#utility.yul\":2959:3081   */\n  pop\n  jump\t// out\n    /* \"#utility.yul\":3087:3230   */\ntag_37:\n    /* \"#utility.yul\":3144:3149   */\n  0x00\n    /* \"#utility.yul\":3175:3181   */\n  dup2\n    /* \"#utility.yul\":3169:3182   */\n  mload\n    /* \"#utility.yul\":3160:3182   */\n  swap1\n  pop\n    /* \"#utility.yul\":3191:3224   */\n  tag_80\n    /* \"#utility.yul\":3218:3223   */\n  dup2\n    /* \"#utility.yul\":3191:3224   */\n  tag_36\n  jump\t// in\ntag_80:\n    /* \"#utility.yul\":3087:3230   */\n  swap3\n  swap2\n  pop\n  pop\n  jump\t// out\n    /* \"#utility.yul\":3236:4402   */\ntag_3:\n    /* \"#utility.yul\":3353:3359   */\n  0x00\n    /* \"#utility.yul\":3361:3367   */\n  dup1\n    /* \"#utility.yul\":3369:3375   */\n  0x00\n    /* \"#utility.yul\":3377:3383   */\n  dup1\n    /* \"#utility.yul\":3426:3429   */\n  0x80\n    /* \"#utility.yul\":3414:3423   */\n  dup6\n    /* \"#utility.yul\":3405:3412   */\n  dup8\n    /* \"#utility.yul\":3401:3424   */\n  sub\n    /* \"#utility.yul\":3397:3430   */\n  slt\n    /* \"#utility.yul\":3394:3514   */\n  iszero\n  tag_82\n  jumpi\n    /* \"#utility.yul\":3433:3512   */\n  tag_83\n  tag_22\n  jump\t// in\ntag_83:\n    /* \"#utility.yul\":3394:3514   */\ntag_82:\n    /* \"#utility.yul\":3574:3575   */\n  0x00\n    /* \"#utility.yul\":3563:3572   */\n  dup6\n    /* \"#utility.yul\":3559:3576   */\n  add\n    /* \"#utility.yul\":3553:3577   */\n  mload\n    /* \"#utility.yul\":3604:3622   */\n  0xffffffffffffffff\n    /* \"#utility.yul\":3596:3602   */\n  dup2\n    /* \"#utility.yul\":3593:3623   */\n  gt\n    /* \"#utility.yul\":3590:3707   */\n  iszero\n  tag_84\n  jumpi\n    /* \"#utility.yul\":3626:3705   */\n  tag_85\n  tag_23\n  jump\t// in\ntag_85:\n    /* \"#utility.yul\":3590:3707   */\ntag_84:\n    /* \"#utility.yul\":3731:3805   */\n  tag_86\n    /* \"#utility.yul\":3797:3804   */\n  dup8\n    /* \"#utility.yul\":3788:3794   */\n  dup3\n    /* \"#utility.yul\":3777:3786   */\n  dup9\n    /* \"#utility.yul\":3773:3795   */\n  add\n    /* \"#utility.yul\":3731:3805   */\n  tag_33\n  jump\t// in\ntag_86:\n    /* \"#utility.yul\":3721:3805   */\n  swap5\n  pop\n    /* \"#utility.yul\":3524:3815   */\n  pop\n    /* \"#utility.yul\":3854:3856   */\n  0x20\n    /* \"#utility.yul\":3880:3944   */\n  tag_87\n    /* \"#utility.yul\":3936:3943   */\n  dup8\n    /* \"#utility.yul\":3927:3933   */\n  dup3\n    /* \"#utility.yul\":3916:3925   */\n  dup9\n    /* \"#utility.yul\":3912:3934   */\n  add\n    /* \"#utility.yul\":3880:3944   */\n  tag_37\n  jump\t// in\ntag_87:\n    /* \"#utility.yul\":3870:3944   */\n  swap4\n  pop\n    /* \"#utility.yul\":3825:3954   */\n  pop\n    /* \"#utility.yul\":4014:4016   */\n  0x40\n    /* \"#utility.yul\":4003:4012   */\n  dup6\n    /* \"#utility.yul\":3999:4017   */\n  add\n    /* \"#utility.yul\":3993:4018   */\n  mload\n    /* \"#utility.yul\":4045:4063   */\n  0xffffffffffffffff\n    /* \"#utility.yul\":4037:4043   */\n  dup2\n    /* \"#utility.yul\":4034:4064   */\n  gt\n    /* \"#utility.yul\":4031:4148   */\n  iszero\n  tag_88\n  jumpi\n    /* \"#utility.yul\":4067:4146   */\n  tag_89\n  tag_23\n  jump\t// in\ntag_89:\n    /* \"#utility.yul\":4031:4148   */\ntag_88:\n    /* \"#utility.yul\":4172:4246   */\n  tag_90\n    /* \"#utility.yul\":4238:4245   */\n  dup8\n    /* \"#utility.yul\":4229:4235   */\n  dup3\n    /* \"#utility.yul\":4218:4227   */\n  dup9\n    /* \"#utility.yul\":4214:4236   */\n  add\n    /* \"#utility.yul\":4172:4246   */\n  tag_33\n  jump\t// in\ntag_90:\n    /* \"#utility.yul\":4162:4246   */\n  swap3\n  pop\n    /* \"#utility.yul\":3964:4256   */\n  pop\n    /* \"#utility.yul\":4295:4297   */\n  0x60\n    /* \"#utility.yul\":4321:4385   */\n  tag_91\n    /* \"#utility.yul\":4377:4384   */\n  dup8\n    /* \"#utility.yul\":4368:4374   */\n  dup3\n    /* \"#utility.yul\":4357:4366   */\n  dup9\n    /* \"#utility.yul\":4353:4375   */\n  add\n    /* \"#utility.yul\":4321:4385   */\n  tag_37\n  jump\t// in\ntag_91:\n    /* \"#utility.yul\":4311:4385   */\n  swap2\n  pop\n    /* \"#utility.yul\":4266:4395   */\n  pop\n    /* \"#utility.yul\":3236:4402   */\n  swap3\n  swap6\n  swap2\n  swap5\n  pop\n  swap3\n  pop\n  jump\t// out\n    /* \"#utility.yul\":4408:4588   */\ntag_38:\n    /* \"#utility.yul\":4456:4533   */\n  0x4e487b7100000000000000000000000000000000000000000000000000000000\n    /* \"#utility.yul\":4453:4454   */\n  0x00\n    /* \"#utility.yul\":4446:4534   */\n  mstore\n    /* \"#utility.yul\":4553:4557   */\n  0x22\n    /* \"#utility.yul\":4550:4551   */\n  0x04\n    /* \"#utility.yul\":4543:4558   */\n  mstore\n    /* \"#utility.yul\":4577:4581   */\n  0x24\n    /* \"#utility.yul\":4574:4575   */\n  0x00\n    /* \"#utility.yul\":4567:4582   */\n  revert\n    /* \"#utility.yul\":4594:4914   */\ntag_11:\n    /* \"#utility.yul\":4638:4644   */\n  0x00\n    /* \"#utility.yul\":4675:4676   */\n  0x02\n    /* \"#utility.yul\":4669:4673   */\n  dup3\n    /* \"#utility.yul\":4665:4677   */\n  div\n    /* \"#utility.yul\":4655:4677   */\n  swap1\n  pop\n    /* \"#utility.yul\":4722:4723   */\n  0x01\n    /* \"#utility.yul\":4716:4720   */\n  dup3\n    /* \"#utility.yul\":4712:4724   */\n  and\n    /* \"#utility.yul\":4743:4761   */\n  dup1\n    /* \"#utility.yul\":4733:4814   */\n  tag_94\n  jumpi\n    /* \"#utility.yul\":4799:4803   */\n  0x7f\n    /* \"#utility.yul\":4791:4797   */\n  dup3\n    /* \"#utility.yul\":4787:4804   */\n  and\n    /* \"#utility.yul\":4777:4804   */\n  swap2\n  pop\n    /* \"#utility.yul\":4733:4814   */\ntag_94:\n    /* \"#utility.yul\":4861:4863   */\n  0x20\n    /* \"#utility.yul\":4853:4859   */\n  dup3\n    /* \"#utility.yul\":4850:4864   */\n  lt\n    /* \"#utility.yul\":4830:4848   */\n  dup2\n    /* \"#utility.yul\":4827:4865   */\n  eq\n    /* \"#utility.yul\":4824:4908   */\n  iszero\n  tag_95\n  jumpi\n    /* \"#utility.yul\":4880:4898   */\n  tag_96\n  tag_38\n  jump\t// in\ntag_96:\n    /* \"#utility.yul\":4824:4908   */\ntag_95:\n    /* \"#utility.yul\":4645:4914   */\n  pop\n    /* \"#utility.yul\":4594:4914   */\n  swap2\n  swap1\n  pop\n  jump\t// out\n    /* \"institute.sol\":60:4222  contract institute {... */\ntag_9:\n  dataSize(sub_0)\n  dup1\n  dataOffset(sub_0)\n  0x00\n  codecopy\n  0x00\n  return\nstop\n\nsub_0: assembly {\n        /* \"institute.sol\":60:4222  contract institute {... */\n      mstore(0x40, 0x80)\n      callvalue\n      dup1\n      iszero\n      tag_1\n      jumpi\n      0x00\n      dup1\n      revert\n    tag_1:\n      pop\n      jumpi(tag_2, lt(calldatasize, 0x04))\n      shr(0xe0, calldataload(0x00))\n      dup1\n      0xb96349c1\n      eq\n      tag_3\n      jumpi\n      dup1\n      0xc7bf3479\n      eq\n      tag_4\n      jumpi\n      dup1\n      0xd22804ea\n      eq\n      tag_5\n      jumpi\n      dup1\n      0xe79047cf\n      eq\n      tag_6\n      jumpi\n      dup1\n      0xf36d59a0\n      eq\n      tag_7\n      jumpi\n    tag_2:\n      0x00\n      dup1\n      revert\n        /* \"institute.sol\":2608:2866  function verify_cert(... */\n    tag_3:\n      tag_8\n      0x04\n      dup1\n      calldatasize\n      sub\n      dup2\n      add\n      swap1\n      tag_9\n      swap2\n      swap1\n      tag_10\n      jump\t// in\n    tag_9:\n      tag_11\n      jump\t// in\n    tag_8:\n      mload(0x40)\n      tag_12\n      swap2\n      swap1\n      tag_13\n      jump\t// in\n    tag_12:\n      mload(0x40)\n      dup1\n      swap2\n      sub\n      swap1\n      return\n        /* \"institute.sol\":2874:3625  function getCertByAddress(... */\n    tag_4:\n      tag_14\n      0x04\n      dup1\n      calldatasize\n      sub\n      dup2\n      add\n      swap1\n      tag_15\n      swap2\n      swap1\n      tag_10\n      jump\t// in\n    tag_15:\n      tag_16\n      jump\t// in\n    tag_14:\n      mload(0x40)\n      tag_17\n      swap8\n      swap7\n      swap6\n      swap5\n      swap4\n      swap3\n      swap2\n      swap1\n      tag_18\n      jump\t// in\n    tag_17:\n      mload(0x40)\n      dup1\n      swap2\n      sub\n      swap1\n      return\n        /* \"institute.sol\":3633:3750  function getCertifiedStudentCount() public view returns (uint256) {... */\n    tag_5:\n      tag_19\n      tag_20\n      jump\t// in\n    tag_19:\n      mload(0x40)\n      tag_21\n      swap2\n      swap1\n      tag_22\n      jump\t// in\n    tag_21:\n      mload(0x40)\n      dup1\n      swap2\n      sub\n      swap1\n      return\n        /* \"institute.sol\":1538:2600  function addEducation(... */\n    tag_6:\n      tag_23\n      0x04\n      dup1\n      calldatasize\n      sub\n      dup2\n      add\n      swap1\n      tag_24\n      swap2\n      swap1\n      tag_25\n      jump\t// in\n    tag_24:\n      tag_26\n      jump\t// in\n    tag_23:\n      mload(0x40)\n      tag_27\n      swap2\n      swap1\n      tag_13\n      jump\t// in\n    tag_27:\n      mload(0x40)\n      dup1\n      swap2\n      sub\n      swap1\n      return\n        /* \"institute.sol\":3758:4219  function getcertByIndex(... */\n    tag_7:\n      tag_28\n      0x04\n      dup1\n      calldatasize\n      sub\n      dup2\n      add\n      swap1\n      tag_29\n      swap2\n      swap1\n      tag_30\n      jump\t// in\n    tag_29:\n      tag_31\n      jump\t// in\n    tag_28:\n      mload(0x40)\n      tag_32\n      swap8\n      swap7\n      swap6\n      swap5\n      swap4\n      swap3\n      swap2\n      swap1\n      tag_18\n      jump\t// in\n    tag_32:\n      mload(0x40)\n      dup1\n      swap2\n      sub\n      swap1\n      return\n        /* \"institute.sol\":2608:2866  function verify_cert(... */\n    tag_11:\n        /* \"institute.sol\":2722:2729  bytes32 */\n      0x00\n        /* \"institute.sol\":795:806  MOE_address */\n      0x04\n      0x00\n      swap1\n      sload\n      swap1\n      0x0100\n      exp\n      swap1\n      div\n      0xffffffffffffffffffffffffffffffffffffffff\n      and\n        /* \"institute.sol\":781:806  msg.sender == MOE_address */\n      0xffffffffffffffffffffffffffffffffffffffff\n      and\n        /* \"institute.sol\":781:791  msg.sender */\n      caller\n        /* \"institute.sol\":781:806  msg.sender == MOE_address */\n      0xffffffffffffffffffffffffffffffffffffffff\n      and\n      eq\n        /* \"institute.sol\":773:807  require(msg.sender == MOE_address) */\n      tag_34\n      jumpi\n      0x00\n      dup1\n      revert\n    tag_34:\n        /* \"institute.sol\":2742:2753  bytes32 key */\n      0x00\n        /* \"institute.sol\":2756:2789  generateKey(_student, _cert_type) */\n      tag_36\n        /* \"institute.sol\":2768:2776  _student */\n      dup5\n        /* \"institute.sol\":2778:2788  _cert_type */\n      dup5\n        /* \"institute.sol\":2756:2767  generateKey */\n      tag_37\n        /* \"institute.sol\":2756:2789  generateKey(_student, _cert_type) */\n      jump\t// in\n    tag_36:\n        /* \"institute.sol\":2742:2789  bytes32 key = generateKey(_student, _cert_type) */\n      swap1\n      pop\n        /* \"institute.sol\":2833:2837  true */\n      0x01\n        /* \"institute.sol\":2800:2816  official_certmap */\n      0x05\n        /* \"institute.sol\":2800:2821  official_certmap[key] */\n      0x00\n        /* \"institute.sol\":2817:2820  key */\n      dup4\n        /* \"institute.sol\":2800:2821  official_certmap[key] */\n      dup2\n      mstore\n      0x20\n      add\n      swap1\n      dup2\n      mstore\n      0x20\n      add\n      0x00\n      keccak256\n        /* \"institute.sol\":2800:2830  official_certmap[key].verified */\n      0x06\n      add\n      0x00\n        /* \"institute.sol\":2800:2837  official_certmap[key].verified = true */\n      0x0100\n      exp\n      dup2\n      sload\n      dup2\n      0xff\n      mul\n      not\n      and\n      swap1\n      dup4\n      iszero\n      iszero\n      mul\n      or\n      swap1\n      sstore\n      pop\n        /* \"institute.sol\":2855:2858  key */\n      dup1\n        /* \"institute.sol\":2848:2858  return key */\n      swap2\n      pop\n      pop\n        /* \"institute.sol\":2608:2866  function verify_cert(... */\n      swap3\n      swap2\n      pop\n      pop\n      jump\t// out\n        /* \"institute.sol\":2874:3625  function getCertByAddress(... */\n    tag_16:\n        /* \"institute.sol\":3031:3044  string memory */\n      0x60\n        /* \"institute.sol\":3059:3066  address */\n      0x00\n        /* \"institute.sol\":3081:3088  address */\n      dup1\n        /* \"institute.sol\":3103:3116  string memory */\n      0x60\n        /* \"institute.sol\":3131:3144  string memory */\n      dup1\n        /* \"institute.sol\":3159:3163  bool */\n      0x00\n        /* \"institute.sol\":3178:3191  string memory */\n      0x60\n        /* \"institute.sol\":3219:3230  bytes32 key */\n      0x00\n        /* \"institute.sol\":3233:3266  generateKey(_student, _cert_type) */\n      tag_39\n        /* \"institute.sol\":3245:3253  _student */\n      dup11\n        /* \"institute.sol\":3255:3265  _cert_type */\n      dup11\n        /* \"institute.sol\":3233:3244  generateKey */\n      tag_37\n        /* \"institute.sol\":3233:3266  generateKey(_student, _cert_type) */\n      jump\t// in\n    tag_39:\n        /* \"institute.sol\":3219:3266  bytes32 key = generateKey(_student, _cert_type) */\n      swap1\n      pop\n        /* \"institute.sol\":3299:3315  official_certmap */\n      0x05\n        /* \"institute.sol\":3299:3320  official_certmap[key] */\n      0x00\n        /* \"institute.sol\":3316:3319  key */\n      dup3\n        /* \"institute.sol\":3299:3320  official_certmap[key] */\n      dup2\n      mstore\n      0x20\n      add\n      swap1\n      dup2\n      mstore\n      0x20\n      add\n      0x00\n      keccak256\n        /* \"institute.sol\":3299:3333  official_certmap[key].student_name */\n      0x02\n      add\n        /* \"institute.sol\":3348:3364  official_certmap */\n      0x05\n        /* \"institute.sol\":3348:3369  official_certmap[key] */\n      0x00\n        /* \"institute.sol\":3365:3368  key */\n      dup4\n        /* \"institute.sol\":3348:3369  official_certmap[key] */\n      dup2\n      mstore\n      0x20\n      add\n      swap1\n      dup2\n      mstore\n      0x20\n      add\n      0x00\n      keccak256\n        /* \"institute.sol\":3348:3377  official_certmap[key].student */\n      0x00\n      add\n      0x00\n      swap1\n      sload\n      swap1\n      0x0100\n      exp\n      swap1\n      div\n      0xffffffffffffffffffffffffffffffffffffffff\n      and\n        /* \"institute.sol\":3392:3408  official_certmap */\n      0x05\n        /* \"institute.sol\":3392:3413  official_certmap[key] */\n      0x00\n        /* \"institute.sol\":3409:3412  key */\n      dup5\n        /* \"institute.sol\":3392:3413  official_certmap[key] */\n      dup2\n      mstore\n      0x20\n      add\n      swap1\n      dup2\n      mstore\n      0x20\n      add\n      0x00\n      keccak256\n        /* \"institute.sol\":3392:3423  official_certmap[key].institute */\n      0x03\n      add\n      0x00\n      swap1\n      sload\n      swap1\n      0x0100\n      exp\n      swap1\n      div\n      0xffffffffffffffffffffffffffffffffffffffff\n      and\n        /* \"institute.sol\":3438:3454  official_certmap */\n      0x05\n        /* \"institute.sol\":3438:3459  official_certmap[key] */\n      0x00\n        /* \"institute.sol\":3455:3458  key */\n      dup6\n        /* \"institute.sol\":3438:3459  official_certmap[key] */\n      dup2\n      mstore\n      0x20\n      add\n      swap1\n      dup2\n      mstore\n      0x20\n      add\n      0x00\n      keccak256\n        /* \"institute.sol\":3438:3469  official_certmap[key].startdate */\n      0x04\n      add\n        /* \"institute.sol\":3484:3500  official_certmap */\n      0x05\n        /* \"institute.sol\":3484:3505  official_certmap[key] */\n      0x00\n        /* \"institute.sol\":3501:3504  key */\n      dup7\n        /* \"institute.sol\":3484:3505  official_certmap[key] */\n      dup2\n      mstore\n      0x20\n      add\n      swap1\n      dup2\n      mstore\n      0x20\n      add\n      0x00\n      keccak256\n        /* \"institute.sol\":3484:3513  official_certmap[key].enddate */\n      0x05\n      add\n        /* \"institute.sol\":3528:3544  official_certmap */\n      0x05\n        /* \"institute.sol\":3528:3549  official_certmap[key] */\n      0x00\n        /* \"institute.sol\":3545:3548  key */\n      dup8\n        /* \"institute.sol\":3528:3549  official_certmap[key] */\n      dup2\n      mstore\n      0x20\n      add\n      swap1\n      dup2\n      mstore\n      0x20\n      add\n      0x00\n      keccak256\n        /* \"institute.sol\":3528:3558  official_certmap[key].verified */\n      0x06\n      add\n      0x00\n      swap1\n      sload\n      swap1\n      0x0100\n      exp\n      swap1\n      div\n      0xff\n      and\n        /* \"institute.sol\":3573:3589  official_certmap */\n      0x05\n        /* \"institute.sol\":3573:3594  official_certmap[key] */\n      0x00\n        /* \"institute.sol\":3590:3593  key */\n      dup9\n        /* \"institute.sol\":3573:3594  official_certmap[key] */\n      dup2\n      mstore\n      0x20\n      add\n      swap1\n      dup2\n      mstore\n      0x20\n      add\n      0x00\n      keccak256\n        /* \"institute.sol\":3573:3606  official_certmap[key].description */\n      0x07\n      add\n        /* \"institute.sol\":3277:3617  return (... */\n      dup7\n      dup1\n      sload\n      tag_40\n      swap1\n      tag_41\n      jump\t// in\n    tag_40:\n      dup1\n      0x1f\n      add\n      0x20\n      dup1\n      swap2\n      div\n      mul\n      0x20\n      add\n      mload(0x40)\n      swap1\n      dup2\n      add\n      0x40\n      mstore\n      dup1\n      swap3\n      swap2\n      swap1\n      dup2\n      dup2\n      mstore\n      0x20\n      add\n      dup3\n      dup1\n      sload\n      tag_42\n      swap1\n      tag_41\n      jump\t// in\n    tag_42:\n      dup1\n      iszero\n      tag_43\n      jumpi\n      dup1\n      0x1f\n      lt\n      tag_44\n      jumpi\n      0x0100\n      dup1\n      dup4\n      sload\n      div\n      mul\n      dup4\n      mstore\n      swap2\n      0x20\n      add\n      swap2\n      jump(tag_43)\n    tag_44:\n      dup3\n      add\n      swap2\n      swap1\n      0x00\n      mstore\n      keccak256(0x00, 0x20)\n      swap1\n    tag_45:\n      dup2\n      sload\n      dup2\n      mstore\n      swap1\n      0x01\n      add\n      swap1\n      0x20\n      add\n      dup1\n      dup4\n      gt\n      tag_45\n      jumpi\n      dup3\n      swap1\n      sub\n      0x1f\n      and\n      dup3\n      add\n      swap2\n    tag_43:\n      pop\n      pop\n      pop\n      pop\n      pop\n      swap7\n      pop\n      dup4\n      dup1\n      sload\n      tag_46\n      swap1\n      tag_41\n      jump\t// in\n    tag_46:\n      dup1\n      0x1f\n      add\n      0x20\n      dup1\n      swap2\n      div\n      mul\n      0x20\n      add\n      mload(0x40)\n      swap1\n      dup2\n      add\n      0x40\n      mstore\n      dup1\n      swap3\n      swap2\n      swap1\n      dup2\n      dup2\n      mstore\n      0x20\n      add\n      dup3\n      dup1\n      sload\n      tag_47\n      swap1\n      tag_41\n      jump\t// in\n    tag_47:\n      dup1\n      iszero\n      tag_48\n      jumpi\n      dup1\n      0x1f\n      lt\n      tag_49\n      jumpi\n      0x0100\n      dup1\n      dup4\n      sload\n      div\n      mul\n      dup4\n      mstore\n      swap2\n      0x20\n      add\n      swap2\n      jump(tag_48)\n    tag_49:\n      dup3\n      add\n      swap2\n      swap1\n      0x00\n      mstore\n      keccak256(0x00, 0x20)\n      swap1\n    tag_50:\n      dup2\n      sload\n      dup2\n      mstore\n      swap1\n      0x01\n      add\n      swap1\n      0x20\n      add\n      dup1\n      dup4\n      gt\n      tag_50\n      jumpi\n      dup3\n      swap1\n      sub\n      0x1f\n      and\n      dup3\n      add\n      swap2\n    tag_48:\n      pop\n      pop\n      pop\n      pop\n      pop\n      swap4\n      pop\n      dup3\n      dup1\n      sload\n      tag_51\n      swap1\n      tag_41\n      jump\t// in\n    tag_51:\n      dup1\n      0x1f\n      add\n      0x20\n      dup1\n      swap2\n      div\n      mul\n      0x20\n      add\n      mload(0x40)\n      swap1\n      dup2\n      add\n      0x40\n      mstore\n      dup1\n      swap3\n      swap2\n      swap1\n      dup2\n      dup2\n      mstore\n      0x20\n      add\n      dup3\n      dup1\n      sload\n      tag_52\n      swap1\n      tag_41\n      jump\t// in\n    tag_52:\n      dup1\n      iszero\n      tag_53\n      jumpi\n      dup1\n      0x1f\n      lt\n      tag_54\n      jumpi\n      0x0100\n      dup1\n      dup4\n      sload\n      div\n      mul\n      dup4\n      mstore\n      swap2\n      0x20\n      add\n      swap2\n      jump(tag_53)\n    tag_54:\n      dup3\n      add\n      swap2\n      swap1\n      0x00\n      mstore\n      keccak256(0x00, 0x20)\n      swap1\n    tag_55:\n      dup2\n      sload\n      dup2\n      mstore\n      swap1\n      0x01\n      add\n      swap1\n      0x20\n      add\n      dup1\n      dup4\n      gt\n      tag_55\n      jumpi\n      dup3\n      swap1\n      sub\n      0x1f\n      and\n      dup3\n      add\n      swap2\n    tag_53:\n      pop\n      pop\n      pop\n      pop\n      pop\n      swap3\n      pop\n      dup1\n      dup1\n      sload\n      tag_56\n      swap1\n      tag_41\n      jump\t// in\n    tag_56:\n      dup1\n      0x1f\n      add\n      0x20\n      dup1\n      swap2\n      div\n      mul\n      0x20\n      add\n      mload(0x40)\n      swap1\n      dup2\n      add\n      0x40\n      mstore\n      dup1\n      swap3\n      swap2\n      swap1\n      dup2\n      dup2\n      mstore\n      0x20\n      add\n      dup3\n      dup1\n      sload\n      tag_57\n      swap1\n      tag_41\n      jump\t// in\n    tag_57:\n      dup1\n      iszero\n      tag_58\n      jumpi\n      dup1\n      0x1f\n      lt\n      tag_59\n      jumpi\n      0x0100\n      dup1\n      dup4\n      sload\n      div\n      mul\n      dup4\n      mstore\n      swap2\n      0x20\n      add\n      swap2\n      jump(tag_58)\n    tag_59:\n      dup3\n      add\n      swap2\n      swap1\n      0x00\n      mstore\n      keccak256(0x00, 0x20)\n      swap1\n    tag_60:\n      dup2\n      sload\n      dup2\n      mstore\n      swap1\n      0x01\n      add\n      swap1\n      0x20\n      add\n      dup1\n      dup4\n      gt\n      tag_60\n      jumpi\n      dup3\n      swap1\n      sub\n      0x1f\n      and\n      dup3\n      add\n      swap2\n    tag_58:\n      pop\n      pop\n      pop\n      pop\n      pop\n      swap1\n      pop\n      swap8\n      pop\n      swap8\n      pop\n      swap8\n      pop\n      swap8\n      pop\n      swap8\n      pop\n      swap8\n      pop\n      swap8\n      pop\n      pop\n        /* \"institute.sol\":2874:3625  function getCertByAddress(... */\n      swap3\n      swap6\n      swap9\n      swap2\n      swap5\n      swap8\n      pop\n      swap3\n      swap6\n      pop\n      jump\t// out\n        /* \"institute.sol\":3633:3750  function getCertifiedStudentCount() public view returns (uint256) {... */\n    tag_20:\n        /* \"institute.sol\":3690:3697  uint256 */\n      0x00\n        /* \"institute.sol\":3717:3735  certified_students */\n      0x07\n        /* \"institute.sol\":3717:3742  certified_students.length */\n      dup1\n      sload\n      swap1\n      pop\n        /* \"institute.sol\":3710:3742  return certified_students.length */\n      swap1\n      pop\n        /* \"institute.sol\":3633:3750  function getCertifiedStudentCount() public view returns (uint256) {... */\n      swap1\n      jump\t// out\n        /* \"institute.sol\":1538:2600  function addEducation(... */\n    tag_26:\n        /* \"institute.sol\":1802:1809  bytes32 */\n      0x00\n        /* \"institute.sol\":699:716  institute_address */\n      dup1\n      0x00\n      swap1\n      sload\n      swap1\n      0x0100\n      exp\n      swap1\n      div\n      0xffffffffffffffffffffffffffffffffffffffff\n      and\n        /* \"institute.sol\":685:716  msg.sender == institute_address */\n      0xffffffffffffffffffffffffffffffffffffffff\n      and\n        /* \"institute.sol\":685:695  msg.sender */\n      caller\n        /* \"institute.sol\":685:716  msg.sender == institute_address */\n      0xffffffffffffffffffffffffffffffffffffffff\n      and\n      eq\n        /* \"institute.sol\":677:717  require(msg.sender == institute_address) */\n      tag_63\n      jumpi\n      0x00\n      dup1\n      revert\n    tag_63:\n        /* \"institute.sol\":1822:1865  official_cert_info memory new_official_cert */\n      tag_65\n      tag_66\n      jump\t// in\n    tag_65:\n        /* \"institute.sol\":1876:1914  studentandtype memory newstudenttotype */\n      tag_67\n      tag_68\n      jump\t// in\n    tag_67:\n        /* \"institute.sol\":1952:1960  _student */\n      dup8\n        /* \"institute.sol\":1925:1941  newstudenttotype */\n      dup2\n        /* \"institute.sol\":1925:1949  newstudenttotype.student */\n      0x00\n      add\n        /* \"institute.sol\":1925:1960  newstudenttotype.student = _student */\n      swap1\n      0xffffffffffffffffffffffffffffffffffffffff\n      and\n      swap1\n      dup2\n      0xffffffffffffffffffffffffffffffffffffffff\n      and\n      dup2\n      mstore\n      pop\n      pop\n        /* \"institute.sol\":2000:2010  _cert_type */\n      dup4\n        /* \"institute.sol\":1971:1987  newstudenttotype */\n      dup2\n        /* \"institute.sol\":1971:1997  newstudenttotype.cert_type */\n      0x20\n      add\n        /* \"institute.sol\":1971:2010  newstudenttotype.cert_type = _cert_type */\n      dup2\n      swap1\n      mstore\n      pop\n        /* \"institute.sol\":2021:2032  bytes32 key */\n      0x00\n        /* \"institute.sol\":2035:2068  generateKey(_student, _cert_type) */\n      tag_69\n        /* \"institute.sol\":2047:2055  _student */\n      dup10\n        /* \"institute.sol\":2057:2067  _cert_type */\n      dup7\n        /* \"institute.sol\":2035:2046  generateKey */\n      tag_37\n        /* \"institute.sol\":2035:2068  generateKey(_student, _cert_type) */\n      jump\t// in\n    tag_69:\n        /* \"institute.sol\":2021:2068  bytes32 key = generateKey(_student, _cert_type) */\n      swap1\n      pop\n        /* \"institute.sol\":2112:2125  _student_name */\n      dup10\n        /* \"institute.sol\":2079:2096  new_official_cert */\n      dup4\n        /* \"institute.sol\":2079:2109  new_official_cert.student_name */\n      0x40\n      add\n        /* \"institute.sol\":2079:2125  new_official_cert.student_name = _student_name */\n      dup2\n      swap1\n      mstore\n      pop\n        /* \"institute.sol\":2164:2172  _student */\n      dup9\n        /* \"institute.sol\":2136:2153  new_official_cert */\n      dup4\n        /* \"institute.sol\":2136:2161  new_official_cert.student */\n      0x00\n      add\n        /* \"institute.sol\":2136:2172  new_official_cert.student = _student */\n      swap1\n      0xffffffffffffffffffffffffffffffffffffffff\n      and\n      swap1\n      dup2\n      0xffffffffffffffffffffffffffffffffffffffff\n      and\n      dup2\n      mstore\n      pop\n      pop\n        /* \"institute.sol\":2213:2223  msg.sender */\n      caller\n        /* \"institute.sol\":2183:2200  new_official_cert */\n      dup4\n        /* \"institute.sol\":2183:2210  new_official_cert.institute */\n      0x60\n      add\n        /* \"institute.sol\":2183:2223  new_official_cert.institute = msg.sender */\n      swap1\n      0xffffffffffffffffffffffffffffffffffffffff\n      and\n      swap1\n      dup2\n      0xffffffffffffffffffffffffffffffffffffffff\n      and\n      dup2\n      mstore\n      pop\n      pop\n        /* \"institute.sol\":2264:2274  _startdate */\n      dup8\n        /* \"institute.sol\":2234:2251  new_official_cert */\n      dup4\n        /* \"institute.sol\":2234:2261  new_official_cert.startdate */\n      0x80\n      add\n        /* \"institute.sol\":2234:2274  new_official_cert.startdate = _startdate */\n      dup2\n      swap1\n      mstore\n      pop\n        /* \"institute.sol\":2313:2321  _enddate */\n      dup7\n        /* \"institute.sol\":2285:2302  new_official_cert */\n      dup4\n        /* \"institute.sol\":2285:2310  new_official_cert.enddate */\n      0xa0\n      add\n        /* \"institute.sol\":2285:2321  new_official_cert.enddate = _enddate */\n      dup2\n      swap1\n      mstore\n      pop\n        /* \"institute.sol\":2361:2366  false */\n      0x00\n        /* \"institute.sol\":2332:2349  new_official_cert */\n      dup4\n        /* \"institute.sol\":2332:2358  new_official_cert.verified */\n      0xc0\n      add\n        /* \"institute.sol\":2332:2366  new_official_cert.verified = false */\n      swap1\n      iszero\n      iszero\n      swap1\n      dup2\n      iszero\n      iszero\n      dup2\n      mstore\n      pop\n      pop\n        /* \"institute.sol\":2409:2421  _description */\n      dup6\n        /* \"institute.sol\":2377:2394  new_official_cert */\n      dup4\n        /* \"institute.sol\":2377:2406  new_official_cert.description */\n      0xe0\n      add\n        /* \"institute.sol\":2377:2421  new_official_cert.description = _description */\n      dup2\n      swap1\n      mstore\n      pop\n        /* \"institute.sol\":2456:2473  new_official_cert */\n      dup3\n        /* \"institute.sol\":2432:2448  official_certmap */\n      0x05\n        /* \"institute.sol\":2432:2453  official_certmap[key] */\n      0x00\n        /* \"institute.sol\":2449:2452  key */\n      dup4\n        /* \"institute.sol\":2432:2453  official_certmap[key] */\n      dup2\n      mstore\n      0x20\n      add\n      swap1\n      dup2\n      mstore\n      0x20\n      add\n      0x00\n      keccak256\n        /* \"institute.sol\":2432:2473  official_certmap[key] = new_official_cert */\n      0x00\n      dup3\n      add\n      mload\n      dup2\n      0x00\n      add\n      exp(0x0100, 0x00)\n      dup2\n      sload\n      dup2\n      0xffffffffffffffffffffffffffffffffffffffff\n      mul\n      not\n      and\n      swap1\n      dup4\n      0xffffffffffffffffffffffffffffffffffffffff\n      and\n      mul\n      or\n      swap1\n      sstore\n      pop\n      0x20\n      dup3\n      add\n      mload\n      dup2\n      0x01\n      add\n      swap1\n      dup1\n      mload\n      swap1\n      0x20\n      add\n      swap1\n      tag_70\n      swap3\n      swap2\n      swap1\n      tag_71\n      jump\t// in\n    tag_70:\n      pop\n      0x40\n      dup3\n      add\n      mload\n      dup2\n      0x02\n      add\n      swap1\n      dup1\n      mload\n      swap1\n      0x20\n      add\n      swap1\n      tag_72\n      swap3\n      swap2\n      swap1\n      tag_71\n      jump\t// in\n    tag_72:\n      pop\n      0x60\n      dup3\n      add\n      mload\n      dup2\n      0x03\n      add\n      exp(0x0100, 0x00)\n      dup2\n      sload\n      dup2\n      0xffffffffffffffffffffffffffffffffffffffff\n      mul\n      not\n      and\n      swap1\n      dup4\n      0xffffffffffffffffffffffffffffffffffffffff\n      and\n      mul\n      or\n      swap1\n      sstore\n      pop\n      0x80\n      dup3\n      add\n      mload\n      dup2\n      0x04\n      add\n      swap1\n      dup1\n      mload\n      swap1\n      0x20\n      add\n      swap1\n      tag_73\n      swap3\n      swap2\n      swap1\n      tag_71\n      jump\t// in\n    tag_73:\n      pop\n      0xa0\n      dup3\n      add\n      mload\n      dup2\n      0x05\n      add\n      swap1\n      dup1\n      mload\n      swap1\n      0x20\n      add\n      swap1\n      tag_74\n      swap3\n      swap2\n      swap1\n      tag_71\n      jump\t// in\n    tag_74:\n      pop\n      0xc0\n      dup3\n      add\n      mload\n      dup2\n      0x06\n      add\n      exp(0x0100, 0x00)\n      dup2\n      sload\n      dup2\n      0xff\n      mul\n      not\n      and\n      swap1\n      dup4\n      iszero\n      iszero\n      mul\n      or\n      swap1\n      sstore\n      pop\n      0xe0\n      dup3\n      add\n      mload\n      dup2\n      0x07\n      add\n      swap1\n      dup1\n      mload\n      swap1\n      0x20\n      add\n      swap1\n      tag_75\n      swap3\n      swap2\n      swap1\n      tag_71\n      jump\t// in\n    tag_75:\n      pop\n      swap1\n      pop\n      pop\n        /* \"institute.sol\":2511:2527  newstudenttotype */\n      dup2\n        /* \"institute.sol\":2484:2496  indexTovalue */\n      0x06\n        /* \"institute.sol\":2484:2508  indexTovalue[indexcount] */\n      0x00\n        /* \"institute.sol\":2497:2507  indexcount */\n      sload(0x03)\n        /* \"institute.sol\":2484:2508  indexTovalue[indexcount] */\n      dup2\n      mstore\n      0x20\n      add\n      swap1\n      dup2\n      mstore\n      0x20\n      add\n      0x00\n      keccak256\n        /* \"institute.sol\":2484:2527  indexTovalue[indexcount] = newstudenttotype */\n      0x00\n      dup3\n      add\n      mload\n      dup2\n      0x00\n      add\n      exp(0x0100, 0x00)\n      dup2\n      sload\n      dup2\n      0xffffffffffffffffffffffffffffffffffffffff\n      mul\n      not\n      and\n      swap1\n      dup4\n      0xffffffffffffffffffffffffffffffffffffffff\n      and\n      mul\n      or\n      swap1\n      sstore\n      pop\n      0x20\n      dup3\n      add\n      mload\n      dup2\n      0x01\n      add\n      swap1\n      dup1\n      mload\n      swap1\n      0x20\n      add\n      swap1\n      tag_76\n      swap3\n      swap2\n      swap1\n      tag_71\n      jump\t// in\n    tag_76:\n      pop\n      swap1\n      pop\n      pop\n        /* \"institute.sol\":2538:2556  certified_students */\n      0x07\n        /* \"institute.sol\":2562:2570  _student */\n      dup10\n        /* \"institute.sol\":2538:2571  certified_students.push(_student) */\n      swap1\n      dup1\n      0x01\n      dup2\n      sload\n      add\n      dup1\n      dup3\n      sstore\n      dup1\n      swap2\n      pop\n      pop\n      0x01\n      swap1\n      sub\n      swap1\n      0x00\n      mstore\n      keccak256(0x00, 0x20)\n      add\n      0x00\n      swap1\n      swap2\n      swap1\n      swap2\n      swap1\n      swap2\n      0x0100\n      exp\n      dup2\n      sload\n      dup2\n      0xffffffffffffffffffffffffffffffffffffffff\n      mul\n      not\n      and\n      swap1\n      dup4\n      0xffffffffffffffffffffffffffffffffffffffff\n      and\n      mul\n      or\n      swap1\n      sstore\n      pop\n        /* \"institute.sol\":2589:2592  key */\n      dup1\n        /* \"institute.sol\":2582:2592  return key */\n      swap4\n      pop\n      pop\n      pop\n      pop\n        /* \"institute.sol\":1538:2600  function addEducation(... */\n      swap7\n      swap6\n      pop\n      pop\n      pop\n      pop\n      pop\n      pop\n      jump\t// out\n        /* \"institute.sol\":3758:4219  function getcertByIndex(... */\n    tag_31:\n        /* \"institute.sol\":3876:3889  string memory */\n      0x60\n        /* \"institute.sol\":3904:3911  address */\n      0x00\n        /* \"institute.sol\":3926:3933  address */\n      dup1\n        /* \"institute.sol\":3948:3961  string memory */\n      0x60\n        /* \"institute.sol\":3976:3989  string memory */\n      dup1\n        /* \"institute.sol\":4004:4008  bool */\n      0x00\n        /* \"institute.sol\":4023:4036  string memory */\n      0x60\n        /* \"institute.sol\":4084:4211  getCertByAddress(... */\n      tag_79\n        /* \"institute.sol\":4119:4131  indexTovalue */\n      0x06\n        /* \"institute.sol\":4119:4139  indexTovalue[_index] */\n      0x00\n        /* \"institute.sol\":4132:4138  _index */\n      dup11\n        /* \"institute.sol\":4119:4139  indexTovalue[_index] */\n      dup2\n      mstore\n      0x20\n      add\n      swap1\n      dup2\n      mstore\n      0x20\n      add\n      0x00\n      keccak256\n        /* \"institute.sol\":4119:4147  indexTovalue[_index].student */\n      0x00\n      add\n      0x00\n      swap1\n      sload\n      swap1\n      0x0100\n      exp\n      swap1\n      div\n      0xffffffffffffffffffffffffffffffffffffffff\n      and\n        /* \"institute.sol\":4166:4178  indexTovalue */\n      0x06\n        /* \"institute.sol\":4166:4186  indexTovalue[_index] */\n      0x00\n        /* \"institute.sol\":4179:4185  _index */\n      dup12\n        /* \"institute.sol\":4166:4186  indexTovalue[_index] */\n      dup2\n      mstore\n      0x20\n      add\n      swap1\n      dup2\n      mstore\n      0x20\n      add\n      0x00\n      keccak256\n        /* \"institute.sol\":4166:4196  indexTovalue[_index].cert_type */\n      0x01\n      add\n        /* \"institute.sol\":4084:4211  getCertByAddress(... */\n      dup1\n      sload\n      tag_80\n      swap1\n      tag_41\n      jump\t// in\n    tag_80:\n      dup1\n      0x1f\n      add\n      0x20\n      dup1\n      swap2\n      div\n      mul\n      0x20\n      add\n      mload(0x40)\n      swap1\n      dup2\n      add\n      0x40\n      mstore\n      dup1\n      swap3\n      swap2\n      swap1\n      dup2\n      dup2\n      mstore\n      0x20\n      add\n      dup3\n      dup1\n      sload\n      tag_81\n      swap1\n      tag_41\n      jump\t// in\n    tag_81:\n      dup1\n      iszero\n      tag_82\n      jumpi\n      dup1\n      0x1f\n      lt\n      tag_83\n      jumpi\n      0x0100\n      dup1\n      dup4\n      sload\n      div\n      mul\n      dup4\n      mstore\n      swap2\n      0x20\n      add\n      swap2\n      jump(tag_82)\n    tag_83:\n      dup3\n      add\n      swap2\n      swap1\n      0x00\n      mstore\n      keccak256(0x00, 0x20)\n      swap1\n    tag_84:\n      dup2\n      sload\n      dup2\n      mstore\n      swap1\n      0x01\n      add\n      swap1\n      0x20\n      add\n      dup1\n      dup4\n      gt\n      tag_84\n      jumpi\n      dup3\n      swap1\n      sub\n      0x1f\n      and\n      dup3\n      add\n      swap2\n    tag_82:\n      pop\n      pop\n      pop\n      pop\n      pop\n        /* \"institute.sol\":4084:4100  getCertByAddress */\n      tag_16\n        /* \"institute.sol\":4084:4211  getCertByAddress(... */\n      jump\t// in\n    tag_79:\n        /* \"institute.sol\":4064:4211  return... */\n      swap7\n      pop\n      swap7\n      pop\n      swap7\n      pop\n      swap7\n      pop\n      swap7\n      pop\n      swap7\n      pop\n      swap7\n      pop\n        /* \"institute.sol\":3758:4219  function getcertByIndex(... */\n      swap2\n      swap4\n      swap6\n      swap8\n      swap1\n      swap3\n      swap5\n      swap7\n      pop\n      jump\t// out\n        /* \"institute.sol\":1333:1530  function generateKey(... */\n    tag_37:\n        /* \"institute.sol\":1446:1453  bytes32 */\n      0x00\n        /* \"institute.sol\":1500:1508  _student */\n      dup3\n        /* \"institute.sol\":1510:1520  _cert_type */\n      dup3\n        /* \"institute.sol\":1483:1521  abi.encodePacked(_student, _cert_type) */\n      add(0x20, mload(0x40))\n      tag_86\n      swap3\n      swap2\n      swap1\n      tag_87\n      jump\t// in\n    tag_86:\n      mload(0x40)\n      0x20\n      dup2\n      dup4\n      sub\n      sub\n      dup2\n      mstore\n      swap1\n      0x40\n      mstore\n        /* \"institute.sol\":1473:1522  keccak256(abi.encodePacked(_student, _cert_type)) */\n      dup1\n      mload\n      swap1\n      0x20\n      add\n      keccak256\n        /* \"institute.sol\":1466:1522  return keccak256(abi.encodePacked(_student, _cert_type)) */\n      swap1\n      pop\n        /* \"institute.sol\":1333:1530  function generateKey(... */\n      swap3\n      swap2\n      pop\n      pop\n      jump\t// out\n    tag_66:\n      mload(0x40)\n      dup1\n      0x0100\n      add\n      0x40\n      mstore\n      dup1\n      and(0xffffffffffffffffffffffffffffffffffffffff, 0x00)\n      dup2\n      mstore\n      0x20\n      add\n      0x60\n      dup2\n      mstore\n      0x20\n      add\n      0x60\n      dup2\n      mstore\n      0x20\n      add\n      and(0xffffffffffffffffffffffffffffffffffffffff, 0x00)\n      dup2\n      mstore\n      0x20\n      add\n      0x60\n      dup2\n      mstore\n      0x20\n      add\n      0x60\n      dup2\n      mstore\n      0x20\n      add\n      iszero(iszero(0x00))\n      dup2\n      mstore\n      0x20\n      add\n      0x60\n      dup2\n      mstore\n      pop\n      swap1\n      jump\t// out\n    tag_68:\n      mload(0x40)\n      dup1\n      0x40\n      add\n      0x40\n      mstore\n      dup1\n      and(0xffffffffffffffffffffffffffffffffffffffff, 0x00)\n      dup2\n      mstore\n      0x20\n      add\n      0x60\n      dup2\n      mstore\n      pop\n      swap1\n      jump\t// out\n    tag_71:\n      dup3\n      dup1\n      sload\n      tag_88\n      swap1\n      tag_41\n      jump\t// in\n    tag_88:\n      swap1\n      0x00\n      mstore\n      keccak256(0x00, 0x20)\n      swap1\n      0x1f\n      add\n      0x20\n      swap1\n      div\n      dup2\n      add\n      swap3\n      dup3\n      tag_90\n      jumpi\n      0x00\n      dup6\n      sstore\n      jump(tag_89)\n    tag_90:\n      dup3\n      0x1f\n      lt\n      tag_91\n      jumpi\n      dup1\n      mload\n      not(0xff)\n      and\n      dup4\n      dup1\n      add\n      or\n      dup6\n      sstore\n      jump(tag_89)\n    tag_91:\n      dup3\n      dup1\n      add\n      0x01\n      add\n      dup6\n      sstore\n      dup3\n      iszero\n      tag_89\n      jumpi\n      swap2\n      dup3\n      add\n    tag_92:\n      dup3\n      dup2\n      gt\n      iszero\n      tag_93\n      jumpi\n      dup3\n      mload\n      dup3\n      sstore\n      swap2\n      0x20\n      add\n      swap2\n      swap1\n      0x01\n      add\n      swap1\n      jump(tag_92)\n    tag_93:\n    tag_89:\n      pop\n      swap1\n      pop\n      tag_94\n      swap2\n      swap1\n      tag_95\n      jump\t// in\n    tag_94:\n      pop\n      swap1\n      jump\t// out\n    tag_95:\n    tag_96:\n      dup1\n      dup3\n      gt\n      iszero\n      tag_97\n      jumpi\n      0x00\n      dup2\n      0x00\n      swap1\n      sstore\n      pop\n      0x01\n      add\n      jump(tag_96)\n    tag_97:\n      pop\n      swap1\n      jump\t// out\n        /* \"#utility.yul\":7:82   */\n    tag_98:\n        /* \"#utility.yul\":40:46   */\n      0x00\n        /* \"#utility.yul\":73:75   */\n      0x40\n        /* \"#utility.yul\":67:76   */\n      mload\n        /* \"#utility.yul\":57:76   */\n      swap1\n      pop\n        /* \"#utility.yul\":7:82   */\n      swap1\n      jump\t// out\n        /* \"#utility.yul\":88:205   */\n    tag_99:\n        /* \"#utility.yul\":197:198   */\n      0x00\n        /* \"#utility.yul\":194:195   */\n      dup1\n        /* \"#utility.yul\":187:199   */\n      revert\n        /* \"#utility.yul\":211:328   */\n    tag_100:\n        /* \"#utility.yul\":320:321   */\n      0x00\n        /* \"#utility.yul\":317:318   */\n      dup1\n        /* \"#utility.yul\":310:322   */\n      revert\n        /* \"#utility.yul\":334:460   */\n    tag_101:\n        /* \"#utility.yul\":371:378   */\n      0x00\n        /* \"#utility.yul\":411:453   */\n      0xffffffffffffffffffffffffffffffffffffffff\n        /* \"#utility.yul\":404:409   */\n      dup3\n        /* \"#utility.yul\":400:454   */\n      and\n        /* \"#utility.yul\":389:454   */\n      swap1\n      pop\n        /* \"#utility.yul\":334:460   */\n      swap2\n      swap1\n      pop\n      jump\t// out\n        /* \"#utility.yul\":466:562   */\n    tag_102:\n        /* \"#utility.yul\":503:510   */\n      0x00\n        /* \"#utility.yul\":532:556   */\n      tag_141\n        /* \"#utility.yul\":550:555   */\n      dup3\n        /* \"#utility.yul\":532:556   */\n      tag_101\n      jump\t// in\n    tag_141:\n        /* \"#utility.yul\":521:556   */\n      swap1\n      pop\n        /* \"#utility.yul\":466:562   */\n      swap2\n      swap1\n      pop\n      jump\t// out\n        /* \"#utility.yul\":568:690   */\n    tag_103:\n        /* \"#utility.yul\":641:665   */\n      tag_143\n        /* \"#utility.yul\":659:664   */\n      dup2\n        /* \"#utility.yul\":641:665   */\n      tag_102\n      jump\t// in\n    tag_143:\n        /* \"#utility.yul\":634:639   */\n      dup2\n        /* \"#utility.yul\":631:666   */\n      eq\n        /* \"#utility.yul\":621:684   */\n      tag_144\n      jumpi\n        /* \"#utility.yul\":680:681   */\n      0x00\n        /* \"#utility.yul\":677:678   */\n      dup1\n        /* \"#utility.yul\":670:682   */\n      revert\n        /* \"#utility.yul\":621:684   */\n    tag_144:\n        /* \"#utility.yul\":568:690   */\n      pop\n      jump\t// out\n        /* \"#utility.yul\":696:835   */\n    tag_104:\n        /* \"#utility.yul\":742:747   */\n      0x00\n        /* \"#utility.yul\":780:786   */\n      dup2\n        /* \"#utility.yul\":767:787   */\n      calldataload\n        /* \"#utility.yul\":758:787   */\n      swap1\n      pop\n        /* \"#utility.yul\":796:829   */\n      tag_146\n        /* \"#utility.yul\":823:828   */\n      dup2\n        /* \"#utility.yul\":796:829   */\n      tag_103\n      jump\t// in\n    tag_146:\n        /* \"#utility.yul\":696:835   */\n      swap3\n      swap2\n      pop\n      pop\n      jump\t// out\n        /* \"#utility.yul\":841:958   */\n    tag_105:\n        /* \"#utility.yul\":950:951   */\n      0x00\n        /* \"#utility.yul\":947:948   */\n      dup1\n        /* \"#utility.yul\":940:952   */\n      revert\n        /* \"#utility.yul\":964:1081   */\n    tag_106:\n        /* \"#utility.yul\":1073:1074   */\n      0x00\n        /* \"#utility.yul\":1070:1071   */\n      dup1\n        /* \"#utility.yul\":1063:1075   */\n      revert\n        /* \"#utility.yul\":1087:1189   */\n    tag_107:\n        /* \"#utility.yul\":1128:1134   */\n      0x00\n        /* \"#utility.yul\":1179:1181   */\n      0x1f\n        /* \"#utility.yul\":1175:1182   */\n      not\n        /* \"#utility.yul\":1170:1172   */\n      0x1f\n        /* \"#utility.yul\":1163:1168   */\n      dup4\n        /* \"#utility.yul\":1159:1173   */\n      add\n        /* \"#utility.yul\":1155:1183   */\n      and\n        /* \"#utility.yul\":1145:1183   */\n      swap1\n      pop\n        /* \"#utility.yul\":1087:1189   */\n      swap2\n      swap1\n      pop\n      jump\t// out\n        /* \"#utility.yul\":1195:1375   */\n    tag_108:\n        /* \"#utility.yul\":1243:1320   */\n      0x4e487b7100000000000000000000000000000000000000000000000000000000\n        /* \"#utility.yul\":1240:1241   */\n      0x00\n        /* \"#utility.yul\":1233:1321   */\n      mstore\n        /* \"#utility.yul\":1340:1344   */\n      0x41\n        /* \"#utility.yul\":1337:1338   */\n      0x04\n        /* \"#utility.yul\":1330:1345   */\n      mstore\n        /* \"#utility.yul\":1364:1368   */\n      0x24\n        /* \"#utility.yul\":1361:1362   */\n      0x00\n        /* \"#utility.yul\":1354:1369   */\n      revert\n        /* \"#utility.yul\":1381:1662   */\n    tag_109:\n        /* \"#utility.yul\":1464:1491   */\n      tag_152\n        /* \"#utility.yul\":1486:1490   */\n      dup3\n        /* \"#utility.yul\":1464:1491   */\n      tag_107\n      jump\t// in\n    tag_152:\n        /* \"#utility.yul\":1456:1462   */\n      dup2\n        /* \"#utility.yul\":1452:1492   */\n      add\n        /* \"#utility.yul\":1594:1600   */\n      dup2\n        /* \"#utility.yul\":1582:1592   */\n      dup2\n        /* \"#utility.yul\":1579:1601   */\n      lt\n        /* \"#utility.yul\":1558:1576   */\n      0xffffffffffffffff\n        /* \"#utility.yul\":1546:1556   */\n      dup3\n        /* \"#utility.yul\":1543:1577   */\n      gt\n        /* \"#utility.yul\":1540:1602   */\n      or\n        /* \"#utility.yul\":1537:1625   */\n      iszero\n      tag_153\n      jumpi\n        /* \"#utility.yul\":1605:1623   */\n      tag_154\n      tag_108\n      jump\t// in\n    tag_154:\n        /* \"#utility.yul\":1537:1625   */\n    tag_153:\n        /* \"#utility.yul\":1645:1655   */\n      dup1\n        /* \"#utility.yul\":1641:1643   */\n      0x40\n        /* \"#utility.yul\":1634:1656   */\n      mstore\n        /* \"#utility.yul\":1424:1662   */\n      pop\n        /* \"#utility.yul\":1381:1662   */\n      pop\n      pop\n      jump\t// out\n        /* \"#utility.yul\":1668:1797   */\n    tag_110:\n        /* \"#utility.yul\":1702:1708   */\n      0x00\n        /* \"#utility.yul\":1729:1749   */\n      tag_156\n      tag_98\n      jump\t// in\n    tag_156:\n        /* \"#utility.yul\":1719:1749   */\n      swap1\n      pop\n        /* \"#utility.yul\":1758:1791   */\n      tag_157\n        /* \"#utility.yul\":1786:1790   */\n      dup3\n        /* \"#utility.yul\":1778:1784   */\n      dup3\n        /* \"#utility.yul\":1758:1791   */\n      tag_109\n      jump\t// in\n    tag_157:\n        /* \"#utility.yul\":1668:1797   */\n      swap2\n      swap1\n      pop\n      jump\t// out\n        /* \"#utility.yul\":1803:2111   */\n    tag_111:\n        /* \"#utility.yul\":1865:1869   */\n      0x00\n        /* \"#utility.yul\":1955:1973   */\n      0xffffffffffffffff\n        /* \"#utility.yul\":1947:1953   */\n      dup3\n        /* \"#utility.yul\":1944:1974   */\n      gt\n        /* \"#utility.yul\":1941:1997   */\n      iszero\n      tag_159\n      jumpi\n        /* \"#utility.yul\":1977:1995   */\n      tag_160\n      tag_108\n      jump\t// in\n    tag_160:\n        /* \"#utility.yul\":1941:1997   */\n    tag_159:\n        /* \"#utility.yul\":2015:2044   */\n      tag_161\n        /* \"#utility.yul\":2037:2043   */\n      dup3\n        /* \"#utility.yul\":2015:2044   */\n      tag_107\n      jump\t// in\n    tag_161:\n        /* \"#utility.yul\":2007:2044   */\n      swap1\n      pop\n        /* \"#utility.yul\":2099:2103   */\n      0x20\n        /* \"#utility.yul\":2093:2097   */\n      dup2\n        /* \"#utility.yul\":2089:2104   */\n      add\n        /* \"#utility.yul\":2081:2104   */\n      swap1\n      pop\n        /* \"#utility.yul\":1803:2111   */\n      swap2\n      swap1\n      pop\n      jump\t// out\n        /* \"#utility.yul\":2117:2271   */\n    tag_112:\n        /* \"#utility.yul\":2201:2207   */\n      dup3\n        /* \"#utility.yul\":2196:2199   */\n      dup2\n        /* \"#utility.yul\":2191:2194   */\n      dup4\n        /* \"#utility.yul\":2178:2208   */\n      calldatacopy\n        /* \"#utility.yul\":2263:2264   */\n      0x00\n        /* \"#utility.yul\":2254:2260   */\n      dup4\n        /* \"#utility.yul\":2249:2252   */\n      dup4\n        /* \"#utility.yul\":2245:2261   */\n      add\n        /* \"#utility.yul\":2238:2265   */\n      mstore\n        /* \"#utility.yul\":2117:2271   */\n      pop\n      pop\n      pop\n      jump\t// out\n        /* \"#utility.yul\":2277:2689   */\n    tag_113:\n        /* \"#utility.yul\":2355:2360   */\n      0x00\n        /* \"#utility.yul\":2380:2446   */\n      tag_164\n        /* \"#utility.yul\":2396:2445   */\n      tag_165\n        /* \"#utility.yul\":2438:2444   */\n      dup5\n        /* \"#utility.yul\":2396:2445   */\n      tag_111\n      jump\t// in\n    tag_165:\n        /* \"#utility.yul\":2380:2446   */\n      tag_110\n      jump\t// in\n    tag_164:\n        /* \"#utility.yul\":2371:2446   */\n      swap1\n      pop\n        /* \"#utility.yul\":2469:2475   */\n      dup3\n        /* \"#utility.yul\":2462:2467   */\n      dup2\n        /* \"#utility.yul\":2455:2476   */\n      mstore\n        /* \"#utility.yul\":2507:2511   */\n      0x20\n        /* \"#utility.yul\":2500:2505   */\n      dup2\n        /* \"#utility.yul\":2496:2512   */\n      add\n        /* \"#utility.yul\":2545:2548   */\n      dup5\n        /* \"#utility.yul\":2536:2542   */\n      dup5\n        /* \"#utility.yul\":2531:2534   */\n      dup5\n        /* \"#utility.yul\":2527:2543   */\n      add\n        /* \"#utility.yul\":2524:2549   */\n      gt\n        /* \"#utility.yul\":2521:2633   */\n      iszero\n      tag_166\n      jumpi\n        /* \"#utility.yul\":2552:2631   */\n      tag_167\n      tag_106\n      jump\t// in\n    tag_167:\n        /* \"#utility.yul\":2521:2633   */\n    tag_166:\n        /* \"#utility.yul\":2642:2683   */\n      tag_168\n        /* \"#utility.yul\":2676:2682   */\n      dup5\n        /* \"#utility.yul\":2671:2674   */\n      dup3\n        /* \"#utility.yul\":2666:2669   */\n      dup6\n        /* \"#utility.yul\":2642:2683   */\n      tag_112\n      jump\t// in\n    tag_168:\n        /* \"#utility.yul\":2361:2689   */\n      pop\n        /* \"#utility.yul\":2277:2689   */\n      swap4\n      swap3\n      pop\n      pop\n      pop\n      jump\t// out\n        /* \"#utility.yul\":2709:3049   */\n    tag_114:\n        /* \"#utility.yul\":2765:2770   */\n      0x00\n        /* \"#utility.yul\":2814:2817   */\n      dup3\n        /* \"#utility.yul\":2807:2811   */\n      0x1f\n        /* \"#utility.yul\":2799:2805   */\n      dup4\n        /* \"#utility.yul\":2795:2812   */\n      add\n        /* \"#utility.yul\":2791:2818   */\n      slt\n        /* \"#utility.yul\":2781:2903   */\n      tag_170\n      jumpi\n        /* \"#utility.yul\":2822:2901   */\n      tag_171\n      tag_105\n      jump\t// in\n    tag_171:\n        /* \"#utility.yul\":2781:2903   */\n    tag_170:\n        /* \"#utility.yul\":2939:2945   */\n      dup2\n        /* \"#utility.yul\":2926:2946   */\n      calldataload\n        /* \"#utility.yul\":2964:3043   */\n      tag_172\n        /* \"#utility.yul\":3039:3042   */\n      dup5\n        /* \"#utility.yul\":3031:3037   */\n      dup3\n        /* \"#utility.yul\":3024:3028   */\n      0x20\n        /* \"#utility.yul\":3016:3022   */\n      dup7\n        /* \"#utility.yul\":3012:3029   */\n      add\n        /* \"#utility.yul\":2964:3043   */\n      tag_113\n      jump\t// in\n    tag_172:\n        /* \"#utility.yul\":2955:3043   */\n      swap2\n      pop\n        /* \"#utility.yul\":2771:3049   */\n      pop\n        /* \"#utility.yul\":2709:3049   */\n      swap3\n      swap2\n      pop\n      pop\n      jump\t// out\n        /* \"#utility.yul\":3055:3709   */\n    tag_10:\n        /* \"#utility.yul\":3133:3139   */\n      0x00\n        /* \"#utility.yul\":3141:3147   */\n      dup1\n        /* \"#utility.yul\":3190:3192   */\n      0x40\n        /* \"#utility.yul\":3178:3187   */\n      dup4\n        /* \"#utility.yul\":3169:3176   */\n      dup6\n        /* \"#utility.yul\":3165:3188   */\n      sub\n        /* \"#utility.yul\":3161:3193   */\n      slt\n        /* \"#utility.yul\":3158:3277   */\n      iszero\n      tag_174\n      jumpi\n        /* \"#utility.yul\":3196:3275   */\n      tag_175\n      tag_99\n      jump\t// in\n    tag_175:\n        /* \"#utility.yul\":3158:3277   */\n    tag_174:\n        /* \"#utility.yul\":3316:3317   */\n      0x00\n        /* \"#utility.yul\":3341:3394   */\n      tag_176\n        /* \"#utility.yul\":3386:3393   */\n      dup6\n        /* \"#utility.yul\":3377:3383   */\n      dup3\n        /* \"#utility.yul\":3366:3375   */\n      dup7\n        /* \"#utility.yul\":3362:3384   */\n      add\n        /* \"#utility.yul\":3341:3394   */\n      tag_104\n      jump\t// in\n    tag_176:\n        /* \"#utility.yul\":3331:3394   */\n      swap3\n      pop\n        /* \"#utility.yul\":3287:3404   */\n      pop\n        /* \"#utility.yul\":3471:3473   */\n      0x20\n        /* \"#utility.yul\":3460:3469   */\n      dup4\n        /* \"#utility.yul\":3456:3474   */\n      add\n        /* \"#utility.yul\":3443:3475   */\n      calldataload\n        /* \"#utility.yul\":3502:3520   */\n      0xffffffffffffffff\n        /* \"#utility.yul\":3494:3500   */\n      dup2\n        /* \"#utility.yul\":3491:3521   */\n      gt\n        /* \"#utility.yul\":3488:3605   */\n      iszero\n      tag_177\n      jumpi\n        /* \"#utility.yul\":3524:3603   */\n      tag_178\n      tag_100\n      jump\t// in\n    tag_178:\n        /* \"#utility.yul\":3488:3605   */\n    tag_177:\n        /* \"#utility.yul\":3629:3692   */\n      tag_179\n        /* \"#utility.yul\":3684:3691   */\n      dup6\n        /* \"#utility.yul\":3675:3681   */\n      dup3\n        /* \"#utility.yul\":3664:3673   */\n      dup7\n        /* \"#utility.yul\":3660:3682   */\n      add\n        /* \"#utility.yul\":3629:3692   */\n      tag_114\n      jump\t// in\n    tag_179:\n        /* \"#utility.yul\":3619:3692   */\n      swap2\n      pop\n        /* \"#utility.yul\":3414:3702   */\n      pop\n        /* \"#utility.yul\":3055:3709   */\n      swap3\n      pop\n      swap3\n      swap1\n      pop\n      jump\t// out\n        /* \"#utility.yul\":3715:3792   */\n    tag_115:\n        /* \"#utility.yul\":3752:3759   */\n      0x00\n        /* \"#utility.yul\":3781:3786   */\n      dup2\n        /* \"#utility.yul\":3770:3786   */\n      swap1\n      pop\n        /* \"#utility.yul\":3715:3792   */\n      swap2\n      swap1\n      pop\n      jump\t// out\n        /* \"#utility.yul\":3798:3916   */\n    tag_116:\n        /* \"#utility.yul\":3885:3909   */\n      tag_182\n        /* \"#utility.yul\":3903:3908   */\n      dup2\n        /* \"#utility.yul\":3885:3909   */\n      tag_115\n      jump\t// in\n    tag_182:\n        /* \"#utility.yul\":3880:3883   */\n      dup3\n        /* \"#utility.yul\":3873:3910   */\n      mstore\n        /* \"#utility.yul\":3798:3916   */\n      pop\n      pop\n      jump\t// out\n        /* \"#utility.yul\":3922:4144   */\n    tag_13:\n        /* \"#utility.yul\":4015:4019   */\n      0x00\n        /* \"#utility.yul\":4053:4055   */\n      0x20\n        /* \"#utility.yul\":4042:4051   */\n      dup3\n        /* \"#utility.yul\":4038:4056   */\n      add\n        /* \"#utility.yul\":4030:4056   */\n      swap1\n      pop\n        /* \"#utility.yul\":4066:4137   */\n      tag_184\n        /* \"#utility.yul\":4134:4135   */\n      0x00\n        /* \"#utility.yul\":4123:4132   */\n      dup4\n        /* \"#utility.yul\":4119:4136   */\n      add\n        /* \"#utility.yul\":4110:4116   */\n      dup5\n        /* \"#utility.yul\":4066:4137   */\n      tag_116\n      jump\t// in\n    tag_184:\n        /* \"#utility.yul\":3922:4144   */\n      swap3\n      swap2\n      pop\n      pop\n      jump\t// out\n        /* \"#utility.yul\":4150:4249   */\n    tag_117:\n        /* \"#utility.yul\":4202:4208   */\n      0x00\n        /* \"#utility.yul\":4236:4241   */\n      dup2\n        /* \"#utility.yul\":4230:4242   */\n      mload\n        /* \"#utility.yul\":4220:4242   */\n      swap1\n      pop\n        /* \"#utility.yul\":4150:4249   */\n      swap2\n      swap1\n      pop\n      jump\t// out\n        /* \"#utility.yul\":4255:4424   */\n    tag_118:\n        /* \"#utility.yul\":4339:4350   */\n      0x00\n        /* \"#utility.yul\":4373:4379   */\n      dup3\n        /* \"#utility.yul\":4368:4371   */\n      dup3\n        /* \"#utility.yul\":4361:4380   */\n      mstore\n        /* \"#utility.yul\":4413:4417   */\n      0x20\n        /* \"#utility.yul\":4408:4411   */\n      dup3\n        /* \"#utility.yul\":4404:4418   */\n      add\n        /* \"#utility.yul\":4389:4418   */\n      swap1\n      pop\n        /* \"#utility.yul\":4255:4424   */\n      swap3\n      swap2\n      pop\n      pop\n      jump\t// out\n        /* \"#utility.yul\":4430:4737   */\n    tag_119:\n        /* \"#utility.yul\":4498:4499   */\n      0x00\n        /* \"#utility.yul\":4508:4621   */\n    tag_188:\n        /* \"#utility.yul\":4522:4528   */\n      dup4\n        /* \"#utility.yul\":4519:4520   */\n      dup2\n        /* \"#utility.yul\":4516:4529   */\n      lt\n        /* \"#utility.yul\":4508:4621   */\n      iszero\n      tag_190\n      jumpi\n        /* \"#utility.yul\":4607:4608   */\n      dup1\n        /* \"#utility.yul\":4602:4605   */\n      dup3\n        /* \"#utility.yul\":4598:4609   */\n      add\n        /* \"#utility.yul\":4592:4610   */\n      mload\n        /* \"#utility.yul\":4588:4589   */\n      dup2\n        /* \"#utility.yul\":4583:4586   */\n      dup5\n        /* \"#utility.yul\":4579:4590   */\n      add\n        /* \"#utility.yul\":4572:4611   */\n      mstore\n        /* \"#utility.yul\":4544:4546   */\n      0x20\n        /* \"#utility.yul\":4541:4542   */\n      dup2\n        /* \"#utility.yul\":4537:4547   */\n      add\n        /* \"#utility.yul\":4532:4547   */\n      swap1\n      pop\n        /* \"#utility.yul\":4508:4621   */\n      jump(tag_188)\n    tag_190:\n        /* \"#utility.yul\":4639:4645   */\n      dup4\n        /* \"#utility.yul\":4636:4637   */\n      dup2\n        /* \"#utility.yul\":4633:4646   */\n      gt\n        /* \"#utility.yul\":4630:4731   */\n      iszero\n      tag_191\n      jumpi\n        /* \"#utility.yul\":4719:4720   */\n      0x00\n        /* \"#utility.yul\":4710:4716   */\n      dup5\n        /* \"#utility.yul\":4705:4708   */\n      dup5\n        /* \"#utility.yul\":4701:4717   */\n      add\n        /* \"#utility.yul\":4694:4721   */\n      mstore\n        /* \"#utility.yul\":4630:4731   */\n    tag_191:\n        /* \"#utility.yul\":4479:4737   */\n      pop\n        /* \"#utility.yul\":4430:4737   */\n      pop\n      pop\n      pop\n      jump\t// out\n        /* \"#utility.yul\":4743:5107   */\n    tag_120:\n        /* \"#utility.yul\":4831:4834   */\n      0x00\n        /* \"#utility.yul\":4859:4898   */\n      tag_193\n        /* \"#utility.yul\":4892:4897   */\n      dup3\n        /* \"#utility.yul\":4859:4898   */\n      tag_117\n      jump\t// in\n    tag_193:\n        /* \"#utility.yul\":4914:4985   */\n      tag_194\n        /* \"#utility.yul\":4978:4984   */\n      dup2\n        /* \"#utility.yul\":4973:4976   */\n      dup6\n        /* \"#utility.yul\":4914:4985   */\n      tag_118\n      jump\t// in\n    tag_194:\n        /* \"#utility.yul\":4907:4985   */\n      swap4\n      pop\n        /* \"#utility.yul\":4994:5046   */\n      tag_195\n        /* \"#utility.yul\":5039:5045   */\n      dup2\n        /* \"#utility.yul\":5034:5037   */\n      dup6\n        /* \"#utility.yul\":5027:5031   */\n      0x20\n        /* \"#utility.yul\":5020:5025   */\n      dup7\n        /* \"#utility.yul\":5016:5032   */\n      add\n        /* \"#utility.yul\":4994:5046   */\n      tag_119\n      jump\t// in\n    tag_195:\n        /* \"#utility.yul\":5071:5100   */\n      tag_196\n        /* \"#utility.yul\":5093:5099   */\n      dup2\n        /* \"#utility.yul\":5071:5100   */\n      tag_107\n      jump\t// in\n    tag_196:\n        /* \"#utility.yul\":5066:5069   */\n      dup5\n        /* \"#utility.yul\":5062:5101   */\n      add\n        /* \"#utility.yul\":5055:5101   */\n      swap2\n      pop\n        /* \"#utility.yul\":4835:5107   */\n      pop\n        /* \"#utility.yul\":4743:5107   */\n      swap3\n      swap2\n      pop\n      pop\n      jump\t// out\n        /* \"#utility.yul\":5113:5231   */\n    tag_121:\n        /* \"#utility.yul\":5200:5224   */\n      tag_198\n        /* \"#utility.yul\":5218:5223   */\n      dup2\n        /* \"#utility.yul\":5200:5224   */\n      tag_102\n      jump\t// in\n    tag_198:\n        /* \"#utility.yul\":5195:5198   */\n      dup3\n        /* \"#utility.yul\":5188:5225   */\n      mstore\n        /* \"#utility.yul\":5113:5231   */\n      pop\n      pop\n      jump\t// out\n        /* \"#utility.yul\":5237:5327   */\n    tag_122:\n        /* \"#utility.yul\":5271:5278   */\n      0x00\n        /* \"#utility.yul\":5314:5319   */\n      dup2\n        /* \"#utility.yul\":5307:5320   */\n      iszero\n        /* \"#utility.yul\":5300:5321   */\n      iszero\n        /* \"#utility.yul\":5289:5321   */\n      swap1\n      pop\n        /* \"#utility.yul\":5237:5327   */\n      swap2\n      swap1\n      pop\n      jump\t// out\n        /* \"#utility.yul\":5333:5442   */\n    tag_123:\n        /* \"#utility.yul\":5414:5435   */\n      tag_201\n        /* \"#utility.yul\":5429:5434   */\n      dup2\n        /* \"#utility.yul\":5414:5435   */\n      tag_122\n      jump\t// in\n    tag_201:\n        /* \"#utility.yul\":5409:5412   */\n      dup3\n        /* \"#utility.yul\":5402:5436   */\n      mstore\n        /* \"#utility.yul\":5333:5442   */\n      pop\n      pop\n      jump\t// out\n        /* \"#utility.yul\":5448:6686   */\n    tag_18:\n        /* \"#utility.yul\":5783:5787   */\n      0x00\n        /* \"#utility.yul\":5821:5824   */\n      0xe0\n        /* \"#utility.yul\":5810:5819   */\n      dup3\n        /* \"#utility.yul\":5806:5825   */\n      add\n        /* \"#utility.yul\":5798:5825   */\n      swap1\n      pop\n        /* \"#utility.yul\":5871:5880   */\n      dup2\n        /* \"#utility.yul\":5865:5869   */\n      dup2\n        /* \"#utility.yul\":5861:5881   */\n      sub\n        /* \"#utility.yul\":5857:5858   */\n      0x00\n        /* \"#utility.yul\":5846:5855   */\n      dup4\n        /* \"#utility.yul\":5842:5859   */\n      add\n        /* \"#utility.yul\":5835:5882   */\n      mstore\n        /* \"#utility.yul\":5899:5977   */\n      tag_203\n        /* \"#utility.yul\":5972:5976   */\n      dup2\n        /* \"#utility.yul\":5963:5969   */\n      dup11\n        /* \"#utility.yul\":5899:5977   */\n      tag_120\n      jump\t// in\n    tag_203:\n        /* \"#utility.yul\":5891:5977   */\n      swap1\n      pop\n        /* \"#utility.yul\":5987:6059   */\n      tag_204\n        /* \"#utility.yul\":6055:6057   */\n      0x20\n        /* \"#utility.yul\":6044:6053   */\n      dup4\n        /* \"#utility.yul\":6040:6058   */\n      add\n        /* \"#utility.yul\":6031:6037   */\n      dup10\n        /* \"#utility.yul\":5987:6059   */\n      tag_121\n      jump\t// in\n    tag_204:\n        /* \"#utility.yul\":6069:6141   */\n      tag_205\n        /* \"#utility.yul\":6137:6139   */\n      0x40\n        /* \"#utility.yul\":6126:6135   */\n      dup4\n        /* \"#utility.yul\":6122:6140   */\n      add\n        /* \"#utility.yul\":6113:6119   */\n      dup9\n        /* \"#utility.yul\":6069:6141   */\n      tag_121\n      jump\t// in\n    tag_205:\n        /* \"#utility.yul\":6188:6197   */\n      dup2\n        /* \"#utility.yul\":6182:6186   */\n      dup2\n        /* \"#utility.yul\":6178:6198   */\n      sub\n        /* \"#utility.yul\":6173:6175   */\n      0x60\n        /* \"#utility.yul\":6162:6171   */\n      dup4\n        /* \"#utility.yul\":6158:6176   */\n      add\n        /* \"#utility.yul\":6151:6199   */\n      mstore\n        /* \"#utility.yul\":6216:6294   */\n      tag_206\n        /* \"#utility.yul\":6289:6293   */\n      dup2\n        /* \"#utility.yul\":6280:6286   */\n      dup8\n        /* \"#utility.yul\":6216:6294   */\n      tag_120\n      jump\t// in\n    tag_206:\n        /* \"#utility.yul\":6208:6294   */\n      swap1\n      pop\n        /* \"#utility.yul\":6342:6351   */\n      dup2\n        /* \"#utility.yul\":6336:6340   */\n      dup2\n        /* \"#utility.yul\":6332:6352   */\n      sub\n        /* \"#utility.yul\":6326:6329   */\n      0x80\n        /* \"#utility.yul\":6315:6324   */\n      dup4\n        /* \"#utility.yul\":6311:6330   */\n      add\n        /* \"#utility.yul\":6304:6353   */\n      mstore\n        /* \"#utility.yul\":6370:6448   */\n      tag_207\n        /* \"#utility.yul\":6443:6447   */\n      dup2\n        /* \"#utility.yul\":6434:6440   */\n      dup7\n        /* \"#utility.yul\":6370:6448   */\n      tag_120\n      jump\t// in\n    tag_207:\n        /* \"#utility.yul\":6362:6448   */\n      swap1\n      pop\n        /* \"#utility.yul\":6458:6525   */\n      tag_208\n        /* \"#utility.yul\":6520:6523   */\n      0xa0\n        /* \"#utility.yul\":6509:6518   */\n      dup4\n        /* \"#utility.yul\":6505:6524   */\n      add\n        /* \"#utility.yul\":6496:6502   */\n      dup6\n        /* \"#utility.yul\":6458:6525   */\n      tag_123\n      jump\t// in\n    tag_208:\n        /* \"#utility.yul\":6573:6582   */\n      dup2\n        /* \"#utility.yul\":6567:6571   */\n      dup2\n        /* \"#utility.yul\":6563:6583   */\n      sub\n        /* \"#utility.yul\":6557:6560   */\n      0xc0\n        /* \"#utility.yul\":6546:6555   */\n      dup4\n        /* \"#utility.yul\":6542:6561   */\n      add\n        /* \"#utility.yul\":6535:6584   */\n      mstore\n        /* \"#utility.yul\":6601:6679   */\n      tag_209\n        /* \"#utility.yul\":6674:6678   */\n      dup2\n        /* \"#utility.yul\":6665:6671   */\n      dup5\n        /* \"#utility.yul\":6601:6679   */\n      tag_120\n      jump\t// in\n    tag_209:\n        /* \"#utility.yul\":6593:6679   */\n      swap1\n      pop\n        /* \"#utility.yul\":5448:6686   */\n      swap9\n      swap8\n      pop\n      pop\n      pop\n      pop\n      pop\n      pop\n      pop\n      pop\n      jump\t// out\n        /* \"#utility.yul\":6692:6769   */\n    tag_124:\n        /* \"#utility.yul\":6729:6736   */\n      0x00\n        /* \"#utility.yul\":6758:6763   */\n      dup2\n        /* \"#utility.yul\":6747:6763   */\n      swap1\n      pop\n        /* \"#utility.yul\":6692:6769   */\n      swap2\n      swap1\n      pop\n      jump\t// out\n        /* \"#utility.yul\":6775:6893   */\n    tag_125:\n        /* \"#utility.yul\":6862:6886   */\n      tag_212\n        /* \"#utility.yul\":6880:6885   */\n      dup2\n        /* \"#utility.yul\":6862:6886   */\n      tag_124\n      jump\t// in\n    tag_212:\n        /* \"#utility.yul\":6857:6860   */\n      dup3\n        /* \"#utility.yul\":6850:6887   */\n      mstore\n        /* \"#utility.yul\":6775:6893   */\n      pop\n      pop\n      jump\t// out\n        /* \"#utility.yul\":6899:7121   */\n    tag_22:\n        /* \"#utility.yul\":6992:6996   */\n      0x00\n        /* \"#utility.yul\":7030:7032   */\n      0x20\n        /* \"#utility.yul\":7019:7028   */\n      dup3\n        /* \"#utility.yul\":7015:7033   */\n      add\n        /* \"#utility.yul\":7007:7033   */\n      swap1\n      pop\n        /* \"#utility.yul\":7043:7114   */\n      tag_214\n        /* \"#utility.yul\":7111:7112   */\n      0x00\n        /* \"#utility.yul\":7100:7109   */\n      dup4\n        /* \"#utility.yul\":7096:7113   */\n      add\n        /* \"#utility.yul\":7087:7093   */\n      dup5\n        /* \"#utility.yul\":7043:7114   */\n      tag_125\n      jump\t// in\n    tag_214:\n        /* \"#utility.yul\":6899:7121   */\n      swap3\n      swap2\n      pop\n      pop\n      jump\t// out\n        /* \"#utility.yul\":7127:9084   */\n    tag_25:\n        /* \"#utility.yul\":7281:7287   */\n      0x00\n        /* \"#utility.yul\":7289:7295   */\n      dup1\n        /* \"#utility.yul\":7297:7303   */\n      0x00\n        /* \"#utility.yul\":7305:7311   */\n      dup1\n        /* \"#utility.yul\":7313:7319   */\n      0x00\n        /* \"#utility.yul\":7321:7327   */\n      dup1\n        /* \"#utility.yul\":7370:7373   */\n      0xc0\n        /* \"#utility.yul\":7358:7367   */\n      dup8\n        /* \"#utility.yul\":7349:7356   */\n      dup10\n        /* \"#utility.yul\":7345:7368   */\n      sub\n        /* \"#utility.yul\":7341:7374   */\n      slt\n        /* \"#utility.yul\":7338:7458   */\n      iszero\n      tag_216\n      jumpi\n        /* \"#utility.yul\":7377:7456   */\n      tag_217\n      tag_99\n      jump\t// in\n    tag_217:\n        /* \"#utility.yul\":7338:7458   */\n    tag_216:\n        /* \"#utility.yul\":7525:7526   */\n      0x00\n        /* \"#utility.yul\":7514:7523   */\n      dup8\n        /* \"#utility.yul\":7510:7527   */\n      add\n        /* \"#utility.yul\":7497:7528   */\n      calldataload\n        /* \"#utility.yul\":7555:7573   */\n      0xffffffffffffffff\n        /* \"#utility.yul\":7547:7553   */\n      dup2\n        /* \"#utility.yul\":7544:7574   */\n      gt\n        /* \"#utility.yul\":7541:7658   */\n      iszero\n      tag_218\n      jumpi\n        /* \"#utility.yul\":7577:7656   */\n      tag_219\n      tag_100\n      jump\t// in\n    tag_219:\n        /* \"#utility.yul\":7541:7658   */\n    tag_218:\n        /* \"#utility.yul\":7682:7745   */\n      tag_220\n        /* \"#utility.yul\":7737:7744   */\n      dup10\n        /* \"#utility.yul\":7728:7734   */\n      dup3\n        /* \"#utility.yul\":7717:7726   */\n      dup11\n        /* \"#utility.yul\":7713:7735   */\n      add\n        /* \"#utility.yul\":7682:7745   */\n      tag_114\n      jump\t// in\n    tag_220:\n        /* \"#utility.yul\":7672:7745   */\n      swap7\n      pop\n        /* \"#utility.yul\":7468:7755   */\n      pop\n        /* \"#utility.yul\":7794:7796   */\n      0x20\n        /* \"#utility.yul\":7820:7873   */\n      tag_221\n        /* \"#utility.yul\":7865:7872   */\n      dup10\n        /* \"#utility.yul\":7856:7862   */\n      dup3\n        /* \"#utility.yul\":7845:7854   */\n      dup11\n        /* \"#utility.yul\":7841:7863   */\n      add\n        /* \"#utility.yul\":7820:7873   */\n      tag_104\n      jump\t// in\n    tag_221:\n        /* \"#utility.yul\":7810:7873   */\n      swap6\n      pop\n        /* \"#utility.yul\":7765:7883   */\n      pop\n        /* \"#utility.yul\":7950:7952   */\n      0x40\n        /* \"#utility.yul\":7939:7948   */\n      dup8\n        /* \"#utility.yul\":7935:7953   */\n      add\n        /* \"#utility.yul\":7922:7954   */\n      calldataload\n        /* \"#utility.yul\":7981:7999   */\n      0xffffffffffffffff\n        /* \"#utility.yul\":7973:7979   */\n      dup2\n        /* \"#utility.yul\":7970:8000   */\n      gt\n        /* \"#utility.yul\":7967:8084   */\n      iszero\n      tag_222\n      jumpi\n        /* \"#utility.yul\":8003:8082   */\n      tag_223\n      tag_100\n      jump\t// in\n    tag_223:\n        /* \"#utility.yul\":7967:8084   */\n    tag_222:\n        /* \"#utility.yul\":8108:8171   */\n      tag_224\n        /* \"#utility.yul\":8163:8170   */\n      dup10\n        /* \"#utility.yul\":8154:8160   */\n      dup3\n        /* \"#utility.yul\":8143:8152   */\n      dup11\n        /* \"#utility.yul\":8139:8161   */\n      add\n        /* \"#utility.yul\":8108:8171   */\n      tag_114\n      jump\t// in\n    tag_224:\n        /* \"#utility.yul\":8098:8171   */\n      swap5\n      pop\n        /* \"#utility.yul\":7893:8181   */\n      pop\n        /* \"#utility.yul\":8248:8250   */\n      0x60\n        /* \"#utility.yul\":8237:8246   */\n      dup8\n        /* \"#utility.yul\":8233:8251   */\n      add\n        /* \"#utility.yul\":8220:8252   */\n      calldataload\n        /* \"#utility.yul\":8279:8297   */\n      0xffffffffffffffff\n        /* \"#utility.yul\":8271:8277   */\n      dup2\n        /* \"#utility.yul\":8268:8298   */\n      gt\n        /* \"#utility.yul\":8265:8382   */\n      iszero\n      tag_225\n      jumpi\n        /* \"#utility.yul\":8301:8380   */\n      tag_226\n      tag_100\n      jump\t// in\n    tag_226:\n        /* \"#utility.yul\":8265:8382   */\n    tag_225:\n        /* \"#utility.yul\":8406:8469   */\n      tag_227\n        /* \"#utility.yul\":8461:8468   */\n      dup10\n        /* \"#utility.yul\":8452:8458   */\n      dup3\n        /* \"#utility.yul\":8441:8450   */\n      dup11\n        /* \"#utility.yul\":8437:8459   */\n      add\n        /* \"#utility.yul\":8406:8469   */\n      tag_114\n      jump\t// in\n    tag_227:\n        /* \"#utility.yul\":8396:8469   */\n      swap4\n      pop\n        /* \"#utility.yul\":8191:8479   */\n      pop\n        /* \"#utility.yul\":8546:8549   */\n      0x80\n        /* \"#utility.yul\":8535:8544   */\n      dup8\n        /* \"#utility.yul\":8531:8550   */\n      add\n        /* \"#utility.yul\":8518:8551   */\n      calldataload\n        /* \"#utility.yul\":8578:8596   */\n      0xffffffffffffffff\n        /* \"#utility.yul\":8570:8576   */\n      dup2\n        /* \"#utility.yul\":8567:8597   */\n      gt\n        /* \"#utility.yul\":8564:8681   */\n      iszero\n      tag_228\n      jumpi\n        /* \"#utility.yul\":8600:8679   */\n      tag_229\n      tag_100\n      jump\t// in\n    tag_229:\n        /* \"#utility.yul\":8564:8681   */\n    tag_228:\n        /* \"#utility.yul\":8705:8768   */\n      tag_230\n        /* \"#utility.yul\":8760:8767   */\n      dup10\n        /* \"#utility.yul\":8751:8757   */\n      dup3\n        /* \"#utility.yul\":8740:8749   */\n      dup11\n        /* \"#utility.yul\":8736:8758   */\n      add\n        /* \"#utility.yul\":8705:8768   */\n      tag_114\n      jump\t// in\n    tag_230:\n        /* \"#utility.yul\":8695:8768   */\n      swap3\n      pop\n        /* \"#utility.yul\":8489:8778   */\n      pop\n        /* \"#utility.yul\":8845:8848   */\n      0xa0\n        /* \"#utility.yul\":8834:8843   */\n      dup8\n        /* \"#utility.yul\":8830:8849   */\n      add\n        /* \"#utility.yul\":8817:8850   */\n      calldataload\n        /* \"#utility.yul\":8877:8895   */\n      0xffffffffffffffff\n        /* \"#utility.yul\":8869:8875   */\n      dup2\n        /* \"#utility.yul\":8866:8896   */\n      gt\n        /* \"#utility.yul\":8863:8980   */\n      iszero\n      tag_231\n      jumpi\n        /* \"#utility.yul\":8899:8978   */\n      tag_232\n      tag_100\n      jump\t// in\n    tag_232:\n        /* \"#utility.yul\":8863:8980   */\n    tag_231:\n        /* \"#utility.yul\":9004:9067   */\n      tag_233\n        /* \"#utility.yul\":9059:9066   */\n      dup10\n        /* \"#utility.yul\":9050:9056   */\n      dup3\n        /* \"#utility.yul\":9039:9048   */\n      dup11\n        /* \"#utility.yul\":9035:9057   */\n      add\n        /* \"#utility.yul\":9004:9067   */\n      tag_114\n      jump\t// in\n    tag_233:\n        /* \"#utility.yul\":8994:9067   */\n      swap2\n      pop\n        /* \"#utility.yul\":8788:9077   */\n      pop\n        /* \"#utility.yul\":7127:9084   */\n      swap3\n      swap6\n      pop\n      swap3\n      swap6\n      pop\n      swap3\n      swap6\n      jump\t// out\n        /* \"#utility.yul\":9090:9212   */\n    tag_126:\n        /* \"#utility.yul\":9163:9187   */\n      tag_235\n        /* \"#utility.yul\":9181:9186   */\n      dup2\n        /* \"#utility.yul\":9163:9187   */\n      tag_124\n      jump\t// in\n    tag_235:\n        /* \"#utility.yul\":9156:9161   */\n      dup2\n        /* \"#utility.yul\":9153:9188   */\n      eq\n        /* \"#utility.yul\":9143:9206   */\n      tag_236\n      jumpi\n        /* \"#utility.yul\":9202:9203   */\n      0x00\n        /* \"#utility.yul\":9199:9200   */\n      dup1\n        /* \"#utility.yul\":9192:9204   */\n      revert\n        /* \"#utility.yul\":9143:9206   */\n    tag_236:\n        /* \"#utility.yul\":9090:9212   */\n      pop\n      jump\t// out\n        /* \"#utility.yul\":9218:9357   */\n    tag_127:\n        /* \"#utility.yul\":9264:9269   */\n      0x00\n        /* \"#utility.yul\":9302:9308   */\n      dup2\n        /* \"#utility.yul\":9289:9309   */\n      calldataload\n        /* \"#utility.yul\":9280:9309   */\n      swap1\n      pop\n        /* \"#utility.yul\":9318:9351   */\n      tag_238\n        /* \"#utility.yul\":9345:9350   */\n      dup2\n        /* \"#utility.yul\":9318:9351   */\n      tag_126\n      jump\t// in\n    tag_238:\n        /* \"#utility.yul\":9218:9357   */\n      swap3\n      swap2\n      pop\n      pop\n      jump\t// out\n        /* \"#utility.yul\":9363:9692   */\n    tag_30:\n        /* \"#utility.yul\":9422:9428   */\n      0x00\n        /* \"#utility.yul\":9471:9473   */\n      0x20\n        /* \"#utility.yul\":9459:9468   */\n      dup3\n        /* \"#utility.yul\":9450:9457   */\n      dup5\n        /* \"#utility.yul\":9446:9469   */\n      sub\n        /* \"#utility.yul\":9442:9474   */\n      slt\n        /* \"#utility.yul\":9439:9558   */\n      iszero\n      tag_240\n      jumpi\n        /* \"#utility.yul\":9477:9556   */\n      tag_241\n      tag_99\n      jump\t// in\n    tag_241:\n        /* \"#utility.yul\":9439:9558   */\n    tag_240:\n        /* \"#utility.yul\":9597:9598   */\n      0x00\n        /* \"#utility.yul\":9622:9675   */\n      tag_242\n        /* \"#utility.yul\":9667:9674   */\n      dup5\n        /* \"#utility.yul\":9658:9664   */\n      dup3\n        /* \"#utility.yul\":9647:9656   */\n      dup6\n        /* \"#utility.yul\":9643:9665   */\n      add\n        /* \"#utility.yul\":9622:9675   */\n      tag_127\n      jump\t// in\n    tag_242:\n        /* \"#utility.yul\":9612:9675   */\n      swap2\n      pop\n        /* \"#utility.yul\":9568:9685   */\n      pop\n        /* \"#utility.yul\":9363:9692   */\n      swap3\n      swap2\n      pop\n      pop\n      jump\t// out\n        /* \"#utility.yul\":9698:9878   */\n    tag_128:\n        /* \"#utility.yul\":9746:9823   */\n      0x4e487b7100000000000000000000000000000000000000000000000000000000\n        /* \"#utility.yul\":9743:9744   */\n      0x00\n        /* \"#utility.yul\":9736:9824   */\n      mstore\n        /* \"#utility.yul\":9843:9847   */\n      0x22\n        /* \"#utility.yul\":9840:9841   */\n      0x04\n        /* \"#utility.yul\":9833:9848   */\n      mstore\n        /* \"#utility.yul\":9867:9871   */\n      0x24\n        /* \"#utility.yul\":9864:9865   */\n      0x00\n        /* \"#utility.yul\":9857:9872   */\n      revert\n        /* \"#utility.yul\":9884:10204   */\n    tag_41:\n        /* \"#utility.yul\":9928:9934   */\n      0x00\n        /* \"#utility.yul\":9965:9966   */\n      0x02\n        /* \"#utility.yul\":9959:9963   */\n      dup3\n        /* \"#utility.yul\":9955:9967   */\n      div\n        /* \"#utility.yul\":9945:9967   */\n      swap1\n      pop\n        /* \"#utility.yul\":10012:10013   */\n      0x01\n        /* \"#utility.yul\":10006:10010   */\n      dup3\n        /* \"#utility.yul\":10002:10014   */\n      and\n        /* \"#utility.yul\":10033:10051   */\n      dup1\n        /* \"#utility.yul\":10023:10104   */\n      tag_245\n      jumpi\n        /* \"#utility.yul\":10089:10093   */\n      0x7f\n        /* \"#utility.yul\":10081:10087   */\n      dup3\n        /* \"#utility.yul\":10077:10094   */\n      and\n        /* \"#utility.yul\":10067:10094   */\n      swap2\n      pop\n        /* \"#utility.yul\":10023:10104   */\n    tag_245:\n        /* \"#utility.yul\":10151:10153   */\n      0x20\n        /* \"#utility.yul\":10143:10149   */\n      dup3\n        /* \"#utility.yul\":10140:10154   */\n      lt\n        /* \"#utility.yul\":10120:10138   */\n      dup2\n        /* \"#utility.yul\":10117:10155   */\n      eq\n        /* \"#utility.yul\":10114:10198   */\n      iszero\n      tag_246\n      jumpi\n        /* \"#utility.yul\":10170:10188   */\n      tag_247\n      tag_128\n      jump\t// in\n    tag_247:\n        /* \"#utility.yul\":10114:10198   */\n    tag_246:\n        /* \"#utility.yul\":9935:10204   */\n      pop\n        /* \"#utility.yul\":9884:10204   */\n      swap2\n      swap1\n      pop\n      jump\t// out\n        /* \"#utility.yul\":10210:10304   */\n    tag_129:\n        /* \"#utility.yul\":10243:10251   */\n      0x00\n        /* \"#utility.yul\":10291:10296   */\n      dup2\n        /* \"#utility.yul\":10287:10289   */\n      0x60\n        /* \"#utility.yul\":10283:10297   */\n      shl\n        /* \"#utility.yul\":10262:10297   */\n      swap1\n      pop\n        /* \"#utility.yul\":10210:10304   */\n      swap2\n      swap1\n      pop\n      jump\t// out\n        /* \"#utility.yul\":10310:10404   */\n    tag_130:\n        /* \"#utility.yul\":10349:10356   */\n      0x00\n        /* \"#utility.yul\":10378:10398   */\n      tag_250\n        /* \"#utility.yul\":10392:10397   */\n      dup3\n        /* \"#utility.yul\":10378:10398   */\n      tag_129\n      jump\t// in\n    tag_250:\n        /* \"#utility.yul\":10367:10398   */\n      swap1\n      pop\n        /* \"#utility.yul\":10310:10404   */\n      swap2\n      swap1\n      pop\n      jump\t// out\n        /* \"#utility.yul\":10410:10510   */\n    tag_131:\n        /* \"#utility.yul\":10449:10456   */\n      0x00\n        /* \"#utility.yul\":10478:10504   */\n      tag_252\n        /* \"#utility.yul\":10498:10503   */\n      dup3\n        /* \"#utility.yul\":10478:10504   */\n      tag_130\n      jump\t// in\n    tag_252:\n        /* \"#utility.yul\":10467:10504   */\n      swap1\n      pop\n        /* \"#utility.yul\":10410:10510   */\n      swap2\n      swap1\n      pop\n      jump\t// out\n        /* \"#utility.yul\":10516:10673   */\n    tag_132:\n        /* \"#utility.yul\":10621:10666   */\n      tag_254\n        /* \"#utility.yul\":10641:10665   */\n      tag_255\n        /* \"#utility.yul\":10659:10664   */\n      dup3\n        /* \"#utility.yul\":10641:10665   */\n      tag_102\n      jump\t// in\n    tag_255:\n        /* \"#utility.yul\":10621:10666   */\n      tag_131\n      jump\t// in\n    tag_254:\n        /* \"#utility.yul\":10616:10619   */\n      dup3\n        /* \"#utility.yul\":10609:10667   */\n      mstore\n        /* \"#utility.yul\":10516:10673   */\n      pop\n      pop\n      jump\t// out\n        /* \"#utility.yul\":10679:10827   */\n    tag_133:\n        /* \"#utility.yul\":10781:10792   */\n      0x00\n        /* \"#utility.yul\":10818:10821   */\n      dup2\n        /* \"#utility.yul\":10803:10821   */\n      swap1\n      pop\n        /* \"#utility.yul\":10679:10827   */\n      swap3\n      swap2\n      pop\n      pop\n      jump\t// out\n        /* \"#utility.yul\":10833:11210   */\n    tag_134:\n        /* \"#utility.yul\":10939:10942   */\n      0x00\n        /* \"#utility.yul\":10967:11006   */\n      tag_258\n        /* \"#utility.yul\":11000:11005   */\n      dup3\n        /* \"#utility.yul\":10967:11006   */\n      tag_117\n      jump\t// in\n    tag_258:\n        /* \"#utility.yul\":11022:11111   */\n      tag_259\n        /* \"#utility.yul\":11104:11110   */\n      dup2\n        /* \"#utility.yul\":11099:11102   */\n      dup6\n        /* \"#utility.yul\":11022:11111   */\n      tag_133\n      jump\t// in\n    tag_259:\n        /* \"#utility.yul\":11015:11111   */\n      swap4\n      pop\n        /* \"#utility.yul\":11120:11172   */\n      tag_260\n        /* \"#utility.yul\":11165:11171   */\n      dup2\n        /* \"#utility.yul\":11160:11163   */\n      dup6\n        /* \"#utility.yul\":11153:11157   */\n      0x20\n        /* \"#utility.yul\":11146:11151   */\n      dup7\n        /* \"#utility.yul\":11142:11158   */\n      add\n        /* \"#utility.yul\":11120:11172   */\n      tag_119\n      jump\t// in\n    tag_260:\n        /* \"#utility.yul\":11197:11203   */\n      dup1\n        /* \"#utility.yul\":11192:11195   */\n      dup5\n        /* \"#utility.yul\":11188:11204   */\n      add\n        /* \"#utility.yul\":11181:11204   */\n      swap2\n      pop\n        /* \"#utility.yul\":10943:11210   */\n      pop\n        /* \"#utility.yul\":10833:11210   */\n      swap3\n      swap2\n      pop\n      pop\n      jump\t// out\n        /* \"#utility.yul\":11216:11632   */\n    tag_87:\n        /* \"#utility.yul\":11376:11379   */\n      0x00\n        /* \"#utility.yul\":11391:11466   */\n      tag_262\n        /* \"#utility.yul\":11462:11465   */\n      dup3\n        /* \"#utility.yul\":11453:11459   */\n      dup6\n        /* \"#utility.yul\":11391:11466   */\n      tag_132\n      jump\t// in\n    tag_262:\n        /* \"#utility.yul\":11491:11493   */\n      0x14\n        /* \"#utility.yul\":11486:11489   */\n      dup3\n        /* \"#utility.yul\":11482:11494   */\n      add\n        /* \"#utility.yul\":11475:11494   */\n      swap2\n      pop\n        /* \"#utility.yul\":11511:11606   */\n      tag_263\n        /* \"#utility.yul\":11602:11605   */\n      dup3\n        /* \"#utility.yul\":11593:11599   */\n      dup5\n        /* \"#utility.yul\":11511:11606   */\n      tag_134\n      jump\t// in\n    tag_263:\n        /* \"#utility.yul\":11504:11606   */\n      swap2\n      pop\n        /* \"#utility.yul\":11623:11626   */\n      dup2\n        /* \"#utility.yul\":11616:11626   */\n      swap1\n      pop\n        /* \"#utility.yul\":11216:11632   */\n      swap4\n      swap3\n      pop\n      pop\n      pop\n      jump\t// out\n\n    auxdata: 0xa264697066735822122044a4b3931f18b424568b7b3e5d38e7cd78de8e331edc089cc5e56ad2cbe5eaf864736f6c634300080a0033\n}\n",
    "bytecode": {
      "linkReferences": {},
      "object": "60806040523480156200001157600080fd5b506040516200169f3803806200169f8339818101604052810190620000379190620003a6565b83600290805190602001906200004f929190620000f4565b50826000806101000a81548173ffffffffffffffffffffffffffffffffffffffff021916908373ffffffffffffffffffffffffffffffffffffffff1602179055508160019080519060200190620000a8929190620000f4565b5080600460006101000a81548173ffffffffffffffffffffffffffffffffffffffff021916908373ffffffffffffffffffffffffffffffffffffffff16021790555050505050620004bb565b828054620001029062000485565b90600052602060002090601f01602090048101928262000126576000855562000172565b82601f106200014157805160ff191683800117855562000172565b8280016001018555821562000172579182015b828111156200017157825182559160200191906001019062000154565b5b50905062000181919062000185565b5090565b5b80821115620001a057600081600090555060010162000186565b5090565b6000604051905090565b600080fd5b600080fd5b600080fd5b600080fd5b6000601f19601f8301169050919050565b7f4e487b7100000000000000000000000000000000000000000000000000000000600052604160045260246000fd5b6200020d82620001c2565b810181811067ffffffffffffffff821117156200022f576200022e620001d3565b5b80604052505050565b600062000244620001a4565b905062000252828262000202565b919050565b600067ffffffffffffffff821115620002755762000274620001d3565b5b6200028082620001c2565b9050602081019050919050565b60005b83811015620002ad57808201518184015260208101905062000290565b83811115620002bd576000848401525b50505050565b6000620002da620002d48462000257565b62000238565b905082815260208101848484011115620002f957620002f8620001bd565b5b620003068482856200028d565b509392505050565b600082601f830112620003265762000325620001b8565b5b815162000338848260208601620002c3565b91505092915050565b600073ffffffffffffffffffffffffffffffffffffffff82169050919050565b60006200036e8262000341565b9050919050565b620003808162000361565b81146200038c57600080fd5b50565b600081519050620003a08162000375565b92915050565b60008060008060808587031215620003c357620003c2620001ae565b5b600085015167ffffffffffffffff811115620003e457620003e3620001b3565b5b620003f2878288016200030e565b945050602062000405878288016200038f565b935050604085015167ffffffffffffffff811115620004295762000428620001b3565b5b62000437878288016200030e565b92505060606200044a878288016200038f565b91505092959194509250565b7f4e487b7100000000000000000000000000000000000000000000000000000000600052602260045260246000fd5b600060028204905060018216806200049e57607f821691505b60208210811415620004b557620004b462000456565b5b50919050565b6111d480620004cb6000396000f3fe608060405234801561001057600080fd5b50600436106100575760003560e01c8063b96349c11461005c578063c7bf34791461008c578063d22804ea146100c2578063e79047cf146100e0578063f36d59a014610110575b600080fd5b61007660048036038101906100719190610d1e565b610146565b6040516100839190610d93565b60405180910390f35b6100a660048036038101906100a19190610d1e565b6101e9565b6040516100b99796959493929190610e60565b60405180910390f35b6100ca610538565b6040516100d79190610f04565b60405180910390f35b6100fa60048036038101906100f59190610f1f565b610545565b6040516101079190610d93565b60405180910390f35b61012a60048036038101906101259190611064565b6108ea565b60405161013d9796959493929190610e60565b60405180910390f35b6000600460009054906101000a900473ffffffffffffffffffffffffffffffffffffffff1673ffffffffffffffffffffffffffffffffffffffff163373ffffffffffffffffffffffffffffffffffffffff16146101a257600080fd5b60006101ae84846109ed565b905060016005600083815260200190815260200160002060060160006101000a81548160ff0219169083151502179055508091505092915050565b60606000806060806000606060006102018a8a6109ed565b9050600560008281526020019081526020016000206002016005600083815260200190815260200160002060000160009054906101000a900473ffffffffffffffffffffffffffffffffffffffff166005600084815260200190815260200160002060030160009054906101000a900473ffffffffffffffffffffffffffffffffffffffff1660056000858152602001908152602001600020600401600560008681526020019081526020016000206005016005600087815260200190815260200160002060060160009054906101000a900460ff16600560008881526020019081526020016000206007018680546102f9906110c0565b80601f0160208091040260200160405190810160405280929190818152602001828054610325906110c0565b80156103725780601f1061034757610100808354040283529160200191610372565b820191906000526020600020905b81548152906001019060200180831161035557829003601f168201915b50505050509650838054610385906110c0565b80601f01602080910402602001604051908101604052809291908181526020018280546103b1906110c0565b80156103fe5780601f106103d3576101008083540402835291602001916103fe565b820191906000526020600020905b8154815290600101906020018083116103e157829003601f168201915b50505050509350828054610411906110c0565b80601f016020809104026020016040519081016040528092919081815260200182805461043d906110c0565b801561048a5780601f1061045f5761010080835404028352916020019161048a565b820191906000526020600020905b81548152906001019060200180831161046d57829003601f168201915b5050505050925080805461049d906110c0565b80601f01602080910402602001604051908101604052809291908181526020018280546104c9906110c0565b80156105165780601f106104eb57610100808354040283529160200191610516565b820191906000526020600020905b8154815290600101906020018083116104f957829003601f168201915b5050505050905097509750975097509750975097505092959891949750929550565b6000600780549050905090565b60008060009054906101000a900473ffffffffffffffffffffffffffffffffffffffff1673ffffffffffffffffffffffffffffffffffffffff163373ffffffffffffffffffffffffffffffffffffffff16146105a057600080fd5b6105a8610a20565b6105b0610a93565b87816000019073ffffffffffffffffffffffffffffffffffffffff16908173ffffffffffffffffffffffffffffffffffffffff168152505083816020018190525060006105fd89866109ed565b905089836040018190525088836000019073ffffffffffffffffffffffffffffffffffffffff16908173ffffffffffffffffffffffffffffffffffffffff168152505033836060019073ffffffffffffffffffffffffffffffffffffffff16908173ffffffffffffffffffffffffffffffffffffffff1681525050878360800181905250868360a0018190525060008360c0019015159081151581525050858360e00181905250826005600083815260200190815260200160002060008201518160000160006101000a81548173ffffffffffffffffffffffffffffffffffffffff021916908373ffffffffffffffffffffffffffffffffffffffff160217905550602082015181600101908051906020019061071b929190610ac3565b506040820151816002019080519060200190610738929190610ac3565b5060608201518160030160006101000a81548173ffffffffffffffffffffffffffffffffffffffff021916908373ffffffffffffffffffffffffffffffffffffffff160217905550608082015181600401908051906020019061079c929190610ac3565b5060a08201518160050190805190602001906107b9929190610ac3565b5060c08201518160060160006101000a81548160ff02191690831515021790555060e08201518160070190805190602001906107f6929190610ac3565b509050508160066000600354815260200190815260200160002060008201518160000160006101000a81548173ffffffffffffffffffffffffffffffffffffffff021916908373ffffffffffffffffffffffffffffffffffffffff1602179055506020820151816001019080519060200190610873929190610ac3565b509050506007899080600181540180825580915050600190039060005260206000200160009091909190916101000a81548173ffffffffffffffffffffffffffffffffffffffff021916908373ffffffffffffffffffffffffffffffffffffffff1602179055508093505050509695505050505050565b6060600080606080600060606109d4600660008a815260200190815260200160002060000160009054906101000a900473ffffffffffffffffffffffffffffffffffffffff16600660008b81526020019081526020016000206001018054610951906110c0565b80601f016020809104026020016040519081016040528092919081815260200182805461097d906110c0565b80156109ca5780601f1061099f576101008083540402835291602001916109ca565b820191906000526020600020905b8154815290600101906020018083116109ad57829003601f168201915b50505050506101e9565b9650965096509650965096509650919395979092949650565b60008282604051602001610a02929190611176565b60405160208183030381529060405280519060200120905092915050565b604051806101000160405280600073ffffffffffffffffffffffffffffffffffffffff1681526020016060815260200160608152602001600073ffffffffffffffffffffffffffffffffffffffff1681526020016060815260200160608152602001600015158152602001606081525090565b6040518060400160405280600073ffffffffffffffffffffffffffffffffffffffff168152602001606081525090565b828054610acf906110c0565b90600052602060002090601f016020900481019282610af15760008555610b38565b82601f10610b0a57805160ff1916838001178555610b38565b82800160010185558215610b38579182015b82811115610b37578251825591602001919060010190610b1c565b5b509050610b459190610b49565b5090565b5b80821115610b62576000816000905550600101610b4a565b5090565b6000604051905090565b600080fd5b600080fd5b600073ffffffffffffffffffffffffffffffffffffffff82169050919050565b6000610ba582610b7a565b9050919050565b610bb581610b9a565b8114610bc057600080fd5b50565b600081359050610bd281610bac565b92915050565b600080fd5b600080fd5b6000601f19601f8301169050919050565b7f4e487b7100000000000000000000000000000000000000000000000000000000600052604160045260246000fd5b610c2b82610be2565b810181811067ffffffffffffffff82111715610c4a57610c49610bf3565b5b80604052505050565b6000610c5d610b66565b9050610c698282610c22565b919050565b600067ffffffffffffffff821115610c8957610c88610bf3565b5b610c9282610be2565b9050602081019050919050565b82818337600083830152505050565b6000610cc1610cbc84610c6e565b610c53565b905082815260208101848484011115610cdd57610cdc610bdd565b5b610ce8848285610c9f565b509392505050565b600082601f830112610d0557610d04610bd8565b5b8135610d15848260208601610cae565b91505092915050565b60008060408385031215610d3557610d34610b70565b5b6000610d4385828601610bc3565b925050602083013567ffffffffffffffff811115610d6457610d63610b75565b5b610d7085828601610cf0565b9150509250929050565b6000819050919050565b610d8d81610d7a565b82525050565b6000602082019050610da86000830184610d84565b92915050565b600081519050919050565b600082825260208201905092915050565b60005b83811015610de8578082015181840152602081019050610dcd565b83811115610df7576000848401525b50505050565b6000610e0882610dae565b610e128185610db9565b9350610e22818560208601610dca565b610e2b81610be2565b840191505092915050565b610e3f81610b9a565b82525050565b60008115159050919050565b610e5a81610e45565b82525050565b600060e0820190508181036000830152610e7a818a610dfd565b9050610e896020830189610e36565b610e966040830188610e36565b8181036060830152610ea88187610dfd565b90508181036080830152610ebc8186610dfd565b9050610ecb60a0830185610e51565b81810360c0830152610edd8184610dfd565b905098975050505050505050565b6000819050919050565b610efe81610eeb565b82525050565b6000602082019050610f196000830184610ef5565b92915050565b60008060008060008060c08789031215610f3c57610f3b610b70565b5b600087013567ffffffffffffffff811115610f5a57610f59610b75565b5b610f6689828a01610cf0565b9650506020610f7789828a01610bc3565b955050604087013567ffffffffffffffff811115610f9857610f97610b75565b5b610fa489828a01610cf0565b945050606087013567ffffffffffffffff811115610fc557610fc4610b75565b5b610fd189828a01610cf0565b935050608087013567ffffffffffffffff811115610ff257610ff1610b75565b5b610ffe89828a01610cf0565b92505060a087013567ffffffffffffffff81111561101f5761101e610b75565b5b61102b89828a01610cf0565b9150509295509295509295565b61104181610eeb565b811461104c57600080fd5b50565b60008135905061105e81611038565b92915050565b60006020828403121561107a57611079610b70565b5b60006110888482850161104f565b91505092915050565b7f4e487b7100000000000000000000000000000000000000000000000000000000600052602260045260246000fd5b600060028204905060018216806110d857607f821691505b602082108114156110ec576110eb611091565b5b50919050565b60008160601b9050919050565b600061110a826110f2565b9050919050565b600061111c826110ff565b9050919050565b61113461112f82610b9a565b611111565b82525050565b600081905092915050565b600061115082610dae565b61115a818561113a565b935061116a818560208601610dca565b80840191505092915050565b60006111828285611123565b6014820191506111928284611145565b9150819050939250505056fea264697066735822122044a4b3931f18b424568b7b3e5d38e7cd78de8e331edc089cc5e56ad2cbe5eaf864736f6c634300080a0033",
      "opcodes": "PUSH1 0x80 PUSH1 0x40 MSTORE CALLVALUE DUP1 ISZERO PUSH3 0x11 JUMPI PUSH1 0x0 DUP1 REVERT JUMPDEST POP PUSH1 0x40 MLOAD PUSH3 0x169F CODESIZE SUB DUP1 PUSH3 0x169F DUP4 CODECOPY DUP2 DUP2 ADD PUSH1 0x40 MSTORE DUP2 ADD SWAP1 PUSH3 0x37 SWAP2 SWAP1 PUSH3 0x3A6 JUMP JUMPDEST DUP4 PUSH1 0x2 SWAP1 DUP1 MLOAD SWAP1 PUSH1 0x20 ADD SWAP1 PUSH3 0x4F SWAP3 SWAP2 SWAP1 PUSH3 0xF4 JUMP JUMPDEST POP DUP3 PUSH1 0x0 DUP1 PUSH2 0x100 EXP DUP2 SLOAD DUP2 PUSH20 0xFFFFFFFFFFFFFFFFFFFFFFFFFFFFFFFFFFFFFFFF MUL NOT AND SWAP1 DUP4 PUSH20 0xFFFFFFFFFFFFFFFFFFFFFFFFFFFFFFFFFFFFFFFF AND MUL OR SWAP1 SSTORE POP DUP2 PUSH1 0x1 SWAP1 DUP1 MLOAD SWAP1 PUSH1 0x20 ADD SWAP1 PUSH3 0xA8 SWAP3 SWAP2 SWAP1 PUSH3 0xF4 JUMP JUMPDEST POP DUP1 PUSH1 0x4 PUSH1 0x0 PUSH2 0x100 EXP DUP2 SLOAD DUP2 PUSH20 0xFFFFFFFFFFFFFFFFFFFFFFFFFFFFFFFFFFFFFFFF MUL NOT AND SWAP1 DUP4 PUSH20 0xFFFFFFFFFFFFFFFFFFFFFFFFFFFFFFFFFFFFFFFF AND MUL OR SWAP1 SSTORE POP POP POP POP POP PUSH3 0x4BB JUMP JUMPDEST DUP3 DUP1 SLOAD PUSH3 0x102 SWAP1 PUSH3 0x485 JUMP JUMPDEST SWAP1 PUSH1 0x0 MSTORE PUSH1 0x20 PUSH1 0x0 KECCAK256 SWAP1 PUSH1 0x1F ADD PUSH1 0x20 SWAP1 DIV DUP2 ADD SWAP3 DUP3 PUSH3 0x126 JUMPI PUSH1 0x0 DUP6 SSTORE PUSH3 0x172 JUMP JUMPDEST DUP3 PUSH1 0x1F LT PUSH3 0x141 JUMPI DUP1 MLOAD PUSH1 0xFF NOT AND DUP4 DUP1 ADD OR DUP6 SSTORE PUSH3 0x172 JUMP JUMPDEST DUP3 DUP1 ADD PUSH1 0x1 ADD DUP6 SSTORE DUP3 ISZERO PUSH3 0x172 JUMPI SWAP2 DUP3 ADD JUMPDEST DUP3 DUP2 GT ISZERO PUSH3 0x171 JUMPI DUP3 MLOAD DUP3 SSTORE SWAP2 PUSH1 0x20 ADD SWAP2 SWAP1 PUSH1 0x1 ADD SWAP1 PUSH3 0x154 JUMP JUMPDEST JUMPDEST POP SWAP1 POP PUSH3 0x181 SWAP2 SWAP1 PUSH3 0x185 JUMP JUMPDEST POP SWAP1 JUMP JUMPDEST JUMPDEST DUP1 DUP3 GT ISZERO PUSH3 0x1A0 JUMPI PUSH1 0x0 DUP2 PUSH1 0x0 SWAP1 SSTORE POP PUSH1 0x1 ADD PUSH3 0x186 JUMP JUMPDEST POP SWAP1 JUMP JUMPDEST PUSH1 0x0 PUSH1 0x40 MLOAD SWAP1 POP SWAP1 JUMP JUMPDEST PUSH1 0x0 DUP1 REVERT JUMPDEST PUSH1 0x0 DUP1 REVERT JUMPDEST PUSH1 0x0 DUP1 REVERT JUMPDEST PUSH1 0x0 DUP1 REVERT JUMPDEST PUSH1 0x0 PUSH1 0x1F NOT PUSH1 0x1F DUP4 ADD AND SWAP1 POP SWAP2 SWAP1 POP JUMP JUMPDEST PUSH32 0x4E487B7100000000000000000000000000000000000000000000000000000000 PUSH1 0x0 MSTORE PUSH1 0x41 PUSH1 0x4 MSTORE PUSH1 0x24 PUSH1 0x0 REVERT JUMPDEST PUSH3 0x20D DUP3 PUSH3 0x1C2 JUMP JUMPDEST DUP2 ADD DUP2 DUP2 LT PUSH8 0xFFFFFFFFFFFFFFFF DUP3 GT OR ISZERO PUSH3 0x22F JUMPI PUSH3 0x22E PUSH3 0x1D3 JUMP JUMPDEST JUMPDEST DUP1 PUSH1 0x40 MSTORE POP POP POP JUMP JUMPDEST PUSH1 0x0 PUSH3 0x244 PUSH3 0x1A4 JUMP JUMPDEST SWAP1 POP PUSH3 0x252 DUP3 DUP3 PUSH3 0x202 JUMP JUMPDEST SWAP2 SWAP1 POP JUMP JUMPDEST PUSH1 0x0 PUSH8 0xFFFFFFFFFFFFFFFF DUP3 GT ISZERO PUSH3 0x275 JUMPI PUSH3 0x274 PUSH3 0x1D3 JUMP JUMPDEST JUMPDEST PUSH3 0x280 DUP3 PUSH3 0x1C2 JUMP JUMPDEST SWAP1 POP PUSH1 0x20 DUP2 ADD SWAP1 POP SWAP2 SWAP1 POP JUMP JUMPDEST PUSH1 0x0 JUMPDEST DUP4 DUP2 LT ISZERO PUSH3 0x2AD JUMPI DUP1 DUP3 ADD MLOAD DUP2 DUP5 ADD MSTORE PUSH1 0x20 DUP2 ADD SWAP1 POP PUSH3 0x290 JUMP JUMPDEST DUP4 DUP2 GT ISZERO PUSH3 0x2BD JUMPI PUSH1 0x0 DUP5 DUP5 ADD MSTORE JUMPDEST POP POP POP POP JUMP JUMPDEST PUSH1 0x0 PUSH3 0x2DA PUSH3 0x2D4 DUP5 PUSH3 0x257 JUMP JUMPDEST PUSH3 0x238 JUMP JUMPDEST SWAP1 POP DUP3 DUP2 MSTORE PUSH1 0x20 DUP2 ADD DUP5 DUP5 DUP5 ADD GT ISZERO PUSH3 0x2F9 JUMPI PUSH3 0x2F8 PUSH3 0x1BD JUMP JUMPDEST JUMPDEST PUSH3 0x306 DUP5 DUP3 DUP6 PUSH3 0x28D JUMP JUMPDEST POP SWAP4 SWAP3 POP POP POP JUMP JUMPDEST PUSH1 0x0 DUP3 PUSH1 0x1F DUP4 ADD SLT PUSH3 0x326 JUMPI PUSH3 0x325 PUSH3 0x1B8 JUMP JUMPDEST JUMPDEST DUP2 MLOAD PUSH3 0x338 DUP5 DUP3 PUSH1 0x20 DUP7 ADD PUSH3 0x2C3 JUMP JUMPDEST SWAP2 POP POP SWAP3 SWAP2 POP POP JUMP JUMPDEST PUSH1 0x0 PUSH20 0xFFFFFFFFFFFFFFFFFFFFFFFFFFFFFFFFFFFFFFFF DUP3 AND SWAP1 POP SWAP2 SWAP1 POP JUMP JUMPDEST PUSH1 0x0 PUSH3 0x36E DUP3 PUSH3 0x341 JUMP JUMPDEST SWAP1 POP SWAP2 SWAP1 POP JUMP JUMPDEST PUSH3 0x380 DUP2 PUSH3 0x361 JUMP JUMPDEST DUP2 EQ PUSH3 0x38C JUMPI PUSH1 0x0 DUP1 REVERT JUMPDEST POP JUMP JUMPDEST PUSH1 0x0 DUP2 MLOAD SWAP1 POP PUSH3 0x3A0 DUP2 PUSH3 0x375 JUMP JUMPDEST SWAP3 SWAP2 POP POP JUMP JUMPDEST PUSH1 0x0 DUP1 PUSH1 0x0 DUP1 PUSH1 0x80 DUP6 DUP8 SUB SLT ISZERO PUSH3 0x3C3 JUMPI PUSH3 0x3C2 PUSH3 0x1AE JUMP JUMPDEST JUMPDEST PUSH1 0x0 DUP6 ADD MLOAD PUSH8 0xFFFFFFFFFFFFFFFF DUP2 GT ISZERO PUSH3 0x3E4 JUMPI PUSH3 0x3E3 PUSH3 0x1B3 JUMP JUMPDEST JUMPDEST PUSH3 0x3F2 DUP8 DUP3 DUP9 ADD PUSH3 0x30E JUMP JUMPDEST SWAP5 POP POP PUSH1 0x20 PUSH3 0x405 DUP8 DUP3 DUP9 ADD PUSH3 0x38F JUMP JUMPDEST SWAP4 POP POP PUSH1 0x40 DUP6 ADD MLOAD PUSH8 0xFFFFFFFFFFFFFFFF DUP2 GT ISZERO PUSH3 0x429 JUMPI PUSH3 0x428 PUSH3 0x1B3 JUMP JUMPDEST JUMPDEST PUSH3 0x437 DUP8 DUP3 DUP9 ADD PUSH3 0x30E JUMP JUMPDEST SWAP3 POP POP PUSH1 0x60 PUSH3 0x44A DUP8 DUP3 DUP9 ADD PUSH3 0x38F JUMP JUMPDEST SWAP2 POP POP SWAP3 SWAP6 SWAP2 SWAP5 POP SWAP3 POP JUMP JUMPDEST PUSH32 0x4E487B7100000000000000000000000000000000000000000000000000000000 PUSH1 0x0 MSTORE PUSH1 0x22 PUSH1 0x4 MSTORE PUSH1 0x24 PUSH1 0x0 REVERT JUMPDEST PUSH1 0x0 PUSH1 0x2 DUP3 DIV SWAP1 POP PUSH1 0x1 DUP3 AND DUP1 PUSH3 0x49E JUMPI PUSH1 0x7F DUP3 AND SWAP2 POP JUMPDEST PUSH1 0x20 DUP3 LT DUP2 EQ ISZERO PUSH3 0x4B5 JUMPI PUSH3 0x4B4 PUSH3 0x456 JUMP JUMPDEST JUMPDEST POP SWAP2 SWAP1 POP JUMP JUMPDEST PUSH2 0x11D4 DUP1 PUSH3 0x4CB PUSH1 0x0 CODECOPY PUSH1 0x0 RETURN INVALID PUSH1 0x80 PUSH1 0x40 MSTORE CALLVALUE DUP1 ISZERO PUSH2 0x10 JUMPI PUSH1 0x0 DUP1 REVERT JUMPDEST POP PUSH1 0x4 CALLDATASIZE LT PUSH2 0x57 JUMPI PUSH1 0x0 CALLDATALOAD PUSH1 0xE0 SHR DUP1 PUSH4 0xB96349C1 EQ PUSH2 0x5C JUMPI DUP1 PUSH4 0xC7BF3479 EQ PUSH2 0x8C JUMPI DUP1 PUSH4 0xD22804EA EQ PUSH2 0xC2 JUMPI DUP1 PUSH4 0xE79047CF EQ PUSH2 0xE0 JUMPI DUP1 PUSH4 0xF36D59A0 EQ PUSH2 0x110 JUMPI JUMPDEST PUSH1 0x0 DUP1 REVERT JUMPDEST PUSH2 0x76 PUSH1 0x4 DUP1 CALLDATASIZE SUB DUP2 ADD SWAP1 PUSH2 0x71 SWAP2 SWAP1 PUSH2 0xD1E JUMP JUMPDEST PUSH2 0x146 JUMP JUMPDEST PUSH1 0x40 MLOAD PUSH2 0x83 SWAP2 SWAP1 PUSH2 0xD93 JUMP JUMPDEST PUSH1 0x40 MLOAD DUP1 SWAP2 SUB SWAP1 RETURN JUMPDEST PUSH2 0xA6 PUSH1 0x4 DUP1 CALLDATASIZE SUB DUP2 ADD SWAP1 PUSH2 0xA1 SWAP2 SWAP1 PUSH2 0xD1E JUMP JUMPDEST PUSH2 0x1E9 JUMP JUMPDEST PUSH1 0x40 MLOAD PUSH2 0xB9 SWAP8 SWAP7 SWAP6 SWAP5 SWAP4 SWAP3 SWAP2 SWAP1 PUSH2 0xE60 JUMP JUMPDEST PUSH1 0x40 MLOAD DUP1 SWAP2 SUB SWAP1 RETURN JUMPDEST PUSH2 0xCA PUSH2 0x538 JUMP JUMPDEST PUSH1 0x40 MLOAD PUSH2 0xD7 SWAP2 SWAP1 PUSH2 0xF04 JUMP JUMPDEST PUSH1 0x40 MLOAD DUP1 SWAP2 SUB SWAP1 RETURN JUMPDEST PUSH2 0xFA PUSH1 0x4 DUP1 CALLDATASIZE SUB DUP2 ADD SWAP1 PUSH2 0xF5 SWAP2 SWAP1 PUSH2 0xF1F JUMP JUMPDEST PUSH2 0x545 JUMP JUMPDEST PUSH1 0x40 MLOAD PUSH2 0x107 SWAP2 SWAP1 PUSH2 0xD93 JUMP JUMPDEST PUSH1 0x40 MLOAD DUP1 SWAP2 SUB SWAP1 RETURN JUMPDEST PUSH2 0x12A PUSH1 0x4 DUP1 CALLDATASIZE SUB DUP2 ADD SWAP1 PUSH2 0x125 SWAP2 SWAP1 PUSH2 0x1064 JUMP JUMPDEST PUSH2 0x8EA JUMP JUMPDEST PUSH1 0x40 MLOAD PUSH2 0x13D SWAP8 SWAP7 SWAP6 SWAP5 SWAP4 SWAP3 SWAP2 SWAP1 PUSH2 0xE60 JUMP JUMPDEST PUSH1 0x40 MLOAD DUP1 SWAP2 SUB SWAP1 RETURN JUMPDEST PUSH1 0x0 PUSH1 0x4 PUSH1 0x0 SWAP1 SLOAD SWAP1 PUSH2 0x100 EXP SWAP1 DIV PUSH20 0xFFFFFFFFFFFFFFFFFFFFFFFFFFFFFFFFFFFFFFFF AND PUSH20 0xFFFFFFFFFFFFFFFFFFFFFFFFFFFFFFFFFFFFFFFF AND CALLER PUSH20 0xFFFFFFFFFFFFFFFFFFFFFFFFFFFFFFFFFFFFFFFF AND EQ PUSH2 0x1A2 JUMPI PUSH1 0x0 DUP1 REVERT JUMPDEST PUSH1 0x0 PUSH2 0x1AE DUP5 DUP5 PUSH2 0x9ED JUMP JUMPDEST SWAP1 POP PUSH1 0x1 PUSH1 0x5 PUSH1 0x0 DUP4 DUP2 MSTORE PUSH1 0x20 ADD SWAP1 DUP2 MSTORE PUSH1 0x20 ADD PUSH1 0x0 KECCAK256 PUSH1 0x6 ADD PUSH1 0x0 PUSH2 0x100 EXP DUP2 SLOAD DUP2 PUSH1 0xFF MUL NOT AND SWAP1 DUP4 ISZERO ISZERO MUL OR SWAP1 SSTORE POP DUP1 SWAP2 POP POP SWAP3 SWAP2 POP POP JUMP JUMPDEST PUSH1 0x60 PUSH1 0x0 DUP1 PUSH1 0x60 DUP1 PUSH1 0x0 PUSH1 0x60 PUSH1 0x0 PUSH2 0x201 DUP11 DUP11 PUSH2 0x9ED JUMP JUMPDEST SWAP1 POP PUSH1 0x5 PUSH1 0x0 DUP3 DUP2 MSTORE PUSH1 0x20 ADD SWAP1 DUP2 MSTORE PUSH1 0x20 ADD PUSH1 0x0 KECCAK256 PUSH1 0x2 ADD PUSH1 0x5 PUSH1 0x0 DUP4 DUP2 MSTORE PUSH1 0x20 ADD SWAP1 DUP2 MSTORE PUSH1 0x20 ADD PUSH1 0x0 KECCAK256 PUSH1 0x0 ADD PUSH1 0x0 SWAP1 SLOAD SWAP1 PUSH2 0x100 EXP SWAP1 DIV PUSH20 0xFFFFFFFFFFFFFFFFFFFFFFFFFFFFFFFFFFFFFFFF AND PUSH1 0x5 PUSH1 0x0 DUP5 DUP2 MSTORE PUSH1 0x20 ADD SWAP1 DUP2 MSTORE PUSH1 0x20 ADD PUSH1 0x0 KECCAK256 PUSH1 0x3 ADD PUSH1 0x0 SWAP1 SLOAD SWAP1 PUSH2 0x100 EXP SWAP1 DIV PUSH20 0xFFFFFFFFFFFFFFFFFFFFFFFFFFFFFFFFFFFFFFFF AND PUSH1 0x5 PUSH1 0x0 DUP6 DUP2 MSTORE PUSH1 0x20 ADD SWAP1 DUP2 MSTORE PUSH1 0x20 ADD PUSH1 0x0 KECCAK256 PUSH1 0x4 ADD PUSH1 0x5 PUSH1 0x0 DUP7 DUP2 MSTORE PUSH1 0x20 ADD SWAP1 DUP2 MSTORE PUSH1 0x20 ADD PUSH1 0x0 KECCAK256 PUSH1 0x5 ADD PUSH1 0x5 PUSH1 0x0 DUP8 DUP2 MSTORE PUSH1 0x20 ADD SWAP1 DUP2 MSTORE PUSH1 0x20 ADD PUSH1 0x0 KECCAK256 PUSH1 0x6 ADD PUSH1 0x0 SWAP1 SLOAD SWAP1 PUSH2 0x100 EXP SWAP1 DIV PUSH1 0xFF AND PUSH1 0x5 PUSH1 0x0 DUP9 DUP2 MSTORE PUSH1 0x20 ADD SWAP1 DUP2 MSTORE PUSH1 0x20 ADD PUSH1 0x0 KECCAK256 PUSH1 0x7 ADD DUP7 DUP1 SLOAD PUSH2 0x2F9 SWAP1 PUSH2 0x10C0 JUMP JUMPDEST DUP1 PUSH1 0x1F ADD PUSH1 0x20 DUP1 SWAP2 DIV MUL PUSH1 0x20 ADD PUSH1 0x40 MLOAD SWAP1 DUP2 ADD PUSH1 0x40 MSTORE DUP1 SWAP3 SWAP2 SWAP1 DUP2 DUP2 MSTORE PUSH1 0x20 ADD DUP3 DUP1 SLOAD PUSH2 0x325 SWAP1 PUSH2 0x10C0 JUMP JUMPDEST DUP1 ISZERO PUSH2 0x372 JUMPI DUP1 PUSH1 0x1F LT PUSH2 0x347 JUMPI PUSH2 0x100 DUP1 DUP4 SLOAD DIV MUL DUP4 MSTORE SWAP2 PUSH1 0x20 ADD SWAP2 PUSH2 0x372 JUMP JUMPDEST DUP3 ADD SWAP2 SWAP1 PUSH1 0x0 MSTORE PUSH1 0x20 PUSH1 0x0 KECCAK256 SWAP1 JUMPDEST DUP2 SLOAD DUP2 MSTORE SWAP1 PUSH1 0x1 ADD SWAP1 PUSH1 0x20 ADD DUP1 DUP4 GT PUSH2 0x355 JUMPI DUP3 SWAP1 SUB PUSH1 0x1F AND DUP3 ADD SWAP2 JUMPDEST POP POP POP POP POP SWAP7 POP DUP4 DUP1 SLOAD PUSH2 0x385 SWAP1 PUSH2 0x10C0 JUMP JUMPDEST DUP1 PUSH1 0x1F ADD PUSH1 0x20 DUP1 SWAP2 DIV MUL PUSH1 0x20 ADD PUSH1 0x40 MLOAD SWAP1 DUP2 ADD PUSH1 0x40 MSTORE DUP1 SWAP3 SWAP2 SWAP1 DUP2 DUP2 MSTORE PUSH1 0x20 ADD DUP3 DUP1 SLOAD PUSH2 0x3B1 SWAP1 PUSH2 0x10C0 JUMP JUMPDEST DUP1 ISZERO PUSH2 0x3FE JUMPI DUP1 PUSH1 0x1F LT PUSH2 0x3D3 JUMPI PUSH2 0x100 DUP1 DUP4 SLOAD DIV MUL DUP4 MSTORE SWAP2 PUSH1 0x20 ADD SWAP2 PUSH2 0x3FE JUMP JUMPDEST DUP3 ADD SWAP2 SWAP1 PUSH1 0x0 MSTORE PUSH1 0x20 PUSH1 0x0 KECCAK256 SWAP1 JUMPDEST DUP2 SLOAD DUP2 MSTORE SWAP1 PUSH1 0x1 ADD SWAP1 PUSH1 0x20 ADD DUP1 DUP4 GT PUSH2 0x3E1 JUMPI DUP3 SWAP1 SUB PUSH1 0x1F AND DUP3 ADD SWAP2 JUMPDEST POP POP POP POP POP SWAP4 POP DUP3 DUP1 SLOAD PUSH2 0x411 SWAP1 PUSH2 0x10C0 JUMP JUMPDEST DUP1 PUSH1 0x1F ADD PUSH1 0x20 DUP1 SWAP2 DIV MUL PUSH1 0x20 ADD PUSH1 0x40 MLOAD SWAP1 DUP2 ADD PUSH1 0x40 MSTORE DUP1 SWAP3 SWAP2 SWAP1 DUP2 DUP2 MSTORE PUSH1 0x20 ADD DUP3 DUP1 SLOAD PUSH2 0x43D SWAP1 PUSH2 0x10C0 JUMP JUMPDEST DUP1 ISZERO PUSH2 0x48A JUMPI DUP1 PUSH1 0x1F LT PUSH2 0x45F JUMPI PUSH2 0x100 DUP1 DUP4 SLOAD DIV MUL DUP4 MSTORE SWAP2 PUSH1 0x20 ADD SWAP2 PUSH2 0x48A JUMP JUMPDEST DUP3 ADD SWAP2 SWAP1 PUSH1 0x0 MSTORE PUSH1 0x20 PUSH1 0x0 KECCAK256 SWAP1 JUMPDEST DUP2 SLOAD DUP2 MSTORE SWAP1 PUSH1 0x1 ADD SWAP1 PUSH1 0x20 ADD DUP1 DUP4 GT PUSH2 0x46D JUMPI DUP3 SWAP1 SUB PUSH1 0x1F AND DUP3 ADD SWAP2 JUMPDEST POP POP POP POP POP SWAP3 POP DUP1 DUP1 SLOAD PUSH2 0x49D SWAP1 PUSH2 0x10C0 JUMP JUMPDEST DUP1 PUSH1 0x1F ADD PUSH1 0x20 DUP1 SWAP2 DIV MUL PUSH1 0x20 ADD PUSH1 0x40 MLOAD SWAP1 DUP2 ADD PUSH1 0x40 MSTORE DUP1 SWAP3 SWAP2 SWAP1 DUP2 DUP2 MSTORE PUSH1 0x20 ADD DUP3 DUP1 SLOAD PUSH2 0x4C9 SWAP1 PUSH2 0x10C0 JUMP JUMPDEST DUP1 ISZERO PUSH2 0x516 JUMPI DUP1 PUSH1 0x1F LT PUSH2 0x4EB JUMPI PUSH2 0x100 DUP1 DUP4 SLOAD DIV MUL DUP4 MSTORE SWAP2 PUSH1 0x20 ADD SWAP2 PUSH2 0x516 JUMP JUMPDEST DUP3 ADD SWAP2 SWAP1 PUSH1 0x0 MSTORE PUSH1 0x20 PUSH1 0x0 KECCAK256 SWAP1 JUMPDEST DUP2 SLOAD DUP2 MSTORE SWAP1 PUSH1 0x1 ADD SWAP1 PUSH1 0x20 ADD DUP1 DUP4 GT PUSH2 0x4F9 JUMPI DUP3 SWAP1 SUB PUSH1 0x1F AND DUP3 ADD SWAP2 JUMPDEST POP POP POP POP POP SWAP1 POP SWAP8 POP SWAP8 POP SWAP8 POP SWAP8 POP SWAP8 POP SWAP8 POP SWAP8 POP POP SWAP3 SWAP6 SWAP9 SWAP2 SWAP5 SWAP8 POP SWAP3 SWAP6 POP JUMP JUMPDEST PUSH1 0x0 PUSH1 0x7 DUP1 SLOAD SWAP1 POP SWAP1 POP SWAP1 JUMP JUMPDEST PUSH1 0x0 DUP1 PUSH1 0x0 SWAP1 SLOAD SWAP1 PUSH2 0x100 EXP SWAP1 DIV PUSH20 0xFFFFFFFFFFFFFFFFFFFFFFFFFFFFFFFFFFFFFFFF AND PUSH20 0xFFFFFFFFFFFFFFFFFFFFFFFFFFFFFFFFFFFFFFFF AND CALLER PUSH20 0xFFFFFFFFFFFFFFFFFFFFFFFFFFFFFFFFFFFFFFFF AND EQ PUSH2 0x5A0 JUMPI PUSH1 0x0 DUP1 REVERT JUMPDEST PUSH2 0x5A8 PUSH2 0xA20 JUMP JUMPDEST PUSH2 0x5B0 PUSH2 0xA93 JUMP JUMPDEST DUP8 DUP2 PUSH1 0x0 ADD SWAP1 PUSH20 0xFFFFFFFFFFFFFFFFFFFFFFFFFFFFFFFFFFFFFFFF AND SWAP1 DUP2 PUSH20 0xFFFFFFFFFFFFFFFFFFFFFFFFFFFFFFFFFFFFFFFF AND DUP2 MSTORE POP POP DUP4 DUP2 PUSH1 0x20 ADD DUP2 SWAP1 MSTORE POP PUSH1 0x0 PUSH2 0x5FD DUP10 DUP7 PUSH2 0x9ED JUMP JUMPDEST SWAP1 POP DUP10 DUP4 PUSH1 0x40 ADD DUP2 SWAP1 MSTORE POP DUP9 DUP4 PUSH1 0x0 ADD SWAP1 PUSH20 0xFFFFFFFFFFFFFFFFFFFFFFFFFFFFFFFFFFFFFFFF AND SWAP1 DUP2 PUSH20 0xFFFFFFFFFFFFFFFFFFFFFFFFFFFFFFFFFFFFFFFF AND DUP2 MSTORE POP POP CALLER DUP4 PUSH1 0x60 ADD SWAP1 PUSH20 0xFFFFFFFFFFFFFFFFFFFFFFFFFFFFFFFFFFFFFFFF AND SWAP1 DUP2 PUSH20 0xFFFFFFFFFFFFFFFFFFFFFFFFFFFFFFFFFFFFFFFF AND DUP2 MSTORE POP POP DUP8 DUP4 PUSH1 0x80 ADD DUP2 SWAP1 MSTORE POP DUP7 DUP4 PUSH1 0xA0 ADD DUP2 SWAP1 MSTORE POP PUSH1 0x0 DUP4 PUSH1 0xC0 ADD SWAP1 ISZERO ISZERO SWAP1 DUP2 ISZERO ISZERO DUP2 MSTORE POP POP DUP6 DUP4 PUSH1 0xE0 ADD DUP2 SWAP1 MSTORE POP DUP3 PUSH1 0x5 PUSH1 0x0 DUP4 DUP2 MSTORE PUSH1 0x20 ADD SWAP1 DUP2 MSTORE PUSH1 0x20 ADD PUSH1 0x0 KECCAK256 PUSH1 0x0 DUP3 ADD MLOAD DUP2 PUSH1 0x0 ADD PUSH1 0x0 PUSH2 0x100 EXP DUP2 SLOAD DUP2 PUSH20 0xFFFFFFFFFFFFFFFFFFFFFFFFFFFFFFFFFFFFFFFF MUL NOT AND SWAP1 DUP4 PUSH20 0xFFFFFFFFFFFFFFFFFFFFFFFFFFFFFFFFFFFFFFFF AND MUL OR SWAP1 SSTORE POP PUSH1 0x20 DUP3 ADD MLOAD DUP2 PUSH1 0x1 ADD SWAP1 DUP1 MLOAD SWAP1 PUSH1 0x20 ADD SWAP1 PUSH2 0x71B SWAP3 SWAP2 SWAP1 PUSH2 0xAC3 JUMP JUMPDEST POP PUSH1 0x40 DUP3 ADD MLOAD DUP2 PUSH1 0x2 ADD SWAP1 DUP1 MLOAD SWAP1 PUSH1 0x20 ADD SWAP1 PUSH2 0x738 SWAP3 SWAP2 SWAP1 PUSH2 0xAC3 JUMP JUMPDEST POP PUSH1 0x60 DUP3 ADD MLOAD DUP2 PUSH1 0x3 ADD PUSH1 0x0 PUSH2 0x100 EXP DUP2 SLOAD DUP2 PUSH20 0xFFFFFFFFFFFFFFFFFFFFFFFFFFFFFFFFFFFFFFFF MUL NOT AND SWAP1 DUP4 PUSH20 0xFFFFFFFFFFFFFFFFFFFFFFFFFFFFFFFFFFFFFFFF AND MUL OR SWAP1 SSTORE POP PUSH1 0x80 DUP3 ADD MLOAD DUP2 PUSH1 0x4 ADD SWAP1 DUP1 MLOAD SWAP1 PUSH1 0x20 ADD SWAP1 PUSH2 0x79C SWAP3 SWAP2 SWAP1 PUSH2 0xAC3 JUMP JUMPDEST POP PUSH1 0xA0 DUP3 ADD MLOAD DUP2 PUSH1 0x5 ADD SWAP1 DUP1 MLOAD SWAP1 PUSH1 0x20 ADD SWAP1 PUSH2 0x7B9 SWAP3 SWAP2 SWAP1 PUSH2 0xAC3 JUMP JUMPDEST POP PUSH1 0xC0 DUP3 ADD MLOAD DUP2 PUSH1 0x6 ADD PUSH1 0x0 PUSH2 0x100 EXP DUP2 SLOAD DUP2 PUSH1 0xFF MUL NOT AND SWAP1 DUP4 ISZERO ISZERO MUL OR SWAP1 SSTORE POP PUSH1 0xE0 DUP3 ADD MLOAD DUP2 PUSH1 0x7 ADD SWAP1 DUP1 MLOAD SWAP1 PUSH1 0x20 ADD SWAP1 PUSH2 0x7F6 SWAP3 SWAP2 SWAP1 PUSH2 0xAC3 JUMP JUMPDEST POP SWAP1 POP POP DUP2 PUSH1 0x6 PUSH1 0x0 PUSH1 0x3 SLOAD DUP2 MSTORE PUSH1 0x20 ADD SWAP1 DUP2 MSTORE PUSH1 0x20 ADD PUSH1 0x0 KECCAK256 PUSH1 0x0 DUP3 ADD MLOAD DUP2 PUSH1 0x0 ADD PUSH1 0x0 PUSH2 0x100 EXP DUP2 SLOAD DUP2 PUSH20 0xFFFFFFFFFFFFFFFFFFFFFFFFFFFFFFFFFFFFFFFF MUL NOT AND SWAP1 DUP4 PUSH20 0xFFFFFFFFFFFFFFFFFFFFFFFFFFFFFFFFFFFFFFFF AND MUL OR SWAP1 SSTORE POP PUSH1 0x20 DUP3 ADD MLOAD DUP2 PUSH1 0x1 ADD SWAP1 DUP1 MLOAD SWAP1 PUSH1 0x20 ADD SWAP1 PUSH2 0x873 SWAP3 SWAP2 SWAP1 PUSH2 0xAC3 JUMP JUMPDEST POP SWAP1 POP POP PUSH1 0x7 DUP10 SWAP1 DUP1 PUSH1 0x1 DUP2 SLOAD ADD DUP1 DUP3 SSTORE DUP1 SWAP2 POP POP PUSH1 0x1 SWAP1 SUB SWAP1 PUSH1 0x0 MSTORE PUSH1 0x20 PUSH1 0x0 KECCAK256 ADD PUSH1 0x0 SWAP1 SWAP2 SWAP1 SWAP2 SWAP1 SWAP2 PUSH2 0x100 EXP DUP2 SLOAD DUP2 PUSH20 0xFFFFFFFFFFFFFFFFFFFFFFFFFFFFFFFFFFFFFFFF MUL NOT AND SWAP1 DUP4 PUSH20 0xFFFFFFFFFFFFFFFFFFFFFFFFFFFFFFFFFFFFFFFF AND MUL OR SWAP1 SSTORE POP DUP1 SWAP4 POP POP POP POP SWAP7 SWAP6 POP POP POP POP POP POP JUMP JUMPDEST PUSH1 0x60 PUSH1 0x0 DUP1 PUSH1 0x60 DUP1 PUSH1 0x0 PUSH1 0x60 PUSH2 0x9D4 PUSH1 0x6 PUSH1 0x0 DUP11 DUP2 MSTORE PUSH1 0x20 ADD SWAP1 DUP2 MSTORE PUSH1 0x20 ADD PUSH1 0x0 KECCAK256 PUSH1 0x0 ADD PUSH1 0x0 SWAP1 SLOAD SWAP1 PUSH2 0x100 EXP SWAP1 DIV PUSH20 0xFFFFFFFFFFFFFFFFFFFFFFFFFFFFFFFFFFFFFFFF AND PUSH1 0x6 PUSH1 0x0 DUP12 DUP2 MSTORE PUSH1 0x20 ADD SWAP1 DUP2 MSTORE PUSH1 0x20 ADD PUSH1 0x0 KECCAK256 PUSH1 0x1 ADD DUP1 SLOAD PUSH2 0x951 SWAP1 PUSH2 0x10C0 JUMP JUMPDEST DUP1 PUSH1 0x1F ADD PUSH1 0x20 DUP1 SWAP2 DIV MUL PUSH1 0x20 ADD PUSH1 0x40 MLOAD SWAP1 DUP2 ADD PUSH1 0x40 MSTORE DUP1 SWAP3 SWAP2 SWAP1 DUP2 DUP2 MSTORE PUSH1 0x20 ADD DUP3 DUP1 SLOAD PUSH2 0x97D SWAP1 PUSH2 0x10C0 JUMP JUMPDEST DUP1 ISZERO PUSH2 0x9CA JUMPI DUP1 PUSH1 0x1F LT PUSH2 0x99F JUMPI PUSH2 0x100 DUP1 DUP4 SLOAD DIV MUL DUP4 MSTORE SWAP2 PUSH1 0x20 ADD SWAP2 PUSH2 0x9CA JUMP JUMPDEST DUP3 ADD SWAP2 SWAP1 PUSH1 0x0 MSTORE PUSH1 0x20 PUSH1 0x0 KECCAK256 SWAP1 JUMPDEST DUP2 SLOAD DUP2 MSTORE SWAP1 PUSH1 0x1 ADD SWAP1 PUSH1 0x20 ADD DUP1 DUP4 GT PUSH2 0x9AD JUMPI DUP3 SWAP1 SUB PUSH1 0x1F AND DUP3 ADD SWAP2 JUMPDEST POP POP POP POP POP PUSH2 0x1E9 JUMP JUMPDEST SWAP7 POP SWAP7 POP SWAP7 POP SWAP7 POP SWAP7 POP SWAP7 POP SWAP7 POP SWAP2 SWAP4 SWAP6 SWAP8 SWAP1 SWAP3 SWAP5 SWAP7 POP JUMP JUMPDEST PUSH1 0x0 DUP3 DUP3 PUSH1 0x40 MLOAD PUSH1 0x20 ADD PUSH2 0xA02 SWAP3 SWAP2 SWAP1 PUSH2 0x1176 JUMP JUMPDEST PUSH1 0x40 MLOAD PUSH1 0x20 DUP2 DUP4 SUB SUB DUP2 MSTORE SWAP1 PUSH1 0x40 MSTORE DUP1 MLOAD SWAP1 PUSH1 0x20 ADD KECCAK256 SWAP1 POP SWAP3 SWAP2 POP POP JUMP JUMPDEST PUSH1 0x40 MLOAD DUP1 PUSH2 0x100 ADD PUSH1 0x40 MSTORE DUP1 PUSH1 0x0 PUSH20 0xFFFFFFFFFFFFFFFFFFFFFFFFFFFFFFFFFFFFFFFF AND DUP2 MSTORE PUSH1 0x20 ADD PUSH1 0x60 DUP2 MSTORE PUSH1 0x20 ADD PUSH1 0x60 DUP2 MSTORE PUSH1 0x20 ADD PUSH1 0x0 PUSH20 0xFFFFFFFFFFFFFFFFFFFFFFFFFFFFFFFFFFFFFFFF AND DUP2 MSTORE PUSH1 0x20 ADD PUSH1 0x60 DUP2 MSTORE PUSH1 0x20 ADD PUSH1 0x60 DUP2 MSTORE PUSH1 0x20 ADD PUSH1 0x0 ISZERO ISZERO DUP2 MSTORE PUSH1 0x20 ADD PUSH1 0x60 DUP2 MSTORE POP SWAP1 JUMP JUMPDEST PUSH1 0x40 MLOAD DUP1 PUSH1 0x40 ADD PUSH1 0x40 MSTORE DUP1 PUSH1 0x0 PUSH20 0xFFFFFFFFFFFFFFFFFFFFFFFFFFFFFFFFFFFFFFFF AND DUP2 MSTORE PUSH1 0x20 ADD PUSH1 0x60 DUP2 MSTORE POP SWAP1 JUMP JUMPDEST DUP3 DUP1 SLOAD PUSH2 0xACF SWAP1 PUSH2 0x10C0 JUMP JUMPDEST SWAP1 PUSH1 0x0 MSTORE PUSH1 0x20 PUSH1 0x0 KECCAK256 SWAP1 PUSH1 0x1F ADD PUSH1 0x20 SWAP1 DIV DUP2 ADD SWAP3 DUP3 PUSH2 0xAF1 JUMPI PUSH1 0x0 DUP6 SSTORE PUSH2 0xB38 JUMP JUMPDEST DUP3 PUSH1 0x1F LT PUSH2 0xB0A JUMPI DUP1 MLOAD PUSH1 0xFF NOT AND DUP4 DUP1 ADD OR DUP6 SSTORE PUSH2 0xB38 JUMP JUMPDEST DUP3 DUP1 ADD PUSH1 0x1 ADD DUP6 SSTORE DUP3 ISZERO PUSH2 0xB38 JUMPI SWAP2 DUP3 ADD JUMPDEST DUP3 DUP2 GT ISZERO PUSH2 0xB37 JUMPI DUP3 MLOAD DUP3 SSTORE SWAP2 PUSH1 0x20 ADD SWAP2 SWAP1 PUSH1 0x1 ADD SWAP1 PUSH2 0xB1C JUMP JUMPDEST JUMPDEST POP SWAP1 POP PUSH2 0xB45 SWAP2 SWAP1 PUSH2 0xB49 JUMP JUMPDEST POP SWAP1 JUMP JUMPDEST JUMPDEST DUP1 DUP3 GT ISZERO PUSH2 0xB62 JUMPI PUSH1 0x0 DUP2 PUSH1 0x0 SWAP1 SSTORE POP PUSH1 0x1 ADD PUSH2 0xB4A JUMP JUMPDEST POP SWAP1 JUMP JUMPDEST PUSH1 0x0 PUSH1 0x40 MLOAD SWAP1 POP SWAP1 JUMP JUMPDEST PUSH1 0x0 DUP1 REVERT JUMPDEST PUSH1 0x0 DUP1 REVERT JUMPDEST PUSH1 0x0 PUSH20 0xFFFFFFFFFFFFFFFFFFFFFFFFFFFFFFFFFFFFFFFF DUP3 AND SWAP1 POP SWAP2 SWAP1 POP JUMP JUMPDEST PUSH1 0x0 PUSH2 0xBA5 DUP3 PUSH2 0xB7A JUMP JUMPDEST SWAP1 POP SWAP2 SWAP1 POP JUMP JUMPDEST PUSH2 0xBB5 DUP2 PUSH2 0xB9A JUMP JUMPDEST DUP2 EQ PUSH2 0xBC0 JUMPI PUSH1 0x0 DUP1 REVERT JUMPDEST POP JUMP JUMPDEST PUSH1 0x0 DUP2 CALLDATALOAD SWAP1 POP PUSH2 0xBD2 DUP2 PUSH2 0xBAC JUMP JUMPDEST SWAP3 SWAP2 POP POP JUMP JUMPDEST PUSH1 0x0 DUP1 REVERT JUMPDEST PUSH1 0x0 DUP1 REVERT JUMPDEST PUSH1 0x0 PUSH1 0x1F NOT PUSH1 0x1F DUP4 ADD AND SWAP1 POP SWAP2 SWAP1 POP JUMP JUMPDEST PUSH32 0x4E487B7100000000000000000000000000000000000000000000000000000000 PUSH1 0x0 MSTORE PUSH1 0x41 PUSH1 0x4 MSTORE PUSH1 0x24 PUSH1 0x0 REVERT JUMPDEST PUSH2 0xC2B DUP3 PUSH2 0xBE2 JUMP JUMPDEST DUP2 ADD DUP2 DUP2 LT PUSH8 0xFFFFFFFFFFFFFFFF DUP3 GT OR ISZERO PUSH2 0xC4A JUMPI PUSH2 0xC49 PUSH2 0xBF3 JUMP JUMPDEST JUMPDEST DUP1 PUSH1 0x40 MSTORE POP POP POP JUMP JUMPDEST PUSH1 0x0 PUSH2 0xC5D PUSH2 0xB66 JUMP JUMPDEST SWAP1 POP PUSH2 0xC69 DUP3 DUP3 PUSH2 0xC22 JUMP JUMPDEST SWAP2 SWAP1 POP JUMP JUMPDEST PUSH1 0x0 PUSH8 0xFFFFFFFFFFFFFFFF DUP3 GT ISZERO PUSH2 0xC89 JUMPI PUSH2 0xC88 PUSH2 0xBF3 JUMP JUMPDEST JUMPDEST PUSH2 0xC92 DUP3 PUSH2 0xBE2 JUMP JUMPDEST SWAP1 POP PUSH1 0x20 DUP2 ADD SWAP1 POP SWAP2 SWAP1 POP JUMP JUMPDEST DUP3 DUP2 DUP4 CALLDATACOPY PUSH1 0x0 DUP4 DUP4 ADD MSTORE POP POP POP JUMP JUMPDEST PUSH1 0x0 PUSH2 0xCC1 PUSH2 0xCBC DUP5 PUSH2 0xC6E JUMP JUMPDEST PUSH2 0xC53 JUMP JUMPDEST SWAP1 POP DUP3 DUP2 MSTORE PUSH1 0x20 DUP2 ADD DUP5 DUP5 DUP5 ADD GT ISZERO PUSH2 0xCDD JUMPI PUSH2 0xCDC PUSH2 0xBDD JUMP JUMPDEST JUMPDEST PUSH2 0xCE8 DUP5 DUP3 DUP6 PUSH2 0xC9F JUMP JUMPDEST POP SWAP4 SWAP3 POP POP POP JUMP JUMPDEST PUSH1 0x0 DUP3 PUSH1 0x1F DUP4 ADD SLT PUSH2 0xD05 JUMPI PUSH2 0xD04 PUSH2 0xBD8 JUMP JUMPDEST JUMPDEST DUP2 CALLDATALOAD PUSH2 0xD15 DUP5 DUP3 PUSH1 0x20 DUP7 ADD PUSH2 0xCAE JUMP JUMPDEST SWAP2 POP POP SWAP3 SWAP2 POP POP JUMP JUMPDEST PUSH1 0x0 DUP1 PUSH1 0x40 DUP4 DUP6 SUB SLT ISZERO PUSH2 0xD35 JUMPI PUSH2 0xD34 PUSH2 0xB70 JUMP JUMPDEST JUMPDEST PUSH1 0x0 PUSH2 0xD43 DUP6 DUP3 DUP7 ADD PUSH2 0xBC3 JUMP JUMPDEST SWAP3 POP POP PUSH1 0x20 DUP4 ADD CALLDATALOAD PUSH8 0xFFFFFFFFFFFFFFFF DUP2 GT ISZERO PUSH2 0xD64 JUMPI PUSH2 0xD63 PUSH2 0xB75 JUMP JUMPDEST JUMPDEST PUSH2 0xD70 DUP6 DUP3 DUP7 ADD PUSH2 0xCF0 JUMP JUMPDEST SWAP2 POP POP SWAP3 POP SWAP3 SWAP1 POP JUMP JUMPDEST PUSH1 0x0 DUP2 SWAP1 POP SWAP2 SWAP1 POP JUMP JUMPDEST PUSH2 0xD8D DUP2 PUSH2 0xD7A JUMP JUMPDEST DUP3 MSTORE POP POP JUMP JUMPDEST PUSH1 0x0 PUSH1 0x20 DUP3 ADD SWAP1 POP PUSH2 0xDA8 PUSH1 0x0 DUP4 ADD DUP5 PUSH2 0xD84 JUMP JUMPDEST SWAP3 SWAP2 POP POP JUMP JUMPDEST PUSH1 0x0 DUP2 MLOAD SWAP1 POP SWAP2 SWAP1 POP JUMP JUMPDEST PUSH1 0x0 DUP3 DUP3 MSTORE PUSH1 0x20 DUP3 ADD SWAP1 POP SWAP3 SWAP2 POP POP JUMP JUMPDEST PUSH1 0x0 JUMPDEST DUP4 DUP2 LT ISZERO PUSH2 0xDE8 JUMPI DUP1 DUP3 ADD MLOAD DUP2 DUP5 ADD MSTORE PUSH1 0x20 DUP2 ADD SWAP1 POP PUSH2 0xDCD JUMP JUMPDEST DUP4 DUP2 GT ISZERO PUSH2 0xDF7 JUMPI PUSH1 0x0 DUP5 DUP5 ADD MSTORE JUMPDEST POP POP POP POP JUMP JUMPDEST PUSH1 0x0 PUSH2 0xE08 DUP3 PUSH2 0xDAE JUMP JUMPDEST PUSH2 0xE12 DUP2 DUP6 PUSH2 0xDB9 JUMP JUMPDEST SWAP4 POP PUSH2 0xE22 DUP2 DUP6 PUSH1 0x20 DUP7 ADD PUSH2 0xDCA JUMP JUMPDEST PUSH2 0xE2B DUP2 PUSH2 0xBE2 JUMP JUMPDEST DUP5 ADD SWAP2 POP POP SWAP3 SWAP2 POP POP JUMP JUMPDEST PUSH2 0xE3F DUP2 PUSH2 0xB9A JUMP JUMPDEST DUP3 MSTORE POP POP JUMP JUMPDEST PUSH1 0x0 DUP2 ISZERO ISZERO SWAP1 POP SWAP2 SWAP1 POP JUMP JUMPDEST PUSH2 0xE5A DUP2 PUSH2 0xE45 JUMP JUMPDEST DUP3 MSTORE POP POP JUMP JUMPDEST PUSH1 0x0 PUSH1 0xE0 DUP3 ADD SWAP1 POP DUP2 DUP2 SUB PUSH1 0x0 DUP4 ADD MSTORE PUSH2 0xE7A DUP2 DUP11 PUSH2 0xDFD JUMP JUMPDEST SWAP1 POP PUSH2 0xE89 PUSH1 0x20 DUP4 ADD DUP10 PUSH2 0xE36 JUMP JUMPDEST PUSH2 0xE96 PUSH1 0x40 DUP4 ADD DUP9 PUSH2 0xE36 JUMP JUMPDEST DUP2 DUP2 SUB PUSH1 0x60 DUP4 ADD MSTORE PUSH2 0xEA8 DUP2 DUP8 PUSH2 0xDFD JUMP JUMPDEST SWAP1 POP DUP2 DUP2 SUB PUSH1 0x80 DUP4 ADD MSTORE PUSH2 0xEBC DUP2 DUP7 PUSH2 0xDFD JUMP JUMPDEST SWAP1 POP PUSH2 0xECB PUSH1 0xA0 DUP4 ADD DUP6 PUSH2 0xE51 JUMP JUMPDEST DUP2 DUP2 SUB PUSH1 0xC0 DUP4 ADD MSTORE PUSH2 0xEDD DUP2 DUP5 PUSH2 0xDFD JUMP JUMPDEST SWAP1 POP SWAP9 SWAP8 POP POP POP POP POP POP POP POP JUMP JUMPDEST PUSH1 0x0 DUP2 SWAP1 POP SWAP2 SWAP1 POP JUMP JUMPDEST PUSH2 0xEFE DUP2 PUSH2 0xEEB JUMP JUMPDEST DUP3 MSTORE POP POP JUMP JUMPDEST PUSH1 0x0 PUSH1 0x20 DUP3 ADD SWAP1 POP PUSH2 0xF19 PUSH1 0x0 DUP4 ADD DUP5 PUSH2 0xEF5 JUMP JUMPDEST SWAP3 SWAP2 POP POP JUMP JUMPDEST PUSH1 0x0 DUP1 PUSH1 0x0 DUP1 PUSH1 0x0 DUP1 PUSH1 0xC0 DUP8 DUP10 SUB SLT ISZERO PUSH2 0xF3C JUMPI PUSH2 0xF3B PUSH2 0xB70 JUMP JUMPDEST JUMPDEST PUSH1 0x0 DUP8 ADD CALLDATALOAD PUSH8 0xFFFFFFFFFFFFFFFF DUP2 GT ISZERO PUSH2 0xF5A JUMPI PUSH2 0xF59 PUSH2 0xB75 JUMP JUMPDEST JUMPDEST PUSH2 0xF66 DUP10 DUP3 DUP11 ADD PUSH2 0xCF0 JUMP JUMPDEST SWAP7 POP POP PUSH1 0x20 PUSH2 0xF77 DUP10 DUP3 DUP11 ADD PUSH2 0xBC3 JUMP JUMPDEST SWAP6 POP POP PUSH1 0x40 DUP8 ADD CALLDATALOAD PUSH8 0xFFFFFFFFFFFFFFFF DUP2 GT ISZERO PUSH2 0xF98 JUMPI PUSH2 0xF97 PUSH2 0xB75 JUMP JUMPDEST JUMPDEST PUSH2 0xFA4 DUP10 DUP3 DUP11 ADD PUSH2 0xCF0 JUMP JUMPDEST SWAP5 POP POP PUSH1 0x60 DUP8 ADD CALLDATALOAD PUSH8 0xFFFFFFFFFFFFFFFF DUP2 GT ISZERO PUSH2 0xFC5 JUMPI PUSH2 0xFC4 PUSH2 0xB75 JUMP JUMPDEST JUMPDEST PUSH2 0xFD1 DUP10 DUP3 DUP11 ADD PUSH2 0xCF0 JUMP JUMPDEST SWAP4 POP POP PUSH1 0x80 DUP8 ADD CALLDATALOAD PUSH8 0xFFFFFFFFFFFFFFFF DUP2 GT ISZERO PUSH2 0xFF2 JUMPI PUSH2 0xFF1 PUSH2 0xB75 JUMP JUMPDEST JUMPDEST PUSH2 0xFFE DUP10 DUP3 DUP11 ADD PUSH2 0xCF0 JUMP JUMPDEST SWAP3 POP POP PUSH1 0xA0 DUP8 ADD CALLDATALOAD PUSH8 0xFFFFFFFFFFFFFFFF DUP2 GT ISZERO PUSH2 0x101F JUMPI PUSH2 0x101E PUSH2 0xB75 JUMP JUMPDEST JUMPDEST PUSH2 0x102B DUP10 DUP3 DUP11 ADD PUSH2 0xCF0 JUMP JUMPDEST SWAP2 POP POP SWAP3 SWAP6 POP SWAP3 SWAP6 POP SWAP3 SWAP6 JUMP JUMPDEST PUSH2 0x1041 DUP2 PUSH2 0xEEB JUMP JUMPDEST DUP2 EQ PUSH2 0x104C JUMPI PUSH1 0x0 DUP1 REVERT JUMPDEST POP JUMP JUMPDEST PUSH1 0x0 DUP2 CALLDATALOAD SWAP1 POP PUSH2 0x105E DUP2 PUSH2 0x1038 JUMP JUMPDEST SWAP3 SWAP2 POP POP JUMP JUMPDEST PUSH1 0x0 PUSH1 0x20 DUP3 DUP5 SUB SLT ISZERO PUSH2 0x107A JUMPI PUSH2 0x1079 PUSH2 0xB70 JUMP JUMPDEST JUMPDEST PUSH1 0x0 PUSH2 0x1088 DUP5 DUP3 DUP6 ADD PUSH2 0x104F JUMP JUMPDEST SWAP2 POP POP SWAP3 SWAP2 POP POP JUMP JUMPDEST PUSH32 0x4E487B7100000000000000000000000000000000000000000000000000000000 PUSH1 0x0 MSTORE PUSH1 0x22 PUSH1 0x4 MSTORE PUSH1 0x24 PUSH1 0x0 REVERT JUMPDEST PUSH1 0x0 PUSH1 0x2 DUP3 DIV SWAP1 POP PUSH1 0x1 DUP3 AND DUP1 PUSH2 0x10D8 JUMPI PUSH1 0x7F DUP3 AND SWAP2 POP JUMPDEST PUSH1 0x20 DUP3 LT DUP2 EQ ISZERO PUSH2 0x10EC JUMPI PUSH2 0x10EB PUSH2 0x1091 JUMP JUMPDEST JUMPDEST POP SWAP2 SWAP1 POP JUMP JUMPDEST PUSH1 0x0 DUP2 PUSH1 0x60 SHL SWAP1 POP SWAP2 SWAP1 POP JUMP JUMPDEST PUSH1 0x0 PUSH2 0x110A DUP3 PUSH2 0x10F2 JUMP JUMPDEST SWAP1 POP SWAP2 SWAP1 POP JUMP JUMPDEST PUSH1 0x0 PUSH2 0x111C DUP3 PUSH2 0x10FF JUMP JUMPDEST SWAP1 POP SWAP2 SWAP1 POP JUMP JUMPDEST PUSH2 0x1134 PUSH2 0x112F DUP3 PUSH2 0xB9A JUMP JUMPDEST PUSH2 0x1111 JUMP JUMPDEST DUP3 MSTORE POP POP JUMP JUMPDEST PUSH1 0x0 DUP2 SWAP1 POP SWAP3 SWAP2 POP POP JUMP JUMPDEST PUSH1 0x0 PUSH2 0x1150 DUP3 PUSH2 0xDAE JUMP JUMPDEST PUSH2 0x115A DUP2 DUP6 PUSH2 0x113A JUMP JUMPDEST SWAP4 POP PUSH2 0x116A DUP2 DUP6 PUSH1 0x20 DUP7 ADD PUSH2 0xDCA JUMP JUMPDEST DUP1 DUP5 ADD SWAP2 POP POP SWAP3 SWAP2 POP POP JUMP JUMPDEST PUSH1 0x0 PUSH2 0x1182 DUP3 DUP6 PUSH2 0x1123 JUMP JUMPDEST PUSH1 0x14 DUP3 ADD SWAP2 POP PUSH2 0x1192 DUP3 DUP5 PUSH2 0x1145 JUMP JUMPDEST SWAP2 POP DUP2 SWAP1 POP SWAP4 SWAP3 POP POP POP JUMP INVALID LOG2 PUSH5 0x6970667358 0x22 SLT KECCAK256 DIFFICULTY LOG4 0xB3 SWAP4 0x1F XOR 0xB4 0x24 JUMP DUP12 PUSH28 0x3E5D38E7CD78DE8E331EDC089CC5E56AD2CBE5EAF864736F6C634300 ADDMOD EXP STOP CALLER "
    },
    "gasEstimates": {
      "creation": {
        "codeDepositCost": "912800",
        "executionCost": "infinite",
        "totalCost": "infinite"
      },
      "external": {
        "addEducation(string,address,string,string,string,string)": "infinite",
        "getCertByAddress(address,string)": "infinite",
        "getCertifiedStudentCount()": "2467",
        "getcertByIndex(uint256)": "infinite",
        "verify_cert(address,string)": "infinite"
      },
      "internal": {
        "generateKey(address,string memory)": "infinite"
      }
    },
    "methodIdentifiers": {
      "addEducation(string,address,string,string,string,string)": "e79047cf",
      "getCertByAddress(address,string)": "c7bf3479",
      "getCertifiedStudentCount()": "d22804ea",
      "getcertByIndex(uint256)": "f36d59a0",
      "verify_cert(address,string)": "b96349c1"
    }
  },
  "storageLayout": {
    "storage": [
      {
        "astId": 84,
        "contract": "institute.sol:institute",
        "label": "institute_address",
        "offset": 0,
        "slot": "0",
        "type": "t_address"
      },
      {
        "astId": 86,
        "contract": "institute.sol:institute",
        "label": "unique_id",
        "offset": 0,
        "slot": "1",
        "type": "t_string_storage"
      },
      {
        "astId": 88,
        "contract": "institute.sol:institute",
        "label": "institute_name",
        "offset": 0,
        "slot": "2",
        "type": "t_string_storage"
      },
      {
        "astId": 90,
        "contract": "institute.sol:institute",
        "label": "indexcount",
        "offset": 0,
        "slot": "3",
        "type": "t_uint256"
      },
      {
        "astId": 92,
        "contract": "institute.sol:institute",
        "label": "MOE_address",
        "offset": 0,
        "slot": "4",
        "type": "t_address"
      },
      {
        "astId": 169,
        "contract": "institute.sol:institute",
        "label": "official_certmap",
        "offset": 0,
        "slot": "5",
        "type": "t_mapping(t_bytes32,t_struct(official_cert_info)159_storage)"
      },
      {
        "astId": 174,
        "contract": "institute.sol:institute",
        "label": "indexTovalue",
        "offset": 0,
        "slot": "6",
        "type": "t_mapping(t_uint256,t_struct(studentandtype)164_storage)"
      },
      {
        "astId": 177,
        "contract": "institute.sol:institute",
        "label": "certified_students",
        "offset": 0,
        "slot": "7",
        "type": "t_array(t_address)dyn_storage"
      }
    ],
    "types": {
      "t_address": {
        "encoding": "inplace",
        "label": "address",
        "numberOfBytes": "20"
      },
      "t_array(t_address)dyn_storage": {
        "base": "t_address",
        "encoding": "dynamic_array",
        "label": "address[]",
        "numberOfBytes": "32"
      },
      "t_bool": {
        "encoding": "inplace",
        "label": "bool",
        "numberOfBytes": "1"
      },
      "t_bytes32": {
        "encoding": "inplace",
        "label": "bytes32",
        "numberOfBytes": "32"
      },
      "t_mapping(t_bytes32,t_struct(official_cert_info)159_storage)": {
        "encoding": "mapping",
        "key": "t_bytes32",
        "label": "mapping(bytes32 => struct institute.official_cert_info)",
        "numberOfBytes": "32",
        "value": "t_struct(official_cert_info)159_storage"
      },
      "t_mapping(t_uint256,t_struct(studentandtype)164_storage)": {
        "encoding": "mapping",
        "key": "t_uint256",
        "label": "mapping(uint256 => struct institute.studentandtype)",
        "numberOfBytes": "32",
        "value": "t_struct(studentandtype)164_storage"
      },
      "t_string_storage": {
        "encoding": "bytes",
        "label": "string",
        "numberOfBytes": "32"
      },
      "t_struct(official_cert_info)159_storage": {
        "encoding": "inplace",
        "label": "struct institute.official_cert_info",
        "members": [
          {
            "astId": 144,
            "contract": "institute.sol:institute",
            "label": "student",
            "offset": 0,
            "slot": "0",
            "type": "t_address"
          },
          {
            "astId": 146,
            "contract": "institute.sol:institute",
            "label": "cert_type",
            "offset": 0,
            "slot": "1",
            "type": "t_string_storage"
          },
          {
            "astId": 148,
            "contract": "institute.sol:institute",
            "label": "student_name",
            "offset": 0,
            "slot": "2",
            "type": "t_string_storage"
          },
          {
            "astId": 150,
            "contract": "institute.sol:institute",
            "label": "institute",
            "offset": 0,
            "slot": "3",
            "type": "t_address"
          },
          {
            "astId": 152,
            "contract": "institute.sol:institute",
            "label": "startdate",
            "offset": 0,
            "slot": "4",
            "type": "t_string_storage"
          },
          {
            "astId": 154,
            "contract": "institute.sol:institute",
            "label": "enddate",
            "offset": 0,
            "slot": "5",
            "type": "t_string_storage"
          },
          {
            "astId": 156,
            "contract": "institute.sol:institute",
            "label": "verified",
            "offset": 0,
            "slot": "6",
            "type": "t_bool"
          },
          {
            "astId": 158,
            "contract": "institute.sol:institute",
            "label": "description",
            "offset": 0,
            "slot": "7",
            "type": "t_string_storage"
          }
        ],
        "numberOfBytes": "256"
      },
      "t_struct(studentandtype)164_storage": {
        "encoding": "inplace",
        "label": "struct institute.studentandtype",
        "members": [
          {
            "astId": 161,
            "contract": "institute.sol:institute",
            "label": "student",
            "offset": 0,
            "slot": "0",
            "type": "t_address"
          },
          {
            "astId": 163,
            "contract": "institute.sol:institute",
            "label": "cert_type",
            "offset": 0,
            "slot": "1",
            "type": "t_string_storage"
          }
        ],
        "numberOfBytes": "64"
      },
      "t_uint256": {
        "encoding": "inplace",
        "label": "uint256",
        "numberOfBytes": "32"
      }
    }
  },
  "userdoc": {
    "kind": "user",
    "methods": {},
    "version": 1
  }
}