{
  "abi": [
    {
      "inputs": [
        {
          "internalType": "address",
          "name": "_regStudContractAddress",
          "type": "address"
        },
        {
          "internalType": "address",
          "name": "_regInstContractAddress",
          "type": "address"
        },
        {
          "internalType": "address",
          "name": "_verStudContractAddress",
          "type": "address"
        },
        {
          "internalType": "address",
          "name": "_verInstContractAddress",
          "type": "address"
        },
        {
          "internalType": "string",
          "name": "_node1",
          "type": "string"
        },
        {
          "internalType": "string",
          "name": "_node2",
          "type": "string"
        },
        {
          "internalType": "string",
          "name": "_node3",
          "type": "string"
        },
        {
          "internalType": "address",
          "name": "_node1_public",
          "type": "address"
        },
        {
          "internalType": "address",
          "name": "_node2_public",
          "type": "address"
        },
        {
          "internalType": "address",
          "name": "_node3_public",
          "type": "address"
        }
      ],
      "stateMutability": "nonpayable",
      "type": "constructor"
    },
    {
      "inputs": [],
      "name": "MOE",
      "outputs": [
        {
          "internalType": "address",
          "name": "",
          "type": "address"
        }
      ],
      "stateMutability": "view",
      "type": "function"
    },
    {
      "inputs": [
        {
          "internalType": "address",
          "name": "_instAddress",
          "type": "address"
        }
      ],
      "name": "getInstContractAddress",
      "outputs": [
        {
          "internalType": "address",
          "name": "",
          "type": "address"
        },
        {
          "internalType": "string",
          "name": "",
          "type": "string"
        }
      ],
      "stateMutability": "view",
      "type": "function"
    },
    {
      "inputs": [
        {
          "internalType": "address",
          "name": "_studAddress",
          "type": "address"
        }
      ],
      "name": "getStudContractAddress",
      "outputs": [
        {
          "internalType": "address",
          "name": "",
          "type": "address"
        },
        {
          "internalType": "string",
          "name": "",
          "type": "string"
        }
      ],
      "stateMutability": "view",
      "type": "function"
    },
    {
      "inputs": [
        {
          "internalType": "address",
          "name": "",
          "type": "address"
        }
      ],
      "name": "instAddressToInstContract",
      "outputs": [
        {
          "internalType": "address",
          "name": "",
          "type": "address"
        }
      ],
      "stateMutability": "view",
      "type": "function"
    },
    {
      "inputs": [],
      "name": "ismoe",
      "outputs": [
        {
          "internalType": "bool",
          "name": "",
          "type": "bool"
        }
      ],
      "stateMutability": "view",
      "type": "function"
    },
    {
      "inputs": [
        {
          "internalType": "uint256",
          "name": "id",
          "type": "uint256"
        }
      ],
      "name": "moecontractaddresses",
      "outputs": [
        {
          "internalType": "address",
          "name": "",
          "type": "address"
        },
        {
          "internalType": "string",
          "name": "",
          "type": "string"
        }
      ],
      "stateMutability": "view",
      "type": "function"
    },
    {
      "inputs": [
        {
          "internalType": "address",
          "name": "_instAddress",
          "type": "address"
        },
        {
          "internalType": "address",
          "name": "_instContractAddress",
          "type": "address"
        }
      ],
      "name": "registerInstitute",
      "outputs": [],
      "stateMutability": "nonpayable",
      "type": "function"
    },
    {
      "inputs": [
        {
          "internalType": "address",
          "name": "_studAddress",
          "type": "address"
        },
        {
          "internalType": "address",
          "name": "_studContractAddress",
          "type": "address"
        }
      ],
      "name": "registerStudent",
      "outputs": [],
      "stateMutability": "nonpayable",
      "type": "function"
    },
    {
      "inputs": [
        {
          "internalType": "address",
          "name": "",
          "type": "address"
        }
      ],
      "name": "studAddressToStudContract",
      "outputs": [
        {
          "internalType": "address",
          "name": "",
          "type": "address"
        }
      ],
      "stateMutability": "view",
      "type": "function"
    }
  ],
  "devdoc": {
    "kind": "dev",
    "methods": {},
    "version": 1
  },
  "evm": {
    "assembly": "    /* \"publicdata.sol\":57:2980  contract publicdata{... */\n  mstore(0x40, 0x80)\n    /* \"publicdata.sol\":465:1195  constructor(address _regStudContractAddress, address _regInstContractAddress, address _verStudContractAddress, address _verInstContractAddress, string memory _node1, string memory _node2, string memory _node3, address _node1_public, address _node2_public, address _node3_public) {... */\n  callvalue\n  dup1\n  iszero\n  tag_1\n  jumpi\n  0x00\n  dup1\n  revert\ntag_1:\n  pop\n  mload(0x40)\n  sub(codesize, bytecodeSize)\n  dup1\n  bytecodeSize\n  dup4\n  codecopy\n  dup2\n  dup2\n  add\n  0x40\n  mstore\n  dup2\n  add\n  swap1\n  tag_2\n  swap2\n  swap1\n  tag_3\n  jump\t// in\ntag_2:\n    /* \"publicdata.sol\":760:770  msg.sender */\n  caller\n    /* \"publicdata.sol\":754:757  MOE */\n  0x00\n  dup1\n    /* \"publicdata.sol\":754:770  MOE = msg.sender */\n  0x0100\n  exp\n  dup2\n  sload\n  dup2\n  0xffffffffffffffffffffffffffffffffffffffff\n  mul\n  not\n  and\n  swap1\n  dup4\n  0xffffffffffffffffffffffffffffffffffffffff\n  and\n  mul\n  or\n  swap1\n  sstore\n  pop\n    /* \"publicdata.sol\":805:828  _regStudContractAddress */\n  dup10\n    /* \"publicdata.sol\":780:802  regStudContractAddress */\n  0x01\n  0x00\n    /* \"publicdata.sol\":780:828  regStudContractAddress = _regStudContractAddress */\n  0x0100\n  exp\n  dup2\n  sload\n  dup2\n  0xffffffffffffffffffffffffffffffffffffffff\n  mul\n  not\n  and\n  swap1\n  dup4\n  0xffffffffffffffffffffffffffffffffffffffff\n  and\n  mul\n  or\n  swap1\n  sstore\n  pop\n    /* \"publicdata.sol\":863:886  _regInstContractAddress */\n  dup9\n    /* \"publicdata.sol\":838:860  regInstContractAddress */\n  0x02\n  0x00\n    /* \"publicdata.sol\":838:886  regInstContractAddress = _regInstContractAddress */\n  0x0100\n  exp\n  dup2\n  sload\n  dup2\n  0xffffffffffffffffffffffffffffffffffffffff\n  mul\n  not\n  and\n  swap1\n  dup4\n  0xffffffffffffffffffffffffffffffffffffffff\n  and\n  mul\n  or\n  swap1\n  sstore\n  pop\n    /* \"publicdata.sol\":921:944  _verStudContractAddress */\n  dup8\n    /* \"publicdata.sol\":896:918  verStudContractAddress */\n  0x03\n  0x00\n    /* \"publicdata.sol\":896:944  verStudContractAddress = _verStudContractAddress */\n  0x0100\n  exp\n  dup2\n  sload\n  dup2\n  0xffffffffffffffffffffffffffffffffffffffff\n  mul\n  not\n  and\n  swap1\n  dup4\n  0xffffffffffffffffffffffffffffffffffffffff\n  and\n  mul\n  or\n  swap1\n  sstore\n  pop\n    /* \"publicdata.sol\":979:1002  _verInstContractAddress */\n  dup7\n    /* \"publicdata.sol\":954:976  verInstContractAddress */\n  0x04\n  0x00\n    /* \"publicdata.sol\":954:1002  verInstContractAddress = _verInstContractAddress */\n  0x0100\n  exp\n  dup2\n  sload\n  dup2\n  0xffffffffffffffffffffffffffffffffffffffff\n  mul\n  not\n  and\n  swap1\n  dup4\n  0xffffffffffffffffffffffffffffffffffffffff\n  and\n  mul\n  or\n  swap1\n  sstore\n  pop\n    /* \"publicdata.sol\":1027:1040  _node1_public */\n  dup3\n    /* \"publicdata.sol\":1012:1024  node1_public */\n  0x05\n  0x00\n    /* \"publicdata.sol\":1012:1040  node1_public = _node1_public */\n  0x0100\n  exp\n  dup2\n  sload\n  dup2\n  0xffffffffffffffffffffffffffffffffffffffff\n  mul\n  not\n  and\n  swap1\n  dup4\n  0xffffffffffffffffffffffffffffffffffffffff\n  and\n  mul\n  or\n  swap1\n  sstore\n  pop\n    /* \"publicdata.sol\":1065:1078  _node2_public */\n  dup2\n    /* \"publicdata.sol\":1050:1062  node2_public */\n  0x06\n  0x00\n    /* \"publicdata.sol\":1050:1078  node2_public = _node2_public */\n  0x0100\n  exp\n  dup2\n  sload\n  dup2\n  0xffffffffffffffffffffffffffffffffffffffff\n  mul\n  not\n  and\n  swap1\n  dup4\n  0xffffffffffffffffffffffffffffffffffffffff\n  and\n  mul\n  or\n  swap1\n  sstore\n  pop\n    /* \"publicdata.sol\":1103:1116  _node3_public */\n  dup1\n    /* \"publicdata.sol\":1088:1100  node3_public */\n  0x07\n  0x00\n    /* \"publicdata.sol\":1088:1116  node3_public = _node3_public */\n  0x0100\n  exp\n  dup2\n  sload\n  dup2\n  0xffffffffffffffffffffffffffffffffffffffff\n  mul\n  not\n  and\n  swap1\n  dup4\n  0xffffffffffffffffffffffffffffffffffffffff\n  and\n  mul\n  or\n  swap1\n  sstore\n  pop\n    /* \"publicdata.sol\":1134:1140  _node1 */\n  dup6\n    /* \"publicdata.sol\":1126:1131  node1 */\n  0x08\n    /* \"publicdata.sol\":1126:1140  node1 = _node1 */\n  swap1\n  dup1\n  mload\n  swap1\n  0x20\n  add\n  swap1\n  tag_6\n  swap3\n  swap2\n  swap1\n  tag_7\n  jump\t// in\ntag_6:\n  pop\n    /* \"publicdata.sol\":1158:1164  _node2 */\n  dup5\n    /* \"publicdata.sol\":1150:1155  node2 */\n  0x09\n    /* \"publicdata.sol\":1150:1164  node2 = _node2 */\n  swap1\n  dup1\n  mload\n  swap1\n  0x20\n  add\n  swap1\n  tag_8\n  swap3\n  swap2\n  swap1\n  tag_7\n  jump\t// in\ntag_8:\n  pop\n    /* \"publicdata.sol\":1182:1188  _node3 */\n  dup4\n    /* \"publicdata.sol\":1174:1179  node3 */\n  0x0a\n    /* \"publicdata.sol\":1174:1188  node3 = _node3 */\n  swap1\n  dup1\n  mload\n  swap1\n  0x20\n  add\n  swap1\n  tag_9\n  swap3\n  swap2\n  swap1\n  tag_7\n  jump\t// in\ntag_9:\n  pop\n    /* \"publicdata.sol\":465:1195  constructor(address _regStudContractAddress, address _regInstContractAddress, address _verStudContractAddress, address _verInstContractAddress, string memory _node1, string memory _node2, string memory _node3, address _node1_public, address _node2_public, address _node3_public) {... */\n  pop\n  pop\n  pop\n  pop\n  pop\n  pop\n  pop\n  pop\n  pop\n  pop\n    /* \"publicdata.sol\":57:2980  contract publicdata{... */\n  jump(tag_10)\ntag_7:\n  dup3\n  dup1\n  sload\n  tag_11\n  swap1\n  tag_12\n  jump\t// in\ntag_11:\n  swap1\n  0x00\n  mstore\n  keccak256(0x00, 0x20)\n  swap1\n  0x1f\n  add\n  0x20\n  swap1\n  div\n  dup2\n  add\n  swap3\n  dup3\n  tag_14\n  jumpi\n  0x00\n  dup6\n  sstore\n  jump(tag_13)\ntag_14:\n  dup3\n  0x1f\n  lt\n  tag_15\n  jumpi\n  dup1\n  mload\n  not(0xff)\n  and\n  dup4\n  dup1\n  add\n  or\n  dup6\n  sstore\n  jump(tag_13)\ntag_15:\n  dup3\n  dup1\n  add\n  0x01\n  add\n  dup6\n  sstore\n  dup3\n  iszero\n  tag_13\n  jumpi\n  swap2\n  dup3\n  add\ntag_16:\n  dup3\n  dup2\n  gt\n  iszero\n  tag_17\n  jumpi\n  dup3\n  mload\n  dup3\n  sstore\n  swap2\n  0x20\n  add\n  swap2\n  swap1\n  0x01\n  add\n  swap1\n  jump(tag_16)\ntag_17:\ntag_13:\n  pop\n  swap1\n  pop\n  tag_18\n  swap2\n  swap1\n  tag_19\n  jump\t// in\ntag_18:\n  pop\n  swap1\n  jump\t// out\ntag_19:\ntag_20:\n  dup1\n  dup3\n  gt\n  iszero\n  tag_21\n  jumpi\n  0x00\n  dup2\n  0x00\n  swap1\n  sstore\n  pop\n  0x01\n  add\n  jump(tag_20)\ntag_21:\n  pop\n  swap1\n  jump\t// out\n    /* \"#utility.yul\":7:82   */\ntag_22:\n    /* \"#utility.yul\":40:46   */\n  0x00\n    /* \"#utility.yul\":73:75   */\n  0x40\n    /* \"#utility.yul\":67:76   */\n  mload\n    /* \"#utility.yul\":57:76   */\n  swap1\n  pop\n    /* \"#utility.yul\":7:82   */\n  swap1\n  jump\t// out\n    /* \"#utility.yul\":88:205   */\ntag_23:\n    /* \"#utility.yul\":197:198   */\n  0x00\n    /* \"#utility.yul\":194:195   */\n  dup1\n    /* \"#utility.yul\":187:199   */\n  revert\n    /* \"#utility.yul\":211:328   */\ntag_24:\n    /* \"#utility.yul\":320:321   */\n  0x00\n    /* \"#utility.yul\":317:318   */\n  dup1\n    /* \"#utility.yul\":310:322   */\n  revert\n    /* \"#utility.yul\":334:460   */\ntag_25:\n    /* \"#utility.yul\":371:378   */\n  0x00\n    /* \"#utility.yul\":411:453   */\n  0xffffffffffffffffffffffffffffffffffffffff\n    /* \"#utility.yul\":404:409   */\n  dup3\n    /* \"#utility.yul\":400:454   */\n  and\n    /* \"#utility.yul\":389:454   */\n  swap1\n  pop\n    /* \"#utility.yul\":334:460   */\n  swap2\n  swap1\n  pop\n  jump\t// out\n    /* \"#utility.yul\":466:562   */\ntag_26:\n    /* \"#utility.yul\":503:510   */\n  0x00\n    /* \"#utility.yul\":532:556   */\n  tag_46\n    /* \"#utility.yul\":550:555   */\n  dup3\n    /* \"#utility.yul\":532:556   */\n  tag_25\n  jump\t// in\ntag_46:\n    /* \"#utility.yul\":521:556   */\n  swap1\n  pop\n    /* \"#utility.yul\":466:562   */\n  swap2\n  swap1\n  pop\n  jump\t// out\n    /* \"#utility.yul\":568:690   */\ntag_27:\n    /* \"#utility.yul\":641:665   */\n  tag_48\n    /* \"#utility.yul\":659:664   */\n  dup2\n    /* \"#utility.yul\":641:665   */\n  tag_26\n  jump\t// in\ntag_48:\n    /* \"#utility.yul\":634:639   */\n  dup2\n    /* \"#utility.yul\":631:666   */\n  eq\n    /* \"#utility.yul\":621:684   */\n  tag_49\n  jumpi\n    /* \"#utility.yul\":680:681   */\n  0x00\n    /* \"#utility.yul\":677:678   */\n  dup1\n    /* \"#utility.yul\":670:682   */\n  revert\n    /* \"#utility.yul\":621:684   */\ntag_49:\n    /* \"#utility.yul\":568:690   */\n  pop\n  jump\t// out\n    /* \"#utility.yul\":696:839   */\ntag_28:\n    /* \"#utility.yul\":753:758   */\n  0x00\n    /* \"#utility.yul\":784:790   */\n  dup2\n    /* \"#utility.yul\":778:791   */\n  mload\n    /* \"#utility.yul\":769:791   */\n  swap1\n  pop\n    /* \"#utility.yul\":800:833   */\n  tag_51\n    /* \"#utility.yul\":827:832   */\n  dup2\n    /* \"#utility.yul\":800:833   */\n  tag_27\n  jump\t// in\ntag_51:\n    /* \"#utility.yul\":696:839   */\n  swap3\n  swap2\n  pop\n  pop\n  jump\t// out\n    /* \"#utility.yul\":845:962   */\ntag_29:\n    /* \"#utility.yul\":954:955   */\n  0x00\n    /* \"#utility.yul\":951:952   */\n  dup1\n    /* \"#utility.yul\":944:956   */\n  revert\n    /* \"#utility.yul\":968:1085   */\ntag_30:\n    /* \"#utility.yul\":1077:1078   */\n  0x00\n    /* \"#utility.yul\":1074:1075   */\n  dup1\n    /* \"#utility.yul\":1067:1079   */\n  revert\n    /* \"#utility.yul\":1091:1193   */\ntag_31:\n    /* \"#utility.yul\":1132:1138   */\n  0x00\n    /* \"#utility.yul\":1183:1185   */\n  0x1f\n    /* \"#utility.yul\":1179:1186   */\n  not\n    /* \"#utility.yul\":1174:1176   */\n  0x1f\n    /* \"#utility.yul\":1167:1172   */\n  dup4\n    /* \"#utility.yul\":1163:1177   */\n  add\n    /* \"#utility.yul\":1159:1187   */\n  and\n    /* \"#utility.yul\":1149:1187   */\n  swap1\n  pop\n    /* \"#utility.yul\":1091:1193   */\n  swap2\n  swap1\n  pop\n  jump\t// out\n    /* \"#utility.yul\":1199:1379   */\ntag_32:\n    /* \"#utility.yul\":1247:1324   */\n  0x4e487b7100000000000000000000000000000000000000000000000000000000\n    /* \"#utility.yul\":1244:1245   */\n  0x00\n    /* \"#utility.yul\":1237:1325   */\n  mstore\n    /* \"#utility.yul\":1344:1348   */\n  0x41\n    /* \"#utility.yul\":1341:1342   */\n  0x04\n    /* \"#utility.yul\":1334:1349   */\n  mstore\n    /* \"#utility.yul\":1368:1372   */\n  0x24\n    /* \"#utility.yul\":1365:1366   */\n  0x00\n    /* \"#utility.yul\":1358:1373   */\n  revert\n    /* \"#utility.yul\":1385:1666   */\ntag_33:\n    /* \"#utility.yul\":1468:1495   */\n  tag_57\n    /* \"#utility.yul\":1490:1494   */\n  dup3\n    /* \"#utility.yul\":1468:1495   */\n  tag_31\n  jump\t// in\ntag_57:\n    /* \"#utility.yul\":1460:1466   */\n  dup2\n    /* \"#utility.yul\":1456:1496   */\n  add\n    /* \"#utility.yul\":1598:1604   */\n  dup2\n    /* \"#utility.yul\":1586:1596   */\n  dup2\n    /* \"#utility.yul\":1583:1605   */\n  lt\n    /* \"#utility.yul\":1562:1580   */\n  0xffffffffffffffff\n    /* \"#utility.yul\":1550:1560   */\n  dup3\n    /* \"#utility.yul\":1547:1581   */\n  gt\n    /* \"#utility.yul\":1544:1606   */\n  or\n    /* \"#utility.yul\":1541:1629   */\n  iszero\n  tag_58\n  jumpi\n    /* \"#utility.yul\":1609:1627   */\n  tag_59\n  tag_32\n  jump\t// in\ntag_59:\n    /* \"#utility.yul\":1541:1629   */\ntag_58:\n    /* \"#utility.yul\":1649:1659   */\n  dup1\n    /* \"#utility.yul\":1645:1647   */\n  0x40\n    /* \"#utility.yul\":1638:1660   */\n  mstore\n    /* \"#utility.yul\":1428:1666   */\n  pop\n    /* \"#utility.yul\":1385:1666   */\n  pop\n  pop\n  jump\t// out\n    /* \"#utility.yul\":1672:1801   */\ntag_34:\n    /* \"#utility.yul\":1706:1712   */\n  0x00\n    /* \"#utility.yul\":1733:1753   */\n  tag_61\n  tag_22\n  jump\t// in\ntag_61:\n    /* \"#utility.yul\":1723:1753   */\n  swap1\n  pop\n    /* \"#utility.yul\":1762:1795   */\n  tag_62\n    /* \"#utility.yul\":1790:1794   */\n  dup3\n    /* \"#utility.yul\":1782:1788   */\n  dup3\n    /* \"#utility.yul\":1762:1795   */\n  tag_33\n  jump\t// in\ntag_62:\n    /* \"#utility.yul\":1672:1801   */\n  swap2\n  swap1\n  pop\n  jump\t// out\n    /* \"#utility.yul\":1807:2115   */\ntag_35:\n    /* \"#utility.yul\":1869:1873   */\n  0x00\n    /* \"#utility.yul\":1959:1977   */\n  0xffffffffffffffff\n    /* \"#utility.yul\":1951:1957   */\n  dup3\n    /* \"#utility.yul\":1948:1978   */\n  gt\n    /* \"#utility.yul\":1945:2001   */\n  iszero\n  tag_64\n  jumpi\n    /* \"#utility.yul\":1981:1999   */\n  tag_65\n  tag_32\n  jump\t// in\ntag_65:\n    /* \"#utility.yul\":1945:2001   */\ntag_64:\n    /* \"#utility.yul\":2019:2048   */\n  tag_66\n    /* \"#utility.yul\":2041:2047   */\n  dup3\n    /* \"#utility.yul\":2019:2048   */\n  tag_31\n  jump\t// in\ntag_66:\n    /* \"#utility.yul\":2011:2048   */\n  swap1\n  pop\n    /* \"#utility.yul\":2103:2107   */\n  0x20\n    /* \"#utility.yul\":2097:2101   */\n  dup2\n    /* \"#utility.yul\":2093:2108   */\n  add\n    /* \"#utility.yul\":2085:2108   */\n  swap1\n  pop\n    /* \"#utility.yul\":1807:2115   */\n  swap2\n  swap1\n  pop\n  jump\t// out\n    /* \"#utility.yul\":2121:2428   */\ntag_36:\n    /* \"#utility.yul\":2189:2190   */\n  0x00\n    /* \"#utility.yul\":2199:2312   */\ntag_68:\n    /* \"#utility.yul\":2213:2219   */\n  dup4\n    /* \"#utility.yul\":2210:2211   */\n  dup2\n    /* \"#utility.yul\":2207:2220   */\n  lt\n    /* \"#utility.yul\":2199:2312   */\n  iszero\n  tag_70\n  jumpi\n    /* \"#utility.yul\":2298:2299   */\n  dup1\n    /* \"#utility.yul\":2293:2296   */\n  dup3\n    /* \"#utility.yul\":2289:2300   */\n  add\n    /* \"#utility.yul\":2283:2301   */\n  mload\n    /* \"#utility.yul\":2279:2280   */\n  dup2\n    /* \"#utility.yul\":2274:2277   */\n  dup5\n    /* \"#utility.yul\":2270:2281   */\n  add\n    /* \"#utility.yul\":2263:2302   */\n  mstore\n    /* \"#utility.yul\":2235:2237   */\n  0x20\n    /* \"#utility.yul\":2232:2233   */\n  dup2\n    /* \"#utility.yul\":2228:2238   */\n  add\n    /* \"#utility.yul\":2223:2238   */\n  swap1\n  pop\n    /* \"#utility.yul\":2199:2312   */\n  jump(tag_68)\ntag_70:\n    /* \"#utility.yul\":2330:2336   */\n  dup4\n    /* \"#utility.yul\":2327:2328   */\n  dup2\n    /* \"#utility.yul\":2324:2337   */\n  gt\n    /* \"#utility.yul\":2321:2422   */\n  iszero\n  tag_71\n  jumpi\n    /* \"#utility.yul\":2410:2411   */\n  0x00\n    /* \"#utility.yul\":2401:2407   */\n  dup5\n    /* \"#utility.yul\":2396:2399   */\n  dup5\n    /* \"#utility.yul\":2392:2408   */\n  add\n    /* \"#utility.yul\":2385:2412   */\n  mstore\n    /* \"#utility.yul\":2321:2422   */\ntag_71:\n    /* \"#utility.yul\":2170:2428   */\n  pop\n    /* \"#utility.yul\":2121:2428   */\n  pop\n  pop\n  pop\n  jump\t// out\n    /* \"#utility.yul\":2434:2855   */\ntag_37:\n    /* \"#utility.yul\":2523:2528   */\n  0x00\n    /* \"#utility.yul\":2548:2614   */\n  tag_73\n    /* \"#utility.yul\":2564:2613   */\n  tag_74\n    /* \"#utility.yul\":2606:2612   */\n  dup5\n    /* \"#utility.yul\":2564:2613   */\n  tag_35\n  jump\t// in\ntag_74:\n    /* \"#utility.yul\":2548:2614   */\n  tag_34\n  jump\t// in\ntag_73:\n    /* \"#utility.yul\":2539:2614   */\n  swap1\n  pop\n    /* \"#utility.yul\":2637:2643   */\n  dup3\n    /* \"#utility.yul\":2630:2635   */\n  dup2\n    /* \"#utility.yul\":2623:2644   */\n  mstore\n    /* \"#utility.yul\":2675:2679   */\n  0x20\n    /* \"#utility.yul\":2668:2673   */\n  dup2\n    /* \"#utility.yul\":2664:2680   */\n  add\n    /* \"#utility.yul\":2713:2716   */\n  dup5\n    /* \"#utility.yul\":2704:2710   */\n  dup5\n    /* \"#utility.yul\":2699:2702   */\n  dup5\n    /* \"#utility.yul\":2695:2711   */\n  add\n    /* \"#utility.yul\":2692:2717   */\n  gt\n    /* \"#utility.yul\":2689:2801   */\n  iszero\n  tag_75\n  jumpi\n    /* \"#utility.yul\":2720:2799   */\n  tag_76\n  tag_30\n  jump\t// in\ntag_76:\n    /* \"#utility.yul\":2689:2801   */\ntag_75:\n    /* \"#utility.yul\":2810:2849   */\n  tag_77\n    /* \"#utility.yul\":2842:2848   */\n  dup5\n    /* \"#utility.yul\":2837:2840   */\n  dup3\n    /* \"#utility.yul\":2832:2835   */\n  dup6\n    /* \"#utility.yul\":2810:2849   */\n  tag_36\n  jump\t// in\ntag_77:\n    /* \"#utility.yul\":2529:2855   */\n  pop\n    /* \"#utility.yul\":2434:2855   */\n  swap4\n  swap3\n  pop\n  pop\n  pop\n  jump\t// out\n    /* \"#utility.yul\":2875:3230   */\ntag_38:\n    /* \"#utility.yul\":2942:2947   */\n  0x00\n    /* \"#utility.yul\":2991:2994   */\n  dup3\n    /* \"#utility.yul\":2984:2988   */\n  0x1f\n    /* \"#utility.yul\":2976:2982   */\n  dup4\n    /* \"#utility.yul\":2972:2989   */\n  add\n    /* \"#utility.yul\":2968:2995   */\n  slt\n    /* \"#utility.yul\":2958:3080   */\n  tag_79\n  jumpi\n    /* \"#utility.yul\":2999:3078   */\n  tag_80\n  tag_29\n  jump\t// in\ntag_80:\n    /* \"#utility.yul\":2958:3080   */\ntag_79:\n    /* \"#utility.yul\":3109:3115   */\n  dup2\n    /* \"#utility.yul\":3103:3116   */\n  mload\n    /* \"#utility.yul\":3134:3224   */\n  tag_81\n    /* \"#utility.yul\":3220:3223   */\n  dup5\n    /* \"#utility.yul\":3212:3218   */\n  dup3\n    /* \"#utility.yul\":3205:3209   */\n  0x20\n    /* \"#utility.yul\":3197:3203   */\n  dup7\n    /* \"#utility.yul\":3193:3210   */\n  add\n    /* \"#utility.yul\":3134:3224   */\n  tag_37\n  jump\t// in\ntag_81:\n    /* \"#utility.yul\":3125:3224   */\n  swap2\n  pop\n    /* \"#utility.yul\":2948:3230   */\n  pop\n    /* \"#utility.yul\":2875:3230   */\n  swap3\n  swap2\n  pop\n  pop\n  jump\t// out\n    /* \"#utility.yul\":3236:5517   */\ntag_3:\n    /* \"#utility.yul\":3417:3423   */\n  0x00\n    /* \"#utility.yul\":3425:3431   */\n  dup1\n    /* \"#utility.yul\":3433:3439   */\n  0x00\n    /* \"#utility.yul\":3441:3447   */\n  dup1\n    /* \"#utility.yul\":3449:3455   */\n  0x00\n    /* \"#utility.yul\":3457:3463   */\n  dup1\n    /* \"#utility.yul\":3465:3471   */\n  0x00\n    /* \"#utility.yul\":3473:3479   */\n  dup1\n    /* \"#utility.yul\":3481:3487   */\n  0x00\n    /* \"#utility.yul\":3489:3495   */\n  dup1\n    /* \"#utility.yul\":3538:3541   */\n  0x0140\n    /* \"#utility.yul\":3526:3535   */\n  dup12\n    /* \"#utility.yul\":3517:3524   */\n  dup14\n    /* \"#utility.yul\":3513:3536   */\n  sub\n    /* \"#utility.yul\":3509:3542   */\n  slt\n    /* \"#utility.yul\":3506:3626   */\n  iszero\n  tag_83\n  jumpi\n    /* \"#utility.yul\":3545:3624   */\n  tag_84\n  tag_23\n  jump\t// in\ntag_84:\n    /* \"#utility.yul\":3506:3626   */\ntag_83:\n    /* \"#utility.yul\":3665:3666   */\n  0x00\n    /* \"#utility.yul\":3690:3754   */\n  tag_85\n    /* \"#utility.yul\":3746:3753   */\n  dup14\n    /* \"#utility.yul\":3737:3743   */\n  dup3\n    /* \"#utility.yul\":3726:3735   */\n  dup15\n    /* \"#utility.yul\":3722:3744   */\n  add\n    /* \"#utility.yul\":3690:3754   */\n  tag_28\n  jump\t// in\ntag_85:\n    /* \"#utility.yul\":3680:3754   */\n  swap11\n  pop\n    /* \"#utility.yul\":3636:3764   */\n  pop\n    /* \"#utility.yul\":3803:3805   */\n  0x20\n    /* \"#utility.yul\":3829:3893   */\n  tag_86\n    /* \"#utility.yul\":3885:3892   */\n  dup14\n    /* \"#utility.yul\":3876:3882   */\n  dup3\n    /* \"#utility.yul\":3865:3874   */\n  dup15\n    /* \"#utility.yul\":3861:3883   */\n  add\n    /* \"#utility.yul\":3829:3893   */\n  tag_28\n  jump\t// in\ntag_86:\n    /* \"#utility.yul\":3819:3893   */\n  swap10\n  pop\n    /* \"#utility.yul\":3774:3903   */\n  pop\n    /* \"#utility.yul\":3942:3944   */\n  0x40\n    /* \"#utility.yul\":3968:4032   */\n  tag_87\n    /* \"#utility.yul\":4024:4031   */\n  dup14\n    /* \"#utility.yul\":4015:4021   */\n  dup3\n    /* \"#utility.yul\":4004:4013   */\n  dup15\n    /* \"#utility.yul\":4000:4022   */\n  add\n    /* \"#utility.yul\":3968:4032   */\n  tag_28\n  jump\t// in\ntag_87:\n    /* \"#utility.yul\":3958:4032   */\n  swap9\n  pop\n    /* \"#utility.yul\":3913:4042   */\n  pop\n    /* \"#utility.yul\":4081:4083   */\n  0x60\n    /* \"#utility.yul\":4107:4171   */\n  tag_88\n    /* \"#utility.yul\":4163:4170   */\n  dup14\n    /* \"#utility.yul\":4154:4160   */\n  dup3\n    /* \"#utility.yul\":4143:4152   */\n  dup15\n    /* \"#utility.yul\":4139:4161   */\n  add\n    /* \"#utility.yul\":4107:4171   */\n  tag_28\n  jump\t// in\ntag_88:\n    /* \"#utility.yul\":4097:4171   */\n  swap8\n  pop\n    /* \"#utility.yul\":4052:4181   */\n  pop\n    /* \"#utility.yul\":4241:4244   */\n  0x80\n    /* \"#utility.yul\":4230:4239   */\n  dup12\n    /* \"#utility.yul\":4226:4245   */\n  add\n    /* \"#utility.yul\":4220:4246   */\n  mload\n    /* \"#utility.yul\":4273:4291   */\n  0xffffffffffffffff\n    /* \"#utility.yul\":4265:4271   */\n  dup2\n    /* \"#utility.yul\":4262:4292   */\n  gt\n    /* \"#utility.yul\":4259:4376   */\n  iszero\n  tag_89\n  jumpi\n    /* \"#utility.yul\":4295:4374   */\n  tag_90\n  tag_24\n  jump\t// in\ntag_90:\n    /* \"#utility.yul\":4259:4376   */\ntag_89:\n    /* \"#utility.yul\":4400:4474   */\n  tag_91\n    /* \"#utility.yul\":4466:4473   */\n  dup14\n    /* \"#utility.yul\":4457:4463   */\n  dup3\n    /* \"#utility.yul\":4446:4455   */\n  dup15\n    /* \"#utility.yul\":4442:4464   */\n  add\n    /* \"#utility.yul\":4400:4474   */\n  tag_38\n  jump\t// in\ntag_91:\n    /* \"#utility.yul\":4390:4474   */\n  swap7\n  pop\n    /* \"#utility.yul\":4191:4484   */\n  pop\n    /* \"#utility.yul\":4544:4547   */\n  0xa0\n    /* \"#utility.yul\":4533:4542   */\n  dup12\n    /* \"#utility.yul\":4529:4548   */\n  add\n    /* \"#utility.yul\":4523:4549   */\n  mload\n    /* \"#utility.yul\":4576:4594   */\n  0xffffffffffffffff\n    /* \"#utility.yul\":4568:4574   */\n  dup2\n    /* \"#utility.yul\":4565:4595   */\n  gt\n    /* \"#utility.yul\":4562:4679   */\n  iszero\n  tag_92\n  jumpi\n    /* \"#utility.yul\":4598:4677   */\n  tag_93\n  tag_24\n  jump\t// in\ntag_93:\n    /* \"#utility.yul\":4562:4679   */\ntag_92:\n    /* \"#utility.yul\":4703:4777   */\n  tag_94\n    /* \"#utility.yul\":4769:4776   */\n  dup14\n    /* \"#utility.yul\":4760:4766   */\n  dup3\n    /* \"#utility.yul\":4749:4758   */\n  dup15\n    /* \"#utility.yul\":4745:4767   */\n  add\n    /* \"#utility.yul\":4703:4777   */\n  tag_38\n  jump\t// in\ntag_94:\n    /* \"#utility.yul\":4693:4777   */\n  swap6\n  pop\n    /* \"#utility.yul\":4494:4787   */\n  pop\n    /* \"#utility.yul\":4847:4850   */\n  0xc0\n    /* \"#utility.yul\":4836:4845   */\n  dup12\n    /* \"#utility.yul\":4832:4851   */\n  add\n    /* \"#utility.yul\":4826:4852   */\n  mload\n    /* \"#utility.yul\":4879:4897   */\n  0xffffffffffffffff\n    /* \"#utility.yul\":4871:4877   */\n  dup2\n    /* \"#utility.yul\":4868:4898   */\n  gt\n    /* \"#utility.yul\":4865:4982   */\n  iszero\n  tag_95\n  jumpi\n    /* \"#utility.yul\":4901:4980   */\n  tag_96\n  tag_24\n  jump\t// in\ntag_96:\n    /* \"#utility.yul\":4865:4982   */\ntag_95:\n    /* \"#utility.yul\":5006:5080   */\n  tag_97\n    /* \"#utility.yul\":5072:5079   */\n  dup14\n    /* \"#utility.yul\":5063:5069   */\n  dup3\n    /* \"#utility.yul\":5052:5061   */\n  dup15\n    /* \"#utility.yul\":5048:5070   */\n  add\n    /* \"#utility.yul\":5006:5080   */\n  tag_38\n  jump\t// in\ntag_97:\n    /* \"#utility.yul\":4996:5080   */\n  swap5\n  pop\n    /* \"#utility.yul\":4797:5090   */\n  pop\n    /* \"#utility.yul\":5129:5132   */\n  0xe0\n    /* \"#utility.yul\":5156:5220   */\n  tag_98\n    /* \"#utility.yul\":5212:5219   */\n  dup14\n    /* \"#utility.yul\":5203:5209   */\n  dup3\n    /* \"#utility.yul\":5192:5201   */\n  dup15\n    /* \"#utility.yul\":5188:5210   */\n  add\n    /* \"#utility.yul\":5156:5220   */\n  tag_28\n  jump\t// in\ntag_98:\n    /* \"#utility.yul\":5146:5220   */\n  swap4\n  pop\n    /* \"#utility.yul\":5100:5230   */\n  pop\n    /* \"#utility.yul\":5269:5272   */\n  0x0100\n    /* \"#utility.yul\":5296:5360   */\n  tag_99\n    /* \"#utility.yul\":5352:5359   */\n  dup14\n    /* \"#utility.yul\":5343:5349   */\n  dup3\n    /* \"#utility.yul\":5332:5341   */\n  dup15\n    /* \"#utility.yul\":5328:5350   */\n  add\n    /* \"#utility.yul\":5296:5360   */\n  tag_28\n  jump\t// in\ntag_99:\n    /* \"#utility.yul\":5286:5360   */\n  swap3\n  pop\n    /* \"#utility.yul\":5240:5370   */\n  pop\n    /* \"#utility.yul\":5409:5412   */\n  0x0120\n    /* \"#utility.yul\":5436:5500   */\n  tag_100\n    /* \"#utility.yul\":5492:5499   */\n  dup14\n    /* \"#utility.yul\":5483:5489   */\n  dup3\n    /* \"#utility.yul\":5472:5481   */\n  dup15\n    /* \"#utility.yul\":5468:5490   */\n  add\n    /* \"#utility.yul\":5436:5500   */\n  tag_28\n  jump\t// in\ntag_100:\n    /* \"#utility.yul\":5426:5500   */\n  swap2\n  pop\n    /* \"#utility.yul\":5380:5510   */\n  pop\n    /* \"#utility.yul\":3236:5517   */\n  swap3\n  swap6\n  swap9\n  swap12\n  swap2\n  swap5\n  swap8\n  swap11\n  pop\n  swap3\n  swap6\n  swap9\n  pop\n  jump\t// out\n    /* \"#utility.yul\":5523:5703   */\ntag_39:\n    /* \"#utility.yul\":5571:5648   */\n  0x4e487b7100000000000000000000000000000000000000000000000000000000\n    /* \"#utility.yul\":5568:5569   */\n  0x00\n    /* \"#utility.yul\":5561:5649   */\n  mstore\n    /* \"#utility.yul\":5668:5672   */\n  0x22\n    /* \"#utility.yul\":5665:5666   */\n  0x04\n    /* \"#utility.yul\":5658:5673   */\n  mstore\n    /* \"#utility.yul\":5692:5696   */\n  0x24\n    /* \"#utility.yul\":5689:5690   */\n  0x00\n    /* \"#utility.yul\":5682:5697   */\n  revert\n    /* \"#utility.yul\":5709:6029   */\ntag_12:\n    /* \"#utility.yul\":5753:5759   */\n  0x00\n    /* \"#utility.yul\":5790:5791   */\n  0x02\n    /* \"#utility.yul\":5784:5788   */\n  dup3\n    /* \"#utility.yul\":5780:5792   */\n  div\n    /* \"#utility.yul\":5770:5792   */\n  swap1\n  pop\n    /* \"#utility.yul\":5837:5838   */\n  0x01\n    /* \"#utility.yul\":5831:5835   */\n  dup3\n    /* \"#utility.yul\":5827:5839   */\n  and\n    /* \"#utility.yul\":5858:5876   */\n  dup1\n    /* \"#utility.yul\":5848:5929   */\n  tag_103\n  jumpi\n    /* \"#utility.yul\":5914:5918   */\n  0x7f\n    /* \"#utility.yul\":5906:5912   */\n  dup3\n    /* \"#utility.yul\":5902:5919   */\n  and\n    /* \"#utility.yul\":5892:5919   */\n  swap2\n  pop\n    /* \"#utility.yul\":5848:5929   */\ntag_103:\n    /* \"#utility.yul\":5976:5978   */\n  0x20\n    /* \"#utility.yul\":5968:5974   */\n  dup3\n    /* \"#utility.yul\":5965:5979   */\n  lt\n    /* \"#utility.yul\":5945:5963   */\n  dup2\n    /* \"#utility.yul\":5942:5980   */\n  eq\n    /* \"#utility.yul\":5939:6023   */\n  iszero\n  tag_104\n  jumpi\n    /* \"#utility.yul\":5995:6013   */\n  tag_105\n  tag_39\n  jump\t// in\ntag_105:\n    /* \"#utility.yul\":5939:6023   */\ntag_104:\n    /* \"#utility.yul\":5760:6029   */\n  pop\n    /* \"#utility.yul\":5709:6029   */\n  swap2\n  swap1\n  pop\n  jump\t// out\n    /* \"publicdata.sol\":57:2980  contract publicdata{... */\ntag_10:\n  dataSize(sub_0)\n  dup1\n  dataOffset(sub_0)\n  0x00\n  codecopy\n  0x00\n  return\nstop\n\nsub_0: assembly {\n        /* \"publicdata.sol\":57:2980  contract publicdata{... */\n      mstore(0x40, 0x80)\n      callvalue\n      dup1\n      iszero\n      tag_1\n      jumpi\n      0x00\n      dup1\n      revert\n    tag_1:\n      pop\n      jumpi(tag_2, lt(calldatasize, 0x04))\n      shr(0xe0, calldataload(0x00))\n      dup1\n      0x46fcc694\n      gt\n      tag_12\n      jumpi\n      dup1\n      0x46fcc694\n      eq\n      tag_7\n      jumpi\n      dup1\n      0x5fc415f3\n      eq\n      tag_8\n      jumpi\n      dup1\n      0x6484fedb\n      eq\n      tag_9\n      jumpi\n      dup1\n      0x673a1746\n      eq\n      tag_10\n      jumpi\n      dup1\n      0xc4d0d9ea\n      eq\n      tag_11\n      jumpi\n      jump(tag_2)\n    tag_12:\n      dup1\n      0x020e3f8a\n      eq\n      tag_3\n      jumpi\n      dup1\n      0x032b3f7a\n      eq\n      tag_4\n      jumpi\n      dup1\n      0x32687db0\n      eq\n      tag_5\n      jumpi\n      dup1\n      0x3b0b1b9b\n      eq\n      tag_6\n      jumpi\n    tag_2:\n      0x00\n      dup1\n      revert\n        /* \"publicdata.sol\":2190:2375  function getStudContractAddress(address _studAddress) public view onlyNode3 returns (address, string memory)... */\n    tag_3:\n      tag_13\n      0x04\n      dup1\n      calldatasize\n      sub\n      dup2\n      add\n      swap1\n      tag_14\n      swap2\n      swap1\n      tag_15\n      jump\t// in\n    tag_14:\n      tag_16\n      jump\t// in\n    tag_13:\n      mload(0x40)\n      tag_17\n      swap3\n      swap2\n      swap1\n      tag_18\n      jump\t// in\n    tag_17:\n      mload(0x40)\n      dup1\n      swap2\n      sub\n      swap1\n      return\n        /* \"publicdata.sol\":1204:1264  mapping(address => address) public studAddressToStudContract */\n    tag_4:\n      tag_19\n      0x04\n      dup1\n      calldatasize\n      sub\n      dup2\n      add\n      swap1\n      tag_20\n      swap2\n      swap1\n      tag_15\n      jump\t// in\n    tag_20:\n      tag_21\n      jump\t// in\n    tag_19:\n      mload(0x40)\n      tag_22\n      swap2\n      swap1\n      tag_23\n      jump\t// in\n    tag_22:\n      mload(0x40)\n      dup1\n      swap2\n      sub\n      swap1\n      return\n        /* \"publicdata.sol\":1270:1330  mapping(address => address) public instAddressToInstContract */\n    tag_5:\n      tag_24\n      0x04\n      dup1\n      calldatasize\n      sub\n      dup2\n      add\n      swap1\n      tag_25\n      swap2\n      swap1\n      tag_15\n      jump\t// in\n    tag_25:\n      tag_26\n      jump\t// in\n    tag_24:\n      mload(0x40)\n      tag_27\n      swap2\n      swap1\n      tag_23\n      jump\t// in\n    tag_27:\n      mload(0x40)\n      dup1\n      swap2\n      sub\n      swap1\n      return\n        /* \"publicdata.sol\":1340:1836  function moecontractaddresses(uint256 id) public onlyMOE view returns(address, string memory) {... */\n    tag_6:\n      tag_28\n      0x04\n      dup1\n      calldatasize\n      sub\n      dup2\n      add\n      swap1\n      tag_29\n      swap2\n      swap1\n      tag_30\n      jump\t// in\n    tag_29:\n      tag_31\n      jump\t// in\n    tag_28:\n      mload(0x40)\n      tag_32\n      swap3\n      swap2\n      swap1\n      tag_18\n      jump\t// in\n    tag_32:\n      mload(0x40)\n      dup1\n      swap2\n      sub\n      swap1\n      return\n        /* \"publicdata.sol\":2009:2185  function registerInstitute(address _instAddress,  address _instContractAddress) onlyNode2 public {... */\n    tag_7:\n      tag_33\n      0x04\n      dup1\n      calldatasize\n      sub\n      dup2\n      add\n      swap1\n      tag_34\n      swap2\n      swap1\n      tag_35\n      jump\t// in\n    tag_34:\n      tag_36\n      jump\t// in\n    tag_33:\n      stop\n        /* \"publicdata.sol\":2380:2564  function getInstContractAddress(address _instAddress)public view onlyNode2 returns (address, string memory)... */\n    tag_8:\n      tag_37\n      0x04\n      dup1\n      calldatasize\n      sub\n      dup2\n      add\n      swap1\n      tag_38\n      swap2\n      swap1\n      tag_15\n      jump\t// in\n    tag_38:\n      tag_39\n      jump\t// in\n    tag_37:\n      mload(0x40)\n      tag_40\n      swap3\n      swap2\n      swap1\n      tag_18\n      jump\t// in\n    tag_40:\n      mload(0x40)\n      dup1\n      swap2\n      sub\n      swap1\n      return\n        /* \"publicdata.sol\":2569:2660  function ismoe() public view onlyMOE returns(bool){... */\n    tag_9:\n      tag_41\n      tag_42\n      jump\t// in\n    tag_41:\n      mload(0x40)\n      tag_43\n      swap2\n      swap1\n      tag_44\n      jump\t// in\n    tag_43:\n      mload(0x40)\n      dup1\n      swap2\n      sub\n      swap1\n      return\n        /* \"publicdata.sol\":82:100  address public MOE */\n    tag_10:\n      tag_45\n      tag_46\n      jump\t// in\n    tag_45:\n      mload(0x40)\n      tag_47\n      swap2\n      swap1\n      tag_23\n      jump\t// in\n    tag_47:\n      mload(0x40)\n      dup1\n      swap2\n      sub\n      swap1\n      return\n        /* \"publicdata.sol\":1841:2004  function registerStudent(address _studAddress,  address _studContractAddress)public {... */\n    tag_11:\n      tag_48\n      0x04\n      dup1\n      calldatasize\n      sub\n      dup2\n      add\n      swap1\n      tag_49\n      swap2\n      swap1\n      tag_35\n      jump\t// in\n    tag_49:\n      tag_50\n      jump\t// in\n    tag_48:\n      stop\n        /* \"publicdata.sol\":2190:2375  function getStudContractAddress(address _studAddress) public view onlyNode3 returns (address, string memory)... */\n    tag_16:\n        /* \"publicdata.sol\":2275:2282  address */\n      0x00\n        /* \"publicdata.sol\":2284:2297  string memory */\n      0x60\n        /* \"publicdata.sol\":2927:2939  node3_public */\n      0x07\n      0x00\n      swap1\n      sload\n      swap1\n      0x0100\n      exp\n      swap1\n      div\n      0xffffffffffffffffffffffffffffffffffffffff\n      and\n        /* \"publicdata.sol\":2913:2939  msg.sender == node3_public */\n      0xffffffffffffffffffffffffffffffffffffffff\n      and\n        /* \"publicdata.sol\":2913:2923  msg.sender */\n      caller\n        /* \"publicdata.sol\":2913:2939  msg.sender == node3_public */\n      0xffffffffffffffffffffffffffffffffffffffff\n      and\n      eq\n        /* \"publicdata.sol\":2905:2953  require(msg.sender == node3_public, \"Not Node3\") */\n      tag_52\n      jumpi\n      mload(0x40)\n      0x08c379a000000000000000000000000000000000000000000000000000000000\n      dup2\n      mstore\n      0x04\n      add\n      tag_53\n      swap1\n      tag_54\n      jump\t// in\n    tag_53:\n      mload(0x40)\n      dup1\n      swap2\n      sub\n      swap1\n      revert\n    tag_52:\n        /* \"publicdata.sol\":2321:2346  studAddressToStudContract */\n      0x0b\n        /* \"publicdata.sol\":2321:2360  studAddressToStudContract[_studAddress] */\n      0x00\n        /* \"publicdata.sol\":2347:2359  _studAddress */\n      dup5\n        /* \"publicdata.sol\":2321:2360  studAddressToStudContract[_studAddress] */\n      0xffffffffffffffffffffffffffffffffffffffff\n      and\n      0xffffffffffffffffffffffffffffffffffffffff\n      and\n      dup2\n      mstore\n      0x20\n      add\n      swap1\n      dup2\n      mstore\n      0x20\n      add\n      0x00\n      keccak256\n      0x00\n      swap1\n      sload\n      swap1\n      0x0100\n      exp\n      swap1\n      div\n      0xffffffffffffffffffffffffffffffffffffffff\n      and\n        /* \"publicdata.sol\":2362:2367  node3 */\n      0x0a\n        /* \"publicdata.sol\":2313:2368  return (studAddressToStudContract[_studAddress], node3) */\n      dup1\n      dup1\n      sload\n      tag_56\n      swap1\n      tag_57\n      jump\t// in\n    tag_56:\n      dup1\n      0x1f\n      add\n      0x20\n      dup1\n      swap2\n      div\n      mul\n      0x20\n      add\n      mload(0x40)\n      swap1\n      dup2\n      add\n      0x40\n      mstore\n      dup1\n      swap3\n      swap2\n      swap1\n      dup2\n      dup2\n      mstore\n      0x20\n      add\n      dup3\n      dup1\n      sload\n      tag_58\n      swap1\n      tag_57\n      jump\t// in\n    tag_58:\n      dup1\n      iszero\n      tag_59\n      jumpi\n      dup1\n      0x1f\n      lt\n      tag_60\n      jumpi\n      0x0100\n      dup1\n      dup4\n      sload\n      div\n      mul\n      dup4\n      mstore\n      swap2\n      0x20\n      add\n      swap2\n      jump(tag_59)\n    tag_60:\n      dup3\n      add\n      swap2\n      swap1\n      0x00\n      mstore\n      keccak256(0x00, 0x20)\n      swap1\n    tag_61:\n      dup2\n      sload\n      dup2\n      mstore\n      swap1\n      0x01\n      add\n      swap1\n      0x20\n      add\n      dup1\n      dup4\n      gt\n      tag_61\n      jumpi\n      dup3\n      swap1\n      sub\n      0x1f\n      and\n      dup3\n      add\n      swap2\n    tag_59:\n      pop\n      pop\n      pop\n      pop\n      pop\n      swap1\n      pop\n      swap2\n      pop\n      swap2\n      pop\n        /* \"publicdata.sol\":2190:2375  function getStudContractAddress(address _studAddress) public view onlyNode3 returns (address, string memory)... */\n      swap2\n      pop\n      swap2\n      jump\t// out\n        /* \"publicdata.sol\":1204:1264  mapping(address => address) public studAddressToStudContract */\n    tag_21:\n      mstore(0x20, 0x0b)\n      dup1\n      0x00\n      mstore\n      keccak256(0x00, 0x40)\n      0x00\n      swap2\n      pop\n      sload\n      swap1\n      0x0100\n      exp\n      swap1\n      div\n      0xffffffffffffffffffffffffffffffffffffffff\n      and\n      dup2\n      jump\t// out\n        /* \"publicdata.sol\":1270:1330  mapping(address => address) public instAddressToInstContract */\n    tag_26:\n      mstore(0x20, 0x0c)\n      dup1\n      0x00\n      mstore\n      keccak256(0x00, 0x40)\n      0x00\n      swap2\n      pop\n      sload\n      swap1\n      0x0100\n      exp\n      swap1\n      div\n      0xffffffffffffffffffffffffffffffffffffffff\n      and\n      dup2\n      jump\t// out\n        /* \"publicdata.sol\":1340:1836  function moecontractaddresses(uint256 id) public onlyMOE view returns(address, string memory) {... */\n    tag_31:\n        /* \"publicdata.sol\":1410:1417  address */\n      0x00\n        /* \"publicdata.sol\":1419:1432  string memory */\n      0x60\n        /* \"publicdata.sol\":2717:2729  node1_public */\n      0x05\n      0x00\n      swap1\n      sload\n      swap1\n      0x0100\n      exp\n      swap1\n      div\n      0xffffffffffffffffffffffffffffffffffffffff\n      and\n        /* \"publicdata.sol\":2703:2729  msg.sender == node1_public */\n      0xffffffffffffffffffffffffffffffffffffffff\n      and\n        /* \"publicdata.sol\":2703:2713  msg.sender */\n      caller\n        /* \"publicdata.sol\":2703:2729  msg.sender == node1_public */\n      0xffffffffffffffffffffffffffffffffffffffff\n      and\n      eq\n        /* \"publicdata.sol\":2695:2741  require(msg.sender == node1_public, \"Not MOE\") */\n      tag_63\n      jumpi\n      mload(0x40)\n      0x08c379a000000000000000000000000000000000000000000000000000000000\n      dup2\n      mstore\n      0x04\n      add\n      tag_64\n      swap1\n      tag_65\n      jump\t// in\n    tag_64:\n      mload(0x40)\n      dup1\n      swap2\n      sub\n      swap1\n      revert\n    tag_63:\n        /* \"publicdata.sol\":1452:1453  1 */\n      0x01\n        /* \"publicdata.sol\":1447:1449  id */\n      dup4\n        /* \"publicdata.sol\":1447:1453  id ==1 */\n      eq\n        /* \"publicdata.sol\":1444:1830  if(id ==1 ){... */\n      iszero\n      tag_67\n      jumpi\n        /* \"publicdata.sol\":1477:1499  regStudContractAddress */\n      0x01\n      0x00\n      swap1\n      sload\n      swap1\n      0x0100\n      exp\n      swap1\n      div\n      0xffffffffffffffffffffffffffffffffffffffff\n      and\n        /* \"publicdata.sol\":1501:1506  node1 */\n      0x08\n        /* \"publicdata.sol\":1469:1507  return (regStudContractAddress, node1) */\n      dup1\n      dup1\n      sload\n      tag_68\n      swap1\n      tag_57\n      jump\t// in\n    tag_68:\n      dup1\n      0x1f\n      add\n      0x20\n      dup1\n      swap2\n      div\n      mul\n      0x20\n      add\n      mload(0x40)\n      swap1\n      dup2\n      add\n      0x40\n      mstore\n      dup1\n      swap3\n      swap2\n      swap1\n      dup2\n      dup2\n      mstore\n      0x20\n      add\n      dup3\n      dup1\n      sload\n      tag_69\n      swap1\n      tag_57\n      jump\t// in\n    tag_69:\n      dup1\n      iszero\n      tag_70\n      jumpi\n      dup1\n      0x1f\n      lt\n      tag_71\n      jumpi\n      0x0100\n      dup1\n      dup4\n      sload\n      div\n      mul\n      dup4\n      mstore\n      swap2\n      0x20\n      add\n      swap2\n      jump(tag_70)\n    tag_71:\n      dup3\n      add\n      swap2\n      swap1\n      0x00\n      mstore\n      keccak256(0x00, 0x20)\n      swap1\n    tag_72:\n      dup2\n      sload\n      dup2\n      mstore\n      swap1\n      0x01\n      add\n      swap1\n      0x20\n      add\n      dup1\n      dup4\n      gt\n      tag_72\n      jumpi\n      dup3\n      swap1\n      sub\n      0x1f\n      and\n      dup3\n      add\n      swap2\n    tag_70:\n      pop\n      pop\n      pop\n      pop\n      pop\n      swap1\n      pop\n      swap2\n      pop\n      swap2\n      pop\n      jump(tag_66)\n        /* \"publicdata.sol\":1444:1830  if(id ==1 ){... */\n    tag_67:\n        /* \"publicdata.sol\":1533:1534  2 */\n      0x02\n        /* \"publicdata.sol\":1527:1529  id */\n      dup4\n        /* \"publicdata.sol\":1527:1534  id == 2 */\n      eq\n        /* \"publicdata.sol\":1523:1830  if (id == 2 ){... */\n      iszero\n      tag_74\n      jumpi\n        /* \"publicdata.sol\":1558:1580  verStudContractAddress */\n      0x03\n      0x00\n      swap1\n      sload\n      swap1\n      0x0100\n      exp\n      swap1\n      div\n      0xffffffffffffffffffffffffffffffffffffffff\n      and\n        /* \"publicdata.sol\":1582:1587  node1 */\n      0x08\n        /* \"publicdata.sol\":1550:1588  return (verStudContractAddress, node1) */\n      dup1\n      dup1\n      sload\n      tag_75\n      swap1\n      tag_57\n      jump\t// in\n    tag_75:\n      dup1\n      0x1f\n      add\n      0x20\n      dup1\n      swap2\n      div\n      mul\n      0x20\n      add\n      mload(0x40)\n      swap1\n      dup2\n      add\n      0x40\n      mstore\n      dup1\n      swap3\n      swap2\n      swap1\n      dup2\n      dup2\n      mstore\n      0x20\n      add\n      dup3\n      dup1\n      sload\n      tag_76\n      swap1\n      tag_57\n      jump\t// in\n    tag_76:\n      dup1\n      iszero\n      tag_77\n      jumpi\n      dup1\n      0x1f\n      lt\n      tag_78\n      jumpi\n      0x0100\n      dup1\n      dup4\n      sload\n      div\n      mul\n      dup4\n      mstore\n      swap2\n      0x20\n      add\n      swap2\n      jump(tag_77)\n    tag_78:\n      dup3\n      add\n      swap2\n      swap1\n      0x00\n      mstore\n      keccak256(0x00, 0x20)\n      swap1\n    tag_79:\n      dup2\n      sload\n      dup2\n      mstore\n      swap1\n      0x01\n      add\n      swap1\n      0x20\n      add\n      dup1\n      dup4\n      gt\n      tag_79\n      jumpi\n      dup3\n      swap1\n      sub\n      0x1f\n      and\n      dup3\n      add\n      swap2\n    tag_77:\n      pop\n      pop\n      pop\n      pop\n      pop\n      swap1\n      pop\n      swap2\n      pop\n      swap2\n      pop\n      jump(tag_66)\n        /* \"publicdata.sol\":1523:1830  if (id == 2 ){... */\n    tag_74:\n        /* \"publicdata.sol\":1623:1624  3 */\n      0x03\n        /* \"publicdata.sol\":1617:1619  id */\n      dup4\n        /* \"publicdata.sol\":1617:1624  id == 3 */\n      eq\n        /* \"publicdata.sol\":1613:1830  if (id == 3 ){... */\n      iszero\n      tag_81\n      jumpi\n        /* \"publicdata.sol\":1648:1670  regInstContractAddress */\n      0x02\n      0x00\n      swap1\n      sload\n      swap1\n      0x0100\n      exp\n      swap1\n      div\n      0xffffffffffffffffffffffffffffffffffffffff\n      and\n        /* \"publicdata.sol\":1672:1677  node1 */\n      0x08\n        /* \"publicdata.sol\":1640:1678  return (regInstContractAddress, node1) */\n      dup1\n      dup1\n      sload\n      tag_82\n      swap1\n      tag_57\n      jump\t// in\n    tag_82:\n      dup1\n      0x1f\n      add\n      0x20\n      dup1\n      swap2\n      div\n      mul\n      0x20\n      add\n      mload(0x40)\n      swap1\n      dup2\n      add\n      0x40\n      mstore\n      dup1\n      swap3\n      swap2\n      swap1\n      dup2\n      dup2\n      mstore\n      0x20\n      add\n      dup3\n      dup1\n      sload\n      tag_83\n      swap1\n      tag_57\n      jump\t// in\n    tag_83:\n      dup1\n      iszero\n      tag_84\n      jumpi\n      dup1\n      0x1f\n      lt\n      tag_85\n      jumpi\n      0x0100\n      dup1\n      dup4\n      sload\n      div\n      mul\n      dup4\n      mstore\n      swap2\n      0x20\n      add\n      swap2\n      jump(tag_84)\n    tag_85:\n      dup3\n      add\n      swap2\n      swap1\n      0x00\n      mstore\n      keccak256(0x00, 0x20)\n      swap1\n    tag_86:\n      dup2\n      sload\n      dup2\n      mstore\n      swap1\n      0x01\n      add\n      swap1\n      0x20\n      add\n      dup1\n      dup4\n      gt\n      tag_86\n      jumpi\n      dup3\n      swap1\n      sub\n      0x1f\n      and\n      dup3\n      add\n      swap2\n    tag_84:\n      pop\n      pop\n      pop\n      pop\n      pop\n      swap1\n      pop\n      swap2\n      pop\n      swap2\n      pop\n      jump(tag_66)\n        /* \"publicdata.sol\":1613:1830  if (id == 3 ){... */\n    tag_81:\n        /* \"publicdata.sol\":1713:1714  4 */\n      0x04\n        /* \"publicdata.sol\":1707:1709  id */\n      dup4\n        /* \"publicdata.sol\":1707:1714  id == 4 */\n      eq\n        /* \"publicdata.sol\":1703:1830  if (id == 4 ){... */\n      iszero\n      tag_88\n      jumpi\n        /* \"publicdata.sol\":1738:1760  verInstContractAddress */\n      0x04\n      0x00\n      swap1\n      sload\n      swap1\n      0x0100\n      exp\n      swap1\n      div\n      0xffffffffffffffffffffffffffffffffffffffff\n      and\n        /* \"publicdata.sol\":1762:1767  node1 */\n      0x08\n        /* \"publicdata.sol\":1730:1768  return (verInstContractAddress, node1) */\n      dup1\n      dup1\n      sload\n      tag_89\n      swap1\n      tag_57\n      jump\t// in\n    tag_89:\n      dup1\n      0x1f\n      add\n      0x20\n      dup1\n      swap2\n      div\n      mul\n      0x20\n      add\n      mload(0x40)\n      swap1\n      dup2\n      add\n      0x40\n      mstore\n      dup1\n      swap3\n      swap2\n      swap1\n      dup2\n      dup2\n      mstore\n      0x20\n      add\n      dup3\n      dup1\n      sload\n      tag_90\n      swap1\n      tag_57\n      jump\t// in\n    tag_90:\n      dup1\n      iszero\n      tag_91\n      jumpi\n      dup1\n      0x1f\n      lt\n      tag_92\n      jumpi\n      0x0100\n      dup1\n      dup4\n      sload\n      div\n      mul\n      dup4\n      mstore\n      swap2\n      0x20\n      add\n      swap2\n      jump(tag_91)\n    tag_92:\n      dup3\n      add\n      swap2\n      swap1\n      0x00\n      mstore\n      keccak256(0x00, 0x20)\n      swap1\n    tag_93:\n      dup2\n      sload\n      dup2\n      mstore\n      swap1\n      0x01\n      add\n      swap1\n      0x20\n      add\n      dup1\n      dup4\n      gt\n      tag_93\n      jumpi\n      dup3\n      swap1\n      sub\n      0x1f\n      and\n      dup3\n      add\n      swap2\n    tag_91:\n      pop\n      pop\n      pop\n      pop\n      pop\n      swap1\n      pop\n      swap2\n      pop\n      swap2\n      pop\n      jump(tag_66)\n        /* \"publicdata.sol\":1703:1830  if (id == 4 ){... */\n    tag_88:\n        /* \"publicdata.sol\":1799:1819  revert(\"Invalid ID\") */\n      mload(0x40)\n      0x08c379a000000000000000000000000000000000000000000000000000000000\n      dup2\n      mstore\n      0x04\n      add\n      tag_95\n      swap1\n      tag_96\n      jump\t// in\n    tag_95:\n      mload(0x40)\n      dup1\n      swap2\n      sub\n      swap1\n      revert\n        /* \"publicdata.sol\":2753:2754  _ */\n    tag_66:\n        /* \"publicdata.sol\":1340:1836  function moecontractaddresses(uint256 id) public onlyMOE view returns(address, string memory) {... */\n      swap2\n      pop\n      swap2\n      jump\t// out\n        /* \"publicdata.sol\":2009:2185  function registerInstitute(address _instAddress,  address _instContractAddress) onlyNode2 public {... */\n    tag_36:\n        /* \"publicdata.sol\":2819:2831  node2_public */\n      0x06\n      0x00\n      swap1\n      sload\n      swap1\n      0x0100\n      exp\n      swap1\n      div\n      0xffffffffffffffffffffffffffffffffffffffff\n      and\n        /* \"publicdata.sol\":2805:2831  msg.sender == node2_public */\n      0xffffffffffffffffffffffffffffffffffffffff\n      and\n        /* \"publicdata.sol\":2805:2815  msg.sender */\n      caller\n        /* \"publicdata.sol\":2805:2831  msg.sender == node2_public */\n      0xffffffffffffffffffffffffffffffffffffffff\n      and\n      eq\n        /* \"publicdata.sol\":2797:2846  require(msg.sender == node2_public, \"Not Node 2\") */\n      tag_98\n      jumpi\n      mload(0x40)\n      0x08c379a000000000000000000000000000000000000000000000000000000000\n      dup2\n      mstore\n      0x04\n      add\n      tag_99\n      swap1\n      tag_100\n      jump\t// in\n    tag_99:\n      mload(0x40)\n      dup1\n      swap2\n      sub\n      swap1\n      revert\n    tag_98:\n        /* \"publicdata.sol\":2158:2178  _instContractAddress */\n      dup1\n        /* \"publicdata.sol\":2116:2141  instAddressToInstContract */\n      0x0c\n        /* \"publicdata.sol\":2116:2155  instAddressToInstContract[_instAddress] */\n      0x00\n        /* \"publicdata.sol\":2142:2154  _instAddress */\n      dup5\n        /* \"publicdata.sol\":2116:2155  instAddressToInstContract[_instAddress] */\n      0xffffffffffffffffffffffffffffffffffffffff\n      and\n      0xffffffffffffffffffffffffffffffffffffffff\n      and\n      dup2\n      mstore\n      0x20\n      add\n      swap1\n      dup2\n      mstore\n      0x20\n      add\n      0x00\n      keccak256\n      0x00\n        /* \"publicdata.sol\":2116:2178  instAddressToInstContract[_instAddress] = _instContractAddress */\n      0x0100\n      exp\n      dup2\n      sload\n      dup2\n      0xffffffffffffffffffffffffffffffffffffffff\n      mul\n      not\n      and\n      swap1\n      dup4\n      0xffffffffffffffffffffffffffffffffffffffff\n      and\n      mul\n      or\n      swap1\n      sstore\n      pop\n        /* \"publicdata.sol\":2009:2185  function registerInstitute(address _instAddress,  address _instContractAddress) onlyNode2 public {... */\n      pop\n      pop\n      jump\t// out\n        /* \"publicdata.sol\":2380:2564  function getInstContractAddress(address _instAddress)public view onlyNode2 returns (address, string memory)... */\n    tag_39:\n        /* \"publicdata.sol\":2464:2471  address */\n      0x00\n        /* \"publicdata.sol\":2473:2486  string memory */\n      0x60\n        /* \"publicdata.sol\":2819:2831  node2_public */\n      0x06\n      0x00\n      swap1\n      sload\n      swap1\n      0x0100\n      exp\n      swap1\n      div\n      0xffffffffffffffffffffffffffffffffffffffff\n      and\n        /* \"publicdata.sol\":2805:2831  msg.sender == node2_public */\n      0xffffffffffffffffffffffffffffffffffffffff\n      and\n        /* \"publicdata.sol\":2805:2815  msg.sender */\n      caller\n        /* \"publicdata.sol\":2805:2831  msg.sender == node2_public */\n      0xffffffffffffffffffffffffffffffffffffffff\n      and\n      eq\n        /* \"publicdata.sol\":2797:2846  require(msg.sender == node2_public, \"Not Node 2\") */\n      tag_103\n      jumpi\n      mload(0x40)\n      0x08c379a000000000000000000000000000000000000000000000000000000000\n      dup2\n      mstore\n      0x04\n      add\n      tag_104\n      swap1\n      tag_100\n      jump\t// in\n    tag_104:\n      mload(0x40)\n      dup1\n      swap2\n      sub\n      swap1\n      revert\n    tag_103:\n        /* \"publicdata.sol\":2510:2535  instAddressToInstContract */\n      0x0c\n        /* \"publicdata.sol\":2510:2549  instAddressToInstContract[_instAddress] */\n      0x00\n        /* \"publicdata.sol\":2536:2548  _instAddress */\n      dup5\n        /* \"publicdata.sol\":2510:2549  instAddressToInstContract[_instAddress] */\n      0xffffffffffffffffffffffffffffffffffffffff\n      and\n      0xffffffffffffffffffffffffffffffffffffffff\n      and\n      dup2\n      mstore\n      0x20\n      add\n      swap1\n      dup2\n      mstore\n      0x20\n      add\n      0x00\n      keccak256\n      0x00\n      swap1\n      sload\n      swap1\n      0x0100\n      exp\n      swap1\n      div\n      0xffffffffffffffffffffffffffffffffffffffff\n      and\n        /* \"publicdata.sol\":2551:2556  node2 */\n      0x09\n        /* \"publicdata.sol\":2502:2557  return (instAddressToInstContract[_instAddress], node2) */\n      dup1\n      dup1\n      sload\n      tag_106\n      swap1\n      tag_57\n      jump\t// in\n    tag_106:\n      dup1\n      0x1f\n      add\n      0x20\n      dup1\n      swap2\n      div\n      mul\n      0x20\n      add\n      mload(0x40)\n      swap1\n      dup2\n      add\n      0x40\n      mstore\n      dup1\n      swap3\n      swap2\n      swap1\n      dup2\n      dup2\n      mstore\n      0x20\n      add\n      dup3\n      dup1\n      sload\n      tag_107\n      swap1\n      tag_57\n      jump\t// in\n    tag_107:\n      dup1\n      iszero\n      tag_108\n      jumpi\n      dup1\n      0x1f\n      lt\n      tag_109\n      jumpi\n      0x0100\n      dup1\n      dup4\n      sload\n      div\n      mul\n      dup4\n      mstore\n      swap2\n      0x20\n      add\n      swap2\n      jump(tag_108)\n    tag_109:\n      dup3\n      add\n      swap2\n      swap1\n      0x00\n      mstore\n      keccak256(0x00, 0x20)\n      swap1\n    tag_110:\n      dup2\n      sload\n      dup2\n      mstore\n      swap1\n      0x01\n      add\n      swap1\n      0x20\n      add\n      dup1\n      dup4\n      gt\n      tag_110\n      jumpi\n      dup3\n      swap1\n      sub\n      0x1f\n      and\n      dup3\n      add\n      swap2\n    tag_108:\n      pop\n      pop\n      pop\n      pop\n      pop\n      swap1\n      pop\n      swap2\n      pop\n      swap2\n      pop\n        /* \"publicdata.sol\":2380:2564  function getInstContractAddress(address _instAddress)public view onlyNode2 returns (address, string memory)... */\n      swap2\n      pop\n      swap2\n      jump\t// out\n        /* \"publicdata.sol\":2569:2660  function ismoe() public view onlyMOE returns(bool){... */\n    tag_42:\n        /* \"publicdata.sol\":2614:2618  bool */\n      0x00\n        /* \"publicdata.sol\":2717:2729  node1_public */\n      0x05\n      0x00\n      swap1\n      sload\n      swap1\n      0x0100\n      exp\n      swap1\n      div\n      0xffffffffffffffffffffffffffffffffffffffff\n      and\n        /* \"publicdata.sol\":2703:2729  msg.sender == node1_public */\n      0xffffffffffffffffffffffffffffffffffffffff\n      and\n        /* \"publicdata.sol\":2703:2713  msg.sender */\n      caller\n        /* \"publicdata.sol\":2703:2729  msg.sender == node1_public */\n      0xffffffffffffffffffffffffffffffffffffffff\n      and\n      eq\n        /* \"publicdata.sol\":2695:2741  require(msg.sender == node1_public, \"Not MOE\") */\n      tag_112\n      jumpi\n      mload(0x40)\n      0x08c379a000000000000000000000000000000000000000000000000000000000\n      dup2\n      mstore\n      0x04\n      add\n      tag_113\n      swap1\n      tag_65\n      jump\t// in\n    tag_113:\n      mload(0x40)\n      dup1\n      swap2\n      sub\n      swap1\n      revert\n    tag_112:\n        /* \"publicdata.sol\":2649:2652  MOE */\n      0x00\n      dup1\n      sload\n      swap1\n      0x0100\n      exp\n      swap1\n      div\n      0xffffffffffffffffffffffffffffffffffffffff\n      and\n        /* \"publicdata.sol\":2637:2652  msg.sender==MOE */\n      0xffffffffffffffffffffffffffffffffffffffff\n      and\n        /* \"publicdata.sol\":2637:2647  msg.sender */\n      caller\n        /* \"publicdata.sol\":2637:2652  msg.sender==MOE */\n      0xffffffffffffffffffffffffffffffffffffffff\n      and\n      eq\n        /* \"publicdata.sol\":2629:2653  return (msg.sender==MOE) */\n      swap1\n      pop\n        /* \"publicdata.sol\":2569:2660  function ismoe() public view onlyMOE returns(bool){... */\n      swap1\n      jump\t// out\n        /* \"publicdata.sol\":82:100  address public MOE */\n    tag_46:\n      0x00\n      dup1\n      sload\n      swap1\n      0x0100\n      exp\n      swap1\n      div\n      0xffffffffffffffffffffffffffffffffffffffff\n      and\n      dup2\n      jump\t// out\n        /* \"publicdata.sol\":1841:2004  function registerStudent(address _studAddress,  address _studContractAddress)public {... */\n    tag_50:\n        /* \"publicdata.sol\":1977:1997  _studContractAddress */\n      dup1\n        /* \"publicdata.sol\":1935:1960  studAddressToStudContract */\n      0x0b\n        /* \"publicdata.sol\":1935:1974  studAddressToStudContract[_studAddress] */\n      0x00\n        /* \"publicdata.sol\":1961:1973  _studAddress */\n      dup5\n        /* \"publicdata.sol\":1935:1974  studAddressToStudContract[_studAddress] */\n      0xffffffffffffffffffffffffffffffffffffffff\n      and\n      0xffffffffffffffffffffffffffffffffffffffff\n      and\n      dup2\n      mstore\n      0x20\n      add\n      swap1\n      dup2\n      mstore\n      0x20\n      add\n      0x00\n      keccak256\n      0x00\n        /* \"publicdata.sol\":1935:1997  studAddressToStudContract[_studAddress] = _studContractAddress */\n      0x0100\n      exp\n      dup2\n      sload\n      dup2\n      0xffffffffffffffffffffffffffffffffffffffff\n      mul\n      not\n      and\n      swap1\n      dup4\n      0xffffffffffffffffffffffffffffffffffffffff\n      and\n      mul\n      or\n      swap1\n      sstore\n      pop\n        /* \"publicdata.sol\":1841:2004  function registerStudent(address _studAddress,  address _studContractAddress)public {... */\n      pop\n      pop\n      jump\t// out\n        /* \"#utility.yul\":88:205   */\n    tag_117:\n        /* \"#utility.yul\":197:198   */\n      0x00\n        /* \"#utility.yul\":194:195   */\n      dup1\n        /* \"#utility.yul\":187:199   */\n      revert\n        /* \"#utility.yul\":334:460   */\n    tag_119:\n        /* \"#utility.yul\":371:378   */\n      0x00\n        /* \"#utility.yul\":411:453   */\n      0xffffffffffffffffffffffffffffffffffffffff\n        /* \"#utility.yul\":404:409   */\n      dup3\n        /* \"#utility.yul\":400:454   */\n      and\n        /* \"#utility.yul\":389:454   */\n      swap1\n      pop\n        /* \"#utility.yul\":334:460   */\n      swap2\n      swap1\n      pop\n      jump\t// out\n        /* \"#utility.yul\":466:562   */\n    tag_120:\n        /* \"#utility.yul\":503:510   */\n      0x00\n        /* \"#utility.yul\":532:556   */\n      tag_149\n        /* \"#utility.yul\":550:555   */\n      dup3\n        /* \"#utility.yul\":532:556   */\n      tag_119\n      jump\t// in\n    tag_149:\n        /* \"#utility.yul\":521:556   */\n      swap1\n      pop\n        /* \"#utility.yul\":466:562   */\n      swap2\n      swap1\n      pop\n      jump\t// out\n        /* \"#utility.yul\":568:690   */\n    tag_121:\n        /* \"#utility.yul\":641:665   */\n      tag_151\n        /* \"#utility.yul\":659:664   */\n      dup2\n        /* \"#utility.yul\":641:665   */\n      tag_120\n      jump\t// in\n    tag_151:\n        /* \"#utility.yul\":634:639   */\n      dup2\n        /* \"#utility.yul\":631:666   */\n      eq\n        /* \"#utility.yul\":621:684   */\n      tag_152\n      jumpi\n        /* \"#utility.yul\":680:681   */\n      0x00\n        /* \"#utility.yul\":677:678   */\n      dup1\n        /* \"#utility.yul\":670:682   */\n      revert\n        /* \"#utility.yul\":621:684   */\n    tag_152:\n        /* \"#utility.yul\":568:690   */\n      pop\n      jump\t// out\n        /* \"#utility.yul\":696:835   */\n    tag_122:\n        /* \"#utility.yul\":742:747   */\n      0x00\n        /* \"#utility.yul\":780:786   */\n      dup2\n        /* \"#utility.yul\":767:787   */\n      calldataload\n        /* \"#utility.yul\":758:787   */\n      swap1\n      pop\n        /* \"#utility.yul\":796:829   */\n      tag_154\n        /* \"#utility.yul\":823:828   */\n      dup2\n        /* \"#utility.yul\":796:829   */\n      tag_121\n      jump\t// in\n    tag_154:\n        /* \"#utility.yul\":696:835   */\n      swap3\n      swap2\n      pop\n      pop\n      jump\t// out\n        /* \"#utility.yul\":841:1170   */\n    tag_15:\n        /* \"#utility.yul\":900:906   */\n      0x00\n        /* \"#utility.yul\":949:951   */\n      0x20\n        /* \"#utility.yul\":937:946   */\n      dup3\n        /* \"#utility.yul\":928:935   */\n      dup5\n        /* \"#utility.yul\":924:947   */\n      sub\n        /* \"#utility.yul\":920:952   */\n      slt\n        /* \"#utility.yul\":917:1036   */\n      iszero\n      tag_156\n      jumpi\n        /* \"#utility.yul\":955:1034   */\n      tag_157\n      tag_117\n      jump\t// in\n    tag_157:\n        /* \"#utility.yul\":917:1036   */\n    tag_156:\n        /* \"#utility.yul\":1075:1076   */\n      0x00\n        /* \"#utility.yul\":1100:1153   */\n      tag_158\n        /* \"#utility.yul\":1145:1152   */\n      dup5\n        /* \"#utility.yul\":1136:1142   */\n      dup3\n        /* \"#utility.yul\":1125:1134   */\n      dup6\n        /* \"#utility.yul\":1121:1143   */\n      add\n        /* \"#utility.yul\":1100:1153   */\n      tag_122\n      jump\t// in\n    tag_158:\n        /* \"#utility.yul\":1090:1153   */\n      swap2\n      pop\n        /* \"#utility.yul\":1046:1163   */\n      pop\n        /* \"#utility.yul\":841:1170   */\n      swap3\n      swap2\n      pop\n      pop\n      jump\t// out\n        /* \"#utility.yul\":1176:1294   */\n    tag_123:\n        /* \"#utility.yul\":1263:1287   */\n      tag_160\n        /* \"#utility.yul\":1281:1286   */\n      dup2\n        /* \"#utility.yul\":1263:1287   */\n      tag_120\n      jump\t// in\n    tag_160:\n        /* \"#utility.yul\":1258:1261   */\n      dup3\n        /* \"#utility.yul\":1251:1288   */\n      mstore\n        /* \"#utility.yul\":1176:1294   */\n      pop\n      pop\n      jump\t// out\n        /* \"#utility.yul\":1300:1399   */\n    tag_124:\n        /* \"#utility.yul\":1352:1358   */\n      0x00\n        /* \"#utility.yul\":1386:1391   */\n      dup2\n        /* \"#utility.yul\":1380:1392   */\n      mload\n        /* \"#utility.yul\":1370:1392   */\n      swap1\n      pop\n        /* \"#utility.yul\":1300:1399   */\n      swap2\n      swap1\n      pop\n      jump\t// out\n        /* \"#utility.yul\":1405:1574   */\n    tag_125:\n        /* \"#utility.yul\":1489:1500   */\n      0x00\n        /* \"#utility.yul\":1523:1529   */\n      dup3\n        /* \"#utility.yul\":1518:1521   */\n      dup3\n        /* \"#utility.yul\":1511:1530   */\n      mstore\n        /* \"#utility.yul\":1563:1567   */\n      0x20\n        /* \"#utility.yul\":1558:1561   */\n      dup3\n        /* \"#utility.yul\":1554:1568   */\n      add\n        /* \"#utility.yul\":1539:1568   */\n      swap1\n      pop\n        /* \"#utility.yul\":1405:1574   */\n      swap3\n      swap2\n      pop\n      pop\n      jump\t// out\n        /* \"#utility.yul\":1580:1887   */\n    tag_126:\n        /* \"#utility.yul\":1648:1649   */\n      0x00\n        /* \"#utility.yul\":1658:1771   */\n    tag_164:\n        /* \"#utility.yul\":1672:1678   */\n      dup4\n        /* \"#utility.yul\":1669:1670   */\n      dup2\n        /* \"#utility.yul\":1666:1679   */\n      lt\n        /* \"#utility.yul\":1658:1771   */\n      iszero\n      tag_166\n      jumpi\n        /* \"#utility.yul\":1757:1758   */\n      dup1\n        /* \"#utility.yul\":1752:1755   */\n      dup3\n        /* \"#utility.yul\":1748:1759   */\n      add\n        /* \"#utility.yul\":1742:1760   */\n      mload\n        /* \"#utility.yul\":1738:1739   */\n      dup2\n        /* \"#utility.yul\":1733:1736   */\n      dup5\n        /* \"#utility.yul\":1729:1740   */\n      add\n        /* \"#utility.yul\":1722:1761   */\n      mstore\n        /* \"#utility.yul\":1694:1696   */\n      0x20\n        /* \"#utility.yul\":1691:1692   */\n      dup2\n        /* \"#utility.yul\":1687:1697   */\n      add\n        /* \"#utility.yul\":1682:1697   */\n      swap1\n      pop\n        /* \"#utility.yul\":1658:1771   */\n      jump(tag_164)\n    tag_166:\n        /* \"#utility.yul\":1789:1795   */\n      dup4\n        /* \"#utility.yul\":1786:1787   */\n      dup2\n        /* \"#utility.yul\":1783:1796   */\n      gt\n        /* \"#utility.yul\":1780:1881   */\n      iszero\n      tag_167\n      jumpi\n        /* \"#utility.yul\":1869:1870   */\n      0x00\n        /* \"#utility.yul\":1860:1866   */\n      dup5\n        /* \"#utility.yul\":1855:1858   */\n      dup5\n        /* \"#utility.yul\":1851:1867   */\n      add\n        /* \"#utility.yul\":1844:1871   */\n      mstore\n        /* \"#utility.yul\":1780:1881   */\n    tag_167:\n        /* \"#utility.yul\":1629:1887   */\n      pop\n        /* \"#utility.yul\":1580:1887   */\n      pop\n      pop\n      pop\n      jump\t// out\n        /* \"#utility.yul\":1893:1995   */\n    tag_127:\n        /* \"#utility.yul\":1934:1940   */\n      0x00\n        /* \"#utility.yul\":1985:1987   */\n      0x1f\n        /* \"#utility.yul\":1981:1988   */\n      not\n        /* \"#utility.yul\":1976:1978   */\n      0x1f\n        /* \"#utility.yul\":1969:1974   */\n      dup4\n        /* \"#utility.yul\":1965:1979   */\n      add\n        /* \"#utility.yul\":1961:1989   */\n      and\n        /* \"#utility.yul\":1951:1989   */\n      swap1\n      pop\n        /* \"#utility.yul\":1893:1995   */\n      swap2\n      swap1\n      pop\n      jump\t// out\n        /* \"#utility.yul\":2001:2365   */\n    tag_128:\n        /* \"#utility.yul\":2089:2092   */\n      0x00\n        /* \"#utility.yul\":2117:2156   */\n      tag_170\n        /* \"#utility.yul\":2150:2155   */\n      dup3\n        /* \"#utility.yul\":2117:2156   */\n      tag_124\n      jump\t// in\n    tag_170:\n        /* \"#utility.yul\":2172:2243   */\n      tag_171\n        /* \"#utility.yul\":2236:2242   */\n      dup2\n        /* \"#utility.yul\":2231:2234   */\n      dup6\n        /* \"#utility.yul\":2172:2243   */\n      tag_125\n      jump\t// in\n    tag_171:\n        /* \"#utility.yul\":2165:2243   */\n      swap4\n      pop\n        /* \"#utility.yul\":2252:2304   */\n      tag_172\n        /* \"#utility.yul\":2297:2303   */\n      dup2\n        /* \"#utility.yul\":2292:2295   */\n      dup6\n        /* \"#utility.yul\":2285:2289   */\n      0x20\n        /* \"#utility.yul\":2278:2283   */\n      dup7\n        /* \"#utility.yul\":2274:2290   */\n      add\n        /* \"#utility.yul\":2252:2304   */\n      tag_126\n      jump\t// in\n    tag_172:\n        /* \"#utility.yul\":2329:2358   */\n      tag_173\n        /* \"#utility.yul\":2351:2357   */\n      dup2\n        /* \"#utility.yul\":2329:2358   */\n      tag_127\n      jump\t// in\n    tag_173:\n        /* \"#utility.yul\":2324:2327   */\n      dup5\n        /* \"#utility.yul\":2320:2359   */\n      add\n        /* \"#utility.yul\":2313:2359   */\n      swap2\n      pop\n        /* \"#utility.yul\":2093:2365   */\n      pop\n        /* \"#utility.yul\":2001:2365   */\n      swap3\n      swap2\n      pop\n      pop\n      jump\t// out\n        /* \"#utility.yul\":2371:2794   */\n    tag_18:\n        /* \"#utility.yul\":2512:2516   */\n      0x00\n        /* \"#utility.yul\":2550:2552   */\n      0x40\n        /* \"#utility.yul\":2539:2548   */\n      dup3\n        /* \"#utility.yul\":2535:2553   */\n      add\n        /* \"#utility.yul\":2527:2553   */\n      swap1\n      pop\n        /* \"#utility.yul\":2563:2634   */\n      tag_175\n        /* \"#utility.yul\":2631:2632   */\n      0x00\n        /* \"#utility.yul\":2620:2629   */\n      dup4\n        /* \"#utility.yul\":2616:2633   */\n      add\n        /* \"#utility.yul\":2607:2613   */\n      dup6\n        /* \"#utility.yul\":2563:2634   */\n      tag_123\n      jump\t// in\n    tag_175:\n        /* \"#utility.yul\":2681:2690   */\n      dup2\n        /* \"#utility.yul\":2675:2679   */\n      dup2\n        /* \"#utility.yul\":2671:2691   */\n      sub\n        /* \"#utility.yul\":2666:2668   */\n      0x20\n        /* \"#utility.yul\":2655:2664   */\n      dup4\n        /* \"#utility.yul\":2651:2669   */\n      add\n        /* \"#utility.yul\":2644:2692   */\n      mstore\n        /* \"#utility.yul\":2709:2787   */\n      tag_176\n        /* \"#utility.yul\":2782:2786   */\n      dup2\n        /* \"#utility.yul\":2773:2779   */\n      dup5\n        /* \"#utility.yul\":2709:2787   */\n      tag_128\n      jump\t// in\n    tag_176:\n        /* \"#utility.yul\":2701:2787   */\n      swap1\n      pop\n        /* \"#utility.yul\":2371:2794   */\n      swap4\n      swap3\n      pop\n      pop\n      pop\n      jump\t// out\n        /* \"#utility.yul\":2800:3022   */\n    tag_23:\n        /* \"#utility.yul\":2893:2897   */\n      0x00\n        /* \"#utility.yul\":2931:2933   */\n      0x20\n        /* \"#utility.yul\":2920:2929   */\n      dup3\n        /* \"#utility.yul\":2916:2934   */\n      add\n        /* \"#utility.yul\":2908:2934   */\n      swap1\n      pop\n        /* \"#utility.yul\":2944:3015   */\n      tag_178\n        /* \"#utility.yul\":3012:3013   */\n      0x00\n        /* \"#utility.yul\":3001:3010   */\n      dup4\n        /* \"#utility.yul\":2997:3014   */\n      add\n        /* \"#utility.yul\":2988:2994   */\n      dup5\n        /* \"#utility.yul\":2944:3015   */\n      tag_123\n      jump\t// in\n    tag_178:\n        /* \"#utility.yul\":2800:3022   */\n      swap3\n      swap2\n      pop\n      pop\n      jump\t// out\n        /* \"#utility.yul\":3028:3105   */\n    tag_129:\n        /* \"#utility.yul\":3065:3072   */\n      0x00\n        /* \"#utility.yul\":3094:3099   */\n      dup2\n        /* \"#utility.yul\":3083:3099   */\n      swap1\n      pop\n        /* \"#utility.yul\":3028:3105   */\n      swap2\n      swap1\n      pop\n      jump\t// out\n        /* \"#utility.yul\":3111:3233   */\n    tag_130:\n        /* \"#utility.yul\":3184:3208   */\n      tag_181\n        /* \"#utility.yul\":3202:3207   */\n      dup2\n        /* \"#utility.yul\":3184:3208   */\n      tag_129\n      jump\t// in\n    tag_181:\n        /* \"#utility.yul\":3177:3182   */\n      dup2\n        /* \"#utility.yul\":3174:3209   */\n      eq\n        /* \"#utility.yul\":3164:3227   */\n      tag_182\n      jumpi\n        /* \"#utility.yul\":3223:3224   */\n      0x00\n        /* \"#utility.yul\":3220:3221   */\n      dup1\n        /* \"#utility.yul\":3213:3225   */\n      revert\n        /* \"#utility.yul\":3164:3227   */\n    tag_182:\n        /* \"#utility.yul\":3111:3233   */\n      pop\n      jump\t// out\n        /* \"#utility.yul\":3239:3378   */\n    tag_131:\n        /* \"#utility.yul\":3285:3290   */\n      0x00\n        /* \"#utility.yul\":3323:3329   */\n      dup2\n        /* \"#utility.yul\":3310:3330   */\n      calldataload\n        /* \"#utility.yul\":3301:3330   */\n      swap1\n      pop\n        /* \"#utility.yul\":3339:3372   */\n      tag_184\n        /* \"#utility.yul\":3366:3371   */\n      dup2\n        /* \"#utility.yul\":3339:3372   */\n      tag_130\n      jump\t// in\n    tag_184:\n        /* \"#utility.yul\":3239:3378   */\n      swap3\n      swap2\n      pop\n      pop\n      jump\t// out\n        /* \"#utility.yul\":3384:3713   */\n    tag_30:\n        /* \"#utility.yul\":3443:3449   */\n      0x00\n        /* \"#utility.yul\":3492:3494   */\n      0x20\n        /* \"#utility.yul\":3480:3489   */\n      dup3\n        /* \"#utility.yul\":3471:3478   */\n      dup5\n        /* \"#utility.yul\":3467:3490   */\n      sub\n        /* \"#utility.yul\":3463:3495   */\n      slt\n        /* \"#utility.yul\":3460:3579   */\n      iszero\n      tag_186\n      jumpi\n        /* \"#utility.yul\":3498:3577   */\n      tag_187\n      tag_117\n      jump\t// in\n    tag_187:\n        /* \"#utility.yul\":3460:3579   */\n    tag_186:\n        /* \"#utility.yul\":3618:3619   */\n      0x00\n        /* \"#utility.yul\":3643:3696   */\n      tag_188\n        /* \"#utility.yul\":3688:3695   */\n      dup5\n        /* \"#utility.yul\":3679:3685   */\n      dup3\n        /* \"#utility.yul\":3668:3677   */\n      dup6\n        /* \"#utility.yul\":3664:3686   */\n      add\n        /* \"#utility.yul\":3643:3696   */\n      tag_131\n      jump\t// in\n    tag_188:\n        /* \"#utility.yul\":3633:3696   */\n      swap2\n      pop\n        /* \"#utility.yul\":3589:3706   */\n      pop\n        /* \"#utility.yul\":3384:3713   */\n      swap3\n      swap2\n      pop\n      pop\n      jump\t// out\n        /* \"#utility.yul\":3719:4193   */\n    tag_35:\n        /* \"#utility.yul\":3787:3793   */\n      0x00\n        /* \"#utility.yul\":3795:3801   */\n      dup1\n        /* \"#utility.yul\":3844:3846   */\n      0x40\n        /* \"#utility.yul\":3832:3841   */\n      dup4\n        /* \"#utility.yul\":3823:3830   */\n      dup6\n        /* \"#utility.yul\":3819:3842   */\n      sub\n        /* \"#utility.yul\":3815:3847   */\n      slt\n        /* \"#utility.yul\":3812:3931   */\n      iszero\n      tag_190\n      jumpi\n        /* \"#utility.yul\":3850:3929   */\n      tag_191\n      tag_117\n      jump\t// in\n    tag_191:\n        /* \"#utility.yul\":3812:3931   */\n    tag_190:\n        /* \"#utility.yul\":3970:3971   */\n      0x00\n        /* \"#utility.yul\":3995:4048   */\n      tag_192\n        /* \"#utility.yul\":4040:4047   */\n      dup6\n        /* \"#utility.yul\":4031:4037   */\n      dup3\n        /* \"#utility.yul\":4020:4029   */\n      dup7\n        /* \"#utility.yul\":4016:4038   */\n      add\n        /* \"#utility.yul\":3995:4048   */\n      tag_122\n      jump\t// in\n    tag_192:\n        /* \"#utility.yul\":3985:4048   */\n      swap3\n      pop\n        /* \"#utility.yul\":3941:4058   */\n      pop\n        /* \"#utility.yul\":4097:4099   */\n      0x20\n        /* \"#utility.yul\":4123:4176   */\n      tag_193\n        /* \"#utility.yul\":4168:4175   */\n      dup6\n        /* \"#utility.yul\":4159:4165   */\n      dup3\n        /* \"#utility.yul\":4148:4157   */\n      dup7\n        /* \"#utility.yul\":4144:4166   */\n      add\n        /* \"#utility.yul\":4123:4176   */\n      tag_122\n      jump\t// in\n    tag_193:\n        /* \"#utility.yul\":4113:4176   */\n      swap2\n      pop\n        /* \"#utility.yul\":4068:4186   */\n      pop\n        /* \"#utility.yul\":3719:4193   */\n      swap3\n      pop\n      swap3\n      swap1\n      pop\n      jump\t// out\n        /* \"#utility.yul\":4199:4289   */\n    tag_132:\n        /* \"#utility.yul\":4233:4240   */\n      0x00\n        /* \"#utility.yul\":4276:4281   */\n      dup2\n        /* \"#utility.yul\":4269:4282   */\n      iszero\n        /* \"#utility.yul\":4262:4283   */\n      iszero\n        /* \"#utility.yul\":4251:4283   */\n      swap1\n      pop\n        /* \"#utility.yul\":4199:4289   */\n      swap2\n      swap1\n      pop\n      jump\t// out\n        /* \"#utility.yul\":4295:4404   */\n    tag_133:\n        /* \"#utility.yul\":4376:4397   */\n      tag_196\n        /* \"#utility.yul\":4391:4396   */\n      dup2\n        /* \"#utility.yul\":4376:4397   */\n      tag_132\n      jump\t// in\n    tag_196:\n        /* \"#utility.yul\":4371:4374   */\n      dup3\n        /* \"#utility.yul\":4364:4398   */\n      mstore\n        /* \"#utility.yul\":4295:4404   */\n      pop\n      pop\n      jump\t// out\n        /* \"#utility.yul\":4410:4620   */\n    tag_44:\n        /* \"#utility.yul\":4497:4501   */\n      0x00\n        /* \"#utility.yul\":4535:4537   */\n      0x20\n        /* \"#utility.yul\":4524:4533   */\n      dup3\n        /* \"#utility.yul\":4520:4538   */\n      add\n        /* \"#utility.yul\":4512:4538   */\n      swap1\n      pop\n        /* \"#utility.yul\":4548:4613   */\n      tag_198\n        /* \"#utility.yul\":4610:4611   */\n      0x00\n        /* \"#utility.yul\":4599:4608   */\n      dup4\n        /* \"#utility.yul\":4595:4612   */\n      add\n        /* \"#utility.yul\":4586:4592   */\n      dup5\n        /* \"#utility.yul\":4548:4613   */\n      tag_133\n      jump\t// in\n    tag_198:\n        /* \"#utility.yul\":4410:4620   */\n      swap3\n      swap2\n      pop\n      pop\n      jump\t// out\n        /* \"#utility.yul\":4626:4785   */\n    tag_134:\n        /* \"#utility.yul\":4766:4777   */\n      0x4e6f74204e6f6465330000000000000000000000000000000000000000000000\n        /* \"#utility.yul\":4762:4763   */\n      0x00\n        /* \"#utility.yul\":4754:4760   */\n      dup3\n        /* \"#utility.yul\":4750:4764   */\n      add\n        /* \"#utility.yul\":4743:4778   */\n      mstore\n        /* \"#utility.yul\":4626:4785   */\n      pop\n      jump\t// out\n        /* \"#utility.yul\":4791:5156   */\n    tag_135:\n        /* \"#utility.yul\":4933:4936   */\n      0x00\n        /* \"#utility.yul\":4954:5020   */\n      tag_201\n        /* \"#utility.yul\":5018:5019   */\n      0x09\n        /* \"#utility.yul\":5013:5016   */\n      dup4\n        /* \"#utility.yul\":4954:5020   */\n      tag_125\n      jump\t// in\n    tag_201:\n        /* \"#utility.yul\":4947:5020   */\n      swap2\n      pop\n        /* \"#utility.yul\":5029:5122   */\n      tag_202\n        /* \"#utility.yul\":5118:5121   */\n      dup3\n        /* \"#utility.yul\":5029:5122   */\n      tag_134\n      jump\t// in\n    tag_202:\n        /* \"#utility.yul\":5147:5149   */\n      0x20\n        /* \"#utility.yul\":5142:5145   */\n      dup3\n        /* \"#utility.yul\":5138:5150   */\n      add\n        /* \"#utility.yul\":5131:5150   */\n      swap1\n      pop\n        /* \"#utility.yul\":4791:5156   */\n      swap2\n      swap1\n      pop\n      jump\t// out\n        /* \"#utility.yul\":5162:5581   */\n    tag_54:\n        /* \"#utility.yul\":5328:5332   */\n      0x00\n        /* \"#utility.yul\":5366:5368   */\n      0x20\n        /* \"#utility.yul\":5355:5364   */\n      dup3\n        /* \"#utility.yul\":5351:5369   */\n      add\n        /* \"#utility.yul\":5343:5369   */\n      swap1\n      pop\n        /* \"#utility.yul\":5415:5424   */\n      dup2\n        /* \"#utility.yul\":5409:5413   */\n      dup2\n        /* \"#utility.yul\":5405:5425   */\n      sub\n        /* \"#utility.yul\":5401:5402   */\n      0x00\n        /* \"#utility.yul\":5390:5399   */\n      dup4\n        /* \"#utility.yul\":5386:5403   */\n      add\n        /* \"#utility.yul\":5379:5426   */\n      mstore\n        /* \"#utility.yul\":5443:5574   */\n      tag_204\n        /* \"#utility.yul\":5569:5573   */\n      dup2\n        /* \"#utility.yul\":5443:5574   */\n      tag_135\n      jump\t// in\n    tag_204:\n        /* \"#utility.yul\":5435:5574   */\n      swap1\n      pop\n        /* \"#utility.yul\":5162:5581   */\n      swap2\n      swap1\n      pop\n      jump\t// out\n        /* \"#utility.yul\":5587:5767   */\n    tag_136:\n        /* \"#utility.yul\":5635:5712   */\n      0x4e487b7100000000000000000000000000000000000000000000000000000000\n        /* \"#utility.yul\":5632:5633   */\n      0x00\n        /* \"#utility.yul\":5625:5713   */\n      mstore\n        /* \"#utility.yul\":5732:5736   */\n      0x22\n        /* \"#utility.yul\":5729:5730   */\n      0x04\n        /* \"#utility.yul\":5722:5737   */\n      mstore\n        /* \"#utility.yul\":5756:5760   */\n      0x24\n        /* \"#utility.yul\":5753:5754   */\n      0x00\n        /* \"#utility.yul\":5746:5761   */\n      revert\n        /* \"#utility.yul\":5773:6093   */\n    tag_57:\n        /* \"#utility.yul\":5817:5823   */\n      0x00\n        /* \"#utility.yul\":5854:5855   */\n      0x02\n        /* \"#utility.yul\":5848:5852   */\n      dup3\n        /* \"#utility.yul\":5844:5856   */\n      div\n        /* \"#utility.yul\":5834:5856   */\n      swap1\n      pop\n        /* \"#utility.yul\":5901:5902   */\n      0x01\n        /* \"#utility.yul\":5895:5899   */\n      dup3\n        /* \"#utility.yul\":5891:5903   */\n      and\n        /* \"#utility.yul\":5922:5940   */\n      dup1\n        /* \"#utility.yul\":5912:5993   */\n      tag_207\n      jumpi\n        /* \"#utility.yul\":5978:5982   */\n      0x7f\n        /* \"#utility.yul\":5970:5976   */\n      dup3\n        /* \"#utility.yul\":5966:5983   */\n      and\n        /* \"#utility.yul\":5956:5983   */\n      swap2\n      pop\n        /* \"#utility.yul\":5912:5993   */\n    tag_207:\n        /* \"#utility.yul\":6040:6042   */\n      0x20\n        /* \"#utility.yul\":6032:6038   */\n      dup3\n        /* \"#utility.yul\":6029:6043   */\n      lt\n        /* \"#utility.yul\":6009:6027   */\n      dup2\n        /* \"#utility.yul\":6006:6044   */\n      eq\n        /* \"#utility.yul\":6003:6087   */\n      iszero\n      tag_208\n      jumpi\n        /* \"#utility.yul\":6059:6077   */\n      tag_209\n      tag_136\n      jump\t// in\n    tag_209:\n        /* \"#utility.yul\":6003:6087   */\n    tag_208:\n        /* \"#utility.yul\":5824:6093   */\n      pop\n        /* \"#utility.yul\":5773:6093   */\n      swap2\n      swap1\n      pop\n      jump\t// out\n        /* \"#utility.yul\":6099:6256   */\n    tag_137:\n        /* \"#utility.yul\":6239:6248   */\n      0x4e6f74204d4f4500000000000000000000000000000000000000000000000000\n        /* \"#utility.yul\":6235:6236   */\n      0x00\n        /* \"#utility.yul\":6227:6233   */\n      dup3\n        /* \"#utility.yul\":6223:6237   */\n      add\n        /* \"#utility.yul\":6216:6249   */\n      mstore\n        /* \"#utility.yul\":6099:6256   */\n      pop\n      jump\t// out\n        /* \"#utility.yul\":6262:6627   */\n    tag_138:\n        /* \"#utility.yul\":6404:6407   */\n      0x00\n        /* \"#utility.yul\":6425:6491   */\n      tag_212\n        /* \"#utility.yul\":6489:6490   */\n      0x07\n        /* \"#utility.yul\":6484:6487   */\n      dup4\n        /* \"#utility.yul\":6425:6491   */\n      tag_125\n      jump\t// in\n    tag_212:\n        /* \"#utility.yul\":6418:6491   */\n      swap2\n      pop\n        /* \"#utility.yul\":6500:6593   */\n      tag_213\n        /* \"#utility.yul\":6589:6592   */\n      dup3\n        /* \"#utility.yul\":6500:6593   */\n      tag_137\n      jump\t// in\n    tag_213:\n        /* \"#utility.yul\":6618:6620   */\n      0x20\n        /* \"#utility.yul\":6613:6616   */\n      dup3\n        /* \"#utility.yul\":6609:6621   */\n      add\n        /* \"#utility.yul\":6602:6621   */\n      swap1\n      pop\n        /* \"#utility.yul\":6262:6627   */\n      swap2\n      swap1\n      pop\n      jump\t// out\n        /* \"#utility.yul\":6633:7052   */\n    tag_65:\n        /* \"#utility.yul\":6799:6803   */\n      0x00\n        /* \"#utility.yul\":6837:6839   */\n      0x20\n        /* \"#utility.yul\":6826:6835   */\n      dup3\n        /* \"#utility.yul\":6822:6840   */\n      add\n        /* \"#utility.yul\":6814:6840   */\n      swap1\n      pop\n        /* \"#utility.yul\":6886:6895   */\n      dup2\n        /* \"#utility.yul\":6880:6884   */\n      dup2\n        /* \"#utility.yul\":6876:6896   */\n      sub\n        /* \"#utility.yul\":6872:6873   */\n      0x00\n        /* \"#utility.yul\":6861:6870   */\n      dup4\n        /* \"#utility.yul\":6857:6874   */\n      add\n        /* \"#utility.yul\":6850:6897   */\n      mstore\n        /* \"#utility.yul\":6914:7045   */\n      tag_215\n        /* \"#utility.yul\":7040:7044   */\n      dup2\n        /* \"#utility.yul\":6914:7045   */\n      tag_138\n      jump\t// in\n    tag_215:\n        /* \"#utility.yul\":6906:7045   */\n      swap1\n      pop\n        /* \"#utility.yul\":6633:7052   */\n      swap2\n      swap1\n      pop\n      jump\t// out\n        /* \"#utility.yul\":7058:7218   */\n    tag_139:\n        /* \"#utility.yul\":7198:7210   */\n      0x496e76616c696420494400000000000000000000000000000000000000000000\n        /* \"#utility.yul\":7194:7195   */\n      0x00\n        /* \"#utility.yul\":7186:7192   */\n      dup3\n        /* \"#utility.yul\":7182:7196   */\n      add\n        /* \"#utility.yul\":7175:7211   */\n      mstore\n        /* \"#utility.yul\":7058:7218   */\n      pop\n      jump\t// out\n        /* \"#utility.yul\":7224:7590   */\n    tag_140:\n        /* \"#utility.yul\":7366:7369   */\n      0x00\n        /* \"#utility.yul\":7387:7454   */\n      tag_218\n        /* \"#utility.yul\":7451:7453   */\n      0x0a\n        /* \"#utility.yul\":7446:7449   */\n      dup4\n        /* \"#utility.yul\":7387:7454   */\n      tag_125\n      jump\t// in\n    tag_218:\n        /* \"#utility.yul\":7380:7454   */\n      swap2\n      pop\n        /* \"#utility.yul\":7463:7556   */\n      tag_219\n        /* \"#utility.yul\":7552:7555   */\n      dup3\n        /* \"#utility.yul\":7463:7556   */\n      tag_139\n      jump\t// in\n    tag_219:\n        /* \"#utility.yul\":7581:7583   */\n      0x20\n        /* \"#utility.yul\":7576:7579   */\n      dup3\n        /* \"#utility.yul\":7572:7584   */\n      add\n        /* \"#utility.yul\":7565:7584   */\n      swap1\n      pop\n        /* \"#utility.yul\":7224:7590   */\n      swap2\n      swap1\n      pop\n      jump\t// out\n        /* \"#utility.yul\":7596:8015   */\n    tag_96:\n        /* \"#utility.yul\":7762:7766   */\n      0x00\n        /* \"#utility.yul\":7800:7802   */\n      0x20\n        /* \"#utility.yul\":7789:7798   */\n      dup3\n        /* \"#utility.yul\":7785:7803   */\n      add\n        /* \"#utility.yul\":7777:7803   */\n      swap1\n      pop\n        /* \"#utility.yul\":7849:7858   */\n      dup2\n        /* \"#utility.yul\":7843:7847   */\n      dup2\n        /* \"#utility.yul\":7839:7859   */\n      sub\n        /* \"#utility.yul\":7835:7836   */\n      0x00\n        /* \"#utility.yul\":7824:7833   */\n      dup4\n        /* \"#utility.yul\":7820:7837   */\n      add\n        /* \"#utility.yul\":7813:7860   */\n      mstore\n        /* \"#utility.yul\":7877:8008   */\n      tag_221\n        /* \"#utility.yul\":8003:8007   */\n      dup2\n        /* \"#utility.yul\":7877:8008   */\n      tag_140\n      jump\t// in\n    tag_221:\n        /* \"#utility.yul\":7869:8008   */\n      swap1\n      pop\n        /* \"#utility.yul\":7596:8015   */\n      swap2\n      swap1\n      pop\n      jump\t// out\n        /* \"#utility.yul\":8021:8181   */\n    tag_141:\n        /* \"#utility.yul\":8161:8173   */\n      0x4e6f74204e6f6465203200000000000000000000000000000000000000000000\n        /* \"#utility.yul\":8157:8158   */\n      0x00\n        /* \"#utility.yul\":8149:8155   */\n      dup3\n        /* \"#utility.yul\":8145:8159   */\n      add\n        /* \"#utility.yul\":8138:8174   */\n      mstore\n        /* \"#utility.yul\":8021:8181   */\n      pop\n      jump\t// out\n        /* \"#utility.yul\":8187:8553   */\n    tag_142:\n        /* \"#utility.yul\":8329:8332   */\n      0x00\n        /* \"#utility.yul\":8350:8417   */\n      tag_224\n        /* \"#utility.yul\":8414:8416   */\n      0x0a\n        /* \"#utility.yul\":8409:8412   */\n      dup4\n        /* \"#utility.yul\":8350:8417   */\n      tag_125\n      jump\t// in\n    tag_224:\n        /* \"#utility.yul\":8343:8417   */\n      swap2\n      pop\n        /* \"#utility.yul\":8426:8519   */\n      tag_225\n        /* \"#utility.yul\":8515:8518   */\n      dup3\n        /* \"#utility.yul\":8426:8519   */\n      tag_141\n      jump\t// in\n    tag_225:\n        /* \"#utility.yul\":8544:8546   */\n      0x20\n        /* \"#utility.yul\":8539:8542   */\n      dup3\n        /* \"#utility.yul\":8535:8547   */\n      add\n        /* \"#utility.yul\":8528:8547   */\n      swap1\n      pop\n        /* \"#utility.yul\":8187:8553   */\n      swap2\n      swap1\n      pop\n      jump\t// out\n        /* \"#utility.yul\":8559:8978   */\n    tag_100:\n        /* \"#utility.yul\":8725:8729   */\n      0x00\n        /* \"#utility.yul\":8763:8765   */\n      0x20\n        /* \"#utility.yul\":8752:8761   */\n      dup3\n        /* \"#utility.yul\":8748:8766   */\n      add\n        /* \"#utility.yul\":8740:8766   */\n      swap1\n      pop\n        /* \"#utility.yul\":8812:8821   */\n      dup2\n        /* \"#utility.yul\":8806:8810   */\n      dup2\n        /* \"#utility.yul\":8802:8822   */\n      sub\n        /* \"#utility.yul\":8798:8799   */\n      0x00\n        /* \"#utility.yul\":8787:8796   */\n      dup4\n        /* \"#utility.yul\":8783:8800   */\n      add\n        /* \"#utility.yul\":8776:8823   */\n      mstore\n        /* \"#utility.yul\":8840:8971   */\n      tag_227\n        /* \"#utility.yul\":8966:8970   */\n      dup2\n        /* \"#utility.yul\":8840:8971   */\n      tag_142\n      jump\t// in\n    tag_227:\n        /* \"#utility.yul\":8832:8971   */\n      swap1\n      pop\n        /* \"#utility.yul\":8559:8978   */\n      swap2\n      swap1\n      pop\n      jump\t// out\n\n    auxdata: 0xa2646970667358221220dda1d5c3138371983eee8c6cd6b498cc62446550dcaa6acda66d447db2f6a2f664736f6c634300080a0033\n}\n",
    "bytecode": {
      "linkReferences": {},
      "object": "60806040523480156200001157600080fd5b50604051620017af380380620017af83398181016040528101906200003791906200054b565b336000806101000a81548173ffffffffffffffffffffffffffffffffffffffff021916908373ffffffffffffffffffffffffffffffffffffffff16021790555089600160006101000a81548173ffffffffffffffffffffffffffffffffffffffff021916908373ffffffffffffffffffffffffffffffffffffffff16021790555088600260006101000a81548173ffffffffffffffffffffffffffffffffffffffff021916908373ffffffffffffffffffffffffffffffffffffffff16021790555087600360006101000a81548173ffffffffffffffffffffffffffffffffffffffff021916908373ffffffffffffffffffffffffffffffffffffffff16021790555086600460006101000a81548173ffffffffffffffffffffffffffffffffffffffff021916908373ffffffffffffffffffffffffffffffffffffffff16021790555082600560006101000a81548173ffffffffffffffffffffffffffffffffffffffff021916908373ffffffffffffffffffffffffffffffffffffffff16021790555081600660006101000a81548173ffffffffffffffffffffffffffffffffffffffff021916908373ffffffffffffffffffffffffffffffffffffffff16021790555080600760006101000a81548173ffffffffffffffffffffffffffffffffffffffff021916908373ffffffffffffffffffffffffffffffffffffffff16021790555085600890805190602001906200025692919062000299565b5084600990805190602001906200026f92919062000299565b5083600a90805190602001906200028892919062000299565b505050505050505050505062000703565b828054620002a790620006cd565b90600052602060002090601f016020900481019282620002cb576000855562000317565b82601f10620002e657805160ff191683800117855562000317565b8280016001018555821562000317579182015b8281111562000316578251825591602001919060010190620002f9565b5b5090506200032691906200032a565b5090565b5b80821115620003455760008160009055506001016200032b565b5090565b6000604051905090565b600080fd5b600080fd5b600073ffffffffffffffffffffffffffffffffffffffff82169050919050565b60006200038a826200035d565b9050919050565b6200039c816200037d565b8114620003a857600080fd5b50565b600081519050620003bc8162000391565b92915050565b600080fd5b600080fd5b6000601f19601f8301169050919050565b7f4e487b7100000000000000000000000000000000000000000000000000000000600052604160045260246000fd5b6200041782620003cc565b810181811067ffffffffffffffff82111715620004395762000438620003dd565b5b80604052505050565b60006200044e62000349565b90506200045c82826200040c565b919050565b600067ffffffffffffffff8211156200047f576200047e620003dd565b5b6200048a82620003cc565b9050602081019050919050565b60005b83811015620004b75780820151818401526020810190506200049a565b83811115620004c7576000848401525b50505050565b6000620004e4620004de8462000461565b62000442565b905082815260208101848484011115620005035762000502620003c7565b5b6200051084828562000497565b509392505050565b600082601f83011262000530576200052f620003c2565b5b815162000542848260208601620004cd565b91505092915050565b6000806000806000806000806000806101408b8d03121562000572576200057162000353565b5b6000620005828d828e01620003ab565b9a50506020620005958d828e01620003ab565b9950506040620005a88d828e01620003ab565b9850506060620005bb8d828e01620003ab565b97505060808b015167ffffffffffffffff811115620005df57620005de62000358565b5b620005ed8d828e0162000518565b96505060a08b015167ffffffffffffffff81111562000611576200061062000358565b5b6200061f8d828e0162000518565b95505060c08b015167ffffffffffffffff81111562000643576200064262000358565b5b620006518d828e0162000518565b94505060e0620006648d828e01620003ab565b935050610100620006788d828e01620003ab565b9250506101206200068c8d828e01620003ab565b9150509295989b9194979a5092959850565b7f4e487b7100000000000000000000000000000000000000000000000000000000600052602260045260246000fd5b60006002820490506001821680620006e657607f821691505b60208210811415620006fd57620006fc6200069e565b5b50919050565b61109c80620007136000396000f3fe608060405234801561001057600080fd5b50600436106100935760003560e01c806346fcc6941161006657806346fcc6941461015a5780635fc415f3146101765780636484fedb146101a7578063673a1746146101c5578063c4d0d9ea146101e357610093565b8063020e3f8a14610098578063032b3f7a146100c957806332687db0146100f95780633b0b1b9b14610129575b600080fd5b6100b260048036038101906100ad9190610c5c565b6101ff565b6040516100c0929190610d31565b60405180910390f35b6100e360048036038101906100de9190610c5c565b61038a565b6040516100f09190610d61565b60405180910390f35b610113600480360381019061010e9190610c5c565b6103bd565b6040516101209190610d61565b60405180910390f35b610143600480360381019061013e9190610db2565b6103f0565b604051610151929190610d31565b60405180910390f35b610174600480360381019061016f9190610ddf565b6107d0565b005b610190600480360381019061018b9190610c5c565b6108e2565b60405161019e929190610d31565b60405180910390f35b6101af610a6d565b6040516101bc9190610e3a565b60405180910390f35b6101cd610b53565b6040516101da9190610d61565b60405180910390f35b6101fd60048036038101906101f89190610ddf565b610b77565b005b60006060600760009054906101000a900473ffffffffffffffffffffffffffffffffffffffff1673ffffffffffffffffffffffffffffffffffffffff163373ffffffffffffffffffffffffffffffffffffffff1614610293576040517f08c379a000000000000000000000000000000000000000000000000000000000815260040161028a90610ea1565b60405180910390fd5b600b60008473ffffffffffffffffffffffffffffffffffffffff1673ffffffffffffffffffffffffffffffffffffffff16815260200190815260200160002060009054906101000a900473ffffffffffffffffffffffffffffffffffffffff16600a80805461030190610ef0565b80601f016020809104026020016040519081016040528092919081815260200182805461032d90610ef0565b801561037a5780601f1061034f5761010080835404028352916020019161037a565b820191906000526020600020905b81548152906001019060200180831161035d57829003601f168201915b5050505050905091509150915091565b600b6020528060005260406000206000915054906101000a900473ffffffffffffffffffffffffffffffffffffffff1681565b600c6020528060005260406000206000915054906101000a900473ffffffffffffffffffffffffffffffffffffffff1681565b60006060600560009054906101000a900473ffffffffffffffffffffffffffffffffffffffff1673ffffffffffffffffffffffffffffffffffffffff163373ffffffffffffffffffffffffffffffffffffffff1614610484576040517f08c379a000000000000000000000000000000000000000000000000000000000815260040161047b90610f6e565b60405180910390fd5b600183141561054757600160009054906101000a900473ffffffffffffffffffffffffffffffffffffffff1660088080546104be90610ef0565b80601f01602080910402602001604051908101604052809291908181526020018280546104ea90610ef0565b80156105375780601f1061050c57610100808354040283529160200191610537565b820191906000526020600020905b81548152906001019060200180831161051a57829003601f168201915b50505050509050915091506107cb565b600283141561060a57600360009054906101000a900473ffffffffffffffffffffffffffffffffffffffff16600880805461058190610ef0565b80601f01602080910402602001604051908101604052809291908181526020018280546105ad90610ef0565b80156105fa5780601f106105cf576101008083540402835291602001916105fa565b820191906000526020600020905b8154815290600101906020018083116105dd57829003601f168201915b50505050509050915091506107cb565b60038314156106cd57600260009054906101000a900473ffffffffffffffffffffffffffffffffffffffff16600880805461064490610ef0565b80601f016020809104026020016040519081016040528092919081815260200182805461067090610ef0565b80156106bd5780601f10610692576101008083540402835291602001916106bd565b820191906000526020600020905b8154815290600101906020018083116106a057829003601f168201915b50505050509050915091506107cb565b600483141561079057600460009054906101000a900473ffffffffffffffffffffffffffffffffffffffff16600880805461070790610ef0565b80601f016020809104026020016040519081016040528092919081815260200182805461073390610ef0565b80156107805780601f1061075557610100808354040283529160200191610780565b820191906000526020600020905b81548152906001019060200180831161076357829003601f168201915b50505050509050915091506107cb565b6040517f08c379a00000000000000000000000000000000000000000000000000000000081526004016107c290610fda565b60405180910390fd5b915091565b600660009054906101000a900473ffffffffffffffffffffffffffffffffffffffff1673ffffffffffffffffffffffffffffffffffffffff163373ffffffffffffffffffffffffffffffffffffffff1614610860576040517f08c379a000000000000000000000000000000000000000000000000000000000815260040161085790611046565b60405180910390fd5b80600c60008473ffffffffffffffffffffffffffffffffffffffff1673ffffffffffffffffffffffffffffffffffffffff16815260200190815260200160002060006101000a81548173ffffffffffffffffffffffffffffffffffffffff021916908373ffffffffffffffffffffffffffffffffffffffff1602179055505050565b60006060600660009054906101000a900473ffffffffffffffffffffffffffffffffffffffff1673ffffffffffffffffffffffffffffffffffffffff163373ffffffffffffffffffffffffffffffffffffffff1614610976576040517f08c379a000000000000000000000000000000000000000000000000000000000815260040161096d90611046565b60405180910390fd5b600c60008473ffffffffffffffffffffffffffffffffffffffff1673ffffffffffffffffffffffffffffffffffffffff16815260200190815260200160002060009054906101000a900473ffffffffffffffffffffffffffffffffffffffff1660098080546109e490610ef0565b80601f0160208091040260200160405190810160405280929190818152602001828054610a1090610ef0565b8015610a5d5780601f10610a3257610100808354040283529160200191610a5d565b820191906000526020600020905b815481529060010190602001808311610a4057829003601f168201915b5050505050905091509150915091565b6000600560009054906101000a900473ffffffffffffffffffffffffffffffffffffffff1673ffffffffffffffffffffffffffffffffffffffff163373ffffffffffffffffffffffffffffffffffffffff1614610aff576040517f08c379a0000000000000000000000000000000000000000000000000000000008152600401610af690610f6e565b60405180910390fd5b60008054906101000a900473ffffffffffffffffffffffffffffffffffffffff1673ffffffffffffffffffffffffffffffffffffffff163373ffffffffffffffffffffffffffffffffffffffff1614905090565b60008054906101000a900473ffffffffffffffffffffffffffffffffffffffff1681565b80600b60008473ffffffffffffffffffffffffffffffffffffffff1673ffffffffffffffffffffffffffffffffffffffff16815260200190815260200160002060006101000a81548173ffffffffffffffffffffffffffffffffffffffff021916908373ffffffffffffffffffffffffffffffffffffffff1602179055505050565b600080fd5b600073ffffffffffffffffffffffffffffffffffffffff82169050919050565b6000610c2982610bfe565b9050919050565b610c3981610c1e565b8114610c4457600080fd5b50565b600081359050610c5681610c30565b92915050565b600060208284031215610c7257610c71610bf9565b5b6000610c8084828501610c47565b91505092915050565b610c9281610c1e565b82525050565b600081519050919050565b600082825260208201905092915050565b60005b83811015610cd2578082015181840152602081019050610cb7565b83811115610ce1576000848401525b50505050565b6000601f19601f8301169050919050565b6000610d0382610c98565b610d0d8185610ca3565b9350610d1d818560208601610cb4565b610d2681610ce7565b840191505092915050565b6000604082019050610d466000830185610c89565b8181036020830152610d588184610cf8565b90509392505050565b6000602082019050610d766000830184610c89565b92915050565b6000819050919050565b610d8f81610d7c565b8114610d9a57600080fd5b50565b600081359050610dac81610d86565b92915050565b600060208284031215610dc857610dc7610bf9565b5b6000610dd684828501610d9d565b91505092915050565b60008060408385031215610df657610df5610bf9565b5b6000610e0485828601610c47565b9250506020610e1585828601610c47565b9150509250929050565b60008115159050919050565b610e3481610e1f565b82525050565b6000602082019050610e4f6000830184610e2b565b92915050565b7f4e6f74204e6f6465330000000000000000000000000000000000000000000000600082015250565b6000610e8b600983610ca3565b9150610e9682610e55565b602082019050919050565b60006020820190508181036000830152610eba81610e7e565b9050919050565b7f4e487b7100000000000000000000000000000000000000000000000000000000600052602260045260246000fd5b60006002820490506001821680610f0857607f821691505b60208210811415610f1c57610f1b610ec1565b5b50919050565b7f4e6f74204d4f4500000000000000000000000000000000000000000000000000600082015250565b6000610f58600783610ca3565b9150610f6382610f22565b602082019050919050565b60006020820190508181036000830152610f8781610f4b565b9050919050565b7f496e76616c696420494400000000000000000000000000000000000000000000600082015250565b6000610fc4600a83610ca3565b9150610fcf82610f8e565b602082019050919050565b60006020820190508181036000830152610ff381610fb7565b9050919050565b7f4e6f74204e6f6465203200000000000000000000000000000000000000000000600082015250565b6000611030600a83610ca3565b915061103b82610ffa565b602082019050919050565b6000602082019050818103600083015261105f81611023565b905091905056fea2646970667358221220dda1d5c3138371983eee8c6cd6b498cc62446550dcaa6acda66d447db2f6a2f664736f6c634300080a0033",
      "opcodes": "PUSH1 0x80 PUSH1 0x40 MSTORE CALLVALUE DUP1 ISZERO PUSH3 0x11 JUMPI PUSH1 0x0 DUP1 REVERT JUMPDEST POP PUSH1 0x40 MLOAD PUSH3 0x17AF CODESIZE SUB DUP1 PUSH3 0x17AF DUP4 CODECOPY DUP2 DUP2 ADD PUSH1 0x40 MSTORE DUP2 ADD SWAP1 PUSH3 0x37 SWAP2 SWAP1 PUSH3 0x54B JUMP JUMPDEST CALLER PUSH1 0x0 DUP1 PUSH2 0x100 EXP DUP2 SLOAD DUP2 PUSH20 0xFFFFFFFFFFFFFFFFFFFFFFFFFFFFFFFFFFFFFFFF MUL NOT AND SWAP1 DUP4 PUSH20 0xFFFFFFFFFFFFFFFFFFFFFFFFFFFFFFFFFFFFFFFF AND MUL OR SWAP1 SSTORE POP DUP10 PUSH1 0x1 PUSH1 0x0 PUSH2 0x100 EXP DUP2 SLOAD DUP2 PUSH20 0xFFFFFFFFFFFFFFFFFFFFFFFFFFFFFFFFFFFFFFFF MUL NOT AND SWAP1 DUP4 PUSH20 0xFFFFFFFFFFFFFFFFFFFFFFFFFFFFFFFFFFFFFFFF AND MUL OR SWAP1 SSTORE POP DUP9 PUSH1 0x2 PUSH1 0x0 PUSH2 0x100 EXP DUP2 SLOAD DUP2 PUSH20 0xFFFFFFFFFFFFFFFFFFFFFFFFFFFFFFFFFFFFFFFF MUL NOT AND SWAP1 DUP4 PUSH20 0xFFFFFFFFFFFFFFFFFFFFFFFFFFFFFFFFFFFFFFFF AND MUL OR SWAP1 SSTORE POP DUP8 PUSH1 0x3 PUSH1 0x0 PUSH2 0x100 EXP DUP2 SLOAD DUP2 PUSH20 0xFFFFFFFFFFFFFFFFFFFFFFFFFFFFFFFFFFFFFFFF MUL NOT AND SWAP1 DUP4 PUSH20 0xFFFFFFFFFFFFFFFFFFFFFFFFFFFFFFFFFFFFFFFF AND MUL OR SWAP1 SSTORE POP DUP7 PUSH1 0x4 PUSH1 0x0 PUSH2 0x100 EXP DUP2 SLOAD DUP2 PUSH20 0xFFFFFFFFFFFFFFFFFFFFFFFFFFFFFFFFFFFFFFFF MUL NOT AND SWAP1 DUP4 PUSH20 0xFFFFFFFFFFFFFFFFFFFFFFFFFFFFFFFFFFFFFFFF AND MUL OR SWAP1 SSTORE POP DUP3 PUSH1 0x5 PUSH1 0x0 PUSH2 0x100 EXP DUP2 SLOAD DUP2 PUSH20 0xFFFFFFFFFFFFFFFFFFFFFFFFFFFFFFFFFFFFFFFF MUL NOT AND SWAP1 DUP4 PUSH20 0xFFFFFFFFFFFFFFFFFFFFFFFFFFFFFFFFFFFFFFFF AND MUL OR SWAP1 SSTORE POP DUP2 PUSH1 0x6 PUSH1 0x0 PUSH2 0x100 EXP DUP2 SLOAD DUP2 PUSH20 0xFFFFFFFFFFFFFFFFFFFFFFFFFFFFFFFFFFFFFFFF MUL NOT AND SWAP1 DUP4 PUSH20 0xFFFFFFFFFFFFFFFFFFFFFFFFFFFFFFFFFFFFFFFF AND MUL OR SWAP1 SSTORE POP DUP1 PUSH1 0x7 PUSH1 0x0 PUSH2 0x100 EXP DUP2 SLOAD DUP2 PUSH20 0xFFFFFFFFFFFFFFFFFFFFFFFFFFFFFFFFFFFFFFFF MUL NOT AND SWAP1 DUP4 PUSH20 0xFFFFFFFFFFFFFFFFFFFFFFFFFFFFFFFFFFFFFFFF AND MUL OR SWAP1 SSTORE POP DUP6 PUSH1 0x8 SWAP1 DUP1 MLOAD SWAP1 PUSH1 0x20 ADD SWAP1 PUSH3 0x256 SWAP3 SWAP2 SWAP1 PUSH3 0x299 JUMP JUMPDEST POP DUP5 PUSH1 0x9 SWAP1 DUP1 MLOAD SWAP1 PUSH1 0x20 ADD SWAP1 PUSH3 0x26F SWAP3 SWAP2 SWAP1 PUSH3 0x299 JUMP JUMPDEST POP DUP4 PUSH1 0xA SWAP1 DUP1 MLOAD SWAP1 PUSH1 0x20 ADD SWAP1 PUSH3 0x288 SWAP3 SWAP2 SWAP1 PUSH3 0x299 JUMP JUMPDEST POP POP POP POP POP POP POP POP POP POP POP PUSH3 0x703 JUMP JUMPDEST DUP3 DUP1 SLOAD PUSH3 0x2A7 SWAP1 PUSH3 0x6CD JUMP JUMPDEST SWAP1 PUSH1 0x0 MSTORE PUSH1 0x20 PUSH1 0x0 KECCAK256 SWAP1 PUSH1 0x1F ADD PUSH1 0x20 SWAP1 DIV DUP2 ADD SWAP3 DUP3 PUSH3 0x2CB JUMPI PUSH1 0x0 DUP6 SSTORE PUSH3 0x317 JUMP JUMPDEST DUP3 PUSH1 0x1F LT PUSH3 0x2E6 JUMPI DUP1 MLOAD PUSH1 0xFF NOT AND DUP4 DUP1 ADD OR DUP6 SSTORE PUSH3 0x317 JUMP JUMPDEST DUP3 DUP1 ADD PUSH1 0x1 ADD DUP6 SSTORE DUP3 ISZERO PUSH3 0x317 JUMPI SWAP2 DUP3 ADD JUMPDEST DUP3 DUP2 GT ISZERO PUSH3 0x316 JUMPI DUP3 MLOAD DUP3 SSTORE SWAP2 PUSH1 0x20 ADD SWAP2 SWAP1 PUSH1 0x1 ADD SWAP1 PUSH3 0x2F9 JUMP JUMPDEST JUMPDEST POP SWAP1 POP PUSH3 0x326 SWAP2 SWAP1 PUSH3 0x32A JUMP JUMPDEST POP SWAP1 JUMP JUMPDEST JUMPDEST DUP1 DUP3 GT ISZERO PUSH3 0x345 JUMPI PUSH1 0x0 DUP2 PUSH1 0x0 SWAP1 SSTORE POP PUSH1 0x1 ADD PUSH3 0x32B JUMP JUMPDEST POP SWAP1 JUMP JUMPDEST PUSH1 0x0 PUSH1 0x40 MLOAD SWAP1 POP SWAP1 JUMP JUMPDEST PUSH1 0x0 DUP1 REVERT JUMPDEST PUSH1 0x0 DUP1 REVERT JUMPDEST PUSH1 0x0 PUSH20 0xFFFFFFFFFFFFFFFFFFFFFFFFFFFFFFFFFFFFFFFF DUP3 AND SWAP1 POP SWAP2 SWAP1 POP JUMP JUMPDEST PUSH1 0x0 PUSH3 0x38A DUP3 PUSH3 0x35D JUMP JUMPDEST SWAP1 POP SWAP2 SWAP1 POP JUMP JUMPDEST PUSH3 0x39C DUP2 PUSH3 0x37D JUMP JUMPDEST DUP2 EQ PUSH3 0x3A8 JUMPI PUSH1 0x0 DUP1 REVERT JUMPDEST POP JUMP JUMPDEST PUSH1 0x0 DUP2 MLOAD SWAP1 POP PUSH3 0x3BC DUP2 PUSH3 0x391 JUMP JUMPDEST SWAP3 SWAP2 POP POP JUMP JUMPDEST PUSH1 0x0 DUP1 REVERT JUMPDEST PUSH1 0x0 DUP1 REVERT JUMPDEST PUSH1 0x0 PUSH1 0x1F NOT PUSH1 0x1F DUP4 ADD AND SWAP1 POP SWAP2 SWAP1 POP JUMP JUMPDEST PUSH32 0x4E487B7100000000000000000000000000000000000000000000000000000000 PUSH1 0x0 MSTORE PUSH1 0x41 PUSH1 0x4 MSTORE PUSH1 0x24 PUSH1 0x0 REVERT JUMPDEST PUSH3 0x417 DUP3 PUSH3 0x3CC JUMP JUMPDEST DUP2 ADD DUP2 DUP2 LT PUSH8 0xFFFFFFFFFFFFFFFF DUP3 GT OR ISZERO PUSH3 0x439 JUMPI PUSH3 0x438 PUSH3 0x3DD JUMP JUMPDEST JUMPDEST DUP1 PUSH1 0x40 MSTORE POP POP POP JUMP JUMPDEST PUSH1 0x0 PUSH3 0x44E PUSH3 0x349 JUMP JUMPDEST SWAP1 POP PUSH3 0x45C DUP3 DUP3 PUSH3 0x40C JUMP JUMPDEST SWAP2 SWAP1 POP JUMP JUMPDEST PUSH1 0x0 PUSH8 0xFFFFFFFFFFFFFFFF DUP3 GT ISZERO PUSH3 0x47F JUMPI PUSH3 0x47E PUSH3 0x3DD JUMP JUMPDEST JUMPDEST PUSH3 0x48A DUP3 PUSH3 0x3CC JUMP JUMPDEST SWAP1 POP PUSH1 0x20 DUP2 ADD SWAP1 POP SWAP2 SWAP1 POP JUMP JUMPDEST PUSH1 0x0 JUMPDEST DUP4 DUP2 LT ISZERO PUSH3 0x4B7 JUMPI DUP1 DUP3 ADD MLOAD DUP2 DUP5 ADD MSTORE PUSH1 0x20 DUP2 ADD SWAP1 POP PUSH3 0x49A JUMP JUMPDEST DUP4 DUP2 GT ISZERO PUSH3 0x4C7 JUMPI PUSH1 0x0 DUP5 DUP5 ADD MSTORE JUMPDEST POP POP POP POP JUMP JUMPDEST PUSH1 0x0 PUSH3 0x4E4 PUSH3 0x4DE DUP5 PUSH3 0x461 JUMP JUMPDEST PUSH3 0x442 JUMP JUMPDEST SWAP1 POP DUP3 DUP2 MSTORE PUSH1 0x20 DUP2 ADD DUP5 DUP5 DUP5 ADD GT ISZERO PUSH3 0x503 JUMPI PUSH3 0x502 PUSH3 0x3C7 JUMP JUMPDEST JUMPDEST PUSH3 0x510 DUP5 DUP3 DUP6 PUSH3 0x497 JUMP JUMPDEST POP SWAP4 SWAP3 POP POP POP JUMP JUMPDEST PUSH1 0x0 DUP3 PUSH1 0x1F DUP4 ADD SLT PUSH3 0x530 JUMPI PUSH3 0x52F PUSH3 0x3C2 JUMP JUMPDEST JUMPDEST DUP2 MLOAD PUSH3 0x542 DUP5 DUP3 PUSH1 0x20 DUP7 ADD PUSH3 0x4CD JUMP JUMPDEST SWAP2 POP POP SWAP3 SWAP2 POP POP JUMP JUMPDEST PUSH1 0x0 DUP1 PUSH1 0x0 DUP1 PUSH1 0x0 DUP1 PUSH1 0x0 DUP1 PUSH1 0x0 DUP1 PUSH2 0x140 DUP12 DUP14 SUB SLT ISZERO PUSH3 0x572 JUMPI PUSH3 0x571 PUSH3 0x353 JUMP JUMPDEST JUMPDEST PUSH1 0x0 PUSH3 0x582 DUP14 DUP3 DUP15 ADD PUSH3 0x3AB JUMP JUMPDEST SWAP11 POP POP PUSH1 0x20 PUSH3 0x595 DUP14 DUP3 DUP15 ADD PUSH3 0x3AB JUMP JUMPDEST SWAP10 POP POP PUSH1 0x40 PUSH3 0x5A8 DUP14 DUP3 DUP15 ADD PUSH3 0x3AB JUMP JUMPDEST SWAP9 POP POP PUSH1 0x60 PUSH3 0x5BB DUP14 DUP3 DUP15 ADD PUSH3 0x3AB JUMP JUMPDEST SWAP8 POP POP PUSH1 0x80 DUP12 ADD MLOAD PUSH8 0xFFFFFFFFFFFFFFFF DUP2 GT ISZERO PUSH3 0x5DF JUMPI PUSH3 0x5DE PUSH3 0x358 JUMP JUMPDEST JUMPDEST PUSH3 0x5ED DUP14 DUP3 DUP15 ADD PUSH3 0x518 JUMP JUMPDEST SWAP7 POP POP PUSH1 0xA0 DUP12 ADD MLOAD PUSH8 0xFFFFFFFFFFFFFFFF DUP2 GT ISZERO PUSH3 0x611 JUMPI PUSH3 0x610 PUSH3 0x358 JUMP JUMPDEST JUMPDEST PUSH3 0x61F DUP14 DUP3 DUP15 ADD PUSH3 0x518 JUMP JUMPDEST SWAP6 POP POP PUSH1 0xC0 DUP12 ADD MLOAD PUSH8 0xFFFFFFFFFFFFFFFF DUP2 GT ISZERO PUSH3 0x643 JUMPI PUSH3 0x642 PUSH3 0x358 JUMP JUMPDEST JUMPDEST PUSH3 0x651 DUP14 DUP3 DUP15 ADD PUSH3 0x518 JUMP JUMPDEST SWAP5 POP POP PUSH1 0xE0 PUSH3 0x664 DUP14 DUP3 DUP15 ADD PUSH3 0x3AB JUMP JUMPDEST SWAP4 POP POP PUSH2 0x100 PUSH3 0x678 DUP14 DUP3 DUP15 ADD PUSH3 0x3AB JUMP JUMPDEST SWAP3 POP POP PUSH2 0x120 PUSH3 0x68C DUP14 DUP3 DUP15 ADD PUSH3 0x3AB JUMP JUMPDEST SWAP2 POP POP SWAP3 SWAP6 SWAP9 SWAP12 SWAP2 SWAP5 SWAP8 SWAP11 POP SWAP3 SWAP6 SWAP9 POP JUMP JUMPDEST PUSH32 0x4E487B7100000000000000000000000000000000000000000000000000000000 PUSH1 0x0 MSTORE PUSH1 0x22 PUSH1 0x4 MSTORE PUSH1 0x24 PUSH1 0x0 REVERT JUMPDEST PUSH1 0x0 PUSH1 0x2 DUP3 DIV SWAP1 POP PUSH1 0x1 DUP3 AND DUP1 PUSH3 0x6E6 JUMPI PUSH1 0x7F DUP3 AND SWAP2 POP JUMPDEST PUSH1 0x20 DUP3 LT DUP2 EQ ISZERO PUSH3 0x6FD JUMPI PUSH3 0x6FC PUSH3 0x69E JUMP JUMPDEST JUMPDEST POP SWAP2 SWAP1 POP JUMP JUMPDEST PUSH2 0x109C DUP1 PUSH3 0x713 PUSH1 0x0 CODECOPY PUSH1 0x0 RETURN INVALID PUSH1 0x80 PUSH1 0x40 MSTORE CALLVALUE DUP1 ISZERO PUSH2 0x10 JUMPI PUSH1 0x0 DUP1 REVERT JUMPDEST POP PUSH1 0x4 CALLDATASIZE LT PUSH2 0x93 JUMPI PUSH1 0x0 CALLDATALOAD PUSH1 0xE0 SHR DUP1 PUSH4 0x46FCC694 GT PUSH2 0x66 JUMPI DUP1 PUSH4 0x46FCC694 EQ PUSH2 0x15A JUMPI DUP1 PUSH4 0x5FC415F3 EQ PUSH2 0x176 JUMPI DUP1 PUSH4 0x6484FEDB EQ PUSH2 0x1A7 JUMPI DUP1 PUSH4 0x673A1746 EQ PUSH2 0x1C5 JUMPI DUP1 PUSH4 0xC4D0D9EA EQ PUSH2 0x1E3 JUMPI PUSH2 0x93 JUMP JUMPDEST DUP1 PUSH4 0x20E3F8A EQ PUSH2 0x98 JUMPI DUP1 PUSH4 0x32B3F7A EQ PUSH2 0xC9 JUMPI DUP1 PUSH4 0x32687DB0 EQ PUSH2 0xF9 JUMPI DUP1 PUSH4 0x3B0B1B9B EQ PUSH2 0x129 JUMPI JUMPDEST PUSH1 0x0 DUP1 REVERT JUMPDEST PUSH2 0xB2 PUSH1 0x4 DUP1 CALLDATASIZE SUB DUP2 ADD SWAP1 PUSH2 0xAD SWAP2 SWAP1 PUSH2 0xC5C JUMP JUMPDEST PUSH2 0x1FF JUMP JUMPDEST PUSH1 0x40 MLOAD PUSH2 0xC0 SWAP3 SWAP2 SWAP1 PUSH2 0xD31 JUMP JUMPDEST PUSH1 0x40 MLOAD DUP1 SWAP2 SUB SWAP1 RETURN JUMPDEST PUSH2 0xE3 PUSH1 0x4 DUP1 CALLDATASIZE SUB DUP2 ADD SWAP1 PUSH2 0xDE SWAP2 SWAP1 PUSH2 0xC5C JUMP JUMPDEST PUSH2 0x38A JUMP JUMPDEST PUSH1 0x40 MLOAD PUSH2 0xF0 SWAP2 SWAP1 PUSH2 0xD61 JUMP JUMPDEST PUSH1 0x40 MLOAD DUP1 SWAP2 SUB SWAP1 RETURN JUMPDEST PUSH2 0x113 PUSH1 0x4 DUP1 CALLDATASIZE SUB DUP2 ADD SWAP1 PUSH2 0x10E SWAP2 SWAP1 PUSH2 0xC5C JUMP JUMPDEST PUSH2 0x3BD JUMP JUMPDEST PUSH1 0x40 MLOAD PUSH2 0x120 SWAP2 SWAP1 PUSH2 0xD61 JUMP JUMPDEST PUSH1 0x40 MLOAD DUP1 SWAP2 SUB SWAP1 RETURN JUMPDEST PUSH2 0x143 PUSH1 0x4 DUP1 CALLDATASIZE SUB DUP2 ADD SWAP1 PUSH2 0x13E SWAP2 SWAP1 PUSH2 0xDB2 JUMP JUMPDEST PUSH2 0x3F0 JUMP JUMPDEST PUSH1 0x40 MLOAD PUSH2 0x151 SWAP3 SWAP2 SWAP1 PUSH2 0xD31 JUMP JUMPDEST PUSH1 0x40 MLOAD DUP1 SWAP2 SUB SWAP1 RETURN JUMPDEST PUSH2 0x174 PUSH1 0x4 DUP1 CALLDATASIZE SUB DUP2 ADD SWAP1 PUSH2 0x16F SWAP2 SWAP1 PUSH2 0xDDF JUMP JUMPDEST PUSH2 0x7D0 JUMP JUMPDEST STOP JUMPDEST PUSH2 0x190 PUSH1 0x4 DUP1 CALLDATASIZE SUB DUP2 ADD SWAP1 PUSH2 0x18B SWAP2 SWAP1 PUSH2 0xC5C JUMP JUMPDEST PUSH2 0x8E2 JUMP JUMPDEST PUSH1 0x40 MLOAD PUSH2 0x19E SWAP3 SWAP2 SWAP1 PUSH2 0xD31 JUMP JUMPDEST PUSH1 0x40 MLOAD DUP1 SWAP2 SUB SWAP1 RETURN JUMPDEST PUSH2 0x1AF PUSH2 0xA6D JUMP JUMPDEST PUSH1 0x40 MLOAD PUSH2 0x1BC SWAP2 SWAP1 PUSH2 0xE3A JUMP JUMPDEST PUSH1 0x40 MLOAD DUP1 SWAP2 SUB SWAP1 RETURN JUMPDEST PUSH2 0x1CD PUSH2 0xB53 JUMP JUMPDEST PUSH1 0x40 MLOAD PUSH2 0x1DA SWAP2 SWAP1 PUSH2 0xD61 JUMP JUMPDEST PUSH1 0x40 MLOAD DUP1 SWAP2 SUB SWAP1 RETURN JUMPDEST PUSH2 0x1FD PUSH1 0x4 DUP1 CALLDATASIZE SUB DUP2 ADD SWAP1 PUSH2 0x1F8 SWAP2 SWAP1 PUSH2 0xDDF JUMP JUMPDEST PUSH2 0xB77 JUMP JUMPDEST STOP JUMPDEST PUSH1 0x0 PUSH1 0x60 PUSH1 0x7 PUSH1 0x0 SWAP1 SLOAD SWAP1 PUSH2 0x100 EXP SWAP1 DIV PUSH20 0xFFFFFFFFFFFFFFFFFFFFFFFFFFFFFFFFFFFFFFFF AND PUSH20 0xFFFFFFFFFFFFFFFFFFFFFFFFFFFFFFFFFFFFFFFF AND CALLER PUSH20 0xFFFFFFFFFFFFFFFFFFFFFFFFFFFFFFFFFFFFFFFF AND EQ PUSH2 0x293 JUMPI PUSH1 0x40 MLOAD PUSH32 0x8C379A000000000000000000000000000000000000000000000000000000000 DUP2 MSTORE PUSH1 0x4 ADD PUSH2 0x28A SWAP1 PUSH2 0xEA1 JUMP JUMPDEST PUSH1 0x40 MLOAD DUP1 SWAP2 SUB SWAP1 REVERT JUMPDEST PUSH1 0xB PUSH1 0x0 DUP5 PUSH20 0xFFFFFFFFFFFFFFFFFFFFFFFFFFFFFFFFFFFFFFFF AND PUSH20 0xFFFFFFFFFFFFFFFFFFFFFFFFFFFFFFFFFFFFFFFF AND DUP2 MSTORE PUSH1 0x20 ADD SWAP1 DUP2 MSTORE PUSH1 0x20 ADD PUSH1 0x0 KECCAK256 PUSH1 0x0 SWAP1 SLOAD SWAP1 PUSH2 0x100 EXP SWAP1 DIV PUSH20 0xFFFFFFFFFFFFFFFFFFFFFFFFFFFFFFFFFFFFFFFF AND PUSH1 0xA DUP1 DUP1 SLOAD PUSH2 0x301 SWAP1 PUSH2 0xEF0 JUMP JUMPDEST DUP1 PUSH1 0x1F ADD PUSH1 0x20 DUP1 SWAP2 DIV MUL PUSH1 0x20 ADD PUSH1 0x40 MLOAD SWAP1 DUP2 ADD PUSH1 0x40 MSTORE DUP1 SWAP3 SWAP2 SWAP1 DUP2 DUP2 MSTORE PUSH1 0x20 ADD DUP3 DUP1 SLOAD PUSH2 0x32D SWAP1 PUSH2 0xEF0 JUMP JUMPDEST DUP1 ISZERO PUSH2 0x37A JUMPI DUP1 PUSH1 0x1F LT PUSH2 0x34F JUMPI PUSH2 0x100 DUP1 DUP4 SLOAD DIV MUL DUP4 MSTORE SWAP2 PUSH1 0x20 ADD SWAP2 PUSH2 0x37A JUMP JUMPDEST DUP3 ADD SWAP2 SWAP1 PUSH1 0x0 MSTORE PUSH1 0x20 PUSH1 0x0 KECCAK256 SWAP1 JUMPDEST DUP2 SLOAD DUP2 MSTORE SWAP1 PUSH1 0x1 ADD SWAP1 PUSH1 0x20 ADD DUP1 DUP4 GT PUSH2 0x35D JUMPI DUP3 SWAP1 SUB PUSH1 0x1F AND DUP3 ADD SWAP2 JUMPDEST POP POP POP POP POP SWAP1 POP SWAP2 POP SWAP2 POP SWAP2 POP SWAP2 JUMP JUMPDEST PUSH1 0xB PUSH1 0x20 MSTORE DUP1 PUSH1 0x0 MSTORE PUSH1 0x40 PUSH1 0x0 KECCAK256 PUSH1 0x0 SWAP2 POP SLOAD SWAP1 PUSH2 0x100 EXP SWAP1 DIV PUSH20 0xFFFFFFFFFFFFFFFFFFFFFFFFFFFFFFFFFFFFFFFF AND DUP2 JUMP JUMPDEST PUSH1 0xC PUSH1 0x20 MSTORE DUP1 PUSH1 0x0 MSTORE PUSH1 0x40 PUSH1 0x0 KECCAK256 PUSH1 0x0 SWAP2 POP SLOAD SWAP1 PUSH2 0x100 EXP SWAP1 DIV PUSH20 0xFFFFFFFFFFFFFFFFFFFFFFFFFFFFFFFFFFFFFFFF AND DUP2 JUMP JUMPDEST PUSH1 0x0 PUSH1 0x60 PUSH1 0x5 PUSH1 0x0 SWAP1 SLOAD SWAP1 PUSH2 0x100 EXP SWAP1 DIV PUSH20 0xFFFFFFFFFFFFFFFFFFFFFFFFFFFFFFFFFFFFFFFF AND PUSH20 0xFFFFFFFFFFFFFFFFFFFFFFFFFFFFFFFFFFFFFFFF AND CALLER PUSH20 0xFFFFFFFFFFFFFFFFFFFFFFFFFFFFFFFFFFFFFFFF AND EQ PUSH2 0x484 JUMPI PUSH1 0x40 MLOAD PUSH32 0x8C379A000000000000000000000000000000000000000000000000000000000 DUP2 MSTORE PUSH1 0x4 ADD PUSH2 0x47B SWAP1 PUSH2 0xF6E JUMP JUMPDEST PUSH1 0x40 MLOAD DUP1 SWAP2 SUB SWAP1 REVERT JUMPDEST PUSH1 0x1 DUP4 EQ ISZERO PUSH2 0x547 JUMPI PUSH1 0x1 PUSH1 0x0 SWAP1 SLOAD SWAP1 PUSH2 0x100 EXP SWAP1 DIV PUSH20 0xFFFFFFFFFFFFFFFFFFFFFFFFFFFFFFFFFFFFFFFF AND PUSH1 0x8 DUP1 DUP1 SLOAD PUSH2 0x4BE SWAP1 PUSH2 0xEF0 JUMP JUMPDEST DUP1 PUSH1 0x1F ADD PUSH1 0x20 DUP1 SWAP2 DIV MUL PUSH1 0x20 ADD PUSH1 0x40 MLOAD SWAP1 DUP2 ADD PUSH1 0x40 MSTORE DUP1 SWAP3 SWAP2 SWAP1 DUP2 DUP2 MSTORE PUSH1 0x20 ADD DUP3 DUP1 SLOAD PUSH2 0x4EA SWAP1 PUSH2 0xEF0 JUMP JUMPDEST DUP1 ISZERO PUSH2 0x537 JUMPI DUP1 PUSH1 0x1F LT PUSH2 0x50C JUMPI PUSH2 0x100 DUP1 DUP4 SLOAD DIV MUL DUP4 MSTORE SWAP2 PUSH1 0x20 ADD SWAP2 PUSH2 0x537 JUMP JUMPDEST DUP3 ADD SWAP2 SWAP1 PUSH1 0x0 MSTORE PUSH1 0x20 PUSH1 0x0 KECCAK256 SWAP1 JUMPDEST DUP2 SLOAD DUP2 MSTORE SWAP1 PUSH1 0x1 ADD SWAP1 PUSH1 0x20 ADD DUP1 DUP4 GT PUSH2 0x51A JUMPI DUP3 SWAP1 SUB PUSH1 0x1F AND DUP3 ADD SWAP2 JUMPDEST POP POP POP POP POP SWAP1 POP SWAP2 POP SWAP2 POP PUSH2 0x7CB JUMP JUMPDEST PUSH1 0x2 DUP4 EQ ISZERO PUSH2 0x60A JUMPI PUSH1 0x3 PUSH1 0x0 SWAP1 SLOAD SWAP1 PUSH2 0x100 EXP SWAP1 DIV PUSH20 0xFFFFFFFFFFFFFFFFFFFFFFFFFFFFFFFFFFFFFFFF AND PUSH1 0x8 DUP1 DUP1 SLOAD PUSH2 0x581 SWAP1 PUSH2 0xEF0 JUMP JUMPDEST DUP1 PUSH1 0x1F ADD PUSH1 0x20 DUP1 SWAP2 DIV MUL PUSH1 0x20 ADD PUSH1 0x40 MLOAD SWAP1 DUP2 ADD PUSH1 0x40 MSTORE DUP1 SWAP3 SWAP2 SWAP1 DUP2 DUP2 MSTORE PUSH1 0x20 ADD DUP3 DUP1 SLOAD PUSH2 0x5AD SWAP1 PUSH2 0xEF0 JUMP JUMPDEST DUP1 ISZERO PUSH2 0x5FA JUMPI DUP1 PUSH1 0x1F LT PUSH2 0x5CF JUMPI PUSH2 0x100 DUP1 DUP4 SLOAD DIV MUL DUP4 MSTORE SWAP2 PUSH1 0x20 ADD SWAP2 PUSH2 0x5FA JUMP JUMPDEST DUP3 ADD SWAP2 SWAP1 PUSH1 0x0 MSTORE PUSH1 0x20 PUSH1 0x0 KECCAK256 SWAP1 JUMPDEST DUP2 SLOAD DUP2 MSTORE SWAP1 PUSH1 0x1 ADD SWAP1 PUSH1 0x20 ADD DUP1 DUP4 GT PUSH2 0x5DD JUMPI DUP3 SWAP1 SUB PUSH1 0x1F AND DUP3 ADD SWAP2 JUMPDEST POP POP POP POP POP SWAP1 POP SWAP2 POP SWAP2 POP PUSH2 0x7CB JUMP JUMPDEST PUSH1 0x3 DUP4 EQ ISZERO PUSH2 0x6CD JUMPI PUSH1 0x2 PUSH1 0x0 SWAP1 SLOAD SWAP1 PUSH2 0x100 EXP SWAP1 DIV PUSH20 0xFFFFFFFFFFFFFFFFFFFFFFFFFFFFFFFFFFFFFFFF AND PUSH1 0x8 DUP1 DUP1 SLOAD PUSH2 0x644 SWAP1 PUSH2 0xEF0 JUMP JUMPDEST DUP1 PUSH1 0x1F ADD PUSH1 0x20 DUP1 SWAP2 DIV MUL PUSH1 0x20 ADD PUSH1 0x40 MLOAD SWAP1 DUP2 ADD PUSH1 0x40 MSTORE DUP1 SWAP3 SWAP2 SWAP1 DUP2 DUP2 MSTORE PUSH1 0x20 ADD DUP3 DUP1 SLOAD PUSH2 0x670 SWAP1 PUSH2 0xEF0 JUMP JUMPDEST DUP1 ISZERO PUSH2 0x6BD JUMPI DUP1 PUSH1 0x1F LT PUSH2 0x692 JUMPI PUSH2 0x100 DUP1 DUP4 SLOAD DIV MUL DUP4 MSTORE SWAP2 PUSH1 0x20 ADD SWAP2 PUSH2 0x6BD JUMP JUMPDEST DUP3 ADD SWAP2 SWAP1 PUSH1 0x0 MSTORE PUSH1 0x20 PUSH1 0x0 KECCAK256 SWAP1 JUMPDEST DUP2 SLOAD DUP2 MSTORE SWAP1 PUSH1 0x1 ADD SWAP1 PUSH1 0x20 ADD DUP1 DUP4 GT PUSH2 0x6A0 JUMPI DUP3 SWAP1 SUB PUSH1 0x1F AND DUP3 ADD SWAP2 JUMPDEST POP POP POP POP POP SWAP1 POP SWAP2 POP SWAP2 POP PUSH2 0x7CB JUMP JUMPDEST PUSH1 0x4 DUP4 EQ ISZERO PUSH2 0x790 JUMPI PUSH1 0x4 PUSH1 0x0 SWAP1 SLOAD SWAP1 PUSH2 0x100 EXP SWAP1 DIV PUSH20 0xFFFFFFFFFFFFFFFFFFFFFFFFFFFFFFFFFFFFFFFF AND PUSH1 0x8 DUP1 DUP1 SLOAD PUSH2 0x707 SWAP1 PUSH2 0xEF0 JUMP JUMPDEST DUP1 PUSH1 0x1F ADD PUSH1 0x20 DUP1 SWAP2 DIV MUL PUSH1 0x20 ADD PUSH1 0x40 MLOAD SWAP1 DUP2 ADD PUSH1 0x40 MSTORE DUP1 SWAP3 SWAP2 SWAP1 DUP2 DUP2 MSTORE PUSH1 0x20 ADD DUP3 DUP1 SLOAD PUSH2 0x733 SWAP1 PUSH2 0xEF0 JUMP JUMPDEST DUP1 ISZERO PUSH2 0x780 JUMPI DUP1 PUSH1 0x1F LT PUSH2 0x755 JUMPI PUSH2 0x100 DUP1 DUP4 SLOAD DIV MUL DUP4 MSTORE SWAP2 PUSH1 0x20 ADD SWAP2 PUSH2 0x780 JUMP JUMPDEST DUP3 ADD SWAP2 SWAP1 PUSH1 0x0 MSTORE PUSH1 0x20 PUSH1 0x0 KECCAK256 SWAP1 JUMPDEST DUP2 SLOAD DUP2 MSTORE SWAP1 PUSH1 0x1 ADD SWAP1 PUSH1 0x20 ADD DUP1 DUP4 GT PUSH2 0x763 JUMPI DUP3 SWAP1 SUB PUSH1 0x1F AND DUP3 ADD SWAP2 JUMPDEST POP POP POP POP POP SWAP1 POP SWAP2 POP SWAP2 POP PUSH2 0x7CB JUMP JUMPDEST PUSH1 0x40 MLOAD PUSH32 0x8C379A000000000000000000000000000000000000000000000000000000000 DUP2 MSTORE PUSH1 0x4 ADD PUSH2 0x7C2 SWAP1 PUSH2 0xFDA JUMP JUMPDEST PUSH1 0x40 MLOAD DUP1 SWAP2 SUB SWAP1 REVERT JUMPDEST SWAP2 POP SWAP2 JUMP JUMPDEST PUSH1 0x6 PUSH1 0x0 SWAP1 SLOAD SWAP1 PUSH2 0x100 EXP SWAP1 DIV PUSH20 0xFFFFFFFFFFFFFFFFFFFFFFFFFFFFFFFFFFFFFFFF AND PUSH20 0xFFFFFFFFFFFFFFFFFFFFFFFFFFFFFFFFFFFFFFFF AND CALLER PUSH20 0xFFFFFFFFFFFFFFFFFFFFFFFFFFFFFFFFFFFFFFFF AND EQ PUSH2 0x860 JUMPI PUSH1 0x40 MLOAD PUSH32 0x8C379A000000000000000000000000000000000000000000000000000000000 DUP2 MSTORE PUSH1 0x4 ADD PUSH2 0x857 SWAP1 PUSH2 0x1046 JUMP JUMPDEST PUSH1 0x40 MLOAD DUP1 SWAP2 SUB SWAP1 REVERT JUMPDEST DUP1 PUSH1 0xC PUSH1 0x0 DUP5 PUSH20 0xFFFFFFFFFFFFFFFFFFFFFFFFFFFFFFFFFFFFFFFF AND PUSH20 0xFFFFFFFFFFFFFFFFFFFFFFFFFFFFFFFFFFFFFFFF AND DUP2 MSTORE PUSH1 0x20 ADD SWAP1 DUP2 MSTORE PUSH1 0x20 ADD PUSH1 0x0 KECCAK256 PUSH1 0x0 PUSH2 0x100 EXP DUP2 SLOAD DUP2 PUSH20 0xFFFFFFFFFFFFFFFFFFFFFFFFFFFFFFFFFFFFFFFF MUL NOT AND SWAP1 DUP4 PUSH20 0xFFFFFFFFFFFFFFFFFFFFFFFFFFFFFFFFFFFFFFFF AND MUL OR SWAP1 SSTORE POP POP POP JUMP JUMPDEST PUSH1 0x0 PUSH1 0x60 PUSH1 0x6 PUSH1 0x0 SWAP1 SLOAD SWAP1 PUSH2 0x100 EXP SWAP1 DIV PUSH20 0xFFFFFFFFFFFFFFFFFFFFFFFFFFFFFFFFFFFFFFFF AND PUSH20 0xFFFFFFFFFFFFFFFFFFFFFFFFFFFFFFFFFFFFFFFF AND CALLER PUSH20 0xFFFFFFFFFFFFFFFFFFFFFFFFFFFFFFFFFFFFFFFF AND EQ PUSH2 0x976 JUMPI PUSH1 0x40 MLOAD PUSH32 0x8C379A000000000000000000000000000000000000000000000000000000000 DUP2 MSTORE PUSH1 0x4 ADD PUSH2 0x96D SWAP1 PUSH2 0x1046 JUMP JUMPDEST PUSH1 0x40 MLOAD DUP1 SWAP2 SUB SWAP1 REVERT JUMPDEST PUSH1 0xC PUSH1 0x0 DUP5 PUSH20 0xFFFFFFFFFFFFFFFFFFFFFFFFFFFFFFFFFFFFFFFF AND PUSH20 0xFFFFFFFFFFFFFFFFFFFFFFFFFFFFFFFFFFFFFFFF AND DUP2 MSTORE PUSH1 0x20 ADD SWAP1 DUP2 MSTORE PUSH1 0x20 ADD PUSH1 0x0 KECCAK256 PUSH1 0x0 SWAP1 SLOAD SWAP1 PUSH2 0x100 EXP SWAP1 DIV PUSH20 0xFFFFFFFFFFFFFFFFFFFFFFFFFFFFFFFFFFFFFFFF AND PUSH1 0x9 DUP1 DUP1 SLOAD PUSH2 0x9E4 SWAP1 PUSH2 0xEF0 JUMP JUMPDEST DUP1 PUSH1 0x1F ADD PUSH1 0x20 DUP1 SWAP2 DIV MUL PUSH1 0x20 ADD PUSH1 0x40 MLOAD SWAP1 DUP2 ADD PUSH1 0x40 MSTORE DUP1 SWAP3 SWAP2 SWAP1 DUP2 DUP2 MSTORE PUSH1 0x20 ADD DUP3 DUP1 SLOAD PUSH2 0xA10 SWAP1 PUSH2 0xEF0 JUMP JUMPDEST DUP1 ISZERO PUSH2 0xA5D JUMPI DUP1 PUSH1 0x1F LT PUSH2 0xA32 JUMPI PUSH2 0x100 DUP1 DUP4 SLOAD DIV MUL DUP4 MSTORE SWAP2 PUSH1 0x20 ADD SWAP2 PUSH2 0xA5D JUMP JUMPDEST DUP3 ADD SWAP2 SWAP1 PUSH1 0x0 MSTORE PUSH1 0x20 PUSH1 0x0 KECCAK256 SWAP1 JUMPDEST DUP2 SLOAD DUP2 MSTORE SWAP1 PUSH1 0x1 ADD SWAP1 PUSH1 0x20 ADD DUP1 DUP4 GT PUSH2 0xA40 JUMPI DUP3 SWAP1 SUB PUSH1 0x1F AND DUP3 ADD SWAP2 JUMPDEST POP POP POP POP POP SWAP1 POP SWAP2 POP SWAP2 POP SWAP2 POP SWAP2 JUMP JUMPDEST PUSH1 0x0 PUSH1 0x5 PUSH1 0x0 SWAP1 SLOAD SWAP1 PUSH2 0x100 EXP SWAP1 DIV PUSH20 0xFFFFFFFFFFFFFFFFFFFFFFFFFFFFFFFFFFFFFFFF AND PUSH20 0xFFFFFFFFFFFFFFFFFFFFFFFFFFFFFFFFFFFFFFFF AND CALLER PUSH20 0xFFFFFFFFFFFFFFFFFFFFFFFFFFFFFFFFFFFFFFFF AND EQ PUSH2 0xAFF JUMPI PUSH1 0x40 MLOAD PUSH32 0x8C379A000000000000000000000000000000000000000000000000000000000 DUP2 MSTORE PUSH1 0x4 ADD PUSH2 0xAF6 SWAP1 PUSH2 0xF6E JUMP JUMPDEST PUSH1 0x40 MLOAD DUP1 SWAP2 SUB SWAP1 REVERT JUMPDEST PUSH1 0x0 DUP1 SLOAD SWAP1 PUSH2 0x100 EXP SWAP1 DIV PUSH20 0xFFFFFFFFFFFFFFFFFFFFFFFFFFFFFFFFFFFFFFFF AND PUSH20 0xFFFFFFFFFFFFFFFFFFFFFFFFFFFFFFFFFFFFFFFF AND CALLER PUSH20 0xFFFFFFFFFFFFFFFFFFFFFFFFFFFFFFFFFFFFFFFF AND EQ SWAP1 POP SWAP1 JUMP JUMPDEST PUSH1 0x0 DUP1 SLOAD SWAP1 PUSH2 0x100 EXP SWAP1 DIV PUSH20 0xFFFFFFFFFFFFFFFFFFFFFFFFFFFFFFFFFFFFFFFF AND DUP2 JUMP JUMPDEST DUP1 PUSH1 0xB PUSH1 0x0 DUP5 PUSH20 0xFFFFFFFFFFFFFFFFFFFFFFFFFFFFFFFFFFFFFFFF AND PUSH20 0xFFFFFFFFFFFFFFFFFFFFFFFFFFFFFFFFFFFFFFFF AND DUP2 MSTORE PUSH1 0x20 ADD SWAP1 DUP2 MSTORE PUSH1 0x20 ADD PUSH1 0x0 KECCAK256 PUSH1 0x0 PUSH2 0x100 EXP DUP2 SLOAD DUP2 PUSH20 0xFFFFFFFFFFFFFFFFFFFFFFFFFFFFFFFFFFFFFFFF MUL NOT AND SWAP1 DUP4 PUSH20 0xFFFFFFFFFFFFFFFFFFFFFFFFFFFFFFFFFFFFFFFF AND MUL OR SWAP1 SSTORE POP POP POP JUMP JUMPDEST PUSH1 0x0 DUP1 REVERT JUMPDEST PUSH1 0x0 PUSH20 0xFFFFFFFFFFFFFFFFFFFFFFFFFFFFFFFFFFFFFFFF DUP3 AND SWAP1 POP SWAP2 SWAP1 POP JUMP JUMPDEST PUSH1 0x0 PUSH2 0xC29 DUP3 PUSH2 0xBFE JUMP JUMPDEST SWAP1 POP SWAP2 SWAP1 POP JUMP JUMPDEST PUSH2 0xC39 DUP2 PUSH2 0xC1E JUMP JUMPDEST DUP2 EQ PUSH2 0xC44 JUMPI PUSH1 0x0 DUP1 REVERT JUMPDEST POP JUMP JUMPDEST PUSH1 0x0 DUP2 CALLDATALOAD SWAP1 POP PUSH2 0xC56 DUP2 PUSH2 0xC30 JUMP JUMPDEST SWAP3 SWAP2 POP POP JUMP JUMPDEST PUSH1 0x0 PUSH1 0x20 DUP3 DUP5 SUB SLT ISZERO PUSH2 0xC72 JUMPI PUSH2 0xC71 PUSH2 0xBF9 JUMP JUMPDEST JUMPDEST PUSH1 0x0 PUSH2 0xC80 DUP5 DUP3 DUP6 ADD PUSH2 0xC47 JUMP JUMPDEST SWAP2 POP POP SWAP3 SWAP2 POP POP JUMP JUMPDEST PUSH2 0xC92 DUP2 PUSH2 0xC1E JUMP JUMPDEST DUP3 MSTORE POP POP JUMP JUMPDEST PUSH1 0x0 DUP2 MLOAD SWAP1 POP SWAP2 SWAP1 POP JUMP JUMPDEST PUSH1 0x0 DUP3 DUP3 MSTORE PUSH1 0x20 DUP3 ADD SWAP1 POP SWAP3 SWAP2 POP POP JUMP JUMPDEST PUSH1 0x0 JUMPDEST DUP4 DUP2 LT ISZERO PUSH2 0xCD2 JUMPI DUP1 DUP3 ADD MLOAD DUP2 DUP5 ADD MSTORE PUSH1 0x20 DUP2 ADD SWAP1 POP PUSH2 0xCB7 JUMP JUMPDEST DUP4 DUP2 GT ISZERO PUSH2 0xCE1 JUMPI PUSH1 0x0 DUP5 DUP5 ADD MSTORE JUMPDEST POP POP POP POP JUMP JUMPDEST PUSH1 0x0 PUSH1 0x1F NOT PUSH1 0x1F DUP4 ADD AND SWAP1 POP SWAP2 SWAP1 POP JUMP JUMPDEST PUSH1 0x0 PUSH2 0xD03 DUP3 PUSH2 0xC98 JUMP JUMPDEST PUSH2 0xD0D DUP2 DUP6 PUSH2 0xCA3 JUMP JUMPDEST SWAP4 POP PUSH2 0xD1D DUP2 DUP6 PUSH1 0x20 DUP7 ADD PUSH2 0xCB4 JUMP JUMPDEST PUSH2 0xD26 DUP2 PUSH2 0xCE7 JUMP JUMPDEST DUP5 ADD SWAP2 POP POP SWAP3 SWAP2 POP POP JUMP JUMPDEST PUSH1 0x0 PUSH1 0x40 DUP3 ADD SWAP1 POP PUSH2 0xD46 PUSH1 0x0 DUP4 ADD DUP6 PUSH2 0xC89 JUMP JUMPDEST DUP2 DUP2 SUB PUSH1 0x20 DUP4 ADD MSTORE PUSH2 0xD58 DUP2 DUP5 PUSH2 0xCF8 JUMP JUMPDEST SWAP1 POP SWAP4 SWAP3 POP POP POP JUMP JUMPDEST PUSH1 0x0 PUSH1 0x20 DUP3 ADD SWAP1 POP PUSH2 0xD76 PUSH1 0x0 DUP4 ADD DUP5 PUSH2 0xC89 JUMP JUMPDEST SWAP3 SWAP2 POP POP JUMP JUMPDEST PUSH1 0x0 DUP2 SWAP1 POP SWAP2 SWAP1 POP JUMP JUMPDEST PUSH2 0xD8F DUP2 PUSH2 0xD7C JUMP JUMPDEST DUP2 EQ PUSH2 0xD9A JUMPI PUSH1 0x0 DUP1 REVERT JUMPDEST POP JUMP JUMPDEST PUSH1 0x0 DUP2 CALLDATALOAD SWAP1 POP PUSH2 0xDAC DUP2 PUSH2 0xD86 JUMP JUMPDEST SWAP3 SWAP2 POP POP JUMP JUMPDEST PUSH1 0x0 PUSH1 0x20 DUP3 DUP5 SUB SLT ISZERO PUSH2 0xDC8 JUMPI PUSH2 0xDC7 PUSH2 0xBF9 JUMP JUMPDEST JUMPDEST PUSH1 0x0 PUSH2 0xDD6 DUP5 DUP3 DUP6 ADD PUSH2 0xD9D JUMP JUMPDEST SWAP2 POP POP SWAP3 SWAP2 POP POP JUMP JUMPDEST PUSH1 0x0 DUP1 PUSH1 0x40 DUP4 DUP6 SUB SLT ISZERO PUSH2 0xDF6 JUMPI PUSH2 0xDF5 PUSH2 0xBF9 JUMP JUMPDEST JUMPDEST PUSH1 0x0 PUSH2 0xE04 DUP6 DUP3 DUP7 ADD PUSH2 0xC47 JUMP JUMPDEST SWAP3 POP POP PUSH1 0x20 PUSH2 0xE15 DUP6 DUP3 DUP7 ADD PUSH2 0xC47 JUMP JUMPDEST SWAP2 POP POP SWAP3 POP SWAP3 SWAP1 POP JUMP JUMPDEST PUSH1 0x0 DUP2 ISZERO ISZERO SWAP1 POP SWAP2 SWAP1 POP JUMP JUMPDEST PUSH2 0xE34 DUP2 PUSH2 0xE1F JUMP JUMPDEST DUP3 MSTORE POP POP JUMP JUMPDEST PUSH1 0x0 PUSH1 0x20 DUP3 ADD SWAP1 POP PUSH2 0xE4F PUSH1 0x0 DUP4 ADD DUP5 PUSH2 0xE2B JUMP JUMPDEST SWAP3 SWAP2 POP POP JUMP JUMPDEST PUSH32 0x4E6F74204E6F6465330000000000000000000000000000000000000000000000 PUSH1 0x0 DUP3 ADD MSTORE POP JUMP JUMPDEST PUSH1 0x0 PUSH2 0xE8B PUSH1 0x9 DUP4 PUSH2 0xCA3 JUMP JUMPDEST SWAP2 POP PUSH2 0xE96 DUP3 PUSH2 0xE55 JUMP JUMPDEST PUSH1 0x20 DUP3 ADD SWAP1 POP SWAP2 SWAP1 POP JUMP JUMPDEST PUSH1 0x0 PUSH1 0x20 DUP3 ADD SWAP1 POP DUP2 DUP2 SUB PUSH1 0x0 DUP4 ADD MSTORE PUSH2 0xEBA DUP2 PUSH2 0xE7E JUMP JUMPDEST SWAP1 POP SWAP2 SWAP1 POP JUMP JUMPDEST PUSH32 0x4E487B7100000000000000000000000000000000000000000000000000000000 PUSH1 0x0 MSTORE PUSH1 0x22 PUSH1 0x4 MSTORE PUSH1 0x24 PUSH1 0x0 REVERT JUMPDEST PUSH1 0x0 PUSH1 0x2 DUP3 DIV SWAP1 POP PUSH1 0x1 DUP3 AND DUP1 PUSH2 0xF08 JUMPI PUSH1 0x7F DUP3 AND SWAP2 POP JUMPDEST PUSH1 0x20 DUP3 LT DUP2 EQ ISZERO PUSH2 0xF1C JUMPI PUSH2 0xF1B PUSH2 0xEC1 JUMP JUMPDEST JUMPDEST POP SWAP2 SWAP1 POP JUMP JUMPDEST PUSH32 0x4E6F74204D4F4500000000000000000000000000000000000000000000000000 PUSH1 0x0 DUP3 ADD MSTORE POP JUMP JUMPDEST PUSH1 0x0 PUSH2 0xF58 PUSH1 0x7 DUP4 PUSH2 0xCA3 JUMP JUMPDEST SWAP2 POP PUSH2 0xF63 DUP3 PUSH2 0xF22 JUMP JUMPDEST PUSH1 0x20 DUP3 ADD SWAP1 POP SWAP2 SWAP1 POP JUMP JUMPDEST PUSH1 0x0 PUSH1 0x20 DUP3 ADD SWAP1 POP DUP2 DUP2 SUB PUSH1 0x0 DUP4 ADD MSTORE PUSH2 0xF87 DUP2 PUSH2 0xF4B JUMP JUMPDEST SWAP1 POP SWAP2 SWAP1 POP JUMP JUMPDEST PUSH32 0x496E76616C696420494400000000000000000000000000000000000000000000 PUSH1 0x0 DUP3 ADD MSTORE POP JUMP JUMPDEST PUSH1 0x0 PUSH2 0xFC4 PUSH1 0xA DUP4 PUSH2 0xCA3 JUMP JUMPDEST SWAP2 POP PUSH2 0xFCF DUP3 PUSH2 0xF8E JUMP JUMPDEST PUSH1 0x20 DUP3 ADD SWAP1 POP SWAP2 SWAP1 POP JUMP JUMPDEST PUSH1 0x0 PUSH1 0x20 DUP3 ADD SWAP1 POP DUP2 DUP2 SUB PUSH1 0x0 DUP4 ADD MSTORE PUSH2 0xFF3 DUP2 PUSH2 0xFB7 JUMP JUMPDEST SWAP1 POP SWAP2 SWAP1 POP JUMP JUMPDEST PUSH32 0x4E6F74204E6F6465203200000000000000000000000000000000000000000000 PUSH1 0x0 DUP3 ADD MSTORE POP JUMP JUMPDEST PUSH1 0x0 PUSH2 0x1030 PUSH1 0xA DUP4 PUSH2 0xCA3 JUMP JUMPDEST SWAP2 POP PUSH2 0x103B DUP3 PUSH2 0xFFA JUMP JUMPDEST PUSH1 0x20 DUP3 ADD SWAP1 POP SWAP2 SWAP1 POP JUMP JUMPDEST PUSH1 0x0 PUSH1 0x20 DUP3 ADD SWAP1 POP DUP2 DUP2 SUB PUSH1 0x0 DUP4 ADD MSTORE PUSH2 0x105F DUP2 PUSH2 0x1023 JUMP JUMPDEST SWAP1 POP SWAP2 SWAP1 POP JUMP INVALID LOG2 PUSH5 0x6970667358 0x22 SLT KECCAK256 0xDD LOG1 0xD5 0xC3 SGT DUP4 PUSH18 0x983EEE8C6CD6B498CC62446550DCAA6ACDA6 PUSH14 0x447DB2F6A2F664736F6C63430008 EXP STOP CALLER "
    },
    "gasEstimates": {
      "creation": {
        "codeDepositCost": "850400",
        "executionCost": "infinite",
        "totalCost": "infinite"
      },
      "external": {
        "MOE()": "2577",
        "getInstContractAddress(address)": "infinite",
        "getStudContractAddress(address)": "infinite",
        "instAddressToInstContract(address)": "infinite",
        "ismoe()": "4707",
        "moecontractaddresses(uint256)": "infinite",
        "registerInstitute(address,address)": "infinite",
        "registerStudent(address,address)": "infinite",
        "studAddressToStudContract(address)": "infinite"
      }
    },
    "methodIdentifiers": {
      "MOE()": "673a1746",
      "getInstContractAddress(address)": "5fc415f3",
      "getStudContractAddress(address)": "020e3f8a",
      "instAddressToInstContract(address)": "32687db0",
      "ismoe()": "6484fedb",
      "moecontractaddresses(uint256)": "3b0b1b9b",
      "registerInstitute(address,address)": "46fcc694",
      "registerStudent(address,address)": "c4d0d9ea",
      "studAddressToStudContract(address)": "032b3f7a"
    }
  },
  "storageLayout": {
    "storage": [
      {
        "astId": 437,
        "contract": "publicdata.sol:publicdata",
        "label": "MOE",
        "offset": 0,
        "slot": "0",
        "type": "t_address"
      },
      {
        "astId": 439,
        "contract": "publicdata.sol:publicdata",
        "label": "regStudContractAddress",
        "offset": 0,
        "slot": "1",
        "type": "t_address"
      },
      {
        "astId": 441,
        "contract": "publicdata.sol:publicdata",
        "label": "regInstContractAddress",
        "offset": 0,
        "slot": "2",
        "type": "t_address"
      },
      {
        "astId": 443,
        "contract": "publicdata.sol:publicdata",
        "label": "verStudContractAddress",
        "offset": 0,
        "slot": "3",
        "type": "t_address"
      },
      {
        "astId": 445,
        "contract": "publicdata.sol:publicdata",
        "label": "verInstContractAddress",
        "offset": 0,
        "slot": "4",
        "type": "t_address"
      },
      {
        "astId": 447,
        "contract": "publicdata.sol:publicdata",
        "label": "node1_public",
        "offset": 0,
        "slot": "5",
        "type": "t_address"
      },
      {
        "astId": 449,
        "contract": "publicdata.sol:publicdata",
        "label": "node2_public",
        "offset": 0,
        "slot": "6",
        "type": "t_address"
      },
      {
        "astId": 451,
        "contract": "publicdata.sol:publicdata",
        "label": "node3_public",
        "offset": 0,
        "slot": "7",
        "type": "t_address"
      },
      {
        "astId": 453,
        "contract": "publicdata.sol:publicdata",
        "label": "node1",
        "offset": 0,
        "slot": "8",
        "type": "t_string_storage"
      },
      {
        "astId": 455,
        "contract": "publicdata.sol:publicdata",
        "label": "node2",
        "offset": 0,
        "slot": "9",
        "type": "t_string_storage"
      },
      {
        "astId": 457,
        "contract": "publicdata.sol:publicdata",
        "label": "node3",
        "offset": 0,
        "slot": "10",
        "type": "t_string_storage"
      },
      {
        "astId": 530,
        "contract": "publicdata.sol:publicdata",
        "label": "studAddressToStudContract",
        "offset": 0,
        "slot": "11",
        "type": "t_mapping(t_address,t_address)"
      },
      {
        "astId": 534,
        "contract": "publicdata.sol:publicdata",
        "label": "instAddressToInstContract",
        "offset": 0,
        "slot": "12",
        "type": "t_mapping(t_address,t_address)"
      }
    ],
    "types": {
      "t_address": {
        "encoding": "inplace",
        "label": "address",
        "numberOfBytes": "20"
      },
      "t_mapping(t_address,t_address)": {
        "encoding": "mapping",
        "key": "t_address",
        "label": "mapping(address => address)",
        "numberOfBytes": "32",
        "value": "t_address"
      },
      "t_string_storage": {
        "encoding": "bytes",
        "label": "string",
        "numberOfBytes": "32"
      }
    }
  },
  "userdoc": {
    "kind": "user",
    "methods": {},
    "version": 1
  }
}