{
  "abi": [
    {
      "inputs": [],
      "stateMutability": "nonpayable",
      "type": "constructor"
    },
    {
      "inputs": [],
      "name": "MOE",
      "outputs": [
        {
          "internalType": "address",
          "name": "",
          "type": "address"
        }
      ],
      "stateMutability": "view",
      "type": "function"
    },
    {
      "inputs": [
        {
          "internalType": "uint256",
          "name": "index",
          "type": "uint256"
        },
        {
          "internalType": "bytes32",
          "name": "key",
          "type": "bytes32"
        },
        {
          "internalType": "address",
          "name": "_instAddress",
          "type": "address"
        }
      ],
      "name": "addInstTostudInfo",
      "outputs": [
        {
          "internalType": "bool",
          "name": "",
          "type": "bool"
        }
      ],
      "stateMutability": "nonpayable",
      "type": "function"
    },
    {
      "inputs": [
        {
          "internalType": "address",
          "name": "_address",
          "type": "address"
        },
        {
          "internalType": "string",
          "name": "_id",
          "type": "string"
        }
      ],
      "name": "generateKey",
      "outputs": [
        {
          "internalType": "bytes32",
          "name": "",
          "type": "bytes32"
        }
      ],
      "stateMutability": "pure",
      "type": "function"
    },
    {
      "inputs": [
        {
          "internalType": "uint256",
          "name": "index",
          "type": "uint256"
        }
      ],
      "name": "getRegisteredStudentByIndex",
      "outputs": [
        {
          "internalType": "string",
          "name": "",
          "type": "string"
        },
        {
          "internalType": "address",
          "name": "",
          "type": "address"
        },
        {
          "internalType": "string",
          "name": "",
          "type": "string"
        },
        {
          "internalType": "string",
          "name": "",
          "type": "string"
        },
        {
          "internalType": "address",
          "name": "",
          "type": "address"
        }
      ],
      "stateMutability": "view",
      "type": "function"
    },
    {
      "inputs": [
        {
          "internalType": "bytes32",
          "name": "key",
          "type": "bytes32"
        }
      ],
      "name": "getRegisteredStudentByKey",
      "outputs": [
        {
          "internalType": "string",
          "name": "",
          "type": "string"
        },
        {
          "internalType": "address",
          "name": "",
          "type": "address"
        },
        {
          "internalType": "string",
          "name": "",
          "type": "string"
        },
        {
          "internalType": "string",
          "name": "",
          "type": "string"
        },
        {
          "internalType": "address",
          "name": "",
          "type": "address"
        }
      ],
      "stateMutability": "view",
      "type": "function"
    },
    {
      "inputs": [
        {
          "internalType": "address",
          "name": "studAddress",
          "type": "address"
        }
      ],
      "name": "getRegisteredStudentsContract",
      "outputs": [
        {
          "internalType": "address",
          "name": "",
          "type": "address"
        }
      ],
      "stateMutability": "view",
      "type": "function"
    },
    {
      "inputs": [],
      "name": "getRegisteredStudentsCount",
      "outputs": [
        {
          "internalType": "uint256",
          "name": "",
          "type": "uint256"
        }
      ],
      "stateMutability": "view",
      "type": "function"
    },
    {
      "inputs": [
        {
          "internalType": "address",
          "name": "_studentAddress",
          "type": "address"
        }
      ],
      "name": "isStudent",
      "outputs": [
        {
          "internalType": "bool",
          "name": "",
          "type": "bool"
        }
      ],
      "stateMutability": "view",
      "type": "function"
    },
    {
      "inputs": [
        {
          "internalType": "string",
          "name": "_name",
          "type": "string"
        },
        {
          "internalType": "address",
          "name": "_student_address",
          "type": "address"
        },
        {
          "internalType": "string",
          "name": "_email",
          "type": "string"
        },
        {
          "internalType": "string",
          "name": "_id",
          "type": "string"
        },
        {
          "internalType": "address",
          "name": "newstudent",
          "type": "address"
        }
      ],
      "name": "registerStudents",
      "outputs": [],
      "stateMutability": "nonpayable",
      "type": "function"
    },
    {
      "inputs": [
        {
          "internalType": "address",
          "name": "",
          "type": "address"
        }
      ],
      "name": "registeredStudentsContract",
      "outputs": [
        {
          "internalType": "address",
          "name": "",
          "type": "address"
        }
      ],
      "stateMutability": "view",
      "type": "function"
    },
    {
      "inputs": [
        {
          "internalType": "bytes32",
          "name": "",
          "type": "bytes32"
        }
      ],
      "name": "registeredStudentsMap",
      "outputs": [
        {
          "internalType": "string",
          "name": "name",
          "type": "string"
        },
        {
          "internalType": "address",
          "name": "student_address",
          "type": "address"
        },
        {
          "internalType": "string",
          "name": "email",
          "type": "string"
        },
        {
          "internalType": "string",
          "name": "id",
          "type": "string"
        },
        {
          "internalType": "address",
          "name": "instAddress",
          "type": "address"
        }
      ],
      "stateMutability": "view",
      "type": "function"
    },
    {
      "inputs": [
        {
          "internalType": "uint256",
          "name": "",
          "type": "uint256"
        }
      ],
      "name": "registeredStudentsarray",
      "outputs": [
        {
          "internalType": "string",
          "name": "name",
          "type": "string"
        },
        {
          "internalType": "address",
          "name": "student_address",
          "type": "address"
        },
        {
          "internalType": "string",
          "name": "email",
          "type": "string"
        },
        {
          "internalType": "string",
          "name": "id",
          "type": "string"
        },
        {
          "internalType": "address",
          "name": "instAddress",
          "type": "address"
        }
      ],
      "stateMutability": "view",
      "type": "function"
    },
    {
      "inputs": [
        {
          "internalType": "uint256",
          "name": "index",
          "type": "uint256"
        },
        {
          "internalType": "bytes32",
          "name": "key",
          "type": "bytes32"
        }
      ],
      "name": "removeInstFromstudInfo",
      "outputs": [
        {
          "internalType": "bool",
          "name": "",
          "type": "bool"
        }
      ],
      "stateMutability": "nonpayable",
      "type": "function"
    }
  ],
  "devdoc": {
    "kind": "dev",
    "methods": {},
    "version": 1
  },
  "evm": {
    "assembly": "    /* \"registerStud.sol\":98:3592  contract registerStud {... */\n  mstore(0x40, 0x80)\n    /* \"registerStud.sol\":152:201  constructor() {... */\n  callvalue\n  dup1\n  iszero\n  tag_1\n  jumpi\n  0x00\n  dup1\n  revert\ntag_1:\n  pop\n    /* \"registerStud.sol\":183:193  msg.sender */\n  caller\n    /* \"registerStud.sol\":177:180  MOE */\n  0x00\n  dup1\n    /* \"registerStud.sol\":177:193  MOE = msg.sender */\n  0x0100\n  exp\n  dup2\n  sload\n  dup2\n  0xffffffffffffffffffffffffffffffffffffffff\n  mul\n  not\n  and\n  swap1\n  dup4\n  0xffffffffffffffffffffffffffffffffffffffff\n  and\n  mul\n  or\n  swap1\n  sstore\n  pop\n    /* \"registerStud.sol\":98:3592  contract registerStud {... */\n  dataSize(sub_0)\n  dup1\n  dataOffset(sub_0)\n  0x00\n  codecopy\n  0x00\n  return\nstop\n\nsub_0: assembly {\n        /* \"registerStud.sol\":98:3592  contract registerStud {... */\n      mstore(0x40, 0x80)\n      callvalue\n      dup1\n      iszero\n      tag_1\n      jumpi\n      0x00\n      dup1\n      revert\n    tag_1:\n      pop\n      jumpi(tag_2, lt(calldatasize, 0x04))\n      shr(0xe0, calldataload(0x00))\n      dup1\n      0x82f7d392\n      gt\n      tag_16\n      jumpi\n      dup1\n      0xa7c32a12\n      gt\n      tag_17\n      jumpi\n      dup1\n      0xa7c32a12\n      eq\n      tag_12\n      jumpi\n      dup1\n      0xbf566527\n      eq\n      tag_13\n      jumpi\n      dup1\n      0xc1819436\n      eq\n      tag_14\n      jumpi\n      dup1\n      0xed8de80f\n      eq\n      tag_15\n      jumpi\n      jump(tag_2)\n    tag_17:\n      dup1\n      0x82f7d392\n      eq\n      tag_9\n      jumpi\n      dup1\n      0x8a97503d\n      eq\n      tag_10\n      jumpi\n      dup1\n      0x956a3545\n      eq\n      tag_11\n      jumpi\n      jump(tag_2)\n    tag_16:\n      dup1\n      0x30c6189f\n      eq\n      tag_3\n      jumpi\n      dup1\n      0x3f2f1784\n      eq\n      tag_4\n      jumpi\n      dup1\n      0x4268ddbd\n      eq\n      tag_5\n      jumpi\n      dup1\n      0x435df20d\n      eq\n      tag_6\n      jumpi\n      dup1\n      0x460598f4\n      eq\n      tag_7\n      jumpi\n      dup1\n      0x673a1746\n      eq\n      tag_8\n      jumpi\n    tag_2:\n      0x00\n      dup1\n      revert\n        /* \"registerStud.sol\":2150:2274  function getRegisteredStudentsCount() public view returns (uint256) {... */\n    tag_3:\n      tag_18\n      tag_19\n      jump\t// in\n    tag_18:\n      mload(0x40)\n      tag_20\n      swap2\n      swap1\n      tag_21\n      jump\t// in\n    tag_20:\n      mload(0x40)\n      dup1\n      swap2\n      sub\n      swap1\n      return\n        /* \"registerStud.sol\":3432:3585  function getRegisteredStudentsContract(address studAddress) public view returns(address){... */\n    tag_4:\n      tag_22\n      0x04\n      dup1\n      calldatasize\n      sub\n      dup2\n      add\n      swap1\n      tag_23\n      swap2\n      swap1\n      tag_24\n      jump\t// in\n    tag_23:\n      tag_25\n      jump\t// in\n    tag_22:\n      mload(0x40)\n      tag_26\n      swap2\n      swap1\n      tag_27\n      jump\t// in\n    tag_26:\n      mload(0x40)\n      dup1\n      swap2\n      sub\n      swap1\n      return\n        /* \"registerStud.sol\":1637:1897  function addInstTostudInfo(uint256 index, bytes32 key, address _instAddress) public returns(bool) {... */\n    tag_5:\n      tag_28\n      0x04\n      dup1\n      calldatasize\n      sub\n      dup2\n      add\n      swap1\n      tag_29\n      swap2\n      swap1\n      tag_30\n      jump\t// in\n    tag_29:\n      tag_31\n      jump\t// in\n    tag_28:\n      mload(0x40)\n      tag_32\n      swap2\n      swap1\n      tag_33\n      jump\t// in\n    tag_32:\n      mload(0x40)\n      dup1\n      swap2\n      sub\n      swap1\n      return\n        /* \"registerStud.sol\":2288:2757  function getRegisteredStudentByKey(... */\n    tag_6:\n      tag_34\n      0x04\n      dup1\n      calldatasize\n      sub\n      dup2\n      add\n      swap1\n      tag_35\n      swap2\n      swap1\n      tag_36\n      jump\t// in\n    tag_35:\n      tag_37\n      jump\t// in\n    tag_34:\n      mload(0x40)\n      tag_38\n      swap6\n      swap5\n      swap4\n      swap3\n      swap2\n      swap1\n      tag_39\n      jump\t// in\n    tag_38:\n      mload(0x40)\n      dup1\n      swap2\n      sub\n      swap1\n      return\n        /* \"registerStud.sol\":442:513  mapping(bytes32 => registerStudentsStruct) public registeredStudentsMap */\n    tag_7:\n      tag_40\n      0x04\n      dup1\n      calldatasize\n      sub\n      dup2\n      add\n      swap1\n      tag_41\n      swap2\n      swap1\n      tag_36\n      jump\t// in\n    tag_41:\n      tag_42\n      jump\t// in\n    tag_40:\n      mload(0x40)\n      tag_43\n      swap6\n      swap5\n      swap4\n      swap3\n      swap2\n      swap1\n      tag_39\n      jump\t// in\n    tag_43:\n      mload(0x40)\n      dup1\n      swap2\n      sub\n      swap1\n      return\n        /* \"registerStud.sol\":127:145  address public MOE */\n    tag_8:\n      tag_44\n      tag_45\n      jump\t// in\n    tag_44:\n      mload(0x40)\n      tag_46\n      swap2\n      swap1\n      tag_27\n      jump\t// in\n    tag_46:\n      mload(0x40)\n      dup1\n      swap2\n      sub\n      swap1\n      return\n        /* \"registerStud.sol\":3270:3426  function isStudent(address _studentAddress) public view returns (bool) {... */\n    tag_9:\n      tag_47\n      0x04\n      dup1\n      calldatasize\n      sub\n      dup2\n      add\n      swap1\n      tag_48\n      swap2\n      swap1\n      tag_24\n      jump\t// in\n    tag_48:\n      tag_49\n      jump\t// in\n    tag_47:\n      mload(0x40)\n      tag_50\n      swap2\n      swap1\n      tag_33\n      jump\t// in\n    tag_50:\n      mload(0x40)\n      dup1\n      swap2\n      sub\n      swap1\n      return\n        /* \"registerStud.sol\":659:840  function generateKey(... */\n    tag_10:\n      tag_51\n      0x04\n      dup1\n      calldatasize\n      sub\n      dup2\n      add\n      swap1\n      tag_52\n      swap2\n      swap1\n      tag_53\n      jump\t// in\n    tag_52:\n      tag_54\n      jump\t// in\n    tag_51:\n      mload(0x40)\n      tag_55\n      swap2\n      swap1\n      tag_56\n      jump\t// in\n    tag_55:\n      mload(0x40)\n      dup1\n      swap2\n      sub\n      swap1\n      return\n        /* \"registerStud.sol\":1903:2142  function removeInstFromstudInfo(uint256 index, bytes32 key) public returns(bool) {... */\n    tag_11:\n      tag_57\n      0x04\n      dup1\n      calldatasize\n      sub\n      dup2\n      add\n      swap1\n      tag_58\n      swap2\n      swap1\n      tag_59\n      jump\t// in\n    tag_58:\n      tag_60\n      jump\t// in\n    tag_57:\n      mload(0x40)\n      tag_61\n      swap2\n      swap1\n      tag_33\n      jump\t// in\n    tag_61:\n      mload(0x40)\n      dup1\n      swap2\n      sub\n      swap1\n      return\n        /* \"registerStud.sol\":2763:3264  function getRegisteredStudentByIndex(... */\n    tag_12:\n      tag_62\n      0x04\n      dup1\n      calldatasize\n      sub\n      dup2\n      add\n      swap1\n      tag_63\n      swap2\n      swap1\n      tag_64\n      jump\t// in\n    tag_63:\n      tag_65\n      jump\t// in\n    tag_62:\n      mload(0x40)\n      tag_66\n      swap6\n      swap5\n      swap4\n      swap3\n      swap2\n      swap1\n      tag_39\n      jump\t// in\n    tag_66:\n      mload(0x40)\n      dup1\n      swap2\n      sub\n      swap1\n      return\n        /* \"registerStud.sol\":591:652  mapping(address => address) public registeredStudentsContract */\n    tag_13:\n      tag_67\n      0x04\n      dup1\n      calldatasize\n      sub\n      dup2\n      add\n      swap1\n      tag_68\n      swap2\n      swap1\n      tag_24\n      jump\t// in\n    tag_68:\n      tag_69\n      jump\t// in\n    tag_67:\n      mload(0x40)\n      tag_70\n      swap2\n      swap1\n      tag_27\n      jump\t// in\n    tag_70:\n      mload(0x40)\n      dup1\n      swap2\n      sub\n      swap1\n      return\n        /* \"registerStud.sol\":846:1623  function registerStudents(... */\n    tag_14:\n      tag_71\n      0x04\n      dup1\n      calldatasize\n      sub\n      dup2\n      add\n      swap1\n      tag_72\n      swap2\n      swap1\n      tag_73\n      jump\t// in\n    tag_72:\n      tag_74\n      jump\t// in\n    tag_71:\n      stop\n        /* \"registerStud.sol\":380:435  registerStudentsStruct[] public registeredStudentsarray */\n    tag_15:\n      tag_75\n      0x04\n      dup1\n      calldatasize\n      sub\n      dup2\n      add\n      swap1\n      tag_76\n      swap2\n      swap1\n      tag_64\n      jump\t// in\n    tag_76:\n      tag_77\n      jump\t// in\n    tag_75:\n      mload(0x40)\n      tag_78\n      swap6\n      swap5\n      swap4\n      swap3\n      swap2\n      swap1\n      tag_39\n      jump\t// in\n    tag_78:\n      mload(0x40)\n      dup1\n      swap2\n      sub\n      swap1\n      return\n        /* \"registerStud.sol\":2150:2274  function getRegisteredStudentsCount() public view returns (uint256) {... */\n    tag_19:\n        /* \"registerStud.sol\":2209:2216  uint256 */\n      0x00\n        /* \"registerStud.sol\":2236:2259  registeredStudentsarray */\n      0x01\n        /* \"registerStud.sol\":2236:2266  registeredStudentsarray.length */\n      dup1\n      sload\n      swap1\n      pop\n        /* \"registerStud.sol\":2229:2266  return registeredStudentsarray.length */\n      swap1\n      pop\n        /* \"registerStud.sol\":2150:2274  function getRegisteredStudentsCount() public view returns (uint256) {... */\n      swap1\n      jump\t// out\n        /* \"registerStud.sol\":3432:3585  function getRegisteredStudentsContract(address studAddress) public view returns(address){... */\n    tag_25:\n        /* \"registerStud.sol\":3512:3519  address */\n      0x00\n        /* \"registerStud.sol\":3538:3564  registeredStudentsContract */\n      0x03\n        /* \"registerStud.sol\":3538:3577  registeredStudentsContract[studAddress] */\n      0x00\n        /* \"registerStud.sol\":3565:3576  studAddress */\n      dup4\n        /* \"registerStud.sol\":3538:3577  registeredStudentsContract[studAddress] */\n      0xffffffffffffffffffffffffffffffffffffffff\n      and\n      0xffffffffffffffffffffffffffffffffffffffff\n      and\n      dup2\n      mstore\n      0x20\n      add\n      swap1\n      dup2\n      mstore\n      0x20\n      add\n      0x00\n      keccak256\n      0x00\n      swap1\n      sload\n      swap1\n      0x0100\n      exp\n      swap1\n      div\n      0xffffffffffffffffffffffffffffffffffffffff\n      and\n        /* \"registerStud.sol\":3531:3577  return registeredStudentsContract[studAddress] */\n      swap1\n      pop\n        /* \"registerStud.sol\":3432:3585  function getRegisteredStudentsContract(address studAddress) public view returns(address){... */\n      swap2\n      swap1\n      pop\n      jump\t// out\n        /* \"registerStud.sol\":1637:1897  function addInstTostudInfo(uint256 index, bytes32 key, address _instAddress) public returns(bool) {... */\n    tag_31:\n        /* \"registerStud.sol\":1729:1733  bool */\n      0x00\n        /* \"registerStud.sol\":1791:1803  _instAddress */\n      dup2\n        /* \"registerStud.sol\":1746:1769  registeredStudentsarray */\n      0x01\n        /* \"registerStud.sol\":1770:1775  index */\n      dup6\n        /* \"registerStud.sol\":1746:1776  registeredStudentsarray[index] */\n      dup2\n      sload\n      dup2\n      lt\n      tag_82\n      jumpi\n      tag_83\n      tag_84\n      jump\t// in\n    tag_83:\n    tag_82:\n      swap1\n      0x00\n      mstore\n      keccak256(0x00, 0x20)\n      swap1\n      0x05\n      mul\n      add\n        /* \"registerStud.sol\":1746:1788  registeredStudentsarray[index].instAddress */\n      0x04\n      add\n      0x00\n        /* \"registerStud.sol\":1746:1803  registeredStudentsarray[index].instAddress = _instAddress */\n      0x0100\n      exp\n      dup2\n      sload\n      dup2\n      0xffffffffffffffffffffffffffffffffffffffff\n      mul\n      not\n      and\n      swap1\n      dup4\n      0xffffffffffffffffffffffffffffffffffffffff\n      and\n      mul\n      or\n      swap1\n      sstore\n      pop\n        /* \"registerStud.sol\":1855:1867  _instAddress */\n      dup2\n        /* \"registerStud.sol\":1814:1835  registeredStudentsMap */\n      0x02\n        /* \"registerStud.sol\":1814:1840  registeredStudentsMap[key] */\n      0x00\n        /* \"registerStud.sol\":1836:1839  key */\n      dup6\n        /* \"registerStud.sol\":1814:1840  registeredStudentsMap[key] */\n      dup2\n      mstore\n      0x20\n      add\n      swap1\n      dup2\n      mstore\n      0x20\n      add\n      0x00\n      keccak256\n        /* \"registerStud.sol\":1814:1852  registeredStudentsMap[key].instAddress */\n      0x04\n      add\n      0x00\n        /* \"registerStud.sol\":1814:1867  registeredStudentsMap[key].instAddress = _instAddress */\n      0x0100\n      exp\n      dup2\n      sload\n      dup2\n      0xffffffffffffffffffffffffffffffffffffffff\n      mul\n      not\n      and\n      swap1\n      dup4\n      0xffffffffffffffffffffffffffffffffffffffff\n      and\n      mul\n      or\n      swap1\n      sstore\n      pop\n        /* \"registerStud.sol\":1885:1889  true */\n      0x01\n        /* \"registerStud.sol\":1878:1889  return true */\n      swap1\n      pop\n        /* \"registerStud.sol\":1637:1897  function addInstTostudInfo(uint256 index, bytes32 key, address _instAddress) public returns(bool) {... */\n      swap4\n      swap3\n      pop\n      pop\n      pop\n      jump\t// out\n        /* \"registerStud.sol\":2288:2757  function getRegisteredStudentByKey(... */\n    tag_37:\n        /* \"registerStud.sol\":2400:2413  string memory */\n      0x60\n        /* \"registerStud.sol\":2415:2422  address */\n      0x00\n        /* \"registerStud.sol\":2424:2437  string memory */\n      0x60\n        /* \"registerStud.sol\":2439:2452  string memory */\n      dup1\n        /* \"registerStud.sol\":2453:2460  address */\n      0x00\n        /* \"registerStud.sol\":2478:2519  registerStudentsStruct memory studentinfo */\n      dup1\n        /* \"registerStud.sol\":2522:2543  registeredStudentsMap */\n      0x02\n        /* \"registerStud.sol\":2522:2548  registeredStudentsMap[key] */\n      0x00\n        /* \"registerStud.sol\":2544:2547  key */\n      dup9\n        /* \"registerStud.sol\":2522:2548  registeredStudentsMap[key] */\n      dup2\n      mstore\n      0x20\n      add\n      swap1\n      dup2\n      mstore\n      0x20\n      add\n      0x00\n      keccak256\n        /* \"registerStud.sol\":2478:2548  registerStudentsStruct memory studentinfo = registeredStudentsMap[key] */\n      mload(0x40)\n      dup1\n      0xa0\n      add\n      0x40\n      mstore\n      swap1\n      dup2\n      0x00\n      dup3\n      add\n      dup1\n      sload\n      tag_87\n      swap1\n      tag_88\n      jump\t// in\n    tag_87:\n      dup1\n      0x1f\n      add\n      0x20\n      dup1\n      swap2\n      div\n      mul\n      0x20\n      add\n      mload(0x40)\n      swap1\n      dup2\n      add\n      0x40\n      mstore\n      dup1\n      swap3\n      swap2\n      swap1\n      dup2\n      dup2\n      mstore\n      0x20\n      add\n      dup3\n      dup1\n      sload\n      tag_89\n      swap1\n      tag_88\n      jump\t// in\n    tag_89:\n      dup1\n      iszero\n      tag_90\n      jumpi\n      dup1\n      0x1f\n      lt\n      tag_91\n      jumpi\n      0x0100\n      dup1\n      dup4\n      sload\n      div\n      mul\n      dup4\n      mstore\n      swap2\n      0x20\n      add\n      swap2\n      jump(tag_90)\n    tag_91:\n      dup3\n      add\n      swap2\n      swap1\n      0x00\n      mstore\n      keccak256(0x00, 0x20)\n      swap1\n    tag_92:\n      dup2\n      sload\n      dup2\n      mstore\n      swap1\n      0x01\n      add\n      swap1\n      0x20\n      add\n      dup1\n      dup4\n      gt\n      tag_92\n      jumpi\n      dup3\n      swap1\n      sub\n      0x1f\n      and\n      dup3\n      add\n      swap2\n    tag_90:\n      pop\n      pop\n      pop\n      pop\n      pop\n      dup2\n      mstore\n      0x20\n      add\n      0x01\n      dup3\n      add\n      0x00\n      swap1\n      sload\n      swap1\n      0x0100\n      exp\n      swap1\n      div\n      0xffffffffffffffffffffffffffffffffffffffff\n      and\n      0xffffffffffffffffffffffffffffffffffffffff\n      and\n      0xffffffffffffffffffffffffffffffffffffffff\n      and\n      dup2\n      mstore\n      0x20\n      add\n      0x02\n      dup3\n      add\n      dup1\n      sload\n      tag_93\n      swap1\n      tag_88\n      jump\t// in\n    tag_93:\n      dup1\n      0x1f\n      add\n      0x20\n      dup1\n      swap2\n      div\n      mul\n      0x20\n      add\n      mload(0x40)\n      swap1\n      dup2\n      add\n      0x40\n      mstore\n      dup1\n      swap3\n      swap2\n      swap1\n      dup2\n      dup2\n      mstore\n      0x20\n      add\n      dup3\n      dup1\n      sload\n      tag_94\n      swap1\n      tag_88\n      jump\t// in\n    tag_94:\n      dup1\n      iszero\n      tag_95\n      jumpi\n      dup1\n      0x1f\n      lt\n      tag_96\n      jumpi\n      0x0100\n      dup1\n      dup4\n      sload\n      div\n      mul\n      dup4\n      mstore\n      swap2\n      0x20\n      add\n      swap2\n      jump(tag_95)\n    tag_96:\n      dup3\n      add\n      swap2\n      swap1\n      0x00\n      mstore\n      keccak256(0x00, 0x20)\n      swap1\n    tag_97:\n      dup2\n      sload\n      dup2\n      mstore\n      swap1\n      0x01\n      add\n      swap1\n      0x20\n      add\n      dup1\n      dup4\n      gt\n      tag_97\n      jumpi\n      dup3\n      swap1\n      sub\n      0x1f\n      and\n      dup3\n      add\n      swap2\n    tag_95:\n      pop\n      pop\n      pop\n      pop\n      pop\n      dup2\n      mstore\n      0x20\n      add\n      0x03\n      dup3\n      add\n      dup1\n      sload\n      tag_98\n      swap1\n      tag_88\n      jump\t// in\n    tag_98:\n      dup1\n      0x1f\n      add\n      0x20\n      dup1\n      swap2\n      div\n      mul\n      0x20\n      add\n      mload(0x40)\n      swap1\n      dup2\n      add\n      0x40\n      mstore\n      dup1\n      swap3\n      swap2\n      swap1\n      dup2\n      dup2\n      mstore\n      0x20\n      add\n      dup3\n      dup1\n      sload\n      tag_99\n      swap1\n      tag_88\n      jump\t// in\n    tag_99:\n      dup1\n      iszero\n      tag_100\n      jumpi\n      dup1\n      0x1f\n      lt\n      tag_101\n      jumpi\n      0x0100\n      dup1\n      dup4\n      sload\n      div\n      mul\n      dup4\n      mstore\n      swap2\n      0x20\n      add\n      swap2\n      jump(tag_100)\n    tag_101:\n      dup3\n      add\n      swap2\n      swap1\n      0x00\n      mstore\n      keccak256(0x00, 0x20)\n      swap1\n    tag_102:\n      dup2\n      sload\n      dup2\n      mstore\n      swap1\n      0x01\n      add\n      swap1\n      0x20\n      add\n      dup1\n      dup4\n      gt\n      tag_102\n      jumpi\n      dup3\n      swap1\n      sub\n      0x1f\n      and\n      dup3\n      add\n      swap2\n    tag_100:\n      pop\n      pop\n      pop\n      pop\n      pop\n      dup2\n      mstore\n      0x20\n      add\n      0x04\n      dup3\n      add\n      0x00\n      swap1\n      sload\n      swap1\n      0x0100\n      exp\n      swap1\n      div\n      0xffffffffffffffffffffffffffffffffffffffff\n      and\n      0xffffffffffffffffffffffffffffffffffffffff\n      and\n      0xffffffffffffffffffffffffffffffffffffffff\n      and\n      dup2\n      mstore\n      pop\n      pop\n      swap1\n      pop\n        /* \"registerStud.sol\":2581:2592  studentinfo */\n      dup1\n        /* \"registerStud.sol\":2581:2597  studentinfo.name */\n      0x00\n      add\n      mload\n        /* \"registerStud.sol\":2612:2623  studentinfo */\n      dup2\n        /* \"registerStud.sol\":2612:2639  studentinfo.student_address */\n      0x20\n      add\n      mload\n        /* \"registerStud.sol\":2654:2665  studentinfo */\n      dup3\n        /* \"registerStud.sol\":2654:2671  studentinfo.email */\n      0x40\n      add\n      mload\n        /* \"registerStud.sol\":2686:2697  studentinfo */\n      dup4\n        /* \"registerStud.sol\":2686:2700  studentinfo.id */\n      0x60\n      add\n      mload\n        /* \"registerStud.sol\":2715:2726  studentinfo */\n      dup5\n        /* \"registerStud.sol\":2715:2738  studentinfo.instAddress */\n      0x80\n      add\n      mload\n        /* \"registerStud.sol\":2559:2749  return (... */\n      swap6\n      pop\n      swap6\n      pop\n      swap6\n      pop\n      swap6\n      pop\n      swap6\n      pop\n      pop\n        /* \"registerStud.sol\":2288:2757  function getRegisteredStudentByKey(... */\n      swap2\n      swap4\n      swap6\n      swap1\n      swap3\n      swap5\n      pop\n      jump\t// out\n        /* \"registerStud.sol\":442:513  mapping(bytes32 => registerStudentsStruct) public registeredStudentsMap */\n    tag_42:\n      mstore(0x20, 0x02)\n      dup1\n      0x00\n      mstore\n      keccak256(0x00, 0x40)\n      0x00\n      swap2\n      pop\n      swap1\n      pop\n      dup1\n      0x00\n      add\n      dup1\n      sload\n      tag_103\n      swap1\n      tag_88\n      jump\t// in\n    tag_103:\n      dup1\n      0x1f\n      add\n      0x20\n      dup1\n      swap2\n      div\n      mul\n      0x20\n      add\n      mload(0x40)\n      swap1\n      dup2\n      add\n      0x40\n      mstore\n      dup1\n      swap3\n      swap2\n      swap1\n      dup2\n      dup2\n      mstore\n      0x20\n      add\n      dup3\n      dup1\n      sload\n      tag_104\n      swap1\n      tag_88\n      jump\t// in\n    tag_104:\n      dup1\n      iszero\n      tag_105\n      jumpi\n      dup1\n      0x1f\n      lt\n      tag_106\n      jumpi\n      0x0100\n      dup1\n      dup4\n      sload\n      div\n      mul\n      dup4\n      mstore\n      swap2\n      0x20\n      add\n      swap2\n      jump(tag_105)\n    tag_106:\n      dup3\n      add\n      swap2\n      swap1\n      0x00\n      mstore\n      keccak256(0x00, 0x20)\n      swap1\n    tag_107:\n      dup2\n      sload\n      dup2\n      mstore\n      swap1\n      0x01\n      add\n      swap1\n      0x20\n      add\n      dup1\n      dup4\n      gt\n      tag_107\n      jumpi\n      dup3\n      swap1\n      sub\n      0x1f\n      and\n      dup3\n      add\n      swap2\n    tag_105:\n      pop\n      pop\n      pop\n      pop\n      pop\n      swap1\n      dup1\n      0x01\n      add\n      0x00\n      swap1\n      sload\n      swap1\n      0x0100\n      exp\n      swap1\n      div\n      0xffffffffffffffffffffffffffffffffffffffff\n      and\n      swap1\n      dup1\n      0x02\n      add\n      dup1\n      sload\n      tag_108\n      swap1\n      tag_88\n      jump\t// in\n    tag_108:\n      dup1\n      0x1f\n      add\n      0x20\n      dup1\n      swap2\n      div\n      mul\n      0x20\n      add\n      mload(0x40)\n      swap1\n      dup2\n      add\n      0x40\n      mstore\n      dup1\n      swap3\n      swap2\n      swap1\n      dup2\n      dup2\n      mstore\n      0x20\n      add\n      dup3\n      dup1\n      sload\n      tag_109\n      swap1\n      tag_88\n      jump\t// in\n    tag_109:\n      dup1\n      iszero\n      tag_110\n      jumpi\n      dup1\n      0x1f\n      lt\n      tag_111\n      jumpi\n      0x0100\n      dup1\n      dup4\n      sload\n      div\n      mul\n      dup4\n      mstore\n      swap2\n      0x20\n      add\n      swap2\n      jump(tag_110)\n    tag_111:\n      dup3\n      add\n      swap2\n      swap1\n      0x00\n      mstore\n      keccak256(0x00, 0x20)\n      swap1\n    tag_112:\n      dup2\n      sload\n      dup2\n      mstore\n      swap1\n      0x01\n      add\n      swap1\n      0x20\n      add\n      dup1\n      dup4\n      gt\n      tag_112\n      jumpi\n      dup3\n      swap1\n      sub\n      0x1f\n      and\n      dup3\n      add\n      swap2\n    tag_110:\n      pop\n      pop\n      pop\n      pop\n      pop\n      swap1\n      dup1\n      0x03\n      add\n      dup1\n      sload\n      tag_113\n      swap1\n      tag_88\n      jump\t// in\n    tag_113:\n      dup1\n      0x1f\n      add\n      0x20\n      dup1\n      swap2\n      div\n      mul\n      0x20\n      add\n      mload(0x40)\n      swap1\n      dup2\n      add\n      0x40\n      mstore\n      dup1\n      swap3\n      swap2\n      swap1\n      dup2\n      dup2\n      mstore\n      0x20\n      add\n      dup3\n      dup1\n      sload\n      tag_114\n      swap1\n      tag_88\n      jump\t// in\n    tag_114:\n      dup1\n      iszero\n      tag_115\n      jumpi\n      dup1\n      0x1f\n      lt\n      tag_116\n      jumpi\n      0x0100\n      dup1\n      dup4\n      sload\n      div\n      mul\n      dup4\n      mstore\n      swap2\n      0x20\n      add\n      swap2\n      jump(tag_115)\n    tag_116:\n      dup3\n      add\n      swap2\n      swap1\n      0x00\n      mstore\n      keccak256(0x00, 0x20)\n      swap1\n    tag_117:\n      dup2\n      sload\n      dup2\n      mstore\n      swap1\n      0x01\n      add\n      swap1\n      0x20\n      add\n      dup1\n      dup4\n      gt\n      tag_117\n      jumpi\n      dup3\n      swap1\n      sub\n      0x1f\n      and\n      dup3\n      add\n      swap2\n    tag_115:\n      pop\n      pop\n      pop\n      pop\n      pop\n      swap1\n      dup1\n      0x04\n      add\n      0x00\n      swap1\n      sload\n      swap1\n      0x0100\n      exp\n      swap1\n      div\n      0xffffffffffffffffffffffffffffffffffffffff\n      and\n      swap1\n      pop\n      dup6\n      jump\t// out\n        /* \"registerStud.sol\":127:145  address public MOE */\n    tag_45:\n      0x00\n      dup1\n      sload\n      swap1\n      0x0100\n      exp\n      swap1\n      div\n      0xffffffffffffffffffffffffffffffffffffffff\n      and\n      dup2\n      jump\t// out\n        /* \"registerStud.sol\":3270:3426  function isStudent(address _studentAddress) public view returns (bool) {... */\n    tag_49:\n        /* \"registerStud.sol\":3335:3339  bool */\n      0x00\n        /* \"registerStud.sol\":3414:3417  0x0 */\n      dup1\n        /* \"registerStud.sol\":3359:3418  registeredStudentsContract[_studentAddress] != address(0x0) */\n      0xffffffffffffffffffffffffffffffffffffffff\n      and\n        /* \"registerStud.sol\":3359:3385  registeredStudentsContract */\n      0x03\n        /* \"registerStud.sol\":3359:3402  registeredStudentsContract[_studentAddress] */\n      0x00\n        /* \"registerStud.sol\":3386:3401  _studentAddress */\n      dup5\n        /* \"registerStud.sol\":3359:3402  registeredStudentsContract[_studentAddress] */\n      0xffffffffffffffffffffffffffffffffffffffff\n      and\n      0xffffffffffffffffffffffffffffffffffffffff\n      and\n      dup2\n      mstore\n      0x20\n      add\n      swap1\n      dup2\n      mstore\n      0x20\n      add\n      0x00\n      keccak256\n      0x00\n      swap1\n      sload\n      swap1\n      0x0100\n      exp\n      swap1\n      div\n      0xffffffffffffffffffffffffffffffffffffffff\n      and\n        /* \"registerStud.sol\":3359:3418  registeredStudentsContract[_studentAddress] != address(0x0) */\n      0xffffffffffffffffffffffffffffffffffffffff\n      and\n      eq\n      iszero\n        /* \"registerStud.sol\":3352:3418  return registeredStudentsContract[_studentAddress] != address(0x0) */\n      swap1\n      pop\n        /* \"registerStud.sol\":3270:3426  function isStudent(address _studentAddress) public view returns (bool) {... */\n      swap2\n      swap1\n      pop\n      jump\t// out\n        /* \"registerStud.sol\":659:840  function generateKey(... */\n    tag_54:\n        /* \"registerStud.sol\":763:770  bytes32 */\n      0x00\n        /* \"registerStud.sol\":817:825  _address */\n      dup3\n        /* \"registerStud.sol\":827:830  _id */\n      dup3\n        /* \"registerStud.sol\":800:831  abi.encodePacked(_address, _id) */\n      add(0x20, mload(0x40))\n      tag_120\n      swap3\n      swap2\n      swap1\n      tag_121\n      jump\t// in\n    tag_120:\n      mload(0x40)\n      0x20\n      dup2\n      dup4\n      sub\n      sub\n      dup2\n      mstore\n      swap1\n      0x40\n      mstore\n        /* \"registerStud.sol\":790:832  keccak256(abi.encodePacked(_address, _id)) */\n      dup1\n      mload\n      swap1\n      0x20\n      add\n      keccak256\n        /* \"registerStud.sol\":783:832  return keccak256(abi.encodePacked(_address, _id)) */\n      swap1\n      pop\n        /* \"registerStud.sol\":659:840  function generateKey(... */\n      swap3\n      swap2\n      pop\n      pop\n      jump\t// out\n        /* \"registerStud.sol\":1903:2142  function removeInstFromstudInfo(uint256 index, bytes32 key) public returns(bool) {... */\n    tag_60:\n        /* \"registerStud.sol\":1978:1982  bool */\n      0x00\n        /* \"registerStud.sol\":2048:2049  0 */\n      dup1\n        /* \"registerStud.sol\":1995:2018  registeredStudentsarray */\n      0x01\n        /* \"registerStud.sol\":2019:2024  index */\n      dup5\n        /* \"registerStud.sol\":1995:2025  registeredStudentsarray[index] */\n      dup2\n      sload\n      dup2\n      lt\n      tag_123\n      jumpi\n      tag_124\n      tag_84\n      jump\t// in\n    tag_124:\n    tag_123:\n      swap1\n      0x00\n      mstore\n      keccak256(0x00, 0x20)\n      swap1\n      0x05\n      mul\n      add\n        /* \"registerStud.sol\":1995:2037  registeredStudentsarray[index].instAddress */\n      0x04\n      add\n      0x00\n        /* \"registerStud.sol\":1995:2050  registeredStudentsarray[index].instAddress = address(0) */\n      0x0100\n      exp\n      dup2\n      sload\n      dup2\n      0xffffffffffffffffffffffffffffffffffffffff\n      mul\n      not\n      and\n      swap1\n      dup4\n      0xffffffffffffffffffffffffffffffffffffffff\n      and\n      mul\n      or\n      swap1\n      sstore\n      pop\n        /* \"registerStud.sol\":2110:2111  0 */\n      0x00\n        /* \"registerStud.sol\":2061:2082  registeredStudentsMap */\n      0x02\n        /* \"registerStud.sol\":2061:2087  registeredStudentsMap[key] */\n      0x00\n        /* \"registerStud.sol\":2083:2086  key */\n      dup5\n        /* \"registerStud.sol\":2061:2087  registeredStudentsMap[key] */\n      dup2\n      mstore\n      0x20\n      add\n      swap1\n      dup2\n      mstore\n      0x20\n      add\n      0x00\n      keccak256\n        /* \"registerStud.sol\":2061:2099  registeredStudentsMap[key].instAddress */\n      0x04\n      add\n      0x00\n        /* \"registerStud.sol\":2061:2112  registeredStudentsMap[key].instAddress = address(0) */\n      0x0100\n      exp\n      dup2\n      sload\n      dup2\n      0xffffffffffffffffffffffffffffffffffffffff\n      mul\n      not\n      and\n      swap1\n      dup4\n      0xffffffffffffffffffffffffffffffffffffffff\n      and\n      mul\n      or\n      swap1\n      sstore\n      pop\n        /* \"registerStud.sol\":2130:2134  true */\n      0x01\n        /* \"registerStud.sol\":2123:2134  return true */\n      swap1\n      pop\n        /* \"registerStud.sol\":1903:2142  function removeInstFromstudInfo(uint256 index, bytes32 key) public returns(bool) {... */\n      swap3\n      swap2\n      pop\n      pop\n      jump\t// out\n        /* \"registerStud.sol\":2763:3264  function getRegisteredStudentByIndex(... */\n    tag_65:\n        /* \"registerStud.sol\":2879:2892  string memory */\n      0x60\n        /* \"registerStud.sol\":2894:2901  address */\n      0x00\n        /* \"registerStud.sol\":2903:2916  string memory */\n      0x60\n        /* \"registerStud.sol\":2918:2931  string memory */\n      dup1\n        /* \"registerStud.sol\":2932:2939  address */\n      0x00\n        /* \"registerStud.sol\":2957:2998  registerStudentsStruct memory studentinfo */\n      dup1\n        /* \"registerStud.sol\":3001:3024  registeredStudentsarray */\n      0x01\n        /* \"registerStud.sol\":3039:3044  index */\n      dup8\n        /* \"registerStud.sol\":3001:3055  registeredStudentsarray[... */\n      dup2\n      sload\n      dup2\n      lt\n      tag_127\n      jumpi\n      tag_128\n      tag_84\n      jump\t// in\n    tag_128:\n    tag_127:\n      swap1\n      0x00\n      mstore\n      keccak256(0x00, 0x20)\n      swap1\n      0x05\n      mul\n      add\n        /* \"registerStud.sol\":2957:3055  registerStudentsStruct memory studentinfo = registeredStudentsarray[... */\n      mload(0x40)\n      dup1\n      0xa0\n      add\n      0x40\n      mstore\n      swap1\n      dup2\n      0x00\n      dup3\n      add\n      dup1\n      sload\n      tag_130\n      swap1\n      tag_88\n      jump\t// in\n    tag_130:\n      dup1\n      0x1f\n      add\n      0x20\n      dup1\n      swap2\n      div\n      mul\n      0x20\n      add\n      mload(0x40)\n      swap1\n      dup2\n      add\n      0x40\n      mstore\n      dup1\n      swap3\n      swap2\n      swap1\n      dup2\n      dup2\n      mstore\n      0x20\n      add\n      dup3\n      dup1\n      sload\n      tag_131\n      swap1\n      tag_88\n      jump\t// in\n    tag_131:\n      dup1\n      iszero\n      tag_132\n      jumpi\n      dup1\n      0x1f\n      lt\n      tag_133\n      jumpi\n      0x0100\n      dup1\n      dup4\n      sload\n      div\n      mul\n      dup4\n      mstore\n      swap2\n      0x20\n      add\n      swap2\n      jump(tag_132)\n    tag_133:\n      dup3\n      add\n      swap2\n      swap1\n      0x00\n      mstore\n      keccak256(0x00, 0x20)\n      swap1\n    tag_134:\n      dup2\n      sload\n      dup2\n      mstore\n      swap1\n      0x01\n      add\n      swap1\n      0x20\n      add\n      dup1\n      dup4\n      gt\n      tag_134\n      jumpi\n      dup3\n      swap1\n      sub\n      0x1f\n      and\n      dup3\n      add\n      swap2\n    tag_132:\n      pop\n      pop\n      pop\n      pop\n      pop\n      dup2\n      mstore\n      0x20\n      add\n      0x01\n      dup3\n      add\n      0x00\n      swap1\n      sload\n      swap1\n      0x0100\n      exp\n      swap1\n      div\n      0xffffffffffffffffffffffffffffffffffffffff\n      and\n      0xffffffffffffffffffffffffffffffffffffffff\n      and\n      0xffffffffffffffffffffffffffffffffffffffff\n      and\n      dup2\n      mstore\n      0x20\n      add\n      0x02\n      dup3\n      add\n      dup1\n      sload\n      tag_135\n      swap1\n      tag_88\n      jump\t// in\n    tag_135:\n      dup1\n      0x1f\n      add\n      0x20\n      dup1\n      swap2\n      div\n      mul\n      0x20\n      add\n      mload(0x40)\n      swap1\n      dup2\n      add\n      0x40\n      mstore\n      dup1\n      swap3\n      swap2\n      swap1\n      dup2\n      dup2\n      mstore\n      0x20\n      add\n      dup3\n      dup1\n      sload\n      tag_136\n      swap1\n      tag_88\n      jump\t// in\n    tag_136:\n      dup1\n      iszero\n      tag_137\n      jumpi\n      dup1\n      0x1f\n      lt\n      tag_138\n      jumpi\n      0x0100\n      dup1\n      dup4\n      sload\n      div\n      mul\n      dup4\n      mstore\n      swap2\n      0x20\n      add\n      swap2\n      jump(tag_137)\n    tag_138:\n      dup3\n      add\n      swap2\n      swap1\n      0x00\n      mstore\n      keccak256(0x00, 0x20)\n      swap1\n    tag_139:\n      dup2\n      sload\n      dup2\n      mstore\n      swap1\n      0x01\n      add\n      swap1\n      0x20\n      add\n      dup1\n      dup4\n      gt\n      tag_139\n      jumpi\n      dup3\n      swap1\n      sub\n      0x1f\n      and\n      dup3\n      add\n      swap2\n    tag_137:\n      pop\n      pop\n      pop\n      pop\n      pop\n      dup2\n      mstore\n      0x20\n      add\n      0x03\n      dup3\n      add\n      dup1\n      sload\n      tag_140\n      swap1\n      tag_88\n      jump\t// in\n    tag_140:\n      dup1\n      0x1f\n      add\n      0x20\n      dup1\n      swap2\n      div\n      mul\n      0x20\n      add\n      mload(0x40)\n      swap1\n      dup2\n      add\n      0x40\n      mstore\n      dup1\n      swap3\n      swap2\n      swap1\n      dup2\n      dup2\n      mstore\n      0x20\n      add\n      dup3\n      dup1\n      sload\n      tag_141\n      swap1\n      tag_88\n      jump\t// in\n    tag_141:\n      dup1\n      iszero\n      tag_142\n      jumpi\n      dup1\n      0x1f\n      lt\n      tag_143\n      jumpi\n      0x0100\n      dup1\n      dup4\n      sload\n      div\n      mul\n      dup4\n      mstore\n      swap2\n      0x20\n      add\n      swap2\n      jump(tag_142)\n    tag_143:\n      dup3\n      add\n      swap2\n      swap1\n      0x00\n      mstore\n      keccak256(0x00, 0x20)\n      swap1\n    tag_144:\n      dup2\n      sload\n      dup2\n      mstore\n      swap1\n      0x01\n      add\n      swap1\n      0x20\n      add\n      dup1\n      dup4\n      gt\n      tag_144\n      jumpi\n      dup3\n      swap1\n      sub\n      0x1f\n      and\n      dup3\n      add\n      swap2\n    tag_142:\n      pop\n      pop\n      pop\n      pop\n      pop\n      dup2\n      mstore\n      0x20\n      add\n      0x04\n      dup3\n      add\n      0x00\n      swap1\n      sload\n      swap1\n      0x0100\n      exp\n      swap1\n      div\n      0xffffffffffffffffffffffffffffffffffffffff\n      and\n      0xffffffffffffffffffffffffffffffffffffffff\n      and\n      0xffffffffffffffffffffffffffffffffffffffff\n      and\n      dup2\n      mstore\n      pop\n      pop\n      swap1\n      pop\n        /* \"registerStud.sol\":3088:3099  studentinfo */\n      dup1\n        /* \"registerStud.sol\":3088:3104  studentinfo.name */\n      0x00\n      add\n      mload\n        /* \"registerStud.sol\":3119:3130  studentinfo */\n      dup2\n        /* \"registerStud.sol\":3119:3146  studentinfo.student_address */\n      0x20\n      add\n      mload\n        /* \"registerStud.sol\":3161:3172  studentinfo */\n      dup3\n        /* \"registerStud.sol\":3161:3178  studentinfo.email */\n      0x40\n      add\n      mload\n        /* \"registerStud.sol\":3193:3204  studentinfo */\n      dup4\n        /* \"registerStud.sol\":3193:3207  studentinfo.id */\n      0x60\n      add\n      mload\n        /* \"registerStud.sol\":3222:3233  studentinfo */\n      dup5\n        /* \"registerStud.sol\":3222:3245  studentinfo.instAddress */\n      0x80\n      add\n      mload\n        /* \"registerStud.sol\":3066:3256  return (... */\n      swap6\n      pop\n      swap6\n      pop\n      swap6\n      pop\n      swap6\n      pop\n      swap6\n      pop\n      pop\n        /* \"registerStud.sol\":2763:3264  function getRegisteredStudentByIndex(... */\n      swap2\n      swap4\n      swap6\n      swap1\n      swap3\n      swap5\n      pop\n      jump\t// out\n        /* \"registerStud.sol\":591:652  mapping(address => address) public registeredStudentsContract */\n    tag_69:\n      mstore(0x20, 0x03)\n      dup1\n      0x00\n      mstore\n      keccak256(0x00, 0x40)\n      0x00\n      swap2\n      pop\n      sload\n      swap1\n      0x0100\n      exp\n      swap1\n      div\n      0xffffffffffffffffffffffffffffffffffffffff\n      and\n      dup2\n      jump\t// out\n        /* \"registerStud.sol\":846:1623  function registerStudents(... */\n    tag_74:\n        /* \"registerStud.sol\":1059:1078  address instAddress */\n      0x00\n        /* \"registerStud.sol\":1089:1100  bytes32 key */\n      dup1\n        /* \"registerStud.sol\":1103:1137  generateKey(_student_address, _id) */\n      tag_146\n        /* \"registerStud.sol\":1115:1131  _student_address */\n      dup7\n        /* \"registerStud.sol\":1133:1136  _id */\n      dup6\n        /* \"registerStud.sol\":1103:1114  generateKey */\n      tag_54\n        /* \"registerStud.sol\":1103:1137  generateKey(_student_address, _id) */\n      jump\t// in\n    tag_146:\n        /* \"registerStud.sol\":1089:1137  bytes32 key = generateKey(_student_address, _id) */\n      swap1\n      pop\n        /* \"registerStud.sol\":1155:1201  registerStudentsStruct memory newStudentStruct */\n      tag_147\n      tag_148\n      jump\t// in\n    tag_147:\n        /* \"registerStud.sol\":1236:1241  _name */\n      dup8\n        /* \"registerStud.sol\":1212:1228  newStudentStruct */\n      dup2\n        /* \"registerStud.sol\":1212:1233  newStudentStruct.name */\n      0x00\n      add\n        /* \"registerStud.sol\":1212:1241  newStudentStruct.name = _name */\n      dup2\n      swap1\n      mstore\n      pop\n        /* \"registerStud.sol\":1287:1303  _student_address */\n      dup7\n        /* \"registerStud.sol\":1252:1268  newStudentStruct */\n      dup2\n        /* \"registerStud.sol\":1252:1284  newStudentStruct.student_address */\n      0x20\n      add\n        /* \"registerStud.sol\":1252:1303  newStudentStruct.student_address = _student_address */\n      swap1\n      0xffffffffffffffffffffffffffffffffffffffff\n      and\n      swap1\n      dup2\n      0xffffffffffffffffffffffffffffffffffffffff\n      and\n      dup2\n      mstore\n      pop\n      pop\n        /* \"registerStud.sol\":1339:1345  _email */\n      dup6\n        /* \"registerStud.sol\":1314:1330  newStudentStruct */\n      dup2\n        /* \"registerStud.sol\":1314:1336  newStudentStruct.email */\n      0x40\n      add\n        /* \"registerStud.sol\":1314:1345  newStudentStruct.email = _email */\n      dup2\n      swap1\n      mstore\n      pop\n        /* \"registerStud.sol\":1378:1381  _id */\n      dup5\n        /* \"registerStud.sol\":1356:1372  newStudentStruct */\n      dup2\n        /* \"registerStud.sol\":1356:1375  newStudentStruct.id */\n      0x60\n      add\n        /* \"registerStud.sol\":1356:1381  newStudentStruct.id = _id */\n      dup2\n      swap1\n      mstore\n      pop\n        /* \"registerStud.sol\":1423:1434  instAddress */\n      dup3\n        /* \"registerStud.sol\":1392:1408  newStudentStruct */\n      dup2\n        /* \"registerStud.sol\":1392:1420  newStudentStruct.instAddress */\n      0x80\n      add\n        /* \"registerStud.sol\":1392:1434  newStudentStruct.instAddress = instAddress */\n      swap1\n      0xffffffffffffffffffffffffffffffffffffffff\n      and\n      swap1\n      dup2\n      0xffffffffffffffffffffffffffffffffffffffff\n      and\n      dup2\n      mstore\n      pop\n      pop\n        /* \"registerStud.sol\":1474:1490  newStudentStruct */\n      dup1\n        /* \"registerStud.sol\":1445:1466  registeredStudentsMap */\n      0x02\n        /* \"registerStud.sol\":1445:1471  registeredStudentsMap[key] */\n      0x00\n        /* \"registerStud.sol\":1467:1470  key */\n      dup5\n        /* \"registerStud.sol\":1445:1471  registeredStudentsMap[key] */\n      dup2\n      mstore\n      0x20\n      add\n      swap1\n      dup2\n      mstore\n      0x20\n      add\n      0x00\n      keccak256\n        /* \"registerStud.sol\":1445:1490  registeredStudentsMap[key] = newStudentStruct */\n      0x00\n      dup3\n      add\n      mload\n      dup2\n      0x00\n      add\n      swap1\n      dup1\n      mload\n      swap1\n      0x20\n      add\n      swap1\n      tag_149\n      swap3\n      swap2\n      swap1\n      tag_150\n      jump\t// in\n    tag_149:\n      pop\n      0x20\n      dup3\n      add\n      mload\n      dup2\n      0x01\n      add\n      exp(0x0100, 0x00)\n      dup2\n      sload\n      dup2\n      0xffffffffffffffffffffffffffffffffffffffff\n      mul\n      not\n      and\n      swap1\n      dup4\n      0xffffffffffffffffffffffffffffffffffffffff\n      and\n      mul\n      or\n      swap1\n      sstore\n      pop\n      0x40\n      dup3\n      add\n      mload\n      dup2\n      0x02\n      add\n      swap1\n      dup1\n      mload\n      swap1\n      0x20\n      add\n      swap1\n      tag_151\n      swap3\n      swap2\n      swap1\n      tag_150\n      jump\t// in\n    tag_151:\n      pop\n      0x60\n      dup3\n      add\n      mload\n      dup2\n      0x03\n      add\n      swap1\n      dup1\n      mload\n      swap1\n      0x20\n      add\n      swap1\n      tag_152\n      swap3\n      swap2\n      swap1\n      tag_150\n      jump\t// in\n    tag_152:\n      pop\n      0x80\n      dup3\n      add\n      mload\n      dup2\n      0x04\n      add\n      exp(0x0100, 0x00)\n      dup2\n      sload\n      dup2\n      0xffffffffffffffffffffffffffffffffffffffff\n      mul\n      not\n      and\n      swap1\n      dup4\n      0xffffffffffffffffffffffffffffffffffffffff\n      and\n      mul\n      or\n      swap1\n      sstore\n      pop\n      swap1\n      pop\n      pop\n        /* \"registerStud.sol\":1548:1558  newstudent */\n      dup4\n        /* \"registerStud.sol\":1501:1527  registeredStudentsContract */\n      0x03\n        /* \"registerStud.sol\":1501:1545  registeredStudentsContract[_student_address] */\n      0x00\n        /* \"registerStud.sol\":1528:1544  _student_address */\n      dup10\n        /* \"registerStud.sol\":1501:1545  registeredStudentsContract[_student_address] */\n      0xffffffffffffffffffffffffffffffffffffffff\n      and\n      0xffffffffffffffffffffffffffffffffffffffff\n      and\n      dup2\n      mstore\n      0x20\n      add\n      swap1\n      dup2\n      mstore\n      0x20\n      add\n      0x00\n      keccak256\n      0x00\n        /* \"registerStud.sol\":1501:1558  registeredStudentsContract[_student_address] = newstudent */\n      0x0100\n      exp\n      dup2\n      sload\n      dup2\n      0xffffffffffffffffffffffffffffffffffffffff\n      mul\n      not\n      and\n      swap1\n      dup4\n      0xffffffffffffffffffffffffffffffffffffffff\n      and\n      mul\n      or\n      swap1\n      sstore\n      pop\n        /* \"registerStud.sol\":1569:1592  registeredStudentsarray */\n      0x01\n        /* \"registerStud.sol\":1598:1614  newStudentStruct */\n      dup2\n        /* \"registerStud.sol\":1569:1615  registeredStudentsarray.push(newStudentStruct) */\n      swap1\n      dup1\n      0x01\n      dup2\n      sload\n      add\n      dup1\n      dup3\n      sstore\n      dup1\n      swap2\n      pop\n      pop\n      0x01\n      swap1\n      sub\n      swap1\n      0x00\n      mstore\n      keccak256(0x00, 0x20)\n      swap1\n      0x05\n      mul\n      add\n      0x00\n      swap1\n      swap2\n      swap1\n      swap2\n      swap1\n      swap2\n      pop\n      0x00\n      dup3\n      add\n      mload\n      dup2\n      0x00\n      add\n      swap1\n      dup1\n      mload\n      swap1\n      0x20\n      add\n      swap1\n      tag_154\n      swap3\n      swap2\n      swap1\n      tag_150\n      jump\t// in\n    tag_154:\n      pop\n      0x20\n      dup3\n      add\n      mload\n      dup2\n      0x01\n      add\n      exp(0x0100, 0x00)\n      dup2\n      sload\n      dup2\n      0xffffffffffffffffffffffffffffffffffffffff\n      mul\n      not\n      and\n      swap1\n      dup4\n      0xffffffffffffffffffffffffffffffffffffffff\n      and\n      mul\n      or\n      swap1\n      sstore\n      pop\n      0x40\n      dup3\n      add\n      mload\n      dup2\n      0x02\n      add\n      swap1\n      dup1\n      mload\n      swap1\n      0x20\n      add\n      swap1\n      tag_155\n      swap3\n      swap2\n      swap1\n      tag_150\n      jump\t// in\n    tag_155:\n      pop\n      0x60\n      dup3\n      add\n      mload\n      dup2\n      0x03\n      add\n      swap1\n      dup1\n      mload\n      swap1\n      0x20\n      add\n      swap1\n      tag_156\n      swap3\n      swap2\n      swap1\n      tag_150\n      jump\t// in\n    tag_156:\n      pop\n      0x80\n      dup3\n      add\n      mload\n      dup2\n      0x04\n      add\n      exp(0x0100, 0x00)\n      dup2\n      sload\n      dup2\n      0xffffffffffffffffffffffffffffffffffffffff\n      mul\n      not\n      and\n      swap1\n      dup4\n      0xffffffffffffffffffffffffffffffffffffffff\n      and\n      mul\n      or\n      swap1\n      sstore\n      pop\n      pop\n      pop\n        /* \"registerStud.sol\":1039:1623  {... */\n      pop\n      pop\n      pop\n        /* \"registerStud.sol\":846:1623  function registerStudents(... */\n      pop\n      pop\n      pop\n      pop\n      pop\n      jump\t// out\n        /* \"registerStud.sol\":380:435  registerStudentsStruct[] public registeredStudentsarray */\n    tag_77:\n      0x01\n      dup2\n      dup2\n      sload\n      dup2\n      lt\n      tag_157\n      jumpi\n      0x00\n      dup1\n      revert\n    tag_157:\n      swap1\n      0x00\n      mstore\n      keccak256(0x00, 0x20)\n      swap1\n      0x05\n      mul\n      add\n      0x00\n      swap2\n      pop\n      swap1\n      pop\n      dup1\n      0x00\n      add\n      dup1\n      sload\n      tag_159\n      swap1\n      tag_88\n      jump\t// in\n    tag_159:\n      dup1\n      0x1f\n      add\n      0x20\n      dup1\n      swap2\n      div\n      mul\n      0x20\n      add\n      mload(0x40)\n      swap1\n      dup2\n      add\n      0x40\n      mstore\n      dup1\n      swap3\n      swap2\n      swap1\n      dup2\n      dup2\n      mstore\n      0x20\n      add\n      dup3\n      dup1\n      sload\n      tag_160\n      swap1\n      tag_88\n      jump\t// in\n    tag_160:\n      dup1\n      iszero\n      tag_161\n      jumpi\n      dup1\n      0x1f\n      lt\n      tag_162\n      jumpi\n      0x0100\n      dup1\n      dup4\n      sload\n      div\n      mul\n      dup4\n      mstore\n      swap2\n      0x20\n      add\n      swap2\n      jump(tag_161)\n    tag_162:\n      dup3\n      add\n      swap2\n      swap1\n      0x00\n      mstore\n      keccak256(0x00, 0x20)\n      swap1\n    tag_163:\n      dup2\n      sload\n      dup2\n      mstore\n      swap1\n      0x01\n      add\n      swap1\n      0x20\n      add\n      dup1\n      dup4\n      gt\n      tag_163\n      jumpi\n      dup3\n      swap1\n      sub\n      0x1f\n      and\n      dup3\n      add\n      swap2\n    tag_161:\n      pop\n      pop\n      pop\n      pop\n      pop\n      swap1\n      dup1\n      0x01\n      add\n      0x00\n      swap1\n      sload\n      swap1\n      0x0100\n      exp\n      swap1\n      div\n      0xffffffffffffffffffffffffffffffffffffffff\n      and\n      swap1\n      dup1\n      0x02\n      add\n      dup1\n      sload\n      tag_164\n      swap1\n      tag_88\n      jump\t// in\n    tag_164:\n      dup1\n      0x1f\n      add\n      0x20\n      dup1\n      swap2\n      div\n      mul\n      0x20\n      add\n      mload(0x40)\n      swap1\n      dup2\n      add\n      0x40\n      mstore\n      dup1\n      swap3\n      swap2\n      swap1\n      dup2\n      dup2\n      mstore\n      0x20\n      add\n      dup3\n      dup1\n      sload\n      tag_165\n      swap1\n      tag_88\n      jump\t// in\n    tag_165:\n      dup1\n      iszero\n      tag_166\n      jumpi\n      dup1\n      0x1f\n      lt\n      tag_167\n      jumpi\n      0x0100\n      dup1\n      dup4\n      sload\n      div\n      mul\n      dup4\n      mstore\n      swap2\n      0x20\n      add\n      swap2\n      jump(tag_166)\n    tag_167:\n      dup3\n      add\n      swap2\n      swap1\n      0x00\n      mstore\n      keccak256(0x00, 0x20)\n      swap1\n    tag_168:\n      dup2\n      sload\n      dup2\n      mstore\n      swap1\n      0x01\n      add\n      swap1\n      0x20\n      add\n      dup1\n      dup4\n      gt\n      tag_168\n      jumpi\n      dup3\n      swap1\n      sub\n      0x1f\n      and\n      dup3\n      add\n      swap2\n    tag_166:\n      pop\n      pop\n      pop\n      pop\n      pop\n      swap1\n      dup1\n      0x03\n      add\n      dup1\n      sload\n      tag_169\n      swap1\n      tag_88\n      jump\t// in\n    tag_169:\n      dup1\n      0x1f\n      add\n      0x20\n      dup1\n      swap2\n      div\n      mul\n      0x20\n      add\n      mload(0x40)\n      swap1\n      dup2\n      add\n      0x40\n      mstore\n      dup1\n      swap3\n      swap2\n      swap1\n      dup2\n      dup2\n      mstore\n      0x20\n      add\n      dup3\n      dup1\n      sload\n      tag_170\n      swap1\n      tag_88\n      jump\t// in\n    tag_170:\n      dup1\n      iszero\n      tag_171\n      jumpi\n      dup1\n      0x1f\n      lt\n      tag_172\n      jumpi\n      0x0100\n      dup1\n      dup4\n      sload\n      div\n      mul\n      dup4\n      mstore\n      swap2\n      0x20\n      add\n      swap2\n      jump(tag_171)\n    tag_172:\n      dup3\n      add\n      swap2\n      swap1\n      0x00\n      mstore\n      keccak256(0x00, 0x20)\n      swap1\n    tag_173:\n      dup2\n      sload\n      dup2\n      mstore\n      swap1\n      0x01\n      add\n      swap1\n      0x20\n      add\n      dup1\n      dup4\n      gt\n      tag_173\n      jumpi\n      dup3\n      swap1\n      sub\n      0x1f\n      and\n      dup3\n      add\n      swap2\n    tag_171:\n      pop\n      pop\n      pop\n      pop\n      pop\n      swap1\n      dup1\n      0x04\n      add\n      0x00\n      swap1\n      sload\n      swap1\n      0x0100\n      exp\n      swap1\n      div\n      0xffffffffffffffffffffffffffffffffffffffff\n      and\n      swap1\n      pop\n      dup6\n      jump\t// out\n    tag_148:\n      mload(0x40)\n      dup1\n      0xa0\n      add\n      0x40\n      mstore\n      dup1\n      0x60\n      dup2\n      mstore\n      0x20\n      add\n      and(0xffffffffffffffffffffffffffffffffffffffff, 0x00)\n      dup2\n      mstore\n      0x20\n      add\n      0x60\n      dup2\n      mstore\n      0x20\n      add\n      0x60\n      dup2\n      mstore\n      0x20\n      add\n      and(0xffffffffffffffffffffffffffffffffffffffff, 0x00)\n      dup2\n      mstore\n      pop\n      swap1\n      jump\t// out\n    tag_150:\n      dup3\n      dup1\n      sload\n      tag_174\n      swap1\n      tag_88\n      jump\t// in\n    tag_174:\n      swap1\n      0x00\n      mstore\n      keccak256(0x00, 0x20)\n      swap1\n      0x1f\n      add\n      0x20\n      swap1\n      div\n      dup2\n      add\n      swap3\n      dup3\n      tag_176\n      jumpi\n      0x00\n      dup6\n      sstore\n      jump(tag_175)\n    tag_176:\n      dup3\n      0x1f\n      lt\n      tag_177\n      jumpi\n      dup1\n      mload\n      not(0xff)\n      and\n      dup4\n      dup1\n      add\n      or\n      dup6\n      sstore\n      jump(tag_175)\n    tag_177:\n      dup3\n      dup1\n      add\n      0x01\n      add\n      dup6\n      sstore\n      dup3\n      iszero\n      tag_175\n      jumpi\n      swap2\n      dup3\n      add\n    tag_178:\n      dup3\n      dup2\n      gt\n      iszero\n      tag_179\n      jumpi\n      dup3\n      mload\n      dup3\n      sstore\n      swap2\n      0x20\n      add\n      swap2\n      swap1\n      0x01\n      add\n      swap1\n      jump(tag_178)\n    tag_179:\n    tag_175:\n      pop\n      swap1\n      pop\n      tag_180\n      swap2\n      swap1\n      tag_181\n      jump\t// in\n    tag_180:\n      pop\n      swap1\n      jump\t// out\n    tag_181:\n    tag_182:\n      dup1\n      dup3\n      gt\n      iszero\n      tag_183\n      jumpi\n      0x00\n      dup2\n      0x00\n      swap1\n      sstore\n      pop\n      0x01\n      add\n      jump(tag_182)\n    tag_183:\n      pop\n      swap1\n      jump\t// out\n        /* \"#utility.yul\":7:84   */\n    tag_184:\n        /* \"#utility.yul\":44:51   */\n      0x00\n        /* \"#utility.yul\":73:78   */\n      dup2\n        /* \"#utility.yul\":62:78   */\n      swap1\n      pop\n        /* \"#utility.yul\":7:84   */\n      swap2\n      swap1\n      pop\n      jump\t// out\n        /* \"#utility.yul\":90:208   */\n    tag_185:\n        /* \"#utility.yul\":177:201   */\n      tag_226\n        /* \"#utility.yul\":195:200   */\n      dup2\n        /* \"#utility.yul\":177:201   */\n      tag_184\n      jump\t// in\n    tag_226:\n        /* \"#utility.yul\":172:175   */\n      dup3\n        /* \"#utility.yul\":165:202   */\n      mstore\n        /* \"#utility.yul\":90:208   */\n      pop\n      pop\n      jump\t// out\n        /* \"#utility.yul\":214:436   */\n    tag_21:\n        /* \"#utility.yul\":307:311   */\n      0x00\n        /* \"#utility.yul\":345:347   */\n      0x20\n        /* \"#utility.yul\":334:343   */\n      dup3\n        /* \"#utility.yul\":330:348   */\n      add\n        /* \"#utility.yul\":322:348   */\n      swap1\n      pop\n        /* \"#utility.yul\":358:429   */\n      tag_228\n        /* \"#utility.yul\":426:427   */\n      0x00\n        /* \"#utility.yul\":415:424   */\n      dup4\n        /* \"#utility.yul\":411:428   */\n      add\n        /* \"#utility.yul\":402:408   */\n      dup5\n        /* \"#utility.yul\":358:429   */\n      tag_185\n      jump\t// in\n    tag_228:\n        /* \"#utility.yul\":214:436   */\n      swap3\n      swap2\n      pop\n      pop\n      jump\t// out\n        /* \"#utility.yul\":442:517   */\n    tag_186:\n        /* \"#utility.yul\":475:481   */\n      0x00\n        /* \"#utility.yul\":508:510   */\n      0x40\n        /* \"#utility.yul\":502:511   */\n      mload\n        /* \"#utility.yul\":492:511   */\n      swap1\n      pop\n        /* \"#utility.yul\":442:517   */\n      swap1\n      jump\t// out\n        /* \"#utility.yul\":523:640   */\n    tag_187:\n        /* \"#utility.yul\":632:633   */\n      0x00\n        /* \"#utility.yul\":629:630   */\n      dup1\n        /* \"#utility.yul\":622:634   */\n      revert\n        /* \"#utility.yul\":646:763   */\n    tag_188:\n        /* \"#utility.yul\":755:756   */\n      0x00\n        /* \"#utility.yul\":752:753   */\n      dup1\n        /* \"#utility.yul\":745:757   */\n      revert\n        /* \"#utility.yul\":769:895   */\n    tag_189:\n        /* \"#utility.yul\":806:813   */\n      0x00\n        /* \"#utility.yul\":846:888   */\n      0xffffffffffffffffffffffffffffffffffffffff\n        /* \"#utility.yul\":839:844   */\n      dup3\n        /* \"#utility.yul\":835:889   */\n      and\n        /* \"#utility.yul\":824:889   */\n      swap1\n      pop\n        /* \"#utility.yul\":769:895   */\n      swap2\n      swap1\n      pop\n      jump\t// out\n        /* \"#utility.yul\":901:997   */\n    tag_190:\n        /* \"#utility.yul\":938:945   */\n      0x00\n        /* \"#utility.yul\":967:991   */\n      tag_234\n        /* \"#utility.yul\":985:990   */\n      dup3\n        /* \"#utility.yul\":967:991   */\n      tag_189\n      jump\t// in\n    tag_234:\n        /* \"#utility.yul\":956:991   */\n      swap1\n      pop\n        /* \"#utility.yul\":901:997   */\n      swap2\n      swap1\n      pop\n      jump\t// out\n        /* \"#utility.yul\":1003:1125   */\n    tag_191:\n        /* \"#utility.yul\":1076:1100   */\n      tag_236\n        /* \"#utility.yul\":1094:1099   */\n      dup2\n        /* \"#utility.yul\":1076:1100   */\n      tag_190\n      jump\t// in\n    tag_236:\n        /* \"#utility.yul\":1069:1074   */\n      dup2\n        /* \"#utility.yul\":1066:1101   */\n      eq\n        /* \"#utility.yul\":1056:1119   */\n      tag_237\n      jumpi\n        /* \"#utility.yul\":1115:1116   */\n      0x00\n        /* \"#utility.yul\":1112:1113   */\n      dup1\n        /* \"#utility.yul\":1105:1117   */\n      revert\n        /* \"#utility.yul\":1056:1119   */\n    tag_237:\n        /* \"#utility.yul\":1003:1125   */\n      pop\n      jump\t// out\n        /* \"#utility.yul\":1131:1270   */\n    tag_192:\n        /* \"#utility.yul\":1177:1182   */\n      0x00\n        /* \"#utility.yul\":1215:1221   */\n      dup2\n        /* \"#utility.yul\":1202:1222   */\n      calldataload\n        /* \"#utility.yul\":1193:1222   */\n      swap1\n      pop\n        /* \"#utility.yul\":1231:1264   */\n      tag_239\n        /* \"#utility.yul\":1258:1263   */\n      dup2\n        /* \"#utility.yul\":1231:1264   */\n      tag_191\n      jump\t// in\n    tag_239:\n        /* \"#utility.yul\":1131:1270   */\n      swap3\n      swap2\n      pop\n      pop\n      jump\t// out\n        /* \"#utility.yul\":1276:1605   */\n    tag_24:\n        /* \"#utility.yul\":1335:1341   */\n      0x00\n        /* \"#utility.yul\":1384:1386   */\n      0x20\n        /* \"#utility.yul\":1372:1381   */\n      dup3\n        /* \"#utility.yul\":1363:1370   */\n      dup5\n        /* \"#utility.yul\":1359:1382   */\n      sub\n        /* \"#utility.yul\":1355:1387   */\n      slt\n        /* \"#utility.yul\":1352:1471   */\n      iszero\n      tag_241\n      jumpi\n        /* \"#utility.yul\":1390:1469   */\n      tag_242\n      tag_187\n      jump\t// in\n    tag_242:\n        /* \"#utility.yul\":1352:1471   */\n    tag_241:\n        /* \"#utility.yul\":1510:1511   */\n      0x00\n        /* \"#utility.yul\":1535:1588   */\n      tag_243\n        /* \"#utility.yul\":1580:1587   */\n      dup5\n        /* \"#utility.yul\":1571:1577   */\n      dup3\n        /* \"#utility.yul\":1560:1569   */\n      dup6\n        /* \"#utility.yul\":1556:1578   */\n      add\n        /* \"#utility.yul\":1535:1588   */\n      tag_192\n      jump\t// in\n    tag_243:\n        /* \"#utility.yul\":1525:1588   */\n      swap2\n      pop\n        /* \"#utility.yul\":1481:1598   */\n      pop\n        /* \"#utility.yul\":1276:1605   */\n      swap3\n      swap2\n      pop\n      pop\n      jump\t// out\n        /* \"#utility.yul\":1611:1729   */\n    tag_193:\n        /* \"#utility.yul\":1698:1722   */\n      tag_245\n        /* \"#utility.yul\":1716:1721   */\n      dup2\n        /* \"#utility.yul\":1698:1722   */\n      tag_190\n      jump\t// in\n    tag_245:\n        /* \"#utility.yul\":1693:1696   */\n      dup3\n        /* \"#utility.yul\":1686:1723   */\n      mstore\n        /* \"#utility.yul\":1611:1729   */\n      pop\n      pop\n      jump\t// out\n        /* \"#utility.yul\":1735:1957   */\n    tag_27:\n        /* \"#utility.yul\":1828:1832   */\n      0x00\n        /* \"#utility.yul\":1866:1868   */\n      0x20\n        /* \"#utility.yul\":1855:1864   */\n      dup3\n        /* \"#utility.yul\":1851:1869   */\n      add\n        /* \"#utility.yul\":1843:1869   */\n      swap1\n      pop\n        /* \"#utility.yul\":1879:1950   */\n      tag_247\n        /* \"#utility.yul\":1947:1948   */\n      0x00\n        /* \"#utility.yul\":1936:1945   */\n      dup4\n        /* \"#utility.yul\":1932:1949   */\n      add\n        /* \"#utility.yul\":1923:1929   */\n      dup5\n        /* \"#utility.yul\":1879:1950   */\n      tag_193\n      jump\t// in\n    tag_247:\n        /* \"#utility.yul\":1735:1957   */\n      swap3\n      swap2\n      pop\n      pop\n      jump\t// out\n        /* \"#utility.yul\":1963:2085   */\n    tag_194:\n        /* \"#utility.yul\":2036:2060   */\n      tag_249\n        /* \"#utility.yul\":2054:2059   */\n      dup2\n        /* \"#utility.yul\":2036:2060   */\n      tag_184\n      jump\t// in\n    tag_249:\n        /* \"#utility.yul\":2029:2034   */\n      dup2\n        /* \"#utility.yul\":2026:2061   */\n      eq\n        /* \"#utility.yul\":2016:2079   */\n      tag_250\n      jumpi\n        /* \"#utility.yul\":2075:2076   */\n      0x00\n        /* \"#utility.yul\":2072:2073   */\n      dup1\n        /* \"#utility.yul\":2065:2077   */\n      revert\n        /* \"#utility.yul\":2016:2079   */\n    tag_250:\n        /* \"#utility.yul\":1963:2085   */\n      pop\n      jump\t// out\n        /* \"#utility.yul\":2091:2230   */\n    tag_195:\n        /* \"#utility.yul\":2137:2142   */\n      0x00\n        /* \"#utility.yul\":2175:2181   */\n      dup2\n        /* \"#utility.yul\":2162:2182   */\n      calldataload\n        /* \"#utility.yul\":2153:2182   */\n      swap1\n      pop\n        /* \"#utility.yul\":2191:2224   */\n      tag_252\n        /* \"#utility.yul\":2218:2223   */\n      dup2\n        /* \"#utility.yul\":2191:2224   */\n      tag_194\n      jump\t// in\n    tag_252:\n        /* \"#utility.yul\":2091:2230   */\n      swap3\n      swap2\n      pop\n      pop\n      jump\t// out\n        /* \"#utility.yul\":2236:2313   */\n    tag_196:\n        /* \"#utility.yul\":2273:2280   */\n      0x00\n        /* \"#utility.yul\":2302:2307   */\n      dup2\n        /* \"#utility.yul\":2291:2307   */\n      swap1\n      pop\n        /* \"#utility.yul\":2236:2313   */\n      swap2\n      swap1\n      pop\n      jump\t// out\n        /* \"#utility.yul\":2319:2441   */\n    tag_197:\n        /* \"#utility.yul\":2392:2416   */\n      tag_255\n        /* \"#utility.yul\":2410:2415   */\n      dup2\n        /* \"#utility.yul\":2392:2416   */\n      tag_196\n      jump\t// in\n    tag_255:\n        /* \"#utility.yul\":2385:2390   */\n      dup2\n        /* \"#utility.yul\":2382:2417   */\n      eq\n        /* \"#utility.yul\":2372:2435   */\n      tag_256\n      jumpi\n        /* \"#utility.yul\":2431:2432   */\n      0x00\n        /* \"#utility.yul\":2428:2429   */\n      dup1\n        /* \"#utility.yul\":2421:2433   */\n      revert\n        /* \"#utility.yul\":2372:2435   */\n    tag_256:\n        /* \"#utility.yul\":2319:2441   */\n      pop\n      jump\t// out\n        /* \"#utility.yul\":2447:2586   */\n    tag_198:\n        /* \"#utility.yul\":2493:2498   */\n      0x00\n        /* \"#utility.yul\":2531:2537   */\n      dup2\n        /* \"#utility.yul\":2518:2538   */\n      calldataload\n        /* \"#utility.yul\":2509:2538   */\n      swap1\n      pop\n        /* \"#utility.yul\":2547:2580   */\n      tag_258\n        /* \"#utility.yul\":2574:2579   */\n      dup2\n        /* \"#utility.yul\":2547:2580   */\n      tag_197\n      jump\t// in\n    tag_258:\n        /* \"#utility.yul\":2447:2586   */\n      swap3\n      swap2\n      pop\n      pop\n      jump\t// out\n        /* \"#utility.yul\":2592:3211   */\n    tag_30:\n        /* \"#utility.yul\":2669:2675   */\n      0x00\n        /* \"#utility.yul\":2677:2683   */\n      dup1\n        /* \"#utility.yul\":2685:2691   */\n      0x00\n        /* \"#utility.yul\":2734:2736   */\n      0x60\n        /* \"#utility.yul\":2722:2731   */\n      dup5\n        /* \"#utility.yul\":2713:2720   */\n      dup7\n        /* \"#utility.yul\":2709:2732   */\n      sub\n        /* \"#utility.yul\":2705:2737   */\n      slt\n        /* \"#utility.yul\":2702:2821   */\n      iszero\n      tag_260\n      jumpi\n        /* \"#utility.yul\":2740:2819   */\n      tag_261\n      tag_187\n      jump\t// in\n    tag_261:\n        /* \"#utility.yul\":2702:2821   */\n    tag_260:\n        /* \"#utility.yul\":2860:2861   */\n      0x00\n        /* \"#utility.yul\":2885:2938   */\n      tag_262\n        /* \"#utility.yul\":2930:2937   */\n      dup7\n        /* \"#utility.yul\":2921:2927   */\n      dup3\n        /* \"#utility.yul\":2910:2919   */\n      dup8\n        /* \"#utility.yul\":2906:2928   */\n      add\n        /* \"#utility.yul\":2885:2938   */\n      tag_195\n      jump\t// in\n    tag_262:\n        /* \"#utility.yul\":2875:2938   */\n      swap4\n      pop\n        /* \"#utility.yul\":2831:2948   */\n      pop\n        /* \"#utility.yul\":2987:2989   */\n      0x20\n        /* \"#utility.yul\":3013:3066   */\n      tag_263\n        /* \"#utility.yul\":3058:3065   */\n      dup7\n        /* \"#utility.yul\":3049:3055   */\n      dup3\n        /* \"#utility.yul\":3038:3047   */\n      dup8\n        /* \"#utility.yul\":3034:3056   */\n      add\n        /* \"#utility.yul\":3013:3066   */\n      tag_198\n      jump\t// in\n    tag_263:\n        /* \"#utility.yul\":3003:3066   */\n      swap3\n      pop\n        /* \"#utility.yul\":2958:3076   */\n      pop\n        /* \"#utility.yul\":3115:3117   */\n      0x40\n        /* \"#utility.yul\":3141:3194   */\n      tag_264\n        /* \"#utility.yul\":3186:3193   */\n      dup7\n        /* \"#utility.yul\":3177:3183   */\n      dup3\n        /* \"#utility.yul\":3166:3175   */\n      dup8\n        /* \"#utility.yul\":3162:3184   */\n      add\n        /* \"#utility.yul\":3141:3194   */\n      tag_192\n      jump\t// in\n    tag_264:\n        /* \"#utility.yul\":3131:3194   */\n      swap2\n      pop\n        /* \"#utility.yul\":3086:3204   */\n      pop\n        /* \"#utility.yul\":2592:3211   */\n      swap3\n      pop\n      swap3\n      pop\n      swap3\n      jump\t// out\n        /* \"#utility.yul\":3217:3307   */\n    tag_199:\n        /* \"#utility.yul\":3251:3258   */\n      0x00\n        /* \"#utility.yul\":3294:3299   */\n      dup2\n        /* \"#utility.yul\":3287:3300   */\n      iszero\n        /* \"#utility.yul\":3280:3301   */\n      iszero\n        /* \"#utility.yul\":3269:3301   */\n      swap1\n      pop\n        /* \"#utility.yul\":3217:3307   */\n      swap2\n      swap1\n      pop\n      jump\t// out\n        /* \"#utility.yul\":3313:3422   */\n    tag_200:\n        /* \"#utility.yul\":3394:3415   */\n      tag_267\n        /* \"#utility.yul\":3409:3414   */\n      dup2\n        /* \"#utility.yul\":3394:3415   */\n      tag_199\n      jump\t// in\n    tag_267:\n        /* \"#utility.yul\":3389:3392   */\n      dup3\n        /* \"#utility.yul\":3382:3416   */\n      mstore\n        /* \"#utility.yul\":3313:3422   */\n      pop\n      pop\n      jump\t// out\n        /* \"#utility.yul\":3428:3638   */\n    tag_33:\n        /* \"#utility.yul\":3515:3519   */\n      0x00\n        /* \"#utility.yul\":3553:3555   */\n      0x20\n        /* \"#utility.yul\":3542:3551   */\n      dup3\n        /* \"#utility.yul\":3538:3556   */\n      add\n        /* \"#utility.yul\":3530:3556   */\n      swap1\n      pop\n        /* \"#utility.yul\":3566:3631   */\n      tag_269\n        /* \"#utility.yul\":3628:3629   */\n      0x00\n        /* \"#utility.yul\":3617:3626   */\n      dup4\n        /* \"#utility.yul\":3613:3630   */\n      add\n        /* \"#utility.yul\":3604:3610   */\n      dup5\n        /* \"#utility.yul\":3566:3631   */\n      tag_200\n      jump\t// in\n    tag_269:\n        /* \"#utility.yul\":3428:3638   */\n      swap3\n      swap2\n      pop\n      pop\n      jump\t// out\n        /* \"#utility.yul\":3644:3973   */\n    tag_36:\n        /* \"#utility.yul\":3703:3709   */\n      0x00\n        /* \"#utility.yul\":3752:3754   */\n      0x20\n        /* \"#utility.yul\":3740:3749   */\n      dup3\n        /* \"#utility.yul\":3731:3738   */\n      dup5\n        /* \"#utility.yul\":3727:3750   */\n      sub\n        /* \"#utility.yul\":3723:3755   */\n      slt\n        /* \"#utility.yul\":3720:3839   */\n      iszero\n      tag_271\n      jumpi\n        /* \"#utility.yul\":3758:3837   */\n      tag_272\n      tag_187\n      jump\t// in\n    tag_272:\n        /* \"#utility.yul\":3720:3839   */\n    tag_271:\n        /* \"#utility.yul\":3878:3879   */\n      0x00\n        /* \"#utility.yul\":3903:3956   */\n      tag_273\n        /* \"#utility.yul\":3948:3955   */\n      dup5\n        /* \"#utility.yul\":3939:3945   */\n      dup3\n        /* \"#utility.yul\":3928:3937   */\n      dup6\n        /* \"#utility.yul\":3924:3946   */\n      add\n        /* \"#utility.yul\":3903:3956   */\n      tag_198\n      jump\t// in\n    tag_273:\n        /* \"#utility.yul\":3893:3956   */\n      swap2\n      pop\n        /* \"#utility.yul\":3849:3966   */\n      pop\n        /* \"#utility.yul\":3644:3973   */\n      swap3\n      swap2\n      pop\n      pop\n      jump\t// out\n        /* \"#utility.yul\":3979:4078   */\n    tag_201:\n        /* \"#utility.yul\":4031:4037   */\n      0x00\n        /* \"#utility.yul\":4065:4070   */\n      dup2\n        /* \"#utility.yul\":4059:4071   */\n      mload\n        /* \"#utility.yul\":4049:4071   */\n      swap1\n      pop\n        /* \"#utility.yul\":3979:4078   */\n      swap2\n      swap1\n      pop\n      jump\t// out\n        /* \"#utility.yul\":4084:4253   */\n    tag_202:\n        /* \"#utility.yul\":4168:4179   */\n      0x00\n        /* \"#utility.yul\":4202:4208   */\n      dup3\n        /* \"#utility.yul\":4197:4200   */\n      dup3\n        /* \"#utility.yul\":4190:4209   */\n      mstore\n        /* \"#utility.yul\":4242:4246   */\n      0x20\n        /* \"#utility.yul\":4237:4240   */\n      dup3\n        /* \"#utility.yul\":4233:4247   */\n      add\n        /* \"#utility.yul\":4218:4247   */\n      swap1\n      pop\n        /* \"#utility.yul\":4084:4253   */\n      swap3\n      swap2\n      pop\n      pop\n      jump\t// out\n        /* \"#utility.yul\":4259:4566   */\n    tag_203:\n        /* \"#utility.yul\":4327:4328   */\n      0x00\n        /* \"#utility.yul\":4337:4450   */\n    tag_277:\n        /* \"#utility.yul\":4351:4357   */\n      dup4\n        /* \"#utility.yul\":4348:4349   */\n      dup2\n        /* \"#utility.yul\":4345:4358   */\n      lt\n        /* \"#utility.yul\":4337:4450   */\n      iszero\n      tag_279\n      jumpi\n        /* \"#utility.yul\":4436:4437   */\n      dup1\n        /* \"#utility.yul\":4431:4434   */\n      dup3\n        /* \"#utility.yul\":4427:4438   */\n      add\n        /* \"#utility.yul\":4421:4439   */\n      mload\n        /* \"#utility.yul\":4417:4418   */\n      dup2\n        /* \"#utility.yul\":4412:4415   */\n      dup5\n        /* \"#utility.yul\":4408:4419   */\n      add\n        /* \"#utility.yul\":4401:4440   */\n      mstore\n        /* \"#utility.yul\":4373:4375   */\n      0x20\n        /* \"#utility.yul\":4370:4371   */\n      dup2\n        /* \"#utility.yul\":4366:4376   */\n      add\n        /* \"#utility.yul\":4361:4376   */\n      swap1\n      pop\n        /* \"#utility.yul\":4337:4450   */\n      jump(tag_277)\n    tag_279:\n        /* \"#utility.yul\":4468:4474   */\n      dup4\n        /* \"#utility.yul\":4465:4466   */\n      dup2\n        /* \"#utility.yul\":4462:4475   */\n      gt\n        /* \"#utility.yul\":4459:4560   */\n      iszero\n      tag_280\n      jumpi\n        /* \"#utility.yul\":4548:4549   */\n      0x00\n        /* \"#utility.yul\":4539:4545   */\n      dup5\n        /* \"#utility.yul\":4534:4537   */\n      dup5\n        /* \"#utility.yul\":4530:4546   */\n      add\n        /* \"#utility.yul\":4523:4550   */\n      mstore\n        /* \"#utility.yul\":4459:4560   */\n    tag_280:\n        /* \"#utility.yul\":4308:4566   */\n      pop\n        /* \"#utility.yul\":4259:4566   */\n      pop\n      pop\n      pop\n      jump\t// out\n        /* \"#utility.yul\":4572:4674   */\n    tag_204:\n        /* \"#utility.yul\":4613:4619   */\n      0x00\n        /* \"#utility.yul\":4664:4666   */\n      0x1f\n        /* \"#utility.yul\":4660:4667   */\n      not\n        /* \"#utility.yul\":4655:4657   */\n      0x1f\n        /* \"#utility.yul\":4648:4653   */\n      dup4\n        /* \"#utility.yul\":4644:4658   */\n      add\n        /* \"#utility.yul\":4640:4668   */\n      and\n        /* \"#utility.yul\":4630:4668   */\n      swap1\n      pop\n        /* \"#utility.yul\":4572:4674   */\n      swap2\n      swap1\n      pop\n      jump\t// out\n        /* \"#utility.yul\":4680:5044   */\n    tag_205:\n        /* \"#utility.yul\":4768:4771   */\n      0x00\n        /* \"#utility.yul\":4796:4835   */\n      tag_283\n        /* \"#utility.yul\":4829:4834   */\n      dup3\n        /* \"#utility.yul\":4796:4835   */\n      tag_201\n      jump\t// in\n    tag_283:\n        /* \"#utility.yul\":4851:4922   */\n      tag_284\n        /* \"#utility.yul\":4915:4921   */\n      dup2\n        /* \"#utility.yul\":4910:4913   */\n      dup6\n        /* \"#utility.yul\":4851:4922   */\n      tag_202\n      jump\t// in\n    tag_284:\n        /* \"#utility.yul\":4844:4922   */\n      swap4\n      pop\n        /* \"#utility.yul\":4931:4983   */\n      tag_285\n        /* \"#utility.yul\":4976:4982   */\n      dup2\n        /* \"#utility.yul\":4971:4974   */\n      dup6\n        /* \"#utility.yul\":4964:4968   */\n      0x20\n        /* \"#utility.yul\":4957:4962   */\n      dup7\n        /* \"#utility.yul\":4953:4969   */\n      add\n        /* \"#utility.yul\":4931:4983   */\n      tag_203\n      jump\t// in\n    tag_285:\n        /* \"#utility.yul\":5008:5037   */\n      tag_286\n        /* \"#utility.yul\":5030:5036   */\n      dup2\n        /* \"#utility.yul\":5008:5037   */\n      tag_204\n      jump\t// in\n    tag_286:\n        /* \"#utility.yul\":5003:5006   */\n      dup5\n        /* \"#utility.yul\":4999:5038   */\n      add\n        /* \"#utility.yul\":4992:5038   */\n      swap2\n      pop\n        /* \"#utility.yul\":4772:5044   */\n      pop\n        /* \"#utility.yul\":4680:5044   */\n      swap3\n      swap2\n      pop\n      pop\n      jump\t// out\n        /* \"#utility.yul\":5050:5987   */\n    tag_39:\n        /* \"#utility.yul\":5315:5319   */\n      0x00\n        /* \"#utility.yul\":5353:5356   */\n      0xa0\n        /* \"#utility.yul\":5342:5351   */\n      dup3\n        /* \"#utility.yul\":5338:5357   */\n      add\n        /* \"#utility.yul\":5330:5357   */\n      swap1\n      pop\n        /* \"#utility.yul\":5403:5412   */\n      dup2\n        /* \"#utility.yul\":5397:5401   */\n      dup2\n        /* \"#utility.yul\":5393:5413   */\n      sub\n        /* \"#utility.yul\":5389:5390   */\n      0x00\n        /* \"#utility.yul\":5378:5387   */\n      dup4\n        /* \"#utility.yul\":5374:5391   */\n      add\n        /* \"#utility.yul\":5367:5414   */\n      mstore\n        /* \"#utility.yul\":5431:5509   */\n      tag_288\n        /* \"#utility.yul\":5504:5508   */\n      dup2\n        /* \"#utility.yul\":5495:5501   */\n      dup9\n        /* \"#utility.yul\":5431:5509   */\n      tag_205\n      jump\t// in\n    tag_288:\n        /* \"#utility.yul\":5423:5509   */\n      swap1\n      pop\n        /* \"#utility.yul\":5519:5591   */\n      tag_289\n        /* \"#utility.yul\":5587:5589   */\n      0x20\n        /* \"#utility.yul\":5576:5585   */\n      dup4\n        /* \"#utility.yul\":5572:5590   */\n      add\n        /* \"#utility.yul\":5563:5569   */\n      dup8\n        /* \"#utility.yul\":5519:5591   */\n      tag_193\n      jump\t// in\n    tag_289:\n        /* \"#utility.yul\":5638:5647   */\n      dup2\n        /* \"#utility.yul\":5632:5636   */\n      dup2\n        /* \"#utility.yul\":5628:5648   */\n      sub\n        /* \"#utility.yul\":5623:5625   */\n      0x40\n        /* \"#utility.yul\":5612:5621   */\n      dup4\n        /* \"#utility.yul\":5608:5626   */\n      add\n        /* \"#utility.yul\":5601:5649   */\n      mstore\n        /* \"#utility.yul\":5666:5744   */\n      tag_290\n        /* \"#utility.yul\":5739:5743   */\n      dup2\n        /* \"#utility.yul\":5730:5736   */\n      dup7\n        /* \"#utility.yul\":5666:5744   */\n      tag_205\n      jump\t// in\n    tag_290:\n        /* \"#utility.yul\":5658:5744   */\n      swap1\n      pop\n        /* \"#utility.yul\":5791:5800   */\n      dup2\n        /* \"#utility.yul\":5785:5789   */\n      dup2\n        /* \"#utility.yul\":5781:5801   */\n      sub\n        /* \"#utility.yul\":5776:5778   */\n      0x60\n        /* \"#utility.yul\":5765:5774   */\n      dup4\n        /* \"#utility.yul\":5761:5779   */\n      add\n        /* \"#utility.yul\":5754:5802   */\n      mstore\n        /* \"#utility.yul\":5819:5897   */\n      tag_291\n        /* \"#utility.yul\":5892:5896   */\n      dup2\n        /* \"#utility.yul\":5883:5889   */\n      dup6\n        /* \"#utility.yul\":5819:5897   */\n      tag_205\n      jump\t// in\n    tag_291:\n        /* \"#utility.yul\":5811:5897   */\n      swap1\n      pop\n        /* \"#utility.yul\":5907:5980   */\n      tag_292\n        /* \"#utility.yul\":5975:5978   */\n      0x80\n        /* \"#utility.yul\":5964:5973   */\n      dup4\n        /* \"#utility.yul\":5960:5979   */\n      add\n        /* \"#utility.yul\":5951:5957   */\n      dup5\n        /* \"#utility.yul\":5907:5980   */\n      tag_193\n      jump\t// in\n    tag_292:\n        /* \"#utility.yul\":5050:5987   */\n      swap7\n      swap6\n      pop\n      pop\n      pop\n      pop\n      pop\n      pop\n      jump\t// out\n        /* \"#utility.yul\":5993:6110   */\n    tag_206:\n        /* \"#utility.yul\":6102:6103   */\n      0x00\n        /* \"#utility.yul\":6099:6100   */\n      dup1\n        /* \"#utility.yul\":6092:6104   */\n      revert\n        /* \"#utility.yul\":6116:6233   */\n    tag_207:\n        /* \"#utility.yul\":6225:6226   */\n      0x00\n        /* \"#utility.yul\":6222:6223   */\n      dup1\n        /* \"#utility.yul\":6215:6227   */\n      revert\n        /* \"#utility.yul\":6239:6419   */\n    tag_208:\n        /* \"#utility.yul\":6287:6364   */\n      0x4e487b7100000000000000000000000000000000000000000000000000000000\n        /* \"#utility.yul\":6284:6285   */\n      0x00\n        /* \"#utility.yul\":6277:6365   */\n      mstore\n        /* \"#utility.yul\":6384:6388   */\n      0x41\n        /* \"#utility.yul\":6381:6382   */\n      0x04\n        /* \"#utility.yul\":6374:6389   */\n      mstore\n        /* \"#utility.yul\":6408:6412   */\n      0x24\n        /* \"#utility.yul\":6405:6406   */\n      0x00\n        /* \"#utility.yul\":6398:6413   */\n      revert\n        /* \"#utility.yul\":6425:6706   */\n    tag_209:\n        /* \"#utility.yul\":6508:6535   */\n      tag_297\n        /* \"#utility.yul\":6530:6534   */\n      dup3\n        /* \"#utility.yul\":6508:6535   */\n      tag_204\n      jump\t// in\n    tag_297:\n        /* \"#utility.yul\":6500:6506   */\n      dup2\n        /* \"#utility.yul\":6496:6536   */\n      add\n        /* \"#utility.yul\":6638:6644   */\n      dup2\n        /* \"#utility.yul\":6626:6636   */\n      dup2\n        /* \"#utility.yul\":6623:6645   */\n      lt\n        /* \"#utility.yul\":6602:6620   */\n      0xffffffffffffffff\n        /* \"#utility.yul\":6590:6600   */\n      dup3\n        /* \"#utility.yul\":6587:6621   */\n      gt\n        /* \"#utility.yul\":6584:6646   */\n      or\n        /* \"#utility.yul\":6581:6669   */\n      iszero\n      tag_298\n      jumpi\n        /* \"#utility.yul\":6649:6667   */\n      tag_299\n      tag_208\n      jump\t// in\n    tag_299:\n        /* \"#utility.yul\":6581:6669   */\n    tag_298:\n        /* \"#utility.yul\":6689:6699   */\n      dup1\n        /* \"#utility.yul\":6685:6687   */\n      0x40\n        /* \"#utility.yul\":6678:6700   */\n      mstore\n        /* \"#utility.yul\":6468:6706   */\n      pop\n        /* \"#utility.yul\":6425:6706   */\n      pop\n      pop\n      jump\t// out\n        /* \"#utility.yul\":6712:6841   */\n    tag_210:\n        /* \"#utility.yul\":6746:6752   */\n      0x00\n        /* \"#utility.yul\":6773:6793   */\n      tag_301\n      tag_186\n      jump\t// in\n    tag_301:\n        /* \"#utility.yul\":6763:6793   */\n      swap1\n      pop\n        /* \"#utility.yul\":6802:6835   */\n      tag_302\n        /* \"#utility.yul\":6830:6834   */\n      dup3\n        /* \"#utility.yul\":6822:6828   */\n      dup3\n        /* \"#utility.yul\":6802:6835   */\n      tag_209\n      jump\t// in\n    tag_302:\n        /* \"#utility.yul\":6712:6841   */\n      swap2\n      swap1\n      pop\n      jump\t// out\n        /* \"#utility.yul\":6847:7155   */\n    tag_211:\n        /* \"#utility.yul\":6909:6913   */\n      0x00\n        /* \"#utility.yul\":6999:7017   */\n      0xffffffffffffffff\n        /* \"#utility.yul\":6991:6997   */\n      dup3\n        /* \"#utility.yul\":6988:7018   */\n      gt\n        /* \"#utility.yul\":6985:7041   */\n      iszero\n      tag_304\n      jumpi\n        /* \"#utility.yul\":7021:7039   */\n      tag_305\n      tag_208\n      jump\t// in\n    tag_305:\n        /* \"#utility.yul\":6985:7041   */\n    tag_304:\n        /* \"#utility.yul\":7059:7088   */\n      tag_306\n        /* \"#utility.yul\":7081:7087   */\n      dup3\n        /* \"#utility.yul\":7059:7088   */\n      tag_204\n      jump\t// in\n    tag_306:\n        /* \"#utility.yul\":7051:7088   */\n      swap1\n      pop\n        /* \"#utility.yul\":7143:7147   */\n      0x20\n        /* \"#utility.yul\":7137:7141   */\n      dup2\n        /* \"#utility.yul\":7133:7148   */\n      add\n        /* \"#utility.yul\":7125:7148   */\n      swap1\n      pop\n        /* \"#utility.yul\":6847:7155   */\n      swap2\n      swap1\n      pop\n      jump\t// out\n        /* \"#utility.yul\":7161:7315   */\n    tag_212:\n        /* \"#utility.yul\":7245:7251   */\n      dup3\n        /* \"#utility.yul\":7240:7243   */\n      dup2\n        /* \"#utility.yul\":7235:7238   */\n      dup4\n        /* \"#utility.yul\":7222:7252   */\n      calldatacopy\n        /* \"#utility.yul\":7307:7308   */\n      0x00\n        /* \"#utility.yul\":7298:7304   */\n      dup4\n        /* \"#utility.yul\":7293:7296   */\n      dup4\n        /* \"#utility.yul\":7289:7305   */\n      add\n        /* \"#utility.yul\":7282:7309   */\n      mstore\n        /* \"#utility.yul\":7161:7315   */\n      pop\n      pop\n      pop\n      jump\t// out\n        /* \"#utility.yul\":7321:7733   */\n    tag_213:\n        /* \"#utility.yul\":7399:7404   */\n      0x00\n        /* \"#utility.yul\":7424:7490   */\n      tag_309\n        /* \"#utility.yul\":7440:7489   */\n      tag_310\n        /* \"#utility.yul\":7482:7488   */\n      dup5\n        /* \"#utility.yul\":7440:7489   */\n      tag_211\n      jump\t// in\n    tag_310:\n        /* \"#utility.yul\":7424:7490   */\n      tag_210\n      jump\t// in\n    tag_309:\n        /* \"#utility.yul\":7415:7490   */\n      swap1\n      pop\n        /* \"#utility.yul\":7513:7519   */\n      dup3\n        /* \"#utility.yul\":7506:7511   */\n      dup2\n        /* \"#utility.yul\":7499:7520   */\n      mstore\n        /* \"#utility.yul\":7551:7555   */\n      0x20\n        /* \"#utility.yul\":7544:7549   */\n      dup2\n        /* \"#utility.yul\":7540:7556   */\n      add\n        /* \"#utility.yul\":7589:7592   */\n      dup5\n        /* \"#utility.yul\":7580:7586   */\n      dup5\n        /* \"#utility.yul\":7575:7578   */\n      dup5\n        /* \"#utility.yul\":7571:7587   */\n      add\n        /* \"#utility.yul\":7568:7593   */\n      gt\n        /* \"#utility.yul\":7565:7677   */\n      iszero\n      tag_311\n      jumpi\n        /* \"#utility.yul\":7596:7675   */\n      tag_312\n      tag_207\n      jump\t// in\n    tag_312:\n        /* \"#utility.yul\":7565:7677   */\n    tag_311:\n        /* \"#utility.yul\":7686:7727   */\n      tag_313\n        /* \"#utility.yul\":7720:7726   */\n      dup5\n        /* \"#utility.yul\":7715:7718   */\n      dup3\n        /* \"#utility.yul\":7710:7713   */\n      dup6\n        /* \"#utility.yul\":7686:7727   */\n      tag_212\n      jump\t// in\n    tag_313:\n        /* \"#utility.yul\":7405:7733   */\n      pop\n        /* \"#utility.yul\":7321:7733   */\n      swap4\n      swap3\n      pop\n      pop\n      pop\n      jump\t// out\n        /* \"#utility.yul\":7753:8093   */\n    tag_214:\n        /* \"#utility.yul\":7809:7814   */\n      0x00\n        /* \"#utility.yul\":7858:7861   */\n      dup3\n        /* \"#utility.yul\":7851:7855   */\n      0x1f\n        /* \"#utility.yul\":7843:7849   */\n      dup4\n        /* \"#utility.yul\":7839:7856   */\n      add\n        /* \"#utility.yul\":7835:7862   */\n      slt\n        /* \"#utility.yul\":7825:7947   */\n      tag_315\n      jumpi\n        /* \"#utility.yul\":7866:7945   */\n      tag_316\n      tag_206\n      jump\t// in\n    tag_316:\n        /* \"#utility.yul\":7825:7947   */\n    tag_315:\n        /* \"#utility.yul\":7983:7989   */\n      dup2\n        /* \"#utility.yul\":7970:7990   */\n      calldataload\n        /* \"#utility.yul\":8008:8087   */\n      tag_317\n        /* \"#utility.yul\":8083:8086   */\n      dup5\n        /* \"#utility.yul\":8075:8081   */\n      dup3\n        /* \"#utility.yul\":8068:8072   */\n      0x20\n        /* \"#utility.yul\":8060:8066   */\n      dup7\n        /* \"#utility.yul\":8056:8073   */\n      add\n        /* \"#utility.yul\":8008:8087   */\n      tag_213\n      jump\t// in\n    tag_317:\n        /* \"#utility.yul\":7999:8087   */\n      swap2\n      pop\n        /* \"#utility.yul\":7815:8093   */\n      pop\n        /* \"#utility.yul\":7753:8093   */\n      swap3\n      swap2\n      pop\n      pop\n      jump\t// out\n        /* \"#utility.yul\":8099:8753   */\n    tag_53:\n        /* \"#utility.yul\":8177:8183   */\n      0x00\n        /* \"#utility.yul\":8185:8191   */\n      dup1\n        /* \"#utility.yul\":8234:8236   */\n      0x40\n        /* \"#utility.yul\":8222:8231   */\n      dup4\n        /* \"#utility.yul\":8213:8220   */\n      dup6\n        /* \"#utility.yul\":8209:8232   */\n      sub\n        /* \"#utility.yul\":8205:8237   */\n      slt\n        /* \"#utility.yul\":8202:8321   */\n      iszero\n      tag_319\n      jumpi\n        /* \"#utility.yul\":8240:8319   */\n      tag_320\n      tag_187\n      jump\t// in\n    tag_320:\n        /* \"#utility.yul\":8202:8321   */\n    tag_319:\n        /* \"#utility.yul\":8360:8361   */\n      0x00\n        /* \"#utility.yul\":8385:8438   */\n      tag_321\n        /* \"#utility.yul\":8430:8437   */\n      dup6\n        /* \"#utility.yul\":8421:8427   */\n      dup3\n        /* \"#utility.yul\":8410:8419   */\n      dup7\n        /* \"#utility.yul\":8406:8428   */\n      add\n        /* \"#utility.yul\":8385:8438   */\n      tag_192\n      jump\t// in\n    tag_321:\n        /* \"#utility.yul\":8375:8438   */\n      swap3\n      pop\n        /* \"#utility.yul\":8331:8448   */\n      pop\n        /* \"#utility.yul\":8515:8517   */\n      0x20\n        /* \"#utility.yul\":8504:8513   */\n      dup4\n        /* \"#utility.yul\":8500:8518   */\n      add\n        /* \"#utility.yul\":8487:8519   */\n      calldataload\n        /* \"#utility.yul\":8546:8564   */\n      0xffffffffffffffff\n        /* \"#utility.yul\":8538:8544   */\n      dup2\n        /* \"#utility.yul\":8535:8565   */\n      gt\n        /* \"#utility.yul\":8532:8649   */\n      iszero\n      tag_322\n      jumpi\n        /* \"#utility.yul\":8568:8647   */\n      tag_323\n      tag_188\n      jump\t// in\n    tag_323:\n        /* \"#utility.yul\":8532:8649   */\n    tag_322:\n        /* \"#utility.yul\":8673:8736   */\n      tag_324\n        /* \"#utility.yul\":8728:8735   */\n      dup6\n        /* \"#utility.yul\":8719:8725   */\n      dup3\n        /* \"#utility.yul\":8708:8717   */\n      dup7\n        /* \"#utility.yul\":8704:8726   */\n      add\n        /* \"#utility.yul\":8673:8736   */\n      tag_214\n      jump\t// in\n    tag_324:\n        /* \"#utility.yul\":8663:8736   */\n      swap2\n      pop\n        /* \"#utility.yul\":8458:8746   */\n      pop\n        /* \"#utility.yul\":8099:8753   */\n      swap3\n      pop\n      swap3\n      swap1\n      pop\n      jump\t// out\n        /* \"#utility.yul\":8759:8877   */\n    tag_215:\n        /* \"#utility.yul\":8846:8870   */\n      tag_326\n        /* \"#utility.yul\":8864:8869   */\n      dup2\n        /* \"#utility.yul\":8846:8870   */\n      tag_196\n      jump\t// in\n    tag_326:\n        /* \"#utility.yul\":8841:8844   */\n      dup3\n        /* \"#utility.yul\":8834:8871   */\n      mstore\n        /* \"#utility.yul\":8759:8877   */\n      pop\n      pop\n      jump\t// out\n        /* \"#utility.yul\":8883:9105   */\n    tag_56:\n        /* \"#utility.yul\":8976:8980   */\n      0x00\n        /* \"#utility.yul\":9014:9016   */\n      0x20\n        /* \"#utility.yul\":9003:9012   */\n      dup3\n        /* \"#utility.yul\":8999:9017   */\n      add\n        /* \"#utility.yul\":8991:9017   */\n      swap1\n      pop\n        /* \"#utility.yul\":9027:9098   */\n      tag_328\n        /* \"#utility.yul\":9095:9096   */\n      0x00\n        /* \"#utility.yul\":9084:9093   */\n      dup4\n        /* \"#utility.yul\":9080:9097   */\n      add\n        /* \"#utility.yul\":9071:9077   */\n      dup5\n        /* \"#utility.yul\":9027:9098   */\n      tag_215\n      jump\t// in\n    tag_328:\n        /* \"#utility.yul\":8883:9105   */\n      swap3\n      swap2\n      pop\n      pop\n      jump\t// out\n        /* \"#utility.yul\":9111:9585   */\n    tag_59:\n        /* \"#utility.yul\":9179:9185   */\n      0x00\n        /* \"#utility.yul\":9187:9193   */\n      dup1\n        /* \"#utility.yul\":9236:9238   */\n      0x40\n        /* \"#utility.yul\":9224:9233   */\n      dup4\n        /* \"#utility.yul\":9215:9222   */\n      dup6\n        /* \"#utility.yul\":9211:9234   */\n      sub\n        /* \"#utility.yul\":9207:9239   */\n      slt\n        /* \"#utility.yul\":9204:9323   */\n      iszero\n      tag_330\n      jumpi\n        /* \"#utility.yul\":9242:9321   */\n      tag_331\n      tag_187\n      jump\t// in\n    tag_331:\n        /* \"#utility.yul\":9204:9323   */\n    tag_330:\n        /* \"#utility.yul\":9362:9363   */\n      0x00\n        /* \"#utility.yul\":9387:9440   */\n      tag_332\n        /* \"#utility.yul\":9432:9439   */\n      dup6\n        /* \"#utility.yul\":9423:9429   */\n      dup3\n        /* \"#utility.yul\":9412:9421   */\n      dup7\n        /* \"#utility.yul\":9408:9430   */\n      add\n        /* \"#utility.yul\":9387:9440   */\n      tag_195\n      jump\t// in\n    tag_332:\n        /* \"#utility.yul\":9377:9440   */\n      swap3\n      pop\n        /* \"#utility.yul\":9333:9450   */\n      pop\n        /* \"#utility.yul\":9489:9491   */\n      0x20\n        /* \"#utility.yul\":9515:9568   */\n      tag_333\n        /* \"#utility.yul\":9560:9567   */\n      dup6\n        /* \"#utility.yul\":9551:9557   */\n      dup3\n        /* \"#utility.yul\":9540:9549   */\n      dup7\n        /* \"#utility.yul\":9536:9558   */\n      add\n        /* \"#utility.yul\":9515:9568   */\n      tag_198\n      jump\t// in\n    tag_333:\n        /* \"#utility.yul\":9505:9568   */\n      swap2\n      pop\n        /* \"#utility.yul\":9460:9578   */\n      pop\n        /* \"#utility.yul\":9111:9585   */\n      swap3\n      pop\n      swap3\n      swap1\n      pop\n      jump\t// out\n        /* \"#utility.yul\":9591:9920   */\n    tag_64:\n        /* \"#utility.yul\":9650:9656   */\n      0x00\n        /* \"#utility.yul\":9699:9701   */\n      0x20\n        /* \"#utility.yul\":9687:9696   */\n      dup3\n        /* \"#utility.yul\":9678:9685   */\n      dup5\n        /* \"#utility.yul\":9674:9697   */\n      sub\n        /* \"#utility.yul\":9670:9702   */\n      slt\n        /* \"#utility.yul\":9667:9786   */\n      iszero\n      tag_335\n      jumpi\n        /* \"#utility.yul\":9705:9784   */\n      tag_336\n      tag_187\n      jump\t// in\n    tag_336:\n        /* \"#utility.yul\":9667:9786   */\n    tag_335:\n        /* \"#utility.yul\":9825:9826   */\n      0x00\n        /* \"#utility.yul\":9850:9903   */\n      tag_337\n        /* \"#utility.yul\":9895:9902   */\n      dup5\n        /* \"#utility.yul\":9886:9892   */\n      dup3\n        /* \"#utility.yul\":9875:9884   */\n      dup6\n        /* \"#utility.yul\":9871:9893   */\n      add\n        /* \"#utility.yul\":9850:9903   */\n      tag_195\n      jump\t// in\n    tag_337:\n        /* \"#utility.yul\":9840:9903   */\n      swap2\n      pop\n        /* \"#utility.yul\":9796:9913   */\n      pop\n        /* \"#utility.yul\":9591:9920   */\n      swap3\n      swap2\n      pop\n      pop\n      jump\t// out\n        /* \"#utility.yul\":9926:11377   */\n    tag_73:\n        /* \"#utility.yul\":10051:10057   */\n      0x00\n        /* \"#utility.yul\":10059:10065   */\n      dup1\n        /* \"#utility.yul\":10067:10073   */\n      0x00\n        /* \"#utility.yul\":10075:10081   */\n      dup1\n        /* \"#utility.yul\":10083:10089   */\n      0x00\n        /* \"#utility.yul\":10132:10135   */\n      0xa0\n        /* \"#utility.yul\":10120:10129   */\n      dup7\n        /* \"#utility.yul\":10111:10118   */\n      dup9\n        /* \"#utility.yul\":10107:10130   */\n      sub\n        /* \"#utility.yul\":10103:10136   */\n      slt\n        /* \"#utility.yul\":10100:10220   */\n      iszero\n      tag_339\n      jumpi\n        /* \"#utility.yul\":10139:10218   */\n      tag_340\n      tag_187\n      jump\t// in\n    tag_340:\n        /* \"#utility.yul\":10100:10220   */\n    tag_339:\n        /* \"#utility.yul\":10287:10288   */\n      0x00\n        /* \"#utility.yul\":10276:10285   */\n      dup7\n        /* \"#utility.yul\":10272:10289   */\n      add\n        /* \"#utility.yul\":10259:10290   */\n      calldataload\n        /* \"#utility.yul\":10317:10335   */\n      0xffffffffffffffff\n        /* \"#utility.yul\":10309:10315   */\n      dup2\n        /* \"#utility.yul\":10306:10336   */\n      gt\n        /* \"#utility.yul\":10303:10420   */\n      iszero\n      tag_341\n      jumpi\n        /* \"#utility.yul\":10339:10418   */\n      tag_342\n      tag_188\n      jump\t// in\n    tag_342:\n        /* \"#utility.yul\":10303:10420   */\n    tag_341:\n        /* \"#utility.yul\":10444:10507   */\n      tag_343\n        /* \"#utility.yul\":10499:10506   */\n      dup9\n        /* \"#utility.yul\":10490:10496   */\n      dup3\n        /* \"#utility.yul\":10479:10488   */\n      dup10\n        /* \"#utility.yul\":10475:10497   */\n      add\n        /* \"#utility.yul\":10444:10507   */\n      tag_214\n      jump\t// in\n    tag_343:\n        /* \"#utility.yul\":10434:10507   */\n      swap6\n      pop\n        /* \"#utility.yul\":10230:10517   */\n      pop\n        /* \"#utility.yul\":10556:10558   */\n      0x20\n        /* \"#utility.yul\":10582:10635   */\n      tag_344\n        /* \"#utility.yul\":10627:10634   */\n      dup9\n        /* \"#utility.yul\":10618:10624   */\n      dup3\n        /* \"#utility.yul\":10607:10616   */\n      dup10\n        /* \"#utility.yul\":10603:10625   */\n      add\n        /* \"#utility.yul\":10582:10635   */\n      tag_192\n      jump\t// in\n    tag_344:\n        /* \"#utility.yul\":10572:10635   */\n      swap5\n      pop\n        /* \"#utility.yul\":10527:10645   */\n      pop\n        /* \"#utility.yul\":10712:10714   */\n      0x40\n        /* \"#utility.yul\":10701:10710   */\n      dup7\n        /* \"#utility.yul\":10697:10715   */\n      add\n        /* \"#utility.yul\":10684:10716   */\n      calldataload\n        /* \"#utility.yul\":10743:10761   */\n      0xffffffffffffffff\n        /* \"#utility.yul\":10735:10741   */\n      dup2\n        /* \"#utility.yul\":10732:10762   */\n      gt\n        /* \"#utility.yul\":10729:10846   */\n      iszero\n      tag_345\n      jumpi\n        /* \"#utility.yul\":10765:10844   */\n      tag_346\n      tag_188\n      jump\t// in\n    tag_346:\n        /* \"#utility.yul\":10729:10846   */\n    tag_345:\n        /* \"#utility.yul\":10870:10933   */\n      tag_347\n        /* \"#utility.yul\":10925:10932   */\n      dup9\n        /* \"#utility.yul\":10916:10922   */\n      dup3\n        /* \"#utility.yul\":10905:10914   */\n      dup10\n        /* \"#utility.yul\":10901:10923   */\n      add\n        /* \"#utility.yul\":10870:10933   */\n      tag_214\n      jump\t// in\n    tag_347:\n        /* \"#utility.yul\":10860:10933   */\n      swap4\n      pop\n        /* \"#utility.yul\":10655:10943   */\n      pop\n        /* \"#utility.yul\":11010:11012   */\n      0x60\n        /* \"#utility.yul\":10999:11008   */\n      dup7\n        /* \"#utility.yul\":10995:11013   */\n      add\n        /* \"#utility.yul\":10982:11014   */\n      calldataload\n        /* \"#utility.yul\":11041:11059   */\n      0xffffffffffffffff\n        /* \"#utility.yul\":11033:11039   */\n      dup2\n        /* \"#utility.yul\":11030:11060   */\n      gt\n        /* \"#utility.yul\":11027:11144   */\n      iszero\n      tag_348\n      jumpi\n        /* \"#utility.yul\":11063:11142   */\n      tag_349\n      tag_188\n      jump\t// in\n    tag_349:\n        /* \"#utility.yul\":11027:11144   */\n    tag_348:\n        /* \"#utility.yul\":11168:11231   */\n      tag_350\n        /* \"#utility.yul\":11223:11230   */\n      dup9\n        /* \"#utility.yul\":11214:11220   */\n      dup3\n        /* \"#utility.yul\":11203:11212   */\n      dup10\n        /* \"#utility.yul\":11199:11221   */\n      add\n        /* \"#utility.yul\":11168:11231   */\n      tag_214\n      jump\t// in\n    tag_350:\n        /* \"#utility.yul\":11158:11231   */\n      swap3\n      pop\n        /* \"#utility.yul\":10953:11241   */\n      pop\n        /* \"#utility.yul\":11280:11283   */\n      0x80\n        /* \"#utility.yul\":11307:11360   */\n      tag_351\n        /* \"#utility.yul\":11352:11359   */\n      dup9\n        /* \"#utility.yul\":11343:11349   */\n      dup3\n        /* \"#utility.yul\":11332:11341   */\n      dup10\n        /* \"#utility.yul\":11328:11350   */\n      add\n        /* \"#utility.yul\":11307:11360   */\n      tag_192\n      jump\t// in\n    tag_351:\n        /* \"#utility.yul\":11297:11360   */\n      swap2\n      pop\n        /* \"#utility.yul\":11251:11370   */\n      pop\n        /* \"#utility.yul\":9926:11377   */\n      swap3\n      swap6\n      pop\n      swap3\n      swap6\n      swap1\n      swap4\n      pop\n      jump\t// out\n        /* \"#utility.yul\":11383:11563   */\n    tag_84:\n        /* \"#utility.yul\":11431:11508   */\n      0x4e487b7100000000000000000000000000000000000000000000000000000000\n        /* \"#utility.yul\":11428:11429   */\n      0x00\n        /* \"#utility.yul\":11421:11509   */\n      mstore\n        /* \"#utility.yul\":11528:11532   */\n      0x32\n        /* \"#utility.yul\":11525:11526   */\n      0x04\n        /* \"#utility.yul\":11518:11533   */\n      mstore\n        /* \"#utility.yul\":11552:11556   */\n      0x24\n        /* \"#utility.yul\":11549:11550   */\n      0x00\n        /* \"#utility.yul\":11542:11557   */\n      revert\n        /* \"#utility.yul\":11569:11749   */\n    tag_216:\n        /* \"#utility.yul\":11617:11694   */\n      0x4e487b7100000000000000000000000000000000000000000000000000000000\n        /* \"#utility.yul\":11614:11615   */\n      0x00\n        /* \"#utility.yul\":11607:11695   */\n      mstore\n        /* \"#utility.yul\":11714:11718   */\n      0x22\n        /* \"#utility.yul\":11711:11712   */\n      0x04\n        /* \"#utility.yul\":11704:11719   */\n      mstore\n        /* \"#utility.yul\":11738:11742   */\n      0x24\n        /* \"#utility.yul\":11735:11736   */\n      0x00\n        /* \"#utility.yul\":11728:11743   */\n      revert\n        /* \"#utility.yul\":11755:12075   */\n    tag_88:\n        /* \"#utility.yul\":11799:11805   */\n      0x00\n        /* \"#utility.yul\":11836:11837   */\n      0x02\n        /* \"#utility.yul\":11830:11834   */\n      dup3\n        /* \"#utility.yul\":11826:11838   */\n      div\n        /* \"#utility.yul\":11816:11838   */\n      swap1\n      pop\n        /* \"#utility.yul\":11883:11884   */\n      0x01\n        /* \"#utility.yul\":11877:11881   */\n      dup3\n        /* \"#utility.yul\":11873:11885   */\n      and\n        /* \"#utility.yul\":11904:11922   */\n      dup1\n        /* \"#utility.yul\":11894:11975   */\n      tag_355\n      jumpi\n        /* \"#utility.yul\":11960:11964   */\n      0x7f\n        /* \"#utility.yul\":11952:11958   */\n      dup3\n        /* \"#utility.yul\":11948:11965   */\n      and\n        /* \"#utility.yul\":11938:11965   */\n      swap2\n      pop\n        /* \"#utility.yul\":11894:11975   */\n    tag_355:\n        /* \"#utility.yul\":12022:12024   */\n      0x20\n        /* \"#utility.yul\":12014:12020   */\n      dup3\n        /* \"#utility.yul\":12011:12025   */\n      lt\n        /* \"#utility.yul\":11991:12009   */\n      dup2\n        /* \"#utility.yul\":11988:12026   */\n      eq\n        /* \"#utility.yul\":11985:12069   */\n      iszero\n      tag_356\n      jumpi\n        /* \"#utility.yul\":12041:12059   */\n      tag_357\n      tag_216\n      jump\t// in\n    tag_357:\n        /* \"#utility.yul\":11985:12069   */\n    tag_356:\n        /* \"#utility.yul\":11806:12075   */\n      pop\n        /* \"#utility.yul\":11755:12075   */\n      swap2\n      swap1\n      pop\n      jump\t// out\n        /* \"#utility.yul\":12081:12175   */\n    tag_217:\n        /* \"#utility.yul\":12114:12122   */\n      0x00\n        /* \"#utility.yul\":12162:12167   */\n      dup2\n        /* \"#utility.yul\":12158:12160   */\n      0x60\n        /* \"#utility.yul\":12154:12168   */\n      shl\n        /* \"#utility.yul\":12133:12168   */\n      swap1\n      pop\n        /* \"#utility.yul\":12081:12175   */\n      swap2\n      swap1\n      pop\n      jump\t// out\n        /* \"#utility.yul\":12181:12275   */\n    tag_218:\n        /* \"#utility.yul\":12220:12227   */\n      0x00\n        /* \"#utility.yul\":12249:12269   */\n      tag_360\n        /* \"#utility.yul\":12263:12268   */\n      dup3\n        /* \"#utility.yul\":12249:12269   */\n      tag_217\n      jump\t// in\n    tag_360:\n        /* \"#utility.yul\":12238:12269   */\n      swap1\n      pop\n        /* \"#utility.yul\":12181:12275   */\n      swap2\n      swap1\n      pop\n      jump\t// out\n        /* \"#utility.yul\":12281:12381   */\n    tag_219:\n        /* \"#utility.yul\":12320:12327   */\n      0x00\n        /* \"#utility.yul\":12349:12375   */\n      tag_362\n        /* \"#utility.yul\":12369:12374   */\n      dup3\n        /* \"#utility.yul\":12349:12375   */\n      tag_218\n      jump\t// in\n    tag_362:\n        /* \"#utility.yul\":12338:12375   */\n      swap1\n      pop\n        /* \"#utility.yul\":12281:12381   */\n      swap2\n      swap1\n      pop\n      jump\t// out\n        /* \"#utility.yul\":12387:12544   */\n    tag_220:\n        /* \"#utility.yul\":12492:12537   */\n      tag_364\n        /* \"#utility.yul\":12512:12536   */\n      tag_365\n        /* \"#utility.yul\":12530:12535   */\n      dup3\n        /* \"#utility.yul\":12512:12536   */\n      tag_190\n      jump\t// in\n    tag_365:\n        /* \"#utility.yul\":12492:12537   */\n      tag_219\n      jump\t// in\n    tag_364:\n        /* \"#utility.yul\":12487:12490   */\n      dup3\n        /* \"#utility.yul\":12480:12538   */\n      mstore\n        /* \"#utility.yul\":12387:12544   */\n      pop\n      pop\n      jump\t// out\n        /* \"#utility.yul\":12550:12698   */\n    tag_221:\n        /* \"#utility.yul\":12652:12663   */\n      0x00\n        /* \"#utility.yul\":12689:12692   */\n      dup2\n        /* \"#utility.yul\":12674:12692   */\n      swap1\n      pop\n        /* \"#utility.yul\":12550:12698   */\n      swap3\n      swap2\n      pop\n      pop\n      jump\t// out\n        /* \"#utility.yul\":12704:13081   */\n    tag_222:\n        /* \"#utility.yul\":12810:12813   */\n      0x00\n        /* \"#utility.yul\":12838:12877   */\n      tag_368\n        /* \"#utility.yul\":12871:12876   */\n      dup3\n        /* \"#utility.yul\":12838:12877   */\n      tag_201\n      jump\t// in\n    tag_368:\n        /* \"#utility.yul\":12893:12982   */\n      tag_369\n        /* \"#utility.yul\":12975:12981   */\n      dup2\n        /* \"#utility.yul\":12970:12973   */\n      dup6\n        /* \"#utility.yul\":12893:12982   */\n      tag_221\n      jump\t// in\n    tag_369:\n        /* \"#utility.yul\":12886:12982   */\n      swap4\n      pop\n        /* \"#utility.yul\":12991:13043   */\n      tag_370\n        /* \"#utility.yul\":13036:13042   */\n      dup2\n        /* \"#utility.yul\":13031:13034   */\n      dup6\n        /* \"#utility.yul\":13024:13028   */\n      0x20\n        /* \"#utility.yul\":13017:13022   */\n      dup7\n        /* \"#utility.yul\":13013:13029   */\n      add\n        /* \"#utility.yul\":12991:13043   */\n      tag_203\n      jump\t// in\n    tag_370:\n        /* \"#utility.yul\":13068:13074   */\n      dup1\n        /* \"#utility.yul\":13063:13066   */\n      dup5\n        /* \"#utility.yul\":13059:13075   */\n      add\n        /* \"#utility.yul\":13052:13075   */\n      swap2\n      pop\n        /* \"#utility.yul\":12814:13081   */\n      pop\n        /* \"#utility.yul\":12704:13081   */\n      swap3\n      swap2\n      pop\n      pop\n      jump\t// out\n        /* \"#utility.yul\":13087:13503   */\n    tag_121:\n        /* \"#utility.yul\":13247:13250   */\n      0x00\n        /* \"#utility.yul\":13262:13337   */\n      tag_372\n        /* \"#utility.yul\":13333:13336   */\n      dup3\n        /* \"#utility.yul\":13324:13330   */\n      dup6\n        /* \"#utility.yul\":13262:13337   */\n      tag_220\n      jump\t// in\n    tag_372:\n        /* \"#utility.yul\":13362:13364   */\n      0x14\n        /* \"#utility.yul\":13357:13360   */\n      dup3\n        /* \"#utility.yul\":13353:13365   */\n      add\n        /* \"#utility.yul\":13346:13365   */\n      swap2\n      pop\n        /* \"#utility.yul\":13382:13477   */\n      tag_373\n        /* \"#utility.yul\":13473:13476   */\n      dup3\n        /* \"#utility.yul\":13464:13470   */\n      dup5\n        /* \"#utility.yul\":13382:13477   */\n      tag_222\n      jump\t// in\n    tag_373:\n        /* \"#utility.yul\":13375:13477   */\n      swap2\n      pop\n        /* \"#utility.yul\":13494:13497   */\n      dup2\n        /* \"#utility.yul\":13487:13497   */\n      swap1\n      pop\n        /* \"#utility.yul\":13087:13503   */\n      swap4\n      swap3\n      pop\n      pop\n      pop\n      jump\t// out\n\n    auxdata: 0xa2646970667358221220defaf1607a1c636c5330a69b1ec4ecc3bc0a53d243ce277acd49e7322fe1929e64736f6c634300080a0033\n}\n",
    "bytecode": {
      "linkReferences": {},
      "object": "608060405234801561001057600080fd5b50336000806101000a81548173ffffffffffffffffffffffffffffffffffffffff021916908373ffffffffffffffffffffffffffffffffffffffff160217905550611ba3806100606000396000f3fe608060405234801561001057600080fd5b50600436106100cf5760003560e01c806382f7d3921161008c578063a7c32a1211610066578063a7c32a1214610268578063bf5665271461029c578063c1819436146102cc578063ed8de80f146102e8576100cf565b806382f7d392146101d85780638a97503d14610208578063956a354514610238576100cf565b806330c6189f146100d45780633f2f1784146100f25780634268ddbd14610122578063435df20d14610152578063460598f414610186578063673a1746146101ba575b600080fd5b6100dc61031c565b6040516100e9919061143d565b60405180910390f35b61010c600480360381019061010791906114ca565b610329565b6040516101199190611506565b60405180910390f35b61013c60048036038101906101379190611583565b610392565b60405161014991906115f1565b60405180910390f35b61016c6004803603810190610167919061160c565b610458565b60405161017d9594939291906116d2565b60405180910390f35b6101a0600480360381019061019b919061160c565b610711565b6040516101b19594939291906116d2565b60405180910390f35b6101c261091f565b6040516101cf9190611506565b60405180910390f35b6101f260048036038101906101ed91906114ca565b610943565b6040516101ff91906115f1565b60405180910390f35b610222600480360381019061021d919061186f565b6109db565b60405161022f91906118da565b60405180910390f35b610252600480360381019061024d91906118f5565b610a0e565b60405161025f91906115f1565b60405180910390f35b610282600480360381019061027d9190611935565b610ad4565b6040516102939594939291906116d2565b60405180910390f35b6102b660048036038101906102b191906114ca565b610d9c565b6040516102c39190611506565b60405180910390f35b6102e660048036038101906102e19190611962565b610dcf565b005b61030260048036038101906102fd9190611935565b611108565b6040516103139594939291906116d2565b60405180910390f35b6000600180549050905090565b6000600360008373ffffffffffffffffffffffffffffffffffffffff1673ffffffffffffffffffffffffffffffffffffffff16815260200190815260200160002060009054906101000a900473ffffffffffffffffffffffffffffffffffffffff169050919050565b600081600185815481106103a9576103a8611a31565b5b906000526020600020906005020160040160006101000a81548173ffffffffffffffffffffffffffffffffffffffff021916908373ffffffffffffffffffffffffffffffffffffffff160217905550816002600085815260200190815260200160002060040160006101000a81548173ffffffffffffffffffffffffffffffffffffffff021916908373ffffffffffffffffffffffffffffffffffffffff160217905550600190509392505050565b60606000606080600080600260008881526020019081526020016000206040518060a001604052908160008201805461049090611a8f565b80601f01602080910402602001604051908101604052809291908181526020018280546104bc90611a8f565b80156105095780601f106104de57610100808354040283529160200191610509565b820191906000526020600020905b8154815290600101906020018083116104ec57829003601f168201915b505050505081526020016001820160009054906101000a900473ffffffffffffffffffffffffffffffffffffffff1673ffffffffffffffffffffffffffffffffffffffff1673ffffffffffffffffffffffffffffffffffffffff16815260200160028201805461057890611a8f565b80601f01602080910402602001604051908101604052809291908181526020018280546105a490611a8f565b80156105f15780601f106105c6576101008083540402835291602001916105f1565b820191906000526020600020905b8154815290600101906020018083116105d457829003601f168201915b5050505050815260200160038201805461060a90611a8f565b80601f016020809104026020016040519081016040528092919081815260200182805461063690611a8f565b80156106835780601f1061065857610100808354040283529160200191610683565b820191906000526020600020905b81548152906001019060200180831161066657829003601f168201915b505050505081526020016004820160009054906101000a900473ffffffffffffffffffffffffffffffffffffffff1673ffffffffffffffffffffffffffffffffffffffff1673ffffffffffffffffffffffffffffffffffffffff1681525050905080600001518160200151826040015183606001518460800151955095509550955095505091939590929450565b600260205280600052604060002060009150905080600001805461073490611a8f565b80601f016020809104026020016040519081016040528092919081815260200182805461076090611a8f565b80156107ad5780601f10610782576101008083540402835291602001916107ad565b820191906000526020600020905b81548152906001019060200180831161079057829003601f168201915b5050505050908060010160009054906101000a900473ffffffffffffffffffffffffffffffffffffffff16908060020180546107e890611a8f565b80601f016020809104026020016040519081016040528092919081815260200182805461081490611a8f565b80156108615780601f1061083657610100808354040283529160200191610861565b820191906000526020600020905b81548152906001019060200180831161084457829003601f168201915b50505050509080600301805461087690611a8f565b80601f01602080910402602001604051908101604052809291908181526020018280546108a290611a8f565b80156108ef5780601f106108c4576101008083540402835291602001916108ef565b820191906000526020600020905b8154815290600101906020018083116108d257829003601f168201915b5050505050908060040160009054906101000a900473ffffffffffffffffffffffffffffffffffffffff16905085565b60008054906101000a900473ffffffffffffffffffffffffffffffffffffffff1681565b60008073ffffffffffffffffffffffffffffffffffffffff16600360008473ffffffffffffffffffffffffffffffffffffffff1673ffffffffffffffffffffffffffffffffffffffff16815260200190815260200160002060009054906101000a900473ffffffffffffffffffffffffffffffffffffffff1673ffffffffffffffffffffffffffffffffffffffff1614159050919050565b600082826040516020016109f0929190611b45565b60405160208183030381529060405280519060200120905092915050565b60008060018481548110610a2557610a24611a31565b5b906000526020600020906005020160040160006101000a81548173ffffffffffffffffffffffffffffffffffffffff021916908373ffffffffffffffffffffffffffffffffffffffff16021790555060006002600084815260200190815260200160002060040160006101000a81548173ffffffffffffffffffffffffffffffffffffffff021916908373ffffffffffffffffffffffffffffffffffffffff1602179055506001905092915050565b6060600060608060008060018781548110610af257610af1611a31565b5b90600052602060002090600502016040518060a0016040529081600082018054610b1b90611a8f565b80601f0160208091040260200160405190810160405280929190818152602001828054610b4790611a8f565b8015610b945780601f10610b6957610100808354040283529160200191610b94565b820191906000526020600020905b815481529060010190602001808311610b7757829003601f168201915b505050505081526020016001820160009054906101000a900473ffffffffffffffffffffffffffffffffffffffff1673ffffffffffffffffffffffffffffffffffffffff1673ffffffffffffffffffffffffffffffffffffffff168152602001600282018054610c0390611a8f565b80601f0160208091040260200160405190810160405280929190818152602001828054610c2f90611a8f565b8015610c7c5780601f10610c5157610100808354040283529160200191610c7c565b820191906000526020600020905b815481529060010190602001808311610c5f57829003601f168201915b50505050508152602001600382018054610c9590611a8f565b80601f0160208091040260200160405190810160405280929190818152602001828054610cc190611a8f565b8015610d0e5780601f10610ce357610100808354040283529160200191610d0e565b820191906000526020600020905b815481529060010190602001808311610cf157829003601f168201915b505050505081526020016004820160009054906101000a900473ffffffffffffffffffffffffffffffffffffffff1673ffffffffffffffffffffffffffffffffffffffff1673ffffffffffffffffffffffffffffffffffffffff1681525050905080600001518160200151826040015183606001518460800151955095509550955095505091939590929450565b60036020528060005260406000206000915054906101000a900473ffffffffffffffffffffffffffffffffffffffff1681565b600080610ddc86856109db565b9050610de6611326565b87816000018190525086816020019073ffffffffffffffffffffffffffffffffffffffff16908173ffffffffffffffffffffffffffffffffffffffff168152505085816040018190525084816060018190525082816080019073ffffffffffffffffffffffffffffffffffffffff16908173ffffffffffffffffffffffffffffffffffffffff168152505080600260008481526020019081526020016000206000820151816000019080519060200190610ea1929190611381565b5060208201518160010160006101000a81548173ffffffffffffffffffffffffffffffffffffffff021916908373ffffffffffffffffffffffffffffffffffffffff1602179055506040820151816002019080519060200190610f05929190611381565b506060820151816003019080519060200190610f22929190611381565b5060808201518160040160006101000a81548173ffffffffffffffffffffffffffffffffffffffff021916908373ffffffffffffffffffffffffffffffffffffffff16021790555090505083600360008973ffffffffffffffffffffffffffffffffffffffff1673ffffffffffffffffffffffffffffffffffffffff16815260200190815260200160002060006101000a81548173ffffffffffffffffffffffffffffffffffffffff021916908373ffffffffffffffffffffffffffffffffffffffff16021790555060018190806001815401808255809150506001900390600052602060002090600502016000909190919091506000820151816000019080519060200190611033929190611381565b5060208201518160010160006101000a81548173ffffffffffffffffffffffffffffffffffffffff021916908373ffffffffffffffffffffffffffffffffffffffff1602179055506040820151816002019080519060200190611097929190611381565b5060608201518160030190805190602001906110b4929190611381565b5060808201518160040160006101000a81548173ffffffffffffffffffffffffffffffffffffffff021916908373ffffffffffffffffffffffffffffffffffffffff16021790555050505050505050505050565b6001818154811061111857600080fd5b906000526020600020906005020160009150905080600001805461113b90611a8f565b80601f016020809104026020016040519081016040528092919081815260200182805461116790611a8f565b80156111b45780601f10611189576101008083540402835291602001916111b4565b820191906000526020600020905b81548152906001019060200180831161119757829003601f168201915b5050505050908060010160009054906101000a900473ffffffffffffffffffffffffffffffffffffffff16908060020180546111ef90611a8f565b80601f016020809104026020016040519081016040528092919081815260200182805461121b90611a8f565b80156112685780601f1061123d57610100808354040283529160200191611268565b820191906000526020600020905b81548152906001019060200180831161124b57829003601f168201915b50505050509080600301805461127d90611a8f565b80601f01602080910402602001604051908101604052809291908181526020018280546112a990611a8f565b80156112f65780601f106112cb576101008083540402835291602001916112f6565b820191906000526020600020905b8154815290600101906020018083116112d957829003601f168201915b5050505050908060040160009054906101000a900473ffffffffffffffffffffffffffffffffffffffff16905085565b6040518060a0016040528060608152602001600073ffffffffffffffffffffffffffffffffffffffff1681526020016060815260200160608152602001600073ffffffffffffffffffffffffffffffffffffffff1681525090565b82805461138d90611a8f565b90600052602060002090601f0160209004810192826113af57600085556113f6565b82601f106113c857805160ff19168380011785556113f6565b828001600101855582156113f6579182015b828111156113f55782518255916020019190600101906113da565b5b5090506114039190611407565b5090565b5b80821115611420576000816000905550600101611408565b5090565b6000819050919050565b61143781611424565b82525050565b6000602082019050611452600083018461142e565b92915050565b6000604051905090565b600080fd5b600080fd5b600073ffffffffffffffffffffffffffffffffffffffff82169050919050565b60006114978261146c565b9050919050565b6114a78161148c565b81146114b257600080fd5b50565b6000813590506114c48161149e565b92915050565b6000602082840312156114e0576114df611462565b5b60006114ee848285016114b5565b91505092915050565b6115008161148c565b82525050565b600060208201905061151b60008301846114f7565b92915050565b61152a81611424565b811461153557600080fd5b50565b60008135905061154781611521565b92915050565b6000819050919050565b6115608161154d565b811461156b57600080fd5b50565b60008135905061157d81611557565b92915050565b60008060006060848603121561159c5761159b611462565b5b60006115aa86828701611538565b93505060206115bb8682870161156e565b92505060406115cc868287016114b5565b9150509250925092565b60008115159050919050565b6115eb816115d6565b82525050565b600060208201905061160660008301846115e2565b92915050565b60006020828403121561162257611621611462565b5b60006116308482850161156e565b91505092915050565b600081519050919050565b600082825260208201905092915050565b60005b83811015611673578082015181840152602081019050611658565b83811115611682576000848401525b50505050565b6000601f19601f8301169050919050565b60006116a482611639565b6116ae8185611644565b93506116be818560208601611655565b6116c781611688565b840191505092915050565b600060a08201905081810360008301526116ec8188611699565b90506116fb60208301876114f7565b818103604083015261170d8186611699565b905081810360608301526117218185611699565b905061173060808301846114f7565b9695505050505050565b600080fd5b600080fd5b7f4e487b7100000000000000000000000000000000000000000000000000000000600052604160045260246000fd5b61177c82611688565b810181811067ffffffffffffffff8211171561179b5761179a611744565b5b80604052505050565b60006117ae611458565b90506117ba8282611773565b919050565b600067ffffffffffffffff8211156117da576117d9611744565b5b6117e382611688565b9050602081019050919050565b82818337600083830152505050565b600061181261180d846117bf565b6117a4565b90508281526020810184848401111561182e5761182d61173f565b5b6118398482856117f0565b509392505050565b600082601f8301126118565761185561173a565b5b81356118668482602086016117ff565b91505092915050565b6000806040838503121561188657611885611462565b5b6000611894858286016114b5565b925050602083013567ffffffffffffffff8111156118b5576118b4611467565b5b6118c185828601611841565b9150509250929050565b6118d48161154d565b82525050565b60006020820190506118ef60008301846118cb565b92915050565b6000806040838503121561190c5761190b611462565b5b600061191a85828601611538565b925050602061192b8582860161156e565b9150509250929050565b60006020828403121561194b5761194a611462565b5b600061195984828501611538565b91505092915050565b600080600080600060a0868803121561197e5761197d611462565b5b600086013567ffffffffffffffff81111561199c5761199b611467565b5b6119a888828901611841565b95505060206119b9888289016114b5565b945050604086013567ffffffffffffffff8111156119da576119d9611467565b5b6119e688828901611841565b935050606086013567ffffffffffffffff811115611a0757611a06611467565b5b611a1388828901611841565b9250506080611a24888289016114b5565b9150509295509295909350565b7f4e487b7100000000000000000000000000000000000000000000000000000000600052603260045260246000fd5b7f4e487b7100000000000000000000000000000000000000000000000000000000600052602260045260246000fd5b60006002820490506001821680611aa757607f821691505b60208210811415611abb57611aba611a60565b5b50919050565b60008160601b9050919050565b6000611ad982611ac1565b9050919050565b6000611aeb82611ace565b9050919050565b611b03611afe8261148c565b611ae0565b82525050565b600081905092915050565b6000611b1f82611639565b611b298185611b09565b9350611b39818560208601611655565b80840191505092915050565b6000611b518285611af2565b601482019150611b618284611b14565b9150819050939250505056fea2646970667358221220defaf1607a1c636c5330a69b1ec4ecc3bc0a53d243ce277acd49e7322fe1929e64736f6c634300080a0033",
      "opcodes": "PUSH1 0x80 PUSH1 0x40 MSTORE CALLVALUE DUP1 ISZERO PUSH2 0x10 JUMPI PUSH1 0x0 DUP1 REVERT JUMPDEST POP CALLER PUSH1 0x0 DUP1 PUSH2 0x100 EXP DUP2 SLOAD DUP2 PUSH20 0xFFFFFFFFFFFFFFFFFFFFFFFFFFFFFFFFFFFFFFFF MUL NOT AND SWAP1 DUP4 PUSH20 0xFFFFFFFFFFFFFFFFFFFFFFFFFFFFFFFFFFFFFFFF AND MUL OR SWAP1 SSTORE POP PUSH2 0x1BA3 DUP1 PUSH2 0x60 PUSH1 0x0 CODECOPY PUSH1 0x0 RETURN INVALID PUSH1 0x80 PUSH1 0x40 MSTORE CALLVALUE DUP1 ISZERO PUSH2 0x10 JUMPI PUSH1 0x0 DUP1 REVERT JUMPDEST POP PUSH1 0x4 CALLDATASIZE LT PUSH2 0xCF JUMPI PUSH1 0x0 CALLDATALOAD PUSH1 0xE0 SHR DUP1 PUSH4 0x82F7D392 GT PUSH2 0x8C JUMPI DUP1 PUSH4 0xA7C32A12 GT PUSH2 0x66 JUMPI DUP1 PUSH4 0xA7C32A12 EQ PUSH2 0x268 JUMPI DUP1 PUSH4 0xBF566527 EQ PUSH2 0x29C JUMPI DUP1 PUSH4 0xC1819436 EQ PUSH2 0x2CC JUMPI DUP1 PUSH4 0xED8DE80F EQ PUSH2 0x2E8 JUMPI PUSH2 0xCF JUMP JUMPDEST DUP1 PUSH4 0x82F7D392 EQ PUSH2 0x1D8 JUMPI DUP1 PUSH4 0x8A97503D EQ PUSH2 0x208 JUMPI DUP1 PUSH4 0x956A3545 EQ PUSH2 0x238 JUMPI PUSH2 0xCF JUMP JUMPDEST DUP1 PUSH4 0x30C6189F EQ PUSH2 0xD4 JUMPI DUP1 PUSH4 0x3F2F1784 EQ PUSH2 0xF2 JUMPI DUP1 PUSH4 0x4268DDBD EQ PUSH2 0x122 JUMPI DUP1 PUSH4 0x435DF20D EQ PUSH2 0x152 JUMPI DUP1 PUSH4 0x460598F4 EQ PUSH2 0x186 JUMPI DUP1 PUSH4 0x673A1746 EQ PUSH2 0x1BA JUMPI JUMPDEST PUSH1 0x0 DUP1 REVERT JUMPDEST PUSH2 0xDC PUSH2 0x31C JUMP JUMPDEST PUSH1 0x40 MLOAD PUSH2 0xE9 SWAP2 SWAP1 PUSH2 0x143D JUMP JUMPDEST PUSH1 0x40 MLOAD DUP1 SWAP2 SUB SWAP1 RETURN JUMPDEST PUSH2 0x10C PUSH1 0x4 DUP1 CALLDATASIZE SUB DUP2 ADD SWAP1 PUSH2 0x107 SWAP2 SWAP1 PUSH2 0x14CA JUMP JUMPDEST PUSH2 0x329 JUMP JUMPDEST PUSH1 0x40 MLOAD PUSH2 0x119 SWAP2 SWAP1 PUSH2 0x1506 JUMP JUMPDEST PUSH1 0x40 MLOAD DUP1 SWAP2 SUB SWAP1 RETURN JUMPDEST PUSH2 0x13C PUSH1 0x4 DUP1 CALLDATASIZE SUB DUP2 ADD SWAP1 PUSH2 0x137 SWAP2 SWAP1 PUSH2 0x1583 JUMP JUMPDEST PUSH2 0x392 JUMP JUMPDEST PUSH1 0x40 MLOAD PUSH2 0x149 SWAP2 SWAP1 PUSH2 0x15F1 JUMP JUMPDEST PUSH1 0x40 MLOAD DUP1 SWAP2 SUB SWAP1 RETURN JUMPDEST PUSH2 0x16C PUSH1 0x4 DUP1 CALLDATASIZE SUB DUP2 ADD SWAP1 PUSH2 0x167 SWAP2 SWAP1 PUSH2 0x160C JUMP JUMPDEST PUSH2 0x458 JUMP JUMPDEST PUSH1 0x40 MLOAD PUSH2 0x17D SWAP6 SWAP5 SWAP4 SWAP3 SWAP2 SWAP1 PUSH2 0x16D2 JUMP JUMPDEST PUSH1 0x40 MLOAD DUP1 SWAP2 SUB SWAP1 RETURN JUMPDEST PUSH2 0x1A0 PUSH1 0x4 DUP1 CALLDATASIZE SUB DUP2 ADD SWAP1 PUSH2 0x19B SWAP2 SWAP1 PUSH2 0x160C JUMP JUMPDEST PUSH2 0x711 JUMP JUMPDEST PUSH1 0x40 MLOAD PUSH2 0x1B1 SWAP6 SWAP5 SWAP4 SWAP3 SWAP2 SWAP1 PUSH2 0x16D2 JUMP JUMPDEST PUSH1 0x40 MLOAD DUP1 SWAP2 SUB SWAP1 RETURN JUMPDEST PUSH2 0x1C2 PUSH2 0x91F JUMP JUMPDEST PUSH1 0x40 MLOAD PUSH2 0x1CF SWAP2 SWAP1 PUSH2 0x1506 JUMP JUMPDEST PUSH1 0x40 MLOAD DUP1 SWAP2 SUB SWAP1 RETURN JUMPDEST PUSH2 0x1F2 PUSH1 0x4 DUP1 CALLDATASIZE SUB DUP2 ADD SWAP1 PUSH2 0x1ED SWAP2 SWAP1 PUSH2 0x14CA JUMP JUMPDEST PUSH2 0x943 JUMP JUMPDEST PUSH1 0x40 MLOAD PUSH2 0x1FF SWAP2 SWAP1 PUSH2 0x15F1 JUMP JUMPDEST PUSH1 0x40 MLOAD DUP1 SWAP2 SUB SWAP1 RETURN JUMPDEST PUSH2 0x222 PUSH1 0x4 DUP1 CALLDATASIZE SUB DUP2 ADD SWAP1 PUSH2 0x21D SWAP2 SWAP1 PUSH2 0x186F JUMP JUMPDEST PUSH2 0x9DB JUMP JUMPDEST PUSH1 0x40 MLOAD PUSH2 0x22F SWAP2 SWAP1 PUSH2 0x18DA JUMP JUMPDEST PUSH1 0x40 MLOAD DUP1 SWAP2 SUB SWAP1 RETURN JUMPDEST PUSH2 0x252 PUSH1 0x4 DUP1 CALLDATASIZE SUB DUP2 ADD SWAP1 PUSH2 0x24D SWAP2 SWAP1 PUSH2 0x18F5 JUMP JUMPDEST PUSH2 0xA0E JUMP JUMPDEST PUSH1 0x40 MLOAD PUSH2 0x25F SWAP2 SWAP1 PUSH2 0x15F1 JUMP JUMPDEST PUSH1 0x40 MLOAD DUP1 SWAP2 SUB SWAP1 RETURN JUMPDEST PUSH2 0x282 PUSH1 0x4 DUP1 CALLDATASIZE SUB DUP2 ADD SWAP1 PUSH2 0x27D SWAP2 SWAP1 PUSH2 0x1935 JUMP JUMPDEST PUSH2 0xAD4 JUMP JUMPDEST PUSH1 0x40 MLOAD PUSH2 0x293 SWAP6 SWAP5 SWAP4 SWAP3 SWAP2 SWAP1 PUSH2 0x16D2 JUMP JUMPDEST PUSH1 0x40 MLOAD DUP1 SWAP2 SUB SWAP1 RETURN JUMPDEST PUSH2 0x2B6 PUSH1 0x4 DUP1 CALLDATASIZE SUB DUP2 ADD SWAP1 PUSH2 0x2B1 SWAP2 SWAP1 PUSH2 0x14CA JUMP JUMPDEST PUSH2 0xD9C JUMP JUMPDEST PUSH1 0x40 MLOAD PUSH2 0x2C3 SWAP2 SWAP1 PUSH2 0x1506 JUMP JUMPDEST PUSH1 0x40 MLOAD DUP1 SWAP2 SUB SWAP1 RETURN JUMPDEST PUSH2 0x2E6 PUSH1 0x4 DUP1 CALLDATASIZE SUB DUP2 ADD SWAP1 PUSH2 0x2E1 SWAP2 SWAP1 PUSH2 0x1962 JUMP JUMPDEST PUSH2 0xDCF JUMP JUMPDEST STOP JUMPDEST PUSH2 0x302 PUSH1 0x4 DUP1 CALLDATASIZE SUB DUP2 ADD SWAP1 PUSH2 0x2FD SWAP2 SWAP1 PUSH2 0x1935 JUMP JUMPDEST PUSH2 0x1108 JUMP JUMPDEST PUSH1 0x40 MLOAD PUSH2 0x313 SWAP6 SWAP5 SWAP4 SWAP3 SWAP2 SWAP1 PUSH2 0x16D2 JUMP JUMPDEST PUSH1 0x40 MLOAD DUP1 SWAP2 SUB SWAP1 RETURN JUMPDEST PUSH1 0x0 PUSH1 0x1 DUP1 SLOAD SWAP1 POP SWAP1 POP SWAP1 JUMP JUMPDEST PUSH1 0x0 PUSH1 0x3 PUSH1 0x0 DUP4 PUSH20 0xFFFFFFFFFFFFFFFFFFFFFFFFFFFFFFFFFFFFFFFF AND PUSH20 0xFFFFFFFFFFFFFFFFFFFFFFFFFFFFFFFFFFFFFFFF AND DUP2 MSTORE PUSH1 0x20 ADD SWAP1 DUP2 MSTORE PUSH1 0x20 ADD PUSH1 0x0 KECCAK256 PUSH1 0x0 SWAP1 SLOAD SWAP1 PUSH2 0x100 EXP SWAP1 DIV PUSH20 0xFFFFFFFFFFFFFFFFFFFFFFFFFFFFFFFFFFFFFFFF AND SWAP1 POP SWAP2 SWAP1 POP JUMP JUMPDEST PUSH1 0x0 DUP2 PUSH1 0x1 DUP6 DUP2 SLOAD DUP2 LT PUSH2 0x3A9 JUMPI PUSH2 0x3A8 PUSH2 0x1A31 JUMP JUMPDEST JUMPDEST SWAP1 PUSH1 0x0 MSTORE PUSH1 0x20 PUSH1 0x0 KECCAK256 SWAP1 PUSH1 0x5 MUL ADD PUSH1 0x4 ADD PUSH1 0x0 PUSH2 0x100 EXP DUP2 SLOAD DUP2 PUSH20 0xFFFFFFFFFFFFFFFFFFFFFFFFFFFFFFFFFFFFFFFF MUL NOT AND SWAP1 DUP4 PUSH20 0xFFFFFFFFFFFFFFFFFFFFFFFFFFFFFFFFFFFFFFFF AND MUL OR SWAP1 SSTORE POP DUP2 PUSH1 0x2 PUSH1 0x0 DUP6 DUP2 MSTORE PUSH1 0x20 ADD SWAP1 DUP2 MSTORE PUSH1 0x20 ADD PUSH1 0x0 KECCAK256 PUSH1 0x4 ADD PUSH1 0x0 PUSH2 0x100 EXP DUP2 SLOAD DUP2 PUSH20 0xFFFFFFFFFFFFFFFFFFFFFFFFFFFFFFFFFFFFFFFF MUL NOT AND SWAP1 DUP4 PUSH20 0xFFFFFFFFFFFFFFFFFFFFFFFFFFFFFFFFFFFFFFFF AND MUL OR SWAP1 SSTORE POP PUSH1 0x1 SWAP1 POP SWAP4 SWAP3 POP POP POP JUMP JUMPDEST PUSH1 0x60 PUSH1 0x0 PUSH1 0x60 DUP1 PUSH1 0x0 DUP1 PUSH1 0x2 PUSH1 0x0 DUP9 DUP2 MSTORE PUSH1 0x20 ADD SWAP1 DUP2 MSTORE PUSH1 0x20 ADD PUSH1 0x0 KECCAK256 PUSH1 0x40 MLOAD DUP1 PUSH1 0xA0 ADD PUSH1 0x40 MSTORE SWAP1 DUP2 PUSH1 0x0 DUP3 ADD DUP1 SLOAD PUSH2 0x490 SWAP1 PUSH2 0x1A8F JUMP JUMPDEST DUP1 PUSH1 0x1F ADD PUSH1 0x20 DUP1 SWAP2 DIV MUL PUSH1 0x20 ADD PUSH1 0x40 MLOAD SWAP1 DUP2 ADD PUSH1 0x40 MSTORE DUP1 SWAP3 SWAP2 SWAP1 DUP2 DUP2 MSTORE PUSH1 0x20 ADD DUP3 DUP1 SLOAD PUSH2 0x4BC SWAP1 PUSH2 0x1A8F JUMP JUMPDEST DUP1 ISZERO PUSH2 0x509 JUMPI DUP1 PUSH1 0x1F LT PUSH2 0x4DE JUMPI PUSH2 0x100 DUP1 DUP4 SLOAD DIV MUL DUP4 MSTORE SWAP2 PUSH1 0x20 ADD SWAP2 PUSH2 0x509 JUMP JUMPDEST DUP3 ADD SWAP2 SWAP1 PUSH1 0x0 MSTORE PUSH1 0x20 PUSH1 0x0 KECCAK256 SWAP1 JUMPDEST DUP2 SLOAD DUP2 MSTORE SWAP1 PUSH1 0x1 ADD SWAP1 PUSH1 0x20 ADD DUP1 DUP4 GT PUSH2 0x4EC JUMPI DUP3 SWAP1 SUB PUSH1 0x1F AND DUP3 ADD SWAP2 JUMPDEST POP POP POP POP POP DUP2 MSTORE PUSH1 0x20 ADD PUSH1 0x1 DUP3 ADD PUSH1 0x0 SWAP1 SLOAD SWAP1 PUSH2 0x100 EXP SWAP1 DIV PUSH20 0xFFFFFFFFFFFFFFFFFFFFFFFFFFFFFFFFFFFFFFFF AND PUSH20 0xFFFFFFFFFFFFFFFFFFFFFFFFFFFFFFFFFFFFFFFF AND PUSH20 0xFFFFFFFFFFFFFFFFFFFFFFFFFFFFFFFFFFFFFFFF AND DUP2 MSTORE PUSH1 0x20 ADD PUSH1 0x2 DUP3 ADD DUP1 SLOAD PUSH2 0x578 SWAP1 PUSH2 0x1A8F JUMP JUMPDEST DUP1 PUSH1 0x1F ADD PUSH1 0x20 DUP1 SWAP2 DIV MUL PUSH1 0x20 ADD PUSH1 0x40 MLOAD SWAP1 DUP2 ADD PUSH1 0x40 MSTORE DUP1 SWAP3 SWAP2 SWAP1 DUP2 DUP2 MSTORE PUSH1 0x20 ADD DUP3 DUP1 SLOAD PUSH2 0x5A4 SWAP1 PUSH2 0x1A8F JUMP JUMPDEST DUP1 ISZERO PUSH2 0x5F1 JUMPI DUP1 PUSH1 0x1F LT PUSH2 0x5C6 JUMPI PUSH2 0x100 DUP1 DUP4 SLOAD DIV MUL DUP4 MSTORE SWAP2 PUSH1 0x20 ADD SWAP2 PUSH2 0x5F1 JUMP JUMPDEST DUP3 ADD SWAP2 SWAP1 PUSH1 0x0 MSTORE PUSH1 0x20 PUSH1 0x0 KECCAK256 SWAP1 JUMPDEST DUP2 SLOAD DUP2 MSTORE SWAP1 PUSH1 0x1 ADD SWAP1 PUSH1 0x20 ADD DUP1 DUP4 GT PUSH2 0x5D4 JUMPI DUP3 SWAP1 SUB PUSH1 0x1F AND DUP3 ADD SWAP2 JUMPDEST POP POP POP POP POP DUP2 MSTORE PUSH1 0x20 ADD PUSH1 0x3 DUP3 ADD DUP1 SLOAD PUSH2 0x60A SWAP1 PUSH2 0x1A8F JUMP JUMPDEST DUP1 PUSH1 0x1F ADD PUSH1 0x20 DUP1 SWAP2 DIV MUL PUSH1 0x20 ADD PUSH1 0x40 MLOAD SWAP1 DUP2 ADD PUSH1 0x40 MSTORE DUP1 SWAP3 SWAP2 SWAP1 DUP2 DUP2 MSTORE PUSH1 0x20 ADD DUP3 DUP1 SLOAD PUSH2 0x636 SWAP1 PUSH2 0x1A8F JUMP JUMPDEST DUP1 ISZERO PUSH2 0x683 JUMPI DUP1 PUSH1 0x1F LT PUSH2 0x658 JUMPI PUSH2 0x100 DUP1 DUP4 SLOAD DIV MUL DUP4 MSTORE SWAP2 PUSH1 0x20 ADD SWAP2 PUSH2 0x683 JUMP JUMPDEST DUP3 ADD SWAP2 SWAP1 PUSH1 0x0 MSTORE PUSH1 0x20 PUSH1 0x0 KECCAK256 SWAP1 JUMPDEST DUP2 SLOAD DUP2 MSTORE SWAP1 PUSH1 0x1 ADD SWAP1 PUSH1 0x20 ADD DUP1 DUP4 GT PUSH2 0x666 JUMPI DUP3 SWAP1 SUB PUSH1 0x1F AND DUP3 ADD SWAP2 JUMPDEST POP POP POP POP POP DUP2 MSTORE PUSH1 0x20 ADD PUSH1 0x4 DUP3 ADD PUSH1 0x0 SWAP1 SLOAD SWAP1 PUSH2 0x100 EXP SWAP1 DIV PUSH20 0xFFFFFFFFFFFFFFFFFFFFFFFFFFFFFFFFFFFFFFFF AND PUSH20 0xFFFFFFFFFFFFFFFFFFFFFFFFFFFFFFFFFFFFFFFF AND PUSH20 0xFFFFFFFFFFFFFFFFFFFFFFFFFFFFFFFFFFFFFFFF AND DUP2 MSTORE POP POP SWAP1 POP DUP1 PUSH1 0x0 ADD MLOAD DUP2 PUSH1 0x20 ADD MLOAD DUP3 PUSH1 0x40 ADD MLOAD DUP4 PUSH1 0x60 ADD MLOAD DUP5 PUSH1 0x80 ADD MLOAD SWAP6 POP SWAP6 POP SWAP6 POP SWAP6 POP SWAP6 POP POP SWAP2 SWAP4 SWAP6 SWAP1 SWAP3 SWAP5 POP JUMP JUMPDEST PUSH1 0x2 PUSH1 0x20 MSTORE DUP1 PUSH1 0x0 MSTORE PUSH1 0x40 PUSH1 0x0 KECCAK256 PUSH1 0x0 SWAP2 POP SWAP1 POP DUP1 PUSH1 0x0 ADD DUP1 SLOAD PUSH2 0x734 SWAP1 PUSH2 0x1A8F JUMP JUMPDEST DUP1 PUSH1 0x1F ADD PUSH1 0x20 DUP1 SWAP2 DIV MUL PUSH1 0x20 ADD PUSH1 0x40 MLOAD SWAP1 DUP2 ADD PUSH1 0x40 MSTORE DUP1 SWAP3 SWAP2 SWAP1 DUP2 DUP2 MSTORE PUSH1 0x20 ADD DUP3 DUP1 SLOAD PUSH2 0x760 SWAP1 PUSH2 0x1A8F JUMP JUMPDEST DUP1 ISZERO PUSH2 0x7AD JUMPI DUP1 PUSH1 0x1F LT PUSH2 0x782 JUMPI PUSH2 0x100 DUP1 DUP4 SLOAD DIV MUL DUP4 MSTORE SWAP2 PUSH1 0x20 ADD SWAP2 PUSH2 0x7AD JUMP JUMPDEST DUP3 ADD SWAP2 SWAP1 PUSH1 0x0 MSTORE PUSH1 0x20 PUSH1 0x0 KECCAK256 SWAP1 JUMPDEST DUP2 SLOAD DUP2 MSTORE SWAP1 PUSH1 0x1 ADD SWAP1 PUSH1 0x20 ADD DUP1 DUP4 GT PUSH2 0x790 JUMPI DUP3 SWAP1 SUB PUSH1 0x1F AND DUP3 ADD SWAP2 JUMPDEST POP POP POP POP POP SWAP1 DUP1 PUSH1 0x1 ADD PUSH1 0x0 SWAP1 SLOAD SWAP1 PUSH2 0x100 EXP SWAP1 DIV PUSH20 0xFFFFFFFFFFFFFFFFFFFFFFFFFFFFFFFFFFFFFFFF AND SWAP1 DUP1 PUSH1 0x2 ADD DUP1 SLOAD PUSH2 0x7E8 SWAP1 PUSH2 0x1A8F JUMP JUMPDEST DUP1 PUSH1 0x1F ADD PUSH1 0x20 DUP1 SWAP2 DIV MUL PUSH1 0x20 ADD PUSH1 0x40 MLOAD SWAP1 DUP2 ADD PUSH1 0x40 MSTORE DUP1 SWAP3 SWAP2 SWAP1 DUP2 DUP2 MSTORE PUSH1 0x20 ADD DUP3 DUP1 SLOAD PUSH2 0x814 SWAP1 PUSH2 0x1A8F JUMP JUMPDEST DUP1 ISZERO PUSH2 0x861 JUMPI DUP1 PUSH1 0x1F LT PUSH2 0x836 JUMPI PUSH2 0x100 DUP1 DUP4 SLOAD DIV MUL DUP4 MSTORE SWAP2 PUSH1 0x20 ADD SWAP2 PUSH2 0x861 JUMP JUMPDEST DUP3 ADD SWAP2 SWAP1 PUSH1 0x0 MSTORE PUSH1 0x20 PUSH1 0x0 KECCAK256 SWAP1 JUMPDEST DUP2 SLOAD DUP2 MSTORE SWAP1 PUSH1 0x1 ADD SWAP1 PUSH1 0x20 ADD DUP1 DUP4 GT PUSH2 0x844 JUMPI DUP3 SWAP1 SUB PUSH1 0x1F AND DUP3 ADD SWAP2 JUMPDEST POP POP POP POP POP SWAP1 DUP1 PUSH1 0x3 ADD DUP1 SLOAD PUSH2 0x876 SWAP1 PUSH2 0x1A8F JUMP JUMPDEST DUP1 PUSH1 0x1F ADD PUSH1 0x20 DUP1 SWAP2 DIV MUL PUSH1 0x20 ADD PUSH1 0x40 MLOAD SWAP1 DUP2 ADD PUSH1 0x40 MSTORE DUP1 SWAP3 SWAP2 SWAP1 DUP2 DUP2 MSTORE PUSH1 0x20 ADD DUP3 DUP1 SLOAD PUSH2 0x8A2 SWAP1 PUSH2 0x1A8F JUMP JUMPDEST DUP1 ISZERO PUSH2 0x8EF JUMPI DUP1 PUSH1 0x1F LT PUSH2 0x8C4 JUMPI PUSH2 0x100 DUP1 DUP4 SLOAD DIV MUL DUP4 MSTORE SWAP2 PUSH1 0x20 ADD SWAP2 PUSH2 0x8EF JUMP JUMPDEST DUP3 ADD SWAP2 SWAP1 PUSH1 0x0 MSTORE PUSH1 0x20 PUSH1 0x0 KECCAK256 SWAP1 JUMPDEST DUP2 SLOAD DUP2 MSTORE SWAP1 PUSH1 0x1 ADD SWAP1 PUSH1 0x20 ADD DUP1 DUP4 GT PUSH2 0x8D2 JUMPI DUP3 SWAP1 SUB PUSH1 0x1F AND DUP3 ADD SWAP2 JUMPDEST POP POP POP POP POP SWAP1 DUP1 PUSH1 0x4 ADD PUSH1 0x0 SWAP1 SLOAD SWAP1 PUSH2 0x100 EXP SWAP1 DIV PUSH20 0xFFFFFFFFFFFFFFFFFFFFFFFFFFFFFFFFFFFFFFFF AND SWAP1 POP DUP6 JUMP JUMPDEST PUSH1 0x0 DUP1 SLOAD SWAP1 PUSH2 0x100 EXP SWAP1 DIV PUSH20 0xFFFFFFFFFFFFFFFFFFFFFFFFFFFFFFFFFFFFFFFF AND DUP2 JUMP JUMPDEST PUSH1 0x0 DUP1 PUSH20 0xFFFFFFFFFFFFFFFFFFFFFFFFFFFFFFFFFFFFFFFF AND PUSH1 0x3 PUSH1 0x0 DUP5 PUSH20 0xFFFFFFFFFFFFFFFFFFFFFFFFFFFFFFFFFFFFFFFF AND PUSH20 0xFFFFFFFFFFFFFFFFFFFFFFFFFFFFFFFFFFFFFFFF AND DUP2 MSTORE PUSH1 0x20 ADD SWAP1 DUP2 MSTORE PUSH1 0x20 ADD PUSH1 0x0 KECCAK256 PUSH1 0x0 SWAP1 SLOAD SWAP1 PUSH2 0x100 EXP SWAP1 DIV PUSH20 0xFFFFFFFFFFFFFFFFFFFFFFFFFFFFFFFFFFFFFFFF AND PUSH20 0xFFFFFFFFFFFFFFFFFFFFFFFFFFFFFFFFFFFFFFFF AND EQ ISZERO SWAP1 POP SWAP2 SWAP1 POP JUMP JUMPDEST PUSH1 0x0 DUP3 DUP3 PUSH1 0x40 MLOAD PUSH1 0x20 ADD PUSH2 0x9F0 SWAP3 SWAP2 SWAP1 PUSH2 0x1B45 JUMP JUMPDEST PUSH1 0x40 MLOAD PUSH1 0x20 DUP2 DUP4 SUB SUB DUP2 MSTORE SWAP1 PUSH1 0x40 MSTORE DUP1 MLOAD SWAP1 PUSH1 0x20 ADD KECCAK256 SWAP1 POP SWAP3 SWAP2 POP POP JUMP JUMPDEST PUSH1 0x0 DUP1 PUSH1 0x1 DUP5 DUP2 SLOAD DUP2 LT PUSH2 0xA25 JUMPI PUSH2 0xA24 PUSH2 0x1A31 JUMP JUMPDEST JUMPDEST SWAP1 PUSH1 0x0 MSTORE PUSH1 0x20 PUSH1 0x0 KECCAK256 SWAP1 PUSH1 0x5 MUL ADD PUSH1 0x4 ADD PUSH1 0x0 PUSH2 0x100 EXP DUP2 SLOAD DUP2 PUSH20 0xFFFFFFFFFFFFFFFFFFFFFFFFFFFFFFFFFFFFFFFF MUL NOT AND SWAP1 DUP4 PUSH20 0xFFFFFFFFFFFFFFFFFFFFFFFFFFFFFFFFFFFFFFFF AND MUL OR SWAP1 SSTORE POP PUSH1 0x0 PUSH1 0x2 PUSH1 0x0 DUP5 DUP2 MSTORE PUSH1 0x20 ADD SWAP1 DUP2 MSTORE PUSH1 0x20 ADD PUSH1 0x0 KECCAK256 PUSH1 0x4 ADD PUSH1 0x0 PUSH2 0x100 EXP DUP2 SLOAD DUP2 PUSH20 0xFFFFFFFFFFFFFFFFFFFFFFFFFFFFFFFFFFFFFFFF MUL NOT AND SWAP1 DUP4 PUSH20 0xFFFFFFFFFFFFFFFFFFFFFFFFFFFFFFFFFFFFFFFF AND MUL OR SWAP1 SSTORE POP PUSH1 0x1 SWAP1 POP SWAP3 SWAP2 POP POP JUMP JUMPDEST PUSH1 0x60 PUSH1 0x0 PUSH1 0x60 DUP1 PUSH1 0x0 DUP1 PUSH1 0x1 DUP8 DUP2 SLOAD DUP2 LT PUSH2 0xAF2 JUMPI PUSH2 0xAF1 PUSH2 0x1A31 JUMP JUMPDEST JUMPDEST SWAP1 PUSH1 0x0 MSTORE PUSH1 0x20 PUSH1 0x0 KECCAK256 SWAP1 PUSH1 0x5 MUL ADD PUSH1 0x40 MLOAD DUP1 PUSH1 0xA0 ADD PUSH1 0x40 MSTORE SWAP1 DUP2 PUSH1 0x0 DUP3 ADD DUP1 SLOAD PUSH2 0xB1B SWAP1 PUSH2 0x1A8F JUMP JUMPDEST DUP1 PUSH1 0x1F ADD PUSH1 0x20 DUP1 SWAP2 DIV MUL PUSH1 0x20 ADD PUSH1 0x40 MLOAD SWAP1 DUP2 ADD PUSH1 0x40 MSTORE DUP1 SWAP3 SWAP2 SWAP1 DUP2 DUP2 MSTORE PUSH1 0x20 ADD DUP3 DUP1 SLOAD PUSH2 0xB47 SWAP1 PUSH2 0x1A8F JUMP JUMPDEST DUP1 ISZERO PUSH2 0xB94 JUMPI DUP1 PUSH1 0x1F LT PUSH2 0xB69 JUMPI PUSH2 0x100 DUP1 DUP4 SLOAD DIV MUL DUP4 MSTORE SWAP2 PUSH1 0x20 ADD SWAP2 PUSH2 0xB94 JUMP JUMPDEST DUP3 ADD SWAP2 SWAP1 PUSH1 0x0 MSTORE PUSH1 0x20 PUSH1 0x0 KECCAK256 SWAP1 JUMPDEST DUP2 SLOAD DUP2 MSTORE SWAP1 PUSH1 0x1 ADD SWAP1 PUSH1 0x20 ADD DUP1 DUP4 GT PUSH2 0xB77 JUMPI DUP3 SWAP1 SUB PUSH1 0x1F AND DUP3 ADD SWAP2 JUMPDEST POP POP POP POP POP DUP2 MSTORE PUSH1 0x20 ADD PUSH1 0x1 DUP3 ADD PUSH1 0x0 SWAP1 SLOAD SWAP1 PUSH2 0x100 EXP SWAP1 DIV PUSH20 0xFFFFFFFFFFFFFFFFFFFFFFFFFFFFFFFFFFFFFFFF AND PUSH20 0xFFFFFFFFFFFFFFFFFFFFFFFFFFFFFFFFFFFFFFFF AND PUSH20 0xFFFFFFFFFFFFFFFFFFFFFFFFFFFFFFFFFFFFFFFF AND DUP2 MSTORE PUSH1 0x20 ADD PUSH1 0x2 DUP3 ADD DUP1 SLOAD PUSH2 0xC03 SWAP1 PUSH2 0x1A8F JUMP JUMPDEST DUP1 PUSH1 0x1F ADD PUSH1 0x20 DUP1 SWAP2 DIV MUL PUSH1 0x20 ADD PUSH1 0x40 MLOAD SWAP1 DUP2 ADD PUSH1 0x40 MSTORE DUP1 SWAP3 SWAP2 SWAP1 DUP2 DUP2 MSTORE PUSH1 0x20 ADD DUP3 DUP1 SLOAD PUSH2 0xC2F SWAP1 PUSH2 0x1A8F JUMP JUMPDEST DUP1 ISZERO PUSH2 0xC7C JUMPI DUP1 PUSH1 0x1F LT PUSH2 0xC51 JUMPI PUSH2 0x100 DUP1 DUP4 SLOAD DIV MUL DUP4 MSTORE SWAP2 PUSH1 0x20 ADD SWAP2 PUSH2 0xC7C JUMP JUMPDEST DUP3 ADD SWAP2 SWAP1 PUSH1 0x0 MSTORE PUSH1 0x20 PUSH1 0x0 KECCAK256 SWAP1 JUMPDEST DUP2 SLOAD DUP2 MSTORE SWAP1 PUSH1 0x1 ADD SWAP1 PUSH1 0x20 ADD DUP1 DUP4 GT PUSH2 0xC5F JUMPI DUP3 SWAP1 SUB PUSH1 0x1F AND DUP3 ADD SWAP2 JUMPDEST POP POP POP POP POP DUP2 MSTORE PUSH1 0x20 ADD PUSH1 0x3 DUP3 ADD DUP1 SLOAD PUSH2 0xC95 SWAP1 PUSH2 0x1A8F JUMP JUMPDEST DUP1 PUSH1 0x1F ADD PUSH1 0x20 DUP1 SWAP2 DIV MUL PUSH1 0x20 ADD PUSH1 0x40 MLOAD SWAP1 DUP2 ADD PUSH1 0x40 MSTORE DUP1 SWAP3 SWAP2 SWAP1 DUP2 DUP2 MSTORE PUSH1 0x20 ADD DUP3 DUP1 SLOAD PUSH2 0xCC1 SWAP1 PUSH2 0x1A8F JUMP JUMPDEST DUP1 ISZERO PUSH2 0xD0E JUMPI DUP1 PUSH1 0x1F LT PUSH2 0xCE3 JUMPI PUSH2 0x100 DUP1 DUP4 SLOAD DIV MUL DUP4 MSTORE SWAP2 PUSH1 0x20 ADD SWAP2 PUSH2 0xD0E JUMP JUMPDEST DUP3 ADD SWAP2 SWAP1 PUSH1 0x0 MSTORE PUSH1 0x20 PUSH1 0x0 KECCAK256 SWAP1 JUMPDEST DUP2 SLOAD DUP2 MSTORE SWAP1 PUSH1 0x1 ADD SWAP1 PUSH1 0x20 ADD DUP1 DUP4 GT PUSH2 0xCF1 JUMPI DUP3 SWAP1 SUB PUSH1 0x1F AND DUP3 ADD SWAP2 JUMPDEST POP POP POP POP POP DUP2 MSTORE PUSH1 0x20 ADD PUSH1 0x4 DUP3 ADD PUSH1 0x0 SWAP1 SLOAD SWAP1 PUSH2 0x100 EXP SWAP1 DIV PUSH20 0xFFFFFFFFFFFFFFFFFFFFFFFFFFFFFFFFFFFFFFFF AND PUSH20 0xFFFFFFFFFFFFFFFFFFFFFFFFFFFFFFFFFFFFFFFF AND PUSH20 0xFFFFFFFFFFFFFFFFFFFFFFFFFFFFFFFFFFFFFFFF AND DUP2 MSTORE POP POP SWAP1 POP DUP1 PUSH1 0x0 ADD MLOAD DUP2 PUSH1 0x20 ADD MLOAD DUP3 PUSH1 0x40 ADD MLOAD DUP4 PUSH1 0x60 ADD MLOAD DUP5 PUSH1 0x80 ADD MLOAD SWAP6 POP SWAP6 POP SWAP6 POP SWAP6 POP SWAP6 POP POP SWAP2 SWAP4 SWAP6 SWAP1 SWAP3 SWAP5 POP JUMP JUMPDEST PUSH1 0x3 PUSH1 0x20 MSTORE DUP1 PUSH1 0x0 MSTORE PUSH1 0x40 PUSH1 0x0 KECCAK256 PUSH1 0x0 SWAP2 POP SLOAD SWAP1 PUSH2 0x100 EXP SWAP1 DIV PUSH20 0xFFFFFFFFFFFFFFFFFFFFFFFFFFFFFFFFFFFFFFFF AND DUP2 JUMP JUMPDEST PUSH1 0x0 DUP1 PUSH2 0xDDC DUP7 DUP6 PUSH2 0x9DB JUMP JUMPDEST SWAP1 POP PUSH2 0xDE6 PUSH2 0x1326 JUMP JUMPDEST DUP8 DUP2 PUSH1 0x0 ADD DUP2 SWAP1 MSTORE POP DUP7 DUP2 PUSH1 0x20 ADD SWAP1 PUSH20 0xFFFFFFFFFFFFFFFFFFFFFFFFFFFFFFFFFFFFFFFF AND SWAP1 DUP2 PUSH20 0xFFFFFFFFFFFFFFFFFFFFFFFFFFFFFFFFFFFFFFFF AND DUP2 MSTORE POP POP DUP6 DUP2 PUSH1 0x40 ADD DUP2 SWAP1 MSTORE POP DUP5 DUP2 PUSH1 0x60 ADD DUP2 SWAP1 MSTORE POP DUP3 DUP2 PUSH1 0x80 ADD SWAP1 PUSH20 0xFFFFFFFFFFFFFFFFFFFFFFFFFFFFFFFFFFFFFFFF AND SWAP1 DUP2 PUSH20 0xFFFFFFFFFFFFFFFFFFFFFFFFFFFFFFFFFFFFFFFF AND DUP2 MSTORE POP POP DUP1 PUSH1 0x2 PUSH1 0x0 DUP5 DUP2 MSTORE PUSH1 0x20 ADD SWAP1 DUP2 MSTORE PUSH1 0x20 ADD PUSH1 0x0 KECCAK256 PUSH1 0x0 DUP3 ADD MLOAD DUP2 PUSH1 0x0 ADD SWAP1 DUP1 MLOAD SWAP1 PUSH1 0x20 ADD SWAP1 PUSH2 0xEA1 SWAP3 SWAP2 SWAP1 PUSH2 0x1381 JUMP JUMPDEST POP PUSH1 0x20 DUP3 ADD MLOAD DUP2 PUSH1 0x1 ADD PUSH1 0x0 PUSH2 0x100 EXP DUP2 SLOAD DUP2 PUSH20 0xFFFFFFFFFFFFFFFFFFFFFFFFFFFFFFFFFFFFFFFF MUL NOT AND SWAP1 DUP4 PUSH20 0xFFFFFFFFFFFFFFFFFFFFFFFFFFFFFFFFFFFFFFFF AND MUL OR SWAP1 SSTORE POP PUSH1 0x40 DUP3 ADD MLOAD DUP2 PUSH1 0x2 ADD SWAP1 DUP1 MLOAD SWAP1 PUSH1 0x20 ADD SWAP1 PUSH2 0xF05 SWAP3 SWAP2 SWAP1 PUSH2 0x1381 JUMP JUMPDEST POP PUSH1 0x60 DUP3 ADD MLOAD DUP2 PUSH1 0x3 ADD SWAP1 DUP1 MLOAD SWAP1 PUSH1 0x20 ADD SWAP1 PUSH2 0xF22 SWAP3 SWAP2 SWAP1 PUSH2 0x1381 JUMP JUMPDEST POP PUSH1 0x80 DUP3 ADD MLOAD DUP2 PUSH1 0x4 ADD PUSH1 0x0 PUSH2 0x100 EXP DUP2 SLOAD DUP2 PUSH20 0xFFFFFFFFFFFFFFFFFFFFFFFFFFFFFFFFFFFFFFFF MUL NOT AND SWAP1 DUP4 PUSH20 0xFFFFFFFFFFFFFFFFFFFFFFFFFFFFFFFFFFFFFFFF AND MUL OR SWAP1 SSTORE POP SWAP1 POP POP DUP4 PUSH1 0x3 PUSH1 0x0 DUP10 PUSH20 0xFFFFFFFFFFFFFFFFFFFFFFFFFFFFFFFFFFFFFFFF AND PUSH20 0xFFFFFFFFFFFFFFFFFFFFFFFFFFFFFFFFFFFFFFFF AND DUP2 MSTORE PUSH1 0x20 ADD SWAP1 DUP2 MSTORE PUSH1 0x20 ADD PUSH1 0x0 KECCAK256 PUSH1 0x0 PUSH2 0x100 EXP DUP2 SLOAD DUP2 PUSH20 0xFFFFFFFFFFFFFFFFFFFFFFFFFFFFFFFFFFFFFFFF MUL NOT AND SWAP1 DUP4 PUSH20 0xFFFFFFFFFFFFFFFFFFFFFFFFFFFFFFFFFFFFFFFF AND MUL OR SWAP1 SSTORE POP PUSH1 0x1 DUP2 SWAP1 DUP1 PUSH1 0x1 DUP2 SLOAD ADD DUP1 DUP3 SSTORE DUP1 SWAP2 POP POP PUSH1 0x1 SWAP1 SUB SWAP1 PUSH1 0x0 MSTORE PUSH1 0x20 PUSH1 0x0 KECCAK256 SWAP1 PUSH1 0x5 MUL ADD PUSH1 0x0 SWAP1 SWAP2 SWAP1 SWAP2 SWAP1 SWAP2 POP PUSH1 0x0 DUP3 ADD MLOAD DUP2 PUSH1 0x0 ADD SWAP1 DUP1 MLOAD SWAP1 PUSH1 0x20 ADD SWAP1 PUSH2 0x1033 SWAP3 SWAP2 SWAP1 PUSH2 0x1381 JUMP JUMPDEST POP PUSH1 0x20 DUP3 ADD MLOAD DUP2 PUSH1 0x1 ADD PUSH1 0x0 PUSH2 0x100 EXP DUP2 SLOAD DUP2 PUSH20 0xFFFFFFFFFFFFFFFFFFFFFFFFFFFFFFFFFFFFFFFF MUL NOT AND SWAP1 DUP4 PUSH20 0xFFFFFFFFFFFFFFFFFFFFFFFFFFFFFFFFFFFFFFFF AND MUL OR SWAP1 SSTORE POP PUSH1 0x40 DUP3 ADD MLOAD DUP2 PUSH1 0x2 ADD SWAP1 DUP1 MLOAD SWAP1 PUSH1 0x20 ADD SWAP1 PUSH2 0x1097 SWAP3 SWAP2 SWAP1 PUSH2 0x1381 JUMP JUMPDEST POP PUSH1 0x60 DUP3 ADD MLOAD DUP2 PUSH1 0x3 ADD SWAP1 DUP1 MLOAD SWAP1 PUSH1 0x20 ADD SWAP1 PUSH2 0x10B4 SWAP3 SWAP2 SWAP1 PUSH2 0x1381 JUMP JUMPDEST POP PUSH1 0x80 DUP3 ADD MLOAD DUP2 PUSH1 0x4 ADD PUSH1 0x0 PUSH2 0x100 EXP DUP2 SLOAD DUP2 PUSH20 0xFFFFFFFFFFFFFFFFFFFFFFFFFFFFFFFFFFFFFFFF MUL NOT AND SWAP1 DUP4 PUSH20 0xFFFFFFFFFFFFFFFFFFFFFFFFFFFFFFFFFFFFFFFF AND MUL OR SWAP1 SSTORE POP POP POP POP POP POP POP POP POP POP POP JUMP JUMPDEST PUSH1 0x1 DUP2 DUP2 SLOAD DUP2 LT PUSH2 0x1118 JUMPI PUSH1 0x0 DUP1 REVERT JUMPDEST SWAP1 PUSH1 0x0 MSTORE PUSH1 0x20 PUSH1 0x0 KECCAK256 SWAP1 PUSH1 0x5 MUL ADD PUSH1 0x0 SWAP2 POP SWAP1 POP DUP1 PUSH1 0x0 ADD DUP1 SLOAD PUSH2 0x113B SWAP1 PUSH2 0x1A8F JUMP JUMPDEST DUP1 PUSH1 0x1F ADD PUSH1 0x20 DUP1 SWAP2 DIV MUL PUSH1 0x20 ADD PUSH1 0x40 MLOAD SWAP1 DUP2 ADD PUSH1 0x40 MSTORE DUP1 SWAP3 SWAP2 SWAP1 DUP2 DUP2 MSTORE PUSH1 0x20 ADD DUP3 DUP1 SLOAD PUSH2 0x1167 SWAP1 PUSH2 0x1A8F JUMP JUMPDEST DUP1 ISZERO PUSH2 0x11B4 JUMPI DUP1 PUSH1 0x1F LT PUSH2 0x1189 JUMPI PUSH2 0x100 DUP1 DUP4 SLOAD DIV MUL DUP4 MSTORE SWAP2 PUSH1 0x20 ADD SWAP2 PUSH2 0x11B4 JUMP JUMPDEST DUP3 ADD SWAP2 SWAP1 PUSH1 0x0 MSTORE PUSH1 0x20 PUSH1 0x0 KECCAK256 SWAP1 JUMPDEST DUP2 SLOAD DUP2 MSTORE SWAP1 PUSH1 0x1 ADD SWAP1 PUSH1 0x20 ADD DUP1 DUP4 GT PUSH2 0x1197 JUMPI DUP3 SWAP1 SUB PUSH1 0x1F AND DUP3 ADD SWAP2 JUMPDEST POP POP POP POP POP SWAP1 DUP1 PUSH1 0x1 ADD PUSH1 0x0 SWAP1 SLOAD SWAP1 PUSH2 0x100 EXP SWAP1 DIV PUSH20 0xFFFFFFFFFFFFFFFFFFFFFFFFFFFFFFFFFFFFFFFF AND SWAP1 DUP1 PUSH1 0x2 ADD DUP1 SLOAD PUSH2 0x11EF SWAP1 PUSH2 0x1A8F JUMP JUMPDEST DUP1 PUSH1 0x1F ADD PUSH1 0x20 DUP1 SWAP2 DIV MUL PUSH1 0x20 ADD PUSH1 0x40 MLOAD SWAP1 DUP2 ADD PUSH1 0x40 MSTORE DUP1 SWAP3 SWAP2 SWAP1 DUP2 DUP2 MSTORE PUSH1 0x20 ADD DUP3 DUP1 SLOAD PUSH2 0x121B SWAP1 PUSH2 0x1A8F JUMP JUMPDEST DUP1 ISZERO PUSH2 0x1268 JUMPI DUP1 PUSH1 0x1F LT PUSH2 0x123D JUMPI PUSH2 0x100 DUP1 DUP4 SLOAD DIV MUL DUP4 MSTORE SWAP2 PUSH1 0x20 ADD SWAP2 PUSH2 0x1268 JUMP JUMPDEST DUP3 ADD SWAP2 SWAP1 PUSH1 0x0 MSTORE PUSH1 0x20 PUSH1 0x0 KECCAK256 SWAP1 JUMPDEST DUP2 SLOAD DUP2 MSTORE SWAP1 PUSH1 0x1 ADD SWAP1 PUSH1 0x20 ADD DUP1 DUP4 GT PUSH2 0x124B JUMPI DUP3 SWAP1 SUB PUSH1 0x1F AND DUP3 ADD SWAP2 JUMPDEST POP POP POP POP POP SWAP1 DUP1 PUSH1 0x3 ADD DUP1 SLOAD PUSH2 0x127D SWAP1 PUSH2 0x1A8F JUMP JUMPDEST DUP1 PUSH1 0x1F ADD PUSH1 0x20 DUP1 SWAP2 DIV MUL PUSH1 0x20 ADD PUSH1 0x40 MLOAD SWAP1 DUP2 ADD PUSH1 0x40 MSTORE DUP1 SWAP3 SWAP2 SWAP1 DUP2 DUP2 MSTORE PUSH1 0x20 ADD DUP3 DUP1 SLOAD PUSH2 0x12A9 SWAP1 PUSH2 0x1A8F JUMP JUMPDEST DUP1 ISZERO PUSH2 0x12F6 JUMPI DUP1 PUSH1 0x1F LT PUSH2 0x12CB JUMPI PUSH2 0x100 DUP1 DUP4 SLOAD DIV MUL DUP4 MSTORE SWAP2 PUSH1 0x20 ADD SWAP2 PUSH2 0x12F6 JUMP JUMPDEST DUP3 ADD SWAP2 SWAP1 PUSH1 0x0 MSTORE PUSH1 0x20 PUSH1 0x0 KECCAK256 SWAP1 JUMPDEST DUP2 SLOAD DUP2 MSTORE SWAP1 PUSH1 0x1 ADD SWAP1 PUSH1 0x20 ADD DUP1 DUP4 GT PUSH2 0x12D9 JUMPI DUP3 SWAP1 SUB PUSH1 0x1F AND DUP3 ADD SWAP2 JUMPDEST POP POP POP POP POP SWAP1 DUP1 PUSH1 0x4 ADD PUSH1 0x0 SWAP1 SLOAD SWAP1 PUSH2 0x100 EXP SWAP1 DIV PUSH20 0xFFFFFFFFFFFFFFFFFFFFFFFFFFFFFFFFFFFFFFFF AND SWAP1 POP DUP6 JUMP JUMPDEST PUSH1 0x40 MLOAD DUP1 PUSH1 0xA0 ADD PUSH1 0x40 MSTORE DUP1 PUSH1 0x60 DUP2 MSTORE PUSH1 0x20 ADD PUSH1 0x0 PUSH20 0xFFFFFFFFFFFFFFFFFFFFFFFFFFFFFFFFFFFFFFFF AND DUP2 MSTORE PUSH1 0x20 ADD PUSH1 0x60 DUP2 MSTORE PUSH1 0x20 ADD PUSH1 0x60 DUP2 MSTORE PUSH1 0x20 ADD PUSH1 0x0 PUSH20 0xFFFFFFFFFFFFFFFFFFFFFFFFFFFFFFFFFFFFFFFF AND DUP2 MSTORE POP SWAP1 JUMP JUMPDEST DUP3 DUP1 SLOAD PUSH2 0x138D SWAP1 PUSH2 0x1A8F JUMP JUMPDEST SWAP1 PUSH1 0x0 MSTORE PUSH1 0x20 PUSH1 0x0 KECCAK256 SWAP1 PUSH1 0x1F ADD PUSH1 0x20 SWAP1 DIV DUP2 ADD SWAP3 DUP3 PUSH2 0x13AF JUMPI PUSH1 0x0 DUP6 SSTORE PUSH2 0x13F6 JUMP JUMPDEST DUP3 PUSH1 0x1F LT PUSH2 0x13C8 JUMPI DUP1 MLOAD PUSH1 0xFF NOT AND DUP4 DUP1 ADD OR DUP6 SSTORE PUSH2 0x13F6 JUMP JUMPDEST DUP3 DUP1 ADD PUSH1 0x1 ADD DUP6 SSTORE DUP3 ISZERO PUSH2 0x13F6 JUMPI SWAP2 DUP3 ADD JUMPDEST DUP3 DUP2 GT ISZERO PUSH2 0x13F5 JUMPI DUP3 MLOAD DUP3 SSTORE SWAP2 PUSH1 0x20 ADD SWAP2 SWAP1 PUSH1 0x1 ADD SWAP1 PUSH2 0x13DA JUMP JUMPDEST JUMPDEST POP SWAP1 POP PUSH2 0x1403 SWAP2 SWAP1 PUSH2 0x1407 JUMP JUMPDEST POP SWAP1 JUMP JUMPDEST JUMPDEST DUP1 DUP3 GT ISZERO PUSH2 0x1420 JUMPI PUSH1 0x0 DUP2 PUSH1 0x0 SWAP1 SSTORE POP PUSH1 0x1 ADD PUSH2 0x1408 JUMP JUMPDEST POP SWAP1 JUMP JUMPDEST PUSH1 0x0 DUP2 SWAP1 POP SWAP2 SWAP1 POP JUMP JUMPDEST PUSH2 0x1437 DUP2 PUSH2 0x1424 JUMP JUMPDEST DUP3 MSTORE POP POP JUMP JUMPDEST PUSH1 0x0 PUSH1 0x20 DUP3 ADD SWAP1 POP PUSH2 0x1452 PUSH1 0x0 DUP4 ADD DUP5 PUSH2 0x142E JUMP JUMPDEST SWAP3 SWAP2 POP POP JUMP JUMPDEST PUSH1 0x0 PUSH1 0x40 MLOAD SWAP1 POP SWAP1 JUMP JUMPDEST PUSH1 0x0 DUP1 REVERT JUMPDEST PUSH1 0x0 DUP1 REVERT JUMPDEST PUSH1 0x0 PUSH20 0xFFFFFFFFFFFFFFFFFFFFFFFFFFFFFFFFFFFFFFFF DUP3 AND SWAP1 POP SWAP2 SWAP1 POP JUMP JUMPDEST PUSH1 0x0 PUSH2 0x1497 DUP3 PUSH2 0x146C JUMP JUMPDEST SWAP1 POP SWAP2 SWAP1 POP JUMP JUMPDEST PUSH2 0x14A7 DUP2 PUSH2 0x148C JUMP JUMPDEST DUP2 EQ PUSH2 0x14B2 JUMPI PUSH1 0x0 DUP1 REVERT JUMPDEST POP JUMP JUMPDEST PUSH1 0x0 DUP2 CALLDATALOAD SWAP1 POP PUSH2 0x14C4 DUP2 PUSH2 0x149E JUMP JUMPDEST SWAP3 SWAP2 POP POP JUMP JUMPDEST PUSH1 0x0 PUSH1 0x20 DUP3 DUP5 SUB SLT ISZERO PUSH2 0x14E0 JUMPI PUSH2 0x14DF PUSH2 0x1462 JUMP JUMPDEST JUMPDEST PUSH1 0x0 PUSH2 0x14EE DUP5 DUP3 DUP6 ADD PUSH2 0x14B5 JUMP JUMPDEST SWAP2 POP POP SWAP3 SWAP2 POP POP JUMP JUMPDEST PUSH2 0x1500 DUP2 PUSH2 0x148C JUMP JUMPDEST DUP3 MSTORE POP POP JUMP JUMPDEST PUSH1 0x0 PUSH1 0x20 DUP3 ADD SWAP1 POP PUSH2 0x151B PUSH1 0x0 DUP4 ADD DUP5 PUSH2 0x14F7 JUMP JUMPDEST SWAP3 SWAP2 POP POP JUMP JUMPDEST PUSH2 0x152A DUP2 PUSH2 0x1424 JUMP JUMPDEST DUP2 EQ PUSH2 0x1535 JUMPI PUSH1 0x0 DUP1 REVERT JUMPDEST POP JUMP JUMPDEST PUSH1 0x0 DUP2 CALLDATALOAD SWAP1 POP PUSH2 0x1547 DUP2 PUSH2 0x1521 JUMP JUMPDEST SWAP3 SWAP2 POP POP JUMP JUMPDEST PUSH1 0x0 DUP2 SWAP1 POP SWAP2 SWAP1 POP JUMP JUMPDEST PUSH2 0x1560 DUP2 PUSH2 0x154D JUMP JUMPDEST DUP2 EQ PUSH2 0x156B JUMPI PUSH1 0x0 DUP1 REVERT JUMPDEST POP JUMP JUMPDEST PUSH1 0x0 DUP2 CALLDATALOAD SWAP1 POP PUSH2 0x157D DUP2 PUSH2 0x1557 JUMP JUMPDEST SWAP3 SWAP2 POP POP JUMP JUMPDEST PUSH1 0x0 DUP1 PUSH1 0x0 PUSH1 0x60 DUP5 DUP7 SUB SLT ISZERO PUSH2 0x159C JUMPI PUSH2 0x159B PUSH2 0x1462 JUMP JUMPDEST JUMPDEST PUSH1 0x0 PUSH2 0x15AA DUP7 DUP3 DUP8 ADD PUSH2 0x1538 JUMP JUMPDEST SWAP4 POP POP PUSH1 0x20 PUSH2 0x15BB DUP7 DUP3 DUP8 ADD PUSH2 0x156E JUMP JUMPDEST SWAP3 POP POP PUSH1 0x40 PUSH2 0x15CC DUP7 DUP3 DUP8 ADD PUSH2 0x14B5 JUMP JUMPDEST SWAP2 POP POP SWAP3 POP SWAP3 POP SWAP3 JUMP JUMPDEST PUSH1 0x0 DUP2 ISZERO ISZERO SWAP1 POP SWAP2 SWAP1 POP JUMP JUMPDEST PUSH2 0x15EB DUP2 PUSH2 0x15D6 JUMP JUMPDEST DUP3 MSTORE POP POP JUMP JUMPDEST PUSH1 0x0 PUSH1 0x20 DUP3 ADD SWAP1 POP PUSH2 0x1606 PUSH1 0x0 DUP4 ADD DUP5 PUSH2 0x15E2 JUMP JUMPDEST SWAP3 SWAP2 POP POP JUMP JUMPDEST PUSH1 0x0 PUSH1 0x20 DUP3 DUP5 SUB SLT ISZERO PUSH2 0x1622 JUMPI PUSH2 0x1621 PUSH2 0x1462 JUMP JUMPDEST JUMPDEST PUSH1 0x0 PUSH2 0x1630 DUP5 DUP3 DUP6 ADD PUSH2 0x156E JUMP JUMPDEST SWAP2 POP POP SWAP3 SWAP2 POP POP JUMP JUMPDEST PUSH1 0x0 DUP2 MLOAD SWAP1 POP SWAP2 SWAP1 POP JUMP JUMPDEST PUSH1 0x0 DUP3 DUP3 MSTORE PUSH1 0x20 DUP3 ADD SWAP1 POP SWAP3 SWAP2 POP POP JUMP JUMPDEST PUSH1 0x0 JUMPDEST DUP4 DUP2 LT ISZERO PUSH2 0x1673 JUMPI DUP1 DUP3 ADD MLOAD DUP2 DUP5 ADD MSTORE PUSH1 0x20 DUP2 ADD SWAP1 POP PUSH2 0x1658 JUMP JUMPDEST DUP4 DUP2 GT ISZERO PUSH2 0x1682 JUMPI PUSH1 0x0 DUP5 DUP5 ADD MSTORE JUMPDEST POP POP POP POP JUMP JUMPDEST PUSH1 0x0 PUSH1 0x1F NOT PUSH1 0x1F DUP4 ADD AND SWAP1 POP SWAP2 SWAP1 POP JUMP JUMPDEST PUSH1 0x0 PUSH2 0x16A4 DUP3 PUSH2 0x1639 JUMP JUMPDEST PUSH2 0x16AE DUP2 DUP6 PUSH2 0x1644 JUMP JUMPDEST SWAP4 POP PUSH2 0x16BE DUP2 DUP6 PUSH1 0x20 DUP7 ADD PUSH2 0x1655 JUMP JUMPDEST PUSH2 0x16C7 DUP2 PUSH2 0x1688 JUMP JUMPDEST DUP5 ADD SWAP2 POP POP SWAP3 SWAP2 POP POP JUMP JUMPDEST PUSH1 0x0 PUSH1 0xA0 DUP3 ADD SWAP1 POP DUP2 DUP2 SUB PUSH1 0x0 DUP4 ADD MSTORE PUSH2 0x16EC DUP2 DUP9 PUSH2 0x1699 JUMP JUMPDEST SWAP1 POP PUSH2 0x16FB PUSH1 0x20 DUP4 ADD DUP8 PUSH2 0x14F7 JUMP JUMPDEST DUP2 DUP2 SUB PUSH1 0x40 DUP4 ADD MSTORE PUSH2 0x170D DUP2 DUP7 PUSH2 0x1699 JUMP JUMPDEST SWAP1 POP DUP2 DUP2 SUB PUSH1 0x60 DUP4 ADD MSTORE PUSH2 0x1721 DUP2 DUP6 PUSH2 0x1699 JUMP JUMPDEST SWAP1 POP PUSH2 0x1730 PUSH1 0x80 DUP4 ADD DUP5 PUSH2 0x14F7 JUMP JUMPDEST SWAP7 SWAP6 POP POP POP POP POP POP JUMP JUMPDEST PUSH1 0x0 DUP1 REVERT JUMPDEST PUSH1 0x0 DUP1 REVERT JUMPDEST PUSH32 0x4E487B7100000000000000000000000000000000000000000000000000000000 PUSH1 0x0 MSTORE PUSH1 0x41 PUSH1 0x4 MSTORE PUSH1 0x24 PUSH1 0x0 REVERT JUMPDEST PUSH2 0x177C DUP3 PUSH2 0x1688 JUMP JUMPDEST DUP2 ADD DUP2 DUP2 LT PUSH8 0xFFFFFFFFFFFFFFFF DUP3 GT OR ISZERO PUSH2 0x179B JUMPI PUSH2 0x179A PUSH2 0x1744 JUMP JUMPDEST JUMPDEST DUP1 PUSH1 0x40 MSTORE POP POP POP JUMP JUMPDEST PUSH1 0x0 PUSH2 0x17AE PUSH2 0x1458 JUMP JUMPDEST SWAP1 POP PUSH2 0x17BA DUP3 DUP3 PUSH2 0x1773 JUMP JUMPDEST SWAP2 SWAP1 POP JUMP JUMPDEST PUSH1 0x0 PUSH8 0xFFFFFFFFFFFFFFFF DUP3 GT ISZERO PUSH2 0x17DA JUMPI PUSH2 0x17D9 PUSH2 0x1744 JUMP JUMPDEST JUMPDEST PUSH2 0x17E3 DUP3 PUSH2 0x1688 JUMP JUMPDEST SWAP1 POP PUSH1 0x20 DUP2 ADD SWAP1 POP SWAP2 SWAP1 POP JUMP JUMPDEST DUP3 DUP2 DUP4 CALLDATACOPY PUSH1 0x0 DUP4 DUP4 ADD MSTORE POP POP POP JUMP JUMPDEST PUSH1 0x0 PUSH2 0x1812 PUSH2 0x180D DUP5 PUSH2 0x17BF JUMP JUMPDEST PUSH2 0x17A4 JUMP JUMPDEST SWAP1 POP DUP3 DUP2 MSTORE PUSH1 0x20 DUP2 ADD DUP5 DUP5 DUP5 ADD GT ISZERO PUSH2 0x182E JUMPI PUSH2 0x182D PUSH2 0x173F JUMP JUMPDEST JUMPDEST PUSH2 0x1839 DUP5 DUP3 DUP6 PUSH2 0x17F0 JUMP JUMPDEST POP SWAP4 SWAP3 POP POP POP JUMP JUMPDEST PUSH1 0x0 DUP3 PUSH1 0x1F DUP4 ADD SLT PUSH2 0x1856 JUMPI PUSH2 0x1855 PUSH2 0x173A JUMP JUMPDEST JUMPDEST DUP2 CALLDATALOAD PUSH2 0x1866 DUP5 DUP3 PUSH1 0x20 DUP7 ADD PUSH2 0x17FF JUMP JUMPDEST SWAP2 POP POP SWAP3 SWAP2 POP POP JUMP JUMPDEST PUSH1 0x0 DUP1 PUSH1 0x40 DUP4 DUP6 SUB SLT ISZERO PUSH2 0x1886 JUMPI PUSH2 0x1885 PUSH2 0x1462 JUMP JUMPDEST JUMPDEST PUSH1 0x0 PUSH2 0x1894 DUP6 DUP3 DUP7 ADD PUSH2 0x14B5 JUMP JUMPDEST SWAP3 POP POP PUSH1 0x20 DUP4 ADD CALLDATALOAD PUSH8 0xFFFFFFFFFFFFFFFF DUP2 GT ISZERO PUSH2 0x18B5 JUMPI PUSH2 0x18B4 PUSH2 0x1467 JUMP JUMPDEST JUMPDEST PUSH2 0x18C1 DUP6 DUP3 DUP7 ADD PUSH2 0x1841 JUMP JUMPDEST SWAP2 POP POP SWAP3 POP SWAP3 SWAP1 POP JUMP JUMPDEST PUSH2 0x18D4 DUP2 PUSH2 0x154D JUMP JUMPDEST DUP3 MSTORE POP POP JUMP JUMPDEST PUSH1 0x0 PUSH1 0x20 DUP3 ADD SWAP1 POP PUSH2 0x18EF PUSH1 0x0 DUP4 ADD DUP5 PUSH2 0x18CB JUMP JUMPDEST SWAP3 SWAP2 POP POP JUMP JUMPDEST PUSH1 0x0 DUP1 PUSH1 0x40 DUP4 DUP6 SUB SLT ISZERO PUSH2 0x190C JUMPI PUSH2 0x190B PUSH2 0x1462 JUMP JUMPDEST JUMPDEST PUSH1 0x0 PUSH2 0x191A DUP6 DUP3 DUP7 ADD PUSH2 0x1538 JUMP JUMPDEST SWAP3 POP POP PUSH1 0x20 PUSH2 0x192B DUP6 DUP3 DUP7 ADD PUSH2 0x156E JUMP JUMPDEST SWAP2 POP POP SWAP3 POP SWAP3 SWAP1 POP JUMP JUMPDEST PUSH1 0x0 PUSH1 0x20 DUP3 DUP5 SUB SLT ISZERO PUSH2 0x194B JUMPI PUSH2 0x194A PUSH2 0x1462 JUMP JUMPDEST JUMPDEST PUSH1 0x0 PUSH2 0x1959 DUP5 DUP3 DUP6 ADD PUSH2 0x1538 JUMP JUMPDEST SWAP2 POP POP SWAP3 SWAP2 POP POP JUMP JUMPDEST PUSH1 0x0 DUP1 PUSH1 0x0 DUP1 PUSH1 0x0 PUSH1 0xA0 DUP7 DUP9 SUB SLT ISZERO PUSH2 0x197E JUMPI PUSH2 0x197D PUSH2 0x1462 JUMP JUMPDEST JUMPDEST PUSH1 0x0 DUP7 ADD CALLDATALOAD PUSH8 0xFFFFFFFFFFFFFFFF DUP2 GT ISZERO PUSH2 0x199C JUMPI PUSH2 0x199B PUSH2 0x1467 JUMP JUMPDEST JUMPDEST PUSH2 0x19A8 DUP9 DUP3 DUP10 ADD PUSH2 0x1841 JUMP JUMPDEST SWAP6 POP POP PUSH1 0x20 PUSH2 0x19B9 DUP9 DUP3 DUP10 ADD PUSH2 0x14B5 JUMP JUMPDEST SWAP5 POP POP PUSH1 0x40 DUP7 ADD CALLDATALOAD PUSH8 0xFFFFFFFFFFFFFFFF DUP2 GT ISZERO PUSH2 0x19DA JUMPI PUSH2 0x19D9 PUSH2 0x1467 JUMP JUMPDEST JUMPDEST PUSH2 0x19E6 DUP9 DUP3 DUP10 ADD PUSH2 0x1841 JUMP JUMPDEST SWAP4 POP POP PUSH1 0x60 DUP7 ADD CALLDATALOAD PUSH8 0xFFFFFFFFFFFFFFFF DUP2 GT ISZERO PUSH2 0x1A07 JUMPI PUSH2 0x1A06 PUSH2 0x1467 JUMP JUMPDEST JUMPDEST PUSH2 0x1A13 DUP9 DUP3 DUP10 ADD PUSH2 0x1841 JUMP JUMPDEST SWAP3 POP POP PUSH1 0x80 PUSH2 0x1A24 DUP9 DUP3 DUP10 ADD PUSH2 0x14B5 JUMP JUMPDEST SWAP2 POP POP SWAP3 SWAP6 POP SWAP3 SWAP6 SWAP1 SWAP4 POP JUMP JUMPDEST PUSH32 0x4E487B7100000000000000000000000000000000000000000000000000000000 PUSH1 0x0 MSTORE PUSH1 0x32 PUSH1 0x4 MSTORE PUSH1 0x24 PUSH1 0x0 REVERT JUMPDEST PUSH32 0x4E487B7100000000000000000000000000000000000000000000000000000000 PUSH1 0x0 MSTORE PUSH1 0x22 PUSH1 0x4 MSTORE PUSH1 0x24 PUSH1 0x0 REVERT JUMPDEST PUSH1 0x0 PUSH1 0x2 DUP3 DIV SWAP1 POP PUSH1 0x1 DUP3 AND DUP1 PUSH2 0x1AA7 JUMPI PUSH1 0x7F DUP3 AND SWAP2 POP JUMPDEST PUSH1 0x20 DUP3 LT DUP2 EQ ISZERO PUSH2 0x1ABB JUMPI PUSH2 0x1ABA PUSH2 0x1A60 JUMP JUMPDEST JUMPDEST POP SWAP2 SWAP1 POP JUMP JUMPDEST PUSH1 0x0 DUP2 PUSH1 0x60 SHL SWAP1 POP SWAP2 SWAP1 POP JUMP JUMPDEST PUSH1 0x0 PUSH2 0x1AD9 DUP3 PUSH2 0x1AC1 JUMP JUMPDEST SWAP1 POP SWAP2 SWAP1 POP JUMP JUMPDEST PUSH1 0x0 PUSH2 0x1AEB DUP3 PUSH2 0x1ACE JUMP JUMPDEST SWAP1 POP SWAP2 SWAP1 POP JUMP JUMPDEST PUSH2 0x1B03 PUSH2 0x1AFE DUP3 PUSH2 0x148C JUMP JUMPDEST PUSH2 0x1AE0 JUMP JUMPDEST DUP3 MSTORE POP POP JUMP JUMPDEST PUSH1 0x0 DUP2 SWAP1 POP SWAP3 SWAP2 POP POP JUMP JUMPDEST PUSH1 0x0 PUSH2 0x1B1F DUP3 PUSH2 0x1639 JUMP JUMPDEST PUSH2 0x1B29 DUP2 DUP6 PUSH2 0x1B09 JUMP JUMPDEST SWAP4 POP PUSH2 0x1B39 DUP2 DUP6 PUSH1 0x20 DUP7 ADD PUSH2 0x1655 JUMP JUMPDEST DUP1 DUP5 ADD SWAP2 POP POP SWAP3 SWAP2 POP POP JUMP JUMPDEST PUSH1 0x0 PUSH2 0x1B51 DUP3 DUP6 PUSH2 0x1AF2 JUMP JUMPDEST PUSH1 0x14 DUP3 ADD SWAP2 POP PUSH2 0x1B61 DUP3 DUP5 PUSH2 0x1B14 JUMP JUMPDEST SWAP2 POP DUP2 SWAP1 POP SWAP4 SWAP3 POP POP POP JUMP INVALID LOG2 PUSH5 0x6970667358 0x22 SLT KECCAK256 0xDE STATICCALL CALL PUSH1 0x7A SHR PUSH4 0x6C5330A6 SWAP12 0x1E 0xC4 0xEC 0xC3 0xBC EXP MSTORE8 0xD2 NUMBER 0xCE 0x27 PUSH27 0xCD49E7322FE1929E64736F6C634300080A00330000000000000000 "
    },
    "gasEstimates": {
      "creation": {
        "codeDepositCost": "1415000",
        "executionCost": "25745",
        "totalCost": "1440745"
      },
      "external": {
        "MOE()": "2622",
        "addInstTostudInfo(uint256,bytes32,address)": "51860",
        "generateKey(address,string)": "infinite",
        "getRegisteredStudentByIndex(uint256)": "infinite",
        "getRegisteredStudentByKey(bytes32)": "infinite",
        "getRegisteredStudentsContract(address)": "infinite",
        "getRegisteredStudentsCount()": "2446",
        "isStudent(address)": "2927",
        "registerStudents(string,address,string,string,address)": "infinite",
        "registeredStudentsContract(address)": "infinite",
        "registeredStudentsMap(bytes32)": "infinite",
        "registeredStudentsarray(uint256)": "infinite",
        "removeInstFromstudInfo(uint256,bytes32)": "51663"
      }
    },
    "methodIdentifiers": {
      "MOE()": "673a1746",
      "addInstTostudInfo(uint256,bytes32,address)": "4268ddbd",
      "generateKey(address,string)": "8a97503d",
      "getRegisteredStudentByIndex(uint256)": "a7c32a12",
      "getRegisteredStudentByKey(bytes32)": "435df20d",
      "getRegisteredStudentsContract(address)": "3f2f1784",
      "getRegisteredStudentsCount()": "30c6189f",
      "isStudent(address)": "82f7d392",
      "registerStudents(string,address,string,string,address)": "c1819436",
      "registeredStudentsContract(address)": "bf566527",
      "registeredStudentsMap(bytes32)": "460598f4",
      "registeredStudentsarray(uint256)": "ed8de80f",
      "removeInstFromstudInfo(uint256,bytes32)": "956a3545"
    }
  },
  "storageLayout": {
    "storage": [
      {
        "astId": 894,
        "contract": "registerStud.sol:registerStud",
        "label": "MOE",
        "offset": 0,
        "slot": "0",
        "type": "t_address"
      },
      {
        "astId": 918,
        "contract": "registerStud.sol:registerStud",
        "label": "registeredStudentsarray",
        "offset": 0,
        "slot": "1",
        "type": "t_array(t_struct(registerStudentsStruct)914_storage)dyn_storage"
      },
      {
        "astId": 923,
        "contract": "registerStud.sol:registerStud",
        "label": "registeredStudentsMap",
        "offset": 0,
        "slot": "2",
        "type": "t_mapping(t_bytes32,t_struct(registerStudentsStruct)914_storage)"
      },
      {
        "astId": 927,
        "contract": "registerStud.sol:registerStud",
        "label": "registeredStudentsContract",
        "offset": 0,
        "slot": "3",
        "type": "t_mapping(t_address,t_address)"
      }
    ],
    "types": {
      "t_address": {
        "encoding": "inplace",
        "label": "address",
        "numberOfBytes": "20"
      },
      "t_array(t_struct(registerStudentsStruct)914_storage)dyn_storage": {
        "base": "t_struct(registerStudentsStruct)914_storage",
        "encoding": "dynamic_array",
        "label": "struct registerStud.registerStudentsStruct[]",
        "numberOfBytes": "32"
      },
      "t_bytes32": {
        "encoding": "inplace",
        "label": "bytes32",
        "numberOfBytes": "32"
      },
      "t_mapping(t_address,t_address)": {
        "encoding": "mapping",
        "key": "t_address",
        "label": "mapping(address => address)",
        "numberOfBytes": "32",
        "value": "t_address"
      },
      "t_mapping(t_bytes32,t_struct(registerStudentsStruct)914_storage)": {
        "encoding": "mapping",
        "key": "t_bytes32",
        "label": "mapping(bytes32 => struct registerStud.registerStudentsStruct)",
        "numberOfBytes": "32",
        "value": "t_struct(registerStudentsStruct)914_storage"
      },
      "t_string_storage": {
        "encoding": "bytes",
        "label": "string",
        "numberOfBytes": "32"
      },
      "t_struct(registerStudentsStruct)914_storage": {
        "encoding": "inplace",
        "label": "struct registerStud.registerStudentsStruct",
        "members": [
          {
            "astId": 905,
            "contract": "registerStud.sol:registerStud",
            "label": "name",
            "offset": 0,
            "slot": "0",
            "type": "t_string_storage"
          },
          {
            "astId": 907,
            "contract": "registerStud.sol:registerStud",
            "label": "student_address",
            "offset": 0,
            "slot": "1",
            "type": "t_address"
          },
          {
            "astId": 909,
            "contract": "registerStud.sol:registerStud",
            "label": "email",
            "offset": 0,
            "slot": "2",
            "type": "t_string_storage"
          },
          {
            "astId": 911,
            "contract": "registerStud.sol:registerStud",
            "label": "id",
            "offset": 0,
            "slot": "3",
            "type": "t_string_storage"
          },
          {
            "astId": 913,
            "contract": "registerStud.sol:registerStud",
            "label": "instAddress",
            "offset": 0,
            "slot": "4",
            "type": "t_address"
          }
        ],
        "numberOfBytes": "160"
      }
    }
  },
  "userdoc": {
    "kind": "user",
    "methods": {},
    "version": 1
  }
}