{
  "abi": [
    {
      "inputs": [
        {
          "internalType": "string",
          "name": "_name",
          "type": "string"
        },
        {
          "internalType": "address",
          "name": "_student_address",
          "type": "address"
        },
        {
          "internalType": "string",
          "name": "_email",
          "type": "string"
        },
        {
          "internalType": "string",
          "name": "_id",
          "type": "string"
        },
        {
          "internalType": "address",
          "name": "_verifystudAddress",
          "type": "address"
        },
        {
          "internalType": "address",
          "name": "_verifyinstAddress",
          "type": "address"
        }
      ],
      "stateMutability": "nonpayable",
      "type": "constructor"
    },
    {
      "inputs": [
        {
          "internalType": "string",
          "name": "_name",
          "type": "string"
        },
        {
          "internalType": "address",
          "name": "_institute",
          "type": "address"
        },
        {
          "internalType": "string",
          "name": "_certificate_name",
          "type": "string"
        }
      ],
      "name": "addCertification",
      "outputs": [],
      "stateMutability": "nonpayable",
      "type": "function"
    },
    {
      "inputs": [
        {
          "internalType": "address",
          "name": "_instAddress",
          "type": "address"
        }
      ],
      "name": "addInstToProfile",
      "outputs": [],
      "stateMutability": "nonpayable",
      "type": "function"
    },
    {
      "inputs": [
        {
          "internalType": "string",
          "name": "_name",
          "type": "string"
        },
        {
          "internalType": "string",
          "name": "_student_name",
          "type": "string"
        },
        {
          "internalType": "string",
          "name": "_experience",
          "type": "string"
        }
      ],
      "name": "addSkill",
      "outputs": [],
      "stateMutability": "nonpayable",
      "type": "function"
    },
    {
      "inputs": [
        {
          "internalType": "string",
          "name": "_role",
          "type": "string"
        },
        {
          "internalType": "address",
          "name": "_institute",
          "type": "address"
        },
        {
          "internalType": "string",
          "name": "_startdate",
          "type": "string"
        },
        {
          "internalType": "string",
          "name": "_enddate",
          "type": "string"
        },
        {
          "internalType": "string",
          "name": "_description",
          "type": "string"
        }
      ],
      "name": "addWorkExp",
      "outputs": [],
      "stateMutability": "nonpayable",
      "type": "function"
    },
    {
      "inputs": [
        {
          "internalType": "string",
          "name": "_certname",
          "type": "string"
        }
      ],
      "name": "deleteCertification",
      "outputs": [],
      "stateMutability": "nonpayable",
      "type": "function"
    },
    {
      "inputs": [
        {
          "internalType": "string",
          "name": "_name",
          "type": "string"
        }
      ],
      "name": "deleteSkill",
      "outputs": [],
      "stateMutability": "nonpayable",
      "type": "function"
    },
    {
      "inputs": [
        {
          "internalType": "address",
          "name": "org",
          "type": "address"
        }
      ],
      "name": "deleteWorkExp",
      "outputs": [],
      "stateMutability": "nonpayable",
      "type": "function"
    },
    {
      "inputs": [
        {
          "internalType": "string",
          "name": "_name",
          "type": "string"
        },
        {
          "internalType": "string",
          "name": "_email",
          "type": "string"
        },
        {
          "internalType": "string",
          "name": "_id",
          "type": "string"
        }
      ],
      "name": "editInfo",
      "outputs": [],
      "stateMutability": "nonpayable",
      "type": "function"
    },
    {
      "inputs": [
        {
          "internalType": "string",
          "name": "_name",
          "type": "string"
        },
        {
          "internalType": "string",
          "name": "_review",
          "type": "string"
        }
      ],
      "name": "endorseSkill",
      "outputs": [],
      "stateMutability": "nonpayable",
      "type": "function"
    },
    {
      "inputs": [
        {
          "internalType": "uint256",
          "name": "_index",
          "type": "uint256"
        }
      ],
      "name": "getCertificationByIndex",
      "outputs": [
        {
          "internalType": "string",
          "name": "",
          "type": "string"
        },
        {
          "internalType": "address",
          "name": "",
          "type": "address"
        },
        {
          "internalType": "string",
          "name": "",
          "type": "string"
        },
        {
          "internalType": "bool",
          "name": "",
          "type": "bool"
        },
        {
          "internalType": "bool",
          "name": "",
          "type": "bool"
        }
      ],
      "stateMutability": "view",
      "type": "function"
    },
    {
      "inputs": [],
      "name": "getCertificationCount",
      "outputs": [
        {
          "internalType": "uint256",
          "name": "",
          "type": "uint256"
        }
      ],
      "stateMutability": "view",
      "type": "function"
    },
    {
      "inputs": [
        {
          "internalType": "uint256",
          "name": "_index",
          "type": "uint256"
        }
      ],
      "name": "getSkillByIndex",
      "outputs": [
        {
          "internalType": "string",
          "name": "",
          "type": "string"
        },
        {
          "internalType": "string",
          "name": "",
          "type": "string"
        },
        {
          "internalType": "bool",
          "name": "",
          "type": "bool"
        },
        {
          "internalType": "address",
          "name": "",
          "type": "address"
        },
        {
          "internalType": "string",
          "name": "",
          "type": "string"
        },
        {
          "internalType": "bool",
          "name": "",
          "type": "bool"
        }
      ],
      "stateMutability": "view",
      "type": "function"
    },
    {
      "inputs": [],
      "name": "getSkillCount",
      "outputs": [
        {
          "internalType": "uint256",
          "name": "",
          "type": "uint256"
        }
      ],
      "stateMutability": "view",
      "type": "function"
    },
    {
      "inputs": [],
      "name": "getStudentInfo",
      "outputs": [
        {
          "internalType": "address",
          "name": "",
          "type": "address"
        },
        {
          "internalType": "string",
          "name": "",
          "type": "string"
        },
        {
          "internalType": "string",
          "name": "",
          "type": "string"
        },
        {
          "internalType": "string",
          "name": "",
          "type": "string"
        },
        {
          "internalType": "uint256",
          "name": "",
          "type": "uint256"
        }
      ],
      "stateMutability": "view",
      "type": "function"
    },
    {
      "inputs": [
        {
          "internalType": "uint256",
          "name": "_index",
          "type": "uint256"
        }
      ],
      "name": "getWorkExpByIndex",
      "outputs": [
        {
          "internalType": "string",
          "name": "",
          "type": "string"
        },
        {
          "internalType": "address",
          "name": "",
          "type": "address"
        },
        {
          "internalType": "string",
          "name": "",
          "type": "string"
        },
        {
          "internalType": "string",
          "name": "",
          "type": "string"
        },
        {
          "internalType": "bool",
          "name": "",
          "type": "bool"
        },
        {
          "internalType": "string",
          "name": "",
          "type": "string"
        },
        {
          "internalType": "bool",
          "name": "",
          "type": "bool"
        }
      ],
      "stateMutability": "view",
      "type": "function"
    },
    {
      "inputs": [],
      "name": "getWorkExpCount",
      "outputs": [
        {
          "internalType": "uint256",
          "name": "",
          "type": "uint256"
        }
      ],
      "stateMutability": "view",
      "type": "function"
    },
    {
      "inputs": [],
      "name": "instAddress",
      "outputs": [
        {
          "internalType": "address",
          "name": "",
          "type": "address"
        }
      ],
      "stateMutability": "view",
      "type": "function"
    },
    {
      "inputs": [],
      "name": "instver",
      "outputs": [
        {
          "internalType": "contract verifyinst",
          "name": "",
          "type": "address"
        }
      ],
      "stateMutability": "view",
      "type": "function"
    },
    {
      "inputs": [
        {
          "internalType": "uint256",
          "name": "",
          "type": "uint256"
        }
      ],
      "name": "listOfInstitutes",
      "outputs": [
        {
          "internalType": "address",
          "name": "",
          "type": "address"
        }
      ],
      "stateMutability": "view",
      "type": "function"
    },
    {
      "inputs": [],
      "name": "removeInstFromProfile",
      "outputs": [],
      "stateMutability": "nonpayable",
      "type": "function"
    },
    {
      "inputs": [],
      "name": "studver",
      "outputs": [
        {
          "internalType": "contract verifystud",
          "name": "",
          "type": "address"
        }
      ],
      "stateMutability": "view",
      "type": "function"
    },
    {
      "inputs": [
        {
          "internalType": "string",
          "name": "_certname",
          "type": "string"
        }
      ],
      "name": "verifyCertification",
      "outputs": [],
      "stateMutability": "nonpayable",
      "type": "function"
    },
    {
      "inputs": [
        {
          "internalType": "address",
          "name": "_institute",
          "type": "address"
        }
      ],
      "name": "verifyWorkExp",
      "outputs": [],
      "stateMutability": "nonpayable",
      "type": "function"
    }
  ],
  "devdoc": {
    "kind": "dev",
    "methods": {},
    "version": 1
  },
  "evm": {
    "assembly": "    /* \"student.sol\":201:9800  contract student {... */\n  mstore(0x40, 0x80)\n    /* \"student.sol\":469:1155  constructor(... */\n  callvalue\n  dup1\n  iszero\n  tag_1\n  jumpi\n  0x00\n  dup1\n  revert\ntag_1:\n  pop\n  mload(0x40)\n  sub(codesize, bytecodeSize)\n  dup1\n  bytecodeSize\n  dup4\n  codecopy\n  dup2\n  dup2\n  add\n  0x40\n  mstore\n  dup2\n  add\n  swap1\n  tag_2\n  swap2\n  swap1\n  tag_3\n  jump\t// in\ntag_2:\n    /* \"student.sol\":830:835  _name */\n  dup6\n    /* \"student.sol\":823:827  name */\n  0x04\n    /* \"student.sol\":823:835  name = _name */\n  swap1\n  dup1\n  mload\n  swap1\n  0x20\n  add\n  swap1\n  tag_6\n  swap3\n  swap2\n  swap1\n  tag_7\n  jump\t// in\ntag_6:\n  pop\n    /* \"student.sol\":864:880  _student_address */\n  dup5\n    /* \"student.sol\":846:861  student_address */\n  0x00\n  dup1\n    /* \"student.sol\":846:880  student_address = _student_address */\n  0x0100\n  exp\n  dup2\n  sload\n  dup2\n  0xffffffffffffffffffffffffffffffffffffffff\n  mul\n  not\n  and\n  swap1\n  dup4\n  0xffffffffffffffffffffffffffffffffffffffff\n  and\n  mul\n  or\n  swap1\n  sstore\n  pop\n    /* \"student.sol\":899:905  _email */\n  dup4\n    /* \"student.sol\":891:896  email */\n  0x01\n    /* \"student.sol\":891:905  email = _email */\n  swap1\n  dup1\n  mload\n  swap1\n  0x20\n  add\n  swap1\n  tag_8\n  swap3\n  swap2\n  swap1\n  tag_7\n  jump\t// in\ntag_8:\n  pop\n    /* \"student.sol\":921:924  _id */\n  dup3\n    /* \"student.sol\":916:918  id */\n  0x02\n    /* \"student.sol\":916:924  id = _id */\n  swap1\n  dup1\n  mload\n  swap1\n  0x20\n  add\n  swap1\n  tag_9\n  swap3\n  swap2\n  swap1\n  tag_7\n  jump\t// in\ntag_9:\n  pop\n    /* \"student.sol\":990:991  0 */\n  0x00\n    /* \"student.sol\":975:987  endorsecount */\n  0x03\n    /* \"student.sol\":975:991  endorsecount = 0 */\n  dup2\n  swap1\n  sstore\n  pop\n    /* \"student.sol\":1077:1095  _verifystudAddress */\n  dup2\n    /* \"student.sol\":1056:1063  studver */\n  0x06\n  0x00\n    /* \"student.sol\":1056:1096  studver = verifystud(_verifystudAddress) */\n  0x0100\n  exp\n  dup2\n  sload\n  dup2\n  0xffffffffffffffffffffffffffffffffffffffff\n  mul\n  not\n  and\n  swap1\n  dup4\n  0xffffffffffffffffffffffffffffffffffffffff\n  and\n  mul\n  or\n  swap1\n  sstore\n  pop\n    /* \"student.sol\":1128:1146  _verifyinstAddress */\n  dup1\n    /* \"student.sol\":1107:1114  instver */\n  0x07\n  0x00\n    /* \"student.sol\":1107:1147  instver = verifyinst(_verifyinstAddress) */\n  0x0100\n  exp\n  dup2\n  sload\n  dup2\n  0xffffffffffffffffffffffffffffffffffffffff\n  mul\n  not\n  and\n  swap1\n  dup4\n  0xffffffffffffffffffffffffffffffffffffffff\n  and\n  mul\n  or\n  swap1\n  sstore\n  pop\n    /* \"student.sol\":469:1155  constructor(... */\n  pop\n  pop\n  pop\n  pop\n  pop\n  pop\n    /* \"student.sol\":201:9800  contract student {... */\n  jump(tag_10)\ntag_7:\n  dup3\n  dup1\n  sload\n  tag_11\n  swap1\n  tag_12\n  jump\t// in\ntag_11:\n  swap1\n  0x00\n  mstore\n  keccak256(0x00, 0x20)\n  swap1\n  0x1f\n  add\n  0x20\n  swap1\n  div\n  dup2\n  add\n  swap3\n  dup3\n  tag_14\n  jumpi\n  0x00\n  dup6\n  sstore\n  jump(tag_13)\ntag_14:\n  dup3\n  0x1f\n  lt\n  tag_15\n  jumpi\n  dup1\n  mload\n  not(0xff)\n  and\n  dup4\n  dup1\n  add\n  or\n  dup6\n  sstore\n  jump(tag_13)\ntag_15:\n  dup3\n  dup1\n  add\n  0x01\n  add\n  dup6\n  sstore\n  dup3\n  iszero\n  tag_13\n  jumpi\n  swap2\n  dup3\n  add\ntag_16:\n  dup3\n  dup2\n  gt\n  iszero\n  tag_17\n  jumpi\n  dup3\n  mload\n  dup3\n  sstore\n  swap2\n  0x20\n  add\n  swap2\n  swap1\n  0x01\n  add\n  swap1\n  jump(tag_16)\ntag_17:\ntag_13:\n  pop\n  swap1\n  pop\n  tag_18\n  swap2\n  swap1\n  tag_19\n  jump\t// in\ntag_18:\n  pop\n  swap1\n  jump\t// out\ntag_19:\ntag_20:\n  dup1\n  dup3\n  gt\n  iszero\n  tag_21\n  jumpi\n  0x00\n  dup2\n  0x00\n  swap1\n  sstore\n  pop\n  0x01\n  add\n  jump(tag_20)\ntag_21:\n  pop\n  swap1\n  jump\t// out\n    /* \"#utility.yul\":7:82   */\ntag_22:\n    /* \"#utility.yul\":40:46   */\n  0x00\n    /* \"#utility.yul\":73:75   */\n  0x40\n    /* \"#utility.yul\":67:76   */\n  mload\n    /* \"#utility.yul\":57:76   */\n  swap1\n  pop\n    /* \"#utility.yul\":7:82   */\n  swap1\n  jump\t// out\n    /* \"#utility.yul\":88:205   */\ntag_23:\n    /* \"#utility.yul\":197:198   */\n  0x00\n    /* \"#utility.yul\":194:195   */\n  dup1\n    /* \"#utility.yul\":187:199   */\n  revert\n    /* \"#utility.yul\":211:328   */\ntag_24:\n    /* \"#utility.yul\":320:321   */\n  0x00\n    /* \"#utility.yul\":317:318   */\n  dup1\n    /* \"#utility.yul\":310:322   */\n  revert\n    /* \"#utility.yul\":334:451   */\ntag_25:\n    /* \"#utility.yul\":443:444   */\n  0x00\n    /* \"#utility.yul\":440:441   */\n  dup1\n    /* \"#utility.yul\":433:445   */\n  revert\n    /* \"#utility.yul\":457:574   */\ntag_26:\n    /* \"#utility.yul\":566:567   */\n  0x00\n    /* \"#utility.yul\":563:564   */\n  dup1\n    /* \"#utility.yul\":556:568   */\n  revert\n    /* \"#utility.yul\":580:682   */\ntag_27:\n    /* \"#utility.yul\":621:627   */\n  0x00\n    /* \"#utility.yul\":672:674   */\n  0x1f\n    /* \"#utility.yul\":668:675   */\n  not\n    /* \"#utility.yul\":663:665   */\n  0x1f\n    /* \"#utility.yul\":656:661   */\n  dup4\n    /* \"#utility.yul\":652:666   */\n  add\n    /* \"#utility.yul\":648:676   */\n  and\n    /* \"#utility.yul\":638:676   */\n  swap1\n  pop\n    /* \"#utility.yul\":580:682   */\n  swap2\n  swap1\n  pop\n  jump\t// out\n    /* \"#utility.yul\":688:868   */\ntag_28:\n    /* \"#utility.yul\":736:813   */\n  0x4e487b7100000000000000000000000000000000000000000000000000000000\n    /* \"#utility.yul\":733:734   */\n  0x00\n    /* \"#utility.yul\":726:814   */\n  mstore\n    /* \"#utility.yul\":833:837   */\n  0x41\n    /* \"#utility.yul\":830:831   */\n  0x04\n    /* \"#utility.yul\":823:838   */\n  mstore\n    /* \"#utility.yul\":857:861   */\n  0x24\n    /* \"#utility.yul\":854:855   */\n  0x00\n    /* \"#utility.yul\":847:862   */\n  revert\n    /* \"#utility.yul\":874:1155   */\ntag_29:\n    /* \"#utility.yul\":957:984   */\n  tag_49\n    /* \"#utility.yul\":979:983   */\n  dup3\n    /* \"#utility.yul\":957:984   */\n  tag_27\n  jump\t// in\ntag_49:\n    /* \"#utility.yul\":949:955   */\n  dup2\n    /* \"#utility.yul\":945:985   */\n  add\n    /* \"#utility.yul\":1087:1093   */\n  dup2\n    /* \"#utility.yul\":1075:1085   */\n  dup2\n    /* \"#utility.yul\":1072:1094   */\n  lt\n    /* \"#utility.yul\":1051:1069   */\n  0xffffffffffffffff\n    /* \"#utility.yul\":1039:1049   */\n  dup3\n    /* \"#utility.yul\":1036:1070   */\n  gt\n    /* \"#utility.yul\":1033:1095   */\n  or\n    /* \"#utility.yul\":1030:1118   */\n  iszero\n  tag_50\n  jumpi\n    /* \"#utility.yul\":1098:1116   */\n  tag_51\n  tag_28\n  jump\t// in\ntag_51:\n    /* \"#utility.yul\":1030:1118   */\ntag_50:\n    /* \"#utility.yul\":1138:1148   */\n  dup1\n    /* \"#utility.yul\":1134:1136   */\n  0x40\n    /* \"#utility.yul\":1127:1149   */\n  mstore\n    /* \"#utility.yul\":917:1155   */\n  pop\n    /* \"#utility.yul\":874:1155   */\n  pop\n  pop\n  jump\t// out\n    /* \"#utility.yul\":1161:1290   */\ntag_30:\n    /* \"#utility.yul\":1195:1201   */\n  0x00\n    /* \"#utility.yul\":1222:1242   */\n  tag_53\n  tag_22\n  jump\t// in\ntag_53:\n    /* \"#utility.yul\":1212:1242   */\n  swap1\n  pop\n    /* \"#utility.yul\":1251:1284   */\n  tag_54\n    /* \"#utility.yul\":1279:1283   */\n  dup3\n    /* \"#utility.yul\":1271:1277   */\n  dup3\n    /* \"#utility.yul\":1251:1284   */\n  tag_29\n  jump\t// in\ntag_54:\n    /* \"#utility.yul\":1161:1290   */\n  swap2\n  swap1\n  pop\n  jump\t// out\n    /* \"#utility.yul\":1296:1604   */\ntag_31:\n    /* \"#utility.yul\":1358:1362   */\n  0x00\n    /* \"#utility.yul\":1448:1466   */\n  0xffffffffffffffff\n    /* \"#utility.yul\":1440:1446   */\n  dup3\n    /* \"#utility.yul\":1437:1467   */\n  gt\n    /* \"#utility.yul\":1434:1490   */\n  iszero\n  tag_56\n  jumpi\n    /* \"#utility.yul\":1470:1488   */\n  tag_57\n  tag_28\n  jump\t// in\ntag_57:\n    /* \"#utility.yul\":1434:1490   */\ntag_56:\n    /* \"#utility.yul\":1508:1537   */\n  tag_58\n    /* \"#utility.yul\":1530:1536   */\n  dup3\n    /* \"#utility.yul\":1508:1537   */\n  tag_27\n  jump\t// in\ntag_58:\n    /* \"#utility.yul\":1500:1537   */\n  swap1\n  pop\n    /* \"#utility.yul\":1592:1596   */\n  0x20\n    /* \"#utility.yul\":1586:1590   */\n  dup2\n    /* \"#utility.yul\":1582:1597   */\n  add\n    /* \"#utility.yul\":1574:1597   */\n  swap1\n  pop\n    /* \"#utility.yul\":1296:1604   */\n  swap2\n  swap1\n  pop\n  jump\t// out\n    /* \"#utility.yul\":1610:1917   */\ntag_32:\n    /* \"#utility.yul\":1678:1679   */\n  0x00\n    /* \"#utility.yul\":1688:1801   */\ntag_60:\n    /* \"#utility.yul\":1702:1708   */\n  dup4\n    /* \"#utility.yul\":1699:1700   */\n  dup2\n    /* \"#utility.yul\":1696:1709   */\n  lt\n    /* \"#utility.yul\":1688:1801   */\n  iszero\n  tag_62\n  jumpi\n    /* \"#utility.yul\":1787:1788   */\n  dup1\n    /* \"#utility.yul\":1782:1785   */\n  dup3\n    /* \"#utility.yul\":1778:1789   */\n  add\n    /* \"#utility.yul\":1772:1790   */\n  mload\n    /* \"#utility.yul\":1768:1769   */\n  dup2\n    /* \"#utility.yul\":1763:1766   */\n  dup5\n    /* \"#utility.yul\":1759:1770   */\n  add\n    /* \"#utility.yul\":1752:1791   */\n  mstore\n    /* \"#utility.yul\":1724:1726   */\n  0x20\n    /* \"#utility.yul\":1721:1722   */\n  dup2\n    /* \"#utility.yul\":1717:1727   */\n  add\n    /* \"#utility.yul\":1712:1727   */\n  swap1\n  pop\n    /* \"#utility.yul\":1688:1801   */\n  jump(tag_60)\ntag_62:\n    /* \"#utility.yul\":1819:1825   */\n  dup4\n    /* \"#utility.yul\":1816:1817   */\n  dup2\n    /* \"#utility.yul\":1813:1826   */\n  gt\n    /* \"#utility.yul\":1810:1911   */\n  iszero\n  tag_63\n  jumpi\n    /* \"#utility.yul\":1899:1900   */\n  0x00\n    /* \"#utility.yul\":1890:1896   */\n  dup5\n    /* \"#utility.yul\":1885:1888   */\n  dup5\n    /* \"#utility.yul\":1881:1897   */\n  add\n    /* \"#utility.yul\":1874:1901   */\n  mstore\n    /* \"#utility.yul\":1810:1911   */\ntag_63:\n    /* \"#utility.yul\":1659:1917   */\n  pop\n    /* \"#utility.yul\":1610:1917   */\n  pop\n  pop\n  pop\n  jump\t// out\n    /* \"#utility.yul\":1923:2344   */\ntag_33:\n    /* \"#utility.yul\":2012:2017   */\n  0x00\n    /* \"#utility.yul\":2037:2103   */\n  tag_65\n    /* \"#utility.yul\":2053:2102   */\n  tag_66\n    /* \"#utility.yul\":2095:2101   */\n  dup5\n    /* \"#utility.yul\":2053:2102   */\n  tag_31\n  jump\t// in\ntag_66:\n    /* \"#utility.yul\":2037:2103   */\n  tag_30\n  jump\t// in\ntag_65:\n    /* \"#utility.yul\":2028:2103   */\n  swap1\n  pop\n    /* \"#utility.yul\":2126:2132   */\n  dup3\n    /* \"#utility.yul\":2119:2124   */\n  dup2\n    /* \"#utility.yul\":2112:2133   */\n  mstore\n    /* \"#utility.yul\":2164:2168   */\n  0x20\n    /* \"#utility.yul\":2157:2162   */\n  dup2\n    /* \"#utility.yul\":2153:2169   */\n  add\n    /* \"#utility.yul\":2202:2205   */\n  dup5\n    /* \"#utility.yul\":2193:2199   */\n  dup5\n    /* \"#utility.yul\":2188:2191   */\n  dup5\n    /* \"#utility.yul\":2184:2200   */\n  add\n    /* \"#utility.yul\":2181:2206   */\n  gt\n    /* \"#utility.yul\":2178:2290   */\n  iszero\n  tag_67\n  jumpi\n    /* \"#utility.yul\":2209:2288   */\n  tag_68\n  tag_26\n  jump\t// in\ntag_68:\n    /* \"#utility.yul\":2178:2290   */\ntag_67:\n    /* \"#utility.yul\":2299:2338   */\n  tag_69\n    /* \"#utility.yul\":2331:2337   */\n  dup5\n    /* \"#utility.yul\":2326:2329   */\n  dup3\n    /* \"#utility.yul\":2321:2324   */\n  dup6\n    /* \"#utility.yul\":2299:2338   */\n  tag_32\n  jump\t// in\ntag_69:\n    /* \"#utility.yul\":2018:2344   */\n  pop\n    /* \"#utility.yul\":1923:2344   */\n  swap4\n  swap3\n  pop\n  pop\n  pop\n  jump\t// out\n    /* \"#utility.yul\":2364:2719   */\ntag_34:\n    /* \"#utility.yul\":2431:2436   */\n  0x00\n    /* \"#utility.yul\":2480:2483   */\n  dup3\n    /* \"#utility.yul\":2473:2477   */\n  0x1f\n    /* \"#utility.yul\":2465:2471   */\n  dup4\n    /* \"#utility.yul\":2461:2478   */\n  add\n    /* \"#utility.yul\":2457:2484   */\n  slt\n    /* \"#utility.yul\":2447:2569   */\n  tag_71\n  jumpi\n    /* \"#utility.yul\":2488:2567   */\n  tag_72\n  tag_25\n  jump\t// in\ntag_72:\n    /* \"#utility.yul\":2447:2569   */\ntag_71:\n    /* \"#utility.yul\":2598:2604   */\n  dup2\n    /* \"#utility.yul\":2592:2605   */\n  mload\n    /* \"#utility.yul\":2623:2713   */\n  tag_73\n    /* \"#utility.yul\":2709:2712   */\n  dup5\n    /* \"#utility.yul\":2701:2707   */\n  dup3\n    /* \"#utility.yul\":2694:2698   */\n  0x20\n    /* \"#utility.yul\":2686:2692   */\n  dup7\n    /* \"#utility.yul\":2682:2699   */\n  add\n    /* \"#utility.yul\":2623:2713   */\n  tag_33\n  jump\t// in\ntag_73:\n    /* \"#utility.yul\":2614:2713   */\n  swap2\n  pop\n    /* \"#utility.yul\":2437:2719   */\n  pop\n    /* \"#utility.yul\":2364:2719   */\n  swap3\n  swap2\n  pop\n  pop\n  jump\t// out\n    /* \"#utility.yul\":2725:2851   */\ntag_35:\n    /* \"#utility.yul\":2762:2769   */\n  0x00\n    /* \"#utility.yul\":2802:2844   */\n  0xffffffffffffffffffffffffffffffffffffffff\n    /* \"#utility.yul\":2795:2800   */\n  dup3\n    /* \"#utility.yul\":2791:2845   */\n  and\n    /* \"#utility.yul\":2780:2845   */\n  swap1\n  pop\n    /* \"#utility.yul\":2725:2851   */\n  swap2\n  swap1\n  pop\n  jump\t// out\n    /* \"#utility.yul\":2857:2953   */\ntag_36:\n    /* \"#utility.yul\":2894:2901   */\n  0x00\n    /* \"#utility.yul\":2923:2947   */\n  tag_76\n    /* \"#utility.yul\":2941:2946   */\n  dup3\n    /* \"#utility.yul\":2923:2947   */\n  tag_35\n  jump\t// in\ntag_76:\n    /* \"#utility.yul\":2912:2947   */\n  swap1\n  pop\n    /* \"#utility.yul\":2857:2953   */\n  swap2\n  swap1\n  pop\n  jump\t// out\n    /* \"#utility.yul\":2959:3081   */\ntag_37:\n    /* \"#utility.yul\":3032:3056   */\n  tag_78\n    /* \"#utility.yul\":3050:3055   */\n  dup2\n    /* \"#utility.yul\":3032:3056   */\n  tag_36\n  jump\t// in\ntag_78:\n    /* \"#utility.yul\":3025:3030   */\n  dup2\n    /* \"#utility.yul\":3022:3057   */\n  eq\n    /* \"#utility.yul\":3012:3075   */\n  tag_79\n  jumpi\n    /* \"#utility.yul\":3071:3072   */\n  0x00\n    /* \"#utility.yul\":3068:3069   */\n  dup1\n    /* \"#utility.yul\":3061:3073   */\n  revert\n    /* \"#utility.yul\":3012:3075   */\ntag_79:\n    /* \"#utility.yul\":2959:3081   */\n  pop\n  jump\t// out\n    /* \"#utility.yul\":3087:3230   */\ntag_38:\n    /* \"#utility.yul\":3144:3149   */\n  0x00\n    /* \"#utility.yul\":3175:3181   */\n  dup2\n    /* \"#utility.yul\":3169:3182   */\n  mload\n    /* \"#utility.yul\":3160:3182   */\n  swap1\n  pop\n    /* \"#utility.yul\":3191:3224   */\n  tag_81\n    /* \"#utility.yul\":3218:3223   */\n  dup2\n    /* \"#utility.yul\":3191:3224   */\n  tag_37\n  jump\t// in\ntag_81:\n    /* \"#utility.yul\":3087:3230   */\n  swap3\n  swap2\n  pop\n  pop\n  jump\t// out\n    /* \"#utility.yul\":3236:4889   */\ntag_3:\n    /* \"#utility.yul\":3381:3387   */\n  0x00\n    /* \"#utility.yul\":3389:3395   */\n  dup1\n    /* \"#utility.yul\":3397:3403   */\n  0x00\n    /* \"#utility.yul\":3405:3411   */\n  dup1\n    /* \"#utility.yul\":3413:3419   */\n  0x00\n    /* \"#utility.yul\":3421:3427   */\n  dup1\n    /* \"#utility.yul\":3470:3473   */\n  0xc0\n    /* \"#utility.yul\":3458:3467   */\n  dup8\n    /* \"#utility.yul\":3449:3456   */\n  dup10\n    /* \"#utility.yul\":3445:3468   */\n  sub\n    /* \"#utility.yul\":3441:3474   */\n  slt\n    /* \"#utility.yul\":3438:3558   */\n  iszero\n  tag_83\n  jumpi\n    /* \"#utility.yul\":3477:3556   */\n  tag_84\n  tag_23\n  jump\t// in\ntag_84:\n    /* \"#utility.yul\":3438:3558   */\ntag_83:\n    /* \"#utility.yul\":3618:3619   */\n  0x00\n    /* \"#utility.yul\":3607:3616   */\n  dup8\n    /* \"#utility.yul\":3603:3620   */\n  add\n    /* \"#utility.yul\":3597:3621   */\n  mload\n    /* \"#utility.yul\":3648:3666   */\n  0xffffffffffffffff\n    /* \"#utility.yul\":3640:3646   */\n  dup2\n    /* \"#utility.yul\":3637:3667   */\n  gt\n    /* \"#utility.yul\":3634:3751   */\n  iszero\n  tag_85\n  jumpi\n    /* \"#utility.yul\":3670:3749   */\n  tag_86\n  tag_24\n  jump\t// in\ntag_86:\n    /* \"#utility.yul\":3634:3751   */\ntag_85:\n    /* \"#utility.yul\":3775:3849   */\n  tag_87\n    /* \"#utility.yul\":3841:3848   */\n  dup10\n    /* \"#utility.yul\":3832:3838   */\n  dup3\n    /* \"#utility.yul\":3821:3830   */\n  dup11\n    /* \"#utility.yul\":3817:3839   */\n  add\n    /* \"#utility.yul\":3775:3849   */\n  tag_34\n  jump\t// in\ntag_87:\n    /* \"#utility.yul\":3765:3849   */\n  swap7\n  pop\n    /* \"#utility.yul\":3568:3859   */\n  pop\n    /* \"#utility.yul\":3898:3900   */\n  0x20\n    /* \"#utility.yul\":3924:3988   */\n  tag_88\n    /* \"#utility.yul\":3980:3987   */\n  dup10\n    /* \"#utility.yul\":3971:3977   */\n  dup3\n    /* \"#utility.yul\":3960:3969   */\n  dup11\n    /* \"#utility.yul\":3956:3978   */\n  add\n    /* \"#utility.yul\":3924:3988   */\n  tag_38\n  jump\t// in\ntag_88:\n    /* \"#utility.yul\":3914:3988   */\n  swap6\n  pop\n    /* \"#utility.yul\":3869:3998   */\n  pop\n    /* \"#utility.yul\":4058:4060   */\n  0x40\n    /* \"#utility.yul\":4047:4056   */\n  dup8\n    /* \"#utility.yul\":4043:4061   */\n  add\n    /* \"#utility.yul\":4037:4062   */\n  mload\n    /* \"#utility.yul\":4089:4107   */\n  0xffffffffffffffff\n    /* \"#utility.yul\":4081:4087   */\n  dup2\n    /* \"#utility.yul\":4078:4108   */\n  gt\n    /* \"#utility.yul\":4075:4192   */\n  iszero\n  tag_89\n  jumpi\n    /* \"#utility.yul\":4111:4190   */\n  tag_90\n  tag_24\n  jump\t// in\ntag_90:\n    /* \"#utility.yul\":4075:4192   */\ntag_89:\n    /* \"#utility.yul\":4216:4290   */\n  tag_91\n    /* \"#utility.yul\":4282:4289   */\n  dup10\n    /* \"#utility.yul\":4273:4279   */\n  dup3\n    /* \"#utility.yul\":4262:4271   */\n  dup11\n    /* \"#utility.yul\":4258:4280   */\n  add\n    /* \"#utility.yul\":4216:4290   */\n  tag_34\n  jump\t// in\ntag_91:\n    /* \"#utility.yul\":4206:4290   */\n  swap5\n  pop\n    /* \"#utility.yul\":4008:4300   */\n  pop\n    /* \"#utility.yul\":4360:4362   */\n  0x60\n    /* \"#utility.yul\":4349:4358   */\n  dup8\n    /* \"#utility.yul\":4345:4363   */\n  add\n    /* \"#utility.yul\":4339:4364   */\n  mload\n    /* \"#utility.yul\":4391:4409   */\n  0xffffffffffffffff\n    /* \"#utility.yul\":4383:4389   */\n  dup2\n    /* \"#utility.yul\":4380:4410   */\n  gt\n    /* \"#utility.yul\":4377:4494   */\n  iszero\n  tag_92\n  jumpi\n    /* \"#utility.yul\":4413:4492   */\n  tag_93\n  tag_24\n  jump\t// in\ntag_93:\n    /* \"#utility.yul\":4377:4494   */\ntag_92:\n    /* \"#utility.yul\":4518:4592   */\n  tag_94\n    /* \"#utility.yul\":4584:4591   */\n  dup10\n    /* \"#utility.yul\":4575:4581   */\n  dup3\n    /* \"#utility.yul\":4564:4573   */\n  dup11\n    /* \"#utility.yul\":4560:4582   */\n  add\n    /* \"#utility.yul\":4518:4592   */\n  tag_34\n  jump\t// in\ntag_94:\n    /* \"#utility.yul\":4508:4592   */\n  swap4\n  pop\n    /* \"#utility.yul\":4310:4602   */\n  pop\n    /* \"#utility.yul\":4641:4644   */\n  0x80\n    /* \"#utility.yul\":4668:4732   */\n  tag_95\n    /* \"#utility.yul\":4724:4731   */\n  dup10\n    /* \"#utility.yul\":4715:4721   */\n  dup3\n    /* \"#utility.yul\":4704:4713   */\n  dup11\n    /* \"#utility.yul\":4700:4722   */\n  add\n    /* \"#utility.yul\":4668:4732   */\n  tag_38\n  jump\t// in\ntag_95:\n    /* \"#utility.yul\":4658:4732   */\n  swap3\n  pop\n    /* \"#utility.yul\":4612:4742   */\n  pop\n    /* \"#utility.yul\":4781:4784   */\n  0xa0\n    /* \"#utility.yul\":4808:4872   */\n  tag_96\n    /* \"#utility.yul\":4864:4871   */\n  dup10\n    /* \"#utility.yul\":4855:4861   */\n  dup3\n    /* \"#utility.yul\":4844:4853   */\n  dup11\n    /* \"#utility.yul\":4840:4862   */\n  add\n    /* \"#utility.yul\":4808:4872   */\n  tag_38\n  jump\t// in\ntag_96:\n    /* \"#utility.yul\":4798:4872   */\n  swap2\n  pop\n    /* \"#utility.yul\":4752:4882   */\n  pop\n    /* \"#utility.yul\":3236:4889   */\n  swap3\n  swap6\n  pop\n  swap3\n  swap6\n  pop\n  swap3\n  swap6\n  jump\t// out\n    /* \"#utility.yul\":4895:5075   */\ntag_39:\n    /* \"#utility.yul\":4943:5020   */\n  0x4e487b7100000000000000000000000000000000000000000000000000000000\n    /* \"#utility.yul\":4940:4941   */\n  0x00\n    /* \"#utility.yul\":4933:5021   */\n  mstore\n    /* \"#utility.yul\":5040:5044   */\n  0x22\n    /* \"#utility.yul\":5037:5038   */\n  0x04\n    /* \"#utility.yul\":5030:5045   */\n  mstore\n    /* \"#utility.yul\":5064:5068   */\n  0x24\n    /* \"#utility.yul\":5061:5062   */\n  0x00\n    /* \"#utility.yul\":5054:5069   */\n  revert\n    /* \"#utility.yul\":5081:5401   */\ntag_12:\n    /* \"#utility.yul\":5125:5131   */\n  0x00\n    /* \"#utility.yul\":5162:5163   */\n  0x02\n    /* \"#utility.yul\":5156:5160   */\n  dup3\n    /* \"#utility.yul\":5152:5164   */\n  div\n    /* \"#utility.yul\":5142:5164   */\n  swap1\n  pop\n    /* \"#utility.yul\":5209:5210   */\n  0x01\n    /* \"#utility.yul\":5203:5207   */\n  dup3\n    /* \"#utility.yul\":5199:5211   */\n  and\n    /* \"#utility.yul\":5230:5248   */\n  dup1\n    /* \"#utility.yul\":5220:5301   */\n  tag_99\n  jumpi\n    /* \"#utility.yul\":5286:5290   */\n  0x7f\n    /* \"#utility.yul\":5278:5284   */\n  dup3\n    /* \"#utility.yul\":5274:5291   */\n  and\n    /* \"#utility.yul\":5264:5291   */\n  swap2\n  pop\n    /* \"#utility.yul\":5220:5301   */\ntag_99:\n    /* \"#utility.yul\":5348:5350   */\n  0x20\n    /* \"#utility.yul\":5340:5346   */\n  dup3\n    /* \"#utility.yul\":5337:5351   */\n  lt\n    /* \"#utility.yul\":5317:5335   */\n  dup2\n    /* \"#utility.yul\":5314:5352   */\n  eq\n    /* \"#utility.yul\":5311:5395   */\n  iszero\n  tag_100\n  jumpi\n    /* \"#utility.yul\":5367:5385   */\n  tag_101\n  tag_39\n  jump\t// in\ntag_101:\n    /* \"#utility.yul\":5311:5395   */\ntag_100:\n    /* \"#utility.yul\":5132:5401   */\n  pop\n    /* \"#utility.yul\":5081:5401   */\n  swap2\n  swap1\n  pop\n  jump\t// out\n    /* \"student.sol\":201:9800  contract student {... */\ntag_10:\n  dataSize(sub_0)\n  dup1\n  dataOffset(sub_0)\n  0x00\n  codecopy\n  0x00\n  return\nstop\n\nsub_0: assembly {\n        /* \"student.sol\":201:9800  contract student {... */\n      mstore(0x40, 0x80)\n      callvalue\n      dup1\n      iszero\n      tag_1\n      jumpi\n      0x00\n      dup1\n      revert\n    tag_1:\n      pop\n      jumpi(tag_2, lt(calldatasize, 0x04))\n      shr(0xe0, calldataload(0x00))\n      dup1\n      0x94fb3da7\n      gt\n      tag_26\n      jumpi\n      dup1\n      0xe3d77aba\n      gt\n      tag_27\n      jumpi\n      dup1\n      0xe3d77aba\n      eq\n      tag_20\n      jumpi\n      dup1\n      0xeda3467c\n      eq\n      tag_21\n      jumpi\n      dup1\n      0xf007b4c4\n      eq\n      tag_22\n      jumpi\n      dup1\n      0xf1d9efb2\n      eq\n      tag_23\n      jumpi\n      dup1\n      0xfc017f25\n      eq\n      tag_24\n      jumpi\n      dup1\n      0xfee7989e\n      eq\n      tag_25\n      jumpi\n      jump(tag_2)\n    tag_27:\n      dup1\n      0x94fb3da7\n      eq\n      tag_14\n      jumpi\n      dup1\n      0x9c13c7c8\n      eq\n      tag_15\n      jumpi\n      dup1\n      0xa1e68c52\n      eq\n      tag_16\n      jumpi\n      dup1\n      0xd57e0ad6\n      eq\n      tag_17\n      jumpi\n      dup1\n      0xdebbb1c1\n      eq\n      tag_18\n      jumpi\n      dup1\n      0xe2601751\n      eq\n      tag_19\n      jumpi\n      jump(tag_2)\n    tag_26:\n      dup1\n      0x444fc662\n      gt\n      tag_28\n      jumpi\n      dup1\n      0x444fc662\n      eq\n      tag_8\n      jumpi\n      dup1\n      0x44afd134\n      eq\n      tag_9\n      jumpi\n      dup1\n      0x52dbd3c0\n      eq\n      tag_10\n      jumpi\n      dup1\n      0x769313fc\n      eq\n      tag_11\n      jumpi\n      dup1\n      0x7c4c7430\n      eq\n      tag_12\n      jumpi\n      dup1\n      0x84c79120\n      eq\n      tag_13\n      jumpi\n      jump(tag_2)\n    tag_28:\n      dup1\n      0x05f53b29\n      eq\n      tag_3\n      jumpi\n      dup1\n      0x1b258fc0\n      eq\n      tag_4\n      jumpi\n      dup1\n      0x1e9f006a\n      eq\n      tag_5\n      jumpi\n      dup1\n      0x2186879c\n      eq\n      tag_6\n      jumpi\n      dup1\n      0x24eec41a\n      eq\n      tag_7\n      jumpi\n    tag_2:\n      0x00\n      dup1\n      revert\n        /* \"student.sol\":9074:9168  function getSkillCount() public view returns (uint256) {... */\n    tag_3:\n      tag_29\n      tag_30\n      jump\t// in\n    tag_29:\n      mload(0x40)\n      tag_31\n      swap2\n      swap1\n      tag_32\n      jump\t// in\n    tag_31:\n      mload(0x40)\n      dup1\n      swap2\n      sub\n      swap1\n      return\n        /* \"student.sol\":1557:1590  address[] public listOfInstitutes */\n    tag_4:\n      tag_33\n      0x04\n      dup1\n      calldatasize\n      sub\n      dup2\n      add\n      swap1\n      tag_34\n      swap2\n      swap1\n      tag_35\n      jump\t// in\n    tag_34:\n      tag_36\n      jump\t// in\n    tag_33:\n      mload(0x40)\n      tag_37\n      swap2\n      swap1\n      tag_38\n      jump\t// in\n    tag_37:\n      mload(0x40)\n      dup1\n      swap2\n      sub\n      swap1\n      return\n        /* \"student.sol\":405:430  verifystud public studver */\n    tag_5:\n      tag_39\n      tag_40\n      jump\t// in\n    tag_39:\n      mload(0x40)\n      tag_41\n      swap2\n      swap1\n      tag_42\n      jump\t// in\n    tag_41:\n      mload(0x40)\n      dup1\n      swap2\n      sub\n      swap1\n      return\n        /* \"student.sol\":4342:4522  function deleteCertification(string memory _certname) public OnlyStudent {... */\n    tag_6:\n      tag_43\n      0x04\n      dup1\n      calldatasize\n      sub\n      dup2\n      add\n      swap1\n      tag_44\n      swap2\n      swap1\n      tag_45\n      jump\t// in\n    tag_44:\n      tag_46\n      jump\t// in\n    tag_43:\n      stop\n        /* \"student.sol\":7592:8199  function addSkill(... */\n    tag_7:\n      tag_47\n      0x04\n      dup1\n      calldatasize\n      sub\n      dup2\n      add\n      swap1\n      tag_48\n      swap2\n      swap1\n      tag_49\n      jump\t// in\n    tag_48:\n      tag_50\n      jump\t// in\n    tag_47:\n      stop\n        /* \"student.sol\":9176:9497  function getSkillByIndex(... */\n    tag_8:\n      tag_51\n      0x04\n      dup1\n      calldatasize\n      sub\n      dup2\n      add\n      swap1\n      tag_52\n      swap2\n      swap1\n      tag_35\n      jump\t// in\n    tag_52:\n      tag_53\n      jump\t// in\n    tag_51:\n      mload(0x40)\n      tag_54\n      swap7\n      swap6\n      swap5\n      swap4\n      swap3\n      swap2\n      swap1\n      tag_55\n      jump\t// in\n    tag_54:\n      mload(0x40)\n      dup1\n      swap2\n      sub\n      swap1\n      return\n        /* \"student.sol\":3922:4032  function getCertificationCount() public view returns (uint256) {... */\n    tag_9:\n      tag_56\n      tag_57\n      jump\t// in\n    tag_56:\n      mload(0x40)\n      tag_58\n      swap2\n      swap1\n      tag_32\n      jump\t// in\n    tag_58:\n      mload(0x40)\n      dup1\n      swap2\n      sub\n      swap1\n      return\n        /* \"student.sol\":5576:5749  function verifyWorkExp(address _institute) public {... */\n    tag_10:\n      tag_59\n      0x04\n      dup1\n      calldatasize\n      sub\n      dup2\n      add\n      swap1\n      tag_60\n      swap2\n      swap1\n      tag_61\n      jump\t// in\n    tag_60:\n      tag_62\n      jump\t// in\n    tag_59:\n      stop\n        /* \"student.sol\":335:361  address public instAddress */\n    tag_11:\n      tag_63\n      tag_64\n      jump\t// in\n    tag_63:\n      mload(0x40)\n      tag_65\n      swap2\n      swap1\n      tag_38\n      jump\t// in\n    tag_65:\n      mload(0x40)\n      dup1\n      swap2\n      sub\n      swap1\n      return\n        /* \"student.sol\":2608:3203  function addCertification(... */\n    tag_12:\n      tag_66\n      0x04\n      dup1\n      calldatasize\n      sub\n      dup2\n      add\n      swap1\n      tag_67\n      swap2\n      swap1\n      tag_68\n      jump\t// in\n    tag_67:\n      tag_69\n      jump\t// in\n    tag_66:\n      stop\n        /* \"student.sol\":3266:3460  function verifyCertification(string memory _certname) public {... */\n    tag_13:\n      tag_70\n      0x04\n      dup1\n      calldatasize\n      sub\n      dup2\n      add\n      swap1\n      tag_71\n      swap2\n      swap1\n      tag_45\n      jump\t// in\n    tag_71:\n      tag_72\n      jump\t// in\n    tag_70:\n      stop\n        /* \"student.sol\":6425:6523  function getWorkExpCount() public view returns (uint256) {... */\n    tag_14:\n      tag_73\n      tag_74\n      jump\t// in\n    tag_73:\n      mload(0x40)\n      tag_75\n      swap2\n      swap1\n      tag_32\n      jump\t// in\n    tag_75:\n      mload(0x40)\n      dup1\n      swap2\n      sub\n      swap1\n      return\n        /* \"student.sol\":2035:2162  function removeInstFromProfile() public  {... */\n    tag_15:\n      tag_76\n      tag_77\n      jump\t// in\n    tag_76:\n      stop\n        /* \"student.sol\":1333:1549  function getStudentInfo()... */\n    tag_16:\n      tag_78\n      tag_79\n      jump\t// in\n    tag_78:\n      mload(0x40)\n      tag_80\n      swap6\n      swap5\n      swap4\n      swap3\n      swap2\n      swap1\n      tag_81\n      jump\t// in\n    tag_80:\n      mload(0x40)\n      dup1\n      swap2\n      sub\n      swap1\n      return\n        /* \"student.sol\":6531:6889  function getWorkExpByIndex(... */\n    tag_17:\n      tag_82\n      0x04\n      dup1\n      calldatasize\n      sub\n      dup2\n      add\n      swap1\n      tag_83\n      swap2\n      swap1\n      tag_35\n      jump\t// in\n    tag_83:\n      tag_84\n      jump\t// in\n    tag_82:\n      mload(0x40)\n      tag_85\n      swap8\n      swap7\n      swap6\n      swap5\n      swap4\n      swap3\n      swap2\n      swap1\n      tag_86\n      jump\t// in\n    tag_85:\n      mload(0x40)\n      dup1\n      swap2\n      sub\n      swap1\n      return\n        /* \"student.sol\":437:462  verifyinst public instver */\n    tag_18:\n      tag_87\n      tag_88\n      jump\t// in\n    tag_87:\n      mload(0x40)\n      tag_89\n      swap2\n      swap1\n      tag_90\n      jump\t// in\n    tag_89:\n      mload(0x40)\n      dup1\n      swap2\n      sub\n      swap1\n      return\n        /* \"student.sol\":6897:7002  function deleteWorkExp(address org) public OnlyStudent {... */\n    tag_19:\n      tag_91\n      0x04\n      dup1\n      calldatasize\n      sub\n      dup2\n      add\n      swap1\n      tag_92\n      swap2\n      swap1\n      tag_61\n      jump\t// in\n    tag_92:\n      tag_93\n      jump\t// in\n    tag_91:\n      stop\n        /* \"student.sol\":1815:2029  function addInstToProfile(address _instAddress) public onlyverfiedInstitute  {... */\n    tag_20:\n      tag_94\n      0x04\n      dup1\n      calldatasize\n      sub\n      dup2\n      add\n      swap1\n      tag_95\n      swap2\n      swap1\n      tag_61\n      jump\t// in\n    tag_95:\n      tag_96\n      jump\t// in\n    tag_94:\n      stop\n        /* \"student.sol\":9505:9635  function deleteSkill(string memory _name) public OnlyStudent {... */\n    tag_21:\n      tag_97\n      0x04\n      dup1\n      calldatasize\n      sub\n      dup2\n      add\n      swap1\n      tag_98\n      swap2\n      swap1\n      tag_45\n      jump\t// in\n    tag_98:\n      tag_99\n      jump\t// in\n    tag_97:\n      stop\n        /* \"student.sol\":8207:8514  function endorseSkill(string memory _name, string memory _review) public {... */\n    tag_22:\n      tag_100\n      0x04\n      dup1\n      calldatasize\n      sub\n      dup2\n      add\n      swap1\n      tag_101\n      swap2\n      swap1\n      tag_102\n      jump\t// in\n    tag_101:\n      tag_103\n      jump\t// in\n    tag_100:\n      stop\n        /* \"student.sol\":4944:5568  function addWorkExp(... */\n    tag_23:\n      tag_104\n      0x04\n      dup1\n      calldatasize\n      sub\n      dup2\n      add\n      swap1\n      tag_105\n      swap2\n      swap1\n      tag_106\n      jump\t// in\n    tag_105:\n      tag_107\n      jump\t// in\n    tag_104:\n      stop\n        /* \"student.sol\":1599:1807  function editInfo(... */\n    tag_24:\n      tag_108\n      0x04\n      dup1\n      calldatasize\n      sub\n      dup2\n      add\n      swap1\n      tag_109\n      swap2\n      swap1\n      tag_49\n      jump\t// in\n    tag_109:\n      tag_110\n      jump\t// in\n    tag_108:\n      stop\n        /* \"student.sol\":4040:4253  function getCertificationByIndex(... */\n    tag_25:\n      tag_111\n      0x04\n      dup1\n      calldatasize\n      sub\n      dup2\n      add\n      swap1\n      tag_112\n      swap2\n      swap1\n      tag_35\n      jump\t// in\n    tag_112:\n      tag_113\n      jump\t// in\n    tag_111:\n      mload(0x40)\n      tag_114\n      swap6\n      swap5\n      swap4\n      swap3\n      swap2\n      swap1\n      tag_115\n      jump\t// in\n    tag_114:\n      mload(0x40)\n      dup1\n      swap2\n      sub\n      swap1\n      return\n        /* \"student.sol\":9074:9168  function getSkillCount() public view returns (uint256) {... */\n    tag_30:\n        /* \"student.sol\":9120:9127  uint256 */\n      0x00\n        /* \"student.sol\":9147:9153  skills */\n      0x0e\n        /* \"student.sol\":9147:9160  skills.length */\n      dup1\n      sload\n      swap1\n      pop\n        /* \"student.sol\":9140:9160  return skills.length */\n      swap1\n      pop\n        /* \"student.sol\":9074:9168  function getSkillCount() public view returns (uint256) {... */\n      swap1\n      jump\t// out\n        /* \"student.sol\":1557:1590  address[] public listOfInstitutes */\n    tag_36:\n      0x08\n      dup2\n      dup2\n      sload\n      dup2\n      lt\n      tag_117\n      jumpi\n      0x00\n      dup1\n      revert\n    tag_117:\n      swap1\n      0x00\n      mstore\n      keccak256(0x00, 0x20)\n      add\n      0x00\n      swap2\n      pop\n      sload\n      swap1\n      0x0100\n      exp\n      swap1\n      div\n      0xffffffffffffffffffffffffffffffffffffffff\n      and\n      dup2\n      jump\t// out\n        /* \"student.sol\":405:430  verifystud public studver */\n    tag_40:\n      0x06\n      0x00\n      swap1\n      sload\n      swap1\n      0x0100\n      exp\n      swap1\n      div\n      0xffffffffffffffffffffffffffffffffffffffff\n      and\n      dup2\n      jump\t// out\n        /* \"student.sol\":4342:4522  function deleteCertification(string memory _certname) public OnlyStudent {... */\n    tag_46:\n        /* \"student.sol\":1217:1232  student_address */\n      0x00\n      dup1\n      sload\n      swap1\n      0x0100\n      exp\n      swap1\n      div\n      0xffffffffffffffffffffffffffffffffffffffff\n      and\n        /* \"student.sol\":1203:1232  msg.sender == student_address */\n      0xffffffffffffffffffffffffffffffffffffffff\n      and\n        /* \"student.sol\":1203:1213  msg.sender */\n      caller\n        /* \"student.sol\":1203:1232  msg.sender == student_address */\n      0xffffffffffffffffffffffffffffffffffffffff\n      and\n      eq\n        /* \"student.sol\":1195:1254  require(msg.sender == student_address, \"Not Student error\") */\n      tag_120\n      jumpi\n      mload(0x40)\n      0x08c379a000000000000000000000000000000000000000000000000000000000\n      dup2\n      mstore\n      0x04\n      add\n      tag_121\n      swap1\n      tag_122\n      jump\t// in\n    tag_121:\n      mload(0x40)\n      dup1\n      swap2\n      sub\n      swap1\n      revert\n    tag_120:\n        /* \"student.sol\":4465:4481  certificationmap */\n      0x09\n        /* \"student.sol\":4482:4491  _certname */\n      dup2\n        /* \"student.sol\":4465:4492  certificationmap[_certname] */\n      mload(0x40)\n      tag_124\n      swap2\n      swap1\n      tag_125\n      jump\t// in\n    tag_124:\n      swap1\n      dup2\n      mstore\n      0x20\n      add\n      mload(0x40)\n      dup1\n      swap2\n      sub\n      swap1\n      keccak256\n        /* \"student.sol\":4465:4514  certificationmap[_certname]... */\n      0x03\n      add\n      0x01\n      swap1\n      sload\n      swap1\n      0x0100\n      exp\n      swap1\n      div\n      0xff\n      and\n        /* \"student.sol\":4464:4514  !certificationmap[_certname]... */\n      iszero\n        /* \"student.sol\":4426:4442  certificationmap */\n      0x09\n        /* \"student.sol\":4443:4452  _certname */\n      dup3\n        /* \"student.sol\":4426:4453  certificationmap[_certname] */\n      mload(0x40)\n      tag_126\n      swap2\n      swap1\n      tag_125\n      jump\t// in\n    tag_126:\n      swap1\n      dup2\n      mstore\n      0x20\n      add\n      mload(0x40)\n      dup1\n      swap2\n      sub\n      swap1\n      keccak256\n        /* \"student.sol\":4426:4461  certificationmap[_certname].visible */\n      0x03\n      add\n      0x01\n        /* \"student.sol\":4426:4514  certificationmap[_certname].visible = !certificationmap[_certname]... */\n      0x0100\n      exp\n      dup2\n      sload\n      dup2\n      0xff\n      mul\n      not\n      and\n      swap1\n      dup4\n      iszero\n      iszero\n      mul\n      or\n      swap1\n      sstore\n      pop\n        /* \"student.sol\":4342:4522  function deleteCertification(string memory _certname) public OnlyStudent {... */\n      pop\n      jump\t// out\n        /* \"student.sol\":7592:8199  function addSkill(... */\n    tag_50:\n        /* \"student.sol\":1217:1232  student_address */\n      0x00\n      dup1\n      sload\n      swap1\n      0x0100\n      exp\n      swap1\n      div\n      0xffffffffffffffffffffffffffffffffffffffff\n      and\n        /* \"student.sol\":1203:1232  msg.sender == student_address */\n      0xffffffffffffffffffffffffffffffffffffffff\n      and\n        /* \"student.sol\":1203:1213  msg.sender */\n      caller\n        /* \"student.sol\":1203:1232  msg.sender == student_address */\n      0xffffffffffffffffffffffffffffffffffffffff\n      and\n      eq\n        /* \"student.sol\":1195:1254  require(msg.sender == student_address, \"Not Student error\") */\n      tag_128\n      jumpi\n      mload(0x40)\n      0x08c379a000000000000000000000000000000000000000000000000000000000\n      dup2\n      mstore\n      0x04\n      add\n      tag_129\n      swap1\n      tag_122\n      jump\t// in\n    tag_129:\n      mload(0x40)\n      dup1\n      swap2\n      sub\n      swap1\n      revert\n    tag_128:\n        /* \"student.sol\":7808:7841  skillInfo memory employeeSkillSet */\n      tag_131\n      tag_132\n      jump\t// in\n    tag_131:\n        /* \"student.sol\":7918:7923  _name */\n      dup4\n        /* \"student.sol\":7894:7910  employeeSkillSet */\n      dup2\n        /* \"student.sol\":7894:7915  employeeSkillSet.name */\n      0x00\n      add\n        /* \"student.sol\":7894:7923  employeeSkillSet.name = _name */\n      dup2\n      swap1\n      mstore\n      pop\n        /* \"student.sol\":7966:7979  _student_name */\n      dup3\n        /* \"student.sol\":7934:7950  employeeSkillSet */\n      dup2\n        /* \"student.sol\":7934:7963  employeeSkillSet.student_name */\n      0x20\n      add\n        /* \"student.sol\":7934:7979  employeeSkillSet.student_name = _student_name */\n      dup2\n      swap1\n      mstore\n      pop\n        /* \"student.sol\":8020:8031  _experience */\n      dup2\n        /* \"student.sol\":7990:8006  employeeSkillSet */\n      dup2\n        /* \"student.sol\":7990:8017  employeeSkillSet.experience */\n      0x40\n      add\n        /* \"student.sol\":7990:8031  employeeSkillSet.experience = _experience */\n      dup2\n      swap1\n      mstore\n      pop\n        /* \"student.sol\":8070:8075  false */\n      0x00\n        /* \"student.sol\":8042:8058  employeeSkillSet */\n      dup2\n        /* \"student.sol\":8042:8067  employeeSkillSet.endorsed */\n      0x60\n      add\n        /* \"student.sol\":8042:8075  employeeSkillSet.endorsed = false */\n      swap1\n      iszero\n      iszero\n      swap1\n      dup2\n      iszero\n      iszero\n      dup2\n      mstore\n      pop\n      pop\n        /* \"student.sol\":8113:8117  true */\n      0x01\n        /* \"student.sol\":8086:8102  employeeSkillSet */\n      dup2\n        /* \"student.sol\":8086:8110  employeeSkillSet.visible */\n      0xc0\n      add\n        /* \"student.sol\":8086:8117  employeeSkillSet.visible = true */\n      swap1\n      iszero\n      iszero\n      swap1\n      dup2\n      iszero\n      iszero\n      dup2\n      mstore\n      pop\n      pop\n        /* \"student.sol\":8146:8162  employeeSkillSet */\n      dup1\n        /* \"student.sol\":8128:8136  skillmap */\n      0x0d\n        /* \"student.sol\":8137:8142  _name */\n      dup6\n        /* \"student.sol\":8128:8143  skillmap[_name] */\n      mload(0x40)\n      tag_133\n      swap2\n      swap1\n      tag_125\n      jump\t// in\n    tag_133:\n      swap1\n      dup2\n      mstore\n      0x20\n      add\n      mload(0x40)\n      dup1\n      swap2\n      sub\n      swap1\n      keccak256\n        /* \"student.sol\":8128:8162  skillmap[_name] = employeeSkillSet */\n      0x00\n      dup3\n      add\n      mload\n      dup2\n      0x00\n      add\n      swap1\n      dup1\n      mload\n      swap1\n      0x20\n      add\n      swap1\n      tag_134\n      swap3\n      swap2\n      swap1\n      tag_135\n      jump\t// in\n    tag_134:\n      pop\n      0x20\n      dup3\n      add\n      mload\n      dup2\n      0x01\n      add\n      swap1\n      dup1\n      mload\n      swap1\n      0x20\n      add\n      swap1\n      tag_136\n      swap3\n      swap2\n      swap1\n      tag_135\n      jump\t// in\n    tag_136:\n      pop\n      0x40\n      dup3\n      add\n      mload\n      dup2\n      0x02\n      add\n      swap1\n      dup1\n      mload\n      swap1\n      0x20\n      add\n      swap1\n      tag_137\n      swap3\n      swap2\n      swap1\n      tag_135\n      jump\t// in\n    tag_137:\n      pop\n      0x60\n      dup3\n      add\n      mload\n      dup2\n      0x03\n      add\n      exp(0x0100, 0x00)\n      dup2\n      sload\n      dup2\n      0xff\n      mul\n      not\n      and\n      swap1\n      dup4\n      iszero\n      iszero\n      mul\n      or\n      swap1\n      sstore\n      pop\n      0x80\n      dup3\n      add\n      mload\n      dup2\n      0x03\n      add\n      exp(0x0100, 0x01)\n      dup2\n      sload\n      dup2\n      0xffffffffffffffffffffffffffffffffffffffff\n      mul\n      not\n      and\n      swap1\n      dup4\n      0xffffffffffffffffffffffffffffffffffffffff\n      and\n      mul\n      or\n      swap1\n      sstore\n      pop\n      0xa0\n      dup3\n      add\n      mload\n      dup2\n      0x04\n      add\n      swap1\n      dup1\n      mload\n      swap1\n      0x20\n      add\n      swap1\n      tag_138\n      swap3\n      swap2\n      swap1\n      tag_135\n      jump\t// in\n    tag_138:\n      pop\n      0xc0\n      dup3\n      add\n      mload\n      dup2\n      0x05\n      add\n      exp(0x0100, 0x00)\n      dup2\n      sload\n      dup2\n      0xff\n      mul\n      not\n      and\n      swap1\n      dup4\n      iszero\n      iszero\n      mul\n      or\n      swap1\n      sstore\n      pop\n      swap1\n      pop\n      pop\n        /* \"student.sol\":8173:8179  skills */\n      0x0e\n        /* \"student.sol\":8185:8190  _name */\n      dup5\n        /* \"student.sol\":8173:8191  skills.push(_name) */\n      swap1\n      dup1\n      0x01\n      dup2\n      sload\n      add\n      dup1\n      dup3\n      sstore\n      dup1\n      swap2\n      pop\n      pop\n      0x01\n      swap1\n      sub\n      swap1\n      0x00\n      mstore\n      keccak256(0x00, 0x20)\n      add\n      0x00\n      swap1\n      swap2\n      swap1\n      swap2\n      swap1\n      swap2\n      pop\n      swap1\n      dup1\n      mload\n      swap1\n      0x20\n      add\n      swap1\n      tag_140\n      swap3\n      swap2\n      swap1\n      tag_135\n      jump\t// in\n    tag_140:\n      pop\n        /* \"student.sol\":7740:8199  {... */\n      pop\n        /* \"student.sol\":7592:8199  function addSkill(... */\n      pop\n      pop\n      pop\n      jump\t// out\n        /* \"student.sol\":9176:9497  function getSkillByIndex(... */\n    tag_53:\n        /* \"student.sol\":9295:9308  string memory */\n      0x60\n        /* \"student.sol\":9323:9336  string memory */\n      dup1\n        /* \"student.sol\":9351:9355  bool */\n      0x00\n        /* \"student.sol\":9370:9377  address */\n      dup1\n        /* \"student.sol\":9392:9405  string memory */\n      0x60\n        /* \"student.sol\":9420:9424  bool */\n      0x00\n        /* \"student.sol\":9459:9489  getSkillByName(skills[_index]) */\n      tag_142\n        /* \"student.sol\":9474:9480  skills */\n      0x0e\n        /* \"student.sol\":9481:9487  _index */\n      dup9\n        /* \"student.sol\":9474:9488  skills[_index] */\n      dup2\n      sload\n      dup2\n      lt\n      tag_143\n      jumpi\n      tag_144\n      tag_145\n      jump\t// in\n    tag_144:\n    tag_143:\n      swap1\n      0x00\n      mstore\n      keccak256(0x00, 0x20)\n      add\n        /* \"student.sol\":9459:9489  getSkillByName(skills[_index]) */\n      dup1\n      sload\n      tag_147\n      swap1\n      tag_148\n      jump\t// in\n    tag_147:\n      dup1\n      0x1f\n      add\n      0x20\n      dup1\n      swap2\n      div\n      mul\n      0x20\n      add\n      mload(0x40)\n      swap1\n      dup2\n      add\n      0x40\n      mstore\n      dup1\n      swap3\n      swap2\n      swap1\n      dup2\n      dup2\n      mstore\n      0x20\n      add\n      dup3\n      dup1\n      sload\n      tag_149\n      swap1\n      tag_148\n      jump\t// in\n    tag_149:\n      dup1\n      iszero\n      tag_150\n      jumpi\n      dup1\n      0x1f\n      lt\n      tag_151\n      jumpi\n      0x0100\n      dup1\n      dup4\n      sload\n      div\n      mul\n      dup4\n      mstore\n      swap2\n      0x20\n      add\n      swap2\n      jump(tag_150)\n    tag_151:\n      dup3\n      add\n      swap2\n      swap1\n      0x00\n      mstore\n      keccak256(0x00, 0x20)\n      swap1\n    tag_152:\n      dup2\n      sload\n      dup2\n      mstore\n      swap1\n      0x01\n      add\n      swap1\n      0x20\n      add\n      dup1\n      dup4\n      gt\n      tag_152\n      jumpi\n      dup3\n      swap1\n      sub\n      0x1f\n      and\n      dup3\n      add\n      swap2\n    tag_150:\n      pop\n      pop\n      pop\n      pop\n      pop\n        /* \"student.sol\":9459:9473  getSkillByName */\n      tag_153\n        /* \"student.sol\":9459:9489  getSkillByName(skills[_index]) */\n      jump\t// in\n    tag_142:\n        /* \"student.sol\":9452:9489  return getSkillByName(skills[_index]) */\n      swap6\n      pop\n      swap6\n      pop\n      swap6\n      pop\n      swap6\n      pop\n      swap6\n      pop\n      swap6\n      pop\n        /* \"student.sol\":9176:9497  function getSkillByIndex(... */\n      swap2\n      swap4\n      swap6\n      pop\n      swap2\n      swap4\n      swap6\n      jump\t// out\n        /* \"student.sol\":3922:4032  function getCertificationCount() public view returns (uint256) {... */\n    tag_57:\n        /* \"student.sol\":3976:3983  uint256 */\n      0x00\n        /* \"student.sol\":4003:4017  certifications */\n      0x0a\n        /* \"student.sol\":4003:4024  certifications.length */\n      dup1\n      sload\n      swap1\n      pop\n        /* \"student.sol\":3996:4024  return certifications.length */\n      swap1\n      pop\n        /* \"student.sol\":3922:4032  function getCertificationCount() public view returns (uint256) {... */\n      swap1\n      jump\t// out\n        /* \"student.sol\":5576:5749  function verifyWorkExp(address _institute) public {... */\n    tag_62:\n        /* \"student.sol\":5659:5669  workexpmap */\n      0x0b\n        /* \"student.sol\":5659:5681  workexpmap[_institute] */\n      0x00\n        /* \"student.sol\":5670:5680  _institute */\n      dup3\n        /* \"student.sol\":5659:5681  workexpmap[_institute] */\n      0xffffffffffffffffffffffffffffffffffffffff\n      and\n      0xffffffffffffffffffffffffffffffffffffffff\n      and\n      dup2\n      mstore\n      0x20\n      add\n      swap1\n      dup2\n      mstore\n      0x20\n      add\n      0x00\n      keccak256\n        /* \"student.sol\":5659:5691  workexpmap[_institute].institute */\n      0x01\n      add\n      0x00\n      swap1\n      sload\n      swap1\n      0x0100\n      exp\n      swap1\n      div\n      0xffffffffffffffffffffffffffffffffffffffff\n      and\n        /* \"student.sol\":5645:5691  msg.sender == workexpmap[_institute].institute */\n      0xffffffffffffffffffffffffffffffffffffffff\n      and\n        /* \"student.sol\":5645:5655  msg.sender */\n      caller\n        /* \"student.sol\":5645:5691  msg.sender == workexpmap[_institute].institute */\n      0xffffffffffffffffffffffffffffffffffffffff\n      and\n      eq\n        /* \"student.sol\":5637:5692  require(msg.sender == workexpmap[_institute].institute) */\n      tag_156\n      jumpi\n      0x00\n      dup1\n      revert\n    tag_156:\n        /* \"student.sol\":5737:5741  true */\n      0x01\n        /* \"student.sol\":5703:5713  workexpmap */\n      0x0b\n        /* \"student.sol\":5703:5725  workexpmap[msg.sender] */\n      0x00\n        /* \"student.sol\":5714:5724  msg.sender */\n      caller\n        /* \"student.sol\":5703:5725  workexpmap[msg.sender] */\n      0xffffffffffffffffffffffffffffffffffffffff\n      and\n      0xffffffffffffffffffffffffffffffffffffffff\n      and\n      dup2\n      mstore\n      0x20\n      add\n      swap1\n      dup2\n      mstore\n      0x20\n      add\n      0x00\n      keccak256\n        /* \"student.sol\":5703:5734  workexpmap[msg.sender].verified */\n      0x05\n      add\n      0x00\n        /* \"student.sol\":5703:5741  workexpmap[msg.sender].verified = true */\n      0x0100\n      exp\n      dup2\n      sload\n      dup2\n      0xff\n      mul\n      not\n      and\n      swap1\n      dup4\n      iszero\n      iszero\n      mul\n      or\n      swap1\n      sstore\n      pop\n        /* \"student.sol\":5576:5749  function verifyWorkExp(address _institute) public {... */\n      pop\n      jump\t// out\n        /* \"student.sol\":335:361  address public instAddress */\n    tag_64:\n      0x05\n      0x00\n      swap1\n      sload\n      swap1\n      0x0100\n      exp\n      swap1\n      div\n      0xffffffffffffffffffffffffffffffffffffffff\n      and\n      dup2\n      jump\t// out\n        /* \"student.sol\":2608:3203  function addCertification(... */\n    tag_69:\n        /* \"student.sol\":1217:1232  student_address */\n      0x00\n      dup1\n      sload\n      swap1\n      0x0100\n      exp\n      swap1\n      div\n      0xffffffffffffffffffffffffffffffffffffffff\n      and\n        /* \"student.sol\":1203:1232  msg.sender == student_address */\n      0xffffffffffffffffffffffffffffffffffffffff\n      and\n        /* \"student.sol\":1203:1213  msg.sender */\n      caller\n        /* \"student.sol\":1203:1232  msg.sender == student_address */\n      0xffffffffffffffffffffffffffffffffffffffff\n      and\n      eq\n        /* \"student.sol\":1195:1254  require(msg.sender == student_address, \"Not Student error\") */\n      tag_158\n      jumpi\n      mload(0x40)\n      0x08c379a000000000000000000000000000000000000000000000000000000000\n      dup2\n      mstore\n      0x04\n      add\n      tag_159\n      swap1\n      tag_122\n      jump\t// in\n    tag_159:\n      mload(0x40)\n      dup1\n      swap2\n      sub\n      swap1\n      revert\n    tag_158:\n        /* \"student.sol\":2772:2817  certificationInfo memory newcertificationInfo */\n      tag_161\n      tag_162\n      jump\t// in\n    tag_161:\n        /* \"student.sol\":2856:2861  _name */\n      dup4\n        /* \"student.sol\":2828:2848  newcertificationInfo */\n      dup2\n        /* \"student.sol\":2828:2853  newcertificationInfo.name */\n      0x00\n      add\n        /* \"student.sol\":2828:2861  newcertificationInfo.name = _name */\n      dup2\n      swap1\n      mstore\n      pop\n        /* \"student.sol\":2905:2915  _institute */\n      dup3\n        /* \"student.sol\":2872:2892  newcertificationInfo */\n      dup2\n        /* \"student.sol\":2872:2902  newcertificationInfo.institute */\n      0x20\n      add\n        /* \"student.sol\":2872:2915  newcertificationInfo.institute = _institute */\n      swap1\n      0xffffffffffffffffffffffffffffffffffffffff\n      and\n      swap1\n      dup2\n      0xffffffffffffffffffffffffffffffffffffffff\n      and\n      dup2\n      mstore\n      pop\n      pop\n        /* \"student.sol\":2966:2983  _certificate_name */\n      dup2\n        /* \"student.sol\":2926:2946  newcertificationInfo */\n      dup2\n        /* \"student.sol\":2926:2963  newcertificationInfo.certificate_name */\n      0x40\n      add\n        /* \"student.sol\":2926:2983  newcertificationInfo.certificate_name = _certificate_name */\n      dup2\n      swap1\n      mstore\n      pop\n        /* \"student.sol\":3026:3031  false */\n      0x00\n        /* \"student.sol\":2994:3014  newcertificationInfo */\n      dup2\n        /* \"student.sol\":2994:3023  newcertificationInfo.verified */\n      0x60\n      add\n        /* \"student.sol\":2994:3031  newcertificationInfo.verified = false */\n      swap1\n      iszero\n      iszero\n      swap1\n      dup2\n      iszero\n      iszero\n      dup2\n      mstore\n      pop\n      pop\n        /* \"student.sol\":3073:3077  true */\n      0x01\n        /* \"student.sol\":3042:3062  newcertificationInfo */\n      dup2\n        /* \"student.sol\":3042:3070  newcertificationInfo.visible */\n      0x80\n      add\n        /* \"student.sol\":3042:3077  newcertificationInfo.visible = true */\n      swap1\n      iszero\n      iszero\n      swap1\n      dup2\n      iszero\n      iszero\n      dup2\n      mstore\n      pop\n      pop\n        /* \"student.sol\":3126:3146  newcertificationInfo */\n      dup1\n        /* \"student.sol\":3088:3104  certificationmap */\n      0x09\n        /* \"student.sol\":3105:3122  _certificate_name */\n      dup4\n        /* \"student.sol\":3088:3123  certificationmap[_certificate_name] */\n      mload(0x40)\n      tag_163\n      swap2\n      swap1\n      tag_125\n      jump\t// in\n    tag_163:\n      swap1\n      dup2\n      mstore\n      0x20\n      add\n      mload(0x40)\n      dup1\n      swap2\n      sub\n      swap1\n      keccak256\n        /* \"student.sol\":3088:3146  certificationmap[_certificate_name] = newcertificationInfo */\n      0x00\n      dup3\n      add\n      mload\n      dup2\n      0x00\n      add\n      swap1\n      dup1\n      mload\n      swap1\n      0x20\n      add\n      swap1\n      tag_164\n      swap3\n      swap2\n      swap1\n      tag_135\n      jump\t// in\n    tag_164:\n      pop\n      0x20\n      dup3\n      add\n      mload\n      dup2\n      0x01\n      add\n      exp(0x0100, 0x00)\n      dup2\n      sload\n      dup2\n      0xffffffffffffffffffffffffffffffffffffffff\n      mul\n      not\n      and\n      swap1\n      dup4\n      0xffffffffffffffffffffffffffffffffffffffff\n      and\n      mul\n      or\n      swap1\n      sstore\n      pop\n      0x40\n      dup3\n      add\n      mload\n      dup2\n      0x02\n      add\n      swap1\n      dup1\n      mload\n      swap1\n      0x20\n      add\n      swap1\n      tag_165\n      swap3\n      swap2\n      swap1\n      tag_135\n      jump\t// in\n    tag_165:\n      pop\n      0x60\n      dup3\n      add\n      mload\n      dup2\n      0x03\n      add\n      exp(0x0100, 0x00)\n      dup2\n      sload\n      dup2\n      0xff\n      mul\n      not\n      and\n      swap1\n      dup4\n      iszero\n      iszero\n      mul\n      or\n      swap1\n      sstore\n      pop\n      0x80\n      dup3\n      add\n      mload\n      dup2\n      0x03\n      add\n      exp(0x0100, 0x01)\n      dup2\n      sload\n      dup2\n      0xff\n      mul\n      not\n      and\n      swap1\n      dup4\n      iszero\n      iszero\n      mul\n      or\n      swap1\n      sstore\n      pop\n      swap1\n      pop\n      pop\n        /* \"student.sol\":3157:3171  certifications */\n      0x0a\n        /* \"student.sol\":3177:3194  _certificate_name */\n      dup3\n        /* \"student.sol\":3157:3195  certifications.push(_certificate_name) */\n      swap1\n      dup1\n      0x01\n      dup2\n      sload\n      add\n      dup1\n      dup3\n      sstore\n      dup1\n      swap2\n      pop\n      pop\n      0x01\n      swap1\n      sub\n      swap1\n      0x00\n      mstore\n      keccak256(0x00, 0x20)\n      add\n      0x00\n      swap1\n      swap2\n      swap1\n      swap2\n      swap1\n      swap2\n      pop\n      swap1\n      dup1\n      mload\n      swap1\n      0x20\n      add\n      swap1\n      tag_167\n      swap3\n      swap2\n      swap1\n      tag_135\n      jump\t// in\n    tag_167:\n      pop\n        /* \"student.sol\":2761:3203  {... */\n      pop\n        /* \"student.sol\":2608:3203  function addCertification(... */\n      pop\n      pop\n      pop\n      jump\t// out\n        /* \"student.sol\":3266:3460  function verifyCertification(string memory _certname) public {... */\n    tag_72:\n        /* \"student.sol\":3360:3376  certificationmap */\n      0x09\n        /* \"student.sol\":3377:3386  _certname */\n      dup2\n        /* \"student.sol\":3360:3387  certificationmap[_certname] */\n      mload(0x40)\n      tag_169\n      swap2\n      swap1\n      tag_125\n      jump\t// in\n    tag_169:\n      swap1\n      dup2\n      mstore\n      0x20\n      add\n      mload(0x40)\n      dup1\n      swap2\n      sub\n      swap1\n      keccak256\n        /* \"student.sol\":3360:3397  certificationmap[_certname].institute */\n      0x01\n      add\n      0x00\n      swap1\n      sload\n      swap1\n      0x0100\n      exp\n      swap1\n      div\n      0xffffffffffffffffffffffffffffffffffffffff\n      and\n        /* \"student.sol\":3346:3397  msg.sender == certificationmap[_certname].institute */\n      0xffffffffffffffffffffffffffffffffffffffff\n      and\n        /* \"student.sol\":3346:3356  msg.sender */\n      caller\n        /* \"student.sol\":3346:3397  msg.sender == certificationmap[_certname].institute */\n      0xffffffffffffffffffffffffffffffffffffffff\n      and\n      eq\n        /* \"student.sol\":3338:3398  require(msg.sender == certificationmap[_certname].institute) */\n      tag_170\n      jumpi\n      0x00\n      dup1\n      revert\n    tag_170:\n        /* \"student.sol\":3448:3452  true */\n      0x01\n        /* \"student.sol\":3409:3425  certificationmap */\n      0x09\n        /* \"student.sol\":3426:3435  _certname */\n      dup3\n        /* \"student.sol\":3409:3436  certificationmap[_certname] */\n      mload(0x40)\n      tag_171\n      swap2\n      swap1\n      tag_125\n      jump\t// in\n    tag_171:\n      swap1\n      dup2\n      mstore\n      0x20\n      add\n      mload(0x40)\n      dup1\n      swap2\n      sub\n      swap1\n      keccak256\n        /* \"student.sol\":3409:3445  certificationmap[_certname].verified */\n      0x03\n      add\n      0x00\n        /* \"student.sol\":3409:3452  certificationmap[_certname].verified = true */\n      0x0100\n      exp\n      dup2\n      sload\n      dup2\n      0xff\n      mul\n      not\n      and\n      swap1\n      dup4\n      iszero\n      iszero\n      mul\n      or\n      swap1\n      sstore\n      pop\n        /* \"student.sol\":3266:3460  function verifyCertification(string memory _certname) public {... */\n      pop\n      jump\t// out\n        /* \"student.sol\":6425:6523  function getWorkExpCount() public view returns (uint256) {... */\n    tag_74:\n        /* \"student.sol\":6473:6480  uint256 */\n      0x00\n        /* \"student.sol\":6500:6508  workexps */\n      0x0c\n        /* \"student.sol\":6500:6515  workexps.length */\n      dup1\n      sload\n      swap1\n      pop\n        /* \"student.sol\":6493:6515  return workexps.length */\n      swap1\n      pop\n        /* \"student.sol\":6425:6523  function getWorkExpCount() public view returns (uint256) {... */\n      swap1\n      jump\t// out\n        /* \"student.sol\":2035:2162  function removeInstFromProfile() public  {... */\n    tag_77:\n        /* \"student.sol\":2107:2118  instAddress */\n      0x05\n      0x00\n      swap1\n      sload\n      swap1\n      0x0100\n      exp\n      swap1\n      div\n      0xffffffffffffffffffffffffffffffffffffffff\n      and\n        /* \"student.sol\":2095:2118  msg.sender==instAddress */\n      0xffffffffffffffffffffffffffffffffffffffff\n      and\n        /* \"student.sol\":2095:2105  msg.sender */\n      caller\n        /* \"student.sol\":2095:2118  msg.sender==instAddress */\n      0xffffffffffffffffffffffffffffffffffffffff\n      and\n      eq\n        /* \"student.sol\":2087:2119  require(msg.sender==instAddress) */\n      tag_174\n      jumpi\n      0x00\n      dup1\n      revert\n    tag_174:\n        /* \"student.sol\":2152:2153  0 */\n      0x00\n        /* \"student.sol\":2130:2141  instAddress */\n      0x05\n      0x00\n        /* \"student.sol\":2130:2154  instAddress = address(0) */\n      0x0100\n      exp\n      dup2\n      sload\n      dup2\n      0xffffffffffffffffffffffffffffffffffffffff\n      mul\n      not\n      and\n      swap1\n      dup4\n      0xffffffffffffffffffffffffffffffffffffffff\n      and\n      mul\n      or\n      swap1\n      sstore\n      pop\n        /* \"student.sol\":2035:2162  function removeInstFromProfile() public  {... */\n      jump\t// out\n        /* \"student.sol\":1333:1549  function getStudentInfo()... */\n    tag_79:\n        /* \"student.sol\":1407:1414  address */\n      0x00\n        /* \"student.sol\":1416:1429  string memory */\n      0x60\n        /* \"student.sol\":1431:1444  string memory */\n      dup1\n        /* \"student.sol\":1446:1459  string memory */\n      0x60\n        /* \"student.sol\":1461:1468  uint256 */\n      0x00\n        /* \"student.sol\":1494:1509  student_address */\n      dup1\n      0x00\n      swap1\n      sload\n      swap1\n      0x0100\n      exp\n      swap1\n      div\n      0xffffffffffffffffffffffffffffffffffffffff\n      and\n        /* \"student.sol\":1511:1515  name */\n      0x04\n        /* \"student.sol\":1517:1522  email */\n      0x01\n        /* \"student.sol\":1524:1526  id */\n      0x02\n        /* \"student.sol\":1528:1540  endorsecount */\n      sload(0x03)\n        /* \"student.sol\":1486:1541  return (student_address, name, email, id, endorsecount) */\n      dup4\n      dup1\n      sload\n      tag_176\n      swap1\n      tag_148\n      jump\t// in\n    tag_176:\n      dup1\n      0x1f\n      add\n      0x20\n      dup1\n      swap2\n      div\n      mul\n      0x20\n      add\n      mload(0x40)\n      swap1\n      dup2\n      add\n      0x40\n      mstore\n      dup1\n      swap3\n      swap2\n      swap1\n      dup2\n      dup2\n      mstore\n      0x20\n      add\n      dup3\n      dup1\n      sload\n      tag_177\n      swap1\n      tag_148\n      jump\t// in\n    tag_177:\n      dup1\n      iszero\n      tag_178\n      jumpi\n      dup1\n      0x1f\n      lt\n      tag_179\n      jumpi\n      0x0100\n      dup1\n      dup4\n      sload\n      div\n      mul\n      dup4\n      mstore\n      swap2\n      0x20\n      add\n      swap2\n      jump(tag_178)\n    tag_179:\n      dup3\n      add\n      swap2\n      swap1\n      0x00\n      mstore\n      keccak256(0x00, 0x20)\n      swap1\n    tag_180:\n      dup2\n      sload\n      dup2\n      mstore\n      swap1\n      0x01\n      add\n      swap1\n      0x20\n      add\n      dup1\n      dup4\n      gt\n      tag_180\n      jumpi\n      dup3\n      swap1\n      sub\n      0x1f\n      and\n      dup3\n      add\n      swap2\n    tag_178:\n      pop\n      pop\n      pop\n      pop\n      pop\n      swap4\n      pop\n      dup3\n      dup1\n      sload\n      tag_181\n      swap1\n      tag_148\n      jump\t// in\n    tag_181:\n      dup1\n      0x1f\n      add\n      0x20\n      dup1\n      swap2\n      div\n      mul\n      0x20\n      add\n      mload(0x40)\n      swap1\n      dup2\n      add\n      0x40\n      mstore\n      dup1\n      swap3\n      swap2\n      swap1\n      dup2\n      dup2\n      mstore\n      0x20\n      add\n      dup3\n      dup1\n      sload\n      tag_182\n      swap1\n      tag_148\n      jump\t// in\n    tag_182:\n      dup1\n      iszero\n      tag_183\n      jumpi\n      dup1\n      0x1f\n      lt\n      tag_184\n      jumpi\n      0x0100\n      dup1\n      dup4\n      sload\n      div\n      mul\n      dup4\n      mstore\n      swap2\n      0x20\n      add\n      swap2\n      jump(tag_183)\n    tag_184:\n      dup3\n      add\n      swap2\n      swap1\n      0x00\n      mstore\n      keccak256(0x00, 0x20)\n      swap1\n    tag_185:\n      dup2\n      sload\n      dup2\n      mstore\n      swap1\n      0x01\n      add\n      swap1\n      0x20\n      add\n      dup1\n      dup4\n      gt\n      tag_185\n      jumpi\n      dup3\n      swap1\n      sub\n      0x1f\n      and\n      dup3\n      add\n      swap2\n    tag_183:\n      pop\n      pop\n      pop\n      pop\n      pop\n      swap3\n      pop\n      dup2\n      dup1\n      sload\n      tag_186\n      swap1\n      tag_148\n      jump\t// in\n    tag_186:\n      dup1\n      0x1f\n      add\n      0x20\n      dup1\n      swap2\n      div\n      mul\n      0x20\n      add\n      mload(0x40)\n      swap1\n      dup2\n      add\n      0x40\n      mstore\n      dup1\n      swap3\n      swap2\n      swap1\n      dup2\n      dup2\n      mstore\n      0x20\n      add\n      dup3\n      dup1\n      sload\n      tag_187\n      swap1\n      tag_148\n      jump\t// in\n    tag_187:\n      dup1\n      iszero\n      tag_188\n      jumpi\n      dup1\n      0x1f\n      lt\n      tag_189\n      jumpi\n      0x0100\n      dup1\n      dup4\n      sload\n      div\n      mul\n      dup4\n      mstore\n      swap2\n      0x20\n      add\n      swap2\n      jump(tag_188)\n    tag_189:\n      dup3\n      add\n      swap2\n      swap1\n      0x00\n      mstore\n      keccak256(0x00, 0x20)\n      swap1\n    tag_190:\n      dup2\n      sload\n      dup2\n      mstore\n      swap1\n      0x01\n      add\n      swap1\n      0x20\n      add\n      dup1\n      dup4\n      gt\n      tag_190\n      jumpi\n      dup3\n      swap1\n      sub\n      0x1f\n      and\n      dup3\n      add\n      swap2\n    tag_188:\n      pop\n      pop\n      pop\n      pop\n      pop\n      swap2\n      pop\n      swap5\n      pop\n      swap5\n      pop\n      swap5\n      pop\n      swap5\n      pop\n      swap5\n      pop\n        /* \"student.sol\":1333:1549  function getStudentInfo()... */\n      swap1\n      swap2\n      swap3\n      swap4\n      swap5\n      jump\t// out\n        /* \"student.sol\":6531:6889  function getWorkExpByIndex(... */\n    tag_84:\n        /* \"student.sol\":6652:6665  string memory */\n      0x60\n        /* \"student.sol\":6680:6687  address */\n      0x00\n        /* \"student.sol\":6702:6715  string memory */\n      0x60\n        /* \"student.sol\":6730:6743  string memory */\n      dup1\n        /* \"student.sol\":6758:6762  bool */\n      0x00\n        /* \"student.sol\":6777:6790  string memory */\n      0x60\n        /* \"student.sol\":6805:6809  bool */\n      0x00\n        /* \"student.sol\":6844:6881  getWorkExpByAddress(workexps[_index]) */\n      tag_192\n        /* \"student.sol\":6864:6872  workexps */\n      0x0c\n        /* \"student.sol\":6873:6879  _index */\n      dup10\n        /* \"student.sol\":6864:6880  workexps[_index] */\n      dup2\n      sload\n      dup2\n      lt\n      tag_193\n      jumpi\n      tag_194\n      tag_145\n      jump\t// in\n    tag_194:\n    tag_193:\n      swap1\n      0x00\n      mstore\n      keccak256(0x00, 0x20)\n      add\n      0x00\n      swap1\n      sload\n      swap1\n      0x0100\n      exp\n      swap1\n      div\n      0xffffffffffffffffffffffffffffffffffffffff\n      and\n        /* \"student.sol\":6844:6863  getWorkExpByAddress */\n      tag_196\n        /* \"student.sol\":6844:6881  getWorkExpByAddress(workexps[_index]) */\n      jump\t// in\n    tag_192:\n        /* \"student.sol\":6837:6881  return getWorkExpByAddress(workexps[_index]) */\n      swap7\n      pop\n      swap7\n      pop\n      swap7\n      pop\n      swap7\n      pop\n      swap7\n      pop\n      swap7\n      pop\n      swap7\n      pop\n        /* \"student.sol\":6531:6889  function getWorkExpByIndex(... */\n      swap2\n      swap4\n      swap6\n      swap8\n      swap1\n      swap3\n      swap5\n      swap7\n      pop\n      jump\t// out\n        /* \"student.sol\":437:462  verifyinst public instver */\n    tag_88:\n      0x07\n      0x00\n      swap1\n      sload\n      swap1\n      0x0100\n      exp\n      swap1\n      div\n      0xffffffffffffffffffffffffffffffffffffffff\n      and\n      dup2\n      jump\t// out\n        /* \"student.sol\":6897:7002  function deleteWorkExp(address org) public OnlyStudent {... */\n    tag_93:\n        /* \"student.sol\":1217:1232  student_address */\n      0x00\n      dup1\n      sload\n      swap1\n      0x0100\n      exp\n      swap1\n      div\n      0xffffffffffffffffffffffffffffffffffffffff\n      and\n        /* \"student.sol\":1203:1232  msg.sender == student_address */\n      0xffffffffffffffffffffffffffffffffffffffff\n      and\n        /* \"student.sol\":1203:1213  msg.sender */\n      caller\n        /* \"student.sol\":1203:1232  msg.sender == student_address */\n      0xffffffffffffffffffffffffffffffffffffffff\n      and\n      eq\n        /* \"student.sol\":1195:1254  require(msg.sender == student_address, \"Not Student error\") */\n      tag_198\n      jumpi\n      mload(0x40)\n      0x08c379a000000000000000000000000000000000000000000000000000000000\n      dup2\n      mstore\n      0x04\n      add\n      tag_199\n      swap1\n      tag_122\n      jump\t// in\n    tag_199:\n      mload(0x40)\n      dup1\n      swap2\n      sub\n      swap1\n      revert\n    tag_198:\n        /* \"student.sol\":6989:6994  false */\n      0x00\n        /* \"student.sol\":6963:6973  workexpmap */\n      0x0b\n        /* \"student.sol\":6963:6978  workexpmap[org] */\n      0x00\n        /* \"student.sol\":6974:6977  org */\n      dup4\n        /* \"student.sol\":6963:6978  workexpmap[org] */\n      0xffffffffffffffffffffffffffffffffffffffff\n      and\n      0xffffffffffffffffffffffffffffffffffffffff\n      and\n      dup2\n      mstore\n      0x20\n      add\n      swap1\n      dup2\n      mstore\n      0x20\n      add\n      0x00\n      keccak256\n        /* \"student.sol\":6963:6986  workexpmap[org].visible */\n      0x07\n      add\n      0x00\n        /* \"student.sol\":6963:6994  workexpmap[org].visible = false */\n      0x0100\n      exp\n      dup2\n      sload\n      dup2\n      0xff\n      mul\n      not\n      and\n      swap1\n      dup4\n      iszero\n      iszero\n      mul\n      or\n      swap1\n      sstore\n      pop\n        /* \"student.sol\":6897:7002  function deleteWorkExp(address org) public OnlyStudent {... */\n      pop\n      jump\t// out\n        /* \"student.sol\":1815:2029  function addInstToProfile(address _instAddress) public onlyverfiedInstitute  {... */\n    tag_96:\n        /* \"student.sol\":9745:9746  0 */\n      0x00\n        /* \"student.sol\":9692:9747  instver.registeredinstitutesmap(msg.sender)!=address(0) */\n      0xffffffffffffffffffffffffffffffffffffffff\n      and\n        /* \"student.sol\":9692:9699  instver */\n      0x07\n      0x00\n      swap1\n      sload\n      swap1\n      0x0100\n      exp\n      swap1\n      div\n      0xffffffffffffffffffffffffffffffffffffffff\n      and\n        /* \"student.sol\":9692:9723  instver.registeredinstitutesmap */\n      0xffffffffffffffffffffffffffffffffffffffff\n      and\n      0x839f602d\n        /* \"student.sol\":9724:9734  msg.sender */\n      caller\n        /* \"student.sol\":9692:9735  instver.registeredinstitutesmap(msg.sender) */\n      mload(0x40)\n      dup3\n      0xffffffff\n      and\n      0xe0\n      shl\n      dup2\n      mstore\n      0x04\n      add\n      tag_202\n      swap2\n      swap1\n      tag_38\n      jump\t// in\n    tag_202:\n      0x20\n      mload(0x40)\n      dup1\n      dup4\n      sub\n      dup2\n      dup7\n      gas\n      staticcall\n      iszero\n      dup1\n      iszero\n      tag_204\n      jumpi\n      returndatasize\n      0x00\n      dup1\n      returndatacopy\n      revert(0x00, returndatasize)\n    tag_204:\n      pop\n      pop\n      pop\n      pop\n      mload(0x40)\n      returndatasize\n      not(0x1f)\n      0x1f\n      dup3\n      add\n      and\n      dup3\n      add\n      dup1\n      0x40\n      mstore\n      pop\n      dup2\n      add\n      swap1\n      tag_205\n      swap2\n      swap1\n      tag_206\n      jump\t// in\n    tag_205:\n        /* \"student.sol\":9692:9747  instver.registeredinstitutesmap(msg.sender)!=address(0) */\n      0xffffffffffffffffffffffffffffffffffffffff\n      and\n      eq\n      iszero\n        /* \"student.sol\":9684:9775  require(instver.registeredinstitutesmap(msg.sender)!=address(0), \"You are not authorized!\") */\n      tag_207\n      jumpi\n      mload(0x40)\n      0x08c379a000000000000000000000000000000000000000000000000000000000\n      dup2\n      mstore\n      0x04\n      add\n      tag_208\n      swap1\n      tag_209\n      jump\t// in\n    tag_208:\n      mload(0x40)\n      dup1\n      swap2\n      sub\n      swap1\n      revert\n    tag_207:\n        /* \"student.sol\":1925:1937  _instAddress */\n      dup1\n        /* \"student.sol\":1911:1937  msg.sender == _instAddress */\n      0xffffffffffffffffffffffffffffffffffffffff\n      and\n        /* \"student.sol\":1911:1921  msg.sender */\n      caller\n        /* \"student.sol\":1911:1937  msg.sender == _instAddress */\n      0xffffffffffffffffffffffffffffffffffffffff\n      and\n      eq\n        /* \"student.sol\":1903:1938  require(msg.sender == _instAddress) */\n      tag_211\n      jumpi\n      0x00\n      dup1\n      revert\n    tag_211:\n        /* \"student.sol\":1949:1965  listOfInstitutes */\n      0x08\n        /* \"student.sol\":1971:1983  _instAddress */\n      dup2\n        /* \"student.sol\":1949:1984  listOfInstitutes.push(_instAddress) */\n      swap1\n      dup1\n      0x01\n      dup2\n      sload\n      add\n      dup1\n      dup3\n      sstore\n      dup1\n      swap2\n      pop\n      pop\n      0x01\n      swap1\n      sub\n      swap1\n      0x00\n      mstore\n      keccak256(0x00, 0x20)\n      add\n      0x00\n      swap1\n      swap2\n      swap1\n      swap2\n      swap1\n      swap2\n      0x0100\n      exp\n      dup2\n      sload\n      dup2\n      0xffffffffffffffffffffffffffffffffffffffff\n      mul\n      not\n      and\n      swap1\n      dup4\n      0xffffffffffffffffffffffffffffffffffffffff\n      and\n      mul\n      or\n      swap1\n      sstore\n      pop\n        /* \"student.sol\":2009:2021  _instAddress */\n      dup1\n        /* \"student.sol\":1995:2006  instAddress */\n      0x05\n      0x00\n        /* \"student.sol\":1995:2021  instAddress = _instAddress */\n      0x0100\n      exp\n      dup2\n      sload\n      dup2\n      0xffffffffffffffffffffffffffffffffffffffff\n      mul\n      not\n      and\n      swap1\n      dup4\n      0xffffffffffffffffffffffffffffffffffffffff\n      and\n      mul\n      or\n      swap1\n      sstore\n      pop\n        /* \"student.sol\":1815:2029  function addInstToProfile(address _instAddress) public onlyverfiedInstitute  {... */\n      pop\n      jump\t// out\n        /* \"student.sol\":9505:9635  function deleteSkill(string memory _name) public OnlyStudent {... */\n    tag_99:\n        /* \"student.sol\":1217:1232  student_address */\n      0x00\n      dup1\n      sload\n      swap1\n      0x0100\n      exp\n      swap1\n      div\n      0xffffffffffffffffffffffffffffffffffffffff\n      and\n        /* \"student.sol\":1203:1232  msg.sender == student_address */\n      0xffffffffffffffffffffffffffffffffffffffff\n      and\n        /* \"student.sol\":1203:1213  msg.sender */\n      caller\n        /* \"student.sol\":1203:1232  msg.sender == student_address */\n      0xffffffffffffffffffffffffffffffffffffffff\n      and\n      eq\n        /* \"student.sol\":1195:1254  require(msg.sender == student_address, \"Not Student error\") */\n      tag_214\n      jumpi\n      mload(0x40)\n      0x08c379a000000000000000000000000000000000000000000000000000000000\n      dup2\n      mstore\n      0x04\n      add\n      tag_215\n      swap1\n      tag_122\n      jump\t// in\n    tag_215:\n      mload(0x40)\n      dup1\n      swap2\n      sub\n      swap1\n      revert\n    tag_214:\n        /* \"student.sol\":9604:9612  skillmap */\n      0x0d\n        /* \"student.sol\":9613:9618  _name */\n      dup2\n        /* \"student.sol\":9604:9619  skillmap[_name] */\n      mload(0x40)\n      tag_217\n      swap2\n      swap1\n      tag_125\n      jump\t// in\n    tag_217:\n      swap1\n      dup2\n      mstore\n      0x20\n      add\n      mload(0x40)\n      dup1\n      swap2\n      sub\n      swap1\n      keccak256\n        /* \"student.sol\":9604:9627  skillmap[_name].visible */\n      0x05\n      add\n      0x00\n      swap1\n      sload\n      swap1\n      0x0100\n      exp\n      swap1\n      div\n      0xff\n      and\n        /* \"student.sol\":9603:9627  !skillmap[_name].visible */\n      iszero\n        /* \"student.sol\":9577:9585  skillmap */\n      0x0d\n        /* \"student.sol\":9586:9591  _name */\n      dup3\n        /* \"student.sol\":9577:9592  skillmap[_name] */\n      mload(0x40)\n      tag_218\n      swap2\n      swap1\n      tag_125\n      jump\t// in\n    tag_218:\n      swap1\n      dup2\n      mstore\n      0x20\n      add\n      mload(0x40)\n      dup1\n      swap2\n      sub\n      swap1\n      keccak256\n        /* \"student.sol\":9577:9600  skillmap[_name].visible */\n      0x05\n      add\n      0x00\n        /* \"student.sol\":9577:9627  skillmap[_name].visible = !skillmap[_name].visible */\n      0x0100\n      exp\n      dup2\n      sload\n      dup2\n      0xff\n      mul\n      not\n      and\n      swap1\n      dup4\n      iszero\n      iszero\n      mul\n      or\n      swap1\n      sstore\n      pop\n        /* \"student.sol\":9505:9635  function deleteSkill(string memory _name) public OnlyStudent {... */\n      pop\n      jump\t// out\n        /* \"student.sol\":8207:8514  function endorseSkill(string memory _name, string memory _review) public {... */\n    tag_103:\n        /* \"student.sol\":8299:8307  skillmap */\n      0x0d\n        /* \"student.sol\":8308:8313  _name */\n      dup3\n        /* \"student.sol\":8299:8314  skillmap[_name] */\n      mload(0x40)\n      tag_220\n      swap2\n      swap1\n      tag_125\n      jump\t// in\n    tag_220:\n      swap1\n      dup2\n      mstore\n      0x20\n      add\n      mload(0x40)\n      dup1\n      swap2\n      sub\n      swap1\n      keccak256\n        /* \"student.sol\":8299:8322  skillmap[_name].visible */\n      0x05\n      add\n      0x00\n      swap1\n      sload\n      swap1\n      0x0100\n      exp\n      swap1\n      div\n      0xff\n      and\n        /* \"student.sol\":8291:8323  require(skillmap[_name].visible) */\n      tag_221\n      jumpi\n      0x00\n      dup1\n      revert\n    tag_221:\n        /* \"student.sol\":8364:8365  1 */\n      0x01\n        /* \"student.sol\":8349:8361  endorsecount */\n      sload(0x03)\n        /* \"student.sol\":8349:8365  endorsecount + 1 */\n      tag_222\n      swap2\n      swap1\n      tag_223\n      jump\t// in\n    tag_222:\n        /* \"student.sol\":8334:8346  endorsecount */\n      0x03\n        /* \"student.sol\":8334:8365  endorsecount = endorsecount + 1 */\n      dup2\n      swap1\n      sstore\n      pop\n        /* \"student.sol\":8403:8407  true */\n      0x01\n        /* \"student.sol\":8376:8384  skillmap */\n      0x0d\n        /* \"student.sol\":8385:8390  _name */\n      dup4\n        /* \"student.sol\":8376:8391  skillmap[_name] */\n      mload(0x40)\n      tag_224\n      swap2\n      swap1\n      tag_125\n      jump\t// in\n    tag_224:\n      swap1\n      dup2\n      mstore\n      0x20\n      add\n      mload(0x40)\n      dup1\n      swap2\n      sub\n      swap1\n      keccak256\n        /* \"student.sol\":8376:8400  skillmap[_name].endorsed */\n      0x03\n      add\n      0x00\n        /* \"student.sol\":8376:8407  skillmap[_name].endorsed = true */\n      0x0100\n      exp\n      dup2\n      sload\n      dup2\n      0xff\n      mul\n      not\n      and\n      swap1\n      dup4\n      iszero\n      iszero\n      mul\n      or\n      swap1\n      sstore\n      pop\n        /* \"student.sol\":8453:8463  msg.sender */\n      caller\n        /* \"student.sol\":8418:8426  skillmap */\n      0x0d\n        /* \"student.sol\":8427:8432  _name */\n      dup4\n        /* \"student.sol\":8418:8433  skillmap[_name] */\n      mload(0x40)\n      tag_225\n      swap2\n      swap1\n      tag_125\n      jump\t// in\n    tag_225:\n      swap1\n      dup2\n      mstore\n      0x20\n      add\n      mload(0x40)\n      dup1\n      swap2\n      sub\n      swap1\n      keccak256\n        /* \"student.sol\":8418:8450  skillmap[_name].endorser_address */\n      0x03\n      add\n      0x01\n        /* \"student.sol\":8418:8463  skillmap[_name].endorser_address = msg.sender */\n      0x0100\n      exp\n      dup2\n      sload\n      dup2\n      0xffffffffffffffffffffffffffffffffffffffff\n      mul\n      not\n      and\n      swap1\n      dup4\n      0xffffffffffffffffffffffffffffffffffffffff\n      and\n      mul\n      or\n      swap1\n      sstore\n      pop\n        /* \"student.sol\":8499:8506  _review */\n      dup1\n        /* \"student.sol\":8474:8482  skillmap */\n      0x0d\n        /* \"student.sol\":8483:8488  _name */\n      dup4\n        /* \"student.sol\":8474:8489  skillmap[_name] */\n      mload(0x40)\n      tag_226\n      swap2\n      swap1\n      tag_125\n      jump\t// in\n    tag_226:\n      swap1\n      dup2\n      mstore\n      0x20\n      add\n      mload(0x40)\n      dup1\n      swap2\n      sub\n      swap1\n      keccak256\n        /* \"student.sol\":8474:8496  skillmap[_name].review */\n      0x04\n      add\n        /* \"student.sol\":8474:8506  skillmap[_name].review = _review */\n      swap1\n      dup1\n      mload\n      swap1\n      0x20\n      add\n      swap1\n      tag_227\n      swap3\n      swap2\n      swap1\n      tag_135\n      jump\t// in\n    tag_227:\n      pop\n        /* \"student.sol\":8207:8514  function endorseSkill(string memory _name, string memory _review) public {... */\n      pop\n      pop\n      jump\t// out\n        /* \"student.sol\":4944:5568  function addWorkExp(... */\n    tag_107:\n        /* \"student.sol\":1217:1232  student_address */\n      0x00\n      dup1\n      sload\n      swap1\n      0x0100\n      exp\n      swap1\n      div\n      0xffffffffffffffffffffffffffffffffffffffff\n      and\n        /* \"student.sol\":1203:1232  msg.sender == student_address */\n      0xffffffffffffffffffffffffffffffffffffffff\n      and\n        /* \"student.sol\":1203:1213  msg.sender */\n      caller\n        /* \"student.sol\":1203:1232  msg.sender == student_address */\n      0xffffffffffffffffffffffffffffffffffffffff\n      and\n      eq\n        /* \"student.sol\":1195:1254  require(msg.sender == student_address, \"Not Student error\") */\n      tag_229\n      jumpi\n      mload(0x40)\n      0x08c379a000000000000000000000000000000000000000000000000000000000\n      dup2\n      mstore\n      0x04\n      add\n      tag_230\n      swap1\n      tag_122\n      jump\t// in\n    tag_230:\n      mload(0x40)\n      dup1\n      swap2\n      sub\n      swap1\n      revert\n    tag_229:\n        /* \"student.sol\":5165:5194  workexpInfo memory newworkexp */\n      tag_232\n      tag_233\n      jump\t// in\n    tag_232:\n        /* \"student.sol\":5223:5228  _role */\n      dup6\n        /* \"student.sol\":5205:5215  newworkexp */\n      dup2\n        /* \"student.sol\":5205:5220  newworkexp.role */\n      0x00\n      add\n        /* \"student.sol\":5205:5228  newworkexp.role = _role */\n      dup2\n      swap1\n      mstore\n      pop\n        /* \"student.sol\":5262:5272  _institute */\n      dup5\n        /* \"student.sol\":5239:5249  newworkexp */\n      dup2\n        /* \"student.sol\":5239:5259  newworkexp.institute */\n      0x20\n      add\n        /* \"student.sol\":5239:5272  newworkexp.institute = _institute */\n      swap1\n      0xffffffffffffffffffffffffffffffffffffffff\n      and\n      swap1\n      dup2\n      0xffffffffffffffffffffffffffffffffffffffff\n      and\n      dup2\n      mstore\n      pop\n      pop\n        /* \"student.sol\":5306:5316  _startdate */\n      dup4\n        /* \"student.sol\":5283:5293  newworkexp */\n      dup2\n        /* \"student.sol\":5283:5303  newworkexp.startdate */\n      0x60\n      add\n        /* \"student.sol\":5283:5316  newworkexp.startdate = _startdate */\n      dup2\n      swap1\n      mstore\n      pop\n        /* \"student.sol\":5348:5356  _enddate */\n      dup3\n        /* \"student.sol\":5327:5337  newworkexp */\n      dup2\n        /* \"student.sol\":5327:5345  newworkexp.enddate */\n      0x80\n      add\n        /* \"student.sol\":5327:5356  newworkexp.enddate = _enddate */\n      dup2\n      swap1\n      mstore\n      pop\n        /* \"student.sol\":5389:5394  false */\n      0x00\n        /* \"student.sol\":5367:5377  newworkexp */\n      dup2\n        /* \"student.sol\":5367:5386  newworkexp.verified */\n      0xa0\n      add\n        /* \"student.sol\":5367:5394  newworkexp.verified = false */\n      swap1\n      iszero\n      iszero\n      swap1\n      dup2\n      iszero\n      iszero\n      dup2\n      mstore\n      pop\n      pop\n        /* \"student.sol\":5426:5430  true */\n      0x01\n        /* \"student.sol\":5405:5415  newworkexp */\n      dup2\n        /* \"student.sol\":5405:5423  newworkexp.visible */\n      0xe0\n      add\n        /* \"student.sol\":5405:5430  newworkexp.visible = true */\n      swap1\n      iszero\n      iszero\n      swap1\n      dup2\n      iszero\n      iszero\n      dup2\n      mstore\n      pop\n      pop\n        /* \"student.sol\":5466:5478  _description */\n      dup2\n        /* \"student.sol\":5441:5451  newworkexp */\n      dup2\n        /* \"student.sol\":5441:5463  newworkexp.description */\n      0xc0\n      add\n        /* \"student.sol\":5441:5478  newworkexp.description = _description */\n      dup2\n      swap1\n      mstore\n      pop\n        /* \"student.sol\":5514:5524  newworkexp */\n      dup1\n        /* \"student.sol\":5489:5499  workexpmap */\n      0x0b\n        /* \"student.sol\":5489:5511  workexpmap[_institute] */\n      0x00\n        /* \"student.sol\":5500:5510  _institute */\n      dup8\n        /* \"student.sol\":5489:5511  workexpmap[_institute] */\n      0xffffffffffffffffffffffffffffffffffffffff\n      and\n      0xffffffffffffffffffffffffffffffffffffffff\n      and\n      dup2\n      mstore\n      0x20\n      add\n      swap1\n      dup2\n      mstore\n      0x20\n      add\n      0x00\n      keccak256\n        /* \"student.sol\":5489:5524  workexpmap[_institute] = newworkexp */\n      0x00\n      dup3\n      add\n      mload\n      dup2\n      0x00\n      add\n      swap1\n      dup1\n      mload\n      swap1\n      0x20\n      add\n      swap1\n      tag_234\n      swap3\n      swap2\n      swap1\n      tag_135\n      jump\t// in\n    tag_234:\n      pop\n      0x20\n      dup3\n      add\n      mload\n      dup2\n      0x01\n      add\n      exp(0x0100, 0x00)\n      dup2\n      sload\n      dup2\n      0xffffffffffffffffffffffffffffffffffffffff\n      mul\n      not\n      and\n      swap1\n      dup4\n      0xffffffffffffffffffffffffffffffffffffffff\n      and\n      mul\n      or\n      swap1\n      sstore\n      pop\n      0x40\n      dup3\n      add\n      mload\n      dup2\n      0x02\n      add\n      swap1\n      dup1\n      mload\n      swap1\n      0x20\n      add\n      swap1\n      tag_235\n      swap3\n      swap2\n      swap1\n      tag_135\n      jump\t// in\n    tag_235:\n      pop\n      0x60\n      dup3\n      add\n      mload\n      dup2\n      0x03\n      add\n      swap1\n      dup1\n      mload\n      swap1\n      0x20\n      add\n      swap1\n      tag_236\n      swap3\n      swap2\n      swap1\n      tag_135\n      jump\t// in\n    tag_236:\n      pop\n      0x80\n      dup3\n      add\n      mload\n      dup2\n      0x04\n      add\n      swap1\n      dup1\n      mload\n      swap1\n      0x20\n      add\n      swap1\n      tag_237\n      swap3\n      swap2\n      swap1\n      tag_135\n      jump\t// in\n    tag_237:\n      pop\n      0xa0\n      dup3\n      add\n      mload\n      dup2\n      0x05\n      add\n      exp(0x0100, 0x00)\n      dup2\n      sload\n      dup2\n      0xff\n      mul\n      not\n      and\n      swap1\n      dup4\n      iszero\n      iszero\n      mul\n      or\n      swap1\n      sstore\n      pop\n      0xc0\n      dup3\n      add\n      mload\n      dup2\n      0x06\n      add\n      swap1\n      dup1\n      mload\n      swap1\n      0x20\n      add\n      swap1\n      tag_238\n      swap3\n      swap2\n      swap1\n      tag_135\n      jump\t// in\n    tag_238:\n      pop\n      0xe0\n      dup3\n      add\n      mload\n      dup2\n      0x07\n      add\n      exp(0x0100, 0x00)\n      dup2\n      sload\n      dup2\n      0xff\n      mul\n      not\n      and\n      swap1\n      dup4\n      iszero\n      iszero\n      mul\n      or\n      swap1\n      sstore\n      pop\n      swap1\n      pop\n      pop\n        /* \"student.sol\":5535:5543  workexps */\n      0x0c\n        /* \"student.sol\":5549:5559  _institute */\n      dup6\n        /* \"student.sol\":5535:5560  workexps.push(_institute) */\n      swap1\n      dup1\n      0x01\n      dup2\n      sload\n      add\n      dup1\n      dup3\n      sstore\n      dup1\n      swap2\n      pop\n      pop\n      0x01\n      swap1\n      sub\n      swap1\n      0x00\n      mstore\n      keccak256(0x00, 0x20)\n      add\n      0x00\n      swap1\n      swap2\n      swap1\n      swap2\n      swap1\n      swap2\n      0x0100\n      exp\n      dup2\n      sload\n      dup2\n      0xffffffffffffffffffffffffffffffffffffffff\n      mul\n      not\n      and\n      swap1\n      dup4\n      0xffffffffffffffffffffffffffffffffffffffff\n      and\n      mul\n      or\n      swap1\n      sstore\n      pop\n        /* \"student.sol\":5154:5568  {... */\n      pop\n        /* \"student.sol\":4944:5568  function addWorkExp(... */\n      pop\n      pop\n      pop\n      pop\n      pop\n      jump\t// out\n        /* \"student.sol\":1599:1807  function editInfo(... */\n    tag_110:\n        /* \"student.sol\":1217:1232  student_address */\n      0x00\n      dup1\n      sload\n      swap1\n      0x0100\n      exp\n      swap1\n      div\n      0xffffffffffffffffffffffffffffffffffffffff\n      and\n        /* \"student.sol\":1203:1232  msg.sender == student_address */\n      0xffffffffffffffffffffffffffffffffffffffff\n      and\n        /* \"student.sol\":1203:1213  msg.sender */\n      caller\n        /* \"student.sol\":1203:1232  msg.sender == student_address */\n      0xffffffffffffffffffffffffffffffffffffffff\n      and\n      eq\n        /* \"student.sol\":1195:1254  require(msg.sender == student_address, \"Not Student error\") */\n      tag_241\n      jumpi\n      mload(0x40)\n      0x08c379a000000000000000000000000000000000000000000000000000000000\n      dup2\n      mstore\n      0x04\n      add\n      tag_242\n      swap1\n      tag_122\n      jump\t// in\n    tag_242:\n      mload(0x40)\n      dup1\n      swap2\n      sub\n      swap1\n      revert\n    tag_241:\n        /* \"student.sol\":1750:1755  _name */\n      dup3\n        /* \"student.sol\":1743:1747  name */\n      0x04\n        /* \"student.sol\":1743:1755  name = _name */\n      swap1\n      dup1\n      mload\n      swap1\n      0x20\n      add\n      swap1\n      tag_244\n      swap3\n      swap2\n      swap1\n      tag_135\n      jump\t// in\n    tag_244:\n      pop\n        /* \"student.sol\":1774:1780  _email */\n      dup2\n        /* \"student.sol\":1766:1771  email */\n      0x01\n        /* \"student.sol\":1766:1780  email = _email */\n      swap1\n      dup1\n      mload\n      swap1\n      0x20\n      add\n      swap1\n      tag_245\n      swap3\n      swap2\n      swap1\n      tag_135\n      jump\t// in\n    tag_245:\n      pop\n        /* \"student.sol\":1796:1799  _id */\n      dup1\n        /* \"student.sol\":1791:1793  id */\n      0x02\n        /* \"student.sol\":1791:1799  id = _id */\n      swap1\n      dup1\n      mload\n      swap1\n      0x20\n      add\n      swap1\n      tag_246\n      swap3\n      swap2\n      swap1\n      tag_135\n      jump\t// in\n    tag_246:\n      pop\n        /* \"student.sol\":1599:1807  function editInfo(... */\n      pop\n      pop\n      pop\n      jump\t// out\n        /* \"student.sol\":4040:4253  function getCertificationByIndex(... */\n    tag_113:\n        /* \"student.sol\":4126:4139  string memory */\n      0x60\n        /* \"student.sol\":4141:4148  address */\n      0x00\n        /* \"student.sol\":4150:4163  string memory */\n      0x60\n        /* \"student.sol\":4165:4169  bool */\n      0x00\n        /* \"student.sol\":4171:4175  bool */\n      dup1\n        /* \"student.sol\":4195:4245  getCertificationBycertName(certifications[_index]) */\n      tag_248\n        /* \"student.sol\":4222:4236  certifications */\n      0x0a\n        /* \"student.sol\":4237:4243  _index */\n      dup8\n        /* \"student.sol\":4222:4244  certifications[_index] */\n      dup2\n      sload\n      dup2\n      lt\n      tag_249\n      jumpi\n      tag_250\n      tag_145\n      jump\t// in\n    tag_250:\n    tag_249:\n      swap1\n      0x00\n      mstore\n      keccak256(0x00, 0x20)\n      add\n        /* \"student.sol\":4195:4245  getCertificationBycertName(certifications[_index]) */\n      dup1\n      sload\n      tag_252\n      swap1\n      tag_148\n      jump\t// in\n    tag_252:\n      dup1\n      0x1f\n      add\n      0x20\n      dup1\n      swap2\n      div\n      mul\n      0x20\n      add\n      mload(0x40)\n      swap1\n      dup2\n      add\n      0x40\n      mstore\n      dup1\n      swap3\n      swap2\n      swap1\n      dup2\n      dup2\n      mstore\n      0x20\n      add\n      dup3\n      dup1\n      sload\n      tag_253\n      swap1\n      tag_148\n      jump\t// in\n    tag_253:\n      dup1\n      iszero\n      tag_254\n      jumpi\n      dup1\n      0x1f\n      lt\n      tag_255\n      jumpi\n      0x0100\n      dup1\n      dup4\n      sload\n      div\n      mul\n      dup4\n      mstore\n      swap2\n      0x20\n      add\n      swap2\n      jump(tag_254)\n    tag_255:\n      dup3\n      add\n      swap2\n      swap1\n      0x00\n      mstore\n      keccak256(0x00, 0x20)\n      swap1\n    tag_256:\n      dup2\n      sload\n      dup2\n      mstore\n      swap1\n      0x01\n      add\n      swap1\n      0x20\n      add\n      dup1\n      dup4\n      gt\n      tag_256\n      jumpi\n      dup3\n      swap1\n      sub\n      0x1f\n      and\n      dup3\n      add\n      swap2\n    tag_254:\n      pop\n      pop\n      pop\n      pop\n      pop\n        /* \"student.sol\":4195:4221  getCertificationBycertName */\n      tag_257\n        /* \"student.sol\":4195:4245  getCertificationBycertName(certifications[_index]) */\n      jump\t// in\n    tag_248:\n        /* \"student.sol\":4188:4245  return getCertificationBycertName(certifications[_index]) */\n      swap5\n      pop\n      swap5\n      pop\n      swap5\n      pop\n      swap5\n      pop\n      swap5\n      pop\n        /* \"student.sol\":4040:4253  function getCertificationByIndex(... */\n      swap2\n      swap4\n      swap6\n      swap1\n      swap3\n      swap5\n      pop\n      jump\t// out\n        /* \"student.sol\":8522:9066  function getSkillByName(... */\n    tag_153:\n        /* \"student.sol\":8646:8659  string memory */\n      0x60\n        /* \"student.sol\":8674:8687  string memory */\n      dup1\n        /* \"student.sol\":8702:8706  bool */\n      0x00\n        /* \"student.sol\":8721:8728  address */\n      dup1\n        /* \"student.sol\":8743:8756  string memory */\n      0x60\n        /* \"student.sol\":8771:8775  bool */\n      0x00\n        /* \"student.sol\":8825:8833  skillmap */\n      0x0d\n        /* \"student.sol\":8834:8839  _name */\n      dup8\n        /* \"student.sol\":8825:8840  skillmap[_name] */\n      mload(0x40)\n      tag_259\n      swap2\n      swap1\n      tag_125\n      jump\t// in\n    tag_259:\n      swap1\n      dup2\n      mstore\n      0x20\n      add\n      mload(0x40)\n      dup1\n      swap2\n      sub\n      swap1\n      keccak256\n        /* \"student.sol\":8825:8845  skillmap[_name].name */\n      0x00\n      add\n        /* \"student.sol\":8860:8868  skillmap */\n      0x0d\n        /* \"student.sol\":8869:8874  _name */\n      dup9\n        /* \"student.sol\":8860:8875  skillmap[_name] */\n      mload(0x40)\n      tag_260\n      swap2\n      swap1\n      tag_125\n      jump\t// in\n    tag_260:\n      swap1\n      dup2\n      mstore\n      0x20\n      add\n      mload(0x40)\n      dup1\n      swap2\n      sub\n      swap1\n      keccak256\n        /* \"student.sol\":8860:8886  skillmap[_name].experience */\n      0x02\n      add\n        /* \"student.sol\":8901:8909  skillmap */\n      0x0d\n        /* \"student.sol\":8910:8915  _name */\n      dup10\n        /* \"student.sol\":8901:8916  skillmap[_name] */\n      mload(0x40)\n      tag_261\n      swap2\n      swap1\n      tag_125\n      jump\t// in\n    tag_261:\n      swap1\n      dup2\n      mstore\n      0x20\n      add\n      mload(0x40)\n      dup1\n      swap2\n      sub\n      swap1\n      keccak256\n        /* \"student.sol\":8901:8925  skillmap[_name].endorsed */\n      0x03\n      add\n      0x00\n      swap1\n      sload\n      swap1\n      0x0100\n      exp\n      swap1\n      div\n      0xff\n      and\n        /* \"student.sol\":8940:8948  skillmap */\n      0x0d\n        /* \"student.sol\":8949:8954  _name */\n      dup11\n        /* \"student.sol\":8940:8955  skillmap[_name] */\n      mload(0x40)\n      tag_262\n      swap2\n      swap1\n      tag_125\n      jump\t// in\n    tag_262:\n      swap1\n      dup2\n      mstore\n      0x20\n      add\n      mload(0x40)\n      dup1\n      swap2\n      sub\n      swap1\n      keccak256\n        /* \"student.sol\":8940:8972  skillmap[_name].endorser_address */\n      0x03\n      add\n      0x01\n      swap1\n      sload\n      swap1\n      0x0100\n      exp\n      swap1\n      div\n      0xffffffffffffffffffffffffffffffffffffffff\n      and\n        /* \"student.sol\":8987:8995  skillmap */\n      0x0d\n        /* \"student.sol\":8996:9001  _name */\n      dup12\n        /* \"student.sol\":8987:9002  skillmap[_name] */\n      mload(0x40)\n      tag_263\n      swap2\n      swap1\n      tag_125\n      jump\t// in\n    tag_263:\n      swap1\n      dup2\n      mstore\n      0x20\n      add\n      mload(0x40)\n      dup1\n      swap2\n      sub\n      swap1\n      keccak256\n        /* \"student.sol\":8987:9009  skillmap[_name].review */\n      0x04\n      add\n        /* \"student.sol\":9024:9032  skillmap */\n      0x0d\n        /* \"student.sol\":9033:9038  _name */\n      dup13\n        /* \"student.sol\":9024:9039  skillmap[_name] */\n      mload(0x40)\n      tag_264\n      swap2\n      swap1\n      tag_125\n      jump\t// in\n    tag_264:\n      swap1\n      dup2\n      mstore\n      0x20\n      add\n      mload(0x40)\n      dup1\n      swap2\n      sub\n      swap1\n      keccak256\n        /* \"student.sol\":9024:9047  skillmap[_name].visible */\n      0x05\n      add\n      0x00\n      swap1\n      sload\n      swap1\n      0x0100\n      exp\n      swap1\n      div\n      0xff\n      and\n        /* \"student.sol\":8803:9058  return (... */\n      dup6\n      dup1\n      sload\n      tag_265\n      swap1\n      tag_148\n      jump\t// in\n    tag_265:\n      dup1\n      0x1f\n      add\n      0x20\n      dup1\n      swap2\n      div\n      mul\n      0x20\n      add\n      mload(0x40)\n      swap1\n      dup2\n      add\n      0x40\n      mstore\n      dup1\n      swap3\n      swap2\n      swap1\n      dup2\n      dup2\n      mstore\n      0x20\n      add\n      dup3\n      dup1\n      sload\n      tag_266\n      swap1\n      tag_148\n      jump\t// in\n    tag_266:\n      dup1\n      iszero\n      tag_267\n      jumpi\n      dup1\n      0x1f\n      lt\n      tag_268\n      jumpi\n      0x0100\n      dup1\n      dup4\n      sload\n      div\n      mul\n      dup4\n      mstore\n      swap2\n      0x20\n      add\n      swap2\n      jump(tag_267)\n    tag_268:\n      dup3\n      add\n      swap2\n      swap1\n      0x00\n      mstore\n      keccak256(0x00, 0x20)\n      swap1\n    tag_269:\n      dup2\n      sload\n      dup2\n      mstore\n      swap1\n      0x01\n      add\n      swap1\n      0x20\n      add\n      dup1\n      dup4\n      gt\n      tag_269\n      jumpi\n      dup3\n      swap1\n      sub\n      0x1f\n      and\n      dup3\n      add\n      swap2\n    tag_267:\n      pop\n      pop\n      pop\n      pop\n      pop\n      swap6\n      pop\n      dup5\n      dup1\n      sload\n      tag_270\n      swap1\n      tag_148\n      jump\t// in\n    tag_270:\n      dup1\n      0x1f\n      add\n      0x20\n      dup1\n      swap2\n      div\n      mul\n      0x20\n      add\n      mload(0x40)\n      swap1\n      dup2\n      add\n      0x40\n      mstore\n      dup1\n      swap3\n      swap2\n      swap1\n      dup2\n      dup2\n      mstore\n      0x20\n      add\n      dup3\n      dup1\n      sload\n      tag_271\n      swap1\n      tag_148\n      jump\t// in\n    tag_271:\n      dup1\n      iszero\n      tag_272\n      jumpi\n      dup1\n      0x1f\n      lt\n      tag_273\n      jumpi\n      0x0100\n      dup1\n      dup4\n      sload\n      div\n      mul\n      dup4\n      mstore\n      swap2\n      0x20\n      add\n      swap2\n      jump(tag_272)\n    tag_273:\n      dup3\n      add\n      swap2\n      swap1\n      0x00\n      mstore\n      keccak256(0x00, 0x20)\n      swap1\n    tag_274:\n      dup2\n      sload\n      dup2\n      mstore\n      swap1\n      0x01\n      add\n      swap1\n      0x20\n      add\n      dup1\n      dup4\n      gt\n      tag_274\n      jumpi\n      dup3\n      swap1\n      sub\n      0x1f\n      and\n      dup3\n      add\n      swap2\n    tag_272:\n      pop\n      pop\n      pop\n      pop\n      pop\n      swap5\n      pop\n      dup2\n      dup1\n      sload\n      tag_275\n      swap1\n      tag_148\n      jump\t// in\n    tag_275:\n      dup1\n      0x1f\n      add\n      0x20\n      dup1\n      swap2\n      div\n      mul\n      0x20\n      add\n      mload(0x40)\n      swap1\n      dup2\n      add\n      0x40\n      mstore\n      dup1\n      swap3\n      swap2\n      swap1\n      dup2\n      dup2\n      mstore\n      0x20\n      add\n      dup3\n      dup1\n      sload\n      tag_276\n      swap1\n      tag_148\n      jump\t// in\n    tag_276:\n      dup1\n      iszero\n      tag_277\n      jumpi\n      dup1\n      0x1f\n      lt\n      tag_278\n      jumpi\n      0x0100\n      dup1\n      dup4\n      sload\n      div\n      mul\n      dup4\n      mstore\n      swap2\n      0x20\n      add\n      swap2\n      jump(tag_277)\n    tag_278:\n      dup3\n      add\n      swap2\n      swap1\n      0x00\n      mstore\n      keccak256(0x00, 0x20)\n      swap1\n    tag_279:\n      dup2\n      sload\n      dup2\n      mstore\n      swap1\n      0x01\n      add\n      swap1\n      0x20\n      add\n      dup1\n      dup4\n      gt\n      tag_279\n      jumpi\n      dup3\n      swap1\n      sub\n      0x1f\n      and\n      dup3\n      add\n      swap2\n    tag_277:\n      pop\n      pop\n      pop\n      pop\n      pop\n      swap2\n      pop\n      swap6\n      pop\n      swap6\n      pop\n      swap6\n      pop\n      swap6\n      pop\n      swap6\n      pop\n      swap6\n      pop\n        /* \"student.sol\":8522:9066  function getSkillByName(... */\n      swap2\n      swap4\n      swap6\n      pop\n      swap2\n      swap4\n      swap6\n      jump\t// out\n        /* \"student.sol\":5757:6417  function getWorkExpByAddress(... */\n    tag_196:\n        /* \"student.sol\":5885:5898  string memory */\n      0x60\n        /* \"student.sol\":5913:5920  address */\n      0x00\n        /* \"student.sol\":5935:5948  string memory */\n      0x60\n        /* \"student.sol\":5963:5976  string memory */\n      dup1\n        /* \"student.sol\":5991:5995  bool */\n      0x00\n        /* \"student.sol\":6010:6023  string memory */\n      0x60\n        /* \"student.sol\":6038:6042  bool */\n      0x00\n        /* \"student.sol\":6092:6102  workexpmap */\n      0x0b\n        /* \"student.sol\":6092:6114  workexpmap[_institute] */\n      0x00\n        /* \"student.sol\":6103:6113  _institute */\n      dup10\n        /* \"student.sol\":6092:6114  workexpmap[_institute] */\n      0xffffffffffffffffffffffffffffffffffffffff\n      and\n      0xffffffffffffffffffffffffffffffffffffffff\n      and\n      dup2\n      mstore\n      0x20\n      add\n      swap1\n      dup2\n      mstore\n      0x20\n      add\n      0x00\n      keccak256\n        /* \"student.sol\":6092:6119  workexpmap[_institute].role */\n      0x00\n      add\n        /* \"student.sol\":6134:6144  workexpmap */\n      0x0b\n        /* \"student.sol\":6134:6156  workexpmap[_institute] */\n      0x00\n        /* \"student.sol\":6145:6155  _institute */\n      dup11\n        /* \"student.sol\":6134:6156  workexpmap[_institute] */\n      0xffffffffffffffffffffffffffffffffffffffff\n      and\n      0xffffffffffffffffffffffffffffffffffffffff\n      and\n      dup2\n      mstore\n      0x20\n      add\n      swap1\n      dup2\n      mstore\n      0x20\n      add\n      0x00\n      keccak256\n        /* \"student.sol\":6134:6166  workexpmap[_institute].institute */\n      0x01\n      add\n      0x00\n      swap1\n      sload\n      swap1\n      0x0100\n      exp\n      swap1\n      div\n      0xffffffffffffffffffffffffffffffffffffffff\n      and\n        /* \"student.sol\":6181:6191  workexpmap */\n      0x0b\n        /* \"student.sol\":6181:6203  workexpmap[_institute] */\n      0x00\n        /* \"student.sol\":6192:6202  _institute */\n      dup12\n        /* \"student.sol\":6181:6203  workexpmap[_institute] */\n      0xffffffffffffffffffffffffffffffffffffffff\n      and\n      0xffffffffffffffffffffffffffffffffffffffff\n      and\n      dup2\n      mstore\n      0x20\n      add\n      swap1\n      dup2\n      mstore\n      0x20\n      add\n      0x00\n      keccak256\n        /* \"student.sol\":6181:6213  workexpmap[_institute].startdate */\n      0x03\n      add\n        /* \"student.sol\":6228:6238  workexpmap */\n      0x0b\n        /* \"student.sol\":6228:6250  workexpmap[_institute] */\n      0x00\n        /* \"student.sol\":6239:6249  _institute */\n      dup13\n        /* \"student.sol\":6228:6250  workexpmap[_institute] */\n      0xffffffffffffffffffffffffffffffffffffffff\n      and\n      0xffffffffffffffffffffffffffffffffffffffff\n      and\n      dup2\n      mstore\n      0x20\n      add\n      swap1\n      dup2\n      mstore\n      0x20\n      add\n      0x00\n      keccak256\n        /* \"student.sol\":6228:6258  workexpmap[_institute].enddate */\n      0x04\n      add\n        /* \"student.sol\":6273:6283  workexpmap */\n      0x0b\n        /* \"student.sol\":6273:6295  workexpmap[_institute] */\n      0x00\n        /* \"student.sol\":6284:6294  _institute */\n      dup14\n        /* \"student.sol\":6273:6295  workexpmap[_institute] */\n      0xffffffffffffffffffffffffffffffffffffffff\n      and\n      0xffffffffffffffffffffffffffffffffffffffff\n      and\n      dup2\n      mstore\n      0x20\n      add\n      swap1\n      dup2\n      mstore\n      0x20\n      add\n      0x00\n      keccak256\n        /* \"student.sol\":6273:6304  workexpmap[_institute].verified */\n      0x05\n      add\n      0x00\n      swap1\n      sload\n      swap1\n      0x0100\n      exp\n      swap1\n      div\n      0xff\n      and\n        /* \"student.sol\":6319:6329  workexpmap */\n      0x0b\n        /* \"student.sol\":6319:6341  workexpmap[_institute] */\n      0x00\n        /* \"student.sol\":6330:6340  _institute */\n      dup15\n        /* \"student.sol\":6319:6341  workexpmap[_institute] */\n      0xffffffffffffffffffffffffffffffffffffffff\n      and\n      0xffffffffffffffffffffffffffffffffffffffff\n      and\n      dup2\n      mstore\n      0x20\n      add\n      swap1\n      dup2\n      mstore\n      0x20\n      add\n      0x00\n      keccak256\n        /* \"student.sol\":6319:6353  workexpmap[_institute].description */\n      0x06\n      add\n        /* \"student.sol\":6368:6378  workexpmap */\n      0x0b\n        /* \"student.sol\":6368:6390  workexpmap[_institute] */\n      0x00\n        /* \"student.sol\":6379:6389  _institute */\n      dup16\n        /* \"student.sol\":6368:6390  workexpmap[_institute] */\n      0xffffffffffffffffffffffffffffffffffffffff\n      and\n      0xffffffffffffffffffffffffffffffffffffffff\n      and\n      dup2\n      mstore\n      0x20\n      add\n      swap1\n      dup2\n      mstore\n      0x20\n      add\n      0x00\n      keccak256\n        /* \"student.sol\":6368:6398  workexpmap[_institute].visible */\n      0x07\n      add\n      0x00\n      swap1\n      sload\n      swap1\n      0x0100\n      exp\n      swap1\n      div\n      0xff\n      and\n        /* \"student.sol\":6070:6409  return (... */\n      dup7\n      dup1\n      sload\n      tag_281\n      swap1\n      tag_148\n      jump\t// in\n    tag_281:\n      dup1\n      0x1f\n      add\n      0x20\n      dup1\n      swap2\n      div\n      mul\n      0x20\n      add\n      mload(0x40)\n      swap1\n      dup2\n      add\n      0x40\n      mstore\n      dup1\n      swap3\n      swap2\n      swap1\n      dup2\n      dup2\n      mstore\n      0x20\n      add\n      dup3\n      dup1\n      sload\n      tag_282\n      swap1\n      tag_148\n      jump\t// in\n    tag_282:\n      dup1\n      iszero\n      tag_283\n      jumpi\n      dup1\n      0x1f\n      lt\n      tag_284\n      jumpi\n      0x0100\n      dup1\n      dup4\n      sload\n      div\n      mul\n      dup4\n      mstore\n      swap2\n      0x20\n      add\n      swap2\n      jump(tag_283)\n    tag_284:\n      dup3\n      add\n      swap2\n      swap1\n      0x00\n      mstore\n      keccak256(0x00, 0x20)\n      swap1\n    tag_285:\n      dup2\n      sload\n      dup2\n      mstore\n      swap1\n      0x01\n      add\n      swap1\n      0x20\n      add\n      dup1\n      dup4\n      gt\n      tag_285\n      jumpi\n      dup3\n      swap1\n      sub\n      0x1f\n      and\n      dup3\n      add\n      swap2\n    tag_283:\n      pop\n      pop\n      pop\n      pop\n      pop\n      swap7\n      pop\n      dup5\n      dup1\n      sload\n      tag_286\n      swap1\n      tag_148\n      jump\t// in\n    tag_286:\n      dup1\n      0x1f\n      add\n      0x20\n      dup1\n      swap2\n      div\n      mul\n      0x20\n      add\n      mload(0x40)\n      swap1\n      dup2\n      add\n      0x40\n      mstore\n      dup1\n      swap3\n      swap2\n      swap1\n      dup2\n      dup2\n      mstore\n      0x20\n      add\n      dup3\n      dup1\n      sload\n      tag_287\n      swap1\n      tag_148\n      jump\t// in\n    tag_287:\n      dup1\n      iszero\n      tag_288\n      jumpi\n      dup1\n      0x1f\n      lt\n      tag_289\n      jumpi\n      0x0100\n      dup1\n      dup4\n      sload\n      div\n      mul\n      dup4\n      mstore\n      swap2\n      0x20\n      add\n      swap2\n      jump(tag_288)\n    tag_289:\n      dup3\n      add\n      swap2\n      swap1\n      0x00\n      mstore\n      keccak256(0x00, 0x20)\n      swap1\n    tag_290:\n      dup2\n      sload\n      dup2\n      mstore\n      swap1\n      0x01\n      add\n      swap1\n      0x20\n      add\n      dup1\n      dup4\n      gt\n      tag_290\n      jumpi\n      dup3\n      swap1\n      sub\n      0x1f\n      and\n      dup3\n      add\n      swap2\n    tag_288:\n      pop\n      pop\n      pop\n      pop\n      pop\n      swap5\n      pop\n      dup4\n      dup1\n      sload\n      tag_291\n      swap1\n      tag_148\n      jump\t// in\n    tag_291:\n      dup1\n      0x1f\n      add\n      0x20\n      dup1\n      swap2\n      div\n      mul\n      0x20\n      add\n      mload(0x40)\n      swap1\n      dup2\n      add\n      0x40\n      mstore\n      dup1\n      swap3\n      swap2\n      swap1\n      dup2\n      dup2\n      mstore\n      0x20\n      add\n      dup3\n      dup1\n      sload\n      tag_292\n      swap1\n      tag_148\n      jump\t// in\n    tag_292:\n      dup1\n      iszero\n      tag_293\n      jumpi\n      dup1\n      0x1f\n      lt\n      tag_294\n      jumpi\n      0x0100\n      dup1\n      dup4\n      sload\n      div\n      mul\n      dup4\n      mstore\n      swap2\n      0x20\n      add\n      swap2\n      jump(tag_293)\n    tag_294:\n      dup3\n      add\n      swap2\n      swap1\n      0x00\n      mstore\n      keccak256(0x00, 0x20)\n      swap1\n    tag_295:\n      dup2\n      sload\n      dup2\n      mstore\n      swap1\n      0x01\n      add\n      swap1\n      0x20\n      add\n      dup1\n      dup4\n      gt\n      tag_295\n      jumpi\n      dup3\n      swap1\n      sub\n      0x1f\n      and\n      dup3\n      add\n      swap2\n    tag_293:\n      pop\n      pop\n      pop\n      pop\n      pop\n      swap4\n      pop\n      dup2\n      dup1\n      sload\n      tag_296\n      swap1\n      tag_148\n      jump\t// in\n    tag_296:\n      dup1\n      0x1f\n      add\n      0x20\n      dup1\n      swap2\n      div\n      mul\n      0x20\n      add\n      mload(0x40)\n      swap1\n      dup2\n      add\n      0x40\n      mstore\n      dup1\n      swap3\n      swap2\n      swap1\n      dup2\n      dup2\n      mstore\n      0x20\n      add\n      dup3\n      dup1\n      sload\n      tag_297\n      swap1\n      tag_148\n      jump\t// in\n    tag_297:\n      dup1\n      iszero\n      tag_298\n      jumpi\n      dup1\n      0x1f\n      lt\n      tag_299\n      jumpi\n      0x0100\n      dup1\n      dup4\n      sload\n      div\n      mul\n      dup4\n      mstore\n      swap2\n      0x20\n      add\n      swap2\n      jump(tag_298)\n    tag_299:\n      dup3\n      add\n      swap2\n      swap1\n      0x00\n      mstore\n      keccak256(0x00, 0x20)\n      swap1\n    tag_300:\n      dup2\n      sload\n      dup2\n      mstore\n      swap1\n      0x01\n      add\n      swap1\n      0x20\n      add\n      dup1\n      dup4\n      gt\n      tag_300\n      jumpi\n      dup3\n      swap1\n      sub\n      0x1f\n      and\n      dup3\n      add\n      swap2\n    tag_298:\n      pop\n      pop\n      pop\n      pop\n      pop\n      swap2\n      pop\n      swap7\n      pop\n      swap7\n      pop\n      swap7\n      pop\n      swap7\n      pop\n      swap7\n      pop\n      swap7\n      pop\n      swap7\n      pop\n        /* \"student.sol\":5757:6417  function getWorkExpByAddress(... */\n      swap2\n      swap4\n      swap6\n      swap8\n      swap1\n      swap3\n      swap5\n      swap7\n      pop\n      jump\t// out\n        /* \"student.sol\":3468:3914  function getCertificationBycertName(... */\n    tag_257:\n        /* \"student.sol\":3567:3580  string memory */\n      0x60\n        /* \"student.sol\":3582:3589  address */\n      0x00\n        /* \"student.sol\":3591:3604  string memory */\n      0x60\n        /* \"student.sol\":3606:3610  bool */\n      0x00\n        /* \"student.sol\":3612:3616  bool */\n      dup1\n        /* \"student.sol\":3651:3667  certificationmap */\n      0x09\n        /* \"student.sol\":3668:3677  _certname */\n      dup7\n        /* \"student.sol\":3651:3678  certificationmap[_certname] */\n      mload(0x40)\n      tag_302\n      swap2\n      swap1\n      tag_125\n      jump\t// in\n    tag_302:\n      swap1\n      dup2\n      mstore\n      0x20\n      add\n      mload(0x40)\n      dup1\n      swap2\n      sub\n      swap1\n      keccak256\n        /* \"student.sol\":3651:3683  certificationmap[_certname].name */\n      0x00\n      add\n        /* \"student.sol\":3698:3714  certificationmap */\n      0x09\n        /* \"student.sol\":3715:3724  _certname */\n      dup8\n        /* \"student.sol\":3698:3725  certificationmap[_certname] */\n      mload(0x40)\n      tag_303\n      swap2\n      swap1\n      tag_125\n      jump\t// in\n    tag_303:\n      swap1\n      dup2\n      mstore\n      0x20\n      add\n      mload(0x40)\n      dup1\n      swap2\n      sub\n      swap1\n      keccak256\n        /* \"student.sol\":3698:3735  certificationmap[_certname].institute */\n      0x01\n      add\n      0x00\n      swap1\n      sload\n      swap1\n      0x0100\n      exp\n      swap1\n      div\n      0xffffffffffffffffffffffffffffffffffffffff\n      and\n        /* \"student.sol\":3750:3766  certificationmap */\n      0x09\n        /* \"student.sol\":3767:3776  _certname */\n      dup9\n        /* \"student.sol\":3750:3777  certificationmap[_certname] */\n      mload(0x40)\n      tag_304\n      swap2\n      swap1\n      tag_125\n      jump\t// in\n    tag_304:\n      swap1\n      dup2\n      mstore\n      0x20\n      add\n      mload(0x40)\n      dup1\n      swap2\n      sub\n      swap1\n      keccak256\n        /* \"student.sol\":3750:3794  certificationmap[_certname].certificate_name */\n      0x02\n      add\n        /* \"student.sol\":3809:3825  certificationmap */\n      0x09\n        /* \"student.sol\":3826:3835  _certname */\n      dup10\n        /* \"student.sol\":3809:3836  certificationmap[_certname] */\n      mload(0x40)\n      tag_305\n      swap2\n      swap1\n      tag_125\n      jump\t// in\n    tag_305:\n      swap1\n      dup2\n      mstore\n      0x20\n      add\n      mload(0x40)\n      dup1\n      swap2\n      sub\n      swap1\n      keccak256\n        /* \"student.sol\":3809:3845  certificationmap[_certname].verified */\n      0x03\n      add\n      0x00\n      swap1\n      sload\n      swap1\n      0x0100\n      exp\n      swap1\n      div\n      0xff\n      and\n        /* \"student.sol\":3860:3876  certificationmap */\n      0x09\n        /* \"student.sol\":3877:3886  _certname */\n      dup11\n        /* \"student.sol\":3860:3887  certificationmap[_certname] */\n      mload(0x40)\n      tag_306\n      swap2\n      swap1\n      tag_125\n      jump\t// in\n    tag_306:\n      swap1\n      dup2\n      mstore\n      0x20\n      add\n      mload(0x40)\n      dup1\n      swap2\n      sub\n      swap1\n      keccak256\n        /* \"student.sol\":3860:3895  certificationmap[_certname].visible */\n      0x03\n      add\n      0x01\n      swap1\n      sload\n      swap1\n      0x0100\n      exp\n      swap1\n      div\n      0xff\n      and\n        /* \"student.sol\":3629:3906  return (... */\n      dup5\n      dup1\n      sload\n      tag_307\n      swap1\n      tag_148\n      jump\t// in\n    tag_307:\n      dup1\n      0x1f\n      add\n      0x20\n      dup1\n      swap2\n      div\n      mul\n      0x20\n      add\n      mload(0x40)\n      swap1\n      dup2\n      add\n      0x40\n      mstore\n      dup1\n      swap3\n      swap2\n      swap1\n      dup2\n      dup2\n      mstore\n      0x20\n      add\n      dup3\n      dup1\n      sload\n      tag_308\n      swap1\n      tag_148\n      jump\t// in\n    tag_308:\n      dup1\n      iszero\n      tag_309\n      jumpi\n      dup1\n      0x1f\n      lt\n      tag_310\n      jumpi\n      0x0100\n      dup1\n      dup4\n      sload\n      div\n      mul\n      dup4\n      mstore\n      swap2\n      0x20\n      add\n      swap2\n      jump(tag_309)\n    tag_310:\n      dup3\n      add\n      swap2\n      swap1\n      0x00\n      mstore\n      keccak256(0x00, 0x20)\n      swap1\n    tag_311:\n      dup2\n      sload\n      dup2\n      mstore\n      swap1\n      0x01\n      add\n      swap1\n      0x20\n      add\n      dup1\n      dup4\n      gt\n      tag_311\n      jumpi\n      dup3\n      swap1\n      sub\n      0x1f\n      and\n      dup3\n      add\n      swap2\n    tag_309:\n      pop\n      pop\n      pop\n      pop\n      pop\n      swap5\n      pop\n      dup3\n      dup1\n      sload\n      tag_312\n      swap1\n      tag_148\n      jump\t// in\n    tag_312:\n      dup1\n      0x1f\n      add\n      0x20\n      dup1\n      swap2\n      div\n      mul\n      0x20\n      add\n      mload(0x40)\n      swap1\n      dup2\n      add\n      0x40\n      mstore\n      dup1\n      swap3\n      swap2\n      swap1\n      dup2\n      dup2\n      mstore\n      0x20\n      add\n      dup3\n      dup1\n      sload\n      tag_313\n      swap1\n      tag_148\n      jump\t// in\n    tag_313:\n      dup1\n      iszero\n      tag_314\n      jumpi\n      dup1\n      0x1f\n      lt\n      tag_315\n      jumpi\n      0x0100\n      dup1\n      dup4\n      sload\n      div\n      mul\n      dup4\n      mstore\n      swap2\n      0x20\n      add\n      swap2\n      jump(tag_314)\n    tag_315:\n      dup3\n      add\n      swap2\n      swap1\n      0x00\n      mstore\n      keccak256(0x00, 0x20)\n      swap1\n    tag_316:\n      dup2\n      sload\n      dup2\n      mstore\n      swap1\n      0x01\n      add\n      swap1\n      0x20\n      add\n      dup1\n      dup4\n      gt\n      tag_316\n      jumpi\n      dup3\n      swap1\n      sub\n      0x1f\n      and\n      dup3\n      add\n      swap2\n    tag_314:\n      pop\n      pop\n      pop\n      pop\n      pop\n      swap3\n      pop\n      swap5\n      pop\n      swap5\n      pop\n      swap5\n      pop\n      swap5\n      pop\n      swap5\n      pop\n        /* \"student.sol\":3468:3914  function getCertificationBycertName(... */\n      swap2\n      swap4\n      swap6\n      swap1\n      swap3\n      swap5\n      pop\n      jump\t// out\n    tag_132:\n      mload(0x40)\n      dup1\n      0xe0\n      add\n      0x40\n      mstore\n      dup1\n      0x60\n      dup2\n      mstore\n      0x20\n      add\n      0x60\n      dup2\n      mstore\n      0x20\n      add\n      0x60\n      dup2\n      mstore\n      0x20\n      add\n      iszero(iszero(0x00))\n      dup2\n      mstore\n      0x20\n      add\n      and(0xffffffffffffffffffffffffffffffffffffffff, 0x00)\n      dup2\n      mstore\n      0x20\n      add\n      0x60\n      dup2\n      mstore\n      0x20\n      add\n      iszero(iszero(0x00))\n      dup2\n      mstore\n      pop\n      swap1\n      jump\t// out\n    tag_135:\n      dup3\n      dup1\n      sload\n      tag_317\n      swap1\n      tag_148\n      jump\t// in\n    tag_317:\n      swap1\n      0x00\n      mstore\n      keccak256(0x00, 0x20)\n      swap1\n      0x1f\n      add\n      0x20\n      swap1\n      div\n      dup2\n      add\n      swap3\n      dup3\n      tag_319\n      jumpi\n      0x00\n      dup6\n      sstore\n      jump(tag_318)\n    tag_319:\n      dup3\n      0x1f\n      lt\n      tag_320\n      jumpi\n      dup1\n      mload\n      not(0xff)\n      and\n      dup4\n      dup1\n      add\n      or\n      dup6\n      sstore\n      jump(tag_318)\n    tag_320:\n      dup3\n      dup1\n      add\n      0x01\n      add\n      dup6\n      sstore\n      dup3\n      iszero\n      tag_318\n      jumpi\n      swap2\n      dup3\n      add\n    tag_321:\n      dup3\n      dup2\n      gt\n      iszero\n      tag_322\n      jumpi\n      dup3\n      mload\n      dup3\n      sstore\n      swap2\n      0x20\n      add\n      swap2\n      swap1\n      0x01\n      add\n      swap1\n      jump(tag_321)\n    tag_322:\n    tag_318:\n      pop\n      swap1\n      pop\n      tag_323\n      swap2\n      swap1\n      tag_324\n      jump\t// in\n    tag_323:\n      pop\n      swap1\n      jump\t// out\n    tag_162:\n      mload(0x40)\n      dup1\n      0xa0\n      add\n      0x40\n      mstore\n      dup1\n      0x60\n      dup2\n      mstore\n      0x20\n      add\n      and(0xffffffffffffffffffffffffffffffffffffffff, 0x00)\n      dup2\n      mstore\n      0x20\n      add\n      0x60\n      dup2\n      mstore\n      0x20\n      add\n      iszero(iszero(0x00))\n      dup2\n      mstore\n      0x20\n      add\n      iszero(iszero(0x00))\n      dup2\n      mstore\n      pop\n      swap1\n      jump\t// out\n    tag_233:\n      mload(0x40)\n      dup1\n      0x0100\n      add\n      0x40\n      mstore\n      dup1\n      0x60\n      dup2\n      mstore\n      0x20\n      add\n      and(0xffffffffffffffffffffffffffffffffffffffff, 0x00)\n      dup2\n      mstore\n      0x20\n      add\n      0x60\n      dup2\n      mstore\n      0x20\n      add\n      0x60\n      dup2\n      mstore\n      0x20\n      add\n      0x60\n      dup2\n      mstore\n      0x20\n      add\n      iszero(iszero(0x00))\n      dup2\n      mstore\n      0x20\n      add\n      0x60\n      dup2\n      mstore\n      0x20\n      add\n      iszero(iszero(0x00))\n      dup2\n      mstore\n      pop\n      swap1\n      jump\t// out\n    tag_324:\n    tag_325:\n      dup1\n      dup3\n      gt\n      iszero\n      tag_326\n      jumpi\n      0x00\n      dup2\n      0x00\n      swap1\n      sstore\n      pop\n      0x01\n      add\n      jump(tag_325)\n    tag_326:\n      pop\n      swap1\n      jump\t// out\n        /* \"#utility.yul\":7:84   */\n    tag_327:\n        /* \"#utility.yul\":44:51   */\n      0x00\n        /* \"#utility.yul\":73:78   */\n      dup2\n        /* \"#utility.yul\":62:78   */\n      swap1\n      pop\n        /* \"#utility.yul\":7:84   */\n      swap2\n      swap1\n      pop\n      jump\t// out\n        /* \"#utility.yul\":90:208   */\n    tag_328:\n        /* \"#utility.yul\":177:201   */\n      tag_374\n        /* \"#utility.yul\":195:200   */\n      dup2\n        /* \"#utility.yul\":177:201   */\n      tag_327\n      jump\t// in\n    tag_374:\n        /* \"#utility.yul\":172:175   */\n      dup3\n        /* \"#utility.yul\":165:202   */\n      mstore\n        /* \"#utility.yul\":90:208   */\n      pop\n      pop\n      jump\t// out\n        /* \"#utility.yul\":214:436   */\n    tag_32:\n        /* \"#utility.yul\":307:311   */\n      0x00\n        /* \"#utility.yul\":345:347   */\n      0x20\n        /* \"#utility.yul\":334:343   */\n      dup3\n        /* \"#utility.yul\":330:348   */\n      add\n        /* \"#utility.yul\":322:348   */\n      swap1\n      pop\n        /* \"#utility.yul\":358:429   */\n      tag_376\n        /* \"#utility.yul\":426:427   */\n      0x00\n        /* \"#utility.yul\":415:424   */\n      dup4\n        /* \"#utility.yul\":411:428   */\n      add\n        /* \"#utility.yul\":402:408   */\n      dup5\n        /* \"#utility.yul\":358:429   */\n      tag_328\n      jump\t// in\n    tag_376:\n        /* \"#utility.yul\":214:436   */\n      swap3\n      swap2\n      pop\n      pop\n      jump\t// out\n        /* \"#utility.yul\":442:517   */\n    tag_329:\n        /* \"#utility.yul\":475:481   */\n      0x00\n        /* \"#utility.yul\":508:510   */\n      0x40\n        /* \"#utility.yul\":502:511   */\n      mload\n        /* \"#utility.yul\":492:511   */\n      swap1\n      pop\n        /* \"#utility.yul\":442:517   */\n      swap1\n      jump\t// out\n        /* \"#utility.yul\":523:640   */\n    tag_330:\n        /* \"#utility.yul\":632:633   */\n      0x00\n        /* \"#utility.yul\":629:630   */\n      dup1\n        /* \"#utility.yul\":622:634   */\n      revert\n        /* \"#utility.yul\":646:763   */\n    tag_331:\n        /* \"#utility.yul\":755:756   */\n      0x00\n        /* \"#utility.yul\":752:753   */\n      dup1\n        /* \"#utility.yul\":745:757   */\n      revert\n        /* \"#utility.yul\":769:891   */\n    tag_332:\n        /* \"#utility.yul\":842:866   */\n      tag_381\n        /* \"#utility.yul\":860:865   */\n      dup2\n        /* \"#utility.yul\":842:866   */\n      tag_327\n      jump\t// in\n    tag_381:\n        /* \"#utility.yul\":835:840   */\n      dup2\n        /* \"#utility.yul\":832:867   */\n      eq\n        /* \"#utility.yul\":822:885   */\n      tag_382\n      jumpi\n        /* \"#utility.yul\":881:882   */\n      0x00\n        /* \"#utility.yul\":878:879   */\n      dup1\n        /* \"#utility.yul\":871:883   */\n      revert\n        /* \"#utility.yul\":822:885   */\n    tag_382:\n        /* \"#utility.yul\":769:891   */\n      pop\n      jump\t// out\n        /* \"#utility.yul\":897:1036   */\n    tag_333:\n        /* \"#utility.yul\":943:948   */\n      0x00\n        /* \"#utility.yul\":981:987   */\n      dup2\n        /* \"#utility.yul\":968:988   */\n      calldataload\n        /* \"#utility.yul\":959:988   */\n      swap1\n      pop\n        /* \"#utility.yul\":997:1030   */\n      tag_384\n        /* \"#utility.yul\":1024:1029   */\n      dup2\n        /* \"#utility.yul\":997:1030   */\n      tag_332\n      jump\t// in\n    tag_384:\n        /* \"#utility.yul\":897:1036   */\n      swap3\n      swap2\n      pop\n      pop\n      jump\t// out\n        /* \"#utility.yul\":1042:1371   */\n    tag_35:\n        /* \"#utility.yul\":1101:1107   */\n      0x00\n        /* \"#utility.yul\":1150:1152   */\n      0x20\n        /* \"#utility.yul\":1138:1147   */\n      dup3\n        /* \"#utility.yul\":1129:1136   */\n      dup5\n        /* \"#utility.yul\":1125:1148   */\n      sub\n        /* \"#utility.yul\":1121:1153   */\n      slt\n        /* \"#utility.yul\":1118:1237   */\n      iszero\n      tag_386\n      jumpi\n        /* \"#utility.yul\":1156:1235   */\n      tag_387\n      tag_330\n      jump\t// in\n    tag_387:\n        /* \"#utility.yul\":1118:1237   */\n    tag_386:\n        /* \"#utility.yul\":1276:1277   */\n      0x00\n        /* \"#utility.yul\":1301:1354   */\n      tag_388\n        /* \"#utility.yul\":1346:1353   */\n      dup5\n        /* \"#utility.yul\":1337:1343   */\n      dup3\n        /* \"#utility.yul\":1326:1335   */\n      dup6\n        /* \"#utility.yul\":1322:1344   */\n      add\n        /* \"#utility.yul\":1301:1354   */\n      tag_333\n      jump\t// in\n    tag_388:\n        /* \"#utility.yul\":1291:1354   */\n      swap2\n      pop\n        /* \"#utility.yul\":1247:1364   */\n      pop\n        /* \"#utility.yul\":1042:1371   */\n      swap3\n      swap2\n      pop\n      pop\n      jump\t// out\n        /* \"#utility.yul\":1377:1503   */\n    tag_334:\n        /* \"#utility.yul\":1414:1421   */\n      0x00\n        /* \"#utility.yul\":1454:1496   */\n      0xffffffffffffffffffffffffffffffffffffffff\n        /* \"#utility.yul\":1447:1452   */\n      dup3\n        /* \"#utility.yul\":1443:1497   */\n      and\n        /* \"#utility.yul\":1432:1497   */\n      swap1\n      pop\n        /* \"#utility.yul\":1377:1503   */\n      swap2\n      swap1\n      pop\n      jump\t// out\n        /* \"#utility.yul\":1509:1605   */\n    tag_335:\n        /* \"#utility.yul\":1546:1553   */\n      0x00\n        /* \"#utility.yul\":1575:1599   */\n      tag_391\n        /* \"#utility.yul\":1593:1598   */\n      dup3\n        /* \"#utility.yul\":1575:1599   */\n      tag_334\n      jump\t// in\n    tag_391:\n        /* \"#utility.yul\":1564:1599   */\n      swap1\n      pop\n        /* \"#utility.yul\":1509:1605   */\n      swap2\n      swap1\n      pop\n      jump\t// out\n        /* \"#utility.yul\":1611:1729   */\n    tag_336:\n        /* \"#utility.yul\":1698:1722   */\n      tag_393\n        /* \"#utility.yul\":1716:1721   */\n      dup2\n        /* \"#utility.yul\":1698:1722   */\n      tag_335\n      jump\t// in\n    tag_393:\n        /* \"#utility.yul\":1693:1696   */\n      dup3\n        /* \"#utility.yul\":1686:1723   */\n      mstore\n        /* \"#utility.yul\":1611:1729   */\n      pop\n      pop\n      jump\t// out\n        /* \"#utility.yul\":1735:1957   */\n    tag_38:\n        /* \"#utility.yul\":1828:1832   */\n      0x00\n        /* \"#utility.yul\":1866:1868   */\n      0x20\n        /* \"#utility.yul\":1855:1864   */\n      dup3\n        /* \"#utility.yul\":1851:1869   */\n      add\n        /* \"#utility.yul\":1843:1869   */\n      swap1\n      pop\n        /* \"#utility.yul\":1879:1950   */\n      tag_395\n        /* \"#utility.yul\":1947:1948   */\n      0x00\n        /* \"#utility.yul\":1936:1945   */\n      dup4\n        /* \"#utility.yul\":1932:1949   */\n      add\n        /* \"#utility.yul\":1923:1929   */\n      dup5\n        /* \"#utility.yul\":1879:1950   */\n      tag_336\n      jump\t// in\n    tag_395:\n        /* \"#utility.yul\":1735:1957   */\n      swap3\n      swap2\n      pop\n      pop\n      jump\t// out\n        /* \"#utility.yul\":1963:2023   */\n    tag_337:\n        /* \"#utility.yul\":1991:1994   */\n      0x00\n        /* \"#utility.yul\":2012:2017   */\n      dup2\n        /* \"#utility.yul\":2005:2017   */\n      swap1\n      pop\n        /* \"#utility.yul\":1963:2023   */\n      swap2\n      swap1\n      pop\n      jump\t// out\n        /* \"#utility.yul\":2029:2171   */\n    tag_338:\n        /* \"#utility.yul\":2079:2088   */\n      0x00\n        /* \"#utility.yul\":2112:2165   */\n      tag_398\n        /* \"#utility.yul\":2130:2164   */\n      tag_399\n        /* \"#utility.yul\":2139:2163   */\n      tag_400\n        /* \"#utility.yul\":2157:2162   */\n      dup5\n        /* \"#utility.yul\":2139:2163   */\n      tag_334\n      jump\t// in\n    tag_400:\n        /* \"#utility.yul\":2130:2164   */\n      tag_337\n      jump\t// in\n    tag_399:\n        /* \"#utility.yul\":2112:2165   */\n      tag_334\n      jump\t// in\n    tag_398:\n        /* \"#utility.yul\":2099:2165   */\n      swap1\n      pop\n        /* \"#utility.yul\":2029:2171   */\n      swap2\n      swap1\n      pop\n      jump\t// out\n        /* \"#utility.yul\":2177:2303   */\n    tag_339:\n        /* \"#utility.yul\":2227:2236   */\n      0x00\n        /* \"#utility.yul\":2260:2297   */\n      tag_402\n        /* \"#utility.yul\":2291:2296   */\n      dup3\n        /* \"#utility.yul\":2260:2297   */\n      tag_338\n      jump\t// in\n    tag_402:\n        /* \"#utility.yul\":2247:2297   */\n      swap1\n      pop\n        /* \"#utility.yul\":2177:2303   */\n      swap2\n      swap1\n      pop\n      jump\t// out\n        /* \"#utility.yul\":2309:2454   */\n    tag_340:\n        /* \"#utility.yul\":2378:2387   */\n      0x00\n        /* \"#utility.yul\":2411:2448   */\n      tag_404\n        /* \"#utility.yul\":2442:2447   */\n      dup3\n        /* \"#utility.yul\":2411:2448   */\n      tag_339\n      jump\t// in\n    tag_404:\n        /* \"#utility.yul\":2398:2448   */\n      swap1\n      pop\n        /* \"#utility.yul\":2309:2454   */\n      swap2\n      swap1\n      pop\n      jump\t// out\n        /* \"#utility.yul\":2460:2629   */\n    tag_341:\n        /* \"#utility.yul\":2566:2622   */\n      tag_406\n        /* \"#utility.yul\":2616:2621   */\n      dup2\n        /* \"#utility.yul\":2566:2622   */\n      tag_340\n      jump\t// in\n    tag_406:\n        /* \"#utility.yul\":2561:2564   */\n      dup3\n        /* \"#utility.yul\":2554:2623   */\n      mstore\n        /* \"#utility.yul\":2460:2629   */\n      pop\n      pop\n      jump\t// out\n        /* \"#utility.yul\":2635:2895   */\n    tag_42:\n        /* \"#utility.yul\":2747:2751   */\n      0x00\n        /* \"#utility.yul\":2785:2787   */\n      0x20\n        /* \"#utility.yul\":2774:2783   */\n      dup3\n        /* \"#utility.yul\":2770:2788   */\n      add\n        /* \"#utility.yul\":2762:2788   */\n      swap1\n      pop\n        /* \"#utility.yul\":2798:2888   */\n      tag_408\n        /* \"#utility.yul\":2885:2886   */\n      0x00\n        /* \"#utility.yul\":2874:2883   */\n      dup4\n        /* \"#utility.yul\":2870:2887   */\n      add\n        /* \"#utility.yul\":2861:2867   */\n      dup5\n        /* \"#utility.yul\":2798:2888   */\n      tag_341\n      jump\t// in\n    tag_408:\n        /* \"#utility.yul\":2635:2895   */\n      swap3\n      swap2\n      pop\n      pop\n      jump\t// out\n        /* \"#utility.yul\":2901:3018   */\n    tag_342:\n        /* \"#utility.yul\":3010:3011   */\n      0x00\n        /* \"#utility.yul\":3007:3008   */\n      dup1\n        /* \"#utility.yul\":3000:3012   */\n      revert\n        /* \"#utility.yul\":3024:3141   */\n    tag_343:\n        /* \"#utility.yul\":3133:3134   */\n      0x00\n        /* \"#utility.yul\":3130:3131   */\n      dup1\n        /* \"#utility.yul\":3123:3135   */\n      revert\n        /* \"#utility.yul\":3147:3249   */\n    tag_344:\n        /* \"#utility.yul\":3188:3194   */\n      0x00\n        /* \"#utility.yul\":3239:3241   */\n      0x1f\n        /* \"#utility.yul\":3235:3242   */\n      not\n        /* \"#utility.yul\":3230:3232   */\n      0x1f\n        /* \"#utility.yul\":3223:3228   */\n      dup4\n        /* \"#utility.yul\":3219:3233   */\n      add\n        /* \"#utility.yul\":3215:3243   */\n      and\n        /* \"#utility.yul\":3205:3243   */\n      swap1\n      pop\n        /* \"#utility.yul\":3147:3249   */\n      swap2\n      swap1\n      pop\n      jump\t// out\n        /* \"#utility.yul\":3255:3435   */\n    tag_345:\n        /* \"#utility.yul\":3303:3380   */\n      0x4e487b7100000000000000000000000000000000000000000000000000000000\n        /* \"#utility.yul\":3300:3301   */\n      0x00\n        /* \"#utility.yul\":3293:3381   */\n      mstore\n        /* \"#utility.yul\":3400:3404   */\n      0x41\n        /* \"#utility.yul\":3397:3398   */\n      0x04\n        /* \"#utility.yul\":3390:3405   */\n      mstore\n        /* \"#utility.yul\":3424:3428   */\n      0x24\n        /* \"#utility.yul\":3421:3422   */\n      0x00\n        /* \"#utility.yul\":3414:3429   */\n      revert\n        /* \"#utility.yul\":3441:3722   */\n    tag_346:\n        /* \"#utility.yul\":3524:3551   */\n      tag_414\n        /* \"#utility.yul\":3546:3550   */\n      dup3\n        /* \"#utility.yul\":3524:3551   */\n      tag_344\n      jump\t// in\n    tag_414:\n        /* \"#utility.yul\":3516:3522   */\n      dup2\n        /* \"#utility.yul\":3512:3552   */\n      add\n        /* \"#utility.yul\":3654:3660   */\n      dup2\n        /* \"#utility.yul\":3642:3652   */\n      dup2\n        /* \"#utility.yul\":3639:3661   */\n      lt\n        /* \"#utility.yul\":3618:3636   */\n      0xffffffffffffffff\n        /* \"#utility.yul\":3606:3616   */\n      dup3\n        /* \"#utility.yul\":3603:3637   */\n      gt\n        /* \"#utility.yul\":3600:3662   */\n      or\n        /* \"#utility.yul\":3597:3685   */\n      iszero\n      tag_415\n      jumpi\n        /* \"#utility.yul\":3665:3683   */\n      tag_416\n      tag_345\n      jump\t// in\n    tag_416:\n        /* \"#utility.yul\":3597:3685   */\n    tag_415:\n        /* \"#utility.yul\":3705:3715   */\n      dup1\n        /* \"#utility.yul\":3701:3703   */\n      0x40\n        /* \"#utility.yul\":3694:3716   */\n      mstore\n        /* \"#utility.yul\":3484:3722   */\n      pop\n        /* \"#utility.yul\":3441:3722   */\n      pop\n      pop\n      jump\t// out\n        /* \"#utility.yul\":3728:3857   */\n    tag_347:\n        /* \"#utility.yul\":3762:3768   */\n      0x00\n        /* \"#utility.yul\":3789:3809   */\n      tag_418\n      tag_329\n      jump\t// in\n    tag_418:\n        /* \"#utility.yul\":3779:3809   */\n      swap1\n      pop\n        /* \"#utility.yul\":3818:3851   */\n      tag_419\n        /* \"#utility.yul\":3846:3850   */\n      dup3\n        /* \"#utility.yul\":3838:3844   */\n      dup3\n        /* \"#utility.yul\":3818:3851   */\n      tag_346\n      jump\t// in\n    tag_419:\n        /* \"#utility.yul\":3728:3857   */\n      swap2\n      swap1\n      pop\n      jump\t// out\n        /* \"#utility.yul\":3863:4171   */\n    tag_348:\n        /* \"#utility.yul\":3925:3929   */\n      0x00\n        /* \"#utility.yul\":4015:4033   */\n      0xffffffffffffffff\n        /* \"#utility.yul\":4007:4013   */\n      dup3\n        /* \"#utility.yul\":4004:4034   */\n      gt\n        /* \"#utility.yul\":4001:4057   */\n      iszero\n      tag_421\n      jumpi\n        /* \"#utility.yul\":4037:4055   */\n      tag_422\n      tag_345\n      jump\t// in\n    tag_422:\n        /* \"#utility.yul\":4001:4057   */\n    tag_421:\n        /* \"#utility.yul\":4075:4104   */\n      tag_423\n        /* \"#utility.yul\":4097:4103   */\n      dup3\n        /* \"#utility.yul\":4075:4104   */\n      tag_344\n      jump\t// in\n    tag_423:\n        /* \"#utility.yul\":4067:4104   */\n      swap1\n      pop\n        /* \"#utility.yul\":4159:4163   */\n      0x20\n        /* \"#utility.yul\":4153:4157   */\n      dup2\n        /* \"#utility.yul\":4149:4164   */\n      add\n        /* \"#utility.yul\":4141:4164   */\n      swap1\n      pop\n        /* \"#utility.yul\":3863:4171   */\n      swap2\n      swap1\n      pop\n      jump\t// out\n        /* \"#utility.yul\":4177:4331   */\n    tag_349:\n        /* \"#utility.yul\":4261:4267   */\n      dup3\n        /* \"#utility.yul\":4256:4259   */\n      dup2\n        /* \"#utility.yul\":4251:4254   */\n      dup4\n        /* \"#utility.yul\":4238:4268   */\n      calldatacopy\n        /* \"#utility.yul\":4323:4324   */\n      0x00\n        /* \"#utility.yul\":4314:4320   */\n      dup4\n        /* \"#utility.yul\":4309:4312   */\n      dup4\n        /* \"#utility.yul\":4305:4321   */\n      add\n        /* \"#utility.yul\":4298:4325   */\n      mstore\n        /* \"#utility.yul\":4177:4331   */\n      pop\n      pop\n      pop\n      jump\t// out\n        /* \"#utility.yul\":4337:4749   */\n    tag_350:\n        /* \"#utility.yul\":4415:4420   */\n      0x00\n        /* \"#utility.yul\":4440:4506   */\n      tag_426\n        /* \"#utility.yul\":4456:4505   */\n      tag_427\n        /* \"#utility.yul\":4498:4504   */\n      dup5\n        /* \"#utility.yul\":4456:4505   */\n      tag_348\n      jump\t// in\n    tag_427:\n        /* \"#utility.yul\":4440:4506   */\n      tag_347\n      jump\t// in\n    tag_426:\n        /* \"#utility.yul\":4431:4506   */\n      swap1\n      pop\n        /* \"#utility.yul\":4529:4535   */\n      dup3\n        /* \"#utility.yul\":4522:4527   */\n      dup2\n        /* \"#utility.yul\":4515:4536   */\n      mstore\n        /* \"#utility.yul\":4567:4571   */\n      0x20\n        /* \"#utility.yul\":4560:4565   */\n      dup2\n        /* \"#utility.yul\":4556:4572   */\n      add\n        /* \"#utility.yul\":4605:4608   */\n      dup5\n        /* \"#utility.yul\":4596:4602   */\n      dup5\n        /* \"#utility.yul\":4591:4594   */\n      dup5\n        /* \"#utility.yul\":4587:4603   */\n      add\n        /* \"#utility.yul\":4584:4609   */\n      gt\n        /* \"#utility.yul\":4581:4693   */\n      iszero\n      tag_428\n      jumpi\n        /* \"#utility.yul\":4612:4691   */\n      tag_429\n      tag_343\n      jump\t// in\n    tag_429:\n        /* \"#utility.yul\":4581:4693   */\n    tag_428:\n        /* \"#utility.yul\":4702:4743   */\n      tag_430\n        /* \"#utility.yul\":4736:4742   */\n      dup5\n        /* \"#utility.yul\":4731:4734   */\n      dup3\n        /* \"#utility.yul\":4726:4729   */\n      dup6\n        /* \"#utility.yul\":4702:4743   */\n      tag_349\n      jump\t// in\n    tag_430:\n        /* \"#utility.yul\":4421:4749   */\n      pop\n        /* \"#utility.yul\":4337:4749   */\n      swap4\n      swap3\n      pop\n      pop\n      pop\n      jump\t// out\n        /* \"#utility.yul\":4769:5109   */\n    tag_351:\n        /* \"#utility.yul\":4825:4830   */\n      0x00\n        /* \"#utility.yul\":4874:4877   */\n      dup3\n        /* \"#utility.yul\":4867:4871   */\n      0x1f\n        /* \"#utility.yul\":4859:4865   */\n      dup4\n        /* \"#utility.yul\":4855:4872   */\n      add\n        /* \"#utility.yul\":4851:4878   */\n      slt\n        /* \"#utility.yul\":4841:4963   */\n      tag_432\n      jumpi\n        /* \"#utility.yul\":4882:4961   */\n      tag_433\n      tag_342\n      jump\t// in\n    tag_433:\n        /* \"#utility.yul\":4841:4963   */\n    tag_432:\n        /* \"#utility.yul\":4999:5005   */\n      dup2\n        /* \"#utility.yul\":4986:5006   */\n      calldataload\n        /* \"#utility.yul\":5024:5103   */\n      tag_434\n        /* \"#utility.yul\":5099:5102   */\n      dup5\n        /* \"#utility.yul\":5091:5097   */\n      dup3\n        /* \"#utility.yul\":5084:5088   */\n      0x20\n        /* \"#utility.yul\":5076:5082   */\n      dup7\n        /* \"#utility.yul\":5072:5089   */\n      add\n        /* \"#utility.yul\":5024:5103   */\n      tag_350\n      jump\t// in\n    tag_434:\n        /* \"#utility.yul\":5015:5103   */\n      swap2\n      pop\n        /* \"#utility.yul\":4831:5109   */\n      pop\n        /* \"#utility.yul\":4769:5109   */\n      swap3\n      swap2\n      pop\n      pop\n      jump\t// out\n        /* \"#utility.yul\":5115:5624   */\n    tag_45:\n        /* \"#utility.yul\":5184:5190   */\n      0x00\n        /* \"#utility.yul\":5233:5235   */\n      0x20\n        /* \"#utility.yul\":5221:5230   */\n      dup3\n        /* \"#utility.yul\":5212:5219   */\n      dup5\n        /* \"#utility.yul\":5208:5231   */\n      sub\n        /* \"#utility.yul\":5204:5236   */\n      slt\n        /* \"#utility.yul\":5201:5320   */\n      iszero\n      tag_436\n      jumpi\n        /* \"#utility.yul\":5239:5318   */\n      tag_437\n      tag_330\n      jump\t// in\n    tag_437:\n        /* \"#utility.yul\":5201:5320   */\n    tag_436:\n        /* \"#utility.yul\":5387:5388   */\n      0x00\n        /* \"#utility.yul\":5376:5385   */\n      dup3\n        /* \"#utility.yul\":5372:5389   */\n      add\n        /* \"#utility.yul\":5359:5390   */\n      calldataload\n        /* \"#utility.yul\":5417:5435   */\n      0xffffffffffffffff\n        /* \"#utility.yul\":5409:5415   */\n      dup2\n        /* \"#utility.yul\":5406:5436   */\n      gt\n        /* \"#utility.yul\":5403:5520   */\n      iszero\n      tag_438\n      jumpi\n        /* \"#utility.yul\":5439:5518   */\n      tag_439\n      tag_331\n      jump\t// in\n    tag_439:\n        /* \"#utility.yul\":5403:5520   */\n    tag_438:\n        /* \"#utility.yul\":5544:5607   */\n      tag_440\n        /* \"#utility.yul\":5599:5606   */\n      dup5\n        /* \"#utility.yul\":5590:5596   */\n      dup3\n        /* \"#utility.yul\":5579:5588   */\n      dup6\n        /* \"#utility.yul\":5575:5597   */\n      add\n        /* \"#utility.yul\":5544:5607   */\n      tag_351\n      jump\t// in\n    tag_440:\n        /* \"#utility.yul\":5534:5607   */\n      swap2\n      pop\n        /* \"#utility.yul\":5330:5617   */\n      pop\n        /* \"#utility.yul\":5115:5624   */\n      swap3\n      swap2\n      pop\n      pop\n      jump\t// out\n        /* \"#utility.yul\":5630:6789   */\n    tag_49:\n        /* \"#utility.yul\":5737:5743   */\n      0x00\n        /* \"#utility.yul\":5745:5751   */\n      dup1\n        /* \"#utility.yul\":5753:5759   */\n      0x00\n        /* \"#utility.yul\":5802:5804   */\n      0x60\n        /* \"#utility.yul\":5790:5799   */\n      dup5\n        /* \"#utility.yul\":5781:5788   */\n      dup7\n        /* \"#utility.yul\":5777:5800   */\n      sub\n        /* \"#utility.yul\":5773:5805   */\n      slt\n        /* \"#utility.yul\":5770:5889   */\n      iszero\n      tag_442\n      jumpi\n        /* \"#utility.yul\":5808:5887   */\n      tag_443\n      tag_330\n      jump\t// in\n    tag_443:\n        /* \"#utility.yul\":5770:5889   */\n    tag_442:\n        /* \"#utility.yul\":5956:5957   */\n      0x00\n        /* \"#utility.yul\":5945:5954   */\n      dup5\n        /* \"#utility.yul\":5941:5958   */\n      add\n        /* \"#utility.yul\":5928:5959   */\n      calldataload\n        /* \"#utility.yul\":5986:6004   */\n      0xffffffffffffffff\n        /* \"#utility.yul\":5978:5984   */\n      dup2\n        /* \"#utility.yul\":5975:6005   */\n      gt\n        /* \"#utility.yul\":5972:6089   */\n      iszero\n      tag_444\n      jumpi\n        /* \"#utility.yul\":6008:6087   */\n      tag_445\n      tag_331\n      jump\t// in\n    tag_445:\n        /* \"#utility.yul\":5972:6089   */\n    tag_444:\n        /* \"#utility.yul\":6113:6176   */\n      tag_446\n        /* \"#utility.yul\":6168:6175   */\n      dup7\n        /* \"#utility.yul\":6159:6165   */\n      dup3\n        /* \"#utility.yul\":6148:6157   */\n      dup8\n        /* \"#utility.yul\":6144:6166   */\n      add\n        /* \"#utility.yul\":6113:6176   */\n      tag_351\n      jump\t// in\n    tag_446:\n        /* \"#utility.yul\":6103:6176   */\n      swap4\n      pop\n        /* \"#utility.yul\":5899:6186   */\n      pop\n        /* \"#utility.yul\":6253:6255   */\n      0x20\n        /* \"#utility.yul\":6242:6251   */\n      dup5\n        /* \"#utility.yul\":6238:6256   */\n      add\n        /* \"#utility.yul\":6225:6257   */\n      calldataload\n        /* \"#utility.yul\":6284:6302   */\n      0xffffffffffffffff\n        /* \"#utility.yul\":6276:6282   */\n      dup2\n        /* \"#utility.yul\":6273:6303   */\n      gt\n        /* \"#utility.yul\":6270:6387   */\n      iszero\n      tag_447\n      jumpi\n        /* \"#utility.yul\":6306:6385   */\n      tag_448\n      tag_331\n      jump\t// in\n    tag_448:\n        /* \"#utility.yul\":6270:6387   */\n    tag_447:\n        /* \"#utility.yul\":6411:6474   */\n      tag_449\n        /* \"#utility.yul\":6466:6473   */\n      dup7\n        /* \"#utility.yul\":6457:6463   */\n      dup3\n        /* \"#utility.yul\":6446:6455   */\n      dup8\n        /* \"#utility.yul\":6442:6464   */\n      add\n        /* \"#utility.yul\":6411:6474   */\n      tag_351\n      jump\t// in\n    tag_449:\n        /* \"#utility.yul\":6401:6474   */\n      swap3\n      pop\n        /* \"#utility.yul\":6196:6484   */\n      pop\n        /* \"#utility.yul\":6551:6553   */\n      0x40\n        /* \"#utility.yul\":6540:6549   */\n      dup5\n        /* \"#utility.yul\":6536:6554   */\n      add\n        /* \"#utility.yul\":6523:6555   */\n      calldataload\n        /* \"#utility.yul\":6582:6600   */\n      0xffffffffffffffff\n        /* \"#utility.yul\":6574:6580   */\n      dup2\n        /* \"#utility.yul\":6571:6601   */\n      gt\n        /* \"#utility.yul\":6568:6685   */\n      iszero\n      tag_450\n      jumpi\n        /* \"#utility.yul\":6604:6683   */\n      tag_451\n      tag_331\n      jump\t// in\n    tag_451:\n        /* \"#utility.yul\":6568:6685   */\n    tag_450:\n        /* \"#utility.yul\":6709:6772   */\n      tag_452\n        /* \"#utility.yul\":6764:6771   */\n      dup7\n        /* \"#utility.yul\":6755:6761   */\n      dup3\n        /* \"#utility.yul\":6744:6753   */\n      dup8\n        /* \"#utility.yul\":6740:6762   */\n      add\n        /* \"#utility.yul\":6709:6772   */\n      tag_351\n      jump\t// in\n    tag_452:\n        /* \"#utility.yul\":6699:6772   */\n      swap2\n      pop\n        /* \"#utility.yul\":6494:6782   */\n      pop\n        /* \"#utility.yul\":5630:6789   */\n      swap3\n      pop\n      swap3\n      pop\n      swap3\n      jump\t// out\n        /* \"#utility.yul\":6795:6894   */\n    tag_352:\n        /* \"#utility.yul\":6847:6853   */\n      0x00\n        /* \"#utility.yul\":6881:6886   */\n      dup2\n        /* \"#utility.yul\":6875:6887   */\n      mload\n        /* \"#utility.yul\":6865:6887   */\n      swap1\n      pop\n        /* \"#utility.yul\":6795:6894   */\n      swap2\n      swap1\n      pop\n      jump\t// out\n        /* \"#utility.yul\":6900:7069   */\n    tag_353:\n        /* \"#utility.yul\":6984:6995   */\n      0x00\n        /* \"#utility.yul\":7018:7024   */\n      dup3\n        /* \"#utility.yul\":7013:7016   */\n      dup3\n        /* \"#utility.yul\":7006:7025   */\n      mstore\n        /* \"#utility.yul\":7058:7062   */\n      0x20\n        /* \"#utility.yul\":7053:7056   */\n      dup3\n        /* \"#utility.yul\":7049:7063   */\n      add\n        /* \"#utility.yul\":7034:7063   */\n      swap1\n      pop\n        /* \"#utility.yul\":6900:7069   */\n      swap3\n      swap2\n      pop\n      pop\n      jump\t// out\n        /* \"#utility.yul\":7075:7382   */\n    tag_354:\n        /* \"#utility.yul\":7143:7144   */\n      0x00\n        /* \"#utility.yul\":7153:7266   */\n    tag_456:\n        /* \"#utility.yul\":7167:7173   */\n      dup4\n        /* \"#utility.yul\":7164:7165   */\n      dup2\n        /* \"#utility.yul\":7161:7174   */\n      lt\n        /* \"#utility.yul\":7153:7266   */\n      iszero\n      tag_458\n      jumpi\n        /* \"#utility.yul\":7252:7253   */\n      dup1\n        /* \"#utility.yul\":7247:7250   */\n      dup3\n        /* \"#utility.yul\":7243:7254   */\n      add\n        /* \"#utility.yul\":7237:7255   */\n      mload\n        /* \"#utility.yul\":7233:7234   */\n      dup2\n        /* \"#utility.yul\":7228:7231   */\n      dup5\n        /* \"#utility.yul\":7224:7235   */\n      add\n        /* \"#utility.yul\":7217:7256   */\n      mstore\n        /* \"#utility.yul\":7189:7191   */\n      0x20\n        /* \"#utility.yul\":7186:7187   */\n      dup2\n        /* \"#utility.yul\":7182:7192   */\n      add\n        /* \"#utility.yul\":7177:7192   */\n      swap1\n      pop\n        /* \"#utility.yul\":7153:7266   */\n      jump(tag_456)\n    tag_458:\n        /* \"#utility.yul\":7284:7290   */\n      dup4\n        /* \"#utility.yul\":7281:7282   */\n      dup2\n        /* \"#utility.yul\":7278:7291   */\n      gt\n        /* \"#utility.yul\":7275:7376   */\n      iszero\n      tag_459\n      jumpi\n        /* \"#utility.yul\":7364:7365   */\n      0x00\n        /* \"#utility.yul\":7355:7361   */\n      dup5\n        /* \"#utility.yul\":7350:7353   */\n      dup5\n        /* \"#utility.yul\":7346:7362   */\n      add\n        /* \"#utility.yul\":7339:7366   */\n      mstore\n        /* \"#utility.yul\":7275:7376   */\n    tag_459:\n        /* \"#utility.yul\":7124:7382   */\n      pop\n        /* \"#utility.yul\":7075:7382   */\n      pop\n      pop\n      pop\n      jump\t// out\n        /* \"#utility.yul\":7388:7752   */\n    tag_355:\n        /* \"#utility.yul\":7476:7479   */\n      0x00\n        /* \"#utility.yul\":7504:7543   */\n      tag_461\n        /* \"#utility.yul\":7537:7542   */\n      dup3\n        /* \"#utility.yul\":7504:7543   */\n      tag_352\n      jump\t// in\n    tag_461:\n        /* \"#utility.yul\":7559:7630   */\n      tag_462\n        /* \"#utility.yul\":7623:7629   */\n      dup2\n        /* \"#utility.yul\":7618:7621   */\n      dup6\n        /* \"#utility.yul\":7559:7630   */\n      tag_353\n      jump\t// in\n    tag_462:\n        /* \"#utility.yul\":7552:7630   */\n      swap4\n      pop\n        /* \"#utility.yul\":7639:7691   */\n      tag_463\n        /* \"#utility.yul\":7684:7690   */\n      dup2\n        /* \"#utility.yul\":7679:7682   */\n      dup6\n        /* \"#utility.yul\":7672:7676   */\n      0x20\n        /* \"#utility.yul\":7665:7670   */\n      dup7\n        /* \"#utility.yul\":7661:7677   */\n      add\n        /* \"#utility.yul\":7639:7691   */\n      tag_354\n      jump\t// in\n    tag_463:\n        /* \"#utility.yul\":7716:7745   */\n      tag_464\n        /* \"#utility.yul\":7738:7744   */\n      dup2\n        /* \"#utility.yul\":7716:7745   */\n      tag_344\n      jump\t// in\n    tag_464:\n        /* \"#utility.yul\":7711:7714   */\n      dup5\n        /* \"#utility.yul\":7707:7746   */\n      add\n        /* \"#utility.yul\":7700:7746   */\n      swap2\n      pop\n        /* \"#utility.yul\":7480:7752   */\n      pop\n        /* \"#utility.yul\":7388:7752   */\n      swap3\n      swap2\n      pop\n      pop\n      jump\t// out\n        /* \"#utility.yul\":7758:7848   */\n    tag_356:\n        /* \"#utility.yul\":7792:7799   */\n      0x00\n        /* \"#utility.yul\":7835:7840   */\n      dup2\n        /* \"#utility.yul\":7828:7841   */\n      iszero\n        /* \"#utility.yul\":7821:7842   */\n      iszero\n        /* \"#utility.yul\":7810:7842   */\n      swap1\n      pop\n        /* \"#utility.yul\":7758:7848   */\n      swap2\n      swap1\n      pop\n      jump\t// out\n        /* \"#utility.yul\":7854:7963   */\n    tag_357:\n        /* \"#utility.yul\":7935:7956   */\n      tag_467\n        /* \"#utility.yul\":7950:7955   */\n      dup2\n        /* \"#utility.yul\":7935:7956   */\n      tag_356\n      jump\t// in\n    tag_467:\n        /* \"#utility.yul\":7930:7933   */\n      dup3\n        /* \"#utility.yul\":7923:7957   */\n      mstore\n        /* \"#utility.yul\":7854:7963   */\n      pop\n      pop\n      jump\t// out\n        /* \"#utility.yul\":7969:8993   */\n    tag_55:\n        /* \"#utility.yul\":8250:8254   */\n      0x00\n        /* \"#utility.yul\":8288:8291   */\n      0xc0\n        /* \"#utility.yul\":8277:8286   */\n      dup3\n        /* \"#utility.yul\":8273:8292   */\n      add\n        /* \"#utility.yul\":8265:8292   */\n      swap1\n      pop\n        /* \"#utility.yul\":8338:8347   */\n      dup2\n        /* \"#utility.yul\":8332:8336   */\n      dup2\n        /* \"#utility.yul\":8328:8348   */\n      sub\n        /* \"#utility.yul\":8324:8325   */\n      0x00\n        /* \"#utility.yul\":8313:8322   */\n      dup4\n        /* \"#utility.yul\":8309:8326   */\n      add\n        /* \"#utility.yul\":8302:8349   */\n      mstore\n        /* \"#utility.yul\":8366:8444   */\n      tag_469\n        /* \"#utility.yul\":8439:8443   */\n      dup2\n        /* \"#utility.yul\":8430:8436   */\n      dup10\n        /* \"#utility.yul\":8366:8444   */\n      tag_355\n      jump\t// in\n    tag_469:\n        /* \"#utility.yul\":8358:8444   */\n      swap1\n      pop\n        /* \"#utility.yul\":8491:8500   */\n      dup2\n        /* \"#utility.yul\":8485:8489   */\n      dup2\n        /* \"#utility.yul\":8481:8501   */\n      sub\n        /* \"#utility.yul\":8476:8478   */\n      0x20\n        /* \"#utility.yul\":8465:8474   */\n      dup4\n        /* \"#utility.yul\":8461:8479   */\n      add\n        /* \"#utility.yul\":8454:8502   */\n      mstore\n        /* \"#utility.yul\":8519:8597   */\n      tag_470\n        /* \"#utility.yul\":8592:8596   */\n      dup2\n        /* \"#utility.yul\":8583:8589   */\n      dup9\n        /* \"#utility.yul\":8519:8597   */\n      tag_355\n      jump\t// in\n    tag_470:\n        /* \"#utility.yul\":8511:8597   */\n      swap1\n      pop\n        /* \"#utility.yul\":8607:8673   */\n      tag_471\n        /* \"#utility.yul\":8669:8671   */\n      0x40\n        /* \"#utility.yul\":8658:8667   */\n      dup4\n        /* \"#utility.yul\":8654:8672   */\n      add\n        /* \"#utility.yul\":8645:8651   */\n      dup8\n        /* \"#utility.yul\":8607:8673   */\n      tag_357\n      jump\t// in\n    tag_471:\n        /* \"#utility.yul\":8683:8755   */\n      tag_472\n        /* \"#utility.yul\":8751:8753   */\n      0x60\n        /* \"#utility.yul\":8740:8749   */\n      dup4\n        /* \"#utility.yul\":8736:8754   */\n      add\n        /* \"#utility.yul\":8727:8733   */\n      dup7\n        /* \"#utility.yul\":8683:8755   */\n      tag_336\n      jump\t// in\n    tag_472:\n        /* \"#utility.yul\":8803:8812   */\n      dup2\n        /* \"#utility.yul\":8797:8801   */\n      dup2\n        /* \"#utility.yul\":8793:8813   */\n      sub\n        /* \"#utility.yul\":8787:8790   */\n      0x80\n        /* \"#utility.yul\":8776:8785   */\n      dup4\n        /* \"#utility.yul\":8772:8791   */\n      add\n        /* \"#utility.yul\":8765:8814   */\n      mstore\n        /* \"#utility.yul\":8831:8909   */\n      tag_473\n        /* \"#utility.yul\":8904:8908   */\n      dup2\n        /* \"#utility.yul\":8895:8901   */\n      dup6\n        /* \"#utility.yul\":8831:8909   */\n      tag_355\n      jump\t// in\n    tag_473:\n        /* \"#utility.yul\":8823:8909   */\n      swap1\n      pop\n        /* \"#utility.yul\":8919:8986   */\n      tag_474\n        /* \"#utility.yul\":8981:8984   */\n      0xa0\n        /* \"#utility.yul\":8970:8979   */\n      dup4\n        /* \"#utility.yul\":8966:8985   */\n      add\n        /* \"#utility.yul\":8957:8963   */\n      dup5\n        /* \"#utility.yul\":8919:8986   */\n      tag_357\n      jump\t// in\n    tag_474:\n        /* \"#utility.yul\":7969:8993   */\n      swap8\n      swap7\n      pop\n      pop\n      pop\n      pop\n      pop\n      pop\n      pop\n      jump\t// out\n        /* \"#utility.yul\":8999:9121   */\n    tag_358:\n        /* \"#utility.yul\":9072:9096   */\n      tag_476\n        /* \"#utility.yul\":9090:9095   */\n      dup2\n        /* \"#utility.yul\":9072:9096   */\n      tag_335\n      jump\t// in\n    tag_476:\n        /* \"#utility.yul\":9065:9070   */\n      dup2\n        /* \"#utility.yul\":9062:9097   */\n      eq\n        /* \"#utility.yul\":9052:9115   */\n      tag_477\n      jumpi\n        /* \"#utility.yul\":9111:9112   */\n      0x00\n        /* \"#utility.yul\":9108:9109   */\n      dup1\n        /* \"#utility.yul\":9101:9113   */\n      revert\n        /* \"#utility.yul\":9052:9115   */\n    tag_477:\n        /* \"#utility.yul\":8999:9121   */\n      pop\n      jump\t// out\n        /* \"#utility.yul\":9127:9266   */\n    tag_359:\n        /* \"#utility.yul\":9173:9178   */\n      0x00\n        /* \"#utility.yul\":9211:9217   */\n      dup2\n        /* \"#utility.yul\":9198:9218   */\n      calldataload\n        /* \"#utility.yul\":9189:9218   */\n      swap1\n      pop\n        /* \"#utility.yul\":9227:9260   */\n      tag_479\n        /* \"#utility.yul\":9254:9259   */\n      dup2\n        /* \"#utility.yul\":9227:9260   */\n      tag_358\n      jump\t// in\n    tag_479:\n        /* \"#utility.yul\":9127:9266   */\n      swap3\n      swap2\n      pop\n      pop\n      jump\t// out\n        /* \"#utility.yul\":9272:9601   */\n    tag_61:\n        /* \"#utility.yul\":9331:9337   */\n      0x00\n        /* \"#utility.yul\":9380:9382   */\n      0x20\n        /* \"#utility.yul\":9368:9377   */\n      dup3\n        /* \"#utility.yul\":9359:9366   */\n      dup5\n        /* \"#utility.yul\":9355:9378   */\n      sub\n        /* \"#utility.yul\":9351:9383   */\n      slt\n        /* \"#utility.yul\":9348:9467   */\n      iszero\n      tag_481\n      jumpi\n        /* \"#utility.yul\":9386:9465   */\n      tag_482\n      tag_330\n      jump\t// in\n    tag_482:\n        /* \"#utility.yul\":9348:9467   */\n    tag_481:\n        /* \"#utility.yul\":9506:9507   */\n      0x00\n        /* \"#utility.yul\":9531:9584   */\n      tag_483\n        /* \"#utility.yul\":9576:9583   */\n      dup5\n        /* \"#utility.yul\":9567:9573   */\n      dup3\n        /* \"#utility.yul\":9556:9565   */\n      dup6\n        /* \"#utility.yul\":9552:9574   */\n      add\n        /* \"#utility.yul\":9531:9584   */\n      tag_359\n      jump\t// in\n    tag_483:\n        /* \"#utility.yul\":9521:9584   */\n      swap2\n      pop\n        /* \"#utility.yul\":9477:9594   */\n      pop\n        /* \"#utility.yul\":9272:9601   */\n      swap3\n      swap2\n      pop\n      pop\n      jump\t// out\n        /* \"#utility.yul\":9607:10586   */\n    tag_68:\n        /* \"#utility.yul\":9704:9710   */\n      0x00\n        /* \"#utility.yul\":9712:9718   */\n      dup1\n        /* \"#utility.yul\":9720:9726   */\n      0x00\n        /* \"#utility.yul\":9769:9771   */\n      0x60\n        /* \"#utility.yul\":9757:9766   */\n      dup5\n        /* \"#utility.yul\":9748:9755   */\n      dup7\n        /* \"#utility.yul\":9744:9767   */\n      sub\n        /* \"#utility.yul\":9740:9772   */\n      slt\n        /* \"#utility.yul\":9737:9856   */\n      iszero\n      tag_485\n      jumpi\n        /* \"#utility.yul\":9775:9854   */\n      tag_486\n      tag_330\n      jump\t// in\n    tag_486:\n        /* \"#utility.yul\":9737:9856   */\n    tag_485:\n        /* \"#utility.yul\":9923:9924   */\n      0x00\n        /* \"#utility.yul\":9912:9921   */\n      dup5\n        /* \"#utility.yul\":9908:9925   */\n      add\n        /* \"#utility.yul\":9895:9926   */\n      calldataload\n        /* \"#utility.yul\":9953:9971   */\n      0xffffffffffffffff\n        /* \"#utility.yul\":9945:9951   */\n      dup2\n        /* \"#utility.yul\":9942:9972   */\n      gt\n        /* \"#utility.yul\":9939:10056   */\n      iszero\n      tag_487\n      jumpi\n        /* \"#utility.yul\":9975:10054   */\n      tag_488\n      tag_331\n      jump\t// in\n    tag_488:\n        /* \"#utility.yul\":9939:10056   */\n    tag_487:\n        /* \"#utility.yul\":10080:10143   */\n      tag_489\n        /* \"#utility.yul\":10135:10142   */\n      dup7\n        /* \"#utility.yul\":10126:10132   */\n      dup3\n        /* \"#utility.yul\":10115:10124   */\n      dup8\n        /* \"#utility.yul\":10111:10133   */\n      add\n        /* \"#utility.yul\":10080:10143   */\n      tag_351\n      jump\t// in\n    tag_489:\n        /* \"#utility.yul\":10070:10143   */\n      swap4\n      pop\n        /* \"#utility.yul\":9866:10153   */\n      pop\n        /* \"#utility.yul\":10192:10194   */\n      0x20\n        /* \"#utility.yul\":10218:10271   */\n      tag_490\n        /* \"#utility.yul\":10263:10270   */\n      dup7\n        /* \"#utility.yul\":10254:10260   */\n      dup3\n        /* \"#utility.yul\":10243:10252   */\n      dup8\n        /* \"#utility.yul\":10239:10261   */\n      add\n        /* \"#utility.yul\":10218:10271   */\n      tag_359\n      jump\t// in\n    tag_490:\n        /* \"#utility.yul\":10208:10271   */\n      swap3\n      pop\n        /* \"#utility.yul\":10163:10281   */\n      pop\n        /* \"#utility.yul\":10348:10350   */\n      0x40\n        /* \"#utility.yul\":10337:10346   */\n      dup5\n        /* \"#utility.yul\":10333:10351   */\n      add\n        /* \"#utility.yul\":10320:10352   */\n      calldataload\n        /* \"#utility.yul\":10379:10397   */\n      0xffffffffffffffff\n        /* \"#utility.yul\":10371:10377   */\n      dup2\n        /* \"#utility.yul\":10368:10398   */\n      gt\n        /* \"#utility.yul\":10365:10482   */\n      iszero\n      tag_491\n      jumpi\n        /* \"#utility.yul\":10401:10480   */\n      tag_492\n      tag_331\n      jump\t// in\n    tag_492:\n        /* \"#utility.yul\":10365:10482   */\n    tag_491:\n        /* \"#utility.yul\":10506:10569   */\n      tag_493\n        /* \"#utility.yul\":10561:10568   */\n      dup7\n        /* \"#utility.yul\":10552:10558   */\n      dup3\n        /* \"#utility.yul\":10541:10550   */\n      dup8\n        /* \"#utility.yul\":10537:10559   */\n      add\n        /* \"#utility.yul\":10506:10569   */\n      tag_351\n      jump\t// in\n    tag_493:\n        /* \"#utility.yul\":10496:10569   */\n      swap2\n      pop\n        /* \"#utility.yul\":10291:10579   */\n      pop\n        /* \"#utility.yul\":9607:10586   */\n      swap3\n      pop\n      swap3\n      pop\n      swap3\n      jump\t// out\n        /* \"#utility.yul\":10592:11529   */\n    tag_81:\n        /* \"#utility.yul\":10857:10861   */\n      0x00\n        /* \"#utility.yul\":10895:10898   */\n      0xa0\n        /* \"#utility.yul\":10884:10893   */\n      dup3\n        /* \"#utility.yul\":10880:10899   */\n      add\n        /* \"#utility.yul\":10872:10899   */\n      swap1\n      pop\n        /* \"#utility.yul\":10909:10980   */\n      tag_495\n        /* \"#utility.yul\":10977:10978   */\n      0x00\n        /* \"#utility.yul\":10966:10975   */\n      dup4\n        /* \"#utility.yul\":10962:10979   */\n      add\n        /* \"#utility.yul\":10953:10959   */\n      dup9\n        /* \"#utility.yul\":10909:10980   */\n      tag_336\n      jump\t// in\n    tag_495:\n        /* \"#utility.yul\":11027:11036   */\n      dup2\n        /* \"#utility.yul\":11021:11025   */\n      dup2\n        /* \"#utility.yul\":11017:11037   */\n      sub\n        /* \"#utility.yul\":11012:11014   */\n      0x20\n        /* \"#utility.yul\":11001:11010   */\n      dup4\n        /* \"#utility.yul\":10997:11015   */\n      add\n        /* \"#utility.yul\":10990:11038   */\n      mstore\n        /* \"#utility.yul\":11055:11133   */\n      tag_496\n        /* \"#utility.yul\":11128:11132   */\n      dup2\n        /* \"#utility.yul\":11119:11125   */\n      dup8\n        /* \"#utility.yul\":11055:11133   */\n      tag_355\n      jump\t// in\n    tag_496:\n        /* \"#utility.yul\":11047:11133   */\n      swap1\n      pop\n        /* \"#utility.yul\":11180:11189   */\n      dup2\n        /* \"#utility.yul\":11174:11178   */\n      dup2\n        /* \"#utility.yul\":11170:11190   */\n      sub\n        /* \"#utility.yul\":11165:11167   */\n      0x40\n        /* \"#utility.yul\":11154:11163   */\n      dup4\n        /* \"#utility.yul\":11150:11168   */\n      add\n        /* \"#utility.yul\":11143:11191   */\n      mstore\n        /* \"#utility.yul\":11208:11286   */\n      tag_497\n        /* \"#utility.yul\":11281:11285   */\n      dup2\n        /* \"#utility.yul\":11272:11278   */\n      dup7\n        /* \"#utility.yul\":11208:11286   */\n      tag_355\n      jump\t// in\n    tag_497:\n        /* \"#utility.yul\":11200:11286   */\n      swap1\n      pop\n        /* \"#utility.yul\":11333:11342   */\n      dup2\n        /* \"#utility.yul\":11327:11331   */\n      dup2\n        /* \"#utility.yul\":11323:11343   */\n      sub\n        /* \"#utility.yul\":11318:11320   */\n      0x60\n        /* \"#utility.yul\":11307:11316   */\n      dup4\n        /* \"#utility.yul\":11303:11321   */\n      add\n        /* \"#utility.yul\":11296:11344   */\n      mstore\n        /* \"#utility.yul\":11361:11439   */\n      tag_498\n        /* \"#utility.yul\":11434:11438   */\n      dup2\n        /* \"#utility.yul\":11425:11431   */\n      dup6\n        /* \"#utility.yul\":11361:11439   */\n      tag_355\n      jump\t// in\n    tag_498:\n        /* \"#utility.yul\":11353:11439   */\n      swap1\n      pop\n        /* \"#utility.yul\":11449:11522   */\n      tag_499\n        /* \"#utility.yul\":11517:11520   */\n      0x80\n        /* \"#utility.yul\":11506:11515   */\n      dup4\n        /* \"#utility.yul\":11502:11521   */\n      add\n        /* \"#utility.yul\":11493:11499   */\n      dup5\n        /* \"#utility.yul\":11449:11522   */\n      tag_328\n      jump\t// in\n    tag_499:\n        /* \"#utility.yul\":10592:11529   */\n      swap7\n      swap6\n      pop\n      pop\n      pop\n      pop\n      pop\n      pop\n      jump\t// out\n        /* \"#utility.yul\":11535:12761   */\n    tag_86:\n        /* \"#utility.yul\":11864:11868   */\n      0x00\n        /* \"#utility.yul\":11902:11905   */\n      0xe0\n        /* \"#utility.yul\":11891:11900   */\n      dup3\n        /* \"#utility.yul\":11887:11906   */\n      add\n        /* \"#utility.yul\":11879:11906   */\n      swap1\n      pop\n        /* \"#utility.yul\":11952:11961   */\n      dup2\n        /* \"#utility.yul\":11946:11950   */\n      dup2\n        /* \"#utility.yul\":11942:11962   */\n      sub\n        /* \"#utility.yul\":11938:11939   */\n      0x00\n        /* \"#utility.yul\":11927:11936   */\n      dup4\n        /* \"#utility.yul\":11923:11940   */\n      add\n        /* \"#utility.yul\":11916:11963   */\n      mstore\n        /* \"#utility.yul\":11980:12058   */\n      tag_501\n        /* \"#utility.yul\":12053:12057   */\n      dup2\n        /* \"#utility.yul\":12044:12050   */\n      dup11\n        /* \"#utility.yul\":11980:12058   */\n      tag_355\n      jump\t// in\n    tag_501:\n        /* \"#utility.yul\":11972:12058   */\n      swap1\n      pop\n        /* \"#utility.yul\":12068:12140   */\n      tag_502\n        /* \"#utility.yul\":12136:12138   */\n      0x20\n        /* \"#utility.yul\":12125:12134   */\n      dup4\n        /* \"#utility.yul\":12121:12139   */\n      add\n        /* \"#utility.yul\":12112:12118   */\n      dup10\n        /* \"#utility.yul\":12068:12140   */\n      tag_336\n      jump\t// in\n    tag_502:\n        /* \"#utility.yul\":12187:12196   */\n      dup2\n        /* \"#utility.yul\":12181:12185   */\n      dup2\n        /* \"#utility.yul\":12177:12197   */\n      sub\n        /* \"#utility.yul\":12172:12174   */\n      0x40\n        /* \"#utility.yul\":12161:12170   */\n      dup4\n        /* \"#utility.yul\":12157:12175   */\n      add\n        /* \"#utility.yul\":12150:12198   */\n      mstore\n        /* \"#utility.yul\":12215:12293   */\n      tag_503\n        /* \"#utility.yul\":12288:12292   */\n      dup2\n        /* \"#utility.yul\":12279:12285   */\n      dup9\n        /* \"#utility.yul\":12215:12293   */\n      tag_355\n      jump\t// in\n    tag_503:\n        /* \"#utility.yul\":12207:12293   */\n      swap1\n      pop\n        /* \"#utility.yul\":12340:12349   */\n      dup2\n        /* \"#utility.yul\":12334:12338   */\n      dup2\n        /* \"#utility.yul\":12330:12350   */\n      sub\n        /* \"#utility.yul\":12325:12327   */\n      0x60\n        /* \"#utility.yul\":12314:12323   */\n      dup4\n        /* \"#utility.yul\":12310:12328   */\n      add\n        /* \"#utility.yul\":12303:12351   */\n      mstore\n        /* \"#utility.yul\":12368:12446   */\n      tag_504\n        /* \"#utility.yul\":12441:12445   */\n      dup2\n        /* \"#utility.yul\":12432:12438   */\n      dup8\n        /* \"#utility.yul\":12368:12446   */\n      tag_355\n      jump\t// in\n    tag_504:\n        /* \"#utility.yul\":12360:12446   */\n      swap1\n      pop\n        /* \"#utility.yul\":12456:12523   */\n      tag_505\n        /* \"#utility.yul\":12518:12521   */\n      0x80\n        /* \"#utility.yul\":12507:12516   */\n      dup4\n        /* \"#utility.yul\":12503:12522   */\n      add\n        /* \"#utility.yul\":12494:12500   */\n      dup7\n        /* \"#utility.yul\":12456:12523   */\n      tag_357\n      jump\t// in\n    tag_505:\n        /* \"#utility.yul\":12571:12580   */\n      dup2\n        /* \"#utility.yul\":12565:12569   */\n      dup2\n        /* \"#utility.yul\":12561:12581   */\n      sub\n        /* \"#utility.yul\":12555:12558   */\n      0xa0\n        /* \"#utility.yul\":12544:12553   */\n      dup4\n        /* \"#utility.yul\":12540:12559   */\n      add\n        /* \"#utility.yul\":12533:12582   */\n      mstore\n        /* \"#utility.yul\":12599:12677   */\n      tag_506\n        /* \"#utility.yul\":12672:12676   */\n      dup2\n        /* \"#utility.yul\":12663:12669   */\n      dup6\n        /* \"#utility.yul\":12599:12677   */\n      tag_355\n      jump\t// in\n    tag_506:\n        /* \"#utility.yul\":12591:12677   */\n      swap1\n      pop\n        /* \"#utility.yul\":12687:12754   */\n      tag_507\n        /* \"#utility.yul\":12749:12752   */\n      0xc0\n        /* \"#utility.yul\":12738:12747   */\n      dup4\n        /* \"#utility.yul\":12734:12753   */\n      add\n        /* \"#utility.yul\":12725:12731   */\n      dup5\n        /* \"#utility.yul\":12687:12754   */\n      tag_357\n      jump\t// in\n    tag_507:\n        /* \"#utility.yul\":11535:12761   */\n      swap9\n      swap8\n      pop\n      pop\n      pop\n      pop\n      pop\n      pop\n      pop\n      pop\n      jump\t// out\n        /* \"#utility.yul\":12767:12912   */\n    tag_360:\n        /* \"#utility.yul\":12836:12845   */\n      0x00\n        /* \"#utility.yul\":12869:12906   */\n      tag_509\n        /* \"#utility.yul\":12900:12905   */\n      dup3\n        /* \"#utility.yul\":12869:12906   */\n      tag_339\n      jump\t// in\n    tag_509:\n        /* \"#utility.yul\":12856:12906   */\n      swap1\n      pop\n        /* \"#utility.yul\":12767:12912   */\n      swap2\n      swap1\n      pop\n      jump\t// out\n        /* \"#utility.yul\":12918:13087   */\n    tag_361:\n        /* \"#utility.yul\":13024:13080   */\n      tag_511\n        /* \"#utility.yul\":13074:13079   */\n      dup2\n        /* \"#utility.yul\":13024:13080   */\n      tag_360\n      jump\t// in\n    tag_511:\n        /* \"#utility.yul\":13019:13022   */\n      dup3\n        /* \"#utility.yul\":13012:13081   */\n      mstore\n        /* \"#utility.yul\":12918:13087   */\n      pop\n      pop\n      jump\t// out\n        /* \"#utility.yul\":13093:13353   */\n    tag_90:\n        /* \"#utility.yul\":13205:13209   */\n      0x00\n        /* \"#utility.yul\":13243:13245   */\n      0x20\n        /* \"#utility.yul\":13232:13241   */\n      dup3\n        /* \"#utility.yul\":13228:13246   */\n      add\n        /* \"#utility.yul\":13220:13246   */\n      swap1\n      pop\n        /* \"#utility.yul\":13256:13346   */\n      tag_513\n        /* \"#utility.yul\":13343:13344   */\n      0x00\n        /* \"#utility.yul\":13332:13341   */\n      dup4\n        /* \"#utility.yul\":13328:13345   */\n      add\n        /* \"#utility.yul\":13319:13325   */\n      dup5\n        /* \"#utility.yul\":13256:13346   */\n      tag_361\n      jump\t// in\n    tag_513:\n        /* \"#utility.yul\":13093:13353   */\n      swap3\n      swap2\n      pop\n      pop\n      jump\t// out\n        /* \"#utility.yul\":13359:14193   */\n    tag_102:\n        /* \"#utility.yul\":13447:13453   */\n      0x00\n        /* \"#utility.yul\":13455:13461   */\n      dup1\n        /* \"#utility.yul\":13504:13506   */\n      0x40\n        /* \"#utility.yul\":13492:13501   */\n      dup4\n        /* \"#utility.yul\":13483:13490   */\n      dup6\n        /* \"#utility.yul\":13479:13502   */\n      sub\n        /* \"#utility.yul\":13475:13507   */\n      slt\n        /* \"#utility.yul\":13472:13591   */\n      iszero\n      tag_515\n      jumpi\n        /* \"#utility.yul\":13510:13589   */\n      tag_516\n      tag_330\n      jump\t// in\n    tag_516:\n        /* \"#utility.yul\":13472:13591   */\n    tag_515:\n        /* \"#utility.yul\":13658:13659   */\n      0x00\n        /* \"#utility.yul\":13647:13656   */\n      dup4\n        /* \"#utility.yul\":13643:13660   */\n      add\n        /* \"#utility.yul\":13630:13661   */\n      calldataload\n        /* \"#utility.yul\":13688:13706   */\n      0xffffffffffffffff\n        /* \"#utility.yul\":13680:13686   */\n      dup2\n        /* \"#utility.yul\":13677:13707   */\n      gt\n        /* \"#utility.yul\":13674:13791   */\n      iszero\n      tag_517\n      jumpi\n        /* \"#utility.yul\":13710:13789   */\n      tag_518\n      tag_331\n      jump\t// in\n    tag_518:\n        /* \"#utility.yul\":13674:13791   */\n    tag_517:\n        /* \"#utility.yul\":13815:13878   */\n      tag_519\n        /* \"#utility.yul\":13870:13877   */\n      dup6\n        /* \"#utility.yul\":13861:13867   */\n      dup3\n        /* \"#utility.yul\":13850:13859   */\n      dup7\n        /* \"#utility.yul\":13846:13868   */\n      add\n        /* \"#utility.yul\":13815:13878   */\n      tag_351\n      jump\t// in\n    tag_519:\n        /* \"#utility.yul\":13805:13878   */\n      swap3\n      pop\n        /* \"#utility.yul\":13601:13888   */\n      pop\n        /* \"#utility.yul\":13955:13957   */\n      0x20\n        /* \"#utility.yul\":13944:13953   */\n      dup4\n        /* \"#utility.yul\":13940:13958   */\n      add\n        /* \"#utility.yul\":13927:13959   */\n      calldataload\n        /* \"#utility.yul\":13986:14004   */\n      0xffffffffffffffff\n        /* \"#utility.yul\":13978:13984   */\n      dup2\n        /* \"#utility.yul\":13975:14005   */\n      gt\n        /* \"#utility.yul\":13972:14089   */\n      iszero\n      tag_520\n      jumpi\n        /* \"#utility.yul\":14008:14087   */\n      tag_521\n      tag_331\n      jump\t// in\n    tag_521:\n        /* \"#utility.yul\":13972:14089   */\n    tag_520:\n        /* \"#utility.yul\":14113:14176   */\n      tag_522\n        /* \"#utility.yul\":14168:14175   */\n      dup6\n        /* \"#utility.yul\":14159:14165   */\n      dup3\n        /* \"#utility.yul\":14148:14157   */\n      dup7\n        /* \"#utility.yul\":14144:14166   */\n      add\n        /* \"#utility.yul\":14113:14176   */\n      tag_351\n      jump\t// in\n    tag_522:\n        /* \"#utility.yul\":14103:14176   */\n      swap2\n      pop\n        /* \"#utility.yul\":13898:14186   */\n      pop\n        /* \"#utility.yul\":13359:14193   */\n      swap3\n      pop\n      swap3\n      swap1\n      pop\n      jump\t// out\n        /* \"#utility.yul\":14199:15830   */\n    tag_106:\n        /* \"#utility.yul\":14334:14340   */\n      0x00\n        /* \"#utility.yul\":14342:14348   */\n      dup1\n        /* \"#utility.yul\":14350:14356   */\n      0x00\n        /* \"#utility.yul\":14358:14364   */\n      dup1\n        /* \"#utility.yul\":14366:14372   */\n      0x00\n        /* \"#utility.yul\":14415:14418   */\n      0xa0\n        /* \"#utility.yul\":14403:14412   */\n      dup7\n        /* \"#utility.yul\":14394:14401   */\n      dup9\n        /* \"#utility.yul\":14390:14413   */\n      sub\n        /* \"#utility.yul\":14386:14419   */\n      slt\n        /* \"#utility.yul\":14383:14503   */\n      iszero\n      tag_524\n      jumpi\n        /* \"#utility.yul\":14422:14501   */\n      tag_525\n      tag_330\n      jump\t// in\n    tag_525:\n        /* \"#utility.yul\":14383:14503   */\n    tag_524:\n        /* \"#utility.yul\":14570:14571   */\n      0x00\n        /* \"#utility.yul\":14559:14568   */\n      dup7\n        /* \"#utility.yul\":14555:14572   */\n      add\n        /* \"#utility.yul\":14542:14573   */\n      calldataload\n        /* \"#utility.yul\":14600:14618   */\n      0xffffffffffffffff\n        /* \"#utility.yul\":14592:14598   */\n      dup2\n        /* \"#utility.yul\":14589:14619   */\n      gt\n        /* \"#utility.yul\":14586:14703   */\n      iszero\n      tag_526\n      jumpi\n        /* \"#utility.yul\":14622:14701   */\n      tag_527\n      tag_331\n      jump\t// in\n    tag_527:\n        /* \"#utility.yul\":14586:14703   */\n    tag_526:\n        /* \"#utility.yul\":14727:14790   */\n      tag_528\n        /* \"#utility.yul\":14782:14789   */\n      dup9\n        /* \"#utility.yul\":14773:14779   */\n      dup3\n        /* \"#utility.yul\":14762:14771   */\n      dup10\n        /* \"#utility.yul\":14758:14780   */\n      add\n        /* \"#utility.yul\":14727:14790   */\n      tag_351\n      jump\t// in\n    tag_528:\n        /* \"#utility.yul\":14717:14790   */\n      swap6\n      pop\n        /* \"#utility.yul\":14513:14800   */\n      pop\n        /* \"#utility.yul\":14839:14841   */\n      0x20\n        /* \"#utility.yul\":14865:14918   */\n      tag_529\n        /* \"#utility.yul\":14910:14917   */\n      dup9\n        /* \"#utility.yul\":14901:14907   */\n      dup3\n        /* \"#utility.yul\":14890:14899   */\n      dup10\n        /* \"#utility.yul\":14886:14908   */\n      add\n        /* \"#utility.yul\":14865:14918   */\n      tag_359\n      jump\t// in\n    tag_529:\n        /* \"#utility.yul\":14855:14918   */\n      swap5\n      pop\n        /* \"#utility.yul\":14810:14928   */\n      pop\n        /* \"#utility.yul\":14995:14997   */\n      0x40\n        /* \"#utility.yul\":14984:14993   */\n      dup7\n        /* \"#utility.yul\":14980:14998   */\n      add\n        /* \"#utility.yul\":14967:14999   */\n      calldataload\n        /* \"#utility.yul\":15026:15044   */\n      0xffffffffffffffff\n        /* \"#utility.yul\":15018:15024   */\n      dup2\n        /* \"#utility.yul\":15015:15045   */\n      gt\n        /* \"#utility.yul\":15012:15129   */\n      iszero\n      tag_530\n      jumpi\n        /* \"#utility.yul\":15048:15127   */\n      tag_531\n      tag_331\n      jump\t// in\n    tag_531:\n        /* \"#utility.yul\":15012:15129   */\n    tag_530:\n        /* \"#utility.yul\":15153:15216   */\n      tag_532\n        /* \"#utility.yul\":15208:15215   */\n      dup9\n        /* \"#utility.yul\":15199:15205   */\n      dup3\n        /* \"#utility.yul\":15188:15197   */\n      dup10\n        /* \"#utility.yul\":15184:15206   */\n      add\n        /* \"#utility.yul\":15153:15216   */\n      tag_351\n      jump\t// in\n    tag_532:\n        /* \"#utility.yul\":15143:15216   */\n      swap4\n      pop\n        /* \"#utility.yul\":14938:15226   */\n      pop\n        /* \"#utility.yul\":15293:15295   */\n      0x60\n        /* \"#utility.yul\":15282:15291   */\n      dup7\n        /* \"#utility.yul\":15278:15296   */\n      add\n        /* \"#utility.yul\":15265:15297   */\n      calldataload\n        /* \"#utility.yul\":15324:15342   */\n      0xffffffffffffffff\n        /* \"#utility.yul\":15316:15322   */\n      dup2\n        /* \"#utility.yul\":15313:15343   */\n      gt\n        /* \"#utility.yul\":15310:15427   */\n      iszero\n      tag_533\n      jumpi\n        /* \"#utility.yul\":15346:15425   */\n      tag_534\n      tag_331\n      jump\t// in\n    tag_534:\n        /* \"#utility.yul\":15310:15427   */\n    tag_533:\n        /* \"#utility.yul\":15451:15514   */\n      tag_535\n        /* \"#utility.yul\":15506:15513   */\n      dup9\n        /* \"#utility.yul\":15497:15503   */\n      dup3\n        /* \"#utility.yul\":15486:15495   */\n      dup10\n        /* \"#utility.yul\":15482:15504   */\n      add\n        /* \"#utility.yul\":15451:15514   */\n      tag_351\n      jump\t// in\n    tag_535:\n        /* \"#utility.yul\":15441:15514   */\n      swap3\n      pop\n        /* \"#utility.yul\":15236:15524   */\n      pop\n        /* \"#utility.yul\":15591:15594   */\n      0x80\n        /* \"#utility.yul\":15580:15589   */\n      dup7\n        /* \"#utility.yul\":15576:15595   */\n      add\n        /* \"#utility.yul\":15563:15596   */\n      calldataload\n        /* \"#utility.yul\":15623:15641   */\n      0xffffffffffffffff\n        /* \"#utility.yul\":15615:15621   */\n      dup2\n        /* \"#utility.yul\":15612:15642   */\n      gt\n        /* \"#utility.yul\":15609:15726   */\n      iszero\n      tag_536\n      jumpi\n        /* \"#utility.yul\":15645:15724   */\n      tag_537\n      tag_331\n      jump\t// in\n    tag_537:\n        /* \"#utility.yul\":15609:15726   */\n    tag_536:\n        /* \"#utility.yul\":15750:15813   */\n      tag_538\n        /* \"#utility.yul\":15805:15812   */\n      dup9\n        /* \"#utility.yul\":15796:15802   */\n      dup3\n        /* \"#utility.yul\":15785:15794   */\n      dup10\n        /* \"#utility.yul\":15781:15803   */\n      add\n        /* \"#utility.yul\":15750:15813   */\n      tag_351\n      jump\t// in\n    tag_538:\n        /* \"#utility.yul\":15740:15813   */\n      swap2\n      pop\n        /* \"#utility.yul\":15534:15823   */\n      pop\n        /* \"#utility.yul\":14199:15830   */\n      swap3\n      swap6\n      pop\n      swap3\n      swap6\n      swap1\n      swap4\n      pop\n      jump\t// out\n        /* \"#utility.yul\":15836:16658   */\n    tag_115:\n        /* \"#utility.yul\":16069:16073   */\n      0x00\n        /* \"#utility.yul\":16107:16110   */\n      0xa0\n        /* \"#utility.yul\":16096:16105   */\n      dup3\n        /* \"#utility.yul\":16092:16111   */\n      add\n        /* \"#utility.yul\":16084:16111   */\n      swap1\n      pop\n        /* \"#utility.yul\":16157:16166   */\n      dup2\n        /* \"#utility.yul\":16151:16155   */\n      dup2\n        /* \"#utility.yul\":16147:16167   */\n      sub\n        /* \"#utility.yul\":16143:16144   */\n      0x00\n        /* \"#utility.yul\":16132:16141   */\n      dup4\n        /* \"#utility.yul\":16128:16145   */\n      add\n        /* \"#utility.yul\":16121:16168   */\n      mstore\n        /* \"#utility.yul\":16185:16263   */\n      tag_540\n        /* \"#utility.yul\":16258:16262   */\n      dup2\n        /* \"#utility.yul\":16249:16255   */\n      dup9\n        /* \"#utility.yul\":16185:16263   */\n      tag_355\n      jump\t// in\n    tag_540:\n        /* \"#utility.yul\":16177:16263   */\n      swap1\n      pop\n        /* \"#utility.yul\":16273:16345   */\n      tag_541\n        /* \"#utility.yul\":16341:16343   */\n      0x20\n        /* \"#utility.yul\":16330:16339   */\n      dup4\n        /* \"#utility.yul\":16326:16344   */\n      add\n        /* \"#utility.yul\":16317:16323   */\n      dup8\n        /* \"#utility.yul\":16273:16345   */\n      tag_336\n      jump\t// in\n    tag_541:\n        /* \"#utility.yul\":16392:16401   */\n      dup2\n        /* \"#utility.yul\":16386:16390   */\n      dup2\n        /* \"#utility.yul\":16382:16402   */\n      sub\n        /* \"#utility.yul\":16377:16379   */\n      0x40\n        /* \"#utility.yul\":16366:16375   */\n      dup4\n        /* \"#utility.yul\":16362:16380   */\n      add\n        /* \"#utility.yul\":16355:16403   */\n      mstore\n        /* \"#utility.yul\":16420:16498   */\n      tag_542\n        /* \"#utility.yul\":16493:16497   */\n      dup2\n        /* \"#utility.yul\":16484:16490   */\n      dup7\n        /* \"#utility.yul\":16420:16498   */\n      tag_355\n      jump\t// in\n    tag_542:\n        /* \"#utility.yul\":16412:16498   */\n      swap1\n      pop\n        /* \"#utility.yul\":16508:16574   */\n      tag_543\n        /* \"#utility.yul\":16570:16572   */\n      0x60\n        /* \"#utility.yul\":16559:16568   */\n      dup4\n        /* \"#utility.yul\":16555:16573   */\n      add\n        /* \"#utility.yul\":16546:16552   */\n      dup6\n        /* \"#utility.yul\":16508:16574   */\n      tag_357\n      jump\t// in\n    tag_543:\n        /* \"#utility.yul\":16584:16651   */\n      tag_544\n        /* \"#utility.yul\":16646:16649   */\n      0x80\n        /* \"#utility.yul\":16635:16644   */\n      dup4\n        /* \"#utility.yul\":16631:16650   */\n      add\n        /* \"#utility.yul\":16622:16628   */\n      dup5\n        /* \"#utility.yul\":16584:16651   */\n      tag_357\n      jump\t// in\n    tag_544:\n        /* \"#utility.yul\":15836:16658   */\n      swap7\n      swap6\n      pop\n      pop\n      pop\n      pop\n      pop\n      pop\n      jump\t// out\n        /* \"#utility.yul\":16664:16831   */\n    tag_362:\n        /* \"#utility.yul\":16804:16823   */\n      0x4e6f742053747564656e74206572726f72000000000000000000000000000000\n        /* \"#utility.yul\":16800:16801   */\n      0x00\n        /* \"#utility.yul\":16792:16798   */\n      dup3\n        /* \"#utility.yul\":16788:16802   */\n      add\n        /* \"#utility.yul\":16781:16824   */\n      mstore\n        /* \"#utility.yul\":16664:16831   */\n      pop\n      jump\t// out\n        /* \"#utility.yul\":16837:17203   */\n    tag_363:\n        /* \"#utility.yul\":16979:16982   */\n      0x00\n        /* \"#utility.yul\":17000:17067   */\n      tag_547\n        /* \"#utility.yul\":17064:17066   */\n      0x11\n        /* \"#utility.yul\":17059:17062   */\n      dup4\n        /* \"#utility.yul\":17000:17067   */\n      tag_353\n      jump\t// in\n    tag_547:\n        /* \"#utility.yul\":16993:17067   */\n      swap2\n      pop\n        /* \"#utility.yul\":17076:17169   */\n      tag_548\n        /* \"#utility.yul\":17165:17168   */\n      dup3\n        /* \"#utility.yul\":17076:17169   */\n      tag_362\n      jump\t// in\n    tag_548:\n        /* \"#utility.yul\":17194:17196   */\n      0x20\n        /* \"#utility.yul\":17189:17192   */\n      dup3\n        /* \"#utility.yul\":17185:17197   */\n      add\n        /* \"#utility.yul\":17178:17197   */\n      swap1\n      pop\n        /* \"#utility.yul\":16837:17203   */\n      swap2\n      swap1\n      pop\n      jump\t// out\n        /* \"#utility.yul\":17209:17628   */\n    tag_122:\n        /* \"#utility.yul\":17375:17379   */\n      0x00\n        /* \"#utility.yul\":17413:17415   */\n      0x20\n        /* \"#utility.yul\":17402:17411   */\n      dup3\n        /* \"#utility.yul\":17398:17416   */\n      add\n        /* \"#utility.yul\":17390:17416   */\n      swap1\n      pop\n        /* \"#utility.yul\":17462:17471   */\n      dup2\n        /* \"#utility.yul\":17456:17460   */\n      dup2\n        /* \"#utility.yul\":17452:17472   */\n      sub\n        /* \"#utility.yul\":17448:17449   */\n      0x00\n        /* \"#utility.yul\":17437:17446   */\n      dup4\n        /* \"#utility.yul\":17433:17450   */\n      add\n        /* \"#utility.yul\":17426:17473   */\n      mstore\n        /* \"#utility.yul\":17490:17621   */\n      tag_550\n        /* \"#utility.yul\":17616:17620   */\n      dup2\n        /* \"#utility.yul\":17490:17621   */\n      tag_363\n      jump\t// in\n    tag_550:\n        /* \"#utility.yul\":17482:17621   */\n      swap1\n      pop\n        /* \"#utility.yul\":17209:17628   */\n      swap2\n      swap1\n      pop\n      jump\t// out\n        /* \"#utility.yul\":17634:17782   */\n    tag_364:\n        /* \"#utility.yul\":17736:17747   */\n      0x00\n        /* \"#utility.yul\":17773:17776   */\n      dup2\n        /* \"#utility.yul\":17758:17776   */\n      swap1\n      pop\n        /* \"#utility.yul\":17634:17782   */\n      swap3\n      swap2\n      pop\n      pop\n      jump\t// out\n        /* \"#utility.yul\":17788:18165   */\n    tag_365:\n        /* \"#utility.yul\":17894:17897   */\n      0x00\n        /* \"#utility.yul\":17922:17961   */\n      tag_553\n        /* \"#utility.yul\":17955:17960   */\n      dup3\n        /* \"#utility.yul\":17922:17961   */\n      tag_352\n      jump\t// in\n    tag_553:\n        /* \"#utility.yul\":17977:18066   */\n      tag_554\n        /* \"#utility.yul\":18059:18065   */\n      dup2\n        /* \"#utility.yul\":18054:18057   */\n      dup6\n        /* \"#utility.yul\":17977:18066   */\n      tag_364\n      jump\t// in\n    tag_554:\n        /* \"#utility.yul\":17970:18066   */\n      swap4\n      pop\n        /* \"#utility.yul\":18075:18127   */\n      tag_555\n        /* \"#utility.yul\":18120:18126   */\n      dup2\n        /* \"#utility.yul\":18115:18118   */\n      dup6\n        /* \"#utility.yul\":18108:18112   */\n      0x20\n        /* \"#utility.yul\":18101:18106   */\n      dup7\n        /* \"#utility.yul\":18097:18113   */\n      add\n        /* \"#utility.yul\":18075:18127   */\n      tag_354\n      jump\t// in\n    tag_555:\n        /* \"#utility.yul\":18152:18158   */\n      dup1\n        /* \"#utility.yul\":18147:18150   */\n      dup5\n        /* \"#utility.yul\":18143:18159   */\n      add\n        /* \"#utility.yul\":18136:18159   */\n      swap2\n      pop\n        /* \"#utility.yul\":17898:18165   */\n      pop\n        /* \"#utility.yul\":17788:18165   */\n      swap3\n      swap2\n      pop\n      pop\n      jump\t// out\n        /* \"#utility.yul\":18171:18446   */\n    tag_125:\n        /* \"#utility.yul\":18303:18306   */\n      0x00\n        /* \"#utility.yul\":18325:18420   */\n      tag_557\n        /* \"#utility.yul\":18416:18419   */\n      dup3\n        /* \"#utility.yul\":18407:18413   */\n      dup5\n        /* \"#utility.yul\":18325:18420   */\n      tag_365\n      jump\t// in\n    tag_557:\n        /* \"#utility.yul\":18318:18420   */\n      swap2\n      pop\n        /* \"#utility.yul\":18437:18440   */\n      dup2\n        /* \"#utility.yul\":18430:18440   */\n      swap1\n      pop\n        /* \"#utility.yul\":18171:18446   */\n      swap3\n      swap2\n      pop\n      pop\n      jump\t// out\n        /* \"#utility.yul\":18452:18632   */\n    tag_145:\n        /* \"#utility.yul\":18500:18577   */\n      0x4e487b7100000000000000000000000000000000000000000000000000000000\n        /* \"#utility.yul\":18497:18498   */\n      0x00\n        /* \"#utility.yul\":18490:18578   */\n      mstore\n        /* \"#utility.yul\":18597:18601   */\n      0x32\n        /* \"#utility.yul\":18594:18595   */\n      0x04\n        /* \"#utility.yul\":18587:18602   */\n      mstore\n        /* \"#utility.yul\":18621:18625   */\n      0x24\n        /* \"#utility.yul\":18618:18619   */\n      0x00\n        /* \"#utility.yul\":18611:18626   */\n      revert\n        /* \"#utility.yul\":18638:18818   */\n    tag_366:\n        /* \"#utility.yul\":18686:18763   */\n      0x4e487b7100000000000000000000000000000000000000000000000000000000\n        /* \"#utility.yul\":18683:18684   */\n      0x00\n        /* \"#utility.yul\":18676:18764   */\n      mstore\n        /* \"#utility.yul\":18783:18787   */\n      0x22\n        /* \"#utility.yul\":18780:18781   */\n      0x04\n        /* \"#utility.yul\":18773:18788   */\n      mstore\n        /* \"#utility.yul\":18807:18811   */\n      0x24\n        /* \"#utility.yul\":18804:18805   */\n      0x00\n        /* \"#utility.yul\":18797:18812   */\n      revert\n        /* \"#utility.yul\":18824:19144   */\n    tag_148:\n        /* \"#utility.yul\":18868:18874   */\n      0x00\n        /* \"#utility.yul\":18905:18906   */\n      0x02\n        /* \"#utility.yul\":18899:18903   */\n      dup3\n        /* \"#utility.yul\":18895:18907   */\n      div\n        /* \"#utility.yul\":18885:18907   */\n      swap1\n      pop\n        /* \"#utility.yul\":18952:18953   */\n      0x01\n        /* \"#utility.yul\":18946:18950   */\n      dup3\n        /* \"#utility.yul\":18942:18954   */\n      and\n        /* \"#utility.yul\":18973:18991   */\n      dup1\n        /* \"#utility.yul\":18963:19044   */\n      tag_561\n      jumpi\n        /* \"#utility.yul\":19029:19033   */\n      0x7f\n        /* \"#utility.yul\":19021:19027   */\n      dup3\n        /* \"#utility.yul\":19017:19034   */\n      and\n        /* \"#utility.yul\":19007:19034   */\n      swap2\n      pop\n        /* \"#utility.yul\":18963:19044   */\n    tag_561:\n        /* \"#utility.yul\":19091:19093   */\n      0x20\n        /* \"#utility.yul\":19083:19089   */\n      dup3\n        /* \"#utility.yul\":19080:19094   */\n      lt\n        /* \"#utility.yul\":19060:19078   */\n      dup2\n        /* \"#utility.yul\":19057:19095   */\n      eq\n        /* \"#utility.yul\":19054:19138   */\n      iszero\n      tag_562\n      jumpi\n        /* \"#utility.yul\":19110:19128   */\n      tag_563\n      tag_366\n      jump\t// in\n    tag_563:\n        /* \"#utility.yul\":19054:19138   */\n    tag_562:\n        /* \"#utility.yul\":18875:19144   */\n      pop\n        /* \"#utility.yul\":18824:19144   */\n      swap2\n      swap1\n      pop\n      jump\t// out\n        /* \"#utility.yul\":19150:19293   */\n    tag_367:\n        /* \"#utility.yul\":19207:19212   */\n      0x00\n        /* \"#utility.yul\":19238:19244   */\n      dup2\n        /* \"#utility.yul\":19232:19245   */\n      mload\n        /* \"#utility.yul\":19223:19245   */\n      swap1\n      pop\n        /* \"#utility.yul\":19254:19287   */\n      tag_565\n        /* \"#utility.yul\":19281:19286   */\n      dup2\n        /* \"#utility.yul\":19254:19287   */\n      tag_358\n      jump\t// in\n    tag_565:\n        /* \"#utility.yul\":19150:19293   */\n      swap3\n      swap2\n      pop\n      pop\n      jump\t// out\n        /* \"#utility.yul\":19299:19650   */\n    tag_206:\n        /* \"#utility.yul\":19369:19375   */\n      0x00\n        /* \"#utility.yul\":19418:19420   */\n      0x20\n        /* \"#utility.yul\":19406:19415   */\n      dup3\n        /* \"#utility.yul\":19397:19404   */\n      dup5\n        /* \"#utility.yul\":19393:19416   */\n      sub\n        /* \"#utility.yul\":19389:19421   */\n      slt\n        /* \"#utility.yul\":19386:19505   */\n      iszero\n      tag_567\n      jumpi\n        /* \"#utility.yul\":19424:19503   */\n      tag_568\n      tag_330\n      jump\t// in\n    tag_568:\n        /* \"#utility.yul\":19386:19505   */\n    tag_567:\n        /* \"#utility.yul\":19544:19545   */\n      0x00\n        /* \"#utility.yul\":19569:19633   */\n      tag_569\n        /* \"#utility.yul\":19625:19632   */\n      dup5\n        /* \"#utility.yul\":19616:19622   */\n      dup3\n        /* \"#utility.yul\":19605:19614   */\n      dup6\n        /* \"#utility.yul\":19601:19623   */\n      add\n        /* \"#utility.yul\":19569:19633   */\n      tag_367\n      jump\t// in\n    tag_569:\n        /* \"#utility.yul\":19559:19633   */\n      swap2\n      pop\n        /* \"#utility.yul\":19515:19643   */\n      pop\n        /* \"#utility.yul\":19299:19650   */\n      swap3\n      swap2\n      pop\n      pop\n      jump\t// out\n        /* \"#utility.yul\":19656:19829   */\n    tag_368:\n        /* \"#utility.yul\":19796:19821   */\n      0x596f7520617265206e6f7420617574686f72697a656421000000000000000000\n        /* \"#utility.yul\":19792:19793   */\n      0x00\n        /* \"#utility.yul\":19784:19790   */\n      dup3\n        /* \"#utility.yul\":19780:19794   */\n      add\n        /* \"#utility.yul\":19773:19822   */\n      mstore\n        /* \"#utility.yul\":19656:19829   */\n      pop\n      jump\t// out\n        /* \"#utility.yul\":19835:20201   */\n    tag_369:\n        /* \"#utility.yul\":19977:19980   */\n      0x00\n        /* \"#utility.yul\":19998:20065   */\n      tag_572\n        /* \"#utility.yul\":20062:20064   */\n      0x17\n        /* \"#utility.yul\":20057:20060   */\n      dup4\n        /* \"#utility.yul\":19998:20065   */\n      tag_353\n      jump\t// in\n    tag_572:\n        /* \"#utility.yul\":19991:20065   */\n      swap2\n      pop\n        /* \"#utility.yul\":20074:20167   */\n      tag_573\n        /* \"#utility.yul\":20163:20166   */\n      dup3\n        /* \"#utility.yul\":20074:20167   */\n      tag_368\n      jump\t// in\n    tag_573:\n        /* \"#utility.yul\":20192:20194   */\n      0x20\n        /* \"#utility.yul\":20187:20190   */\n      dup3\n        /* \"#utility.yul\":20183:20195   */\n      add\n        /* \"#utility.yul\":20176:20195   */\n      swap1\n      pop\n        /* \"#utility.yul\":19835:20201   */\n      swap2\n      swap1\n      pop\n      jump\t// out\n        /* \"#utility.yul\":20207:20626   */\n    tag_209:\n        /* \"#utility.yul\":20373:20377   */\n      0x00\n        /* \"#utility.yul\":20411:20413   */\n      0x20\n        /* \"#utility.yul\":20400:20409   */\n      dup3\n        /* \"#utility.yul\":20396:20414   */\n      add\n        /* \"#utility.yul\":20388:20414   */\n      swap1\n      pop\n        /* \"#utility.yul\":20460:20469   */\n      dup2\n        /* \"#utility.yul\":20454:20458   */\n      dup2\n        /* \"#utility.yul\":20450:20470   */\n      sub\n        /* \"#utility.yul\":20446:20447   */\n      0x00\n        /* \"#utility.yul\":20435:20444   */\n      dup4\n        /* \"#utility.yul\":20431:20448   */\n      add\n        /* \"#utility.yul\":20424:20471   */\n      mstore\n        /* \"#utility.yul\":20488:20619   */\n      tag_575\n        /* \"#utility.yul\":20614:20618   */\n      dup2\n        /* \"#utility.yul\":20488:20619   */\n      tag_369\n      jump\t// in\n    tag_575:\n        /* \"#utility.yul\":20480:20619   */\n      swap1\n      pop\n        /* \"#utility.yul\":20207:20626   */\n      swap2\n      swap1\n      pop\n      jump\t// out\n        /* \"#utility.yul\":20632:20812   */\n    tag_370:\n        /* \"#utility.yul\":20680:20757   */\n      0x4e487b7100000000000000000000000000000000000000000000000000000000\n        /* \"#utility.yul\":20677:20678   */\n      0x00\n        /* \"#utility.yul\":20670:20758   */\n      mstore\n        /* \"#utility.yul\":20777:20781   */\n      0x11\n        /* \"#utility.yul\":20774:20775   */\n      0x04\n        /* \"#utility.yul\":20767:20782   */\n      mstore\n        /* \"#utility.yul\":20801:20805   */\n      0x24\n        /* \"#utility.yul\":20798:20799   */\n      0x00\n        /* \"#utility.yul\":20791:20806   */\n      revert\n        /* \"#utility.yul\":20818:21123   */\n    tag_223:\n        /* \"#utility.yul\":20858:20861   */\n      0x00\n        /* \"#utility.yul\":20877:20897   */\n      tag_578\n        /* \"#utility.yul\":20895:20896   */\n      dup3\n        /* \"#utility.yul\":20877:20897   */\n      tag_327\n      jump\t// in\n    tag_578:\n        /* \"#utility.yul\":20872:20897   */\n      swap2\n      pop\n        /* \"#utility.yul\":20911:20931   */\n      tag_579\n        /* \"#utility.yul\":20929:20930   */\n      dup4\n        /* \"#utility.yul\":20911:20931   */\n      tag_327\n      jump\t// in\n    tag_579:\n        /* \"#utility.yul\":20906:20931   */\n      swap3\n      pop\n        /* \"#utility.yul\":21065:21066   */\n      dup3\n        /* \"#utility.yul\":20997:21063   */\n      0xffffffffffffffffffffffffffffffffffffffffffffffffffffffffffffffff\n        /* \"#utility.yul\":20993:21067   */\n      sub\n        /* \"#utility.yul\":20990:20991   */\n      dup3\n        /* \"#utility.yul\":20987:21068   */\n      gt\n        /* \"#utility.yul\":20984:21091   */\n      iszero\n      tag_580\n      jumpi\n        /* \"#utility.yul\":21071:21089   */\n      tag_581\n      tag_370\n      jump\t// in\n    tag_581:\n        /* \"#utility.yul\":20984:21091   */\n    tag_580:\n        /* \"#utility.yul\":21115:21116   */\n      dup3\n        /* \"#utility.yul\":21112:21113   */\n      dup3\n        /* \"#utility.yul\":21108:21117   */\n      add\n        /* \"#utility.yul\":21101:21117   */\n      swap1\n      pop\n        /* \"#utility.yul\":20818:21123   */\n      swap3\n      swap2\n      pop\n      pop\n      jump\t// out\n\n    auxdata: 0xa2646970667358221220ea3b0a269e1942b7c4a9cf77c3ae044554cefe9be5fbf57e3c7b43fff8f56ef564736f6c634300080a0033\n}\n",
    "bytecode": {
      "linkReferences": {},
      "object": "60806040523480156200001157600080fd5b50604051620034e8380380620034e883398181016040528101906200003791906200040a565b85600490805190602001906200004f92919062000158565b50846000806101000a81548173ffffffffffffffffffffffffffffffffffffffff021916908373ffffffffffffffffffffffffffffffffffffffff1602179055508360019080519060200190620000a892919062000158565b508260029080519060200190620000c192919062000158565b50600060038190555081600660006101000a81548173ffffffffffffffffffffffffffffffffffffffff021916908373ffffffffffffffffffffffffffffffffffffffff16021790555080600760006101000a81548173ffffffffffffffffffffffffffffffffffffffff021916908373ffffffffffffffffffffffffffffffffffffffff16021790555050505050505062000568565b828054620001669062000532565b90600052602060002090601f0160209004810192826200018a5760008555620001d6565b82601f10620001a557805160ff1916838001178555620001d6565b82800160010185558215620001d6579182015b82811115620001d5578251825591602001919060010190620001b8565b5b509050620001e59190620001e9565b5090565b5b8082111562000204576000816000905550600101620001ea565b5090565b6000604051905090565b600080fd5b600080fd5b600080fd5b600080fd5b6000601f19601f8301169050919050565b7f4e487b7100000000000000000000000000000000000000000000000000000000600052604160045260246000fd5b620002718262000226565b810181811067ffffffffffffffff8211171562000293576200029262000237565b5b80604052505050565b6000620002a862000208565b9050620002b6828262000266565b919050565b600067ffffffffffffffff821115620002d957620002d862000237565b5b620002e48262000226565b9050602081019050919050565b60005b8381101562000311578082015181840152602081019050620002f4565b8381111562000321576000848401525b50505050565b60006200033e6200033884620002bb565b6200029c565b9050828152602081018484840111156200035d576200035c62000221565b5b6200036a848285620002f1565b509392505050565b600082601f8301126200038a57620003896200021c565b5b81516200039c84826020860162000327565b91505092915050565b600073ffffffffffffffffffffffffffffffffffffffff82169050919050565b6000620003d282620003a5565b9050919050565b620003e481620003c5565b8114620003f057600080fd5b50565b6000815190506200040481620003d9565b92915050565b60008060008060008060c087890312156200042a576200042962000212565b5b600087015167ffffffffffffffff8111156200044b576200044a62000217565b5b6200045989828a0162000372565b96505060206200046c89828a01620003f3565b955050604087015167ffffffffffffffff81111562000490576200048f62000217565b5b6200049e89828a0162000372565b945050606087015167ffffffffffffffff811115620004c257620004c162000217565b5b620004d089828a0162000372565b9350506080620004e389828a01620003f3565b92505060a0620004f689828a01620003f3565b9150509295509295509295565b7f4e487b7100000000000000000000000000000000000000000000000000000000600052602260045260246000fd5b600060028204905060018216806200054b57607f821691505b6020821081141562000562576200056162000503565b5b50919050565b612f7080620005786000396000f3fe608060405234801561001057600080fd5b506004361061014d5760003560e01c806394fb3da7116100c3578063e3d77aba1161007c578063e3d77aba14610375578063eda3467c14610391578063f007b4c4146103ad578063f1d9efb2146103c9578063fc017f25146103e5578063fee7989e146104015761014d565b806394fb3da7146102bb5780639c13c7c8146102d9578063a1e68c52146102e3578063d57e0ad614610305578063debbb1c11461033b578063e2601751146103595761014d565b8063444fc66211610115578063444fc662146101f657806344afd1341461022b57806352dbd3c014610249578063769313fc146102655780637c4c74301461028357806384c791201461029f5761014d565b806305f53b29146101525780631b258fc0146101705780631e9f006a146101a05780632186879c146101be57806324eec41a146101da575b600080fd5b61015a610435565b6040516101679190612434565b60405180910390f35b61018a6004803603810190610185919061248f565b610442565b60405161019791906124fd565b60405180910390f35b6101a8610481565b6040516101b59190612577565b60405180910390f35b6101d860048036038101906101d391906126d8565b6104a7565b005b6101f460048036038101906101ef9190612721565b6105a0565b005b610210600480360381019061020b919061248f565b6107d2565b6040516102229695949392919061286b565b60405180910390f35b6102336108a0565b6040516102409190612434565b60405180910390f35b610263600480360381019061025e919061290d565b6108ad565b005b61026d6109a5565b60405161027a91906124fd565b60405180910390f35b61029d6004803603810190610298919061293a565b6109cb565b005b6102b960048036038101906102b491906126d8565b610bf2565b005b6102c3610ca8565b6040516102d09190612434565b60405180910390f35b6102e1610cb5565b005b6102eb610d53565b6040516102fc9594939291906129c5565b60405180910390f35b61031f600480360381019061031a919061248f565b610f3c565b6040516103329796959493929190612a2d565b60405180910390f35b610343610fa9565b6040516103509190612ad9565b60405180910390f35b610373600480360381019061036e919061290d565b610fcf565b005b61038f600480360381019061038a919061290d565b6110bb565b005b6103ab60048036038101906103a691906126d8565b6112a5565b005b6103c760048036038101906103c29190612af4565b61139e565b005b6103e360048036038101906103de9190612b6c565b6114bf565b005b6103ff60048036038101906103fa9190612721565b611799565b005b61041b6004803603810190610416919061248f565b611871565b60405161042c959493929190612c57565b60405180910390f35b6000600e80549050905090565b6008818154811061045257600080fd5b906000526020600020016000915054906101000a900473ffffffffffffffffffffffffffffffffffffffff1681565b600660009054906101000a900473ffffffffffffffffffffffffffffffffffffffff1681565b60008054906101000a900473ffffffffffffffffffffffffffffffffffffffff1673ffffffffffffffffffffffffffffffffffffffff163373ffffffffffffffffffffffffffffffffffffffff1614610535576040517f08c379a000000000000000000000000000000000000000000000000000000000815260040161052c90612d04565b60405180910390fd5b6009816040516105459190612d60565b908152602001604051809103902060030160019054906101000a900460ff16156009826040516105759190612d60565b908152602001604051809103902060030160016101000a81548160ff02191690831515021790555050565b60008054906101000a900473ffffffffffffffffffffffffffffffffffffffff1673ffffffffffffffffffffffffffffffffffffffff163373ffffffffffffffffffffffffffffffffffffffff161461062e576040517f08c379a000000000000000000000000000000000000000000000000000000000815260040161062590612d04565b60405180910390fd5b610636612279565b838160000181905250828160200181905250818160400181905250600081606001901515908115158152505060018160c001901515908115158152505080600d856040516106849190612d60565b908152602001604051809103902060008201518160000190805190602001906106ae9291906122d0565b5060208201518160010190805190602001906106cb9291906122d0565b5060408201518160020190805190602001906106e89291906122d0565b5060608201518160030160006101000a81548160ff02191690831515021790555060808201518160030160016101000a81548173ffffffffffffffffffffffffffffffffffffffff021916908373ffffffffffffffffffffffffffffffffffffffff16021790555060a082015181600401908051906020019061076c9291906122d0565b5060c08201518160050160006101000a81548160ff021916908315150217905550905050600e849080600181540180825580915050600190039060005260206000200160009091909190915090805190602001906107cb9291906122d0565b5050505050565b6060806000806060600061088b600e88815481106107f3576107f2612d77565b5b90600052602060002001805461080890612dd5565b80601f016020809104026020016040519081016040528092919081815260200182805461083490612dd5565b80156108815780601f1061085657610100808354040283529160200191610881565b820191906000526020600020905b81548152906001019060200180831161086457829003601f168201915b505050505061193c565b95509550955095509550955091939550919395565b6000600a80549050905090565b600b60008273ffffffffffffffffffffffffffffffffffffffff1673ffffffffffffffffffffffffffffffffffffffff16815260200190815260200160002060010160009054906101000a900473ffffffffffffffffffffffffffffffffffffffff1673ffffffffffffffffffffffffffffffffffffffff163373ffffffffffffffffffffffffffffffffffffffff161461094757600080fd5b6001600b60003373ffffffffffffffffffffffffffffffffffffffff1673ffffffffffffffffffffffffffffffffffffffff16815260200190815260200160002060050160006101000a81548160ff02191690831515021790555050565b600560009054906101000a900473ffffffffffffffffffffffffffffffffffffffff1681565b60008054906101000a900473ffffffffffffffffffffffffffffffffffffffff1673ffffffffffffffffffffffffffffffffffffffff163373ffffffffffffffffffffffffffffffffffffffff1614610a59576040517f08c379a0000000000000000000000000000000000000000000000000000000008152600401610a5090612d04565b60405180910390fd5b610a61612356565b83816000018190525082816020019073ffffffffffffffffffffffffffffffffffffffff16908173ffffffffffffffffffffffffffffffffffffffff16815250508181604001819052506000816060019015159081151581525050600181608001901515908115158152505080600983604051610ade9190612d60565b90815260200160405180910390206000820151816000019080519060200190610b089291906122d0565b5060208201518160010160006101000a81548173ffffffffffffffffffffffffffffffffffffffff021916908373ffffffffffffffffffffffffffffffffffffffff1602179055506040820151816002019080519060200190610b6c9291906122d0565b5060608201518160030160006101000a81548160ff02191690831515021790555060808201518160030160016101000a81548160ff021916908315150217905550905050600a82908060018154018082558091505060019003906000526020600020016000909190919091509080519060200190610beb9291906122d0565b5050505050565b600981604051610c029190612d60565b908152602001604051809103902060010160009054906101000a900473ffffffffffffffffffffffffffffffffffffffff1673ffffffffffffffffffffffffffffffffffffffff163373ffffffffffffffffffffffffffffffffffffffff1614610c6b57600080fd5b6001600982604051610c7d9190612d60565b908152602001604051809103902060030160006101000a81548160ff02191690831515021790555050565b6000600c80549050905090565b600560009054906101000a900473ffffffffffffffffffffffffffffffffffffffff1673ffffffffffffffffffffffffffffffffffffffff163373ffffffffffffffffffffffffffffffffffffffff1614610d0f57600080fd5b6000600560006101000a81548173ffffffffffffffffffffffffffffffffffffffff021916908373ffffffffffffffffffffffffffffffffffffffff160217905550565b6000606080606060008060009054906101000a900473ffffffffffffffffffffffffffffffffffffffff16600460016002600354838054610d9390612dd5565b80601f0160208091040260200160405190810160405280929190818152602001828054610dbf90612dd5565b8015610e0c5780601f10610de157610100808354040283529160200191610e0c565b820191906000526020600020905b815481529060010190602001808311610def57829003601f168201915b50505050509350828054610e1f90612dd5565b80601f0160208091040260200160405190810160405280929190818152602001828054610e4b90612dd5565b8015610e985780601f10610e6d57610100808354040283529160200191610e98565b820191906000526020600020905b815481529060010190602001808311610e7b57829003601f168201915b50505050509250818054610eab90612dd5565b80601f0160208091040260200160405190810160405280929190818152602001828054610ed790612dd5565b8015610f245780601f10610ef957610100808354040283529160200191610f24565b820191906000526020600020905b815481529060010190602001808311610f0757829003601f168201915b50505050509150945094509450945094509091929394565b60606000606080600060606000610f90600c8981548110610f6057610f5f612d77565b5b9060005260206000200160009054906101000a900473ffffffffffffffffffffffffffffffffffffffff16611c02565b9650965096509650965096509650919395979092949650565b600760009054906101000a900473ffffffffffffffffffffffffffffffffffffffff1681565b60008054906101000a900473ffffffffffffffffffffffffffffffffffffffff1673ffffffffffffffffffffffffffffffffffffffff163373ffffffffffffffffffffffffffffffffffffffff161461105d576040517f08c379a000000000000000000000000000000000000000000000000000000000815260040161105490612d04565b60405180910390fd5b6000600b60008373ffffffffffffffffffffffffffffffffffffffff1673ffffffffffffffffffffffffffffffffffffffff16815260200190815260200160002060070160006101000a81548160ff02191690831515021790555050565b600073ffffffffffffffffffffffffffffffffffffffff16600760009054906101000a900473ffffffffffffffffffffffffffffffffffffffff1673ffffffffffffffffffffffffffffffffffffffff1663839f602d336040518263ffffffff1660e01b815260040161112e91906124fd565b602060405180830381865afa15801561114b573d6000803e3d6000fd5b505050506040513d601f19601f8201168201806040525081019061116f9190612e1c565b73ffffffffffffffffffffffffffffffffffffffff1614156111c6576040517f08c379a00000000000000000000000000000000000000000000000000000000081526004016111bd90612e95565b60405180910390fd5b8073ffffffffffffffffffffffffffffffffffffffff163373ffffffffffffffffffffffffffffffffffffffff16146111fe57600080fd5b6008819080600181540180825580915050600190039060005260206000200160009091909190916101000a81548173ffffffffffffffffffffffffffffffffffffffff021916908373ffffffffffffffffffffffffffffffffffffffff16021790555080600560006101000a81548173ffffffffffffffffffffffffffffffffffffffff021916908373ffffffffffffffffffffffffffffffffffffffff16021790555050565b60008054906101000a900473ffffffffffffffffffffffffffffffffffffffff1673ffffffffffffffffffffffffffffffffffffffff163373ffffffffffffffffffffffffffffffffffffffff1614611333576040517f08c379a000000000000000000000000000000000000000000000000000000000815260040161132a90612d04565b60405180910390fd5b600d816040516113439190612d60565b908152602001604051809103902060050160009054906101000a900460ff1615600d826040516113739190612d60565b908152602001604051809103902060050160006101000a81548160ff02191690831515021790555050565b600d826040516113ae9190612d60565b908152602001604051809103902060050160009054906101000a900460ff166113d657600080fd5b60016003546113e59190612ee4565b6003819055506001600d836040516113fd9190612d60565b908152602001604051809103902060030160006101000a81548160ff02191690831515021790555033600d836040516114369190612d60565b908152602001604051809103902060030160016101000a81548173ffffffffffffffffffffffffffffffffffffffff021916908373ffffffffffffffffffffffffffffffffffffffff16021790555080600d836040516114969190612d60565b908152602001604051809103902060040190805190602001906114ba9291906122d0565b505050565b60008054906101000a900473ffffffffffffffffffffffffffffffffffffffff1673ffffffffffffffffffffffffffffffffffffffff163373ffffffffffffffffffffffffffffffffffffffff161461154d576040517f08c379a000000000000000000000000000000000000000000000000000000000815260040161154490612d04565b60405180910390fd5b61155561239f565b85816000018190525084816020019073ffffffffffffffffffffffffffffffffffffffff16908173ffffffffffffffffffffffffffffffffffffffff168152505083816060018190525082816080018190525060008160a001901515908115158152505060018160e0019015159081151581525050818160c0018190525080600b60008773ffffffffffffffffffffffffffffffffffffffff1673ffffffffffffffffffffffffffffffffffffffff168152602001908152602001600020600082015181600001908051906020019061162f9291906122d0565b5060208201518160010160006101000a81548173ffffffffffffffffffffffffffffffffffffffff021916908373ffffffffffffffffffffffffffffffffffffffff16021790555060408201518160020190805190602001906116939291906122d0565b5060608201518160030190805190602001906116b09291906122d0565b5060808201518160040190805190602001906116cd9291906122d0565b5060a08201518160050160006101000a81548160ff02191690831515021790555060c082015181600601908051906020019061170a9291906122d0565b5060e08201518160070160006101000a81548160ff021916908315150217905550905050600c859080600181540180825580915050600190039060005260206000200160009091909190916101000a81548173ffffffffffffffffffffffffffffffffffffffff021916908373ffffffffffffffffffffffffffffffffffffffff160217905550505050505050565b60008054906101000a900473ffffffffffffffffffffffffffffffffffffffff1673ffffffffffffffffffffffffffffffffffffffff163373ffffffffffffffffffffffffffffffffffffffff1614611827576040517f08c379a000000000000000000000000000000000000000000000000000000000815260040161181e90612d04565b60405180910390fd5b826004908051906020019061183d9291906122d0565b5081600190805190602001906118549291906122d0565b50806002908051906020019061186b9291906122d0565b50505050565b606060006060600080611929600a878154811061189157611890612d77565b5b9060005260206000200180546118a690612dd5565b80601f01602080910402602001604051908101604052809291908181526020018280546118d290612dd5565b801561191f5780601f106118f45761010080835404028352916020019161191f565b820191906000526020600020905b81548152906001019060200180831161190257829003601f168201915b5050505050612063565b9450945094509450945091939590929450565b60608060008060606000600d876040516119569190612d60565b9081526020016040518091039020600001600d886040516119779190612d60565b9081526020016040518091039020600201600d896040516119989190612d60565b908152602001604051809103902060030160009054906101000a900460ff16600d8a6040516119c79190612d60565b908152602001604051809103902060030160019054906101000a900473ffffffffffffffffffffffffffffffffffffffff16600d8b604051611a099190612d60565b9081526020016040518091039020600401600d8c604051611a2a9190612d60565b908152602001604051809103902060050160009054906101000a900460ff16858054611a5590612dd5565b80601f0160208091040260200160405190810160405280929190818152602001828054611a8190612dd5565b8015611ace5780601f10611aa357610100808354040283529160200191611ace565b820191906000526020600020905b815481529060010190602001808311611ab157829003601f168201915b50505050509550848054611ae190612dd5565b80601f0160208091040260200160405190810160405280929190818152602001828054611b0d90612dd5565b8015611b5a5780601f10611b2f57610100808354040283529160200191611b5a565b820191906000526020600020905b815481529060010190602001808311611b3d57829003601f168201915b50505050509450818054611b6d90612dd5565b80601f0160208091040260200160405190810160405280929190818152602001828054611b9990612dd5565b8015611be65780601f10611bbb57610100808354040283529160200191611be6565b820191906000526020600020905b815481529060010190602001808311611bc957829003601f168201915b5050505050915095509550955095509550955091939550919395565b60606000606080600060606000600b60008973ffffffffffffffffffffffffffffffffffffffff1673ffffffffffffffffffffffffffffffffffffffff168152602001908152602001600020600001600b60008a73ffffffffffffffffffffffffffffffffffffffff1673ffffffffffffffffffffffffffffffffffffffff16815260200190815260200160002060010160009054906101000a900473ffffffffffffffffffffffffffffffffffffffff16600b60008b73ffffffffffffffffffffffffffffffffffffffff1673ffffffffffffffffffffffffffffffffffffffff168152602001908152602001600020600301600b60008c73ffffffffffffffffffffffffffffffffffffffff1673ffffffffffffffffffffffffffffffffffffffff168152602001908152602001600020600401600b60008d73ffffffffffffffffffffffffffffffffffffffff1673ffffffffffffffffffffffffffffffffffffffff16815260200190815260200160002060050160009054906101000a900460ff16600b60008e73ffffffffffffffffffffffffffffffffffffffff1673ffffffffffffffffffffffffffffffffffffffff168152602001908152602001600020600601600b60008f73ffffffffffffffffffffffffffffffffffffffff1673ffffffffffffffffffffffffffffffffffffffff16815260200190815260200160002060070160009054906101000a900460ff16868054611e2690612dd5565b80601f0160208091040260200160405190810160405280929190818152602001828054611e5290612dd5565b8015611e9f5780601f10611e7457610100808354040283529160200191611e9f565b820191906000526020600020905b815481529060010190602001808311611e8257829003601f168201915b50505050509650848054611eb290612dd5565b80601f0160208091040260200160405190810160405280929190818152602001828054611ede90612dd5565b8015611f2b5780601f10611f0057610100808354040283529160200191611f2b565b820191906000526020600020905b815481529060010190602001808311611f0e57829003601f168201915b50505050509450838054611f3e90612dd5565b80601f0160208091040260200160405190810160405280929190818152602001828054611f6a90612dd5565b8015611fb75780601f10611f8c57610100808354040283529160200191611fb7565b820191906000526020600020905b815481529060010190602001808311611f9a57829003601f168201915b50505050509350818054611fca90612dd5565b80601f0160208091040260200160405190810160405280929190818152602001828054611ff690612dd5565b80156120435780601f1061201857610100808354040283529160200191612043565b820191906000526020600020905b81548152906001019060200180831161202657829003601f168201915b505050505091509650965096509650965096509650919395979092949650565b60606000606060008060098660405161207c9190612d60565b908152602001604051809103902060000160098760405161209d9190612d60565b908152602001604051809103902060010160009054906101000a900473ffffffffffffffffffffffffffffffffffffffff166009886040516120df9190612d60565b90815260200160405180910390206002016009896040516121009190612d60565b908152602001604051809103902060030160009054906101000a900460ff1660098a60405161212f9190612d60565b908152602001604051809103902060030160019054906101000a900460ff1684805461215a90612dd5565b80601f016020809104026020016040519081016040528092919081815260200182805461218690612dd5565b80156121d35780601f106121a8576101008083540402835291602001916121d3565b820191906000526020600020905b8154815290600101906020018083116121b657829003601f168201915b505050505094508280546121e690612dd5565b80601f016020809104026020016040519081016040528092919081815260200182805461221290612dd5565b801561225f5780601f106122345761010080835404028352916020019161225f565b820191906000526020600020905b81548152906001019060200180831161224257829003601f168201915b505050505092509450945094509450945091939590929450565b6040518060e00160405280606081526020016060815260200160608152602001600015158152602001600073ffffffffffffffffffffffffffffffffffffffff168152602001606081526020016000151581525090565b8280546122dc90612dd5565b90600052602060002090601f0160209004810192826122fe5760008555612345565b82601f1061231757805160ff1916838001178555612345565b82800160010185558215612345579182015b82811115612344578251825591602001919060010190612329565b5b50905061235291906123fe565b5090565b6040518060a0016040528060608152602001600073ffffffffffffffffffffffffffffffffffffffff168152602001606081526020016000151581526020016000151581525090565b60405180610100016040528060608152602001600073ffffffffffffffffffffffffffffffffffffffff168152602001606081526020016060815260200160608152602001600015158152602001606081526020016000151581525090565b5b808211156124175760008160009055506001016123ff565b5090565b6000819050919050565b61242e8161241b565b82525050565b60006020820190506124496000830184612425565b92915050565b6000604051905090565b600080fd5b600080fd5b61246c8161241b565b811461247757600080fd5b50565b60008135905061248981612463565b92915050565b6000602082840312156124a5576124a4612459565b5b60006124b38482850161247a565b91505092915050565b600073ffffffffffffffffffffffffffffffffffffffff82169050919050565b60006124e7826124bc565b9050919050565b6124f7816124dc565b82525050565b600060208201905061251260008301846124ee565b92915050565b6000819050919050565b600061253d612538612533846124bc565b612518565b6124bc565b9050919050565b600061254f82612522565b9050919050565b600061256182612544565b9050919050565b61257181612556565b82525050565b600060208201905061258c6000830184612568565b92915050565b600080fd5b600080fd5b6000601f19601f8301169050919050565b7f4e487b7100000000000000000000000000000000000000000000000000000000600052604160045260246000fd5b6125e58261259c565b810181811067ffffffffffffffff82111715612604576126036125ad565b5b80604052505050565b600061261761244f565b905061262382826125dc565b919050565b600067ffffffffffffffff821115612643576126426125ad565b5b61264c8261259c565b9050602081019050919050565b82818337600083830152505050565b600061267b61267684612628565b61260d565b90508281526020810184848401111561269757612696612597565b5b6126a2848285612659565b509392505050565b600082601f8301126126bf576126be612592565b5b81356126cf848260208601612668565b91505092915050565b6000602082840312156126ee576126ed612459565b5b600082013567ffffffffffffffff81111561270c5761270b61245e565b5b612718848285016126aa565b91505092915050565b60008060006060848603121561273a57612739612459565b5b600084013567ffffffffffffffff8111156127585761275761245e565b5b612764868287016126aa565b935050602084013567ffffffffffffffff8111156127855761278461245e565b5b612791868287016126aa565b925050604084013567ffffffffffffffff8111156127b2576127b161245e565b5b6127be868287016126aa565b9150509250925092565b600081519050919050565b600082825260208201905092915050565b60005b838110156128025780820151818401526020810190506127e7565b83811115612811576000848401525b50505050565b6000612822826127c8565b61282c81856127d3565b935061283c8185602086016127e4565b6128458161259c565b840191505092915050565b60008115159050919050565b61286581612850565b82525050565b600060c08201905081810360008301526128858189612817565b905081810360208301526128998188612817565b90506128a8604083018761285c565b6128b560608301866124ee565b81810360808301526128c78185612817565b90506128d660a083018461285c565b979650505050505050565b6128ea816124dc565b81146128f557600080fd5b50565b600081359050612907816128e1565b92915050565b60006020828403121561292357612922612459565b5b6000612931848285016128f8565b91505092915050565b60008060006060848603121561295357612952612459565b5b600084013567ffffffffffffffff8111156129715761297061245e565b5b61297d868287016126aa565b935050602061298e868287016128f8565b925050604084013567ffffffffffffffff8111156129af576129ae61245e565b5b6129bb868287016126aa565b9150509250925092565b600060a0820190506129da60008301886124ee565b81810360208301526129ec8187612817565b90508181036040830152612a008186612817565b90508181036060830152612a148185612817565b9050612a236080830184612425565b9695505050505050565b600060e0820190508181036000830152612a47818a612817565b9050612a5660208301896124ee565b8181036040830152612a688188612817565b90508181036060830152612a7c8187612817565b9050612a8b608083018661285c565b81810360a0830152612a9d8185612817565b9050612aac60c083018461285c565b98975050505050505050565b6000612ac382612544565b9050919050565b612ad381612ab8565b82525050565b6000602082019050612aee6000830184612aca565b92915050565b60008060408385031215612b0b57612b0a612459565b5b600083013567ffffffffffffffff811115612b2957612b2861245e565b5b612b35858286016126aa565b925050602083013567ffffffffffffffff811115612b5657612b5561245e565b5b612b62858286016126aa565b9150509250929050565b600080600080600060a08688031215612b8857612b87612459565b5b600086013567ffffffffffffffff811115612ba657612ba561245e565b5b612bb2888289016126aa565b9550506020612bc3888289016128f8565b945050604086013567ffffffffffffffff811115612be457612be361245e565b5b612bf0888289016126aa565b935050606086013567ffffffffffffffff811115612c1157612c1061245e565b5b612c1d888289016126aa565b925050608086013567ffffffffffffffff811115612c3e57612c3d61245e565b5b612c4a888289016126aa565b9150509295509295909350565b600060a0820190508181036000830152612c718188612817565b9050612c8060208301876124ee565b8181036040830152612c928186612817565b9050612ca1606083018561285c565b612cae608083018461285c565b9695505050505050565b7f4e6f742053747564656e74206572726f72000000000000000000000000000000600082015250565b6000612cee6011836127d3565b9150612cf982612cb8565b602082019050919050565b60006020820190508181036000830152612d1d81612ce1565b9050919050565b600081905092915050565b6000612d3a826127c8565b612d448185612d24565b9350612d548185602086016127e4565b80840191505092915050565b6000612d6c8284612d2f565b915081905092915050565b7f4e487b7100000000000000000000000000000000000000000000000000000000600052603260045260246000fd5b7f4e487b7100000000000000000000000000000000000000000000000000000000600052602260045260246000fd5b60006002820490506001821680612ded57607f821691505b60208210811415612e0157612e00612da6565b5b50919050565b600081519050612e16816128e1565b92915050565b600060208284031215612e3257612e31612459565b5b6000612e4084828501612e07565b91505092915050565b7f596f7520617265206e6f7420617574686f72697a656421000000000000000000600082015250565b6000612e7f6017836127d3565b9150612e8a82612e49565b602082019050919050565b60006020820190508181036000830152612eae81612e72565b9050919050565b7f4e487b7100000000000000000000000000000000000000000000000000000000600052601160045260246000fd5b6000612eef8261241b565b9150612efa8361241b565b9250827fffffffffffffffffffffffffffffffffffffffffffffffffffffffffffffffff03821115612f2f57612f2e612eb5565b5b82820190509291505056fea2646970667358221220ea3b0a269e1942b7c4a9cf77c3ae044554cefe9be5fbf57e3c7b43fff8f56ef564736f6c634300080a0033",
      "opcodes": "PUSH1 0x80 PUSH1 0x40 MSTORE CALLVALUE DUP1 ISZERO PUSH3 0x11 JUMPI PUSH1 0x0 DUP1 REVERT JUMPDEST POP PUSH1 0x40 MLOAD PUSH3 0x34E8 CODESIZE SUB DUP1 PUSH3 0x34E8 DUP4 CODECOPY DUP2 DUP2 ADD PUSH1 0x40 MSTORE DUP2 ADD SWAP1 PUSH3 0x37 SWAP2 SWAP1 PUSH3 0x40A JUMP JUMPDEST DUP6 PUSH1 0x4 SWAP1 DUP1 MLOAD SWAP1 PUSH1 0x20 ADD SWAP1 PUSH3 0x4F SWAP3 SWAP2 SWAP1 PUSH3 0x158 JUMP JUMPDEST POP DUP5 PUSH1 0x0 DUP1 PUSH2 0x100 EXP DUP2 SLOAD DUP2 PUSH20 0xFFFFFFFFFFFFFFFFFFFFFFFFFFFFFFFFFFFFFFFF MUL NOT AND SWAP1 DUP4 PUSH20 0xFFFFFFFFFFFFFFFFFFFFFFFFFFFFFFFFFFFFFFFF AND MUL OR SWAP1 SSTORE POP DUP4 PUSH1 0x1 SWAP1 DUP1 MLOAD SWAP1 PUSH1 0x20 ADD SWAP1 PUSH3 0xA8 SWAP3 SWAP2 SWAP1 PUSH3 0x158 JUMP JUMPDEST POP DUP3 PUSH1 0x2 SWAP1 DUP1 MLOAD SWAP1 PUSH1 0x20 ADD SWAP1 PUSH3 0xC1 SWAP3 SWAP2 SWAP1 PUSH3 0x158 JUMP JUMPDEST POP PUSH1 0x0 PUSH1 0x3 DUP2 SWAP1 SSTORE POP DUP2 PUSH1 0x6 PUSH1 0x0 PUSH2 0x100 EXP DUP2 SLOAD DUP2 PUSH20 0xFFFFFFFFFFFFFFFFFFFFFFFFFFFFFFFFFFFFFFFF MUL NOT AND SWAP1 DUP4 PUSH20 0xFFFFFFFFFFFFFFFFFFFFFFFFFFFFFFFFFFFFFFFF AND MUL OR SWAP1 SSTORE POP DUP1 PUSH1 0x7 PUSH1 0x0 PUSH2 0x100 EXP DUP2 SLOAD DUP2 PUSH20 0xFFFFFFFFFFFFFFFFFFFFFFFFFFFFFFFFFFFFFFFF MUL NOT AND SWAP1 DUP4 PUSH20 0xFFFFFFFFFFFFFFFFFFFFFFFFFFFFFFFFFFFFFFFF AND MUL OR SWAP1 SSTORE POP POP POP POP POP POP POP PUSH3 0x568 JUMP JUMPDEST DUP3 DUP1 SLOAD PUSH3 0x166 SWAP1 PUSH3 0x532 JUMP JUMPDEST SWAP1 PUSH1 0x0 MSTORE PUSH1 0x20 PUSH1 0x0 KECCAK256 SWAP1 PUSH1 0x1F ADD PUSH1 0x20 SWAP1 DIV DUP2 ADD SWAP3 DUP3 PUSH3 0x18A JUMPI PUSH1 0x0 DUP6 SSTORE PUSH3 0x1D6 JUMP JUMPDEST DUP3 PUSH1 0x1F LT PUSH3 0x1A5 JUMPI DUP1 MLOAD PUSH1 0xFF NOT AND DUP4 DUP1 ADD OR DUP6 SSTORE PUSH3 0x1D6 JUMP JUMPDEST DUP3 DUP1 ADD PUSH1 0x1 ADD DUP6 SSTORE DUP3 ISZERO PUSH3 0x1D6 JUMPI SWAP2 DUP3 ADD JUMPDEST DUP3 DUP2 GT ISZERO PUSH3 0x1D5 JUMPI DUP3 MLOAD DUP3 SSTORE SWAP2 PUSH1 0x20 ADD SWAP2 SWAP1 PUSH1 0x1 ADD SWAP1 PUSH3 0x1B8 JUMP JUMPDEST JUMPDEST POP SWAP1 POP PUSH3 0x1E5 SWAP2 SWAP1 PUSH3 0x1E9 JUMP JUMPDEST POP SWAP1 JUMP JUMPDEST JUMPDEST DUP1 DUP3 GT ISZERO PUSH3 0x204 JUMPI PUSH1 0x0 DUP2 PUSH1 0x0 SWAP1 SSTORE POP PUSH1 0x1 ADD PUSH3 0x1EA JUMP JUMPDEST POP SWAP1 JUMP JUMPDEST PUSH1 0x0 PUSH1 0x40 MLOAD SWAP1 POP SWAP1 JUMP JUMPDEST PUSH1 0x0 DUP1 REVERT JUMPDEST PUSH1 0x0 DUP1 REVERT JUMPDEST PUSH1 0x0 DUP1 REVERT JUMPDEST PUSH1 0x0 DUP1 REVERT JUMPDEST PUSH1 0x0 PUSH1 0x1F NOT PUSH1 0x1F DUP4 ADD AND SWAP1 POP SWAP2 SWAP1 POP JUMP JUMPDEST PUSH32 0x4E487B7100000000000000000000000000000000000000000000000000000000 PUSH1 0x0 MSTORE PUSH1 0x41 PUSH1 0x4 MSTORE PUSH1 0x24 PUSH1 0x0 REVERT JUMPDEST PUSH3 0x271 DUP3 PUSH3 0x226 JUMP JUMPDEST DUP2 ADD DUP2 DUP2 LT PUSH8 0xFFFFFFFFFFFFFFFF DUP3 GT OR ISZERO PUSH3 0x293 JUMPI PUSH3 0x292 PUSH3 0x237 JUMP JUMPDEST JUMPDEST DUP1 PUSH1 0x40 MSTORE POP POP POP JUMP JUMPDEST PUSH1 0x0 PUSH3 0x2A8 PUSH3 0x208 JUMP JUMPDEST SWAP1 POP PUSH3 0x2B6 DUP3 DUP3 PUSH3 0x266 JUMP JUMPDEST SWAP2 SWAP1 POP JUMP JUMPDEST PUSH1 0x0 PUSH8 0xFFFFFFFFFFFFFFFF DUP3 GT ISZERO PUSH3 0x2D9 JUMPI PUSH3 0x2D8 PUSH3 0x237 JUMP JUMPDEST JUMPDEST PUSH3 0x2E4 DUP3 PUSH3 0x226 JUMP JUMPDEST SWAP1 POP PUSH1 0x20 DUP2 ADD SWAP1 POP SWAP2 SWAP1 POP JUMP JUMPDEST PUSH1 0x0 JUMPDEST DUP4 DUP2 LT ISZERO PUSH3 0x311 JUMPI DUP1 DUP3 ADD MLOAD DUP2 DUP5 ADD MSTORE PUSH1 0x20 DUP2 ADD SWAP1 POP PUSH3 0x2F4 JUMP JUMPDEST DUP4 DUP2 GT ISZERO PUSH3 0x321 JUMPI PUSH1 0x0 DUP5 DUP5 ADD MSTORE JUMPDEST POP POP POP POP JUMP JUMPDEST PUSH1 0x0 PUSH3 0x33E PUSH3 0x338 DUP5 PUSH3 0x2BB JUMP JUMPDEST PUSH3 0x29C JUMP JUMPDEST SWAP1 POP DUP3 DUP2 MSTORE PUSH1 0x20 DUP2 ADD DUP5 DUP5 DUP5 ADD GT ISZERO PUSH3 0x35D JUMPI PUSH3 0x35C PUSH3 0x221 JUMP JUMPDEST JUMPDEST PUSH3 0x36A DUP5 DUP3 DUP6 PUSH3 0x2F1 JUMP JUMPDEST POP SWAP4 SWAP3 POP POP POP JUMP JUMPDEST PUSH1 0x0 DUP3 PUSH1 0x1F DUP4 ADD SLT PUSH3 0x38A JUMPI PUSH3 0x389 PUSH3 0x21C JUMP JUMPDEST JUMPDEST DUP2 MLOAD PUSH3 0x39C DUP5 DUP3 PUSH1 0x20 DUP7 ADD PUSH3 0x327 JUMP JUMPDEST SWAP2 POP POP SWAP3 SWAP2 POP POP JUMP JUMPDEST PUSH1 0x0 PUSH20 0xFFFFFFFFFFFFFFFFFFFFFFFFFFFFFFFFFFFFFFFF DUP3 AND SWAP1 POP SWAP2 SWAP1 POP JUMP JUMPDEST PUSH1 0x0 PUSH3 0x3D2 DUP3 PUSH3 0x3A5 JUMP JUMPDEST SWAP1 POP SWAP2 SWAP1 POP JUMP JUMPDEST PUSH3 0x3E4 DUP2 PUSH3 0x3C5 JUMP JUMPDEST DUP2 EQ PUSH3 0x3F0 JUMPI PUSH1 0x0 DUP1 REVERT JUMPDEST POP JUMP JUMPDEST PUSH1 0x0 DUP2 MLOAD SWAP1 POP PUSH3 0x404 DUP2 PUSH3 0x3D9 JUMP JUMPDEST SWAP3 SWAP2 POP POP JUMP JUMPDEST PUSH1 0x0 DUP1 PUSH1 0x0 DUP1 PUSH1 0x0 DUP1 PUSH1 0xC0 DUP8 DUP10 SUB SLT ISZERO PUSH3 0x42A JUMPI PUSH3 0x429 PUSH3 0x212 JUMP JUMPDEST JUMPDEST PUSH1 0x0 DUP8 ADD MLOAD PUSH8 0xFFFFFFFFFFFFFFFF DUP2 GT ISZERO PUSH3 0x44B JUMPI PUSH3 0x44A PUSH3 0x217 JUMP JUMPDEST JUMPDEST PUSH3 0x459 DUP10 DUP3 DUP11 ADD PUSH3 0x372 JUMP JUMPDEST SWAP7 POP POP PUSH1 0x20 PUSH3 0x46C DUP10 DUP3 DUP11 ADD PUSH3 0x3F3 JUMP JUMPDEST SWAP6 POP POP PUSH1 0x40 DUP8 ADD MLOAD PUSH8 0xFFFFFFFFFFFFFFFF DUP2 GT ISZERO PUSH3 0x490 JUMPI PUSH3 0x48F PUSH3 0x217 JUMP JUMPDEST JUMPDEST PUSH3 0x49E DUP10 DUP3 DUP11 ADD PUSH3 0x372 JUMP JUMPDEST SWAP5 POP POP PUSH1 0x60 DUP8 ADD MLOAD PUSH8 0xFFFFFFFFFFFFFFFF DUP2 GT ISZERO PUSH3 0x4C2 JUMPI PUSH3 0x4C1 PUSH3 0x217 JUMP JUMPDEST JUMPDEST PUSH3 0x4D0 DUP10 DUP3 DUP11 ADD PUSH3 0x372 JUMP JUMPDEST SWAP4 POP POP PUSH1 0x80 PUSH3 0x4E3 DUP10 DUP3 DUP11 ADD PUSH3 0x3F3 JUMP JUMPDEST SWAP3 POP POP PUSH1 0xA0 PUSH3 0x4F6 DUP10 DUP3 DUP11 ADD PUSH3 0x3F3 JUMP JUMPDEST SWAP2 POP POP SWAP3 SWAP6 POP SWAP3 SWAP6 POP SWAP3 SWAP6 JUMP JUMPDEST PUSH32 0x4E487B7100000000000000000000000000000000000000000000000000000000 PUSH1 0x0 MSTORE PUSH1 0x22 PUSH1 0x4 MSTORE PUSH1 0x24 PUSH1 0x0 REVERT JUMPDEST PUSH1 0x0 PUSH1 0x2 DUP3 DIV SWAP1 POP PUSH1 0x1 DUP3 AND DUP1 PUSH3 0x54B JUMPI PUSH1 0x7F DUP3 AND SWAP2 POP JUMPDEST PUSH1 0x20 DUP3 LT DUP2 EQ ISZERO PUSH3 0x562 JUMPI PUSH3 0x561 PUSH3 0x503 JUMP JUMPDEST JUMPDEST POP SWAP2 SWAP1 POP JUMP JUMPDEST PUSH2 0x2F70 DUP1 PUSH3 0x578 PUSH1 0x0 CODECOPY PUSH1 0x0 RETURN INVALID PUSH1 0x80 PUSH1 0x40 MSTORE CALLVALUE DUP1 ISZERO PUSH2 0x10 JUMPI PUSH1 0x0 DUP1 REVERT JUMPDEST POP PUSH1 0x4 CALLDATASIZE LT PUSH2 0x14D JUMPI PUSH1 0x0 CALLDATALOAD PUSH1 0xE0 SHR DUP1 PUSH4 0x94FB3DA7 GT PUSH2 0xC3 JUMPI DUP1 PUSH4 0xE3D77ABA GT PUSH2 0x7C JUMPI DUP1 PUSH4 0xE3D77ABA EQ PUSH2 0x375 JUMPI DUP1 PUSH4 0xEDA3467C EQ PUSH2 0x391 JUMPI DUP1 PUSH4 0xF007B4C4 EQ PUSH2 0x3AD JUMPI DUP1 PUSH4 0xF1D9EFB2 EQ PUSH2 0x3C9 JUMPI DUP1 PUSH4 0xFC017F25 EQ PUSH2 0x3E5 JUMPI DUP1 PUSH4 0xFEE7989E EQ PUSH2 0x401 JUMPI PUSH2 0x14D JUMP JUMPDEST DUP1 PUSH4 0x94FB3DA7 EQ PUSH2 0x2BB JUMPI DUP1 PUSH4 0x9C13C7C8 EQ PUSH2 0x2D9 JUMPI DUP1 PUSH4 0xA1E68C52 EQ PUSH2 0x2E3 JUMPI DUP1 PUSH4 0xD57E0AD6 EQ PUSH2 0x305 JUMPI DUP1 PUSH4 0xDEBBB1C1 EQ PUSH2 0x33B JUMPI DUP1 PUSH4 0xE2601751 EQ PUSH2 0x359 JUMPI PUSH2 0x14D JUMP JUMPDEST DUP1 PUSH4 0x444FC662 GT PUSH2 0x115 JUMPI DUP1 PUSH4 0x444FC662 EQ PUSH2 0x1F6 JUMPI DUP1 PUSH4 0x44AFD134 EQ PUSH2 0x22B JUMPI DUP1 PUSH4 0x52DBD3C0 EQ PUSH2 0x249 JUMPI DUP1 PUSH4 0x769313FC EQ PUSH2 0x265 JUMPI DUP1 PUSH4 0x7C4C7430 EQ PUSH2 0x283 JUMPI DUP1 PUSH4 0x84C79120 EQ PUSH2 0x29F JUMPI PUSH2 0x14D JUMP JUMPDEST DUP1 PUSH4 0x5F53B29 EQ PUSH2 0x152 JUMPI DUP1 PUSH4 0x1B258FC0 EQ PUSH2 0x170 JUMPI DUP1 PUSH4 0x1E9F006A EQ PUSH2 0x1A0 JUMPI DUP1 PUSH4 0x2186879C EQ PUSH2 0x1BE JUMPI DUP1 PUSH4 0x24EEC41A EQ PUSH2 0x1DA JUMPI JUMPDEST PUSH1 0x0 DUP1 REVERT JUMPDEST PUSH2 0x15A PUSH2 0x435 JUMP JUMPDEST PUSH1 0x40 MLOAD PUSH2 0x167 SWAP2 SWAP1 PUSH2 0x2434 JUMP JUMPDEST PUSH1 0x40 MLOAD DUP1 SWAP2 SUB SWAP1 RETURN JUMPDEST PUSH2 0x18A PUSH1 0x4 DUP1 CALLDATASIZE SUB DUP2 ADD SWAP1 PUSH2 0x185 SWAP2 SWAP1 PUSH2 0x248F JUMP JUMPDEST PUSH2 0x442 JUMP JUMPDEST PUSH1 0x40 MLOAD PUSH2 0x197 SWAP2 SWAP1 PUSH2 0x24FD JUMP JUMPDEST PUSH1 0x40 MLOAD DUP1 SWAP2 SUB SWAP1 RETURN JUMPDEST PUSH2 0x1A8 PUSH2 0x481 JUMP JUMPDEST PUSH1 0x40 MLOAD PUSH2 0x1B5 SWAP2 SWAP1 PUSH2 0x2577 JUMP JUMPDEST PUSH1 0x40 MLOAD DUP1 SWAP2 SUB SWAP1 RETURN JUMPDEST PUSH2 0x1D8 PUSH1 0x4 DUP1 CALLDATASIZE SUB DUP2 ADD SWAP1 PUSH2 0x1D3 SWAP2 SWAP1 PUSH2 0x26D8 JUMP JUMPDEST PUSH2 0x4A7 JUMP JUMPDEST STOP JUMPDEST PUSH2 0x1F4 PUSH1 0x4 DUP1 CALLDATASIZE SUB DUP2 ADD SWAP1 PUSH2 0x1EF SWAP2 SWAP1 PUSH2 0x2721 JUMP JUMPDEST PUSH2 0x5A0 JUMP JUMPDEST STOP JUMPDEST PUSH2 0x210 PUSH1 0x4 DUP1 CALLDATASIZE SUB DUP2 ADD SWAP1 PUSH2 0x20B SWAP2 SWAP1 PUSH2 0x248F JUMP JUMPDEST PUSH2 0x7D2 JUMP JUMPDEST PUSH1 0x40 MLOAD PUSH2 0x222 SWAP7 SWAP6 SWAP5 SWAP4 SWAP3 SWAP2 SWAP1 PUSH2 0x286B JUMP JUMPDEST PUSH1 0x40 MLOAD DUP1 SWAP2 SUB SWAP1 RETURN JUMPDEST PUSH2 0x233 PUSH2 0x8A0 JUMP JUMPDEST PUSH1 0x40 MLOAD PUSH2 0x240 SWAP2 SWAP1 PUSH2 0x2434 JUMP JUMPDEST PUSH1 0x40 MLOAD DUP1 SWAP2 SUB SWAP1 RETURN JUMPDEST PUSH2 0x263 PUSH1 0x4 DUP1 CALLDATASIZE SUB DUP2 ADD SWAP1 PUSH2 0x25E SWAP2 SWAP1 PUSH2 0x290D JUMP JUMPDEST PUSH2 0x8AD JUMP JUMPDEST STOP JUMPDEST PUSH2 0x26D PUSH2 0x9A5 JUMP JUMPDEST PUSH1 0x40 MLOAD PUSH2 0x27A SWAP2 SWAP1 PUSH2 0x24FD JUMP JUMPDEST PUSH1 0x40 MLOAD DUP1 SWAP2 SUB SWAP1 RETURN JUMPDEST PUSH2 0x29D PUSH1 0x4 DUP1 CALLDATASIZE SUB DUP2 ADD SWAP1 PUSH2 0x298 SWAP2 SWAP1 PUSH2 0x293A JUMP JUMPDEST PUSH2 0x9CB JUMP JUMPDEST STOP JUMPDEST PUSH2 0x2B9 PUSH1 0x4 DUP1 CALLDATASIZE SUB DUP2 ADD SWAP1 PUSH2 0x2B4 SWAP2 SWAP1 PUSH2 0x26D8 JUMP JUMPDEST PUSH2 0xBF2 JUMP JUMPDEST STOP JUMPDEST PUSH2 0x2C3 PUSH2 0xCA8 JUMP JUMPDEST PUSH1 0x40 MLOAD PUSH2 0x2D0 SWAP2 SWAP1 PUSH2 0x2434 JUMP JUMPDEST PUSH1 0x40 MLOAD DUP1 SWAP2 SUB SWAP1 RETURN JUMPDEST PUSH2 0x2E1 PUSH2 0xCB5 JUMP JUMPDEST STOP JUMPDEST PUSH2 0x2EB PUSH2 0xD53 JUMP JUMPDEST PUSH1 0x40 MLOAD PUSH2 0x2FC SWAP6 SWAP5 SWAP4 SWAP3 SWAP2 SWAP1 PUSH2 0x29C5 JUMP JUMPDEST PUSH1 0x40 MLOAD DUP1 SWAP2 SUB SWAP1 RETURN JUMPDEST PUSH2 0x31F PUSH1 0x4 DUP1 CALLDATASIZE SUB DUP2 ADD SWAP1 PUSH2 0x31A SWAP2 SWAP1 PUSH2 0x248F JUMP JUMPDEST PUSH2 0xF3C JUMP JUMPDEST PUSH1 0x40 MLOAD PUSH2 0x332 SWAP8 SWAP7 SWAP6 SWAP5 SWAP4 SWAP3 SWAP2 SWAP1 PUSH2 0x2A2D JUMP JUMPDEST PUSH1 0x40 MLOAD DUP1 SWAP2 SUB SWAP1 RETURN JUMPDEST PUSH2 0x343 PUSH2 0xFA9 JUMP JUMPDEST PUSH1 0x40 MLOAD PUSH2 0x350 SWAP2 SWAP1 PUSH2 0x2AD9 JUMP JUMPDEST PUSH1 0x40 MLOAD DUP1 SWAP2 SUB SWAP1 RETURN JUMPDEST PUSH2 0x373 PUSH1 0x4 DUP1 CALLDATASIZE SUB DUP2 ADD SWAP1 PUSH2 0x36E SWAP2 SWAP1 PUSH2 0x290D JUMP JUMPDEST PUSH2 0xFCF JUMP JUMPDEST STOP JUMPDEST PUSH2 0x38F PUSH1 0x4 DUP1 CALLDATASIZE SUB DUP2 ADD SWAP1 PUSH2 0x38A SWAP2 SWAP1 PUSH2 0x290D JUMP JUMPDEST PUSH2 0x10BB JUMP JUMPDEST STOP JUMPDEST PUSH2 0x3AB PUSH1 0x4 DUP1 CALLDATASIZE SUB DUP2 ADD SWAP1 PUSH2 0x3A6 SWAP2 SWAP1 PUSH2 0x26D8 JUMP JUMPDEST PUSH2 0x12A5 JUMP JUMPDEST STOP JUMPDEST PUSH2 0x3C7 PUSH1 0x4 DUP1 CALLDATASIZE SUB DUP2 ADD SWAP1 PUSH2 0x3C2 SWAP2 SWAP1 PUSH2 0x2AF4 JUMP JUMPDEST PUSH2 0x139E JUMP JUMPDEST STOP JUMPDEST PUSH2 0x3E3 PUSH1 0x4 DUP1 CALLDATASIZE SUB DUP2 ADD SWAP1 PUSH2 0x3DE SWAP2 SWAP1 PUSH2 0x2B6C JUMP JUMPDEST PUSH2 0x14BF JUMP JUMPDEST STOP JUMPDEST PUSH2 0x3FF PUSH1 0x4 DUP1 CALLDATASIZE SUB DUP2 ADD SWAP1 PUSH2 0x3FA SWAP2 SWAP1 PUSH2 0x2721 JUMP JUMPDEST PUSH2 0x1799 JUMP JUMPDEST STOP JUMPDEST PUSH2 0x41B PUSH1 0x4 DUP1 CALLDATASIZE SUB DUP2 ADD SWAP1 PUSH2 0x416 SWAP2 SWAP1 PUSH2 0x248F JUMP JUMPDEST PUSH2 0x1871 JUMP JUMPDEST PUSH1 0x40 MLOAD PUSH2 0x42C SWAP6 SWAP5 SWAP4 SWAP3 SWAP2 SWAP1 PUSH2 0x2C57 JUMP JUMPDEST PUSH1 0x40 MLOAD DUP1 SWAP2 SUB SWAP1 RETURN JUMPDEST PUSH1 0x0 PUSH1 0xE DUP1 SLOAD SWAP1 POP SWAP1 POP SWAP1 JUMP JUMPDEST PUSH1 0x8 DUP2 DUP2 SLOAD DUP2 LT PUSH2 0x452 JUMPI PUSH1 0x0 DUP1 REVERT JUMPDEST SWAP1 PUSH1 0x0 MSTORE PUSH1 0x20 PUSH1 0x0 KECCAK256 ADD PUSH1 0x0 SWAP2 POP SLOAD SWAP1 PUSH2 0x100 EXP SWAP1 DIV PUSH20 0xFFFFFFFFFFFFFFFFFFFFFFFFFFFFFFFFFFFFFFFF AND DUP2 JUMP JUMPDEST PUSH1 0x6 PUSH1 0x0 SWAP1 SLOAD SWAP1 PUSH2 0x100 EXP SWAP1 DIV PUSH20 0xFFFFFFFFFFFFFFFFFFFFFFFFFFFFFFFFFFFFFFFF AND DUP2 JUMP JUMPDEST PUSH1 0x0 DUP1 SLOAD SWAP1 PUSH2 0x100 EXP SWAP1 DIV PUSH20 0xFFFFFFFFFFFFFFFFFFFFFFFFFFFFFFFFFFFFFFFF AND PUSH20 0xFFFFFFFFFFFFFFFFFFFFFFFFFFFFFFFFFFFFFFFF AND CALLER PUSH20 0xFFFFFFFFFFFFFFFFFFFFFFFFFFFFFFFFFFFFFFFF AND EQ PUSH2 0x535 JUMPI PUSH1 0x40 MLOAD PUSH32 0x8C379A000000000000000000000000000000000000000000000000000000000 DUP2 MSTORE PUSH1 0x4 ADD PUSH2 0x52C SWAP1 PUSH2 0x2D04 JUMP JUMPDEST PUSH1 0x40 MLOAD DUP1 SWAP2 SUB SWAP1 REVERT JUMPDEST PUSH1 0x9 DUP2 PUSH1 0x40 MLOAD PUSH2 0x545 SWAP2 SWAP1 PUSH2 0x2D60 JUMP JUMPDEST SWAP1 DUP2 MSTORE PUSH1 0x20 ADD PUSH1 0x40 MLOAD DUP1 SWAP2 SUB SWAP1 KECCAK256 PUSH1 0x3 ADD PUSH1 0x1 SWAP1 SLOAD SWAP1 PUSH2 0x100 EXP SWAP1 DIV PUSH1 0xFF AND ISZERO PUSH1 0x9 DUP3 PUSH1 0x40 MLOAD PUSH2 0x575 SWAP2 SWAP1 PUSH2 0x2D60 JUMP JUMPDEST SWAP1 DUP2 MSTORE PUSH1 0x20 ADD PUSH1 0x40 MLOAD DUP1 SWAP2 SUB SWAP1 KECCAK256 PUSH1 0x3 ADD PUSH1 0x1 PUSH2 0x100 EXP DUP2 SLOAD DUP2 PUSH1 0xFF MUL NOT AND SWAP1 DUP4 ISZERO ISZERO MUL OR SWAP1 SSTORE POP POP JUMP JUMPDEST PUSH1 0x0 DUP1 SLOAD SWAP1 PUSH2 0x100 EXP SWAP1 DIV PUSH20 0xFFFFFFFFFFFFFFFFFFFFFFFFFFFFFFFFFFFFFFFF AND PUSH20 0xFFFFFFFFFFFFFFFFFFFFFFFFFFFFFFFFFFFFFFFF AND CALLER PUSH20 0xFFFFFFFFFFFFFFFFFFFFFFFFFFFFFFFFFFFFFFFF AND EQ PUSH2 0x62E JUMPI PUSH1 0x40 MLOAD PUSH32 0x8C379A000000000000000000000000000000000000000000000000000000000 DUP2 MSTORE PUSH1 0x4 ADD PUSH2 0x625 SWAP1 PUSH2 0x2D04 JUMP JUMPDEST PUSH1 0x40 MLOAD DUP1 SWAP2 SUB SWAP1 REVERT JUMPDEST PUSH2 0x636 PUSH2 0x2279 JUMP JUMPDEST DUP4 DUP2 PUSH1 0x0 ADD DUP2 SWAP1 MSTORE POP DUP3 DUP2 PUSH1 0x20 ADD DUP2 SWAP1 MSTORE POP DUP2 DUP2 PUSH1 0x40 ADD DUP2 SWAP1 MSTORE POP PUSH1 0x0 DUP2 PUSH1 0x60 ADD SWAP1 ISZERO ISZERO SWAP1 DUP2 ISZERO ISZERO DUP2 MSTORE POP POP PUSH1 0x1 DUP2 PUSH1 0xC0 ADD SWAP1 ISZERO ISZERO SWAP1 DUP2 ISZERO ISZERO DUP2 MSTORE POP POP DUP1 PUSH1 0xD DUP6 PUSH1 0x40 MLOAD PUSH2 0x684 SWAP2 SWAP1 PUSH2 0x2D60 JUMP JUMPDEST SWAP1 DUP2 MSTORE PUSH1 0x20 ADD PUSH1 0x40 MLOAD DUP1 SWAP2 SUB SWAP1 KECCAK256 PUSH1 0x0 DUP3 ADD MLOAD DUP2 PUSH1 0x0 ADD SWAP1 DUP1 MLOAD SWAP1 PUSH1 0x20 ADD SWAP1 PUSH2 0x6AE SWAP3 SWAP2 SWAP1 PUSH2 0x22D0 JUMP JUMPDEST POP PUSH1 0x20 DUP3 ADD MLOAD DUP2 PUSH1 0x1 ADD SWAP1 DUP1 MLOAD SWAP1 PUSH1 0x20 ADD SWAP1 PUSH2 0x6CB SWAP3 SWAP2 SWAP1 PUSH2 0x22D0 JUMP JUMPDEST POP PUSH1 0x40 DUP3 ADD MLOAD DUP2 PUSH1 0x2 ADD SWAP1 DUP1 MLOAD SWAP1 PUSH1 0x20 ADD SWAP1 PUSH2 0x6E8 SWAP3 SWAP2 SWAP1 PUSH2 0x22D0 JUMP JUMPDEST POP PUSH1 0x60 DUP3 ADD MLOAD DUP2 PUSH1 0x3 ADD PUSH1 0x0 PUSH2 0x100 EXP DUP2 SLOAD DUP2 PUSH1 0xFF MUL NOT AND SWAP1 DUP4 ISZERO ISZERO MUL OR SWAP1 SSTORE POP PUSH1 0x80 DUP3 ADD MLOAD DUP2 PUSH1 0x3 ADD PUSH1 0x1 PUSH2 0x100 EXP DUP2 SLOAD DUP2 PUSH20 0xFFFFFFFFFFFFFFFFFFFFFFFFFFFFFFFFFFFFFFFF MUL NOT AND SWAP1 DUP4 PUSH20 0xFFFFFFFFFFFFFFFFFFFFFFFFFFFFFFFFFFFFFFFF AND MUL OR SWAP1 SSTORE POP PUSH1 0xA0 DUP3 ADD MLOAD DUP2 PUSH1 0x4 ADD SWAP1 DUP1 MLOAD SWAP1 PUSH1 0x20 ADD SWAP1 PUSH2 0x76C SWAP3 SWAP2 SWAP1 PUSH2 0x22D0 JUMP JUMPDEST POP PUSH1 0xC0 DUP3 ADD MLOAD DUP2 PUSH1 0x5 ADD PUSH1 0x0 PUSH2 0x100 EXP DUP2 SLOAD DUP2 PUSH1 0xFF MUL NOT AND SWAP1 DUP4 ISZERO ISZERO MUL OR SWAP1 SSTORE POP SWAP1 POP POP PUSH1 0xE DUP5 SWAP1 DUP1 PUSH1 0x1 DUP2 SLOAD ADD DUP1 DUP3 SSTORE DUP1 SWAP2 POP POP PUSH1 0x1 SWAP1 SUB SWAP1 PUSH1 0x0 MSTORE PUSH1 0x20 PUSH1 0x0 KECCAK256 ADD PUSH1 0x0 SWAP1 SWAP2 SWAP1 SWAP2 SWAP1 SWAP2 POP SWAP1 DUP1 MLOAD SWAP1 PUSH1 0x20 ADD SWAP1 PUSH2 0x7CB SWAP3 SWAP2 SWAP1 PUSH2 0x22D0 JUMP JUMPDEST POP POP POP POP POP JUMP JUMPDEST PUSH1 0x60 DUP1 PUSH1 0x0 DUP1 PUSH1 0x60 PUSH1 0x0 PUSH2 0x88B PUSH1 0xE DUP9 DUP2 SLOAD DUP2 LT PUSH2 0x7F3 JUMPI PUSH2 0x7F2 PUSH2 0x2D77 JUMP JUMPDEST JUMPDEST SWAP1 PUSH1 0x0 MSTORE PUSH1 0x20 PUSH1 0x0 KECCAK256 ADD DUP1 SLOAD PUSH2 0x808 SWAP1 PUSH2 0x2DD5 JUMP JUMPDEST DUP1 PUSH1 0x1F ADD PUSH1 0x20 DUP1 SWAP2 DIV MUL PUSH1 0x20 ADD PUSH1 0x40 MLOAD SWAP1 DUP2 ADD PUSH1 0x40 MSTORE DUP1 SWAP3 SWAP2 SWAP1 DUP2 DUP2 MSTORE PUSH1 0x20 ADD DUP3 DUP1 SLOAD PUSH2 0x834 SWAP1 PUSH2 0x2DD5 JUMP JUMPDEST DUP1 ISZERO PUSH2 0x881 JUMPI DUP1 PUSH1 0x1F LT PUSH2 0x856 JUMPI PUSH2 0x100 DUP1 DUP4 SLOAD DIV MUL DUP4 MSTORE SWAP2 PUSH1 0x20 ADD SWAP2 PUSH2 0x881 JUMP JUMPDEST DUP3 ADD SWAP2 SWAP1 PUSH1 0x0 MSTORE PUSH1 0x20 PUSH1 0x0 KECCAK256 SWAP1 JUMPDEST DUP2 SLOAD DUP2 MSTORE SWAP1 PUSH1 0x1 ADD SWAP1 PUSH1 0x20 ADD DUP1 DUP4 GT PUSH2 0x864 JUMPI DUP3 SWAP1 SUB PUSH1 0x1F AND DUP3 ADD SWAP2 JUMPDEST POP POP POP POP POP PUSH2 0x193C JUMP JUMPDEST SWAP6 POP SWAP6 POP SWAP6 POP SWAP6 POP SWAP6 POP SWAP6 POP SWAP2 SWAP4 SWAP6 POP SWAP2 SWAP4 SWAP6 JUMP JUMPDEST PUSH1 0x0 PUSH1 0xA DUP1 SLOAD SWAP1 POP SWAP1 POP SWAP1 JUMP JUMPDEST PUSH1 0xB PUSH1 0x0 DUP3 PUSH20 0xFFFFFFFFFFFFFFFFFFFFFFFFFFFFFFFFFFFFFFFF AND PUSH20 0xFFFFFFFFFFFFFFFFFFFFFFFFFFFFFFFFFFFFFFFF AND DUP2 MSTORE PUSH1 0x20 ADD SWAP1 DUP2 MSTORE PUSH1 0x20 ADD PUSH1 0x0 KECCAK256 PUSH1 0x1 ADD PUSH1 0x0 SWAP1 SLOAD SWAP1 PUSH2 0x100 EXP SWAP1 DIV PUSH20 0xFFFFFFFFFFFFFFFFFFFFFFFFFFFFFFFFFFFFFFFF AND PUSH20 0xFFFFFFFFFFFFFFFFFFFFFFFFFFFFFFFFFFFFFFFF AND CALLER PUSH20 0xFFFFFFFFFFFFFFFFFFFFFFFFFFFFFFFFFFFFFFFF AND EQ PUSH2 0x947 JUMPI PUSH1 0x0 DUP1 REVERT JUMPDEST PUSH1 0x1 PUSH1 0xB PUSH1 0x0 CALLER PUSH20 0xFFFFFFFFFFFFFFFFFFFFFFFFFFFFFFFFFFFFFFFF AND PUSH20 0xFFFFFFFFFFFFFFFFFFFFFFFFFFFFFFFFFFFFFFFF AND DUP2 MSTORE PUSH1 0x20 ADD SWAP1 DUP2 MSTORE PUSH1 0x20 ADD PUSH1 0x0 KECCAK256 PUSH1 0x5 ADD PUSH1 0x0 PUSH2 0x100 EXP DUP2 SLOAD DUP2 PUSH1 0xFF MUL NOT AND SWAP1 DUP4 ISZERO ISZERO MUL OR SWAP1 SSTORE POP POP JUMP JUMPDEST PUSH1 0x5 PUSH1 0x0 SWAP1 SLOAD SWAP1 PUSH2 0x100 EXP SWAP1 DIV PUSH20 0xFFFFFFFFFFFFFFFFFFFFFFFFFFFFFFFFFFFFFFFF AND DUP2 JUMP JUMPDEST PUSH1 0x0 DUP1 SLOAD SWAP1 PUSH2 0x100 EXP SWAP1 DIV PUSH20 0xFFFFFFFFFFFFFFFFFFFFFFFFFFFFFFFFFFFFFFFF AND PUSH20 0xFFFFFFFFFFFFFFFFFFFFFFFFFFFFFFFFFFFFFFFF AND CALLER PUSH20 0xFFFFFFFFFFFFFFFFFFFFFFFFFFFFFFFFFFFFFFFF AND EQ PUSH2 0xA59 JUMPI PUSH1 0x40 MLOAD PUSH32 0x8C379A000000000000000000000000000000000000000000000000000000000 DUP2 MSTORE PUSH1 0x4 ADD PUSH2 0xA50 SWAP1 PUSH2 0x2D04 JUMP JUMPDEST PUSH1 0x40 MLOAD DUP1 SWAP2 SUB SWAP1 REVERT JUMPDEST PUSH2 0xA61 PUSH2 0x2356 JUMP JUMPDEST DUP4 DUP2 PUSH1 0x0 ADD DUP2 SWAP1 MSTORE POP DUP3 DUP2 PUSH1 0x20 ADD SWAP1 PUSH20 0xFFFFFFFFFFFFFFFFFFFFFFFFFFFFFFFFFFFFFFFF AND SWAP1 DUP2 PUSH20 0xFFFFFFFFFFFFFFFFFFFFFFFFFFFFFFFFFFFFFFFF AND DUP2 MSTORE POP POP DUP2 DUP2 PUSH1 0x40 ADD DUP2 SWAP1 MSTORE POP PUSH1 0x0 DUP2 PUSH1 0x60 ADD SWAP1 ISZERO ISZERO SWAP1 DUP2 ISZERO ISZERO DUP2 MSTORE POP POP PUSH1 0x1 DUP2 PUSH1 0x80 ADD SWAP1 ISZERO ISZERO SWAP1 DUP2 ISZERO ISZERO DUP2 MSTORE POP POP DUP1 PUSH1 0x9 DUP4 PUSH1 0x40 MLOAD PUSH2 0xADE SWAP2 SWAP1 PUSH2 0x2D60 JUMP JUMPDEST SWAP1 DUP2 MSTORE PUSH1 0x20 ADD PUSH1 0x40 MLOAD DUP1 SWAP2 SUB SWAP1 KECCAK256 PUSH1 0x0 DUP3 ADD MLOAD DUP2 PUSH1 0x0 ADD SWAP1 DUP1 MLOAD SWAP1 PUSH1 0x20 ADD SWAP1 PUSH2 0xB08 SWAP3 SWAP2 SWAP1 PUSH2 0x22D0 JUMP JUMPDEST POP PUSH1 0x20 DUP3 ADD MLOAD DUP2 PUSH1 0x1 ADD PUSH1 0x0 PUSH2 0x100 EXP DUP2 SLOAD DUP2 PUSH20 0xFFFFFFFFFFFFFFFFFFFFFFFFFFFFFFFFFFFFFFFF MUL NOT AND SWAP1 DUP4 PUSH20 0xFFFFFFFFFFFFFFFFFFFFFFFFFFFFFFFFFFFFFFFF AND MUL OR SWAP1 SSTORE POP PUSH1 0x40 DUP3 ADD MLOAD DUP2 PUSH1 0x2 ADD SWAP1 DUP1 MLOAD SWAP1 PUSH1 0x20 ADD SWAP1 PUSH2 0xB6C SWAP3 SWAP2 SWAP1 PUSH2 0x22D0 JUMP JUMPDEST POP PUSH1 0x60 DUP3 ADD MLOAD DUP2 PUSH1 0x3 ADD PUSH1 0x0 PUSH2 0x100 EXP DUP2 SLOAD DUP2 PUSH1 0xFF MUL NOT AND SWAP1 DUP4 ISZERO ISZERO MUL OR SWAP1 SSTORE POP PUSH1 0x80 DUP3 ADD MLOAD DUP2 PUSH1 0x3 ADD PUSH1 0x1 PUSH2 0x100 EXP DUP2 SLOAD DUP2 PUSH1 0xFF MUL NOT AND SWAP1 DUP4 ISZERO ISZERO MUL OR SWAP1 SSTORE POP SWAP1 POP POP PUSH1 0xA DUP3 SWAP1 DUP1 PUSH1 0x1 DUP2 SLOAD ADD DUP1 DUP3 SSTORE DUP1 SWAP2 POP POP PUSH1 0x1 SWAP1 SUB SWAP1 PUSH1 0x0 MSTORE PUSH1 0x20 PUSH1 0x0 KECCAK256 ADD PUSH1 0x0 SWAP1 SWAP2 SWAP1 SWAP2 SWAP1 SWAP2 POP SWAP1 DUP1 MLOAD SWAP1 PUSH1 0x20 ADD SWAP1 PUSH2 0xBEB SWAP3 SWAP2 SWAP1 PUSH2 0x22D0 JUMP JUMPDEST POP POP POP POP POP JUMP JUMPDEST PUSH1 0x9 DUP2 PUSH1 0x40 MLOAD PUSH2 0xC02 SWAP2 SWAP1 PUSH2 0x2D60 JUMP JUMPDEST SWAP1 DUP2 MSTORE PUSH1 0x20 ADD PUSH1 0x40 MLOAD DUP1 SWAP2 SUB SWAP1 KECCAK256 PUSH1 0x1 ADD PUSH1 0x0 SWAP1 SLOAD SWAP1 PUSH2 0x100 EXP SWAP1 DIV PUSH20 0xFFFFFFFFFFFFFFFFFFFFFFFFFFFFFFFFFFFFFFFF AND PUSH20 0xFFFFFFFFFFFFFFFFFFFFFFFFFFFFFFFFFFFFFFFF AND CALLER PUSH20 0xFFFFFFFFFFFFFFFFFFFFFFFFFFFFFFFFFFFFFFFF AND EQ PUSH2 0xC6B JUMPI PUSH1 0x0 DUP1 REVERT JUMPDEST PUSH1 0x1 PUSH1 0x9 DUP3 PUSH1 0x40 MLOAD PUSH2 0xC7D SWAP2 SWAP1 PUSH2 0x2D60 JUMP JUMPDEST SWAP1 DUP2 MSTORE PUSH1 0x20 ADD PUSH1 0x40 MLOAD DUP1 SWAP2 SUB SWAP1 KECCAK256 PUSH1 0x3 ADD PUSH1 0x0 PUSH2 0x100 EXP DUP2 SLOAD DUP2 PUSH1 0xFF MUL NOT AND SWAP1 DUP4 ISZERO ISZERO MUL OR SWAP1 SSTORE POP POP JUMP JUMPDEST PUSH1 0x0 PUSH1 0xC DUP1 SLOAD SWAP1 POP SWAP1 POP SWAP1 JUMP JUMPDEST PUSH1 0x5 PUSH1 0x0 SWAP1 SLOAD SWAP1 PUSH2 0x100 EXP SWAP1 DIV PUSH20 0xFFFFFFFFFFFFFFFFFFFFFFFFFFFFFFFFFFFFFFFF AND PUSH20 0xFFFFFFFFFFFFFFFFFFFFFFFFFFFFFFFFFFFFFFFF AND CALLER PUSH20 0xFFFFFFFFFFFFFFFFFFFFFFFFFFFFFFFFFFFFFFFF AND EQ PUSH2 0xD0F JUMPI PUSH1 0x0 DUP1 REVERT JUMPDEST PUSH1 0x0 PUSH1 0x5 PUSH1 0x0 PUSH2 0x100 EXP DUP2 SLOAD DUP2 PUSH20 0xFFFFFFFFFFFFFFFFFFFFFFFFFFFFFFFFFFFFFFFF MUL NOT AND SWAP1 DUP4 PUSH20 0xFFFFFFFFFFFFFFFFFFFFFFFFFFFFFFFFFFFFFFFF AND MUL OR SWAP1 SSTORE POP JUMP JUMPDEST PUSH1 0x0 PUSH1 0x60 DUP1 PUSH1 0x60 PUSH1 0x0 DUP1 PUSH1 0x0 SWAP1 SLOAD SWAP1 PUSH2 0x100 EXP SWAP1 DIV PUSH20 0xFFFFFFFFFFFFFFFFFFFFFFFFFFFFFFFFFFFFFFFF AND PUSH1 0x4 PUSH1 0x1 PUSH1 0x2 PUSH1 0x3 SLOAD DUP4 DUP1 SLOAD PUSH2 0xD93 SWAP1 PUSH2 0x2DD5 JUMP JUMPDEST DUP1 PUSH1 0x1F ADD PUSH1 0x20 DUP1 SWAP2 DIV MUL PUSH1 0x20 ADD PUSH1 0x40 MLOAD SWAP1 DUP2 ADD PUSH1 0x40 MSTORE DUP1 SWAP3 SWAP2 SWAP1 DUP2 DUP2 MSTORE PUSH1 0x20 ADD DUP3 DUP1 SLOAD PUSH2 0xDBF SWAP1 PUSH2 0x2DD5 JUMP JUMPDEST DUP1 ISZERO PUSH2 0xE0C JUMPI DUP1 PUSH1 0x1F LT PUSH2 0xDE1 JUMPI PUSH2 0x100 DUP1 DUP4 SLOAD DIV MUL DUP4 MSTORE SWAP2 PUSH1 0x20 ADD SWAP2 PUSH2 0xE0C JUMP JUMPDEST DUP3 ADD SWAP2 SWAP1 PUSH1 0x0 MSTORE PUSH1 0x20 PUSH1 0x0 KECCAK256 SWAP1 JUMPDEST DUP2 SLOAD DUP2 MSTORE SWAP1 PUSH1 0x1 ADD SWAP1 PUSH1 0x20 ADD DUP1 DUP4 GT PUSH2 0xDEF JUMPI DUP3 SWAP1 SUB PUSH1 0x1F AND DUP3 ADD SWAP2 JUMPDEST POP POP POP POP POP SWAP4 POP DUP3 DUP1 SLOAD PUSH2 0xE1F SWAP1 PUSH2 0x2DD5 JUMP JUMPDEST DUP1 PUSH1 0x1F ADD PUSH1 0x20 DUP1 SWAP2 DIV MUL PUSH1 0x20 ADD PUSH1 0x40 MLOAD SWAP1 DUP2 ADD PUSH1 0x40 MSTORE DUP1 SWAP3 SWAP2 SWAP1 DUP2 DUP2 MSTORE PUSH1 0x20 ADD DUP3 DUP1 SLOAD PUSH2 0xE4B SWAP1 PUSH2 0x2DD5 JUMP JUMPDEST DUP1 ISZERO PUSH2 0xE98 JUMPI DUP1 PUSH1 0x1F LT PUSH2 0xE6D JUMPI PUSH2 0x100 DUP1 DUP4 SLOAD DIV MUL DUP4 MSTORE SWAP2 PUSH1 0x20 ADD SWAP2 PUSH2 0xE98 JUMP JUMPDEST DUP3 ADD SWAP2 SWAP1 PUSH1 0x0 MSTORE PUSH1 0x20 PUSH1 0x0 KECCAK256 SWAP1 JUMPDEST DUP2 SLOAD DUP2 MSTORE SWAP1 PUSH1 0x1 ADD SWAP1 PUSH1 0x20 ADD DUP1 DUP4 GT PUSH2 0xE7B JUMPI DUP3 SWAP1 SUB PUSH1 0x1F AND DUP3 ADD SWAP2 JUMPDEST POP POP POP POP POP SWAP3 POP DUP2 DUP1 SLOAD PUSH2 0xEAB SWAP1 PUSH2 0x2DD5 JUMP JUMPDEST DUP1 PUSH1 0x1F ADD PUSH1 0x20 DUP1 SWAP2 DIV MUL PUSH1 0x20 ADD PUSH1 0x40 MLOAD SWAP1 DUP2 ADD PUSH1 0x40 MSTORE DUP1 SWAP3 SWAP2 SWAP1 DUP2 DUP2 MSTORE PUSH1 0x20 ADD DUP3 DUP1 SLOAD PUSH2 0xED7 SWAP1 PUSH2 0x2DD5 JUMP JUMPDEST DUP1 ISZERO PUSH2 0xF24 JUMPI DUP1 PUSH1 0x1F LT PUSH2 0xEF9 JUMPI PUSH2 0x100 DUP1 DUP4 SLOAD DIV MUL DUP4 MSTORE SWAP2 PUSH1 0x20 ADD SWAP2 PUSH2 0xF24 JUMP JUMPDEST DUP3 ADD SWAP2 SWAP1 PUSH1 0x0 MSTORE PUSH1 0x20 PUSH1 0x0 KECCAK256 SWAP1 JUMPDEST DUP2 SLOAD DUP2 MSTORE SWAP1 PUSH1 0x1 ADD SWAP1 PUSH1 0x20 ADD DUP1 DUP4 GT PUSH2 0xF07 JUMPI DUP3 SWAP1 SUB PUSH1 0x1F AND DUP3 ADD SWAP2 JUMPDEST POP POP POP POP POP SWAP2 POP SWAP5 POP SWAP5 POP SWAP5 POP SWAP5 POP SWAP5 POP SWAP1 SWAP2 SWAP3 SWAP4 SWAP5 JUMP JUMPDEST PUSH1 0x60 PUSH1 0x0 PUSH1 0x60 DUP1 PUSH1 0x0 PUSH1 0x60 PUSH1 0x0 PUSH2 0xF90 PUSH1 0xC DUP10 DUP2 SLOAD DUP2 LT PUSH2 0xF60 JUMPI PUSH2 0xF5F PUSH2 0x2D77 JUMP JUMPDEST JUMPDEST SWAP1 PUSH1 0x0 MSTORE PUSH1 0x20 PUSH1 0x0 KECCAK256 ADD PUSH1 0x0 SWAP1 SLOAD SWAP1 PUSH2 0x100 EXP SWAP1 DIV PUSH20 0xFFFFFFFFFFFFFFFFFFFFFFFFFFFFFFFFFFFFFFFF AND PUSH2 0x1C02 JUMP JUMPDEST SWAP7 POP SWAP7 POP SWAP7 POP SWAP7 POP SWAP7 POP SWAP7 POP SWAP7 POP SWAP2 SWAP4 SWAP6 SWAP8 SWAP1 SWAP3 SWAP5 SWAP7 POP JUMP JUMPDEST PUSH1 0x7 PUSH1 0x0 SWAP1 SLOAD SWAP1 PUSH2 0x100 EXP SWAP1 DIV PUSH20 0xFFFFFFFFFFFFFFFFFFFFFFFFFFFFFFFFFFFFFFFF AND DUP2 JUMP JUMPDEST PUSH1 0x0 DUP1 SLOAD SWAP1 PUSH2 0x100 EXP SWAP1 DIV PUSH20 0xFFFFFFFFFFFFFFFFFFFFFFFFFFFFFFFFFFFFFFFF AND PUSH20 0xFFFFFFFFFFFFFFFFFFFFFFFFFFFFFFFFFFFFFFFF AND CALLER PUSH20 0xFFFFFFFFFFFFFFFFFFFFFFFFFFFFFFFFFFFFFFFF AND EQ PUSH2 0x105D JUMPI PUSH1 0x40 MLOAD PUSH32 0x8C379A000000000000000000000000000000000000000000000000000000000 DUP2 MSTORE PUSH1 0x4 ADD PUSH2 0x1054 SWAP1 PUSH2 0x2D04 JUMP JUMPDEST PUSH1 0x40 MLOAD DUP1 SWAP2 SUB SWAP1 REVERT JUMPDEST PUSH1 0x0 PUSH1 0xB PUSH1 0x0 DUP4 PUSH20 0xFFFFFFFFFFFFFFFFFFFFFFFFFFFFFFFFFFFFFFFF AND PUSH20 0xFFFFFFFFFFFFFFFFFFFFFFFFFFFFFFFFFFFFFFFF AND DUP2 MSTORE PUSH1 0x20 ADD SWAP1 DUP2 MSTORE PUSH1 0x20 ADD PUSH1 0x0 KECCAK256 PUSH1 0x7 ADD PUSH1 0x0 PUSH2 0x100 EXP DUP2 SLOAD DUP2 PUSH1 0xFF MUL NOT AND SWAP1 DUP4 ISZERO ISZERO MUL OR SWAP1 SSTORE POP POP JUMP JUMPDEST PUSH1 0x0 PUSH20 0xFFFFFFFFFFFFFFFFFFFFFFFFFFFFFFFFFFFFFFFF AND PUSH1 0x7 PUSH1 0x0 SWAP1 SLOAD SWAP1 PUSH2 0x100 EXP SWAP1 DIV PUSH20 0xFFFFFFFFFFFFFFFFFFFFFFFFFFFFFFFFFFFFFFFF AND PUSH20 0xFFFFFFFFFFFFFFFFFFFFFFFFFFFFFFFFFFFFFFFF AND PUSH4 0x839F602D CALLER PUSH1 0x40 MLOAD DUP3 PUSH4 0xFFFFFFFF AND PUSH1 0xE0 SHL DUP2 MSTORE PUSH1 0x4 ADD PUSH2 0x112E SWAP2 SWAP1 PUSH2 0x24FD JUMP JUMPDEST PUSH1 0x20 PUSH1 0x40 MLOAD DUP1 DUP4 SUB DUP2 DUP7 GAS STATICCALL ISZERO DUP1 ISZERO PUSH2 0x114B JUMPI RETURNDATASIZE PUSH1 0x0 DUP1 RETURNDATACOPY RETURNDATASIZE PUSH1 0x0 REVERT JUMPDEST POP POP POP POP PUSH1 0x40 MLOAD RETURNDATASIZE PUSH1 0x1F NOT PUSH1 0x1F DUP3 ADD AND DUP3 ADD DUP1 PUSH1 0x40 MSTORE POP DUP2 ADD SWAP1 PUSH2 0x116F SWAP2 SWAP1 PUSH2 0x2E1C JUMP JUMPDEST PUSH20 0xFFFFFFFFFFFFFFFFFFFFFFFFFFFFFFFFFFFFFFFF AND EQ ISZERO PUSH2 0x11C6 JUMPI PUSH1 0x40 MLOAD PUSH32 0x8C379A000000000000000000000000000000000000000000000000000000000 DUP2 MSTORE PUSH1 0x4 ADD PUSH2 0x11BD SWAP1 PUSH2 0x2E95 JUMP JUMPDEST PUSH1 0x40 MLOAD DUP1 SWAP2 SUB SWAP1 REVERT JUMPDEST DUP1 PUSH20 0xFFFFFFFFFFFFFFFFFFFFFFFFFFFFFFFFFFFFFFFF AND CALLER PUSH20 0xFFFFFFFFFFFFFFFFFFFFFFFFFFFFFFFFFFFFFFFF AND EQ PUSH2 0x11FE JUMPI PUSH1 0x0 DUP1 REVERT JUMPDEST PUSH1 0x8 DUP2 SWAP1 DUP1 PUSH1 0x1 DUP2 SLOAD ADD DUP1 DUP3 SSTORE DUP1 SWAP2 POP POP PUSH1 0x1 SWAP1 SUB SWAP1 PUSH1 0x0 MSTORE PUSH1 0x20 PUSH1 0x0 KECCAK256 ADD PUSH1 0x0 SWAP1 SWAP2 SWAP1 SWAP2 SWAP1 SWAP2 PUSH2 0x100 EXP DUP2 SLOAD DUP2 PUSH20 0xFFFFFFFFFFFFFFFFFFFFFFFFFFFFFFFFFFFFFFFF MUL NOT AND SWAP1 DUP4 PUSH20 0xFFFFFFFFFFFFFFFFFFFFFFFFFFFFFFFFFFFFFFFF AND MUL OR SWAP1 SSTORE POP DUP1 PUSH1 0x5 PUSH1 0x0 PUSH2 0x100 EXP DUP2 SLOAD DUP2 PUSH20 0xFFFFFFFFFFFFFFFFFFFFFFFFFFFFFFFFFFFFFFFF MUL NOT AND SWAP1 DUP4 PUSH20 0xFFFFFFFFFFFFFFFFFFFFFFFFFFFFFFFFFFFFFFFF AND MUL OR SWAP1 SSTORE POP POP JUMP JUMPDEST PUSH1 0x0 DUP1 SLOAD SWAP1 PUSH2 0x100 EXP SWAP1 DIV PUSH20 0xFFFFFFFFFFFFFFFFFFFFFFFFFFFFFFFFFFFFFFFF AND PUSH20 0xFFFFFFFFFFFFFFFFFFFFFFFFFFFFFFFFFFFFFFFF AND CALLER PUSH20 0xFFFFFFFFFFFFFFFFFFFFFFFFFFFFFFFFFFFFFFFF AND EQ PUSH2 0x1333 JUMPI PUSH1 0x40 MLOAD PUSH32 0x8C379A000000000000000000000000000000000000000000000000000000000 DUP2 MSTORE PUSH1 0x4 ADD PUSH2 0x132A SWAP1 PUSH2 0x2D04 JUMP JUMPDEST PUSH1 0x40 MLOAD DUP1 SWAP2 SUB SWAP1 REVERT JUMPDEST PUSH1 0xD DUP2 PUSH1 0x40 MLOAD PUSH2 0x1343 SWAP2 SWAP1 PUSH2 0x2D60 JUMP JUMPDEST SWAP1 DUP2 MSTORE PUSH1 0x20 ADD PUSH1 0x40 MLOAD DUP1 SWAP2 SUB SWAP1 KECCAK256 PUSH1 0x5 ADD PUSH1 0x0 SWAP1 SLOAD SWAP1 PUSH2 0x100 EXP SWAP1 DIV PUSH1 0xFF AND ISZERO PUSH1 0xD DUP3 PUSH1 0x40 MLOAD PUSH2 0x1373 SWAP2 SWAP1 PUSH2 0x2D60 JUMP JUMPDEST SWAP1 DUP2 MSTORE PUSH1 0x20 ADD PUSH1 0x40 MLOAD DUP1 SWAP2 SUB SWAP1 KECCAK256 PUSH1 0x5 ADD PUSH1 0x0 PUSH2 0x100 EXP DUP2 SLOAD DUP2 PUSH1 0xFF MUL NOT AND SWAP1 DUP4 ISZERO ISZERO MUL OR SWAP1 SSTORE POP POP JUMP JUMPDEST PUSH1 0xD DUP3 PUSH1 0x40 MLOAD PUSH2 0x13AE SWAP2 SWAP1 PUSH2 0x2D60 JUMP JUMPDEST SWAP1 DUP2 MSTORE PUSH1 0x20 ADD PUSH1 0x40 MLOAD DUP1 SWAP2 SUB SWAP1 KECCAK256 PUSH1 0x5 ADD PUSH1 0x0 SWAP1 SLOAD SWAP1 PUSH2 0x100 EXP SWAP1 DIV PUSH1 0xFF AND PUSH2 0x13D6 JUMPI PUSH1 0x0 DUP1 REVERT JUMPDEST PUSH1 0x1 PUSH1 0x3 SLOAD PUSH2 0x13E5 SWAP2 SWAP1 PUSH2 0x2EE4 JUMP JUMPDEST PUSH1 0x3 DUP2 SWAP1 SSTORE POP PUSH1 0x1 PUSH1 0xD DUP4 PUSH1 0x40 MLOAD PUSH2 0x13FD SWAP2 SWAP1 PUSH2 0x2D60 JUMP JUMPDEST SWAP1 DUP2 MSTORE PUSH1 0x20 ADD PUSH1 0x40 MLOAD DUP1 SWAP2 SUB SWAP1 KECCAK256 PUSH1 0x3 ADD PUSH1 0x0 PUSH2 0x100 EXP DUP2 SLOAD DUP2 PUSH1 0xFF MUL NOT AND SWAP1 DUP4 ISZERO ISZERO MUL OR SWAP1 SSTORE POP CALLER PUSH1 0xD DUP4 PUSH1 0x40 MLOAD PUSH2 0x1436 SWAP2 SWAP1 PUSH2 0x2D60 JUMP JUMPDEST SWAP1 DUP2 MSTORE PUSH1 0x20 ADD PUSH1 0x40 MLOAD DUP1 SWAP2 SUB SWAP1 KECCAK256 PUSH1 0x3 ADD PUSH1 0x1 PUSH2 0x100 EXP DUP2 SLOAD DUP2 PUSH20 0xFFFFFFFFFFFFFFFFFFFFFFFFFFFFFFFFFFFFFFFF MUL NOT AND SWAP1 DUP4 PUSH20 0xFFFFFFFFFFFFFFFFFFFFFFFFFFFFFFFFFFFFFFFF AND MUL OR SWAP1 SSTORE POP DUP1 PUSH1 0xD DUP4 PUSH1 0x40 MLOAD PUSH2 0x1496 SWAP2 SWAP1 PUSH2 0x2D60 JUMP JUMPDEST SWAP1 DUP2 MSTORE PUSH1 0x20 ADD PUSH1 0x40 MLOAD DUP1 SWAP2 SUB SWAP1 KECCAK256 PUSH1 0x4 ADD SWAP1 DUP1 MLOAD SWAP1 PUSH1 0x20 ADD SWAP1 PUSH2 0x14BA SWAP3 SWAP2 SWAP1 PUSH2 0x22D0 JUMP JUMPDEST POP POP POP JUMP JUMPDEST PUSH1 0x0 DUP1 SLOAD SWAP1 PUSH2 0x100 EXP SWAP1 DIV PUSH20 0xFFFFFFFFFFFFFFFFFFFFFFFFFFFFFFFFFFFFFFFF AND PUSH20 0xFFFFFFFFFFFFFFFFFFFFFFFFFFFFFFFFFFFFFFFF AND CALLER PUSH20 0xFFFFFFFFFFFFFFFFFFFFFFFFFFFFFFFFFFFFFFFF AND EQ PUSH2 0x154D JUMPI PUSH1 0x40 MLOAD PUSH32 0x8C379A000000000000000000000000000000000000000000000000000000000 DUP2 MSTORE PUSH1 0x4 ADD PUSH2 0x1544 SWAP1 PUSH2 0x2D04 JUMP JUMPDEST PUSH1 0x40 MLOAD DUP1 SWAP2 SUB SWAP1 REVERT JUMPDEST PUSH2 0x1555 PUSH2 0x239F JUMP JUMPDEST DUP6 DUP2 PUSH1 0x0 ADD DUP2 SWAP1 MSTORE POP DUP5 DUP2 PUSH1 0x20 ADD SWAP1 PUSH20 0xFFFFFFFFFFFFFFFFFFFFFFFFFFFFFFFFFFFFFFFF AND SWAP1 DUP2 PUSH20 0xFFFFFFFFFFFFFFFFFFFFFFFFFFFFFFFFFFFFFFFF AND DUP2 MSTORE POP POP DUP4 DUP2 PUSH1 0x60 ADD DUP2 SWAP1 MSTORE POP DUP3 DUP2 PUSH1 0x80 ADD DUP2 SWAP1 MSTORE POP PUSH1 0x0 DUP2 PUSH1 0xA0 ADD SWAP1 ISZERO ISZERO SWAP1 DUP2 ISZERO ISZERO DUP2 MSTORE POP POP PUSH1 0x1 DUP2 PUSH1 0xE0 ADD SWAP1 ISZERO ISZERO SWAP1 DUP2 ISZERO ISZERO DUP2 MSTORE POP POP DUP2 DUP2 PUSH1 0xC0 ADD DUP2 SWAP1 MSTORE POP DUP1 PUSH1 0xB PUSH1 0x0 DUP8 PUSH20 0xFFFFFFFFFFFFFFFFFFFFFFFFFFFFFFFFFFFFFFFF AND PUSH20 0xFFFFFFFFFFFFFFFFFFFFFFFFFFFFFFFFFFFFFFFF AND DUP2 MSTORE PUSH1 0x20 ADD SWAP1 DUP2 MSTORE PUSH1 0x20 ADD PUSH1 0x0 KECCAK256 PUSH1 0x0 DUP3 ADD MLOAD DUP2 PUSH1 0x0 ADD SWAP1 DUP1 MLOAD SWAP1 PUSH1 0x20 ADD SWAP1 PUSH2 0x162F SWAP3 SWAP2 SWAP1 PUSH2 0x22D0 JUMP JUMPDEST POP PUSH1 0x20 DUP3 ADD MLOAD DUP2 PUSH1 0x1 ADD PUSH1 0x0 PUSH2 0x100 EXP DUP2 SLOAD DUP2 PUSH20 0xFFFFFFFFFFFFFFFFFFFFFFFFFFFFFFFFFFFFFFFF MUL NOT AND SWAP1 DUP4 PUSH20 0xFFFFFFFFFFFFFFFFFFFFFFFFFFFFFFFFFFFFFFFF AND MUL OR SWAP1 SSTORE POP PUSH1 0x40 DUP3 ADD MLOAD DUP2 PUSH1 0x2 ADD SWAP1 DUP1 MLOAD SWAP1 PUSH1 0x20 ADD SWAP1 PUSH2 0x1693 SWAP3 SWAP2 SWAP1 PUSH2 0x22D0 JUMP JUMPDEST POP PUSH1 0x60 DUP3 ADD MLOAD DUP2 PUSH1 0x3 ADD SWAP1 DUP1 MLOAD SWAP1 PUSH1 0x20 ADD SWAP1 PUSH2 0x16B0 SWAP3 SWAP2 SWAP1 PUSH2 0x22D0 JUMP JUMPDEST POP PUSH1 0x80 DUP3 ADD MLOAD DUP2 PUSH1 0x4 ADD SWAP1 DUP1 MLOAD SWAP1 PUSH1 0x20 ADD SWAP1 PUSH2 0x16CD SWAP3 SWAP2 SWAP1 PUSH2 0x22D0 JUMP JUMPDEST POP PUSH1 0xA0 DUP3 ADD MLOAD DUP2 PUSH1 0x5 ADD PUSH1 0x0 PUSH2 0x100 EXP DUP2 SLOAD DUP2 PUSH1 0xFF MUL NOT AND SWAP1 DUP4 ISZERO ISZERO MUL OR SWAP1 SSTORE POP PUSH1 0xC0 DUP3 ADD MLOAD DUP2 PUSH1 0x6 ADD SWAP1 DUP1 MLOAD SWAP1 PUSH1 0x20 ADD SWAP1 PUSH2 0x170A SWAP3 SWAP2 SWAP1 PUSH2 0x22D0 JUMP JUMPDEST POP PUSH1 0xE0 DUP3 ADD MLOAD DUP2 PUSH1 0x7 ADD PUSH1 0x0 PUSH2 0x100 EXP DUP2 SLOAD DUP2 PUSH1 0xFF MUL NOT AND SWAP1 DUP4 ISZERO ISZERO MUL OR SWAP1 SSTORE POP SWAP1 POP POP PUSH1 0xC DUP6 SWAP1 DUP1 PUSH1 0x1 DUP2 SLOAD ADD DUP1 DUP3 SSTORE DUP1 SWAP2 POP POP PUSH1 0x1 SWAP1 SUB SWAP1 PUSH1 0x0 MSTORE PUSH1 0x20 PUSH1 0x0 KECCAK256 ADD PUSH1 0x0 SWAP1 SWAP2 SWAP1 SWAP2 SWAP1 SWAP2 PUSH2 0x100 EXP DUP2 SLOAD DUP2 PUSH20 0xFFFFFFFFFFFFFFFFFFFFFFFFFFFFFFFFFFFFFFFF MUL NOT AND SWAP1 DUP4 PUSH20 0xFFFFFFFFFFFFFFFFFFFFFFFFFFFFFFFFFFFFFFFF AND MUL OR SWAP1 SSTORE POP POP POP POP POP POP POP JUMP JUMPDEST PUSH1 0x0 DUP1 SLOAD SWAP1 PUSH2 0x100 EXP SWAP1 DIV PUSH20 0xFFFFFFFFFFFFFFFFFFFFFFFFFFFFFFFFFFFFFFFF AND PUSH20 0xFFFFFFFFFFFFFFFFFFFFFFFFFFFFFFFFFFFFFFFF AND CALLER PUSH20 0xFFFFFFFFFFFFFFFFFFFFFFFFFFFFFFFFFFFFFFFF AND EQ PUSH2 0x1827 JUMPI PUSH1 0x40 MLOAD PUSH32 0x8C379A000000000000000000000000000000000000000000000000000000000 DUP2 MSTORE PUSH1 0x4 ADD PUSH2 0x181E SWAP1 PUSH2 0x2D04 JUMP JUMPDEST PUSH1 0x40 MLOAD DUP1 SWAP2 SUB SWAP1 REVERT JUMPDEST DUP3 PUSH1 0x4 SWAP1 DUP1 MLOAD SWAP1 PUSH1 0x20 ADD SWAP1 PUSH2 0x183D SWAP3 SWAP2 SWAP1 PUSH2 0x22D0 JUMP JUMPDEST POP DUP2 PUSH1 0x1 SWAP1 DUP1 MLOAD SWAP1 PUSH1 0x20 ADD SWAP1 PUSH2 0x1854 SWAP3 SWAP2 SWAP1 PUSH2 0x22D0 JUMP JUMPDEST POP DUP1 PUSH1 0x2 SWAP1 DUP1 MLOAD SWAP1 PUSH1 0x20 ADD SWAP1 PUSH2 0x186B SWAP3 SWAP2 SWAP1 PUSH2 0x22D0 JUMP JUMPDEST POP POP POP POP JUMP JUMPDEST PUSH1 0x60 PUSH1 0x0 PUSH1 0x60 PUSH1 0x0 DUP1 PUSH2 0x1929 PUSH1 0xA DUP8 DUP2 SLOAD DUP2 LT PUSH2 0x1891 JUMPI PUSH2 0x1890 PUSH2 0x2D77 JUMP JUMPDEST JUMPDEST SWAP1 PUSH1 0x0 MSTORE PUSH1 0x20 PUSH1 0x0 KECCAK256 ADD DUP1 SLOAD PUSH2 0x18A6 SWAP1 PUSH2 0x2DD5 JUMP JUMPDEST DUP1 PUSH1 0x1F ADD PUSH1 0x20 DUP1 SWAP2 DIV MUL PUSH1 0x20 ADD PUSH1 0x40 MLOAD SWAP1 DUP2 ADD PUSH1 0x40 MSTORE DUP1 SWAP3 SWAP2 SWAP1 DUP2 DUP2 MSTORE PUSH1 0x20 ADD DUP3 DUP1 SLOAD PUSH2 0x18D2 SWAP1 PUSH2 0x2DD5 JUMP JUMPDEST DUP1 ISZERO PUSH2 0x191F JUMPI DUP1 PUSH1 0x1F LT PUSH2 0x18F4 JUMPI PUSH2 0x100 DUP1 DUP4 SLOAD DIV MUL DUP4 MSTORE SWAP2 PUSH1 0x20 ADD SWAP2 PUSH2 0x191F JUMP JUMPDEST DUP3 ADD SWAP2 SWAP1 PUSH1 0x0 MSTORE PUSH1 0x20 PUSH1 0x0 KECCAK256 SWAP1 JUMPDEST DUP2 SLOAD DUP2 MSTORE SWAP1 PUSH1 0x1 ADD SWAP1 PUSH1 0x20 ADD DUP1 DUP4 GT PUSH2 0x1902 JUMPI DUP3 SWAP1 SUB PUSH1 0x1F AND DUP3 ADD SWAP2 JUMPDEST POP POP POP POP POP PUSH2 0x2063 JUMP JUMPDEST SWAP5 POP SWAP5 POP SWAP5 POP SWAP5 POP SWAP5 POP SWAP2 SWAP4 SWAP6 SWAP1 SWAP3 SWAP5 POP JUMP JUMPDEST PUSH1 0x60 DUP1 PUSH1 0x0 DUP1 PUSH1 0x60 PUSH1 0x0 PUSH1 0xD DUP8 PUSH1 0x40 MLOAD PUSH2 0x1956 SWAP2 SWAP1 PUSH2 0x2D60 JUMP JUMPDEST SWAP1 DUP2 MSTORE PUSH1 0x20 ADD PUSH1 0x40 MLOAD DUP1 SWAP2 SUB SWAP1 KECCAK256 PUSH1 0x0 ADD PUSH1 0xD DUP9 PUSH1 0x40 MLOAD PUSH2 0x1977 SWAP2 SWAP1 PUSH2 0x2D60 JUMP JUMPDEST SWAP1 DUP2 MSTORE PUSH1 0x20 ADD PUSH1 0x40 MLOAD DUP1 SWAP2 SUB SWAP1 KECCAK256 PUSH1 0x2 ADD PUSH1 0xD DUP10 PUSH1 0x40 MLOAD PUSH2 0x1998 SWAP2 SWAP1 PUSH2 0x2D60 JUMP JUMPDEST SWAP1 DUP2 MSTORE PUSH1 0x20 ADD PUSH1 0x40 MLOAD DUP1 SWAP2 SUB SWAP1 KECCAK256 PUSH1 0x3 ADD PUSH1 0x0 SWAP1 SLOAD SWAP1 PUSH2 0x100 EXP SWAP1 DIV PUSH1 0xFF AND PUSH1 0xD DUP11 PUSH1 0x40 MLOAD PUSH2 0x19C7 SWAP2 SWAP1 PUSH2 0x2D60 JUMP JUMPDEST SWAP1 DUP2 MSTORE PUSH1 0x20 ADD PUSH1 0x40 MLOAD DUP1 SWAP2 SUB SWAP1 KECCAK256 PUSH1 0x3 ADD PUSH1 0x1 SWAP1 SLOAD SWAP1 PUSH2 0x100 EXP SWAP1 DIV PUSH20 0xFFFFFFFFFFFFFFFFFFFFFFFFFFFFFFFFFFFFFFFF AND PUSH1 0xD DUP12 PUSH1 0x40 MLOAD PUSH2 0x1A09 SWAP2 SWAP1 PUSH2 0x2D60 JUMP JUMPDEST SWAP1 DUP2 MSTORE PUSH1 0x20 ADD PUSH1 0x40 MLOAD DUP1 SWAP2 SUB SWAP1 KECCAK256 PUSH1 0x4 ADD PUSH1 0xD DUP13 PUSH1 0x40 MLOAD PUSH2 0x1A2A SWAP2 SWAP1 PUSH2 0x2D60 JUMP JUMPDEST SWAP1 DUP2 MSTORE PUSH1 0x20 ADD PUSH1 0x40 MLOAD DUP1 SWAP2 SUB SWAP1 KECCAK256 PUSH1 0x5 ADD PUSH1 0x0 SWAP1 SLOAD SWAP1 PUSH2 0x100 EXP SWAP1 DIV PUSH1 0xFF AND DUP6 DUP1 SLOAD PUSH2 0x1A55 SWAP1 PUSH2 0x2DD5 JUMP JUMPDEST DUP1 PUSH1 0x1F ADD PUSH1 0x20 DUP1 SWAP2 DIV MUL PUSH1 0x20 ADD PUSH1 0x40 MLOAD SWAP1 DUP2 ADD PUSH1 0x40 MSTORE DUP1 SWAP3 SWAP2 SWAP1 DUP2 DUP2 MSTORE PUSH1 0x20 ADD DUP3 DUP1 SLOAD PUSH2 0x1A81 SWAP1 PUSH2 0x2DD5 JUMP JUMPDEST DUP1 ISZERO PUSH2 0x1ACE JUMPI DUP1 PUSH1 0x1F LT PUSH2 0x1AA3 JUMPI PUSH2 0x100 DUP1 DUP4 SLOAD DIV MUL DUP4 MSTORE SWAP2 PUSH1 0x20 ADD SWAP2 PUSH2 0x1ACE JUMP JUMPDEST DUP3 ADD SWAP2 SWAP1 PUSH1 0x0 MSTORE PUSH1 0x20 PUSH1 0x0 KECCAK256 SWAP1 JUMPDEST DUP2 SLOAD DUP2 MSTORE SWAP1 PUSH1 0x1 ADD SWAP1 PUSH1 0x20 ADD DUP1 DUP4 GT PUSH2 0x1AB1 JUMPI DUP3 SWAP1 SUB PUSH1 0x1F AND DUP3 ADD SWAP2 JUMPDEST POP POP POP POP POP SWAP6 POP DUP5 DUP1 SLOAD PUSH2 0x1AE1 SWAP1 PUSH2 0x2DD5 JUMP JUMPDEST DUP1 PUSH1 0x1F ADD PUSH1 0x20 DUP1 SWAP2 DIV MUL PUSH1 0x20 ADD PUSH1 0x40 MLOAD SWAP1 DUP2 ADD PUSH1 0x40 MSTORE DUP1 SWAP3 SWAP2 SWAP1 DUP2 DUP2 MSTORE PUSH1 0x20 ADD DUP3 DUP1 SLOAD PUSH2 0x1B0D SWAP1 PUSH2 0x2DD5 JUMP JUMPDEST DUP1 ISZERO PUSH2 0x1B5A JUMPI DUP1 PUSH1 0x1F LT PUSH2 0x1B2F JUMPI PUSH2 0x100 DUP1 DUP4 SLOAD DIV MUL DUP4 MSTORE SWAP2 PUSH1 0x20 ADD SWAP2 PUSH2 0x1B5A JUMP JUMPDEST DUP3 ADD SWAP2 SWAP1 PUSH1 0x0 MSTORE PUSH1 0x20 PUSH1 0x0 KECCAK256 SWAP1 JUMPDEST DUP2 SLOAD DUP2 MSTORE SWAP1 PUSH1 0x1 ADD SWAP1 PUSH1 0x20 ADD DUP1 DUP4 GT PUSH2 0x1B3D JUMPI DUP3 SWAP1 SUB PUSH1 0x1F AND DUP3 ADD SWAP2 JUMPDEST POP POP POP POP POP SWAP5 POP DUP2 DUP1 SLOAD PUSH2 0x1B6D SWAP1 PUSH2 0x2DD5 JUMP JUMPDEST DUP1 PUSH1 0x1F ADD PUSH1 0x20 DUP1 SWAP2 DIV MUL PUSH1 0x20 ADD PUSH1 0x40 MLOAD SWAP1 DUP2 ADD PUSH1 0x40 MSTORE DUP1 SWAP3 SWAP2 SWAP1 DUP2 DUP2 MSTORE PUSH1 0x20 ADD DUP3 DUP1 SLOAD PUSH2 0x1B99 SWAP1 PUSH2 0x2DD5 JUMP JUMPDEST DUP1 ISZERO PUSH2 0x1BE6 JUMPI DUP1 PUSH1 0x1F LT PUSH2 0x1BBB JUMPI PUSH2 0x100 DUP1 DUP4 SLOAD DIV MUL DUP4 MSTORE SWAP2 PUSH1 0x20 ADD SWAP2 PUSH2 0x1BE6 JUMP JUMPDEST DUP3 ADD SWAP2 SWAP1 PUSH1 0x0 MSTORE PUSH1 0x20 PUSH1 0x0 KECCAK256 SWAP1 JUMPDEST DUP2 SLOAD DUP2 MSTORE SWAP1 PUSH1 0x1 ADD SWAP1 PUSH1 0x20 ADD DUP1 DUP4 GT PUSH2 0x1BC9 JUMPI DUP3 SWAP1 SUB PUSH1 0x1F AND DUP3 ADD SWAP2 JUMPDEST POP POP POP POP POP SWAP2 POP SWAP6 POP SWAP6 POP SWAP6 POP SWAP6 POP SWAP6 POP SWAP6 POP SWAP2 SWAP4 SWAP6 POP SWAP2 SWAP4 SWAP6 JUMP JUMPDEST PUSH1 0x60 PUSH1 0x0 PUSH1 0x60 DUP1 PUSH1 0x0 PUSH1 0x60 PUSH1 0x0 PUSH1 0xB PUSH1 0x0 DUP10 PUSH20 0xFFFFFFFFFFFFFFFFFFFFFFFFFFFFFFFFFFFFFFFF AND PUSH20 0xFFFFFFFFFFFFFFFFFFFFFFFFFFFFFFFFFFFFFFFF AND DUP2 MSTORE PUSH1 0x20 ADD SWAP1 DUP2 MSTORE PUSH1 0x20 ADD PUSH1 0x0 KECCAK256 PUSH1 0x0 ADD PUSH1 0xB PUSH1 0x0 DUP11 PUSH20 0xFFFFFFFFFFFFFFFFFFFFFFFFFFFFFFFFFFFFFFFF AND PUSH20 0xFFFFFFFFFFFFFFFFFFFFFFFFFFFFFFFFFFFFFFFF AND DUP2 MSTORE PUSH1 0x20 ADD SWAP1 DUP2 MSTORE PUSH1 0x20 ADD PUSH1 0x0 KECCAK256 PUSH1 0x1 ADD PUSH1 0x0 SWAP1 SLOAD SWAP1 PUSH2 0x100 EXP SWAP1 DIV PUSH20 0xFFFFFFFFFFFFFFFFFFFFFFFFFFFFFFFFFFFFFFFF AND PUSH1 0xB PUSH1 0x0 DUP12 PUSH20 0xFFFFFFFFFFFFFFFFFFFFFFFFFFFFFFFFFFFFFFFF AND PUSH20 0xFFFFFFFFFFFFFFFFFFFFFFFFFFFFFFFFFFFFFFFF AND DUP2 MSTORE PUSH1 0x20 ADD SWAP1 DUP2 MSTORE PUSH1 0x20 ADD PUSH1 0x0 KECCAK256 PUSH1 0x3 ADD PUSH1 0xB PUSH1 0x0 DUP13 PUSH20 0xFFFFFFFFFFFFFFFFFFFFFFFFFFFFFFFFFFFFFFFF AND PUSH20 0xFFFFFFFFFFFFFFFFFFFFFFFFFFFFFFFFFFFFFFFF AND DUP2 MSTORE PUSH1 0x20 ADD SWAP1 DUP2 MSTORE PUSH1 0x20 ADD PUSH1 0x0 KECCAK256 PUSH1 0x4 ADD PUSH1 0xB PUSH1 0x0 DUP14 PUSH20 0xFFFFFFFFFFFFFFFFFFFFFFFFFFFFFFFFFFFFFFFF AND PUSH20 0xFFFFFFFFFFFFFFFFFFFFFFFFFFFFFFFFFFFFFFFF AND DUP2 MSTORE PUSH1 0x20 ADD SWAP1 DUP2 MSTORE PUSH1 0x20 ADD PUSH1 0x0 KECCAK256 PUSH1 0x5 ADD PUSH1 0x0 SWAP1 SLOAD SWAP1 PUSH2 0x100 EXP SWAP1 DIV PUSH1 0xFF AND PUSH1 0xB PUSH1 0x0 DUP15 PUSH20 0xFFFFFFFFFFFFFFFFFFFFFFFFFFFFFFFFFFFFFFFF AND PUSH20 0xFFFFFFFFFFFFFFFFFFFFFFFFFFFFFFFFFFFFFFFF AND DUP2 MSTORE PUSH1 0x20 ADD SWAP1 DUP2 MSTORE PUSH1 0x20 ADD PUSH1 0x0 KECCAK256 PUSH1 0x6 ADD PUSH1 0xB PUSH1 0x0 DUP16 PUSH20 0xFFFFFFFFFFFFFFFFFFFFFFFFFFFFFFFFFFFFFFFF AND PUSH20 0xFFFFFFFFFFFFFFFFFFFFFFFFFFFFFFFFFFFFFFFF AND DUP2 MSTORE PUSH1 0x20 ADD SWAP1 DUP2 MSTORE PUSH1 0x20 ADD PUSH1 0x0 KECCAK256 PUSH1 0x7 ADD PUSH1 0x0 SWAP1 SLOAD SWAP1 PUSH2 0x100 EXP SWAP1 DIV PUSH1 0xFF AND DUP7 DUP1 SLOAD PUSH2 0x1E26 SWAP1 PUSH2 0x2DD5 JUMP JUMPDEST DUP1 PUSH1 0x1F ADD PUSH1 0x20 DUP1 SWAP2 DIV MUL PUSH1 0x20 ADD PUSH1 0x40 MLOAD SWAP1 DUP2 ADD PUSH1 0x40 MSTORE DUP1 SWAP3 SWAP2 SWAP1 DUP2 DUP2 MSTORE PUSH1 0x20 ADD DUP3 DUP1 SLOAD PUSH2 0x1E52 SWAP1 PUSH2 0x2DD5 JUMP JUMPDEST DUP1 ISZERO PUSH2 0x1E9F JUMPI DUP1 PUSH1 0x1F LT PUSH2 0x1E74 JUMPI PUSH2 0x100 DUP1 DUP4 SLOAD DIV MUL DUP4 MSTORE SWAP2 PUSH1 0x20 ADD SWAP2 PUSH2 0x1E9F JUMP JUMPDEST DUP3 ADD SWAP2 SWAP1 PUSH1 0x0 MSTORE PUSH1 0x20 PUSH1 0x0 KECCAK256 SWAP1 JUMPDEST DUP2 SLOAD DUP2 MSTORE SWAP1 PUSH1 0x1 ADD SWAP1 PUSH1 0x20 ADD DUP1 DUP4 GT PUSH2 0x1E82 JUMPI DUP3 SWAP1 SUB PUSH1 0x1F AND DUP3 ADD SWAP2 JUMPDEST POP POP POP POP POP SWAP7 POP DUP5 DUP1 SLOAD PUSH2 0x1EB2 SWAP1 PUSH2 0x2DD5 JUMP JUMPDEST DUP1 PUSH1 0x1F ADD PUSH1 0x20 DUP1 SWAP2 DIV MUL PUSH1 0x20 ADD PUSH1 0x40 MLOAD SWAP1 DUP2 ADD PUSH1 0x40 MSTORE DUP1 SWAP3 SWAP2 SWAP1 DUP2 DUP2 MSTORE PUSH1 0x20 ADD DUP3 DUP1 SLOAD PUSH2 0x1EDE SWAP1 PUSH2 0x2DD5 JUMP JUMPDEST DUP1 ISZERO PUSH2 0x1F2B JUMPI DUP1 PUSH1 0x1F LT PUSH2 0x1F00 JUMPI PUSH2 0x100 DUP1 DUP4 SLOAD DIV MUL DUP4 MSTORE SWAP2 PUSH1 0x20 ADD SWAP2 PUSH2 0x1F2B JUMP JUMPDEST DUP3 ADD SWAP2 SWAP1 PUSH1 0x0 MSTORE PUSH1 0x20 PUSH1 0x0 KECCAK256 SWAP1 JUMPDEST DUP2 SLOAD DUP2 MSTORE SWAP1 PUSH1 0x1 ADD SWAP1 PUSH1 0x20 ADD DUP1 DUP4 GT PUSH2 0x1F0E JUMPI DUP3 SWAP1 SUB PUSH1 0x1F AND DUP3 ADD SWAP2 JUMPDEST POP POP POP POP POP SWAP5 POP DUP4 DUP1 SLOAD PUSH2 0x1F3E SWAP1 PUSH2 0x2DD5 JUMP JUMPDEST DUP1 PUSH1 0x1F ADD PUSH1 0x20 DUP1 SWAP2 DIV MUL PUSH1 0x20 ADD PUSH1 0x40 MLOAD SWAP1 DUP2 ADD PUSH1 0x40 MSTORE DUP1 SWAP3 SWAP2 SWAP1 DUP2 DUP2 MSTORE PUSH1 0x20 ADD DUP3 DUP1 SLOAD PUSH2 0x1F6A SWAP1 PUSH2 0x2DD5 JUMP JUMPDEST DUP1 ISZERO PUSH2 0x1FB7 JUMPI DUP1 PUSH1 0x1F LT PUSH2 0x1F8C JUMPI PUSH2 0x100 DUP1 DUP4 SLOAD DIV MUL DUP4 MSTORE SWAP2 PUSH1 0x20 ADD SWAP2 PUSH2 0x1FB7 JUMP JUMPDEST DUP3 ADD SWAP2 SWAP1 PUSH1 0x0 MSTORE PUSH1 0x20 PUSH1 0x0 KECCAK256 SWAP1 JUMPDEST DUP2 SLOAD DUP2 MSTORE SWAP1 PUSH1 0x1 ADD SWAP1 PUSH1 0x20 ADD DUP1 DUP4 GT PUSH2 0x1F9A JUMPI DUP3 SWAP1 SUB PUSH1 0x1F AND DUP3 ADD SWAP2 JUMPDEST POP POP POP POP POP SWAP4 POP DUP2 DUP1 SLOAD PUSH2 0x1FCA SWAP1 PUSH2 0x2DD5 JUMP JUMPDEST DUP1 PUSH1 0x1F ADD PUSH1 0x20 DUP1 SWAP2 DIV MUL PUSH1 0x20 ADD PUSH1 0x40 MLOAD SWAP1 DUP2 ADD PUSH1 0x40 MSTORE DUP1 SWAP3 SWAP2 SWAP1 DUP2 DUP2 MSTORE PUSH1 0x20 ADD DUP3 DUP1 SLOAD PUSH2 0x1FF6 SWAP1 PUSH2 0x2DD5 JUMP JUMPDEST DUP1 ISZERO PUSH2 0x2043 JUMPI DUP1 PUSH1 0x1F LT PUSH2 0x2018 JUMPI PUSH2 0x100 DUP1 DUP4 SLOAD DIV MUL DUP4 MSTORE SWAP2 PUSH1 0x20 ADD SWAP2 PUSH2 0x2043 JUMP JUMPDEST DUP3 ADD SWAP2 SWAP1 PUSH1 0x0 MSTORE PUSH1 0x20 PUSH1 0x0 KECCAK256 SWAP1 JUMPDEST DUP2 SLOAD DUP2 MSTORE SWAP1 PUSH1 0x1 ADD SWAP1 PUSH1 0x20 ADD DUP1 DUP4 GT PUSH2 0x2026 JUMPI DUP3 SWAP1 SUB PUSH1 0x1F AND DUP3 ADD SWAP2 JUMPDEST POP POP POP POP POP SWAP2 POP SWAP7 POP SWAP7 POP SWAP7 POP SWAP7 POP SWAP7 POP SWAP7 POP SWAP7 POP SWAP2 SWAP4 SWAP6 SWAP8 SWAP1 SWAP3 SWAP5 SWAP7 POP JUMP JUMPDEST PUSH1 0x60 PUSH1 0x0 PUSH1 0x60 PUSH1 0x0 DUP1 PUSH1 0x9 DUP7 PUSH1 0x40 MLOAD PUSH2 0x207C SWAP2 SWAP1 PUSH2 0x2D60 JUMP JUMPDEST SWAP1 DUP2 MSTORE PUSH1 0x20 ADD PUSH1 0x40 MLOAD DUP1 SWAP2 SUB SWAP1 KECCAK256 PUSH1 0x0 ADD PUSH1 0x9 DUP8 PUSH1 0x40 MLOAD PUSH2 0x209D SWAP2 SWAP1 PUSH2 0x2D60 JUMP JUMPDEST SWAP1 DUP2 MSTORE PUSH1 0x20 ADD PUSH1 0x40 MLOAD DUP1 SWAP2 SUB SWAP1 KECCAK256 PUSH1 0x1 ADD PUSH1 0x0 SWAP1 SLOAD SWAP1 PUSH2 0x100 EXP SWAP1 DIV PUSH20 0xFFFFFFFFFFFFFFFFFFFFFFFFFFFFFFFFFFFFFFFF AND PUSH1 0x9 DUP9 PUSH1 0x40 MLOAD PUSH2 0x20DF SWAP2 SWAP1 PUSH2 0x2D60 JUMP JUMPDEST SWAP1 DUP2 MSTORE PUSH1 0x20 ADD PUSH1 0x40 MLOAD DUP1 SWAP2 SUB SWAP1 KECCAK256 PUSH1 0x2 ADD PUSH1 0x9 DUP10 PUSH1 0x40 MLOAD PUSH2 0x2100 SWAP2 SWAP1 PUSH2 0x2D60 JUMP JUMPDEST SWAP1 DUP2 MSTORE PUSH1 0x20 ADD PUSH1 0x40 MLOAD DUP1 SWAP2 SUB SWAP1 KECCAK256 PUSH1 0x3 ADD PUSH1 0x0 SWAP1 SLOAD SWAP1 PUSH2 0x100 EXP SWAP1 DIV PUSH1 0xFF AND PUSH1 0x9 DUP11 PUSH1 0x40 MLOAD PUSH2 0x212F SWAP2 SWAP1 PUSH2 0x2D60 JUMP JUMPDEST SWAP1 DUP2 MSTORE PUSH1 0x20 ADD PUSH1 0x40 MLOAD DUP1 SWAP2 SUB SWAP1 KECCAK256 PUSH1 0x3 ADD PUSH1 0x1 SWAP1 SLOAD SWAP1 PUSH2 0x100 EXP SWAP1 DIV PUSH1 0xFF AND DUP5 DUP1 SLOAD PUSH2 0x215A SWAP1 PUSH2 0x2DD5 JUMP JUMPDEST DUP1 PUSH1 0x1F ADD PUSH1 0x20 DUP1 SWAP2 DIV MUL PUSH1 0x20 ADD PUSH1 0x40 MLOAD SWAP1 DUP2 ADD PUSH1 0x40 MSTORE DUP1 SWAP3 SWAP2 SWAP1 DUP2 DUP2 MSTORE PUSH1 0x20 ADD DUP3 DUP1 SLOAD PUSH2 0x2186 SWAP1 PUSH2 0x2DD5 JUMP JUMPDEST DUP1 ISZERO PUSH2 0x21D3 JUMPI DUP1 PUSH1 0x1F LT PUSH2 0x21A8 JUMPI PUSH2 0x100 DUP1 DUP4 SLOAD DIV MUL DUP4 MSTORE SWAP2 PUSH1 0x20 ADD SWAP2 PUSH2 0x21D3 JUMP JUMPDEST DUP3 ADD SWAP2 SWAP1 PUSH1 0x0 MSTORE PUSH1 0x20 PUSH1 0x0 KECCAK256 SWAP1 JUMPDEST DUP2 SLOAD DUP2 MSTORE SWAP1 PUSH1 0x1 ADD SWAP1 PUSH1 0x20 ADD DUP1 DUP4 GT PUSH2 0x21B6 JUMPI DUP3 SWAP1 SUB PUSH1 0x1F AND DUP3 ADD SWAP2 JUMPDEST POP POP POP POP POP SWAP5 POP DUP3 DUP1 SLOAD PUSH2 0x21E6 SWAP1 PUSH2 0x2DD5 JUMP JUMPDEST DUP1 PUSH1 0x1F ADD PUSH1 0x20 DUP1 SWAP2 DIV MUL PUSH1 0x20 ADD PUSH1 0x40 MLOAD SWAP1 DUP2 ADD PUSH1 0x40 MSTORE DUP1 SWAP3 SWAP2 SWAP1 DUP2 DUP2 MSTORE PUSH1 0x20 ADD DUP3 DUP1 SLOAD PUSH2 0x2212 SWAP1 PUSH2 0x2DD5 JUMP JUMPDEST DUP1 ISZERO PUSH2 0x225F JUMPI DUP1 PUSH1 0x1F LT PUSH2 0x2234 JUMPI PUSH2 0x100 DUP1 DUP4 SLOAD DIV MUL DUP4 MSTORE SWAP2 PUSH1 0x20 ADD SWAP2 PUSH2 0x225F JUMP JUMPDEST DUP3 ADD SWAP2 SWAP1 PUSH1 0x0 MSTORE PUSH1 0x20 PUSH1 0x0 KECCAK256 SWAP1 JUMPDEST DUP2 SLOAD DUP2 MSTORE SWAP1 PUSH1 0x1 ADD SWAP1 PUSH1 0x20 ADD DUP1 DUP4 GT PUSH2 0x2242 JUMPI DUP3 SWAP1 SUB PUSH1 0x1F AND DUP3 ADD SWAP2 JUMPDEST POP POP POP POP POP SWAP3 POP SWAP5 POP SWAP5 POP SWAP5 POP SWAP5 POP SWAP5 POP SWAP2 SWAP4 SWAP6 SWAP1 SWAP3 SWAP5 POP JUMP JUMPDEST PUSH1 0x40 MLOAD DUP1 PUSH1 0xE0 ADD PUSH1 0x40 MSTORE DUP1 PUSH1 0x60 DUP2 MSTORE PUSH1 0x20 ADD PUSH1 0x60 DUP2 MSTORE PUSH1 0x20 ADD PUSH1 0x60 DUP2 MSTORE PUSH1 0x20 ADD PUSH1 0x0 ISZERO ISZERO DUP2 MSTORE PUSH1 0x20 ADD PUSH1 0x0 PUSH20 0xFFFFFFFFFFFFFFFFFFFFFFFFFFFFFFFFFFFFFFFF AND DUP2 MSTORE PUSH1 0x20 ADD PUSH1 0x60 DUP2 MSTORE PUSH1 0x20 ADD PUSH1 0x0 ISZERO ISZERO DUP2 MSTORE POP SWAP1 JUMP JUMPDEST DUP3 DUP1 SLOAD PUSH2 0x22DC SWAP1 PUSH2 0x2DD5 JUMP JUMPDEST SWAP1 PUSH1 0x0 MSTORE PUSH1 0x20 PUSH1 0x0 KECCAK256 SWAP1 PUSH1 0x1F ADD PUSH1 0x20 SWAP1 DIV DUP2 ADD SWAP3 DUP3 PUSH2 0x22FE JUMPI PUSH1 0x0 DUP6 SSTORE PUSH2 0x2345 JUMP JUMPDEST DUP3 PUSH1 0x1F LT PUSH2 0x2317 JUMPI DUP1 MLOAD PUSH1 0xFF NOT AND DUP4 DUP1 ADD OR DUP6 SSTORE PUSH2 0x2345 JUMP JUMPDEST DUP3 DUP1 ADD PUSH1 0x1 ADD DUP6 SSTORE DUP3 ISZERO PUSH2 0x2345 JUMPI SWAP2 DUP3 ADD JUMPDEST DUP3 DUP2 GT ISZERO PUSH2 0x2344 JUMPI DUP3 MLOAD DUP3 SSTORE SWAP2 PUSH1 0x20 ADD SWAP2 SWAP1 PUSH1 0x1 ADD SWAP1 PUSH2 0x2329 JUMP JUMPDEST JUMPDEST POP SWAP1 POP PUSH2 0x2352 SWAP2 SWAP1 PUSH2 0x23FE JUMP JUMPDEST POP SWAP1 JUMP JUMPDEST PUSH1 0x40 MLOAD DUP1 PUSH1 0xA0 ADD PUSH1 0x40 MSTORE DUP1 PUSH1 0x60 DUP2 MSTORE PUSH1 0x20 ADD PUSH1 0x0 PUSH20 0xFFFFFFFFFFFFFFFFFFFFFFFFFFFFFFFFFFFFFFFF AND DUP2 MSTORE PUSH1 0x20 ADD PUSH1 0x60 DUP2 MSTORE PUSH1 0x20 ADD PUSH1 0x0 ISZERO ISZERO DUP2 MSTORE PUSH1 0x20 ADD PUSH1 0x0 ISZERO ISZERO DUP2 MSTORE POP SWAP1 JUMP JUMPDEST PUSH1 0x40 MLOAD DUP1 PUSH2 0x100 ADD PUSH1 0x40 MSTORE DUP1 PUSH1 0x60 DUP2 MSTORE PUSH1 0x20 ADD PUSH1 0x0 PUSH20 0xFFFFFFFFFFFFFFFFFFFFFFFFFFFFFFFFFFFFFFFF AND DUP2 MSTORE PUSH1 0x20 ADD PUSH1 0x60 DUP2 MSTORE PUSH1 0x20 ADD PUSH1 0x60 DUP2 MSTORE PUSH1 0x20 ADD PUSH1 0x60 DUP2 MSTORE PUSH1 0x20 ADD PUSH1 0x0 ISZERO ISZERO DUP2 MSTORE PUSH1 0x20 ADD PUSH1 0x60 DUP2 MSTORE PUSH1 0x20 ADD PUSH1 0x0 ISZERO ISZERO DUP2 MSTORE POP SWAP1 JUMP JUMPDEST JUMPDEST DUP1 DUP3 GT ISZERO PUSH2 0x2417 JUMPI PUSH1 0x0 DUP2 PUSH1 0x0 SWAP1 SSTORE POP PUSH1 0x1 ADD PUSH2 0x23FF JUMP JUMPDEST POP SWAP1 JUMP JUMPDEST PUSH1 0x0 DUP2 SWAP1 POP SWAP2 SWAP1 POP JUMP JUMPDEST PUSH2 0x242E DUP2 PUSH2 0x241B JUMP JUMPDEST DUP3 MSTORE POP POP JUMP JUMPDEST PUSH1 0x0 PUSH1 0x20 DUP3 ADD SWAP1 POP PUSH2 0x2449 PUSH1 0x0 DUP4 ADD DUP5 PUSH2 0x2425 JUMP JUMPDEST SWAP3 SWAP2 POP POP JUMP JUMPDEST PUSH1 0x0 PUSH1 0x40 MLOAD SWAP1 POP SWAP1 JUMP JUMPDEST PUSH1 0x0 DUP1 REVERT JUMPDEST PUSH1 0x0 DUP1 REVERT JUMPDEST PUSH2 0x246C DUP2 PUSH2 0x241B JUMP JUMPDEST DUP2 EQ PUSH2 0x2477 JUMPI PUSH1 0x0 DUP1 REVERT JUMPDEST POP JUMP JUMPDEST PUSH1 0x0 DUP2 CALLDATALOAD SWAP1 POP PUSH2 0x2489 DUP2 PUSH2 0x2463 JUMP JUMPDEST SWAP3 SWAP2 POP POP JUMP JUMPDEST PUSH1 0x0 PUSH1 0x20 DUP3 DUP5 SUB SLT ISZERO PUSH2 0x24A5 JUMPI PUSH2 0x24A4 PUSH2 0x2459 JUMP JUMPDEST JUMPDEST PUSH1 0x0 PUSH2 0x24B3 DUP5 DUP3 DUP6 ADD PUSH2 0x247A JUMP JUMPDEST SWAP2 POP POP SWAP3 SWAP2 POP POP JUMP JUMPDEST PUSH1 0x0 PUSH20 0xFFFFFFFFFFFFFFFFFFFFFFFFFFFFFFFFFFFFFFFF DUP3 AND SWAP1 POP SWAP2 SWAP1 POP JUMP JUMPDEST PUSH1 0x0 PUSH2 0x24E7 DUP3 PUSH2 0x24BC JUMP JUMPDEST SWAP1 POP SWAP2 SWAP1 POP JUMP JUMPDEST PUSH2 0x24F7 DUP2 PUSH2 0x24DC JUMP JUMPDEST DUP3 MSTORE POP POP JUMP JUMPDEST PUSH1 0x0 PUSH1 0x20 DUP3 ADD SWAP1 POP PUSH2 0x2512 PUSH1 0x0 DUP4 ADD DUP5 PUSH2 0x24EE JUMP JUMPDEST SWAP3 SWAP2 POP POP JUMP JUMPDEST PUSH1 0x0 DUP2 SWAP1 POP SWAP2 SWAP1 POP JUMP JUMPDEST PUSH1 0x0 PUSH2 0x253D PUSH2 0x2538 PUSH2 0x2533 DUP5 PUSH2 0x24BC JUMP JUMPDEST PUSH2 0x2518 JUMP JUMPDEST PUSH2 0x24BC JUMP JUMPDEST SWAP1 POP SWAP2 SWAP1 POP JUMP JUMPDEST PUSH1 0x0 PUSH2 0x254F DUP3 PUSH2 0x2522 JUMP JUMPDEST SWAP1 POP SWAP2 SWAP1 POP JUMP JUMPDEST PUSH1 0x0 PUSH2 0x2561 DUP3 PUSH2 0x2544 JUMP JUMPDEST SWAP1 POP SWAP2 SWAP1 POP JUMP JUMPDEST PUSH2 0x2571 DUP2 PUSH2 0x2556 JUMP JUMPDEST DUP3 MSTORE POP POP JUMP JUMPDEST PUSH1 0x0 PUSH1 0x20 DUP3 ADD SWAP1 POP PUSH2 0x258C PUSH1 0x0 DUP4 ADD DUP5 PUSH2 0x2568 JUMP JUMPDEST SWAP3 SWAP2 POP POP JUMP JUMPDEST PUSH1 0x0 DUP1 REVERT JUMPDEST PUSH1 0x0 DUP1 REVERT JUMPDEST PUSH1 0x0 PUSH1 0x1F NOT PUSH1 0x1F DUP4 ADD AND SWAP1 POP SWAP2 SWAP1 POP JUMP JUMPDEST PUSH32 0x4E487B7100000000000000000000000000000000000000000000000000000000 PUSH1 0x0 MSTORE PUSH1 0x41 PUSH1 0x4 MSTORE PUSH1 0x24 PUSH1 0x0 REVERT JUMPDEST PUSH2 0x25E5 DUP3 PUSH2 0x259C JUMP JUMPDEST DUP2 ADD DUP2 DUP2 LT PUSH8 0xFFFFFFFFFFFFFFFF DUP3 GT OR ISZERO PUSH2 0x2604 JUMPI PUSH2 0x2603 PUSH2 0x25AD JUMP JUMPDEST JUMPDEST DUP1 PUSH1 0x40 MSTORE POP POP POP JUMP JUMPDEST PUSH1 0x0 PUSH2 0x2617 PUSH2 0x244F JUMP JUMPDEST SWAP1 POP PUSH2 0x2623 DUP3 DUP3 PUSH2 0x25DC JUMP JUMPDEST SWAP2 SWAP1 POP JUMP JUMPDEST PUSH1 0x0 PUSH8 0xFFFFFFFFFFFFFFFF DUP3 GT ISZERO PUSH2 0x2643 JUMPI PUSH2 0x2642 PUSH2 0x25AD JUMP JUMPDEST JUMPDEST PUSH2 0x264C DUP3 PUSH2 0x259C JUMP JUMPDEST SWAP1 POP PUSH1 0x20 DUP2 ADD SWAP1 POP SWAP2 SWAP1 POP JUMP JUMPDEST DUP3 DUP2 DUP4 CALLDATACOPY PUSH1 0x0 DUP4 DUP4 ADD MSTORE POP POP POP JUMP JUMPDEST PUSH1 0x0 PUSH2 0x267B PUSH2 0x2676 DUP5 PUSH2 0x2628 JUMP JUMPDEST PUSH2 0x260D JUMP JUMPDEST SWAP1 POP DUP3 DUP2 MSTORE PUSH1 0x20 DUP2 ADD DUP5 DUP5 DUP5 ADD GT ISZERO PUSH2 0x2697 JUMPI PUSH2 0x2696 PUSH2 0x2597 JUMP JUMPDEST JUMPDEST PUSH2 0x26A2 DUP5 DUP3 DUP6 PUSH2 0x2659 JUMP JUMPDEST POP SWAP4 SWAP3 POP POP POP JUMP JUMPDEST PUSH1 0x0 DUP3 PUSH1 0x1F DUP4 ADD SLT PUSH2 0x26BF JUMPI PUSH2 0x26BE PUSH2 0x2592 JUMP JUMPDEST JUMPDEST DUP2 CALLDATALOAD PUSH2 0x26CF DUP5 DUP3 PUSH1 0x20 DUP7 ADD PUSH2 0x2668 JUMP JUMPDEST SWAP2 POP POP SWAP3 SWAP2 POP POP JUMP JUMPDEST PUSH1 0x0 PUSH1 0x20 DUP3 DUP5 SUB SLT ISZERO PUSH2 0x26EE JUMPI PUSH2 0x26ED PUSH2 0x2459 JUMP JUMPDEST JUMPDEST PUSH1 0x0 DUP3 ADD CALLDATALOAD PUSH8 0xFFFFFFFFFFFFFFFF DUP2 GT ISZERO PUSH2 0x270C JUMPI PUSH2 0x270B PUSH2 0x245E JUMP JUMPDEST JUMPDEST PUSH2 0x2718 DUP5 DUP3 DUP6 ADD PUSH2 0x26AA JUMP JUMPDEST SWAP2 POP POP SWAP3 SWAP2 POP POP JUMP JUMPDEST PUSH1 0x0 DUP1 PUSH1 0x0 PUSH1 0x60 DUP5 DUP7 SUB SLT ISZERO PUSH2 0x273A JUMPI PUSH2 0x2739 PUSH2 0x2459 JUMP JUMPDEST JUMPDEST PUSH1 0x0 DUP5 ADD CALLDATALOAD PUSH8 0xFFFFFFFFFFFFFFFF DUP2 GT ISZERO PUSH2 0x2758 JUMPI PUSH2 0x2757 PUSH2 0x245E JUMP JUMPDEST JUMPDEST PUSH2 0x2764 DUP7 DUP3 DUP8 ADD PUSH2 0x26AA JUMP JUMPDEST SWAP4 POP POP PUSH1 0x20 DUP5 ADD CALLDATALOAD PUSH8 0xFFFFFFFFFFFFFFFF DUP2 GT ISZERO PUSH2 0x2785 JUMPI PUSH2 0x2784 PUSH2 0x245E JUMP JUMPDEST JUMPDEST PUSH2 0x2791 DUP7 DUP3 DUP8 ADD PUSH2 0x26AA JUMP JUMPDEST SWAP3 POP POP PUSH1 0x40 DUP5 ADD CALLDATALOAD PUSH8 0xFFFFFFFFFFFFFFFF DUP2 GT ISZERO PUSH2 0x27B2 JUMPI PUSH2 0x27B1 PUSH2 0x245E JUMP JUMPDEST JUMPDEST PUSH2 0x27BE DUP7 DUP3 DUP8 ADD PUSH2 0x26AA JUMP JUMPDEST SWAP2 POP POP SWAP3 POP SWAP3 POP SWAP3 JUMP JUMPDEST PUSH1 0x0 DUP2 MLOAD SWAP1 POP SWAP2 SWAP1 POP JUMP JUMPDEST PUSH1 0x0 DUP3 DUP3 MSTORE PUSH1 0x20 DUP3 ADD SWAP1 POP SWAP3 SWAP2 POP POP JUMP JUMPDEST PUSH1 0x0 JUMPDEST DUP4 DUP2 LT ISZERO PUSH2 0x2802 JUMPI DUP1 DUP3 ADD MLOAD DUP2 DUP5 ADD MSTORE PUSH1 0x20 DUP2 ADD SWAP1 POP PUSH2 0x27E7 JUMP JUMPDEST DUP4 DUP2 GT ISZERO PUSH2 0x2811 JUMPI PUSH1 0x0 DUP5 DUP5 ADD MSTORE JUMPDEST POP POP POP POP JUMP JUMPDEST PUSH1 0x0 PUSH2 0x2822 DUP3 PUSH2 0x27C8 JUMP JUMPDEST PUSH2 0x282C DUP2 DUP6 PUSH2 0x27D3 JUMP JUMPDEST SWAP4 POP PUSH2 0x283C DUP2 DUP6 PUSH1 0x20 DUP7 ADD PUSH2 0x27E4 JUMP JUMPDEST PUSH2 0x2845 DUP2 PUSH2 0x259C JUMP JUMPDEST DUP5 ADD SWAP2 POP POP SWAP3 SWAP2 POP POP JUMP JUMPDEST PUSH1 0x0 DUP2 ISZERO ISZERO SWAP1 POP SWAP2 SWAP1 POP JUMP JUMPDEST PUSH2 0x2865 DUP2 PUSH2 0x2850 JUMP JUMPDEST DUP3 MSTORE POP POP JUMP JUMPDEST PUSH1 0x0 PUSH1 0xC0 DUP3 ADD SWAP1 POP DUP2 DUP2 SUB PUSH1 0x0 DUP4 ADD MSTORE PUSH2 0x2885 DUP2 DUP10 PUSH2 0x2817 JUMP JUMPDEST SWAP1 POP DUP2 DUP2 SUB PUSH1 0x20 DUP4 ADD MSTORE PUSH2 0x2899 DUP2 DUP9 PUSH2 0x2817 JUMP JUMPDEST SWAP1 POP PUSH2 0x28A8 PUSH1 0x40 DUP4 ADD DUP8 PUSH2 0x285C JUMP JUMPDEST PUSH2 0x28B5 PUSH1 0x60 DUP4 ADD DUP7 PUSH2 0x24EE JUMP JUMPDEST DUP2 DUP2 SUB PUSH1 0x80 DUP4 ADD MSTORE PUSH2 0x28C7 DUP2 DUP6 PUSH2 0x2817 JUMP JUMPDEST SWAP1 POP PUSH2 0x28D6 PUSH1 0xA0 DUP4 ADD DUP5 PUSH2 0x285C JUMP JUMPDEST SWAP8 SWAP7 POP POP POP POP POP POP POP JUMP JUMPDEST PUSH2 0x28EA DUP2 PUSH2 0x24DC JUMP JUMPDEST DUP2 EQ PUSH2 0x28F5 JUMPI PUSH1 0x0 DUP1 REVERT JUMPDEST POP JUMP JUMPDEST PUSH1 0x0 DUP2 CALLDATALOAD SWAP1 POP PUSH2 0x2907 DUP2 PUSH2 0x28E1 JUMP JUMPDEST SWAP3 SWAP2 POP POP JUMP JUMPDEST PUSH1 0x0 PUSH1 0x20 DUP3 DUP5 SUB SLT ISZERO PUSH2 0x2923 JUMPI PUSH2 0x2922 PUSH2 0x2459 JUMP JUMPDEST JUMPDEST PUSH1 0x0 PUSH2 0x2931 DUP5 DUP3 DUP6 ADD PUSH2 0x28F8 JUMP JUMPDEST SWAP2 POP POP SWAP3 SWAP2 POP POP JUMP JUMPDEST PUSH1 0x0 DUP1 PUSH1 0x0 PUSH1 0x60 DUP5 DUP7 SUB SLT ISZERO PUSH2 0x2953 JUMPI PUSH2 0x2952 PUSH2 0x2459 JUMP JUMPDEST JUMPDEST PUSH1 0x0 DUP5 ADD CALLDATALOAD PUSH8 0xFFFFFFFFFFFFFFFF DUP2 GT ISZERO PUSH2 0x2971 JUMPI PUSH2 0x2970 PUSH2 0x245E JUMP JUMPDEST JUMPDEST PUSH2 0x297D DUP7 DUP3 DUP8 ADD PUSH2 0x26AA JUMP JUMPDEST SWAP4 POP POP PUSH1 0x20 PUSH2 0x298E DUP7 DUP3 DUP8 ADD PUSH2 0x28F8 JUMP JUMPDEST SWAP3 POP POP PUSH1 0x40 DUP5 ADD CALLDATALOAD PUSH8 0xFFFFFFFFFFFFFFFF DUP2 GT ISZERO PUSH2 0x29AF JUMPI PUSH2 0x29AE PUSH2 0x245E JUMP JUMPDEST JUMPDEST PUSH2 0x29BB DUP7 DUP3 DUP8 ADD PUSH2 0x26AA JUMP JUMPDEST SWAP2 POP POP SWAP3 POP SWAP3 POP SWAP3 JUMP JUMPDEST PUSH1 0x0 PUSH1 0xA0 DUP3 ADD SWAP1 POP PUSH2 0x29DA PUSH1 0x0 DUP4 ADD DUP9 PUSH2 0x24EE JUMP JUMPDEST DUP2 DUP2 SUB PUSH1 0x20 DUP4 ADD MSTORE PUSH2 0x29EC DUP2 DUP8 PUSH2 0x2817 JUMP JUMPDEST SWAP1 POP DUP2 DUP2 SUB PUSH1 0x40 DUP4 ADD MSTORE PUSH2 0x2A00 DUP2 DUP7 PUSH2 0x2817 JUMP JUMPDEST SWAP1 POP DUP2 DUP2 SUB PUSH1 0x60 DUP4 ADD MSTORE PUSH2 0x2A14 DUP2 DUP6 PUSH2 0x2817 JUMP JUMPDEST SWAP1 POP PUSH2 0x2A23 PUSH1 0x80 DUP4 ADD DUP5 PUSH2 0x2425 JUMP JUMPDEST SWAP7 SWAP6 POP POP POP POP POP POP JUMP JUMPDEST PUSH1 0x0 PUSH1 0xE0 DUP3 ADD SWAP1 POP DUP2 DUP2 SUB PUSH1 0x0 DUP4 ADD MSTORE PUSH2 0x2A47 DUP2 DUP11 PUSH2 0x2817 JUMP JUMPDEST SWAP1 POP PUSH2 0x2A56 PUSH1 0x20 DUP4 ADD DUP10 PUSH2 0x24EE JUMP JUMPDEST DUP2 DUP2 SUB PUSH1 0x40 DUP4 ADD MSTORE PUSH2 0x2A68 DUP2 DUP9 PUSH2 0x2817 JUMP JUMPDEST SWAP1 POP DUP2 DUP2 SUB PUSH1 0x60 DUP4 ADD MSTORE PUSH2 0x2A7C DUP2 DUP8 PUSH2 0x2817 JUMP JUMPDEST SWAP1 POP PUSH2 0x2A8B PUSH1 0x80 DUP4 ADD DUP7 PUSH2 0x285C JUMP JUMPDEST DUP2 DUP2 SUB PUSH1 0xA0 DUP4 ADD MSTORE PUSH2 0x2A9D DUP2 DUP6 PUSH2 0x2817 JUMP JUMPDEST SWAP1 POP PUSH2 0x2AAC PUSH1 0xC0 DUP4 ADD DUP5 PUSH2 0x285C JUMP JUMPDEST SWAP9 SWAP8 POP POP POP POP POP POP POP POP JUMP JUMPDEST PUSH1 0x0 PUSH2 0x2AC3 DUP3 PUSH2 0x2544 JUMP JUMPDEST SWAP1 POP SWAP2 SWAP1 POP JUMP JUMPDEST PUSH2 0x2AD3 DUP2 PUSH2 0x2AB8 JUMP JUMPDEST DUP3 MSTORE POP POP JUMP JUMPDEST PUSH1 0x0 PUSH1 0x20 DUP3 ADD SWAP1 POP PUSH2 0x2AEE PUSH1 0x0 DUP4 ADD DUP5 PUSH2 0x2ACA JUMP JUMPDEST SWAP3 SWAP2 POP POP JUMP JUMPDEST PUSH1 0x0 DUP1 PUSH1 0x40 DUP4 DUP6 SUB SLT ISZERO PUSH2 0x2B0B JUMPI PUSH2 0x2B0A PUSH2 0x2459 JUMP JUMPDEST JUMPDEST PUSH1 0x0 DUP4 ADD CALLDATALOAD PUSH8 0xFFFFFFFFFFFFFFFF DUP2 GT ISZERO PUSH2 0x2B29 JUMPI PUSH2 0x2B28 PUSH2 0x245E JUMP JUMPDEST JUMPDEST PUSH2 0x2B35 DUP6 DUP3 DUP7 ADD PUSH2 0x26AA JUMP JUMPDEST SWAP3 POP POP PUSH1 0x20 DUP4 ADD CALLDATALOAD PUSH8 0xFFFFFFFFFFFFFFFF DUP2 GT ISZERO PUSH2 0x2B56 JUMPI PUSH2 0x2B55 PUSH2 0x245E JUMP JUMPDEST JUMPDEST PUSH2 0x2B62 DUP6 DUP3 DUP7 ADD PUSH2 0x26AA JUMP JUMPDEST SWAP2 POP POP SWAP3 POP SWAP3 SWAP1 POP JUMP JUMPDEST PUSH1 0x0 DUP1 PUSH1 0x0 DUP1 PUSH1 0x0 PUSH1 0xA0 DUP7 DUP9 SUB SLT ISZERO PUSH2 0x2B88 JUMPI PUSH2 0x2B87 PUSH2 0x2459 JUMP JUMPDEST JUMPDEST PUSH1 0x0 DUP7 ADD CALLDATALOAD PUSH8 0xFFFFFFFFFFFFFFFF DUP2 GT ISZERO PUSH2 0x2BA6 JUMPI PUSH2 0x2BA5 PUSH2 0x245E JUMP JUMPDEST JUMPDEST PUSH2 0x2BB2 DUP9 DUP3 DUP10 ADD PUSH2 0x26AA JUMP JUMPDEST SWAP6 POP POP PUSH1 0x20 PUSH2 0x2BC3 DUP9 DUP3 DUP10 ADD PUSH2 0x28F8 JUMP JUMPDEST SWAP5 POP POP PUSH1 0x40 DUP7 ADD CALLDATALOAD PUSH8 0xFFFFFFFFFFFFFFFF DUP2 GT ISZERO PUSH2 0x2BE4 JUMPI PUSH2 0x2BE3 PUSH2 0x245E JUMP JUMPDEST JUMPDEST PUSH2 0x2BF0 DUP9 DUP3 DUP10 ADD PUSH2 0x26AA JUMP JUMPDEST SWAP4 POP POP PUSH1 0x60 DUP7 ADD CALLDATALOAD PUSH8 0xFFFFFFFFFFFFFFFF DUP2 GT ISZERO PUSH2 0x2C11 JUMPI PUSH2 0x2C10 PUSH2 0x245E JUMP JUMPDEST JUMPDEST PUSH2 0x2C1D DUP9 DUP3 DUP10 ADD PUSH2 0x26AA JUMP JUMPDEST SWAP3 POP POP PUSH1 0x80 DUP7 ADD CALLDATALOAD PUSH8 0xFFFFFFFFFFFFFFFF DUP2 GT ISZERO PUSH2 0x2C3E JUMPI PUSH2 0x2C3D PUSH2 0x245E JUMP JUMPDEST JUMPDEST PUSH2 0x2C4A DUP9 DUP3 DUP10 ADD PUSH2 0x26AA JUMP JUMPDEST SWAP2 POP POP SWAP3 SWAP6 POP SWAP3 SWAP6 SWAP1 SWAP4 POP JUMP JUMPDEST PUSH1 0x0 PUSH1 0xA0 DUP3 ADD SWAP1 POP DUP2 DUP2 SUB PUSH1 0x0 DUP4 ADD MSTORE PUSH2 0x2C71 DUP2 DUP9 PUSH2 0x2817 JUMP JUMPDEST SWAP1 POP PUSH2 0x2C80 PUSH1 0x20 DUP4 ADD DUP8 PUSH2 0x24EE JUMP JUMPDEST DUP2 DUP2 SUB PUSH1 0x40 DUP4 ADD MSTORE PUSH2 0x2C92 DUP2 DUP7 PUSH2 0x2817 JUMP JUMPDEST SWAP1 POP PUSH2 0x2CA1 PUSH1 0x60 DUP4 ADD DUP6 PUSH2 0x285C JUMP JUMPDEST PUSH2 0x2CAE PUSH1 0x80 DUP4 ADD DUP5 PUSH2 0x285C JUMP JUMPDEST SWAP7 SWAP6 POP POP POP POP POP POP JUMP JUMPDEST PUSH32 0x4E6F742053747564656E74206572726F72000000000000000000000000000000 PUSH1 0x0 DUP3 ADD MSTORE POP JUMP JUMPDEST PUSH1 0x0 PUSH2 0x2CEE PUSH1 0x11 DUP4 PUSH2 0x27D3 JUMP JUMPDEST SWAP2 POP PUSH2 0x2CF9 DUP3 PUSH2 0x2CB8 JUMP JUMPDEST PUSH1 0x20 DUP3 ADD SWAP1 POP SWAP2 SWAP1 POP JUMP JUMPDEST PUSH1 0x0 PUSH1 0x20 DUP3 ADD SWAP1 POP DUP2 DUP2 SUB PUSH1 0x0 DUP4 ADD MSTORE PUSH2 0x2D1D DUP2 PUSH2 0x2CE1 JUMP JUMPDEST SWAP1 POP SWAP2 SWAP1 POP JUMP JUMPDEST PUSH1 0x0 DUP2 SWAP1 POP SWAP3 SWAP2 POP POP JUMP JUMPDEST PUSH1 0x0 PUSH2 0x2D3A DUP3 PUSH2 0x27C8 JUMP JUMPDEST PUSH2 0x2D44 DUP2 DUP6 PUSH2 0x2D24 JUMP JUMPDEST SWAP4 POP PUSH2 0x2D54 DUP2 DUP6 PUSH1 0x20 DUP7 ADD PUSH2 0x27E4 JUMP JUMPDEST DUP1 DUP5 ADD SWAP2 POP POP SWAP3 SWAP2 POP POP JUMP JUMPDEST PUSH1 0x0 PUSH2 0x2D6C DUP3 DUP5 PUSH2 0x2D2F JUMP JUMPDEST SWAP2 POP DUP2 SWAP1 POP SWAP3 SWAP2 POP POP JUMP JUMPDEST PUSH32 0x4E487B7100000000000000000000000000000000000000000000000000000000 PUSH1 0x0 MSTORE PUSH1 0x32 PUSH1 0x4 MSTORE PUSH1 0x24 PUSH1 0x0 REVERT JUMPDEST PUSH32 0x4E487B7100000000000000000000000000000000000000000000000000000000 PUSH1 0x0 MSTORE PUSH1 0x22 PUSH1 0x4 MSTORE PUSH1 0x24 PUSH1 0x0 REVERT JUMPDEST PUSH1 0x0 PUSH1 0x2 DUP3 DIV SWAP1 POP PUSH1 0x1 DUP3 AND DUP1 PUSH2 0x2DED JUMPI PUSH1 0x7F DUP3 AND SWAP2 POP JUMPDEST PUSH1 0x20 DUP3 LT DUP2 EQ ISZERO PUSH2 0x2E01 JUMPI PUSH2 0x2E00 PUSH2 0x2DA6 JUMP JUMPDEST JUMPDEST POP SWAP2 SWAP1 POP JUMP JUMPDEST PUSH1 0x0 DUP2 MLOAD SWAP1 POP PUSH2 0x2E16 DUP2 PUSH2 0x28E1 JUMP JUMPDEST SWAP3 SWAP2 POP POP JUMP JUMPDEST PUSH1 0x0 PUSH1 0x20 DUP3 DUP5 SUB SLT ISZERO PUSH2 0x2E32 JUMPI PUSH2 0x2E31 PUSH2 0x2459 JUMP JUMPDEST JUMPDEST PUSH1 0x0 PUSH2 0x2E40 DUP5 DUP3 DUP6 ADD PUSH2 0x2E07 JUMP JUMPDEST SWAP2 POP POP SWAP3 SWAP2 POP POP JUMP JUMPDEST PUSH32 0x596F7520617265206E6F7420617574686F72697A656421000000000000000000 PUSH1 0x0 DUP3 ADD MSTORE POP JUMP JUMPDEST PUSH1 0x0 PUSH2 0x2E7F PUSH1 0x17 DUP4 PUSH2 0x27D3 JUMP JUMPDEST SWAP2 POP PUSH2 0x2E8A DUP3 PUSH2 0x2E49 JUMP JUMPDEST PUSH1 0x20 DUP3 ADD SWAP1 POP SWAP2 SWAP1 POP JUMP JUMPDEST PUSH1 0x0 PUSH1 0x20 DUP3 ADD SWAP1 POP DUP2 DUP2 SUB PUSH1 0x0 DUP4 ADD MSTORE PUSH2 0x2EAE DUP2 PUSH2 0x2E72 JUMP JUMPDEST SWAP1 POP SWAP2 SWAP1 POP JUMP JUMPDEST PUSH32 0x4E487B7100000000000000000000000000000000000000000000000000000000 PUSH1 0x0 MSTORE PUSH1 0x11 PUSH1 0x4 MSTORE PUSH1 0x24 PUSH1 0x0 REVERT JUMPDEST PUSH1 0x0 PUSH2 0x2EEF DUP3 PUSH2 0x241B JUMP JUMPDEST SWAP2 POP PUSH2 0x2EFA DUP4 PUSH2 0x241B JUMP JUMPDEST SWAP3 POP DUP3 PUSH32 0xFFFFFFFFFFFFFFFFFFFFFFFFFFFFFFFFFFFFFFFFFFFFFFFFFFFFFFFFFFFFFFFF SUB DUP3 GT ISZERO PUSH2 0x2F2F JUMPI PUSH2 0x2F2E PUSH2 0x2EB5 JUMP JUMPDEST JUMPDEST DUP3 DUP3 ADD SWAP1 POP SWAP3 SWAP2 POP POP JUMP INVALID LOG2 PUSH5 0x6970667358 0x22 SLT KECCAK256 0xEA EXTCODESIZE EXP 0x26 SWAP15 NOT TIMESTAMP 0xB7 0xC4 0xA9 0xCF PUSH24 0xC3AE044554CEFE9BE5FBF57E3C7B43FFF8F56EF564736F6C PUSH4 0x4300080A STOP CALLER "
    },
    "gasEstimates": {
      "creation": {
        "codeDepositCost": "2428800",
        "executionCost": "infinite",
        "totalCost": "infinite"
      },
      "external": {
        "addCertification(string,address,string)": "infinite",
        "addInstToProfile(address)": "infinite",
        "addSkill(string,string,string)": "infinite",
        "addWorkExp(string,address,string,string,string)": "infinite",
        "deleteCertification(string)": "infinite",
        "deleteSkill(string)": "infinite",
        "deleteWorkExp(address)": "27118",
        "editInfo(string,string,string)": "infinite",
        "endorseSkill(string,string)": "infinite",
        "getCertificationByIndex(uint256)": "infinite",
        "getCertificationCount()": "2490",
        "getSkillByIndex(uint256)": "infinite",
        "getSkillCount()": "2469",
        "getStudentInfo()": "infinite",
        "getWorkExpByIndex(uint256)": "infinite",
        "getWorkExpCount()": "2468",
        "instAddress()": "2603",
        "instver()": "infinite",
        "listOfInstitutes(uint256)": "5002",
        "removeInstFromProfile()": "26626",
        "studver()": "infinite",
        "verifyCertification(string)": "infinite",
        "verifyWorkExp(address)": "27150"
      },
      "internal": {
        "getCertificationBycertName(string memory)": "infinite",
        "getSkillByName(string memory)": "infinite",
        "getWorkExpByAddress(address)": "infinite"
      }
    },
    "methodIdentifiers": {
      "addCertification(string,address,string)": "7c4c7430",
      "addInstToProfile(address)": "e3d77aba",
      "addSkill(string,string,string)": "24eec41a",
      "addWorkExp(string,address,string,string,string)": "f1d9efb2",
      "deleteCertification(string)": "2186879c",
      "deleteSkill(string)": "eda3467c",
      "deleteWorkExp(address)": "e2601751",
      "editInfo(string,string,string)": "fc017f25",
      "endorseSkill(string,string)": "f007b4c4",
      "getCertificationByIndex(uint256)": "fee7989e",
      "getCertificationCount()": "44afd134",
      "getSkillByIndex(uint256)": "444fc662",
      "getSkillCount()": "05f53b29",
      "getStudentInfo()": "a1e68c52",
      "getWorkExpByIndex(uint256)": "d57e0ad6",
      "getWorkExpCount()": "94fb3da7",
      "instAddress()": "769313fc",
      "instver()": "debbb1c1",
      "listOfInstitutes(uint256)": "1b258fc0",
      "removeInstFromProfile()": "9c13c7c8",
      "studver()": "1e9f006a",
      "verifyCertification(string)": "84c79120",
      "verifyWorkExp(address)": "52dbd3c0"
    }
  },
  "storageLayout": {
    "storage": [
      {
        "astId": 1200,
        "contract": "student.sol:student",
        "label": "student_address",
        "offset": 0,
        "slot": "0",
        "type": "t_address"
      },
      {
        "astId": 1202,
        "contract": "student.sol:student",
        "label": "email",
        "offset": 0,
        "slot": "1",
        "type": "t_string_storage"
      },
      {
        "astId": 1204,
        "contract": "student.sol:student",
        "label": "id",
        "offset": 0,
        "slot": "2",
        "type": "t_string_storage"
      },
      {
        "astId": 1206,
        "contract": "student.sol:student",
        "label": "endorsecount",
        "offset": 0,
        "slot": "3",
        "type": "t_uint256"
      },
      {
        "astId": 1208,
        "contract": "student.sol:student",
        "label": "name",
        "offset": 0,
        "slot": "4",
        "type": "t_string_storage"
      },
      {
        "astId": 1210,
        "contract": "student.sol:student",
        "label": "instAddress",
        "offset": 0,
        "slot": "5",
        "type": "t_address"
      },
      {
        "astId": 1213,
        "contract": "student.sol:student",
        "label": "studver",
        "offset": 0,
        "slot": "6",
        "type": "t_contract(verifystud)2837"
      },
      {
        "astId": 1216,
        "contract": "student.sol:student",
        "label": "instver",
        "offset": 0,
        "slot": "7",
        "type": "t_contract(verifyinst)2221"
      },
      {
        "astId": 1300,
        "contract": "student.sol:student",
        "label": "listOfInstitutes",
        "offset": 0,
        "slot": "8",
        "type": "t_array(t_address)dyn_storage"
      },
      {
        "astId": 1383,
        "contract": "student.sol:student",
        "label": "certificationmap",
        "offset": 0,
        "slot": "9",
        "type": "t_mapping(t_string_memory_ptr,t_struct(certificationInfo)1378_storage)"
      },
      {
        "astId": 1386,
        "contract": "student.sol:student",
        "label": "certifications",
        "offset": 0,
        "slot": "10",
        "type": "t_array(t_string_storage)dyn_storage"
      },
      {
        "astId": 1577,
        "contract": "student.sol:student",
        "label": "workexpmap",
        "offset": 0,
        "slot": "11",
        "type": "t_mapping(t_address,t_struct(workexpInfo)1572_storage)"
      },
      {
        "astId": 1580,
        "contract": "student.sol:student",
        "label": "workexps",
        "offset": 0,
        "slot": "12",
        "type": "t_array(t_address)dyn_storage"
      },
      {
        "astId": 1798,
        "contract": "student.sol:student",
        "label": "skillmap",
        "offset": 0,
        "slot": "13",
        "type": "t_mapping(t_string_memory_ptr,t_struct(skillInfo)1793_storage)"
      },
      {
        "astId": 1801,
        "contract": "student.sol:student",
        "label": "skills",
        "offset": 0,
        "slot": "14",
        "type": "t_array(t_string_storage)dyn_storage"
      }
    ],
    "types": {
      "t_address": {
        "encoding": "inplace",
        "label": "address",
        "numberOfBytes": "20"
      },
      "t_array(t_address)dyn_storage": {
        "base": "t_address",
        "encoding": "dynamic_array",
        "label": "address[]",
        "numberOfBytes": "32"
      },
      "t_array(t_string_storage)dyn_storage": {
        "base": "t_string_storage",
        "encoding": "dynamic_array",
        "label": "string[]",
        "numberOfBytes": "32"
      },
      "t_bool": {
        "encoding": "inplace",
        "label": "bool",
        "numberOfBytes": "1"
      },
      "t_contract(verifyinst)2221": {
        "encoding": "inplace",
        "label": "contract verifyinst",
        "numberOfBytes": "20"
      },
      "t_contract(verifystud)2837": {
        "encoding": "inplace",
        "label": "contract verifystud",
        "numberOfBytes": "20"
      },
      "t_mapping(t_address,t_struct(workexpInfo)1572_storage)": {
        "encoding": "mapping",
        "key": "t_address",
        "label": "mapping(address => struct student.workexpInfo)",
        "numberOfBytes": "32",
        "value": "t_struct(workexpInfo)1572_storage"
      },
      "t_mapping(t_string_memory_ptr,t_struct(certificationInfo)1378_storage)": {
        "encoding": "mapping",
        "key": "t_string_memory_ptr",
        "label": "mapping(string => struct student.certificationInfo)",
        "numberOfBytes": "32",
        "value": "t_struct(certificationInfo)1378_storage"
      },
      "t_mapping(t_string_memory_ptr,t_struct(skillInfo)1793_storage)": {
        "encoding": "mapping",
        "key": "t_string_memory_ptr",
        "label": "mapping(string => struct student.skillInfo)",
        "numberOfBytes": "32",
        "value": "t_struct(skillInfo)1793_storage"
      },
      "t_string_memory_ptr": {
        "encoding": "bytes",
        "label": "string",
        "numberOfBytes": "32"
      },
      "t_string_storage": {
        "encoding": "bytes",
        "label": "string",
        "numberOfBytes": "32"
      },
      "t_struct(certificationInfo)1378_storage": {
        "encoding": "inplace",
        "label": "struct student.certificationInfo",
        "members": [
          {
            "astId": 1369,
            "contract": "student.sol:student",
            "label": "name",
            "offset": 0,
            "slot": "0",
            "type": "t_string_storage"
          },
          {
            "astId": 1371,
            "contract": "student.sol:student",
            "label": "institute",
            "offset": 0,
            "slot": "1",
            "type": "t_address"
          },
          {
            "astId": 1373,
            "contract": "student.sol:student",
            "label": "certificate_name",
            "offset": 0,
            "slot": "2",
            "type": "t_string_storage"
          },
          {
            "astId": 1375,
            "contract": "student.sol:student",
            "label": "verified",
            "offset": 0,
            "slot": "3",
            "type": "t_bool"
          },
          {
            "astId": 1377,
            "contract": "student.sol:student",
            "label": "visible",
            "offset": 1,
            "slot": "3",
            "type": "t_bool"
          }
        ],
        "numberOfBytes": "128"
      },
      "t_struct(skillInfo)1793_storage": {
        "encoding": "inplace",
        "label": "struct student.skillInfo",
        "members": [
          {
            "astId": 1780,
            "contract": "student.sol:student",
            "label": "name",
            "offset": 0,
            "slot": "0",
            "type": "t_string_storage"
          },
          {
            "astId": 1782,
            "contract": "student.sol:student",
            "label": "student_name",
            "offset": 0,
            "slot": "1",
            "type": "t_string_storage"
          },
          {
            "astId": 1784,
            "contract": "student.sol:student",
            "label": "experience",
            "offset": 0,
            "slot": "2",
            "type": "t_string_storage"
          },
          {
            "astId": 1786,
            "contract": "student.sol:student",
            "label": "endorsed",
            "offset": 0,
            "slot": "3",
            "type": "t_bool"
          },
          {
            "astId": 1788,
            "contract": "student.sol:student",
            "label": "endorser_address",
            "offset": 1,
            "slot": "3",
            "type": "t_address"
          },
          {
            "astId": 1790,
            "contract": "student.sol:student",
            "label": "review",
            "offset": 0,
            "slot": "4",
            "type": "t_string_storage"
          },
          {
            "astId": 1792,
            "contract": "student.sol:student",
            "label": "visible",
            "offset": 0,
            "slot": "5",
            "type": "t_bool"
          }
        ],
        "numberOfBytes": "192"
      },
      "t_struct(workexpInfo)1572_storage": {
        "encoding": "inplace",
        "label": "struct student.workexpInfo",
        "members": [
          {
            "astId": 1557,
            "contract": "student.sol:student",
            "label": "role",
            "offset": 0,
            "slot": "0",
            "type": "t_string_storage"
          },
          {
            "astId": 1559,
            "contract": "student.sol:student",
            "label": "institute",
            "offset": 0,
            "slot": "1",
            "type": "t_address"
          },
          {
            "astId": 1561,
            "contract": "student.sol:student",
            "label": "employer",
            "offset": 0,
            "slot": "2",
            "type": "t_string_storage"
          },
          {
            "astId": 1563,
            "contract": "student.sol:student",
            "label": "startdate",
            "offset": 0,
            "slot": "3",
            "type": "t_string_storage"
          },
          {
            "astId": 1565,
            "contract": "student.sol:student",
            "label": "enddate",
            "offset": 0,
            "slot": "4",
            "type": "t_string_storage"
          },
          {
            "astId": 1567,
            "contract": "student.sol:student",
            "label": "verified",
            "offset": 0,
            "slot": "5",
            "type": "t_bool"
          },
          {
            "astId": 1569,
            "contract": "student.sol:student",
            "label": "description",
            "offset": 0,
            "slot": "6",
            "type": "t_string_storage"
          },
          {
            "astId": 1571,
            "contract": "student.sol:student",
            "label": "visible",
            "offset": 0,
            "slot": "7",
            "type": "t_bool"
          }
        ],
        "numberOfBytes": "256"
      },
      "t_uint256": {
        "encoding": "inplace",
        "label": "uint256",
        "numberOfBytes": "32"
      }
    }
  },
  "userdoc": {
    "kind": "user",
    "methods": {},
    "version": 1
  }
}