{
  "abi": [
    {
      "inputs": [
        {
          "internalType": "address",
          "name": "_registerStudAddress",
          "type": "address"
        },
        {
          "internalType": "address",
          "name": "_registeredInstAddress",
          "type": "address"
        }
      ],
      "stateMutability": "nonpayable",
      "type": "constructor"
    },
    {
      "inputs": [],
      "name": "MOE",
      "outputs": [
        {
          "internalType": "address",
          "name": "",
          "type": "address"
        }
      ],
      "stateMutability": "view",
      "type": "function"
    },
    {
      "inputs": [],
      "name": "StudentsCount",
      "outputs": [
        {
          "internalType": "uint256",
          "name": "",
          "type": "uint256"
        }
      ],
      "stateMutability": "view",
      "type": "function"
    },
    {
      "inputs": [
        {
          "internalType": "string",
          "name": "_name",
          "type": "string"
        },
        {
          "internalType": "address",
          "name": "_student_address",
          "type": "address"
        },
        {
          "internalType": "string",
          "name": "_email",
          "type": "string"
        },
        {
          "internalType": "string",
          "name": "_id",
          "type": "string"
        },
        {
          "internalType": "address",
          "name": "_instAddress",
          "type": "address"
        }
      ],
      "name": "addStudToPending",
      "outputs": [],
      "stateMutability": "nonpayable",
      "type": "function"
    },
    {
      "inputs": [
        {
          "internalType": "string",
          "name": "_name",
          "type": "string"
        },
        {
          "internalType": "address",
          "name": "_student_address",
          "type": "address"
        },
        {
          "internalType": "string",
          "name": "_email",
          "type": "string"
        },
        {
          "internalType": "string",
          "name": "_id",
          "type": "string"
        },
        {
          "internalType": "address",
          "name": "_currentInstAddress",
          "type": "address"
        },
        {
          "internalType": "address",
          "name": "_newinstAddress",
          "type": "address"
        }
      ],
      "name": "addTransferStudToPending",
      "outputs": [],
      "stateMutability": "nonpayable",
      "type": "function"
    },
    {
      "inputs": [],
      "name": "checkFunction",
      "outputs": [
        {
          "internalType": "bool",
          "name": "",
          "type": "bool"
        }
      ],
      "stateMutability": "view",
      "type": "function"
    },
    {
      "inputs": [
        {
          "internalType": "address",
          "name": "_address",
          "type": "address"
        },
        {
          "internalType": "string",
          "name": "_id",
          "type": "string"
        }
      ],
      "name": "generateKey",
      "outputs": [
        {
          "internalType": "bytes32",
          "name": "",
          "type": "bytes32"
        }
      ],
      "stateMutability": "pure",
      "type": "function"
    },
    {
      "inputs": [
        {
          "internalType": "uint256",
          "name": "index",
          "type": "uint256"
        }
      ],
      "name": "getPendingStudentByindex",
      "outputs": [
        {
          "internalType": "string",
          "name": "",
          "type": "string"
        },
        {
          "internalType": "address",
          "name": "",
          "type": "address"
        },
        {
          "internalType": "string",
          "name": "",
          "type": "string"
        },
        {
          "internalType": "string",
          "name": "",
          "type": "string"
        },
        {
          "internalType": "address",
          "name": "",
          "type": "address"
        }
      ],
      "stateMutability": "view",
      "type": "function"
    },
    {
      "inputs": [],
      "name": "getPendingStudentsCount",
      "outputs": [
        {
          "internalType": "uint256",
          "name": "",
          "type": "uint256"
        }
      ],
      "stateMutability": "view",
      "type": "function"
    },
    {
      "inputs": [
        {
          "internalType": "address",
          "name": "_employee",
          "type": "address"
        }
      ],
      "name": "getStudentContractByAddress",
      "outputs": [
        {
          "internalType": "address",
          "name": "",
          "type": "address"
        }
      ],
      "stateMutability": "view",
      "type": "function"
    },
    {
      "inputs": [
        {
          "internalType": "uint256",
          "name": "index",
          "type": "uint256"
        }
      ],
      "name": "getTransferStudentByindex",
      "outputs": [
        {
          "internalType": "string",
          "name": "",
          "type": "string"
        },
        {
          "internalType": "address",
          "name": "",
          "type": "address"
        },
        {
          "internalType": "string",
          "name": "",
          "type": "string"
        },
        {
          "internalType": "string",
          "name": "",
          "type": "string"
        },
        {
          "internalType": "address",
          "name": "",
          "type": "address"
        }
      ],
      "stateMutability": "view",
      "type": "function"
    },
    {
      "inputs": [],
      "name": "getTransferStudentsCount",
      "outputs": [
        {
          "internalType": "uint256",
          "name": "",
          "type": "uint256"
        }
      ],
      "stateMutability": "view",
      "type": "function"
    },
    {
      "inputs": [],
      "name": "instregd",
      "outputs": [
        {
          "internalType": "contract verifyinst",
          "name": "",
          "type": "address"
        }
      ],
      "stateMutability": "view",
      "type": "function"
    },
    {
      "inputs": [
        {
          "internalType": "address",
          "name": "_studentAddress",
          "type": "address"
        }
      ],
      "name": "isStudent",
      "outputs": [
        {
          "internalType": "bool",
          "name": "",
          "type": "bool"
        }
      ],
      "stateMutability": "view",
      "type": "function"
    },
    {
      "inputs": [
        {
          "internalType": "uint256",
          "name": "",
          "type": "uint256"
        }
      ],
      "name": "pendingStudentsarray",
      "outputs": [
        {
          "internalType": "string",
          "name": "name",
          "type": "string"
        },
        {
          "internalType": "address",
          "name": "student_address",
          "type": "address"
        },
        {
          "internalType": "string",
          "name": "email",
          "type": "string"
        },
        {
          "internalType": "string",
          "name": "id",
          "type": "string"
        },
        {
          "internalType": "address",
          "name": "instAddress",
          "type": "address"
        }
      ],
      "stateMutability": "view",
      "type": "function"
    },
    {
      "inputs": [
        {
          "internalType": "uint256",
          "name": "index",
          "type": "uint256"
        },
        {
          "internalType": "address",
          "name": "student_address",
          "type": "address"
        },
        {
          "internalType": "string",
          "name": "id",
          "type": "string"
        }
      ],
      "name": "removeGraduateStud",
      "outputs": [],
      "stateMutability": "nonpayable",
      "type": "function"
    },
    {
      "inputs": [],
      "name": "studentRegisterContractAddress",
      "outputs": [
        {
          "internalType": "address",
          "name": "",
          "type": "address"
        }
      ],
      "stateMutability": "view",
      "type": "function"
    },
    {
      "inputs": [],
      "name": "studreg",
      "outputs": [
        {
          "internalType": "contract registerStud",
          "name": "",
          "type": "address"
        }
      ],
      "stateMutability": "view",
      "type": "function"
    },
    {
      "inputs": [
        {
          "internalType": "uint256",
          "name": "",
          "type": "uint256"
        }
      ],
      "name": "transferStudentsarray",
      "outputs": [
        {
          "internalType": "string",
          "name": "name",
          "type": "string"
        },
        {
          "internalType": "address",
          "name": "student_address",
          "type": "address"
        },
        {
          "internalType": "string",
          "name": "email",
          "type": "string"
        },
        {
          "internalType": "string",
          "name": "id",
          "type": "string"
        },
        {
          "internalType": "address",
          "name": "instAddress",
          "type": "address"
        }
      ],
      "stateMutability": "view",
      "type": "function"
    },
    {
      "inputs": [],
      "name": "trialnumber",
      "outputs": [
        {
          "internalType": "uint256",
          "name": "",
          "type": "uint256"
        }
      ],
      "stateMutability": "view",
      "type": "function"
    },
    {
      "inputs": [
        {
          "internalType": "uint256",
          "name": "index",
          "type": "uint256"
        }
      ],
      "name": "verifyTransferstudent",
      "outputs": [],
      "stateMutability": "nonpayable",
      "type": "function"
    },
    {
      "inputs": [
        {
          "internalType": "uint256",
          "name": "index",
          "type": "uint256"
        }
      ],
      "name": "verifystudent",
      "outputs": [],
      "stateMutability": "nonpayable",
      "type": "function"
    }
  ],
  "devdoc": {
    "kind": "dev",
    "methods": {},
    "version": 1
  },
  "evm": {
    "assembly": "    /* \"verifystud.sol\":200:7148  contract verifystud {... */\n  mstore(0x40, 0x80)\n    /* \"verifystud.sol\":431:432  0 */\n  0x00\n    /* \"verifystud.sol\":402:432  uint256 public trialnumber = 0 */\n  0x04\n  sstore\n    /* \"verifystud.sol\":441:725  constructor(address _registerStudAddress, address _registeredInstAddress) {... */\n  callvalue\n  dup1\n  iszero\n  tag_1\n  jumpi\n  0x00\n  dup1\n  revert\ntag_1:\n  pop\n  mload(0x40)\n  sub(codesize, bytecodeSize)\n  dup1\n  bytecodeSize\n  dup4\n  codecopy\n  dup2\n  dup2\n  add\n  0x40\n  mstore\n  dup2\n  add\n  swap1\n  tag_2\n  swap2\n  swap1\n  tag_3\n  jump\t// in\ntag_2:\n    /* \"verifystud.sol\":532:542  msg.sender */\n  caller\n    /* \"verifystud.sol\":526:529  MOE */\n  0x00\n  dup1\n    /* \"verifystud.sol\":526:542  MOE = msg.sender */\n  0x0100\n  exp\n  dup2\n  sload\n  dup2\n  0xffffffffffffffffffffffffffffffffffffffff\n  mul\n  not\n  and\n  swap1\n  dup4\n  0xffffffffffffffffffffffffffffffffffffffff\n  and\n  mul\n  or\n  swap1\n  sstore\n  pop\n    /* \"verifystud.sol\":586:606  _registerStudAddress */\n  dup2\n    /* \"verifystud.sol\":553:583  studentRegisterContractAddress */\n  0x03\n  0x00\n    /* \"verifystud.sol\":553:606  studentRegisterContractAddress = _registerStudAddress */\n  0x0100\n  exp\n  dup2\n  sload\n  dup2\n  0xffffffffffffffffffffffffffffffffffffffff\n  mul\n  not\n  and\n  swap1\n  dup4\n  0xffffffffffffffffffffffffffffffffffffffff\n  and\n  mul\n  or\n  swap1\n  sstore\n  pop\n    /* \"verifystud.sol\":640:660  _registerStudAddress */\n  dup2\n    /* \"verifystud.sol\":617:624  studreg */\n  0x01\n  0x00\n    /* \"verifystud.sol\":617:661  studreg = registerStud(_registerStudAddress) */\n  0x0100\n  exp\n  dup2\n  sload\n  dup2\n  0xffffffffffffffffffffffffffffffffffffffff\n  mul\n  not\n  and\n  swap1\n  dup4\n  0xffffffffffffffffffffffffffffffffffffffff\n  and\n  mul\n  or\n  swap1\n  sstore\n  pop\n    /* \"verifystud.sol\":694:716  _registeredInstAddress */\n  dup1\n    /* \"verifystud.sol\":672:680  instregd */\n  0x02\n  0x00\n    /* \"verifystud.sol\":672:717  instregd = verifyinst(_registeredInstAddress) */\n  0x0100\n  exp\n  dup2\n  sload\n  dup2\n  0xffffffffffffffffffffffffffffffffffffffff\n  mul\n  not\n  and\n  swap1\n  dup4\n  0xffffffffffffffffffffffffffffffffffffffff\n  and\n  mul\n  or\n  swap1\n  sstore\n  pop\n    /* \"verifystud.sol\":441:725  constructor(address _registerStudAddress, address _registeredInstAddress) {... */\n  pop\n  pop\n    /* \"verifystud.sol\":200:7148  contract verifystud {... */\n  jump(tag_6)\n    /* \"#utility.yul\":88:205   */\ntag_8:\n    /* \"#utility.yul\":197:198   */\n  0x00\n    /* \"#utility.yul\":194:195   */\n  dup1\n    /* \"#utility.yul\":187:199   */\n  revert\n    /* \"#utility.yul\":334:460   */\ntag_10:\n    /* \"#utility.yul\":371:378   */\n  0x00\n    /* \"#utility.yul\":411:453   */\n  0xffffffffffffffffffffffffffffffffffffffff\n    /* \"#utility.yul\":404:409   */\n  dup3\n    /* \"#utility.yul\":400:454   */\n  and\n    /* \"#utility.yul\":389:454   */\n  swap1\n  pop\n    /* \"#utility.yul\":334:460   */\n  swap2\n  swap1\n  pop\n  jump\t// out\n    /* \"#utility.yul\":466:562   */\ntag_11:\n    /* \"#utility.yul\":503:510   */\n  0x00\n    /* \"#utility.yul\":532:556   */\n  tag_20\n    /* \"#utility.yul\":550:555   */\n  dup3\n    /* \"#utility.yul\":532:556   */\n  tag_10\n  jump\t// in\ntag_20:\n    /* \"#utility.yul\":521:556   */\n  swap1\n  pop\n    /* \"#utility.yul\":466:562   */\n  swap2\n  swap1\n  pop\n  jump\t// out\n    /* \"#utility.yul\":568:690   */\ntag_12:\n    /* \"#utility.yul\":641:665   */\n  tag_22\n    /* \"#utility.yul\":659:664   */\n  dup2\n    /* \"#utility.yul\":641:665   */\n  tag_11\n  jump\t// in\ntag_22:\n    /* \"#utility.yul\":634:639   */\n  dup2\n    /* \"#utility.yul\":631:666   */\n  eq\n    /* \"#utility.yul\":621:684   */\n  tag_23\n  jumpi\n    /* \"#utility.yul\":680:681   */\n  0x00\n    /* \"#utility.yul\":677:678   */\n  dup1\n    /* \"#utility.yul\":670:682   */\n  revert\n    /* \"#utility.yul\":621:684   */\ntag_23:\n    /* \"#utility.yul\":568:690   */\n  pop\n  jump\t// out\n    /* \"#utility.yul\":696:839   */\ntag_13:\n    /* \"#utility.yul\":753:758   */\n  0x00\n    /* \"#utility.yul\":784:790   */\n  dup2\n    /* \"#utility.yul\":778:791   */\n  mload\n    /* \"#utility.yul\":769:791   */\n  swap1\n  pop\n    /* \"#utility.yul\":800:833   */\n  tag_25\n    /* \"#utility.yul\":827:832   */\n  dup2\n    /* \"#utility.yul\":800:833   */\n  tag_12\n  jump\t// in\ntag_25:\n    /* \"#utility.yul\":696:839   */\n  swap3\n  swap2\n  pop\n  pop\n  jump\t// out\n    /* \"#utility.yul\":845:1352   */\ntag_3:\n    /* \"#utility.yul\":924:930   */\n  0x00\n    /* \"#utility.yul\":932:938   */\n  dup1\n    /* \"#utility.yul\":981:983   */\n  0x40\n    /* \"#utility.yul\":969:978   */\n  dup4\n    /* \"#utility.yul\":960:967   */\n  dup6\n    /* \"#utility.yul\":956:979   */\n  sub\n    /* \"#utility.yul\":952:984   */\n  slt\n    /* \"#utility.yul\":949:1068   */\n  iszero\n  tag_27\n  jumpi\n    /* \"#utility.yul\":987:1066   */\n  tag_28\n  tag_8\n  jump\t// in\ntag_28:\n    /* \"#utility.yul\":949:1068   */\ntag_27:\n    /* \"#utility.yul\":1107:1108   */\n  0x00\n    /* \"#utility.yul\":1132:1196   */\n  tag_29\n    /* \"#utility.yul\":1188:1195   */\n  dup6\n    /* \"#utility.yul\":1179:1185   */\n  dup3\n    /* \"#utility.yul\":1168:1177   */\n  dup7\n    /* \"#utility.yul\":1164:1186   */\n  add\n    /* \"#utility.yul\":1132:1196   */\n  tag_13\n  jump\t// in\ntag_29:\n    /* \"#utility.yul\":1122:1196   */\n  swap3\n  pop\n    /* \"#utility.yul\":1078:1206   */\n  pop\n    /* \"#utility.yul\":1245:1247   */\n  0x20\n    /* \"#utility.yul\":1271:1335   */\n  tag_30\n    /* \"#utility.yul\":1327:1334   */\n  dup6\n    /* \"#utility.yul\":1318:1324   */\n  dup3\n    /* \"#utility.yul\":1307:1316   */\n  dup7\n    /* \"#utility.yul\":1303:1325   */\n  add\n    /* \"#utility.yul\":1271:1335   */\n  tag_13\n  jump\t// in\ntag_30:\n    /* \"#utility.yul\":1261:1335   */\n  swap2\n  pop\n    /* \"#utility.yul\":1216:1345   */\n  pop\n    /* \"#utility.yul\":845:1352   */\n  swap3\n  pop\n  swap3\n  swap1\n  pop\n  jump\t// out\n    /* \"verifystud.sol\":200:7148  contract verifystud {... */\ntag_6:\n  dataSize(sub_0)\n  dup1\n  dataOffset(sub_0)\n  0x00\n  codecopy\n  0x00\n  return\nstop\n\nsub_0: assembly {\n        /* \"verifystud.sol\":200:7148  contract verifystud {... */\n      mstore(0x40, 0x80)\n      callvalue\n      dup1\n      iszero\n      tag_1\n      jumpi\n      0x00\n      dup1\n      revert\n    tag_1:\n      pop\n      jumpi(tag_2, lt(calldatasize, 0x04))\n      shr(0xe0, calldataload(0x00))\n      dup1\n      0xa4156aec\n      gt\n      tag_24\n      jumpi\n      dup1\n      0xbd6a8504\n      gt\n      tag_25\n      jumpi\n      dup1\n      0xbd6a8504\n      eq\n      tag_18\n      jumpi\n      dup1\n      0xc865d881\n      eq\n      tag_19\n      jumpi\n      dup1\n      0xca90543d\n      eq\n      tag_20\n      jumpi\n      dup1\n      0xda085b7a\n      eq\n      tag_21\n      jumpi\n      dup1\n      0xf00c848d\n      eq\n      tag_22\n      jumpi\n      dup1\n      0xf20bcf9a\n      eq\n      tag_23\n      jumpi\n      jump(tag_2)\n    tag_25:\n      dup1\n      0xa4156aec\n      eq\n      tag_13\n      jumpi\n      dup1\n      0xb16f9023\n      eq\n      tag_14\n      jumpi\n      dup1\n      0xb1be843d\n      eq\n      tag_15\n      jumpi\n      dup1\n      0xb7774c1a\n      eq\n      tag_16\n      jumpi\n      dup1\n      0xbae0a585\n      eq\n      tag_17\n      jumpi\n      jump(tag_2)\n    tag_24:\n      dup1\n      0x78cfe85e\n      gt\n      tag_26\n      jumpi\n      dup1\n      0x78cfe85e\n      eq\n      tag_8\n      jumpi\n      dup1\n      0x82f7d392\n      eq\n      tag_9\n      jumpi\n      dup1\n      0x8a97503d\n      eq\n      tag_10\n      jumpi\n      dup1\n      0x911018ef\n      eq\n      tag_11\n      jumpi\n      dup1\n      0xa2a1fee5\n      eq\n      tag_12\n      jumpi\n      jump(tag_2)\n    tag_26:\n      dup1\n      0x20b260e3\n      eq\n      tag_3\n      jumpi\n      dup1\n      0x2ecca5fe\n      eq\n      tag_4\n      jumpi\n      dup1\n      0x548d434e\n      eq\n      tag_5\n      jumpi\n      dup1\n      0x5b969a04\n      eq\n      tag_6\n      jumpi\n      dup1\n      0x673a1746\n      eq\n      tag_7\n      jumpi\n    tag_2:\n      0x00\n      dup1\n      revert\n        /* \"verifystud.sol\":6448:6554  function StudentsCount() public view returns (uint256) {... */\n    tag_3:\n      tag_27\n      tag_28\n      jump\t// in\n    tag_27:\n      mload(0x40)\n      tag_29\n      swap2\n      swap1\n      tag_30\n      jump\t// in\n    tag_29:\n      mload(0x40)\n      dup1\n      swap2\n      sub\n      swap1\n      return\n        /* \"verifystud.sol\":6728:6863  function checkFunction() public view returns(bool){... */\n    tag_4:\n      tag_31\n      tag_32\n      jump\t// in\n    tag_31:\n      mload(0x40)\n      tag_33\n      swap2\n      swap1\n      tag_34\n      jump\t// in\n    tag_33:\n      mload(0x40)\n      dup1\n      swap2\n      sub\n      swap1\n      return\n        /* \"verifystud.sol\":1035:1081  pendingstudents[] public transferStudentsarray */\n    tag_5:\n      tag_35\n      0x04\n      dup1\n      calldatasize\n      sub\n      dup2\n      add\n      swap1\n      tag_36\n      swap2\n      swap1\n      tag_37\n      jump\t// in\n    tag_36:\n      tag_38\n      jump\t// in\n    tag_35:\n      mload(0x40)\n      tag_39\n      swap6\n      swap5\n      swap4\n      swap3\n      swap2\n      swap1\n      tag_40\n      jump\t// in\n    tag_39:\n      mload(0x40)\n      dup1\n      swap2\n      sub\n      swap1\n      return\n        /* \"verifystud.sol\":5205:5744  function getPendingStudentByindex(... */\n    tag_6:\n      tag_41\n      0x04\n      dup1\n      calldatasize\n      sub\n      dup2\n      add\n      swap1\n      tag_42\n      swap2\n      swap1\n      tag_37\n      jump\t// in\n    tag_42:\n      tag_43\n      jump\t// in\n    tag_41:\n      mload(0x40)\n      tag_44\n      swap6\n      swap5\n      swap4\n      swap3\n      swap2\n      swap1\n      tag_40\n      jump\t// in\n    tag_44:\n      mload(0x40)\n      dup1\n      swap2\n      sub\n      swap1\n      return\n        /* \"verifystud.sol\":227:245  address public MOE */\n    tag_7:\n      tag_45\n      tag_46\n      jump\t// in\n    tag_45:\n      mload(0x40)\n      tag_47\n      swap2\n      swap1\n      tag_48\n      jump\t// in\n    tag_47:\n      mload(0x40)\n      dup1\n      swap2\n      sub\n      swap1\n      return\n        /* \"verifystud.sol\":1433:1940  function addStudToPending(string memory _name, address _student_address, string memory _email, string memory _id, address _instAddress) public{... */\n    tag_8:\n      tag_49\n      0x04\n      dup1\n      calldatasize\n      sub\n      dup2\n      add\n      swap1\n      tag_50\n      swap2\n      swap1\n      tag_51\n      jump\t// in\n    tag_50:\n      tag_52\n      jump\t// in\n    tag_49:\n      stop\n        /* \"verifystud.sol\":6281:6432  function isStudent(address _studentAddress) public view returns (bool) {... */\n    tag_9:\n      tag_53\n      0x04\n      dup1\n      calldatasize\n      sub\n      dup2\n      add\n      swap1\n      tag_54\n      swap2\n      swap1\n      tag_55\n      jump\t// in\n    tag_54:\n      tag_56\n      jump\t// in\n    tag_53:\n      mload(0x40)\n      tag_57\n      swap2\n      swap1\n      tag_34\n      jump\t// in\n    tag_57:\n      mload(0x40)\n      dup1\n      swap2\n      sub\n      swap1\n      return\n        /* \"verifystud.sol\":1244:1425  function generateKey(... */\n    tag_10:\n      tag_58\n      0x04\n      dup1\n      calldatasize\n      sub\n      dup2\n      add\n      swap1\n      tag_59\n      swap2\n      swap1\n      tag_60\n      jump\t// in\n    tag_59:\n      tag_61\n      jump\t// in\n    tag_58:\n      mload(0x40)\n      tag_62\n      swap2\n      swap1\n      tag_63\n      jump\t// in\n    tag_62:\n      mload(0x40)\n      dup1\n      swap2\n      sub\n      swap1\n      return\n        /* \"verifystud.sol\":402:432  uint256 public trialnumber = 0 */\n    tag_11:\n      tag_64\n      tag_65\n      jump\t// in\n    tag_64:\n      mload(0x40)\n      tag_66\n      swap2\n      swap1\n      tag_30\n      jump\t// in\n    tag_66:\n      mload(0x40)\n      dup1\n      swap2\n      sub\n      swap1\n      return\n        /* \"verifystud.sol\":4946:5066  function getTransferStudentsCount() public view returns (uint256) {... */\n    tag_12:\n      tag_67\n      tag_68\n      jump\t// in\n    tag_67:\n      mload(0x40)\n      tag_69\n      swap2\n      swap1\n      tag_30\n      jump\t// in\n    tag_69:\n      mload(0x40)\n      dup1\n      swap2\n      sub\n      swap1\n      return\n        /* \"verifystud.sol\":5752:6273  function getTransferStudentByindex(... */\n    tag_13:\n      tag_70\n      0x04\n      dup1\n      calldatasize\n      sub\n      dup2\n      add\n      swap1\n      tag_71\n      swap2\n      swap1\n      tag_37\n      jump\t// in\n    tag_71:\n      tag_72\n      jump\t// in\n    tag_70:\n      mload(0x40)\n      tag_73\n      swap6\n      swap5\n      swap4\n      swap3\n      swap2\n      swap1\n      tag_40\n      jump\t// in\n    tag_73:\n      mload(0x40)\n      dup1\n      swap2\n      sub\n      swap1\n      return\n        /* \"verifystud.sol\":1954:2828  function addTransferStudToPending(string memory _name, address _student_address, string memory _email, string memory _id, address _currentInstAddress, address _newinstAddress) public{... */\n    tag_14:\n      tag_74\n      0x04\n      dup1\n      calldatasize\n      sub\n      dup2\n      add\n      swap1\n      tag_75\n      swap2\n      swap1\n      tag_76\n      jump\t// in\n    tag_75:\n      tag_77\n      jump\t// in\n    tag_74:\n      stop\n        /* \"verifystud.sol\":5074:5192  function getPendingStudentsCount() public view returns (uint256) {... */\n    tag_15:\n      tag_78\n      tag_79\n      jump\t// in\n    tag_78:\n      mload(0x40)\n      tag_80\n      swap2\n      swap1\n      tag_30\n      jump\t// in\n    tag_80:\n      mload(0x40)\n      dup1\n      swap2\n      sub\n      swap1\n      return\n        /* \"verifystud.sol\":319:364  address public studentRegisterContractAddress */\n    tag_16:\n      tag_81\n      tag_82\n      jump\t// in\n    tag_81:\n      mload(0x40)\n      tag_83\n      swap2\n      swap1\n      tag_48\n      jump\t// in\n    tag_83:\n      mload(0x40)\n      dup1\n      swap2\n      sub\n      swap1\n      return\n        /* \"verifystud.sol\":286:312  verifyinst public instregd */\n    tag_17:\n      tag_84\n      tag_85\n      jump\t// in\n    tag_84:\n      mload(0x40)\n      tag_86\n      swap2\n      swap1\n      tag_87\n      jump\t// in\n    tag_86:\n      mload(0x40)\n      dup1\n      swap2\n      sub\n      swap1\n      return\n        /* \"verifystud.sol\":983:1028  pendingstudents[] public pendingStudentsarray */\n    tag_18:\n      tag_88\n      0x04\n      dup1\n      calldatasize\n      sub\n      dup2\n      add\n      swap1\n      tag_89\n      swap2\n      swap1\n      tag_37\n      jump\t// in\n    tag_89:\n      tag_90\n      jump\t// in\n    tag_88:\n      mload(0x40)\n      tag_91\n      swap6\n      swap5\n      swap4\n      swap3\n      swap2\n      swap1\n      tag_40\n      jump\t// in\n    tag_91:\n      mload(0x40)\n      dup1\n      swap2\n      sub\n      swap1\n      return\n        /* \"verifystud.sol\":252:279  registerStud public studreg */\n    tag_19:\n      tag_92\n      tag_93\n      jump\t// in\n    tag_92:\n      mload(0x40)\n      tag_94\n      swap2\n      swap1\n      tag_95\n      jump\t// in\n    tag_94:\n      mload(0x40)\n      dup1\n      swap2\n      sub\n      swap1\n      return\n        /* \"verifystud.sol\":6562:6722  function getStudentContractByAddress(... */\n    tag_20:\n      tag_96\n      0x04\n      dup1\n      calldatasize\n      sub\n      dup2\n      add\n      swap1\n      tag_97\n      swap2\n      swap1\n      tag_55\n      jump\t// in\n    tag_97:\n      tag_98\n      jump\t// in\n    tag_96:\n      mload(0x40)\n      tag_99\n      swap2\n      swap1\n      tag_48\n      jump\t// in\n    tag_99:\n      mload(0x40)\n      dup1\n      swap2\n      sub\n      swap1\n      return\n        /* \"verifystud.sol\":3661:4477  function verifyTransferstudent(uint256 index) public {... */\n    tag_21:\n      tag_100\n      0x04\n      dup1\n      calldatasize\n      sub\n      dup2\n      add\n      swap1\n      tag_101\n      swap2\n      swap1\n      tag_37\n      jump\t// in\n    tag_101:\n      tag_102\n      jump\t// in\n    tag_100:\n      stop\n        /* \"verifystud.sol\":2836:3652  function verifystudent(uint256 index) public onlyverfiedInstitute  {... */\n    tag_22:\n      tag_103\n      0x04\n      dup1\n      calldatasize\n      sub\n      dup2\n      add\n      swap1\n      tag_104\n      swap2\n      swap1\n      tag_37\n      jump\t// in\n    tag_104:\n      tag_105\n      jump\t// in\n    tag_103:\n      stop\n        /* \"verifystud.sol\":4483:4938  function removeGraduateStud(uint256 index,address student_address,string memory id) public {... */\n    tag_23:\n      tag_106\n      0x04\n      dup1\n      calldatasize\n      sub\n      dup2\n      add\n      swap1\n      tag_107\n      swap2\n      swap1\n      tag_108\n      jump\t// in\n    tag_107:\n      tag_109\n      jump\t// in\n    tag_106:\n      stop\n        /* \"verifystud.sol\":6448:6554  function StudentsCount() public view returns (uint256) {... */\n    tag_28:\n        /* \"verifystud.sol\":6494:6501  uint256 */\n      0x00\n        /* \"verifystud.sol\":6521:6539  registeredStudents */\n      0x08\n        /* \"verifystud.sol\":6521:6546  registeredStudents.length */\n      dup1\n      sload\n      swap1\n      pop\n        /* \"verifystud.sol\":6514:6546  return registeredStudents.length */\n      swap1\n      pop\n        /* \"verifystud.sol\":6448:6554  function StudentsCount() public view returns (uint256) {... */\n      swap1\n      jump\t// out\n        /* \"verifystud.sol\":6728:6863  function checkFunction() public view returns(bool){... */\n    tag_32:\n        /* \"verifystud.sol\":6773:6777  bool */\n      0x00\n        /* \"verifystud.sol\":6850:6851  0 */\n      dup1\n        /* \"verifystud.sol\":6796:6852  instregd.registeredinstitutesmap(msg.sender)!=address(0) */\n      0xffffffffffffffffffffffffffffffffffffffff\n      and\n        /* \"verifystud.sol\":6796:6804  instregd */\n      0x02\n      0x00\n      swap1\n      sload\n      swap1\n      0x0100\n      exp\n      swap1\n      div\n      0xffffffffffffffffffffffffffffffffffffffff\n      and\n        /* \"verifystud.sol\":6796:6828  instregd.registeredinstitutesmap */\n      0xffffffffffffffffffffffffffffffffffffffff\n      and\n      0x839f602d\n        /* \"verifystud.sol\":6829:6839  msg.sender */\n      caller\n        /* \"verifystud.sol\":6796:6840  instregd.registeredinstitutesmap(msg.sender) */\n      mload(0x40)\n      dup3\n      0xffffffff\n      and\n      0xe0\n      shl\n      dup2\n      mstore\n      0x04\n      add\n      tag_112\n      swap2\n      swap1\n      tag_48\n      jump\t// in\n    tag_112:\n      0x20\n      mload(0x40)\n      dup1\n      dup4\n      sub\n      dup2\n      dup7\n      gas\n      staticcall\n      iszero\n      dup1\n      iszero\n      tag_114\n      jumpi\n      returndatasize\n      0x00\n      dup1\n      returndatacopy\n      revert(0x00, returndatasize)\n    tag_114:\n      pop\n      pop\n      pop\n      pop\n      mload(0x40)\n      returndatasize\n      not(0x1f)\n      0x1f\n      dup3\n      add\n      and\n      dup3\n      add\n      dup1\n      0x40\n      mstore\n      pop\n      dup2\n      add\n      swap1\n      tag_115\n      swap2\n      swap1\n      tag_116\n      jump\t// in\n    tag_115:\n        /* \"verifystud.sol\":6796:6852  instregd.registeredinstitutesmap(msg.sender)!=address(0) */\n      0xffffffffffffffffffffffffffffffffffffffff\n      and\n      eq\n      iszero\n        /* \"verifystud.sol\":6789:6853  return(instregd.registeredinstitutesmap(msg.sender)!=address(0)) */\n      swap1\n      pop\n        /* \"verifystud.sol\":6728:6863  function checkFunction() public view returns(bool){... */\n      swap1\n      jump\t// out\n        /* \"verifystud.sol\":1035:1081  pendingstudents[] public transferStudentsarray */\n    tag_38:\n      0x06\n      dup2\n      dup2\n      sload\n      dup2\n      lt\n      tag_117\n      jumpi\n      0x00\n      dup1\n      revert\n    tag_117:\n      swap1\n      0x00\n      mstore\n      keccak256(0x00, 0x20)\n      swap1\n      0x05\n      mul\n      add\n      0x00\n      swap2\n      pop\n      swap1\n      pop\n      dup1\n      0x00\n      add\n      dup1\n      sload\n      tag_119\n      swap1\n      tag_120\n      jump\t// in\n    tag_119:\n      dup1\n      0x1f\n      add\n      0x20\n      dup1\n      swap2\n      div\n      mul\n      0x20\n      add\n      mload(0x40)\n      swap1\n      dup2\n      add\n      0x40\n      mstore\n      dup1\n      swap3\n      swap2\n      swap1\n      dup2\n      dup2\n      mstore\n      0x20\n      add\n      dup3\n      dup1\n      sload\n      tag_121\n      swap1\n      tag_120\n      jump\t// in\n    tag_121:\n      dup1\n      iszero\n      tag_122\n      jumpi\n      dup1\n      0x1f\n      lt\n      tag_123\n      jumpi\n      0x0100\n      dup1\n      dup4\n      sload\n      div\n      mul\n      dup4\n      mstore\n      swap2\n      0x20\n      add\n      swap2\n      jump(tag_122)\n    tag_123:\n      dup3\n      add\n      swap2\n      swap1\n      0x00\n      mstore\n      keccak256(0x00, 0x20)\n      swap1\n    tag_124:\n      dup2\n      sload\n      dup2\n      mstore\n      swap1\n      0x01\n      add\n      swap1\n      0x20\n      add\n      dup1\n      dup4\n      gt\n      tag_124\n      jumpi\n      dup3\n      swap1\n      sub\n      0x1f\n      and\n      dup3\n      add\n      swap2\n    tag_122:\n      pop\n      pop\n      pop\n      pop\n      pop\n      swap1\n      dup1\n      0x01\n      add\n      0x00\n      swap1\n      sload\n      swap1\n      0x0100\n      exp\n      swap1\n      div\n      0xffffffffffffffffffffffffffffffffffffffff\n      and\n      swap1\n      dup1\n      0x02\n      add\n      dup1\n      sload\n      tag_125\n      swap1\n      tag_120\n      jump\t// in\n    tag_125:\n      dup1\n      0x1f\n      add\n      0x20\n      dup1\n      swap2\n      div\n      mul\n      0x20\n      add\n      mload(0x40)\n      swap1\n      dup2\n      add\n      0x40\n      mstore\n      dup1\n      swap3\n      swap2\n      swap1\n      dup2\n      dup2\n      mstore\n      0x20\n      add\n      dup3\n      dup1\n      sload\n      tag_126\n      swap1\n      tag_120\n      jump\t// in\n    tag_126:\n      dup1\n      iszero\n      tag_127\n      jumpi\n      dup1\n      0x1f\n      lt\n      tag_128\n      jumpi\n      0x0100\n      dup1\n      dup4\n      sload\n      div\n      mul\n      dup4\n      mstore\n      swap2\n      0x20\n      add\n      swap2\n      jump(tag_127)\n    tag_128:\n      dup3\n      add\n      swap2\n      swap1\n      0x00\n      mstore\n      keccak256(0x00, 0x20)\n      swap1\n    tag_129:\n      dup2\n      sload\n      dup2\n      mstore\n      swap1\n      0x01\n      add\n      swap1\n      0x20\n      add\n      dup1\n      dup4\n      gt\n      tag_129\n      jumpi\n      dup3\n      swap1\n      sub\n      0x1f\n      and\n      dup3\n      add\n      swap2\n    tag_127:\n      pop\n      pop\n      pop\n      pop\n      pop\n      swap1\n      dup1\n      0x03\n      add\n      dup1\n      sload\n      tag_130\n      swap1\n      tag_120\n      jump\t// in\n    tag_130:\n      dup1\n      0x1f\n      add\n      0x20\n      dup1\n      swap2\n      div\n      mul\n      0x20\n      add\n      mload(0x40)\n      swap1\n      dup2\n      add\n      0x40\n      mstore\n      dup1\n      swap3\n      swap2\n      swap1\n      dup2\n      dup2\n      mstore\n      0x20\n      add\n      dup3\n      dup1\n      sload\n      tag_131\n      swap1\n      tag_120\n      jump\t// in\n    tag_131:\n      dup1\n      iszero\n      tag_132\n      jumpi\n      dup1\n      0x1f\n      lt\n      tag_133\n      jumpi\n      0x0100\n      dup1\n      dup4\n      sload\n      div\n      mul\n      dup4\n      mstore\n      swap2\n      0x20\n      add\n      swap2\n      jump(tag_132)\n    tag_133:\n      dup3\n      add\n      swap2\n      swap1\n      0x00\n      mstore\n      keccak256(0x00, 0x20)\n      swap1\n    tag_134:\n      dup2\n      sload\n      dup2\n      mstore\n      swap1\n      0x01\n      add\n      swap1\n      0x20\n      add\n      dup1\n      dup4\n      gt\n      tag_134\n      jumpi\n      dup3\n      swap1\n      sub\n      0x1f\n      and\n      dup3\n      add\n      swap2\n    tag_132:\n      pop\n      pop\n      pop\n      pop\n      pop\n      swap1\n      dup1\n      0x04\n      add\n      0x00\n      swap1\n      sload\n      swap1\n      0x0100\n      exp\n      swap1\n      div\n      0xffffffffffffffffffffffffffffffffffffffff\n      and\n      swap1\n      pop\n      dup6\n      jump\t// out\n        /* \"verifystud.sol\":5205:5744  function getPendingStudentByindex(... */\n    tag_43:\n        /* \"verifystud.sol\":5318:5331  string memory */\n      0x60\n        /* \"verifystud.sol\":5333:5340  address */\n      0x00\n        /* \"verifystud.sol\":5362:5375  string memory */\n      0x60\n        /* \"verifystud.sol\":5377:5390  string memory */\n      dup1\n        /* \"verifystud.sol\":5392:5399  address */\n      0x00\n        /* \"verifystud.sol\":5433:5453  pendingStudentsarray */\n      0x05\n        /* \"verifystud.sol\":5433:5460  pendingStudentsarray.length */\n      dup1\n      sload\n      swap1\n      pop\n        /* \"verifystud.sol\":5425:5430  index */\n      dup7\n        /* \"verifystud.sol\":5425:5460  index < pendingStudentsarray.length */\n      lt\n        /* \"verifystud.sol\":5417:5484  require(index < pendingStudentsarray.length, \"Index out of bounds\") */\n      tag_136\n      jumpi\n      mload(0x40)\n      0x08c379a000000000000000000000000000000000000000000000000000000000\n      dup2\n      mstore\n      0x04\n      add\n      tag_137\n      swap1\n      tag_138\n      jump\t// in\n    tag_137:\n      mload(0x40)\n      dup1\n      swap2\n      sub\n      swap1\n      revert\n    tag_136:\n        /* \"verifystud.sol\":5497:5531  pendingstudents memory studentinfo */\n      0x00\n        /* \"verifystud.sol\":5534:5554  pendingStudentsarray */\n      0x05\n        /* \"verifystud.sol\":5555:5560  index */\n      dup8\n        /* \"verifystud.sol\":5534:5561  pendingStudentsarray[index] */\n      dup2\n      sload\n      dup2\n      lt\n      tag_139\n      jumpi\n      tag_140\n      tag_141\n      jump\t// in\n    tag_140:\n    tag_139:\n      swap1\n      0x00\n      mstore\n      keccak256(0x00, 0x20)\n      swap1\n      0x05\n      mul\n      add\n        /* \"verifystud.sol\":5497:5561  pendingstudents memory studentinfo = pendingStudentsarray[index] */\n      mload(0x40)\n      dup1\n      0xa0\n      add\n      0x40\n      mstore\n      swap1\n      dup2\n      0x00\n      dup3\n      add\n      dup1\n      sload\n      tag_143\n      swap1\n      tag_120\n      jump\t// in\n    tag_143:\n      dup1\n      0x1f\n      add\n      0x20\n      dup1\n      swap2\n      div\n      mul\n      0x20\n      add\n      mload(0x40)\n      swap1\n      dup2\n      add\n      0x40\n      mstore\n      dup1\n      swap3\n      swap2\n      swap1\n      dup2\n      dup2\n      mstore\n      0x20\n      add\n      dup3\n      dup1\n      sload\n      tag_144\n      swap1\n      tag_120\n      jump\t// in\n    tag_144:\n      dup1\n      iszero\n      tag_145\n      jumpi\n      dup1\n      0x1f\n      lt\n      tag_146\n      jumpi\n      0x0100\n      dup1\n      dup4\n      sload\n      div\n      mul\n      dup4\n      mstore\n      swap2\n      0x20\n      add\n      swap2\n      jump(tag_145)\n    tag_146:\n      dup3\n      add\n      swap2\n      swap1\n      0x00\n      mstore\n      keccak256(0x00, 0x20)\n      swap1\n    tag_147:\n      dup2\n      sload\n      dup2\n      mstore\n      swap1\n      0x01\n      add\n      swap1\n      0x20\n      add\n      dup1\n      dup4\n      gt\n      tag_147\n      jumpi\n      dup3\n      swap1\n      sub\n      0x1f\n      and\n      dup3\n      add\n      swap2\n    tag_145:\n      pop\n      pop\n      pop\n      pop\n      pop\n      dup2\n      mstore\n      0x20\n      add\n      0x01\n      dup3\n      add\n      0x00\n      swap1\n      sload\n      swap1\n      0x0100\n      exp\n      swap1\n      div\n      0xffffffffffffffffffffffffffffffffffffffff\n      and\n      0xffffffffffffffffffffffffffffffffffffffff\n      and\n      0xffffffffffffffffffffffffffffffffffffffff\n      and\n      dup2\n      mstore\n      0x20\n      add\n      0x02\n      dup3\n      add\n      dup1\n      sload\n      tag_148\n      swap1\n      tag_120\n      jump\t// in\n    tag_148:\n      dup1\n      0x1f\n      add\n      0x20\n      dup1\n      swap2\n      div\n      mul\n      0x20\n      add\n      mload(0x40)\n      swap1\n      dup2\n      add\n      0x40\n      mstore\n      dup1\n      swap3\n      swap2\n      swap1\n      dup2\n      dup2\n      mstore\n      0x20\n      add\n      dup3\n      dup1\n      sload\n      tag_149\n      swap1\n      tag_120\n      jump\t// in\n    tag_149:\n      dup1\n      iszero\n      tag_150\n      jumpi\n      dup1\n      0x1f\n      lt\n      tag_151\n      jumpi\n      0x0100\n      dup1\n      dup4\n      sload\n      div\n      mul\n      dup4\n      mstore\n      swap2\n      0x20\n      add\n      swap2\n      jump(tag_150)\n    tag_151:\n      dup3\n      add\n      swap2\n      swap1\n      0x00\n      mstore\n      keccak256(0x00, 0x20)\n      swap1\n    tag_152:\n      dup2\n      sload\n      dup2\n      mstore\n      swap1\n      0x01\n      add\n      swap1\n      0x20\n      add\n      dup1\n      dup4\n      gt\n      tag_152\n      jumpi\n      dup3\n      swap1\n      sub\n      0x1f\n      and\n      dup3\n      add\n      swap2\n    tag_150:\n      pop\n      pop\n      pop\n      pop\n      pop\n      dup2\n      mstore\n      0x20\n      add\n      0x03\n      dup3\n      add\n      dup1\n      sload\n      tag_153\n      swap1\n      tag_120\n      jump\t// in\n    tag_153:\n      dup1\n      0x1f\n      add\n      0x20\n      dup1\n      swap2\n      div\n      mul\n      0x20\n      add\n      mload(0x40)\n      swap1\n      dup2\n      add\n      0x40\n      mstore\n      dup1\n      swap3\n      swap2\n      swap1\n      dup2\n      dup2\n      mstore\n      0x20\n      add\n      dup3\n      dup1\n      sload\n      tag_154\n      swap1\n      tag_120\n      jump\t// in\n    tag_154:\n      dup1\n      iszero\n      tag_155\n      jumpi\n      dup1\n      0x1f\n      lt\n      tag_156\n      jumpi\n      0x0100\n      dup1\n      dup4\n      sload\n      div\n      mul\n      dup4\n      mstore\n      swap2\n      0x20\n      add\n      swap2\n      jump(tag_155)\n    tag_156:\n      dup3\n      add\n      swap2\n      swap1\n      0x00\n      mstore\n      keccak256(0x00, 0x20)\n      swap1\n    tag_157:\n      dup2\n      sload\n      dup2\n      mstore\n      swap1\n      0x01\n      add\n      swap1\n      0x20\n      add\n      dup1\n      dup4\n      gt\n      tag_157\n      jumpi\n      dup3\n      swap1\n      sub\n      0x1f\n      and\n      dup3\n      add\n      swap2\n    tag_155:\n      pop\n      pop\n      pop\n      pop\n      pop\n      dup2\n      mstore\n      0x20\n      add\n      0x04\n      dup3\n      add\n      0x00\n      swap1\n      sload\n      swap1\n      0x0100\n      exp\n      swap1\n      div\n      0xffffffffffffffffffffffffffffffffffffffff\n      and\n      0xffffffffffffffffffffffffffffffffffffffff\n      and\n      0xffffffffffffffffffffffffffffffffffffffff\n      and\n      dup2\n      mstore\n      pop\n      pop\n      swap1\n      pop\n        /* \"verifystud.sol\":5588:5599  studentinfo */\n      dup1\n        /* \"verifystud.sol\":5588:5604  studentinfo.name */\n      0x00\n      add\n      mload\n        /* \"verifystud.sol\":5615:5626  studentinfo */\n      dup2\n        /* \"verifystud.sol\":5615:5642  studentinfo.student_address */\n      0x20\n      add\n      mload\n        /* \"verifystud.sol\":5653:5664  studentinfo */\n      dup3\n        /* \"verifystud.sol\":5653:5670  studentinfo.email */\n      0x40\n      add\n      mload\n        /* \"verifystud.sol\":5681:5692  studentinfo */\n      dup4\n        /* \"verifystud.sol\":5681:5695  studentinfo.id */\n      0x60\n      add\n      mload\n        /* \"verifystud.sol\":5706:5717  studentinfo */\n      dup5\n        /* \"verifystud.sol\":5706:5729  studentinfo.instAddress */\n      0x80\n      add\n      mload\n        /* \"verifystud.sol\":5570:5736  return (... */\n      swap6\n      pop\n      swap6\n      pop\n      swap6\n      pop\n      swap6\n      pop\n      swap6\n      pop\n      pop\n        /* \"verifystud.sol\":5205:5744  function getPendingStudentByindex(... */\n      swap2\n      swap4\n      swap6\n      swap1\n      swap3\n      swap5\n      pop\n      jump\t// out\n        /* \"verifystud.sol\":227:245  address public MOE */\n    tag_46:\n      0x00\n      dup1\n      sload\n      swap1\n      0x0100\n      exp\n      swap1\n      div\n      0xffffffffffffffffffffffffffffffffffffffff\n      and\n      dup2\n      jump\t// out\n        /* \"verifystud.sol\":1433:1940  function addStudToPending(string memory _name, address _student_address, string memory _email, string memory _id, address _instAddress) public{... */\n    tag_52:\n        /* \"verifystud.sol\":1598:1638  pendingstudents memory newpendingstudent */\n      tag_159\n      tag_160\n      jump\t// in\n    tag_159:\n        /* \"verifystud.sol\":1674:1679  _name */\n      dup6\n        /* \"verifystud.sol\":1649:1666  newpendingstudent */\n      dup2\n        /* \"verifystud.sol\":1649:1671  newpendingstudent.name */\n      0x00\n      add\n        /* \"verifystud.sol\":1649:1679  newpendingstudent.name = _name */\n      dup2\n      swap1\n      mstore\n      pop\n        /* \"verifystud.sol\":1726:1742  _student_address */\n      dup5\n        /* \"verifystud.sol\":1690:1707  newpendingstudent */\n      dup2\n        /* \"verifystud.sol\":1690:1723  newpendingstudent.student_address */\n      0x20\n      add\n        /* \"verifystud.sol\":1690:1742  newpendingstudent.student_address = _student_address */\n      swap1\n      0xffffffffffffffffffffffffffffffffffffffff\n      and\n      swap1\n      dup2\n      0xffffffffffffffffffffffffffffffffffffffff\n      and\n      dup2\n      mstore\n      pop\n      pop\n        /* \"verifystud.sol\":1779:1785  _email */\n      dup4\n        /* \"verifystud.sol\":1753:1770  newpendingstudent */\n      dup2\n        /* \"verifystud.sol\":1753:1776  newpendingstudent.email */\n      0x40\n      add\n        /* \"verifystud.sol\":1753:1785  newpendingstudent.email = _email */\n      dup2\n      swap1\n      mstore\n      pop\n        /* \"verifystud.sol\":1819:1822  _id */\n      dup3\n        /* \"verifystud.sol\":1796:1813  newpendingstudent */\n      dup2\n        /* \"verifystud.sol\":1796:1816  newpendingstudent.id */\n      0x60\n      add\n        /* \"verifystud.sol\":1796:1822  newpendingstudent.id = _id */\n      dup2\n      swap1\n      mstore\n      pop\n        /* \"verifystud.sol\":1865:1877  _instAddress */\n      dup2\n        /* \"verifystud.sol\":1833:1850  newpendingstudent */\n      dup2\n        /* \"verifystud.sol\":1833:1862  newpendingstudent.instAddress */\n      0x80\n      add\n        /* \"verifystud.sol\":1833:1877  newpendingstudent.instAddress = _instAddress */\n      swap1\n      0xffffffffffffffffffffffffffffffffffffffff\n      and\n      swap1\n      dup2\n      0xffffffffffffffffffffffffffffffffffffffff\n      and\n      dup2\n      mstore\n      pop\n      pop\n        /* \"verifystud.sol\":1888:1908  pendingStudentsarray */\n      0x05\n        /* \"verifystud.sol\":1914:1931  newpendingstudent */\n      dup2\n        /* \"verifystud.sol\":1888:1932  pendingStudentsarray.push(newpendingstudent) */\n      swap1\n      dup1\n      0x01\n      dup2\n      sload\n      add\n      dup1\n      dup3\n      sstore\n      dup1\n      swap2\n      pop\n      pop\n      0x01\n      swap1\n      sub\n      swap1\n      0x00\n      mstore\n      keccak256(0x00, 0x20)\n      swap1\n      0x05\n      mul\n      add\n      0x00\n      swap1\n      swap2\n      swap1\n      swap2\n      swap1\n      swap2\n      pop\n      0x00\n      dup3\n      add\n      mload\n      dup2\n      0x00\n      add\n      swap1\n      dup1\n      mload\n      swap1\n      0x20\n      add\n      swap1\n      tag_162\n      swap3\n      swap2\n      swap1\n      tag_163\n      jump\t// in\n    tag_162:\n      pop\n      0x20\n      dup3\n      add\n      mload\n      dup2\n      0x01\n      add\n      exp(0x0100, 0x00)\n      dup2\n      sload\n      dup2\n      0xffffffffffffffffffffffffffffffffffffffff\n      mul\n      not\n      and\n      swap1\n      dup4\n      0xffffffffffffffffffffffffffffffffffffffff\n      and\n      mul\n      or\n      swap1\n      sstore\n      pop\n      0x40\n      dup3\n      add\n      mload\n      dup2\n      0x02\n      add\n      swap1\n      dup1\n      mload\n      swap1\n      0x20\n      add\n      swap1\n      tag_164\n      swap3\n      swap2\n      swap1\n      tag_163\n      jump\t// in\n    tag_164:\n      pop\n      0x60\n      dup3\n      add\n      mload\n      dup2\n      0x03\n      add\n      swap1\n      dup1\n      mload\n      swap1\n      0x20\n      add\n      swap1\n      tag_165\n      swap3\n      swap2\n      swap1\n      tag_163\n      jump\t// in\n    tag_165:\n      pop\n      0x80\n      dup3\n      add\n      mload\n      dup2\n      0x04\n      add\n      exp(0x0100, 0x00)\n      dup2\n      sload\n      dup2\n      0xffffffffffffffffffffffffffffffffffffffff\n      mul\n      not\n      and\n      swap1\n      dup4\n      0xffffffffffffffffffffffffffffffffffffffff\n      and\n      mul\n      or\n      swap1\n      sstore\n      pop\n      pop\n      pop\n        /* \"verifystud.sol\":1575:1940  {... */\n      pop\n        /* \"verifystud.sol\":1433:1940  function addStudToPending(string memory _name, address _student_address, string memory _email, string memory _id, address _instAddress) public{... */\n      pop\n      pop\n      pop\n      pop\n      pop\n      jump\t// out\n        /* \"verifystud.sol\":6281:6432  function isStudent(address _studentAddress) public view returns (bool) {... */\n    tag_56:\n        /* \"verifystud.sol\":6346:6350  bool */\n      0x00\n        /* \"verifystud.sol\":6420:6423  0x0 */\n      dup1\n        /* \"verifystud.sol\":6370:6424  registeredStudentsmap[_studentAddress] != address(0x0) */\n      0xffffffffffffffffffffffffffffffffffffffff\n      and\n        /* \"verifystud.sol\":6370:6391  registeredStudentsmap */\n      0x07\n        /* \"verifystud.sol\":6370:6408  registeredStudentsmap[_studentAddress] */\n      0x00\n        /* \"verifystud.sol\":6392:6407  _studentAddress */\n      dup5\n        /* \"verifystud.sol\":6370:6408  registeredStudentsmap[_studentAddress] */\n      0xffffffffffffffffffffffffffffffffffffffff\n      and\n      0xffffffffffffffffffffffffffffffffffffffff\n      and\n      dup2\n      mstore\n      0x20\n      add\n      swap1\n      dup2\n      mstore\n      0x20\n      add\n      0x00\n      keccak256\n      0x00\n      swap1\n      sload\n      swap1\n      0x0100\n      exp\n      swap1\n      div\n      0xffffffffffffffffffffffffffffffffffffffff\n      and\n        /* \"verifystud.sol\":6370:6424  registeredStudentsmap[_studentAddress] != address(0x0) */\n      0xffffffffffffffffffffffffffffffffffffffff\n      and\n      eq\n      iszero\n        /* \"verifystud.sol\":6363:6424  return registeredStudentsmap[_studentAddress] != address(0x0) */\n      swap1\n      pop\n        /* \"verifystud.sol\":6281:6432  function isStudent(address _studentAddress) public view returns (bool) {... */\n      swap2\n      swap1\n      pop\n      jump\t// out\n        /* \"verifystud.sol\":1244:1425  function generateKey(... */\n    tag_61:\n        /* \"verifystud.sol\":1348:1355  bytes32 */\n      0x00\n        /* \"verifystud.sol\":1402:1410  _address */\n      dup3\n        /* \"verifystud.sol\":1412:1415  _id */\n      dup3\n        /* \"verifystud.sol\":1385:1416  abi.encodePacked(_address, _id) */\n      add(0x20, mload(0x40))\n      tag_168\n      swap3\n      swap2\n      swap1\n      tag_169\n      jump\t// in\n    tag_168:\n      mload(0x40)\n      0x20\n      dup2\n      dup4\n      sub\n      sub\n      dup2\n      mstore\n      swap1\n      0x40\n      mstore\n        /* \"verifystud.sol\":1375:1417  keccak256(abi.encodePacked(_address, _id)) */\n      dup1\n      mload\n      swap1\n      0x20\n      add\n      keccak256\n        /* \"verifystud.sol\":1368:1417  return keccak256(abi.encodePacked(_address, _id)) */\n      swap1\n      pop\n        /* \"verifystud.sol\":1244:1425  function generateKey(... */\n      swap3\n      swap2\n      pop\n      pop\n      jump\t// out\n        /* \"verifystud.sol\":402:432  uint256 public trialnumber = 0 */\n    tag_65:\n      sload(0x04)\n      dup2\n      jump\t// out\n        /* \"verifystud.sol\":4946:5066  function getTransferStudentsCount() public view returns (uint256) {... */\n    tag_68:\n        /* \"verifystud.sol\":5003:5010  uint256 */\n      0x00\n        /* \"verifystud.sol\":5030:5051  transferStudentsarray */\n      0x06\n        /* \"verifystud.sol\":5030:5058  transferStudentsarray.length */\n      dup1\n      sload\n      swap1\n      pop\n        /* \"verifystud.sol\":5023:5058  return transferStudentsarray.length */\n      swap1\n      pop\n        /* \"verifystud.sol\":4946:5066  function getTransferStudentsCount() public view returns (uint256) {... */\n      swap1\n      jump\t// out\n        /* \"verifystud.sol\":5752:6273  function getTransferStudentByindex(... */\n    tag_72:\n        /* \"verifystud.sol\":5866:5879  string memory */\n      0x60\n        /* \"verifystud.sol\":5881:5888  address */\n      0x00\n        /* \"verifystud.sol\":5890:5903  string memory */\n      0x60\n        /* \"verifystud.sol\":5905:5918  string memory */\n      dup1\n        /* \"verifystud.sol\":5920:5927  address */\n      0x00\n        /* \"verifystud.sol\":5961:5981  pendingStudentsarray */\n      0x05\n        /* \"verifystud.sol\":5961:5988  pendingStudentsarray.length */\n      dup1\n      sload\n      swap1\n      pop\n        /* \"verifystud.sol\":5953:5958  index */\n      dup7\n        /* \"verifystud.sol\":5953:5988  index < pendingStudentsarray.length */\n      lt\n        /* \"verifystud.sol\":5945:6012  require(index < pendingStudentsarray.length, \"Index out of bounds\") */\n      tag_172\n      jumpi\n      mload(0x40)\n      0x08c379a000000000000000000000000000000000000000000000000000000000\n      dup2\n      mstore\n      0x04\n      add\n      tag_173\n      swap1\n      tag_138\n      jump\t// in\n    tag_173:\n      mload(0x40)\n      dup1\n      swap2\n      sub\n      swap1\n      revert\n    tag_172:\n        /* \"verifystud.sol\":6025:6059  pendingstudents memory studentinfo */\n      0x00\n        /* \"verifystud.sol\":6062:6083  transferStudentsarray */\n      0x06\n        /* \"verifystud.sol\":6084:6089  index */\n      dup8\n        /* \"verifystud.sol\":6062:6090  transferStudentsarray[index] */\n      dup2\n      sload\n      dup2\n      lt\n      tag_174\n      jumpi\n      tag_175\n      tag_141\n      jump\t// in\n    tag_175:\n    tag_174:\n      swap1\n      0x00\n      mstore\n      keccak256(0x00, 0x20)\n      swap1\n      0x05\n      mul\n      add\n        /* \"verifystud.sol\":6025:6090  pendingstudents memory studentinfo = transferStudentsarray[index] */\n      mload(0x40)\n      dup1\n      0xa0\n      add\n      0x40\n      mstore\n      swap1\n      dup2\n      0x00\n      dup3\n      add\n      dup1\n      sload\n      tag_177\n      swap1\n      tag_120\n      jump\t// in\n    tag_177:\n      dup1\n      0x1f\n      add\n      0x20\n      dup1\n      swap2\n      div\n      mul\n      0x20\n      add\n      mload(0x40)\n      swap1\n      dup2\n      add\n      0x40\n      mstore\n      dup1\n      swap3\n      swap2\n      swap1\n      dup2\n      dup2\n      mstore\n      0x20\n      add\n      dup3\n      dup1\n      sload\n      tag_178\n      swap1\n      tag_120\n      jump\t// in\n    tag_178:\n      dup1\n      iszero\n      tag_179\n      jumpi\n      dup1\n      0x1f\n      lt\n      tag_180\n      jumpi\n      0x0100\n      dup1\n      dup4\n      sload\n      div\n      mul\n      dup4\n      mstore\n      swap2\n      0x20\n      add\n      swap2\n      jump(tag_179)\n    tag_180:\n      dup3\n      add\n      swap2\n      swap1\n      0x00\n      mstore\n      keccak256(0x00, 0x20)\n      swap1\n    tag_181:\n      dup2\n      sload\n      dup2\n      mstore\n      swap1\n      0x01\n      add\n      swap1\n      0x20\n      add\n      dup1\n      dup4\n      gt\n      tag_181\n      jumpi\n      dup3\n      swap1\n      sub\n      0x1f\n      and\n      dup3\n      add\n      swap2\n    tag_179:\n      pop\n      pop\n      pop\n      pop\n      pop\n      dup2\n      mstore\n      0x20\n      add\n      0x01\n      dup3\n      add\n      0x00\n      swap1\n      sload\n      swap1\n      0x0100\n      exp\n      swap1\n      div\n      0xffffffffffffffffffffffffffffffffffffffff\n      and\n      0xffffffffffffffffffffffffffffffffffffffff\n      and\n      0xffffffffffffffffffffffffffffffffffffffff\n      and\n      dup2\n      mstore\n      0x20\n      add\n      0x02\n      dup3\n      add\n      dup1\n      sload\n      tag_182\n      swap1\n      tag_120\n      jump\t// in\n    tag_182:\n      dup1\n      0x1f\n      add\n      0x20\n      dup1\n      swap2\n      div\n      mul\n      0x20\n      add\n      mload(0x40)\n      swap1\n      dup2\n      add\n      0x40\n      mstore\n      dup1\n      swap3\n      swap2\n      swap1\n      dup2\n      dup2\n      mstore\n      0x20\n      add\n      dup3\n      dup1\n      sload\n      tag_183\n      swap1\n      tag_120\n      jump\t// in\n    tag_183:\n      dup1\n      iszero\n      tag_184\n      jumpi\n      dup1\n      0x1f\n      lt\n      tag_185\n      jumpi\n      0x0100\n      dup1\n      dup4\n      sload\n      div\n      mul\n      dup4\n      mstore\n      swap2\n      0x20\n      add\n      swap2\n      jump(tag_184)\n    tag_185:\n      dup3\n      add\n      swap2\n      swap1\n      0x00\n      mstore\n      keccak256(0x00, 0x20)\n      swap1\n    tag_186:\n      dup2\n      sload\n      dup2\n      mstore\n      swap1\n      0x01\n      add\n      swap1\n      0x20\n      add\n      dup1\n      dup4\n      gt\n      tag_186\n      jumpi\n      dup3\n      swap1\n      sub\n      0x1f\n      and\n      dup3\n      add\n      swap2\n    tag_184:\n      pop\n      pop\n      pop\n      pop\n      pop\n      dup2\n      mstore\n      0x20\n      add\n      0x03\n      dup3\n      add\n      dup1\n      sload\n      tag_187\n      swap1\n      tag_120\n      jump\t// in\n    tag_187:\n      dup1\n      0x1f\n      add\n      0x20\n      dup1\n      swap2\n      div\n      mul\n      0x20\n      add\n      mload(0x40)\n      swap1\n      dup2\n      add\n      0x40\n      mstore\n      dup1\n      swap3\n      swap2\n      swap1\n      dup2\n      dup2\n      mstore\n      0x20\n      add\n      dup3\n      dup1\n      sload\n      tag_188\n      swap1\n      tag_120\n      jump\t// in\n    tag_188:\n      dup1\n      iszero\n      tag_189\n      jumpi\n      dup1\n      0x1f\n      lt\n      tag_190\n      jumpi\n      0x0100\n      dup1\n      dup4\n      sload\n      div\n      mul\n      dup4\n      mstore\n      swap2\n      0x20\n      add\n      swap2\n      jump(tag_189)\n    tag_190:\n      dup3\n      add\n      swap2\n      swap1\n      0x00\n      mstore\n      keccak256(0x00, 0x20)\n      swap1\n    tag_191:\n      dup2\n      sload\n      dup2\n      mstore\n      swap1\n      0x01\n      add\n      swap1\n      0x20\n      add\n      dup1\n      dup4\n      gt\n      tag_191\n      jumpi\n      dup3\n      swap1\n      sub\n      0x1f\n      and\n      dup3\n      add\n      swap2\n    tag_189:\n      pop\n      pop\n      pop\n      pop\n      pop\n      dup2\n      mstore\n      0x20\n      add\n      0x04\n      dup3\n      add\n      0x00\n      swap1\n      sload\n      swap1\n      0x0100\n      exp\n      swap1\n      div\n      0xffffffffffffffffffffffffffffffffffffffff\n      and\n      0xffffffffffffffffffffffffffffffffffffffff\n      and\n      0xffffffffffffffffffffffffffffffffffffffff\n      and\n      dup2\n      mstore\n      pop\n      pop\n      swap1\n      pop\n        /* \"verifystud.sol\":6117:6128  studentinfo */\n      dup1\n        /* \"verifystud.sol\":6117:6133  studentinfo.name */\n      0x00\n      add\n      mload\n        /* \"verifystud.sol\":6144:6155  studentinfo */\n      dup2\n        /* \"verifystud.sol\":6144:6171  studentinfo.student_address */\n      0x20\n      add\n      mload\n        /* \"verifystud.sol\":6182:6193  studentinfo */\n      dup3\n        /* \"verifystud.sol\":6182:6199  studentinfo.email */\n      0x40\n      add\n      mload\n        /* \"verifystud.sol\":6210:6221  studentinfo */\n      dup4\n        /* \"verifystud.sol\":6210:6224  studentinfo.id */\n      0x60\n      add\n      mload\n        /* \"verifystud.sol\":6235:6246  studentinfo */\n      dup5\n        /* \"verifystud.sol\":6235:6258  studentinfo.instAddress */\n      0x80\n      add\n      mload\n        /* \"verifystud.sol\":6099:6265  return (... */\n      swap6\n      pop\n      swap6\n      pop\n      swap6\n      pop\n      swap6\n      pop\n      swap6\n      pop\n      pop\n        /* \"verifystud.sol\":5752:6273  function getTransferStudentByindex(... */\n      swap2\n      swap4\n      swap6\n      swap1\n      swap3\n      swap5\n      pop\n      jump\t// out\n        /* \"verifystud.sol\":1954:2828  function addTransferStudToPending(string memory _name, address _student_address, string memory _email, string memory _id, address _currentInstAddress, address _newinstAddress) public{... */\n    tag_77:\n        /* \"verifystud.sol\":2147:2158  bytes32 key */\n      0x00\n        /* \"verifystud.sol\":2161:2168  studreg */\n      0x01\n      0x00\n      swap1\n      sload\n      swap1\n      0x0100\n      exp\n      swap1\n      div\n      0xffffffffffffffffffffffffffffffffffffffff\n      and\n        /* \"verifystud.sol\":2161:2180  studreg.generateKey */\n      0xffffffffffffffffffffffffffffffffffffffff\n      and\n      0x8a97503d\n        /* \"verifystud.sol\":2195:2211  _student_address */\n      dup8\n        /* \"verifystud.sol\":2226:2229  _id */\n      dup7\n        /* \"verifystud.sol\":2161:2240  studreg.generateKey(... */\n      mload(0x40)\n      dup4\n      0xffffffff\n      and\n      0xe0\n      shl\n      dup2\n      mstore\n      0x04\n      add\n      tag_193\n      swap3\n      swap2\n      swap1\n      tag_194\n      jump\t// in\n    tag_193:\n      0x20\n      mload(0x40)\n      dup1\n      dup4\n      sub\n      dup2\n      dup7\n      gas\n      staticcall\n      iszero\n      dup1\n      iszero\n      tag_196\n      jumpi\n      returndatasize\n      0x00\n      dup1\n      returndatacopy\n      revert(0x00, returndatasize)\n    tag_196:\n      pop\n      pop\n      pop\n      pop\n      mload(0x40)\n      returndatasize\n      not(0x1f)\n      0x1f\n      dup3\n      add\n      and\n      dup3\n      add\n      dup1\n      0x40\n      mstore\n      pop\n      dup2\n      add\n      swap1\n      tag_197\n      swap2\n      swap1\n      tag_198\n      jump\t// in\n    tag_197:\n        /* \"verifystud.sol\":2147:2240  bytes32 key = studreg.generateKey(... */\n      swap1\n      pop\n        /* \"verifystud.sol\":2482:2522  pendingstudents memory newpendingstudent */\n      tag_199\n      tag_160\n      jump\t// in\n    tag_199:\n        /* \"verifystud.sol\":2558:2563  _name */\n      dup8\n        /* \"verifystud.sol\":2533:2550  newpendingstudent */\n      dup2\n        /* \"verifystud.sol\":2533:2555  newpendingstudent.name */\n      0x00\n      add\n        /* \"verifystud.sol\":2533:2563  newpendingstudent.name = _name */\n      dup2\n      swap1\n      mstore\n      pop\n        /* \"verifystud.sol\":2610:2626  _student_address */\n      dup7\n        /* \"verifystud.sol\":2574:2591  newpendingstudent */\n      dup2\n        /* \"verifystud.sol\":2574:2607  newpendingstudent.student_address */\n      0x20\n      add\n        /* \"verifystud.sol\":2574:2626  newpendingstudent.student_address = _student_address */\n      swap1\n      0xffffffffffffffffffffffffffffffffffffffff\n      and\n      swap1\n      dup2\n      0xffffffffffffffffffffffffffffffffffffffff\n      and\n      dup2\n      mstore\n      pop\n      pop\n        /* \"verifystud.sol\":2663:2669  _email */\n      dup6\n        /* \"verifystud.sol\":2637:2654  newpendingstudent */\n      dup2\n        /* \"verifystud.sol\":2637:2660  newpendingstudent.email */\n      0x40\n      add\n        /* \"verifystud.sol\":2637:2669  newpendingstudent.email = _email */\n      dup2\n      swap1\n      mstore\n      pop\n        /* \"verifystud.sol\":2703:2706  _id */\n      dup5\n        /* \"verifystud.sol\":2680:2697  newpendingstudent */\n      dup2\n        /* \"verifystud.sol\":2680:2700  newpendingstudent.id */\n      0x60\n      add\n        /* \"verifystud.sol\":2680:2706  newpendingstudent.id = _id */\n      dup2\n      swap1\n      mstore\n      pop\n        /* \"verifystud.sol\":2749:2764  _newinstAddress */\n      dup3\n        /* \"verifystud.sol\":2717:2734  newpendingstudent */\n      dup2\n        /* \"verifystud.sol\":2717:2746  newpendingstudent.instAddress */\n      0x80\n      add\n        /* \"verifystud.sol\":2717:2764  newpendingstudent.instAddress = _newinstAddress */\n      swap1\n      0xffffffffffffffffffffffffffffffffffffffff\n      and\n      swap1\n      dup2\n      0xffffffffffffffffffffffffffffffffffffffff\n      and\n      dup2\n      mstore\n      pop\n      pop\n        /* \"verifystud.sol\":2775:2796  transferStudentsarray */\n      0x06\n        /* \"verifystud.sol\":2802:2819  newpendingstudent */\n      dup2\n        /* \"verifystud.sol\":2775:2820  transferStudentsarray.push(newpendingstudent) */\n      swap1\n      dup1\n      0x01\n      dup2\n      sload\n      add\n      dup1\n      dup3\n      sstore\n      dup1\n      swap2\n      pop\n      pop\n      0x01\n      swap1\n      sub\n      swap1\n      0x00\n      mstore\n      keccak256(0x00, 0x20)\n      swap1\n      0x05\n      mul\n      add\n      0x00\n      swap1\n      swap2\n      swap1\n      swap2\n      swap1\n      swap2\n      pop\n      0x00\n      dup3\n      add\n      mload\n      dup2\n      0x00\n      add\n      swap1\n      dup1\n      mload\n      swap1\n      0x20\n      add\n      swap1\n      tag_201\n      swap3\n      swap2\n      swap1\n      tag_163\n      jump\t// in\n    tag_201:\n      pop\n      0x20\n      dup3\n      add\n      mload\n      dup2\n      0x01\n      add\n      exp(0x0100, 0x00)\n      dup2\n      sload\n      dup2\n      0xffffffffffffffffffffffffffffffffffffffff\n      mul\n      not\n      and\n      swap1\n      dup4\n      0xffffffffffffffffffffffffffffffffffffffff\n      and\n      mul\n      or\n      swap1\n      sstore\n      pop\n      0x40\n      dup3\n      add\n      mload\n      dup2\n      0x02\n      add\n      swap1\n      dup1\n      mload\n      swap1\n      0x20\n      add\n      swap1\n      tag_202\n      swap3\n      swap2\n      swap1\n      tag_163\n      jump\t// in\n    tag_202:\n      pop\n      0x60\n      dup3\n      add\n      mload\n      dup2\n      0x03\n      add\n      swap1\n      dup1\n      mload\n      swap1\n      0x20\n      add\n      swap1\n      tag_203\n      swap3\n      swap2\n      swap1\n      tag_163\n      jump\t// in\n    tag_203:\n      pop\n      0x80\n      dup3\n      add\n      mload\n      dup2\n      0x04\n      add\n      exp(0x0100, 0x00)\n      dup2\n      sload\n      dup2\n      0xffffffffffffffffffffffffffffffffffffffff\n      mul\n      not\n      and\n      swap1\n      dup4\n      0xffffffffffffffffffffffffffffffffffffffff\n      and\n      mul\n      or\n      swap1\n      sstore\n      pop\n      pop\n      pop\n        /* \"verifystud.sol\":2136:2828  {... */\n      pop\n      pop\n        /* \"verifystud.sol\":1954:2828  function addTransferStudToPending(string memory _name, address _student_address, string memory _email, string memory _id, address _currentInstAddress, address _newinstAddress) public{... */\n      pop\n      pop\n      pop\n      pop\n      pop\n      pop\n      jump\t// out\n        /* \"verifystud.sol\":5074:5192  function getPendingStudentsCount() public view returns (uint256) {... */\n    tag_79:\n        /* \"verifystud.sol\":5130:5137  uint256 */\n      0x00\n        /* \"verifystud.sol\":5157:5177  pendingStudentsarray */\n      0x05\n        /* \"verifystud.sol\":5157:5184  pendingStudentsarray.length */\n      dup1\n      sload\n      swap1\n      pop\n        /* \"verifystud.sol\":5150:5184  return pendingStudentsarray.length */\n      swap1\n      pop\n        /* \"verifystud.sol\":5074:5192  function getPendingStudentsCount() public view returns (uint256) {... */\n      swap1\n      jump\t// out\n        /* \"verifystud.sol\":319:364  address public studentRegisterContractAddress */\n    tag_82:\n      0x03\n      0x00\n      swap1\n      sload\n      swap1\n      0x0100\n      exp\n      swap1\n      div\n      0xffffffffffffffffffffffffffffffffffffffff\n      and\n      dup2\n      jump\t// out\n        /* \"verifystud.sol\":286:312  verifyinst public instregd */\n    tag_85:\n      0x02\n      0x00\n      swap1\n      sload\n      swap1\n      0x0100\n      exp\n      swap1\n      div\n      0xffffffffffffffffffffffffffffffffffffffff\n      and\n      dup2\n      jump\t// out\n        /* \"verifystud.sol\":983:1028  pendingstudents[] public pendingStudentsarray */\n    tag_90:\n      0x05\n      dup2\n      dup2\n      sload\n      dup2\n      lt\n      tag_205\n      jumpi\n      0x00\n      dup1\n      revert\n    tag_205:\n      swap1\n      0x00\n      mstore\n      keccak256(0x00, 0x20)\n      swap1\n      0x05\n      mul\n      add\n      0x00\n      swap2\n      pop\n      swap1\n      pop\n      dup1\n      0x00\n      add\n      dup1\n      sload\n      tag_207\n      swap1\n      tag_120\n      jump\t// in\n    tag_207:\n      dup1\n      0x1f\n      add\n      0x20\n      dup1\n      swap2\n      div\n      mul\n      0x20\n      add\n      mload(0x40)\n      swap1\n      dup2\n      add\n      0x40\n      mstore\n      dup1\n      swap3\n      swap2\n      swap1\n      dup2\n      dup2\n      mstore\n      0x20\n      add\n      dup3\n      dup1\n      sload\n      tag_208\n      swap1\n      tag_120\n      jump\t// in\n    tag_208:\n      dup1\n      iszero\n      tag_209\n      jumpi\n      dup1\n      0x1f\n      lt\n      tag_210\n      jumpi\n      0x0100\n      dup1\n      dup4\n      sload\n      div\n      mul\n      dup4\n      mstore\n      swap2\n      0x20\n      add\n      swap2\n      jump(tag_209)\n    tag_210:\n      dup3\n      add\n      swap2\n      swap1\n      0x00\n      mstore\n      keccak256(0x00, 0x20)\n      swap1\n    tag_211:\n      dup2\n      sload\n      dup2\n      mstore\n      swap1\n      0x01\n      add\n      swap1\n      0x20\n      add\n      dup1\n      dup4\n      gt\n      tag_211\n      jumpi\n      dup3\n      swap1\n      sub\n      0x1f\n      and\n      dup3\n      add\n      swap2\n    tag_209:\n      pop\n      pop\n      pop\n      pop\n      pop\n      swap1\n      dup1\n      0x01\n      add\n      0x00\n      swap1\n      sload\n      swap1\n      0x0100\n      exp\n      swap1\n      div\n      0xffffffffffffffffffffffffffffffffffffffff\n      and\n      swap1\n      dup1\n      0x02\n      add\n      dup1\n      sload\n      tag_212\n      swap1\n      tag_120\n      jump\t// in\n    tag_212:\n      dup1\n      0x1f\n      add\n      0x20\n      dup1\n      swap2\n      div\n      mul\n      0x20\n      add\n      mload(0x40)\n      swap1\n      dup2\n      add\n      0x40\n      mstore\n      dup1\n      swap3\n      swap2\n      swap1\n      dup2\n      dup2\n      mstore\n      0x20\n      add\n      dup3\n      dup1\n      sload\n      tag_213\n      swap1\n      tag_120\n      jump\t// in\n    tag_213:\n      dup1\n      iszero\n      tag_214\n      jumpi\n      dup1\n      0x1f\n      lt\n      tag_215\n      jumpi\n      0x0100\n      dup1\n      dup4\n      sload\n      div\n      mul\n      dup4\n      mstore\n      swap2\n      0x20\n      add\n      swap2\n      jump(tag_214)\n    tag_215:\n      dup3\n      add\n      swap2\n      swap1\n      0x00\n      mstore\n      keccak256(0x00, 0x20)\n      swap1\n    tag_216:\n      dup2\n      sload\n      dup2\n      mstore\n      swap1\n      0x01\n      add\n      swap1\n      0x20\n      add\n      dup1\n      dup4\n      gt\n      tag_216\n      jumpi\n      dup3\n      swap1\n      sub\n      0x1f\n      and\n      dup3\n      add\n      swap2\n    tag_214:\n      pop\n      pop\n      pop\n      pop\n      pop\n      swap1\n      dup1\n      0x03\n      add\n      dup1\n      sload\n      tag_217\n      swap1\n      tag_120\n      jump\t// in\n    tag_217:\n      dup1\n      0x1f\n      add\n      0x20\n      dup1\n      swap2\n      div\n      mul\n      0x20\n      add\n      mload(0x40)\n      swap1\n      dup2\n      add\n      0x40\n      mstore\n      dup1\n      swap3\n      swap2\n      swap1\n      dup2\n      dup2\n      mstore\n      0x20\n      add\n      dup3\n      dup1\n      sload\n      tag_218\n      swap1\n      tag_120\n      jump\t// in\n    tag_218:\n      dup1\n      iszero\n      tag_219\n      jumpi\n      dup1\n      0x1f\n      lt\n      tag_220\n      jumpi\n      0x0100\n      dup1\n      dup4\n      sload\n      div\n      mul\n      dup4\n      mstore\n      swap2\n      0x20\n      add\n      swap2\n      jump(tag_219)\n    tag_220:\n      dup3\n      add\n      swap2\n      swap1\n      0x00\n      mstore\n      keccak256(0x00, 0x20)\n      swap1\n    tag_221:\n      dup2\n      sload\n      dup2\n      mstore\n      swap1\n      0x01\n      add\n      swap1\n      0x20\n      add\n      dup1\n      dup4\n      gt\n      tag_221\n      jumpi\n      dup3\n      swap1\n      sub\n      0x1f\n      and\n      dup3\n      add\n      swap2\n    tag_219:\n      pop\n      pop\n      pop\n      pop\n      pop\n      swap1\n      dup1\n      0x04\n      add\n      0x00\n      swap1\n      sload\n      swap1\n      0x0100\n      exp\n      swap1\n      div\n      0xffffffffffffffffffffffffffffffffffffffff\n      and\n      swap1\n      pop\n      dup6\n      jump\t// out\n        /* \"verifystud.sol\":252:279  registerStud public studreg */\n    tag_93:\n      0x01\n      0x00\n      swap1\n      sload\n      swap1\n      0x0100\n      exp\n      swap1\n      div\n      0xffffffffffffffffffffffffffffffffffffffff\n      and\n      dup2\n      jump\t// out\n        /* \"verifystud.sol\":6562:6722  function getStudentContractByAddress(... */\n    tag_98:\n        /* \"verifystud.sol\":6655:6662  address */\n      0x00\n        /* \"verifystud.sol\":6682:6703  registeredStudentsmap */\n      0x07\n        /* \"verifystud.sol\":6682:6714  registeredStudentsmap[_employee] */\n      0x00\n        /* \"verifystud.sol\":6704:6713  _employee */\n      dup4\n        /* \"verifystud.sol\":6682:6714  registeredStudentsmap[_employee] */\n      0xffffffffffffffffffffffffffffffffffffffff\n      and\n      0xffffffffffffffffffffffffffffffffffffffff\n      and\n      dup2\n      mstore\n      0x20\n      add\n      swap1\n      dup2\n      mstore\n      0x20\n      add\n      0x00\n      keccak256\n      0x00\n      swap1\n      sload\n      swap1\n      0x0100\n      exp\n      swap1\n      div\n      0xffffffffffffffffffffffffffffffffffffffff\n      and\n        /* \"verifystud.sol\":6675:6714  return registeredStudentsmap[_employee] */\n      swap1\n      pop\n        /* \"verifystud.sol\":6562:6722  function getStudentContractByAddress(... */\n      swap2\n      swap1\n      pop\n      jump\t// out\n        /* \"verifystud.sol\":3661:4477  function verifyTransferstudent(uint256 index) public {... */\n    tag_102:\n        /* \"verifystud.sol\":3726:3744  string memory name */\n      0x00\n        /* \"verifystud.sol\":3745:3768  address student_address */\n      dup1\n        /* \"verifystud.sol\":3769:3788  string memory email */\n      0x00\n        /* \"verifystud.sol\":3789:3805  string memory id */\n      dup1\n        /* \"verifystud.sol\":3806:3825  address instaddress */\n      0x00\n        /* \"verifystud.sol\":3827:3859  getTransferStudentByindex(index) */\n      tag_224\n        /* \"verifystud.sol\":3853:3858  index */\n      dup7\n        /* \"verifystud.sol\":3827:3852  getTransferStudentByindex */\n      tag_72\n        /* \"verifystud.sol\":3827:3859  getTransferStudentByindex(index) */\n      jump\t// in\n    tag_224:\n        /* \"verifystud.sol\":3725:3859  (string memory name,address student_address,string memory email,string memory id,address instaddress)=getTransferStudentByindex(index) */\n      swap5\n      pop\n      swap5\n      pop\n      swap5\n      pop\n      swap5\n      pop\n      swap5\n      pop\n        /* \"verifystud.sol\":4145:4156  bytes32 key */\n      0x00\n        /* \"verifystud.sol\":4159:4166  studreg */\n      0x01\n      0x00\n      swap1\n      sload\n      swap1\n      0x0100\n      exp\n      swap1\n      div\n      0xffffffffffffffffffffffffffffffffffffffff\n      and\n        /* \"verifystud.sol\":4159:4178  studreg.generateKey */\n      0xffffffffffffffffffffffffffffffffffffffff\n      and\n      0x8a97503d\n        /* \"verifystud.sol\":4193:4208  student_address */\n      dup7\n        /* \"verifystud.sol\":4223:4225  id */\n      dup6\n        /* \"verifystud.sol\":4159:4236  studreg.generateKey(... */\n      mload(0x40)\n      dup4\n      0xffffffff\n      and\n      0xe0\n      shl\n      dup2\n      mstore\n      0x04\n      add\n      tag_225\n      swap3\n      swap2\n      swap1\n      tag_194\n      jump\t// in\n    tag_225:\n      0x20\n      mload(0x40)\n      dup1\n      dup4\n      sub\n      dup2\n      dup7\n      gas\n      staticcall\n      iszero\n      dup1\n      iszero\n      tag_227\n      jumpi\n      returndatasize\n      0x00\n      dup1\n      returndatacopy\n      revert(0x00, returndatasize)\n    tag_227:\n      pop\n      pop\n      pop\n      pop\n      mload(0x40)\n      returndatasize\n      not(0x1f)\n      0x1f\n      dup3\n      add\n      and\n      dup3\n      add\n      dup1\n      0x40\n      mstore\n      pop\n      dup2\n      add\n      swap1\n      tag_228\n      swap2\n      swap1\n      tag_198\n      jump\t// in\n    tag_228:\n        /* \"verifystud.sol\":4145:4236  bytes32 key = studreg.generateKey(... */\n      swap1\n      pop\n        /* \"verifystud.sol\":4255:4262  studreg */\n      0x01\n      0x00\n      swap1\n      sload\n      swap1\n      0x0100\n      exp\n      swap1\n      div\n      0xffffffffffffffffffffffffffffffffffffffff\n      and\n        /* \"verifystud.sol\":4255:4280  studreg.addInstTostudInfo */\n      0xffffffffffffffffffffffffffffffffffffffff\n      and\n      0x4268ddbd\n        /* \"verifystud.sol\":4281:4286  index */\n      dup9\n        /* \"verifystud.sol\":4288:4291  key */\n      dup4\n        /* \"verifystud.sol\":4293:4303  msg.sender */\n      caller\n        /* \"verifystud.sol\":4255:4304  studreg.addInstTostudInfo(index, key, msg.sender) */\n      mload(0x40)\n      dup5\n      0xffffffff\n      and\n      0xe0\n      shl\n      dup2\n      mstore\n      0x04\n      add\n      tag_229\n      swap4\n      swap3\n      swap2\n      swap1\n      tag_230\n      jump\t// in\n    tag_229:\n      0x20\n      mload(0x40)\n      dup1\n      dup4\n      sub\n      dup2\n      0x00\n      dup8\n      gas\n      call\n      iszero\n      dup1\n      iszero\n      tag_232\n      jumpi\n      returndatasize\n      0x00\n      dup1\n      returndatacopy\n      revert(0x00, returndatasize)\n    tag_232:\n      pop\n      pop\n      pop\n      pop\n      mload(0x40)\n      returndatasize\n      not(0x1f)\n      0x1f\n      dup3\n      add\n      and\n      dup3\n      add\n      dup1\n      0x40\n      mstore\n      pop\n      dup2\n      add\n      swap1\n      tag_233\n      swap2\n      swap1\n      tag_234\n      jump\t// in\n    tag_233:\n        /* \"verifystud.sol\":4247:4348  require(studreg.addInstTostudInfo(index, key, msg.sender), \"Failed to add institute to student info\") */\n      tag_235\n      jumpi\n      mload(0x40)\n      0x08c379a000000000000000000000000000000000000000000000000000000000\n      dup2\n      mstore\n      0x04\n      add\n      tag_236\n      swap1\n      tag_237\n      jump\t// in\n    tag_236:\n      mload(0x40)\n      dup1\n      swap2\n      sub\n      swap1\n      revert\n    tag_235:\n        /* \"verifystud.sol\":4366:4387  transferStudentsarray */\n      0x06\n        /* \"verifystud.sol\":4388:4393  index */\n      dup8\n        /* \"verifystud.sol\":4366:4394  transferStudentsarray[index] */\n      dup2\n      sload\n      dup2\n      lt\n      tag_238\n      jumpi\n      tag_239\n      tag_141\n      jump\t// in\n    tag_239:\n    tag_238:\n      swap1\n      0x00\n      mstore\n      keccak256(0x00, 0x20)\n      swap1\n      0x05\n      mul\n      add\n      0x00\n        /* \"verifystud.sol\":4359:4394  delete transferStudentsarray[index] */\n      dup1\n      dup3\n      add\n      0x00\n      tag_241\n      swap2\n      swap1\n      tag_242\n      jump\t// in\n    tag_241:\n      0x01\n      dup3\n      add\n      exp(0x0100, 0x00)\n      dup2\n      sload\n      swap1\n      0xffffffffffffffffffffffffffffffffffffffff\n      mul\n      not\n      and\n      swap1\n      sstore\n      0x02\n      dup3\n      add\n      0x00\n      tag_243\n      swap2\n      swap1\n      tag_242\n      jump\t// in\n    tag_243:\n      0x03\n      dup3\n      add\n      0x00\n      tag_244\n      swap2\n      swap1\n      tag_242\n      jump\t// in\n    tag_244:\n      0x04\n      dup3\n      add\n      exp(0x0100, 0x00)\n      dup2\n      sload\n      swap1\n      0xffffffffffffffffffffffffffffffffffffffff\n      mul\n      not\n      and\n      swap1\n      sstore\n      pop\n      pop\n        /* \"verifystud.sol\":3714:4477  {... */\n      pop\n      pop\n      pop\n      pop\n      pop\n      pop\n        /* \"verifystud.sol\":3661:4477  function verifyTransferstudent(uint256 index) public {... */\n      pop\n      jump\t// out\n        /* \"verifystud.sol\":2836:3652  function verifystudent(uint256 index) public onlyverfiedInstitute  {... */\n    tag_105:\n        /* \"verifystud.sol\":6978:6979  0 */\n      0x00\n        /* \"verifystud.sol\":6924:6980  instregd.registeredinstitutesmap(msg.sender)!=address(0) */\n      0xffffffffffffffffffffffffffffffffffffffff\n      and\n        /* \"verifystud.sol\":6924:6932  instregd */\n      0x02\n      0x00\n      swap1\n      sload\n      swap1\n      0x0100\n      exp\n      swap1\n      div\n      0xffffffffffffffffffffffffffffffffffffffff\n      and\n        /* \"verifystud.sol\":6924:6956  instregd.registeredinstitutesmap */\n      0xffffffffffffffffffffffffffffffffffffffff\n      and\n      0x839f602d\n        /* \"verifystud.sol\":6957:6967  msg.sender */\n      caller\n        /* \"verifystud.sol\":6924:6968  instregd.registeredinstitutesmap(msg.sender) */\n      mload(0x40)\n      dup3\n      0xffffffff\n      and\n      0xe0\n      shl\n      dup2\n      mstore\n      0x04\n      add\n      tag_246\n      swap2\n      swap1\n      tag_48\n      jump\t// in\n    tag_246:\n      0x20\n      mload(0x40)\n      dup1\n      dup4\n      sub\n      dup2\n      dup7\n      gas\n      staticcall\n      iszero\n      dup1\n      iszero\n      tag_248\n      jumpi\n      returndatasize\n      0x00\n      dup1\n      returndatacopy\n      revert(0x00, returndatasize)\n    tag_248:\n      pop\n      pop\n      pop\n      pop\n      mload(0x40)\n      returndatasize\n      not(0x1f)\n      0x1f\n      dup3\n      add\n      and\n      dup3\n      add\n      dup1\n      0x40\n      mstore\n      pop\n      dup2\n      add\n      swap1\n      tag_249\n      swap2\n      swap1\n      tag_116\n      jump\t// in\n    tag_249:\n        /* \"verifystud.sol\":6924:6980  instregd.registeredinstitutesmap(msg.sender)!=address(0) */\n      0xffffffffffffffffffffffffffffffffffffffff\n      and\n      eq\n      iszero\n        /* \"verifystud.sol\":6916:7008  require(instregd.registeredinstitutesmap(msg.sender)!=address(0), \"You are not Authorized!\") */\n      tag_250\n      jumpi\n      mload(0x40)\n      0x08c379a000000000000000000000000000000000000000000000000000000000\n      dup2\n      mstore\n      0x04\n      add\n      tag_251\n      swap1\n      tag_252\n      jump\t// in\n    tag_251:\n      mload(0x40)\n      dup1\n      swap2\n      sub\n      swap1\n      revert\n    tag_250:\n        /* \"verifystud.sol\":2915:2933  string memory name */\n      0x00\n        /* \"verifystud.sol\":2934:2957  address student_address */\n      dup1\n        /* \"verifystud.sol\":2958:2977  string memory email */\n      0x00\n        /* \"verifystud.sol\":2978:2994  string memory id */\n      dup1\n        /* \"verifystud.sol\":2995:3014  address instaddress */\n      0x00\n        /* \"verifystud.sol\":3016:3047  getPendingStudentByindex(index) */\n      tag_254\n        /* \"verifystud.sol\":3041:3046  index */\n      dup7\n        /* \"verifystud.sol\":3016:3040  getPendingStudentByindex */\n      tag_43\n        /* \"verifystud.sol\":3016:3047  getPendingStudentByindex(index) */\n      jump\t// in\n    tag_254:\n        /* \"verifystud.sol\":2914:3047  (string memory name,address student_address,string memory email,string memory id,address instaddress)=getPendingStudentByindex(index) */\n      swap5\n      pop\n      swap5\n      pop\n      swap5\n      pop\n      swap5\n      pop\n      swap5\n      pop\n        /* \"verifystud.sol\":3323:3334  bytes32 key */\n      0x00\n        /* \"verifystud.sol\":3337:3344  studreg */\n      0x01\n      0x00\n      swap1\n      sload\n      swap1\n      0x0100\n      exp\n      swap1\n      div\n      0xffffffffffffffffffffffffffffffffffffffff\n      and\n        /* \"verifystud.sol\":3337:3356  studreg.generateKey */\n      0xffffffffffffffffffffffffffffffffffffffff\n      and\n      0x8a97503d\n        /* \"verifystud.sol\":3371:3386  student_address */\n      dup7\n        /* \"verifystud.sol\":3401:3403  id */\n      dup6\n        /* \"verifystud.sol\":3337:3414  studreg.generateKey(... */\n      mload(0x40)\n      dup4\n      0xffffffff\n      and\n      0xe0\n      shl\n      dup2\n      mstore\n      0x04\n      add\n      tag_255\n      swap3\n      swap2\n      swap1\n      tag_194\n      jump\t// in\n    tag_255:\n      0x20\n      mload(0x40)\n      dup1\n      dup4\n      sub\n      dup2\n      dup7\n      gas\n      staticcall\n      iszero\n      dup1\n      iszero\n      tag_257\n      jumpi\n      returndatasize\n      0x00\n      dup1\n      returndatacopy\n      revert(0x00, returndatasize)\n    tag_257:\n      pop\n      pop\n      pop\n      pop\n      mload(0x40)\n      returndatasize\n      not(0x1f)\n      0x1f\n      dup3\n      add\n      and\n      dup3\n      add\n      dup1\n      0x40\n      mstore\n      pop\n      dup2\n      add\n      swap1\n      tag_258\n      swap2\n      swap1\n      tag_198\n      jump\t// in\n    tag_258:\n        /* \"verifystud.sol\":3323:3414  bytes32 key = studreg.generateKey(... */\n      swap1\n      pop\n        /* \"verifystud.sol\":3433:3440  studreg */\n      0x01\n      0x00\n      swap1\n      sload\n      swap1\n      0x0100\n      exp\n      swap1\n      div\n      0xffffffffffffffffffffffffffffffffffffffff\n      and\n        /* \"verifystud.sol\":3433:3458  studreg.addInstTostudInfo */\n      0xffffffffffffffffffffffffffffffffffffffff\n      and\n      0x4268ddbd\n        /* \"verifystud.sol\":3459:3464  index */\n      dup9\n        /* \"verifystud.sol\":3466:3469  key */\n      dup4\n        /* \"verifystud.sol\":3471:3481  msg.sender */\n      caller\n        /* \"verifystud.sol\":3433:3482  studreg.addInstTostudInfo(index, key, msg.sender) */\n      mload(0x40)\n      dup5\n      0xffffffff\n      and\n      0xe0\n      shl\n      dup2\n      mstore\n      0x04\n      add\n      tag_259\n      swap4\n      swap3\n      swap2\n      swap1\n      tag_230\n      jump\t// in\n    tag_259:\n      0x20\n      mload(0x40)\n      dup1\n      dup4\n      sub\n      dup2\n      0x00\n      dup8\n      gas\n      call\n      iszero\n      dup1\n      iszero\n      tag_261\n      jumpi\n      returndatasize\n      0x00\n      dup1\n      returndatacopy\n      revert(0x00, returndatasize)\n    tag_261:\n      pop\n      pop\n      pop\n      pop\n      mload(0x40)\n      returndatasize\n      not(0x1f)\n      0x1f\n      dup3\n      add\n      and\n      dup3\n      add\n      dup1\n      0x40\n      mstore\n      pop\n      dup2\n      add\n      swap1\n      tag_262\n      swap2\n      swap1\n      tag_234\n      jump\t// in\n    tag_262:\n        /* \"verifystud.sol\":3425:3526  require(studreg.addInstTostudInfo(index, key, msg.sender), \"Failed to add institute to student info\") */\n      tag_263\n      jumpi\n      mload(0x40)\n      0x08c379a000000000000000000000000000000000000000000000000000000000\n      dup2\n      mstore\n      0x04\n      add\n      tag_264\n      swap1\n      tag_237\n      jump\t// in\n    tag_264:\n      mload(0x40)\n      dup1\n      swap2\n      sub\n      swap1\n      revert\n    tag_263:\n        /* \"verifystud.sol\":3544:3564  pendingStudentsarray */\n      0x05\n        /* \"verifystud.sol\":3565:3570  index */\n      dup8\n        /* \"verifystud.sol\":3544:3571  pendingStudentsarray[index] */\n      dup2\n      sload\n      dup2\n      lt\n      tag_265\n      jumpi\n      tag_266\n      tag_141\n      jump\t// in\n    tag_266:\n    tag_265:\n      swap1\n      0x00\n      mstore\n      keccak256(0x00, 0x20)\n      swap1\n      0x05\n      mul\n      add\n      0x00\n        /* \"verifystud.sol\":3537:3571  delete pendingStudentsarray[index] */\n      dup1\n      dup3\n      add\n      0x00\n      tag_268\n      swap2\n      swap1\n      tag_242\n      jump\t// in\n    tag_268:\n      0x01\n      dup3\n      add\n      exp(0x0100, 0x00)\n      dup2\n      sload\n      swap1\n      0xffffffffffffffffffffffffffffffffffffffff\n      mul\n      not\n      and\n      swap1\n      sstore\n      0x02\n      dup3\n      add\n      0x00\n      tag_269\n      swap2\n      swap1\n      tag_242\n      jump\t// in\n    tag_269:\n      0x03\n      dup3\n      add\n      0x00\n      tag_270\n      swap2\n      swap1\n      tag_242\n      jump\t// in\n    tag_270:\n      0x04\n      dup3\n      add\n      exp(0x0100, 0x00)\n      dup2\n      sload\n      swap1\n      0xffffffffffffffffffffffffffffffffffffffff\n      mul\n      not\n      and\n      swap1\n      sstore\n      pop\n      pop\n        /* \"verifystud.sol\":2903:3652  {... */\n      pop\n      pop\n      pop\n      pop\n      pop\n      pop\n        /* \"verifystud.sol\":2836:3652  function verifystudent(uint256 index) public onlyverfiedInstitute  {... */\n      pop\n      jump\t// out\n        /* \"verifystud.sol\":4483:4938  function removeGraduateStud(uint256 index,address student_address,string memory id) public {... */\n    tag_109:\n        /* \"verifystud.sol\":4585:4596  bytes32 key */\n      0x00\n        /* \"verifystud.sol\":4599:4606  studreg */\n      0x01\n      0x00\n      swap1\n      sload\n      swap1\n      0x0100\n      exp\n      swap1\n      div\n      0xffffffffffffffffffffffffffffffffffffffff\n      and\n        /* \"verifystud.sol\":4599:4618  studreg.generateKey */\n      0xffffffffffffffffffffffffffffffffffffffff\n      and\n      0x8a97503d\n        /* \"verifystud.sol\":4633:4648  student_address */\n      dup5\n        /* \"verifystud.sol\":4663:4665  id */\n      dup5\n        /* \"verifystud.sol\":4599:4676  studreg.generateKey(... */\n      mload(0x40)\n      dup4\n      0xffffffff\n      and\n      0xe0\n      shl\n      dup2\n      mstore\n      0x04\n      add\n      tag_272\n      swap3\n      swap2\n      swap1\n      tag_194\n      jump\t// in\n    tag_272:\n      0x20\n      mload(0x40)\n      dup1\n      dup4\n      sub\n      dup2\n      dup7\n      gas\n      staticcall\n      iszero\n      dup1\n      iszero\n      tag_274\n      jumpi\n      returndatasize\n      0x00\n      dup1\n      returndatacopy\n      revert(0x00, returndatasize)\n    tag_274:\n      pop\n      pop\n      pop\n      pop\n      mload(0x40)\n      returndatasize\n      not(0x1f)\n      0x1f\n      dup3\n      add\n      and\n      dup3\n      add\n      dup1\n      0x40\n      mstore\n      pop\n      dup2\n      add\n      swap1\n      tag_275\n      swap2\n      swap1\n      tag_198\n      jump\t// in\n    tag_275:\n        /* \"verifystud.sol\":4585:4676  bytes32 key = studreg.generateKey(... */\n      swap1\n      pop\n        /* \"verifystud.sol\":4702:4728  address currentInstAddress */\n      0x00\n        /* \"verifystud.sol\":4730:4737  studreg */\n      0x01\n      0x00\n      swap1\n      sload\n      swap1\n      0x0100\n      exp\n      swap1\n      div\n      0xffffffffffffffffffffffffffffffffffffffff\n      and\n        /* \"verifystud.sol\":4730:4763  studreg.getRegisteredStudentByKey */\n      0xffffffffffffffffffffffffffffffffffffffff\n      and\n      0x435df20d\n        /* \"verifystud.sol\":4764:4767  key */\n      dup4\n        /* \"verifystud.sol\":4730:4768  studreg.getRegisteredStudentByKey(key) */\n      mload(0x40)\n      dup3\n      0xffffffff\n      and\n      0xe0\n      shl\n      dup2\n      mstore\n      0x04\n      add\n      tag_276\n      swap2\n      swap1\n      tag_63\n      jump\t// in\n    tag_276:\n      0x00\n      mload(0x40)\n      dup1\n      dup4\n      sub\n      dup2\n      dup7\n      gas\n      staticcall\n      iszero\n      dup1\n      iszero\n      tag_278\n      jumpi\n      returndatasize\n      0x00\n      dup1\n      returndatacopy\n      revert(0x00, returndatasize)\n    tag_278:\n      pop\n      pop\n      pop\n      pop\n      mload(0x40)\n      returndatasize\n      0x00\n      dup3\n      returndatacopy\n      returndatasize\n      not(0x1f)\n      0x1f\n      dup3\n      add\n      and\n      dup3\n      add\n      dup1\n      0x40\n      mstore\n      pop\n      dup2\n      add\n      swap1\n      tag_279\n      swap2\n      swap1\n      tag_280\n      jump\t// in\n    tag_279:\n        /* \"verifystud.sol\":4697:4768  (,,,,address currentInstAddress)=studreg.getRegisteredStudentByKey(key) */\n      swap5\n      pop\n      pop\n      pop\n      pop\n      pop\n        /* \"verifystud.sol\":4801:4819  currentInstAddress */\n      dup1\n        /* \"verifystud.sol\":4787:4819  msg.sender == currentInstAddress */\n      0xffffffffffffffffffffffffffffffffffffffff\n      and\n        /* \"verifystud.sol\":4787:4797  msg.sender */\n      caller\n        /* \"verifystud.sol\":4787:4819  msg.sender == currentInstAddress */\n      0xffffffffffffffffffffffffffffffffffffffff\n      and\n      eq\n        /* \"verifystud.sol\":4779:4820  require(msg.sender == currentInstAddress) */\n      tag_281\n      jumpi\n      0x00\n      dup1\n      revert\n    tag_281:\n        /* \"verifystud.sol\":4839:4846  studreg */\n      0x01\n      0x00\n      swap1\n      sload\n      swap1\n      0x0100\n      exp\n      swap1\n      div\n      0xffffffffffffffffffffffffffffffffffffffff\n      and\n        /* \"verifystud.sol\":4839:4869  studreg.removeInstFromstudInfo */\n      0xffffffffffffffffffffffffffffffffffffffff\n      and\n      0x956a3545\n        /* \"verifystud.sol\":4870:4875  index */\n      dup7\n        /* \"verifystud.sol\":4877:4880  key */\n      dup5\n        /* \"verifystud.sol\":4839:4881  studreg.removeInstFromstudInfo(index, key) */\n      mload(0x40)\n      dup4\n      0xffffffff\n      and\n      0xe0\n      shl\n      dup2\n      mstore\n      0x04\n      add\n      tag_282\n      swap3\n      swap2\n      swap1\n      tag_283\n      jump\t// in\n    tag_282:\n      0x20\n      mload(0x40)\n      dup1\n      dup4\n      sub\n      dup2\n      0x00\n      dup8\n      gas\n      call\n      iszero\n      dup1\n      iszero\n      tag_285\n      jumpi\n      returndatasize\n      0x00\n      dup1\n      returndatacopy\n      revert(0x00, returndatasize)\n    tag_285:\n      pop\n      pop\n      pop\n      pop\n      mload(0x40)\n      returndatasize\n      not(0x1f)\n      0x1f\n      dup3\n      add\n      and\n      dup3\n      add\n      dup1\n      0x40\n      mstore\n      pop\n      dup2\n      add\n      swap1\n      tag_286\n      swap2\n      swap1\n      tag_234\n      jump\t// in\n    tag_286:\n        /* \"verifystud.sol\":4831:4930  require(studreg.removeInstFromstudInfo(index, key), \"Failed to remove institute from student info\") */\n      tag_287\n      jumpi\n      mload(0x40)\n      0x08c379a000000000000000000000000000000000000000000000000000000000\n      dup2\n      mstore\n      0x04\n      add\n      tag_288\n      swap1\n      tag_289\n      jump\t// in\n    tag_288:\n      mload(0x40)\n      dup1\n      swap2\n      sub\n      swap1\n      revert\n    tag_287:\n        /* \"verifystud.sol\":4574:4938  {... */\n      pop\n      pop\n        /* \"verifystud.sol\":4483:4938  function removeGraduateStud(uint256 index,address student_address,string memory id) public {... */\n      pop\n      pop\n      pop\n      jump\t// out\n    tag_160:\n      mload(0x40)\n      dup1\n      0xa0\n      add\n      0x40\n      mstore\n      dup1\n      0x60\n      dup2\n      mstore\n      0x20\n      add\n      and(0xffffffffffffffffffffffffffffffffffffffff, 0x00)\n      dup2\n      mstore\n      0x20\n      add\n      0x60\n      dup2\n      mstore\n      0x20\n      add\n      0x60\n      dup2\n      mstore\n      0x20\n      add\n      and(0xffffffffffffffffffffffffffffffffffffffff, 0x00)\n      dup2\n      mstore\n      pop\n      swap1\n      jump\t// out\n    tag_163:\n      dup3\n      dup1\n      sload\n      tag_290\n      swap1\n      tag_120\n      jump\t// in\n    tag_290:\n      swap1\n      0x00\n      mstore\n      keccak256(0x00, 0x20)\n      swap1\n      0x1f\n      add\n      0x20\n      swap1\n      div\n      dup2\n      add\n      swap3\n      dup3\n      tag_292\n      jumpi\n      0x00\n      dup6\n      sstore\n      jump(tag_291)\n    tag_292:\n      dup3\n      0x1f\n      lt\n      tag_293\n      jumpi\n      dup1\n      mload\n      not(0xff)\n      and\n      dup4\n      dup1\n      add\n      or\n      dup6\n      sstore\n      jump(tag_291)\n    tag_293:\n      dup3\n      dup1\n      add\n      0x01\n      add\n      dup6\n      sstore\n      dup3\n      iszero\n      tag_291\n      jumpi\n      swap2\n      dup3\n      add\n    tag_294:\n      dup3\n      dup2\n      gt\n      iszero\n      tag_295\n      jumpi\n      dup3\n      mload\n      dup3\n      sstore\n      swap2\n      0x20\n      add\n      swap2\n      swap1\n      0x01\n      add\n      swap1\n      jump(tag_294)\n    tag_295:\n    tag_291:\n      pop\n      swap1\n      pop\n      tag_296\n      swap2\n      swap1\n      tag_297\n      jump\t// in\n    tag_296:\n      pop\n      swap1\n      jump\t// out\n    tag_242:\n      pop\n      dup1\n      sload\n      tag_298\n      swap1\n      tag_120\n      jump\t// in\n    tag_298:\n      0x00\n      dup3\n      sstore\n      dup1\n      0x1f\n      lt\n      tag_300\n      jumpi\n      pop\n      jump(tag_299)\n    tag_300:\n      0x1f\n      add\n      0x20\n      swap1\n      div\n      swap1\n      0x00\n      mstore\n      keccak256(0x00, 0x20)\n      swap1\n      dup2\n      add\n      swap1\n      tag_301\n      swap2\n      swap1\n      tag_297\n      jump\t// in\n    tag_301:\n    tag_299:\n      pop\n      jump\t// out\n    tag_297:\n    tag_302:\n      dup1\n      dup3\n      gt\n      iszero\n      tag_303\n      jumpi\n      0x00\n      dup2\n      0x00\n      swap1\n      sstore\n      pop\n      0x01\n      add\n      jump(tag_302)\n    tag_303:\n      pop\n      swap1\n      jump\t// out\n        /* \"#utility.yul\":7:84   */\n    tag_304:\n        /* \"#utility.yul\":44:51   */\n      0x00\n        /* \"#utility.yul\":73:78   */\n      dup2\n        /* \"#utility.yul\":62:78   */\n      swap1\n      pop\n        /* \"#utility.yul\":7:84   */\n      swap2\n      swap1\n      pop\n      jump\t// out\n        /* \"#utility.yul\":90:208   */\n    tag_305:\n        /* \"#utility.yul\":177:201   */\n      tag_366\n        /* \"#utility.yul\":195:200   */\n      dup2\n        /* \"#utility.yul\":177:201   */\n      tag_304\n      jump\t// in\n    tag_366:\n        /* \"#utility.yul\":172:175   */\n      dup3\n        /* \"#utility.yul\":165:202   */\n      mstore\n        /* \"#utility.yul\":90:208   */\n      pop\n      pop\n      jump\t// out\n        /* \"#utility.yul\":214:436   */\n    tag_30:\n        /* \"#utility.yul\":307:311   */\n      0x00\n        /* \"#utility.yul\":345:347   */\n      0x20\n        /* \"#utility.yul\":334:343   */\n      dup3\n        /* \"#utility.yul\":330:348   */\n      add\n        /* \"#utility.yul\":322:348   */\n      swap1\n      pop\n        /* \"#utility.yul\":358:429   */\n      tag_368\n        /* \"#utility.yul\":426:427   */\n      0x00\n        /* \"#utility.yul\":415:424   */\n      dup4\n        /* \"#utility.yul\":411:428   */\n      add\n        /* \"#utility.yul\":402:408   */\n      dup5\n        /* \"#utility.yul\":358:429   */\n      tag_305\n      jump\t// in\n    tag_368:\n        /* \"#utility.yul\":214:436   */\n      swap3\n      swap2\n      pop\n      pop\n      jump\t// out\n        /* \"#utility.yul\":442:532   */\n    tag_306:\n        /* \"#utility.yul\":476:483   */\n      0x00\n        /* \"#utility.yul\":519:524   */\n      dup2\n        /* \"#utility.yul\":512:525   */\n      iszero\n        /* \"#utility.yul\":505:526   */\n      iszero\n        /* \"#utility.yul\":494:526   */\n      swap1\n      pop\n        /* \"#utility.yul\":442:532   */\n      swap2\n      swap1\n      pop\n      jump\t// out\n        /* \"#utility.yul\":538:647   */\n    tag_307:\n        /* \"#utility.yul\":619:640   */\n      tag_371\n        /* \"#utility.yul\":634:639   */\n      dup2\n        /* \"#utility.yul\":619:640   */\n      tag_306\n      jump\t// in\n    tag_371:\n        /* \"#utility.yul\":614:617   */\n      dup3\n        /* \"#utility.yul\":607:641   */\n      mstore\n        /* \"#utility.yul\":538:647   */\n      pop\n      pop\n      jump\t// out\n        /* \"#utility.yul\":653:863   */\n    tag_34:\n        /* \"#utility.yul\":740:744   */\n      0x00\n        /* \"#utility.yul\":778:780   */\n      0x20\n        /* \"#utility.yul\":767:776   */\n      dup3\n        /* \"#utility.yul\":763:781   */\n      add\n        /* \"#utility.yul\":755:781   */\n      swap1\n      pop\n        /* \"#utility.yul\":791:856   */\n      tag_373\n        /* \"#utility.yul\":853:854   */\n      0x00\n        /* \"#utility.yul\":842:851   */\n      dup4\n        /* \"#utility.yul\":838:855   */\n      add\n        /* \"#utility.yul\":829:835   */\n      dup5\n        /* \"#utility.yul\":791:856   */\n      tag_307\n      jump\t// in\n    tag_373:\n        /* \"#utility.yul\":653:863   */\n      swap3\n      swap2\n      pop\n      pop\n      jump\t// out\n        /* \"#utility.yul\":869:944   */\n    tag_308:\n        /* \"#utility.yul\":902:908   */\n      0x00\n        /* \"#utility.yul\":935:937   */\n      0x40\n        /* \"#utility.yul\":929:938   */\n      mload\n        /* \"#utility.yul\":919:938   */\n      swap1\n      pop\n        /* \"#utility.yul\":869:944   */\n      swap1\n      jump\t// out\n        /* \"#utility.yul\":950:1067   */\n    tag_309:\n        /* \"#utility.yul\":1059:1060   */\n      0x00\n        /* \"#utility.yul\":1056:1057   */\n      dup1\n        /* \"#utility.yul\":1049:1061   */\n      revert\n        /* \"#utility.yul\":1073:1190   */\n    tag_310:\n        /* \"#utility.yul\":1182:1183   */\n      0x00\n        /* \"#utility.yul\":1179:1180   */\n      dup1\n        /* \"#utility.yul\":1172:1184   */\n      revert\n        /* \"#utility.yul\":1196:1318   */\n    tag_311:\n        /* \"#utility.yul\":1269:1293   */\n      tag_378\n        /* \"#utility.yul\":1287:1292   */\n      dup2\n        /* \"#utility.yul\":1269:1293   */\n      tag_304\n      jump\t// in\n    tag_378:\n        /* \"#utility.yul\":1262:1267   */\n      dup2\n        /* \"#utility.yul\":1259:1294   */\n      eq\n        /* \"#utility.yul\":1249:1312   */\n      tag_379\n      jumpi\n        /* \"#utility.yul\":1308:1309   */\n      0x00\n        /* \"#utility.yul\":1305:1306   */\n      dup1\n        /* \"#utility.yul\":1298:1310   */\n      revert\n        /* \"#utility.yul\":1249:1312   */\n    tag_379:\n        /* \"#utility.yul\":1196:1318   */\n      pop\n      jump\t// out\n        /* \"#utility.yul\":1324:1463   */\n    tag_312:\n        /* \"#utility.yul\":1370:1375   */\n      0x00\n        /* \"#utility.yul\":1408:1414   */\n      dup2\n        /* \"#utility.yul\":1395:1415   */\n      calldataload\n        /* \"#utility.yul\":1386:1415   */\n      swap1\n      pop\n        /* \"#utility.yul\":1424:1457   */\n      tag_381\n        /* \"#utility.yul\":1451:1456   */\n      dup2\n        /* \"#utility.yul\":1424:1457   */\n      tag_311\n      jump\t// in\n    tag_381:\n        /* \"#utility.yul\":1324:1463   */\n      swap3\n      swap2\n      pop\n      pop\n      jump\t// out\n        /* \"#utility.yul\":1469:1798   */\n    tag_37:\n        /* \"#utility.yul\":1528:1534   */\n      0x00\n        /* \"#utility.yul\":1577:1579   */\n      0x20\n        /* \"#utility.yul\":1565:1574   */\n      dup3\n        /* \"#utility.yul\":1556:1563   */\n      dup5\n        /* \"#utility.yul\":1552:1575   */\n      sub\n        /* \"#utility.yul\":1548:1580   */\n      slt\n        /* \"#utility.yul\":1545:1664   */\n      iszero\n      tag_383\n      jumpi\n        /* \"#utility.yul\":1583:1662   */\n      tag_384\n      tag_309\n      jump\t// in\n    tag_384:\n        /* \"#utility.yul\":1545:1664   */\n    tag_383:\n        /* \"#utility.yul\":1703:1704   */\n      0x00\n        /* \"#utility.yul\":1728:1781   */\n      tag_385\n        /* \"#utility.yul\":1773:1780   */\n      dup5\n        /* \"#utility.yul\":1764:1770   */\n      dup3\n        /* \"#utility.yul\":1753:1762   */\n      dup6\n        /* \"#utility.yul\":1749:1771   */\n      add\n        /* \"#utility.yul\":1728:1781   */\n      tag_312\n      jump\t// in\n    tag_385:\n        /* \"#utility.yul\":1718:1781   */\n      swap2\n      pop\n        /* \"#utility.yul\":1674:1791   */\n      pop\n        /* \"#utility.yul\":1469:1798   */\n      swap3\n      swap2\n      pop\n      pop\n      jump\t// out\n        /* \"#utility.yul\":1804:1903   */\n    tag_313:\n        /* \"#utility.yul\":1856:1862   */\n      0x00\n        /* \"#utility.yul\":1890:1895   */\n      dup2\n        /* \"#utility.yul\":1884:1896   */\n      mload\n        /* \"#utility.yul\":1874:1896   */\n      swap1\n      pop\n        /* \"#utility.yul\":1804:1903   */\n      swap2\n      swap1\n      pop\n      jump\t// out\n        /* \"#utility.yul\":1909:2078   */\n    tag_314:\n        /* \"#utility.yul\":1993:2004   */\n      0x00\n        /* \"#utility.yul\":2027:2033   */\n      dup3\n        /* \"#utility.yul\":2022:2025   */\n      dup3\n        /* \"#utility.yul\":2015:2034   */\n      mstore\n        /* \"#utility.yul\":2067:2071   */\n      0x20\n        /* \"#utility.yul\":2062:2065   */\n      dup3\n        /* \"#utility.yul\":2058:2072   */\n      add\n        /* \"#utility.yul\":2043:2072   */\n      swap1\n      pop\n        /* \"#utility.yul\":1909:2078   */\n      swap3\n      swap2\n      pop\n      pop\n      jump\t// out\n        /* \"#utility.yul\":2084:2391   */\n    tag_315:\n        /* \"#utility.yul\":2152:2153   */\n      0x00\n        /* \"#utility.yul\":2162:2275   */\n    tag_389:\n        /* \"#utility.yul\":2176:2182   */\n      dup4\n        /* \"#utility.yul\":2173:2174   */\n      dup2\n        /* \"#utility.yul\":2170:2183   */\n      lt\n        /* \"#utility.yul\":2162:2275   */\n      iszero\n      tag_391\n      jumpi\n        /* \"#utility.yul\":2261:2262   */\n      dup1\n        /* \"#utility.yul\":2256:2259   */\n      dup3\n        /* \"#utility.yul\":2252:2263   */\n      add\n        /* \"#utility.yul\":2246:2264   */\n      mload\n        /* \"#utility.yul\":2242:2243   */\n      dup2\n        /* \"#utility.yul\":2237:2240   */\n      dup5\n        /* \"#utility.yul\":2233:2244   */\n      add\n        /* \"#utility.yul\":2226:2265   */\n      mstore\n        /* \"#utility.yul\":2198:2200   */\n      0x20\n        /* \"#utility.yul\":2195:2196   */\n      dup2\n        /* \"#utility.yul\":2191:2201   */\n      add\n        /* \"#utility.yul\":2186:2201   */\n      swap1\n      pop\n        /* \"#utility.yul\":2162:2275   */\n      jump(tag_389)\n    tag_391:\n        /* \"#utility.yul\":2293:2299   */\n      dup4\n        /* \"#utility.yul\":2290:2291   */\n      dup2\n        /* \"#utility.yul\":2287:2300   */\n      gt\n        /* \"#utility.yul\":2284:2385   */\n      iszero\n      tag_392\n      jumpi\n        /* \"#utility.yul\":2373:2374   */\n      0x00\n        /* \"#utility.yul\":2364:2370   */\n      dup5\n        /* \"#utility.yul\":2359:2362   */\n      dup5\n        /* \"#utility.yul\":2355:2371   */\n      add\n        /* \"#utility.yul\":2348:2375   */\n      mstore\n        /* \"#utility.yul\":2284:2385   */\n    tag_392:\n        /* \"#utility.yul\":2133:2391   */\n      pop\n        /* \"#utility.yul\":2084:2391   */\n      pop\n      pop\n      pop\n      jump\t// out\n        /* \"#utility.yul\":2397:2499   */\n    tag_316:\n        /* \"#utility.yul\":2438:2444   */\n      0x00\n        /* \"#utility.yul\":2489:2491   */\n      0x1f\n        /* \"#utility.yul\":2485:2492   */\n      not\n        /* \"#utility.yul\":2480:2482   */\n      0x1f\n        /* \"#utility.yul\":2473:2478   */\n      dup4\n        /* \"#utility.yul\":2469:2483   */\n      add\n        /* \"#utility.yul\":2465:2493   */\n      and\n        /* \"#utility.yul\":2455:2493   */\n      swap1\n      pop\n        /* \"#utility.yul\":2397:2499   */\n      swap2\n      swap1\n      pop\n      jump\t// out\n        /* \"#utility.yul\":2505:2869   */\n    tag_317:\n        /* \"#utility.yul\":2593:2596   */\n      0x00\n        /* \"#utility.yul\":2621:2660   */\n      tag_395\n        /* \"#utility.yul\":2654:2659   */\n      dup3\n        /* \"#utility.yul\":2621:2660   */\n      tag_313\n      jump\t// in\n    tag_395:\n        /* \"#utility.yul\":2676:2747   */\n      tag_396\n        /* \"#utility.yul\":2740:2746   */\n      dup2\n        /* \"#utility.yul\":2735:2738   */\n      dup6\n        /* \"#utility.yul\":2676:2747   */\n      tag_314\n      jump\t// in\n    tag_396:\n        /* \"#utility.yul\":2669:2747   */\n      swap4\n      pop\n        /* \"#utility.yul\":2756:2808   */\n      tag_397\n        /* \"#utility.yul\":2801:2807   */\n      dup2\n        /* \"#utility.yul\":2796:2799   */\n      dup6\n        /* \"#utility.yul\":2789:2793   */\n      0x20\n        /* \"#utility.yul\":2782:2787   */\n      dup7\n        /* \"#utility.yul\":2778:2794   */\n      add\n        /* \"#utility.yul\":2756:2808   */\n      tag_315\n      jump\t// in\n    tag_397:\n        /* \"#utility.yul\":2833:2862   */\n      tag_398\n        /* \"#utility.yul\":2855:2861   */\n      dup2\n        /* \"#utility.yul\":2833:2862   */\n      tag_316\n      jump\t// in\n    tag_398:\n        /* \"#utility.yul\":2828:2831   */\n      dup5\n        /* \"#utility.yul\":2824:2863   */\n      add\n        /* \"#utility.yul\":2817:2863   */\n      swap2\n      pop\n        /* \"#utility.yul\":2597:2869   */\n      pop\n        /* \"#utility.yul\":2505:2869   */\n      swap3\n      swap2\n      pop\n      pop\n      jump\t// out\n        /* \"#utility.yul\":2875:3001   */\n    tag_318:\n        /* \"#utility.yul\":2912:2919   */\n      0x00\n        /* \"#utility.yul\":2952:2994   */\n      0xffffffffffffffffffffffffffffffffffffffff\n        /* \"#utility.yul\":2945:2950   */\n      dup3\n        /* \"#utility.yul\":2941:2995   */\n      and\n        /* \"#utility.yul\":2930:2995   */\n      swap1\n      pop\n        /* \"#utility.yul\":2875:3001   */\n      swap2\n      swap1\n      pop\n      jump\t// out\n        /* \"#utility.yul\":3007:3103   */\n    tag_319:\n        /* \"#utility.yul\":3044:3051   */\n      0x00\n        /* \"#utility.yul\":3073:3097   */\n      tag_401\n        /* \"#utility.yul\":3091:3096   */\n      dup3\n        /* \"#utility.yul\":3073:3097   */\n      tag_318\n      jump\t// in\n    tag_401:\n        /* \"#utility.yul\":3062:3097   */\n      swap1\n      pop\n        /* \"#utility.yul\":3007:3103   */\n      swap2\n      swap1\n      pop\n      jump\t// out\n        /* \"#utility.yul\":3109:3227   */\n    tag_320:\n        /* \"#utility.yul\":3196:3220   */\n      tag_403\n        /* \"#utility.yul\":3214:3219   */\n      dup2\n        /* \"#utility.yul\":3196:3220   */\n      tag_319\n      jump\t// in\n    tag_403:\n        /* \"#utility.yul\":3191:3194   */\n      dup3\n        /* \"#utility.yul\":3184:3221   */\n      mstore\n        /* \"#utility.yul\":3109:3227   */\n      pop\n      pop\n      jump\t// out\n        /* \"#utility.yul\":3233:4170   */\n    tag_40:\n        /* \"#utility.yul\":3498:3502   */\n      0x00\n        /* \"#utility.yul\":3536:3539   */\n      0xa0\n        /* \"#utility.yul\":3525:3534   */\n      dup3\n        /* \"#utility.yul\":3521:3540   */\n      add\n        /* \"#utility.yul\":3513:3540   */\n      swap1\n      pop\n        /* \"#utility.yul\":3586:3595   */\n      dup2\n        /* \"#utility.yul\":3580:3584   */\n      dup2\n        /* \"#utility.yul\":3576:3596   */\n      sub\n        /* \"#utility.yul\":3572:3573   */\n      0x00\n        /* \"#utility.yul\":3561:3570   */\n      dup4\n        /* \"#utility.yul\":3557:3574   */\n      add\n        /* \"#utility.yul\":3550:3597   */\n      mstore\n        /* \"#utility.yul\":3614:3692   */\n      tag_405\n        /* \"#utility.yul\":3687:3691   */\n      dup2\n        /* \"#utility.yul\":3678:3684   */\n      dup9\n        /* \"#utility.yul\":3614:3692   */\n      tag_317\n      jump\t// in\n    tag_405:\n        /* \"#utility.yul\":3606:3692   */\n      swap1\n      pop\n        /* \"#utility.yul\":3702:3774   */\n      tag_406\n        /* \"#utility.yul\":3770:3772   */\n      0x20\n        /* \"#utility.yul\":3759:3768   */\n      dup4\n        /* \"#utility.yul\":3755:3773   */\n      add\n        /* \"#utility.yul\":3746:3752   */\n      dup8\n        /* \"#utility.yul\":3702:3774   */\n      tag_320\n      jump\t// in\n    tag_406:\n        /* \"#utility.yul\":3821:3830   */\n      dup2\n        /* \"#utility.yul\":3815:3819   */\n      dup2\n        /* \"#utility.yul\":3811:3831   */\n      sub\n        /* \"#utility.yul\":3806:3808   */\n      0x40\n        /* \"#utility.yul\":3795:3804   */\n      dup4\n        /* \"#utility.yul\":3791:3809   */\n      add\n        /* \"#utility.yul\":3784:3832   */\n      mstore\n        /* \"#utility.yul\":3849:3927   */\n      tag_407\n        /* \"#utility.yul\":3922:3926   */\n      dup2\n        /* \"#utility.yul\":3913:3919   */\n      dup7\n        /* \"#utility.yul\":3849:3927   */\n      tag_317\n      jump\t// in\n    tag_407:\n        /* \"#utility.yul\":3841:3927   */\n      swap1\n      pop\n        /* \"#utility.yul\":3974:3983   */\n      dup2\n        /* \"#utility.yul\":3968:3972   */\n      dup2\n        /* \"#utility.yul\":3964:3984   */\n      sub\n        /* \"#utility.yul\":3959:3961   */\n      0x60\n        /* \"#utility.yul\":3948:3957   */\n      dup4\n        /* \"#utility.yul\":3944:3962   */\n      add\n        /* \"#utility.yul\":3937:3985   */\n      mstore\n        /* \"#utility.yul\":4002:4080   */\n      tag_408\n        /* \"#utility.yul\":4075:4079   */\n      dup2\n        /* \"#utility.yul\":4066:4072   */\n      dup6\n        /* \"#utility.yul\":4002:4080   */\n      tag_317\n      jump\t// in\n    tag_408:\n        /* \"#utility.yul\":3994:4080   */\n      swap1\n      pop\n        /* \"#utility.yul\":4090:4163   */\n      tag_409\n        /* \"#utility.yul\":4158:4161   */\n      0x80\n        /* \"#utility.yul\":4147:4156   */\n      dup4\n        /* \"#utility.yul\":4143:4162   */\n      add\n        /* \"#utility.yul\":4134:4140   */\n      dup5\n        /* \"#utility.yul\":4090:4163   */\n      tag_320\n      jump\t// in\n    tag_409:\n        /* \"#utility.yul\":3233:4170   */\n      swap7\n      swap6\n      pop\n      pop\n      pop\n      pop\n      pop\n      pop\n      jump\t// out\n        /* \"#utility.yul\":4176:4398   */\n    tag_48:\n        /* \"#utility.yul\":4269:4273   */\n      0x00\n        /* \"#utility.yul\":4307:4309   */\n      0x20\n        /* \"#utility.yul\":4296:4305   */\n      dup3\n        /* \"#utility.yul\":4292:4310   */\n      add\n        /* \"#utility.yul\":4284:4310   */\n      swap1\n      pop\n        /* \"#utility.yul\":4320:4391   */\n      tag_411\n        /* \"#utility.yul\":4388:4389   */\n      0x00\n        /* \"#utility.yul\":4377:4386   */\n      dup4\n        /* \"#utility.yul\":4373:4390   */\n      add\n        /* \"#utility.yul\":4364:4370   */\n      dup5\n        /* \"#utility.yul\":4320:4391   */\n      tag_320\n      jump\t// in\n    tag_411:\n        /* \"#utility.yul\":4176:4398   */\n      swap3\n      swap2\n      pop\n      pop\n      jump\t// out\n        /* \"#utility.yul\":4404:4521   */\n    tag_321:\n        /* \"#utility.yul\":4513:4514   */\n      0x00\n        /* \"#utility.yul\":4510:4511   */\n      dup1\n        /* \"#utility.yul\":4503:4515   */\n      revert\n        /* \"#utility.yul\":4527:4644   */\n    tag_322:\n        /* \"#utility.yul\":4636:4637   */\n      0x00\n        /* \"#utility.yul\":4633:4634   */\n      dup1\n        /* \"#utility.yul\":4626:4638   */\n      revert\n        /* \"#utility.yul\":4650:4830   */\n    tag_323:\n        /* \"#utility.yul\":4698:4775   */\n      0x4e487b7100000000000000000000000000000000000000000000000000000000\n        /* \"#utility.yul\":4695:4696   */\n      0x00\n        /* \"#utility.yul\":4688:4776   */\n      mstore\n        /* \"#utility.yul\":4795:4799   */\n      0x41\n        /* \"#utility.yul\":4792:4793   */\n      0x04\n        /* \"#utility.yul\":4785:4800   */\n      mstore\n        /* \"#utility.yul\":4819:4823   */\n      0x24\n        /* \"#utility.yul\":4816:4817   */\n      0x00\n        /* \"#utility.yul\":4809:4824   */\n      revert\n        /* \"#utility.yul\":4836:5117   */\n    tag_324:\n        /* \"#utility.yul\":4919:4946   */\n      tag_416\n        /* \"#utility.yul\":4941:4945   */\n      dup3\n        /* \"#utility.yul\":4919:4946   */\n      tag_316\n      jump\t// in\n    tag_416:\n        /* \"#utility.yul\":4911:4917   */\n      dup2\n        /* \"#utility.yul\":4907:4947   */\n      add\n        /* \"#utility.yul\":5049:5055   */\n      dup2\n        /* \"#utility.yul\":5037:5047   */\n      dup2\n        /* \"#utility.yul\":5034:5056   */\n      lt\n        /* \"#utility.yul\":5013:5031   */\n      0xffffffffffffffff\n        /* \"#utility.yul\":5001:5011   */\n      dup3\n        /* \"#utility.yul\":4998:5032   */\n      gt\n        /* \"#utility.yul\":4995:5057   */\n      or\n        /* \"#utility.yul\":4992:5080   */\n      iszero\n      tag_417\n      jumpi\n        /* \"#utility.yul\":5060:5078   */\n      tag_418\n      tag_323\n      jump\t// in\n    tag_418:\n        /* \"#utility.yul\":4992:5080   */\n    tag_417:\n        /* \"#utility.yul\":5100:5110   */\n      dup1\n        /* \"#utility.yul\":5096:5098   */\n      0x40\n        /* \"#utility.yul\":5089:5111   */\n      mstore\n        /* \"#utility.yul\":4879:5117   */\n      pop\n        /* \"#utility.yul\":4836:5117   */\n      pop\n      pop\n      jump\t// out\n        /* \"#utility.yul\":5123:5252   */\n    tag_325:\n        /* \"#utility.yul\":5157:5163   */\n      0x00\n        /* \"#utility.yul\":5184:5204   */\n      tag_420\n      tag_308\n      jump\t// in\n    tag_420:\n        /* \"#utility.yul\":5174:5204   */\n      swap1\n      pop\n        /* \"#utility.yul\":5213:5246   */\n      tag_421\n        /* \"#utility.yul\":5241:5245   */\n      dup3\n        /* \"#utility.yul\":5233:5239   */\n      dup3\n        /* \"#utility.yul\":5213:5246   */\n      tag_324\n      jump\t// in\n    tag_421:\n        /* \"#utility.yul\":5123:5252   */\n      swap2\n      swap1\n      pop\n      jump\t// out\n        /* \"#utility.yul\":5258:5566   */\n    tag_326:\n        /* \"#utility.yul\":5320:5324   */\n      0x00\n        /* \"#utility.yul\":5410:5428   */\n      0xffffffffffffffff\n        /* \"#utility.yul\":5402:5408   */\n      dup3\n        /* \"#utility.yul\":5399:5429   */\n      gt\n        /* \"#utility.yul\":5396:5452   */\n      iszero\n      tag_423\n      jumpi\n        /* \"#utility.yul\":5432:5450   */\n      tag_424\n      tag_323\n      jump\t// in\n    tag_424:\n        /* \"#utility.yul\":5396:5452   */\n    tag_423:\n        /* \"#utility.yul\":5470:5499   */\n      tag_425\n        /* \"#utility.yul\":5492:5498   */\n      dup3\n        /* \"#utility.yul\":5470:5499   */\n      tag_316\n      jump\t// in\n    tag_425:\n        /* \"#utility.yul\":5462:5499   */\n      swap1\n      pop\n        /* \"#utility.yul\":5554:5558   */\n      0x20\n        /* \"#utility.yul\":5548:5552   */\n      dup2\n        /* \"#utility.yul\":5544:5559   */\n      add\n        /* \"#utility.yul\":5536:5559   */\n      swap1\n      pop\n        /* \"#utility.yul\":5258:5566   */\n      swap2\n      swap1\n      pop\n      jump\t// out\n        /* \"#utility.yul\":5572:5726   */\n    tag_327:\n        /* \"#utility.yul\":5656:5662   */\n      dup3\n        /* \"#utility.yul\":5651:5654   */\n      dup2\n        /* \"#utility.yul\":5646:5649   */\n      dup4\n        /* \"#utility.yul\":5633:5663   */\n      calldatacopy\n        /* \"#utility.yul\":5718:5719   */\n      0x00\n        /* \"#utility.yul\":5709:5715   */\n      dup4\n        /* \"#utility.yul\":5704:5707   */\n      dup4\n        /* \"#utility.yul\":5700:5716   */\n      add\n        /* \"#utility.yul\":5693:5720   */\n      mstore\n        /* \"#utility.yul\":5572:5726   */\n      pop\n      pop\n      pop\n      jump\t// out\n        /* \"#utility.yul\":5732:6144   */\n    tag_328:\n        /* \"#utility.yul\":5810:5815   */\n      0x00\n        /* \"#utility.yul\":5835:5901   */\n      tag_428\n        /* \"#utility.yul\":5851:5900   */\n      tag_429\n        /* \"#utility.yul\":5893:5899   */\n      dup5\n        /* \"#utility.yul\":5851:5900   */\n      tag_326\n      jump\t// in\n    tag_429:\n        /* \"#utility.yul\":5835:5901   */\n      tag_325\n      jump\t// in\n    tag_428:\n        /* \"#utility.yul\":5826:5901   */\n      swap1\n      pop\n        /* \"#utility.yul\":5924:5930   */\n      dup3\n        /* \"#utility.yul\":5917:5922   */\n      dup2\n        /* \"#utility.yul\":5910:5931   */\n      mstore\n        /* \"#utility.yul\":5962:5966   */\n      0x20\n        /* \"#utility.yul\":5955:5960   */\n      dup2\n        /* \"#utility.yul\":5951:5967   */\n      add\n        /* \"#utility.yul\":6000:6003   */\n      dup5\n        /* \"#utility.yul\":5991:5997   */\n      dup5\n        /* \"#utility.yul\":5986:5989   */\n      dup5\n        /* \"#utility.yul\":5982:5998   */\n      add\n        /* \"#utility.yul\":5979:6004   */\n      gt\n        /* \"#utility.yul\":5976:6088   */\n      iszero\n      tag_430\n      jumpi\n        /* \"#utility.yul\":6007:6086   */\n      tag_431\n      tag_322\n      jump\t// in\n    tag_431:\n        /* \"#utility.yul\":5976:6088   */\n    tag_430:\n        /* \"#utility.yul\":6097:6138   */\n      tag_432\n        /* \"#utility.yul\":6131:6137   */\n      dup5\n        /* \"#utility.yul\":6126:6129   */\n      dup3\n        /* \"#utility.yul\":6121:6124   */\n      dup6\n        /* \"#utility.yul\":6097:6138   */\n      tag_327\n      jump\t// in\n    tag_432:\n        /* \"#utility.yul\":5816:6144   */\n      pop\n        /* \"#utility.yul\":5732:6144   */\n      swap4\n      swap3\n      pop\n      pop\n      pop\n      jump\t// out\n        /* \"#utility.yul\":6164:6504   */\n    tag_329:\n        /* \"#utility.yul\":6220:6225   */\n      0x00\n        /* \"#utility.yul\":6269:6272   */\n      dup3\n        /* \"#utility.yul\":6262:6266   */\n      0x1f\n        /* \"#utility.yul\":6254:6260   */\n      dup4\n        /* \"#utility.yul\":6250:6267   */\n      add\n        /* \"#utility.yul\":6246:6273   */\n      slt\n        /* \"#utility.yul\":6236:6358   */\n      tag_434\n      jumpi\n        /* \"#utility.yul\":6277:6356   */\n      tag_435\n      tag_321\n      jump\t// in\n    tag_435:\n        /* \"#utility.yul\":6236:6358   */\n    tag_434:\n        /* \"#utility.yul\":6394:6400   */\n      dup2\n        /* \"#utility.yul\":6381:6401   */\n      calldataload\n        /* \"#utility.yul\":6419:6498   */\n      tag_436\n        /* \"#utility.yul\":6494:6497   */\n      dup5\n        /* \"#utility.yul\":6486:6492   */\n      dup3\n        /* \"#utility.yul\":6479:6483   */\n      0x20\n        /* \"#utility.yul\":6471:6477   */\n      dup7\n        /* \"#utility.yul\":6467:6484   */\n      add\n        /* \"#utility.yul\":6419:6498   */\n      tag_328\n      jump\t// in\n    tag_436:\n        /* \"#utility.yul\":6410:6498   */\n      swap2\n      pop\n        /* \"#utility.yul\":6226:6504   */\n      pop\n        /* \"#utility.yul\":6164:6504   */\n      swap3\n      swap2\n      pop\n      pop\n      jump\t// out\n        /* \"#utility.yul\":6510:6632   */\n    tag_330:\n        /* \"#utility.yul\":6583:6607   */\n      tag_438\n        /* \"#utility.yul\":6601:6606   */\n      dup2\n        /* \"#utility.yul\":6583:6607   */\n      tag_319\n      jump\t// in\n    tag_438:\n        /* \"#utility.yul\":6576:6581   */\n      dup2\n        /* \"#utility.yul\":6573:6608   */\n      eq\n        /* \"#utility.yul\":6563:6626   */\n      tag_439\n      jumpi\n        /* \"#utility.yul\":6622:6623   */\n      0x00\n        /* \"#utility.yul\":6619:6620   */\n      dup1\n        /* \"#utility.yul\":6612:6624   */\n      revert\n        /* \"#utility.yul\":6563:6626   */\n    tag_439:\n        /* \"#utility.yul\":6510:6632   */\n      pop\n      jump\t// out\n        /* \"#utility.yul\":6638:6777   */\n    tag_331:\n        /* \"#utility.yul\":6684:6689   */\n      0x00\n        /* \"#utility.yul\":6722:6728   */\n      dup2\n        /* \"#utility.yul\":6709:6729   */\n      calldataload\n        /* \"#utility.yul\":6700:6729   */\n      swap1\n      pop\n        /* \"#utility.yul\":6738:6771   */\n      tag_441\n        /* \"#utility.yul\":6765:6770   */\n      dup2\n        /* \"#utility.yul\":6738:6771   */\n      tag_330\n      jump\t// in\n    tag_441:\n        /* \"#utility.yul\":6638:6777   */\n      swap3\n      swap2\n      pop\n      pop\n      jump\t// out\n        /* \"#utility.yul\":6783:8234   */\n    tag_51:\n        /* \"#utility.yul\":6908:6914   */\n      0x00\n        /* \"#utility.yul\":6916:6922   */\n      dup1\n        /* \"#utility.yul\":6924:6930   */\n      0x00\n        /* \"#utility.yul\":6932:6938   */\n      dup1\n        /* \"#utility.yul\":6940:6946   */\n      0x00\n        /* \"#utility.yul\":6989:6992   */\n      0xa0\n        /* \"#utility.yul\":6977:6986   */\n      dup7\n        /* \"#utility.yul\":6968:6975   */\n      dup9\n        /* \"#utility.yul\":6964:6987   */\n      sub\n        /* \"#utility.yul\":6960:6993   */\n      slt\n        /* \"#utility.yul\":6957:7077   */\n      iszero\n      tag_443\n      jumpi\n        /* \"#utility.yul\":6996:7075   */\n      tag_444\n      tag_309\n      jump\t// in\n    tag_444:\n        /* \"#utility.yul\":6957:7077   */\n    tag_443:\n        /* \"#utility.yul\":7144:7145   */\n      0x00\n        /* \"#utility.yul\":7133:7142   */\n      dup7\n        /* \"#utility.yul\":7129:7146   */\n      add\n        /* \"#utility.yul\":7116:7147   */\n      calldataload\n        /* \"#utility.yul\":7174:7192   */\n      0xffffffffffffffff\n        /* \"#utility.yul\":7166:7172   */\n      dup2\n        /* \"#utility.yul\":7163:7193   */\n      gt\n        /* \"#utility.yul\":7160:7277   */\n      iszero\n      tag_445\n      jumpi\n        /* \"#utility.yul\":7196:7275   */\n      tag_446\n      tag_310\n      jump\t// in\n    tag_446:\n        /* \"#utility.yul\":7160:7277   */\n    tag_445:\n        /* \"#utility.yul\":7301:7364   */\n      tag_447\n        /* \"#utility.yul\":7356:7363   */\n      dup9\n        /* \"#utility.yul\":7347:7353   */\n      dup3\n        /* \"#utility.yul\":7336:7345   */\n      dup10\n        /* \"#utility.yul\":7332:7354   */\n      add\n        /* \"#utility.yul\":7301:7364   */\n      tag_329\n      jump\t// in\n    tag_447:\n        /* \"#utility.yul\":7291:7364   */\n      swap6\n      pop\n        /* \"#utility.yul\":7087:7374   */\n      pop\n        /* \"#utility.yul\":7413:7415   */\n      0x20\n        /* \"#utility.yul\":7439:7492   */\n      tag_448\n        /* \"#utility.yul\":7484:7491   */\n      dup9\n        /* \"#utility.yul\":7475:7481   */\n      dup3\n        /* \"#utility.yul\":7464:7473   */\n      dup10\n        /* \"#utility.yul\":7460:7482   */\n      add\n        /* \"#utility.yul\":7439:7492   */\n      tag_331\n      jump\t// in\n    tag_448:\n        /* \"#utility.yul\":7429:7492   */\n      swap5\n      pop\n        /* \"#utility.yul\":7384:7502   */\n      pop\n        /* \"#utility.yul\":7569:7571   */\n      0x40\n        /* \"#utility.yul\":7558:7567   */\n      dup7\n        /* \"#utility.yul\":7554:7572   */\n      add\n        /* \"#utility.yul\":7541:7573   */\n      calldataload\n        /* \"#utility.yul\":7600:7618   */\n      0xffffffffffffffff\n        /* \"#utility.yul\":7592:7598   */\n      dup2\n        /* \"#utility.yul\":7589:7619   */\n      gt\n        /* \"#utility.yul\":7586:7703   */\n      iszero\n      tag_449\n      jumpi\n        /* \"#utility.yul\":7622:7701   */\n      tag_450\n      tag_310\n      jump\t// in\n    tag_450:\n        /* \"#utility.yul\":7586:7703   */\n    tag_449:\n        /* \"#utility.yul\":7727:7790   */\n      tag_451\n        /* \"#utility.yul\":7782:7789   */\n      dup9\n        /* \"#utility.yul\":7773:7779   */\n      dup3\n        /* \"#utility.yul\":7762:7771   */\n      dup10\n        /* \"#utility.yul\":7758:7780   */\n      add\n        /* \"#utility.yul\":7727:7790   */\n      tag_329\n      jump\t// in\n    tag_451:\n        /* \"#utility.yul\":7717:7790   */\n      swap4\n      pop\n        /* \"#utility.yul\":7512:7800   */\n      pop\n        /* \"#utility.yul\":7867:7869   */\n      0x60\n        /* \"#utility.yul\":7856:7865   */\n      dup7\n        /* \"#utility.yul\":7852:7870   */\n      add\n        /* \"#utility.yul\":7839:7871   */\n      calldataload\n        /* \"#utility.yul\":7898:7916   */\n      0xffffffffffffffff\n        /* \"#utility.yul\":7890:7896   */\n      dup2\n        /* \"#utility.yul\":7887:7917   */\n      gt\n        /* \"#utility.yul\":7884:8001   */\n      iszero\n      tag_452\n      jumpi\n        /* \"#utility.yul\":7920:7999   */\n      tag_453\n      tag_310\n      jump\t// in\n    tag_453:\n        /* \"#utility.yul\":7884:8001   */\n    tag_452:\n        /* \"#utility.yul\":8025:8088   */\n      tag_454\n        /* \"#utility.yul\":8080:8087   */\n      dup9\n        /* \"#utility.yul\":8071:8077   */\n      dup3\n        /* \"#utility.yul\":8060:8069   */\n      dup10\n        /* \"#utility.yul\":8056:8078   */\n      add\n        /* \"#utility.yul\":8025:8088   */\n      tag_329\n      jump\t// in\n    tag_454:\n        /* \"#utility.yul\":8015:8088   */\n      swap3\n      pop\n        /* \"#utility.yul\":7810:8098   */\n      pop\n        /* \"#utility.yul\":8137:8140   */\n      0x80\n        /* \"#utility.yul\":8164:8217   */\n      tag_455\n        /* \"#utility.yul\":8209:8216   */\n      dup9\n        /* \"#utility.yul\":8200:8206   */\n      dup3\n        /* \"#utility.yul\":8189:8198   */\n      dup10\n        /* \"#utility.yul\":8185:8207   */\n      add\n        /* \"#utility.yul\":8164:8217   */\n      tag_331\n      jump\t// in\n    tag_455:\n        /* \"#utility.yul\":8154:8217   */\n      swap2\n      pop\n        /* \"#utility.yul\":8108:8227   */\n      pop\n        /* \"#utility.yul\":6783:8234   */\n      swap3\n      swap6\n      pop\n      swap3\n      swap6\n      swap1\n      swap4\n      pop\n      jump\t// out\n        /* \"#utility.yul\":8240:8569   */\n    tag_55:\n        /* \"#utility.yul\":8299:8305   */\n      0x00\n        /* \"#utility.yul\":8348:8350   */\n      0x20\n        /* \"#utility.yul\":8336:8345   */\n      dup3\n        /* \"#utility.yul\":8327:8334   */\n      dup5\n        /* \"#utility.yul\":8323:8346   */\n      sub\n        /* \"#utility.yul\":8319:8351   */\n      slt\n        /* \"#utility.yul\":8316:8435   */\n      iszero\n      tag_457\n      jumpi\n        /* \"#utility.yul\":8354:8433   */\n      tag_458\n      tag_309\n      jump\t// in\n    tag_458:\n        /* \"#utility.yul\":8316:8435   */\n    tag_457:\n        /* \"#utility.yul\":8474:8475   */\n      0x00\n        /* \"#utility.yul\":8499:8552   */\n      tag_459\n        /* \"#utility.yul\":8544:8551   */\n      dup5\n        /* \"#utility.yul\":8535:8541   */\n      dup3\n        /* \"#utility.yul\":8524:8533   */\n      dup6\n        /* \"#utility.yul\":8520:8542   */\n      add\n        /* \"#utility.yul\":8499:8552   */\n      tag_331\n      jump\t// in\n    tag_459:\n        /* \"#utility.yul\":8489:8552   */\n      swap2\n      pop\n        /* \"#utility.yul\":8445:8562   */\n      pop\n        /* \"#utility.yul\":8240:8569   */\n      swap3\n      swap2\n      pop\n      pop\n      jump\t// out\n        /* \"#utility.yul\":8575:9229   */\n    tag_60:\n        /* \"#utility.yul\":8653:8659   */\n      0x00\n        /* \"#utility.yul\":8661:8667   */\n      dup1\n        /* \"#utility.yul\":8710:8712   */\n      0x40\n        /* \"#utility.yul\":8698:8707   */\n      dup4\n        /* \"#utility.yul\":8689:8696   */\n      dup6\n        /* \"#utility.yul\":8685:8708   */\n      sub\n        /* \"#utility.yul\":8681:8713   */\n      slt\n        /* \"#utility.yul\":8678:8797   */\n      iszero\n      tag_461\n      jumpi\n        /* \"#utility.yul\":8716:8795   */\n      tag_462\n      tag_309\n      jump\t// in\n    tag_462:\n        /* \"#utility.yul\":8678:8797   */\n    tag_461:\n        /* \"#utility.yul\":8836:8837   */\n      0x00\n        /* \"#utility.yul\":8861:8914   */\n      tag_463\n        /* \"#utility.yul\":8906:8913   */\n      dup6\n        /* \"#utility.yul\":8897:8903   */\n      dup3\n        /* \"#utility.yul\":8886:8895   */\n      dup7\n        /* \"#utility.yul\":8882:8904   */\n      add\n        /* \"#utility.yul\":8861:8914   */\n      tag_331\n      jump\t// in\n    tag_463:\n        /* \"#utility.yul\":8851:8914   */\n      swap3\n      pop\n        /* \"#utility.yul\":8807:8924   */\n      pop\n        /* \"#utility.yul\":8991:8993   */\n      0x20\n        /* \"#utility.yul\":8980:8989   */\n      dup4\n        /* \"#utility.yul\":8976:8994   */\n      add\n        /* \"#utility.yul\":8963:8995   */\n      calldataload\n        /* \"#utility.yul\":9022:9040   */\n      0xffffffffffffffff\n        /* \"#utility.yul\":9014:9020   */\n      dup2\n        /* \"#utility.yul\":9011:9041   */\n      gt\n        /* \"#utility.yul\":9008:9125   */\n      iszero\n      tag_464\n      jumpi\n        /* \"#utility.yul\":9044:9123   */\n      tag_465\n      tag_310\n      jump\t// in\n    tag_465:\n        /* \"#utility.yul\":9008:9125   */\n    tag_464:\n        /* \"#utility.yul\":9149:9212   */\n      tag_466\n        /* \"#utility.yul\":9204:9211   */\n      dup6\n        /* \"#utility.yul\":9195:9201   */\n      dup3\n        /* \"#utility.yul\":9184:9193   */\n      dup7\n        /* \"#utility.yul\":9180:9202   */\n      add\n        /* \"#utility.yul\":9149:9212   */\n      tag_329\n      jump\t// in\n    tag_466:\n        /* \"#utility.yul\":9139:9212   */\n      swap2\n      pop\n        /* \"#utility.yul\":8934:9222   */\n      pop\n        /* \"#utility.yul\":8575:9229   */\n      swap3\n      pop\n      swap3\n      swap1\n      pop\n      jump\t// out\n        /* \"#utility.yul\":9235:9312   */\n    tag_332:\n        /* \"#utility.yul\":9272:9279   */\n      0x00\n        /* \"#utility.yul\":9301:9306   */\n      dup2\n        /* \"#utility.yul\":9290:9306   */\n      swap1\n      pop\n        /* \"#utility.yul\":9235:9312   */\n      swap2\n      swap1\n      pop\n      jump\t// out\n        /* \"#utility.yul\":9318:9436   */\n    tag_333:\n        /* \"#utility.yul\":9405:9429   */\n      tag_469\n        /* \"#utility.yul\":9423:9428   */\n      dup2\n        /* \"#utility.yul\":9405:9429   */\n      tag_332\n      jump\t// in\n    tag_469:\n        /* \"#utility.yul\":9400:9403   */\n      dup3\n        /* \"#utility.yul\":9393:9430   */\n      mstore\n        /* \"#utility.yul\":9318:9436   */\n      pop\n      pop\n      jump\t// out\n        /* \"#utility.yul\":9442:9664   */\n    tag_63:\n        /* \"#utility.yul\":9535:9539   */\n      0x00\n        /* \"#utility.yul\":9573:9575   */\n      0x20\n        /* \"#utility.yul\":9562:9571   */\n      dup3\n        /* \"#utility.yul\":9558:9576   */\n      add\n        /* \"#utility.yul\":9550:9576   */\n      swap1\n      pop\n        /* \"#utility.yul\":9586:9657   */\n      tag_471\n        /* \"#utility.yul\":9654:9655   */\n      0x00\n        /* \"#utility.yul\":9643:9652   */\n      dup4\n        /* \"#utility.yul\":9639:9656   */\n      add\n        /* \"#utility.yul\":9630:9636   */\n      dup5\n        /* \"#utility.yul\":9586:9657   */\n      tag_333\n      jump\t// in\n    tag_471:\n        /* \"#utility.yul\":9442:9664   */\n      swap3\n      swap2\n      pop\n      pop\n      jump\t// out\n        /* \"#utility.yul\":9670:11267   */\n    tag_76:\n        /* \"#utility.yul\":9804:9810   */\n      0x00\n        /* \"#utility.yul\":9812:9818   */\n      dup1\n        /* \"#utility.yul\":9820:9826   */\n      0x00\n        /* \"#utility.yul\":9828:9834   */\n      dup1\n        /* \"#utility.yul\":9836:9842   */\n      0x00\n        /* \"#utility.yul\":9844:9850   */\n      dup1\n        /* \"#utility.yul\":9893:9896   */\n      0xc0\n        /* \"#utility.yul\":9881:9890   */\n      dup8\n        /* \"#utility.yul\":9872:9879   */\n      dup10\n        /* \"#utility.yul\":9868:9891   */\n      sub\n        /* \"#utility.yul\":9864:9897   */\n      slt\n        /* \"#utility.yul\":9861:9981   */\n      iszero\n      tag_473\n      jumpi\n        /* \"#utility.yul\":9900:9979   */\n      tag_474\n      tag_309\n      jump\t// in\n    tag_474:\n        /* \"#utility.yul\":9861:9981   */\n    tag_473:\n        /* \"#utility.yul\":10048:10049   */\n      0x00\n        /* \"#utility.yul\":10037:10046   */\n      dup8\n        /* \"#utility.yul\":10033:10050   */\n      add\n        /* \"#utility.yul\":10020:10051   */\n      calldataload\n        /* \"#utility.yul\":10078:10096   */\n      0xffffffffffffffff\n        /* \"#utility.yul\":10070:10076   */\n      dup2\n        /* \"#utility.yul\":10067:10097   */\n      gt\n        /* \"#utility.yul\":10064:10181   */\n      iszero\n      tag_475\n      jumpi\n        /* \"#utility.yul\":10100:10179   */\n      tag_476\n      tag_310\n      jump\t// in\n    tag_476:\n        /* \"#utility.yul\":10064:10181   */\n    tag_475:\n        /* \"#utility.yul\":10205:10268   */\n      tag_477\n        /* \"#utility.yul\":10260:10267   */\n      dup10\n        /* \"#utility.yul\":10251:10257   */\n      dup3\n        /* \"#utility.yul\":10240:10249   */\n      dup11\n        /* \"#utility.yul\":10236:10258   */\n      add\n        /* \"#utility.yul\":10205:10268   */\n      tag_329\n      jump\t// in\n    tag_477:\n        /* \"#utility.yul\":10195:10268   */\n      swap7\n      pop\n        /* \"#utility.yul\":9991:10278   */\n      pop\n        /* \"#utility.yul\":10317:10319   */\n      0x20\n        /* \"#utility.yul\":10343:10396   */\n      tag_478\n        /* \"#utility.yul\":10388:10395   */\n      dup10\n        /* \"#utility.yul\":10379:10385   */\n      dup3\n        /* \"#utility.yul\":10368:10377   */\n      dup11\n        /* \"#utility.yul\":10364:10386   */\n      add\n        /* \"#utility.yul\":10343:10396   */\n      tag_331\n      jump\t// in\n    tag_478:\n        /* \"#utility.yul\":10333:10396   */\n      swap6\n      pop\n        /* \"#utility.yul\":10288:10406   */\n      pop\n        /* \"#utility.yul\":10473:10475   */\n      0x40\n        /* \"#utility.yul\":10462:10471   */\n      dup8\n        /* \"#utility.yul\":10458:10476   */\n      add\n        /* \"#utility.yul\":10445:10477   */\n      calldataload\n        /* \"#utility.yul\":10504:10522   */\n      0xffffffffffffffff\n        /* \"#utility.yul\":10496:10502   */\n      dup2\n        /* \"#utility.yul\":10493:10523   */\n      gt\n        /* \"#utility.yul\":10490:10607   */\n      iszero\n      tag_479\n      jumpi\n        /* \"#utility.yul\":10526:10605   */\n      tag_480\n      tag_310\n      jump\t// in\n    tag_480:\n        /* \"#utility.yul\":10490:10607   */\n    tag_479:\n        /* \"#utility.yul\":10631:10694   */\n      tag_481\n        /* \"#utility.yul\":10686:10693   */\n      dup10\n        /* \"#utility.yul\":10677:10683   */\n      dup3\n        /* \"#utility.yul\":10666:10675   */\n      dup11\n        /* \"#utility.yul\":10662:10684   */\n      add\n        /* \"#utility.yul\":10631:10694   */\n      tag_329\n      jump\t// in\n    tag_481:\n        /* \"#utility.yul\":10621:10694   */\n      swap5\n      pop\n        /* \"#utility.yul\":10416:10704   */\n      pop\n        /* \"#utility.yul\":10771:10773   */\n      0x60\n        /* \"#utility.yul\":10760:10769   */\n      dup8\n        /* \"#utility.yul\":10756:10774   */\n      add\n        /* \"#utility.yul\":10743:10775   */\n      calldataload\n        /* \"#utility.yul\":10802:10820   */\n      0xffffffffffffffff\n        /* \"#utility.yul\":10794:10800   */\n      dup2\n        /* \"#utility.yul\":10791:10821   */\n      gt\n        /* \"#utility.yul\":10788:10905   */\n      iszero\n      tag_482\n      jumpi\n        /* \"#utility.yul\":10824:10903   */\n      tag_483\n      tag_310\n      jump\t// in\n    tag_483:\n        /* \"#utility.yul\":10788:10905   */\n    tag_482:\n        /* \"#utility.yul\":10929:10992   */\n      tag_484\n        /* \"#utility.yul\":10984:10991   */\n      dup10\n        /* \"#utility.yul\":10975:10981   */\n      dup3\n        /* \"#utility.yul\":10964:10973   */\n      dup11\n        /* \"#utility.yul\":10960:10982   */\n      add\n        /* \"#utility.yul\":10929:10992   */\n      tag_329\n      jump\t// in\n    tag_484:\n        /* \"#utility.yul\":10919:10992   */\n      swap4\n      pop\n        /* \"#utility.yul\":10714:11002   */\n      pop\n        /* \"#utility.yul\":11041:11044   */\n      0x80\n        /* \"#utility.yul\":11068:11121   */\n      tag_485\n        /* \"#utility.yul\":11113:11120   */\n      dup10\n        /* \"#utility.yul\":11104:11110   */\n      dup3\n        /* \"#utility.yul\":11093:11102   */\n      dup11\n        /* \"#utility.yul\":11089:11111   */\n      add\n        /* \"#utility.yul\":11068:11121   */\n      tag_331\n      jump\t// in\n    tag_485:\n        /* \"#utility.yul\":11058:11121   */\n      swap3\n      pop\n        /* \"#utility.yul\":11012:11131   */\n      pop\n        /* \"#utility.yul\":11170:11173   */\n      0xa0\n        /* \"#utility.yul\":11197:11250   */\n      tag_486\n        /* \"#utility.yul\":11242:11249   */\n      dup10\n        /* \"#utility.yul\":11233:11239   */\n      dup3\n        /* \"#utility.yul\":11222:11231   */\n      dup11\n        /* \"#utility.yul\":11218:11240   */\n      add\n        /* \"#utility.yul\":11197:11250   */\n      tag_331\n      jump\t// in\n    tag_486:\n        /* \"#utility.yul\":11187:11250   */\n      swap2\n      pop\n        /* \"#utility.yul\":11141:11260   */\n      pop\n        /* \"#utility.yul\":9670:11267   */\n      swap3\n      swap6\n      pop\n      swap3\n      swap6\n      pop\n      swap3\n      swap6\n      jump\t// out\n        /* \"#utility.yul\":11273:11333   */\n    tag_334:\n        /* \"#utility.yul\":11301:11304   */\n      0x00\n        /* \"#utility.yul\":11322:11327   */\n      dup2\n        /* \"#utility.yul\":11315:11327   */\n      swap1\n      pop\n        /* \"#utility.yul\":11273:11333   */\n      swap2\n      swap1\n      pop\n      jump\t// out\n        /* \"#utility.yul\":11339:11481   */\n    tag_335:\n        /* \"#utility.yul\":11389:11398   */\n      0x00\n        /* \"#utility.yul\":11422:11475   */\n      tag_489\n        /* \"#utility.yul\":11440:11474   */\n      tag_490\n        /* \"#utility.yul\":11449:11473   */\n      tag_491\n        /* \"#utility.yul\":11467:11472   */\n      dup5\n        /* \"#utility.yul\":11449:11473   */\n      tag_318\n      jump\t// in\n    tag_491:\n        /* \"#utility.yul\":11440:11474   */\n      tag_334\n      jump\t// in\n    tag_490:\n        /* \"#utility.yul\":11422:11475   */\n      tag_318\n      jump\t// in\n    tag_489:\n        /* \"#utility.yul\":11409:11475   */\n      swap1\n      pop\n        /* \"#utility.yul\":11339:11481   */\n      swap2\n      swap1\n      pop\n      jump\t// out\n        /* \"#utility.yul\":11487:11613   */\n    tag_336:\n        /* \"#utility.yul\":11537:11546   */\n      0x00\n        /* \"#utility.yul\":11570:11607   */\n      tag_493\n        /* \"#utility.yul\":11601:11606   */\n      dup3\n        /* \"#utility.yul\":11570:11607   */\n      tag_335\n      jump\t// in\n    tag_493:\n        /* \"#utility.yul\":11557:11607   */\n      swap1\n      pop\n        /* \"#utility.yul\":11487:11613   */\n      swap2\n      swap1\n      pop\n      jump\t// out\n        /* \"#utility.yul\":11619:11764   */\n    tag_337:\n        /* \"#utility.yul\":11688:11697   */\n      0x00\n        /* \"#utility.yul\":11721:11758   */\n      tag_495\n        /* \"#utility.yul\":11752:11757   */\n      dup3\n        /* \"#utility.yul\":11721:11758   */\n      tag_336\n      jump\t// in\n    tag_495:\n        /* \"#utility.yul\":11708:11758   */\n      swap1\n      pop\n        /* \"#utility.yul\":11619:11764   */\n      swap2\n      swap1\n      pop\n      jump\t// out\n        /* \"#utility.yul\":11770:11939   */\n    tag_338:\n        /* \"#utility.yul\":11876:11932   */\n      tag_497\n        /* \"#utility.yul\":11926:11931   */\n      dup2\n        /* \"#utility.yul\":11876:11932   */\n      tag_337\n      jump\t// in\n    tag_497:\n        /* \"#utility.yul\":11871:11874   */\n      dup3\n        /* \"#utility.yul\":11864:11933   */\n      mstore\n        /* \"#utility.yul\":11770:11939   */\n      pop\n      pop\n      jump\t// out\n        /* \"#utility.yul\":11945:12205   */\n    tag_87:\n        /* \"#utility.yul\":12057:12061   */\n      0x00\n        /* \"#utility.yul\":12095:12097   */\n      0x20\n        /* \"#utility.yul\":12084:12093   */\n      dup3\n        /* \"#utility.yul\":12080:12098   */\n      add\n        /* \"#utility.yul\":12072:12098   */\n      swap1\n      pop\n        /* \"#utility.yul\":12108:12198   */\n      tag_499\n        /* \"#utility.yul\":12195:12196   */\n      0x00\n        /* \"#utility.yul\":12184:12193   */\n      dup4\n        /* \"#utility.yul\":12180:12197   */\n      add\n        /* \"#utility.yul\":12171:12177   */\n      dup5\n        /* \"#utility.yul\":12108:12198   */\n      tag_338\n      jump\t// in\n    tag_499:\n        /* \"#utility.yul\":11945:12205   */\n      swap3\n      swap2\n      pop\n      pop\n      jump\t// out\n        /* \"#utility.yul\":12211:12358   */\n    tag_339:\n        /* \"#utility.yul\":12282:12291   */\n      0x00\n        /* \"#utility.yul\":12315:12352   */\n      tag_501\n        /* \"#utility.yul\":12346:12351   */\n      dup3\n        /* \"#utility.yul\":12315:12352   */\n      tag_336\n      jump\t// in\n    tag_501:\n        /* \"#utility.yul\":12302:12352   */\n      swap1\n      pop\n        /* \"#utility.yul\":12211:12358   */\n      swap2\n      swap1\n      pop\n      jump\t// out\n        /* \"#utility.yul\":12364:12537   */\n    tag_340:\n        /* \"#utility.yul\":12472:12530   */\n      tag_503\n        /* \"#utility.yul\":12524:12529   */\n      dup2\n        /* \"#utility.yul\":12472:12530   */\n      tag_339\n      jump\t// in\n    tag_503:\n        /* \"#utility.yul\":12467:12470   */\n      dup3\n        /* \"#utility.yul\":12460:12531   */\n      mstore\n        /* \"#utility.yul\":12364:12537   */\n      pop\n      pop\n      jump\t// out\n        /* \"#utility.yul\":12543:12807   */\n    tag_95:\n        /* \"#utility.yul\":12657:12661   */\n      0x00\n        /* \"#utility.yul\":12695:12697   */\n      0x20\n        /* \"#utility.yul\":12684:12693   */\n      dup3\n        /* \"#utility.yul\":12680:12698   */\n      add\n        /* \"#utility.yul\":12672:12698   */\n      swap1\n      pop\n        /* \"#utility.yul\":12708:12800   */\n      tag_505\n        /* \"#utility.yul\":12797:12798   */\n      0x00\n        /* \"#utility.yul\":12786:12795   */\n      dup4\n        /* \"#utility.yul\":12782:12799   */\n      add\n        /* \"#utility.yul\":12773:12779   */\n      dup5\n        /* \"#utility.yul\":12708:12800   */\n      tag_340\n      jump\t// in\n    tag_505:\n        /* \"#utility.yul\":12543:12807   */\n      swap3\n      swap2\n      pop\n      pop\n      jump\t// out\n        /* \"#utility.yul\":12813:13612   */\n    tag_108:\n        /* \"#utility.yul\":12900:12906   */\n      0x00\n        /* \"#utility.yul\":12908:12914   */\n      dup1\n        /* \"#utility.yul\":12916:12922   */\n      0x00\n        /* \"#utility.yul\":12965:12967   */\n      0x60\n        /* \"#utility.yul\":12953:12962   */\n      dup5\n        /* \"#utility.yul\":12944:12951   */\n      dup7\n        /* \"#utility.yul\":12940:12963   */\n      sub\n        /* \"#utility.yul\":12936:12968   */\n      slt\n        /* \"#utility.yul\":12933:13052   */\n      iszero\n      tag_507\n      jumpi\n        /* \"#utility.yul\":12971:13050   */\n      tag_508\n      tag_309\n      jump\t// in\n    tag_508:\n        /* \"#utility.yul\":12933:13052   */\n    tag_507:\n        /* \"#utility.yul\":13091:13092   */\n      0x00\n        /* \"#utility.yul\":13116:13169   */\n      tag_509\n        /* \"#utility.yul\":13161:13168   */\n      dup7\n        /* \"#utility.yul\":13152:13158   */\n      dup3\n        /* \"#utility.yul\":13141:13150   */\n      dup8\n        /* \"#utility.yul\":13137:13159   */\n      add\n        /* \"#utility.yul\":13116:13169   */\n      tag_312\n      jump\t// in\n    tag_509:\n        /* \"#utility.yul\":13106:13169   */\n      swap4\n      pop\n        /* \"#utility.yul\":13062:13179   */\n      pop\n        /* \"#utility.yul\":13218:13220   */\n      0x20\n        /* \"#utility.yul\":13244:13297   */\n      tag_510\n        /* \"#utility.yul\":13289:13296   */\n      dup7\n        /* \"#utility.yul\":13280:13286   */\n      dup3\n        /* \"#utility.yul\":13269:13278   */\n      dup8\n        /* \"#utility.yul\":13265:13287   */\n      add\n        /* \"#utility.yul\":13244:13297   */\n      tag_331\n      jump\t// in\n    tag_510:\n        /* \"#utility.yul\":13234:13297   */\n      swap3\n      pop\n        /* \"#utility.yul\":13189:13307   */\n      pop\n        /* \"#utility.yul\":13374:13376   */\n      0x40\n        /* \"#utility.yul\":13363:13372   */\n      dup5\n        /* \"#utility.yul\":13359:13377   */\n      add\n        /* \"#utility.yul\":13346:13378   */\n      calldataload\n        /* \"#utility.yul\":13405:13423   */\n      0xffffffffffffffff\n        /* \"#utility.yul\":13397:13403   */\n      dup2\n        /* \"#utility.yul\":13394:13424   */\n      gt\n        /* \"#utility.yul\":13391:13508   */\n      iszero\n      tag_511\n      jumpi\n        /* \"#utility.yul\":13427:13506   */\n      tag_512\n      tag_310\n      jump\t// in\n    tag_512:\n        /* \"#utility.yul\":13391:13508   */\n    tag_511:\n        /* \"#utility.yul\":13532:13595   */\n      tag_513\n        /* \"#utility.yul\":13587:13594   */\n      dup7\n        /* \"#utility.yul\":13578:13584   */\n      dup3\n        /* \"#utility.yul\":13567:13576   */\n      dup8\n        /* \"#utility.yul\":13563:13585   */\n      add\n        /* \"#utility.yul\":13532:13595   */\n      tag_329\n      jump\t// in\n    tag_513:\n        /* \"#utility.yul\":13522:13595   */\n      swap2\n      pop\n        /* \"#utility.yul\":13317:13605   */\n      pop\n        /* \"#utility.yul\":12813:13612   */\n      swap3\n      pop\n      swap3\n      pop\n      swap3\n      jump\t// out\n        /* \"#utility.yul\":13618:13761   */\n    tag_341:\n        /* \"#utility.yul\":13675:13680   */\n      0x00\n        /* \"#utility.yul\":13706:13712   */\n      dup2\n        /* \"#utility.yul\":13700:13713   */\n      mload\n        /* \"#utility.yul\":13691:13713   */\n      swap1\n      pop\n        /* \"#utility.yul\":13722:13755   */\n      tag_515\n        /* \"#utility.yul\":13749:13754   */\n      dup2\n        /* \"#utility.yul\":13722:13755   */\n      tag_330\n      jump\t// in\n    tag_515:\n        /* \"#utility.yul\":13618:13761   */\n      swap3\n      swap2\n      pop\n      pop\n      jump\t// out\n        /* \"#utility.yul\":13767:14118   */\n    tag_116:\n        /* \"#utility.yul\":13837:13843   */\n      0x00\n        /* \"#utility.yul\":13886:13888   */\n      0x20\n        /* \"#utility.yul\":13874:13883   */\n      dup3\n        /* \"#utility.yul\":13865:13872   */\n      dup5\n        /* \"#utility.yul\":13861:13884   */\n      sub\n        /* \"#utility.yul\":13857:13889   */\n      slt\n        /* \"#utility.yul\":13854:13973   */\n      iszero\n      tag_517\n      jumpi\n        /* \"#utility.yul\":13892:13971   */\n      tag_518\n      tag_309\n      jump\t// in\n    tag_518:\n        /* \"#utility.yul\":13854:13973   */\n    tag_517:\n        /* \"#utility.yul\":14012:14013   */\n      0x00\n        /* \"#utility.yul\":14037:14101   */\n      tag_519\n        /* \"#utility.yul\":14093:14100   */\n      dup5\n        /* \"#utility.yul\":14084:14090   */\n      dup3\n        /* \"#utility.yul\":14073:14082   */\n      dup6\n        /* \"#utility.yul\":14069:14091   */\n      add\n        /* \"#utility.yul\":14037:14101   */\n      tag_341\n      jump\t// in\n    tag_519:\n        /* \"#utility.yul\":14027:14101   */\n      swap2\n      pop\n        /* \"#utility.yul\":13983:14111   */\n      pop\n        /* \"#utility.yul\":13767:14118   */\n      swap3\n      swap2\n      pop\n      pop\n      jump\t// out\n        /* \"#utility.yul\":14124:14304   */\n    tag_342:\n        /* \"#utility.yul\":14172:14249   */\n      0x4e487b7100000000000000000000000000000000000000000000000000000000\n        /* \"#utility.yul\":14169:14170   */\n      0x00\n        /* \"#utility.yul\":14162:14250   */\n      mstore\n        /* \"#utility.yul\":14269:14273   */\n      0x22\n        /* \"#utility.yul\":14266:14267   */\n      0x04\n        /* \"#utility.yul\":14259:14274   */\n      mstore\n        /* \"#utility.yul\":14293:14297   */\n      0x24\n        /* \"#utility.yul\":14290:14291   */\n      0x00\n        /* \"#utility.yul\":14283:14298   */\n      revert\n        /* \"#utility.yul\":14310:14630   */\n    tag_120:\n        /* \"#utility.yul\":14354:14360   */\n      0x00\n        /* \"#utility.yul\":14391:14392   */\n      0x02\n        /* \"#utility.yul\":14385:14389   */\n      dup3\n        /* \"#utility.yul\":14381:14393   */\n      div\n        /* \"#utility.yul\":14371:14393   */\n      swap1\n      pop\n        /* \"#utility.yul\":14438:14439   */\n      0x01\n        /* \"#utility.yul\":14432:14436   */\n      dup3\n        /* \"#utility.yul\":14428:14440   */\n      and\n        /* \"#utility.yul\":14459:14477   */\n      dup1\n        /* \"#utility.yul\":14449:14530   */\n      tag_522\n      jumpi\n        /* \"#utility.yul\":14515:14519   */\n      0x7f\n        /* \"#utility.yul\":14507:14513   */\n      dup3\n        /* \"#utility.yul\":14503:14520   */\n      and\n        /* \"#utility.yul\":14493:14520   */\n      swap2\n      pop\n        /* \"#utility.yul\":14449:14530   */\n    tag_522:\n        /* \"#utility.yul\":14577:14579   */\n      0x20\n        /* \"#utility.yul\":14569:14575   */\n      dup3\n        /* \"#utility.yul\":14566:14580   */\n      lt\n        /* \"#utility.yul\":14546:14564   */\n      dup2\n        /* \"#utility.yul\":14543:14581   */\n      eq\n        /* \"#utility.yul\":14540:14624   */\n      iszero\n      tag_523\n      jumpi\n        /* \"#utility.yul\":14596:14614   */\n      tag_524\n      tag_342\n      jump\t// in\n    tag_524:\n        /* \"#utility.yul\":14540:14624   */\n    tag_523:\n        /* \"#utility.yul\":14361:14630   */\n      pop\n        /* \"#utility.yul\":14310:14630   */\n      swap2\n      swap1\n      pop\n      jump\t// out\n        /* \"#utility.yul\":14636:14805   */\n    tag_343:\n        /* \"#utility.yul\":14776:14797   */\n      0x496e646578206f7574206f6620626f756e647300000000000000000000000000\n        /* \"#utility.yul\":14772:14773   */\n      0x00\n        /* \"#utility.yul\":14764:14770   */\n      dup3\n        /* \"#utility.yul\":14760:14774   */\n      add\n        /* \"#utility.yul\":14753:14798   */\n      mstore\n        /* \"#utility.yul\":14636:14805   */\n      pop\n      jump\t// out\n        /* \"#utility.yul\":14811:15177   */\n    tag_344:\n        /* \"#utility.yul\":14953:14956   */\n      0x00\n        /* \"#utility.yul\":14974:15041   */\n      tag_527\n        /* \"#utility.yul\":15038:15040   */\n      0x13\n        /* \"#utility.yul\":15033:15036   */\n      dup4\n        /* \"#utility.yul\":14974:15041   */\n      tag_314\n      jump\t// in\n    tag_527:\n        /* \"#utility.yul\":14967:15041   */\n      swap2\n      pop\n        /* \"#utility.yul\":15050:15143   */\n      tag_528\n        /* \"#utility.yul\":15139:15142   */\n      dup3\n        /* \"#utility.yul\":15050:15143   */\n      tag_343\n      jump\t// in\n    tag_528:\n        /* \"#utility.yul\":15168:15170   */\n      0x20\n        /* \"#utility.yul\":15163:15166   */\n      dup3\n        /* \"#utility.yul\":15159:15171   */\n      add\n        /* \"#utility.yul\":15152:15171   */\n      swap1\n      pop\n        /* \"#utility.yul\":14811:15177   */\n      swap2\n      swap1\n      pop\n      jump\t// out\n        /* \"#utility.yul\":15183:15602   */\n    tag_138:\n        /* \"#utility.yul\":15349:15353   */\n      0x00\n        /* \"#utility.yul\":15387:15389   */\n      0x20\n        /* \"#utility.yul\":15376:15385   */\n      dup3\n        /* \"#utility.yul\":15372:15390   */\n      add\n        /* \"#utility.yul\":15364:15390   */\n      swap1\n      pop\n        /* \"#utility.yul\":15436:15445   */\n      dup2\n        /* \"#utility.yul\":15430:15434   */\n      dup2\n        /* \"#utility.yul\":15426:15446   */\n      sub\n        /* \"#utility.yul\":15422:15423   */\n      0x00\n        /* \"#utility.yul\":15411:15420   */\n      dup4\n        /* \"#utility.yul\":15407:15424   */\n      add\n        /* \"#utility.yul\":15400:15447   */\n      mstore\n        /* \"#utility.yul\":15464:15595   */\n      tag_530\n        /* \"#utility.yul\":15590:15594   */\n      dup2\n        /* \"#utility.yul\":15464:15595   */\n      tag_344\n      jump\t// in\n    tag_530:\n        /* \"#utility.yul\":15456:15595   */\n      swap1\n      pop\n        /* \"#utility.yul\":15183:15602   */\n      swap2\n      swap1\n      pop\n      jump\t// out\n        /* \"#utility.yul\":15608:15788   */\n    tag_141:\n        /* \"#utility.yul\":15656:15733   */\n      0x4e487b7100000000000000000000000000000000000000000000000000000000\n        /* \"#utility.yul\":15653:15654   */\n      0x00\n        /* \"#utility.yul\":15646:15734   */\n      mstore\n        /* \"#utility.yul\":15753:15757   */\n      0x32\n        /* \"#utility.yul\":15750:15751   */\n      0x04\n        /* \"#utility.yul\":15743:15758   */\n      mstore\n        /* \"#utility.yul\":15777:15781   */\n      0x24\n        /* \"#utility.yul\":15774:15775   */\n      0x00\n        /* \"#utility.yul\":15767:15782   */\n      revert\n        /* \"#utility.yul\":15794:15888   */\n    tag_345:\n        /* \"#utility.yul\":15827:15835   */\n      0x00\n        /* \"#utility.yul\":15875:15880   */\n      dup2\n        /* \"#utility.yul\":15871:15873   */\n      0x60\n        /* \"#utility.yul\":15867:15881   */\n      shl\n        /* \"#utility.yul\":15846:15881   */\n      swap1\n      pop\n        /* \"#utility.yul\":15794:15888   */\n      swap2\n      swap1\n      pop\n      jump\t// out\n        /* \"#utility.yul\":15894:15988   */\n    tag_346:\n        /* \"#utility.yul\":15933:15940   */\n      0x00\n        /* \"#utility.yul\":15962:15982   */\n      tag_534\n        /* \"#utility.yul\":15976:15981   */\n      dup3\n        /* \"#utility.yul\":15962:15982   */\n      tag_345\n      jump\t// in\n    tag_534:\n        /* \"#utility.yul\":15951:15982   */\n      swap1\n      pop\n        /* \"#utility.yul\":15894:15988   */\n      swap2\n      swap1\n      pop\n      jump\t// out\n        /* \"#utility.yul\":15994:16094   */\n    tag_347:\n        /* \"#utility.yul\":16033:16040   */\n      0x00\n        /* \"#utility.yul\":16062:16088   */\n      tag_536\n        /* \"#utility.yul\":16082:16087   */\n      dup3\n        /* \"#utility.yul\":16062:16088   */\n      tag_346\n      jump\t// in\n    tag_536:\n        /* \"#utility.yul\":16051:16088   */\n      swap1\n      pop\n        /* \"#utility.yul\":15994:16094   */\n      swap2\n      swap1\n      pop\n      jump\t// out\n        /* \"#utility.yul\":16100:16257   */\n    tag_348:\n        /* \"#utility.yul\":16205:16250   */\n      tag_538\n        /* \"#utility.yul\":16225:16249   */\n      tag_539\n        /* \"#utility.yul\":16243:16248   */\n      dup3\n        /* \"#utility.yul\":16225:16249   */\n      tag_319\n      jump\t// in\n    tag_539:\n        /* \"#utility.yul\":16205:16250   */\n      tag_347\n      jump\t// in\n    tag_538:\n        /* \"#utility.yul\":16200:16203   */\n      dup3\n        /* \"#utility.yul\":16193:16251   */\n      mstore\n        /* \"#utility.yul\":16100:16257   */\n      pop\n      pop\n      jump\t// out\n        /* \"#utility.yul\":16263:16411   */\n    tag_349:\n        /* \"#utility.yul\":16365:16376   */\n      0x00\n        /* \"#utility.yul\":16402:16405   */\n      dup2\n        /* \"#utility.yul\":16387:16405   */\n      swap1\n      pop\n        /* \"#utility.yul\":16263:16411   */\n      swap3\n      swap2\n      pop\n      pop\n      jump\t// out\n        /* \"#utility.yul\":16417:16794   */\n    tag_350:\n        /* \"#utility.yul\":16523:16526   */\n      0x00\n        /* \"#utility.yul\":16551:16590   */\n      tag_542\n        /* \"#utility.yul\":16584:16589   */\n      dup3\n        /* \"#utility.yul\":16551:16590   */\n      tag_313\n      jump\t// in\n    tag_542:\n        /* \"#utility.yul\":16606:16695   */\n      tag_543\n        /* \"#utility.yul\":16688:16694   */\n      dup2\n        /* \"#utility.yul\":16683:16686   */\n      dup6\n        /* \"#utility.yul\":16606:16695   */\n      tag_349\n      jump\t// in\n    tag_543:\n        /* \"#utility.yul\":16599:16695   */\n      swap4\n      pop\n        /* \"#utility.yul\":16704:16756   */\n      tag_544\n        /* \"#utility.yul\":16749:16755   */\n      dup2\n        /* \"#utility.yul\":16744:16747   */\n      dup6\n        /* \"#utility.yul\":16737:16741   */\n      0x20\n        /* \"#utility.yul\":16730:16735   */\n      dup7\n        /* \"#utility.yul\":16726:16742   */\n      add\n        /* \"#utility.yul\":16704:16756   */\n      tag_315\n      jump\t// in\n    tag_544:\n        /* \"#utility.yul\":16781:16787   */\n      dup1\n        /* \"#utility.yul\":16776:16779   */\n      dup5\n        /* \"#utility.yul\":16772:16788   */\n      add\n        /* \"#utility.yul\":16765:16788   */\n      swap2\n      pop\n        /* \"#utility.yul\":16527:16794   */\n      pop\n        /* \"#utility.yul\":16417:16794   */\n      swap3\n      swap2\n      pop\n      pop\n      jump\t// out\n        /* \"#utility.yul\":16800:17216   */\n    tag_169:\n        /* \"#utility.yul\":16960:16963   */\n      0x00\n        /* \"#utility.yul\":16975:17050   */\n      tag_546\n        /* \"#utility.yul\":17046:17049   */\n      dup3\n        /* \"#utility.yul\":17037:17043   */\n      dup6\n        /* \"#utility.yul\":16975:17050   */\n      tag_348\n      jump\t// in\n    tag_546:\n        /* \"#utility.yul\":17075:17077   */\n      0x14\n        /* \"#utility.yul\":17070:17073   */\n      dup3\n        /* \"#utility.yul\":17066:17078   */\n      add\n        /* \"#utility.yul\":17059:17078   */\n      swap2\n      pop\n        /* \"#utility.yul\":17095:17190   */\n      tag_547\n        /* \"#utility.yul\":17186:17189   */\n      dup3\n        /* \"#utility.yul\":17177:17183   */\n      dup5\n        /* \"#utility.yul\":17095:17190   */\n      tag_350\n      jump\t// in\n    tag_547:\n        /* \"#utility.yul\":17088:17190   */\n      swap2\n      pop\n        /* \"#utility.yul\":17207:17210   */\n      dup2\n        /* \"#utility.yul\":17200:17210   */\n      swap1\n      pop\n        /* \"#utility.yul\":16800:17216   */\n      swap4\n      swap3\n      pop\n      pop\n      pop\n      jump\t// out\n        /* \"#utility.yul\":17222:17645   */\n    tag_194:\n        /* \"#utility.yul\":17363:17367   */\n      0x00\n        /* \"#utility.yul\":17401:17403   */\n      0x40\n        /* \"#utility.yul\":17390:17399   */\n      dup3\n        /* \"#utility.yul\":17386:17404   */\n      add\n        /* \"#utility.yul\":17378:17404   */\n      swap1\n      pop\n        /* \"#utility.yul\":17414:17485   */\n      tag_549\n        /* \"#utility.yul\":17482:17483   */\n      0x00\n        /* \"#utility.yul\":17471:17480   */\n      dup4\n        /* \"#utility.yul\":17467:17484   */\n      add\n        /* \"#utility.yul\":17458:17464   */\n      dup6\n        /* \"#utility.yul\":17414:17485   */\n      tag_320\n      jump\t// in\n    tag_549:\n        /* \"#utility.yul\":17532:17541   */\n      dup2\n        /* \"#utility.yul\":17526:17530   */\n      dup2\n        /* \"#utility.yul\":17522:17542   */\n      sub\n        /* \"#utility.yul\":17517:17519   */\n      0x20\n        /* \"#utility.yul\":17506:17515   */\n      dup4\n        /* \"#utility.yul\":17502:17520   */\n      add\n        /* \"#utility.yul\":17495:17543   */\n      mstore\n        /* \"#utility.yul\":17560:17638   */\n      tag_550\n        /* \"#utility.yul\":17633:17637   */\n      dup2\n        /* \"#utility.yul\":17624:17630   */\n      dup5\n        /* \"#utility.yul\":17560:17638   */\n      tag_317\n      jump\t// in\n    tag_550:\n        /* \"#utility.yul\":17552:17638   */\n      swap1\n      pop\n        /* \"#utility.yul\":17222:17645   */\n      swap4\n      swap3\n      pop\n      pop\n      pop\n      jump\t// out\n        /* \"#utility.yul\":17651:17773   */\n    tag_351:\n        /* \"#utility.yul\":17724:17748   */\n      tag_552\n        /* \"#utility.yul\":17742:17747   */\n      dup2\n        /* \"#utility.yul\":17724:17748   */\n      tag_332\n      jump\t// in\n    tag_552:\n        /* \"#utility.yul\":17717:17722   */\n      dup2\n        /* \"#utility.yul\":17714:17749   */\n      eq\n        /* \"#utility.yul\":17704:17767   */\n      tag_553\n      jumpi\n        /* \"#utility.yul\":17763:17764   */\n      0x00\n        /* \"#utility.yul\":17760:17761   */\n      dup1\n        /* \"#utility.yul\":17753:17765   */\n      revert\n        /* \"#utility.yul\":17704:17767   */\n    tag_553:\n        /* \"#utility.yul\":17651:17773   */\n      pop\n      jump\t// out\n        /* \"#utility.yul\":17779:17922   */\n    tag_352:\n        /* \"#utility.yul\":17836:17841   */\n      0x00\n        /* \"#utility.yul\":17867:17873   */\n      dup2\n        /* \"#utility.yul\":17861:17874   */\n      mload\n        /* \"#utility.yul\":17852:17874   */\n      swap1\n      pop\n        /* \"#utility.yul\":17883:17916   */\n      tag_555\n        /* \"#utility.yul\":17910:17915   */\n      dup2\n        /* \"#utility.yul\":17883:17916   */\n      tag_351\n      jump\t// in\n    tag_555:\n        /* \"#utility.yul\":17779:17922   */\n      swap3\n      swap2\n      pop\n      pop\n      jump\t// out\n        /* \"#utility.yul\":17928:18279   */\n    tag_198:\n        /* \"#utility.yul\":17998:18004   */\n      0x00\n        /* \"#utility.yul\":18047:18049   */\n      0x20\n        /* \"#utility.yul\":18035:18044   */\n      dup3\n        /* \"#utility.yul\":18026:18033   */\n      dup5\n        /* \"#utility.yul\":18022:18045   */\n      sub\n        /* \"#utility.yul\":18018:18050   */\n      slt\n        /* \"#utility.yul\":18015:18134   */\n      iszero\n      tag_557\n      jumpi\n        /* \"#utility.yul\":18053:18132   */\n      tag_558\n      tag_309\n      jump\t// in\n    tag_558:\n        /* \"#utility.yul\":18015:18134   */\n    tag_557:\n        /* \"#utility.yul\":18173:18174   */\n      0x00\n        /* \"#utility.yul\":18198:18262   */\n      tag_559\n        /* \"#utility.yul\":18254:18261   */\n      dup5\n        /* \"#utility.yul\":18245:18251   */\n      dup3\n        /* \"#utility.yul\":18234:18243   */\n      dup6\n        /* \"#utility.yul\":18230:18252   */\n      add\n        /* \"#utility.yul\":18198:18262   */\n      tag_352\n      jump\t// in\n    tag_559:\n        /* \"#utility.yul\":18188:18262   */\n      swap2\n      pop\n        /* \"#utility.yul\":18144:18272   */\n      pop\n        /* \"#utility.yul\":17928:18279   */\n      swap3\n      swap2\n      pop\n      pop\n      jump\t// out\n        /* \"#utility.yul\":18285:18727   */\n    tag_230:\n        /* \"#utility.yul\":18434:18438   */\n      0x00\n        /* \"#utility.yul\":18472:18474   */\n      0x60\n        /* \"#utility.yul\":18461:18470   */\n      dup3\n        /* \"#utility.yul\":18457:18475   */\n      add\n        /* \"#utility.yul\":18449:18475   */\n      swap1\n      pop\n        /* \"#utility.yul\":18485:18556   */\n      tag_561\n        /* \"#utility.yul\":18553:18554   */\n      0x00\n        /* \"#utility.yul\":18542:18551   */\n      dup4\n        /* \"#utility.yul\":18538:18555   */\n      add\n        /* \"#utility.yul\":18529:18535   */\n      dup7\n        /* \"#utility.yul\":18485:18556   */\n      tag_305\n      jump\t// in\n    tag_561:\n        /* \"#utility.yul\":18566:18638   */\n      tag_562\n        /* \"#utility.yul\":18634:18636   */\n      0x20\n        /* \"#utility.yul\":18623:18632   */\n      dup4\n        /* \"#utility.yul\":18619:18637   */\n      add\n        /* \"#utility.yul\":18610:18616   */\n      dup6\n        /* \"#utility.yul\":18566:18638   */\n      tag_333\n      jump\t// in\n    tag_562:\n        /* \"#utility.yul\":18648:18720   */\n      tag_563\n        /* \"#utility.yul\":18716:18718   */\n      0x40\n        /* \"#utility.yul\":18705:18714   */\n      dup4\n        /* \"#utility.yul\":18701:18719   */\n      add\n        /* \"#utility.yul\":18692:18698   */\n      dup5\n        /* \"#utility.yul\":18648:18720   */\n      tag_320\n      jump\t// in\n    tag_563:\n        /* \"#utility.yul\":18285:18727   */\n      swap5\n      swap4\n      pop\n      pop\n      pop\n      pop\n      jump\t// out\n        /* \"#utility.yul\":18733:18849   */\n    tag_353:\n        /* \"#utility.yul\":18803:18824   */\n      tag_565\n        /* \"#utility.yul\":18818:18823   */\n      dup2\n        /* \"#utility.yul\":18803:18824   */\n      tag_306\n      jump\t// in\n    tag_565:\n        /* \"#utility.yul\":18796:18801   */\n      dup2\n        /* \"#utility.yul\":18793:18825   */\n      eq\n        /* \"#utility.yul\":18783:18843   */\n      tag_566\n      jumpi\n        /* \"#utility.yul\":18839:18840   */\n      0x00\n        /* \"#utility.yul\":18836:18837   */\n      dup1\n        /* \"#utility.yul\":18829:18841   */\n      revert\n        /* \"#utility.yul\":18783:18843   */\n    tag_566:\n        /* \"#utility.yul\":18733:18849   */\n      pop\n      jump\t// out\n        /* \"#utility.yul\":18855:18992   */\n    tag_354:\n        /* \"#utility.yul\":18909:18914   */\n      0x00\n        /* \"#utility.yul\":18940:18946   */\n      dup2\n        /* \"#utility.yul\":18934:18947   */\n      mload\n        /* \"#utility.yul\":18925:18947   */\n      swap1\n      pop\n        /* \"#utility.yul\":18956:18986   */\n      tag_568\n        /* \"#utility.yul\":18980:18985   */\n      dup2\n        /* \"#utility.yul\":18956:18986   */\n      tag_353\n      jump\t// in\n    tag_568:\n        /* \"#utility.yul\":18855:18992   */\n      swap3\n      swap2\n      pop\n      pop\n      jump\t// out\n        /* \"#utility.yul\":18998:19343   */\n    tag_234:\n        /* \"#utility.yul\":19065:19071   */\n      0x00\n        /* \"#utility.yul\":19114:19116   */\n      0x20\n        /* \"#utility.yul\":19102:19111   */\n      dup3\n        /* \"#utility.yul\":19093:19100   */\n      dup5\n        /* \"#utility.yul\":19089:19112   */\n      sub\n        /* \"#utility.yul\":19085:19117   */\n      slt\n        /* \"#utility.yul\":19082:19201   */\n      iszero\n      tag_570\n      jumpi\n        /* \"#utility.yul\":19120:19199   */\n      tag_571\n      tag_309\n      jump\t// in\n    tag_571:\n        /* \"#utility.yul\":19082:19201   */\n    tag_570:\n        /* \"#utility.yul\":19240:19241   */\n      0x00\n        /* \"#utility.yul\":19265:19326   */\n      tag_572\n        /* \"#utility.yul\":19318:19325   */\n      dup5\n        /* \"#utility.yul\":19309:19315   */\n      dup3\n        /* \"#utility.yul\":19298:19307   */\n      dup6\n        /* \"#utility.yul\":19294:19316   */\n      add\n        /* \"#utility.yul\":19265:19326   */\n      tag_354\n      jump\t// in\n    tag_572:\n        /* \"#utility.yul\":19255:19326   */\n      swap2\n      pop\n        /* \"#utility.yul\":19211:19336   */\n      pop\n        /* \"#utility.yul\":18998:19343   */\n      swap3\n      swap2\n      pop\n      pop\n      jump\t// out\n        /* \"#utility.yul\":19349:19575   */\n    tag_355:\n        /* \"#utility.yul\":19489:19523   */\n      0x4661696c656420746f2061646420696e7374697475746520746f207374756465\n        /* \"#utility.yul\":19485:19486   */\n      0x00\n        /* \"#utility.yul\":19477:19483   */\n      dup3\n        /* \"#utility.yul\":19473:19487   */\n      add\n        /* \"#utility.yul\":19466:19524   */\n      mstore\n        /* \"#utility.yul\":19558:19567   */\n      0x6e7420696e666f00000000000000000000000000000000000000000000000000\n        /* \"#utility.yul\":19553:19555   */\n      0x20\n        /* \"#utility.yul\":19545:19551   */\n      dup3\n        /* \"#utility.yul\":19541:19556   */\n      add\n        /* \"#utility.yul\":19534:19568   */\n      mstore\n        /* \"#utility.yul\":19349:19575   */\n      pop\n      jump\t// out\n        /* \"#utility.yul\":19581:19947   */\n    tag_356:\n        /* \"#utility.yul\":19723:19726   */\n      0x00\n        /* \"#utility.yul\":19744:19811   */\n      tag_575\n        /* \"#utility.yul\":19808:19810   */\n      0x27\n        /* \"#utility.yul\":19803:19806   */\n      dup4\n        /* \"#utility.yul\":19744:19811   */\n      tag_314\n      jump\t// in\n    tag_575:\n        /* \"#utility.yul\":19737:19811   */\n      swap2\n      pop\n        /* \"#utility.yul\":19820:19913   */\n      tag_576\n        /* \"#utility.yul\":19909:19912   */\n      dup3\n        /* \"#utility.yul\":19820:19913   */\n      tag_355\n      jump\t// in\n    tag_576:\n        /* \"#utility.yul\":19938:19940   */\n      0x40\n        /* \"#utility.yul\":19933:19936   */\n      dup3\n        /* \"#utility.yul\":19929:19941   */\n      add\n        /* \"#utility.yul\":19922:19941   */\n      swap1\n      pop\n        /* \"#utility.yul\":19581:19947   */\n      swap2\n      swap1\n      pop\n      jump\t// out\n        /* \"#utility.yul\":19953:20372   */\n    tag_237:\n        /* \"#utility.yul\":20119:20123   */\n      0x00\n        /* \"#utility.yul\":20157:20159   */\n      0x20\n        /* \"#utility.yul\":20146:20155   */\n      dup3\n        /* \"#utility.yul\":20142:20160   */\n      add\n        /* \"#utility.yul\":20134:20160   */\n      swap1\n      pop\n        /* \"#utility.yul\":20206:20215   */\n      dup2\n        /* \"#utility.yul\":20200:20204   */\n      dup2\n        /* \"#utility.yul\":20196:20216   */\n      sub\n        /* \"#utility.yul\":20192:20193   */\n      0x00\n        /* \"#utility.yul\":20181:20190   */\n      dup4\n        /* \"#utility.yul\":20177:20194   */\n      add\n        /* \"#utility.yul\":20170:20217   */\n      mstore\n        /* \"#utility.yul\":20234:20365   */\n      tag_578\n        /* \"#utility.yul\":20360:20364   */\n      dup2\n        /* \"#utility.yul\":20234:20365   */\n      tag_356\n      jump\t// in\n    tag_578:\n        /* \"#utility.yul\":20226:20365   */\n      swap1\n      pop\n        /* \"#utility.yul\":19953:20372   */\n      swap2\n      swap1\n      pop\n      jump\t// out\n        /* \"#utility.yul\":20378:20551   */\n    tag_357:\n        /* \"#utility.yul\":20518:20543   */\n      0x596f7520617265206e6f7420417574686f72697a656421000000000000000000\n        /* \"#utility.yul\":20514:20515   */\n      0x00\n        /* \"#utility.yul\":20506:20512   */\n      dup3\n        /* \"#utility.yul\":20502:20516   */\n      add\n        /* \"#utility.yul\":20495:20544   */\n      mstore\n        /* \"#utility.yul\":20378:20551   */\n      pop\n      jump\t// out\n        /* \"#utility.yul\":20557:20923   */\n    tag_358:\n        /* \"#utility.yul\":20699:20702   */\n      0x00\n        /* \"#utility.yul\":20720:20787   */\n      tag_581\n        /* \"#utility.yul\":20784:20786   */\n      0x17\n        /* \"#utility.yul\":20779:20782   */\n      dup4\n        /* \"#utility.yul\":20720:20787   */\n      tag_314\n      jump\t// in\n    tag_581:\n        /* \"#utility.yul\":20713:20787   */\n      swap2\n      pop\n        /* \"#utility.yul\":20796:20889   */\n      tag_582\n        /* \"#utility.yul\":20885:20888   */\n      dup3\n        /* \"#utility.yul\":20796:20889   */\n      tag_357\n      jump\t// in\n    tag_582:\n        /* \"#utility.yul\":20914:20916   */\n      0x20\n        /* \"#utility.yul\":20909:20912   */\n      dup3\n        /* \"#utility.yul\":20905:20917   */\n      add\n        /* \"#utility.yul\":20898:20917   */\n      swap1\n      pop\n        /* \"#utility.yul\":20557:20923   */\n      swap2\n      swap1\n      pop\n      jump\t// out\n        /* \"#utility.yul\":20929:21348   */\n    tag_252:\n        /* \"#utility.yul\":21095:21099   */\n      0x00\n        /* \"#utility.yul\":21133:21135   */\n      0x20\n        /* \"#utility.yul\":21122:21131   */\n      dup3\n        /* \"#utility.yul\":21118:21136   */\n      add\n        /* \"#utility.yul\":21110:21136   */\n      swap1\n      pop\n        /* \"#utility.yul\":21182:21191   */\n      dup2\n        /* \"#utility.yul\":21176:21180   */\n      dup2\n        /* \"#utility.yul\":21172:21192   */\n      sub\n        /* \"#utility.yul\":21168:21169   */\n      0x00\n        /* \"#utility.yul\":21157:21166   */\n      dup4\n        /* \"#utility.yul\":21153:21170   */\n      add\n        /* \"#utility.yul\":21146:21193   */\n      mstore\n        /* \"#utility.yul\":21210:21341   */\n      tag_584\n        /* \"#utility.yul\":21336:21340   */\n      dup2\n        /* \"#utility.yul\":21210:21341   */\n      tag_358\n      jump\t// in\n    tag_584:\n        /* \"#utility.yul\":21202:21341   */\n      swap1\n      pop\n        /* \"#utility.yul\":20929:21348   */\n      swap2\n      swap1\n      pop\n      jump\t// out\n        /* \"#utility.yul\":21354:21775   */\n    tag_359:\n        /* \"#utility.yul\":21443:21448   */\n      0x00\n        /* \"#utility.yul\":21468:21534   */\n      tag_586\n        /* \"#utility.yul\":21484:21533   */\n      tag_587\n        /* \"#utility.yul\":21526:21532   */\n      dup5\n        /* \"#utility.yul\":21484:21533   */\n      tag_326\n      jump\t// in\n    tag_587:\n        /* \"#utility.yul\":21468:21534   */\n      tag_325\n      jump\t// in\n    tag_586:\n        /* \"#utility.yul\":21459:21534   */\n      swap1\n      pop\n        /* \"#utility.yul\":21557:21563   */\n      dup3\n        /* \"#utility.yul\":21550:21555   */\n      dup2\n        /* \"#utility.yul\":21543:21564   */\n      mstore\n        /* \"#utility.yul\":21595:21599   */\n      0x20\n        /* \"#utility.yul\":21588:21593   */\n      dup2\n        /* \"#utility.yul\":21584:21600   */\n      add\n        /* \"#utility.yul\":21633:21636   */\n      dup5\n        /* \"#utility.yul\":21624:21630   */\n      dup5\n        /* \"#utility.yul\":21619:21622   */\n      dup5\n        /* \"#utility.yul\":21615:21631   */\n      add\n        /* \"#utility.yul\":21612:21637   */\n      gt\n        /* \"#utility.yul\":21609:21721   */\n      iszero\n      tag_588\n      jumpi\n        /* \"#utility.yul\":21640:21719   */\n      tag_589\n      tag_322\n      jump\t// in\n    tag_589:\n        /* \"#utility.yul\":21609:21721   */\n    tag_588:\n        /* \"#utility.yul\":21730:21769   */\n      tag_590\n        /* \"#utility.yul\":21762:21768   */\n      dup5\n        /* \"#utility.yul\":21757:21760   */\n      dup3\n        /* \"#utility.yul\":21752:21755   */\n      dup6\n        /* \"#utility.yul\":21730:21769   */\n      tag_315\n      jump\t// in\n    tag_590:\n        /* \"#utility.yul\":21449:21775   */\n      pop\n        /* \"#utility.yul\":21354:21775   */\n      swap4\n      swap3\n      pop\n      pop\n      pop\n      jump\t// out\n        /* \"#utility.yul\":21795:22150   */\n    tag_360:\n        /* \"#utility.yul\":21862:21867   */\n      0x00\n        /* \"#utility.yul\":21911:21914   */\n      dup3\n        /* \"#utility.yul\":21904:21908   */\n      0x1f\n        /* \"#utility.yul\":21896:21902   */\n      dup4\n        /* \"#utility.yul\":21892:21909   */\n      add\n        /* \"#utility.yul\":21888:21915   */\n      slt\n        /* \"#utility.yul\":21878:22000   */\n      tag_592\n      jumpi\n        /* \"#utility.yul\":21919:21998   */\n      tag_593\n      tag_321\n      jump\t// in\n    tag_593:\n        /* \"#utility.yul\":21878:22000   */\n    tag_592:\n        /* \"#utility.yul\":22029:22035   */\n      dup2\n        /* \"#utility.yul\":22023:22036   */\n      mload\n        /* \"#utility.yul\":22054:22144   */\n      tag_594\n        /* \"#utility.yul\":22140:22143   */\n      dup5\n        /* \"#utility.yul\":22132:22138   */\n      dup3\n        /* \"#utility.yul\":22125:22129   */\n      0x20\n        /* \"#utility.yul\":22117:22123   */\n      dup7\n        /* \"#utility.yul\":22113:22130   */\n      add\n        /* \"#utility.yul\":22054:22144   */\n      tag_359\n      jump\t// in\n    tag_594:\n        /* \"#utility.yul\":22045:22144   */\n      swap2\n      pop\n        /* \"#utility.yul\":21868:22150   */\n      pop\n        /* \"#utility.yul\":21795:22150   */\n      swap3\n      swap2\n      pop\n      pop\n      jump\t// out\n        /* \"#utility.yul\":22156:23652   */\n    tag_280:\n        /* \"#utility.yul\":22292:22298   */\n      0x00\n        /* \"#utility.yul\":22300:22306   */\n      dup1\n        /* \"#utility.yul\":22308:22314   */\n      0x00\n        /* \"#utility.yul\":22316:22322   */\n      dup1\n        /* \"#utility.yul\":22324:22330   */\n      0x00\n        /* \"#utility.yul\":22373:22376   */\n      0xa0\n        /* \"#utility.yul\":22361:22370   */\n      dup7\n        /* \"#utility.yul\":22352:22359   */\n      dup9\n        /* \"#utility.yul\":22348:22371   */\n      sub\n        /* \"#utility.yul\":22344:22377   */\n      slt\n        /* \"#utility.yul\":22341:22461   */\n      iszero\n      tag_596\n      jumpi\n        /* \"#utility.yul\":22380:22459   */\n      tag_597\n      tag_309\n      jump\t// in\n    tag_597:\n        /* \"#utility.yul\":22341:22461   */\n    tag_596:\n        /* \"#utility.yul\":22521:22522   */\n      0x00\n        /* \"#utility.yul\":22510:22519   */\n      dup7\n        /* \"#utility.yul\":22506:22523   */\n      add\n        /* \"#utility.yul\":22500:22524   */\n      mload\n        /* \"#utility.yul\":22551:22569   */\n      0xffffffffffffffff\n        /* \"#utility.yul\":22543:22549   */\n      dup2\n        /* \"#utility.yul\":22540:22570   */\n      gt\n        /* \"#utility.yul\":22537:22654   */\n      iszero\n      tag_598\n      jumpi\n        /* \"#utility.yul\":22573:22652   */\n      tag_599\n      tag_310\n      jump\t// in\n    tag_599:\n        /* \"#utility.yul\":22537:22654   */\n    tag_598:\n        /* \"#utility.yul\":22678:22752   */\n      tag_600\n        /* \"#utility.yul\":22744:22751   */\n      dup9\n        /* \"#utility.yul\":22735:22741   */\n      dup3\n        /* \"#utility.yul\":22724:22733   */\n      dup10\n        /* \"#utility.yul\":22720:22742   */\n      add\n        /* \"#utility.yul\":22678:22752   */\n      tag_360\n      jump\t// in\n    tag_600:\n        /* \"#utility.yul\":22668:22752   */\n      swap6\n      pop\n        /* \"#utility.yul\":22471:22762   */\n      pop\n        /* \"#utility.yul\":22801:22803   */\n      0x20\n        /* \"#utility.yul\":22827:22891   */\n      tag_601\n        /* \"#utility.yul\":22883:22890   */\n      dup9\n        /* \"#utility.yul\":22874:22880   */\n      dup3\n        /* \"#utility.yul\":22863:22872   */\n      dup10\n        /* \"#utility.yul\":22859:22881   */\n      add\n        /* \"#utility.yul\":22827:22891   */\n      tag_341\n      jump\t// in\n    tag_601:\n        /* \"#utility.yul\":22817:22891   */\n      swap5\n      pop\n        /* \"#utility.yul\":22772:22901   */\n      pop\n        /* \"#utility.yul\":22961:22963   */\n      0x40\n        /* \"#utility.yul\":22950:22959   */\n      dup7\n        /* \"#utility.yul\":22946:22964   */\n      add\n        /* \"#utility.yul\":22940:22965   */\n      mload\n        /* \"#utility.yul\":22992:23010   */\n      0xffffffffffffffff\n        /* \"#utility.yul\":22984:22990   */\n      dup2\n        /* \"#utility.yul\":22981:23011   */\n      gt\n        /* \"#utility.yul\":22978:23095   */\n      iszero\n      tag_602\n      jumpi\n        /* \"#utility.yul\":23014:23093   */\n      tag_603\n      tag_310\n      jump\t// in\n    tag_603:\n        /* \"#utility.yul\":22978:23095   */\n    tag_602:\n        /* \"#utility.yul\":23119:23193   */\n      tag_604\n        /* \"#utility.yul\":23185:23192   */\n      dup9\n        /* \"#utility.yul\":23176:23182   */\n      dup3\n        /* \"#utility.yul\":23165:23174   */\n      dup10\n        /* \"#utility.yul\":23161:23183   */\n      add\n        /* \"#utility.yul\":23119:23193   */\n      tag_360\n      jump\t// in\n    tag_604:\n        /* \"#utility.yul\":23109:23193   */\n      swap4\n      pop\n        /* \"#utility.yul\":22911:23203   */\n      pop\n        /* \"#utility.yul\":23263:23265   */\n      0x60\n        /* \"#utility.yul\":23252:23261   */\n      dup7\n        /* \"#utility.yul\":23248:23266   */\n      add\n        /* \"#utility.yul\":23242:23267   */\n      mload\n        /* \"#utility.yul\":23294:23312   */\n      0xffffffffffffffff\n        /* \"#utility.yul\":23286:23292   */\n      dup2\n        /* \"#utility.yul\":23283:23313   */\n      gt\n        /* \"#utility.yul\":23280:23397   */\n      iszero\n      tag_605\n      jumpi\n        /* \"#utility.yul\":23316:23395   */\n      tag_606\n      tag_310\n      jump\t// in\n    tag_606:\n        /* \"#utility.yul\":23280:23397   */\n    tag_605:\n        /* \"#utility.yul\":23421:23495   */\n      tag_607\n        /* \"#utility.yul\":23487:23494   */\n      dup9\n        /* \"#utility.yul\":23478:23484   */\n      dup3\n        /* \"#utility.yul\":23467:23476   */\n      dup10\n        /* \"#utility.yul\":23463:23485   */\n      add\n        /* \"#utility.yul\":23421:23495   */\n      tag_360\n      jump\t// in\n    tag_607:\n        /* \"#utility.yul\":23411:23495   */\n      swap3\n      pop\n        /* \"#utility.yul\":23213:23505   */\n      pop\n        /* \"#utility.yul\":23544:23547   */\n      0x80\n        /* \"#utility.yul\":23571:23635   */\n      tag_608\n        /* \"#utility.yul\":23627:23634   */\n      dup9\n        /* \"#utility.yul\":23618:23624   */\n      dup3\n        /* \"#utility.yul\":23607:23616   */\n      dup10\n        /* \"#utility.yul\":23603:23625   */\n      add\n        /* \"#utility.yul\":23571:23635   */\n      tag_341\n      jump\t// in\n    tag_608:\n        /* \"#utility.yul\":23561:23635   */\n      swap2\n      pop\n        /* \"#utility.yul\":23515:23645   */\n      pop\n        /* \"#utility.yul\":22156:23652   */\n      swap3\n      swap6\n      pop\n      swap3\n      swap6\n      swap1\n      swap4\n      pop\n      jump\t// out\n        /* \"#utility.yul\":23658:23990   */\n    tag_283:\n        /* \"#utility.yul\":23779:23783   */\n      0x00\n        /* \"#utility.yul\":23817:23819   */\n      0x40\n        /* \"#utility.yul\":23806:23815   */\n      dup3\n        /* \"#utility.yul\":23802:23820   */\n      add\n        /* \"#utility.yul\":23794:23820   */\n      swap1\n      pop\n        /* \"#utility.yul\":23830:23901   */\n      tag_610\n        /* \"#utility.yul\":23898:23899   */\n      0x00\n        /* \"#utility.yul\":23887:23896   */\n      dup4\n        /* \"#utility.yul\":23883:23900   */\n      add\n        /* \"#utility.yul\":23874:23880   */\n      dup6\n        /* \"#utility.yul\":23830:23901   */\n      tag_305\n      jump\t// in\n    tag_610:\n        /* \"#utility.yul\":23911:23983   */\n      tag_611\n        /* \"#utility.yul\":23979:23981   */\n      0x20\n        /* \"#utility.yul\":23968:23977   */\n      dup4\n        /* \"#utility.yul\":23964:23982   */\n      add\n        /* \"#utility.yul\":23955:23961   */\n      dup5\n        /* \"#utility.yul\":23911:23983   */\n      tag_333\n      jump\t// in\n    tag_611:\n        /* \"#utility.yul\":23658:23990   */\n      swap4\n      swap3\n      pop\n      pop\n      pop\n      jump\t// out\n        /* \"#utility.yul\":23996:24227   */\n    tag_361:\n        /* \"#utility.yul\":24136:24170   */\n      0x4661696c656420746f2072656d6f766520696e737469747574652066726f6d20\n        /* \"#utility.yul\":24132:24133   */\n      0x00\n        /* \"#utility.yul\":24124:24130   */\n      dup3\n        /* \"#utility.yul\":24120:24134   */\n      add\n        /* \"#utility.yul\":24113:24171   */\n      mstore\n        /* \"#utility.yul\":24205:24219   */\n      0x73747564656e7420696e666f0000000000000000000000000000000000000000\n        /* \"#utility.yul\":24200:24202   */\n      0x20\n        /* \"#utility.yul\":24192:24198   */\n      dup3\n        /* \"#utility.yul\":24188:24203   */\n      add\n        /* \"#utility.yul\":24181:24220   */\n      mstore\n        /* \"#utility.yul\":23996:24227   */\n      pop\n      jump\t// out\n        /* \"#utility.yul\":24233:24599   */\n    tag_362:\n        /* \"#utility.yul\":24375:24378   */\n      0x00\n        /* \"#utility.yul\":24396:24463   */\n      tag_614\n        /* \"#utility.yul\":24460:24462   */\n      0x2c\n        /* \"#utility.yul\":24455:24458   */\n      dup4\n        /* \"#utility.yul\":24396:24463   */\n      tag_314\n      jump\t// in\n    tag_614:\n        /* \"#utility.yul\":24389:24463   */\n      swap2\n      pop\n        /* \"#utility.yul\":24472:24565   */\n      tag_615\n        /* \"#utility.yul\":24561:24564   */\n      dup3\n        /* \"#utility.yul\":24472:24565   */\n      tag_361\n      jump\t// in\n    tag_615:\n        /* \"#utility.yul\":24590:24592   */\n      0x40\n        /* \"#utility.yul\":24585:24588   */\n      dup3\n        /* \"#utility.yul\":24581:24593   */\n      add\n        /* \"#utility.yul\":24574:24593   */\n      swap1\n      pop\n        /* \"#utility.yul\":24233:24599   */\n      swap2\n      swap1\n      pop\n      jump\t// out\n        /* \"#utility.yul\":24605:25024   */\n    tag_289:\n        /* \"#utility.yul\":24771:24775   */\n      0x00\n        /* \"#utility.yul\":24809:24811   */\n      0x20\n        /* \"#utility.yul\":24798:24807   */\n      dup3\n        /* \"#utility.yul\":24794:24812   */\n      add\n        /* \"#utility.yul\":24786:24812   */\n      swap1\n      pop\n        /* \"#utility.yul\":24858:24867   */\n      dup2\n        /* \"#utility.yul\":24852:24856   */\n      dup2\n        /* \"#utility.yul\":24848:24868   */\n      sub\n        /* \"#utility.yul\":24844:24845   */\n      0x00\n        /* \"#utility.yul\":24833:24842   */\n      dup4\n        /* \"#utility.yul\":24829:24846   */\n      add\n        /* \"#utility.yul\":24822:24869   */\n      mstore\n        /* \"#utility.yul\":24886:25017   */\n      tag_617\n        /* \"#utility.yul\":25012:25016   */\n      dup2\n        /* \"#utility.yul\":24886:25017   */\n      tag_362\n      jump\t// in\n    tag_617:\n        /* \"#utility.yul\":24878:25017   */\n      swap1\n      pop\n        /* \"#utility.yul\":24605:25024   */\n      swap2\n      swap1\n      pop\n      jump\t// out\n\n    auxdata: 0xa2646970667358221220bcf0dc281a8d891beac7a1ae0ee58847b562eff805d6bc0ddd2de347897fefe864736f6c634300080a0033\n}\n",
    "bytecode": {
      "linkReferences": {},
      "object": "608060405260006004553480156200001657600080fd5b5060405162002e0138038062002e0183398181016040528101906200003c9190620001b1565b336000806101000a81548173ffffffffffffffffffffffffffffffffffffffff021916908373ffffffffffffffffffffffffffffffffffffffff16021790555081600360006101000a81548173ffffffffffffffffffffffffffffffffffffffff021916908373ffffffffffffffffffffffffffffffffffffffff16021790555081600160006101000a81548173ffffffffffffffffffffffffffffffffffffffff021916908373ffffffffffffffffffffffffffffffffffffffff16021790555080600260006101000a81548173ffffffffffffffffffffffffffffffffffffffff021916908373ffffffffffffffffffffffffffffffffffffffff1602179055505050620001f8565b600080fd5b600073ffffffffffffffffffffffffffffffffffffffff82169050919050565b600062000179826200014c565b9050919050565b6200018b816200016c565b81146200019757600080fd5b50565b600081519050620001ab8162000180565b92915050565b60008060408385031215620001cb57620001ca62000147565b5b6000620001db858286016200019a565b9250506020620001ee858286016200019a565b9150509250929050565b612bf980620002086000396000f3fe608060405234801561001057600080fd5b50600436106101375760003560e01c8063a4156aec116100b8578063bd6a85041161007c578063bd6a850414610360578063c865d88114610394578063ca90543d146103b2578063da085b7a146103e2578063f00c848d146103fe578063f20bcf9a1461041a57610137565b8063a4156aec146102b6578063b16f9023146102ea578063b1be843d14610306578063b7774c1a14610324578063bae0a5851461034257610137565b806378cfe85e116100ff57806378cfe85e146101fe57806382f7d3921461021a5780638a97503d1461024a578063911018ef1461027a578063a2a1fee51461029857610137565b806320b260e31461013c5780632ecca5fe1461015a578063548d434e146101785780635b969a04146101ac578063673a1746146101e0575b600080fd5b610144610436565b6040516101519190611eba565b60405180910390f35b610162610443565b60405161016f9190611ef0565b60405180910390f35b610192600480360381019061018d9190611f4b565b610515565b6040516101a3959493929190612052565b60405180910390f35b6101c660048036038101906101c19190611f4b565b610733565b6040516101d7959493929190612052565b60405180910390f35b6101e8610a43565b6040516101f591906120ba565b60405180910390f35b61021860048036038101906102139190612236565b610a67565b005b610234600480360381019061022f9190612305565b610c15565b6040516102419190611ef0565b60405180910390f35b610264600480360381019061025f9190612332565b610cad565b60405161027191906123a7565b60405180910390f35b610282610ce0565b60405161028f9190611eba565b60405180910390f35b6102a0610ce6565b6040516102ad9190611eba565b60405180910390f35b6102d060048036038101906102cb9190611f4b565b610cf3565b6040516102e1959493929190612052565b60405180910390f35b61030460048036038101906102ff91906123c2565b611003565b005b61030e611255565b60405161031b9190611eba565b60405180910390f35b61032c611262565b60405161033991906120ba565b60405180910390f35b61034a611288565b6040516103579190612502565b60405180910390f35b61037a60048036038101906103759190611f4b565b6112ae565b60405161038b959493929190612052565b60405180910390f35b61039c6114cc565b6040516103a9919061253e565b60405180910390f35b6103cc60048036038101906103c79190612305565b6114f2565b6040516103d991906120ba565b60405180910390f35b6103fc60048036038101906103f79190611f4b565b61155b565b005b61041860048036038101906104139190611f4b565b6117a5565b005b610434600480360381019061042f9190612559565b611afa565b005b6000600880549050905090565b60008073ffffffffffffffffffffffffffffffffffffffff16600260009054906101000a900473ffffffffffffffffffffffffffffffffffffffff1673ffffffffffffffffffffffffffffffffffffffff1663839f602d336040518263ffffffff1660e01b81526004016104b791906120ba565b602060405180830381865afa1580156104d4573d6000803e3d6000fd5b505050506040513d601f19601f820116820180604052508101906104f891906125dd565b73ffffffffffffffffffffffffffffffffffffffff161415905090565b6006818154811061052557600080fd5b906000526020600020906005020160009150905080600001805461054890612639565b80601f016020809104026020016040519081016040528092919081815260200182805461057490612639565b80156105c15780601f10610596576101008083540402835291602001916105c1565b820191906000526020600020905b8154815290600101906020018083116105a457829003601f168201915b5050505050908060010160009054906101000a900473ffffffffffffffffffffffffffffffffffffffff16908060020180546105fc90612639565b80601f016020809104026020016040519081016040528092919081815260200182805461062890612639565b80156106755780601f1061064a57610100808354040283529160200191610675565b820191906000526020600020905b81548152906001019060200180831161065857829003601f168201915b50505050509080600301805461068a90612639565b80601f01602080910402602001604051908101604052809291908181526020018280546106b690612639565b80156107035780601f106106d857610100808354040283529160200191610703565b820191906000526020600020905b8154815290600101906020018083116106e657829003601f168201915b5050505050908060040160009054906101000a900473ffffffffffffffffffffffffffffffffffffffff16905085565b6060600060608060006005805490508610610783576040517f08c379a000000000000000000000000000000000000000000000000000000000815260040161077a906126b7565b60405180910390fd5b600060058781548110610799576107986126d7565b5b90600052602060002090600502016040518060a00160405290816000820180546107c290612639565b80601f01602080910402602001604051908101604052809291908181526020018280546107ee90612639565b801561083b5780601f106108105761010080835404028352916020019161083b565b820191906000526020600020905b81548152906001019060200180831161081e57829003601f168201915b505050505081526020016001820160009054906101000a900473ffffffffffffffffffffffffffffffffffffffff1673ffffffffffffffffffffffffffffffffffffffff1673ffffffffffffffffffffffffffffffffffffffff1681526020016002820180546108aa90612639565b80601f01602080910402602001604051908101604052809291908181526020018280546108d690612639565b80156109235780601f106108f857610100808354040283529160200191610923565b820191906000526020600020905b81548152906001019060200180831161090657829003601f168201915b5050505050815260200160038201805461093c90612639565b80601f016020809104026020016040519081016040528092919081815260200182805461096890612639565b80156109b55780601f1061098a576101008083540402835291602001916109b5565b820191906000526020600020905b81548152906001019060200180831161099857829003601f168201915b505050505081526020016004820160009054906101000a900473ffffffffffffffffffffffffffffffffffffffff1673ffffffffffffffffffffffffffffffffffffffff1673ffffffffffffffffffffffffffffffffffffffff1681525050905080600001518160200151826040015183606001518460800151955095509550955095505091939590929450565b60008054906101000a900473ffffffffffffffffffffffffffffffffffffffff1681565b610a6f611d63565b85816000018190525084816020019073ffffffffffffffffffffffffffffffffffffffff16908173ffffffffffffffffffffffffffffffffffffffff168152505083816040018190525082816060018190525081816080019073ffffffffffffffffffffffffffffffffffffffff16908173ffffffffffffffffffffffffffffffffffffffff168152505060058190806001815401808255809150506001900390600052602060002090600502016000909190919091506000820151816000019080519060200190610b42929190611dbe565b5060208201518160010160006101000a81548173ffffffffffffffffffffffffffffffffffffffff021916908373ffffffffffffffffffffffffffffffffffffffff1602179055506040820151816002019080519060200190610ba6929190611dbe565b506060820151816003019080519060200190610bc3929190611dbe565b5060808201518160040160006101000a81548173ffffffffffffffffffffffffffffffffffffffff021916908373ffffffffffffffffffffffffffffffffffffffff1602179055505050505050505050565b60008073ffffffffffffffffffffffffffffffffffffffff16600760008473ffffffffffffffffffffffffffffffffffffffff1673ffffffffffffffffffffffffffffffffffffffff16815260200190815260200160002060009054906101000a900473ffffffffffffffffffffffffffffffffffffffff1673ffffffffffffffffffffffffffffffffffffffff1614159050919050565b60008282604051602001610cc292919061278a565b60405160208183030381529060405280519060200120905092915050565b60045481565b6000600680549050905090565b6060600060608060006005805490508610610d43576040517f08c379a0000000000000000000000000000000000000000000000000000000008152600401610d3a906126b7565b60405180910390fd5b600060068781548110610d5957610d586126d7565b5b90600052602060002090600502016040518060a0016040529081600082018054610d8290612639565b80601f0160208091040260200160405190810160405280929190818152602001828054610dae90612639565b8015610dfb5780601f10610dd057610100808354040283529160200191610dfb565b820191906000526020600020905b815481529060010190602001808311610dde57829003601f168201915b505050505081526020016001820160009054906101000a900473ffffffffffffffffffffffffffffffffffffffff1673ffffffffffffffffffffffffffffffffffffffff1673ffffffffffffffffffffffffffffffffffffffff168152602001600282018054610e6a90612639565b80601f0160208091040260200160405190810160405280929190818152602001828054610e9690612639565b8015610ee35780601f10610eb857610100808354040283529160200191610ee3565b820191906000526020600020905b815481529060010190602001808311610ec657829003601f168201915b50505050508152602001600382018054610efc90612639565b80601f0160208091040260200160405190810160405280929190818152602001828054610f2890612639565b8015610f755780601f10610f4a57610100808354040283529160200191610f75565b820191906000526020600020905b815481529060010190602001808311610f5857829003601f168201915b505050505081526020016004820160009054906101000a900473ffffffffffffffffffffffffffffffffffffffff1673ffffffffffffffffffffffffffffffffffffffff1673ffffffffffffffffffffffffffffffffffffffff1681525050905080600001518160200151826040015183606001518460800151955095509550955095505091939590929450565b6000600160009054906101000a900473ffffffffffffffffffffffffffffffffffffffff1673ffffffffffffffffffffffffffffffffffffffff16638a97503d87866040518363ffffffff1660e01b81526004016110629291906127b2565b602060405180830381865afa15801561107f573d6000803e3d6000fd5b505050506040513d601f19601f820116820180604052508101906110a3919061280e565b90506110ad611d63565b87816000018190525086816020019073ffffffffffffffffffffffffffffffffffffffff16908173ffffffffffffffffffffffffffffffffffffffff168152505085816040018190525084816060018190525082816080019073ffffffffffffffffffffffffffffffffffffffff16908173ffffffffffffffffffffffffffffffffffffffff168152505060068190806001815401808255809150506001900390600052602060002090600502016000909190919091506000820151816000019080519060200190611180929190611dbe565b5060208201518160010160006101000a81548173ffffffffffffffffffffffffffffffffffffffff021916908373ffffffffffffffffffffffffffffffffffffffff16021790555060408201518160020190805190602001906111e4929190611dbe565b506060820151816003019080519060200190611201929190611dbe565b5060808201518160040160006101000a81548173ffffffffffffffffffffffffffffffffffffffff021916908373ffffffffffffffffffffffffffffffffffffffff16021790555050505050505050505050565b6000600580549050905090565b600360009054906101000a900473ffffffffffffffffffffffffffffffffffffffff1681565b600260009054906101000a900473ffffffffffffffffffffffffffffffffffffffff1681565b600581815481106112be57600080fd5b90600052602060002090600502016000915090508060000180546112e190612639565b80601f016020809104026020016040519081016040528092919081815260200182805461130d90612639565b801561135a5780601f1061132f5761010080835404028352916020019161135a565b820191906000526020600020905b81548152906001019060200180831161133d57829003601f168201915b5050505050908060010160009054906101000a900473ffffffffffffffffffffffffffffffffffffffff169080600201805461139590612639565b80601f01602080910402602001604051908101604052809291908181526020018280546113c190612639565b801561140e5780601f106113e35761010080835404028352916020019161140e565b820191906000526020600020905b8154815290600101906020018083116113f157829003601f168201915b50505050509080600301805461142390612639565b80601f016020809104026020016040519081016040528092919081815260200182805461144f90612639565b801561149c5780601f106114715761010080835404028352916020019161149c565b820191906000526020600020905b81548152906001019060200180831161147f57829003601f168201915b5050505050908060040160009054906101000a900473ffffffffffffffffffffffffffffffffffffffff16905085565b600160009054906101000a900473ffffffffffffffffffffffffffffffffffffffff1681565b6000600760008373ffffffffffffffffffffffffffffffffffffffff1673ffffffffffffffffffffffffffffffffffffffff16815260200190815260200160002060009054906101000a900473ffffffffffffffffffffffffffffffffffffffff169050919050565b600080600080600061156c86610cf3565b945094509450945094506000600160009054906101000a900473ffffffffffffffffffffffffffffffffffffffff1673ffffffffffffffffffffffffffffffffffffffff16638a97503d86856040518363ffffffff1660e01b81526004016115d59291906127b2565b602060405180830381865afa1580156115f2573d6000803e3d6000fd5b505050506040513d601f19601f82011682018060405250810190611616919061280e565b9050600160009054906101000a900473ffffffffffffffffffffffffffffffffffffffff1673ffffffffffffffffffffffffffffffffffffffff16634268ddbd8883336040518463ffffffff1660e01b81526004016116779392919061283b565b6020604051808303816000875af1158015611696573d6000803e3d6000fd5b505050506040513d601f19601f820116820180604052508101906116ba919061289e565b6116f9576040517f08c379a00000000000000000000000000000000000000000000000000000000081526004016116f09061293d565b60405180910390fd5b6006878154811061170d5761170c6126d7565b5b90600052602060002090600502016000808201600061172c9190611e44565b6001820160006101000a81549073ffffffffffffffffffffffffffffffffffffffff02191690556002820160006117639190611e44565b6003820160006117739190611e44565b6004820160006101000a81549073ffffffffffffffffffffffffffffffffffffffff0219169055505050505050505050565b600073ffffffffffffffffffffffffffffffffffffffff16600260009054906101000a900473ffffffffffffffffffffffffffffffffffffffff1673ffffffffffffffffffffffffffffffffffffffff1663839f602d336040518263ffffffff1660e01b815260040161181891906120ba565b602060405180830381865afa158015611835573d6000803e3d6000fd5b505050506040513d601f19601f8201168201806040525081019061185991906125dd565b73ffffffffffffffffffffffffffffffffffffffff1614156118b0576040517f08c379a00000000000000000000000000000000000000000000000000000000081526004016118a7906129a9565b60405180910390fd5b60008060008060006118c186610733565b945094509450945094506000600160009054906101000a900473ffffffffffffffffffffffffffffffffffffffff1673ffffffffffffffffffffffffffffffffffffffff16638a97503d86856040518363ffffffff1660e01b815260040161192a9291906127b2565b602060405180830381865afa158015611947573d6000803e3d6000fd5b505050506040513d601f19601f8201168201806040525081019061196b919061280e565b9050600160009054906101000a900473ffffffffffffffffffffffffffffffffffffffff1673ffffffffffffffffffffffffffffffffffffffff16634268ddbd8883336040518463ffffffff1660e01b81526004016119cc9392919061283b565b6020604051808303816000875af11580156119eb573d6000803e3d6000fd5b505050506040513d601f19601f82011682018060405250810190611a0f919061289e565b611a4e576040517f08c379a0000000000000000000000000000000000000000000000000000000008152600401611a459061293d565b60405180910390fd5b60058781548110611a6257611a616126d7565b5b906000526020600020906005020160008082016000611a819190611e44565b6001820160006101000a81549073ffffffffffffffffffffffffffffffffffffffff0219169055600282016000611ab89190611e44565b600382016000611ac89190611e44565b6004820160006101000a81549073ffffffffffffffffffffffffffffffffffffffff0219169055505050505050505050565b6000600160009054906101000a900473ffffffffffffffffffffffffffffffffffffffff1673ffffffffffffffffffffffffffffffffffffffff16638a97503d84846040518363ffffffff1660e01b8152600401611b599291906127b2565b602060405180830381865afa158015611b76573d6000803e3d6000fd5b505050506040513d601f19601f82011682018060405250810190611b9a919061280e565b90506000600160009054906101000a900473ffffffffffffffffffffffffffffffffffffffff1673ffffffffffffffffffffffffffffffffffffffff1663435df20d836040518263ffffffff1660e01b8152600401611bf991906123a7565b600060405180830381865afa158015611c16573d6000803e3d6000fd5b505050506040513d6000823e3d601f19601f82011682018060405250810190611c3f9190612a39565b9450505050508073ffffffffffffffffffffffffffffffffffffffff163373ffffffffffffffffffffffffffffffffffffffff1614611c7d57600080fd5b600160009054906101000a900473ffffffffffffffffffffffffffffffffffffffff1673ffffffffffffffffffffffffffffffffffffffff1663956a354586846040518363ffffffff1660e01b8152600401611cda929190612b08565b6020604051808303816000875af1158015611cf9573d6000803e3d6000fd5b505050506040513d601f19601f82011682018060405250810190611d1d919061289e565b611d5c576040517f08c379a0000000000000000000000000000000000000000000000000000000008152600401611d5390612ba3565b60405180910390fd5b5050505050565b6040518060a0016040528060608152602001600073ffffffffffffffffffffffffffffffffffffffff1681526020016060815260200160608152602001600073ffffffffffffffffffffffffffffffffffffffff1681525090565b828054611dca90612639565b90600052602060002090601f016020900481019282611dec5760008555611e33565b82601f10611e0557805160ff1916838001178555611e33565b82800160010185558215611e33579182015b82811115611e32578251825591602001919060010190611e17565b5b509050611e409190611e84565b5090565b508054611e5090612639565b6000825580601f10611e625750611e81565b601f016020900490600052602060002090810190611e809190611e84565b5b50565b5b80821115611e9d576000816000905550600101611e85565b5090565b6000819050919050565b611eb481611ea1565b82525050565b6000602082019050611ecf6000830184611eab565b92915050565b60008115159050919050565b611eea81611ed5565b82525050565b6000602082019050611f056000830184611ee1565b92915050565b6000604051905090565b600080fd5b600080fd5b611f2881611ea1565b8114611f3357600080fd5b50565b600081359050611f4581611f1f565b92915050565b600060208284031215611f6157611f60611f15565b5b6000611f6f84828501611f36565b91505092915050565b600081519050919050565b600082825260208201905092915050565b60005b83811015611fb2578082015181840152602081019050611f97565b83811115611fc1576000848401525b50505050565b6000601f19601f8301169050919050565b6000611fe382611f78565b611fed8185611f83565b9350611ffd818560208601611f94565b61200681611fc7565b840191505092915050565b600073ffffffffffffffffffffffffffffffffffffffff82169050919050565b600061203c82612011565b9050919050565b61204c81612031565b82525050565b600060a082019050818103600083015261206c8188611fd8565b905061207b6020830187612043565b818103604083015261208d8186611fd8565b905081810360608301526120a18185611fd8565b90506120b06080830184612043565b9695505050505050565b60006020820190506120cf6000830184612043565b92915050565b600080fd5b600080fd5b7f4e487b7100000000000000000000000000000000000000000000000000000000600052604160045260246000fd5b61211782611fc7565b810181811067ffffffffffffffff82111715612136576121356120df565b5b80604052505050565b6000612149611f0b565b9050612155828261210e565b919050565b600067ffffffffffffffff821115612175576121746120df565b5b61217e82611fc7565b9050602081019050919050565b82818337600083830152505050565b60006121ad6121a88461215a565b61213f565b9050828152602081018484840111156121c9576121c86120da565b5b6121d484828561218b565b509392505050565b600082601f8301126121f1576121f06120d5565b5b813561220184826020860161219a565b91505092915050565b61221381612031565b811461221e57600080fd5b50565b6000813590506122308161220a565b92915050565b600080600080600060a0868803121561225257612251611f15565b5b600086013567ffffffffffffffff8111156122705761226f611f1a565b5b61227c888289016121dc565b955050602061228d88828901612221565b945050604086013567ffffffffffffffff8111156122ae576122ad611f1a565b5b6122ba888289016121dc565b935050606086013567ffffffffffffffff8111156122db576122da611f1a565b5b6122e7888289016121dc565b92505060806122f888828901612221565b9150509295509295909350565b60006020828403121561231b5761231a611f15565b5b600061232984828501612221565b91505092915050565b6000806040838503121561234957612348611f15565b5b600061235785828601612221565b925050602083013567ffffffffffffffff81111561237857612377611f1a565b5b612384858286016121dc565b9150509250929050565b6000819050919050565b6123a18161238e565b82525050565b60006020820190506123bc6000830184612398565b92915050565b60008060008060008060c087890312156123df576123de611f15565b5b600087013567ffffffffffffffff8111156123fd576123fc611f1a565b5b61240989828a016121dc565b965050602061241a89828a01612221565b955050604087013567ffffffffffffffff81111561243b5761243a611f1a565b5b61244789828a016121dc565b945050606087013567ffffffffffffffff81111561246857612467611f1a565b5b61247489828a016121dc565b935050608061248589828a01612221565b92505060a061249689828a01612221565b9150509295509295509295565b6000819050919050565b60006124c86124c36124be84612011565b6124a3565b612011565b9050919050565b60006124da826124ad565b9050919050565b60006124ec826124cf565b9050919050565b6124fc816124e1565b82525050565b600060208201905061251760008301846124f3565b92915050565b6000612528826124cf565b9050919050565b6125388161251d565b82525050565b6000602082019050612553600083018461252f565b92915050565b60008060006060848603121561257257612571611f15565b5b600061258086828701611f36565b935050602061259186828701612221565b925050604084013567ffffffffffffffff8111156125b2576125b1611f1a565b5b6125be868287016121dc565b9150509250925092565b6000815190506125d78161220a565b92915050565b6000602082840312156125f3576125f2611f15565b5b6000612601848285016125c8565b91505092915050565b7f4e487b7100000000000000000000000000000000000000000000000000000000600052602260045260246000fd5b6000600282049050600182168061265157607f821691505b602082108114156126655761266461260a565b5b50919050565b7f496e646578206f7574206f6620626f756e647300000000000000000000000000600082015250565b60006126a1601383611f83565b91506126ac8261266b565b602082019050919050565b600060208201905081810360008301526126d081612694565b9050919050565b7f4e487b7100000000000000000000000000000000000000000000000000000000600052603260045260246000fd5b60008160601b9050919050565b600061271e82612706565b9050919050565b600061273082612713565b9050919050565b61274861274382612031565b612725565b82525050565b600081905092915050565b600061276482611f78565b61276e818561274e565b935061277e818560208601611f94565b80840191505092915050565b60006127968285612737565b6014820191506127a68284612759565b91508190509392505050565b60006040820190506127c76000830185612043565b81810360208301526127d98184611fd8565b90509392505050565b6127eb8161238e565b81146127f657600080fd5b50565b600081519050612808816127e2565b92915050565b60006020828403121561282457612823611f15565b5b6000612832848285016127f9565b91505092915050565b60006060820190506128506000830186611eab565b61285d6020830185612398565b61286a6040830184612043565b949350505050565b61287b81611ed5565b811461288657600080fd5b50565b60008151905061289881612872565b92915050565b6000602082840312156128b4576128b3611f15565b5b60006128c284828501612889565b91505092915050565b7f4661696c656420746f2061646420696e7374697475746520746f20737475646560008201527f6e7420696e666f00000000000000000000000000000000000000000000000000602082015250565b6000612927602783611f83565b9150612932826128cb565b604082019050919050565b600060208201905081810360008301526129568161291a565b9050919050565b7f596f7520617265206e6f7420417574686f72697a656421000000000000000000600082015250565b6000612993601783611f83565b915061299e8261295d565b602082019050919050565b600060208201905081810360008301526129c281612986565b9050919050565b60006129dc6129d78461215a565b61213f565b9050828152602081018484840111156129f8576129f76120da565b5b612a03848285611f94565b509392505050565b600082601f830112612a2057612a1f6120d5565b5b8151612a308482602086016129c9565b91505092915050565b600080600080600060a08688031215612a5557612a54611f15565b5b600086015167ffffffffffffffff811115612a7357612a72611f1a565b5b612a7f88828901612a0b565b9550506020612a90888289016125c8565b945050604086015167ffffffffffffffff811115612ab157612ab0611f1a565b5b612abd88828901612a0b565b935050606086015167ffffffffffffffff811115612ade57612add611f1a565b5b612aea88828901612a0b565b9250506080612afb888289016125c8565b9150509295509295909350565b6000604082019050612b1d6000830185611eab565b612b2a6020830184612398565b9392505050565b7f4661696c656420746f2072656d6f766520696e737469747574652066726f6d2060008201527f73747564656e7420696e666f0000000000000000000000000000000000000000602082015250565b6000612b8d602c83611f83565b9150612b9882612b31565b604082019050919050565b60006020820190508181036000830152612bbc81612b80565b905091905056fea2646970667358221220bcf0dc281a8d891beac7a1ae0ee58847b562eff805d6bc0ddd2de347897fefe864736f6c634300080a0033",
      "opcodes": "PUSH1 0x80 PUSH1 0x40 MSTORE PUSH1 0x0 PUSH1 0x4 SSTORE CALLVALUE DUP1 ISZERO PUSH3 0x16 JUMPI PUSH1 0x0 DUP1 REVERT JUMPDEST POP PUSH1 0x40 MLOAD PUSH3 0x2E01 CODESIZE SUB DUP1 PUSH3 0x2E01 DUP4 CODECOPY DUP2 DUP2 ADD PUSH1 0x40 MSTORE DUP2 ADD SWAP1 PUSH3 0x3C SWAP2 SWAP1 PUSH3 0x1B1 JUMP JUMPDEST CALLER PUSH1 0x0 DUP1 PUSH2 0x100 EXP DUP2 SLOAD DUP2 PUSH20 0xFFFFFFFFFFFFFFFFFFFFFFFFFFFFFFFFFFFFFFFF MUL NOT AND SWAP1 DUP4 PUSH20 0xFFFFFFFFFFFFFFFFFFFFFFFFFFFFFFFFFFFFFFFF AND MUL OR SWAP1 SSTORE POP DUP2 PUSH1 0x3 PUSH1 0x0 PUSH2 0x100 EXP DUP2 SLOAD DUP2 PUSH20 0xFFFFFFFFFFFFFFFFFFFFFFFFFFFFFFFFFFFFFFFF MUL NOT AND SWAP1 DUP4 PUSH20 0xFFFFFFFFFFFFFFFFFFFFFFFFFFFFFFFFFFFFFFFF AND MUL OR SWAP1 SSTORE POP DUP2 PUSH1 0x1 PUSH1 0x0 PUSH2 0x100 EXP DUP2 SLOAD DUP2 PUSH20 0xFFFFFFFFFFFFFFFFFFFFFFFFFFFFFFFFFFFFFFFF MUL NOT AND SWAP1 DUP4 PUSH20 0xFFFFFFFFFFFFFFFFFFFFFFFFFFFFFFFFFFFFFFFF AND MUL OR SWAP1 SSTORE POP DUP1 PUSH1 0x2 PUSH1 0x0 PUSH2 0x100 EXP DUP2 SLOAD DUP2 PUSH20 0xFFFFFFFFFFFFFFFFFFFFFFFFFFFFFFFFFFFFFFFF MUL NOT AND SWAP1 DUP4 PUSH20 0xFFFFFFFFFFFFFFFFFFFFFFFFFFFFFFFFFFFFFFFF AND MUL OR SWAP1 SSTORE POP POP POP PUSH3 0x1F8 JUMP JUMPDEST PUSH1 0x0 DUP1 REVERT JUMPDEST PUSH1 0x0 PUSH20 0xFFFFFFFFFFFFFFFFFFFFFFFFFFFFFFFFFFFFFFFF DUP3 AND SWAP1 POP SWAP2 SWAP1 POP JUMP JUMPDEST PUSH1 0x0 PUSH3 0x179 DUP3 PUSH3 0x14C JUMP JUMPDEST SWAP1 POP SWAP2 SWAP1 POP JUMP JUMPDEST PUSH3 0x18B DUP2 PUSH3 0x16C JUMP JUMPDEST DUP2 EQ PUSH3 0x197 JUMPI PUSH1 0x0 DUP1 REVERT JUMPDEST POP JUMP JUMPDEST PUSH1 0x0 DUP2 MLOAD SWAP1 POP PUSH3 0x1AB DUP2 PUSH3 0x180 JUMP JUMPDEST SWAP3 SWAP2 POP POP JUMP JUMPDEST PUSH1 0x0 DUP1 PUSH1 0x40 DUP4 DUP6 SUB SLT ISZERO PUSH3 0x1CB JUMPI PUSH3 0x1CA PUSH3 0x147 JUMP JUMPDEST JUMPDEST PUSH1 0x0 PUSH3 0x1DB DUP6 DUP3 DUP7 ADD PUSH3 0x19A JUMP JUMPDEST SWAP3 POP POP PUSH1 0x20 PUSH3 0x1EE DUP6 DUP3 DUP7 ADD PUSH3 0x19A JUMP JUMPDEST SWAP2 POP POP SWAP3 POP SWAP3 SWAP1 POP JUMP JUMPDEST PUSH2 0x2BF9 DUP1 PUSH3 0x208 PUSH1 0x0 CODECOPY PUSH1 0x0 RETURN INVALID PUSH1 0x80 PUSH1 0x40 MSTORE CALLVALUE DUP1 ISZERO PUSH2 0x10 JUMPI PUSH1 0x0 DUP1 REVERT JUMPDEST POP PUSH1 0x4 CALLDATASIZE LT PUSH2 0x137 JUMPI PUSH1 0x0 CALLDATALOAD PUSH1 0xE0 SHR DUP1 PUSH4 0xA4156AEC GT PUSH2 0xB8 JUMPI DUP1 PUSH4 0xBD6A8504 GT PUSH2 0x7C JUMPI DUP1 PUSH4 0xBD6A8504 EQ PUSH2 0x360 JUMPI DUP1 PUSH4 0xC865D881 EQ PUSH2 0x394 JUMPI DUP1 PUSH4 0xCA90543D EQ PUSH2 0x3B2 JUMPI DUP1 PUSH4 0xDA085B7A EQ PUSH2 0x3E2 JUMPI DUP1 PUSH4 0xF00C848D EQ PUSH2 0x3FE JUMPI DUP1 PUSH4 0xF20BCF9A EQ PUSH2 0x41A JUMPI PUSH2 0x137 JUMP JUMPDEST DUP1 PUSH4 0xA4156AEC EQ PUSH2 0x2B6 JUMPI DUP1 PUSH4 0xB16F9023 EQ PUSH2 0x2EA JUMPI DUP1 PUSH4 0xB1BE843D EQ PUSH2 0x306 JUMPI DUP1 PUSH4 0xB7774C1A EQ PUSH2 0x324 JUMPI DUP1 PUSH4 0xBAE0A585 EQ PUSH2 0x342 JUMPI PUSH2 0x137 JUMP JUMPDEST DUP1 PUSH4 0x78CFE85E GT PUSH2 0xFF JUMPI DUP1 PUSH4 0x78CFE85E EQ PUSH2 0x1FE JUMPI DUP1 PUSH4 0x82F7D392 EQ PUSH2 0x21A JUMPI DUP1 PUSH4 0x8A97503D EQ PUSH2 0x24A JUMPI DUP1 PUSH4 0x911018EF EQ PUSH2 0x27A JUMPI DUP1 PUSH4 0xA2A1FEE5 EQ PUSH2 0x298 JUMPI PUSH2 0x137 JUMP JUMPDEST DUP1 PUSH4 0x20B260E3 EQ PUSH2 0x13C JUMPI DUP1 PUSH4 0x2ECCA5FE EQ PUSH2 0x15A JUMPI DUP1 PUSH4 0x548D434E EQ PUSH2 0x178 JUMPI DUP1 PUSH4 0x5B969A04 EQ PUSH2 0x1AC JUMPI DUP1 PUSH4 0x673A1746 EQ PUSH2 0x1E0 JUMPI JUMPDEST PUSH1 0x0 DUP1 REVERT JUMPDEST PUSH2 0x144 PUSH2 0x436 JUMP JUMPDEST PUSH1 0x40 MLOAD PUSH2 0x151 SWAP2 SWAP1 PUSH2 0x1EBA JUMP JUMPDEST PUSH1 0x40 MLOAD DUP1 SWAP2 SUB SWAP1 RETURN JUMPDEST PUSH2 0x162 PUSH2 0x443 JUMP JUMPDEST PUSH1 0x40 MLOAD PUSH2 0x16F SWAP2 SWAP1 PUSH2 0x1EF0 JUMP JUMPDEST PUSH1 0x40 MLOAD DUP1 SWAP2 SUB SWAP1 RETURN JUMPDEST PUSH2 0x192 PUSH1 0x4 DUP1 CALLDATASIZE SUB DUP2 ADD SWAP1 PUSH2 0x18D SWAP2 SWAP1 PUSH2 0x1F4B JUMP JUMPDEST PUSH2 0x515 JUMP JUMPDEST PUSH1 0x40 MLOAD PUSH2 0x1A3 SWAP6 SWAP5 SWAP4 SWAP3 SWAP2 SWAP1 PUSH2 0x2052 JUMP JUMPDEST PUSH1 0x40 MLOAD DUP1 SWAP2 SUB SWAP1 RETURN JUMPDEST PUSH2 0x1C6 PUSH1 0x4 DUP1 CALLDATASIZE SUB DUP2 ADD SWAP1 PUSH2 0x1C1 SWAP2 SWAP1 PUSH2 0x1F4B JUMP JUMPDEST PUSH2 0x733 JUMP JUMPDEST PUSH1 0x40 MLOAD PUSH2 0x1D7 SWAP6 SWAP5 SWAP4 SWAP3 SWAP2 SWAP1 PUSH2 0x2052 JUMP JUMPDEST PUSH1 0x40 MLOAD DUP1 SWAP2 SUB SWAP1 RETURN JUMPDEST PUSH2 0x1E8 PUSH2 0xA43 JUMP JUMPDEST PUSH1 0x40 MLOAD PUSH2 0x1F5 SWAP2 SWAP1 PUSH2 0x20BA JUMP JUMPDEST PUSH1 0x40 MLOAD DUP1 SWAP2 SUB SWAP1 RETURN JUMPDEST PUSH2 0x218 PUSH1 0x4 DUP1 CALLDATASIZE SUB DUP2 ADD SWAP1 PUSH2 0x213 SWAP2 SWAP1 PUSH2 0x2236 JUMP JUMPDEST PUSH2 0xA67 JUMP JUMPDEST STOP JUMPDEST PUSH2 0x234 PUSH1 0x4 DUP1 CALLDATASIZE SUB DUP2 ADD SWAP1 PUSH2 0x22F SWAP2 SWAP1 PUSH2 0x2305 JUMP JUMPDEST PUSH2 0xC15 JUMP JUMPDEST PUSH1 0x40 MLOAD PUSH2 0x241 SWAP2 SWAP1 PUSH2 0x1EF0 JUMP JUMPDEST PUSH1 0x40 MLOAD DUP1 SWAP2 SUB SWAP1 RETURN JUMPDEST PUSH2 0x264 PUSH1 0x4 DUP1 CALLDATASIZE SUB DUP2 ADD SWAP1 PUSH2 0x25F SWAP2 SWAP1 PUSH2 0x2332 JUMP JUMPDEST PUSH2 0xCAD JUMP JUMPDEST PUSH1 0x40 MLOAD PUSH2 0x271 SWAP2 SWAP1 PUSH2 0x23A7 JUMP JUMPDEST PUSH1 0x40 MLOAD DUP1 SWAP2 SUB SWAP1 RETURN JUMPDEST PUSH2 0x282 PUSH2 0xCE0 JUMP JUMPDEST PUSH1 0x40 MLOAD PUSH2 0x28F SWAP2 SWAP1 PUSH2 0x1EBA JUMP JUMPDEST PUSH1 0x40 MLOAD DUP1 SWAP2 SUB SWAP1 RETURN JUMPDEST PUSH2 0x2A0 PUSH2 0xCE6 JUMP JUMPDEST PUSH1 0x40 MLOAD PUSH2 0x2AD SWAP2 SWAP1 PUSH2 0x1EBA JUMP JUMPDEST PUSH1 0x40 MLOAD DUP1 SWAP2 SUB SWAP1 RETURN JUMPDEST PUSH2 0x2D0 PUSH1 0x4 DUP1 CALLDATASIZE SUB DUP2 ADD SWAP1 PUSH2 0x2CB SWAP2 SWAP1 PUSH2 0x1F4B JUMP JUMPDEST PUSH2 0xCF3 JUMP JUMPDEST PUSH1 0x40 MLOAD PUSH2 0x2E1 SWAP6 SWAP5 SWAP4 SWAP3 SWAP2 SWAP1 PUSH2 0x2052 JUMP JUMPDEST PUSH1 0x40 MLOAD DUP1 SWAP2 SUB SWAP1 RETURN JUMPDEST PUSH2 0x304 PUSH1 0x4 DUP1 CALLDATASIZE SUB DUP2 ADD SWAP1 PUSH2 0x2FF SWAP2 SWAP1 PUSH2 0x23C2 JUMP JUMPDEST PUSH2 0x1003 JUMP JUMPDEST STOP JUMPDEST PUSH2 0x30E PUSH2 0x1255 JUMP JUMPDEST PUSH1 0x40 MLOAD PUSH2 0x31B SWAP2 SWAP1 PUSH2 0x1EBA JUMP JUMPDEST PUSH1 0x40 MLOAD DUP1 SWAP2 SUB SWAP1 RETURN JUMPDEST PUSH2 0x32C PUSH2 0x1262 JUMP JUMPDEST PUSH1 0x40 MLOAD PUSH2 0x339 SWAP2 SWAP1 PUSH2 0x20BA JUMP JUMPDEST PUSH1 0x40 MLOAD DUP1 SWAP2 SUB SWAP1 RETURN JUMPDEST PUSH2 0x34A PUSH2 0x1288 JUMP JUMPDEST PUSH1 0x40 MLOAD PUSH2 0x357 SWAP2 SWAP1 PUSH2 0x2502 JUMP JUMPDEST PUSH1 0x40 MLOAD DUP1 SWAP2 SUB SWAP1 RETURN JUMPDEST PUSH2 0x37A PUSH1 0x4 DUP1 CALLDATASIZE SUB DUP2 ADD SWAP1 PUSH2 0x375 SWAP2 SWAP1 PUSH2 0x1F4B JUMP JUMPDEST PUSH2 0x12AE JUMP JUMPDEST PUSH1 0x40 MLOAD PUSH2 0x38B SWAP6 SWAP5 SWAP4 SWAP3 SWAP2 SWAP1 PUSH2 0x2052 JUMP JUMPDEST PUSH1 0x40 MLOAD DUP1 SWAP2 SUB SWAP1 RETURN JUMPDEST PUSH2 0x39C PUSH2 0x14CC JUMP JUMPDEST PUSH1 0x40 MLOAD PUSH2 0x3A9 SWAP2 SWAP1 PUSH2 0x253E JUMP JUMPDEST PUSH1 0x40 MLOAD DUP1 SWAP2 SUB SWAP1 RETURN JUMPDEST PUSH2 0x3CC PUSH1 0x4 DUP1 CALLDATASIZE SUB DUP2 ADD SWAP1 PUSH2 0x3C7 SWAP2 SWAP1 PUSH2 0x2305 JUMP JUMPDEST PUSH2 0x14F2 JUMP JUMPDEST PUSH1 0x40 MLOAD PUSH2 0x3D9 SWAP2 SWAP1 PUSH2 0x20BA JUMP JUMPDEST PUSH1 0x40 MLOAD DUP1 SWAP2 SUB SWAP1 RETURN JUMPDEST PUSH2 0x3FC PUSH1 0x4 DUP1 CALLDATASIZE SUB DUP2 ADD SWAP1 PUSH2 0x3F7 SWAP2 SWAP1 PUSH2 0x1F4B JUMP JUMPDEST PUSH2 0x155B JUMP JUMPDEST STOP JUMPDEST PUSH2 0x418 PUSH1 0x4 DUP1 CALLDATASIZE SUB DUP2 ADD SWAP1 PUSH2 0x413 SWAP2 SWAP1 PUSH2 0x1F4B JUMP JUMPDEST PUSH2 0x17A5 JUMP JUMPDEST STOP JUMPDEST PUSH2 0x434 PUSH1 0x4 DUP1 CALLDATASIZE SUB DUP2 ADD SWAP1 PUSH2 0x42F SWAP2 SWAP1 PUSH2 0x2559 JUMP JUMPDEST PUSH2 0x1AFA JUMP JUMPDEST STOP JUMPDEST PUSH1 0x0 PUSH1 0x8 DUP1 SLOAD SWAP1 POP SWAP1 POP SWAP1 JUMP JUMPDEST PUSH1 0x0 DUP1 PUSH20 0xFFFFFFFFFFFFFFFFFFFFFFFFFFFFFFFFFFFFFFFF AND PUSH1 0x2 PUSH1 0x0 SWAP1 SLOAD SWAP1 PUSH2 0x100 EXP SWAP1 DIV PUSH20 0xFFFFFFFFFFFFFFFFFFFFFFFFFFFFFFFFFFFFFFFF AND PUSH20 0xFFFFFFFFFFFFFFFFFFFFFFFFFFFFFFFFFFFFFFFF AND PUSH4 0x839F602D CALLER PUSH1 0x40 MLOAD DUP3 PUSH4 0xFFFFFFFF AND PUSH1 0xE0 SHL DUP2 MSTORE PUSH1 0x4 ADD PUSH2 0x4B7 SWAP2 SWAP1 PUSH2 0x20BA JUMP JUMPDEST PUSH1 0x20 PUSH1 0x40 MLOAD DUP1 DUP4 SUB DUP2 DUP7 GAS STATICCALL ISZERO DUP1 ISZERO PUSH2 0x4D4 JUMPI RETURNDATASIZE PUSH1 0x0 DUP1 RETURNDATACOPY RETURNDATASIZE PUSH1 0x0 REVERT JUMPDEST POP POP POP POP PUSH1 0x40 MLOAD RETURNDATASIZE PUSH1 0x1F NOT PUSH1 0x1F DUP3 ADD AND DUP3 ADD DUP1 PUSH1 0x40 MSTORE POP DUP2 ADD SWAP1 PUSH2 0x4F8 SWAP2 SWAP1 PUSH2 0x25DD JUMP JUMPDEST PUSH20 0xFFFFFFFFFFFFFFFFFFFFFFFFFFFFFFFFFFFFFFFF AND EQ ISZERO SWAP1 POP SWAP1 JUMP JUMPDEST PUSH1 0x6 DUP2 DUP2 SLOAD DUP2 LT PUSH2 0x525 JUMPI PUSH1 0x0 DUP1 REVERT JUMPDEST SWAP1 PUSH1 0x0 MSTORE PUSH1 0x20 PUSH1 0x0 KECCAK256 SWAP1 PUSH1 0x5 MUL ADD PUSH1 0x0 SWAP2 POP SWAP1 POP DUP1 PUSH1 0x0 ADD DUP1 SLOAD PUSH2 0x548 SWAP1 PUSH2 0x2639 JUMP JUMPDEST DUP1 PUSH1 0x1F ADD PUSH1 0x20 DUP1 SWAP2 DIV MUL PUSH1 0x20 ADD PUSH1 0x40 MLOAD SWAP1 DUP2 ADD PUSH1 0x40 MSTORE DUP1 SWAP3 SWAP2 SWAP1 DUP2 DUP2 MSTORE PUSH1 0x20 ADD DUP3 DUP1 SLOAD PUSH2 0x574 SWAP1 PUSH2 0x2639 JUMP JUMPDEST DUP1 ISZERO PUSH2 0x5C1 JUMPI DUP1 PUSH1 0x1F LT PUSH2 0x596 JUMPI PUSH2 0x100 DUP1 DUP4 SLOAD DIV MUL DUP4 MSTORE SWAP2 PUSH1 0x20 ADD SWAP2 PUSH2 0x5C1 JUMP JUMPDEST DUP3 ADD SWAP2 SWAP1 PUSH1 0x0 MSTORE PUSH1 0x20 PUSH1 0x0 KECCAK256 SWAP1 JUMPDEST DUP2 SLOAD DUP2 MSTORE SWAP1 PUSH1 0x1 ADD SWAP1 PUSH1 0x20 ADD DUP1 DUP4 GT PUSH2 0x5A4 JUMPI DUP3 SWAP1 SUB PUSH1 0x1F AND DUP3 ADD SWAP2 JUMPDEST POP POP POP POP POP SWAP1 DUP1 PUSH1 0x1 ADD PUSH1 0x0 SWAP1 SLOAD SWAP1 PUSH2 0x100 EXP SWAP1 DIV PUSH20 0xFFFFFFFFFFFFFFFFFFFFFFFFFFFFFFFFFFFFFFFF AND SWAP1 DUP1 PUSH1 0x2 ADD DUP1 SLOAD PUSH2 0x5FC SWAP1 PUSH2 0x2639 JUMP JUMPDEST DUP1 PUSH1 0x1F ADD PUSH1 0x20 DUP1 SWAP2 DIV MUL PUSH1 0x20 ADD PUSH1 0x40 MLOAD SWAP1 DUP2 ADD PUSH1 0x40 MSTORE DUP1 SWAP3 SWAP2 SWAP1 DUP2 DUP2 MSTORE PUSH1 0x20 ADD DUP3 DUP1 SLOAD PUSH2 0x628 SWAP1 PUSH2 0x2639 JUMP JUMPDEST DUP1 ISZERO PUSH2 0x675 JUMPI DUP1 PUSH1 0x1F LT PUSH2 0x64A JUMPI PUSH2 0x100 DUP1 DUP4 SLOAD DIV MUL DUP4 MSTORE SWAP2 PUSH1 0x20 ADD SWAP2 PUSH2 0x675 JUMP JUMPDEST DUP3 ADD SWAP2 SWAP1 PUSH1 0x0 MSTORE PUSH1 0x20 PUSH1 0x0 KECCAK256 SWAP1 JUMPDEST DUP2 SLOAD DUP2 MSTORE SWAP1 PUSH1 0x1 ADD SWAP1 PUSH1 0x20 ADD DUP1 DUP4 GT PUSH2 0x658 JUMPI DUP3 SWAP1 SUB PUSH1 0x1F AND DUP3 ADD SWAP2 JUMPDEST POP POP POP POP POP SWAP1 DUP1 PUSH1 0x3 ADD DUP1 SLOAD PUSH2 0x68A SWAP1 PUSH2 0x2639 JUMP JUMPDEST DUP1 PUSH1 0x1F ADD PUSH1 0x20 DUP1 SWAP2 DIV MUL PUSH1 0x20 ADD PUSH1 0x40 MLOAD SWAP1 DUP2 ADD PUSH1 0x40 MSTORE DUP1 SWAP3 SWAP2 SWAP1 DUP2 DUP2 MSTORE PUSH1 0x20 ADD DUP3 DUP1 SLOAD PUSH2 0x6B6 SWAP1 PUSH2 0x2639 JUMP JUMPDEST DUP1 ISZERO PUSH2 0x703 JUMPI DUP1 PUSH1 0x1F LT PUSH2 0x6D8 JUMPI PUSH2 0x100 DUP1 DUP4 SLOAD DIV MUL DUP4 MSTORE SWAP2 PUSH1 0x20 ADD SWAP2 PUSH2 0x703 JUMP JUMPDEST DUP3 ADD SWAP2 SWAP1 PUSH1 0x0 MSTORE PUSH1 0x20 PUSH1 0x0 KECCAK256 SWAP1 JUMPDEST DUP2 SLOAD DUP2 MSTORE SWAP1 PUSH1 0x1 ADD SWAP1 PUSH1 0x20 ADD DUP1 DUP4 GT PUSH2 0x6E6 JUMPI DUP3 SWAP1 SUB PUSH1 0x1F AND DUP3 ADD SWAP2 JUMPDEST POP POP POP POP POP SWAP1 DUP1 PUSH1 0x4 ADD PUSH1 0x0 SWAP1 SLOAD SWAP1 PUSH2 0x100 EXP SWAP1 DIV PUSH20 0xFFFFFFFFFFFFFFFFFFFFFFFFFFFFFFFFFFFFFFFF AND SWAP1 POP DUP6 JUMP JUMPDEST PUSH1 0x60 PUSH1 0x0 PUSH1 0x60 DUP1 PUSH1 0x0 PUSH1 0x5 DUP1 SLOAD SWAP1 POP DUP7 LT PUSH2 0x783 JUMPI PUSH1 0x40 MLOAD PUSH32 0x8C379A000000000000000000000000000000000000000000000000000000000 DUP2 MSTORE PUSH1 0x4 ADD PUSH2 0x77A SWAP1 PUSH2 0x26B7 JUMP JUMPDEST PUSH1 0x40 MLOAD DUP1 SWAP2 SUB SWAP1 REVERT JUMPDEST PUSH1 0x0 PUSH1 0x5 DUP8 DUP2 SLOAD DUP2 LT PUSH2 0x799 JUMPI PUSH2 0x798 PUSH2 0x26D7 JUMP JUMPDEST JUMPDEST SWAP1 PUSH1 0x0 MSTORE PUSH1 0x20 PUSH1 0x0 KECCAK256 SWAP1 PUSH1 0x5 MUL ADD PUSH1 0x40 MLOAD DUP1 PUSH1 0xA0 ADD PUSH1 0x40 MSTORE SWAP1 DUP2 PUSH1 0x0 DUP3 ADD DUP1 SLOAD PUSH2 0x7C2 SWAP1 PUSH2 0x2639 JUMP JUMPDEST DUP1 PUSH1 0x1F ADD PUSH1 0x20 DUP1 SWAP2 DIV MUL PUSH1 0x20 ADD PUSH1 0x40 MLOAD SWAP1 DUP2 ADD PUSH1 0x40 MSTORE DUP1 SWAP3 SWAP2 SWAP1 DUP2 DUP2 MSTORE PUSH1 0x20 ADD DUP3 DUP1 SLOAD PUSH2 0x7EE SWAP1 PUSH2 0x2639 JUMP JUMPDEST DUP1 ISZERO PUSH2 0x83B JUMPI DUP1 PUSH1 0x1F LT PUSH2 0x810 JUMPI PUSH2 0x100 DUP1 DUP4 SLOAD DIV MUL DUP4 MSTORE SWAP2 PUSH1 0x20 ADD SWAP2 PUSH2 0x83B JUMP JUMPDEST DUP3 ADD SWAP2 SWAP1 PUSH1 0x0 MSTORE PUSH1 0x20 PUSH1 0x0 KECCAK256 SWAP1 JUMPDEST DUP2 SLOAD DUP2 MSTORE SWAP1 PUSH1 0x1 ADD SWAP1 PUSH1 0x20 ADD DUP1 DUP4 GT PUSH2 0x81E JUMPI DUP3 SWAP1 SUB PUSH1 0x1F AND DUP3 ADD SWAP2 JUMPDEST POP POP POP POP POP DUP2 MSTORE PUSH1 0x20 ADD PUSH1 0x1 DUP3 ADD PUSH1 0x0 SWAP1 SLOAD SWAP1 PUSH2 0x100 EXP SWAP1 DIV PUSH20 0xFFFFFFFFFFFFFFFFFFFFFFFFFFFFFFFFFFFFFFFF AND PUSH20 0xFFFFFFFFFFFFFFFFFFFFFFFFFFFFFFFFFFFFFFFF AND PUSH20 0xFFFFFFFFFFFFFFFFFFFFFFFFFFFFFFFFFFFFFFFF AND DUP2 MSTORE PUSH1 0x20 ADD PUSH1 0x2 DUP3 ADD DUP1 SLOAD PUSH2 0x8AA SWAP1 PUSH2 0x2639 JUMP JUMPDEST DUP1 PUSH1 0x1F ADD PUSH1 0x20 DUP1 SWAP2 DIV MUL PUSH1 0x20 ADD PUSH1 0x40 MLOAD SWAP1 DUP2 ADD PUSH1 0x40 MSTORE DUP1 SWAP3 SWAP2 SWAP1 DUP2 DUP2 MSTORE PUSH1 0x20 ADD DUP3 DUP1 SLOAD PUSH2 0x8D6 SWAP1 PUSH2 0x2639 JUMP JUMPDEST DUP1 ISZERO PUSH2 0x923 JUMPI DUP1 PUSH1 0x1F LT PUSH2 0x8F8 JUMPI PUSH2 0x100 DUP1 DUP4 SLOAD DIV MUL DUP4 MSTORE SWAP2 PUSH1 0x20 ADD SWAP2 PUSH2 0x923 JUMP JUMPDEST DUP3 ADD SWAP2 SWAP1 PUSH1 0x0 MSTORE PUSH1 0x20 PUSH1 0x0 KECCAK256 SWAP1 JUMPDEST DUP2 SLOAD DUP2 MSTORE SWAP1 PUSH1 0x1 ADD SWAP1 PUSH1 0x20 ADD DUP1 DUP4 GT PUSH2 0x906 JUMPI DUP3 SWAP1 SUB PUSH1 0x1F AND DUP3 ADD SWAP2 JUMPDEST POP POP POP POP POP DUP2 MSTORE PUSH1 0x20 ADD PUSH1 0x3 DUP3 ADD DUP1 SLOAD PUSH2 0x93C SWAP1 PUSH2 0x2639 JUMP JUMPDEST DUP1 PUSH1 0x1F ADD PUSH1 0x20 DUP1 SWAP2 DIV MUL PUSH1 0x20 ADD PUSH1 0x40 MLOAD SWAP1 DUP2 ADD PUSH1 0x40 MSTORE DUP1 SWAP3 SWAP2 SWAP1 DUP2 DUP2 MSTORE PUSH1 0x20 ADD DUP3 DUP1 SLOAD PUSH2 0x968 SWAP1 PUSH2 0x2639 JUMP JUMPDEST DUP1 ISZERO PUSH2 0x9B5 JUMPI DUP1 PUSH1 0x1F LT PUSH2 0x98A JUMPI PUSH2 0x100 DUP1 DUP4 SLOAD DIV MUL DUP4 MSTORE SWAP2 PUSH1 0x20 ADD SWAP2 PUSH2 0x9B5 JUMP JUMPDEST DUP3 ADD SWAP2 SWAP1 PUSH1 0x0 MSTORE PUSH1 0x20 PUSH1 0x0 KECCAK256 SWAP1 JUMPDEST DUP2 SLOAD DUP2 MSTORE SWAP1 PUSH1 0x1 ADD SWAP1 PUSH1 0x20 ADD DUP1 DUP4 GT PUSH2 0x998 JUMPI DUP3 SWAP1 SUB PUSH1 0x1F AND DUP3 ADD SWAP2 JUMPDEST POP POP POP POP POP DUP2 MSTORE PUSH1 0x20 ADD PUSH1 0x4 DUP3 ADD PUSH1 0x0 SWAP1 SLOAD SWAP1 PUSH2 0x100 EXP SWAP1 DIV PUSH20 0xFFFFFFFFFFFFFFFFFFFFFFFFFFFFFFFFFFFFFFFF AND PUSH20 0xFFFFFFFFFFFFFFFFFFFFFFFFFFFFFFFFFFFFFFFF AND PUSH20 0xFFFFFFFFFFFFFFFFFFFFFFFFFFFFFFFFFFFFFFFF AND DUP2 MSTORE POP POP SWAP1 POP DUP1 PUSH1 0x0 ADD MLOAD DUP2 PUSH1 0x20 ADD MLOAD DUP3 PUSH1 0x40 ADD MLOAD DUP4 PUSH1 0x60 ADD MLOAD DUP5 PUSH1 0x80 ADD MLOAD SWAP6 POP SWAP6 POP SWAP6 POP SWAP6 POP SWAP6 POP POP SWAP2 SWAP4 SWAP6 SWAP1 SWAP3 SWAP5 POP JUMP JUMPDEST PUSH1 0x0 DUP1 SLOAD SWAP1 PUSH2 0x100 EXP SWAP1 DIV PUSH20 0xFFFFFFFFFFFFFFFFFFFFFFFFFFFFFFFFFFFFFFFF AND DUP2 JUMP JUMPDEST PUSH2 0xA6F PUSH2 0x1D63 JUMP JUMPDEST DUP6 DUP2 PUSH1 0x0 ADD DUP2 SWAP1 MSTORE POP DUP5 DUP2 PUSH1 0x20 ADD SWAP1 PUSH20 0xFFFFFFFFFFFFFFFFFFFFFFFFFFFFFFFFFFFFFFFF AND SWAP1 DUP2 PUSH20 0xFFFFFFFFFFFFFFFFFFFFFFFFFFFFFFFFFFFFFFFF AND DUP2 MSTORE POP POP DUP4 DUP2 PUSH1 0x40 ADD DUP2 SWAP1 MSTORE POP DUP3 DUP2 PUSH1 0x60 ADD DUP2 SWAP1 MSTORE POP DUP2 DUP2 PUSH1 0x80 ADD SWAP1 PUSH20 0xFFFFFFFFFFFFFFFFFFFFFFFFFFFFFFFFFFFFFFFF AND SWAP1 DUP2 PUSH20 0xFFFFFFFFFFFFFFFFFFFFFFFFFFFFFFFFFFFFFFFF AND DUP2 MSTORE POP POP PUSH1 0x5 DUP2 SWAP1 DUP1 PUSH1 0x1 DUP2 SLOAD ADD DUP1 DUP3 SSTORE DUP1 SWAP2 POP POP PUSH1 0x1 SWAP1 SUB SWAP1 PUSH1 0x0 MSTORE PUSH1 0x20 PUSH1 0x0 KECCAK256 SWAP1 PUSH1 0x5 MUL ADD PUSH1 0x0 SWAP1 SWAP2 SWAP1 SWAP2 SWAP1 SWAP2 POP PUSH1 0x0 DUP3 ADD MLOAD DUP2 PUSH1 0x0 ADD SWAP1 DUP1 MLOAD SWAP1 PUSH1 0x20 ADD SWAP1 PUSH2 0xB42 SWAP3 SWAP2 SWAP1 PUSH2 0x1DBE JUMP JUMPDEST POP PUSH1 0x20 DUP3 ADD MLOAD DUP2 PUSH1 0x1 ADD PUSH1 0x0 PUSH2 0x100 EXP DUP2 SLOAD DUP2 PUSH20 0xFFFFFFFFFFFFFFFFFFFFFFFFFFFFFFFFFFFFFFFF MUL NOT AND SWAP1 DUP4 PUSH20 0xFFFFFFFFFFFFFFFFFFFFFFFFFFFFFFFFFFFFFFFF AND MUL OR SWAP1 SSTORE POP PUSH1 0x40 DUP3 ADD MLOAD DUP2 PUSH1 0x2 ADD SWAP1 DUP1 MLOAD SWAP1 PUSH1 0x20 ADD SWAP1 PUSH2 0xBA6 SWAP3 SWAP2 SWAP1 PUSH2 0x1DBE JUMP JUMPDEST POP PUSH1 0x60 DUP3 ADD MLOAD DUP2 PUSH1 0x3 ADD SWAP1 DUP1 MLOAD SWAP1 PUSH1 0x20 ADD SWAP1 PUSH2 0xBC3 SWAP3 SWAP2 SWAP1 PUSH2 0x1DBE JUMP JUMPDEST POP PUSH1 0x80 DUP3 ADD MLOAD DUP2 PUSH1 0x4 ADD PUSH1 0x0 PUSH2 0x100 EXP DUP2 SLOAD DUP2 PUSH20 0xFFFFFFFFFFFFFFFFFFFFFFFFFFFFFFFFFFFFFFFF MUL NOT AND SWAP1 DUP4 PUSH20 0xFFFFFFFFFFFFFFFFFFFFFFFFFFFFFFFFFFFFFFFF AND MUL OR SWAP1 SSTORE POP POP POP POP POP POP POP POP POP JUMP JUMPDEST PUSH1 0x0 DUP1 PUSH20 0xFFFFFFFFFFFFFFFFFFFFFFFFFFFFFFFFFFFFFFFF AND PUSH1 0x7 PUSH1 0x0 DUP5 PUSH20 0xFFFFFFFFFFFFFFFFFFFFFFFFFFFFFFFFFFFFFFFF AND PUSH20 0xFFFFFFFFFFFFFFFFFFFFFFFFFFFFFFFFFFFFFFFF AND DUP2 MSTORE PUSH1 0x20 ADD SWAP1 DUP2 MSTORE PUSH1 0x20 ADD PUSH1 0x0 KECCAK256 PUSH1 0x0 SWAP1 SLOAD SWAP1 PUSH2 0x100 EXP SWAP1 DIV PUSH20 0xFFFFFFFFFFFFFFFFFFFFFFFFFFFFFFFFFFFFFFFF AND PUSH20 0xFFFFFFFFFFFFFFFFFFFFFFFFFFFFFFFFFFFFFFFF AND EQ ISZERO SWAP1 POP SWAP2 SWAP1 POP JUMP JUMPDEST PUSH1 0x0 DUP3 DUP3 PUSH1 0x40 MLOAD PUSH1 0x20 ADD PUSH2 0xCC2 SWAP3 SWAP2 SWAP1 PUSH2 0x278A JUMP JUMPDEST PUSH1 0x40 MLOAD PUSH1 0x20 DUP2 DUP4 SUB SUB DUP2 MSTORE SWAP1 PUSH1 0x40 MSTORE DUP1 MLOAD SWAP1 PUSH1 0x20 ADD KECCAK256 SWAP1 POP SWAP3 SWAP2 POP POP JUMP JUMPDEST PUSH1 0x4 SLOAD DUP2 JUMP JUMPDEST PUSH1 0x0 PUSH1 0x6 DUP1 SLOAD SWAP1 POP SWAP1 POP SWAP1 JUMP JUMPDEST PUSH1 0x60 PUSH1 0x0 PUSH1 0x60 DUP1 PUSH1 0x0 PUSH1 0x5 DUP1 SLOAD SWAP1 POP DUP7 LT PUSH2 0xD43 JUMPI PUSH1 0x40 MLOAD PUSH32 0x8C379A000000000000000000000000000000000000000000000000000000000 DUP2 MSTORE PUSH1 0x4 ADD PUSH2 0xD3A SWAP1 PUSH2 0x26B7 JUMP JUMPDEST PUSH1 0x40 MLOAD DUP1 SWAP2 SUB SWAP1 REVERT JUMPDEST PUSH1 0x0 PUSH1 0x6 DUP8 DUP2 SLOAD DUP2 LT PUSH2 0xD59 JUMPI PUSH2 0xD58 PUSH2 0x26D7 JUMP JUMPDEST JUMPDEST SWAP1 PUSH1 0x0 MSTORE PUSH1 0x20 PUSH1 0x0 KECCAK256 SWAP1 PUSH1 0x5 MUL ADD PUSH1 0x40 MLOAD DUP1 PUSH1 0xA0 ADD PUSH1 0x40 MSTORE SWAP1 DUP2 PUSH1 0x0 DUP3 ADD DUP1 SLOAD PUSH2 0xD82 SWAP1 PUSH2 0x2639 JUMP JUMPDEST DUP1 PUSH1 0x1F ADD PUSH1 0x20 DUP1 SWAP2 DIV MUL PUSH1 0x20 ADD PUSH1 0x40 MLOAD SWAP1 DUP2 ADD PUSH1 0x40 MSTORE DUP1 SWAP3 SWAP2 SWAP1 DUP2 DUP2 MSTORE PUSH1 0x20 ADD DUP3 DUP1 SLOAD PUSH2 0xDAE SWAP1 PUSH2 0x2639 JUMP JUMPDEST DUP1 ISZERO PUSH2 0xDFB JUMPI DUP1 PUSH1 0x1F LT PUSH2 0xDD0 JUMPI PUSH2 0x100 DUP1 DUP4 SLOAD DIV MUL DUP4 MSTORE SWAP2 PUSH1 0x20 ADD SWAP2 PUSH2 0xDFB JUMP JUMPDEST DUP3 ADD SWAP2 SWAP1 PUSH1 0x0 MSTORE PUSH1 0x20 PUSH1 0x0 KECCAK256 SWAP1 JUMPDEST DUP2 SLOAD DUP2 MSTORE SWAP1 PUSH1 0x1 ADD SWAP1 PUSH1 0x20 ADD DUP1 DUP4 GT PUSH2 0xDDE JUMPI DUP3 SWAP1 SUB PUSH1 0x1F AND DUP3 ADD SWAP2 JUMPDEST POP POP POP POP POP DUP2 MSTORE PUSH1 0x20 ADD PUSH1 0x1 DUP3 ADD PUSH1 0x0 SWAP1 SLOAD SWAP1 PUSH2 0x100 EXP SWAP1 DIV PUSH20 0xFFFFFFFFFFFFFFFFFFFFFFFFFFFFFFFFFFFFFFFF AND PUSH20 0xFFFFFFFFFFFFFFFFFFFFFFFFFFFFFFFFFFFFFFFF AND PUSH20 0xFFFFFFFFFFFFFFFFFFFFFFFFFFFFFFFFFFFFFFFF AND DUP2 MSTORE PUSH1 0x20 ADD PUSH1 0x2 DUP3 ADD DUP1 SLOAD PUSH2 0xE6A SWAP1 PUSH2 0x2639 JUMP JUMPDEST DUP1 PUSH1 0x1F ADD PUSH1 0x20 DUP1 SWAP2 DIV MUL PUSH1 0x20 ADD PUSH1 0x40 MLOAD SWAP1 DUP2 ADD PUSH1 0x40 MSTORE DUP1 SWAP3 SWAP2 SWAP1 DUP2 DUP2 MSTORE PUSH1 0x20 ADD DUP3 DUP1 SLOAD PUSH2 0xE96 SWAP1 PUSH2 0x2639 JUMP JUMPDEST DUP1 ISZERO PUSH2 0xEE3 JUMPI DUP1 PUSH1 0x1F LT PUSH2 0xEB8 JUMPI PUSH2 0x100 DUP1 DUP4 SLOAD DIV MUL DUP4 MSTORE SWAP2 PUSH1 0x20 ADD SWAP2 PUSH2 0xEE3 JUMP JUMPDEST DUP3 ADD SWAP2 SWAP1 PUSH1 0x0 MSTORE PUSH1 0x20 PUSH1 0x0 KECCAK256 SWAP1 JUMPDEST DUP2 SLOAD DUP2 MSTORE SWAP1 PUSH1 0x1 ADD SWAP1 PUSH1 0x20 ADD DUP1 DUP4 GT PUSH2 0xEC6 JUMPI DUP3 SWAP1 SUB PUSH1 0x1F AND DUP3 ADD SWAP2 JUMPDEST POP POP POP POP POP DUP2 MSTORE PUSH1 0x20 ADD PUSH1 0x3 DUP3 ADD DUP1 SLOAD PUSH2 0xEFC SWAP1 PUSH2 0x2639 JUMP JUMPDEST DUP1 PUSH1 0x1F ADD PUSH1 0x20 DUP1 SWAP2 DIV MUL PUSH1 0x20 ADD PUSH1 0x40 MLOAD SWAP1 DUP2 ADD PUSH1 0x40 MSTORE DUP1 SWAP3 SWAP2 SWAP1 DUP2 DUP2 MSTORE PUSH1 0x20 ADD DUP3 DUP1 SLOAD PUSH2 0xF28 SWAP1 PUSH2 0x2639 JUMP JUMPDEST DUP1 ISZERO PUSH2 0xF75 JUMPI DUP1 PUSH1 0x1F LT PUSH2 0xF4A JUMPI PUSH2 0x100 DUP1 DUP4 SLOAD DIV MUL DUP4 MSTORE SWAP2 PUSH1 0x20 ADD SWAP2 PUSH2 0xF75 JUMP JUMPDEST DUP3 ADD SWAP2 SWAP1 PUSH1 0x0 MSTORE PUSH1 0x20 PUSH1 0x0 KECCAK256 SWAP1 JUMPDEST DUP2 SLOAD DUP2 MSTORE SWAP1 PUSH1 0x1 ADD SWAP1 PUSH1 0x20 ADD DUP1 DUP4 GT PUSH2 0xF58 JUMPI DUP3 SWAP1 SUB PUSH1 0x1F AND DUP3 ADD SWAP2 JUMPDEST POP POP POP POP POP DUP2 MSTORE PUSH1 0x20 ADD PUSH1 0x4 DUP3 ADD PUSH1 0x0 SWAP1 SLOAD SWAP1 PUSH2 0x100 EXP SWAP1 DIV PUSH20 0xFFFFFFFFFFFFFFFFFFFFFFFFFFFFFFFFFFFFFFFF AND PUSH20 0xFFFFFFFFFFFFFFFFFFFFFFFFFFFFFFFFFFFFFFFF AND PUSH20 0xFFFFFFFFFFFFFFFFFFFFFFFFFFFFFFFFFFFFFFFF AND DUP2 MSTORE POP POP SWAP1 POP DUP1 PUSH1 0x0 ADD MLOAD DUP2 PUSH1 0x20 ADD MLOAD DUP3 PUSH1 0x40 ADD MLOAD DUP4 PUSH1 0x60 ADD MLOAD DUP5 PUSH1 0x80 ADD MLOAD SWAP6 POP SWAP6 POP SWAP6 POP SWAP6 POP SWAP6 POP POP SWAP2 SWAP4 SWAP6 SWAP1 SWAP3 SWAP5 POP JUMP JUMPDEST PUSH1 0x0 PUSH1 0x1 PUSH1 0x0 SWAP1 SLOAD SWAP1 PUSH2 0x100 EXP SWAP1 DIV PUSH20 0xFFFFFFFFFFFFFFFFFFFFFFFFFFFFFFFFFFFFFFFF AND PUSH20 0xFFFFFFFFFFFFFFFFFFFFFFFFFFFFFFFFFFFFFFFF AND PUSH4 0x8A97503D DUP8 DUP7 PUSH1 0x40 MLOAD DUP4 PUSH4 0xFFFFFFFF AND PUSH1 0xE0 SHL DUP2 MSTORE PUSH1 0x4 ADD PUSH2 0x1062 SWAP3 SWAP2 SWAP1 PUSH2 0x27B2 JUMP JUMPDEST PUSH1 0x20 PUSH1 0x40 MLOAD DUP1 DUP4 SUB DUP2 DUP7 GAS STATICCALL ISZERO DUP1 ISZERO PUSH2 0x107F JUMPI RETURNDATASIZE PUSH1 0x0 DUP1 RETURNDATACOPY RETURNDATASIZE PUSH1 0x0 REVERT JUMPDEST POP POP POP POP PUSH1 0x40 MLOAD RETURNDATASIZE PUSH1 0x1F NOT PUSH1 0x1F DUP3 ADD AND DUP3 ADD DUP1 PUSH1 0x40 MSTORE POP DUP2 ADD SWAP1 PUSH2 0x10A3 SWAP2 SWAP1 PUSH2 0x280E JUMP JUMPDEST SWAP1 POP PUSH2 0x10AD PUSH2 0x1D63 JUMP JUMPDEST DUP8 DUP2 PUSH1 0x0 ADD DUP2 SWAP1 MSTORE POP DUP7 DUP2 PUSH1 0x20 ADD SWAP1 PUSH20 0xFFFFFFFFFFFFFFFFFFFFFFFFFFFFFFFFFFFFFFFF AND SWAP1 DUP2 PUSH20 0xFFFFFFFFFFFFFFFFFFFFFFFFFFFFFFFFFFFFFFFF AND DUP2 MSTORE POP POP DUP6 DUP2 PUSH1 0x40 ADD DUP2 SWAP1 MSTORE POP DUP5 DUP2 PUSH1 0x60 ADD DUP2 SWAP1 MSTORE POP DUP3 DUP2 PUSH1 0x80 ADD SWAP1 PUSH20 0xFFFFFFFFFFFFFFFFFFFFFFFFFFFFFFFFFFFFFFFF AND SWAP1 DUP2 PUSH20 0xFFFFFFFFFFFFFFFFFFFFFFFFFFFFFFFFFFFFFFFF AND DUP2 MSTORE POP POP PUSH1 0x6 DUP2 SWAP1 DUP1 PUSH1 0x1 DUP2 SLOAD ADD DUP1 DUP3 SSTORE DUP1 SWAP2 POP POP PUSH1 0x1 SWAP1 SUB SWAP1 PUSH1 0x0 MSTORE PUSH1 0x20 PUSH1 0x0 KECCAK256 SWAP1 PUSH1 0x5 MUL ADD PUSH1 0x0 SWAP1 SWAP2 SWAP1 SWAP2 SWAP1 SWAP2 POP PUSH1 0x0 DUP3 ADD MLOAD DUP2 PUSH1 0x0 ADD SWAP1 DUP1 MLOAD SWAP1 PUSH1 0x20 ADD SWAP1 PUSH2 0x1180 SWAP3 SWAP2 SWAP1 PUSH2 0x1DBE JUMP JUMPDEST POP PUSH1 0x20 DUP3 ADD MLOAD DUP2 PUSH1 0x1 ADD PUSH1 0x0 PUSH2 0x100 EXP DUP2 SLOAD DUP2 PUSH20 0xFFFFFFFFFFFFFFFFFFFFFFFFFFFFFFFFFFFFFFFF MUL NOT AND SWAP1 DUP4 PUSH20 0xFFFFFFFFFFFFFFFFFFFFFFFFFFFFFFFFFFFFFFFF AND MUL OR SWAP1 SSTORE POP PUSH1 0x40 DUP3 ADD MLOAD DUP2 PUSH1 0x2 ADD SWAP1 DUP1 MLOAD SWAP1 PUSH1 0x20 ADD SWAP1 PUSH2 0x11E4 SWAP3 SWAP2 SWAP1 PUSH2 0x1DBE JUMP JUMPDEST POP PUSH1 0x60 DUP3 ADD MLOAD DUP2 PUSH1 0x3 ADD SWAP1 DUP1 MLOAD SWAP1 PUSH1 0x20 ADD SWAP1 PUSH2 0x1201 SWAP3 SWAP2 SWAP1 PUSH2 0x1DBE JUMP JUMPDEST POP PUSH1 0x80 DUP3 ADD MLOAD DUP2 PUSH1 0x4 ADD PUSH1 0x0 PUSH2 0x100 EXP DUP2 SLOAD DUP2 PUSH20 0xFFFFFFFFFFFFFFFFFFFFFFFFFFFFFFFFFFFFFFFF MUL NOT AND SWAP1 DUP4 PUSH20 0xFFFFFFFFFFFFFFFFFFFFFFFFFFFFFFFFFFFFFFFF AND MUL OR SWAP1 SSTORE POP POP POP POP POP POP POP POP POP POP POP JUMP JUMPDEST PUSH1 0x0 PUSH1 0x5 DUP1 SLOAD SWAP1 POP SWAP1 POP SWAP1 JUMP JUMPDEST PUSH1 0x3 PUSH1 0x0 SWAP1 SLOAD SWAP1 PUSH2 0x100 EXP SWAP1 DIV PUSH20 0xFFFFFFFFFFFFFFFFFFFFFFFFFFFFFFFFFFFFFFFF AND DUP2 JUMP JUMPDEST PUSH1 0x2 PUSH1 0x0 SWAP1 SLOAD SWAP1 PUSH2 0x100 EXP SWAP1 DIV PUSH20 0xFFFFFFFFFFFFFFFFFFFFFFFFFFFFFFFFFFFFFFFF AND DUP2 JUMP JUMPDEST PUSH1 0x5 DUP2 DUP2 SLOAD DUP2 LT PUSH2 0x12BE JUMPI PUSH1 0x0 DUP1 REVERT JUMPDEST SWAP1 PUSH1 0x0 MSTORE PUSH1 0x20 PUSH1 0x0 KECCAK256 SWAP1 PUSH1 0x5 MUL ADD PUSH1 0x0 SWAP2 POP SWAP1 POP DUP1 PUSH1 0x0 ADD DUP1 SLOAD PUSH2 0x12E1 SWAP1 PUSH2 0x2639 JUMP JUMPDEST DUP1 PUSH1 0x1F ADD PUSH1 0x20 DUP1 SWAP2 DIV MUL PUSH1 0x20 ADD PUSH1 0x40 MLOAD SWAP1 DUP2 ADD PUSH1 0x40 MSTORE DUP1 SWAP3 SWAP2 SWAP1 DUP2 DUP2 MSTORE PUSH1 0x20 ADD DUP3 DUP1 SLOAD PUSH2 0x130D SWAP1 PUSH2 0x2639 JUMP JUMPDEST DUP1 ISZERO PUSH2 0x135A JUMPI DUP1 PUSH1 0x1F LT PUSH2 0x132F JUMPI PUSH2 0x100 DUP1 DUP4 SLOAD DIV MUL DUP4 MSTORE SWAP2 PUSH1 0x20 ADD SWAP2 PUSH2 0x135A JUMP JUMPDEST DUP3 ADD SWAP2 SWAP1 PUSH1 0x0 MSTORE PUSH1 0x20 PUSH1 0x0 KECCAK256 SWAP1 JUMPDEST DUP2 SLOAD DUP2 MSTORE SWAP1 PUSH1 0x1 ADD SWAP1 PUSH1 0x20 ADD DUP1 DUP4 GT PUSH2 0x133D JUMPI DUP3 SWAP1 SUB PUSH1 0x1F AND DUP3 ADD SWAP2 JUMPDEST POP POP POP POP POP SWAP1 DUP1 PUSH1 0x1 ADD PUSH1 0x0 SWAP1 SLOAD SWAP1 PUSH2 0x100 EXP SWAP1 DIV PUSH20 0xFFFFFFFFFFFFFFFFFFFFFFFFFFFFFFFFFFFFFFFF AND SWAP1 DUP1 PUSH1 0x2 ADD DUP1 SLOAD PUSH2 0x1395 SWAP1 PUSH2 0x2639 JUMP JUMPDEST DUP1 PUSH1 0x1F ADD PUSH1 0x20 DUP1 SWAP2 DIV MUL PUSH1 0x20 ADD PUSH1 0x40 MLOAD SWAP1 DUP2 ADD PUSH1 0x40 MSTORE DUP1 SWAP3 SWAP2 SWAP1 DUP2 DUP2 MSTORE PUSH1 0x20 ADD DUP3 DUP1 SLOAD PUSH2 0x13C1 SWAP1 PUSH2 0x2639 JUMP JUMPDEST DUP1 ISZERO PUSH2 0x140E JUMPI DUP1 PUSH1 0x1F LT PUSH2 0x13E3 JUMPI PUSH2 0x100 DUP1 DUP4 SLOAD DIV MUL DUP4 MSTORE SWAP2 PUSH1 0x20 ADD SWAP2 PUSH2 0x140E JUMP JUMPDEST DUP3 ADD SWAP2 SWAP1 PUSH1 0x0 MSTORE PUSH1 0x20 PUSH1 0x0 KECCAK256 SWAP1 JUMPDEST DUP2 SLOAD DUP2 MSTORE SWAP1 PUSH1 0x1 ADD SWAP1 PUSH1 0x20 ADD DUP1 DUP4 GT PUSH2 0x13F1 JUMPI DUP3 SWAP1 SUB PUSH1 0x1F AND DUP3 ADD SWAP2 JUMPDEST POP POP POP POP POP SWAP1 DUP1 PUSH1 0x3 ADD DUP1 SLOAD PUSH2 0x1423 SWAP1 PUSH2 0x2639 JUMP JUMPDEST DUP1 PUSH1 0x1F ADD PUSH1 0x20 DUP1 SWAP2 DIV MUL PUSH1 0x20 ADD PUSH1 0x40 MLOAD SWAP1 DUP2 ADD PUSH1 0x40 MSTORE DUP1 SWAP3 SWAP2 SWAP1 DUP2 DUP2 MSTORE PUSH1 0x20 ADD DUP3 DUP1 SLOAD PUSH2 0x144F SWAP1 PUSH2 0x2639 JUMP JUMPDEST DUP1 ISZERO PUSH2 0x149C JUMPI DUP1 PUSH1 0x1F LT PUSH2 0x1471 JUMPI PUSH2 0x100 DUP1 DUP4 SLOAD DIV MUL DUP4 MSTORE SWAP2 PUSH1 0x20 ADD SWAP2 PUSH2 0x149C JUMP JUMPDEST DUP3 ADD SWAP2 SWAP1 PUSH1 0x0 MSTORE PUSH1 0x20 PUSH1 0x0 KECCAK256 SWAP1 JUMPDEST DUP2 SLOAD DUP2 MSTORE SWAP1 PUSH1 0x1 ADD SWAP1 PUSH1 0x20 ADD DUP1 DUP4 GT PUSH2 0x147F JUMPI DUP3 SWAP1 SUB PUSH1 0x1F AND DUP3 ADD SWAP2 JUMPDEST POP POP POP POP POP SWAP1 DUP1 PUSH1 0x4 ADD PUSH1 0x0 SWAP1 SLOAD SWAP1 PUSH2 0x100 EXP SWAP1 DIV PUSH20 0xFFFFFFFFFFFFFFFFFFFFFFFFFFFFFFFFFFFFFFFF AND SWAP1 POP DUP6 JUMP JUMPDEST PUSH1 0x1 PUSH1 0x0 SWAP1 SLOAD SWAP1 PUSH2 0x100 EXP SWAP1 DIV PUSH20 0xFFFFFFFFFFFFFFFFFFFFFFFFFFFFFFFFFFFFFFFF AND DUP2 JUMP JUMPDEST PUSH1 0x0 PUSH1 0x7 PUSH1 0x0 DUP4 PUSH20 0xFFFFFFFFFFFFFFFFFFFFFFFFFFFFFFFFFFFFFFFF AND PUSH20 0xFFFFFFFFFFFFFFFFFFFFFFFFFFFFFFFFFFFFFFFF AND DUP2 MSTORE PUSH1 0x20 ADD SWAP1 DUP2 MSTORE PUSH1 0x20 ADD PUSH1 0x0 KECCAK256 PUSH1 0x0 SWAP1 SLOAD SWAP1 PUSH2 0x100 EXP SWAP1 DIV PUSH20 0xFFFFFFFFFFFFFFFFFFFFFFFFFFFFFFFFFFFFFFFF AND SWAP1 POP SWAP2 SWAP1 POP JUMP JUMPDEST PUSH1 0x0 DUP1 PUSH1 0x0 DUP1 PUSH1 0x0 PUSH2 0x156C DUP7 PUSH2 0xCF3 JUMP JUMPDEST SWAP5 POP SWAP5 POP SWAP5 POP SWAP5 POP SWAP5 POP PUSH1 0x0 PUSH1 0x1 PUSH1 0x0 SWAP1 SLOAD SWAP1 PUSH2 0x100 EXP SWAP1 DIV PUSH20 0xFFFFFFFFFFFFFFFFFFFFFFFFFFFFFFFFFFFFFFFF AND PUSH20 0xFFFFFFFFFFFFFFFFFFFFFFFFFFFFFFFFFFFFFFFF AND PUSH4 0x8A97503D DUP7 DUP6 PUSH1 0x40 MLOAD DUP4 PUSH4 0xFFFFFFFF AND PUSH1 0xE0 SHL DUP2 MSTORE PUSH1 0x4 ADD PUSH2 0x15D5 SWAP3 SWAP2 SWAP1 PUSH2 0x27B2 JUMP JUMPDEST PUSH1 0x20 PUSH1 0x40 MLOAD DUP1 DUP4 SUB DUP2 DUP7 GAS STATICCALL ISZERO DUP1 ISZERO PUSH2 0x15F2 JUMPI RETURNDATASIZE PUSH1 0x0 DUP1 RETURNDATACOPY RETURNDATASIZE PUSH1 0x0 REVERT JUMPDEST POP POP POP POP PUSH1 0x40 MLOAD RETURNDATASIZE PUSH1 0x1F NOT PUSH1 0x1F DUP3 ADD AND DUP3 ADD DUP1 PUSH1 0x40 MSTORE POP DUP2 ADD SWAP1 PUSH2 0x1616 SWAP2 SWAP1 PUSH2 0x280E JUMP JUMPDEST SWAP1 POP PUSH1 0x1 PUSH1 0x0 SWAP1 SLOAD SWAP1 PUSH2 0x100 EXP SWAP1 DIV PUSH20 0xFFFFFFFFFFFFFFFFFFFFFFFFFFFFFFFFFFFFFFFF AND PUSH20 0xFFFFFFFFFFFFFFFFFFFFFFFFFFFFFFFFFFFFFFFF AND PUSH4 0x4268DDBD DUP9 DUP4 CALLER PUSH1 0x40 MLOAD DUP5 PUSH4 0xFFFFFFFF AND PUSH1 0xE0 SHL DUP2 MSTORE PUSH1 0x4 ADD PUSH2 0x1677 SWAP4 SWAP3 SWAP2 SWAP1 PUSH2 0x283B JUMP JUMPDEST PUSH1 0x20 PUSH1 0x40 MLOAD DUP1 DUP4 SUB DUP2 PUSH1 0x0 DUP8 GAS CALL ISZERO DUP1 ISZERO PUSH2 0x1696 JUMPI RETURNDATASIZE PUSH1 0x0 DUP1 RETURNDATACOPY RETURNDATASIZE PUSH1 0x0 REVERT JUMPDEST POP POP POP POP PUSH1 0x40 MLOAD RETURNDATASIZE PUSH1 0x1F NOT PUSH1 0x1F DUP3 ADD AND DUP3 ADD DUP1 PUSH1 0x40 MSTORE POP DUP2 ADD SWAP1 PUSH2 0x16BA SWAP2 SWAP1 PUSH2 0x289E JUMP JUMPDEST PUSH2 0x16F9 JUMPI PUSH1 0x40 MLOAD PUSH32 0x8C379A000000000000000000000000000000000000000000000000000000000 DUP2 MSTORE PUSH1 0x4 ADD PUSH2 0x16F0 SWAP1 PUSH2 0x293D JUMP JUMPDEST PUSH1 0x40 MLOAD DUP1 SWAP2 SUB SWAP1 REVERT JUMPDEST PUSH1 0x6 DUP8 DUP2 SLOAD DUP2 LT PUSH2 0x170D JUMPI PUSH2 0x170C PUSH2 0x26D7 JUMP JUMPDEST JUMPDEST SWAP1 PUSH1 0x0 MSTORE PUSH1 0x20 PUSH1 0x0 KECCAK256 SWAP1 PUSH1 0x5 MUL ADD PUSH1 0x0 DUP1 DUP3 ADD PUSH1 0x0 PUSH2 0x172C SWAP2 SWAP1 PUSH2 0x1E44 JUMP JUMPDEST PUSH1 0x1 DUP3 ADD PUSH1 0x0 PUSH2 0x100 EXP DUP2 SLOAD SWAP1 PUSH20 0xFFFFFFFFFFFFFFFFFFFFFFFFFFFFFFFFFFFFFFFF MUL NOT AND SWAP1 SSTORE PUSH1 0x2 DUP3 ADD PUSH1 0x0 PUSH2 0x1763 SWAP2 SWAP1 PUSH2 0x1E44 JUMP JUMPDEST PUSH1 0x3 DUP3 ADD PUSH1 0x0 PUSH2 0x1773 SWAP2 SWAP1 PUSH2 0x1E44 JUMP JUMPDEST PUSH1 0x4 DUP3 ADD PUSH1 0x0 PUSH2 0x100 EXP DUP2 SLOAD SWAP1 PUSH20 0xFFFFFFFFFFFFFFFFFFFFFFFFFFFFFFFFFFFFFFFF MUL NOT AND SWAP1 SSTORE POP POP POP POP POP POP POP POP POP JUMP JUMPDEST PUSH1 0x0 PUSH20 0xFFFFFFFFFFFFFFFFFFFFFFFFFFFFFFFFFFFFFFFF AND PUSH1 0x2 PUSH1 0x0 SWAP1 SLOAD SWAP1 PUSH2 0x100 EXP SWAP1 DIV PUSH20 0xFFFFFFFFFFFFFFFFFFFFFFFFFFFFFFFFFFFFFFFF AND PUSH20 0xFFFFFFFFFFFFFFFFFFFFFFFFFFFFFFFFFFFFFFFF AND PUSH4 0x839F602D CALLER PUSH1 0x40 MLOAD DUP3 PUSH4 0xFFFFFFFF AND PUSH1 0xE0 SHL DUP2 MSTORE PUSH1 0x4 ADD PUSH2 0x1818 SWAP2 SWAP1 PUSH2 0x20BA JUMP JUMPDEST PUSH1 0x20 PUSH1 0x40 MLOAD DUP1 DUP4 SUB DUP2 DUP7 GAS STATICCALL ISZERO DUP1 ISZERO PUSH2 0x1835 JUMPI RETURNDATASIZE PUSH1 0x0 DUP1 RETURNDATACOPY RETURNDATASIZE PUSH1 0x0 REVERT JUMPDEST POP POP POP POP PUSH1 0x40 MLOAD RETURNDATASIZE PUSH1 0x1F NOT PUSH1 0x1F DUP3 ADD AND DUP3 ADD DUP1 PUSH1 0x40 MSTORE POP DUP2 ADD SWAP1 PUSH2 0x1859 SWAP2 SWAP1 PUSH2 0x25DD JUMP JUMPDEST PUSH20 0xFFFFFFFFFFFFFFFFFFFFFFFFFFFFFFFFFFFFFFFF AND EQ ISZERO PUSH2 0x18B0 JUMPI PUSH1 0x40 MLOAD PUSH32 0x8C379A000000000000000000000000000000000000000000000000000000000 DUP2 MSTORE PUSH1 0x4 ADD PUSH2 0x18A7 SWAP1 PUSH2 0x29A9 JUMP JUMPDEST PUSH1 0x40 MLOAD DUP1 SWAP2 SUB SWAP1 REVERT JUMPDEST PUSH1 0x0 DUP1 PUSH1 0x0 DUP1 PUSH1 0x0 PUSH2 0x18C1 DUP7 PUSH2 0x733 JUMP JUMPDEST SWAP5 POP SWAP5 POP SWAP5 POP SWAP5 POP SWAP5 POP PUSH1 0x0 PUSH1 0x1 PUSH1 0x0 SWAP1 SLOAD SWAP1 PUSH2 0x100 EXP SWAP1 DIV PUSH20 0xFFFFFFFFFFFFFFFFFFFFFFFFFFFFFFFFFFFFFFFF AND PUSH20 0xFFFFFFFFFFFFFFFFFFFFFFFFFFFFFFFFFFFFFFFF AND PUSH4 0x8A97503D DUP7 DUP6 PUSH1 0x40 MLOAD DUP4 PUSH4 0xFFFFFFFF AND PUSH1 0xE0 SHL DUP2 MSTORE PUSH1 0x4 ADD PUSH2 0x192A SWAP3 SWAP2 SWAP1 PUSH2 0x27B2 JUMP JUMPDEST PUSH1 0x20 PUSH1 0x40 MLOAD DUP1 DUP4 SUB DUP2 DUP7 GAS STATICCALL ISZERO DUP1 ISZERO PUSH2 0x1947 JUMPI RETURNDATASIZE PUSH1 0x0 DUP1 RETURNDATACOPY RETURNDATASIZE PUSH1 0x0 REVERT JUMPDEST POP POP POP POP PUSH1 0x40 MLOAD RETURNDATASIZE PUSH1 0x1F NOT PUSH1 0x1F DUP3 ADD AND DUP3 ADD DUP1 PUSH1 0x40 MSTORE POP DUP2 ADD SWAP1 PUSH2 0x196B SWAP2 SWAP1 PUSH2 0x280E JUMP JUMPDEST SWAP1 POP PUSH1 0x1 PUSH1 0x0 SWAP1 SLOAD SWAP1 PUSH2 0x100 EXP SWAP1 DIV PUSH20 0xFFFFFFFFFFFFFFFFFFFFFFFFFFFFFFFFFFFFFFFF AND PUSH20 0xFFFFFFFFFFFFFFFFFFFFFFFFFFFFFFFFFFFFFFFF AND PUSH4 0x4268DDBD DUP9 DUP4 CALLER PUSH1 0x40 MLOAD DUP5 PUSH4 0xFFFFFFFF AND PUSH1 0xE0 SHL DUP2 MSTORE PUSH1 0x4 ADD PUSH2 0x19CC SWAP4 SWAP3 SWAP2 SWAP1 PUSH2 0x283B JUMP JUMPDEST PUSH1 0x20 PUSH1 0x40 MLOAD DUP1 DUP4 SUB DUP2 PUSH1 0x0 DUP8 GAS CALL ISZERO DUP1 ISZERO PUSH2 0x19EB JUMPI RETURNDATASIZE PUSH1 0x0 DUP1 RETURNDATACOPY RETURNDATASIZE PUSH1 0x0 REVERT JUMPDEST POP POP POP POP PUSH1 0x40 MLOAD RETURNDATASIZE PUSH1 0x1F NOT PUSH1 0x1F DUP3 ADD AND DUP3 ADD DUP1 PUSH1 0x40 MSTORE POP DUP2 ADD SWAP1 PUSH2 0x1A0F SWAP2 SWAP1 PUSH2 0x289E JUMP JUMPDEST PUSH2 0x1A4E JUMPI PUSH1 0x40 MLOAD PUSH32 0x8C379A000000000000000000000000000000000000000000000000000000000 DUP2 MSTORE PUSH1 0x4 ADD PUSH2 0x1A45 SWAP1 PUSH2 0x293D JUMP JUMPDEST PUSH1 0x40 MLOAD DUP1 SWAP2 SUB SWAP1 REVERT JUMPDEST PUSH1 0x5 DUP8 DUP2 SLOAD DUP2 LT PUSH2 0x1A62 JUMPI PUSH2 0x1A61 PUSH2 0x26D7 JUMP JUMPDEST JUMPDEST SWAP1 PUSH1 0x0 MSTORE PUSH1 0x20 PUSH1 0x0 KECCAK256 SWAP1 PUSH1 0x5 MUL ADD PUSH1 0x0 DUP1 DUP3 ADD PUSH1 0x0 PUSH2 0x1A81 SWAP2 SWAP1 PUSH2 0x1E44 JUMP JUMPDEST PUSH1 0x1 DUP3 ADD PUSH1 0x0 PUSH2 0x100 EXP DUP2 SLOAD SWAP1 PUSH20 0xFFFFFFFFFFFFFFFFFFFFFFFFFFFFFFFFFFFFFFFF MUL NOT AND SWAP1 SSTORE PUSH1 0x2 DUP3 ADD PUSH1 0x0 PUSH2 0x1AB8 SWAP2 SWAP1 PUSH2 0x1E44 JUMP JUMPDEST PUSH1 0x3 DUP3 ADD PUSH1 0x0 PUSH2 0x1AC8 SWAP2 SWAP1 PUSH2 0x1E44 JUMP JUMPDEST PUSH1 0x4 DUP3 ADD PUSH1 0x0 PUSH2 0x100 EXP DUP2 SLOAD SWAP1 PUSH20 0xFFFFFFFFFFFFFFFFFFFFFFFFFFFFFFFFFFFFFFFF MUL NOT AND SWAP1 SSTORE POP POP POP POP POP POP POP POP POP JUMP JUMPDEST PUSH1 0x0 PUSH1 0x1 PUSH1 0x0 SWAP1 SLOAD SWAP1 PUSH2 0x100 EXP SWAP1 DIV PUSH20 0xFFFFFFFFFFFFFFFFFFFFFFFFFFFFFFFFFFFFFFFF AND PUSH20 0xFFFFFFFFFFFFFFFFFFFFFFFFFFFFFFFFFFFFFFFF AND PUSH4 0x8A97503D DUP5 DUP5 PUSH1 0x40 MLOAD DUP4 PUSH4 0xFFFFFFFF AND PUSH1 0xE0 SHL DUP2 MSTORE PUSH1 0x4 ADD PUSH2 0x1B59 SWAP3 SWAP2 SWAP1 PUSH2 0x27B2 JUMP JUMPDEST PUSH1 0x20 PUSH1 0x40 MLOAD DUP1 DUP4 SUB DUP2 DUP7 GAS STATICCALL ISZERO DUP1 ISZERO PUSH2 0x1B76 JUMPI RETURNDATASIZE PUSH1 0x0 DUP1 RETURNDATACOPY RETURNDATASIZE PUSH1 0x0 REVERT JUMPDEST POP POP POP POP PUSH1 0x40 MLOAD RETURNDATASIZE PUSH1 0x1F NOT PUSH1 0x1F DUP3 ADD AND DUP3 ADD DUP1 PUSH1 0x40 MSTORE POP DUP2 ADD SWAP1 PUSH2 0x1B9A SWAP2 SWAP1 PUSH2 0x280E JUMP JUMPDEST SWAP1 POP PUSH1 0x0 PUSH1 0x1 PUSH1 0x0 SWAP1 SLOAD SWAP1 PUSH2 0x100 EXP SWAP1 DIV PUSH20 0xFFFFFFFFFFFFFFFFFFFFFFFFFFFFFFFFFFFFFFFF AND PUSH20 0xFFFFFFFFFFFFFFFFFFFFFFFFFFFFFFFFFFFFFFFF AND PUSH4 0x435DF20D DUP4 PUSH1 0x40 MLOAD DUP3 PUSH4 0xFFFFFFFF AND PUSH1 0xE0 SHL DUP2 MSTORE PUSH1 0x4 ADD PUSH2 0x1BF9 SWAP2 SWAP1 PUSH2 0x23A7 JUMP JUMPDEST PUSH1 0x0 PUSH1 0x40 MLOAD DUP1 DUP4 SUB DUP2 DUP7 GAS STATICCALL ISZERO DUP1 ISZERO PUSH2 0x1C16 JUMPI RETURNDATASIZE PUSH1 0x0 DUP1 RETURNDATACOPY RETURNDATASIZE PUSH1 0x0 REVERT JUMPDEST POP POP POP POP PUSH1 0x40 MLOAD RETURNDATASIZE PUSH1 0x0 DUP3 RETURNDATACOPY RETURNDATASIZE PUSH1 0x1F NOT PUSH1 0x1F DUP3 ADD AND DUP3 ADD DUP1 PUSH1 0x40 MSTORE POP DUP2 ADD SWAP1 PUSH2 0x1C3F SWAP2 SWAP1 PUSH2 0x2A39 JUMP JUMPDEST SWAP5 POP POP POP POP POP DUP1 PUSH20 0xFFFFFFFFFFFFFFFFFFFFFFFFFFFFFFFFFFFFFFFF AND CALLER PUSH20 0xFFFFFFFFFFFFFFFFFFFFFFFFFFFFFFFFFFFFFFFF AND EQ PUSH2 0x1C7D JUMPI PUSH1 0x0 DUP1 REVERT JUMPDEST PUSH1 0x1 PUSH1 0x0 SWAP1 SLOAD SWAP1 PUSH2 0x100 EXP SWAP1 DIV PUSH20 0xFFFFFFFFFFFFFFFFFFFFFFFFFFFFFFFFFFFFFFFF AND PUSH20 0xFFFFFFFFFFFFFFFFFFFFFFFFFFFFFFFFFFFFFFFF AND PUSH4 0x956A3545 DUP7 DUP5 PUSH1 0x40 MLOAD DUP4 PUSH4 0xFFFFFFFF AND PUSH1 0xE0 SHL DUP2 MSTORE PUSH1 0x4 ADD PUSH2 0x1CDA SWAP3 SWAP2 SWAP1 PUSH2 0x2B08 JUMP JUMPDEST PUSH1 0x20 PUSH1 0x40 MLOAD DUP1 DUP4 SUB DUP2 PUSH1 0x0 DUP8 GAS CALL ISZERO DUP1 ISZERO PUSH2 0x1CF9 JUMPI RETURNDATASIZE PUSH1 0x0 DUP1 RETURNDATACOPY RETURNDATASIZE PUSH1 0x0 REVERT JUMPDEST POP POP POP POP PUSH1 0x40 MLOAD RETURNDATASIZE PUSH1 0x1F NOT PUSH1 0x1F DUP3 ADD AND DUP3 ADD DUP1 PUSH1 0x40 MSTORE POP DUP2 ADD SWAP1 PUSH2 0x1D1D SWAP2 SWAP1 PUSH2 0x289E JUMP JUMPDEST PUSH2 0x1D5C JUMPI PUSH1 0x40 MLOAD PUSH32 0x8C379A000000000000000000000000000000000000000000000000000000000 DUP2 MSTORE PUSH1 0x4 ADD PUSH2 0x1D53 SWAP1 PUSH2 0x2BA3 JUMP JUMPDEST PUSH1 0x40 MLOAD DUP1 SWAP2 SUB SWAP1 REVERT JUMPDEST POP POP POP POP POP JUMP JUMPDEST PUSH1 0x40 MLOAD DUP1 PUSH1 0xA0 ADD PUSH1 0x40 MSTORE DUP1 PUSH1 0x60 DUP2 MSTORE PUSH1 0x20 ADD PUSH1 0x0 PUSH20 0xFFFFFFFFFFFFFFFFFFFFFFFFFFFFFFFFFFFFFFFF AND DUP2 MSTORE PUSH1 0x20 ADD PUSH1 0x60 DUP2 MSTORE PUSH1 0x20 ADD PUSH1 0x60 DUP2 MSTORE PUSH1 0x20 ADD PUSH1 0x0 PUSH20 0xFFFFFFFFFFFFFFFFFFFFFFFFFFFFFFFFFFFFFFFF AND DUP2 MSTORE POP SWAP1 JUMP JUMPDEST DUP3 DUP1 SLOAD PUSH2 0x1DCA SWAP1 PUSH2 0x2639 JUMP JUMPDEST SWAP1 PUSH1 0x0 MSTORE PUSH1 0x20 PUSH1 0x0 KECCAK256 SWAP1 PUSH1 0x1F ADD PUSH1 0x20 SWAP1 DIV DUP2 ADD SWAP3 DUP3 PUSH2 0x1DEC JUMPI PUSH1 0x0 DUP6 SSTORE PUSH2 0x1E33 JUMP JUMPDEST DUP3 PUSH1 0x1F LT PUSH2 0x1E05 JUMPI DUP1 MLOAD PUSH1 0xFF NOT AND DUP4 DUP1 ADD OR DUP6 SSTORE PUSH2 0x1E33 JUMP JUMPDEST DUP3 DUP1 ADD PUSH1 0x1 ADD DUP6 SSTORE DUP3 ISZERO PUSH2 0x1E33 JUMPI SWAP2 DUP3 ADD JUMPDEST DUP3 DUP2 GT ISZERO PUSH2 0x1E32 JUMPI DUP3 MLOAD DUP3 SSTORE SWAP2 PUSH1 0x20 ADD SWAP2 SWAP1 PUSH1 0x1 ADD SWAP1 PUSH2 0x1E17 JUMP JUMPDEST JUMPDEST POP SWAP1 POP PUSH2 0x1E40 SWAP2 SWAP1 PUSH2 0x1E84 JUMP JUMPDEST POP SWAP1 JUMP JUMPDEST POP DUP1 SLOAD PUSH2 0x1E50 SWAP1 PUSH2 0x2639 JUMP JUMPDEST PUSH1 0x0 DUP3 SSTORE DUP1 PUSH1 0x1F LT PUSH2 0x1E62 JUMPI POP PUSH2 0x1E81 JUMP JUMPDEST PUSH1 0x1F ADD PUSH1 0x20 SWAP1 DIV SWAP1 PUSH1 0x0 MSTORE PUSH1 0x20 PUSH1 0x0 KECCAK256 SWAP1 DUP2 ADD SWAP1 PUSH2 0x1E80 SWAP2 SWAP1 PUSH2 0x1E84 JUMP JUMPDEST JUMPDEST POP JUMP JUMPDEST JUMPDEST DUP1 DUP3 GT ISZERO PUSH2 0x1E9D JUMPI PUSH1 0x0 DUP2 PUSH1 0x0 SWAP1 SSTORE POP PUSH1 0x1 ADD PUSH2 0x1E85 JUMP JUMPDEST POP SWAP1 JUMP JUMPDEST PUSH1 0x0 DUP2 SWAP1 POP SWAP2 SWAP1 POP JUMP JUMPDEST PUSH2 0x1EB4 DUP2 PUSH2 0x1EA1 JUMP JUMPDEST DUP3 MSTORE POP POP JUMP JUMPDEST PUSH1 0x0 PUSH1 0x20 DUP3 ADD SWAP1 POP PUSH2 0x1ECF PUSH1 0x0 DUP4 ADD DUP5 PUSH2 0x1EAB JUMP JUMPDEST SWAP3 SWAP2 POP POP JUMP JUMPDEST PUSH1 0x0 DUP2 ISZERO ISZERO SWAP1 POP SWAP2 SWAP1 POP JUMP JUMPDEST PUSH2 0x1EEA DUP2 PUSH2 0x1ED5 JUMP JUMPDEST DUP3 MSTORE POP POP JUMP JUMPDEST PUSH1 0x0 PUSH1 0x20 DUP3 ADD SWAP1 POP PUSH2 0x1F05 PUSH1 0x0 DUP4 ADD DUP5 PUSH2 0x1EE1 JUMP JUMPDEST SWAP3 SWAP2 POP POP JUMP JUMPDEST PUSH1 0x0 PUSH1 0x40 MLOAD SWAP1 POP SWAP1 JUMP JUMPDEST PUSH1 0x0 DUP1 REVERT JUMPDEST PUSH1 0x0 DUP1 REVERT JUMPDEST PUSH2 0x1F28 DUP2 PUSH2 0x1EA1 JUMP JUMPDEST DUP2 EQ PUSH2 0x1F33 JUMPI PUSH1 0x0 DUP1 REVERT JUMPDEST POP JUMP JUMPDEST PUSH1 0x0 DUP2 CALLDATALOAD SWAP1 POP PUSH2 0x1F45 DUP2 PUSH2 0x1F1F JUMP JUMPDEST SWAP3 SWAP2 POP POP JUMP JUMPDEST PUSH1 0x0 PUSH1 0x20 DUP3 DUP5 SUB SLT ISZERO PUSH2 0x1F61 JUMPI PUSH2 0x1F60 PUSH2 0x1F15 JUMP JUMPDEST JUMPDEST PUSH1 0x0 PUSH2 0x1F6F DUP5 DUP3 DUP6 ADD PUSH2 0x1F36 JUMP JUMPDEST SWAP2 POP POP SWAP3 SWAP2 POP POP JUMP JUMPDEST PUSH1 0x0 DUP2 MLOAD SWAP1 POP SWAP2 SWAP1 POP JUMP JUMPDEST PUSH1 0x0 DUP3 DUP3 MSTORE PUSH1 0x20 DUP3 ADD SWAP1 POP SWAP3 SWAP2 POP POP JUMP JUMPDEST PUSH1 0x0 JUMPDEST DUP4 DUP2 LT ISZERO PUSH2 0x1FB2 JUMPI DUP1 DUP3 ADD MLOAD DUP2 DUP5 ADD MSTORE PUSH1 0x20 DUP2 ADD SWAP1 POP PUSH2 0x1F97 JUMP JUMPDEST DUP4 DUP2 GT ISZERO PUSH2 0x1FC1 JUMPI PUSH1 0x0 DUP5 DUP5 ADD MSTORE JUMPDEST POP POP POP POP JUMP JUMPDEST PUSH1 0x0 PUSH1 0x1F NOT PUSH1 0x1F DUP4 ADD AND SWAP1 POP SWAP2 SWAP1 POP JUMP JUMPDEST PUSH1 0x0 PUSH2 0x1FE3 DUP3 PUSH2 0x1F78 JUMP JUMPDEST PUSH2 0x1FED DUP2 DUP6 PUSH2 0x1F83 JUMP JUMPDEST SWAP4 POP PUSH2 0x1FFD DUP2 DUP6 PUSH1 0x20 DUP7 ADD PUSH2 0x1F94 JUMP JUMPDEST PUSH2 0x2006 DUP2 PUSH2 0x1FC7 JUMP JUMPDEST DUP5 ADD SWAP2 POP POP SWAP3 SWAP2 POP POP JUMP JUMPDEST PUSH1 0x0 PUSH20 0xFFFFFFFFFFFFFFFFFFFFFFFFFFFFFFFFFFFFFFFF DUP3 AND SWAP1 POP SWAP2 SWAP1 POP JUMP JUMPDEST PUSH1 0x0 PUSH2 0x203C DUP3 PUSH2 0x2011 JUMP JUMPDEST SWAP1 POP SWAP2 SWAP1 POP JUMP JUMPDEST PUSH2 0x204C DUP2 PUSH2 0x2031 JUMP JUMPDEST DUP3 MSTORE POP POP JUMP JUMPDEST PUSH1 0x0 PUSH1 0xA0 DUP3 ADD SWAP1 POP DUP2 DUP2 SUB PUSH1 0x0 DUP4 ADD MSTORE PUSH2 0x206C DUP2 DUP9 PUSH2 0x1FD8 JUMP JUMPDEST SWAP1 POP PUSH2 0x207B PUSH1 0x20 DUP4 ADD DUP8 PUSH2 0x2043 JUMP JUMPDEST DUP2 DUP2 SUB PUSH1 0x40 DUP4 ADD MSTORE PUSH2 0x208D DUP2 DUP7 PUSH2 0x1FD8 JUMP JUMPDEST SWAP1 POP DUP2 DUP2 SUB PUSH1 0x60 DUP4 ADD MSTORE PUSH2 0x20A1 DUP2 DUP6 PUSH2 0x1FD8 JUMP JUMPDEST SWAP1 POP PUSH2 0x20B0 PUSH1 0x80 DUP4 ADD DUP5 PUSH2 0x2043 JUMP JUMPDEST SWAP7 SWAP6 POP POP POP POP POP POP JUMP JUMPDEST PUSH1 0x0 PUSH1 0x20 DUP3 ADD SWAP1 POP PUSH2 0x20CF PUSH1 0x0 DUP4 ADD DUP5 PUSH2 0x2043 JUMP JUMPDEST SWAP3 SWAP2 POP POP JUMP JUMPDEST PUSH1 0x0 DUP1 REVERT JUMPDEST PUSH1 0x0 DUP1 REVERT JUMPDEST PUSH32 0x4E487B7100000000000000000000000000000000000000000000000000000000 PUSH1 0x0 MSTORE PUSH1 0x41 PUSH1 0x4 MSTORE PUSH1 0x24 PUSH1 0x0 REVERT JUMPDEST PUSH2 0x2117 DUP3 PUSH2 0x1FC7 JUMP JUMPDEST DUP2 ADD DUP2 DUP2 LT PUSH8 0xFFFFFFFFFFFFFFFF DUP3 GT OR ISZERO PUSH2 0x2136 JUMPI PUSH2 0x2135 PUSH2 0x20DF JUMP JUMPDEST JUMPDEST DUP1 PUSH1 0x40 MSTORE POP POP POP JUMP JUMPDEST PUSH1 0x0 PUSH2 0x2149 PUSH2 0x1F0B JUMP JUMPDEST SWAP1 POP PUSH2 0x2155 DUP3 DUP3 PUSH2 0x210E JUMP JUMPDEST SWAP2 SWAP1 POP JUMP JUMPDEST PUSH1 0x0 PUSH8 0xFFFFFFFFFFFFFFFF DUP3 GT ISZERO PUSH2 0x2175 JUMPI PUSH2 0x2174 PUSH2 0x20DF JUMP JUMPDEST JUMPDEST PUSH2 0x217E DUP3 PUSH2 0x1FC7 JUMP JUMPDEST SWAP1 POP PUSH1 0x20 DUP2 ADD SWAP1 POP SWAP2 SWAP1 POP JUMP JUMPDEST DUP3 DUP2 DUP4 CALLDATACOPY PUSH1 0x0 DUP4 DUP4 ADD MSTORE POP POP POP JUMP JUMPDEST PUSH1 0x0 PUSH2 0x21AD PUSH2 0x21A8 DUP5 PUSH2 0x215A JUMP JUMPDEST PUSH2 0x213F JUMP JUMPDEST SWAP1 POP DUP3 DUP2 MSTORE PUSH1 0x20 DUP2 ADD DUP5 DUP5 DUP5 ADD GT ISZERO PUSH2 0x21C9 JUMPI PUSH2 0x21C8 PUSH2 0x20DA JUMP JUMPDEST JUMPDEST PUSH2 0x21D4 DUP5 DUP3 DUP6 PUSH2 0x218B JUMP JUMPDEST POP SWAP4 SWAP3 POP POP POP JUMP JUMPDEST PUSH1 0x0 DUP3 PUSH1 0x1F DUP4 ADD SLT PUSH2 0x21F1 JUMPI PUSH2 0x21F0 PUSH2 0x20D5 JUMP JUMPDEST JUMPDEST DUP2 CALLDATALOAD PUSH2 0x2201 DUP5 DUP3 PUSH1 0x20 DUP7 ADD PUSH2 0x219A JUMP JUMPDEST SWAP2 POP POP SWAP3 SWAP2 POP POP JUMP JUMPDEST PUSH2 0x2213 DUP2 PUSH2 0x2031 JUMP JUMPDEST DUP2 EQ PUSH2 0x221E JUMPI PUSH1 0x0 DUP1 REVERT JUMPDEST POP JUMP JUMPDEST PUSH1 0x0 DUP2 CALLDATALOAD SWAP1 POP PUSH2 0x2230 DUP2 PUSH2 0x220A JUMP JUMPDEST SWAP3 SWAP2 POP POP JUMP JUMPDEST PUSH1 0x0 DUP1 PUSH1 0x0 DUP1 PUSH1 0x0 PUSH1 0xA0 DUP7 DUP9 SUB SLT ISZERO PUSH2 0x2252 JUMPI PUSH2 0x2251 PUSH2 0x1F15 JUMP JUMPDEST JUMPDEST PUSH1 0x0 DUP7 ADD CALLDATALOAD PUSH8 0xFFFFFFFFFFFFFFFF DUP2 GT ISZERO PUSH2 0x2270 JUMPI PUSH2 0x226F PUSH2 0x1F1A JUMP JUMPDEST JUMPDEST PUSH2 0x227C DUP9 DUP3 DUP10 ADD PUSH2 0x21DC JUMP JUMPDEST SWAP6 POP POP PUSH1 0x20 PUSH2 0x228D DUP9 DUP3 DUP10 ADD PUSH2 0x2221 JUMP JUMPDEST SWAP5 POP POP PUSH1 0x40 DUP7 ADD CALLDATALOAD PUSH8 0xFFFFFFFFFFFFFFFF DUP2 GT ISZERO PUSH2 0x22AE JUMPI PUSH2 0x22AD PUSH2 0x1F1A JUMP JUMPDEST JUMPDEST PUSH2 0x22BA DUP9 DUP3 DUP10 ADD PUSH2 0x21DC JUMP JUMPDEST SWAP4 POP POP PUSH1 0x60 DUP7 ADD CALLDATALOAD PUSH8 0xFFFFFFFFFFFFFFFF DUP2 GT ISZERO PUSH2 0x22DB JUMPI PUSH2 0x22DA PUSH2 0x1F1A JUMP JUMPDEST JUMPDEST PUSH2 0x22E7 DUP9 DUP3 DUP10 ADD PUSH2 0x21DC JUMP JUMPDEST SWAP3 POP POP PUSH1 0x80 PUSH2 0x22F8 DUP9 DUP3 DUP10 ADD PUSH2 0x2221 JUMP JUMPDEST SWAP2 POP POP SWAP3 SWAP6 POP SWAP3 SWAP6 SWAP1 SWAP4 POP JUMP JUMPDEST PUSH1 0x0 PUSH1 0x20 DUP3 DUP5 SUB SLT ISZERO PUSH2 0x231B JUMPI PUSH2 0x231A PUSH2 0x1F15 JUMP JUMPDEST JUMPDEST PUSH1 0x0 PUSH2 0x2329 DUP5 DUP3 DUP6 ADD PUSH2 0x2221 JUMP JUMPDEST SWAP2 POP POP SWAP3 SWAP2 POP POP JUMP JUMPDEST PUSH1 0x0 DUP1 PUSH1 0x40 DUP4 DUP6 SUB SLT ISZERO PUSH2 0x2349 JUMPI PUSH2 0x2348 PUSH2 0x1F15 JUMP JUMPDEST JUMPDEST PUSH1 0x0 PUSH2 0x2357 DUP6 DUP3 DUP7 ADD PUSH2 0x2221 JUMP JUMPDEST SWAP3 POP POP PUSH1 0x20 DUP4 ADD CALLDATALOAD PUSH8 0xFFFFFFFFFFFFFFFF DUP2 GT ISZERO PUSH2 0x2378 JUMPI PUSH2 0x2377 PUSH2 0x1F1A JUMP JUMPDEST JUMPDEST PUSH2 0x2384 DUP6 DUP3 DUP7 ADD PUSH2 0x21DC JUMP JUMPDEST SWAP2 POP POP SWAP3 POP SWAP3 SWAP1 POP JUMP JUMPDEST PUSH1 0x0 DUP2 SWAP1 POP SWAP2 SWAP1 POP JUMP JUMPDEST PUSH2 0x23A1 DUP2 PUSH2 0x238E JUMP JUMPDEST DUP3 MSTORE POP POP JUMP JUMPDEST PUSH1 0x0 PUSH1 0x20 DUP3 ADD SWAP1 POP PUSH2 0x23BC PUSH1 0x0 DUP4 ADD DUP5 PUSH2 0x2398 JUMP JUMPDEST SWAP3 SWAP2 POP POP JUMP JUMPDEST PUSH1 0x0 DUP1 PUSH1 0x0 DUP1 PUSH1 0x0 DUP1 PUSH1 0xC0 DUP8 DUP10 SUB SLT ISZERO PUSH2 0x23DF JUMPI PUSH2 0x23DE PUSH2 0x1F15 JUMP JUMPDEST JUMPDEST PUSH1 0x0 DUP8 ADD CALLDATALOAD PUSH8 0xFFFFFFFFFFFFFFFF DUP2 GT ISZERO PUSH2 0x23FD JUMPI PUSH2 0x23FC PUSH2 0x1F1A JUMP JUMPDEST JUMPDEST PUSH2 0x2409 DUP10 DUP3 DUP11 ADD PUSH2 0x21DC JUMP JUMPDEST SWAP7 POP POP PUSH1 0x20 PUSH2 0x241A DUP10 DUP3 DUP11 ADD PUSH2 0x2221 JUMP JUMPDEST SWAP6 POP POP PUSH1 0x40 DUP8 ADD CALLDATALOAD PUSH8 0xFFFFFFFFFFFFFFFF DUP2 GT ISZERO PUSH2 0x243B JUMPI PUSH2 0x243A PUSH2 0x1F1A JUMP JUMPDEST JUMPDEST PUSH2 0x2447 DUP10 DUP3 DUP11 ADD PUSH2 0x21DC JUMP JUMPDEST SWAP5 POP POP PUSH1 0x60 DUP8 ADD CALLDATALOAD PUSH8 0xFFFFFFFFFFFFFFFF DUP2 GT ISZERO PUSH2 0x2468 JUMPI PUSH2 0x2467 PUSH2 0x1F1A JUMP JUMPDEST JUMPDEST PUSH2 0x2474 DUP10 DUP3 DUP11 ADD PUSH2 0x21DC JUMP JUMPDEST SWAP4 POP POP PUSH1 0x80 PUSH2 0x2485 DUP10 DUP3 DUP11 ADD PUSH2 0x2221 JUMP JUMPDEST SWAP3 POP POP PUSH1 0xA0 PUSH2 0x2496 DUP10 DUP3 DUP11 ADD PUSH2 0x2221 JUMP JUMPDEST SWAP2 POP POP SWAP3 SWAP6 POP SWAP3 SWAP6 POP SWAP3 SWAP6 JUMP JUMPDEST PUSH1 0x0 DUP2 SWAP1 POP SWAP2 SWAP1 POP JUMP JUMPDEST PUSH1 0x0 PUSH2 0x24C8 PUSH2 0x24C3 PUSH2 0x24BE DUP5 PUSH2 0x2011 JUMP JUMPDEST PUSH2 0x24A3 JUMP JUMPDEST PUSH2 0x2011 JUMP JUMPDEST SWAP1 POP SWAP2 SWAP1 POP JUMP JUMPDEST PUSH1 0x0 PUSH2 0x24DA DUP3 PUSH2 0x24AD JUMP JUMPDEST SWAP1 POP SWAP2 SWAP1 POP JUMP JUMPDEST PUSH1 0x0 PUSH2 0x24EC DUP3 PUSH2 0x24CF JUMP JUMPDEST SWAP1 POP SWAP2 SWAP1 POP JUMP JUMPDEST PUSH2 0x24FC DUP2 PUSH2 0x24E1 JUMP JUMPDEST DUP3 MSTORE POP POP JUMP JUMPDEST PUSH1 0x0 PUSH1 0x20 DUP3 ADD SWAP1 POP PUSH2 0x2517 PUSH1 0x0 DUP4 ADD DUP5 PUSH2 0x24F3 JUMP JUMPDEST SWAP3 SWAP2 POP POP JUMP JUMPDEST PUSH1 0x0 PUSH2 0x2528 DUP3 PUSH2 0x24CF JUMP JUMPDEST SWAP1 POP SWAP2 SWAP1 POP JUMP JUMPDEST PUSH2 0x2538 DUP2 PUSH2 0x251D JUMP JUMPDEST DUP3 MSTORE POP POP JUMP JUMPDEST PUSH1 0x0 PUSH1 0x20 DUP3 ADD SWAP1 POP PUSH2 0x2553 PUSH1 0x0 DUP4 ADD DUP5 PUSH2 0x252F JUMP JUMPDEST SWAP3 SWAP2 POP POP JUMP JUMPDEST PUSH1 0x0 DUP1 PUSH1 0x0 PUSH1 0x60 DUP5 DUP7 SUB SLT ISZERO PUSH2 0x2572 JUMPI PUSH2 0x2571 PUSH2 0x1F15 JUMP JUMPDEST JUMPDEST PUSH1 0x0 PUSH2 0x2580 DUP7 DUP3 DUP8 ADD PUSH2 0x1F36 JUMP JUMPDEST SWAP4 POP POP PUSH1 0x20 PUSH2 0x2591 DUP7 DUP3 DUP8 ADD PUSH2 0x2221 JUMP JUMPDEST SWAP3 POP POP PUSH1 0x40 DUP5 ADD CALLDATALOAD PUSH8 0xFFFFFFFFFFFFFFFF DUP2 GT ISZERO PUSH2 0x25B2 JUMPI PUSH2 0x25B1 PUSH2 0x1F1A JUMP JUMPDEST JUMPDEST PUSH2 0x25BE DUP7 DUP3 DUP8 ADD PUSH2 0x21DC JUMP JUMPDEST SWAP2 POP POP SWAP3 POP SWAP3 POP SWAP3 JUMP JUMPDEST PUSH1 0x0 DUP2 MLOAD SWAP1 POP PUSH2 0x25D7 DUP2 PUSH2 0x220A JUMP JUMPDEST SWAP3 SWAP2 POP POP JUMP JUMPDEST PUSH1 0x0 PUSH1 0x20 DUP3 DUP5 SUB SLT ISZERO PUSH2 0x25F3 JUMPI PUSH2 0x25F2 PUSH2 0x1F15 JUMP JUMPDEST JUMPDEST PUSH1 0x0 PUSH2 0x2601 DUP5 DUP3 DUP6 ADD PUSH2 0x25C8 JUMP JUMPDEST SWAP2 POP POP SWAP3 SWAP2 POP POP JUMP JUMPDEST PUSH32 0x4E487B7100000000000000000000000000000000000000000000000000000000 PUSH1 0x0 MSTORE PUSH1 0x22 PUSH1 0x4 MSTORE PUSH1 0x24 PUSH1 0x0 REVERT JUMPDEST PUSH1 0x0 PUSH1 0x2 DUP3 DIV SWAP1 POP PUSH1 0x1 DUP3 AND DUP1 PUSH2 0x2651 JUMPI PUSH1 0x7F DUP3 AND SWAP2 POP JUMPDEST PUSH1 0x20 DUP3 LT DUP2 EQ ISZERO PUSH2 0x2665 JUMPI PUSH2 0x2664 PUSH2 0x260A JUMP JUMPDEST JUMPDEST POP SWAP2 SWAP1 POP JUMP JUMPDEST PUSH32 0x496E646578206F7574206F6620626F756E647300000000000000000000000000 PUSH1 0x0 DUP3 ADD MSTORE POP JUMP JUMPDEST PUSH1 0x0 PUSH2 0x26A1 PUSH1 0x13 DUP4 PUSH2 0x1F83 JUMP JUMPDEST SWAP2 POP PUSH2 0x26AC DUP3 PUSH2 0x266B JUMP JUMPDEST PUSH1 0x20 DUP3 ADD SWAP1 POP SWAP2 SWAP1 POP JUMP JUMPDEST PUSH1 0x0 PUSH1 0x20 DUP3 ADD SWAP1 POP DUP2 DUP2 SUB PUSH1 0x0 DUP4 ADD MSTORE PUSH2 0x26D0 DUP2 PUSH2 0x2694 JUMP JUMPDEST SWAP1 POP SWAP2 SWAP1 POP JUMP JUMPDEST PUSH32 0x4E487B7100000000000000000000000000000000000000000000000000000000 PUSH1 0x0 MSTORE PUSH1 0x32 PUSH1 0x4 MSTORE PUSH1 0x24 PUSH1 0x0 REVERT JUMPDEST PUSH1 0x0 DUP2 PUSH1 0x60 SHL SWAP1 POP SWAP2 SWAP1 POP JUMP JUMPDEST PUSH1 0x0 PUSH2 0x271E DUP3 PUSH2 0x2706 JUMP JUMPDEST SWAP1 POP SWAP2 SWAP1 POP JUMP JUMPDEST PUSH1 0x0 PUSH2 0x2730 DUP3 PUSH2 0x2713 JUMP JUMPDEST SWAP1 POP SWAP2 SWAP1 POP JUMP JUMPDEST PUSH2 0x2748 PUSH2 0x2743 DUP3 PUSH2 0x2031 JUMP JUMPDEST PUSH2 0x2725 JUMP JUMPDEST DUP3 MSTORE POP POP JUMP JUMPDEST PUSH1 0x0 DUP2 SWAP1 POP SWAP3 SWAP2 POP POP JUMP JUMPDEST PUSH1 0x0 PUSH2 0x2764 DUP3 PUSH2 0x1F78 JUMP JUMPDEST PUSH2 0x276E DUP2 DUP6 PUSH2 0x274E JUMP JUMPDEST SWAP4 POP PUSH2 0x277E DUP2 DUP6 PUSH1 0x20 DUP7 ADD PUSH2 0x1F94 JUMP JUMPDEST DUP1 DUP5 ADD SWAP2 POP POP SWAP3 SWAP2 POP POP JUMP JUMPDEST PUSH1 0x0 PUSH2 0x2796 DUP3 DUP6 PUSH2 0x2737 JUMP JUMPDEST PUSH1 0x14 DUP3 ADD SWAP2 POP PUSH2 0x27A6 DUP3 DUP5 PUSH2 0x2759 JUMP JUMPDEST SWAP2 POP DUP2 SWAP1 POP SWAP4 SWAP3 POP POP POP JUMP JUMPDEST PUSH1 0x0 PUSH1 0x40 DUP3 ADD SWAP1 POP PUSH2 0x27C7 PUSH1 0x0 DUP4 ADD DUP6 PUSH2 0x2043 JUMP JUMPDEST DUP2 DUP2 SUB PUSH1 0x20 DUP4 ADD MSTORE PUSH2 0x27D9 DUP2 DUP5 PUSH2 0x1FD8 JUMP JUMPDEST SWAP1 POP SWAP4 SWAP3 POP POP POP JUMP JUMPDEST PUSH2 0x27EB DUP2 PUSH2 0x238E JUMP JUMPDEST DUP2 EQ PUSH2 0x27F6 JUMPI PUSH1 0x0 DUP1 REVERT JUMPDEST POP JUMP JUMPDEST PUSH1 0x0 DUP2 MLOAD SWAP1 POP PUSH2 0x2808 DUP2 PUSH2 0x27E2 JUMP JUMPDEST SWAP3 SWAP2 POP POP JUMP JUMPDEST PUSH1 0x0 PUSH1 0x20 DUP3 DUP5 SUB SLT ISZERO PUSH2 0x2824 JUMPI PUSH2 0x2823 PUSH2 0x1F15 JUMP JUMPDEST JUMPDEST PUSH1 0x0 PUSH2 0x2832 DUP5 DUP3 DUP6 ADD PUSH2 0x27F9 JUMP JUMPDEST SWAP2 POP POP SWAP3 SWAP2 POP POP JUMP JUMPDEST PUSH1 0x0 PUSH1 0x60 DUP3 ADD SWAP1 POP PUSH2 0x2850 PUSH1 0x0 DUP4 ADD DUP7 PUSH2 0x1EAB JUMP JUMPDEST PUSH2 0x285D PUSH1 0x20 DUP4 ADD DUP6 PUSH2 0x2398 JUMP JUMPDEST PUSH2 0x286A PUSH1 0x40 DUP4 ADD DUP5 PUSH2 0x2043 JUMP JUMPDEST SWAP5 SWAP4 POP POP POP POP JUMP JUMPDEST PUSH2 0x287B DUP2 PUSH2 0x1ED5 JUMP JUMPDEST DUP2 EQ PUSH2 0x2886 JUMPI PUSH1 0x0 DUP1 REVERT JUMPDEST POP JUMP JUMPDEST PUSH1 0x0 DUP2 MLOAD SWAP1 POP PUSH2 0x2898 DUP2 PUSH2 0x2872 JUMP JUMPDEST SWAP3 SWAP2 POP POP JUMP JUMPDEST PUSH1 0x0 PUSH1 0x20 DUP3 DUP5 SUB SLT ISZERO PUSH2 0x28B4 JUMPI PUSH2 0x28B3 PUSH2 0x1F15 JUMP JUMPDEST JUMPDEST PUSH1 0x0 PUSH2 0x28C2 DUP5 DUP3 DUP6 ADD PUSH2 0x2889 JUMP JUMPDEST SWAP2 POP POP SWAP3 SWAP2 POP POP JUMP JUMPDEST PUSH32 0x4661696C656420746F2061646420696E7374697475746520746F207374756465 PUSH1 0x0 DUP3 ADD MSTORE PUSH32 0x6E7420696E666F00000000000000000000000000000000000000000000000000 PUSH1 0x20 DUP3 ADD MSTORE POP JUMP JUMPDEST PUSH1 0x0 PUSH2 0x2927 PUSH1 0x27 DUP4 PUSH2 0x1F83 JUMP JUMPDEST SWAP2 POP PUSH2 0x2932 DUP3 PUSH2 0x28CB JUMP JUMPDEST PUSH1 0x40 DUP3 ADD SWAP1 POP SWAP2 SWAP1 POP JUMP JUMPDEST PUSH1 0x0 PUSH1 0x20 DUP3 ADD SWAP1 POP DUP2 DUP2 SUB PUSH1 0x0 DUP4 ADD MSTORE PUSH2 0x2956 DUP2 PUSH2 0x291A JUMP JUMPDEST SWAP1 POP SWAP2 SWAP1 POP JUMP JUMPDEST PUSH32 0x596F7520617265206E6F7420417574686F72697A656421000000000000000000 PUSH1 0x0 DUP3 ADD MSTORE POP JUMP JUMPDEST PUSH1 0x0 PUSH2 0x2993 PUSH1 0x17 DUP4 PUSH2 0x1F83 JUMP JUMPDEST SWAP2 POP PUSH2 0x299E DUP3 PUSH2 0x295D JUMP JUMPDEST PUSH1 0x20 DUP3 ADD SWAP1 POP SWAP2 SWAP1 POP JUMP JUMPDEST PUSH1 0x0 PUSH1 0x20 DUP3 ADD SWAP1 POP DUP2 DUP2 SUB PUSH1 0x0 DUP4 ADD MSTORE PUSH2 0x29C2 DUP2 PUSH2 0x2986 JUMP JUMPDEST SWAP1 POP SWAP2 SWAP1 POP JUMP JUMPDEST PUSH1 0x0 PUSH2 0x29DC PUSH2 0x29D7 DUP5 PUSH2 0x215A JUMP JUMPDEST PUSH2 0x213F JUMP JUMPDEST SWAP1 POP DUP3 DUP2 MSTORE PUSH1 0x20 DUP2 ADD DUP5 DUP5 DUP5 ADD GT ISZERO PUSH2 0x29F8 JUMPI PUSH2 0x29F7 PUSH2 0x20DA JUMP JUMPDEST JUMPDEST PUSH2 0x2A03 DUP5 DUP3 DUP6 PUSH2 0x1F94 JUMP JUMPDEST POP SWAP4 SWAP3 POP POP POP JUMP JUMPDEST PUSH1 0x0 DUP3 PUSH1 0x1F DUP4 ADD SLT PUSH2 0x2A20 JUMPI PUSH2 0x2A1F PUSH2 0x20D5 JUMP JUMPDEST JUMPDEST DUP2 MLOAD PUSH2 0x2A30 DUP5 DUP3 PUSH1 0x20 DUP7 ADD PUSH2 0x29C9 JUMP JUMPDEST SWAP2 POP POP SWAP3 SWAP2 POP POP JUMP JUMPDEST PUSH1 0x0 DUP1 PUSH1 0x0 DUP1 PUSH1 0x0 PUSH1 0xA0 DUP7 DUP9 SUB SLT ISZERO PUSH2 0x2A55 JUMPI PUSH2 0x2A54 PUSH2 0x1F15 JUMP JUMPDEST JUMPDEST PUSH1 0x0 DUP7 ADD MLOAD PUSH8 0xFFFFFFFFFFFFFFFF DUP2 GT ISZERO PUSH2 0x2A73 JUMPI PUSH2 0x2A72 PUSH2 0x1F1A JUMP JUMPDEST JUMPDEST PUSH2 0x2A7F DUP9 DUP3 DUP10 ADD PUSH2 0x2A0B JUMP JUMPDEST SWAP6 POP POP PUSH1 0x20 PUSH2 0x2A90 DUP9 DUP3 DUP10 ADD PUSH2 0x25C8 JUMP JUMPDEST SWAP5 POP POP PUSH1 0x40 DUP7 ADD MLOAD PUSH8 0xFFFFFFFFFFFFFFFF DUP2 GT ISZERO PUSH2 0x2AB1 JUMPI PUSH2 0x2AB0 PUSH2 0x1F1A JUMP JUMPDEST JUMPDEST PUSH2 0x2ABD DUP9 DUP3 DUP10 ADD PUSH2 0x2A0B JUMP JUMPDEST SWAP4 POP POP PUSH1 0x60 DUP7 ADD MLOAD PUSH8 0xFFFFFFFFFFFFFFFF DUP2 GT ISZERO PUSH2 0x2ADE JUMPI PUSH2 0x2ADD PUSH2 0x1F1A JUMP JUMPDEST JUMPDEST PUSH2 0x2AEA DUP9 DUP3 DUP10 ADD PUSH2 0x2A0B JUMP JUMPDEST SWAP3 POP POP PUSH1 0x80 PUSH2 0x2AFB DUP9 DUP3 DUP10 ADD PUSH2 0x25C8 JUMP JUMPDEST SWAP2 POP POP SWAP3 SWAP6 POP SWAP3 SWAP6 SWAP1 SWAP4 POP JUMP JUMPDEST PUSH1 0x0 PUSH1 0x40 DUP3 ADD SWAP1 POP PUSH2 0x2B1D PUSH1 0x0 DUP4 ADD DUP6 PUSH2 0x1EAB JUMP JUMPDEST PUSH2 0x2B2A PUSH1 0x20 DUP4 ADD DUP5 PUSH2 0x2398 JUMP JUMPDEST SWAP4 SWAP3 POP POP POP JUMP JUMPDEST PUSH32 0x4661696C656420746F2072656D6F766520696E737469747574652066726F6D20 PUSH1 0x0 DUP3 ADD MSTORE PUSH32 0x73747564656E7420696E666F0000000000000000000000000000000000000000 PUSH1 0x20 DUP3 ADD MSTORE POP JUMP JUMPDEST PUSH1 0x0 PUSH2 0x2B8D PUSH1 0x2C DUP4 PUSH2 0x1F83 JUMP JUMPDEST SWAP2 POP PUSH2 0x2B98 DUP3 PUSH2 0x2B31 JUMP JUMPDEST PUSH1 0x40 DUP3 ADD SWAP1 POP SWAP2 SWAP1 POP JUMP JUMPDEST PUSH1 0x0 PUSH1 0x20 DUP3 ADD SWAP1 POP DUP2 DUP2 SUB PUSH1 0x0 DUP4 ADD MSTORE PUSH2 0x2BBC DUP2 PUSH2 0x2B80 JUMP JUMPDEST SWAP1 POP SWAP2 SWAP1 POP JUMP INVALID LOG2 PUSH5 0x6970667358 0x22 SLT KECCAK256 0xBC CREATE 0xDC 0x28 BYTE DUP14 DUP10 SHL 0xEA 0xC7 LOG1 0xAE 0xE 0xE5 DUP9 SELFBALANCE 0xB5 PUSH3 0xEFF805 0xD6 0xBC 0xD 0xDD 0x2D 0xE3 SELFBALANCE DUP10 PUSH32 0xEFE864736F6C634300080A003300000000000000000000000000000000000000 "
    },
    "gasEstimates": {
      "creation": {
        "codeDepositCost": "2251400",
        "executionCost": "infinite",
        "totalCost": "infinite"
      },
      "external": {
        "MOE()": "2623",
        "StudentsCount()": "2469",
        "addStudToPending(string,address,string,string,address)": "infinite",
        "addTransferStudToPending(string,address,string,string,address,address)": "infinite",
        "checkFunction()": "infinite",
        "generateKey(address,string)": "infinite",
        "getPendingStudentByindex(uint256)": "infinite",
        "getPendingStudentsCount()": "2512",
        "getStudentContractByAddress(address)": "infinite",
        "getTransferStudentByindex(uint256)": "infinite",
        "getTransferStudentsCount()": "2556",
        "instregd()": "infinite",
        "isStudent(address)": "2949",
        "pendingStudentsarray(uint256)": "infinite",
        "removeGraduateStud(uint256,address,string)": "infinite",
        "studentRegisterContractAddress()": "2603",
        "studreg()": "infinite",
        "transferStudentsarray(uint256)": "infinite",
        "trialnumber()": "2518",
        "verifyTransferstudent(uint256)": "infinite",
        "verifystudent(uint256)": "infinite"
      }
    },
    "methodIdentifiers": {
      "MOE()": "673a1746",
      "StudentsCount()": "20b260e3",
      "addStudToPending(string,address,string,string,address)": "78cfe85e",
      "addTransferStudToPending(string,address,string,string,address,address)": "b16f9023",
      "checkFunction()": "2ecca5fe",
      "generateKey(address,string)": "8a97503d",
      "getPendingStudentByindex(uint256)": "5b969a04",
      "getPendingStudentsCount()": "b1be843d",
      "getStudentContractByAddress(address)": "ca90543d",
      "getTransferStudentByindex(uint256)": "a4156aec",
      "getTransferStudentsCount()": "a2a1fee5",
      "instregd()": "bae0a585",
      "isStudent(address)": "82f7d392",
      "pendingStudentsarray(uint256)": "bd6a8504",
      "removeGraduateStud(uint256,address,string)": "f20bcf9a",
      "studentRegisterContractAddress()": "b7774c1a",
      "studreg()": "c865d881",
      "transferStudentsarray(uint256)": "548d434e",
      "trialnumber()": "911018ef",
      "verifyTransferstudent(uint256)": "da085b7a",
      "verifystudent(uint256)": "f00c848d"
    }
  },
  "storageLayout": {
    "storage": [
      {
        "astId": 2243,
        "contract": "verifystud.sol:verifystud",
        "label": "MOE",
        "offset": 0,
        "slot": "0",
        "type": "t_address"
      },
      {
        "astId": 2246,
        "contract": "verifystud.sol:verifystud",
        "label": "studreg",
        "offset": 0,
        "slot": "1",
        "type": "t_contract(registerStud)1202"
      },
      {
        "astId": 2249,
        "contract": "verifystud.sol:verifystud",
        "label": "instregd",
        "offset": 0,
        "slot": "2",
        "type": "t_contract(verifyinst)2233"
      },
      {
        "astId": 2251,
        "contract": "verifystud.sol:verifystud",
        "label": "studentRegisterContractAddress",
        "offset": 0,
        "slot": "3",
        "type": "t_address"
      },
      {
        "astId": 2254,
        "contract": "verifystud.sol:verifystud",
        "label": "trialnumber",
        "offset": 0,
        "slot": "4",
        "type": "t_uint256"
      },
      {
        "astId": 2309,
        "contract": "verifystud.sol:verifystud",
        "label": "pendingStudentsarray",
        "offset": 0,
        "slot": "5",
        "type": "t_array(t_struct(pendingstudents)2305_storage)dyn_storage"
      },
      {
        "astId": 2313,
        "contract": "verifystud.sol:verifystud",
        "label": "transferStudentsarray",
        "offset": 0,
        "slot": "6",
        "type": "t_array(t_struct(pendingstudents)2305_storage)dyn_storage"
      },
      {
        "astId": 2317,
        "contract": "verifystud.sol:verifystud",
        "label": "registeredStudentsmap",
        "offset": 0,
        "slot": "7",
        "type": "t_mapping(t_address,t_address)"
      },
      {
        "astId": 2320,
        "contract": "verifystud.sol:verifystud",
        "label": "registeredStudents",
        "offset": 0,
        "slot": "8",
        "type": "t_array(t_address)dyn_storage"
      }
    ],
    "types": {
      "t_address": {
        "encoding": "inplace",
        "label": "address",
        "numberOfBytes": "20"
      },
      "t_array(t_address)dyn_storage": {
        "base": "t_address",
        "encoding": "dynamic_array",
        "label": "address[]",
        "numberOfBytes": "32"
      },
      "t_array(t_struct(pendingstudents)2305_storage)dyn_storage": {
        "base": "t_struct(pendingstudents)2305_storage",
        "encoding": "dynamic_array",
        "label": "struct verifystud.pendingstudents[]",
        "numberOfBytes": "32"
      },
      "t_contract(registerStud)1202": {
        "encoding": "inplace",
        "label": "contract registerStud",
        "numberOfBytes": "20"
      },
      "t_contract(verifyinst)2233": {
        "encoding": "inplace",
        "label": "contract verifyinst",
        "numberOfBytes": "20"
      },
      "t_mapping(t_address,t_address)": {
        "encoding": "mapping",
        "key": "t_address",
        "label": "mapping(address => address)",
        "numberOfBytes": "32",
        "value": "t_address"
      },
      "t_string_storage": {
        "encoding": "bytes",
        "label": "string",
        "numberOfBytes": "32"
      },
      "t_struct(pendingstudents)2305_storage": {
        "encoding": "inplace",
        "label": "struct verifystud.pendingstudents",
        "members": [
          {
            "astId": 2296,
            "contract": "verifystud.sol:verifystud",
            "label": "name",
            "offset": 0,
            "slot": "0",
            "type": "t_string_storage"
          },
          {
            "astId": 2298,
            "contract": "verifystud.sol:verifystud",
            "label": "student_address",
            "offset": 0,
            "slot": "1",
            "type": "t_address"
          },
          {
            "astId": 2300,
            "contract": "verifystud.sol:verifystud",
            "label": "email",
            "offset": 0,
            "slot": "2",
            "type": "t_string_storage"
          },
          {
            "astId": 2302,
            "contract": "verifystud.sol:verifystud",
            "label": "id",
            "offset": 0,
            "slot": "3",
            "type": "t_string_storage"
          },
          {
            "astId": 2304,
            "contract": "verifystud.sol:verifystud",
            "label": "instAddress",
            "offset": 0,
            "slot": "4",
            "type": "t_address"
          }
        ],
        "numberOfBytes": "160"
      },
      "t_uint256": {
        "encoding": "inplace",
        "label": "uint256",
        "numberOfBytes": "32"
      }
    }
  },
  "userdoc": {
    "kind": "user",
    "methods": {},
    "version": 1
  }
}