{
  "abi": [
    {
      "inputs": [
        {
          "internalType": "address",
          "name": "_registerStudAddress",
          "type": "address"
        },
        {
          "internalType": "address",
          "name": "_registeredInstAddress",
          "type": "address"
        }
      ],
      "stateMutability": "nonpayable",
      "type": "constructor"
    },
    {
      "inputs": [
        {
          "internalType": "address",
          "name": "student_address",
          "type": "address"
        },
        {
          "internalType": "string",
          "name": "id",
          "type": "string"
        }
      ],
      "name": "CheckReturn",
      "outputs": [
        {
          "internalType": "bool",
          "name": "",
          "type": "bool"
        }
      ],
      "stateMutability": "view",
      "type": "function"
    },
    {
      "inputs": [],
      "name": "MOE",
      "outputs": [
        {
          "internalType": "address",
          "name": "",
          "type": "address"
        }
      ],
      "stateMutability": "view",
      "type": "function"
    },
    {
      "inputs": [],
      "name": "StudentsCount",
      "outputs": [
        {
          "internalType": "uint256",
          "name": "",
          "type": "uint256"
        }
      ],
      "stateMutability": "view",
      "type": "function"
    },
    {
      "inputs": [
        {
          "internalType": "string",
          "name": "_name",
          "type": "string"
        },
        {
          "internalType": "address",
          "name": "_student_address",
          "type": "address"
        },
        {
          "internalType": "string",
          "name": "_email",
          "type": "string"
        },
        {
          "internalType": "string",
          "name": "_id",
          "type": "string"
        },
        {
          "internalType": "address",
          "name": "_instAddress",
          "type": "address"
        }
      ],
      "name": "addStudToPending",
      "outputs": [],
      "stateMutability": "nonpayable",
      "type": "function"
    },
    {
      "inputs": [
        {
          "internalType": "string",
          "name": "_name",
          "type": "string"
        },
        {
          "internalType": "address",
          "name": "_student_address",
          "type": "address"
        },
        {
          "internalType": "string",
          "name": "_email",
          "type": "string"
        },
        {
          "internalType": "string",
          "name": "_id",
          "type": "string"
        },
        {
          "internalType": "address",
          "name": "_currentInstAddress",
          "type": "address"
        },
        {
          "internalType": "address",
          "name": "_newinstAddress",
          "type": "address"
        }
      ],
      "name": "addTransferStudToPending",
      "outputs": [],
      "stateMutability": "nonpayable",
      "type": "function"
    },
    {
      "inputs": [],
      "name": "checkFunction",
      "outputs": [
        {
          "internalType": "bool",
          "name": "",
          "type": "bool"
        }
      ],
      "stateMutability": "view",
      "type": "function"
    },
    {
      "inputs": [
        {
          "internalType": "address",
          "name": "_student_address",
          "type": "address"
        },
        {
          "internalType": "string",
          "name": "_id",
          "type": "string"
        }
      ],
      "name": "conditionCheck",
      "outputs": [
        {
          "internalType": "bool",
          "name": "",
          "type": "bool"
        }
      ],
      "stateMutability": "view",
      "type": "function"
    },
    {
      "inputs": [
        {
          "internalType": "address",
          "name": "_address",
          "type": "address"
        },
        {
          "internalType": "string",
          "name": "_id",
          "type": "string"
        }
      ],
      "name": "generateKey",
      "outputs": [
        {
          "internalType": "bytes32",
          "name": "",
          "type": "bytes32"
        }
      ],
      "stateMutability": "pure",
      "type": "function"
    },
    {
      "inputs": [
        {
          "internalType": "uint256",
          "name": "index",
          "type": "uint256"
        }
      ],
      "name": "getPendingStudentByindex",
      "outputs": [
        {
          "internalType": "string",
          "name": "",
          "type": "string"
        },
        {
          "internalType": "address",
          "name": "",
          "type": "address"
        },
        {
          "internalType": "string",
          "name": "",
          "type": "string"
        },
        {
          "internalType": "string",
          "name": "",
          "type": "string"
        },
        {
          "internalType": "address",
          "name": "",
          "type": "address"
        }
      ],
      "stateMutability": "view",
      "type": "function"
    },
    {
      "inputs": [],
      "name": "getPendingStudentsCount",
      "outputs": [
        {
          "internalType": "uint256",
          "name": "",
          "type": "uint256"
        }
      ],
      "stateMutability": "view",
      "type": "function"
    },
    {
      "inputs": [
        {
          "internalType": "address",
          "name": "_employee",
          "type": "address"
        }
      ],
      "name": "getStudentContractByAddress",
      "outputs": [
        {
          "internalType": "address",
          "name": "",
          "type": "address"
        }
      ],
      "stateMutability": "view",
      "type": "function"
    },
    {
      "inputs": [
        {
          "internalType": "uint256",
          "name": "index",
          "type": "uint256"
        }
      ],
      "name": "getTransferStudentByindex",
      "outputs": [
        {
          "internalType": "string",
          "name": "",
          "type": "string"
        },
        {
          "internalType": "address",
          "name": "",
          "type": "address"
        },
        {
          "internalType": "string",
          "name": "",
          "type": "string"
        },
        {
          "internalType": "string",
          "name": "",
          "type": "string"
        },
        {
          "internalType": "address",
          "name": "",
          "type": "address"
        }
      ],
      "stateMutability": "view",
      "type": "function"
    },
    {
      "inputs": [],
      "name": "getTransferStudentsCount",
      "outputs": [
        {
          "internalType": "uint256",
          "name": "",
          "type": "uint256"
        }
      ],
      "stateMutability": "view",
      "type": "function"
    },
    {
      "inputs": [],
      "name": "instregd",
      "outputs": [
        {
          "internalType": "contract verifyinst",
          "name": "",
          "type": "address"
        }
      ],
      "stateMutability": "view",
      "type": "function"
    },
    {
      "inputs": [
        {
          "internalType": "address",
          "name": "_studentAddress",
          "type": "address"
        }
      ],
      "name": "isStudent",
      "outputs": [
        {
          "internalType": "bool",
          "name": "",
          "type": "bool"
        }
      ],
      "stateMutability": "view",
      "type": "function"
    },
    {
      "inputs": [
        {
          "internalType": "uint256",
          "name": "",
          "type": "uint256"
        }
      ],
      "name": "pendingStudentsarray",
      "outputs": [
        {
          "internalType": "string",
          "name": "name",
          "type": "string"
        },
        {
          "internalType": "address",
          "name": "student_address",
          "type": "address"
        },
        {
          "internalType": "string",
          "name": "email",
          "type": "string"
        },
        {
          "internalType": "string",
          "name": "id",
          "type": "string"
        },
        {
          "internalType": "address",
          "name": "instAddress",
          "type": "address"
        }
      ],
      "stateMutability": "view",
      "type": "function"
    },
    {
      "inputs": [
        {
          "internalType": "uint256",
          "name": "index",
          "type": "uint256"
        },
        {
          "internalType": "address",
          "name": "student_address",
          "type": "address"
        },
        {
          "internalType": "string",
          "name": "id",
          "type": "string"
        }
      ],
      "name": "removeGraduateStud",
      "outputs": [],
      "stateMutability": "nonpayable",
      "type": "function"
    },
    {
      "inputs": [],
      "name": "studentRegisterContractAddress",
      "outputs": [
        {
          "internalType": "address",
          "name": "",
          "type": "address"
        }
      ],
      "stateMutability": "view",
      "type": "function"
    },
    {
      "inputs": [],
      "name": "studreg",
      "outputs": [
        {
          "internalType": "contract registerStud",
          "name": "",
          "type": "address"
        }
      ],
      "stateMutability": "view",
      "type": "function"
    },
    {
      "inputs": [
        {
          "internalType": "uint256",
          "name": "",
          "type": "uint256"
        }
      ],
      "name": "transferStudentsarray",
      "outputs": [
        {
          "internalType": "string",
          "name": "name",
          "type": "string"
        },
        {
          "internalType": "address",
          "name": "student_address",
          "type": "address"
        },
        {
          "internalType": "string",
          "name": "email",
          "type": "string"
        },
        {
          "internalType": "string",
          "name": "id",
          "type": "string"
        },
        {
          "internalType": "address",
          "name": "instAddress",
          "type": "address"
        }
      ],
      "stateMutability": "view",
      "type": "function"
    },
    {
      "inputs": [],
      "name": "trialnumber",
      "outputs": [
        {
          "internalType": "uint256",
          "name": "",
          "type": "uint256"
        }
      ],
      "stateMutability": "view",
      "type": "function"
    },
    {
      "inputs": [
        {
          "internalType": "uint256",
          "name": "index",
          "type": "uint256"
        }
      ],
      "name": "verifyTransferstudent",
      "outputs": [],
      "stateMutability": "nonpayable",
      "type": "function"
    },
    {
      "inputs": [
        {
          "internalType": "uint256",
          "name": "index",
          "type": "uint256"
        }
      ],
      "name": "verifystudent",
      "outputs": [],
      "stateMutability": "nonpayable",
      "type": "function"
    }
  ],
  "devdoc": {
    "kind": "dev",
    "methods": {},
    "version": 1
  },
  "evm": {
    "assembly": "    /* \"verifystud.sol\":200:8140  contract verifystud {... */\n  mstore(0x40, 0x80)\n    /* \"verifystud.sol\":431:432  0 */\n  0x00\n    /* \"verifystud.sol\":402:432  uint256 public trialnumber = 0 */\n  0x04\n  sstore\n    /* \"verifystud.sol\":441:725  constructor(address _registerStudAddress, address _registeredInstAddress) {... */\n  callvalue\n  dup1\n  iszero\n  tag_1\n  jumpi\n  0x00\n  dup1\n  revert\ntag_1:\n  pop\n  mload(0x40)\n  sub(codesize, bytecodeSize)\n  dup1\n  bytecodeSize\n  dup4\n  codecopy\n  dup2\n  dup2\n  add\n  0x40\n  mstore\n  dup2\n  add\n  swap1\n  tag_2\n  swap2\n  swap1\n  tag_3\n  jump\t// in\ntag_2:\n    /* \"verifystud.sol\":532:542  msg.sender */\n  caller\n    /* \"verifystud.sol\":526:529  MOE */\n  0x00\n  dup1\n    /* \"verifystud.sol\":526:542  MOE = msg.sender */\n  0x0100\n  exp\n  dup2\n  sload\n  dup2\n  0xffffffffffffffffffffffffffffffffffffffff\n  mul\n  not\n  and\n  swap1\n  dup4\n  0xffffffffffffffffffffffffffffffffffffffff\n  and\n  mul\n  or\n  swap1\n  sstore\n  pop\n    /* \"verifystud.sol\":586:606  _registerStudAddress */\n  dup2\n    /* \"verifystud.sol\":553:583  studentRegisterContractAddress */\n  0x03\n  0x00\n    /* \"verifystud.sol\":553:606  studentRegisterContractAddress = _registerStudAddress */\n  0x0100\n  exp\n  dup2\n  sload\n  dup2\n  0xffffffffffffffffffffffffffffffffffffffff\n  mul\n  not\n  and\n  swap1\n  dup4\n  0xffffffffffffffffffffffffffffffffffffffff\n  and\n  mul\n  or\n  swap1\n  sstore\n  pop\n    /* \"verifystud.sol\":640:660  _registerStudAddress */\n  dup2\n    /* \"verifystud.sol\":617:624  studreg */\n  0x01\n  0x00\n    /* \"verifystud.sol\":617:661  studreg = registerStud(_registerStudAddress) */\n  0x0100\n  exp\n  dup2\n  sload\n  dup2\n  0xffffffffffffffffffffffffffffffffffffffff\n  mul\n  not\n  and\n  swap1\n  dup4\n  0xffffffffffffffffffffffffffffffffffffffff\n  and\n  mul\n  or\n  swap1\n  sstore\n  pop\n    /* \"verifystud.sol\":694:716  _registeredInstAddress */\n  dup1\n    /* \"verifystud.sol\":672:680  instregd */\n  0x02\n  0x00\n    /* \"verifystud.sol\":672:717  instregd = verifyinst(_registeredInstAddress) */\n  0x0100\n  exp\n  dup2\n  sload\n  dup2\n  0xffffffffffffffffffffffffffffffffffffffff\n  mul\n  not\n  and\n  swap1\n  dup4\n  0xffffffffffffffffffffffffffffffffffffffff\n  and\n  mul\n  or\n  swap1\n  sstore\n  pop\n    /* \"verifystud.sol\":441:725  constructor(address _registerStudAddress, address _registeredInstAddress) {... */\n  pop\n  pop\n    /* \"verifystud.sol\":200:8140  contract verifystud {... */\n  jump(tag_6)\n    /* \"#utility.yul\":88:205   */\ntag_8:\n    /* \"#utility.yul\":197:198   */\n  0x00\n    /* \"#utility.yul\":194:195   */\n  dup1\n    /* \"#utility.yul\":187:199   */\n  revert\n    /* \"#utility.yul\":334:460   */\ntag_10:\n    /* \"#utility.yul\":371:378   */\n  0x00\n    /* \"#utility.yul\":411:453   */\n  0xffffffffffffffffffffffffffffffffffffffff\n    /* \"#utility.yul\":404:409   */\n  dup3\n    /* \"#utility.yul\":400:454   */\n  and\n    /* \"#utility.yul\":389:454   */\n  swap1\n  pop\n    /* \"#utility.yul\":334:460   */\n  swap2\n  swap1\n  pop\n  jump\t// out\n    /* \"#utility.yul\":466:562   */\ntag_11:\n    /* \"#utility.yul\":503:510   */\n  0x00\n    /* \"#utility.yul\":532:556   */\n  tag_20\n    /* \"#utility.yul\":550:555   */\n  dup3\n    /* \"#utility.yul\":532:556   */\n  tag_10\n  jump\t// in\ntag_20:\n    /* \"#utility.yul\":521:556   */\n  swap1\n  pop\n    /* \"#utility.yul\":466:562   */\n  swap2\n  swap1\n  pop\n  jump\t// out\n    /* \"#utility.yul\":568:690   */\ntag_12:\n    /* \"#utility.yul\":641:665   */\n  tag_22\n    /* \"#utility.yul\":659:664   */\n  dup2\n    /* \"#utility.yul\":641:665   */\n  tag_11\n  jump\t// in\ntag_22:\n    /* \"#utility.yul\":634:639   */\n  dup2\n    /* \"#utility.yul\":631:666   */\n  eq\n    /* \"#utility.yul\":621:684   */\n  tag_23\n  jumpi\n    /* \"#utility.yul\":680:681   */\n  0x00\n    /* \"#utility.yul\":677:678   */\n  dup1\n    /* \"#utility.yul\":670:682   */\n  revert\n    /* \"#utility.yul\":621:684   */\ntag_23:\n    /* \"#utility.yul\":568:690   */\n  pop\n  jump\t// out\n    /* \"#utility.yul\":696:839   */\ntag_13:\n    /* \"#utility.yul\":753:758   */\n  0x00\n    /* \"#utility.yul\":784:790   */\n  dup2\n    /* \"#utility.yul\":778:791   */\n  mload\n    /* \"#utility.yul\":769:791   */\n  swap1\n  pop\n    /* \"#utility.yul\":800:833   */\n  tag_25\n    /* \"#utility.yul\":827:832   */\n  dup2\n    /* \"#utility.yul\":800:833   */\n  tag_12\n  jump\t// in\ntag_25:\n    /* \"#utility.yul\":696:839   */\n  swap3\n  swap2\n  pop\n  pop\n  jump\t// out\n    /* \"#utility.yul\":845:1352   */\ntag_3:\n    /* \"#utility.yul\":924:930   */\n  0x00\n    /* \"#utility.yul\":932:938   */\n  dup1\n    /* \"#utility.yul\":981:983   */\n  0x40\n    /* \"#utility.yul\":969:978   */\n  dup4\n    /* \"#utility.yul\":960:967   */\n  dup6\n    /* \"#utility.yul\":956:979   */\n  sub\n    /* \"#utility.yul\":952:984   */\n  slt\n    /* \"#utility.yul\":949:1068   */\n  iszero\n  tag_27\n  jumpi\n    /* \"#utility.yul\":987:1066   */\n  tag_28\n  tag_8\n  jump\t// in\ntag_28:\n    /* \"#utility.yul\":949:1068   */\ntag_27:\n    /* \"#utility.yul\":1107:1108   */\n  0x00\n    /* \"#utility.yul\":1132:1196   */\n  tag_29\n    /* \"#utility.yul\":1188:1195   */\n  dup6\n    /* \"#utility.yul\":1179:1185   */\n  dup3\n    /* \"#utility.yul\":1168:1177   */\n  dup7\n    /* \"#utility.yul\":1164:1186   */\n  add\n    /* \"#utility.yul\":1132:1196   */\n  tag_13\n  jump\t// in\ntag_29:\n    /* \"#utility.yul\":1122:1196   */\n  swap3\n  pop\n    /* \"#utility.yul\":1078:1206   */\n  pop\n    /* \"#utility.yul\":1245:1247   */\n  0x20\n    /* \"#utility.yul\":1271:1335   */\n  tag_30\n    /* \"#utility.yul\":1327:1334   */\n  dup6\n    /* \"#utility.yul\":1318:1324   */\n  dup3\n    /* \"#utility.yul\":1307:1316   */\n  dup7\n    /* \"#utility.yul\":1303:1325   */\n  add\n    /* \"#utility.yul\":1271:1335   */\n  tag_13\n  jump\t// in\ntag_30:\n    /* \"#utility.yul\":1261:1335   */\n  swap2\n  pop\n    /* \"#utility.yul\":1216:1345   */\n  pop\n    /* \"#utility.yul\":845:1352   */\n  swap3\n  pop\n  swap3\n  swap1\n  pop\n  jump\t// out\n    /* \"verifystud.sol\":200:8140  contract verifystud {... */\ntag_6:\n  dataSize(sub_0)\n  dup1\n  dataOffset(sub_0)\n  0x00\n  codecopy\n  0x00\n  return\nstop\n\nsub_0: assembly {\n        /* \"verifystud.sol\":200:8140  contract verifystud {... */\n      mstore(0x40, 0x80)\n      callvalue\n      dup1\n      iszero\n      tag_1\n      jumpi\n      0x00\n      dup1\n      revert\n    tag_1:\n      pop\n      jumpi(tag_2, lt(calldatasize, 0x04))\n      shr(0xe0, calldataload(0x00))\n      dup1\n      0xa4156aec\n      gt\n      tag_26\n      jumpi\n      dup1\n      0xbd6a8504\n      gt\n      tag_27\n      jumpi\n      dup1\n      0xbd6a8504\n      eq\n      tag_20\n      jumpi\n      dup1\n      0xc865d881\n      eq\n      tag_21\n      jumpi\n      dup1\n      0xca90543d\n      eq\n      tag_22\n      jumpi\n      dup1\n      0xda085b7a\n      eq\n      tag_23\n      jumpi\n      dup1\n      0xf00c848d\n      eq\n      tag_24\n      jumpi\n      dup1\n      0xf20bcf9a\n      eq\n      tag_25\n      jumpi\n      jump(tag_2)\n    tag_27:\n      dup1\n      0xa4156aec\n      eq\n      tag_14\n      jumpi\n      dup1\n      0xb16f9023\n      eq\n      tag_15\n      jumpi\n      dup1\n      0xb1be843d\n      eq\n      tag_16\n      jumpi\n      dup1\n      0xb7774c1a\n      eq\n      tag_17\n      jumpi\n      dup1\n      0xb91fa419\n      eq\n      tag_18\n      jumpi\n      dup1\n      0xbae0a585\n      eq\n      tag_19\n      jumpi\n      jump(tag_2)\n    tag_26:\n      dup1\n      0x673a1746\n      gt\n      tag_28\n      jumpi\n      dup1\n      0x673a1746\n      eq\n      tag_8\n      jumpi\n      dup1\n      0x78cfe85e\n      eq\n      tag_9\n      jumpi\n      dup1\n      0x82f7d392\n      eq\n      tag_10\n      jumpi\n      dup1\n      0x8a97503d\n      eq\n      tag_11\n      jumpi\n      dup1\n      0x911018ef\n      eq\n      tag_12\n      jumpi\n      dup1\n      0xa2a1fee5\n      eq\n      tag_13\n      jumpi\n      jump(tag_2)\n    tag_28:\n      dup1\n      0x20b260e3\n      eq\n      tag_3\n      jumpi\n      dup1\n      0x217fa765\n      eq\n      tag_4\n      jumpi\n      dup1\n      0x2ecca5fe\n      eq\n      tag_5\n      jumpi\n      dup1\n      0x548d434e\n      eq\n      tag_6\n      jumpi\n      dup1\n      0x5b969a04\n      eq\n      tag_7\n      jumpi\n    tag_2:\n      0x00\n      dup1\n      revert\n        /* \"verifystud.sol\":7440:7546  function StudentsCount() public view returns (uint256) {... */\n    tag_3:\n      tag_29\n      tag_30\n      jump\t// in\n    tag_29:\n      mload(0x40)\n      tag_31\n      swap2\n      swap1\n      tag_32\n      jump\t// in\n    tag_31:\n      mload(0x40)\n      dup1\n      swap2\n      sub\n      swap1\n      return\n        /* \"verifystud.sol\":2450:2783  function CheckReturn(address student_address,string memory id) public view returns (bool){... */\n    tag_4:\n      tag_33\n      0x04\n      dup1\n      calldatasize\n      sub\n      dup2\n      add\n      swap1\n      tag_34\n      swap2\n      swap1\n      tag_35\n      jump\t// in\n    tag_34:\n      tag_36\n      jump\t// in\n    tag_33:\n      mload(0x40)\n      tag_37\n      swap2\n      swap1\n      tag_38\n      jump\t// in\n    tag_37:\n      mload(0x40)\n      dup1\n      swap2\n      sub\n      swap1\n      return\n        /* \"verifystud.sol\":7720:7855  function checkFunction() public view returns(bool){... */\n    tag_5:\n      tag_39\n      tag_40\n      jump\t// in\n    tag_39:\n      mload(0x40)\n      tag_41\n      swap2\n      swap1\n      tag_38\n      jump\t// in\n    tag_41:\n      mload(0x40)\n      dup1\n      swap2\n      sub\n      swap1\n      return\n        /* \"verifystud.sol\":1035:1081  pendingstudents[] public transferStudentsarray */\n    tag_6:\n      tag_42\n      0x04\n      dup1\n      calldatasize\n      sub\n      dup2\n      add\n      swap1\n      tag_43\n      swap2\n      swap1\n      tag_44\n      jump\t// in\n    tag_43:\n      tag_45\n      jump\t// in\n    tag_42:\n      mload(0x40)\n      tag_46\n      swap6\n      swap5\n      swap4\n      swap3\n      swap2\n      swap1\n      tag_47\n      jump\t// in\n    tag_46:\n      mload(0x40)\n      dup1\n      swap2\n      sub\n      swap1\n      return\n        /* \"verifystud.sol\":6197:6736  function getPendingStudentByindex(... */\n    tag_7:\n      tag_48\n      0x04\n      dup1\n      calldatasize\n      sub\n      dup2\n      add\n      swap1\n      tag_49\n      swap2\n      swap1\n      tag_44\n      jump\t// in\n    tag_49:\n      tag_50\n      jump\t// in\n    tag_48:\n      mload(0x40)\n      tag_51\n      swap6\n      swap5\n      swap4\n      swap3\n      swap2\n      swap1\n      tag_47\n      jump\t// in\n    tag_51:\n      mload(0x40)\n      dup1\n      swap2\n      sub\n      swap1\n      return\n        /* \"verifystud.sol\":227:245  address public MOE */\n    tag_8:\n      tag_52\n      tag_53\n      jump\t// in\n    tag_52:\n      mload(0x40)\n      tag_54\n      swap2\n      swap1\n      tag_55\n      jump\t// in\n    tag_54:\n      mload(0x40)\n      dup1\n      swap2\n      sub\n      swap1\n      return\n        /* \"verifystud.sol\":1433:2041  function addStudToPending(string memory _name, address _student_address, string memory _email, string memory _id, address _instAddress) public onlystudent{... */\n    tag_9:\n      tag_56\n      0x04\n      dup1\n      calldatasize\n      sub\n      dup2\n      add\n      swap1\n      tag_57\n      swap2\n      swap1\n      tag_58\n      jump\t// in\n    tag_57:\n      tag_59\n      jump\t// in\n    tag_56:\n      stop\n        /* \"verifystud.sol\":7273:7424  function isStudent(address _studentAddress) public view returns (bool) {... */\n    tag_10:\n      tag_60\n      0x04\n      dup1\n      calldatasize\n      sub\n      dup2\n      add\n      swap1\n      tag_61\n      swap2\n      swap1\n      tag_62\n      jump\t// in\n    tag_61:\n      tag_63\n      jump\t// in\n    tag_60:\n      mload(0x40)\n      tag_64\n      swap2\n      swap1\n      tag_38\n      jump\t// in\n    tag_64:\n      mload(0x40)\n      dup1\n      swap2\n      sub\n      swap1\n      return\n        /* \"verifystud.sol\":1244:1425  function generateKey(... */\n    tag_11:\n      tag_65\n      0x04\n      dup1\n      calldatasize\n      sub\n      dup2\n      add\n      swap1\n      tag_66\n      swap2\n      swap1\n      tag_35\n      jump\t// in\n    tag_66:\n      tag_67\n      jump\t// in\n    tag_65:\n      mload(0x40)\n      tag_68\n      swap2\n      swap1\n      tag_69\n      jump\t// in\n    tag_68:\n      mload(0x40)\n      dup1\n      swap2\n      sub\n      swap1\n      return\n        /* \"verifystud.sol\":402:432  uint256 public trialnumber = 0 */\n    tag_12:\n      tag_70\n      tag_71\n      jump\t// in\n    tag_70:\n      mload(0x40)\n      tag_72\n      swap2\n      swap1\n      tag_32\n      jump\t// in\n    tag_72:\n      mload(0x40)\n      dup1\n      swap2\n      sub\n      swap1\n      return\n        /* \"verifystud.sol\":5938:6058  function getTransferStudentsCount() public view returns (uint256) {... */\n    tag_13:\n      tag_73\n      tag_74\n      jump\t// in\n    tag_73:\n      mload(0x40)\n      tag_75\n      swap2\n      swap1\n      tag_32\n      jump\t// in\n    tag_75:\n      mload(0x40)\n      dup1\n      swap2\n      sub\n      swap1\n      return\n        /* \"verifystud.sol\":6744:7265  function getTransferStudentByindex(... */\n    tag_14:\n      tag_76\n      0x04\n      dup1\n      calldatasize\n      sub\n      dup2\n      add\n      swap1\n      tag_77\n      swap2\n      swap1\n      tag_44\n      jump\t// in\n    tag_77:\n      tag_78\n      jump\t// in\n    tag_76:\n      mload(0x40)\n      tag_79\n      swap6\n      swap5\n      swap4\n      swap3\n      swap2\n      swap1\n      tag_47\n      jump\t// in\n    tag_79:\n      mload(0x40)\n      dup1\n      swap2\n      sub\n      swap1\n      return\n        /* \"verifystud.sol\":2791:3680  function addTransferStudToPending(string memory _name, address _student_address, string memory _email, string memory _id, address _currentInstAddress, address _newinstAddress) public onlyverfiedInstitute{... */\n    tag_15:\n      tag_80\n      0x04\n      dup1\n      calldatasize\n      sub\n      dup2\n      add\n      swap1\n      tag_81\n      swap2\n      swap1\n      tag_82\n      jump\t// in\n    tag_81:\n      tag_83\n      jump\t// in\n    tag_80:\n      stop\n        /* \"verifystud.sol\":6066:6184  function getPendingStudentsCount() public view returns (uint256) {... */\n    tag_16:\n      tag_84\n      tag_85\n      jump\t// in\n    tag_84:\n      mload(0x40)\n      tag_86\n      swap2\n      swap1\n      tag_32\n      jump\t// in\n    tag_86:\n      mload(0x40)\n      dup1\n      swap2\n      sub\n      swap1\n      return\n        /* \"verifystud.sol\":319:364  address public studentRegisterContractAddress */\n    tag_17:\n      tag_87\n      tag_88\n      jump\t// in\n    tag_87:\n      mload(0x40)\n      tag_89\n      swap2\n      swap1\n      tag_55\n      jump\t// in\n    tag_89:\n      mload(0x40)\n      dup1\n      swap2\n      sub\n      swap1\n      return\n        /* \"verifystud.sol\":2047:2444  function conditionCheck(address _student_address, string memory _id) public view returns (bool) {... */\n    tag_18:\n      tag_90\n      0x04\n      dup1\n      calldatasize\n      sub\n      dup2\n      add\n      swap1\n      tag_91\n      swap2\n      swap1\n      tag_35\n      jump\t// in\n    tag_91:\n      tag_92\n      jump\t// in\n    tag_90:\n      mload(0x40)\n      tag_93\n      swap2\n      swap1\n      tag_38\n      jump\t// in\n    tag_93:\n      mload(0x40)\n      dup1\n      swap2\n      sub\n      swap1\n      return\n        /* \"verifystud.sol\":286:312  verifyinst public instregd */\n    tag_19:\n      tag_94\n      tag_95\n      jump\t// in\n    tag_94:\n      mload(0x40)\n      tag_96\n      swap2\n      swap1\n      tag_97\n      jump\t// in\n    tag_96:\n      mload(0x40)\n      dup1\n      swap2\n      sub\n      swap1\n      return\n        /* \"verifystud.sol\":983:1028  pendingstudents[] public pendingStudentsarray */\n    tag_20:\n      tag_98\n      0x04\n      dup1\n      calldatasize\n      sub\n      dup2\n      add\n      swap1\n      tag_99\n      swap2\n      swap1\n      tag_44\n      jump\t// in\n    tag_99:\n      tag_100\n      jump\t// in\n    tag_98:\n      mload(0x40)\n      tag_101\n      swap6\n      swap5\n      swap4\n      swap3\n      swap2\n      swap1\n      tag_47\n      jump\t// in\n    tag_101:\n      mload(0x40)\n      dup1\n      swap2\n      sub\n      swap1\n      return\n        /* \"verifystud.sol\":252:279  registerStud public studreg */\n    tag_21:\n      tag_102\n      tag_103\n      jump\t// in\n    tag_102:\n      mload(0x40)\n      tag_104\n      swap2\n      swap1\n      tag_105\n      jump\t// in\n    tag_104:\n      mload(0x40)\n      dup1\n      swap2\n      sub\n      swap1\n      return\n        /* \"verifystud.sol\":7554:7714  function getStudentContractByAddress(... */\n    tag_22:\n      tag_106\n      0x04\n      dup1\n      calldatasize\n      sub\n      dup2\n      add\n      swap1\n      tag_107\n      swap2\n      swap1\n      tag_62\n      jump\t// in\n    tag_107:\n      tag_108\n      jump\t// in\n    tag_106:\n      mload(0x40)\n      tag_109\n      swap2\n      swap1\n      tag_55\n      jump\t// in\n    tag_109:\n      mload(0x40)\n      dup1\n      swap2\n      sub\n      swap1\n      return\n        /* \"verifystud.sol\":4588:5469  function verifyTransferstudent(uint256 index) public {... */\n    tag_23:\n      tag_110\n      0x04\n      dup1\n      calldatasize\n      sub\n      dup2\n      add\n      swap1\n      tag_111\n      swap2\n      swap1\n      tag_44\n      jump\t// in\n    tag_111:\n      tag_112\n      jump\t// in\n    tag_110:\n      stop\n        /* \"verifystud.sol\":3688:4579  function verifystudent(uint256 index) public onlyverfiedInstitute  {... */\n    tag_24:\n      tag_113\n      0x04\n      dup1\n      calldatasize\n      sub\n      dup2\n      add\n      swap1\n      tag_114\n      swap2\n      swap1\n      tag_44\n      jump\t// in\n    tag_114:\n      tag_115\n      jump\t// in\n    tag_113:\n      stop\n        /* \"verifystud.sol\":5475:5930  function removeGraduateStud(uint256 index,address student_address,string memory id) public {... */\n    tag_25:\n      tag_116\n      0x04\n      dup1\n      calldatasize\n      sub\n      dup2\n      add\n      swap1\n      tag_117\n      swap2\n      swap1\n      tag_118\n      jump\t// in\n    tag_117:\n      tag_119\n      jump\t// in\n    tag_116:\n      stop\n        /* \"verifystud.sol\":7440:7546  function StudentsCount() public view returns (uint256) {... */\n    tag_30:\n        /* \"verifystud.sol\":7486:7493  uint256 */\n      0x00\n        /* \"verifystud.sol\":7513:7531  registeredStudents */\n      0x08\n        /* \"verifystud.sol\":7513:7538  registeredStudents.length */\n      dup1\n      sload\n      swap1\n      pop\n        /* \"verifystud.sol\":7506:7538  return registeredStudents.length */\n      swap1\n      pop\n        /* \"verifystud.sol\":7440:7546  function StudentsCount() public view returns (uint256) {... */\n      swap1\n      jump\t// out\n        /* \"verifystud.sol\":2450:2783  function CheckReturn(address student_address,string memory id) public view returns (bool){... */\n    tag_36:\n        /* \"verifystud.sol\":2534:2538  bool */\n      0x00\n        /* \"verifystud.sol\":2550:2561  bytes32 key */\n      dup1\n        /* \"verifystud.sol\":2564:2571  studreg */\n      0x01\n      0x00\n      swap1\n      sload\n      swap1\n      0x0100\n      exp\n      swap1\n      div\n      0xffffffffffffffffffffffffffffffffffffffff\n      and\n        /* \"verifystud.sol\":2564:2583  studreg.generateKey */\n      0xffffffffffffffffffffffffffffffffffffffff\n      and\n      0x8a97503d\n        /* \"verifystud.sol\":2598:2613  student_address */\n      dup6\n        /* \"verifystud.sol\":2628:2630  id */\n      dup6\n        /* \"verifystud.sol\":2564:2641  studreg.generateKey(... */\n      mload(0x40)\n      dup4\n      0xffffffff\n      and\n      0xe0\n      shl\n      dup2\n      mstore\n      0x04\n      add\n      tag_122\n      swap3\n      swap2\n      swap1\n      tag_123\n      jump\t// in\n    tag_122:\n      0x20\n      mload(0x40)\n      dup1\n      dup4\n      sub\n      dup2\n      dup7\n      gas\n      staticcall\n      iszero\n      dup1\n      iszero\n      tag_125\n      jumpi\n      returndatasize\n      0x00\n      dup1\n      returndatacopy\n      revert(0x00, returndatasize)\n    tag_125:\n      pop\n      pop\n      pop\n      pop\n      mload(0x40)\n      returndatasize\n      not(0x1f)\n      0x1f\n      dup3\n      add\n      and\n      dup3\n      add\n      dup1\n      0x40\n      mstore\n      pop\n      dup2\n      add\n      swap1\n      tag_126\n      swap2\n      swap1\n      tag_127\n      jump\t// in\n    tag_126:\n        /* \"verifystud.sol\":2550:2641  bytes32 key = studreg.generateKey(... */\n      swap1\n      pop\n        /* \"verifystud.sol\":2657:2683  address currentInstAddress */\n      0x00\n        /* \"verifystud.sol\":2685:2692  studreg */\n      0x01\n      0x00\n      swap1\n      sload\n      swap1\n      0x0100\n      exp\n      swap1\n      div\n      0xffffffffffffffffffffffffffffffffffffffff\n      and\n        /* \"verifystud.sol\":2685:2718  studreg.getRegisteredStudentByKey */\n      0xffffffffffffffffffffffffffffffffffffffff\n      and\n      0x435df20d\n        /* \"verifystud.sol\":2719:2722  key */\n      dup4\n        /* \"verifystud.sol\":2685:2723  studreg.getRegisteredStudentByKey(key) */\n      mload(0x40)\n      dup3\n      0xffffffff\n      and\n      0xe0\n      shl\n      dup2\n      mstore\n      0x04\n      add\n      tag_128\n      swap2\n      swap1\n      tag_69\n      jump\t// in\n    tag_128:\n      0x00\n      mload(0x40)\n      dup1\n      dup4\n      sub\n      dup2\n      dup7\n      gas\n      staticcall\n      iszero\n      dup1\n      iszero\n      tag_130\n      jumpi\n      returndatasize\n      0x00\n      dup1\n      returndatacopy\n      revert(0x00, returndatasize)\n    tag_130:\n      pop\n      pop\n      pop\n      pop\n      mload(0x40)\n      returndatasize\n      0x00\n      dup3\n      returndatacopy\n      returndatasize\n      not(0x1f)\n      0x1f\n      dup3\n      add\n      and\n      dup3\n      add\n      dup1\n      0x40\n      mstore\n      pop\n      dup2\n      add\n      swap1\n      tag_131\n      swap2\n      swap1\n      tag_132\n      jump\t// in\n    tag_131:\n        /* \"verifystud.sol\":2652:2723  (,,,,address currentInstAddress)=studreg.getRegisteredStudentByKey(key) */\n      swap5\n      pop\n      pop\n      pop\n      pop\n      pop\n        /* \"verifystud.sol\":2756:2774  currentInstAddress */\n      dup1\n        /* \"verifystud.sol\":2742:2774  msg.sender == currentInstAddress */\n      0xffffffffffffffffffffffffffffffffffffffff\n      and\n        /* \"verifystud.sol\":2742:2752  msg.sender */\n      caller\n        /* \"verifystud.sol\":2742:2774  msg.sender == currentInstAddress */\n      0xffffffffffffffffffffffffffffffffffffffff\n      and\n      eq\n        /* \"verifystud.sol\":2734:2775  return (msg.sender == currentInstAddress) */\n      swap3\n      pop\n      pop\n      pop\n        /* \"verifystud.sol\":2450:2783  function CheckReturn(address student_address,string memory id) public view returns (bool){... */\n      swap3\n      swap2\n      pop\n      pop\n      jump\t// out\n        /* \"verifystud.sol\":7720:7855  function checkFunction() public view returns(bool){... */\n    tag_40:\n        /* \"verifystud.sol\":7765:7769  bool */\n      0x00\n        /* \"verifystud.sol\":7842:7843  0 */\n      dup1\n        /* \"verifystud.sol\":7788:7844  instregd.registeredinstitutesmap(msg.sender)!=address(0) */\n      0xffffffffffffffffffffffffffffffffffffffff\n      and\n        /* \"verifystud.sol\":7788:7796  instregd */\n      0x02\n      0x00\n      swap1\n      sload\n      swap1\n      0x0100\n      exp\n      swap1\n      div\n      0xffffffffffffffffffffffffffffffffffffffff\n      and\n        /* \"verifystud.sol\":7788:7820  instregd.registeredinstitutesmap */\n      0xffffffffffffffffffffffffffffffffffffffff\n      and\n      0x839f602d\n        /* \"verifystud.sol\":7821:7831  msg.sender */\n      caller\n        /* \"verifystud.sol\":7788:7832  instregd.registeredinstitutesmap(msg.sender) */\n      mload(0x40)\n      dup3\n      0xffffffff\n      and\n      0xe0\n      shl\n      dup2\n      mstore\n      0x04\n      add\n      tag_134\n      swap2\n      swap1\n      tag_55\n      jump\t// in\n    tag_134:\n      0x20\n      mload(0x40)\n      dup1\n      dup4\n      sub\n      dup2\n      dup7\n      gas\n      staticcall\n      iszero\n      dup1\n      iszero\n      tag_136\n      jumpi\n      returndatasize\n      0x00\n      dup1\n      returndatacopy\n      revert(0x00, returndatasize)\n    tag_136:\n      pop\n      pop\n      pop\n      pop\n      mload(0x40)\n      returndatasize\n      not(0x1f)\n      0x1f\n      dup3\n      add\n      and\n      dup3\n      add\n      dup1\n      0x40\n      mstore\n      pop\n      dup2\n      add\n      swap1\n      tag_137\n      swap2\n      swap1\n      tag_138\n      jump\t// in\n    tag_137:\n        /* \"verifystud.sol\":7788:7844  instregd.registeredinstitutesmap(msg.sender)!=address(0) */\n      0xffffffffffffffffffffffffffffffffffffffff\n      and\n      eq\n      iszero\n        /* \"verifystud.sol\":7781:7845  return(instregd.registeredinstitutesmap(msg.sender)!=address(0)) */\n      swap1\n      pop\n        /* \"verifystud.sol\":7720:7855  function checkFunction() public view returns(bool){... */\n      swap1\n      jump\t// out\n        /* \"verifystud.sol\":1035:1081  pendingstudents[] public transferStudentsarray */\n    tag_45:\n      0x06\n      dup2\n      dup2\n      sload\n      dup2\n      lt\n      tag_139\n      jumpi\n      0x00\n      dup1\n      revert\n    tag_139:\n      swap1\n      0x00\n      mstore\n      keccak256(0x00, 0x20)\n      swap1\n      0x05\n      mul\n      add\n      0x00\n      swap2\n      pop\n      swap1\n      pop\n      dup1\n      0x00\n      add\n      dup1\n      sload\n      tag_141\n      swap1\n      tag_142\n      jump\t// in\n    tag_141:\n      dup1\n      0x1f\n      add\n      0x20\n      dup1\n      swap2\n      div\n      mul\n      0x20\n      add\n      mload(0x40)\n      swap1\n      dup2\n      add\n      0x40\n      mstore\n      dup1\n      swap3\n      swap2\n      swap1\n      dup2\n      dup2\n      mstore\n      0x20\n      add\n      dup3\n      dup1\n      sload\n      tag_143\n      swap1\n      tag_142\n      jump\t// in\n    tag_143:\n      dup1\n      iszero\n      tag_144\n      jumpi\n      dup1\n      0x1f\n      lt\n      tag_145\n      jumpi\n      0x0100\n      dup1\n      dup4\n      sload\n      div\n      mul\n      dup4\n      mstore\n      swap2\n      0x20\n      add\n      swap2\n      jump(tag_144)\n    tag_145:\n      dup3\n      add\n      swap2\n      swap1\n      0x00\n      mstore\n      keccak256(0x00, 0x20)\n      swap1\n    tag_146:\n      dup2\n      sload\n      dup2\n      mstore\n      swap1\n      0x01\n      add\n      swap1\n      0x20\n      add\n      dup1\n      dup4\n      gt\n      tag_146\n      jumpi\n      dup3\n      swap1\n      sub\n      0x1f\n      and\n      dup3\n      add\n      swap2\n    tag_144:\n      pop\n      pop\n      pop\n      pop\n      pop\n      swap1\n      dup1\n      0x01\n      add\n      0x00\n      swap1\n      sload\n      swap1\n      0x0100\n      exp\n      swap1\n      div\n      0xffffffffffffffffffffffffffffffffffffffff\n      and\n      swap1\n      dup1\n      0x02\n      add\n      dup1\n      sload\n      tag_147\n      swap1\n      tag_142\n      jump\t// in\n    tag_147:\n      dup1\n      0x1f\n      add\n      0x20\n      dup1\n      swap2\n      div\n      mul\n      0x20\n      add\n      mload(0x40)\n      swap1\n      dup2\n      add\n      0x40\n      mstore\n      dup1\n      swap3\n      swap2\n      swap1\n      dup2\n      dup2\n      mstore\n      0x20\n      add\n      dup3\n      dup1\n      sload\n      tag_148\n      swap1\n      tag_142\n      jump\t// in\n    tag_148:\n      dup1\n      iszero\n      tag_149\n      jumpi\n      dup1\n      0x1f\n      lt\n      tag_150\n      jumpi\n      0x0100\n      dup1\n      dup4\n      sload\n      div\n      mul\n      dup4\n      mstore\n      swap2\n      0x20\n      add\n      swap2\n      jump(tag_149)\n    tag_150:\n      dup3\n      add\n      swap2\n      swap1\n      0x00\n      mstore\n      keccak256(0x00, 0x20)\n      swap1\n    tag_151:\n      dup2\n      sload\n      dup2\n      mstore\n      swap1\n      0x01\n      add\n      swap1\n      0x20\n      add\n      dup1\n      dup4\n      gt\n      tag_151\n      jumpi\n      dup3\n      swap1\n      sub\n      0x1f\n      and\n      dup3\n      add\n      swap2\n    tag_149:\n      pop\n      pop\n      pop\n      pop\n      pop\n      swap1\n      dup1\n      0x03\n      add\n      dup1\n      sload\n      tag_152\n      swap1\n      tag_142\n      jump\t// in\n    tag_152:\n      dup1\n      0x1f\n      add\n      0x20\n      dup1\n      swap2\n      div\n      mul\n      0x20\n      add\n      mload(0x40)\n      swap1\n      dup2\n      add\n      0x40\n      mstore\n      dup1\n      swap3\n      swap2\n      swap1\n      dup2\n      dup2\n      mstore\n      0x20\n      add\n      dup3\n      dup1\n      sload\n      tag_153\n      swap1\n      tag_142\n      jump\t// in\n    tag_153:\n      dup1\n      iszero\n      tag_154\n      jumpi\n      dup1\n      0x1f\n      lt\n      tag_155\n      jumpi\n      0x0100\n      dup1\n      dup4\n      sload\n      div\n      mul\n      dup4\n      mstore\n      swap2\n      0x20\n      add\n      swap2\n      jump(tag_154)\n    tag_155:\n      dup3\n      add\n      swap2\n      swap1\n      0x00\n      mstore\n      keccak256(0x00, 0x20)\n      swap1\n    tag_156:\n      dup2\n      sload\n      dup2\n      mstore\n      swap1\n      0x01\n      add\n      swap1\n      0x20\n      add\n      dup1\n      dup4\n      gt\n      tag_156\n      jumpi\n      dup3\n      swap1\n      sub\n      0x1f\n      and\n      dup3\n      add\n      swap2\n    tag_154:\n      pop\n      pop\n      pop\n      pop\n      pop\n      swap1\n      dup1\n      0x04\n      add\n      0x00\n      swap1\n      sload\n      swap1\n      0x0100\n      exp\n      swap1\n      div\n      0xffffffffffffffffffffffffffffffffffffffff\n      and\n      swap1\n      pop\n      dup6\n      jump\t// out\n        /* \"verifystud.sol\":6197:6736  function getPendingStudentByindex(... */\n    tag_50:\n        /* \"verifystud.sol\":6310:6323  string memory */\n      0x60\n        /* \"verifystud.sol\":6325:6332  address */\n      0x00\n        /* \"verifystud.sol\":6354:6367  string memory */\n      0x60\n        /* \"verifystud.sol\":6369:6382  string memory */\n      dup1\n        /* \"verifystud.sol\":6384:6391  address */\n      0x00\n        /* \"verifystud.sol\":6425:6445  pendingStudentsarray */\n      0x05\n        /* \"verifystud.sol\":6425:6452  pendingStudentsarray.length */\n      dup1\n      sload\n      swap1\n      pop\n        /* \"verifystud.sol\":6417:6422  index */\n      dup7\n        /* \"verifystud.sol\":6417:6452  index < pendingStudentsarray.length */\n      lt\n        /* \"verifystud.sol\":6409:6476  require(index < pendingStudentsarray.length, \"Index out of bounds\") */\n      tag_158\n      jumpi\n      mload(0x40)\n      0x08c379a000000000000000000000000000000000000000000000000000000000\n      dup2\n      mstore\n      0x04\n      add\n      tag_159\n      swap1\n      tag_160\n      jump\t// in\n    tag_159:\n      mload(0x40)\n      dup1\n      swap2\n      sub\n      swap1\n      revert\n    tag_158:\n        /* \"verifystud.sol\":6489:6523  pendingstudents memory studentinfo */\n      0x00\n        /* \"verifystud.sol\":6526:6546  pendingStudentsarray */\n      0x05\n        /* \"verifystud.sol\":6547:6552  index */\n      dup8\n        /* \"verifystud.sol\":6526:6553  pendingStudentsarray[index] */\n      dup2\n      sload\n      dup2\n      lt\n      tag_161\n      jumpi\n      tag_162\n      tag_163\n      jump\t// in\n    tag_162:\n    tag_161:\n      swap1\n      0x00\n      mstore\n      keccak256(0x00, 0x20)\n      swap1\n      0x05\n      mul\n      add\n        /* \"verifystud.sol\":6489:6553  pendingstudents memory studentinfo = pendingStudentsarray[index] */\n      mload(0x40)\n      dup1\n      0xa0\n      add\n      0x40\n      mstore\n      swap1\n      dup2\n      0x00\n      dup3\n      add\n      dup1\n      sload\n      tag_165\n      swap1\n      tag_142\n      jump\t// in\n    tag_165:\n      dup1\n      0x1f\n      add\n      0x20\n      dup1\n      swap2\n      div\n      mul\n      0x20\n      add\n      mload(0x40)\n      swap1\n      dup2\n      add\n      0x40\n      mstore\n      dup1\n      swap3\n      swap2\n      swap1\n      dup2\n      dup2\n      mstore\n      0x20\n      add\n      dup3\n      dup1\n      sload\n      tag_166\n      swap1\n      tag_142\n      jump\t// in\n    tag_166:\n      dup1\n      iszero\n      tag_167\n      jumpi\n      dup1\n      0x1f\n      lt\n      tag_168\n      jumpi\n      0x0100\n      dup1\n      dup4\n      sload\n      div\n      mul\n      dup4\n      mstore\n      swap2\n      0x20\n      add\n      swap2\n      jump(tag_167)\n    tag_168:\n      dup3\n      add\n      swap2\n      swap1\n      0x00\n      mstore\n      keccak256(0x00, 0x20)\n      swap1\n    tag_169:\n      dup2\n      sload\n      dup2\n      mstore\n      swap1\n      0x01\n      add\n      swap1\n      0x20\n      add\n      dup1\n      dup4\n      gt\n      tag_169\n      jumpi\n      dup3\n      swap1\n      sub\n      0x1f\n      and\n      dup3\n      add\n      swap2\n    tag_167:\n      pop\n      pop\n      pop\n      pop\n      pop\n      dup2\n      mstore\n      0x20\n      add\n      0x01\n      dup3\n      add\n      0x00\n      swap1\n      sload\n      swap1\n      0x0100\n      exp\n      swap1\n      div\n      0xffffffffffffffffffffffffffffffffffffffff\n      and\n      0xffffffffffffffffffffffffffffffffffffffff\n      and\n      0xffffffffffffffffffffffffffffffffffffffff\n      and\n      dup2\n      mstore\n      0x20\n      add\n      0x02\n      dup3\n      add\n      dup1\n      sload\n      tag_170\n      swap1\n      tag_142\n      jump\t// in\n    tag_170:\n      dup1\n      0x1f\n      add\n      0x20\n      dup1\n      swap2\n      div\n      mul\n      0x20\n      add\n      mload(0x40)\n      swap1\n      dup2\n      add\n      0x40\n      mstore\n      dup1\n      swap3\n      swap2\n      swap1\n      dup2\n      dup2\n      mstore\n      0x20\n      add\n      dup3\n      dup1\n      sload\n      tag_171\n      swap1\n      tag_142\n      jump\t// in\n    tag_171:\n      dup1\n      iszero\n      tag_172\n      jumpi\n      dup1\n      0x1f\n      lt\n      tag_173\n      jumpi\n      0x0100\n      dup1\n      dup4\n      sload\n      div\n      mul\n      dup4\n      mstore\n      swap2\n      0x20\n      add\n      swap2\n      jump(tag_172)\n    tag_173:\n      dup3\n      add\n      swap2\n      swap1\n      0x00\n      mstore\n      keccak256(0x00, 0x20)\n      swap1\n    tag_174:\n      dup2\n      sload\n      dup2\n      mstore\n      swap1\n      0x01\n      add\n      swap1\n      0x20\n      add\n      dup1\n      dup4\n      gt\n      tag_174\n      jumpi\n      dup3\n      swap1\n      sub\n      0x1f\n      and\n      dup3\n      add\n      swap2\n    tag_172:\n      pop\n      pop\n      pop\n      pop\n      pop\n      dup2\n      mstore\n      0x20\n      add\n      0x03\n      dup3\n      add\n      dup1\n      sload\n      tag_175\n      swap1\n      tag_142\n      jump\t// in\n    tag_175:\n      dup1\n      0x1f\n      add\n      0x20\n      dup1\n      swap2\n      div\n      mul\n      0x20\n      add\n      mload(0x40)\n      swap1\n      dup2\n      add\n      0x40\n      mstore\n      dup1\n      swap3\n      swap2\n      swap1\n      dup2\n      dup2\n      mstore\n      0x20\n      add\n      dup3\n      dup1\n      sload\n      tag_176\n      swap1\n      tag_142\n      jump\t// in\n    tag_176:\n      dup1\n      iszero\n      tag_177\n      jumpi\n      dup1\n      0x1f\n      lt\n      tag_178\n      jumpi\n      0x0100\n      dup1\n      dup4\n      sload\n      div\n      mul\n      dup4\n      mstore\n      swap2\n      0x20\n      add\n      swap2\n      jump(tag_177)\n    tag_178:\n      dup3\n      add\n      swap2\n      swap1\n      0x00\n      mstore\n      keccak256(0x00, 0x20)\n      swap1\n    tag_179:\n      dup2\n      sload\n      dup2\n      mstore\n      swap1\n      0x01\n      add\n      swap1\n      0x20\n      add\n      dup1\n      dup4\n      gt\n      tag_179\n      jumpi\n      dup3\n      swap1\n      sub\n      0x1f\n      and\n      dup3\n      add\n      swap2\n    tag_177:\n      pop\n      pop\n      pop\n      pop\n      pop\n      dup2\n      mstore\n      0x20\n      add\n      0x04\n      dup3\n      add\n      0x00\n      swap1\n      sload\n      swap1\n      0x0100\n      exp\n      swap1\n      div\n      0xffffffffffffffffffffffffffffffffffffffff\n      and\n      0xffffffffffffffffffffffffffffffffffffffff\n      and\n      0xffffffffffffffffffffffffffffffffffffffff\n      and\n      dup2\n      mstore\n      pop\n      pop\n      swap1\n      pop\n        /* \"verifystud.sol\":6580:6591  studentinfo */\n      dup1\n        /* \"verifystud.sol\":6580:6596  studentinfo.name */\n      0x00\n      add\n      mload\n        /* \"verifystud.sol\":6607:6618  studentinfo */\n      dup2\n        /* \"verifystud.sol\":6607:6634  studentinfo.student_address */\n      0x20\n      add\n      mload\n        /* \"verifystud.sol\":6645:6656  studentinfo */\n      dup3\n        /* \"verifystud.sol\":6645:6662  studentinfo.email */\n      0x40\n      add\n      mload\n        /* \"verifystud.sol\":6673:6684  studentinfo */\n      dup4\n        /* \"verifystud.sol\":6673:6687  studentinfo.id */\n      0x60\n      add\n      mload\n        /* \"verifystud.sol\":6698:6709  studentinfo */\n      dup5\n        /* \"verifystud.sol\":6698:6721  studentinfo.instAddress */\n      0x80\n      add\n      mload\n        /* \"verifystud.sol\":6562:6728  return (... */\n      swap6\n      pop\n      swap6\n      pop\n      swap6\n      pop\n      swap6\n      pop\n      swap6\n      pop\n      pop\n        /* \"verifystud.sol\":6197:6736  function getPendingStudentByindex(... */\n      swap2\n      swap4\n      swap6\n      swap1\n      swap3\n      swap5\n      pop\n      jump\t// out\n        /* \"verifystud.sol\":227:245  address public MOE */\n    tag_53:\n      0x00\n      dup1\n      sload\n      swap1\n      0x0100\n      exp\n      swap1\n      div\n      0xffffffffffffffffffffffffffffffffffffffff\n      and\n      dup2\n      jump\t// out\n        /* \"verifystud.sol\":1433:2041  function addStudToPending(string memory _name, address _student_address, string memory _email, string memory _id, address _instAddress) public onlystudent{... */\n    tag_59:\n        /* \"verifystud.sol\":8069:8076  studreg */\n      0x01\n      0x00\n      swap1\n      sload\n      swap1\n      0x0100\n      exp\n      swap1\n      div\n      0xffffffffffffffffffffffffffffffffffffffff\n      and\n        /* \"verifystud.sol\":8069:8086  studreg.isStudent */\n      0xffffffffffffffffffffffffffffffffffffffff\n      and\n      0x82f7d392\n        /* \"verifystud.sol\":8087:8097  msg.sender */\n      caller\n        /* \"verifystud.sol\":8069:8098  studreg.isStudent(msg.sender) */\n      mload(0x40)\n      dup3\n      0xffffffff\n      and\n      0xe0\n      shl\n      dup2\n      mstore\n      0x04\n      add\n      tag_181\n      swap2\n      swap1\n      tag_55\n      jump\t// in\n    tag_181:\n      0x20\n      mload(0x40)\n      dup1\n      dup4\n      sub\n      dup2\n      dup7\n      gas\n      staticcall\n      iszero\n      dup1\n      iszero\n      tag_183\n      jumpi\n      returndatasize\n      0x00\n      dup1\n      returndatacopy\n      revert(0x00, returndatasize)\n    tag_183:\n      pop\n      pop\n      pop\n      pop\n      mload(0x40)\n      returndatasize\n      not(0x1f)\n      0x1f\n      dup3\n      add\n      and\n      dup3\n      add\n      dup1\n      0x40\n      mstore\n      pop\n      dup2\n      add\n      swap1\n      tag_184\n      swap2\n      swap1\n      tag_185\n      jump\t// in\n    tag_184:\n        /* \"verifystud.sol\":8061:8117  require(studreg.isStudent(msg.sender), \"Not authorized\") */\n      tag_186\n      jumpi\n      mload(0x40)\n      0x08c379a000000000000000000000000000000000000000000000000000000000\n      dup2\n      mstore\n      0x04\n      add\n      tag_187\n      swap1\n      tag_188\n      jump\t// in\n    tag_187:\n      mload(0x40)\n      dup1\n      swap2\n      sub\n      swap1\n      revert\n    tag_186:\n        /* \"verifystud.sol\":1606:1643  conditionCheck(_student_address, _id) */\n      tag_190\n        /* \"verifystud.sol\":1621:1637  _student_address */\n      dup5\n        /* \"verifystud.sol\":1639:1642  _id */\n      dup4\n        /* \"verifystud.sol\":1606:1620  conditionCheck */\n      tag_92\n        /* \"verifystud.sol\":1606:1643  conditionCheck(_student_address, _id) */\n      jump\t// in\n    tag_190:\n        /* \"verifystud.sol\":1598:1686  require(conditionCheck(_student_address, _id), \"Student already exists in pending list\") */\n      tag_191\n      jumpi\n      mload(0x40)\n      0x08c379a000000000000000000000000000000000000000000000000000000000\n      dup2\n      mstore\n      0x04\n      add\n      tag_192\n      swap1\n      tag_193\n      jump\t// in\n    tag_192:\n      mload(0x40)\n      dup1\n      swap2\n      sub\n      swap1\n      revert\n    tag_191:\n        /* \"verifystud.sol\":1699:1739  pendingstudents memory newpendingstudent */\n      tag_194\n      tag_195\n      jump\t// in\n    tag_194:\n        /* \"verifystud.sol\":1775:1780  _name */\n      dup6\n        /* \"verifystud.sol\":1750:1767  newpendingstudent */\n      dup2\n        /* \"verifystud.sol\":1750:1772  newpendingstudent.name */\n      0x00\n      add\n        /* \"verifystud.sol\":1750:1780  newpendingstudent.name = _name */\n      dup2\n      swap1\n      mstore\n      pop\n        /* \"verifystud.sol\":1827:1843  _student_address */\n      dup5\n        /* \"verifystud.sol\":1791:1808  newpendingstudent */\n      dup2\n        /* \"verifystud.sol\":1791:1824  newpendingstudent.student_address */\n      0x20\n      add\n        /* \"verifystud.sol\":1791:1843  newpendingstudent.student_address = _student_address */\n      swap1\n      0xffffffffffffffffffffffffffffffffffffffff\n      and\n      swap1\n      dup2\n      0xffffffffffffffffffffffffffffffffffffffff\n      and\n      dup2\n      mstore\n      pop\n      pop\n        /* \"verifystud.sol\":1880:1886  _email */\n      dup4\n        /* \"verifystud.sol\":1854:1871  newpendingstudent */\n      dup2\n        /* \"verifystud.sol\":1854:1877  newpendingstudent.email */\n      0x40\n      add\n        /* \"verifystud.sol\":1854:1886  newpendingstudent.email = _email */\n      dup2\n      swap1\n      mstore\n      pop\n        /* \"verifystud.sol\":1920:1923  _id */\n      dup3\n        /* \"verifystud.sol\":1897:1914  newpendingstudent */\n      dup2\n        /* \"verifystud.sol\":1897:1917  newpendingstudent.id */\n      0x60\n      add\n        /* \"verifystud.sol\":1897:1923  newpendingstudent.id = _id */\n      dup2\n      swap1\n      mstore\n      pop\n        /* \"verifystud.sol\":1966:1978  _instAddress */\n      dup2\n        /* \"verifystud.sol\":1934:1951  newpendingstudent */\n      dup2\n        /* \"verifystud.sol\":1934:1963  newpendingstudent.instAddress */\n      0x80\n      add\n        /* \"verifystud.sol\":1934:1978  newpendingstudent.instAddress = _instAddress */\n      swap1\n      0xffffffffffffffffffffffffffffffffffffffff\n      and\n      swap1\n      dup2\n      0xffffffffffffffffffffffffffffffffffffffff\n      and\n      dup2\n      mstore\n      pop\n      pop\n        /* \"verifystud.sol\":1989:2009  pendingStudentsarray */\n      0x05\n        /* \"verifystud.sol\":2015:2032  newpendingstudent */\n      dup2\n        /* \"verifystud.sol\":1989:2033  pendingStudentsarray.push(newpendingstudent) */\n      swap1\n      dup1\n      0x01\n      dup2\n      sload\n      add\n      dup1\n      dup3\n      sstore\n      dup1\n      swap2\n      pop\n      pop\n      0x01\n      swap1\n      sub\n      swap1\n      0x00\n      mstore\n      keccak256(0x00, 0x20)\n      swap1\n      0x05\n      mul\n      add\n      0x00\n      swap1\n      swap2\n      swap1\n      swap2\n      swap1\n      swap2\n      pop\n      0x00\n      dup3\n      add\n      mload\n      dup2\n      0x00\n      add\n      swap1\n      dup1\n      mload\n      swap1\n      0x20\n      add\n      swap1\n      tag_197\n      swap3\n      swap2\n      swap1\n      tag_198\n      jump\t// in\n    tag_197:\n      pop\n      0x20\n      dup3\n      add\n      mload\n      dup2\n      0x01\n      add\n      exp(0x0100, 0x00)\n      dup2\n      sload\n      dup2\n      0xffffffffffffffffffffffffffffffffffffffff\n      mul\n      not\n      and\n      swap1\n      dup4\n      0xffffffffffffffffffffffffffffffffffffffff\n      and\n      mul\n      or\n      swap1\n      sstore\n      pop\n      0x40\n      dup3\n      add\n      mload\n      dup2\n      0x02\n      add\n      swap1\n      dup1\n      mload\n      swap1\n      0x20\n      add\n      swap1\n      tag_199\n      swap3\n      swap2\n      swap1\n      tag_198\n      jump\t// in\n    tag_199:\n      pop\n      0x60\n      dup3\n      add\n      mload\n      dup2\n      0x03\n      add\n      swap1\n      dup1\n      mload\n      swap1\n      0x20\n      add\n      swap1\n      tag_200\n      swap3\n      swap2\n      swap1\n      tag_198\n      jump\t// in\n    tag_200:\n      pop\n      0x80\n      dup3\n      add\n      mload\n      dup2\n      0x04\n      add\n      exp(0x0100, 0x00)\n      dup2\n      sload\n      dup2\n      0xffffffffffffffffffffffffffffffffffffffff\n      mul\n      not\n      and\n      swap1\n      dup4\n      0xffffffffffffffffffffffffffffffffffffffff\n      and\n      mul\n      or\n      swap1\n      sstore\n      pop\n      pop\n      pop\n        /* \"verifystud.sol\":1587:2041  {... */\n      pop\n        /* \"verifystud.sol\":1433:2041  function addStudToPending(string memory _name, address _student_address, string memory _email, string memory _id, address _instAddress) public onlystudent{... */\n      pop\n      pop\n      pop\n      pop\n      pop\n      jump\t// out\n        /* \"verifystud.sol\":7273:7424  function isStudent(address _studentAddress) public view returns (bool) {... */\n    tag_63:\n        /* \"verifystud.sol\":7338:7342  bool */\n      0x00\n        /* \"verifystud.sol\":7412:7415  0x0 */\n      dup1\n        /* \"verifystud.sol\":7362:7416  registeredStudentsmap[_studentAddress] != address(0x0) */\n      0xffffffffffffffffffffffffffffffffffffffff\n      and\n        /* \"verifystud.sol\":7362:7383  registeredStudentsmap */\n      0x07\n        /* \"verifystud.sol\":7362:7400  registeredStudentsmap[_studentAddress] */\n      0x00\n        /* \"verifystud.sol\":7384:7399  _studentAddress */\n      dup5\n        /* \"verifystud.sol\":7362:7400  registeredStudentsmap[_studentAddress] */\n      0xffffffffffffffffffffffffffffffffffffffff\n      and\n      0xffffffffffffffffffffffffffffffffffffffff\n      and\n      dup2\n      mstore\n      0x20\n      add\n      swap1\n      dup2\n      mstore\n      0x20\n      add\n      0x00\n      keccak256\n      0x00\n      swap1\n      sload\n      swap1\n      0x0100\n      exp\n      swap1\n      div\n      0xffffffffffffffffffffffffffffffffffffffff\n      and\n        /* \"verifystud.sol\":7362:7416  registeredStudentsmap[_studentAddress] != address(0x0) */\n      0xffffffffffffffffffffffffffffffffffffffff\n      and\n      eq\n      iszero\n        /* \"verifystud.sol\":7355:7416  return registeredStudentsmap[_studentAddress] != address(0x0) */\n      swap1\n      pop\n        /* \"verifystud.sol\":7273:7424  function isStudent(address _studentAddress) public view returns (bool) {... */\n      swap2\n      swap1\n      pop\n      jump\t// out\n        /* \"verifystud.sol\":1244:1425  function generateKey(... */\n    tag_67:\n        /* \"verifystud.sol\":1348:1355  bytes32 */\n      0x00\n        /* \"verifystud.sol\":1402:1410  _address */\n      dup3\n        /* \"verifystud.sol\":1412:1415  _id */\n      dup3\n        /* \"verifystud.sol\":1385:1416  abi.encodePacked(_address, _id) */\n      add(0x20, mload(0x40))\n      tag_203\n      swap3\n      swap2\n      swap1\n      tag_204\n      jump\t// in\n    tag_203:\n      mload(0x40)\n      0x20\n      dup2\n      dup4\n      sub\n      sub\n      dup2\n      mstore\n      swap1\n      0x40\n      mstore\n        /* \"verifystud.sol\":1375:1417  keccak256(abi.encodePacked(_address, _id)) */\n      dup1\n      mload\n      swap1\n      0x20\n      add\n      keccak256\n        /* \"verifystud.sol\":1368:1417  return keccak256(abi.encodePacked(_address, _id)) */\n      swap1\n      pop\n        /* \"verifystud.sol\":1244:1425  function generateKey(... */\n      swap3\n      swap2\n      pop\n      pop\n      jump\t// out\n        /* \"verifystud.sol\":402:432  uint256 public trialnumber = 0 */\n    tag_71:\n      sload(0x04)\n      dup2\n      jump\t// out\n        /* \"verifystud.sol\":5938:6058  function getTransferStudentsCount() public view returns (uint256) {... */\n    tag_74:\n        /* \"verifystud.sol\":5995:6002  uint256 */\n      0x00\n        /* \"verifystud.sol\":6022:6043  transferStudentsarray */\n      0x06\n        /* \"verifystud.sol\":6022:6050  transferStudentsarray.length */\n      dup1\n      sload\n      swap1\n      pop\n        /* \"verifystud.sol\":6015:6050  return transferStudentsarray.length */\n      swap1\n      pop\n        /* \"verifystud.sol\":5938:6058  function getTransferStudentsCount() public view returns (uint256) {... */\n      swap1\n      jump\t// out\n        /* \"verifystud.sol\":6744:7265  function getTransferStudentByindex(... */\n    tag_78:\n        /* \"verifystud.sol\":6858:6871  string memory */\n      0x60\n        /* \"verifystud.sol\":6873:6880  address */\n      0x00\n        /* \"verifystud.sol\":6882:6895  string memory */\n      0x60\n        /* \"verifystud.sol\":6897:6910  string memory */\n      dup1\n        /* \"verifystud.sol\":6912:6919  address */\n      0x00\n        /* \"verifystud.sol\":6953:6973  pendingStudentsarray */\n      0x05\n        /* \"verifystud.sol\":6953:6980  pendingStudentsarray.length */\n      dup1\n      sload\n      swap1\n      pop\n        /* \"verifystud.sol\":6945:6950  index */\n      dup7\n        /* \"verifystud.sol\":6945:6980  index < pendingStudentsarray.length */\n      lt\n        /* \"verifystud.sol\":6937:7004  require(index < pendingStudentsarray.length, \"Index out of bounds\") */\n      tag_207\n      jumpi\n      mload(0x40)\n      0x08c379a000000000000000000000000000000000000000000000000000000000\n      dup2\n      mstore\n      0x04\n      add\n      tag_208\n      swap1\n      tag_160\n      jump\t// in\n    tag_208:\n      mload(0x40)\n      dup1\n      swap2\n      sub\n      swap1\n      revert\n    tag_207:\n        /* \"verifystud.sol\":7017:7051  pendingstudents memory studentinfo */\n      0x00\n        /* \"verifystud.sol\":7054:7075  transferStudentsarray */\n      0x06\n        /* \"verifystud.sol\":7076:7081  index */\n      dup8\n        /* \"verifystud.sol\":7054:7082  transferStudentsarray[index] */\n      dup2\n      sload\n      dup2\n      lt\n      tag_209\n      jumpi\n      tag_210\n      tag_163\n      jump\t// in\n    tag_210:\n    tag_209:\n      swap1\n      0x00\n      mstore\n      keccak256(0x00, 0x20)\n      swap1\n      0x05\n      mul\n      add\n        /* \"verifystud.sol\":7017:7082  pendingstudents memory studentinfo = transferStudentsarray[index] */\n      mload(0x40)\n      dup1\n      0xa0\n      add\n      0x40\n      mstore\n      swap1\n      dup2\n      0x00\n      dup3\n      add\n      dup1\n      sload\n      tag_212\n      swap1\n      tag_142\n      jump\t// in\n    tag_212:\n      dup1\n      0x1f\n      add\n      0x20\n      dup1\n      swap2\n      div\n      mul\n      0x20\n      add\n      mload(0x40)\n      swap1\n      dup2\n      add\n      0x40\n      mstore\n      dup1\n      swap3\n      swap2\n      swap1\n      dup2\n      dup2\n      mstore\n      0x20\n      add\n      dup3\n      dup1\n      sload\n      tag_213\n      swap1\n      tag_142\n      jump\t// in\n    tag_213:\n      dup1\n      iszero\n      tag_214\n      jumpi\n      dup1\n      0x1f\n      lt\n      tag_215\n      jumpi\n      0x0100\n      dup1\n      dup4\n      sload\n      div\n      mul\n      dup4\n      mstore\n      swap2\n      0x20\n      add\n      swap2\n      jump(tag_214)\n    tag_215:\n      dup3\n      add\n      swap2\n      swap1\n      0x00\n      mstore\n      keccak256(0x00, 0x20)\n      swap1\n    tag_216:\n      dup2\n      sload\n      dup2\n      mstore\n      swap1\n      0x01\n      add\n      swap1\n      0x20\n      add\n      dup1\n      dup4\n      gt\n      tag_216\n      jumpi\n      dup3\n      swap1\n      sub\n      0x1f\n      and\n      dup3\n      add\n      swap2\n    tag_214:\n      pop\n      pop\n      pop\n      pop\n      pop\n      dup2\n      mstore\n      0x20\n      add\n      0x01\n      dup3\n      add\n      0x00\n      swap1\n      sload\n      swap1\n      0x0100\n      exp\n      swap1\n      div\n      0xffffffffffffffffffffffffffffffffffffffff\n      and\n      0xffffffffffffffffffffffffffffffffffffffff\n      and\n      0xffffffffffffffffffffffffffffffffffffffff\n      and\n      dup2\n      mstore\n      0x20\n      add\n      0x02\n      dup3\n      add\n      dup1\n      sload\n      tag_217\n      swap1\n      tag_142\n      jump\t// in\n    tag_217:\n      dup1\n      0x1f\n      add\n      0x20\n      dup1\n      swap2\n      div\n      mul\n      0x20\n      add\n      mload(0x40)\n      swap1\n      dup2\n      add\n      0x40\n      mstore\n      dup1\n      swap3\n      swap2\n      swap1\n      dup2\n      dup2\n      mstore\n      0x20\n      add\n      dup3\n      dup1\n      sload\n      tag_218\n      swap1\n      tag_142\n      jump\t// in\n    tag_218:\n      dup1\n      iszero\n      tag_219\n      jumpi\n      dup1\n      0x1f\n      lt\n      tag_220\n      jumpi\n      0x0100\n      dup1\n      dup4\n      sload\n      div\n      mul\n      dup4\n      mstore\n      swap2\n      0x20\n      add\n      swap2\n      jump(tag_219)\n    tag_220:\n      dup3\n      add\n      swap2\n      swap1\n      0x00\n      mstore\n      keccak256(0x00, 0x20)\n      swap1\n    tag_221:\n      dup2\n      sload\n      dup2\n      mstore\n      swap1\n      0x01\n      add\n      swap1\n      0x20\n      add\n      dup1\n      dup4\n      gt\n      tag_221\n      jumpi\n      dup3\n      swap1\n      sub\n      0x1f\n      and\n      dup3\n      add\n      swap2\n    tag_219:\n      pop\n      pop\n      pop\n      pop\n      pop\n      dup2\n      mstore\n      0x20\n      add\n      0x03\n      dup3\n      add\n      dup1\n      sload\n      tag_222\n      swap1\n      tag_142\n      jump\t// in\n    tag_222:\n      dup1\n      0x1f\n      add\n      0x20\n      dup1\n      swap2\n      div\n      mul\n      0x20\n      add\n      mload(0x40)\n      swap1\n      dup2\n      add\n      0x40\n      mstore\n      dup1\n      swap3\n      swap2\n      swap1\n      dup2\n      dup2\n      mstore\n      0x20\n      add\n      dup3\n      dup1\n      sload\n      tag_223\n      swap1\n      tag_142\n      jump\t// in\n    tag_223:\n      dup1\n      iszero\n      tag_224\n      jumpi\n      dup1\n      0x1f\n      lt\n      tag_225\n      jumpi\n      0x0100\n      dup1\n      dup4\n      sload\n      div\n      mul\n      dup4\n      mstore\n      swap2\n      0x20\n      add\n      swap2\n      jump(tag_224)\n    tag_225:\n      dup3\n      add\n      swap2\n      swap1\n      0x00\n      mstore\n      keccak256(0x00, 0x20)\n      swap1\n    tag_226:\n      dup2\n      sload\n      dup2\n      mstore\n      swap1\n      0x01\n      add\n      swap1\n      0x20\n      add\n      dup1\n      dup4\n      gt\n      tag_226\n      jumpi\n      dup3\n      swap1\n      sub\n      0x1f\n      and\n      dup3\n      add\n      swap2\n    tag_224:\n      pop\n      pop\n      pop\n      pop\n      pop\n      dup2\n      mstore\n      0x20\n      add\n      0x04\n      dup3\n      add\n      0x00\n      swap1\n      sload\n      swap1\n      0x0100\n      exp\n      swap1\n      div\n      0xffffffffffffffffffffffffffffffffffffffff\n      and\n      0xffffffffffffffffffffffffffffffffffffffff\n      and\n      0xffffffffffffffffffffffffffffffffffffffff\n      and\n      dup2\n      mstore\n      pop\n      pop\n      swap1\n      pop\n        /* \"verifystud.sol\":7109:7120  studentinfo */\n      dup1\n        /* \"verifystud.sol\":7109:7125  studentinfo.name */\n      0x00\n      add\n      mload\n        /* \"verifystud.sol\":7136:7147  studentinfo */\n      dup2\n        /* \"verifystud.sol\":7136:7163  studentinfo.student_address */\n      0x20\n      add\n      mload\n        /* \"verifystud.sol\":7174:7185  studentinfo */\n      dup3\n        /* \"verifystud.sol\":7174:7191  studentinfo.email */\n      0x40\n      add\n      mload\n        /* \"verifystud.sol\":7202:7213  studentinfo */\n      dup4\n        /* \"verifystud.sol\":7202:7216  studentinfo.id */\n      0x60\n      add\n      mload\n        /* \"verifystud.sol\":7227:7238  studentinfo */\n      dup5\n        /* \"verifystud.sol\":7227:7250  studentinfo.instAddress */\n      0x80\n      add\n      mload\n        /* \"verifystud.sol\":7091:7257  return (... */\n      swap6\n      pop\n      swap6\n      pop\n      swap6\n      pop\n      swap6\n      pop\n      swap6\n      pop\n      pop\n        /* \"verifystud.sol\":6744:7265  function getTransferStudentByindex(... */\n      swap2\n      swap4\n      swap6\n      swap1\n      swap3\n      swap5\n      pop\n      jump\t// out\n        /* \"verifystud.sol\":2791:3680  function addTransferStudToPending(string memory _name, address _student_address, string memory _email, string memory _id, address _currentInstAddress, address _newinstAddress) public onlyverfiedInstitute{... */\n    tag_83:\n        /* \"verifystud.sol\":7970:7971  0 */\n      0x00\n        /* \"verifystud.sol\":7916:7972  instregd.registeredinstitutesmap(msg.sender)!=address(0) */\n      0xffffffffffffffffffffffffffffffffffffffff\n      and\n        /* \"verifystud.sol\":7916:7924  instregd */\n      0x02\n      0x00\n      swap1\n      sload\n      swap1\n      0x0100\n      exp\n      swap1\n      div\n      0xffffffffffffffffffffffffffffffffffffffff\n      and\n        /* \"verifystud.sol\":7916:7948  instregd.registeredinstitutesmap */\n      0xffffffffffffffffffffffffffffffffffffffff\n      and\n      0x839f602d\n        /* \"verifystud.sol\":7949:7959  msg.sender */\n      caller\n        /* \"verifystud.sol\":7916:7960  instregd.registeredinstitutesmap(msg.sender) */\n      mload(0x40)\n      dup3\n      0xffffffff\n      and\n      0xe0\n      shl\n      dup2\n      mstore\n      0x04\n      add\n      tag_228\n      swap2\n      swap1\n      tag_55\n      jump\t// in\n    tag_228:\n      0x20\n      mload(0x40)\n      dup1\n      dup4\n      sub\n      dup2\n      dup7\n      gas\n      staticcall\n      iszero\n      dup1\n      iszero\n      tag_230\n      jumpi\n      returndatasize\n      0x00\n      dup1\n      returndatacopy\n      revert(0x00, returndatasize)\n    tag_230:\n      pop\n      pop\n      pop\n      pop\n      mload(0x40)\n      returndatasize\n      not(0x1f)\n      0x1f\n      dup3\n      add\n      and\n      dup3\n      add\n      dup1\n      0x40\n      mstore\n      pop\n      dup2\n      add\n      swap1\n      tag_231\n      swap2\n      swap1\n      tag_138\n      jump\t// in\n    tag_231:\n        /* \"verifystud.sol\":7916:7972  instregd.registeredinstitutesmap(msg.sender)!=address(0) */\n      0xffffffffffffffffffffffffffffffffffffffff\n      and\n      eq\n      iszero\n        /* \"verifystud.sol\":7908:8000  require(instregd.registeredinstitutesmap(msg.sender)!=address(0), \"You are not Authorized!\") */\n      tag_232\n      jumpi\n      mload(0x40)\n      0x08c379a000000000000000000000000000000000000000000000000000000000\n      dup2\n      mstore\n      0x04\n      add\n      tag_233\n      swap1\n      tag_234\n      jump\t// in\n    tag_233:\n      mload(0x40)\n      dup1\n      swap2\n      sub\n      swap1\n      revert\n    tag_232:\n        /* \"verifystud.sol\":3005:3016  bytes32 key */\n      0x00\n        /* \"verifystud.sol\":3019:3026  studreg */\n      0x01\n      0x00\n      swap1\n      sload\n      swap1\n      0x0100\n      exp\n      swap1\n      div\n      0xffffffffffffffffffffffffffffffffffffffff\n      and\n        /* \"verifystud.sol\":3019:3038  studreg.generateKey */\n      0xffffffffffffffffffffffffffffffffffffffff\n      and\n      0x8a97503d\n        /* \"verifystud.sol\":3053:3069  _student_address */\n      dup8\n        /* \"verifystud.sol\":3084:3087  _id */\n      dup7\n        /* \"verifystud.sol\":3019:3098  studreg.generateKey(... */\n      mload(0x40)\n      dup4\n      0xffffffff\n      and\n      0xe0\n      shl\n      dup2\n      mstore\n      0x04\n      add\n      tag_236\n      swap3\n      swap2\n      swap1\n      tag_123\n      jump\t// in\n    tag_236:\n      0x20\n      mload(0x40)\n      dup1\n      dup4\n      sub\n      dup2\n      dup7\n      gas\n      staticcall\n      iszero\n      dup1\n      iszero\n      tag_238\n      jumpi\n      returndatasize\n      0x00\n      dup1\n      returndatacopy\n      revert(0x00, returndatasize)\n    tag_238:\n      pop\n      pop\n      pop\n      pop\n      mload(0x40)\n      returndatasize\n      not(0x1f)\n      0x1f\n      dup3\n      add\n      and\n      dup3\n      add\n      dup1\n      0x40\n      mstore\n      pop\n      dup2\n      add\n      swap1\n      tag_239\n      swap2\n      swap1\n      tag_127\n      jump\t// in\n    tag_239:\n        /* \"verifystud.sol\":3005:3098  bytes32 key = studreg.generateKey(... */\n      swap1\n      pop\n        /* \"verifystud.sol\":3124:3150  address currentInstAddress */\n      0x00\n        /* \"verifystud.sol\":3152:3159  studreg */\n      0x01\n      0x00\n      swap1\n      sload\n      swap1\n      0x0100\n      exp\n      swap1\n      div\n      0xffffffffffffffffffffffffffffffffffffffff\n      and\n        /* \"verifystud.sol\":3152:3185  studreg.getRegisteredStudentByKey */\n      0xffffffffffffffffffffffffffffffffffffffff\n      and\n      0x435df20d\n        /* \"verifystud.sol\":3186:3189  key */\n      dup4\n        /* \"verifystud.sol\":3152:3190  studreg.getRegisteredStudentByKey(key) */\n      mload(0x40)\n      dup3\n      0xffffffff\n      and\n      0xe0\n      shl\n      dup2\n      mstore\n      0x04\n      add\n      tag_240\n      swap2\n      swap1\n      tag_69\n      jump\t// in\n    tag_240:\n      0x00\n      mload(0x40)\n      dup1\n      dup4\n      sub\n      dup2\n      dup7\n      gas\n      staticcall\n      iszero\n      dup1\n      iszero\n      tag_242\n      jumpi\n      returndatasize\n      0x00\n      dup1\n      returndatacopy\n      revert(0x00, returndatasize)\n    tag_242:\n      pop\n      pop\n      pop\n      pop\n      mload(0x40)\n      returndatasize\n      0x00\n      dup3\n      returndatacopy\n      returndatasize\n      not(0x1f)\n      0x1f\n      dup3\n      add\n      and\n      dup3\n      add\n      dup1\n      0x40\n      mstore\n      pop\n      dup2\n      add\n      swap1\n      tag_243\n      swap2\n      swap1\n      tag_132\n      jump\t// in\n    tag_243:\n        /* \"verifystud.sol\":3119:3190  (,,,,address currentInstAddress)=studreg.getRegisteredStudentByKey(key) */\n      swap5\n      pop\n      pop\n      pop\n      pop\n      pop\n        /* \"verifystud.sol\":3241:3242  0 */\n      0x00\n        /* \"verifystud.sol\":3211:3243  currentInstAddress == address(0) */\n      0xffffffffffffffffffffffffffffffffffffffff\n      and\n        /* \"verifystud.sol\":3211:3229  currentInstAddress */\n      dup2\n        /* \"verifystud.sol\":3211:3243  currentInstAddress == address(0) */\n      0xffffffffffffffffffffffffffffffffffffffff\n      and\n      eq\n        /* \"verifystud.sol\":3209:3244  !(currentInstAddress == address(0)) */\n      iszero\n        /* \"verifystud.sol\":3209:3289  !(currentInstAddress == address(0)) && currentInstAddress == _currentInstAddress */\n      dup1\n      iszero\n      tag_244\n      jumpi\n      pop\n        /* \"verifystud.sol\":3270:3289  _currentInstAddress */\n      dup4\n        /* \"verifystud.sol\":3248:3289  currentInstAddress == _currentInstAddress */\n      0xffffffffffffffffffffffffffffffffffffffff\n      and\n        /* \"verifystud.sol\":3248:3266  currentInstAddress */\n      dup2\n        /* \"verifystud.sol\":3248:3289  currentInstAddress == _currentInstAddress */\n      0xffffffffffffffffffffffffffffffffffffffff\n      and\n      eq\n        /* \"verifystud.sol\":3209:3289  !(currentInstAddress == address(0)) && currentInstAddress == _currentInstAddress */\n    tag_244:\n        /* \"verifystud.sol\":3201:3321  require(!(currentInstAddress == address(0)) && currentInstAddress == _currentInstAddress, \"Not the Student's Institute\") */\n      tag_245\n      jumpi\n      mload(0x40)\n      0x08c379a000000000000000000000000000000000000000000000000000000000\n      dup2\n      mstore\n      0x04\n      add\n      tag_246\n      swap1\n      tag_247\n      jump\t// in\n    tag_246:\n      mload(0x40)\n      dup1\n      swap2\n      sub\n      swap1\n      revert\n    tag_245:\n        /* \"verifystud.sol\":3334:3374  pendingstudents memory newpendingstudent */\n      tag_248\n      tag_195\n      jump\t// in\n    tag_248:\n        /* \"verifystud.sol\":3410:3415  _name */\n      dup9\n        /* \"verifystud.sol\":3385:3402  newpendingstudent */\n      dup2\n        /* \"verifystud.sol\":3385:3407  newpendingstudent.name */\n      0x00\n      add\n        /* \"verifystud.sol\":3385:3415  newpendingstudent.name = _name */\n      dup2\n      swap1\n      mstore\n      pop\n        /* \"verifystud.sol\":3462:3478  _student_address */\n      dup8\n        /* \"verifystud.sol\":3426:3443  newpendingstudent */\n      dup2\n        /* \"verifystud.sol\":3426:3459  newpendingstudent.student_address */\n      0x20\n      add\n        /* \"verifystud.sol\":3426:3478  newpendingstudent.student_address = _student_address */\n      swap1\n      0xffffffffffffffffffffffffffffffffffffffff\n      and\n      swap1\n      dup2\n      0xffffffffffffffffffffffffffffffffffffffff\n      and\n      dup2\n      mstore\n      pop\n      pop\n        /* \"verifystud.sol\":3515:3521  _email */\n      dup7\n        /* \"verifystud.sol\":3489:3506  newpendingstudent */\n      dup2\n        /* \"verifystud.sol\":3489:3512  newpendingstudent.email */\n      0x40\n      add\n        /* \"verifystud.sol\":3489:3521  newpendingstudent.email = _email */\n      dup2\n      swap1\n      mstore\n      pop\n        /* \"verifystud.sol\":3555:3558  _id */\n      dup6\n        /* \"verifystud.sol\":3532:3549  newpendingstudent */\n      dup2\n        /* \"verifystud.sol\":3532:3552  newpendingstudent.id */\n      0x60\n      add\n        /* \"verifystud.sol\":3532:3558  newpendingstudent.id = _id */\n      dup2\n      swap1\n      mstore\n      pop\n        /* \"verifystud.sol\":3601:3616  _newinstAddress */\n      dup4\n        /* \"verifystud.sol\":3569:3586  newpendingstudent */\n      dup2\n        /* \"verifystud.sol\":3569:3598  newpendingstudent.instAddress */\n      0x80\n      add\n        /* \"verifystud.sol\":3569:3616  newpendingstudent.instAddress = _newinstAddress */\n      swap1\n      0xffffffffffffffffffffffffffffffffffffffff\n      and\n      swap1\n      dup2\n      0xffffffffffffffffffffffffffffffffffffffff\n      and\n      dup2\n      mstore\n      pop\n      pop\n        /* \"verifystud.sol\":3627:3648  transferStudentsarray */\n      0x06\n        /* \"verifystud.sol\":3654:3671  newpendingstudent */\n      dup2\n        /* \"verifystud.sol\":3627:3672  transferStudentsarray.push(newpendingstudent) */\n      swap1\n      dup1\n      0x01\n      dup2\n      sload\n      add\n      dup1\n      dup3\n      sstore\n      dup1\n      swap2\n      pop\n      pop\n      0x01\n      swap1\n      sub\n      swap1\n      0x00\n      mstore\n      keccak256(0x00, 0x20)\n      swap1\n      0x05\n      mul\n      add\n      0x00\n      swap1\n      swap2\n      swap1\n      swap2\n      swap1\n      swap2\n      pop\n      0x00\n      dup3\n      add\n      mload\n      dup2\n      0x00\n      add\n      swap1\n      dup1\n      mload\n      swap1\n      0x20\n      add\n      swap1\n      tag_250\n      swap3\n      swap2\n      swap1\n      tag_198\n      jump\t// in\n    tag_250:\n      pop\n      0x20\n      dup3\n      add\n      mload\n      dup2\n      0x01\n      add\n      exp(0x0100, 0x00)\n      dup2\n      sload\n      dup2\n      0xffffffffffffffffffffffffffffffffffffffff\n      mul\n      not\n      and\n      swap1\n      dup4\n      0xffffffffffffffffffffffffffffffffffffffff\n      and\n      mul\n      or\n      swap1\n      sstore\n      pop\n      0x40\n      dup3\n      add\n      mload\n      dup2\n      0x02\n      add\n      swap1\n      dup1\n      mload\n      swap1\n      0x20\n      add\n      swap1\n      tag_251\n      swap3\n      swap2\n      swap1\n      tag_198\n      jump\t// in\n    tag_251:\n      pop\n      0x60\n      dup3\n      add\n      mload\n      dup2\n      0x03\n      add\n      swap1\n      dup1\n      mload\n      swap1\n      0x20\n      add\n      swap1\n      tag_252\n      swap3\n      swap2\n      swap1\n      tag_198\n      jump\t// in\n    tag_252:\n      pop\n      0x80\n      dup3\n      add\n      mload\n      dup2\n      0x04\n      add\n      exp(0x0100, 0x00)\n      dup2\n      sload\n      dup2\n      0xffffffffffffffffffffffffffffffffffffffff\n      mul\n      not\n      and\n      swap1\n      dup4\n      0xffffffffffffffffffffffffffffffffffffffff\n      and\n      mul\n      or\n      swap1\n      sstore\n      pop\n      pop\n      pop\n        /* \"verifystud.sol\":2994:3680  {... */\n      pop\n      pop\n      pop\n        /* \"verifystud.sol\":2791:3680  function addTransferStudToPending(string memory _name, address _student_address, string memory _email, string memory _id, address _currentInstAddress, address _newinstAddress) public onlyverfiedInstitute{... */\n      pop\n      pop\n      pop\n      pop\n      pop\n      pop\n      jump\t// out\n        /* \"verifystud.sol\":6066:6184  function getPendingStudentsCount() public view returns (uint256) {... */\n    tag_85:\n        /* \"verifystud.sol\":6122:6129  uint256 */\n      0x00\n        /* \"verifystud.sol\":6149:6169  pendingStudentsarray */\n      0x05\n        /* \"verifystud.sol\":6149:6176  pendingStudentsarray.length */\n      dup1\n      sload\n      swap1\n      pop\n        /* \"verifystud.sol\":6142:6176  return pendingStudentsarray.length */\n      swap1\n      pop\n        /* \"verifystud.sol\":6066:6184  function getPendingStudentsCount() public view returns (uint256) {... */\n      swap1\n      jump\t// out\n        /* \"verifystud.sol\":319:364  address public studentRegisterContractAddress */\n    tag_88:\n      0x03\n      0x00\n      swap1\n      sload\n      swap1\n      0x0100\n      exp\n      swap1\n      div\n      0xffffffffffffffffffffffffffffffffffffffff\n      and\n      dup2\n      jump\t// out\n        /* \"verifystud.sol\":2047:2444  function conditionCheck(address _student_address, string memory _id) public view returns (bool) {... */\n    tag_92:\n        /* \"verifystud.sol\":2137:2141  bool */\n      0x00\n        /* \"verifystud.sol\":2154:2165  bytes32 key */\n      dup1\n        /* \"verifystud.sol\":2168:2175  studreg */\n      0x01\n      0x00\n      swap1\n      sload\n      swap1\n      0x0100\n      exp\n      swap1\n      div\n      0xffffffffffffffffffffffffffffffffffffffff\n      and\n        /* \"verifystud.sol\":2168:2187  studreg.generateKey */\n      0xffffffffffffffffffffffffffffffffffffffff\n      and\n      0x8a97503d\n        /* \"verifystud.sol\":2202:2218  _student_address */\n      dup6\n        /* \"verifystud.sol\":2233:2236  _id */\n      dup6\n        /* \"verifystud.sol\":2168:2247  studreg.generateKey(... */\n      mload(0x40)\n      dup4\n      0xffffffff\n      and\n      0xe0\n      shl\n      dup2\n      mstore\n      0x04\n      add\n      tag_255\n      swap3\n      swap2\n      swap1\n      tag_123\n      jump\t// in\n    tag_255:\n      0x20\n      mload(0x40)\n      dup1\n      dup4\n      sub\n      dup2\n      dup7\n      gas\n      staticcall\n      iszero\n      dup1\n      iszero\n      tag_257\n      jumpi\n      returndatasize\n      0x00\n      dup1\n      returndatacopy\n      revert(0x00, returndatasize)\n    tag_257:\n      pop\n      pop\n      pop\n      pop\n      mload(0x40)\n      returndatasize\n      not(0x1f)\n      0x1f\n      dup3\n      add\n      and\n      dup3\n      add\n      dup1\n      0x40\n      mstore\n      pop\n      dup2\n      add\n      swap1\n      tag_258\n      swap2\n      swap1\n      tag_127\n      jump\t// in\n    tag_258:\n        /* \"verifystud.sol\":2154:2247  bytes32 key = studreg.generateKey(... */\n      swap1\n      pop\n        /* \"verifystud.sol\":2263:2289  address currentInstAddress */\n      0x00\n        /* \"verifystud.sol\":2291:2298  studreg */\n      0x01\n      0x00\n      swap1\n      sload\n      swap1\n      0x0100\n      exp\n      swap1\n      div\n      0xffffffffffffffffffffffffffffffffffffffff\n      and\n        /* \"verifystud.sol\":2291:2324  studreg.getRegisteredStudentByKey */\n      0xffffffffffffffffffffffffffffffffffffffff\n      and\n      0x435df20d\n        /* \"verifystud.sol\":2325:2328  key */\n      dup4\n        /* \"verifystud.sol\":2291:2329  studreg.getRegisteredStudentByKey(key) */\n      mload(0x40)\n      dup3\n      0xffffffff\n      and\n      0xe0\n      shl\n      dup2\n      mstore\n      0x04\n      add\n      tag_259\n      swap2\n      swap1\n      tag_69\n      jump\t// in\n    tag_259:\n      0x00\n      mload(0x40)\n      dup1\n      dup4\n      sub\n      dup2\n      dup7\n      gas\n      staticcall\n      iszero\n      dup1\n      iszero\n      tag_261\n      jumpi\n      returndatasize\n      0x00\n      dup1\n      returndatacopy\n      revert(0x00, returndatasize)\n    tag_261:\n      pop\n      pop\n      pop\n      pop\n      mload(0x40)\n      returndatasize\n      0x00\n      dup3\n      returndatacopy\n      returndatasize\n      not(0x1f)\n      0x1f\n      dup3\n      add\n      and\n      dup3\n      add\n      dup1\n      0x40\n      mstore\n      pop\n      dup2\n      add\n      swap1\n      tag_262\n      swap2\n      swap1\n      tag_132\n      jump\t// in\n    tag_262:\n        /* \"verifystud.sol\":2258:2329  (,,,,address currentInstAddress)=studreg.getRegisteredStudentByKey(key) */\n      swap5\n      pop\n      pop\n      pop\n      pop\n      pop\n        /* \"verifystud.sol\":2373:2374  0 */\n      0x00\n        /* \"verifystud.sol\":2343:2375  currentInstAddress == address(0) */\n      0xffffffffffffffffffffffffffffffffffffffff\n      and\n        /* \"verifystud.sol\":2343:2361  currentInstAddress */\n      dup2\n        /* \"verifystud.sol\":2343:2375  currentInstAddress == address(0) */\n      0xffffffffffffffffffffffffffffffffffffffff\n      and\n      eq\n        /* \"verifystud.sol\":2340:2414  if(currentInstAddress == address(0)){... */\n      iszero\n      tag_263\n      jumpi\n        /* \"verifystud.sol\":2398:2402  true */\n      0x01\n        /* \"verifystud.sol\":2391:2402  return true */\n      swap3\n      pop\n      pop\n      pop\n      jump(tag_254)\n        /* \"verifystud.sol\":2340:2414  if(currentInstAddress == address(0)){... */\n    tag_263:\n        /* \"verifystud.sol\":2431:2436  false */\n      0x00\n        /* \"verifystud.sol\":2424:2436  return false */\n      swap3\n      pop\n      pop\n      pop\n        /* \"verifystud.sol\":2047:2444  function conditionCheck(address _student_address, string memory _id) public view returns (bool) {... */\n    tag_254:\n      swap3\n      swap2\n      pop\n      pop\n      jump\t// out\n        /* \"verifystud.sol\":286:312  verifyinst public instregd */\n    tag_95:\n      0x02\n      0x00\n      swap1\n      sload\n      swap1\n      0x0100\n      exp\n      swap1\n      div\n      0xffffffffffffffffffffffffffffffffffffffff\n      and\n      dup2\n      jump\t// out\n        /* \"verifystud.sol\":983:1028  pendingstudents[] public pendingStudentsarray */\n    tag_100:\n      0x05\n      dup2\n      dup2\n      sload\n      dup2\n      lt\n      tag_264\n      jumpi\n      0x00\n      dup1\n      revert\n    tag_264:\n      swap1\n      0x00\n      mstore\n      keccak256(0x00, 0x20)\n      swap1\n      0x05\n      mul\n      add\n      0x00\n      swap2\n      pop\n      swap1\n      pop\n      dup1\n      0x00\n      add\n      dup1\n      sload\n      tag_266\n      swap1\n      tag_142\n      jump\t// in\n    tag_266:\n      dup1\n      0x1f\n      add\n      0x20\n      dup1\n      swap2\n      div\n      mul\n      0x20\n      add\n      mload(0x40)\n      swap1\n      dup2\n      add\n      0x40\n      mstore\n      dup1\n      swap3\n      swap2\n      swap1\n      dup2\n      dup2\n      mstore\n      0x20\n      add\n      dup3\n      dup1\n      sload\n      tag_267\n      swap1\n      tag_142\n      jump\t// in\n    tag_267:\n      dup1\n      iszero\n      tag_268\n      jumpi\n      dup1\n      0x1f\n      lt\n      tag_269\n      jumpi\n      0x0100\n      dup1\n      dup4\n      sload\n      div\n      mul\n      dup4\n      mstore\n      swap2\n      0x20\n      add\n      swap2\n      jump(tag_268)\n    tag_269:\n      dup3\n      add\n      swap2\n      swap1\n      0x00\n      mstore\n      keccak256(0x00, 0x20)\n      swap1\n    tag_270:\n      dup2\n      sload\n      dup2\n      mstore\n      swap1\n      0x01\n      add\n      swap1\n      0x20\n      add\n      dup1\n      dup4\n      gt\n      tag_270\n      jumpi\n      dup3\n      swap1\n      sub\n      0x1f\n      and\n      dup3\n      add\n      swap2\n    tag_268:\n      pop\n      pop\n      pop\n      pop\n      pop\n      swap1\n      dup1\n      0x01\n      add\n      0x00\n      swap1\n      sload\n      swap1\n      0x0100\n      exp\n      swap1\n      div\n      0xffffffffffffffffffffffffffffffffffffffff\n      and\n      swap1\n      dup1\n      0x02\n      add\n      dup1\n      sload\n      tag_271\n      swap1\n      tag_142\n      jump\t// in\n    tag_271:\n      dup1\n      0x1f\n      add\n      0x20\n      dup1\n      swap2\n      div\n      mul\n      0x20\n      add\n      mload(0x40)\n      swap1\n      dup2\n      add\n      0x40\n      mstore\n      dup1\n      swap3\n      swap2\n      swap1\n      dup2\n      dup2\n      mstore\n      0x20\n      add\n      dup3\n      dup1\n      sload\n      tag_272\n      swap1\n      tag_142\n      jump\t// in\n    tag_272:\n      dup1\n      iszero\n      tag_273\n      jumpi\n      dup1\n      0x1f\n      lt\n      tag_274\n      jumpi\n      0x0100\n      dup1\n      dup4\n      sload\n      div\n      mul\n      dup4\n      mstore\n      swap2\n      0x20\n      add\n      swap2\n      jump(tag_273)\n    tag_274:\n      dup3\n      add\n      swap2\n      swap1\n      0x00\n      mstore\n      keccak256(0x00, 0x20)\n      swap1\n    tag_275:\n      dup2\n      sload\n      dup2\n      mstore\n      swap1\n      0x01\n      add\n      swap1\n      0x20\n      add\n      dup1\n      dup4\n      gt\n      tag_275\n      jumpi\n      dup3\n      swap1\n      sub\n      0x1f\n      and\n      dup3\n      add\n      swap2\n    tag_273:\n      pop\n      pop\n      pop\n      pop\n      pop\n      swap1\n      dup1\n      0x03\n      add\n      dup1\n      sload\n      tag_276\n      swap1\n      tag_142\n      jump\t// in\n    tag_276:\n      dup1\n      0x1f\n      add\n      0x20\n      dup1\n      swap2\n      div\n      mul\n      0x20\n      add\n      mload(0x40)\n      swap1\n      dup2\n      add\n      0x40\n      mstore\n      dup1\n      swap3\n      swap2\n      swap1\n      dup2\n      dup2\n      mstore\n      0x20\n      add\n      dup3\n      dup1\n      sload\n      tag_277\n      swap1\n      tag_142\n      jump\t// in\n    tag_277:\n      dup1\n      iszero\n      tag_278\n      jumpi\n      dup1\n      0x1f\n      lt\n      tag_279\n      jumpi\n      0x0100\n      dup1\n      dup4\n      sload\n      div\n      mul\n      dup4\n      mstore\n      swap2\n      0x20\n      add\n      swap2\n      jump(tag_278)\n    tag_279:\n      dup3\n      add\n      swap2\n      swap1\n      0x00\n      mstore\n      keccak256(0x00, 0x20)\n      swap1\n    tag_280:\n      dup2\n      sload\n      dup2\n      mstore\n      swap1\n      0x01\n      add\n      swap1\n      0x20\n      add\n      dup1\n      dup4\n      gt\n      tag_280\n      jumpi\n      dup3\n      swap1\n      sub\n      0x1f\n      and\n      dup3\n      add\n      swap2\n    tag_278:\n      pop\n      pop\n      pop\n      pop\n      pop\n      swap1\n      dup1\n      0x04\n      add\n      0x00\n      swap1\n      sload\n      swap1\n      0x0100\n      exp\n      swap1\n      div\n      0xffffffffffffffffffffffffffffffffffffffff\n      and\n      swap1\n      pop\n      dup6\n      jump\t// out\n        /* \"verifystud.sol\":252:279  registerStud public studreg */\n    tag_103:\n      0x01\n      0x00\n      swap1\n      sload\n      swap1\n      0x0100\n      exp\n      swap1\n      div\n      0xffffffffffffffffffffffffffffffffffffffff\n      and\n      dup2\n      jump\t// out\n        /* \"verifystud.sol\":7554:7714  function getStudentContractByAddress(... */\n    tag_108:\n        /* \"verifystud.sol\":7647:7654  address */\n      0x00\n        /* \"verifystud.sol\":7674:7695  registeredStudentsmap */\n      0x07\n        /* \"verifystud.sol\":7674:7706  registeredStudentsmap[_employee] */\n      0x00\n        /* \"verifystud.sol\":7696:7705  _employee */\n      dup4\n        /* \"verifystud.sol\":7674:7706  registeredStudentsmap[_employee] */\n      0xffffffffffffffffffffffffffffffffffffffff\n      and\n      0xffffffffffffffffffffffffffffffffffffffff\n      and\n      dup2\n      mstore\n      0x20\n      add\n      swap1\n      dup2\n      mstore\n      0x20\n      add\n      0x00\n      keccak256\n      0x00\n      swap1\n      sload\n      swap1\n      0x0100\n      exp\n      swap1\n      div\n      0xffffffffffffffffffffffffffffffffffffffff\n      and\n        /* \"verifystud.sol\":7667:7706  return registeredStudentsmap[_employee] */\n      swap1\n      pop\n        /* \"verifystud.sol\":7554:7714  function getStudentContractByAddress(... */\n      swap2\n      swap1\n      pop\n      jump\t// out\n        /* \"verifystud.sol\":4588:5469  function verifyTransferstudent(uint256 index) public {... */\n    tag_112:\n        /* \"verifystud.sol\":4653:4671  string memory name */\n      0x00\n        /* \"verifystud.sol\":4672:4695  address student_address */\n      dup1\n        /* \"verifystud.sol\":4696:4715  string memory email */\n      0x00\n        /* \"verifystud.sol\":4716:4732  string memory id */\n      dup1\n        /* \"verifystud.sol\":4733:4752  address instaddress */\n      0x00\n        /* \"verifystud.sol\":4754:4786  getTransferStudentByindex(index) */\n      tag_283\n        /* \"verifystud.sol\":4780:4785  index */\n      dup7\n        /* \"verifystud.sol\":4754:4779  getTransferStudentByindex */\n      tag_78\n        /* \"verifystud.sol\":4754:4786  getTransferStudentByindex(index) */\n      jump\t// in\n    tag_283:\n        /* \"verifystud.sol\":4652:4786  (string memory name,address student_address,string memory email,string memory id,address instaddress)=getTransferStudentByindex(index) */\n      swap5\n      pop\n      swap5\n      pop\n      swap5\n      pop\n      swap5\n      pop\n      swap5\n      pop\n        /* \"verifystud.sol\":4819:4830  instaddress */\n      dup1\n        /* \"verifystud.sol\":4805:4830  msg.sender == instaddress */\n      0xffffffffffffffffffffffffffffffffffffffff\n      and\n        /* \"verifystud.sol\":4805:4815  msg.sender */\n      caller\n        /* \"verifystud.sol\":4805:4830  msg.sender == instaddress */\n      0xffffffffffffffffffffffffffffffffffffffff\n      and\n      eq\n        /* \"verifystud.sol\":4797:4861  require(msg.sender == instaddress, \"Not the Stuent's Institute\") */\n      tag_284\n      jumpi\n      mload(0x40)\n      0x08c379a000000000000000000000000000000000000000000000000000000000\n      dup2\n      mstore\n      0x04\n      add\n      tag_285\n      swap1\n      tag_286\n      jump\t// in\n    tag_285:\n      mload(0x40)\n      dup1\n      swap2\n      sub\n      swap1\n      revert\n    tag_284:\n        /* \"verifystud.sol\":5137:5148  bytes32 key */\n      0x00\n        /* \"verifystud.sol\":5151:5158  studreg */\n      0x01\n      0x00\n      swap1\n      sload\n      swap1\n      0x0100\n      exp\n      swap1\n      div\n      0xffffffffffffffffffffffffffffffffffffffff\n      and\n        /* \"verifystud.sol\":5151:5170  studreg.generateKey */\n      0xffffffffffffffffffffffffffffffffffffffff\n      and\n      0x8a97503d\n        /* \"verifystud.sol\":5185:5200  student_address */\n      dup7\n        /* \"verifystud.sol\":5215:5217  id */\n      dup6\n        /* \"verifystud.sol\":5151:5228  studreg.generateKey(... */\n      mload(0x40)\n      dup4\n      0xffffffff\n      and\n      0xe0\n      shl\n      dup2\n      mstore\n      0x04\n      add\n      tag_287\n      swap3\n      swap2\n      swap1\n      tag_123\n      jump\t// in\n    tag_287:\n      0x20\n      mload(0x40)\n      dup1\n      dup4\n      sub\n      dup2\n      dup7\n      gas\n      staticcall\n      iszero\n      dup1\n      iszero\n      tag_289\n      jumpi\n      returndatasize\n      0x00\n      dup1\n      returndatacopy\n      revert(0x00, returndatasize)\n    tag_289:\n      pop\n      pop\n      pop\n      pop\n      mload(0x40)\n      returndatasize\n      not(0x1f)\n      0x1f\n      dup3\n      add\n      and\n      dup3\n      add\n      dup1\n      0x40\n      mstore\n      pop\n      dup2\n      add\n      swap1\n      tag_290\n      swap2\n      swap1\n      tag_127\n      jump\t// in\n    tag_290:\n        /* \"verifystud.sol\":5137:5228  bytes32 key = studreg.generateKey(... */\n      swap1\n      pop\n        /* \"verifystud.sol\":5247:5254  studreg */\n      0x01\n      0x00\n      swap1\n      sload\n      swap1\n      0x0100\n      exp\n      swap1\n      div\n      0xffffffffffffffffffffffffffffffffffffffff\n      and\n        /* \"verifystud.sol\":5247:5272  studreg.addInstTostudInfo */\n      0xffffffffffffffffffffffffffffffffffffffff\n      and\n      0x4268ddbd\n        /* \"verifystud.sol\":5273:5278  index */\n      dup9\n        /* \"verifystud.sol\":5280:5283  key */\n      dup4\n        /* \"verifystud.sol\":5285:5295  msg.sender */\n      caller\n        /* \"verifystud.sol\":5247:5296  studreg.addInstTostudInfo(index, key, msg.sender) */\n      mload(0x40)\n      dup5\n      0xffffffff\n      and\n      0xe0\n      shl\n      dup2\n      mstore\n      0x04\n      add\n      tag_291\n      swap4\n      swap3\n      swap2\n      swap1\n      tag_292\n      jump\t// in\n    tag_291:\n      0x20\n      mload(0x40)\n      dup1\n      dup4\n      sub\n      dup2\n      0x00\n      dup8\n      gas\n      call\n      iszero\n      dup1\n      iszero\n      tag_294\n      jumpi\n      returndatasize\n      0x00\n      dup1\n      returndatacopy\n      revert(0x00, returndatasize)\n    tag_294:\n      pop\n      pop\n      pop\n      pop\n      mload(0x40)\n      returndatasize\n      not(0x1f)\n      0x1f\n      dup3\n      add\n      and\n      dup3\n      add\n      dup1\n      0x40\n      mstore\n      pop\n      dup2\n      add\n      swap1\n      tag_295\n      swap2\n      swap1\n      tag_185\n      jump\t// in\n    tag_295:\n        /* \"verifystud.sol\":5239:5340  require(studreg.addInstTostudInfo(index, key, msg.sender), \"Failed to add institute to student info\") */\n      tag_296\n      jumpi\n      mload(0x40)\n      0x08c379a000000000000000000000000000000000000000000000000000000000\n      dup2\n      mstore\n      0x04\n      add\n      tag_297\n      swap1\n      tag_298\n      jump\t// in\n    tag_297:\n      mload(0x40)\n      dup1\n      swap2\n      sub\n      swap1\n      revert\n    tag_296:\n        /* \"verifystud.sol\":5358:5379  transferStudentsarray */\n      0x06\n        /* \"verifystud.sol\":5380:5385  index */\n      dup8\n        /* \"verifystud.sol\":5358:5386  transferStudentsarray[index] */\n      dup2\n      sload\n      dup2\n      lt\n      tag_299\n      jumpi\n      tag_300\n      tag_163\n      jump\t// in\n    tag_300:\n    tag_299:\n      swap1\n      0x00\n      mstore\n      keccak256(0x00, 0x20)\n      swap1\n      0x05\n      mul\n      add\n      0x00\n        /* \"verifystud.sol\":5351:5386  delete transferStudentsarray[index] */\n      dup1\n      dup3\n      add\n      0x00\n      tag_302\n      swap2\n      swap1\n      tag_303\n      jump\t// in\n    tag_302:\n      0x01\n      dup3\n      add\n      exp(0x0100, 0x00)\n      dup2\n      sload\n      swap1\n      0xffffffffffffffffffffffffffffffffffffffff\n      mul\n      not\n      and\n      swap1\n      sstore\n      0x02\n      dup3\n      add\n      0x00\n      tag_304\n      swap2\n      swap1\n      tag_303\n      jump\t// in\n    tag_304:\n      0x03\n      dup3\n      add\n      0x00\n      tag_305\n      swap2\n      swap1\n      tag_303\n      jump\t// in\n    tag_305:\n      0x04\n      dup3\n      add\n      exp(0x0100, 0x00)\n      dup2\n      sload\n      swap1\n      0xffffffffffffffffffffffffffffffffffffffff\n      mul\n      not\n      and\n      swap1\n      sstore\n      pop\n      pop\n        /* \"verifystud.sol\":4641:5469  {... */\n      pop\n      pop\n      pop\n      pop\n      pop\n      pop\n        /* \"verifystud.sol\":4588:5469  function verifyTransferstudent(uint256 index) public {... */\n      pop\n      jump\t// out\n        /* \"verifystud.sol\":3688:4579  function verifystudent(uint256 index) public onlyverfiedInstitute  {... */\n    tag_115:\n        /* \"verifystud.sol\":7970:7971  0 */\n      0x00\n        /* \"verifystud.sol\":7916:7972  instregd.registeredinstitutesmap(msg.sender)!=address(0) */\n      0xffffffffffffffffffffffffffffffffffffffff\n      and\n        /* \"verifystud.sol\":7916:7924  instregd */\n      0x02\n      0x00\n      swap1\n      sload\n      swap1\n      0x0100\n      exp\n      swap1\n      div\n      0xffffffffffffffffffffffffffffffffffffffff\n      and\n        /* \"verifystud.sol\":7916:7948  instregd.registeredinstitutesmap */\n      0xffffffffffffffffffffffffffffffffffffffff\n      and\n      0x839f602d\n        /* \"verifystud.sol\":7949:7959  msg.sender */\n      caller\n        /* \"verifystud.sol\":7916:7960  instregd.registeredinstitutesmap(msg.sender) */\n      mload(0x40)\n      dup3\n      0xffffffff\n      and\n      0xe0\n      shl\n      dup2\n      mstore\n      0x04\n      add\n      tag_307\n      swap2\n      swap1\n      tag_55\n      jump\t// in\n    tag_307:\n      0x20\n      mload(0x40)\n      dup1\n      dup4\n      sub\n      dup2\n      dup7\n      gas\n      staticcall\n      iszero\n      dup1\n      iszero\n      tag_309\n      jumpi\n      returndatasize\n      0x00\n      dup1\n      returndatacopy\n      revert(0x00, returndatasize)\n    tag_309:\n      pop\n      pop\n      pop\n      pop\n      mload(0x40)\n      returndatasize\n      not(0x1f)\n      0x1f\n      dup3\n      add\n      and\n      dup3\n      add\n      dup1\n      0x40\n      mstore\n      pop\n      dup2\n      add\n      swap1\n      tag_310\n      swap2\n      swap1\n      tag_138\n      jump\t// in\n    tag_310:\n        /* \"verifystud.sol\":7916:7972  instregd.registeredinstitutesmap(msg.sender)!=address(0) */\n      0xffffffffffffffffffffffffffffffffffffffff\n      and\n      eq\n      iszero\n        /* \"verifystud.sol\":7908:8000  require(instregd.registeredinstitutesmap(msg.sender)!=address(0), \"You are not Authorized!\") */\n      tag_311\n      jumpi\n      mload(0x40)\n      0x08c379a000000000000000000000000000000000000000000000000000000000\n      dup2\n      mstore\n      0x04\n      add\n      tag_312\n      swap1\n      tag_234\n      jump\t// in\n    tag_312:\n      mload(0x40)\n      dup1\n      swap2\n      sub\n      swap1\n      revert\n    tag_311:\n        /* \"verifystud.sol\":3767:3785  string memory name */\n      0x00\n        /* \"verifystud.sol\":3786:3809  address student_address */\n      dup1\n        /* \"verifystud.sol\":3810:3829  string memory email */\n      0x00\n        /* \"verifystud.sol\":3830:3846  string memory id */\n      dup1\n        /* \"verifystud.sol\":3847:3866  address instaddress */\n      0x00\n        /* \"verifystud.sol\":3868:3899  getPendingStudentByindex(index) */\n      tag_314\n        /* \"verifystud.sol\":3893:3898  index */\n      dup7\n        /* \"verifystud.sol\":3868:3892  getPendingStudentByindex */\n      tag_50\n        /* \"verifystud.sol\":3868:3899  getPendingStudentByindex(index) */\n      jump\t// in\n    tag_314:\n        /* \"verifystud.sol\":3766:3899  (string memory name,address student_address,string memory email,string memory id,address instaddress)=getPendingStudentByindex(index) */\n      swap5\n      pop\n      swap5\n      pop\n      swap5\n      pop\n      swap5\n      pop\n      swap5\n      pop\n        /* \"verifystud.sol\":3932:3943  instaddress */\n      dup1\n        /* \"verifystud.sol\":3918:3943  msg.sender == instaddress */\n      0xffffffffffffffffffffffffffffffffffffffff\n      and\n        /* \"verifystud.sol\":3918:3928  msg.sender */\n      caller\n        /* \"verifystud.sol\":3918:3943  msg.sender == instaddress */\n      0xffffffffffffffffffffffffffffffffffffffff\n      and\n      eq\n        /* \"verifystud.sol\":3910:3974  require(msg.sender == instaddress, \"Not the Stuent's Institute\") */\n      tag_315\n      jumpi\n      mload(0x40)\n      0x08c379a000000000000000000000000000000000000000000000000000000000\n      dup2\n      mstore\n      0x04\n      add\n      tag_316\n      swap1\n      tag_286\n      jump\t// in\n    tag_316:\n      mload(0x40)\n      dup1\n      swap2\n      sub\n      swap1\n      revert\n    tag_315:\n        /* \"verifystud.sol\":4250:4261  bytes32 key */\n      0x00\n        /* \"verifystud.sol\":4264:4271  studreg */\n      0x01\n      0x00\n      swap1\n      sload\n      swap1\n      0x0100\n      exp\n      swap1\n      div\n      0xffffffffffffffffffffffffffffffffffffffff\n      and\n        /* \"verifystud.sol\":4264:4283  studreg.generateKey */\n      0xffffffffffffffffffffffffffffffffffffffff\n      and\n      0x8a97503d\n        /* \"verifystud.sol\":4298:4313  student_address */\n      dup7\n        /* \"verifystud.sol\":4328:4330  id */\n      dup6\n        /* \"verifystud.sol\":4264:4341  studreg.generateKey(... */\n      mload(0x40)\n      dup4\n      0xffffffff\n      and\n      0xe0\n      shl\n      dup2\n      mstore\n      0x04\n      add\n      tag_317\n      swap3\n      swap2\n      swap1\n      tag_123\n      jump\t// in\n    tag_317:\n      0x20\n      mload(0x40)\n      dup1\n      dup4\n      sub\n      dup2\n      dup7\n      gas\n      staticcall\n      iszero\n      dup1\n      iszero\n      tag_319\n      jumpi\n      returndatasize\n      0x00\n      dup1\n      returndatacopy\n      revert(0x00, returndatasize)\n    tag_319:\n      pop\n      pop\n      pop\n      pop\n      mload(0x40)\n      returndatasize\n      not(0x1f)\n      0x1f\n      dup3\n      add\n      and\n      dup3\n      add\n      dup1\n      0x40\n      mstore\n      pop\n      dup2\n      add\n      swap1\n      tag_320\n      swap2\n      swap1\n      tag_127\n      jump\t// in\n    tag_320:\n        /* \"verifystud.sol\":4250:4341  bytes32 key = studreg.generateKey(... */\n      swap1\n      pop\n        /* \"verifystud.sol\":4360:4367  studreg */\n      0x01\n      0x00\n      swap1\n      sload\n      swap1\n      0x0100\n      exp\n      swap1\n      div\n      0xffffffffffffffffffffffffffffffffffffffff\n      and\n        /* \"verifystud.sol\":4360:4385  studreg.addInstTostudInfo */\n      0xffffffffffffffffffffffffffffffffffffffff\n      and\n      0x4268ddbd\n        /* \"verifystud.sol\":4386:4391  index */\n      dup9\n        /* \"verifystud.sol\":4393:4396  key */\n      dup4\n        /* \"verifystud.sol\":4398:4408  msg.sender */\n      caller\n        /* \"verifystud.sol\":4360:4409  studreg.addInstTostudInfo(index, key, msg.sender) */\n      mload(0x40)\n      dup5\n      0xffffffff\n      and\n      0xe0\n      shl\n      dup2\n      mstore\n      0x04\n      add\n      tag_321\n      swap4\n      swap3\n      swap2\n      swap1\n      tag_292\n      jump\t// in\n    tag_321:\n      0x20\n      mload(0x40)\n      dup1\n      dup4\n      sub\n      dup2\n      0x00\n      dup8\n      gas\n      call\n      iszero\n      dup1\n      iszero\n      tag_323\n      jumpi\n      returndatasize\n      0x00\n      dup1\n      returndatacopy\n      revert(0x00, returndatasize)\n    tag_323:\n      pop\n      pop\n      pop\n      pop\n      mload(0x40)\n      returndatasize\n      not(0x1f)\n      0x1f\n      dup3\n      add\n      and\n      dup3\n      add\n      dup1\n      0x40\n      mstore\n      pop\n      dup2\n      add\n      swap1\n      tag_324\n      swap2\n      swap1\n      tag_185\n      jump\t// in\n    tag_324:\n        /* \"verifystud.sol\":4352:4453  require(studreg.addInstTostudInfo(index, key, msg.sender), \"Failed to add institute to student info\") */\n      tag_325\n      jumpi\n      mload(0x40)\n      0x08c379a000000000000000000000000000000000000000000000000000000000\n      dup2\n      mstore\n      0x04\n      add\n      tag_326\n      swap1\n      tag_298\n      jump\t// in\n    tag_326:\n      mload(0x40)\n      dup1\n      swap2\n      sub\n      swap1\n      revert\n    tag_325:\n        /* \"verifystud.sol\":4471:4491  pendingStudentsarray */\n      0x05\n        /* \"verifystud.sol\":4492:4497  index */\n      dup8\n        /* \"verifystud.sol\":4471:4498  pendingStudentsarray[index] */\n      dup2\n      sload\n      dup2\n      lt\n      tag_327\n      jumpi\n      tag_328\n      tag_163\n      jump\t// in\n    tag_328:\n    tag_327:\n      swap1\n      0x00\n      mstore\n      keccak256(0x00, 0x20)\n      swap1\n      0x05\n      mul\n      add\n      0x00\n        /* \"verifystud.sol\":4464:4498  delete pendingStudentsarray[index] */\n      dup1\n      dup3\n      add\n      0x00\n      tag_330\n      swap2\n      swap1\n      tag_303\n      jump\t// in\n    tag_330:\n      0x01\n      dup3\n      add\n      exp(0x0100, 0x00)\n      dup2\n      sload\n      swap1\n      0xffffffffffffffffffffffffffffffffffffffff\n      mul\n      not\n      and\n      swap1\n      sstore\n      0x02\n      dup3\n      add\n      0x00\n      tag_331\n      swap2\n      swap1\n      tag_303\n      jump\t// in\n    tag_331:\n      0x03\n      dup3\n      add\n      0x00\n      tag_332\n      swap2\n      swap1\n      tag_303\n      jump\t// in\n    tag_332:\n      0x04\n      dup3\n      add\n      exp(0x0100, 0x00)\n      dup2\n      sload\n      swap1\n      0xffffffffffffffffffffffffffffffffffffffff\n      mul\n      not\n      and\n      swap1\n      sstore\n      pop\n      pop\n        /* \"verifystud.sol\":3755:4579  {... */\n      pop\n      pop\n      pop\n      pop\n      pop\n      pop\n        /* \"verifystud.sol\":3688:4579  function verifystudent(uint256 index) public onlyverfiedInstitute  {... */\n      pop\n      jump\t// out\n        /* \"verifystud.sol\":5475:5930  function removeGraduateStud(uint256 index,address student_address,string memory id) public {... */\n    tag_119:\n        /* \"verifystud.sol\":5577:5588  bytes32 key */\n      0x00\n        /* \"verifystud.sol\":5591:5598  studreg */\n      0x01\n      0x00\n      swap1\n      sload\n      swap1\n      0x0100\n      exp\n      swap1\n      div\n      0xffffffffffffffffffffffffffffffffffffffff\n      and\n        /* \"verifystud.sol\":5591:5610  studreg.generateKey */\n      0xffffffffffffffffffffffffffffffffffffffff\n      and\n      0x8a97503d\n        /* \"verifystud.sol\":5625:5640  student_address */\n      dup5\n        /* \"verifystud.sol\":5655:5657  id */\n      dup5\n        /* \"verifystud.sol\":5591:5668  studreg.generateKey(... */\n      mload(0x40)\n      dup4\n      0xffffffff\n      and\n      0xe0\n      shl\n      dup2\n      mstore\n      0x04\n      add\n      tag_334\n      swap3\n      swap2\n      swap1\n      tag_123\n      jump\t// in\n    tag_334:\n      0x20\n      mload(0x40)\n      dup1\n      dup4\n      sub\n      dup2\n      dup7\n      gas\n      staticcall\n      iszero\n      dup1\n      iszero\n      tag_336\n      jumpi\n      returndatasize\n      0x00\n      dup1\n      returndatacopy\n      revert(0x00, returndatasize)\n    tag_336:\n      pop\n      pop\n      pop\n      pop\n      mload(0x40)\n      returndatasize\n      not(0x1f)\n      0x1f\n      dup3\n      add\n      and\n      dup3\n      add\n      dup1\n      0x40\n      mstore\n      pop\n      dup2\n      add\n      swap1\n      tag_337\n      swap2\n      swap1\n      tag_127\n      jump\t// in\n    tag_337:\n        /* \"verifystud.sol\":5577:5668  bytes32 key = studreg.generateKey(... */\n      swap1\n      pop\n        /* \"verifystud.sol\":5694:5720  address currentInstAddress */\n      0x00\n        /* \"verifystud.sol\":5722:5729  studreg */\n      0x01\n      0x00\n      swap1\n      sload\n      swap1\n      0x0100\n      exp\n      swap1\n      div\n      0xffffffffffffffffffffffffffffffffffffffff\n      and\n        /* \"verifystud.sol\":5722:5755  studreg.getRegisteredStudentByKey */\n      0xffffffffffffffffffffffffffffffffffffffff\n      and\n      0x435df20d\n        /* \"verifystud.sol\":5756:5759  key */\n      dup4\n        /* \"verifystud.sol\":5722:5760  studreg.getRegisteredStudentByKey(key) */\n      mload(0x40)\n      dup3\n      0xffffffff\n      and\n      0xe0\n      shl\n      dup2\n      mstore\n      0x04\n      add\n      tag_338\n      swap2\n      swap1\n      tag_69\n      jump\t// in\n    tag_338:\n      0x00\n      mload(0x40)\n      dup1\n      dup4\n      sub\n      dup2\n      dup7\n      gas\n      staticcall\n      iszero\n      dup1\n      iszero\n      tag_340\n      jumpi\n      returndatasize\n      0x00\n      dup1\n      returndatacopy\n      revert(0x00, returndatasize)\n    tag_340:\n      pop\n      pop\n      pop\n      pop\n      mload(0x40)\n      returndatasize\n      0x00\n      dup3\n      returndatacopy\n      returndatasize\n      not(0x1f)\n      0x1f\n      dup3\n      add\n      and\n      dup3\n      add\n      dup1\n      0x40\n      mstore\n      pop\n      dup2\n      add\n      swap1\n      tag_341\n      swap2\n      swap1\n      tag_132\n      jump\t// in\n    tag_341:\n        /* \"verifystud.sol\":5689:5760  (,,,,address currentInstAddress)=studreg.getRegisteredStudentByKey(key) */\n      swap5\n      pop\n      pop\n      pop\n      pop\n      pop\n        /* \"verifystud.sol\":5793:5811  currentInstAddress */\n      dup1\n        /* \"verifystud.sol\":5779:5811  msg.sender == currentInstAddress */\n      0xffffffffffffffffffffffffffffffffffffffff\n      and\n        /* \"verifystud.sol\":5779:5789  msg.sender */\n      caller\n        /* \"verifystud.sol\":5779:5811  msg.sender == currentInstAddress */\n      0xffffffffffffffffffffffffffffffffffffffff\n      and\n      eq\n        /* \"verifystud.sol\":5771:5812  require(msg.sender == currentInstAddress) */\n      tag_342\n      jumpi\n      0x00\n      dup1\n      revert\n    tag_342:\n        /* \"verifystud.sol\":5831:5838  studreg */\n      0x01\n      0x00\n      swap1\n      sload\n      swap1\n      0x0100\n      exp\n      swap1\n      div\n      0xffffffffffffffffffffffffffffffffffffffff\n      and\n        /* \"verifystud.sol\":5831:5861  studreg.removeInstFromstudInfo */\n      0xffffffffffffffffffffffffffffffffffffffff\n      and\n      0x956a3545\n        /* \"verifystud.sol\":5862:5867  index */\n      dup7\n        /* \"verifystud.sol\":5869:5872  key */\n      dup5\n        /* \"verifystud.sol\":5831:5873  studreg.removeInstFromstudInfo(index, key) */\n      mload(0x40)\n      dup4\n      0xffffffff\n      and\n      0xe0\n      shl\n      dup2\n      mstore\n      0x04\n      add\n      tag_343\n      swap3\n      swap2\n      swap1\n      tag_344\n      jump\t// in\n    tag_343:\n      0x20\n      mload(0x40)\n      dup1\n      dup4\n      sub\n      dup2\n      0x00\n      dup8\n      gas\n      call\n      iszero\n      dup1\n      iszero\n      tag_346\n      jumpi\n      returndatasize\n      0x00\n      dup1\n      returndatacopy\n      revert(0x00, returndatasize)\n    tag_346:\n      pop\n      pop\n      pop\n      pop\n      mload(0x40)\n      returndatasize\n      not(0x1f)\n      0x1f\n      dup3\n      add\n      and\n      dup3\n      add\n      dup1\n      0x40\n      mstore\n      pop\n      dup2\n      add\n      swap1\n      tag_347\n      swap2\n      swap1\n      tag_185\n      jump\t// in\n    tag_347:\n        /* \"verifystud.sol\":5823:5922  require(studreg.removeInstFromstudInfo(index, key), \"Failed to remove institute from student info\") */\n      tag_348\n      jumpi\n      mload(0x40)\n      0x08c379a000000000000000000000000000000000000000000000000000000000\n      dup2\n      mstore\n      0x04\n      add\n      tag_349\n      swap1\n      tag_350\n      jump\t// in\n    tag_349:\n      mload(0x40)\n      dup1\n      swap2\n      sub\n      swap1\n      revert\n    tag_348:\n        /* \"verifystud.sol\":5566:5930  {... */\n      pop\n      pop\n        /* \"verifystud.sol\":5475:5930  function removeGraduateStud(uint256 index,address student_address,string memory id) public {... */\n      pop\n      pop\n      pop\n      jump\t// out\n    tag_195:\n      mload(0x40)\n      dup1\n      0xa0\n      add\n      0x40\n      mstore\n      dup1\n      0x60\n      dup2\n      mstore\n      0x20\n      add\n      and(0xffffffffffffffffffffffffffffffffffffffff, 0x00)\n      dup2\n      mstore\n      0x20\n      add\n      0x60\n      dup2\n      mstore\n      0x20\n      add\n      0x60\n      dup2\n      mstore\n      0x20\n      add\n      and(0xffffffffffffffffffffffffffffffffffffffff, 0x00)\n      dup2\n      mstore\n      pop\n      swap1\n      jump\t// out\n    tag_198:\n      dup3\n      dup1\n      sload\n      tag_351\n      swap1\n      tag_142\n      jump\t// in\n    tag_351:\n      swap1\n      0x00\n      mstore\n      keccak256(0x00, 0x20)\n      swap1\n      0x1f\n      add\n      0x20\n      swap1\n      div\n      dup2\n      add\n      swap3\n      dup3\n      tag_353\n      jumpi\n      0x00\n      dup6\n      sstore\n      jump(tag_352)\n    tag_353:\n      dup3\n      0x1f\n      lt\n      tag_354\n      jumpi\n      dup1\n      mload\n      not(0xff)\n      and\n      dup4\n      dup1\n      add\n      or\n      dup6\n      sstore\n      jump(tag_352)\n    tag_354:\n      dup3\n      dup1\n      add\n      0x01\n      add\n      dup6\n      sstore\n      dup3\n      iszero\n      tag_352\n      jumpi\n      swap2\n      dup3\n      add\n    tag_355:\n      dup3\n      dup2\n      gt\n      iszero\n      tag_356\n      jumpi\n      dup3\n      mload\n      dup3\n      sstore\n      swap2\n      0x20\n      add\n      swap2\n      swap1\n      0x01\n      add\n      swap1\n      jump(tag_355)\n    tag_356:\n    tag_352:\n      pop\n      swap1\n      pop\n      tag_357\n      swap2\n      swap1\n      tag_358\n      jump\t// in\n    tag_357:\n      pop\n      swap1\n      jump\t// out\n    tag_303:\n      pop\n      dup1\n      sload\n      tag_359\n      swap1\n      tag_142\n      jump\t// in\n    tag_359:\n      0x00\n      dup3\n      sstore\n      dup1\n      0x1f\n      lt\n      tag_361\n      jumpi\n      pop\n      jump(tag_360)\n    tag_361:\n      0x1f\n      add\n      0x20\n      swap1\n      div\n      swap1\n      0x00\n      mstore\n      keccak256(0x00, 0x20)\n      swap1\n      dup2\n      add\n      swap1\n      tag_362\n      swap2\n      swap1\n      tag_358\n      jump\t// in\n    tag_362:\n    tag_360:\n      pop\n      jump\t// out\n    tag_358:\n    tag_363:\n      dup1\n      dup3\n      gt\n      iszero\n      tag_364\n      jumpi\n      0x00\n      dup2\n      0x00\n      swap1\n      sstore\n      pop\n      0x01\n      add\n      jump(tag_363)\n    tag_364:\n      pop\n      swap1\n      jump\t// out\n        /* \"#utility.yul\":7:84   */\n    tag_365:\n        /* \"#utility.yul\":44:51   */\n      0x00\n        /* \"#utility.yul\":73:78   */\n      dup2\n        /* \"#utility.yul\":62:78   */\n      swap1\n      pop\n        /* \"#utility.yul\":7:84   */\n      swap2\n      swap1\n      pop\n      jump\t// out\n        /* \"#utility.yul\":90:208   */\n    tag_366:\n        /* \"#utility.yul\":177:201   */\n      tag_435\n        /* \"#utility.yul\":195:200   */\n      dup2\n        /* \"#utility.yul\":177:201   */\n      tag_365\n      jump\t// in\n    tag_435:\n        /* \"#utility.yul\":172:175   */\n      dup3\n        /* \"#utility.yul\":165:202   */\n      mstore\n        /* \"#utility.yul\":90:208   */\n      pop\n      pop\n      jump\t// out\n        /* \"#utility.yul\":214:436   */\n    tag_32:\n        /* \"#utility.yul\":307:311   */\n      0x00\n        /* \"#utility.yul\":345:347   */\n      0x20\n        /* \"#utility.yul\":334:343   */\n      dup3\n        /* \"#utility.yul\":330:348   */\n      add\n        /* \"#utility.yul\":322:348   */\n      swap1\n      pop\n        /* \"#utility.yul\":358:429   */\n      tag_437\n        /* \"#utility.yul\":426:427   */\n      0x00\n        /* \"#utility.yul\":415:424   */\n      dup4\n        /* \"#utility.yul\":411:428   */\n      add\n        /* \"#utility.yul\":402:408   */\n      dup5\n        /* \"#utility.yul\":358:429   */\n      tag_366\n      jump\t// in\n    tag_437:\n        /* \"#utility.yul\":214:436   */\n      swap3\n      swap2\n      pop\n      pop\n      jump\t// out\n        /* \"#utility.yul\":442:517   */\n    tag_367:\n        /* \"#utility.yul\":475:481   */\n      0x00\n        /* \"#utility.yul\":508:510   */\n      0x40\n        /* \"#utility.yul\":502:511   */\n      mload\n        /* \"#utility.yul\":492:511   */\n      swap1\n      pop\n        /* \"#utility.yul\":442:517   */\n      swap1\n      jump\t// out\n        /* \"#utility.yul\":523:640   */\n    tag_368:\n        /* \"#utility.yul\":632:633   */\n      0x00\n        /* \"#utility.yul\":629:630   */\n      dup1\n        /* \"#utility.yul\":622:634   */\n      revert\n        /* \"#utility.yul\":646:763   */\n    tag_369:\n        /* \"#utility.yul\":755:756   */\n      0x00\n        /* \"#utility.yul\":752:753   */\n      dup1\n        /* \"#utility.yul\":745:757   */\n      revert\n        /* \"#utility.yul\":769:895   */\n    tag_370:\n        /* \"#utility.yul\":806:813   */\n      0x00\n        /* \"#utility.yul\":846:888   */\n      0xffffffffffffffffffffffffffffffffffffffff\n        /* \"#utility.yul\":839:844   */\n      dup3\n        /* \"#utility.yul\":835:889   */\n      and\n        /* \"#utility.yul\":824:889   */\n      swap1\n      pop\n        /* \"#utility.yul\":769:895   */\n      swap2\n      swap1\n      pop\n      jump\t// out\n        /* \"#utility.yul\":901:997   */\n    tag_371:\n        /* \"#utility.yul\":938:945   */\n      0x00\n        /* \"#utility.yul\":967:991   */\n      tag_443\n        /* \"#utility.yul\":985:990   */\n      dup3\n        /* \"#utility.yul\":967:991   */\n      tag_370\n      jump\t// in\n    tag_443:\n        /* \"#utility.yul\":956:991   */\n      swap1\n      pop\n        /* \"#utility.yul\":901:997   */\n      swap2\n      swap1\n      pop\n      jump\t// out\n        /* \"#utility.yul\":1003:1125   */\n    tag_372:\n        /* \"#utility.yul\":1076:1100   */\n      tag_445\n        /* \"#utility.yul\":1094:1099   */\n      dup2\n        /* \"#utility.yul\":1076:1100   */\n      tag_371\n      jump\t// in\n    tag_445:\n        /* \"#utility.yul\":1069:1074   */\n      dup2\n        /* \"#utility.yul\":1066:1101   */\n      eq\n        /* \"#utility.yul\":1056:1119   */\n      tag_446\n      jumpi\n        /* \"#utility.yul\":1115:1116   */\n      0x00\n        /* \"#utility.yul\":1112:1113   */\n      dup1\n        /* \"#utility.yul\":1105:1117   */\n      revert\n        /* \"#utility.yul\":1056:1119   */\n    tag_446:\n        /* \"#utility.yul\":1003:1125   */\n      pop\n      jump\t// out\n        /* \"#utility.yul\":1131:1270   */\n    tag_373:\n        /* \"#utility.yul\":1177:1182   */\n      0x00\n        /* \"#utility.yul\":1215:1221   */\n      dup2\n        /* \"#utility.yul\":1202:1222   */\n      calldataload\n        /* \"#utility.yul\":1193:1222   */\n      swap1\n      pop\n        /* \"#utility.yul\":1231:1264   */\n      tag_448\n        /* \"#utility.yul\":1258:1263   */\n      dup2\n        /* \"#utility.yul\":1231:1264   */\n      tag_372\n      jump\t// in\n    tag_448:\n        /* \"#utility.yul\":1131:1270   */\n      swap3\n      swap2\n      pop\n      pop\n      jump\t// out\n        /* \"#utility.yul\":1276:1393   */\n    tag_374:\n        /* \"#utility.yul\":1385:1386   */\n      0x00\n        /* \"#utility.yul\":1382:1383   */\n      dup1\n        /* \"#utility.yul\":1375:1387   */\n      revert\n        /* \"#utility.yul\":1399:1516   */\n    tag_375:\n        /* \"#utility.yul\":1508:1509   */\n      0x00\n        /* \"#utility.yul\":1505:1506   */\n      dup1\n        /* \"#utility.yul\":1498:1510   */\n      revert\n        /* \"#utility.yul\":1522:1624   */\n    tag_376:\n        /* \"#utility.yul\":1563:1569   */\n      0x00\n        /* \"#utility.yul\":1614:1616   */\n      0x1f\n        /* \"#utility.yul\":1610:1617   */\n      not\n        /* \"#utility.yul\":1605:1607   */\n      0x1f\n        /* \"#utility.yul\":1598:1603   */\n      dup4\n        /* \"#utility.yul\":1594:1608   */\n      add\n        /* \"#utility.yul\":1590:1618   */\n      and\n        /* \"#utility.yul\":1580:1618   */\n      swap1\n      pop\n        /* \"#utility.yul\":1522:1624   */\n      swap2\n      swap1\n      pop\n      jump\t// out\n        /* \"#utility.yul\":1630:1810   */\n    tag_377:\n        /* \"#utility.yul\":1678:1755   */\n      0x4e487b7100000000000000000000000000000000000000000000000000000000\n        /* \"#utility.yul\":1675:1676   */\n      0x00\n        /* \"#utility.yul\":1668:1756   */\n      mstore\n        /* \"#utility.yul\":1775:1779   */\n      0x41\n        /* \"#utility.yul\":1772:1773   */\n      0x04\n        /* \"#utility.yul\":1765:1780   */\n      mstore\n        /* \"#utility.yul\":1799:1803   */\n      0x24\n        /* \"#utility.yul\":1796:1797   */\n      0x00\n        /* \"#utility.yul\":1789:1804   */\n      revert\n        /* \"#utility.yul\":1816:2097   */\n    tag_378:\n        /* \"#utility.yul\":1899:1926   */\n      tag_454\n        /* \"#utility.yul\":1921:1925   */\n      dup3\n        /* \"#utility.yul\":1899:1926   */\n      tag_376\n      jump\t// in\n    tag_454:\n        /* \"#utility.yul\":1891:1897   */\n      dup2\n        /* \"#utility.yul\":1887:1927   */\n      add\n        /* \"#utility.yul\":2029:2035   */\n      dup2\n        /* \"#utility.yul\":2017:2027   */\n      dup2\n        /* \"#utility.yul\":2014:2036   */\n      lt\n        /* \"#utility.yul\":1993:2011   */\n      0xffffffffffffffff\n        /* \"#utility.yul\":1981:1991   */\n      dup3\n        /* \"#utility.yul\":1978:2012   */\n      gt\n        /* \"#utility.yul\":1975:2037   */\n      or\n        /* \"#utility.yul\":1972:2060   */\n      iszero\n      tag_455\n      jumpi\n        /* \"#utility.yul\":2040:2058   */\n      tag_456\n      tag_377\n      jump\t// in\n    tag_456:\n        /* \"#utility.yul\":1972:2060   */\n    tag_455:\n        /* \"#utility.yul\":2080:2090   */\n      dup1\n        /* \"#utility.yul\":2076:2078   */\n      0x40\n        /* \"#utility.yul\":2069:2091   */\n      mstore\n        /* \"#utility.yul\":1859:2097   */\n      pop\n        /* \"#utility.yul\":1816:2097   */\n      pop\n      pop\n      jump\t// out\n        /* \"#utility.yul\":2103:2232   */\n    tag_379:\n        /* \"#utility.yul\":2137:2143   */\n      0x00\n        /* \"#utility.yul\":2164:2184   */\n      tag_458\n      tag_367\n      jump\t// in\n    tag_458:\n        /* \"#utility.yul\":2154:2184   */\n      swap1\n      pop\n        /* \"#utility.yul\":2193:2226   */\n      tag_459\n        /* \"#utility.yul\":2221:2225   */\n      dup3\n        /* \"#utility.yul\":2213:2219   */\n      dup3\n        /* \"#utility.yul\":2193:2226   */\n      tag_378\n      jump\t// in\n    tag_459:\n        /* \"#utility.yul\":2103:2232   */\n      swap2\n      swap1\n      pop\n      jump\t// out\n        /* \"#utility.yul\":2238:2546   */\n    tag_380:\n        /* \"#utility.yul\":2300:2304   */\n      0x00\n        /* \"#utility.yul\":2390:2408   */\n      0xffffffffffffffff\n        /* \"#utility.yul\":2382:2388   */\n      dup3\n        /* \"#utility.yul\":2379:2409   */\n      gt\n        /* \"#utility.yul\":2376:2432   */\n      iszero\n      tag_461\n      jumpi\n        /* \"#utility.yul\":2412:2430   */\n      tag_462\n      tag_377\n      jump\t// in\n    tag_462:\n        /* \"#utility.yul\":2376:2432   */\n    tag_461:\n        /* \"#utility.yul\":2450:2479   */\n      tag_463\n        /* \"#utility.yul\":2472:2478   */\n      dup3\n        /* \"#utility.yul\":2450:2479   */\n      tag_376\n      jump\t// in\n    tag_463:\n        /* \"#utility.yul\":2442:2479   */\n      swap1\n      pop\n        /* \"#utility.yul\":2534:2538   */\n      0x20\n        /* \"#utility.yul\":2528:2532   */\n      dup2\n        /* \"#utility.yul\":2524:2539   */\n      add\n        /* \"#utility.yul\":2516:2539   */\n      swap1\n      pop\n        /* \"#utility.yul\":2238:2546   */\n      swap2\n      swap1\n      pop\n      jump\t// out\n        /* \"#utility.yul\":2552:2706   */\n    tag_381:\n        /* \"#utility.yul\":2636:2642   */\n      dup3\n        /* \"#utility.yul\":2631:2634   */\n      dup2\n        /* \"#utility.yul\":2626:2629   */\n      dup4\n        /* \"#utility.yul\":2613:2643   */\n      calldatacopy\n        /* \"#utility.yul\":2698:2699   */\n      0x00\n        /* \"#utility.yul\":2689:2695   */\n      dup4\n        /* \"#utility.yul\":2684:2687   */\n      dup4\n        /* \"#utility.yul\":2680:2696   */\n      add\n        /* \"#utility.yul\":2673:2700   */\n      mstore\n        /* \"#utility.yul\":2552:2706   */\n      pop\n      pop\n      pop\n      jump\t// out\n        /* \"#utility.yul\":2712:3124   */\n    tag_382:\n        /* \"#utility.yul\":2790:2795   */\n      0x00\n        /* \"#utility.yul\":2815:2881   */\n      tag_466\n        /* \"#utility.yul\":2831:2880   */\n      tag_467\n        /* \"#utility.yul\":2873:2879   */\n      dup5\n        /* \"#utility.yul\":2831:2880   */\n      tag_380\n      jump\t// in\n    tag_467:\n        /* \"#utility.yul\":2815:2881   */\n      tag_379\n      jump\t// in\n    tag_466:\n        /* \"#utility.yul\":2806:2881   */\n      swap1\n      pop\n        /* \"#utility.yul\":2904:2910   */\n      dup3\n        /* \"#utility.yul\":2897:2902   */\n      dup2\n        /* \"#utility.yul\":2890:2911   */\n      mstore\n        /* \"#utility.yul\":2942:2946   */\n      0x20\n        /* \"#utility.yul\":2935:2940   */\n      dup2\n        /* \"#utility.yul\":2931:2947   */\n      add\n        /* \"#utility.yul\":2980:2983   */\n      dup5\n        /* \"#utility.yul\":2971:2977   */\n      dup5\n        /* \"#utility.yul\":2966:2969   */\n      dup5\n        /* \"#utility.yul\":2962:2978   */\n      add\n        /* \"#utility.yul\":2959:2984   */\n      gt\n        /* \"#utility.yul\":2956:3068   */\n      iszero\n      tag_468\n      jumpi\n        /* \"#utility.yul\":2987:3066   */\n      tag_469\n      tag_375\n      jump\t// in\n    tag_469:\n        /* \"#utility.yul\":2956:3068   */\n    tag_468:\n        /* \"#utility.yul\":3077:3118   */\n      tag_470\n        /* \"#utility.yul\":3111:3117   */\n      dup5\n        /* \"#utility.yul\":3106:3109   */\n      dup3\n        /* \"#utility.yul\":3101:3104   */\n      dup6\n        /* \"#utility.yul\":3077:3118   */\n      tag_381\n      jump\t// in\n    tag_470:\n        /* \"#utility.yul\":2796:3124   */\n      pop\n        /* \"#utility.yul\":2712:3124   */\n      swap4\n      swap3\n      pop\n      pop\n      pop\n      jump\t// out\n        /* \"#utility.yul\":3144:3484   */\n    tag_383:\n        /* \"#utility.yul\":3200:3205   */\n      0x00\n        /* \"#utility.yul\":3249:3252   */\n      dup3\n        /* \"#utility.yul\":3242:3246   */\n      0x1f\n        /* \"#utility.yul\":3234:3240   */\n      dup4\n        /* \"#utility.yul\":3230:3247   */\n      add\n        /* \"#utility.yul\":3226:3253   */\n      slt\n        /* \"#utility.yul\":3216:3338   */\n      tag_472\n      jumpi\n        /* \"#utility.yul\":3257:3336   */\n      tag_473\n      tag_374\n      jump\t// in\n    tag_473:\n        /* \"#utility.yul\":3216:3338   */\n    tag_472:\n        /* \"#utility.yul\":3374:3380   */\n      dup2\n        /* \"#utility.yul\":3361:3381   */\n      calldataload\n        /* \"#utility.yul\":3399:3478   */\n      tag_474\n        /* \"#utility.yul\":3474:3477   */\n      dup5\n        /* \"#utility.yul\":3466:3472   */\n      dup3\n        /* \"#utility.yul\":3459:3463   */\n      0x20\n        /* \"#utility.yul\":3451:3457   */\n      dup7\n        /* \"#utility.yul\":3447:3464   */\n      add\n        /* \"#utility.yul\":3399:3478   */\n      tag_382\n      jump\t// in\n    tag_474:\n        /* \"#utility.yul\":3390:3478   */\n      swap2\n      pop\n        /* \"#utility.yul\":3206:3484   */\n      pop\n        /* \"#utility.yul\":3144:3484   */\n      swap3\n      swap2\n      pop\n      pop\n      jump\t// out\n        /* \"#utility.yul\":3490:4144   */\n    tag_35:\n        /* \"#utility.yul\":3568:3574   */\n      0x00\n        /* \"#utility.yul\":3576:3582   */\n      dup1\n        /* \"#utility.yul\":3625:3627   */\n      0x40\n        /* \"#utility.yul\":3613:3622   */\n      dup4\n        /* \"#utility.yul\":3604:3611   */\n      dup6\n        /* \"#utility.yul\":3600:3623   */\n      sub\n        /* \"#utility.yul\":3596:3628   */\n      slt\n        /* \"#utility.yul\":3593:3712   */\n      iszero\n      tag_476\n      jumpi\n        /* \"#utility.yul\":3631:3710   */\n      tag_477\n      tag_368\n      jump\t// in\n    tag_477:\n        /* \"#utility.yul\":3593:3712   */\n    tag_476:\n        /* \"#utility.yul\":3751:3752   */\n      0x00\n        /* \"#utility.yul\":3776:3829   */\n      tag_478\n        /* \"#utility.yul\":3821:3828   */\n      dup6\n        /* \"#utility.yul\":3812:3818   */\n      dup3\n        /* \"#utility.yul\":3801:3810   */\n      dup7\n        /* \"#utility.yul\":3797:3819   */\n      add\n        /* \"#utility.yul\":3776:3829   */\n      tag_373\n      jump\t// in\n    tag_478:\n        /* \"#utility.yul\":3766:3829   */\n      swap3\n      pop\n        /* \"#utility.yul\":3722:3839   */\n      pop\n        /* \"#utility.yul\":3906:3908   */\n      0x20\n        /* \"#utility.yul\":3895:3904   */\n      dup4\n        /* \"#utility.yul\":3891:3909   */\n      add\n        /* \"#utility.yul\":3878:3910   */\n      calldataload\n        /* \"#utility.yul\":3937:3955   */\n      0xffffffffffffffff\n        /* \"#utility.yul\":3929:3935   */\n      dup2\n        /* \"#utility.yul\":3926:3956   */\n      gt\n        /* \"#utility.yul\":3923:4040   */\n      iszero\n      tag_479\n      jumpi\n        /* \"#utility.yul\":3959:4038   */\n      tag_480\n      tag_369\n      jump\t// in\n    tag_480:\n        /* \"#utility.yul\":3923:4040   */\n    tag_479:\n        /* \"#utility.yul\":4064:4127   */\n      tag_481\n        /* \"#utility.yul\":4119:4126   */\n      dup6\n        /* \"#utility.yul\":4110:4116   */\n      dup3\n        /* \"#utility.yul\":4099:4108   */\n      dup7\n        /* \"#utility.yul\":4095:4117   */\n      add\n        /* \"#utility.yul\":4064:4127   */\n      tag_383\n      jump\t// in\n    tag_481:\n        /* \"#utility.yul\":4054:4127   */\n      swap2\n      pop\n        /* \"#utility.yul\":3849:4137   */\n      pop\n        /* \"#utility.yul\":3490:4144   */\n      swap3\n      pop\n      swap3\n      swap1\n      pop\n      jump\t// out\n        /* \"#utility.yul\":4150:4240   */\n    tag_384:\n        /* \"#utility.yul\":4184:4191   */\n      0x00\n        /* \"#utility.yul\":4227:4232   */\n      dup2\n        /* \"#utility.yul\":4220:4233   */\n      iszero\n        /* \"#utility.yul\":4213:4234   */\n      iszero\n        /* \"#utility.yul\":4202:4234   */\n      swap1\n      pop\n        /* \"#utility.yul\":4150:4240   */\n      swap2\n      swap1\n      pop\n      jump\t// out\n        /* \"#utility.yul\":4246:4355   */\n    tag_385:\n        /* \"#utility.yul\":4327:4348   */\n      tag_484\n        /* \"#utility.yul\":4342:4347   */\n      dup2\n        /* \"#utility.yul\":4327:4348   */\n      tag_384\n      jump\t// in\n    tag_484:\n        /* \"#utility.yul\":4322:4325   */\n      dup3\n        /* \"#utility.yul\":4315:4349   */\n      mstore\n        /* \"#utility.yul\":4246:4355   */\n      pop\n      pop\n      jump\t// out\n        /* \"#utility.yul\":4361:4571   */\n    tag_38:\n        /* \"#utility.yul\":4448:4452   */\n      0x00\n        /* \"#utility.yul\":4486:4488   */\n      0x20\n        /* \"#utility.yul\":4475:4484   */\n      dup3\n        /* \"#utility.yul\":4471:4489   */\n      add\n        /* \"#utility.yul\":4463:4489   */\n      swap1\n      pop\n        /* \"#utility.yul\":4499:4564   */\n      tag_486\n        /* \"#utility.yul\":4561:4562   */\n      0x00\n        /* \"#utility.yul\":4550:4559   */\n      dup4\n        /* \"#utility.yul\":4546:4563   */\n      add\n        /* \"#utility.yul\":4537:4543   */\n      dup5\n        /* \"#utility.yul\":4499:4564   */\n      tag_385\n      jump\t// in\n    tag_486:\n        /* \"#utility.yul\":4361:4571   */\n      swap3\n      swap2\n      pop\n      pop\n      jump\t// out\n        /* \"#utility.yul\":4577:4699   */\n    tag_386:\n        /* \"#utility.yul\":4650:4674   */\n      tag_488\n        /* \"#utility.yul\":4668:4673   */\n      dup2\n        /* \"#utility.yul\":4650:4674   */\n      tag_365\n      jump\t// in\n    tag_488:\n        /* \"#utility.yul\":4643:4648   */\n      dup2\n        /* \"#utility.yul\":4640:4675   */\n      eq\n        /* \"#utility.yul\":4630:4693   */\n      tag_489\n      jumpi\n        /* \"#utility.yul\":4689:4690   */\n      0x00\n        /* \"#utility.yul\":4686:4687   */\n      dup1\n        /* \"#utility.yul\":4679:4691   */\n      revert\n        /* \"#utility.yul\":4630:4693   */\n    tag_489:\n        /* \"#utility.yul\":4577:4699   */\n      pop\n      jump\t// out\n        /* \"#utility.yul\":4705:4844   */\n    tag_387:\n        /* \"#utility.yul\":4751:4756   */\n      0x00\n        /* \"#utility.yul\":4789:4795   */\n      dup2\n        /* \"#utility.yul\":4776:4796   */\n      calldataload\n        /* \"#utility.yul\":4767:4796   */\n      swap1\n      pop\n        /* \"#utility.yul\":4805:4838   */\n      tag_491\n        /* \"#utility.yul\":4832:4837   */\n      dup2\n        /* \"#utility.yul\":4805:4838   */\n      tag_386\n      jump\t// in\n    tag_491:\n        /* \"#utility.yul\":4705:4844   */\n      swap3\n      swap2\n      pop\n      pop\n      jump\t// out\n        /* \"#utility.yul\":4850:5179   */\n    tag_44:\n        /* \"#utility.yul\":4909:4915   */\n      0x00\n        /* \"#utility.yul\":4958:4960   */\n      0x20\n        /* \"#utility.yul\":4946:4955   */\n      dup3\n        /* \"#utility.yul\":4937:4944   */\n      dup5\n        /* \"#utility.yul\":4933:4956   */\n      sub\n        /* \"#utility.yul\":4929:4961   */\n      slt\n        /* \"#utility.yul\":4926:5045   */\n      iszero\n      tag_493\n      jumpi\n        /* \"#utility.yul\":4964:5043   */\n      tag_494\n      tag_368\n      jump\t// in\n    tag_494:\n        /* \"#utility.yul\":4926:5045   */\n    tag_493:\n        /* \"#utility.yul\":5084:5085   */\n      0x00\n        /* \"#utility.yul\":5109:5162   */\n      tag_495\n        /* \"#utility.yul\":5154:5161   */\n      dup5\n        /* \"#utility.yul\":5145:5151   */\n      dup3\n        /* \"#utility.yul\":5134:5143   */\n      dup6\n        /* \"#utility.yul\":5130:5152   */\n      add\n        /* \"#utility.yul\":5109:5162   */\n      tag_387\n      jump\t// in\n    tag_495:\n        /* \"#utility.yul\":5099:5162   */\n      swap2\n      pop\n        /* \"#utility.yul\":5055:5172   */\n      pop\n        /* \"#utility.yul\":4850:5179   */\n      swap3\n      swap2\n      pop\n      pop\n      jump\t// out\n        /* \"#utility.yul\":5185:5284   */\n    tag_388:\n        /* \"#utility.yul\":5237:5243   */\n      0x00\n        /* \"#utility.yul\":5271:5276   */\n      dup2\n        /* \"#utility.yul\":5265:5277   */\n      mload\n        /* \"#utility.yul\":5255:5277   */\n      swap1\n      pop\n        /* \"#utility.yul\":5185:5284   */\n      swap2\n      swap1\n      pop\n      jump\t// out\n        /* \"#utility.yul\":5290:5459   */\n    tag_389:\n        /* \"#utility.yul\":5374:5385   */\n      0x00\n        /* \"#utility.yul\":5408:5414   */\n      dup3\n        /* \"#utility.yul\":5403:5406   */\n      dup3\n        /* \"#utility.yul\":5396:5415   */\n      mstore\n        /* \"#utility.yul\":5448:5452   */\n      0x20\n        /* \"#utility.yul\":5443:5446   */\n      dup3\n        /* \"#utility.yul\":5439:5453   */\n      add\n        /* \"#utility.yul\":5424:5453   */\n      swap1\n      pop\n        /* \"#utility.yul\":5290:5459   */\n      swap3\n      swap2\n      pop\n      pop\n      jump\t// out\n        /* \"#utility.yul\":5465:5772   */\n    tag_390:\n        /* \"#utility.yul\":5533:5534   */\n      0x00\n        /* \"#utility.yul\":5543:5656   */\n    tag_499:\n        /* \"#utility.yul\":5557:5563   */\n      dup4\n        /* \"#utility.yul\":5554:5555   */\n      dup2\n        /* \"#utility.yul\":5551:5564   */\n      lt\n        /* \"#utility.yul\":5543:5656   */\n      iszero\n      tag_501\n      jumpi\n        /* \"#utility.yul\":5642:5643   */\n      dup1\n        /* \"#utility.yul\":5637:5640   */\n      dup3\n        /* \"#utility.yul\":5633:5644   */\n      add\n        /* \"#utility.yul\":5627:5645   */\n      mload\n        /* \"#utility.yul\":5623:5624   */\n      dup2\n        /* \"#utility.yul\":5618:5621   */\n      dup5\n        /* \"#utility.yul\":5614:5625   */\n      add\n        /* \"#utility.yul\":5607:5646   */\n      mstore\n        /* \"#utility.yul\":5579:5581   */\n      0x20\n        /* \"#utility.yul\":5576:5577   */\n      dup2\n        /* \"#utility.yul\":5572:5582   */\n      add\n        /* \"#utility.yul\":5567:5582   */\n      swap1\n      pop\n        /* \"#utility.yul\":5543:5656   */\n      jump(tag_499)\n    tag_501:\n        /* \"#utility.yul\":5674:5680   */\n      dup4\n        /* \"#utility.yul\":5671:5672   */\n      dup2\n        /* \"#utility.yul\":5668:5681   */\n      gt\n        /* \"#utility.yul\":5665:5766   */\n      iszero\n      tag_502\n      jumpi\n        /* \"#utility.yul\":5754:5755   */\n      0x00\n        /* \"#utility.yul\":5745:5751   */\n      dup5\n        /* \"#utility.yul\":5740:5743   */\n      dup5\n        /* \"#utility.yul\":5736:5752   */\n      add\n        /* \"#utility.yul\":5729:5756   */\n      mstore\n        /* \"#utility.yul\":5665:5766   */\n    tag_502:\n        /* \"#utility.yul\":5514:5772   */\n      pop\n        /* \"#utility.yul\":5465:5772   */\n      pop\n      pop\n      pop\n      jump\t// out\n        /* \"#utility.yul\":5778:6142   */\n    tag_391:\n        /* \"#utility.yul\":5866:5869   */\n      0x00\n        /* \"#utility.yul\":5894:5933   */\n      tag_504\n        /* \"#utility.yul\":5927:5932   */\n      dup3\n        /* \"#utility.yul\":5894:5933   */\n      tag_388\n      jump\t// in\n    tag_504:\n        /* \"#utility.yul\":5949:6020   */\n      tag_505\n        /* \"#utility.yul\":6013:6019   */\n      dup2\n        /* \"#utility.yul\":6008:6011   */\n      dup6\n        /* \"#utility.yul\":5949:6020   */\n      tag_389\n      jump\t// in\n    tag_505:\n        /* \"#utility.yul\":5942:6020   */\n      swap4\n      pop\n        /* \"#utility.yul\":6029:6081   */\n      tag_506\n        /* \"#utility.yul\":6074:6080   */\n      dup2\n        /* \"#utility.yul\":6069:6072   */\n      dup6\n        /* \"#utility.yul\":6062:6066   */\n      0x20\n        /* \"#utility.yul\":6055:6060   */\n      dup7\n        /* \"#utility.yul\":6051:6067   */\n      add\n        /* \"#utility.yul\":6029:6081   */\n      tag_390\n      jump\t// in\n    tag_506:\n        /* \"#utility.yul\":6106:6135   */\n      tag_507\n        /* \"#utility.yul\":6128:6134   */\n      dup2\n        /* \"#utility.yul\":6106:6135   */\n      tag_376\n      jump\t// in\n    tag_507:\n        /* \"#utility.yul\":6101:6104   */\n      dup5\n        /* \"#utility.yul\":6097:6136   */\n      add\n        /* \"#utility.yul\":6090:6136   */\n      swap2\n      pop\n        /* \"#utility.yul\":5870:6142   */\n      pop\n        /* \"#utility.yul\":5778:6142   */\n      swap3\n      swap2\n      pop\n      pop\n      jump\t// out\n        /* \"#utility.yul\":6148:6266   */\n    tag_392:\n        /* \"#utility.yul\":6235:6259   */\n      tag_509\n        /* \"#utility.yul\":6253:6258   */\n      dup2\n        /* \"#utility.yul\":6235:6259   */\n      tag_371\n      jump\t// in\n    tag_509:\n        /* \"#utility.yul\":6230:6233   */\n      dup3\n        /* \"#utility.yul\":6223:6260   */\n      mstore\n        /* \"#utility.yul\":6148:6266   */\n      pop\n      pop\n      jump\t// out\n        /* \"#utility.yul\":6272:7209   */\n    tag_47:\n        /* \"#utility.yul\":6537:6541   */\n      0x00\n        /* \"#utility.yul\":6575:6578   */\n      0xa0\n        /* \"#utility.yul\":6564:6573   */\n      dup3\n        /* \"#utility.yul\":6560:6579   */\n      add\n        /* \"#utility.yul\":6552:6579   */\n      swap1\n      pop\n        /* \"#utility.yul\":6625:6634   */\n      dup2\n        /* \"#utility.yul\":6619:6623   */\n      dup2\n        /* \"#utility.yul\":6615:6635   */\n      sub\n        /* \"#utility.yul\":6611:6612   */\n      0x00\n        /* \"#utility.yul\":6600:6609   */\n      dup4\n        /* \"#utility.yul\":6596:6613   */\n      add\n        /* \"#utility.yul\":6589:6636   */\n      mstore\n        /* \"#utility.yul\":6653:6731   */\n      tag_511\n        /* \"#utility.yul\":6726:6730   */\n      dup2\n        /* \"#utility.yul\":6717:6723   */\n      dup9\n        /* \"#utility.yul\":6653:6731   */\n      tag_391\n      jump\t// in\n    tag_511:\n        /* \"#utility.yul\":6645:6731   */\n      swap1\n      pop\n        /* \"#utility.yul\":6741:6813   */\n      tag_512\n        /* \"#utility.yul\":6809:6811   */\n      0x20\n        /* \"#utility.yul\":6798:6807   */\n      dup4\n        /* \"#utility.yul\":6794:6812   */\n      add\n        /* \"#utility.yul\":6785:6791   */\n      dup8\n        /* \"#utility.yul\":6741:6813   */\n      tag_392\n      jump\t// in\n    tag_512:\n        /* \"#utility.yul\":6860:6869   */\n      dup2\n        /* \"#utility.yul\":6854:6858   */\n      dup2\n        /* \"#utility.yul\":6850:6870   */\n      sub\n        /* \"#utility.yul\":6845:6847   */\n      0x40\n        /* \"#utility.yul\":6834:6843   */\n      dup4\n        /* \"#utility.yul\":6830:6848   */\n      add\n        /* \"#utility.yul\":6823:6871   */\n      mstore\n        /* \"#utility.yul\":6888:6966   */\n      tag_513\n        /* \"#utility.yul\":6961:6965   */\n      dup2\n        /* \"#utility.yul\":6952:6958   */\n      dup7\n        /* \"#utility.yul\":6888:6966   */\n      tag_391\n      jump\t// in\n    tag_513:\n        /* \"#utility.yul\":6880:6966   */\n      swap1\n      pop\n        /* \"#utility.yul\":7013:7022   */\n      dup2\n        /* \"#utility.yul\":7007:7011   */\n      dup2\n        /* \"#utility.yul\":7003:7023   */\n      sub\n        /* \"#utility.yul\":6998:7000   */\n      0x60\n        /* \"#utility.yul\":6987:6996   */\n      dup4\n        /* \"#utility.yul\":6983:7001   */\n      add\n        /* \"#utility.yul\":6976:7024   */\n      mstore\n        /* \"#utility.yul\":7041:7119   */\n      tag_514\n        /* \"#utility.yul\":7114:7118   */\n      dup2\n        /* \"#utility.yul\":7105:7111   */\n      dup6\n        /* \"#utility.yul\":7041:7119   */\n      tag_391\n      jump\t// in\n    tag_514:\n        /* \"#utility.yul\":7033:7119   */\n      swap1\n      pop\n        /* \"#utility.yul\":7129:7202   */\n      tag_515\n        /* \"#utility.yul\":7197:7200   */\n      0x80\n        /* \"#utility.yul\":7186:7195   */\n      dup4\n        /* \"#utility.yul\":7182:7201   */\n      add\n        /* \"#utility.yul\":7173:7179   */\n      dup5\n        /* \"#utility.yul\":7129:7202   */\n      tag_392\n      jump\t// in\n    tag_515:\n        /* \"#utility.yul\":6272:7209   */\n      swap7\n      swap6\n      pop\n      pop\n      pop\n      pop\n      pop\n      pop\n      jump\t// out\n        /* \"#utility.yul\":7215:7437   */\n    tag_55:\n        /* \"#utility.yul\":7308:7312   */\n      0x00\n        /* \"#utility.yul\":7346:7348   */\n      0x20\n        /* \"#utility.yul\":7335:7344   */\n      dup3\n        /* \"#utility.yul\":7331:7349   */\n      add\n        /* \"#utility.yul\":7323:7349   */\n      swap1\n      pop\n        /* \"#utility.yul\":7359:7430   */\n      tag_517\n        /* \"#utility.yul\":7427:7428   */\n      0x00\n        /* \"#utility.yul\":7416:7425   */\n      dup4\n        /* \"#utility.yul\":7412:7429   */\n      add\n        /* \"#utility.yul\":7403:7409   */\n      dup5\n        /* \"#utility.yul\":7359:7430   */\n      tag_392\n      jump\t// in\n    tag_517:\n        /* \"#utility.yul\":7215:7437   */\n      swap3\n      swap2\n      pop\n      pop\n      jump\t// out\n        /* \"#utility.yul\":7443:8894   */\n    tag_58:\n        /* \"#utility.yul\":7568:7574   */\n      0x00\n        /* \"#utility.yul\":7576:7582   */\n      dup1\n        /* \"#utility.yul\":7584:7590   */\n      0x00\n        /* \"#utility.yul\":7592:7598   */\n      dup1\n        /* \"#utility.yul\":7600:7606   */\n      0x00\n        /* \"#utility.yul\":7649:7652   */\n      0xa0\n        /* \"#utility.yul\":7637:7646   */\n      dup7\n        /* \"#utility.yul\":7628:7635   */\n      dup9\n        /* \"#utility.yul\":7624:7647   */\n      sub\n        /* \"#utility.yul\":7620:7653   */\n      slt\n        /* \"#utility.yul\":7617:7737   */\n      iszero\n      tag_519\n      jumpi\n        /* \"#utility.yul\":7656:7735   */\n      tag_520\n      tag_368\n      jump\t// in\n    tag_520:\n        /* \"#utility.yul\":7617:7737   */\n    tag_519:\n        /* \"#utility.yul\":7804:7805   */\n      0x00\n        /* \"#utility.yul\":7793:7802   */\n      dup7\n        /* \"#utility.yul\":7789:7806   */\n      add\n        /* \"#utility.yul\":7776:7807   */\n      calldataload\n        /* \"#utility.yul\":7834:7852   */\n      0xffffffffffffffff\n        /* \"#utility.yul\":7826:7832   */\n      dup2\n        /* \"#utility.yul\":7823:7853   */\n      gt\n        /* \"#utility.yul\":7820:7937   */\n      iszero\n      tag_521\n      jumpi\n        /* \"#utility.yul\":7856:7935   */\n      tag_522\n      tag_369\n      jump\t// in\n    tag_522:\n        /* \"#utility.yul\":7820:7937   */\n    tag_521:\n        /* \"#utility.yul\":7961:8024   */\n      tag_523\n        /* \"#utility.yul\":8016:8023   */\n      dup9\n        /* \"#utility.yul\":8007:8013   */\n      dup3\n        /* \"#utility.yul\":7996:8005   */\n      dup10\n        /* \"#utility.yul\":7992:8014   */\n      add\n        /* \"#utility.yul\":7961:8024   */\n      tag_383\n      jump\t// in\n    tag_523:\n        /* \"#utility.yul\":7951:8024   */\n      swap6\n      pop\n        /* \"#utility.yul\":7747:8034   */\n      pop\n        /* \"#utility.yul\":8073:8075   */\n      0x20\n        /* \"#utility.yul\":8099:8152   */\n      tag_524\n        /* \"#utility.yul\":8144:8151   */\n      dup9\n        /* \"#utility.yul\":8135:8141   */\n      dup3\n        /* \"#utility.yul\":8124:8133   */\n      dup10\n        /* \"#utility.yul\":8120:8142   */\n      add\n        /* \"#utility.yul\":8099:8152   */\n      tag_373\n      jump\t// in\n    tag_524:\n        /* \"#utility.yul\":8089:8152   */\n      swap5\n      pop\n        /* \"#utility.yul\":8044:8162   */\n      pop\n        /* \"#utility.yul\":8229:8231   */\n      0x40\n        /* \"#utility.yul\":8218:8227   */\n      dup7\n        /* \"#utility.yul\":8214:8232   */\n      add\n        /* \"#utility.yul\":8201:8233   */\n      calldataload\n        /* \"#utility.yul\":8260:8278   */\n      0xffffffffffffffff\n        /* \"#utility.yul\":8252:8258   */\n      dup2\n        /* \"#utility.yul\":8249:8279   */\n      gt\n        /* \"#utility.yul\":8246:8363   */\n      iszero\n      tag_525\n      jumpi\n        /* \"#utility.yul\":8282:8361   */\n      tag_526\n      tag_369\n      jump\t// in\n    tag_526:\n        /* \"#utility.yul\":8246:8363   */\n    tag_525:\n        /* \"#utility.yul\":8387:8450   */\n      tag_527\n        /* \"#utility.yul\":8442:8449   */\n      dup9\n        /* \"#utility.yul\":8433:8439   */\n      dup3\n        /* \"#utility.yul\":8422:8431   */\n      dup10\n        /* \"#utility.yul\":8418:8440   */\n      add\n        /* \"#utility.yul\":8387:8450   */\n      tag_383\n      jump\t// in\n    tag_527:\n        /* \"#utility.yul\":8377:8450   */\n      swap4\n      pop\n        /* \"#utility.yul\":8172:8460   */\n      pop\n        /* \"#utility.yul\":8527:8529   */\n      0x60\n        /* \"#utility.yul\":8516:8525   */\n      dup7\n        /* \"#utility.yul\":8512:8530   */\n      add\n        /* \"#utility.yul\":8499:8531   */\n      calldataload\n        /* \"#utility.yul\":8558:8576   */\n      0xffffffffffffffff\n        /* \"#utility.yul\":8550:8556   */\n      dup2\n        /* \"#utility.yul\":8547:8577   */\n      gt\n        /* \"#utility.yul\":8544:8661   */\n      iszero\n      tag_528\n      jumpi\n        /* \"#utility.yul\":8580:8659   */\n      tag_529\n      tag_369\n      jump\t// in\n    tag_529:\n        /* \"#utility.yul\":8544:8661   */\n    tag_528:\n        /* \"#utility.yul\":8685:8748   */\n      tag_530\n        /* \"#utility.yul\":8740:8747   */\n      dup9\n        /* \"#utility.yul\":8731:8737   */\n      dup3\n        /* \"#utility.yul\":8720:8729   */\n      dup10\n        /* \"#utility.yul\":8716:8738   */\n      add\n        /* \"#utility.yul\":8685:8748   */\n      tag_383\n      jump\t// in\n    tag_530:\n        /* \"#utility.yul\":8675:8748   */\n      swap3\n      pop\n        /* \"#utility.yul\":8470:8758   */\n      pop\n        /* \"#utility.yul\":8797:8800   */\n      0x80\n        /* \"#utility.yul\":8824:8877   */\n      tag_531\n        /* \"#utility.yul\":8869:8876   */\n      dup9\n        /* \"#utility.yul\":8860:8866   */\n      dup3\n        /* \"#utility.yul\":8849:8858   */\n      dup10\n        /* \"#utility.yul\":8845:8867   */\n      add\n        /* \"#utility.yul\":8824:8877   */\n      tag_373\n      jump\t// in\n    tag_531:\n        /* \"#utility.yul\":8814:8877   */\n      swap2\n      pop\n        /* \"#utility.yul\":8768:8887   */\n      pop\n        /* \"#utility.yul\":7443:8894   */\n      swap3\n      swap6\n      pop\n      swap3\n      swap6\n      swap1\n      swap4\n      pop\n      jump\t// out\n        /* \"#utility.yul\":8900:9229   */\n    tag_62:\n        /* \"#utility.yul\":8959:8965   */\n      0x00\n        /* \"#utility.yul\":9008:9010   */\n      0x20\n        /* \"#utility.yul\":8996:9005   */\n      dup3\n        /* \"#utility.yul\":8987:8994   */\n      dup5\n        /* \"#utility.yul\":8983:9006   */\n      sub\n        /* \"#utility.yul\":8979:9011   */\n      slt\n        /* \"#utility.yul\":8976:9095   */\n      iszero\n      tag_533\n      jumpi\n        /* \"#utility.yul\":9014:9093   */\n      tag_534\n      tag_368\n      jump\t// in\n    tag_534:\n        /* \"#utility.yul\":8976:9095   */\n    tag_533:\n        /* \"#utility.yul\":9134:9135   */\n      0x00\n        /* \"#utility.yul\":9159:9212   */\n      tag_535\n        /* \"#utility.yul\":9204:9211   */\n      dup5\n        /* \"#utility.yul\":9195:9201   */\n      dup3\n        /* \"#utility.yul\":9184:9193   */\n      dup6\n        /* \"#utility.yul\":9180:9202   */\n      add\n        /* \"#utility.yul\":9159:9212   */\n      tag_373\n      jump\t// in\n    tag_535:\n        /* \"#utility.yul\":9149:9212   */\n      swap2\n      pop\n        /* \"#utility.yul\":9105:9222   */\n      pop\n        /* \"#utility.yul\":8900:9229   */\n      swap3\n      swap2\n      pop\n      pop\n      jump\t// out\n        /* \"#utility.yul\":9235:9312   */\n    tag_393:\n        /* \"#utility.yul\":9272:9279   */\n      0x00\n        /* \"#utility.yul\":9301:9306   */\n      dup2\n        /* \"#utility.yul\":9290:9306   */\n      swap1\n      pop\n        /* \"#utility.yul\":9235:9312   */\n      swap2\n      swap1\n      pop\n      jump\t// out\n        /* \"#utility.yul\":9318:9436   */\n    tag_394:\n        /* \"#utility.yul\":9405:9429   */\n      tag_538\n        /* \"#utility.yul\":9423:9428   */\n      dup2\n        /* \"#utility.yul\":9405:9429   */\n      tag_393\n      jump\t// in\n    tag_538:\n        /* \"#utility.yul\":9400:9403   */\n      dup3\n        /* \"#utility.yul\":9393:9430   */\n      mstore\n        /* \"#utility.yul\":9318:9436   */\n      pop\n      pop\n      jump\t// out\n        /* \"#utility.yul\":9442:9664   */\n    tag_69:\n        /* \"#utility.yul\":9535:9539   */\n      0x00\n        /* \"#utility.yul\":9573:9575   */\n      0x20\n        /* \"#utility.yul\":9562:9571   */\n      dup3\n        /* \"#utility.yul\":9558:9576   */\n      add\n        /* \"#utility.yul\":9550:9576   */\n      swap1\n      pop\n        /* \"#utility.yul\":9586:9657   */\n      tag_540\n        /* \"#utility.yul\":9654:9655   */\n      0x00\n        /* \"#utility.yul\":9643:9652   */\n      dup4\n        /* \"#utility.yul\":9639:9656   */\n      add\n        /* \"#utility.yul\":9630:9636   */\n      dup5\n        /* \"#utility.yul\":9586:9657   */\n      tag_394\n      jump\t// in\n    tag_540:\n        /* \"#utility.yul\":9442:9664   */\n      swap3\n      swap2\n      pop\n      pop\n      jump\t// out\n        /* \"#utility.yul\":9670:11267   */\n    tag_82:\n        /* \"#utility.yul\":9804:9810   */\n      0x00\n        /* \"#utility.yul\":9812:9818   */\n      dup1\n        /* \"#utility.yul\":9820:9826   */\n      0x00\n        /* \"#utility.yul\":9828:9834   */\n      dup1\n        /* \"#utility.yul\":9836:9842   */\n      0x00\n        /* \"#utility.yul\":9844:9850   */\n      dup1\n        /* \"#utility.yul\":9893:9896   */\n      0xc0\n        /* \"#utility.yul\":9881:9890   */\n      dup8\n        /* \"#utility.yul\":9872:9879   */\n      dup10\n        /* \"#utility.yul\":9868:9891   */\n      sub\n        /* \"#utility.yul\":9864:9897   */\n      slt\n        /* \"#utility.yul\":9861:9981   */\n      iszero\n      tag_542\n      jumpi\n        /* \"#utility.yul\":9900:9979   */\n      tag_543\n      tag_368\n      jump\t// in\n    tag_543:\n        /* \"#utility.yul\":9861:9981   */\n    tag_542:\n        /* \"#utility.yul\":10048:10049   */\n      0x00\n        /* \"#utility.yul\":10037:10046   */\n      dup8\n        /* \"#utility.yul\":10033:10050   */\n      add\n        /* \"#utility.yul\":10020:10051   */\n      calldataload\n        /* \"#utility.yul\":10078:10096   */\n      0xffffffffffffffff\n        /* \"#utility.yul\":10070:10076   */\n      dup2\n        /* \"#utility.yul\":10067:10097   */\n      gt\n        /* \"#utility.yul\":10064:10181   */\n      iszero\n      tag_544\n      jumpi\n        /* \"#utility.yul\":10100:10179   */\n      tag_545\n      tag_369\n      jump\t// in\n    tag_545:\n        /* \"#utility.yul\":10064:10181   */\n    tag_544:\n        /* \"#utility.yul\":10205:10268   */\n      tag_546\n        /* \"#utility.yul\":10260:10267   */\n      dup10\n        /* \"#utility.yul\":10251:10257   */\n      dup3\n        /* \"#utility.yul\":10240:10249   */\n      dup11\n        /* \"#utility.yul\":10236:10258   */\n      add\n        /* \"#utility.yul\":10205:10268   */\n      tag_383\n      jump\t// in\n    tag_546:\n        /* \"#utility.yul\":10195:10268   */\n      swap7\n      pop\n        /* \"#utility.yul\":9991:10278   */\n      pop\n        /* \"#utility.yul\":10317:10319   */\n      0x20\n        /* \"#utility.yul\":10343:10396   */\n      tag_547\n        /* \"#utility.yul\":10388:10395   */\n      dup10\n        /* \"#utility.yul\":10379:10385   */\n      dup3\n        /* \"#utility.yul\":10368:10377   */\n      dup11\n        /* \"#utility.yul\":10364:10386   */\n      add\n        /* \"#utility.yul\":10343:10396   */\n      tag_373\n      jump\t// in\n    tag_547:\n        /* \"#utility.yul\":10333:10396   */\n      swap6\n      pop\n        /* \"#utility.yul\":10288:10406   */\n      pop\n        /* \"#utility.yul\":10473:10475   */\n      0x40\n        /* \"#utility.yul\":10462:10471   */\n      dup8\n        /* \"#utility.yul\":10458:10476   */\n      add\n        /* \"#utility.yul\":10445:10477   */\n      calldataload\n        /* \"#utility.yul\":10504:10522   */\n      0xffffffffffffffff\n        /* \"#utility.yul\":10496:10502   */\n      dup2\n        /* \"#utility.yul\":10493:10523   */\n      gt\n        /* \"#utility.yul\":10490:10607   */\n      iszero\n      tag_548\n      jumpi\n        /* \"#utility.yul\":10526:10605   */\n      tag_549\n      tag_369\n      jump\t// in\n    tag_549:\n        /* \"#utility.yul\":10490:10607   */\n    tag_548:\n        /* \"#utility.yul\":10631:10694   */\n      tag_550\n        /* \"#utility.yul\":10686:10693   */\n      dup10\n        /* \"#utility.yul\":10677:10683   */\n      dup3\n        /* \"#utility.yul\":10666:10675   */\n      dup11\n        /* \"#utility.yul\":10662:10684   */\n      add\n        /* \"#utility.yul\":10631:10694   */\n      tag_383\n      jump\t// in\n    tag_550:\n        /* \"#utility.yul\":10621:10694   */\n      swap5\n      pop\n        /* \"#utility.yul\":10416:10704   */\n      pop\n        /* \"#utility.yul\":10771:10773   */\n      0x60\n        /* \"#utility.yul\":10760:10769   */\n      dup8\n        /* \"#utility.yul\":10756:10774   */\n      add\n        /* \"#utility.yul\":10743:10775   */\n      calldataload\n        /* \"#utility.yul\":10802:10820   */\n      0xffffffffffffffff\n        /* \"#utility.yul\":10794:10800   */\n      dup2\n        /* \"#utility.yul\":10791:10821   */\n      gt\n        /* \"#utility.yul\":10788:10905   */\n      iszero\n      tag_551\n      jumpi\n        /* \"#utility.yul\":10824:10903   */\n      tag_552\n      tag_369\n      jump\t// in\n    tag_552:\n        /* \"#utility.yul\":10788:10905   */\n    tag_551:\n        /* \"#utility.yul\":10929:10992   */\n      tag_553\n        /* \"#utility.yul\":10984:10991   */\n      dup10\n        /* \"#utility.yul\":10975:10981   */\n      dup3\n        /* \"#utility.yul\":10964:10973   */\n      dup11\n        /* \"#utility.yul\":10960:10982   */\n      add\n        /* \"#utility.yul\":10929:10992   */\n      tag_383\n      jump\t// in\n    tag_553:\n        /* \"#utility.yul\":10919:10992   */\n      swap4\n      pop\n        /* \"#utility.yul\":10714:11002   */\n      pop\n        /* \"#utility.yul\":11041:11044   */\n      0x80\n        /* \"#utility.yul\":11068:11121   */\n      tag_554\n        /* \"#utility.yul\":11113:11120   */\n      dup10\n        /* \"#utility.yul\":11104:11110   */\n      dup3\n        /* \"#utility.yul\":11093:11102   */\n      dup11\n        /* \"#utility.yul\":11089:11111   */\n      add\n        /* \"#utility.yul\":11068:11121   */\n      tag_373\n      jump\t// in\n    tag_554:\n        /* \"#utility.yul\":11058:11121   */\n      swap3\n      pop\n        /* \"#utility.yul\":11012:11131   */\n      pop\n        /* \"#utility.yul\":11170:11173   */\n      0xa0\n        /* \"#utility.yul\":11197:11250   */\n      tag_555\n        /* \"#utility.yul\":11242:11249   */\n      dup10\n        /* \"#utility.yul\":11233:11239   */\n      dup3\n        /* \"#utility.yul\":11222:11231   */\n      dup11\n        /* \"#utility.yul\":11218:11240   */\n      add\n        /* \"#utility.yul\":11197:11250   */\n      tag_373\n      jump\t// in\n    tag_555:\n        /* \"#utility.yul\":11187:11250   */\n      swap2\n      pop\n        /* \"#utility.yul\":11141:11260   */\n      pop\n        /* \"#utility.yul\":9670:11267   */\n      swap3\n      swap6\n      pop\n      swap3\n      swap6\n      pop\n      swap3\n      swap6\n      jump\t// out\n        /* \"#utility.yul\":11273:11333   */\n    tag_395:\n        /* \"#utility.yul\":11301:11304   */\n      0x00\n        /* \"#utility.yul\":11322:11327   */\n      dup2\n        /* \"#utility.yul\":11315:11327   */\n      swap1\n      pop\n        /* \"#utility.yul\":11273:11333   */\n      swap2\n      swap1\n      pop\n      jump\t// out\n        /* \"#utility.yul\":11339:11481   */\n    tag_396:\n        /* \"#utility.yul\":11389:11398   */\n      0x00\n        /* \"#utility.yul\":11422:11475   */\n      tag_558\n        /* \"#utility.yul\":11440:11474   */\n      tag_559\n        /* \"#utility.yul\":11449:11473   */\n      tag_560\n        /* \"#utility.yul\":11467:11472   */\n      dup5\n        /* \"#utility.yul\":11449:11473   */\n      tag_370\n      jump\t// in\n    tag_560:\n        /* \"#utility.yul\":11440:11474   */\n      tag_395\n      jump\t// in\n    tag_559:\n        /* \"#utility.yul\":11422:11475   */\n      tag_370\n      jump\t// in\n    tag_558:\n        /* \"#utility.yul\":11409:11475   */\n      swap1\n      pop\n        /* \"#utility.yul\":11339:11481   */\n      swap2\n      swap1\n      pop\n      jump\t// out\n        /* \"#utility.yul\":11487:11613   */\n    tag_397:\n        /* \"#utility.yul\":11537:11546   */\n      0x00\n        /* \"#utility.yul\":11570:11607   */\n      tag_562\n        /* \"#utility.yul\":11601:11606   */\n      dup3\n        /* \"#utility.yul\":11570:11607   */\n      tag_396\n      jump\t// in\n    tag_562:\n        /* \"#utility.yul\":11557:11607   */\n      swap1\n      pop\n        /* \"#utility.yul\":11487:11613   */\n      swap2\n      swap1\n      pop\n      jump\t// out\n        /* \"#utility.yul\":11619:11764   */\n    tag_398:\n        /* \"#utility.yul\":11688:11697   */\n      0x00\n        /* \"#utility.yul\":11721:11758   */\n      tag_564\n        /* \"#utility.yul\":11752:11757   */\n      dup3\n        /* \"#utility.yul\":11721:11758   */\n      tag_397\n      jump\t// in\n    tag_564:\n        /* \"#utility.yul\":11708:11758   */\n      swap1\n      pop\n        /* \"#utility.yul\":11619:11764   */\n      swap2\n      swap1\n      pop\n      jump\t// out\n        /* \"#utility.yul\":11770:11939   */\n    tag_399:\n        /* \"#utility.yul\":11876:11932   */\n      tag_566\n        /* \"#utility.yul\":11926:11931   */\n      dup2\n        /* \"#utility.yul\":11876:11932   */\n      tag_398\n      jump\t// in\n    tag_566:\n        /* \"#utility.yul\":11871:11874   */\n      dup3\n        /* \"#utility.yul\":11864:11933   */\n      mstore\n        /* \"#utility.yul\":11770:11939   */\n      pop\n      pop\n      jump\t// out\n        /* \"#utility.yul\":11945:12205   */\n    tag_97:\n        /* \"#utility.yul\":12057:12061   */\n      0x00\n        /* \"#utility.yul\":12095:12097   */\n      0x20\n        /* \"#utility.yul\":12084:12093   */\n      dup3\n        /* \"#utility.yul\":12080:12098   */\n      add\n        /* \"#utility.yul\":12072:12098   */\n      swap1\n      pop\n        /* \"#utility.yul\":12108:12198   */\n      tag_568\n        /* \"#utility.yul\":12195:12196   */\n      0x00\n        /* \"#utility.yul\":12184:12193   */\n      dup4\n        /* \"#utility.yul\":12180:12197   */\n      add\n        /* \"#utility.yul\":12171:12177   */\n      dup5\n        /* \"#utility.yul\":12108:12198   */\n      tag_399\n      jump\t// in\n    tag_568:\n        /* \"#utility.yul\":11945:12205   */\n      swap3\n      swap2\n      pop\n      pop\n      jump\t// out\n        /* \"#utility.yul\":12211:12358   */\n    tag_400:\n        /* \"#utility.yul\":12282:12291   */\n      0x00\n        /* \"#utility.yul\":12315:12352   */\n      tag_570\n        /* \"#utility.yul\":12346:12351   */\n      dup3\n        /* \"#utility.yul\":12315:12352   */\n      tag_397\n      jump\t// in\n    tag_570:\n        /* \"#utility.yul\":12302:12352   */\n      swap1\n      pop\n        /* \"#utility.yul\":12211:12358   */\n      swap2\n      swap1\n      pop\n      jump\t// out\n        /* \"#utility.yul\":12364:12537   */\n    tag_401:\n        /* \"#utility.yul\":12472:12530   */\n      tag_572\n        /* \"#utility.yul\":12524:12529   */\n      dup2\n        /* \"#utility.yul\":12472:12530   */\n      tag_400\n      jump\t// in\n    tag_572:\n        /* \"#utility.yul\":12467:12470   */\n      dup3\n        /* \"#utility.yul\":12460:12531   */\n      mstore\n        /* \"#utility.yul\":12364:12537   */\n      pop\n      pop\n      jump\t// out\n        /* \"#utility.yul\":12543:12807   */\n    tag_105:\n        /* \"#utility.yul\":12657:12661   */\n      0x00\n        /* \"#utility.yul\":12695:12697   */\n      0x20\n        /* \"#utility.yul\":12684:12693   */\n      dup3\n        /* \"#utility.yul\":12680:12698   */\n      add\n        /* \"#utility.yul\":12672:12698   */\n      swap1\n      pop\n        /* \"#utility.yul\":12708:12800   */\n      tag_574\n        /* \"#utility.yul\":12797:12798   */\n      0x00\n        /* \"#utility.yul\":12786:12795   */\n      dup4\n        /* \"#utility.yul\":12782:12799   */\n      add\n        /* \"#utility.yul\":12773:12779   */\n      dup5\n        /* \"#utility.yul\":12708:12800   */\n      tag_401\n      jump\t// in\n    tag_574:\n        /* \"#utility.yul\":12543:12807   */\n      swap3\n      swap2\n      pop\n      pop\n      jump\t// out\n        /* \"#utility.yul\":12813:13612   */\n    tag_118:\n        /* \"#utility.yul\":12900:12906   */\n      0x00\n        /* \"#utility.yul\":12908:12914   */\n      dup1\n        /* \"#utility.yul\":12916:12922   */\n      0x00\n        /* \"#utility.yul\":12965:12967   */\n      0x60\n        /* \"#utility.yul\":12953:12962   */\n      dup5\n        /* \"#utility.yul\":12944:12951   */\n      dup7\n        /* \"#utility.yul\":12940:12963   */\n      sub\n        /* \"#utility.yul\":12936:12968   */\n      slt\n        /* \"#utility.yul\":12933:13052   */\n      iszero\n      tag_576\n      jumpi\n        /* \"#utility.yul\":12971:13050   */\n      tag_577\n      tag_368\n      jump\t// in\n    tag_577:\n        /* \"#utility.yul\":12933:13052   */\n    tag_576:\n        /* \"#utility.yul\":13091:13092   */\n      0x00\n        /* \"#utility.yul\":13116:13169   */\n      tag_578\n        /* \"#utility.yul\":13161:13168   */\n      dup7\n        /* \"#utility.yul\":13152:13158   */\n      dup3\n        /* \"#utility.yul\":13141:13150   */\n      dup8\n        /* \"#utility.yul\":13137:13159   */\n      add\n        /* \"#utility.yul\":13116:13169   */\n      tag_387\n      jump\t// in\n    tag_578:\n        /* \"#utility.yul\":13106:13169   */\n      swap4\n      pop\n        /* \"#utility.yul\":13062:13179   */\n      pop\n        /* \"#utility.yul\":13218:13220   */\n      0x20\n        /* \"#utility.yul\":13244:13297   */\n      tag_579\n        /* \"#utility.yul\":13289:13296   */\n      dup7\n        /* \"#utility.yul\":13280:13286   */\n      dup3\n        /* \"#utility.yul\":13269:13278   */\n      dup8\n        /* \"#utility.yul\":13265:13287   */\n      add\n        /* \"#utility.yul\":13244:13297   */\n      tag_373\n      jump\t// in\n    tag_579:\n        /* \"#utility.yul\":13234:13297   */\n      swap3\n      pop\n        /* \"#utility.yul\":13189:13307   */\n      pop\n        /* \"#utility.yul\":13374:13376   */\n      0x40\n        /* \"#utility.yul\":13363:13372   */\n      dup5\n        /* \"#utility.yul\":13359:13377   */\n      add\n        /* \"#utility.yul\":13346:13378   */\n      calldataload\n        /* \"#utility.yul\":13405:13423   */\n      0xffffffffffffffff\n        /* \"#utility.yul\":13397:13403   */\n      dup2\n        /* \"#utility.yul\":13394:13424   */\n      gt\n        /* \"#utility.yul\":13391:13508   */\n      iszero\n      tag_580\n      jumpi\n        /* \"#utility.yul\":13427:13506   */\n      tag_581\n      tag_369\n      jump\t// in\n    tag_581:\n        /* \"#utility.yul\":13391:13508   */\n    tag_580:\n        /* \"#utility.yul\":13532:13595   */\n      tag_582\n        /* \"#utility.yul\":13587:13594   */\n      dup7\n        /* \"#utility.yul\":13578:13584   */\n      dup3\n        /* \"#utility.yul\":13567:13576   */\n      dup8\n        /* \"#utility.yul\":13563:13585   */\n      add\n        /* \"#utility.yul\":13532:13595   */\n      tag_383\n      jump\t// in\n    tag_582:\n        /* \"#utility.yul\":13522:13595   */\n      swap2\n      pop\n        /* \"#utility.yul\":13317:13605   */\n      pop\n        /* \"#utility.yul\":12813:13612   */\n      swap3\n      pop\n      swap3\n      pop\n      swap3\n      jump\t// out\n        /* \"#utility.yul\":13618:14041   */\n    tag_123:\n        /* \"#utility.yul\":13759:13763   */\n      0x00\n        /* \"#utility.yul\":13797:13799   */\n      0x40\n        /* \"#utility.yul\":13786:13795   */\n      dup3\n        /* \"#utility.yul\":13782:13800   */\n      add\n        /* \"#utility.yul\":13774:13800   */\n      swap1\n      pop\n        /* \"#utility.yul\":13810:13881   */\n      tag_584\n        /* \"#utility.yul\":13878:13879   */\n      0x00\n        /* \"#utility.yul\":13867:13876   */\n      dup4\n        /* \"#utility.yul\":13863:13880   */\n      add\n        /* \"#utility.yul\":13854:13860   */\n      dup6\n        /* \"#utility.yul\":13810:13881   */\n      tag_392\n      jump\t// in\n    tag_584:\n        /* \"#utility.yul\":13928:13937   */\n      dup2\n        /* \"#utility.yul\":13922:13926   */\n      dup2\n        /* \"#utility.yul\":13918:13938   */\n      sub\n        /* \"#utility.yul\":13913:13915   */\n      0x20\n        /* \"#utility.yul\":13902:13911   */\n      dup4\n        /* \"#utility.yul\":13898:13916   */\n      add\n        /* \"#utility.yul\":13891:13939   */\n      mstore\n        /* \"#utility.yul\":13956:14034   */\n      tag_585\n        /* \"#utility.yul\":14029:14033   */\n      dup2\n        /* \"#utility.yul\":14020:14026   */\n      dup5\n        /* \"#utility.yul\":13956:14034   */\n      tag_391\n      jump\t// in\n    tag_585:\n        /* \"#utility.yul\":13948:14034   */\n      swap1\n      pop\n        /* \"#utility.yul\":13618:14041   */\n      swap4\n      swap3\n      pop\n      pop\n      pop\n      jump\t// out\n        /* \"#utility.yul\":14047:14169   */\n    tag_402:\n        /* \"#utility.yul\":14120:14144   */\n      tag_587\n        /* \"#utility.yul\":14138:14143   */\n      dup2\n        /* \"#utility.yul\":14120:14144   */\n      tag_393\n      jump\t// in\n    tag_587:\n        /* \"#utility.yul\":14113:14118   */\n      dup2\n        /* \"#utility.yul\":14110:14145   */\n      eq\n        /* \"#utility.yul\":14100:14163   */\n      tag_588\n      jumpi\n        /* \"#utility.yul\":14159:14160   */\n      0x00\n        /* \"#utility.yul\":14156:14157   */\n      dup1\n        /* \"#utility.yul\":14149:14161   */\n      revert\n        /* \"#utility.yul\":14100:14163   */\n    tag_588:\n        /* \"#utility.yul\":14047:14169   */\n      pop\n      jump\t// out\n        /* \"#utility.yul\":14175:14318   */\n    tag_403:\n        /* \"#utility.yul\":14232:14237   */\n      0x00\n        /* \"#utility.yul\":14263:14269   */\n      dup2\n        /* \"#utility.yul\":14257:14270   */\n      mload\n        /* \"#utility.yul\":14248:14270   */\n      swap1\n      pop\n        /* \"#utility.yul\":14279:14312   */\n      tag_590\n        /* \"#utility.yul\":14306:14311   */\n      dup2\n        /* \"#utility.yul\":14279:14312   */\n      tag_402\n      jump\t// in\n    tag_590:\n        /* \"#utility.yul\":14175:14318   */\n      swap3\n      swap2\n      pop\n      pop\n      jump\t// out\n        /* \"#utility.yul\":14324:14675   */\n    tag_127:\n        /* \"#utility.yul\":14394:14400   */\n      0x00\n        /* \"#utility.yul\":14443:14445   */\n      0x20\n        /* \"#utility.yul\":14431:14440   */\n      dup3\n        /* \"#utility.yul\":14422:14429   */\n      dup5\n        /* \"#utility.yul\":14418:14441   */\n      sub\n        /* \"#utility.yul\":14414:14446   */\n      slt\n        /* \"#utility.yul\":14411:14530   */\n      iszero\n      tag_592\n      jumpi\n        /* \"#utility.yul\":14449:14528   */\n      tag_593\n      tag_368\n      jump\t// in\n    tag_593:\n        /* \"#utility.yul\":14411:14530   */\n    tag_592:\n        /* \"#utility.yul\":14569:14570   */\n      0x00\n        /* \"#utility.yul\":14594:14658   */\n      tag_594\n        /* \"#utility.yul\":14650:14657   */\n      dup5\n        /* \"#utility.yul\":14641:14647   */\n      dup3\n        /* \"#utility.yul\":14630:14639   */\n      dup6\n        /* \"#utility.yul\":14626:14648   */\n      add\n        /* \"#utility.yul\":14594:14658   */\n      tag_403\n      jump\t// in\n    tag_594:\n        /* \"#utility.yul\":14584:14658   */\n      swap2\n      pop\n        /* \"#utility.yul\":14540:14668   */\n      pop\n        /* \"#utility.yul\":14324:14675   */\n      swap3\n      swap2\n      pop\n      pop\n      jump\t// out\n        /* \"#utility.yul\":14681:15102   */\n    tag_404:\n        /* \"#utility.yul\":14770:14775   */\n      0x00\n        /* \"#utility.yul\":14795:14861   */\n      tag_596\n        /* \"#utility.yul\":14811:14860   */\n      tag_597\n        /* \"#utility.yul\":14853:14859   */\n      dup5\n        /* \"#utility.yul\":14811:14860   */\n      tag_380\n      jump\t// in\n    tag_597:\n        /* \"#utility.yul\":14795:14861   */\n      tag_379\n      jump\t// in\n    tag_596:\n        /* \"#utility.yul\":14786:14861   */\n      swap1\n      pop\n        /* \"#utility.yul\":14884:14890   */\n      dup3\n        /* \"#utility.yul\":14877:14882   */\n      dup2\n        /* \"#utility.yul\":14870:14891   */\n      mstore\n        /* \"#utility.yul\":14922:14926   */\n      0x20\n        /* \"#utility.yul\":14915:14920   */\n      dup2\n        /* \"#utility.yul\":14911:14927   */\n      add\n        /* \"#utility.yul\":14960:14963   */\n      dup5\n        /* \"#utility.yul\":14951:14957   */\n      dup5\n        /* \"#utility.yul\":14946:14949   */\n      dup5\n        /* \"#utility.yul\":14942:14958   */\n      add\n        /* \"#utility.yul\":14939:14964   */\n      gt\n        /* \"#utility.yul\":14936:15048   */\n      iszero\n      tag_598\n      jumpi\n        /* \"#utility.yul\":14967:15046   */\n      tag_599\n      tag_375\n      jump\t// in\n    tag_599:\n        /* \"#utility.yul\":14936:15048   */\n    tag_598:\n        /* \"#utility.yul\":15057:15096   */\n      tag_600\n        /* \"#utility.yul\":15089:15095   */\n      dup5\n        /* \"#utility.yul\":15084:15087   */\n      dup3\n        /* \"#utility.yul\":15079:15082   */\n      dup6\n        /* \"#utility.yul\":15057:15096   */\n      tag_390\n      jump\t// in\n    tag_600:\n        /* \"#utility.yul\":14776:15102   */\n      pop\n        /* \"#utility.yul\":14681:15102   */\n      swap4\n      swap3\n      pop\n      pop\n      pop\n      jump\t// out\n        /* \"#utility.yul\":15122:15477   */\n    tag_405:\n        /* \"#utility.yul\":15189:15194   */\n      0x00\n        /* \"#utility.yul\":15238:15241   */\n      dup3\n        /* \"#utility.yul\":15231:15235   */\n      0x1f\n        /* \"#utility.yul\":15223:15229   */\n      dup4\n        /* \"#utility.yul\":15219:15236   */\n      add\n        /* \"#utility.yul\":15215:15242   */\n      slt\n        /* \"#utility.yul\":15205:15327   */\n      tag_602\n      jumpi\n        /* \"#utility.yul\":15246:15325   */\n      tag_603\n      tag_374\n      jump\t// in\n    tag_603:\n        /* \"#utility.yul\":15205:15327   */\n    tag_602:\n        /* \"#utility.yul\":15356:15362   */\n      dup2\n        /* \"#utility.yul\":15350:15363   */\n      mload\n        /* \"#utility.yul\":15381:15471   */\n      tag_604\n        /* \"#utility.yul\":15467:15470   */\n      dup5\n        /* \"#utility.yul\":15459:15465   */\n      dup3\n        /* \"#utility.yul\":15452:15456   */\n      0x20\n        /* \"#utility.yul\":15444:15450   */\n      dup7\n        /* \"#utility.yul\":15440:15457   */\n      add\n        /* \"#utility.yul\":15381:15471   */\n      tag_404\n      jump\t// in\n    tag_604:\n        /* \"#utility.yul\":15372:15471   */\n      swap2\n      pop\n        /* \"#utility.yul\":15195:15477   */\n      pop\n        /* \"#utility.yul\":15122:15477   */\n      swap3\n      swap2\n      pop\n      pop\n      jump\t// out\n        /* \"#utility.yul\":15483:15626   */\n    tag_406:\n        /* \"#utility.yul\":15540:15545   */\n      0x00\n        /* \"#utility.yul\":15571:15577   */\n      dup2\n        /* \"#utility.yul\":15565:15578   */\n      mload\n        /* \"#utility.yul\":15556:15578   */\n      swap1\n      pop\n        /* \"#utility.yul\":15587:15620   */\n      tag_606\n        /* \"#utility.yul\":15614:15619   */\n      dup2\n        /* \"#utility.yul\":15587:15620   */\n      tag_372\n      jump\t// in\n    tag_606:\n        /* \"#utility.yul\":15483:15626   */\n      swap3\n      swap2\n      pop\n      pop\n      jump\t// out\n        /* \"#utility.yul\":15632:17128   */\n    tag_132:\n        /* \"#utility.yul\":15768:15774   */\n      0x00\n        /* \"#utility.yul\":15776:15782   */\n      dup1\n        /* \"#utility.yul\":15784:15790   */\n      0x00\n        /* \"#utility.yul\":15792:15798   */\n      dup1\n        /* \"#utility.yul\":15800:15806   */\n      0x00\n        /* \"#utility.yul\":15849:15852   */\n      0xa0\n        /* \"#utility.yul\":15837:15846   */\n      dup7\n        /* \"#utility.yul\":15828:15835   */\n      dup9\n        /* \"#utility.yul\":15824:15847   */\n      sub\n        /* \"#utility.yul\":15820:15853   */\n      slt\n        /* \"#utility.yul\":15817:15937   */\n      iszero\n      tag_608\n      jumpi\n        /* \"#utility.yul\":15856:15935   */\n      tag_609\n      tag_368\n      jump\t// in\n    tag_609:\n        /* \"#utility.yul\":15817:15937   */\n    tag_608:\n        /* \"#utility.yul\":15997:15998   */\n      0x00\n        /* \"#utility.yul\":15986:15995   */\n      dup7\n        /* \"#utility.yul\":15982:15999   */\n      add\n        /* \"#utility.yul\":15976:16000   */\n      mload\n        /* \"#utility.yul\":16027:16045   */\n      0xffffffffffffffff\n        /* \"#utility.yul\":16019:16025   */\n      dup2\n        /* \"#utility.yul\":16016:16046   */\n      gt\n        /* \"#utility.yul\":16013:16130   */\n      iszero\n      tag_610\n      jumpi\n        /* \"#utility.yul\":16049:16128   */\n      tag_611\n      tag_369\n      jump\t// in\n    tag_611:\n        /* \"#utility.yul\":16013:16130   */\n    tag_610:\n        /* \"#utility.yul\":16154:16228   */\n      tag_612\n        /* \"#utility.yul\":16220:16227   */\n      dup9\n        /* \"#utility.yul\":16211:16217   */\n      dup3\n        /* \"#utility.yul\":16200:16209   */\n      dup10\n        /* \"#utility.yul\":16196:16218   */\n      add\n        /* \"#utility.yul\":16154:16228   */\n      tag_405\n      jump\t// in\n    tag_612:\n        /* \"#utility.yul\":16144:16228   */\n      swap6\n      pop\n        /* \"#utility.yul\":15947:16238   */\n      pop\n        /* \"#utility.yul\":16277:16279   */\n      0x20\n        /* \"#utility.yul\":16303:16367   */\n      tag_613\n        /* \"#utility.yul\":16359:16366   */\n      dup9\n        /* \"#utility.yul\":16350:16356   */\n      dup3\n        /* \"#utility.yul\":16339:16348   */\n      dup10\n        /* \"#utility.yul\":16335:16357   */\n      add\n        /* \"#utility.yul\":16303:16367   */\n      tag_406\n      jump\t// in\n    tag_613:\n        /* \"#utility.yul\":16293:16367   */\n      swap5\n      pop\n        /* \"#utility.yul\":16248:16377   */\n      pop\n        /* \"#utility.yul\":16437:16439   */\n      0x40\n        /* \"#utility.yul\":16426:16435   */\n      dup7\n        /* \"#utility.yul\":16422:16440   */\n      add\n        /* \"#utility.yul\":16416:16441   */\n      mload\n        /* \"#utility.yul\":16468:16486   */\n      0xffffffffffffffff\n        /* \"#utility.yul\":16460:16466   */\n      dup2\n        /* \"#utility.yul\":16457:16487   */\n      gt\n        /* \"#utility.yul\":16454:16571   */\n      iszero\n      tag_614\n      jumpi\n        /* \"#utility.yul\":16490:16569   */\n      tag_615\n      tag_369\n      jump\t// in\n    tag_615:\n        /* \"#utility.yul\":16454:16571   */\n    tag_614:\n        /* \"#utility.yul\":16595:16669   */\n      tag_616\n        /* \"#utility.yul\":16661:16668   */\n      dup9\n        /* \"#utility.yul\":16652:16658   */\n      dup3\n        /* \"#utility.yul\":16641:16650   */\n      dup10\n        /* \"#utility.yul\":16637:16659   */\n      add\n        /* \"#utility.yul\":16595:16669   */\n      tag_405\n      jump\t// in\n    tag_616:\n        /* \"#utility.yul\":16585:16669   */\n      swap4\n      pop\n        /* \"#utility.yul\":16387:16679   */\n      pop\n        /* \"#utility.yul\":16739:16741   */\n      0x60\n        /* \"#utility.yul\":16728:16737   */\n      dup7\n        /* \"#utility.yul\":16724:16742   */\n      add\n        /* \"#utility.yul\":16718:16743   */\n      mload\n        /* \"#utility.yul\":16770:16788   */\n      0xffffffffffffffff\n        /* \"#utility.yul\":16762:16768   */\n      dup2\n        /* \"#utility.yul\":16759:16789   */\n      gt\n        /* \"#utility.yul\":16756:16873   */\n      iszero\n      tag_617\n      jumpi\n        /* \"#utility.yul\":16792:16871   */\n      tag_618\n      tag_369\n      jump\t// in\n    tag_618:\n        /* \"#utility.yul\":16756:16873   */\n    tag_617:\n        /* \"#utility.yul\":16897:16971   */\n      tag_619\n        /* \"#utility.yul\":16963:16970   */\n      dup9\n        /* \"#utility.yul\":16954:16960   */\n      dup3\n        /* \"#utility.yul\":16943:16952   */\n      dup10\n        /* \"#utility.yul\":16939:16961   */\n      add\n        /* \"#utility.yul\":16897:16971   */\n      tag_405\n      jump\t// in\n    tag_619:\n        /* \"#utility.yul\":16887:16971   */\n      swap3\n      pop\n        /* \"#utility.yul\":16689:16981   */\n      pop\n        /* \"#utility.yul\":17020:17023   */\n      0x80\n        /* \"#utility.yul\":17047:17111   */\n      tag_620\n        /* \"#utility.yul\":17103:17110   */\n      dup9\n        /* \"#utility.yul\":17094:17100   */\n      dup3\n        /* \"#utility.yul\":17083:17092   */\n      dup10\n        /* \"#utility.yul\":17079:17101   */\n      add\n        /* \"#utility.yul\":17047:17111   */\n      tag_406\n      jump\t// in\n    tag_620:\n        /* \"#utility.yul\":17037:17111   */\n      swap2\n      pop\n        /* \"#utility.yul\":16991:17121   */\n      pop\n        /* \"#utility.yul\":15632:17128   */\n      swap3\n      swap6\n      pop\n      swap3\n      swap6\n      swap1\n      swap4\n      pop\n      jump\t// out\n        /* \"#utility.yul\":17134:17485   */\n    tag_138:\n        /* \"#utility.yul\":17204:17210   */\n      0x00\n        /* \"#utility.yul\":17253:17255   */\n      0x20\n        /* \"#utility.yul\":17241:17250   */\n      dup3\n        /* \"#utility.yul\":17232:17239   */\n      dup5\n        /* \"#utility.yul\":17228:17251   */\n      sub\n        /* \"#utility.yul\":17224:17256   */\n      slt\n        /* \"#utility.yul\":17221:17340   */\n      iszero\n      tag_622\n      jumpi\n        /* \"#utility.yul\":17259:17338   */\n      tag_623\n      tag_368\n      jump\t// in\n    tag_623:\n        /* \"#utility.yul\":17221:17340   */\n    tag_622:\n        /* \"#utility.yul\":17379:17380   */\n      0x00\n        /* \"#utility.yul\":17404:17468   */\n      tag_624\n        /* \"#utility.yul\":17460:17467   */\n      dup5\n        /* \"#utility.yul\":17451:17457   */\n      dup3\n        /* \"#utility.yul\":17440:17449   */\n      dup6\n        /* \"#utility.yul\":17436:17458   */\n      add\n        /* \"#utility.yul\":17404:17468   */\n      tag_406\n      jump\t// in\n    tag_624:\n        /* \"#utility.yul\":17394:17468   */\n      swap2\n      pop\n        /* \"#utility.yul\":17350:17478   */\n      pop\n        /* \"#utility.yul\":17134:17485   */\n      swap3\n      swap2\n      pop\n      pop\n      jump\t// out\n        /* \"#utility.yul\":17491:17671   */\n    tag_407:\n        /* \"#utility.yul\":17539:17616   */\n      0x4e487b7100000000000000000000000000000000000000000000000000000000\n        /* \"#utility.yul\":17536:17537   */\n      0x00\n        /* \"#utility.yul\":17529:17617   */\n      mstore\n        /* \"#utility.yul\":17636:17640   */\n      0x22\n        /* \"#utility.yul\":17633:17634   */\n      0x04\n        /* \"#utility.yul\":17626:17641   */\n      mstore\n        /* \"#utility.yul\":17660:17664   */\n      0x24\n        /* \"#utility.yul\":17657:17658   */\n      0x00\n        /* \"#utility.yul\":17650:17665   */\n      revert\n        /* \"#utility.yul\":17677:17997   */\n    tag_142:\n        /* \"#utility.yul\":17721:17727   */\n      0x00\n        /* \"#utility.yul\":17758:17759   */\n      0x02\n        /* \"#utility.yul\":17752:17756   */\n      dup3\n        /* \"#utility.yul\":17748:17760   */\n      div\n        /* \"#utility.yul\":17738:17760   */\n      swap1\n      pop\n        /* \"#utility.yul\":17805:17806   */\n      0x01\n        /* \"#utility.yul\":17799:17803   */\n      dup3\n        /* \"#utility.yul\":17795:17807   */\n      and\n        /* \"#utility.yul\":17826:17844   */\n      dup1\n        /* \"#utility.yul\":17816:17897   */\n      tag_627\n      jumpi\n        /* \"#utility.yul\":17882:17886   */\n      0x7f\n        /* \"#utility.yul\":17874:17880   */\n      dup3\n        /* \"#utility.yul\":17870:17887   */\n      and\n        /* \"#utility.yul\":17860:17887   */\n      swap2\n      pop\n        /* \"#utility.yul\":17816:17897   */\n    tag_627:\n        /* \"#utility.yul\":17944:17946   */\n      0x20\n        /* \"#utility.yul\":17936:17942   */\n      dup3\n        /* \"#utility.yul\":17933:17947   */\n      lt\n        /* \"#utility.yul\":17913:17931   */\n      dup2\n        /* \"#utility.yul\":17910:17948   */\n      eq\n        /* \"#utility.yul\":17907:17991   */\n      iszero\n      tag_628\n      jumpi\n        /* \"#utility.yul\":17963:17981   */\n      tag_629\n      tag_407\n      jump\t// in\n    tag_629:\n        /* \"#utility.yul\":17907:17991   */\n    tag_628:\n        /* \"#utility.yul\":17728:17997   */\n      pop\n        /* \"#utility.yul\":17677:17997   */\n      swap2\n      swap1\n      pop\n      jump\t// out\n        /* \"#utility.yul\":18003:18172   */\n    tag_408:\n        /* \"#utility.yul\":18143:18164   */\n      0x496e646578206f7574206f6620626f756e647300000000000000000000000000\n        /* \"#utility.yul\":18139:18140   */\n      0x00\n        /* \"#utility.yul\":18131:18137   */\n      dup3\n        /* \"#utility.yul\":18127:18141   */\n      add\n        /* \"#utility.yul\":18120:18165   */\n      mstore\n        /* \"#utility.yul\":18003:18172   */\n      pop\n      jump\t// out\n        /* \"#utility.yul\":18178:18544   */\n    tag_409:\n        /* \"#utility.yul\":18320:18323   */\n      0x00\n        /* \"#utility.yul\":18341:18408   */\n      tag_632\n        /* \"#utility.yul\":18405:18407   */\n      0x13\n        /* \"#utility.yul\":18400:18403   */\n      dup4\n        /* \"#utility.yul\":18341:18408   */\n      tag_389\n      jump\t// in\n    tag_632:\n        /* \"#utility.yul\":18334:18408   */\n      swap2\n      pop\n        /* \"#utility.yul\":18417:18510   */\n      tag_633\n        /* \"#utility.yul\":18506:18509   */\n      dup3\n        /* \"#utility.yul\":18417:18510   */\n      tag_408\n      jump\t// in\n    tag_633:\n        /* \"#utility.yul\":18535:18537   */\n      0x20\n        /* \"#utility.yul\":18530:18533   */\n      dup3\n        /* \"#utility.yul\":18526:18538   */\n      add\n        /* \"#utility.yul\":18519:18538   */\n      swap1\n      pop\n        /* \"#utility.yul\":18178:18544   */\n      swap2\n      swap1\n      pop\n      jump\t// out\n        /* \"#utility.yul\":18550:18969   */\n    tag_160:\n        /* \"#utility.yul\":18716:18720   */\n      0x00\n        /* \"#utility.yul\":18754:18756   */\n      0x20\n        /* \"#utility.yul\":18743:18752   */\n      dup3\n        /* \"#utility.yul\":18739:18757   */\n      add\n        /* \"#utility.yul\":18731:18757   */\n      swap1\n      pop\n        /* \"#utility.yul\":18803:18812   */\n      dup2\n        /* \"#utility.yul\":18797:18801   */\n      dup2\n        /* \"#utility.yul\":18793:18813   */\n      sub\n        /* \"#utility.yul\":18789:18790   */\n      0x00\n        /* \"#utility.yul\":18778:18787   */\n      dup4\n        /* \"#utility.yul\":18774:18791   */\n      add\n        /* \"#utility.yul\":18767:18814   */\n      mstore\n        /* \"#utility.yul\":18831:18962   */\n      tag_635\n        /* \"#utility.yul\":18957:18961   */\n      dup2\n        /* \"#utility.yul\":18831:18962   */\n      tag_409\n      jump\t// in\n    tag_635:\n        /* \"#utility.yul\":18823:18962   */\n      swap1\n      pop\n        /* \"#utility.yul\":18550:18969   */\n      swap2\n      swap1\n      pop\n      jump\t// out\n        /* \"#utility.yul\":18975:19155   */\n    tag_163:\n        /* \"#utility.yul\":19023:19100   */\n      0x4e487b7100000000000000000000000000000000000000000000000000000000\n        /* \"#utility.yul\":19020:19021   */\n      0x00\n        /* \"#utility.yul\":19013:19101   */\n      mstore\n        /* \"#utility.yul\":19120:19124   */\n      0x32\n        /* \"#utility.yul\":19117:19118   */\n      0x04\n        /* \"#utility.yul\":19110:19125   */\n      mstore\n        /* \"#utility.yul\":19144:19148   */\n      0x24\n        /* \"#utility.yul\":19141:19142   */\n      0x00\n        /* \"#utility.yul\":19134:19149   */\n      revert\n        /* \"#utility.yul\":19161:19277   */\n    tag_410:\n        /* \"#utility.yul\":19231:19252   */\n      tag_638\n        /* \"#utility.yul\":19246:19251   */\n      dup2\n        /* \"#utility.yul\":19231:19252   */\n      tag_384\n      jump\t// in\n    tag_638:\n        /* \"#utility.yul\":19224:19229   */\n      dup2\n        /* \"#utility.yul\":19221:19253   */\n      eq\n        /* \"#utility.yul\":19211:19271   */\n      tag_639\n      jumpi\n        /* \"#utility.yul\":19267:19268   */\n      0x00\n        /* \"#utility.yul\":19264:19265   */\n      dup1\n        /* \"#utility.yul\":19257:19269   */\n      revert\n        /* \"#utility.yul\":19211:19271   */\n    tag_639:\n        /* \"#utility.yul\":19161:19277   */\n      pop\n      jump\t// out\n        /* \"#utility.yul\":19283:19420   */\n    tag_411:\n        /* \"#utility.yul\":19337:19342   */\n      0x00\n        /* \"#utility.yul\":19368:19374   */\n      dup2\n        /* \"#utility.yul\":19362:19375   */\n      mload\n        /* \"#utility.yul\":19353:19375   */\n      swap1\n      pop\n        /* \"#utility.yul\":19384:19414   */\n      tag_641\n        /* \"#utility.yul\":19408:19413   */\n      dup2\n        /* \"#utility.yul\":19384:19414   */\n      tag_410\n      jump\t// in\n    tag_641:\n        /* \"#utility.yul\":19283:19420   */\n      swap3\n      swap2\n      pop\n      pop\n      jump\t// out\n        /* \"#utility.yul\":19426:19771   */\n    tag_185:\n        /* \"#utility.yul\":19493:19499   */\n      0x00\n        /* \"#utility.yul\":19542:19544   */\n      0x20\n        /* \"#utility.yul\":19530:19539   */\n      dup3\n        /* \"#utility.yul\":19521:19528   */\n      dup5\n        /* \"#utility.yul\":19517:19540   */\n      sub\n        /* \"#utility.yul\":19513:19545   */\n      slt\n        /* \"#utility.yul\":19510:19629   */\n      iszero\n      tag_643\n      jumpi\n        /* \"#utility.yul\":19548:19627   */\n      tag_644\n      tag_368\n      jump\t// in\n    tag_644:\n        /* \"#utility.yul\":19510:19629   */\n    tag_643:\n        /* \"#utility.yul\":19668:19669   */\n      0x00\n        /* \"#utility.yul\":19693:19754   */\n      tag_645\n        /* \"#utility.yul\":19746:19753   */\n      dup5\n        /* \"#utility.yul\":19737:19743   */\n      dup3\n        /* \"#utility.yul\":19726:19735   */\n      dup6\n        /* \"#utility.yul\":19722:19744   */\n      add\n        /* \"#utility.yul\":19693:19754   */\n      tag_411\n      jump\t// in\n    tag_645:\n        /* \"#utility.yul\":19683:19754   */\n      swap2\n      pop\n        /* \"#utility.yul\":19639:19764   */\n      pop\n        /* \"#utility.yul\":19426:19771   */\n      swap3\n      swap2\n      pop\n      pop\n      jump\t// out\n        /* \"#utility.yul\":19777:19941   */\n    tag_412:\n        /* \"#utility.yul\":19917:19933   */\n      0x4e6f7420617574686f72697a6564000000000000000000000000000000000000\n        /* \"#utility.yul\":19913:19914   */\n      0x00\n        /* \"#utility.yul\":19905:19911   */\n      dup3\n        /* \"#utility.yul\":19901:19915   */\n      add\n        /* \"#utility.yul\":19894:19934   */\n      mstore\n        /* \"#utility.yul\":19777:19941   */\n      pop\n      jump\t// out\n        /* \"#utility.yul\":19947:20313   */\n    tag_413:\n        /* \"#utility.yul\":20089:20092   */\n      0x00\n        /* \"#utility.yul\":20110:20177   */\n      tag_648\n        /* \"#utility.yul\":20174:20176   */\n      0x0e\n        /* \"#utility.yul\":20169:20172   */\n      dup4\n        /* \"#utility.yul\":20110:20177   */\n      tag_389\n      jump\t// in\n    tag_648:\n        /* \"#utility.yul\":20103:20177   */\n      swap2\n      pop\n        /* \"#utility.yul\":20186:20279   */\n      tag_649\n        /* \"#utility.yul\":20275:20278   */\n      dup3\n        /* \"#utility.yul\":20186:20279   */\n      tag_412\n      jump\t// in\n    tag_649:\n        /* \"#utility.yul\":20304:20306   */\n      0x20\n        /* \"#utility.yul\":20299:20302   */\n      dup3\n        /* \"#utility.yul\":20295:20307   */\n      add\n        /* \"#utility.yul\":20288:20307   */\n      swap1\n      pop\n        /* \"#utility.yul\":19947:20313   */\n      swap2\n      swap1\n      pop\n      jump\t// out\n        /* \"#utility.yul\":20319:20738   */\n    tag_188:\n        /* \"#utility.yul\":20485:20489   */\n      0x00\n        /* \"#utility.yul\":20523:20525   */\n      0x20\n        /* \"#utility.yul\":20512:20521   */\n      dup3\n        /* \"#utility.yul\":20508:20526   */\n      add\n        /* \"#utility.yul\":20500:20526   */\n      swap1\n      pop\n        /* \"#utility.yul\":20572:20581   */\n      dup2\n        /* \"#utility.yul\":20566:20570   */\n      dup2\n        /* \"#utility.yul\":20562:20582   */\n      sub\n        /* \"#utility.yul\":20558:20559   */\n      0x00\n        /* \"#utility.yul\":20547:20556   */\n      dup4\n        /* \"#utility.yul\":20543:20560   */\n      add\n        /* \"#utility.yul\":20536:20583   */\n      mstore\n        /* \"#utility.yul\":20600:20731   */\n      tag_651\n        /* \"#utility.yul\":20726:20730   */\n      dup2\n        /* \"#utility.yul\":20600:20731   */\n      tag_413\n      jump\t// in\n    tag_651:\n        /* \"#utility.yul\":20592:20731   */\n      swap1\n      pop\n        /* \"#utility.yul\":20319:20738   */\n      swap2\n      swap1\n      pop\n      jump\t// out\n        /* \"#utility.yul\":20744:20969   */\n    tag_414:\n        /* \"#utility.yul\":20884:20918   */\n      0x53747564656e7420616c72656164792065786973747320696e2070656e64696e\n        /* \"#utility.yul\":20880:20881   */\n      0x00\n        /* \"#utility.yul\":20872:20878   */\n      dup3\n        /* \"#utility.yul\":20868:20882   */\n      add\n        /* \"#utility.yul\":20861:20919   */\n      mstore\n        /* \"#utility.yul\":20953:20961   */\n      0x67206c6973740000000000000000000000000000000000000000000000000000\n        /* \"#utility.yul\":20948:20950   */\n      0x20\n        /* \"#utility.yul\":20940:20946   */\n      dup3\n        /* \"#utility.yul\":20936:20951   */\n      add\n        /* \"#utility.yul\":20929:20962   */\n      mstore\n        /* \"#utility.yul\":20744:20969   */\n      pop\n      jump\t// out\n        /* \"#utility.yul\":20975:21341   */\n    tag_415:\n        /* \"#utility.yul\":21117:21120   */\n      0x00\n        /* \"#utility.yul\":21138:21205   */\n      tag_654\n        /* \"#utility.yul\":21202:21204   */\n      0x26\n        /* \"#utility.yul\":21197:21200   */\n      dup4\n        /* \"#utility.yul\":21138:21205   */\n      tag_389\n      jump\t// in\n    tag_654:\n        /* \"#utility.yul\":21131:21205   */\n      swap2\n      pop\n        /* \"#utility.yul\":21214:21307   */\n      tag_655\n        /* \"#utility.yul\":21303:21306   */\n      dup3\n        /* \"#utility.yul\":21214:21307   */\n      tag_414\n      jump\t// in\n    tag_655:\n        /* \"#utility.yul\":21332:21334   */\n      0x40\n        /* \"#utility.yul\":21327:21330   */\n      dup3\n        /* \"#utility.yul\":21323:21335   */\n      add\n        /* \"#utility.yul\":21316:21335   */\n      swap1\n      pop\n        /* \"#utility.yul\":20975:21341   */\n      swap2\n      swap1\n      pop\n      jump\t// out\n        /* \"#utility.yul\":21347:21766   */\n    tag_193:\n        /* \"#utility.yul\":21513:21517   */\n      0x00\n        /* \"#utility.yul\":21551:21553   */\n      0x20\n        /* \"#utility.yul\":21540:21549   */\n      dup3\n        /* \"#utility.yul\":21536:21554   */\n      add\n        /* \"#utility.yul\":21528:21554   */\n      swap1\n      pop\n        /* \"#utility.yul\":21600:21609   */\n      dup2\n        /* \"#utility.yul\":21594:21598   */\n      dup2\n        /* \"#utility.yul\":21590:21610   */\n      sub\n        /* \"#utility.yul\":21586:21587   */\n      0x00\n        /* \"#utility.yul\":21575:21584   */\n      dup4\n        /* \"#utility.yul\":21571:21588   */\n      add\n        /* \"#utility.yul\":21564:21611   */\n      mstore\n        /* \"#utility.yul\":21628:21759   */\n      tag_657\n        /* \"#utility.yul\":21754:21758   */\n      dup2\n        /* \"#utility.yul\":21628:21759   */\n      tag_415\n      jump\t// in\n    tag_657:\n        /* \"#utility.yul\":21620:21759   */\n      swap1\n      pop\n        /* \"#utility.yul\":21347:21766   */\n      swap2\n      swap1\n      pop\n      jump\t// out\n        /* \"#utility.yul\":21772:21866   */\n    tag_416:\n        /* \"#utility.yul\":21805:21813   */\n      0x00\n        /* \"#utility.yul\":21853:21858   */\n      dup2\n        /* \"#utility.yul\":21849:21851   */\n      0x60\n        /* \"#utility.yul\":21845:21859   */\n      shl\n        /* \"#utility.yul\":21824:21859   */\n      swap1\n      pop\n        /* \"#utility.yul\":21772:21866   */\n      swap2\n      swap1\n      pop\n      jump\t// out\n        /* \"#utility.yul\":21872:21966   */\n    tag_417:\n        /* \"#utility.yul\":21911:21918   */\n      0x00\n        /* \"#utility.yul\":21940:21960   */\n      tag_660\n        /* \"#utility.yul\":21954:21959   */\n      dup3\n        /* \"#utility.yul\":21940:21960   */\n      tag_416\n      jump\t// in\n    tag_660:\n        /* \"#utility.yul\":21929:21960   */\n      swap1\n      pop\n        /* \"#utility.yul\":21872:21966   */\n      swap2\n      swap1\n      pop\n      jump\t// out\n        /* \"#utility.yul\":21972:22072   */\n    tag_418:\n        /* \"#utility.yul\":22011:22018   */\n      0x00\n        /* \"#utility.yul\":22040:22066   */\n      tag_662\n        /* \"#utility.yul\":22060:22065   */\n      dup3\n        /* \"#utility.yul\":22040:22066   */\n      tag_417\n      jump\t// in\n    tag_662:\n        /* \"#utility.yul\":22029:22066   */\n      swap1\n      pop\n        /* \"#utility.yul\":21972:22072   */\n      swap2\n      swap1\n      pop\n      jump\t// out\n        /* \"#utility.yul\":22078:22235   */\n    tag_419:\n        /* \"#utility.yul\":22183:22228   */\n      tag_664\n        /* \"#utility.yul\":22203:22227   */\n      tag_665\n        /* \"#utility.yul\":22221:22226   */\n      dup3\n        /* \"#utility.yul\":22203:22227   */\n      tag_371\n      jump\t// in\n    tag_665:\n        /* \"#utility.yul\":22183:22228   */\n      tag_418\n      jump\t// in\n    tag_664:\n        /* \"#utility.yul\":22178:22181   */\n      dup3\n        /* \"#utility.yul\":22171:22229   */\n      mstore\n        /* \"#utility.yul\":22078:22235   */\n      pop\n      pop\n      jump\t// out\n        /* \"#utility.yul\":22241:22389   */\n    tag_420:\n        /* \"#utility.yul\":22343:22354   */\n      0x00\n        /* \"#utility.yul\":22380:22383   */\n      dup2\n        /* \"#utility.yul\":22365:22383   */\n      swap1\n      pop\n        /* \"#utility.yul\":22241:22389   */\n      swap3\n      swap2\n      pop\n      pop\n      jump\t// out\n        /* \"#utility.yul\":22395:22772   */\n    tag_421:\n        /* \"#utility.yul\":22501:22504   */\n      0x00\n        /* \"#utility.yul\":22529:22568   */\n      tag_668\n        /* \"#utility.yul\":22562:22567   */\n      dup3\n        /* \"#utility.yul\":22529:22568   */\n      tag_388\n      jump\t// in\n    tag_668:\n        /* \"#utility.yul\":22584:22673   */\n      tag_669\n        /* \"#utility.yul\":22666:22672   */\n      dup2\n        /* \"#utility.yul\":22661:22664   */\n      dup6\n        /* \"#utility.yul\":22584:22673   */\n      tag_420\n      jump\t// in\n    tag_669:\n        /* \"#utility.yul\":22577:22673   */\n      swap4\n      pop\n        /* \"#utility.yul\":22682:22734   */\n      tag_670\n        /* \"#utility.yul\":22727:22733   */\n      dup2\n        /* \"#utility.yul\":22722:22725   */\n      dup6\n        /* \"#utility.yul\":22715:22719   */\n      0x20\n        /* \"#utility.yul\":22708:22713   */\n      dup7\n        /* \"#utility.yul\":22704:22720   */\n      add\n        /* \"#utility.yul\":22682:22734   */\n      tag_390\n      jump\t// in\n    tag_670:\n        /* \"#utility.yul\":22759:22765   */\n      dup1\n        /* \"#utility.yul\":22754:22757   */\n      dup5\n        /* \"#utility.yul\":22750:22766   */\n      add\n        /* \"#utility.yul\":22743:22766   */\n      swap2\n      pop\n        /* \"#utility.yul\":22505:22772   */\n      pop\n        /* \"#utility.yul\":22395:22772   */\n      swap3\n      swap2\n      pop\n      pop\n      jump\t// out\n        /* \"#utility.yul\":22778:23194   */\n    tag_204:\n        /* \"#utility.yul\":22938:22941   */\n      0x00\n        /* \"#utility.yul\":22953:23028   */\n      tag_672\n        /* \"#utility.yul\":23024:23027   */\n      dup3\n        /* \"#utility.yul\":23015:23021   */\n      dup6\n        /* \"#utility.yul\":22953:23028   */\n      tag_419\n      jump\t// in\n    tag_672:\n        /* \"#utility.yul\":23053:23055   */\n      0x14\n        /* \"#utility.yul\":23048:23051   */\n      dup3\n        /* \"#utility.yul\":23044:23056   */\n      add\n        /* \"#utility.yul\":23037:23056   */\n      swap2\n      pop\n        /* \"#utility.yul\":23073:23168   */\n      tag_673\n        /* \"#utility.yul\":23164:23167   */\n      dup3\n        /* \"#utility.yul\":23155:23161   */\n      dup5\n        /* \"#utility.yul\":23073:23168   */\n      tag_421\n      jump\t// in\n    tag_673:\n        /* \"#utility.yul\":23066:23168   */\n      swap2\n      pop\n        /* \"#utility.yul\":23185:23188   */\n      dup2\n        /* \"#utility.yul\":23178:23188   */\n      swap1\n      pop\n        /* \"#utility.yul\":22778:23194   */\n      swap4\n      swap3\n      pop\n      pop\n      pop\n      jump\t// out\n        /* \"#utility.yul\":23200:23373   */\n    tag_422:\n        /* \"#utility.yul\":23340:23365   */\n      0x596f7520617265206e6f7420417574686f72697a656421000000000000000000\n        /* \"#utility.yul\":23336:23337   */\n      0x00\n        /* \"#utility.yul\":23328:23334   */\n      dup3\n        /* \"#utility.yul\":23324:23338   */\n      add\n        /* \"#utility.yul\":23317:23366   */\n      mstore\n        /* \"#utility.yul\":23200:23373   */\n      pop\n      jump\t// out\n        /* \"#utility.yul\":23379:23745   */\n    tag_423:\n        /* \"#utility.yul\":23521:23524   */\n      0x00\n        /* \"#utility.yul\":23542:23609   */\n      tag_676\n        /* \"#utility.yul\":23606:23608   */\n      0x17\n        /* \"#utility.yul\":23601:23604   */\n      dup4\n        /* \"#utility.yul\":23542:23609   */\n      tag_389\n      jump\t// in\n    tag_676:\n        /* \"#utility.yul\":23535:23609   */\n      swap2\n      pop\n        /* \"#utility.yul\":23618:23711   */\n      tag_677\n        /* \"#utility.yul\":23707:23710   */\n      dup3\n        /* \"#utility.yul\":23618:23711   */\n      tag_422\n      jump\t// in\n    tag_677:\n        /* \"#utility.yul\":23736:23738   */\n      0x20\n        /* \"#utility.yul\":23731:23734   */\n      dup3\n        /* \"#utility.yul\":23727:23739   */\n      add\n        /* \"#utility.yul\":23720:23739   */\n      swap1\n      pop\n        /* \"#utility.yul\":23379:23745   */\n      swap2\n      swap1\n      pop\n      jump\t// out\n        /* \"#utility.yul\":23751:24170   */\n    tag_234:\n        /* \"#utility.yul\":23917:23921   */\n      0x00\n        /* \"#utility.yul\":23955:23957   */\n      0x20\n        /* \"#utility.yul\":23944:23953   */\n      dup3\n        /* \"#utility.yul\":23940:23958   */\n      add\n        /* \"#utility.yul\":23932:23958   */\n      swap1\n      pop\n        /* \"#utility.yul\":24004:24013   */\n      dup2\n        /* \"#utility.yul\":23998:24002   */\n      dup2\n        /* \"#utility.yul\":23994:24014   */\n      sub\n        /* \"#utility.yul\":23990:23991   */\n      0x00\n        /* \"#utility.yul\":23979:23988   */\n      dup4\n        /* \"#utility.yul\":23975:23992   */\n      add\n        /* \"#utility.yul\":23968:24015   */\n      mstore\n        /* \"#utility.yul\":24032:24163   */\n      tag_679\n        /* \"#utility.yul\":24158:24162   */\n      dup2\n        /* \"#utility.yul\":24032:24163   */\n      tag_423\n      jump\t// in\n    tag_679:\n        /* \"#utility.yul\":24024:24163   */\n      swap1\n      pop\n        /* \"#utility.yul\":23751:24170   */\n      swap2\n      swap1\n      pop\n      jump\t// out\n        /* \"#utility.yul\":24176:24353   */\n    tag_424:\n        /* \"#utility.yul\":24316:24345   */\n      0x4e6f74207468652053747564656e74277320496e737469747574650000000000\n        /* \"#utility.yul\":24312:24313   */\n      0x00\n        /* \"#utility.yul\":24304:24310   */\n      dup3\n        /* \"#utility.yul\":24300:24314   */\n      add\n        /* \"#utility.yul\":24293:24346   */\n      mstore\n        /* \"#utility.yul\":24176:24353   */\n      pop\n      jump\t// out\n        /* \"#utility.yul\":24359:24725   */\n    tag_425:\n        /* \"#utility.yul\":24501:24504   */\n      0x00\n        /* \"#utility.yul\":24522:24589   */\n      tag_682\n        /* \"#utility.yul\":24586:24588   */\n      0x1b\n        /* \"#utility.yul\":24581:24584   */\n      dup4\n        /* \"#utility.yul\":24522:24589   */\n      tag_389\n      jump\t// in\n    tag_682:\n        /* \"#utility.yul\":24515:24589   */\n      swap2\n      pop\n        /* \"#utility.yul\":24598:24691   */\n      tag_683\n        /* \"#utility.yul\":24687:24690   */\n      dup3\n        /* \"#utility.yul\":24598:24691   */\n      tag_424\n      jump\t// in\n    tag_683:\n        /* \"#utility.yul\":24716:24718   */\n      0x20\n        /* \"#utility.yul\":24711:24714   */\n      dup3\n        /* \"#utility.yul\":24707:24719   */\n      add\n        /* \"#utility.yul\":24700:24719   */\n      swap1\n      pop\n        /* \"#utility.yul\":24359:24725   */\n      swap2\n      swap1\n      pop\n      jump\t// out\n        /* \"#utility.yul\":24731:25150   */\n    tag_247:\n        /* \"#utility.yul\":24897:24901   */\n      0x00\n        /* \"#utility.yul\":24935:24937   */\n      0x20\n        /* \"#utility.yul\":24924:24933   */\n      dup3\n        /* \"#utility.yul\":24920:24938   */\n      add\n        /* \"#utility.yul\":24912:24938   */\n      swap1\n      pop\n        /* \"#utility.yul\":24984:24993   */\n      dup2\n        /* \"#utility.yul\":24978:24982   */\n      dup2\n        /* \"#utility.yul\":24974:24994   */\n      sub\n        /* \"#utility.yul\":24970:24971   */\n      0x00\n        /* \"#utility.yul\":24959:24968   */\n      dup4\n        /* \"#utility.yul\":24955:24972   */\n      add\n        /* \"#utility.yul\":24948:24995   */\n      mstore\n        /* \"#utility.yul\":25012:25143   */\n      tag_685\n        /* \"#utility.yul\":25138:25142   */\n      dup2\n        /* \"#utility.yul\":25012:25143   */\n      tag_425\n      jump\t// in\n    tag_685:\n        /* \"#utility.yul\":25004:25143   */\n      swap1\n      pop\n        /* \"#utility.yul\":24731:25150   */\n      swap2\n      swap1\n      pop\n      jump\t// out\n        /* \"#utility.yul\":25156:25332   */\n    tag_426:\n        /* \"#utility.yul\":25296:25324   */\n      0x4e6f742074686520537475656e74277320496e73746974757465000000000000\n        /* \"#utility.yul\":25292:25293   */\n      0x00\n        /* \"#utility.yul\":25284:25290   */\n      dup3\n        /* \"#utility.yul\":25280:25294   */\n      add\n        /* \"#utility.yul\":25273:25325   */\n      mstore\n        /* \"#utility.yul\":25156:25332   */\n      pop\n      jump\t// out\n        /* \"#utility.yul\":25338:25704   */\n    tag_427:\n        /* \"#utility.yul\":25480:25483   */\n      0x00\n        /* \"#utility.yul\":25501:25568   */\n      tag_688\n        /* \"#utility.yul\":25565:25567   */\n      0x1a\n        /* \"#utility.yul\":25560:25563   */\n      dup4\n        /* \"#utility.yul\":25501:25568   */\n      tag_389\n      jump\t// in\n    tag_688:\n        /* \"#utility.yul\":25494:25568   */\n      swap2\n      pop\n        /* \"#utility.yul\":25577:25670   */\n      tag_689\n        /* \"#utility.yul\":25666:25669   */\n      dup3\n        /* \"#utility.yul\":25577:25670   */\n      tag_426\n      jump\t// in\n    tag_689:\n        /* \"#utility.yul\":25695:25697   */\n      0x20\n        /* \"#utility.yul\":25690:25693   */\n      dup3\n        /* \"#utility.yul\":25686:25698   */\n      add\n        /* \"#utility.yul\":25679:25698   */\n      swap1\n      pop\n        /* \"#utility.yul\":25338:25704   */\n      swap2\n      swap1\n      pop\n      jump\t// out\n        /* \"#utility.yul\":25710:26129   */\n    tag_286:\n        /* \"#utility.yul\":25876:25880   */\n      0x00\n        /* \"#utility.yul\":25914:25916   */\n      0x20\n        /* \"#utility.yul\":25903:25912   */\n      dup3\n        /* \"#utility.yul\":25899:25917   */\n      add\n        /* \"#utility.yul\":25891:25917   */\n      swap1\n      pop\n        /* \"#utility.yul\":25963:25972   */\n      dup2\n        /* \"#utility.yul\":25957:25961   */\n      dup2\n        /* \"#utility.yul\":25953:25973   */\n      sub\n        /* \"#utility.yul\":25949:25950   */\n      0x00\n        /* \"#utility.yul\":25938:25947   */\n      dup4\n        /* \"#utility.yul\":25934:25951   */\n      add\n        /* \"#utility.yul\":25927:25974   */\n      mstore\n        /* \"#utility.yul\":25991:26122   */\n      tag_691\n        /* \"#utility.yul\":26117:26121   */\n      dup2\n        /* \"#utility.yul\":25991:26122   */\n      tag_427\n      jump\t// in\n    tag_691:\n        /* \"#utility.yul\":25983:26122   */\n      swap1\n      pop\n        /* \"#utility.yul\":25710:26129   */\n      swap2\n      swap1\n      pop\n      jump\t// out\n        /* \"#utility.yul\":26135:26577   */\n    tag_292:\n        /* \"#utility.yul\":26284:26288   */\n      0x00\n        /* \"#utility.yul\":26322:26324   */\n      0x60\n        /* \"#utility.yul\":26311:26320   */\n      dup3\n        /* \"#utility.yul\":26307:26325   */\n      add\n        /* \"#utility.yul\":26299:26325   */\n      swap1\n      pop\n        /* \"#utility.yul\":26335:26406   */\n      tag_693\n        /* \"#utility.yul\":26403:26404   */\n      0x00\n        /* \"#utility.yul\":26392:26401   */\n      dup4\n        /* \"#utility.yul\":26388:26405   */\n      add\n        /* \"#utility.yul\":26379:26385   */\n      dup7\n        /* \"#utility.yul\":26335:26406   */\n      tag_366\n      jump\t// in\n    tag_693:\n        /* \"#utility.yul\":26416:26488   */\n      tag_694\n        /* \"#utility.yul\":26484:26486   */\n      0x20\n        /* \"#utility.yul\":26473:26482   */\n      dup4\n        /* \"#utility.yul\":26469:26487   */\n      add\n        /* \"#utility.yul\":26460:26466   */\n      dup6\n        /* \"#utility.yul\":26416:26488   */\n      tag_394\n      jump\t// in\n    tag_694:\n        /* \"#utility.yul\":26498:26570   */\n      tag_695\n        /* \"#utility.yul\":26566:26568   */\n      0x40\n        /* \"#utility.yul\":26555:26564   */\n      dup4\n        /* \"#utility.yul\":26551:26569   */\n      add\n        /* \"#utility.yul\":26542:26548   */\n      dup5\n        /* \"#utility.yul\":26498:26570   */\n      tag_392\n      jump\t// in\n    tag_695:\n        /* \"#utility.yul\":26135:26577   */\n      swap5\n      swap4\n      pop\n      pop\n      pop\n      pop\n      jump\t// out\n        /* \"#utility.yul\":26583:26809   */\n    tag_428:\n        /* \"#utility.yul\":26723:26757   */\n      0x4661696c656420746f2061646420696e7374697475746520746f207374756465\n        /* \"#utility.yul\":26719:26720   */\n      0x00\n        /* \"#utility.yul\":26711:26717   */\n      dup3\n        /* \"#utility.yul\":26707:26721   */\n      add\n        /* \"#utility.yul\":26700:26758   */\n      mstore\n        /* \"#utility.yul\":26792:26801   */\n      0x6e7420696e666f00000000000000000000000000000000000000000000000000\n        /* \"#utility.yul\":26787:26789   */\n      0x20\n        /* \"#utility.yul\":26779:26785   */\n      dup3\n        /* \"#utility.yul\":26775:26790   */\n      add\n        /* \"#utility.yul\":26768:26802   */\n      mstore\n        /* \"#utility.yul\":26583:26809   */\n      pop\n      jump\t// out\n        /* \"#utility.yul\":26815:27181   */\n    tag_429:\n        /* \"#utility.yul\":26957:26960   */\n      0x00\n        /* \"#utility.yul\":26978:27045   */\n      tag_698\n        /* \"#utility.yul\":27042:27044   */\n      0x27\n        /* \"#utility.yul\":27037:27040   */\n      dup4\n        /* \"#utility.yul\":26978:27045   */\n      tag_389\n      jump\t// in\n    tag_698:\n        /* \"#utility.yul\":26971:27045   */\n      swap2\n      pop\n        /* \"#utility.yul\":27054:27147   */\n      tag_699\n        /* \"#utility.yul\":27143:27146   */\n      dup3\n        /* \"#utility.yul\":27054:27147   */\n      tag_428\n      jump\t// in\n    tag_699:\n        /* \"#utility.yul\":27172:27174   */\n      0x40\n        /* \"#utility.yul\":27167:27170   */\n      dup3\n        /* \"#utility.yul\":27163:27175   */\n      add\n        /* \"#utility.yul\":27156:27175   */\n      swap1\n      pop\n        /* \"#utility.yul\":26815:27181   */\n      swap2\n      swap1\n      pop\n      jump\t// out\n        /* \"#utility.yul\":27187:27606   */\n    tag_298:\n        /* \"#utility.yul\":27353:27357   */\n      0x00\n        /* \"#utility.yul\":27391:27393   */\n      0x20\n        /* \"#utility.yul\":27380:27389   */\n      dup3\n        /* \"#utility.yul\":27376:27394   */\n      add\n        /* \"#utility.yul\":27368:27394   */\n      swap1\n      pop\n        /* \"#utility.yul\":27440:27449   */\n      dup2\n        /* \"#utility.yul\":27434:27438   */\n      dup2\n        /* \"#utility.yul\":27430:27450   */\n      sub\n        /* \"#utility.yul\":27426:27427   */\n      0x00\n        /* \"#utility.yul\":27415:27424   */\n      dup4\n        /* \"#utility.yul\":27411:27428   */\n      add\n        /* \"#utility.yul\":27404:27451   */\n      mstore\n        /* \"#utility.yul\":27468:27599   */\n      tag_701\n        /* \"#utility.yul\":27594:27598   */\n      dup2\n        /* \"#utility.yul\":27468:27599   */\n      tag_429\n      jump\t// in\n    tag_701:\n        /* \"#utility.yul\":27460:27599   */\n      swap1\n      pop\n        /* \"#utility.yul\":27187:27606   */\n      swap2\n      swap1\n      pop\n      jump\t// out\n        /* \"#utility.yul\":27612:27944   */\n    tag_344:\n        /* \"#utility.yul\":27733:27737   */\n      0x00\n        /* \"#utility.yul\":27771:27773   */\n      0x40\n        /* \"#utility.yul\":27760:27769   */\n      dup3\n        /* \"#utility.yul\":27756:27774   */\n      add\n        /* \"#utility.yul\":27748:27774   */\n      swap1\n      pop\n        /* \"#utility.yul\":27784:27855   */\n      tag_703\n        /* \"#utility.yul\":27852:27853   */\n      0x00\n        /* \"#utility.yul\":27841:27850   */\n      dup4\n        /* \"#utility.yul\":27837:27854   */\n      add\n        /* \"#utility.yul\":27828:27834   */\n      dup6\n        /* \"#utility.yul\":27784:27855   */\n      tag_366\n      jump\t// in\n    tag_703:\n        /* \"#utility.yul\":27865:27937   */\n      tag_704\n        /* \"#utility.yul\":27933:27935   */\n      0x20\n        /* \"#utility.yul\":27922:27931   */\n      dup4\n        /* \"#utility.yul\":27918:27936   */\n      add\n        /* \"#utility.yul\":27909:27915   */\n      dup5\n        /* \"#utility.yul\":27865:27937   */\n      tag_394\n      jump\t// in\n    tag_704:\n        /* \"#utility.yul\":27612:27944   */\n      swap4\n      swap3\n      pop\n      pop\n      pop\n      jump\t// out\n        /* \"#utility.yul\":27950:28181   */\n    tag_430:\n        /* \"#utility.yul\":28090:28124   */\n      0x4661696c656420746f2072656d6f766520696e737469747574652066726f6d20\n        /* \"#utility.yul\":28086:28087   */\n      0x00\n        /* \"#utility.yul\":28078:28084   */\n      dup3\n        /* \"#utility.yul\":28074:28088   */\n      add\n        /* \"#utility.yul\":28067:28125   */\n      mstore\n        /* \"#utility.yul\":28159:28173   */\n      0x73747564656e7420696e666f0000000000000000000000000000000000000000\n        /* \"#utility.yul\":28154:28156   */\n      0x20\n        /* \"#utility.yul\":28146:28152   */\n      dup3\n        /* \"#utility.yul\":28142:28157   */\n      add\n        /* \"#utility.yul\":28135:28174   */\n      mstore\n        /* \"#utility.yul\":27950:28181   */\n      pop\n      jump\t// out\n        /* \"#utility.yul\":28187:28553   */\n    tag_431:\n        /* \"#utility.yul\":28329:28332   */\n      0x00\n        /* \"#utility.yul\":28350:28417   */\n      tag_707\n        /* \"#utility.yul\":28414:28416   */\n      0x2c\n        /* \"#utility.yul\":28409:28412   */\n      dup4\n        /* \"#utility.yul\":28350:28417   */\n      tag_389\n      jump\t// in\n    tag_707:\n        /* \"#utility.yul\":28343:28417   */\n      swap2\n      pop\n        /* \"#utility.yul\":28426:28519   */\n      tag_708\n        /* \"#utility.yul\":28515:28518   */\n      dup3\n        /* \"#utility.yul\":28426:28519   */\n      tag_430\n      jump\t// in\n    tag_708:\n        /* \"#utility.yul\":28544:28546   */\n      0x40\n        /* \"#utility.yul\":28539:28542   */\n      dup3\n        /* \"#utility.yul\":28535:28547   */\n      add\n        /* \"#utility.yul\":28528:28547   */\n      swap1\n      pop\n        /* \"#utility.yul\":28187:28553   */\n      swap2\n      swap1\n      pop\n      jump\t// out\n        /* \"#utility.yul\":28559:28978   */\n    tag_350:\n        /* \"#utility.yul\":28725:28729   */\n      0x00\n        /* \"#utility.yul\":28763:28765   */\n      0x20\n        /* \"#utility.yul\":28752:28761   */\n      dup3\n        /* \"#utility.yul\":28748:28766   */\n      add\n        /* \"#utility.yul\":28740:28766   */\n      swap1\n      pop\n        /* \"#utility.yul\":28812:28821   */\n      dup2\n        /* \"#utility.yul\":28806:28810   */\n      dup2\n        /* \"#utility.yul\":28802:28822   */\n      sub\n        /* \"#utility.yul\":28798:28799   */\n      0x00\n        /* \"#utility.yul\":28787:28796   */\n      dup4\n        /* \"#utility.yul\":28783:28800   */\n      add\n        /* \"#utility.yul\":28776:28823   */\n      mstore\n        /* \"#utility.yul\":28840:28971   */\n      tag_710\n        /* \"#utility.yul\":28966:28970   */\n      dup2\n        /* \"#utility.yul\":28840:28971   */\n      tag_431\n      jump\t// in\n    tag_710:\n        /* \"#utility.yul\":28832:28971   */\n      swap1\n      pop\n        /* \"#utility.yul\":28559:28978   */\n      swap2\n      swap1\n      pop\n      jump\t// out\n\n    auxdata: 0xa2646970667358221220c473bff754b5d99df38e7e3337277110734db601ea316cb7c80f77548c6c9e5364736f6c634300080a0033\n}\n",
    "bytecode": {
      "linkReferences": {},
      "object": "608060405260006004553480156200001657600080fd5b50604051620037c7380380620037c783398181016040528101906200003c9190620001b1565b336000806101000a81548173ffffffffffffffffffffffffffffffffffffffff021916908373ffffffffffffffffffffffffffffffffffffffff16021790555081600360006101000a81548173ffffffffffffffffffffffffffffffffffffffff021916908373ffffffffffffffffffffffffffffffffffffffff16021790555081600160006101000a81548173ffffffffffffffffffffffffffffffffffffffff021916908373ffffffffffffffffffffffffffffffffffffffff16021790555080600260006101000a81548173ffffffffffffffffffffffffffffffffffffffff021916908373ffffffffffffffffffffffffffffffffffffffff1602179055505050620001f8565b600080fd5b600073ffffffffffffffffffffffffffffffffffffffff82169050919050565b600062000179826200014c565b9050919050565b6200018b816200016c565b81146200019757600080fd5b50565b600081519050620001ab8162000180565b92915050565b60008060408385031215620001cb57620001ca62000147565b5b6000620001db858286016200019a565b9250506020620001ee858286016200019a565b9150509250929050565b6135bf80620002086000396000f3fe608060405234801561001057600080fd5b506004361061014d5760003560e01c8063a4156aec116100c3578063bd6a85041161007c578063bd6a8504146103d6578063c865d8811461040a578063ca90543d14610428578063da085b7a14610458578063f00c848d14610474578063f20bcf9a146104905761014d565b8063a4156aec146102fc578063b16f902314610330578063b1be843d1461034c578063b7774c1a1461036a578063b91fa41914610388578063bae0a585146103b85761014d565b8063673a174611610115578063673a17461461022657806378cfe85e1461024457806382f7d392146102605780638a97503d14610290578063911018ef146102c0578063a2a1fee5146102de5761014d565b806320b260e314610152578063217fa765146101705780632ecca5fe146101a0578063548d434e146101be5780635b969a04146101f2575b600080fd5b61015a6104ac565b60405161016791906126aa565b60405180910390f35b61018a6004803603810190610185919061287d565b6104b9565b60405161019791906128f4565b60405180910390f35b6101a861063e565b6040516101b591906128f4565b60405180910390f35b6101d860048036038101906101d3919061293b565b610710565b6040516101e99594939291906129ff565b60405180910390f35b61020c6004803603810190610207919061293b565b61092e565b60405161021d9594939291906129ff565b60405180910390f35b61022e610c3e565b60405161023b9190612a67565b60405180910390f35b61025e60048036038101906102599190612a82565b610c62565b005b61027a60048036038101906102759190612b51565b610f34565b60405161028791906128f4565b60405180910390f35b6102aa60048036038101906102a5919061287d565b610fcc565b6040516102b79190612b97565b60405180910390f35b6102c8610fff565b6040516102d591906126aa565b60405180910390f35b6102e6611005565b6040516102f391906126aa565b60405180910390f35b6103166004803603810190610311919061293b565b611012565b6040516103279594939291906129ff565b60405180910390f35b61034a60048036038101906103459190612bb2565b611322565b005b6103546117d0565b60405161036191906126aa565b60405180910390f35b6103726117dd565b60405161037f9190612a67565b60405180910390f35b6103a2600480360381019061039d919061287d565b611803565b6040516103af91906128f4565b60405180910390f35b6103c061199c565b6040516103cd9190612cf2565b60405180910390f35b6103f060048036038101906103eb919061293b565b6119c2565b6040516104019594939291906129ff565b60405180910390f35b610412611be0565b60405161041f9190612d2e565b60405180910390f35b610442600480360381019061043d9190612b51565b611c06565b60405161044f9190612a67565b60405180910390f35b610472600480360381019061046d919061293b565b611c6f565b005b61048e6004803603810190610489919061293b565b611f27565b005b6104aa60048036038101906104a59190612d49565b6122ea565b005b6000600880549050905090565b600080600160009054906101000a900473ffffffffffffffffffffffffffffffffffffffff1673ffffffffffffffffffffffffffffffffffffffff16638a97503d85856040518363ffffffff1660e01b8152600401610519929190612db8565b602060405180830381865afa158015610536573d6000803e3d6000fd5b505050506040513d601f19601f8201168201806040525081019061055a9190612e14565b90506000600160009054906101000a900473ffffffffffffffffffffffffffffffffffffffff1673ffffffffffffffffffffffffffffffffffffffff1663435df20d836040518263ffffffff1660e01b81526004016105b99190612b97565b600060405180830381865afa1580156105d6573d6000803e3d6000fd5b505050506040513d6000823e3d601f19601f820116820180604052508101906105ff9190612ec6565b9450505050508073ffffffffffffffffffffffffffffffffffffffff163373ffffffffffffffffffffffffffffffffffffffff16149250505092915050565b60008073ffffffffffffffffffffffffffffffffffffffff16600260009054906101000a900473ffffffffffffffffffffffffffffffffffffffff1673ffffffffffffffffffffffffffffffffffffffff1663839f602d336040518263ffffffff1660e01b81526004016106b29190612a67565b602060405180830381865afa1580156106cf573d6000803e3d6000fd5b505050506040513d601f19601f820116820180604052508101906106f39190612f95565b73ffffffffffffffffffffffffffffffffffffffff161415905090565b6006818154811061072057600080fd5b906000526020600020906005020160009150905080600001805461074390612ff1565b80601f016020809104026020016040519081016040528092919081815260200182805461076f90612ff1565b80156107bc5780601f10610791576101008083540402835291602001916107bc565b820191906000526020600020905b81548152906001019060200180831161079f57829003601f168201915b5050505050908060010160009054906101000a900473ffffffffffffffffffffffffffffffffffffffff16908060020180546107f790612ff1565b80601f016020809104026020016040519081016040528092919081815260200182805461082390612ff1565b80156108705780601f1061084557610100808354040283529160200191610870565b820191906000526020600020905b81548152906001019060200180831161085357829003601f168201915b50505050509080600301805461088590612ff1565b80601f01602080910402602001604051908101604052809291908181526020018280546108b190612ff1565b80156108fe5780601f106108d3576101008083540402835291602001916108fe565b820191906000526020600020905b8154815290600101906020018083116108e157829003601f168201915b5050505050908060040160009054906101000a900473ffffffffffffffffffffffffffffffffffffffff16905085565b606060006060806000600580549050861061097e576040517f08c379a00000000000000000000000000000000000000000000000000000000081526004016109759061306f565b60405180910390fd5b6000600587815481106109945761099361308f565b5b90600052602060002090600502016040518060a00160405290816000820180546109bd90612ff1565b80601f01602080910402602001604051908101604052809291908181526020018280546109e990612ff1565b8015610a365780601f10610a0b57610100808354040283529160200191610a36565b820191906000526020600020905b815481529060010190602001808311610a1957829003601f168201915b505050505081526020016001820160009054906101000a900473ffffffffffffffffffffffffffffffffffffffff1673ffffffffffffffffffffffffffffffffffffffff1673ffffffffffffffffffffffffffffffffffffffff168152602001600282018054610aa590612ff1565b80601f0160208091040260200160405190810160405280929190818152602001828054610ad190612ff1565b8015610b1e5780601f10610af357610100808354040283529160200191610b1e565b820191906000526020600020905b815481529060010190602001808311610b0157829003601f168201915b50505050508152602001600382018054610b3790612ff1565b80601f0160208091040260200160405190810160405280929190818152602001828054610b6390612ff1565b8015610bb05780601f10610b8557610100808354040283529160200191610bb0565b820191906000526020600020905b815481529060010190602001808311610b9357829003601f168201915b505050505081526020016004820160009054906101000a900473ffffffffffffffffffffffffffffffffffffffff1673ffffffffffffffffffffffffffffffffffffffff1673ffffffffffffffffffffffffffffffffffffffff1681525050905080600001518160200151826040015183606001518460800151955095509550955095505091939590929450565b60008054906101000a900473ffffffffffffffffffffffffffffffffffffffff1681565b600160009054906101000a900473ffffffffffffffffffffffffffffffffffffffff1673ffffffffffffffffffffffffffffffffffffffff166382f7d392336040518263ffffffff1660e01b8152600401610cbd9190612a67565b602060405180830381865afa158015610cda573d6000803e3d6000fd5b505050506040513d601f19601f82011682018060405250810190610cfe91906130ea565b610d3d576040517f08c379a0000000000000000000000000000000000000000000000000000000008152600401610d3490613163565b60405180910390fd5b610d478483611803565b610d86576040517f08c379a0000000000000000000000000000000000000000000000000000000008152600401610d7d906131f5565b60405180910390fd5b610d8e612553565b85816000018190525084816020019073ffffffffffffffffffffffffffffffffffffffff16908173ffffffffffffffffffffffffffffffffffffffff168152505083816040018190525082816060018190525081816080019073ffffffffffffffffffffffffffffffffffffffff16908173ffffffffffffffffffffffffffffffffffffffff168152505060058190806001815401808255809150506001900390600052602060002090600502016000909190919091506000820151816000019080519060200190610e619291906125ae565b5060208201518160010160006101000a81548173ffffffffffffffffffffffffffffffffffffffff021916908373ffffffffffffffffffffffffffffffffffffffff1602179055506040820151816002019080519060200190610ec59291906125ae565b506060820151816003019080519060200190610ee29291906125ae565b5060808201518160040160006101000a81548173ffffffffffffffffffffffffffffffffffffffff021916908373ffffffffffffffffffffffffffffffffffffffff1602179055505050505050505050565b60008073ffffffffffffffffffffffffffffffffffffffff16600760008473ffffffffffffffffffffffffffffffffffffffff1673ffffffffffffffffffffffffffffffffffffffff16815260200190815260200160002060009054906101000a900473ffffffffffffffffffffffffffffffffffffffff1673ffffffffffffffffffffffffffffffffffffffff1614159050919050565b60008282604051602001610fe1929190613299565b60405160208183030381529060405280519060200120905092915050565b60045481565b6000600680549050905090565b6060600060608060006005805490508610611062576040517f08c379a00000000000000000000000000000000000000000000000000000000081526004016110599061306f565b60405180910390fd5b6000600687815481106110785761107761308f565b5b90600052602060002090600502016040518060a00160405290816000820180546110a190612ff1565b80601f01602080910402602001604051908101604052809291908181526020018280546110cd90612ff1565b801561111a5780601f106110ef5761010080835404028352916020019161111a565b820191906000526020600020905b8154815290600101906020018083116110fd57829003601f168201915b505050505081526020016001820160009054906101000a900473ffffffffffffffffffffffffffffffffffffffff1673ffffffffffffffffffffffffffffffffffffffff1673ffffffffffffffffffffffffffffffffffffffff16815260200160028201805461118990612ff1565b80601f01602080910402602001604051908101604052809291908181526020018280546111b590612ff1565b80156112025780601f106111d757610100808354040283529160200191611202565b820191906000526020600020905b8154815290600101906020018083116111e557829003601f168201915b5050505050815260200160038201805461121b90612ff1565b80601f016020809104026020016040519081016040528092919081815260200182805461124790612ff1565b80156112945780601f1061126957610100808354040283529160200191611294565b820191906000526020600020905b81548152906001019060200180831161127757829003601f168201915b505050505081526020016004820160009054906101000a900473ffffffffffffffffffffffffffffffffffffffff1673ffffffffffffffffffffffffffffffffffffffff1673ffffffffffffffffffffffffffffffffffffffff1681525050905080600001518160200151826040015183606001518460800151955095509550955095505091939590929450565b600073ffffffffffffffffffffffffffffffffffffffff16600260009054906101000a900473ffffffffffffffffffffffffffffffffffffffff1673ffffffffffffffffffffffffffffffffffffffff1663839f602d336040518263ffffffff1660e01b81526004016113959190612a67565b602060405180830381865afa1580156113b2573d6000803e3d6000fd5b505050506040513d601f19601f820116820180604052508101906113d69190612f95565b73ffffffffffffffffffffffffffffffffffffffff16141561142d576040517f08c379a00000000000000000000000000000000000000000000000000000000081526004016114249061330d565b60405180910390fd5b6000600160009054906101000a900473ffffffffffffffffffffffffffffffffffffffff1673ffffffffffffffffffffffffffffffffffffffff16638a97503d87866040518363ffffffff1660e01b815260040161148c929190612db8565b602060405180830381865afa1580156114a9573d6000803e3d6000fd5b505050506040513d601f19601f820116820180604052508101906114cd9190612e14565b90506000600160009054906101000a900473ffffffffffffffffffffffffffffffffffffffff1673ffffffffffffffffffffffffffffffffffffffff1663435df20d836040518263ffffffff1660e01b815260040161152c9190612b97565b600060405180830381865afa158015611549573d6000803e3d6000fd5b505050506040513d6000823e3d601f19601f820116820180604052508101906115729190612ec6565b945050505050600073ffffffffffffffffffffffffffffffffffffffff168173ffffffffffffffffffffffffffffffffffffffff16141580156115e057508373ffffffffffffffffffffffffffffffffffffffff168173ffffffffffffffffffffffffffffffffffffffff16145b61161f576040517f08c379a000000000000000000000000000000000000000000000000000000000815260040161161690613379565b60405180910390fd5b611627612553565b88816000018190525087816020019073ffffffffffffffffffffffffffffffffffffffff16908173ffffffffffffffffffffffffffffffffffffffff168152505086816040018190525085816060018190525083816080019073ffffffffffffffffffffffffffffffffffffffff16908173ffffffffffffffffffffffffffffffffffffffff1681525050600681908060018154018082558091505060019003906000526020600020906005020160009091909190915060008201518160000190805190602001906116fa9291906125ae565b5060208201518160010160006101000a81548173ffffffffffffffffffffffffffffffffffffffff021916908373ffffffffffffffffffffffffffffffffffffffff160217905550604082015181600201908051906020019061175e9291906125ae565b50606082015181600301908051906020019061177b9291906125ae565b5060808201518160040160006101000a81548173ffffffffffffffffffffffffffffffffffffffff021916908373ffffffffffffffffffffffffffffffffffffffff1602179055505050505050505050505050565b6000600580549050905090565b600360009054906101000a900473ffffffffffffffffffffffffffffffffffffffff1681565b600080600160009054906101000a900473ffffffffffffffffffffffffffffffffffffffff1673ffffffffffffffffffffffffffffffffffffffff16638a97503d85856040518363ffffffff1660e01b8152600401611863929190612db8565b602060405180830381865afa158015611880573d6000803e3d6000fd5b505050506040513d601f19601f820116820180604052508101906118a49190612e14565b90506000600160009054906101000a900473ffffffffffffffffffffffffffffffffffffffff1673ffffffffffffffffffffffffffffffffffffffff1663435df20d836040518263ffffffff1660e01b81526004016119039190612b97565b600060405180830381865afa158015611920573d6000803e3d6000fd5b505050506040513d6000823e3d601f19601f820116820180604052508101906119499190612ec6565b945050505050600073ffffffffffffffffffffffffffffffffffffffff168173ffffffffffffffffffffffffffffffffffffffff16141561198f57600192505050611996565b6000925050505b92915050565b600260009054906101000a900473ffffffffffffffffffffffffffffffffffffffff1681565b600581815481106119d257600080fd5b90600052602060002090600502016000915090508060000180546119f590612ff1565b80601f0160208091040260200160405190810160405280929190818152602001828054611a2190612ff1565b8015611a6e5780601f10611a4357610100808354040283529160200191611a6e565b820191906000526020600020905b815481529060010190602001808311611a5157829003601f168201915b5050505050908060010160009054906101000a900473ffffffffffffffffffffffffffffffffffffffff1690806002018054611aa990612ff1565b80601f0160208091040260200160405190810160405280929190818152602001828054611ad590612ff1565b8015611b225780601f10611af757610100808354040283529160200191611b22565b820191906000526020600020905b815481529060010190602001808311611b0557829003601f168201915b505050505090806003018054611b3790612ff1565b80601f0160208091040260200160405190810160405280929190818152602001828054611b6390612ff1565b8015611bb05780601f10611b8557610100808354040283529160200191611bb0565b820191906000526020600020905b815481529060010190602001808311611b9357829003601f168201915b5050505050908060040160009054906101000a900473ffffffffffffffffffffffffffffffffffffffff16905085565b600160009054906101000a900473ffffffffffffffffffffffffffffffffffffffff1681565b6000600760008373ffffffffffffffffffffffffffffffffffffffff1673ffffffffffffffffffffffffffffffffffffffff16815260200190815260200160002060009054906101000a900473ffffffffffffffffffffffffffffffffffffffff169050919050565b6000806000806000611c8086611012565b945094509450945094508073ffffffffffffffffffffffffffffffffffffffff163373ffffffffffffffffffffffffffffffffffffffff1614611cf8576040517f08c379a0000000000000000000000000000000000000000000000000000000008152600401611cef906133e5565b60405180910390fd5b6000600160009054906101000a900473ffffffffffffffffffffffffffffffffffffffff1673ffffffffffffffffffffffffffffffffffffffff16638a97503d86856040518363ffffffff1660e01b8152600401611d57929190612db8565b602060405180830381865afa158015611d74573d6000803e3d6000fd5b505050506040513d601f19601f82011682018060405250810190611d989190612e14565b9050600160009054906101000a900473ffffffffffffffffffffffffffffffffffffffff1673ffffffffffffffffffffffffffffffffffffffff16634268ddbd8883336040518463ffffffff1660e01b8152600401611df993929190613405565b6020604051808303816000875af1158015611e18573d6000803e3d6000fd5b505050506040513d601f19601f82011682018060405250810190611e3c91906130ea565b611e7b576040517f08c379a0000000000000000000000000000000000000000000000000000000008152600401611e72906134ae565b60405180910390fd5b60068781548110611e8f57611e8e61308f565b5b906000526020600020906005020160008082016000611eae9190612634565b6001820160006101000a81549073ffffffffffffffffffffffffffffffffffffffff0219169055600282016000611ee59190612634565b600382016000611ef59190612634565b6004820160006101000a81549073ffffffffffffffffffffffffffffffffffffffff0219169055505050505050505050565b600073ffffffffffffffffffffffffffffffffffffffff16600260009054906101000a900473ffffffffffffffffffffffffffffffffffffffff1673ffffffffffffffffffffffffffffffffffffffff1663839f602d336040518263ffffffff1660e01b8152600401611f9a9190612a67565b602060405180830381865afa158015611fb7573d6000803e3d6000fd5b505050506040513d601f19601f82011682018060405250810190611fdb9190612f95565b73ffffffffffffffffffffffffffffffffffffffff161415612032576040517f08c379a00000000000000000000000000000000000000000000000000000000081526004016120299061330d565b60405180910390fd5b60008060008060006120438661092e565b945094509450945094508073ffffffffffffffffffffffffffffffffffffffff163373ffffffffffffffffffffffffffffffffffffffff16146120bb576040517f08c379a00000000000000000000000000000000000000000000000000000000081526004016120b2906133e5565b60405180910390fd5b6000600160009054906101000a900473ffffffffffffffffffffffffffffffffffffffff1673ffffffffffffffffffffffffffffffffffffffff16638a97503d86856040518363ffffffff1660e01b815260040161211a929190612db8565b602060405180830381865afa158015612137573d6000803e3d6000fd5b505050506040513d601f19601f8201168201806040525081019061215b9190612e14565b9050600160009054906101000a900473ffffffffffffffffffffffffffffffffffffffff1673ffffffffffffffffffffffffffffffffffffffff16634268ddbd8883336040518463ffffffff1660e01b81526004016121bc93929190613405565b6020604051808303816000875af11580156121db573d6000803e3d6000fd5b505050506040513d601f19601f820116820180604052508101906121ff91906130ea565b61223e576040517f08c379a0000000000000000000000000000000000000000000000000000000008152600401612235906134ae565b60405180910390fd5b600587815481106122525761225161308f565b5b9060005260206000209060050201600080820160006122719190612634565b6001820160006101000a81549073ffffffffffffffffffffffffffffffffffffffff02191690556002820160006122a89190612634565b6003820160006122b89190612634565b6004820160006101000a81549073ffffffffffffffffffffffffffffffffffffffff0219169055505050505050505050565b6000600160009054906101000a900473ffffffffffffffffffffffffffffffffffffffff1673ffffffffffffffffffffffffffffffffffffffff16638a97503d84846040518363ffffffff1660e01b8152600401612349929190612db8565b602060405180830381865afa158015612366573d6000803e3d6000fd5b505050506040513d601f19601f8201168201806040525081019061238a9190612e14565b90506000600160009054906101000a900473ffffffffffffffffffffffffffffffffffffffff1673ffffffffffffffffffffffffffffffffffffffff1663435df20d836040518263ffffffff1660e01b81526004016123e99190612b97565b600060405180830381865afa158015612406573d6000803e3d6000fd5b505050506040513d6000823e3d601f19601f8201168201806040525081019061242f9190612ec6565b9450505050508073ffffffffffffffffffffffffffffffffffffffff163373ffffffffffffffffffffffffffffffffffffffff161461246d57600080fd5b600160009054906101000a900473ffffffffffffffffffffffffffffffffffffffff1673ffffffffffffffffffffffffffffffffffffffff1663956a354586846040518363ffffffff1660e01b81526004016124ca9291906134ce565b6020604051808303816000875af11580156124e9573d6000803e3d6000fd5b505050506040513d601f19601f8201168201806040525081019061250d91906130ea565b61254c576040517f08c379a000000000000000000000000000000000000000000000000000000000815260040161254390613569565b60405180910390fd5b5050505050565b6040518060a0016040528060608152602001600073ffffffffffffffffffffffffffffffffffffffff1681526020016060815260200160608152602001600073ffffffffffffffffffffffffffffffffffffffff1681525090565b8280546125ba90612ff1565b90600052602060002090601f0160209004810192826125dc5760008555612623565b82601f106125f557805160ff1916838001178555612623565b82800160010185558215612623579182015b82811115612622578251825591602001919060010190612607565b5b5090506126309190612674565b5090565b50805461264090612ff1565b6000825580601f106126525750612671565b601f0160209004906000526020600020908101906126709190612674565b5b50565b5b8082111561268d576000816000905550600101612675565b5090565b6000819050919050565b6126a481612691565b82525050565b60006020820190506126bf600083018461269b565b92915050565b6000604051905090565b600080fd5b600080fd5b600073ffffffffffffffffffffffffffffffffffffffff82169050919050565b6000612704826126d9565b9050919050565b612714816126f9565b811461271f57600080fd5b50565b6000813590506127318161270b565b92915050565b600080fd5b600080fd5b6000601f19601f8301169050919050565b7f4e487b7100000000000000000000000000000000000000000000000000000000600052604160045260246000fd5b61278a82612741565b810181811067ffffffffffffffff821117156127a9576127a8612752565b5b80604052505050565b60006127bc6126c5565b90506127c88282612781565b919050565b600067ffffffffffffffff8211156127e8576127e7612752565b5b6127f182612741565b9050602081019050919050565b82818337600083830152505050565b600061282061281b846127cd565b6127b2565b90508281526020810184848401111561283c5761283b61273c565b5b6128478482856127fe565b509392505050565b600082601f83011261286457612863612737565b5b813561287484826020860161280d565b91505092915050565b60008060408385031215612894576128936126cf565b5b60006128a285828601612722565b925050602083013567ffffffffffffffff8111156128c3576128c26126d4565b5b6128cf8582860161284f565b9150509250929050565b60008115159050919050565b6128ee816128d9565b82525050565b600060208201905061290960008301846128e5565b92915050565b61291881612691565b811461292357600080fd5b50565b6000813590506129358161290f565b92915050565b600060208284031215612951576129506126cf565b5b600061295f84828501612926565b91505092915050565b600081519050919050565b600082825260208201905092915050565b60005b838110156129a2578082015181840152602081019050612987565b838111156129b1576000848401525b50505050565b60006129c282612968565b6129cc8185612973565b93506129dc818560208601612984565b6129e581612741565b840191505092915050565b6129f9816126f9565b82525050565b600060a0820190508181036000830152612a1981886129b7565b9050612a2860208301876129f0565b8181036040830152612a3a81866129b7565b90508181036060830152612a4e81856129b7565b9050612a5d60808301846129f0565b9695505050505050565b6000602082019050612a7c60008301846129f0565b92915050565b600080600080600060a08688031215612a9e57612a9d6126cf565b5b600086013567ffffffffffffffff811115612abc57612abb6126d4565b5b612ac88882890161284f565b9550506020612ad988828901612722565b945050604086013567ffffffffffffffff811115612afa57612af96126d4565b5b612b068882890161284f565b935050606086013567ffffffffffffffff811115612b2757612b266126d4565b5b612b338882890161284f565b9250506080612b4488828901612722565b9150509295509295909350565b600060208284031215612b6757612b666126cf565b5b6000612b7584828501612722565b91505092915050565b6000819050919050565b612b9181612b7e565b82525050565b6000602082019050612bac6000830184612b88565b92915050565b60008060008060008060c08789031215612bcf57612bce6126cf565b5b600087013567ffffffffffffffff811115612bed57612bec6126d4565b5b612bf989828a0161284f565b9650506020612c0a89828a01612722565b955050604087013567ffffffffffffffff811115612c2b57612c2a6126d4565b5b612c3789828a0161284f565b945050606087013567ffffffffffffffff811115612c5857612c576126d4565b5b612c6489828a0161284f565b9350506080612c7589828a01612722565b92505060a0612c8689828a01612722565b9150509295509295509295565b6000819050919050565b6000612cb8612cb3612cae846126d9565b612c93565b6126d9565b9050919050565b6000612cca82612c9d565b9050919050565b6000612cdc82612cbf565b9050919050565b612cec81612cd1565b82525050565b6000602082019050612d076000830184612ce3565b92915050565b6000612d1882612cbf565b9050919050565b612d2881612d0d565b82525050565b6000602082019050612d436000830184612d1f565b92915050565b600080600060608486031215612d6257612d616126cf565b5b6000612d7086828701612926565b9350506020612d8186828701612722565b925050604084013567ffffffffffffffff811115612da257612da16126d4565b5b612dae8682870161284f565b9150509250925092565b6000604082019050612dcd60008301856129f0565b8181036020830152612ddf81846129b7565b90509392505050565b612df181612b7e565b8114612dfc57600080fd5b50565b600081519050612e0e81612de8565b92915050565b600060208284031215612e2a57612e296126cf565b5b6000612e3884828501612dff565b91505092915050565b6000612e54612e4f846127cd565b6127b2565b905082815260208101848484011115612e7057612e6f61273c565b5b612e7b848285612984565b509392505050565b600082601f830112612e9857612e97612737565b5b8151612ea8848260208601612e41565b91505092915050565b600081519050612ec08161270b565b92915050565b600080600080600060a08688031215612ee257612ee16126cf565b5b600086015167ffffffffffffffff811115612f0057612eff6126d4565b5b612f0c88828901612e83565b9550506020612f1d88828901612eb1565b945050604086015167ffffffffffffffff811115612f3e57612f3d6126d4565b5b612f4a88828901612e83565b935050606086015167ffffffffffffffff811115612f6b57612f6a6126d4565b5b612f7788828901612e83565b9250506080612f8888828901612eb1565b9150509295509295909350565b600060208284031215612fab57612faa6126cf565b5b6000612fb984828501612eb1565b91505092915050565b7f4e487b7100000000000000000000000000000000000000000000000000000000600052602260045260246000fd5b6000600282049050600182168061300957607f821691505b6020821081141561301d5761301c612fc2565b5b50919050565b7f496e646578206f7574206f6620626f756e647300000000000000000000000000600082015250565b6000613059601383612973565b915061306482613023565b602082019050919050565b600060208201905081810360008301526130888161304c565b9050919050565b7f4e487b7100000000000000000000000000000000000000000000000000000000600052603260045260246000fd5b6130c7816128d9565b81146130d257600080fd5b50565b6000815190506130e4816130be565b92915050565b600060208284031215613100576130ff6126cf565b5b600061310e848285016130d5565b91505092915050565b7f4e6f7420617574686f72697a6564000000000000000000000000000000000000600082015250565b600061314d600e83612973565b915061315882613117565b602082019050919050565b6000602082019050818103600083015261317c81613140565b9050919050565b7f53747564656e7420616c72656164792065786973747320696e2070656e64696e60008201527f67206c6973740000000000000000000000000000000000000000000000000000602082015250565b60006131df602683612973565b91506131ea82613183565b604082019050919050565b6000602082019050818103600083015261320e816131d2565b9050919050565b60008160601b9050919050565b600061322d82613215565b9050919050565b600061323f82613222565b9050919050565b613257613252826126f9565b613234565b82525050565b600081905092915050565b600061327382612968565b61327d818561325d565b935061328d818560208601612984565b80840191505092915050565b60006132a58285613246565b6014820191506132b58284613268565b91508190509392505050565b7f596f7520617265206e6f7420417574686f72697a656421000000000000000000600082015250565b60006132f7601783612973565b9150613302826132c1565b602082019050919050565b60006020820190508181036000830152613326816132ea565b9050919050565b7f4e6f74207468652053747564656e74277320496e737469747574650000000000600082015250565b6000613363601b83612973565b915061336e8261332d565b602082019050919050565b6000602082019050818103600083015261339281613356565b9050919050565b7f4e6f742074686520537475656e74277320496e73746974757465000000000000600082015250565b60006133cf601a83612973565b91506133da82613399565b602082019050919050565b600060208201905081810360008301526133fe816133c2565b9050919050565b600060608201905061341a600083018661269b565b6134276020830185612b88565b61343460408301846129f0565b949350505050565b7f4661696c656420746f2061646420696e7374697475746520746f20737475646560008201527f6e7420696e666f00000000000000000000000000000000000000000000000000602082015250565b6000613498602783612973565b91506134a38261343c565b604082019050919050565b600060208201905081810360008301526134c78161348b565b9050919050565b60006040820190506134e3600083018561269b565b6134f06020830184612b88565b9392505050565b7f4661696c656420746f2072656d6f766520696e737469747574652066726f6d2060008201527f73747564656e7420696e666f0000000000000000000000000000000000000000602082015250565b6000613553602c83612973565b915061355e826134f7565b604082019050919050565b6000602082019050818103600083015261358281613546565b905091905056fea2646970667358221220c473bff754b5d99df38e7e3337277110734db601ea316cb7c80f77548c6c9e5364736f6c634300080a0033",
      "opcodes": "PUSH1 0x80 PUSH1 0x40 MSTORE PUSH1 0x0 PUSH1 0x4 SSTORE CALLVALUE DUP1 ISZERO PUSH3 0x16 JUMPI PUSH1 0x0 DUP1 REVERT JUMPDEST POP PUSH1 0x40 MLOAD PUSH3 0x37C7 CODESIZE SUB DUP1 PUSH3 0x37C7 DUP4 CODECOPY DUP2 DUP2 ADD PUSH1 0x40 MSTORE DUP2 ADD SWAP1 PUSH3 0x3C SWAP2 SWAP1 PUSH3 0x1B1 JUMP JUMPDEST CALLER PUSH1 0x0 DUP1 PUSH2 0x100 EXP DUP2 SLOAD DUP2 PUSH20 0xFFFFFFFFFFFFFFFFFFFFFFFFFFFFFFFFFFFFFFFF MUL NOT AND SWAP1 DUP4 PUSH20 0xFFFFFFFFFFFFFFFFFFFFFFFFFFFFFFFFFFFFFFFF AND MUL OR SWAP1 SSTORE POP DUP2 PUSH1 0x3 PUSH1 0x0 PUSH2 0x100 EXP DUP2 SLOAD DUP2 PUSH20 0xFFFFFFFFFFFFFFFFFFFFFFFFFFFFFFFFFFFFFFFF MUL NOT AND SWAP1 DUP4 PUSH20 0xFFFFFFFFFFFFFFFFFFFFFFFFFFFFFFFFFFFFFFFF AND MUL OR SWAP1 SSTORE POP DUP2 PUSH1 0x1 PUSH1 0x0 PUSH2 0x100 EXP DUP2 SLOAD DUP2 PUSH20 0xFFFFFFFFFFFFFFFFFFFFFFFFFFFFFFFFFFFFFFFF MUL NOT AND SWAP1 DUP4 PUSH20 0xFFFFFFFFFFFFFFFFFFFFFFFFFFFFFFFFFFFFFFFF AND MUL OR SWAP1 SSTORE POP DUP1 PUSH1 0x2 PUSH1 0x0 PUSH2 0x100 EXP DUP2 SLOAD DUP2 PUSH20 0xFFFFFFFFFFFFFFFFFFFFFFFFFFFFFFFFFFFFFFFF MUL NOT AND SWAP1 DUP4 PUSH20 0xFFFFFFFFFFFFFFFFFFFFFFFFFFFFFFFFFFFFFFFF AND MUL OR SWAP1 SSTORE POP POP POP PUSH3 0x1F8 JUMP JUMPDEST PUSH1 0x0 DUP1 REVERT JUMPDEST PUSH1 0x0 PUSH20 0xFFFFFFFFFFFFFFFFFFFFFFFFFFFFFFFFFFFFFFFF DUP3 AND SWAP1 POP SWAP2 SWAP1 POP JUMP JUMPDEST PUSH1 0x0 PUSH3 0x179 DUP3 PUSH3 0x14C JUMP JUMPDEST SWAP1 POP SWAP2 SWAP1 POP JUMP JUMPDEST PUSH3 0x18B DUP2 PUSH3 0x16C JUMP JUMPDEST DUP2 EQ PUSH3 0x197 JUMPI PUSH1 0x0 DUP1 REVERT JUMPDEST POP JUMP JUMPDEST PUSH1 0x0 DUP2 MLOAD SWAP1 POP PUSH3 0x1AB DUP2 PUSH3 0x180 JUMP JUMPDEST SWAP3 SWAP2 POP POP JUMP JUMPDEST PUSH1 0x0 DUP1 PUSH1 0x40 DUP4 DUP6 SUB SLT ISZERO PUSH3 0x1CB JUMPI PUSH3 0x1CA PUSH3 0x147 JUMP JUMPDEST JUMPDEST PUSH1 0x0 PUSH3 0x1DB DUP6 DUP3 DUP7 ADD PUSH3 0x19A JUMP JUMPDEST SWAP3 POP POP PUSH1 0x20 PUSH3 0x1EE DUP6 DUP3 DUP7 ADD PUSH3 0x19A JUMP JUMPDEST SWAP2 POP POP SWAP3 POP SWAP3 SWAP1 POP JUMP JUMPDEST PUSH2 0x35BF DUP1 PUSH3 0x208 PUSH1 0x0 CODECOPY PUSH1 0x0 RETURN INVALID PUSH1 0x80 PUSH1 0x40 MSTORE CALLVALUE DUP1 ISZERO PUSH2 0x10 JUMPI PUSH1 0x0 DUP1 REVERT JUMPDEST POP PUSH1 0x4 CALLDATASIZE LT PUSH2 0x14D JUMPI PUSH1 0x0 CALLDATALOAD PUSH1 0xE0 SHR DUP1 PUSH4 0xA4156AEC GT PUSH2 0xC3 JUMPI DUP1 PUSH4 0xBD6A8504 GT PUSH2 0x7C JUMPI DUP1 PUSH4 0xBD6A8504 EQ PUSH2 0x3D6 JUMPI DUP1 PUSH4 0xC865D881 EQ PUSH2 0x40A JUMPI DUP1 PUSH4 0xCA90543D EQ PUSH2 0x428 JUMPI DUP1 PUSH4 0xDA085B7A EQ PUSH2 0x458 JUMPI DUP1 PUSH4 0xF00C848D EQ PUSH2 0x474 JUMPI DUP1 PUSH4 0xF20BCF9A EQ PUSH2 0x490 JUMPI PUSH2 0x14D JUMP JUMPDEST DUP1 PUSH4 0xA4156AEC EQ PUSH2 0x2FC JUMPI DUP1 PUSH4 0xB16F9023 EQ PUSH2 0x330 JUMPI DUP1 PUSH4 0xB1BE843D EQ PUSH2 0x34C JUMPI DUP1 PUSH4 0xB7774C1A EQ PUSH2 0x36A JUMPI DUP1 PUSH4 0xB91FA419 EQ PUSH2 0x388 JUMPI DUP1 PUSH4 0xBAE0A585 EQ PUSH2 0x3B8 JUMPI PUSH2 0x14D JUMP JUMPDEST DUP1 PUSH4 0x673A1746 GT PUSH2 0x115 JUMPI DUP1 PUSH4 0x673A1746 EQ PUSH2 0x226 JUMPI DUP1 PUSH4 0x78CFE85E EQ PUSH2 0x244 JUMPI DUP1 PUSH4 0x82F7D392 EQ PUSH2 0x260 JUMPI DUP1 PUSH4 0x8A97503D EQ PUSH2 0x290 JUMPI DUP1 PUSH4 0x911018EF EQ PUSH2 0x2C0 JUMPI DUP1 PUSH4 0xA2A1FEE5 EQ PUSH2 0x2DE JUMPI PUSH2 0x14D JUMP JUMPDEST DUP1 PUSH4 0x20B260E3 EQ PUSH2 0x152 JUMPI DUP1 PUSH4 0x217FA765 EQ PUSH2 0x170 JUMPI DUP1 PUSH4 0x2ECCA5FE EQ PUSH2 0x1A0 JUMPI DUP1 PUSH4 0x548D434E EQ PUSH2 0x1BE JUMPI DUP1 PUSH4 0x5B969A04 EQ PUSH2 0x1F2 JUMPI JUMPDEST PUSH1 0x0 DUP1 REVERT JUMPDEST PUSH2 0x15A PUSH2 0x4AC JUMP JUMPDEST PUSH1 0x40 MLOAD PUSH2 0x167 SWAP2 SWAP1 PUSH2 0x26AA JUMP JUMPDEST PUSH1 0x40 MLOAD DUP1 SWAP2 SUB SWAP1 RETURN JUMPDEST PUSH2 0x18A PUSH1 0x4 DUP1 CALLDATASIZE SUB DUP2 ADD SWAP1 PUSH2 0x185 SWAP2 SWAP1 PUSH2 0x287D JUMP JUMPDEST PUSH2 0x4B9 JUMP JUMPDEST PUSH1 0x40 MLOAD PUSH2 0x197 SWAP2 SWAP1 PUSH2 0x28F4 JUMP JUMPDEST PUSH1 0x40 MLOAD DUP1 SWAP2 SUB SWAP1 RETURN JUMPDEST PUSH2 0x1A8 PUSH2 0x63E JUMP JUMPDEST PUSH1 0x40 MLOAD PUSH2 0x1B5 SWAP2 SWAP1 PUSH2 0x28F4 JUMP JUMPDEST PUSH1 0x40 MLOAD DUP1 SWAP2 SUB SWAP1 RETURN JUMPDEST PUSH2 0x1D8 PUSH1 0x4 DUP1 CALLDATASIZE SUB DUP2 ADD SWAP1 PUSH2 0x1D3 SWAP2 SWAP1 PUSH2 0x293B JUMP JUMPDEST PUSH2 0x710 JUMP JUMPDEST PUSH1 0x40 MLOAD PUSH2 0x1E9 SWAP6 SWAP5 SWAP4 SWAP3 SWAP2 SWAP1 PUSH2 0x29FF JUMP JUMPDEST PUSH1 0x40 MLOAD DUP1 SWAP2 SUB SWAP1 RETURN JUMPDEST PUSH2 0x20C PUSH1 0x4 DUP1 CALLDATASIZE SUB DUP2 ADD SWAP1 PUSH2 0x207 SWAP2 SWAP1 PUSH2 0x293B JUMP JUMPDEST PUSH2 0x92E JUMP JUMPDEST PUSH1 0x40 MLOAD PUSH2 0x21D SWAP6 SWAP5 SWAP4 SWAP3 SWAP2 SWAP1 PUSH2 0x29FF JUMP JUMPDEST PUSH1 0x40 MLOAD DUP1 SWAP2 SUB SWAP1 RETURN JUMPDEST PUSH2 0x22E PUSH2 0xC3E JUMP JUMPDEST PUSH1 0x40 MLOAD PUSH2 0x23B SWAP2 SWAP1 PUSH2 0x2A67 JUMP JUMPDEST PUSH1 0x40 MLOAD DUP1 SWAP2 SUB SWAP1 RETURN JUMPDEST PUSH2 0x25E PUSH1 0x4 DUP1 CALLDATASIZE SUB DUP2 ADD SWAP1 PUSH2 0x259 SWAP2 SWAP1 PUSH2 0x2A82 JUMP JUMPDEST PUSH2 0xC62 JUMP JUMPDEST STOP JUMPDEST PUSH2 0x27A PUSH1 0x4 DUP1 CALLDATASIZE SUB DUP2 ADD SWAP1 PUSH2 0x275 SWAP2 SWAP1 PUSH2 0x2B51 JUMP JUMPDEST PUSH2 0xF34 JUMP JUMPDEST PUSH1 0x40 MLOAD PUSH2 0x287 SWAP2 SWAP1 PUSH2 0x28F4 JUMP JUMPDEST PUSH1 0x40 MLOAD DUP1 SWAP2 SUB SWAP1 RETURN JUMPDEST PUSH2 0x2AA PUSH1 0x4 DUP1 CALLDATASIZE SUB DUP2 ADD SWAP1 PUSH2 0x2A5 SWAP2 SWAP1 PUSH2 0x287D JUMP JUMPDEST PUSH2 0xFCC JUMP JUMPDEST PUSH1 0x40 MLOAD PUSH2 0x2B7 SWAP2 SWAP1 PUSH2 0x2B97 JUMP JUMPDEST PUSH1 0x40 MLOAD DUP1 SWAP2 SUB SWAP1 RETURN JUMPDEST PUSH2 0x2C8 PUSH2 0xFFF JUMP JUMPDEST PUSH1 0x40 MLOAD PUSH2 0x2D5 SWAP2 SWAP1 PUSH2 0x26AA JUMP JUMPDEST PUSH1 0x40 MLOAD DUP1 SWAP2 SUB SWAP1 RETURN JUMPDEST PUSH2 0x2E6 PUSH2 0x1005 JUMP JUMPDEST PUSH1 0x40 MLOAD PUSH2 0x2F3 SWAP2 SWAP1 PUSH2 0x26AA JUMP JUMPDEST PUSH1 0x40 MLOAD DUP1 SWAP2 SUB SWAP1 RETURN JUMPDEST PUSH2 0x316 PUSH1 0x4 DUP1 CALLDATASIZE SUB DUP2 ADD SWAP1 PUSH2 0x311 SWAP2 SWAP1 PUSH2 0x293B JUMP JUMPDEST PUSH2 0x1012 JUMP JUMPDEST PUSH1 0x40 MLOAD PUSH2 0x327 SWAP6 SWAP5 SWAP4 SWAP3 SWAP2 SWAP1 PUSH2 0x29FF JUMP JUMPDEST PUSH1 0x40 MLOAD DUP1 SWAP2 SUB SWAP1 RETURN JUMPDEST PUSH2 0x34A PUSH1 0x4 DUP1 CALLDATASIZE SUB DUP2 ADD SWAP1 PUSH2 0x345 SWAP2 SWAP1 PUSH2 0x2BB2 JUMP JUMPDEST PUSH2 0x1322 JUMP JUMPDEST STOP JUMPDEST PUSH2 0x354 PUSH2 0x17D0 JUMP JUMPDEST PUSH1 0x40 MLOAD PUSH2 0x361 SWAP2 SWAP1 PUSH2 0x26AA JUMP JUMPDEST PUSH1 0x40 MLOAD DUP1 SWAP2 SUB SWAP1 RETURN JUMPDEST PUSH2 0x372 PUSH2 0x17DD JUMP JUMPDEST PUSH1 0x40 MLOAD PUSH2 0x37F SWAP2 SWAP1 PUSH2 0x2A67 JUMP JUMPDEST PUSH1 0x40 MLOAD DUP1 SWAP2 SUB SWAP1 RETURN JUMPDEST PUSH2 0x3A2 PUSH1 0x4 DUP1 CALLDATASIZE SUB DUP2 ADD SWAP1 PUSH2 0x39D SWAP2 SWAP1 PUSH2 0x287D JUMP JUMPDEST PUSH2 0x1803 JUMP JUMPDEST PUSH1 0x40 MLOAD PUSH2 0x3AF SWAP2 SWAP1 PUSH2 0x28F4 JUMP JUMPDEST PUSH1 0x40 MLOAD DUP1 SWAP2 SUB SWAP1 RETURN JUMPDEST PUSH2 0x3C0 PUSH2 0x199C JUMP JUMPDEST PUSH1 0x40 MLOAD PUSH2 0x3CD SWAP2 SWAP1 PUSH2 0x2CF2 JUMP JUMPDEST PUSH1 0x40 MLOAD DUP1 SWAP2 SUB SWAP1 RETURN JUMPDEST PUSH2 0x3F0 PUSH1 0x4 DUP1 CALLDATASIZE SUB DUP2 ADD SWAP1 PUSH2 0x3EB SWAP2 SWAP1 PUSH2 0x293B JUMP JUMPDEST PUSH2 0x19C2 JUMP JUMPDEST PUSH1 0x40 MLOAD PUSH2 0x401 SWAP6 SWAP5 SWAP4 SWAP3 SWAP2 SWAP1 PUSH2 0x29FF JUMP JUMPDEST PUSH1 0x40 MLOAD DUP1 SWAP2 SUB SWAP1 RETURN JUMPDEST PUSH2 0x412 PUSH2 0x1BE0 JUMP JUMPDEST PUSH1 0x40 MLOAD PUSH2 0x41F SWAP2 SWAP1 PUSH2 0x2D2E JUMP JUMPDEST PUSH1 0x40 MLOAD DUP1 SWAP2 SUB SWAP1 RETURN JUMPDEST PUSH2 0x442 PUSH1 0x4 DUP1 CALLDATASIZE SUB DUP2 ADD SWAP1 PUSH2 0x43D SWAP2 SWAP1 PUSH2 0x2B51 JUMP JUMPDEST PUSH2 0x1C06 JUMP JUMPDEST PUSH1 0x40 MLOAD PUSH2 0x44F SWAP2 SWAP1 PUSH2 0x2A67 JUMP JUMPDEST PUSH1 0x40 MLOAD DUP1 SWAP2 SUB SWAP1 RETURN JUMPDEST PUSH2 0x472 PUSH1 0x4 DUP1 CALLDATASIZE SUB DUP2 ADD SWAP1 PUSH2 0x46D SWAP2 SWAP1 PUSH2 0x293B JUMP JUMPDEST PUSH2 0x1C6F JUMP JUMPDEST STOP JUMPDEST PUSH2 0x48E PUSH1 0x4 DUP1 CALLDATASIZE SUB DUP2 ADD SWAP1 PUSH2 0x489 SWAP2 SWAP1 PUSH2 0x293B JUMP JUMPDEST PUSH2 0x1F27 JUMP JUMPDEST STOP JUMPDEST PUSH2 0x4AA PUSH1 0x4 DUP1 CALLDATASIZE SUB DUP2 ADD SWAP1 PUSH2 0x4A5 SWAP2 SWAP1 PUSH2 0x2D49 JUMP JUMPDEST PUSH2 0x22EA JUMP JUMPDEST STOP JUMPDEST PUSH1 0x0 PUSH1 0x8 DUP1 SLOAD SWAP1 POP SWAP1 POP SWAP1 JUMP JUMPDEST PUSH1 0x0 DUP1 PUSH1 0x1 PUSH1 0x0 SWAP1 SLOAD SWAP1 PUSH2 0x100 EXP SWAP1 DIV PUSH20 0xFFFFFFFFFFFFFFFFFFFFFFFFFFFFFFFFFFFFFFFF AND PUSH20 0xFFFFFFFFFFFFFFFFFFFFFFFFFFFFFFFFFFFFFFFF AND PUSH4 0x8A97503D DUP6 DUP6 PUSH1 0x40 MLOAD DUP4 PUSH4 0xFFFFFFFF AND PUSH1 0xE0 SHL DUP2 MSTORE PUSH1 0x4 ADD PUSH2 0x519 SWAP3 SWAP2 SWAP1 PUSH2 0x2DB8 JUMP JUMPDEST PUSH1 0x20 PUSH1 0x40 MLOAD DUP1 DUP4 SUB DUP2 DUP7 GAS STATICCALL ISZERO DUP1 ISZERO PUSH2 0x536 JUMPI RETURNDATASIZE PUSH1 0x0 DUP1 RETURNDATACOPY RETURNDATASIZE PUSH1 0x0 REVERT JUMPDEST POP POP POP POP PUSH1 0x40 MLOAD RETURNDATASIZE PUSH1 0x1F NOT PUSH1 0x1F DUP3 ADD AND DUP3 ADD DUP1 PUSH1 0x40 MSTORE POP DUP2 ADD SWAP1 PUSH2 0x55A SWAP2 SWAP1 PUSH2 0x2E14 JUMP JUMPDEST SWAP1 POP PUSH1 0x0 PUSH1 0x1 PUSH1 0x0 SWAP1 SLOAD SWAP1 PUSH2 0x100 EXP SWAP1 DIV PUSH20 0xFFFFFFFFFFFFFFFFFFFFFFFFFFFFFFFFFFFFFFFF AND PUSH20 0xFFFFFFFFFFFFFFFFFFFFFFFFFFFFFFFFFFFFFFFF AND PUSH4 0x435DF20D DUP4 PUSH1 0x40 MLOAD DUP3 PUSH4 0xFFFFFFFF AND PUSH1 0xE0 SHL DUP2 MSTORE PUSH1 0x4 ADD PUSH2 0x5B9 SWAP2 SWAP1 PUSH2 0x2B97 JUMP JUMPDEST PUSH1 0x0 PUSH1 0x40 MLOAD DUP1 DUP4 SUB DUP2 DUP7 GAS STATICCALL ISZERO DUP1 ISZERO PUSH2 0x5D6 JUMPI RETURNDATASIZE PUSH1 0x0 DUP1 RETURNDATACOPY RETURNDATASIZE PUSH1 0x0 REVERT JUMPDEST POP POP POP POP PUSH1 0x40 MLOAD RETURNDATASIZE PUSH1 0x0 DUP3 RETURNDATACOPY RETURNDATASIZE PUSH1 0x1F NOT PUSH1 0x1F DUP3 ADD AND DUP3 ADD DUP1 PUSH1 0x40 MSTORE POP DUP2 ADD SWAP1 PUSH2 0x5FF SWAP2 SWAP1 PUSH2 0x2EC6 JUMP JUMPDEST SWAP5 POP POP POP POP POP DUP1 PUSH20 0xFFFFFFFFFFFFFFFFFFFFFFFFFFFFFFFFFFFFFFFF AND CALLER PUSH20 0xFFFFFFFFFFFFFFFFFFFFFFFFFFFFFFFFFFFFFFFF AND EQ SWAP3 POP POP POP SWAP3 SWAP2 POP POP JUMP JUMPDEST PUSH1 0x0 DUP1 PUSH20 0xFFFFFFFFFFFFFFFFFFFFFFFFFFFFFFFFFFFFFFFF AND PUSH1 0x2 PUSH1 0x0 SWAP1 SLOAD SWAP1 PUSH2 0x100 EXP SWAP1 DIV PUSH20 0xFFFFFFFFFFFFFFFFFFFFFFFFFFFFFFFFFFFFFFFF AND PUSH20 0xFFFFFFFFFFFFFFFFFFFFFFFFFFFFFFFFFFFFFFFF AND PUSH4 0x839F602D CALLER PUSH1 0x40 MLOAD DUP3 PUSH4 0xFFFFFFFF AND PUSH1 0xE0 SHL DUP2 MSTORE PUSH1 0x4 ADD PUSH2 0x6B2 SWAP2 SWAP1 PUSH2 0x2A67 JUMP JUMPDEST PUSH1 0x20 PUSH1 0x40 MLOAD DUP1 DUP4 SUB DUP2 DUP7 GAS STATICCALL ISZERO DUP1 ISZERO PUSH2 0x6CF JUMPI RETURNDATASIZE PUSH1 0x0 DUP1 RETURNDATACOPY RETURNDATASIZE PUSH1 0x0 REVERT JUMPDEST POP POP POP POP PUSH1 0x40 MLOAD RETURNDATASIZE PUSH1 0x1F NOT PUSH1 0x1F DUP3 ADD AND DUP3 ADD DUP1 PUSH1 0x40 MSTORE POP DUP2 ADD SWAP1 PUSH2 0x6F3 SWAP2 SWAP1 PUSH2 0x2F95 JUMP JUMPDEST PUSH20 0xFFFFFFFFFFFFFFFFFFFFFFFFFFFFFFFFFFFFFFFF AND EQ ISZERO SWAP1 POP SWAP1 JUMP JUMPDEST PUSH1 0x6 DUP2 DUP2 SLOAD DUP2 LT PUSH2 0x720 JUMPI PUSH1 0x0 DUP1 REVERT JUMPDEST SWAP1 PUSH1 0x0 MSTORE PUSH1 0x20 PUSH1 0x0 KECCAK256 SWAP1 PUSH1 0x5 MUL ADD PUSH1 0x0 SWAP2 POP SWAP1 POP DUP1 PUSH1 0x0 ADD DUP1 SLOAD PUSH2 0x743 SWAP1 PUSH2 0x2FF1 JUMP JUMPDEST DUP1 PUSH1 0x1F ADD PUSH1 0x20 DUP1 SWAP2 DIV MUL PUSH1 0x20 ADD PUSH1 0x40 MLOAD SWAP1 DUP2 ADD PUSH1 0x40 MSTORE DUP1 SWAP3 SWAP2 SWAP1 DUP2 DUP2 MSTORE PUSH1 0x20 ADD DUP3 DUP1 SLOAD PUSH2 0x76F SWAP1 PUSH2 0x2FF1 JUMP JUMPDEST DUP1 ISZERO PUSH2 0x7BC JUMPI DUP1 PUSH1 0x1F LT PUSH2 0x791 JUMPI PUSH2 0x100 DUP1 DUP4 SLOAD DIV MUL DUP4 MSTORE SWAP2 PUSH1 0x20 ADD SWAP2 PUSH2 0x7BC JUMP JUMPDEST DUP3 ADD SWAP2 SWAP1 PUSH1 0x0 MSTORE PUSH1 0x20 PUSH1 0x0 KECCAK256 SWAP1 JUMPDEST DUP2 SLOAD DUP2 MSTORE SWAP1 PUSH1 0x1 ADD SWAP1 PUSH1 0x20 ADD DUP1 DUP4 GT PUSH2 0x79F JUMPI DUP3 SWAP1 SUB PUSH1 0x1F AND DUP3 ADD SWAP2 JUMPDEST POP POP POP POP POP SWAP1 DUP1 PUSH1 0x1 ADD PUSH1 0x0 SWAP1 SLOAD SWAP1 PUSH2 0x100 EXP SWAP1 DIV PUSH20 0xFFFFFFFFFFFFFFFFFFFFFFFFFFFFFFFFFFFFFFFF AND SWAP1 DUP1 PUSH1 0x2 ADD DUP1 SLOAD PUSH2 0x7F7 SWAP1 PUSH2 0x2FF1 JUMP JUMPDEST DUP1 PUSH1 0x1F ADD PUSH1 0x20 DUP1 SWAP2 DIV MUL PUSH1 0x20 ADD PUSH1 0x40 MLOAD SWAP1 DUP2 ADD PUSH1 0x40 MSTORE DUP1 SWAP3 SWAP2 SWAP1 DUP2 DUP2 MSTORE PUSH1 0x20 ADD DUP3 DUP1 SLOAD PUSH2 0x823 SWAP1 PUSH2 0x2FF1 JUMP JUMPDEST DUP1 ISZERO PUSH2 0x870 JUMPI DUP1 PUSH1 0x1F LT PUSH2 0x845 JUMPI PUSH2 0x100 DUP1 DUP4 SLOAD DIV MUL DUP4 MSTORE SWAP2 PUSH1 0x20 ADD SWAP2 PUSH2 0x870 JUMP JUMPDEST DUP3 ADD SWAP2 SWAP1 PUSH1 0x0 MSTORE PUSH1 0x20 PUSH1 0x0 KECCAK256 SWAP1 JUMPDEST DUP2 SLOAD DUP2 MSTORE SWAP1 PUSH1 0x1 ADD SWAP1 PUSH1 0x20 ADD DUP1 DUP4 GT PUSH2 0x853 JUMPI DUP3 SWAP1 SUB PUSH1 0x1F AND DUP3 ADD SWAP2 JUMPDEST POP POP POP POP POP SWAP1 DUP1 PUSH1 0x3 ADD DUP1 SLOAD PUSH2 0x885 SWAP1 PUSH2 0x2FF1 JUMP JUMPDEST DUP1 PUSH1 0x1F ADD PUSH1 0x20 DUP1 SWAP2 DIV MUL PUSH1 0x20 ADD PUSH1 0x40 MLOAD SWAP1 DUP2 ADD PUSH1 0x40 MSTORE DUP1 SWAP3 SWAP2 SWAP1 DUP2 DUP2 MSTORE PUSH1 0x20 ADD DUP3 DUP1 SLOAD PUSH2 0x8B1 SWAP1 PUSH2 0x2FF1 JUMP JUMPDEST DUP1 ISZERO PUSH2 0x8FE JUMPI DUP1 PUSH1 0x1F LT PUSH2 0x8D3 JUMPI PUSH2 0x100 DUP1 DUP4 SLOAD DIV MUL DUP4 MSTORE SWAP2 PUSH1 0x20 ADD SWAP2 PUSH2 0x8FE JUMP JUMPDEST DUP3 ADD SWAP2 SWAP1 PUSH1 0x0 MSTORE PUSH1 0x20 PUSH1 0x0 KECCAK256 SWAP1 JUMPDEST DUP2 SLOAD DUP2 MSTORE SWAP1 PUSH1 0x1 ADD SWAP1 PUSH1 0x20 ADD DUP1 DUP4 GT PUSH2 0x8E1 JUMPI DUP3 SWAP1 SUB PUSH1 0x1F AND DUP3 ADD SWAP2 JUMPDEST POP POP POP POP POP SWAP1 DUP1 PUSH1 0x4 ADD PUSH1 0x0 SWAP1 SLOAD SWAP1 PUSH2 0x100 EXP SWAP1 DIV PUSH20 0xFFFFFFFFFFFFFFFFFFFFFFFFFFFFFFFFFFFFFFFF AND SWAP1 POP DUP6 JUMP JUMPDEST PUSH1 0x60 PUSH1 0x0 PUSH1 0x60 DUP1 PUSH1 0x0 PUSH1 0x5 DUP1 SLOAD SWAP1 POP DUP7 LT PUSH2 0x97E JUMPI PUSH1 0x40 MLOAD PUSH32 0x8C379A000000000000000000000000000000000000000000000000000000000 DUP2 MSTORE PUSH1 0x4 ADD PUSH2 0x975 SWAP1 PUSH2 0x306F JUMP JUMPDEST PUSH1 0x40 MLOAD DUP1 SWAP2 SUB SWAP1 REVERT JUMPDEST PUSH1 0x0 PUSH1 0x5 DUP8 DUP2 SLOAD DUP2 LT PUSH2 0x994 JUMPI PUSH2 0x993 PUSH2 0x308F JUMP JUMPDEST JUMPDEST SWAP1 PUSH1 0x0 MSTORE PUSH1 0x20 PUSH1 0x0 KECCAK256 SWAP1 PUSH1 0x5 MUL ADD PUSH1 0x40 MLOAD DUP1 PUSH1 0xA0 ADD PUSH1 0x40 MSTORE SWAP1 DUP2 PUSH1 0x0 DUP3 ADD DUP1 SLOAD PUSH2 0x9BD SWAP1 PUSH2 0x2FF1 JUMP JUMPDEST DUP1 PUSH1 0x1F ADD PUSH1 0x20 DUP1 SWAP2 DIV MUL PUSH1 0x20 ADD PUSH1 0x40 MLOAD SWAP1 DUP2 ADD PUSH1 0x40 MSTORE DUP1 SWAP3 SWAP2 SWAP1 DUP2 DUP2 MSTORE PUSH1 0x20 ADD DUP3 DUP1 SLOAD PUSH2 0x9E9 SWAP1 PUSH2 0x2FF1 JUMP JUMPDEST DUP1 ISZERO PUSH2 0xA36 JUMPI DUP1 PUSH1 0x1F LT PUSH2 0xA0B JUMPI PUSH2 0x100 DUP1 DUP4 SLOAD DIV MUL DUP4 MSTORE SWAP2 PUSH1 0x20 ADD SWAP2 PUSH2 0xA36 JUMP JUMPDEST DUP3 ADD SWAP2 SWAP1 PUSH1 0x0 MSTORE PUSH1 0x20 PUSH1 0x0 KECCAK256 SWAP1 JUMPDEST DUP2 SLOAD DUP2 MSTORE SWAP1 PUSH1 0x1 ADD SWAP1 PUSH1 0x20 ADD DUP1 DUP4 GT PUSH2 0xA19 JUMPI DUP3 SWAP1 SUB PUSH1 0x1F AND DUP3 ADD SWAP2 JUMPDEST POP POP POP POP POP DUP2 MSTORE PUSH1 0x20 ADD PUSH1 0x1 DUP3 ADD PUSH1 0x0 SWAP1 SLOAD SWAP1 PUSH2 0x100 EXP SWAP1 DIV PUSH20 0xFFFFFFFFFFFFFFFFFFFFFFFFFFFFFFFFFFFFFFFF AND PUSH20 0xFFFFFFFFFFFFFFFFFFFFFFFFFFFFFFFFFFFFFFFF AND PUSH20 0xFFFFFFFFFFFFFFFFFFFFFFFFFFFFFFFFFFFFFFFF AND DUP2 MSTORE PUSH1 0x20 ADD PUSH1 0x2 DUP3 ADD DUP1 SLOAD PUSH2 0xAA5 SWAP1 PUSH2 0x2FF1 JUMP JUMPDEST DUP1 PUSH1 0x1F ADD PUSH1 0x20 DUP1 SWAP2 DIV MUL PUSH1 0x20 ADD PUSH1 0x40 MLOAD SWAP1 DUP2 ADD PUSH1 0x40 MSTORE DUP1 SWAP3 SWAP2 SWAP1 DUP2 DUP2 MSTORE PUSH1 0x20 ADD DUP3 DUP1 SLOAD PUSH2 0xAD1 SWAP1 PUSH2 0x2FF1 JUMP JUMPDEST DUP1 ISZERO PUSH2 0xB1E JUMPI DUP1 PUSH1 0x1F LT PUSH2 0xAF3 JUMPI PUSH2 0x100 DUP1 DUP4 SLOAD DIV MUL DUP4 MSTORE SWAP2 PUSH1 0x20 ADD SWAP2 PUSH2 0xB1E JUMP JUMPDEST DUP3 ADD SWAP2 SWAP1 PUSH1 0x0 MSTORE PUSH1 0x20 PUSH1 0x0 KECCAK256 SWAP1 JUMPDEST DUP2 SLOAD DUP2 MSTORE SWAP1 PUSH1 0x1 ADD SWAP1 PUSH1 0x20 ADD DUP1 DUP4 GT PUSH2 0xB01 JUMPI DUP3 SWAP1 SUB PUSH1 0x1F AND DUP3 ADD SWAP2 JUMPDEST POP POP POP POP POP DUP2 MSTORE PUSH1 0x20 ADD PUSH1 0x3 DUP3 ADD DUP1 SLOAD PUSH2 0xB37 SWAP1 PUSH2 0x2FF1 JUMP JUMPDEST DUP1 PUSH1 0x1F ADD PUSH1 0x20 DUP1 SWAP2 DIV MUL PUSH1 0x20 ADD PUSH1 0x40 MLOAD SWAP1 DUP2 ADD PUSH1 0x40 MSTORE DUP1 SWAP3 SWAP2 SWAP1 DUP2 DUP2 MSTORE PUSH1 0x20 ADD DUP3 DUP1 SLOAD PUSH2 0xB63 SWAP1 PUSH2 0x2FF1 JUMP JUMPDEST DUP1 ISZERO PUSH2 0xBB0 JUMPI DUP1 PUSH1 0x1F LT PUSH2 0xB85 JUMPI PUSH2 0x100 DUP1 DUP4 SLOAD DIV MUL DUP4 MSTORE SWAP2 PUSH1 0x20 ADD SWAP2 PUSH2 0xBB0 JUMP JUMPDEST DUP3 ADD SWAP2 SWAP1 PUSH1 0x0 MSTORE PUSH1 0x20 PUSH1 0x0 KECCAK256 SWAP1 JUMPDEST DUP2 SLOAD DUP2 MSTORE SWAP1 PUSH1 0x1 ADD SWAP1 PUSH1 0x20 ADD DUP1 DUP4 GT PUSH2 0xB93 JUMPI DUP3 SWAP1 SUB PUSH1 0x1F AND DUP3 ADD SWAP2 JUMPDEST POP POP POP POP POP DUP2 MSTORE PUSH1 0x20 ADD PUSH1 0x4 DUP3 ADD PUSH1 0x0 SWAP1 SLOAD SWAP1 PUSH2 0x100 EXP SWAP1 DIV PUSH20 0xFFFFFFFFFFFFFFFFFFFFFFFFFFFFFFFFFFFFFFFF AND PUSH20 0xFFFFFFFFFFFFFFFFFFFFFFFFFFFFFFFFFFFFFFFF AND PUSH20 0xFFFFFFFFFFFFFFFFFFFFFFFFFFFFFFFFFFFFFFFF AND DUP2 MSTORE POP POP SWAP1 POP DUP1 PUSH1 0x0 ADD MLOAD DUP2 PUSH1 0x20 ADD MLOAD DUP3 PUSH1 0x40 ADD MLOAD DUP4 PUSH1 0x60 ADD MLOAD DUP5 PUSH1 0x80 ADD MLOAD SWAP6 POP SWAP6 POP SWAP6 POP SWAP6 POP SWAP6 POP POP SWAP2 SWAP4 SWAP6 SWAP1 SWAP3 SWAP5 POP JUMP JUMPDEST PUSH1 0x0 DUP1 SLOAD SWAP1 PUSH2 0x100 EXP SWAP1 DIV PUSH20 0xFFFFFFFFFFFFFFFFFFFFFFFFFFFFFFFFFFFFFFFF AND DUP2 JUMP JUMPDEST PUSH1 0x1 PUSH1 0x0 SWAP1 SLOAD SWAP1 PUSH2 0x100 EXP SWAP1 DIV PUSH20 0xFFFFFFFFFFFFFFFFFFFFFFFFFFFFFFFFFFFFFFFF AND PUSH20 0xFFFFFFFFFFFFFFFFFFFFFFFFFFFFFFFFFFFFFFFF AND PUSH4 0x82F7D392 CALLER PUSH1 0x40 MLOAD DUP3 PUSH4 0xFFFFFFFF AND PUSH1 0xE0 SHL DUP2 MSTORE PUSH1 0x4 ADD PUSH2 0xCBD SWAP2 SWAP1 PUSH2 0x2A67 JUMP JUMPDEST PUSH1 0x20 PUSH1 0x40 MLOAD DUP1 DUP4 SUB DUP2 DUP7 GAS STATICCALL ISZERO DUP1 ISZERO PUSH2 0xCDA JUMPI RETURNDATASIZE PUSH1 0x0 DUP1 RETURNDATACOPY RETURNDATASIZE PUSH1 0x0 REVERT JUMPDEST POP POP POP POP PUSH1 0x40 MLOAD RETURNDATASIZE PUSH1 0x1F NOT PUSH1 0x1F DUP3 ADD AND DUP3 ADD DUP1 PUSH1 0x40 MSTORE POP DUP2 ADD SWAP1 PUSH2 0xCFE SWAP2 SWAP1 PUSH2 0x30EA JUMP JUMPDEST PUSH2 0xD3D JUMPI PUSH1 0x40 MLOAD PUSH32 0x8C379A000000000000000000000000000000000000000000000000000000000 DUP2 MSTORE PUSH1 0x4 ADD PUSH2 0xD34 SWAP1 PUSH2 0x3163 JUMP JUMPDEST PUSH1 0x40 MLOAD DUP1 SWAP2 SUB SWAP1 REVERT JUMPDEST PUSH2 0xD47 DUP5 DUP4 PUSH2 0x1803 JUMP JUMPDEST PUSH2 0xD86 JUMPI PUSH1 0x40 MLOAD PUSH32 0x8C379A000000000000000000000000000000000000000000000000000000000 DUP2 MSTORE PUSH1 0x4 ADD PUSH2 0xD7D SWAP1 PUSH2 0x31F5 JUMP JUMPDEST PUSH1 0x40 MLOAD DUP1 SWAP2 SUB SWAP1 REVERT JUMPDEST PUSH2 0xD8E PUSH2 0x2553 JUMP JUMPDEST DUP6 DUP2 PUSH1 0x0 ADD DUP2 SWAP1 MSTORE POP DUP5 DUP2 PUSH1 0x20 ADD SWAP1 PUSH20 0xFFFFFFFFFFFFFFFFFFFFFFFFFFFFFFFFFFFFFFFF AND SWAP1 DUP2 PUSH20 0xFFFFFFFFFFFFFFFFFFFFFFFFFFFFFFFFFFFFFFFF AND DUP2 MSTORE POP POP DUP4 DUP2 PUSH1 0x40 ADD DUP2 SWAP1 MSTORE POP DUP3 DUP2 PUSH1 0x60 ADD DUP2 SWAP1 MSTORE POP DUP2 DUP2 PUSH1 0x80 ADD SWAP1 PUSH20 0xFFFFFFFFFFFFFFFFFFFFFFFFFFFFFFFFFFFFFFFF AND SWAP1 DUP2 PUSH20 0xFFFFFFFFFFFFFFFFFFFFFFFFFFFFFFFFFFFFFFFF AND DUP2 MSTORE POP POP PUSH1 0x5 DUP2 SWAP1 DUP1 PUSH1 0x1 DUP2 SLOAD ADD DUP1 DUP3 SSTORE DUP1 SWAP2 POP POP PUSH1 0x1 SWAP1 SUB SWAP1 PUSH1 0x0 MSTORE PUSH1 0x20 PUSH1 0x0 KECCAK256 SWAP1 PUSH1 0x5 MUL ADD PUSH1 0x0 SWAP1 SWAP2 SWAP1 SWAP2 SWAP1 SWAP2 POP PUSH1 0x0 DUP3 ADD MLOAD DUP2 PUSH1 0x0 ADD SWAP1 DUP1 MLOAD SWAP1 PUSH1 0x20 ADD SWAP1 PUSH2 0xE61 SWAP3 SWAP2 SWAP1 PUSH2 0x25AE JUMP JUMPDEST POP PUSH1 0x20 DUP3 ADD MLOAD DUP2 PUSH1 0x1 ADD PUSH1 0x0 PUSH2 0x100 EXP DUP2 SLOAD DUP2 PUSH20 0xFFFFFFFFFFFFFFFFFFFFFFFFFFFFFFFFFFFFFFFF MUL NOT AND SWAP1 DUP4 PUSH20 0xFFFFFFFFFFFFFFFFFFFFFFFFFFFFFFFFFFFFFFFF AND MUL OR SWAP1 SSTORE POP PUSH1 0x40 DUP3 ADD MLOAD DUP2 PUSH1 0x2 ADD SWAP1 DUP1 MLOAD SWAP1 PUSH1 0x20 ADD SWAP1 PUSH2 0xEC5 SWAP3 SWAP2 SWAP1 PUSH2 0x25AE JUMP JUMPDEST POP PUSH1 0x60 DUP3 ADD MLOAD DUP2 PUSH1 0x3 ADD SWAP1 DUP1 MLOAD SWAP1 PUSH1 0x20 ADD SWAP1 PUSH2 0xEE2 SWAP3 SWAP2 SWAP1 PUSH2 0x25AE JUMP JUMPDEST POP PUSH1 0x80 DUP3 ADD MLOAD DUP2 PUSH1 0x4 ADD PUSH1 0x0 PUSH2 0x100 EXP DUP2 SLOAD DUP2 PUSH20 0xFFFFFFFFFFFFFFFFFFFFFFFFFFFFFFFFFFFFFFFF MUL NOT AND SWAP1 DUP4 PUSH20 0xFFFFFFFFFFFFFFFFFFFFFFFFFFFFFFFFFFFFFFFF AND MUL OR SWAP1 SSTORE POP POP POP POP POP POP POP POP POP JUMP JUMPDEST PUSH1 0x0 DUP1 PUSH20 0xFFFFFFFFFFFFFFFFFFFFFFFFFFFFFFFFFFFFFFFF AND PUSH1 0x7 PUSH1 0x0 DUP5 PUSH20 0xFFFFFFFFFFFFFFFFFFFFFFFFFFFFFFFFFFFFFFFF AND PUSH20 0xFFFFFFFFFFFFFFFFFFFFFFFFFFFFFFFFFFFFFFFF AND DUP2 MSTORE PUSH1 0x20 ADD SWAP1 DUP2 MSTORE PUSH1 0x20 ADD PUSH1 0x0 KECCAK256 PUSH1 0x0 SWAP1 SLOAD SWAP1 PUSH2 0x100 EXP SWAP1 DIV PUSH20 0xFFFFFFFFFFFFFFFFFFFFFFFFFFFFFFFFFFFFFFFF AND PUSH20 0xFFFFFFFFFFFFFFFFFFFFFFFFFFFFFFFFFFFFFFFF AND EQ ISZERO SWAP1 POP SWAP2 SWAP1 POP JUMP JUMPDEST PUSH1 0x0 DUP3 DUP3 PUSH1 0x40 MLOAD PUSH1 0x20 ADD PUSH2 0xFE1 SWAP3 SWAP2 SWAP1 PUSH2 0x3299 JUMP JUMPDEST PUSH1 0x40 MLOAD PUSH1 0x20 DUP2 DUP4 SUB SUB DUP2 MSTORE SWAP1 PUSH1 0x40 MSTORE DUP1 MLOAD SWAP1 PUSH1 0x20 ADD KECCAK256 SWAP1 POP SWAP3 SWAP2 POP POP JUMP JUMPDEST PUSH1 0x4 SLOAD DUP2 JUMP JUMPDEST PUSH1 0x0 PUSH1 0x6 DUP1 SLOAD SWAP1 POP SWAP1 POP SWAP1 JUMP JUMPDEST PUSH1 0x60 PUSH1 0x0 PUSH1 0x60 DUP1 PUSH1 0x0 PUSH1 0x5 DUP1 SLOAD SWAP1 POP DUP7 LT PUSH2 0x1062 JUMPI PUSH1 0x40 MLOAD PUSH32 0x8C379A000000000000000000000000000000000000000000000000000000000 DUP2 MSTORE PUSH1 0x4 ADD PUSH2 0x1059 SWAP1 PUSH2 0x306F JUMP JUMPDEST PUSH1 0x40 MLOAD DUP1 SWAP2 SUB SWAP1 REVERT JUMPDEST PUSH1 0x0 PUSH1 0x6 DUP8 DUP2 SLOAD DUP2 LT PUSH2 0x1078 JUMPI PUSH2 0x1077 PUSH2 0x308F JUMP JUMPDEST JUMPDEST SWAP1 PUSH1 0x0 MSTORE PUSH1 0x20 PUSH1 0x0 KECCAK256 SWAP1 PUSH1 0x5 MUL ADD PUSH1 0x40 MLOAD DUP1 PUSH1 0xA0 ADD PUSH1 0x40 MSTORE SWAP1 DUP2 PUSH1 0x0 DUP3 ADD DUP1 SLOAD PUSH2 0x10A1 SWAP1 PUSH2 0x2FF1 JUMP JUMPDEST DUP1 PUSH1 0x1F ADD PUSH1 0x20 DUP1 SWAP2 DIV MUL PUSH1 0x20 ADD PUSH1 0x40 MLOAD SWAP1 DUP2 ADD PUSH1 0x40 MSTORE DUP1 SWAP3 SWAP2 SWAP1 DUP2 DUP2 MSTORE PUSH1 0x20 ADD DUP3 DUP1 SLOAD PUSH2 0x10CD SWAP1 PUSH2 0x2FF1 JUMP JUMPDEST DUP1 ISZERO PUSH2 0x111A JUMPI DUP1 PUSH1 0x1F LT PUSH2 0x10EF JUMPI PUSH2 0x100 DUP1 DUP4 SLOAD DIV MUL DUP4 MSTORE SWAP2 PUSH1 0x20 ADD SWAP2 PUSH2 0x111A JUMP JUMPDEST DUP3 ADD SWAP2 SWAP1 PUSH1 0x0 MSTORE PUSH1 0x20 PUSH1 0x0 KECCAK256 SWAP1 JUMPDEST DUP2 SLOAD DUP2 MSTORE SWAP1 PUSH1 0x1 ADD SWAP1 PUSH1 0x20 ADD DUP1 DUP4 GT PUSH2 0x10FD JUMPI DUP3 SWAP1 SUB PUSH1 0x1F AND DUP3 ADD SWAP2 JUMPDEST POP POP POP POP POP DUP2 MSTORE PUSH1 0x20 ADD PUSH1 0x1 DUP3 ADD PUSH1 0x0 SWAP1 SLOAD SWAP1 PUSH2 0x100 EXP SWAP1 DIV PUSH20 0xFFFFFFFFFFFFFFFFFFFFFFFFFFFFFFFFFFFFFFFF AND PUSH20 0xFFFFFFFFFFFFFFFFFFFFFFFFFFFFFFFFFFFFFFFF AND PUSH20 0xFFFFFFFFFFFFFFFFFFFFFFFFFFFFFFFFFFFFFFFF AND DUP2 MSTORE PUSH1 0x20 ADD PUSH1 0x2 DUP3 ADD DUP1 SLOAD PUSH2 0x1189 SWAP1 PUSH2 0x2FF1 JUMP JUMPDEST DUP1 PUSH1 0x1F ADD PUSH1 0x20 DUP1 SWAP2 DIV MUL PUSH1 0x20 ADD PUSH1 0x40 MLOAD SWAP1 DUP2 ADD PUSH1 0x40 MSTORE DUP1 SWAP3 SWAP2 SWAP1 DUP2 DUP2 MSTORE PUSH1 0x20 ADD DUP3 DUP1 SLOAD PUSH2 0x11B5 SWAP1 PUSH2 0x2FF1 JUMP JUMPDEST DUP1 ISZERO PUSH2 0x1202 JUMPI DUP1 PUSH1 0x1F LT PUSH2 0x11D7 JUMPI PUSH2 0x100 DUP1 DUP4 SLOAD DIV MUL DUP4 MSTORE SWAP2 PUSH1 0x20 ADD SWAP2 PUSH2 0x1202 JUMP JUMPDEST DUP3 ADD SWAP2 SWAP1 PUSH1 0x0 MSTORE PUSH1 0x20 PUSH1 0x0 KECCAK256 SWAP1 JUMPDEST DUP2 SLOAD DUP2 MSTORE SWAP1 PUSH1 0x1 ADD SWAP1 PUSH1 0x20 ADD DUP1 DUP4 GT PUSH2 0x11E5 JUMPI DUP3 SWAP1 SUB PUSH1 0x1F AND DUP3 ADD SWAP2 JUMPDEST POP POP POP POP POP DUP2 MSTORE PUSH1 0x20 ADD PUSH1 0x3 DUP3 ADD DUP1 SLOAD PUSH2 0x121B SWAP1 PUSH2 0x2FF1 JUMP JUMPDEST DUP1 PUSH1 0x1F ADD PUSH1 0x20 DUP1 SWAP2 DIV MUL PUSH1 0x20 ADD PUSH1 0x40 MLOAD SWAP1 DUP2 ADD PUSH1 0x40 MSTORE DUP1 SWAP3 SWAP2 SWAP1 DUP2 DUP2 MSTORE PUSH1 0x20 ADD DUP3 DUP1 SLOAD PUSH2 0x1247 SWAP1 PUSH2 0x2FF1 JUMP JUMPDEST DUP1 ISZERO PUSH2 0x1294 JUMPI DUP1 PUSH1 0x1F LT PUSH2 0x1269 JUMPI PUSH2 0x100 DUP1 DUP4 SLOAD DIV MUL DUP4 MSTORE SWAP2 PUSH1 0x20 ADD SWAP2 PUSH2 0x1294 JUMP JUMPDEST DUP3 ADD SWAP2 SWAP1 PUSH1 0x0 MSTORE PUSH1 0x20 PUSH1 0x0 KECCAK256 SWAP1 JUMPDEST DUP2 SLOAD DUP2 MSTORE SWAP1 PUSH1 0x1 ADD SWAP1 PUSH1 0x20 ADD DUP1 DUP4 GT PUSH2 0x1277 JUMPI DUP3 SWAP1 SUB PUSH1 0x1F AND DUP3 ADD SWAP2 JUMPDEST POP POP POP POP POP DUP2 MSTORE PUSH1 0x20 ADD PUSH1 0x4 DUP3 ADD PUSH1 0x0 SWAP1 SLOAD SWAP1 PUSH2 0x100 EXP SWAP1 DIV PUSH20 0xFFFFFFFFFFFFFFFFFFFFFFFFFFFFFFFFFFFFFFFF AND PUSH20 0xFFFFFFFFFFFFFFFFFFFFFFFFFFFFFFFFFFFFFFFF AND PUSH20 0xFFFFFFFFFFFFFFFFFFFFFFFFFFFFFFFFFFFFFFFF AND DUP2 MSTORE POP POP SWAP1 POP DUP1 PUSH1 0x0 ADD MLOAD DUP2 PUSH1 0x20 ADD MLOAD DUP3 PUSH1 0x40 ADD MLOAD DUP4 PUSH1 0x60 ADD MLOAD DUP5 PUSH1 0x80 ADD MLOAD SWAP6 POP SWAP6 POP SWAP6 POP SWAP6 POP SWAP6 POP POP SWAP2 SWAP4 SWAP6 SWAP1 SWAP3 SWAP5 POP JUMP JUMPDEST PUSH1 0x0 PUSH20 0xFFFFFFFFFFFFFFFFFFFFFFFFFFFFFFFFFFFFFFFF AND PUSH1 0x2 PUSH1 0x0 SWAP1 SLOAD SWAP1 PUSH2 0x100 EXP SWAP1 DIV PUSH20 0xFFFFFFFFFFFFFFFFFFFFFFFFFFFFFFFFFFFFFFFF AND PUSH20 0xFFFFFFFFFFFFFFFFFFFFFFFFFFFFFFFFFFFFFFFF AND PUSH4 0x839F602D CALLER PUSH1 0x40 MLOAD DUP3 PUSH4 0xFFFFFFFF AND PUSH1 0xE0 SHL DUP2 MSTORE PUSH1 0x4 ADD PUSH2 0x1395 SWAP2 SWAP1 PUSH2 0x2A67 JUMP JUMPDEST PUSH1 0x20 PUSH1 0x40 MLOAD DUP1 DUP4 SUB DUP2 DUP7 GAS STATICCALL ISZERO DUP1 ISZERO PUSH2 0x13B2 JUMPI RETURNDATASIZE PUSH1 0x0 DUP1 RETURNDATACOPY RETURNDATASIZE PUSH1 0x0 REVERT JUMPDEST POP POP POP POP PUSH1 0x40 MLOAD RETURNDATASIZE PUSH1 0x1F NOT PUSH1 0x1F DUP3 ADD AND DUP3 ADD DUP1 PUSH1 0x40 MSTORE POP DUP2 ADD SWAP1 PUSH2 0x13D6 SWAP2 SWAP1 PUSH2 0x2F95 JUMP JUMPDEST PUSH20 0xFFFFFFFFFFFFFFFFFFFFFFFFFFFFFFFFFFFFFFFF AND EQ ISZERO PUSH2 0x142D JUMPI PUSH1 0x40 MLOAD PUSH32 0x8C379A000000000000000000000000000000000000000000000000000000000 DUP2 MSTORE PUSH1 0x4 ADD PUSH2 0x1424 SWAP1 PUSH2 0x330D JUMP JUMPDEST PUSH1 0x40 MLOAD DUP1 SWAP2 SUB SWAP1 REVERT JUMPDEST PUSH1 0x0 PUSH1 0x1 PUSH1 0x0 SWAP1 SLOAD SWAP1 PUSH2 0x100 EXP SWAP1 DIV PUSH20 0xFFFFFFFFFFFFFFFFFFFFFFFFFFFFFFFFFFFFFFFF AND PUSH20 0xFFFFFFFFFFFFFFFFFFFFFFFFFFFFFFFFFFFFFFFF AND PUSH4 0x8A97503D DUP8 DUP7 PUSH1 0x40 MLOAD DUP4 PUSH4 0xFFFFFFFF AND PUSH1 0xE0 SHL DUP2 MSTORE PUSH1 0x4 ADD PUSH2 0x148C SWAP3 SWAP2 SWAP1 PUSH2 0x2DB8 JUMP JUMPDEST PUSH1 0x20 PUSH1 0x40 MLOAD DUP1 DUP4 SUB DUP2 DUP7 GAS STATICCALL ISZERO DUP1 ISZERO PUSH2 0x14A9 JUMPI RETURNDATASIZE PUSH1 0x0 DUP1 RETURNDATACOPY RETURNDATASIZE PUSH1 0x0 REVERT JUMPDEST POP POP POP POP PUSH1 0x40 MLOAD RETURNDATASIZE PUSH1 0x1F NOT PUSH1 0x1F DUP3 ADD AND DUP3 ADD DUP1 PUSH1 0x40 MSTORE POP DUP2 ADD SWAP1 PUSH2 0x14CD SWAP2 SWAP1 PUSH2 0x2E14 JUMP JUMPDEST SWAP1 POP PUSH1 0x0 PUSH1 0x1 PUSH1 0x0 SWAP1 SLOAD SWAP1 PUSH2 0x100 EXP SWAP1 DIV PUSH20 0xFFFFFFFFFFFFFFFFFFFFFFFFFFFFFFFFFFFFFFFF AND PUSH20 0xFFFFFFFFFFFFFFFFFFFFFFFFFFFFFFFFFFFFFFFF AND PUSH4 0x435DF20D DUP4 PUSH1 0x40 MLOAD DUP3 PUSH4 0xFFFFFFFF AND PUSH1 0xE0 SHL DUP2 MSTORE PUSH1 0x4 ADD PUSH2 0x152C SWAP2 SWAP1 PUSH2 0x2B97 JUMP JUMPDEST PUSH1 0x0 PUSH1 0x40 MLOAD DUP1 DUP4 SUB DUP2 DUP7 GAS STATICCALL ISZERO DUP1 ISZERO PUSH2 0x1549 JUMPI RETURNDATASIZE PUSH1 0x0 DUP1 RETURNDATACOPY RETURNDATASIZE PUSH1 0x0 REVERT JUMPDEST POP POP POP POP PUSH1 0x40 MLOAD RETURNDATASIZE PUSH1 0x0 DUP3 RETURNDATACOPY RETURNDATASIZE PUSH1 0x1F NOT PUSH1 0x1F DUP3 ADD AND DUP3 ADD DUP1 PUSH1 0x40 MSTORE POP DUP2 ADD SWAP1 PUSH2 0x1572 SWAP2 SWAP1 PUSH2 0x2EC6 JUMP JUMPDEST SWAP5 POP POP POP POP POP PUSH1 0x0 PUSH20 0xFFFFFFFFFFFFFFFFFFFFFFFFFFFFFFFFFFFFFFFF AND DUP2 PUSH20 0xFFFFFFFFFFFFFFFFFFFFFFFFFFFFFFFFFFFFFFFF AND EQ ISZERO DUP1 ISZERO PUSH2 0x15E0 JUMPI POP DUP4 PUSH20 0xFFFFFFFFFFFFFFFFFFFFFFFFFFFFFFFFFFFFFFFF AND DUP2 PUSH20 0xFFFFFFFFFFFFFFFFFFFFFFFFFFFFFFFFFFFFFFFF AND EQ JUMPDEST PUSH2 0x161F JUMPI PUSH1 0x40 MLOAD PUSH32 0x8C379A000000000000000000000000000000000000000000000000000000000 DUP2 MSTORE PUSH1 0x4 ADD PUSH2 0x1616 SWAP1 PUSH2 0x3379 JUMP JUMPDEST PUSH1 0x40 MLOAD DUP1 SWAP2 SUB SWAP1 REVERT JUMPDEST PUSH2 0x1627 PUSH2 0x2553 JUMP JUMPDEST DUP9 DUP2 PUSH1 0x0 ADD DUP2 SWAP1 MSTORE POP DUP8 DUP2 PUSH1 0x20 ADD SWAP1 PUSH20 0xFFFFFFFFFFFFFFFFFFFFFFFFFFFFFFFFFFFFFFFF AND SWAP1 DUP2 PUSH20 0xFFFFFFFFFFFFFFFFFFFFFFFFFFFFFFFFFFFFFFFF AND DUP2 MSTORE POP POP DUP7 DUP2 PUSH1 0x40 ADD DUP2 SWAP1 MSTORE POP DUP6 DUP2 PUSH1 0x60 ADD DUP2 SWAP1 MSTORE POP DUP4 DUP2 PUSH1 0x80 ADD SWAP1 PUSH20 0xFFFFFFFFFFFFFFFFFFFFFFFFFFFFFFFFFFFFFFFF AND SWAP1 DUP2 PUSH20 0xFFFFFFFFFFFFFFFFFFFFFFFFFFFFFFFFFFFFFFFF AND DUP2 MSTORE POP POP PUSH1 0x6 DUP2 SWAP1 DUP1 PUSH1 0x1 DUP2 SLOAD ADD DUP1 DUP3 SSTORE DUP1 SWAP2 POP POP PUSH1 0x1 SWAP1 SUB SWAP1 PUSH1 0x0 MSTORE PUSH1 0x20 PUSH1 0x0 KECCAK256 SWAP1 PUSH1 0x5 MUL ADD PUSH1 0x0 SWAP1 SWAP2 SWAP1 SWAP2 SWAP1 SWAP2 POP PUSH1 0x0 DUP3 ADD MLOAD DUP2 PUSH1 0x0 ADD SWAP1 DUP1 MLOAD SWAP1 PUSH1 0x20 ADD SWAP1 PUSH2 0x16FA SWAP3 SWAP2 SWAP1 PUSH2 0x25AE JUMP JUMPDEST POP PUSH1 0x20 DUP3 ADD MLOAD DUP2 PUSH1 0x1 ADD PUSH1 0x0 PUSH2 0x100 EXP DUP2 SLOAD DUP2 PUSH20 0xFFFFFFFFFFFFFFFFFFFFFFFFFFFFFFFFFFFFFFFF MUL NOT AND SWAP1 DUP4 PUSH20 0xFFFFFFFFFFFFFFFFFFFFFFFFFFFFFFFFFFFFFFFF AND MUL OR SWAP1 SSTORE POP PUSH1 0x40 DUP3 ADD MLOAD DUP2 PUSH1 0x2 ADD SWAP1 DUP1 MLOAD SWAP1 PUSH1 0x20 ADD SWAP1 PUSH2 0x175E SWAP3 SWAP2 SWAP1 PUSH2 0x25AE JUMP JUMPDEST POP PUSH1 0x60 DUP3 ADD MLOAD DUP2 PUSH1 0x3 ADD SWAP1 DUP1 MLOAD SWAP1 PUSH1 0x20 ADD SWAP1 PUSH2 0x177B SWAP3 SWAP2 SWAP1 PUSH2 0x25AE JUMP JUMPDEST POP PUSH1 0x80 DUP3 ADD MLOAD DUP2 PUSH1 0x4 ADD PUSH1 0x0 PUSH2 0x100 EXP DUP2 SLOAD DUP2 PUSH20 0xFFFFFFFFFFFFFFFFFFFFFFFFFFFFFFFFFFFFFFFF MUL NOT AND SWAP1 DUP4 PUSH20 0xFFFFFFFFFFFFFFFFFFFFFFFFFFFFFFFFFFFFFFFF AND MUL OR SWAP1 SSTORE POP POP POP POP POP POP POP POP POP POP POP POP JUMP JUMPDEST PUSH1 0x0 PUSH1 0x5 DUP1 SLOAD SWAP1 POP SWAP1 POP SWAP1 JUMP JUMPDEST PUSH1 0x3 PUSH1 0x0 SWAP1 SLOAD SWAP1 PUSH2 0x100 EXP SWAP1 DIV PUSH20 0xFFFFFFFFFFFFFFFFFFFFFFFFFFFFFFFFFFFFFFFF AND DUP2 JUMP JUMPDEST PUSH1 0x0 DUP1 PUSH1 0x1 PUSH1 0x0 SWAP1 SLOAD SWAP1 PUSH2 0x100 EXP SWAP1 DIV PUSH20 0xFFFFFFFFFFFFFFFFFFFFFFFFFFFFFFFFFFFFFFFF AND PUSH20 0xFFFFFFFFFFFFFFFFFFFFFFFFFFFFFFFFFFFFFFFF AND PUSH4 0x8A97503D DUP6 DUP6 PUSH1 0x40 MLOAD DUP4 PUSH4 0xFFFFFFFF AND PUSH1 0xE0 SHL DUP2 MSTORE PUSH1 0x4 ADD PUSH2 0x1863 SWAP3 SWAP2 SWAP1 PUSH2 0x2DB8 JUMP JUMPDEST PUSH1 0x20 PUSH1 0x40 MLOAD DUP1 DUP4 SUB DUP2 DUP7 GAS STATICCALL ISZERO DUP1 ISZERO PUSH2 0x1880 JUMPI RETURNDATASIZE PUSH1 0x0 DUP1 RETURNDATACOPY RETURNDATASIZE PUSH1 0x0 REVERT JUMPDEST POP POP POP POP PUSH1 0x40 MLOAD RETURNDATASIZE PUSH1 0x1F NOT PUSH1 0x1F DUP3 ADD AND DUP3 ADD DUP1 PUSH1 0x40 MSTORE POP DUP2 ADD SWAP1 PUSH2 0x18A4 SWAP2 SWAP1 PUSH2 0x2E14 JUMP JUMPDEST SWAP1 POP PUSH1 0x0 PUSH1 0x1 PUSH1 0x0 SWAP1 SLOAD SWAP1 PUSH2 0x100 EXP SWAP1 DIV PUSH20 0xFFFFFFFFFFFFFFFFFFFFFFFFFFFFFFFFFFFFFFFF AND PUSH20 0xFFFFFFFFFFFFFFFFFFFFFFFFFFFFFFFFFFFFFFFF AND PUSH4 0x435DF20D DUP4 PUSH1 0x40 MLOAD DUP3 PUSH4 0xFFFFFFFF AND PUSH1 0xE0 SHL DUP2 MSTORE PUSH1 0x4 ADD PUSH2 0x1903 SWAP2 SWAP1 PUSH2 0x2B97 JUMP JUMPDEST PUSH1 0x0 PUSH1 0x40 MLOAD DUP1 DUP4 SUB DUP2 DUP7 GAS STATICCALL ISZERO DUP1 ISZERO PUSH2 0x1920 JUMPI RETURNDATASIZE PUSH1 0x0 DUP1 RETURNDATACOPY RETURNDATASIZE PUSH1 0x0 REVERT JUMPDEST POP POP POP POP PUSH1 0x40 MLOAD RETURNDATASIZE PUSH1 0x0 DUP3 RETURNDATACOPY RETURNDATASIZE PUSH1 0x1F NOT PUSH1 0x1F DUP3 ADD AND DUP3 ADD DUP1 PUSH1 0x40 MSTORE POP DUP2 ADD SWAP1 PUSH2 0x1949 SWAP2 SWAP1 PUSH2 0x2EC6 JUMP JUMPDEST SWAP5 POP POP POP POP POP PUSH1 0x0 PUSH20 0xFFFFFFFFFFFFFFFFFFFFFFFFFFFFFFFFFFFFFFFF AND DUP2 PUSH20 0xFFFFFFFFFFFFFFFFFFFFFFFFFFFFFFFFFFFFFFFF AND EQ ISZERO PUSH2 0x198F JUMPI PUSH1 0x1 SWAP3 POP POP POP PUSH2 0x1996 JUMP JUMPDEST PUSH1 0x0 SWAP3 POP POP POP JUMPDEST SWAP3 SWAP2 POP POP JUMP JUMPDEST PUSH1 0x2 PUSH1 0x0 SWAP1 SLOAD SWAP1 PUSH2 0x100 EXP SWAP1 DIV PUSH20 0xFFFFFFFFFFFFFFFFFFFFFFFFFFFFFFFFFFFFFFFF AND DUP2 JUMP JUMPDEST PUSH1 0x5 DUP2 DUP2 SLOAD DUP2 LT PUSH2 0x19D2 JUMPI PUSH1 0x0 DUP1 REVERT JUMPDEST SWAP1 PUSH1 0x0 MSTORE PUSH1 0x20 PUSH1 0x0 KECCAK256 SWAP1 PUSH1 0x5 MUL ADD PUSH1 0x0 SWAP2 POP SWAP1 POP DUP1 PUSH1 0x0 ADD DUP1 SLOAD PUSH2 0x19F5 SWAP1 PUSH2 0x2FF1 JUMP JUMPDEST DUP1 PUSH1 0x1F ADD PUSH1 0x20 DUP1 SWAP2 DIV MUL PUSH1 0x20 ADD PUSH1 0x40 MLOAD SWAP1 DUP2 ADD PUSH1 0x40 MSTORE DUP1 SWAP3 SWAP2 SWAP1 DUP2 DUP2 MSTORE PUSH1 0x20 ADD DUP3 DUP1 SLOAD PUSH2 0x1A21 SWAP1 PUSH2 0x2FF1 JUMP JUMPDEST DUP1 ISZERO PUSH2 0x1A6E JUMPI DUP1 PUSH1 0x1F LT PUSH2 0x1A43 JUMPI PUSH2 0x100 DUP1 DUP4 SLOAD DIV MUL DUP4 MSTORE SWAP2 PUSH1 0x20 ADD SWAP2 PUSH2 0x1A6E JUMP JUMPDEST DUP3 ADD SWAP2 SWAP1 PUSH1 0x0 MSTORE PUSH1 0x20 PUSH1 0x0 KECCAK256 SWAP1 JUMPDEST DUP2 SLOAD DUP2 MSTORE SWAP1 PUSH1 0x1 ADD SWAP1 PUSH1 0x20 ADD DUP1 DUP4 GT PUSH2 0x1A51 JUMPI DUP3 SWAP1 SUB PUSH1 0x1F AND DUP3 ADD SWAP2 JUMPDEST POP POP POP POP POP SWAP1 DUP1 PUSH1 0x1 ADD PUSH1 0x0 SWAP1 SLOAD SWAP1 PUSH2 0x100 EXP SWAP1 DIV PUSH20 0xFFFFFFFFFFFFFFFFFFFFFFFFFFFFFFFFFFFFFFFF AND SWAP1 DUP1 PUSH1 0x2 ADD DUP1 SLOAD PUSH2 0x1AA9 SWAP1 PUSH2 0x2FF1 JUMP JUMPDEST DUP1 PUSH1 0x1F ADD PUSH1 0x20 DUP1 SWAP2 DIV MUL PUSH1 0x20 ADD PUSH1 0x40 MLOAD SWAP1 DUP2 ADD PUSH1 0x40 MSTORE DUP1 SWAP3 SWAP2 SWAP1 DUP2 DUP2 MSTORE PUSH1 0x20 ADD DUP3 DUP1 SLOAD PUSH2 0x1AD5 SWAP1 PUSH2 0x2FF1 JUMP JUMPDEST DUP1 ISZERO PUSH2 0x1B22 JUMPI DUP1 PUSH1 0x1F LT PUSH2 0x1AF7 JUMPI PUSH2 0x100 DUP1 DUP4 SLOAD DIV MUL DUP4 MSTORE SWAP2 PUSH1 0x20 ADD SWAP2 PUSH2 0x1B22 JUMP JUMPDEST DUP3 ADD SWAP2 SWAP1 PUSH1 0x0 MSTORE PUSH1 0x20 PUSH1 0x0 KECCAK256 SWAP1 JUMPDEST DUP2 SLOAD DUP2 MSTORE SWAP1 PUSH1 0x1 ADD SWAP1 PUSH1 0x20 ADD DUP1 DUP4 GT PUSH2 0x1B05 JUMPI DUP3 SWAP1 SUB PUSH1 0x1F AND DUP3 ADD SWAP2 JUMPDEST POP POP POP POP POP SWAP1 DUP1 PUSH1 0x3 ADD DUP1 SLOAD PUSH2 0x1B37 SWAP1 PUSH2 0x2FF1 JUMP JUMPDEST DUP1 PUSH1 0x1F ADD PUSH1 0x20 DUP1 SWAP2 DIV MUL PUSH1 0x20 ADD PUSH1 0x40 MLOAD SWAP1 DUP2 ADD PUSH1 0x40 MSTORE DUP1 SWAP3 SWAP2 SWAP1 DUP2 DUP2 MSTORE PUSH1 0x20 ADD DUP3 DUP1 SLOAD PUSH2 0x1B63 SWAP1 PUSH2 0x2FF1 JUMP JUMPDEST DUP1 ISZERO PUSH2 0x1BB0 JUMPI DUP1 PUSH1 0x1F LT PUSH2 0x1B85 JUMPI PUSH2 0x100 DUP1 DUP4 SLOAD DIV MUL DUP4 MSTORE SWAP2 PUSH1 0x20 ADD SWAP2 PUSH2 0x1BB0 JUMP JUMPDEST DUP3 ADD SWAP2 SWAP1 PUSH1 0x0 MSTORE PUSH1 0x20 PUSH1 0x0 KECCAK256 SWAP1 JUMPDEST DUP2 SLOAD DUP2 MSTORE SWAP1 PUSH1 0x1 ADD SWAP1 PUSH1 0x20 ADD DUP1 DUP4 GT PUSH2 0x1B93 JUMPI DUP3 SWAP1 SUB PUSH1 0x1F AND DUP3 ADD SWAP2 JUMPDEST POP POP POP POP POP SWAP1 DUP1 PUSH1 0x4 ADD PUSH1 0x0 SWAP1 SLOAD SWAP1 PUSH2 0x100 EXP SWAP1 DIV PUSH20 0xFFFFFFFFFFFFFFFFFFFFFFFFFFFFFFFFFFFFFFFF AND SWAP1 POP DUP6 JUMP JUMPDEST PUSH1 0x1 PUSH1 0x0 SWAP1 SLOAD SWAP1 PUSH2 0x100 EXP SWAP1 DIV PUSH20 0xFFFFFFFFFFFFFFFFFFFFFFFFFFFFFFFFFFFFFFFF AND DUP2 JUMP JUMPDEST PUSH1 0x0 PUSH1 0x7 PUSH1 0x0 DUP4 PUSH20 0xFFFFFFFFFFFFFFFFFFFFFFFFFFFFFFFFFFFFFFFF AND PUSH20 0xFFFFFFFFFFFFFFFFFFFFFFFFFFFFFFFFFFFFFFFF AND DUP2 MSTORE PUSH1 0x20 ADD SWAP1 DUP2 MSTORE PUSH1 0x20 ADD PUSH1 0x0 KECCAK256 PUSH1 0x0 SWAP1 SLOAD SWAP1 PUSH2 0x100 EXP SWAP1 DIV PUSH20 0xFFFFFFFFFFFFFFFFFFFFFFFFFFFFFFFFFFFFFFFF AND SWAP1 POP SWAP2 SWAP1 POP JUMP JUMPDEST PUSH1 0x0 DUP1 PUSH1 0x0 DUP1 PUSH1 0x0 PUSH2 0x1C80 DUP7 PUSH2 0x1012 JUMP JUMPDEST SWAP5 POP SWAP5 POP SWAP5 POP SWAP5 POP SWAP5 POP DUP1 PUSH20 0xFFFFFFFFFFFFFFFFFFFFFFFFFFFFFFFFFFFFFFFF AND CALLER PUSH20 0xFFFFFFFFFFFFFFFFFFFFFFFFFFFFFFFFFFFFFFFF AND EQ PUSH2 0x1CF8 JUMPI PUSH1 0x40 MLOAD PUSH32 0x8C379A000000000000000000000000000000000000000000000000000000000 DUP2 MSTORE PUSH1 0x4 ADD PUSH2 0x1CEF SWAP1 PUSH2 0x33E5 JUMP JUMPDEST PUSH1 0x40 MLOAD DUP1 SWAP2 SUB SWAP1 REVERT JUMPDEST PUSH1 0x0 PUSH1 0x1 PUSH1 0x0 SWAP1 SLOAD SWAP1 PUSH2 0x100 EXP SWAP1 DIV PUSH20 0xFFFFFFFFFFFFFFFFFFFFFFFFFFFFFFFFFFFFFFFF AND PUSH20 0xFFFFFFFFFFFFFFFFFFFFFFFFFFFFFFFFFFFFFFFF AND PUSH4 0x8A97503D DUP7 DUP6 PUSH1 0x40 MLOAD DUP4 PUSH4 0xFFFFFFFF AND PUSH1 0xE0 SHL DUP2 MSTORE PUSH1 0x4 ADD PUSH2 0x1D57 SWAP3 SWAP2 SWAP1 PUSH2 0x2DB8 JUMP JUMPDEST PUSH1 0x20 PUSH1 0x40 MLOAD DUP1 DUP4 SUB DUP2 DUP7 GAS STATICCALL ISZERO DUP1 ISZERO PUSH2 0x1D74 JUMPI RETURNDATASIZE PUSH1 0x0 DUP1 RETURNDATACOPY RETURNDATASIZE PUSH1 0x0 REVERT JUMPDEST POP POP POP POP PUSH1 0x40 MLOAD RETURNDATASIZE PUSH1 0x1F NOT PUSH1 0x1F DUP3 ADD AND DUP3 ADD DUP1 PUSH1 0x40 MSTORE POP DUP2 ADD SWAP1 PUSH2 0x1D98 SWAP2 SWAP1 PUSH2 0x2E14 JUMP JUMPDEST SWAP1 POP PUSH1 0x1 PUSH1 0x0 SWAP1 SLOAD SWAP1 PUSH2 0x100 EXP SWAP1 DIV PUSH20 0xFFFFFFFFFFFFFFFFFFFFFFFFFFFFFFFFFFFFFFFF AND PUSH20 0xFFFFFFFFFFFFFFFFFFFFFFFFFFFFFFFFFFFFFFFF AND PUSH4 0x4268DDBD DUP9 DUP4 CALLER PUSH1 0x40 MLOAD DUP5 PUSH4 0xFFFFFFFF AND PUSH1 0xE0 SHL DUP2 MSTORE PUSH1 0x4 ADD PUSH2 0x1DF9 SWAP4 SWAP3 SWAP2 SWAP1 PUSH2 0x3405 JUMP JUMPDEST PUSH1 0x20 PUSH1 0x40 MLOAD DUP1 DUP4 SUB DUP2 PUSH1 0x0 DUP8 GAS CALL ISZERO DUP1 ISZERO PUSH2 0x1E18 JUMPI RETURNDATASIZE PUSH1 0x0 DUP1 RETURNDATACOPY RETURNDATASIZE PUSH1 0x0 REVERT JUMPDEST POP POP POP POP PUSH1 0x40 MLOAD RETURNDATASIZE PUSH1 0x1F NOT PUSH1 0x1F DUP3 ADD AND DUP3 ADD DUP1 PUSH1 0x40 MSTORE POP DUP2 ADD SWAP1 PUSH2 0x1E3C SWAP2 SWAP1 PUSH2 0x30EA JUMP JUMPDEST PUSH2 0x1E7B JUMPI PUSH1 0x40 MLOAD PUSH32 0x8C379A000000000000000000000000000000000000000000000000000000000 DUP2 MSTORE PUSH1 0x4 ADD PUSH2 0x1E72 SWAP1 PUSH2 0x34AE JUMP JUMPDEST PUSH1 0x40 MLOAD DUP1 SWAP2 SUB SWAP1 REVERT JUMPDEST PUSH1 0x6 DUP8 DUP2 SLOAD DUP2 LT PUSH2 0x1E8F JUMPI PUSH2 0x1E8E PUSH2 0x308F JUMP JUMPDEST JUMPDEST SWAP1 PUSH1 0x0 MSTORE PUSH1 0x20 PUSH1 0x0 KECCAK256 SWAP1 PUSH1 0x5 MUL ADD PUSH1 0x0 DUP1 DUP3 ADD PUSH1 0x0 PUSH2 0x1EAE SWAP2 SWAP1 PUSH2 0x2634 JUMP JUMPDEST PUSH1 0x1 DUP3 ADD PUSH1 0x0 PUSH2 0x100 EXP DUP2 SLOAD SWAP1 PUSH20 0xFFFFFFFFFFFFFFFFFFFFFFFFFFFFFFFFFFFFFFFF MUL NOT AND SWAP1 SSTORE PUSH1 0x2 DUP3 ADD PUSH1 0x0 PUSH2 0x1EE5 SWAP2 SWAP1 PUSH2 0x2634 JUMP JUMPDEST PUSH1 0x3 DUP3 ADD PUSH1 0x0 PUSH2 0x1EF5 SWAP2 SWAP1 PUSH2 0x2634 JUMP JUMPDEST PUSH1 0x4 DUP3 ADD PUSH1 0x0 PUSH2 0x100 EXP DUP2 SLOAD SWAP1 PUSH20 0xFFFFFFFFFFFFFFFFFFFFFFFFFFFFFFFFFFFFFFFF MUL NOT AND SWAP1 SSTORE POP POP POP POP POP POP POP POP POP JUMP JUMPDEST PUSH1 0x0 PUSH20 0xFFFFFFFFFFFFFFFFFFFFFFFFFFFFFFFFFFFFFFFF AND PUSH1 0x2 PUSH1 0x0 SWAP1 SLOAD SWAP1 PUSH2 0x100 EXP SWAP1 DIV PUSH20 0xFFFFFFFFFFFFFFFFFFFFFFFFFFFFFFFFFFFFFFFF AND PUSH20 0xFFFFFFFFFFFFFFFFFFFFFFFFFFFFFFFFFFFFFFFF AND PUSH4 0x839F602D CALLER PUSH1 0x40 MLOAD DUP3 PUSH4 0xFFFFFFFF AND PUSH1 0xE0 SHL DUP2 MSTORE PUSH1 0x4 ADD PUSH2 0x1F9A SWAP2 SWAP1 PUSH2 0x2A67 JUMP JUMPDEST PUSH1 0x20 PUSH1 0x40 MLOAD DUP1 DUP4 SUB DUP2 DUP7 GAS STATICCALL ISZERO DUP1 ISZERO PUSH2 0x1FB7 JUMPI RETURNDATASIZE PUSH1 0x0 DUP1 RETURNDATACOPY RETURNDATASIZE PUSH1 0x0 REVERT JUMPDEST POP POP POP POP PUSH1 0x40 MLOAD RETURNDATASIZE PUSH1 0x1F NOT PUSH1 0x1F DUP3 ADD AND DUP3 ADD DUP1 PUSH1 0x40 MSTORE POP DUP2 ADD SWAP1 PUSH2 0x1FDB SWAP2 SWAP1 PUSH2 0x2F95 JUMP JUMPDEST PUSH20 0xFFFFFFFFFFFFFFFFFFFFFFFFFFFFFFFFFFFFFFFF AND EQ ISZERO PUSH2 0x2032 JUMPI PUSH1 0x40 MLOAD PUSH32 0x8C379A000000000000000000000000000000000000000000000000000000000 DUP2 MSTORE PUSH1 0x4 ADD PUSH2 0x2029 SWAP1 PUSH2 0x330D JUMP JUMPDEST PUSH1 0x40 MLOAD DUP1 SWAP2 SUB SWAP1 REVERT JUMPDEST PUSH1 0x0 DUP1 PUSH1 0x0 DUP1 PUSH1 0x0 PUSH2 0x2043 DUP7 PUSH2 0x92E JUMP JUMPDEST SWAP5 POP SWAP5 POP SWAP5 POP SWAP5 POP SWAP5 POP DUP1 PUSH20 0xFFFFFFFFFFFFFFFFFFFFFFFFFFFFFFFFFFFFFFFF AND CALLER PUSH20 0xFFFFFFFFFFFFFFFFFFFFFFFFFFFFFFFFFFFFFFFF AND EQ PUSH2 0x20BB JUMPI PUSH1 0x40 MLOAD PUSH32 0x8C379A000000000000000000000000000000000000000000000000000000000 DUP2 MSTORE PUSH1 0x4 ADD PUSH2 0x20B2 SWAP1 PUSH2 0x33E5 JUMP JUMPDEST PUSH1 0x40 MLOAD DUP1 SWAP2 SUB SWAP1 REVERT JUMPDEST PUSH1 0x0 PUSH1 0x1 PUSH1 0x0 SWAP1 SLOAD SWAP1 PUSH2 0x100 EXP SWAP1 DIV PUSH20 0xFFFFFFFFFFFFFFFFFFFFFFFFFFFFFFFFFFFFFFFF AND PUSH20 0xFFFFFFFFFFFFFFFFFFFFFFFFFFFFFFFFFFFFFFFF AND PUSH4 0x8A97503D DUP7 DUP6 PUSH1 0x40 MLOAD DUP4 PUSH4 0xFFFFFFFF AND PUSH1 0xE0 SHL DUP2 MSTORE PUSH1 0x4 ADD PUSH2 0x211A SWAP3 SWAP2 SWAP1 PUSH2 0x2DB8 JUMP JUMPDEST PUSH1 0x20 PUSH1 0x40 MLOAD DUP1 DUP4 SUB DUP2 DUP7 GAS STATICCALL ISZERO DUP1 ISZERO PUSH2 0x2137 JUMPI RETURNDATASIZE PUSH1 0x0 DUP1 RETURNDATACOPY RETURNDATASIZE PUSH1 0x0 REVERT JUMPDEST POP POP POP POP PUSH1 0x40 MLOAD RETURNDATASIZE PUSH1 0x1F NOT PUSH1 0x1F DUP3 ADD AND DUP3 ADD DUP1 PUSH1 0x40 MSTORE POP DUP2 ADD SWAP1 PUSH2 0x215B SWAP2 SWAP1 PUSH2 0x2E14 JUMP JUMPDEST SWAP1 POP PUSH1 0x1 PUSH1 0x0 SWAP1 SLOAD SWAP1 PUSH2 0x100 EXP SWAP1 DIV PUSH20 0xFFFFFFFFFFFFFFFFFFFFFFFFFFFFFFFFFFFFFFFF AND PUSH20 0xFFFFFFFFFFFFFFFFFFFFFFFFFFFFFFFFFFFFFFFF AND PUSH4 0x4268DDBD DUP9 DUP4 CALLER PUSH1 0x40 MLOAD DUP5 PUSH4 0xFFFFFFFF AND PUSH1 0xE0 SHL DUP2 MSTORE PUSH1 0x4 ADD PUSH2 0x21BC SWAP4 SWAP3 SWAP2 SWAP1 PUSH2 0x3405 JUMP JUMPDEST PUSH1 0x20 PUSH1 0x40 MLOAD DUP1 DUP4 SUB DUP2 PUSH1 0x0 DUP8 GAS CALL ISZERO DUP1 ISZERO PUSH2 0x21DB JUMPI RETURNDATASIZE PUSH1 0x0 DUP1 RETURNDATACOPY RETURNDATASIZE PUSH1 0x0 REVERT JUMPDEST POP POP POP POP PUSH1 0x40 MLOAD RETURNDATASIZE PUSH1 0x1F NOT PUSH1 0x1F DUP3 ADD AND DUP3 ADD DUP1 PUSH1 0x40 MSTORE POP DUP2 ADD SWAP1 PUSH2 0x21FF SWAP2 SWAP1 PUSH2 0x30EA JUMP JUMPDEST PUSH2 0x223E JUMPI PUSH1 0x40 MLOAD PUSH32 0x8C379A000000000000000000000000000000000000000000000000000000000 DUP2 MSTORE PUSH1 0x4 ADD PUSH2 0x2235 SWAP1 PUSH2 0x34AE JUMP JUMPDEST PUSH1 0x40 MLOAD DUP1 SWAP2 SUB SWAP1 REVERT JUMPDEST PUSH1 0x5 DUP8 DUP2 SLOAD DUP2 LT PUSH2 0x2252 JUMPI PUSH2 0x2251 PUSH2 0x308F JUMP JUMPDEST JUMPDEST SWAP1 PUSH1 0x0 MSTORE PUSH1 0x20 PUSH1 0x0 KECCAK256 SWAP1 PUSH1 0x5 MUL ADD PUSH1 0x0 DUP1 DUP3 ADD PUSH1 0x0 PUSH2 0x2271 SWAP2 SWAP1 PUSH2 0x2634 JUMP JUMPDEST PUSH1 0x1 DUP3 ADD PUSH1 0x0 PUSH2 0x100 EXP DUP2 SLOAD SWAP1 PUSH20 0xFFFFFFFFFFFFFFFFFFFFFFFFFFFFFFFFFFFFFFFF MUL NOT AND SWAP1 SSTORE PUSH1 0x2 DUP3 ADD PUSH1 0x0 PUSH2 0x22A8 SWAP2 SWAP1 PUSH2 0x2634 JUMP JUMPDEST PUSH1 0x3 DUP3 ADD PUSH1 0x0 PUSH2 0x22B8 SWAP2 SWAP1 PUSH2 0x2634 JUMP JUMPDEST PUSH1 0x4 DUP3 ADD PUSH1 0x0 PUSH2 0x100 EXP DUP2 SLOAD SWAP1 PUSH20 0xFFFFFFFFFFFFFFFFFFFFFFFFFFFFFFFFFFFFFFFF MUL NOT AND SWAP1 SSTORE POP POP POP POP POP POP POP POP POP JUMP JUMPDEST PUSH1 0x0 PUSH1 0x1 PUSH1 0x0 SWAP1 SLOAD SWAP1 PUSH2 0x100 EXP SWAP1 DIV PUSH20 0xFFFFFFFFFFFFFFFFFFFFFFFFFFFFFFFFFFFFFFFF AND PUSH20 0xFFFFFFFFFFFFFFFFFFFFFFFFFFFFFFFFFFFFFFFF AND PUSH4 0x8A97503D DUP5 DUP5 PUSH1 0x40 MLOAD DUP4 PUSH4 0xFFFFFFFF AND PUSH1 0xE0 SHL DUP2 MSTORE PUSH1 0x4 ADD PUSH2 0x2349 SWAP3 SWAP2 SWAP1 PUSH2 0x2DB8 JUMP JUMPDEST PUSH1 0x20 PUSH1 0x40 MLOAD DUP1 DUP4 SUB DUP2 DUP7 GAS STATICCALL ISZERO DUP1 ISZERO PUSH2 0x2366 JUMPI RETURNDATASIZE PUSH1 0x0 DUP1 RETURNDATACOPY RETURNDATASIZE PUSH1 0x0 REVERT JUMPDEST POP POP POP POP PUSH1 0x40 MLOAD RETURNDATASIZE PUSH1 0x1F NOT PUSH1 0x1F DUP3 ADD AND DUP3 ADD DUP1 PUSH1 0x40 MSTORE POP DUP2 ADD SWAP1 PUSH2 0x238A SWAP2 SWAP1 PUSH2 0x2E14 JUMP JUMPDEST SWAP1 POP PUSH1 0x0 PUSH1 0x1 PUSH1 0x0 SWAP1 SLOAD SWAP1 PUSH2 0x100 EXP SWAP1 DIV PUSH20 0xFFFFFFFFFFFFFFFFFFFFFFFFFFFFFFFFFFFFFFFF AND PUSH20 0xFFFFFFFFFFFFFFFFFFFFFFFFFFFFFFFFFFFFFFFF AND PUSH4 0x435DF20D DUP4 PUSH1 0x40 MLOAD DUP3 PUSH4 0xFFFFFFFF AND PUSH1 0xE0 SHL DUP2 MSTORE PUSH1 0x4 ADD PUSH2 0x23E9 SWAP2 SWAP1 PUSH2 0x2B97 JUMP JUMPDEST PUSH1 0x0 PUSH1 0x40 MLOAD DUP1 DUP4 SUB DUP2 DUP7 GAS STATICCALL ISZERO DUP1 ISZERO PUSH2 0x2406 JUMPI RETURNDATASIZE PUSH1 0x0 DUP1 RETURNDATACOPY RETURNDATASIZE PUSH1 0x0 REVERT JUMPDEST POP POP POP POP PUSH1 0x40 MLOAD RETURNDATASIZE PUSH1 0x0 DUP3 RETURNDATACOPY RETURNDATASIZE PUSH1 0x1F NOT PUSH1 0x1F DUP3 ADD AND DUP3 ADD DUP1 PUSH1 0x40 MSTORE POP DUP2 ADD SWAP1 PUSH2 0x242F SWAP2 SWAP1 PUSH2 0x2EC6 JUMP JUMPDEST SWAP5 POP POP POP POP POP DUP1 PUSH20 0xFFFFFFFFFFFFFFFFFFFFFFFFFFFFFFFFFFFFFFFF AND CALLER PUSH20 0xFFFFFFFFFFFFFFFFFFFFFFFFFFFFFFFFFFFFFFFF AND EQ PUSH2 0x246D JUMPI PUSH1 0x0 DUP1 REVERT JUMPDEST PUSH1 0x1 PUSH1 0x0 SWAP1 SLOAD SWAP1 PUSH2 0x100 EXP SWAP1 DIV PUSH20 0xFFFFFFFFFFFFFFFFFFFFFFFFFFFFFFFFFFFFFFFF AND PUSH20 0xFFFFFFFFFFFFFFFFFFFFFFFFFFFFFFFFFFFFFFFF AND PUSH4 0x956A3545 DUP7 DUP5 PUSH1 0x40 MLOAD DUP4 PUSH4 0xFFFFFFFF AND PUSH1 0xE0 SHL DUP2 MSTORE PUSH1 0x4 ADD PUSH2 0x24CA SWAP3 SWAP2 SWAP1 PUSH2 0x34CE JUMP JUMPDEST PUSH1 0x20 PUSH1 0x40 MLOAD DUP1 DUP4 SUB DUP2 PUSH1 0x0 DUP8 GAS CALL ISZERO DUP1 ISZERO PUSH2 0x24E9 JUMPI RETURNDATASIZE PUSH1 0x0 DUP1 RETURNDATACOPY RETURNDATASIZE PUSH1 0x0 REVERT JUMPDEST POP POP POP POP PUSH1 0x40 MLOAD RETURNDATASIZE PUSH1 0x1F NOT PUSH1 0x1F DUP3 ADD AND DUP3 ADD DUP1 PUSH1 0x40 MSTORE POP DUP2 ADD SWAP1 PUSH2 0x250D SWAP2 SWAP1 PUSH2 0x30EA JUMP JUMPDEST PUSH2 0x254C JUMPI PUSH1 0x40 MLOAD PUSH32 0x8C379A000000000000000000000000000000000000000000000000000000000 DUP2 MSTORE PUSH1 0x4 ADD PUSH2 0x2543 SWAP1 PUSH2 0x3569 JUMP JUMPDEST PUSH1 0x40 MLOAD DUP1 SWAP2 SUB SWAP1 REVERT JUMPDEST POP POP POP POP POP JUMP JUMPDEST PUSH1 0x40 MLOAD DUP1 PUSH1 0xA0 ADD PUSH1 0x40 MSTORE DUP1 PUSH1 0x60 DUP2 MSTORE PUSH1 0x20 ADD PUSH1 0x0 PUSH20 0xFFFFFFFFFFFFFFFFFFFFFFFFFFFFFFFFFFFFFFFF AND DUP2 MSTORE PUSH1 0x20 ADD PUSH1 0x60 DUP2 MSTORE PUSH1 0x20 ADD PUSH1 0x60 DUP2 MSTORE PUSH1 0x20 ADD PUSH1 0x0 PUSH20 0xFFFFFFFFFFFFFFFFFFFFFFFFFFFFFFFFFFFFFFFF AND DUP2 MSTORE POP SWAP1 JUMP JUMPDEST DUP3 DUP1 SLOAD PUSH2 0x25BA SWAP1 PUSH2 0x2FF1 JUMP JUMPDEST SWAP1 PUSH1 0x0 MSTORE PUSH1 0x20 PUSH1 0x0 KECCAK256 SWAP1 PUSH1 0x1F ADD PUSH1 0x20 SWAP1 DIV DUP2 ADD SWAP3 DUP3 PUSH2 0x25DC JUMPI PUSH1 0x0 DUP6 SSTORE PUSH2 0x2623 JUMP JUMPDEST DUP3 PUSH1 0x1F LT PUSH2 0x25F5 JUMPI DUP1 MLOAD PUSH1 0xFF NOT AND DUP4 DUP1 ADD OR DUP6 SSTORE PUSH2 0x2623 JUMP JUMPDEST DUP3 DUP1 ADD PUSH1 0x1 ADD DUP6 SSTORE DUP3 ISZERO PUSH2 0x2623 JUMPI SWAP2 DUP3 ADD JUMPDEST DUP3 DUP2 GT ISZERO PUSH2 0x2622 JUMPI DUP3 MLOAD DUP3 SSTORE SWAP2 PUSH1 0x20 ADD SWAP2 SWAP1 PUSH1 0x1 ADD SWAP1 PUSH2 0x2607 JUMP JUMPDEST JUMPDEST POP SWAP1 POP PUSH2 0x2630 SWAP2 SWAP1 PUSH2 0x2674 JUMP JUMPDEST POP SWAP1 JUMP JUMPDEST POP DUP1 SLOAD PUSH2 0x2640 SWAP1 PUSH2 0x2FF1 JUMP JUMPDEST PUSH1 0x0 DUP3 SSTORE DUP1 PUSH1 0x1F LT PUSH2 0x2652 JUMPI POP PUSH2 0x2671 JUMP JUMPDEST PUSH1 0x1F ADD PUSH1 0x20 SWAP1 DIV SWAP1 PUSH1 0x0 MSTORE PUSH1 0x20 PUSH1 0x0 KECCAK256 SWAP1 DUP2 ADD SWAP1 PUSH2 0x2670 SWAP2 SWAP1 PUSH2 0x2674 JUMP JUMPDEST JUMPDEST POP JUMP JUMPDEST JUMPDEST DUP1 DUP3 GT ISZERO PUSH2 0x268D JUMPI PUSH1 0x0 DUP2 PUSH1 0x0 SWAP1 SSTORE POP PUSH1 0x1 ADD PUSH2 0x2675 JUMP JUMPDEST POP SWAP1 JUMP JUMPDEST PUSH1 0x0 DUP2 SWAP1 POP SWAP2 SWAP1 POP JUMP JUMPDEST PUSH2 0x26A4 DUP2 PUSH2 0x2691 JUMP JUMPDEST DUP3 MSTORE POP POP JUMP JUMPDEST PUSH1 0x0 PUSH1 0x20 DUP3 ADD SWAP1 POP PUSH2 0x26BF PUSH1 0x0 DUP4 ADD DUP5 PUSH2 0x269B JUMP JUMPDEST SWAP3 SWAP2 POP POP JUMP JUMPDEST PUSH1 0x0 PUSH1 0x40 MLOAD SWAP1 POP SWAP1 JUMP JUMPDEST PUSH1 0x0 DUP1 REVERT JUMPDEST PUSH1 0x0 DUP1 REVERT JUMPDEST PUSH1 0x0 PUSH20 0xFFFFFFFFFFFFFFFFFFFFFFFFFFFFFFFFFFFFFFFF DUP3 AND SWAP1 POP SWAP2 SWAP1 POP JUMP JUMPDEST PUSH1 0x0 PUSH2 0x2704 DUP3 PUSH2 0x26D9 JUMP JUMPDEST SWAP1 POP SWAP2 SWAP1 POP JUMP JUMPDEST PUSH2 0x2714 DUP2 PUSH2 0x26F9 JUMP JUMPDEST DUP2 EQ PUSH2 0x271F JUMPI PUSH1 0x0 DUP1 REVERT JUMPDEST POP JUMP JUMPDEST PUSH1 0x0 DUP2 CALLDATALOAD SWAP1 POP PUSH2 0x2731 DUP2 PUSH2 0x270B JUMP JUMPDEST SWAP3 SWAP2 POP POP JUMP JUMPDEST PUSH1 0x0 DUP1 REVERT JUMPDEST PUSH1 0x0 DUP1 REVERT JUMPDEST PUSH1 0x0 PUSH1 0x1F NOT PUSH1 0x1F DUP4 ADD AND SWAP1 POP SWAP2 SWAP1 POP JUMP JUMPDEST PUSH32 0x4E487B7100000000000000000000000000000000000000000000000000000000 PUSH1 0x0 MSTORE PUSH1 0x41 PUSH1 0x4 MSTORE PUSH1 0x24 PUSH1 0x0 REVERT JUMPDEST PUSH2 0x278A DUP3 PUSH2 0x2741 JUMP JUMPDEST DUP2 ADD DUP2 DUP2 LT PUSH8 0xFFFFFFFFFFFFFFFF DUP3 GT OR ISZERO PUSH2 0x27A9 JUMPI PUSH2 0x27A8 PUSH2 0x2752 JUMP JUMPDEST JUMPDEST DUP1 PUSH1 0x40 MSTORE POP POP POP JUMP JUMPDEST PUSH1 0x0 PUSH2 0x27BC PUSH2 0x26C5 JUMP JUMPDEST SWAP1 POP PUSH2 0x27C8 DUP3 DUP3 PUSH2 0x2781 JUMP JUMPDEST SWAP2 SWAP1 POP JUMP JUMPDEST PUSH1 0x0 PUSH8 0xFFFFFFFFFFFFFFFF DUP3 GT ISZERO PUSH2 0x27E8 JUMPI PUSH2 0x27E7 PUSH2 0x2752 JUMP JUMPDEST JUMPDEST PUSH2 0x27F1 DUP3 PUSH2 0x2741 JUMP JUMPDEST SWAP1 POP PUSH1 0x20 DUP2 ADD SWAP1 POP SWAP2 SWAP1 POP JUMP JUMPDEST DUP3 DUP2 DUP4 CALLDATACOPY PUSH1 0x0 DUP4 DUP4 ADD MSTORE POP POP POP JUMP JUMPDEST PUSH1 0x0 PUSH2 0x2820 PUSH2 0x281B DUP5 PUSH2 0x27CD JUMP JUMPDEST PUSH2 0x27B2 JUMP JUMPDEST SWAP1 POP DUP3 DUP2 MSTORE PUSH1 0x20 DUP2 ADD DUP5 DUP5 DUP5 ADD GT ISZERO PUSH2 0x283C JUMPI PUSH2 0x283B PUSH2 0x273C JUMP JUMPDEST JUMPDEST PUSH2 0x2847 DUP5 DUP3 DUP6 PUSH2 0x27FE JUMP JUMPDEST POP SWAP4 SWAP3 POP POP POP JUMP JUMPDEST PUSH1 0x0 DUP3 PUSH1 0x1F DUP4 ADD SLT PUSH2 0x2864 JUMPI PUSH2 0x2863 PUSH2 0x2737 JUMP JUMPDEST JUMPDEST DUP2 CALLDATALOAD PUSH2 0x2874 DUP5 DUP3 PUSH1 0x20 DUP7 ADD PUSH2 0x280D JUMP JUMPDEST SWAP2 POP POP SWAP3 SWAP2 POP POP JUMP JUMPDEST PUSH1 0x0 DUP1 PUSH1 0x40 DUP4 DUP6 SUB SLT ISZERO PUSH2 0x2894 JUMPI PUSH2 0x2893 PUSH2 0x26CF JUMP JUMPDEST JUMPDEST PUSH1 0x0 PUSH2 0x28A2 DUP6 DUP3 DUP7 ADD PUSH2 0x2722 JUMP JUMPDEST SWAP3 POP POP PUSH1 0x20 DUP4 ADD CALLDATALOAD PUSH8 0xFFFFFFFFFFFFFFFF DUP2 GT ISZERO PUSH2 0x28C3 JUMPI PUSH2 0x28C2 PUSH2 0x26D4 JUMP JUMPDEST JUMPDEST PUSH2 0x28CF DUP6 DUP3 DUP7 ADD PUSH2 0x284F JUMP JUMPDEST SWAP2 POP POP SWAP3 POP SWAP3 SWAP1 POP JUMP JUMPDEST PUSH1 0x0 DUP2 ISZERO ISZERO SWAP1 POP SWAP2 SWAP1 POP JUMP JUMPDEST PUSH2 0x28EE DUP2 PUSH2 0x28D9 JUMP JUMPDEST DUP3 MSTORE POP POP JUMP JUMPDEST PUSH1 0x0 PUSH1 0x20 DUP3 ADD SWAP1 POP PUSH2 0x2909 PUSH1 0x0 DUP4 ADD DUP5 PUSH2 0x28E5 JUMP JUMPDEST SWAP3 SWAP2 POP POP JUMP JUMPDEST PUSH2 0x2918 DUP2 PUSH2 0x2691 JUMP JUMPDEST DUP2 EQ PUSH2 0x2923 JUMPI PUSH1 0x0 DUP1 REVERT JUMPDEST POP JUMP JUMPDEST PUSH1 0x0 DUP2 CALLDATALOAD SWAP1 POP PUSH2 0x2935 DUP2 PUSH2 0x290F JUMP JUMPDEST SWAP3 SWAP2 POP POP JUMP JUMPDEST PUSH1 0x0 PUSH1 0x20 DUP3 DUP5 SUB SLT ISZERO PUSH2 0x2951 JUMPI PUSH2 0x2950 PUSH2 0x26CF JUMP JUMPDEST JUMPDEST PUSH1 0x0 PUSH2 0x295F DUP5 DUP3 DUP6 ADD PUSH2 0x2926 JUMP JUMPDEST SWAP2 POP POP SWAP3 SWAP2 POP POP JUMP JUMPDEST PUSH1 0x0 DUP2 MLOAD SWAP1 POP SWAP2 SWAP1 POP JUMP JUMPDEST PUSH1 0x0 DUP3 DUP3 MSTORE PUSH1 0x20 DUP3 ADD SWAP1 POP SWAP3 SWAP2 POP POP JUMP JUMPDEST PUSH1 0x0 JUMPDEST DUP4 DUP2 LT ISZERO PUSH2 0x29A2 JUMPI DUP1 DUP3 ADD MLOAD DUP2 DUP5 ADD MSTORE PUSH1 0x20 DUP2 ADD SWAP1 POP PUSH2 0x2987 JUMP JUMPDEST DUP4 DUP2 GT ISZERO PUSH2 0x29B1 JUMPI PUSH1 0x0 DUP5 DUP5 ADD MSTORE JUMPDEST POP POP POP POP JUMP JUMPDEST PUSH1 0x0 PUSH2 0x29C2 DUP3 PUSH2 0x2968 JUMP JUMPDEST PUSH2 0x29CC DUP2 DUP6 PUSH2 0x2973 JUMP JUMPDEST SWAP4 POP PUSH2 0x29DC DUP2 DUP6 PUSH1 0x20 DUP7 ADD PUSH2 0x2984 JUMP JUMPDEST PUSH2 0x29E5 DUP2 PUSH2 0x2741 JUMP JUMPDEST DUP5 ADD SWAP2 POP POP SWAP3 SWAP2 POP POP JUMP JUMPDEST PUSH2 0x29F9 DUP2 PUSH2 0x26F9 JUMP JUMPDEST DUP3 MSTORE POP POP JUMP JUMPDEST PUSH1 0x0 PUSH1 0xA0 DUP3 ADD SWAP1 POP DUP2 DUP2 SUB PUSH1 0x0 DUP4 ADD MSTORE PUSH2 0x2A19 DUP2 DUP9 PUSH2 0x29B7 JUMP JUMPDEST SWAP1 POP PUSH2 0x2A28 PUSH1 0x20 DUP4 ADD DUP8 PUSH2 0x29F0 JUMP JUMPDEST DUP2 DUP2 SUB PUSH1 0x40 DUP4 ADD MSTORE PUSH2 0x2A3A DUP2 DUP7 PUSH2 0x29B7 JUMP JUMPDEST SWAP1 POP DUP2 DUP2 SUB PUSH1 0x60 DUP4 ADD MSTORE PUSH2 0x2A4E DUP2 DUP6 PUSH2 0x29B7 JUMP JUMPDEST SWAP1 POP PUSH2 0x2A5D PUSH1 0x80 DUP4 ADD DUP5 PUSH2 0x29F0 JUMP JUMPDEST SWAP7 SWAP6 POP POP POP POP POP POP JUMP JUMPDEST PUSH1 0x0 PUSH1 0x20 DUP3 ADD SWAP1 POP PUSH2 0x2A7C PUSH1 0x0 DUP4 ADD DUP5 PUSH2 0x29F0 JUMP JUMPDEST SWAP3 SWAP2 POP POP JUMP JUMPDEST PUSH1 0x0 DUP1 PUSH1 0x0 DUP1 PUSH1 0x0 PUSH1 0xA0 DUP7 DUP9 SUB SLT ISZERO PUSH2 0x2A9E JUMPI PUSH2 0x2A9D PUSH2 0x26CF JUMP JUMPDEST JUMPDEST PUSH1 0x0 DUP7 ADD CALLDATALOAD PUSH8 0xFFFFFFFFFFFFFFFF DUP2 GT ISZERO PUSH2 0x2ABC JUMPI PUSH2 0x2ABB PUSH2 0x26D4 JUMP JUMPDEST JUMPDEST PUSH2 0x2AC8 DUP9 DUP3 DUP10 ADD PUSH2 0x284F JUMP JUMPDEST SWAP6 POP POP PUSH1 0x20 PUSH2 0x2AD9 DUP9 DUP3 DUP10 ADD PUSH2 0x2722 JUMP JUMPDEST SWAP5 POP POP PUSH1 0x40 DUP7 ADD CALLDATALOAD PUSH8 0xFFFFFFFFFFFFFFFF DUP2 GT ISZERO PUSH2 0x2AFA JUMPI PUSH2 0x2AF9 PUSH2 0x26D4 JUMP JUMPDEST JUMPDEST PUSH2 0x2B06 DUP9 DUP3 DUP10 ADD PUSH2 0x284F JUMP JUMPDEST SWAP4 POP POP PUSH1 0x60 DUP7 ADD CALLDATALOAD PUSH8 0xFFFFFFFFFFFFFFFF DUP2 GT ISZERO PUSH2 0x2B27 JUMPI PUSH2 0x2B26 PUSH2 0x26D4 JUMP JUMPDEST JUMPDEST PUSH2 0x2B33 DUP9 DUP3 DUP10 ADD PUSH2 0x284F JUMP JUMPDEST SWAP3 POP POP PUSH1 0x80 PUSH2 0x2B44 DUP9 DUP3 DUP10 ADD PUSH2 0x2722 JUMP JUMPDEST SWAP2 POP POP SWAP3 SWAP6 POP SWAP3 SWAP6 SWAP1 SWAP4 POP JUMP JUMPDEST PUSH1 0x0 PUSH1 0x20 DUP3 DUP5 SUB SLT ISZERO PUSH2 0x2B67 JUMPI PUSH2 0x2B66 PUSH2 0x26CF JUMP JUMPDEST JUMPDEST PUSH1 0x0 PUSH2 0x2B75 DUP5 DUP3 DUP6 ADD PUSH2 0x2722 JUMP JUMPDEST SWAP2 POP POP SWAP3 SWAP2 POP POP JUMP JUMPDEST PUSH1 0x0 DUP2 SWAP1 POP SWAP2 SWAP1 POP JUMP JUMPDEST PUSH2 0x2B91 DUP2 PUSH2 0x2B7E JUMP JUMPDEST DUP3 MSTORE POP POP JUMP JUMPDEST PUSH1 0x0 PUSH1 0x20 DUP3 ADD SWAP1 POP PUSH2 0x2BAC PUSH1 0x0 DUP4 ADD DUP5 PUSH2 0x2B88 JUMP JUMPDEST SWAP3 SWAP2 POP POP JUMP JUMPDEST PUSH1 0x0 DUP1 PUSH1 0x0 DUP1 PUSH1 0x0 DUP1 PUSH1 0xC0 DUP8 DUP10 SUB SLT ISZERO PUSH2 0x2BCF JUMPI PUSH2 0x2BCE PUSH2 0x26CF JUMP JUMPDEST JUMPDEST PUSH1 0x0 DUP8 ADD CALLDATALOAD PUSH8 0xFFFFFFFFFFFFFFFF DUP2 GT ISZERO PUSH2 0x2BED JUMPI PUSH2 0x2BEC PUSH2 0x26D4 JUMP JUMPDEST JUMPDEST PUSH2 0x2BF9 DUP10 DUP3 DUP11 ADD PUSH2 0x284F JUMP JUMPDEST SWAP7 POP POP PUSH1 0x20 PUSH2 0x2C0A DUP10 DUP3 DUP11 ADD PUSH2 0x2722 JUMP JUMPDEST SWAP6 POP POP PUSH1 0x40 DUP8 ADD CALLDATALOAD PUSH8 0xFFFFFFFFFFFFFFFF DUP2 GT ISZERO PUSH2 0x2C2B JUMPI PUSH2 0x2C2A PUSH2 0x26D4 JUMP JUMPDEST JUMPDEST PUSH2 0x2C37 DUP10 DUP3 DUP11 ADD PUSH2 0x284F JUMP JUMPDEST SWAP5 POP POP PUSH1 0x60 DUP8 ADD CALLDATALOAD PUSH8 0xFFFFFFFFFFFFFFFF DUP2 GT ISZERO PUSH2 0x2C58 JUMPI PUSH2 0x2C57 PUSH2 0x26D4 JUMP JUMPDEST JUMPDEST PUSH2 0x2C64 DUP10 DUP3 DUP11 ADD PUSH2 0x284F JUMP JUMPDEST SWAP4 POP POP PUSH1 0x80 PUSH2 0x2C75 DUP10 DUP3 DUP11 ADD PUSH2 0x2722 JUMP JUMPDEST SWAP3 POP POP PUSH1 0xA0 PUSH2 0x2C86 DUP10 DUP3 DUP11 ADD PUSH2 0x2722 JUMP JUMPDEST SWAP2 POP POP SWAP3 SWAP6 POP SWAP3 SWAP6 POP SWAP3 SWAP6 JUMP JUMPDEST PUSH1 0x0 DUP2 SWAP1 POP SWAP2 SWAP1 POP JUMP JUMPDEST PUSH1 0x0 PUSH2 0x2CB8 PUSH2 0x2CB3 PUSH2 0x2CAE DUP5 PUSH2 0x26D9 JUMP JUMPDEST PUSH2 0x2C93 JUMP JUMPDEST PUSH2 0x26D9 JUMP JUMPDEST SWAP1 POP SWAP2 SWAP1 POP JUMP JUMPDEST PUSH1 0x0 PUSH2 0x2CCA DUP3 PUSH2 0x2C9D JUMP JUMPDEST SWAP1 POP SWAP2 SWAP1 POP JUMP JUMPDEST PUSH1 0x0 PUSH2 0x2CDC DUP3 PUSH2 0x2CBF JUMP JUMPDEST SWAP1 POP SWAP2 SWAP1 POP JUMP JUMPDEST PUSH2 0x2CEC DUP2 PUSH2 0x2CD1 JUMP JUMPDEST DUP3 MSTORE POP POP JUMP JUMPDEST PUSH1 0x0 PUSH1 0x20 DUP3 ADD SWAP1 POP PUSH2 0x2D07 PUSH1 0x0 DUP4 ADD DUP5 PUSH2 0x2CE3 JUMP JUMPDEST SWAP3 SWAP2 POP POP JUMP JUMPDEST PUSH1 0x0 PUSH2 0x2D18 DUP3 PUSH2 0x2CBF JUMP JUMPDEST SWAP1 POP SWAP2 SWAP1 POP JUMP JUMPDEST PUSH2 0x2D28 DUP2 PUSH2 0x2D0D JUMP JUMPDEST DUP3 MSTORE POP POP JUMP JUMPDEST PUSH1 0x0 PUSH1 0x20 DUP3 ADD SWAP1 POP PUSH2 0x2D43 PUSH1 0x0 DUP4 ADD DUP5 PUSH2 0x2D1F JUMP JUMPDEST SWAP3 SWAP2 POP POP JUMP JUMPDEST PUSH1 0x0 DUP1 PUSH1 0x0 PUSH1 0x60 DUP5 DUP7 SUB SLT ISZERO PUSH2 0x2D62 JUMPI PUSH2 0x2D61 PUSH2 0x26CF JUMP JUMPDEST JUMPDEST PUSH1 0x0 PUSH2 0x2D70 DUP7 DUP3 DUP8 ADD PUSH2 0x2926 JUMP JUMPDEST SWAP4 POP POP PUSH1 0x20 PUSH2 0x2D81 DUP7 DUP3 DUP8 ADD PUSH2 0x2722 JUMP JUMPDEST SWAP3 POP POP PUSH1 0x40 DUP5 ADD CALLDATALOAD PUSH8 0xFFFFFFFFFFFFFFFF DUP2 GT ISZERO PUSH2 0x2DA2 JUMPI PUSH2 0x2DA1 PUSH2 0x26D4 JUMP JUMPDEST JUMPDEST PUSH2 0x2DAE DUP7 DUP3 DUP8 ADD PUSH2 0x284F JUMP JUMPDEST SWAP2 POP POP SWAP3 POP SWAP3 POP SWAP3 JUMP JUMPDEST PUSH1 0x0 PUSH1 0x40 DUP3 ADD SWAP1 POP PUSH2 0x2DCD PUSH1 0x0 DUP4 ADD DUP6 PUSH2 0x29F0 JUMP JUMPDEST DUP2 DUP2 SUB PUSH1 0x20 DUP4 ADD MSTORE PUSH2 0x2DDF DUP2 DUP5 PUSH2 0x29B7 JUMP JUMPDEST SWAP1 POP SWAP4 SWAP3 POP POP POP JUMP JUMPDEST PUSH2 0x2DF1 DUP2 PUSH2 0x2B7E JUMP JUMPDEST DUP2 EQ PUSH2 0x2DFC JUMPI PUSH1 0x0 DUP1 REVERT JUMPDEST POP JUMP JUMPDEST PUSH1 0x0 DUP2 MLOAD SWAP1 POP PUSH2 0x2E0E DUP2 PUSH2 0x2DE8 JUMP JUMPDEST SWAP3 SWAP2 POP POP JUMP JUMPDEST PUSH1 0x0 PUSH1 0x20 DUP3 DUP5 SUB SLT ISZERO PUSH2 0x2E2A JUMPI PUSH2 0x2E29 PUSH2 0x26CF JUMP JUMPDEST JUMPDEST PUSH1 0x0 PUSH2 0x2E38 DUP5 DUP3 DUP6 ADD PUSH2 0x2DFF JUMP JUMPDEST SWAP2 POP POP SWAP3 SWAP2 POP POP JUMP JUMPDEST PUSH1 0x0 PUSH2 0x2E54 PUSH2 0x2E4F DUP5 PUSH2 0x27CD JUMP JUMPDEST PUSH2 0x27B2 JUMP JUMPDEST SWAP1 POP DUP3 DUP2 MSTORE PUSH1 0x20 DUP2 ADD DUP5 DUP5 DUP5 ADD GT ISZERO PUSH2 0x2E70 JUMPI PUSH2 0x2E6F PUSH2 0x273C JUMP JUMPDEST JUMPDEST PUSH2 0x2E7B DUP5 DUP3 DUP6 PUSH2 0x2984 JUMP JUMPDEST POP SWAP4 SWAP3 POP POP POP JUMP JUMPDEST PUSH1 0x0 DUP3 PUSH1 0x1F DUP4 ADD SLT PUSH2 0x2E98 JUMPI PUSH2 0x2E97 PUSH2 0x2737 JUMP JUMPDEST JUMPDEST DUP2 MLOAD PUSH2 0x2EA8 DUP5 DUP3 PUSH1 0x20 DUP7 ADD PUSH2 0x2E41 JUMP JUMPDEST SWAP2 POP POP SWAP3 SWAP2 POP POP JUMP JUMPDEST PUSH1 0x0 DUP2 MLOAD SWAP1 POP PUSH2 0x2EC0 DUP2 PUSH2 0x270B JUMP JUMPDEST SWAP3 SWAP2 POP POP JUMP JUMPDEST PUSH1 0x0 DUP1 PUSH1 0x0 DUP1 PUSH1 0x0 PUSH1 0xA0 DUP7 DUP9 SUB SLT ISZERO PUSH2 0x2EE2 JUMPI PUSH2 0x2EE1 PUSH2 0x26CF JUMP JUMPDEST JUMPDEST PUSH1 0x0 DUP7 ADD MLOAD PUSH8 0xFFFFFFFFFFFFFFFF DUP2 GT ISZERO PUSH2 0x2F00 JUMPI PUSH2 0x2EFF PUSH2 0x26D4 JUMP JUMPDEST JUMPDEST PUSH2 0x2F0C DUP9 DUP3 DUP10 ADD PUSH2 0x2E83 JUMP JUMPDEST SWAP6 POP POP PUSH1 0x20 PUSH2 0x2F1D DUP9 DUP3 DUP10 ADD PUSH2 0x2EB1 JUMP JUMPDEST SWAP5 POP POP PUSH1 0x40 DUP7 ADD MLOAD PUSH8 0xFFFFFFFFFFFFFFFF DUP2 GT ISZERO PUSH2 0x2F3E JUMPI PUSH2 0x2F3D PUSH2 0x26D4 JUMP JUMPDEST JUMPDEST PUSH2 0x2F4A DUP9 DUP3 DUP10 ADD PUSH2 0x2E83 JUMP JUMPDEST SWAP4 POP POP PUSH1 0x60 DUP7 ADD MLOAD PUSH8 0xFFFFFFFFFFFFFFFF DUP2 GT ISZERO PUSH2 0x2F6B JUMPI PUSH2 0x2F6A PUSH2 0x26D4 JUMP JUMPDEST JUMPDEST PUSH2 0x2F77 DUP9 DUP3 DUP10 ADD PUSH2 0x2E83 JUMP JUMPDEST SWAP3 POP POP PUSH1 0x80 PUSH2 0x2F88 DUP9 DUP3 DUP10 ADD PUSH2 0x2EB1 JUMP JUMPDEST SWAP2 POP POP SWAP3 SWAP6 POP SWAP3 SWAP6 SWAP1 SWAP4 POP JUMP JUMPDEST PUSH1 0x0 PUSH1 0x20 DUP3 DUP5 SUB SLT ISZERO PUSH2 0x2FAB JUMPI PUSH2 0x2FAA PUSH2 0x26CF JUMP JUMPDEST JUMPDEST PUSH1 0x0 PUSH2 0x2FB9 DUP5 DUP3 DUP6 ADD PUSH2 0x2EB1 JUMP JUMPDEST SWAP2 POP POP SWAP3 SWAP2 POP POP JUMP JUMPDEST PUSH32 0x4E487B7100000000000000000000000000000000000000000000000000000000 PUSH1 0x0 MSTORE PUSH1 0x22 PUSH1 0x4 MSTORE PUSH1 0x24 PUSH1 0x0 REVERT JUMPDEST PUSH1 0x0 PUSH1 0x2 DUP3 DIV SWAP1 POP PUSH1 0x1 DUP3 AND DUP1 PUSH2 0x3009 JUMPI PUSH1 0x7F DUP3 AND SWAP2 POP JUMPDEST PUSH1 0x20 DUP3 LT DUP2 EQ ISZERO PUSH2 0x301D JUMPI PUSH2 0x301C PUSH2 0x2FC2 JUMP JUMPDEST JUMPDEST POP SWAP2 SWAP1 POP JUMP JUMPDEST PUSH32 0x496E646578206F7574206F6620626F756E647300000000000000000000000000 PUSH1 0x0 DUP3 ADD MSTORE POP JUMP JUMPDEST PUSH1 0x0 PUSH2 0x3059 PUSH1 0x13 DUP4 PUSH2 0x2973 JUMP JUMPDEST SWAP2 POP PUSH2 0x3064 DUP3 PUSH2 0x3023 JUMP JUMPDEST PUSH1 0x20 DUP3 ADD SWAP1 POP SWAP2 SWAP1 POP JUMP JUMPDEST PUSH1 0x0 PUSH1 0x20 DUP3 ADD SWAP1 POP DUP2 DUP2 SUB PUSH1 0x0 DUP4 ADD MSTORE PUSH2 0x3088 DUP2 PUSH2 0x304C JUMP JUMPDEST SWAP1 POP SWAP2 SWAP1 POP JUMP JUMPDEST PUSH32 0x4E487B7100000000000000000000000000000000000000000000000000000000 PUSH1 0x0 MSTORE PUSH1 0x32 PUSH1 0x4 MSTORE PUSH1 0x24 PUSH1 0x0 REVERT JUMPDEST PUSH2 0x30C7 DUP2 PUSH2 0x28D9 JUMP JUMPDEST DUP2 EQ PUSH2 0x30D2 JUMPI PUSH1 0x0 DUP1 REVERT JUMPDEST POP JUMP JUMPDEST PUSH1 0x0 DUP2 MLOAD SWAP1 POP PUSH2 0x30E4 DUP2 PUSH2 0x30BE JUMP JUMPDEST SWAP3 SWAP2 POP POP JUMP JUMPDEST PUSH1 0x0 PUSH1 0x20 DUP3 DUP5 SUB SLT ISZERO PUSH2 0x3100 JUMPI PUSH2 0x30FF PUSH2 0x26CF JUMP JUMPDEST JUMPDEST PUSH1 0x0 PUSH2 0x310E DUP5 DUP3 DUP6 ADD PUSH2 0x30D5 JUMP JUMPDEST SWAP2 POP POP SWAP3 SWAP2 POP POP JUMP JUMPDEST PUSH32 0x4E6F7420617574686F72697A6564000000000000000000000000000000000000 PUSH1 0x0 DUP3 ADD MSTORE POP JUMP JUMPDEST PUSH1 0x0 PUSH2 0x314D PUSH1 0xE DUP4 PUSH2 0x2973 JUMP JUMPDEST SWAP2 POP PUSH2 0x3158 DUP3 PUSH2 0x3117 JUMP JUMPDEST PUSH1 0x20 DUP3 ADD SWAP1 POP SWAP2 SWAP1 POP JUMP JUMPDEST PUSH1 0x0 PUSH1 0x20 DUP3 ADD SWAP1 POP DUP2 DUP2 SUB PUSH1 0x0 DUP4 ADD MSTORE PUSH2 0x317C DUP2 PUSH2 0x3140 JUMP JUMPDEST SWAP1 POP SWAP2 SWAP1 POP JUMP JUMPDEST PUSH32 0x53747564656E7420616C72656164792065786973747320696E2070656E64696E PUSH1 0x0 DUP3 ADD MSTORE PUSH32 0x67206C6973740000000000000000000000000000000000000000000000000000 PUSH1 0x20 DUP3 ADD MSTORE POP JUMP JUMPDEST PUSH1 0x0 PUSH2 0x31DF PUSH1 0x26 DUP4 PUSH2 0x2973 JUMP JUMPDEST SWAP2 POP PUSH2 0x31EA DUP3 PUSH2 0x3183 JUMP JUMPDEST PUSH1 0x40 DUP3 ADD SWAP1 POP SWAP2 SWAP1 POP JUMP JUMPDEST PUSH1 0x0 PUSH1 0x20 DUP3 ADD SWAP1 POP DUP2 DUP2 SUB PUSH1 0x0 DUP4 ADD MSTORE PUSH2 0x320E DUP2 PUSH2 0x31D2 JUMP JUMPDEST SWAP1 POP SWAP2 SWAP1 POP JUMP JUMPDEST PUSH1 0x0 DUP2 PUSH1 0x60 SHL SWAP1 POP SWAP2 SWAP1 POP JUMP JUMPDEST PUSH1 0x0 PUSH2 0x322D DUP3 PUSH2 0x3215 JUMP JUMPDEST SWAP1 POP SWAP2 SWAP1 POP JUMP JUMPDEST PUSH1 0x0 PUSH2 0x323F DUP3 PUSH2 0x3222 JUMP JUMPDEST SWAP1 POP SWAP2 SWAP1 POP JUMP JUMPDEST PUSH2 0x3257 PUSH2 0x3252 DUP3 PUSH2 0x26F9 JUMP JUMPDEST PUSH2 0x3234 JUMP JUMPDEST DUP3 MSTORE POP POP JUMP JUMPDEST PUSH1 0x0 DUP2 SWAP1 POP SWAP3 SWAP2 POP POP JUMP JUMPDEST PUSH1 0x0 PUSH2 0x3273 DUP3 PUSH2 0x2968 JUMP JUMPDEST PUSH2 0x327D DUP2 DUP6 PUSH2 0x325D JUMP JUMPDEST SWAP4 POP PUSH2 0x328D DUP2 DUP6 PUSH1 0x20 DUP7 ADD PUSH2 0x2984 JUMP JUMPDEST DUP1 DUP5 ADD SWAP2 POP POP SWAP3 SWAP2 POP POP JUMP JUMPDEST PUSH1 0x0 PUSH2 0x32A5 DUP3 DUP6 PUSH2 0x3246 JUMP JUMPDEST PUSH1 0x14 DUP3 ADD SWAP2 POP PUSH2 0x32B5 DUP3 DUP5 PUSH2 0x3268 JUMP JUMPDEST SWAP2 POP DUP2 SWAP1 POP SWAP4 SWAP3 POP POP POP JUMP JUMPDEST PUSH32 0x596F7520617265206E6F7420417574686F72697A656421000000000000000000 PUSH1 0x0 DUP3 ADD MSTORE POP JUMP JUMPDEST PUSH1 0x0 PUSH2 0x32F7 PUSH1 0x17 DUP4 PUSH2 0x2973 JUMP JUMPDEST SWAP2 POP PUSH2 0x3302 DUP3 PUSH2 0x32C1 JUMP JUMPDEST PUSH1 0x20 DUP3 ADD SWAP1 POP SWAP2 SWAP1 POP JUMP JUMPDEST PUSH1 0x0 PUSH1 0x20 DUP3 ADD SWAP1 POP DUP2 DUP2 SUB PUSH1 0x0 DUP4 ADD MSTORE PUSH2 0x3326 DUP2 PUSH2 0x32EA JUMP JUMPDEST SWAP1 POP SWAP2 SWAP1 POP JUMP JUMPDEST PUSH32 0x4E6F74207468652053747564656E74277320496E737469747574650000000000 PUSH1 0x0 DUP3 ADD MSTORE POP JUMP JUMPDEST PUSH1 0x0 PUSH2 0x3363 PUSH1 0x1B DUP4 PUSH2 0x2973 JUMP JUMPDEST SWAP2 POP PUSH2 0x336E DUP3 PUSH2 0x332D JUMP JUMPDEST PUSH1 0x20 DUP3 ADD SWAP1 POP SWAP2 SWAP1 POP JUMP JUMPDEST PUSH1 0x0 PUSH1 0x20 DUP3 ADD SWAP1 POP DUP2 DUP2 SUB PUSH1 0x0 DUP4 ADD MSTORE PUSH2 0x3392 DUP2 PUSH2 0x3356 JUMP JUMPDEST SWAP1 POP SWAP2 SWAP1 POP JUMP JUMPDEST PUSH32 0x4E6F742074686520537475656E74277320496E73746974757465000000000000 PUSH1 0x0 DUP3 ADD MSTORE POP JUMP JUMPDEST PUSH1 0x0 PUSH2 0x33CF PUSH1 0x1A DUP4 PUSH2 0x2973 JUMP JUMPDEST SWAP2 POP PUSH2 0x33DA DUP3 PUSH2 0x3399 JUMP JUMPDEST PUSH1 0x20 DUP3 ADD SWAP1 POP SWAP2 SWAP1 POP JUMP JUMPDEST PUSH1 0x0 PUSH1 0x20 DUP3 ADD SWAP1 POP DUP2 DUP2 SUB PUSH1 0x0 DUP4 ADD MSTORE PUSH2 0x33FE DUP2 PUSH2 0x33C2 JUMP JUMPDEST SWAP1 POP SWAP2 SWAP1 POP JUMP JUMPDEST PUSH1 0x0 PUSH1 0x60 DUP3 ADD SWAP1 POP PUSH2 0x341A PUSH1 0x0 DUP4 ADD DUP7 PUSH2 0x269B JUMP JUMPDEST PUSH2 0x3427 PUSH1 0x20 DUP4 ADD DUP6 PUSH2 0x2B88 JUMP JUMPDEST PUSH2 0x3434 PUSH1 0x40 DUP4 ADD DUP5 PUSH2 0x29F0 JUMP JUMPDEST SWAP5 SWAP4 POP POP POP POP JUMP JUMPDEST PUSH32 0x4661696C656420746F2061646420696E7374697475746520746F207374756465 PUSH1 0x0 DUP3 ADD MSTORE PUSH32 0x6E7420696E666F00000000000000000000000000000000000000000000000000 PUSH1 0x20 DUP3 ADD MSTORE POP JUMP JUMPDEST PUSH1 0x0 PUSH2 0x3498 PUSH1 0x27 DUP4 PUSH2 0x2973 JUMP JUMPDEST SWAP2 POP PUSH2 0x34A3 DUP3 PUSH2 0x343C JUMP JUMPDEST PUSH1 0x40 DUP3 ADD SWAP1 POP SWAP2 SWAP1 POP JUMP JUMPDEST PUSH1 0x0 PUSH1 0x20 DUP3 ADD SWAP1 POP DUP2 DUP2 SUB PUSH1 0x0 DUP4 ADD MSTORE PUSH2 0x34C7 DUP2 PUSH2 0x348B JUMP JUMPDEST SWAP1 POP SWAP2 SWAP1 POP JUMP JUMPDEST PUSH1 0x0 PUSH1 0x40 DUP3 ADD SWAP1 POP PUSH2 0x34E3 PUSH1 0x0 DUP4 ADD DUP6 PUSH2 0x269B JUMP JUMPDEST PUSH2 0x34F0 PUSH1 0x20 DUP4 ADD DUP5 PUSH2 0x2B88 JUMP JUMPDEST SWAP4 SWAP3 POP POP POP JUMP JUMPDEST PUSH32 0x4661696C656420746F2072656D6F766520696E737469747574652066726F6D20 PUSH1 0x0 DUP3 ADD MSTORE PUSH32 0x73747564656E7420696E666F0000000000000000000000000000000000000000 PUSH1 0x20 DUP3 ADD MSTORE POP JUMP JUMPDEST PUSH1 0x0 PUSH2 0x3553 PUSH1 0x2C DUP4 PUSH2 0x2973 JUMP JUMPDEST SWAP2 POP PUSH2 0x355E DUP3 PUSH2 0x34F7 JUMP JUMPDEST PUSH1 0x40 DUP3 ADD SWAP1 POP SWAP2 SWAP1 POP JUMP JUMPDEST PUSH1 0x0 PUSH1 0x20 DUP3 ADD SWAP1 POP DUP2 DUP2 SUB PUSH1 0x0 DUP4 ADD MSTORE PUSH2 0x3582 DUP2 PUSH2 0x3546 JUMP JUMPDEST SWAP1 POP SWAP2 SWAP1 POP JUMP INVALID LOG2 PUSH5 0x6970667358 0x22 SLT KECCAK256 0xC4 PUSH20 0xBFF754B5D99DF38E7E3337277110734DB601EA31 PUSH13 0xB7C80F77548C6C9E5364736F6C PUSH4 0x4300080A STOP CALLER "
    },
    "gasEstimates": {
      "creation": {
        "codeDepositCost": "2751800",
        "executionCost": "infinite",
        "totalCost": "infinite"
      },
      "external": {
        "CheckReturn(address,string)": "infinite",
        "MOE()": "2534",
        "StudentsCount()": "2469",
        "addStudToPending(string,address,string,string,address)": "infinite",
        "addTransferStudToPending(string,address,string,string,address,address)": "infinite",
        "checkFunction()": "infinite",
        "conditionCheck(address,string)": "infinite",
        "generateKey(address,string)": "infinite",
        "getPendingStudentByindex(uint256)": "infinite",
        "getPendingStudentsCount()": "2512",
        "getStudentContractByAddress(address)": "infinite",
        "getTransferStudentByindex(uint256)": "infinite",
        "getTransferStudentsCount()": "2578",
        "instregd()": "infinite",
        "isStudent(address)": "2971",
        "pendingStudentsarray(uint256)": "infinite",
        "removeGraduateStud(uint256,address,string)": "infinite",
        "studentRegisterContractAddress()": "2603",
        "studreg()": "infinite",
        "transferStudentsarray(uint256)": "infinite",
        "trialnumber()": "2540",
        "verifyTransferstudent(uint256)": "infinite",
        "verifystudent(uint256)": "infinite"
      }
    },
    "methodIdentifiers": {
      "CheckReturn(address,string)": "217fa765",
      "MOE()": "673a1746",
      "StudentsCount()": "20b260e3",
      "addStudToPending(string,address,string,string,address)": "78cfe85e",
      "addTransferStudToPending(string,address,string,string,address,address)": "b16f9023",
      "checkFunction()": "2ecca5fe",
      "conditionCheck(address,string)": "b91fa419",
      "generateKey(address,string)": "8a97503d",
      "getPendingStudentByindex(uint256)": "5b969a04",
      "getPendingStudentsCount()": "b1be843d",
      "getStudentContractByAddress(address)": "ca90543d",
      "getTransferStudentByindex(uint256)": "a4156aec",
      "getTransferStudentsCount()": "a2a1fee5",
      "instregd()": "bae0a585",
      "isStudent(address)": "82f7d392",
      "pendingStudentsarray(uint256)": "bd6a8504",
      "removeGraduateStud(uint256,address,string)": "f20bcf9a",
      "studentRegisterContractAddress()": "b7774c1a",
      "studreg()": "c865d881",
      "transferStudentsarray(uint256)": "548d434e",
      "trialnumber()": "911018ef",
      "verifyTransferstudent(uint256)": "da085b7a",
      "verifystudent(uint256)": "f00c848d"
    }
  },
  "storageLayout": {
    "storage": [
      {
        "astId": 2243,
        "contract": "verifystud.sol:verifystud",
        "label": "MOE",
        "offset": 0,
        "slot": "0",
        "type": "t_address"
      },
      {
        "astId": 2246,
        "contract": "verifystud.sol:verifystud",
        "label": "studreg",
        "offset": 0,
        "slot": "1",
        "type": "t_contract(registerStud)1202"
      },
      {
        "astId": 2249,
        "contract": "verifystud.sol:verifystud",
        "label": "instregd",
        "offset": 0,
        "slot": "2",
        "type": "t_contract(verifyinst)2233"
      },
      {
        "astId": 2251,
        "contract": "verifystud.sol:verifystud",
        "label": "studentRegisterContractAddress",
        "offset": 0,
        "slot": "3",
        "type": "t_address"
      },
      {
        "astId": 2254,
        "contract": "verifystud.sol:verifystud",
        "label": "trialnumber",
        "offset": 0,
        "slot": "4",
        "type": "t_uint256"
      },
      {
        "astId": 2309,
        "contract": "verifystud.sol:verifystud",
        "label": "pendingStudentsarray",
        "offset": 0,
        "slot": "5",
        "type": "t_array(t_struct(pendingstudents)2305_storage)dyn_storage"
      },
      {
        "astId": 2313,
        "contract": "verifystud.sol:verifystud",
        "label": "transferStudentsarray",
        "offset": 0,
        "slot": "6",
        "type": "t_array(t_struct(pendingstudents)2305_storage)dyn_storage"
      },
      {
        "astId": 2317,
        "contract": "verifystud.sol:verifystud",
        "label": "registeredStudentsmap",
        "offset": 0,
        "slot": "7",
        "type": "t_mapping(t_address,t_address)"
      },
      {
        "astId": 2320,
        "contract": "verifystud.sol:verifystud",
        "label": "registeredStudents",
        "offset": 0,
        "slot": "8",
        "type": "t_array(t_address)dyn_storage"
      }
    ],
    "types": {
      "t_address": {
        "encoding": "inplace",
        "label": "address",
        "numberOfBytes": "20"
      },
      "t_array(t_address)dyn_storage": {
        "base": "t_address",
        "encoding": "dynamic_array",
        "label": "address[]",
        "numberOfBytes": "32"
      },
      "t_array(t_struct(pendingstudents)2305_storage)dyn_storage": {
        "base": "t_struct(pendingstudents)2305_storage",
        "encoding": "dynamic_array",
        "label": "struct verifystud.pendingstudents[]",
        "numberOfBytes": "32"
      },
      "t_contract(registerStud)1202": {
        "encoding": "inplace",
        "label": "contract registerStud",
        "numberOfBytes": "20"
      },
      "t_contract(verifyinst)2233": {
        "encoding": "inplace",
        "label": "contract verifyinst",
        "numberOfBytes": "20"
      },
      "t_mapping(t_address,t_address)": {
        "encoding": "mapping",
        "key": "t_address",
        "label": "mapping(address => address)",
        "numberOfBytes": "32",
        "value": "t_address"
      },
      "t_string_storage": {
        "encoding": "bytes",
        "label": "string",
        "numberOfBytes": "32"
      },
      "t_struct(pendingstudents)2305_storage": {
        "encoding": "inplace",
        "label": "struct verifystud.pendingstudents",
        "members": [
          {
            "astId": 2296,
            "contract": "verifystud.sol:verifystud",
            "label": "name",
            "offset": 0,
            "slot": "0",
            "type": "t_string_storage"
          },
          {
            "astId": 2298,
            "contract": "verifystud.sol:verifystud",
            "label": "student_address",
            "offset": 0,
            "slot": "1",
            "type": "t_address"
          },
          {
            "astId": 2300,
            "contract": "verifystud.sol:verifystud",
            "label": "email",
            "offset": 0,
            "slot": "2",
            "type": "t_string_storage"
          },
          {
            "astId": 2302,
            "contract": "verifystud.sol:verifystud",
            "label": "id",
            "offset": 0,
            "slot": "3",
            "type": "t_string_storage"
          },
          {
            "astId": 2304,
            "contract": "verifystud.sol:verifystud",
            "label": "instAddress",
            "offset": 0,
            "slot": "4",
            "type": "t_address"
          }
        ],
        "numberOfBytes": "160"
      },
      "t_uint256": {
        "encoding": "inplace",
        "label": "uint256",
        "numberOfBytes": "32"
      }
    }
  },
  "userdoc": {
    "kind": "user",
    "methods": {},
    "version": 1
  }
}