{
  "abi": [
    {
      "inputs": [
        {
          "internalType": "address",
          "name": "_registerStudAddress",
          "type": "address"
        },
        {
          "internalType": "address",
          "name": "_registeredInstAddress",
          "type": "address"
        }
      ],
      "stateMutability": "nonpayable",
      "type": "constructor"
    },
    {
      "inputs": [
        {
          "internalType": "address",
          "name": "student_address",
          "type": "address"
        },
        {
          "internalType": "string",
          "name": "id",
          "type": "string"
        }
      ],
      "name": "CheckReturn",
      "outputs": [
        {
          "internalType": "bool",
          "name": "",
          "type": "bool"
        }
      ],
      "stateMutability": "view",
      "type": "function"
    },
    {
      "inputs": [],
      "name": "MOE",
      "outputs": [
        {
          "internalType": "address",
          "name": "",
          "type": "address"
        }
      ],
      "stateMutability": "view",
      "type": "function"
    },
    {
      "inputs": [],
      "name": "StudentsCount",
      "outputs": [
        {
          "internalType": "uint256",
          "name": "",
          "type": "uint256"
        }
      ],
      "stateMutability": "view",
      "type": "function"
    },
    {
      "inputs": [
        {
          "internalType": "string",
          "name": "_name",
          "type": "string"
        },
        {
          "internalType": "address",
          "name": "_student_address",
          "type": "address"
        },
        {
          "internalType": "string",
          "name": "_email",
          "type": "string"
        },
        {
          "internalType": "string",
          "name": "_id",
          "type": "string"
        },
        {
          "internalType": "address",
          "name": "_instAddress",
          "type": "address"
        }
      ],
      "name": "addStudToPending",
      "outputs": [],
      "stateMutability": "nonpayable",
      "type": "function"
    },
    {
      "inputs": [
        {
          "internalType": "string",
          "name": "_name",
          "type": "string"
        },
        {
          "internalType": "address",
          "name": "_student_address",
          "type": "address"
        },
        {
          "internalType": "string",
          "name": "_email",
          "type": "string"
        },
        {
          "internalType": "string",
          "name": "_id",
          "type": "string"
        },
        {
          "internalType": "address",
          "name": "_instAddress",
          "type": "address"
        }
      ],
      "name": "addTransferStudToPending",
      "outputs": [],
      "stateMutability": "nonpayable",
      "type": "function"
    },
    {
      "inputs": [],
      "name": "checkFunction",
      "outputs": [
        {
          "internalType": "bool",
          "name": "",
          "type": "bool"
        }
      ],
      "stateMutability": "view",
      "type": "function"
    },
    {
      "inputs": [
        {
          "internalType": "address",
          "name": "_address",
          "type": "address"
        },
        {
          "internalType": "string",
          "name": "_id",
          "type": "string"
        }
      ],
      "name": "generateKey",
      "outputs": [
        {
          "internalType": "bytes32",
          "name": "",
          "type": "bytes32"
        }
      ],
      "stateMutability": "pure",
      "type": "function"
    },
    {
      "inputs": [
        {
          "internalType": "uint256",
          "name": "index",
          "type": "uint256"
        }
      ],
      "name": "getPendingStudentByindex",
      "outputs": [
        {
          "internalType": "string",
          "name": "",
          "type": "string"
        },
        {
          "internalType": "address",
          "name": "",
          "type": "address"
        },
        {
          "internalType": "string",
          "name": "",
          "type": "string"
        },
        {
          "internalType": "string",
          "name": "",
          "type": "string"
        },
        {
          "internalType": "address",
          "name": "",
          "type": "address"
        }
      ],
      "stateMutability": "view",
      "type": "function"
    },
    {
      "inputs": [],
      "name": "getPendingStudentsCount",
      "outputs": [
        {
          "internalType": "uint256",
          "name": "",
          "type": "uint256"
        }
      ],
      "stateMutability": "view",
      "type": "function"
    },
    {
      "inputs": [
        {
          "internalType": "address",
          "name": "_employee",
          "type": "address"
        }
      ],
      "name": "getStudentContractByAddress",
      "outputs": [
        {
          "internalType": "address",
          "name": "",
          "type": "address"
        }
      ],
      "stateMutability": "view",
      "type": "function"
    },
    {
      "inputs": [
        {
          "internalType": "uint256",
          "name": "index",
          "type": "uint256"
        }
      ],
      "name": "getTransferStudentByindex",
      "outputs": [
        {
          "internalType": "string",
          "name": "",
          "type": "string"
        },
        {
          "internalType": "address",
          "name": "",
          "type": "address"
        },
        {
          "internalType": "string",
          "name": "",
          "type": "string"
        },
        {
          "internalType": "string",
          "name": "",
          "type": "string"
        },
        {
          "internalType": "address",
          "name": "",
          "type": "address"
        }
      ],
      "stateMutability": "view",
      "type": "function"
    },
    {
      "inputs": [],
      "name": "getTransferStudentsCount",
      "outputs": [
        {
          "internalType": "uint256",
          "name": "",
          "type": "uint256"
        }
      ],
      "stateMutability": "view",
      "type": "function"
    },
    {
      "inputs": [],
      "name": "instregd",
      "outputs": [
        {
          "internalType": "contract verifyinst",
          "name": "",
          "type": "address"
        }
      ],
      "stateMutability": "view",
      "type": "function"
    },
    {
      "inputs": [
        {
          "internalType": "address",
          "name": "_studentAddress",
          "type": "address"
        }
      ],
      "name": "isStudent",
      "outputs": [
        {
          "internalType": "bool",
          "name": "",
          "type": "bool"
        }
      ],
      "stateMutability": "view",
      "type": "function"
    },
    {
      "inputs": [
        {
          "internalType": "uint256",
          "name": "",
          "type": "uint256"
        }
      ],
      "name": "pendingStudentsarray",
      "outputs": [
        {
          "internalType": "string",
          "name": "name",
          "type": "string"
        },
        {
          "internalType": "address",
          "name": "student_address",
          "type": "address"
        },
        {
          "internalType": "string",
          "name": "email",
          "type": "string"
        },
        {
          "internalType": "string",
          "name": "id",
          "type": "string"
        },
        {
          "internalType": "address",
          "name": "instAddress",
          "type": "address"
        }
      ],
      "stateMutability": "view",
      "type": "function"
    },
    {
      "inputs": [
        {
          "internalType": "uint256",
          "name": "index",
          "type": "uint256"
        },
        {
          "internalType": "address",
          "name": "student_address",
          "type": "address"
        },
        {
          "internalType": "string",
          "name": "id",
          "type": "string"
        }
      ],
      "name": "removeGraduateStud",
      "outputs": [],
      "stateMutability": "nonpayable",
      "type": "function"
    },
    {
      "inputs": [],
      "name": "studentRegisterContractAddress",
      "outputs": [
        {
          "internalType": "address",
          "name": "",
          "type": "address"
        }
      ],
      "stateMutability": "view",
      "type": "function"
    },
    {
      "inputs": [],
      "name": "studreg",
      "outputs": [
        {
          "internalType": "contract registerStud",
          "name": "",
          "type": "address"
        }
      ],
      "stateMutability": "view",
      "type": "function"
    },
    {
      "inputs": [
        {
          "internalType": "uint256",
          "name": "",
          "type": "uint256"
        }
      ],
      "name": "transferStudentsarray",
      "outputs": [
        {
          "internalType": "string",
          "name": "name",
          "type": "string"
        },
        {
          "internalType": "address",
          "name": "student_address",
          "type": "address"
        },
        {
          "internalType": "string",
          "name": "email",
          "type": "string"
        },
        {
          "internalType": "string",
          "name": "id",
          "type": "string"
        },
        {
          "internalType": "address",
          "name": "instAddress",
          "type": "address"
        }
      ],
      "stateMutability": "view",
      "type": "function"
    },
    {
      "inputs": [],
      "name": "trialnumber",
      "outputs": [
        {
          "internalType": "uint256",
          "name": "",
          "type": "uint256"
        }
      ],
      "stateMutability": "view",
      "type": "function"
    },
    {
      "inputs": [
        {
          "internalType": "uint256",
          "name": "index",
          "type": "uint256"
        }
      ],
      "name": "verifyTransferstudent",
      "outputs": [],
      "stateMutability": "nonpayable",
      "type": "function"
    },
    {
      "inputs": [
        {
          "internalType": "uint256",
          "name": "index",
          "type": "uint256"
        }
      ],
      "name": "verifystudent",
      "outputs": [],
      "stateMutability": "nonpayable",
      "type": "function"
    }
  ],
  "devdoc": {
    "kind": "dev",
    "methods": {},
    "version": 1
  },
  "evm": {
    "assembly": "    /* \"verifystud.sol\":200:7570  contract verifystud {... */\n  mstore(0x40, 0x80)\n    /* \"verifystud.sol\":431:432  0 */\n  0x00\n    /* \"verifystud.sol\":402:432  uint256 public trialnumber = 0 */\n  0x04\n  sstore\n    /* \"verifystud.sol\":441:725  constructor(address _registerStudAddress, address _registeredInstAddress) {... */\n  callvalue\n  dup1\n  iszero\n  tag_1\n  jumpi\n  0x00\n  dup1\n  revert\ntag_1:\n  pop\n  mload(0x40)\n  sub(codesize, bytecodeSize)\n  dup1\n  bytecodeSize\n  dup4\n  codecopy\n  dup2\n  dup2\n  add\n  0x40\n  mstore\n  dup2\n  add\n  swap1\n  tag_2\n  swap2\n  swap1\n  tag_3\n  jump\t// in\ntag_2:\n    /* \"verifystud.sol\":532:542  msg.sender */\n  caller\n    /* \"verifystud.sol\":526:529  MOE */\n  0x00\n  dup1\n    /* \"verifystud.sol\":526:542  MOE = msg.sender */\n  0x0100\n  exp\n  dup2\n  sload\n  dup2\n  0xffffffffffffffffffffffffffffffffffffffff\n  mul\n  not\n  and\n  swap1\n  dup4\n  0xffffffffffffffffffffffffffffffffffffffff\n  and\n  mul\n  or\n  swap1\n  sstore\n  pop\n    /* \"verifystud.sol\":586:606  _registerStudAddress */\n  dup2\n    /* \"verifystud.sol\":553:583  studentRegisterContractAddress */\n  0x03\n  0x00\n    /* \"verifystud.sol\":553:606  studentRegisterContractAddress = _registerStudAddress */\n  0x0100\n  exp\n  dup2\n  sload\n  dup2\n  0xffffffffffffffffffffffffffffffffffffffff\n  mul\n  not\n  and\n  swap1\n  dup4\n  0xffffffffffffffffffffffffffffffffffffffff\n  and\n  mul\n  or\n  swap1\n  sstore\n  pop\n    /* \"verifystud.sol\":640:660  _registerStudAddress */\n  dup2\n    /* \"verifystud.sol\":617:624  studreg */\n  0x01\n  0x00\n    /* \"verifystud.sol\":617:661  studreg = registerStud(_registerStudAddress) */\n  0x0100\n  exp\n  dup2\n  sload\n  dup2\n  0xffffffffffffffffffffffffffffffffffffffff\n  mul\n  not\n  and\n  swap1\n  dup4\n  0xffffffffffffffffffffffffffffffffffffffff\n  and\n  mul\n  or\n  swap1\n  sstore\n  pop\n    /* \"verifystud.sol\":694:716  _registeredInstAddress */\n  dup1\n    /* \"verifystud.sol\":672:680  instregd */\n  0x02\n  0x00\n    /* \"verifystud.sol\":672:717  instregd = verifyinst(_registeredInstAddress) */\n  0x0100\n  exp\n  dup2\n  sload\n  dup2\n  0xffffffffffffffffffffffffffffffffffffffff\n  mul\n  not\n  and\n  swap1\n  dup4\n  0xffffffffffffffffffffffffffffffffffffffff\n  and\n  mul\n  or\n  swap1\n  sstore\n  pop\n    /* \"verifystud.sol\":441:725  constructor(address _registerStudAddress, address _registeredInstAddress) {... */\n  pop\n  pop\n    /* \"verifystud.sol\":200:7570  contract verifystud {... */\n  jump(tag_6)\n    /* \"#utility.yul\":88:205   */\ntag_8:\n    /* \"#utility.yul\":197:198   */\n  0x00\n    /* \"#utility.yul\":194:195   */\n  dup1\n    /* \"#utility.yul\":187:199   */\n  revert\n    /* \"#utility.yul\":334:460   */\ntag_10:\n    /* \"#utility.yul\":371:378   */\n  0x00\n    /* \"#utility.yul\":411:453   */\n  0xffffffffffffffffffffffffffffffffffffffff\n    /* \"#utility.yul\":404:409   */\n  dup3\n    /* \"#utility.yul\":400:454   */\n  and\n    /* \"#utility.yul\":389:454   */\n  swap1\n  pop\n    /* \"#utility.yul\":334:460   */\n  swap2\n  swap1\n  pop\n  jump\t// out\n    /* \"#utility.yul\":466:562   */\ntag_11:\n    /* \"#utility.yul\":503:510   */\n  0x00\n    /* \"#utility.yul\":532:556   */\n  tag_20\n    /* \"#utility.yul\":550:555   */\n  dup3\n    /* \"#utility.yul\":532:556   */\n  tag_10\n  jump\t// in\ntag_20:\n    /* \"#utility.yul\":521:556   */\n  swap1\n  pop\n    /* \"#utility.yul\":466:562   */\n  swap2\n  swap1\n  pop\n  jump\t// out\n    /* \"#utility.yul\":568:690   */\ntag_12:\n    /* \"#utility.yul\":641:665   */\n  tag_22\n    /* \"#utility.yul\":659:664   */\n  dup2\n    /* \"#utility.yul\":641:665   */\n  tag_11\n  jump\t// in\ntag_22:\n    /* \"#utility.yul\":634:639   */\n  dup2\n    /* \"#utility.yul\":631:666   */\n  eq\n    /* \"#utility.yul\":621:684   */\n  tag_23\n  jumpi\n    /* \"#utility.yul\":680:681   */\n  0x00\n    /* \"#utility.yul\":677:678   */\n  dup1\n    /* \"#utility.yul\":670:682   */\n  revert\n    /* \"#utility.yul\":621:684   */\ntag_23:\n    /* \"#utility.yul\":568:690   */\n  pop\n  jump\t// out\n    /* \"#utility.yul\":696:839   */\ntag_13:\n    /* \"#utility.yul\":753:758   */\n  0x00\n    /* \"#utility.yul\":784:790   */\n  dup2\n    /* \"#utility.yul\":778:791   */\n  mload\n    /* \"#utility.yul\":769:791   */\n  swap1\n  pop\n    /* \"#utility.yul\":800:833   */\n  tag_25\n    /* \"#utility.yul\":827:832   */\n  dup2\n    /* \"#utility.yul\":800:833   */\n  tag_12\n  jump\t// in\ntag_25:\n    /* \"#utility.yul\":696:839   */\n  swap3\n  swap2\n  pop\n  pop\n  jump\t// out\n    /* \"#utility.yul\":845:1352   */\ntag_3:\n    /* \"#utility.yul\":924:930   */\n  0x00\n    /* \"#utility.yul\":932:938   */\n  dup1\n    /* \"#utility.yul\":981:983   */\n  0x40\n    /* \"#utility.yul\":969:978   */\n  dup4\n    /* \"#utility.yul\":960:967   */\n  dup6\n    /* \"#utility.yul\":956:979   */\n  sub\n    /* \"#utility.yul\":952:984   */\n  slt\n    /* \"#utility.yul\":949:1068   */\n  iszero\n  tag_27\n  jumpi\n    /* \"#utility.yul\":987:1066   */\n  tag_28\n  tag_8\n  jump\t// in\ntag_28:\n    /* \"#utility.yul\":949:1068   */\ntag_27:\n    /* \"#utility.yul\":1107:1108   */\n  0x00\n    /* \"#utility.yul\":1132:1196   */\n  tag_29\n    /* \"#utility.yul\":1188:1195   */\n  dup6\n    /* \"#utility.yul\":1179:1185   */\n  dup3\n    /* \"#utility.yul\":1168:1177   */\n  dup7\n    /* \"#utility.yul\":1164:1186   */\n  add\n    /* \"#utility.yul\":1132:1196   */\n  tag_13\n  jump\t// in\ntag_29:\n    /* \"#utility.yul\":1122:1196   */\n  swap3\n  pop\n    /* \"#utility.yul\":1078:1206   */\n  pop\n    /* \"#utility.yul\":1245:1247   */\n  0x20\n    /* \"#utility.yul\":1271:1335   */\n  tag_30\n    /* \"#utility.yul\":1327:1334   */\n  dup6\n    /* \"#utility.yul\":1318:1324   */\n  dup3\n    /* \"#utility.yul\":1307:1316   */\n  dup7\n    /* \"#utility.yul\":1303:1325   */\n  add\n    /* \"#utility.yul\":1271:1335   */\n  tag_13\n  jump\t// in\ntag_30:\n    /* \"#utility.yul\":1261:1335   */\n  swap2\n  pop\n    /* \"#utility.yul\":1216:1345   */\n  pop\n    /* \"#utility.yul\":845:1352   */\n  swap3\n  pop\n  swap3\n  swap1\n  pop\n  jump\t// out\n    /* \"verifystud.sol\":200:7570  contract verifystud {... */\ntag_6:\n  dataSize(sub_0)\n  dup1\n  dataOffset(sub_0)\n  0x00\n  codecopy\n  0x00\n  return\nstop\n\nsub_0: assembly {\n        /* \"verifystud.sol\":200:7570  contract verifystud {... */\n      mstore(0x40, 0x80)\n      callvalue\n      dup1\n      iszero\n      tag_1\n      jumpi\n      0x00\n      dup1\n      revert\n    tag_1:\n      pop\n      jumpi(tag_2, lt(calldatasize, 0x04))\n      shr(0xe0, calldataload(0x00))\n      dup1\n      0xa2a1fee5\n      gt\n      tag_25\n      jumpi\n      dup1\n      0xbd6a8504\n      gt\n      tag_26\n      jumpi\n      dup1\n      0xbd6a8504\n      eq\n      tag_19\n      jumpi\n      dup1\n      0xc865d881\n      eq\n      tag_20\n      jumpi\n      dup1\n      0xca90543d\n      eq\n      tag_21\n      jumpi\n      dup1\n      0xda085b7a\n      eq\n      tag_22\n      jumpi\n      dup1\n      0xf00c848d\n      eq\n      tag_23\n      jumpi\n      dup1\n      0xf20bcf9a\n      eq\n      tag_24\n      jumpi\n      jump(tag_2)\n    tag_26:\n      dup1\n      0xa2a1fee5\n      eq\n      tag_14\n      jumpi\n      dup1\n      0xa4156aec\n      eq\n      tag_15\n      jumpi\n      dup1\n      0xb1be843d\n      eq\n      tag_16\n      jumpi\n      dup1\n      0xb7774c1a\n      eq\n      tag_17\n      jumpi\n      dup1\n      0xbae0a585\n      eq\n      tag_18\n      jumpi\n      jump(tag_2)\n    tag_25:\n      dup1\n      0x673a1746\n      gt\n      tag_27\n      jumpi\n      dup1\n      0x673a1746\n      eq\n      tag_8\n      jumpi\n      dup1\n      0x78cfe85e\n      eq\n      tag_9\n      jumpi\n      dup1\n      0x82f7d392\n      eq\n      tag_10\n      jumpi\n      dup1\n      0x85af95ed\n      eq\n      tag_11\n      jumpi\n      dup1\n      0x8a97503d\n      eq\n      tag_12\n      jumpi\n      dup1\n      0x911018ef\n      eq\n      tag_13\n      jumpi\n      jump(tag_2)\n    tag_27:\n      dup1\n      0x20b260e3\n      eq\n      tag_3\n      jumpi\n      dup1\n      0x217fa765\n      eq\n      tag_4\n      jumpi\n      dup1\n      0x2ecca5fe\n      eq\n      tag_5\n      jumpi\n      dup1\n      0x548d434e\n      eq\n      tag_6\n      jumpi\n      dup1\n      0x5b969a04\n      eq\n      tag_7\n      jumpi\n    tag_2:\n      0x00\n      dup1\n      revert\n        /* \"verifystud.sol\":6870:6976  function StudentsCount() public view returns (uint256) {... */\n    tag_3:\n      tag_28\n      tag_29\n      jump\t// in\n    tag_28:\n      mload(0x40)\n      tag_30\n      swap2\n      swap1\n      tag_31\n      jump\t// in\n    tag_30:\n      mload(0x40)\n      dup1\n      swap2\n      sub\n      swap1\n      return\n        /* \"verifystud.sol\":1996:2329  function CheckReturn(address student_address,string memory id) public view returns (bool){... */\n    tag_4:\n      tag_32\n      0x04\n      dup1\n      calldatasize\n      sub\n      dup2\n      add\n      swap1\n      tag_33\n      swap2\n      swap1\n      tag_34\n      jump\t// in\n    tag_33:\n      tag_35\n      jump\t// in\n    tag_32:\n      mload(0x40)\n      tag_36\n      swap2\n      swap1\n      tag_37\n      jump\t// in\n    tag_36:\n      mload(0x40)\n      dup1\n      swap2\n      sub\n      swap1\n      return\n        /* \"verifystud.sol\":7150:7285  function checkFunction() public view returns(bool){... */\n    tag_5:\n      tag_38\n      tag_39\n      jump\t// in\n    tag_38:\n      mload(0x40)\n      tag_40\n      swap2\n      swap1\n      tag_37\n      jump\t// in\n    tag_40:\n      mload(0x40)\n      dup1\n      swap2\n      sub\n      swap1\n      return\n        /* \"verifystud.sol\":1035:1081  pendingstudents[] public transferStudentsarray */\n    tag_6:\n      tag_41\n      0x04\n      dup1\n      calldatasize\n      sub\n      dup2\n      add\n      swap1\n      tag_42\n      swap2\n      swap1\n      tag_43\n      jump\t// in\n    tag_42:\n      tag_44\n      jump\t// in\n    tag_41:\n      mload(0x40)\n      tag_45\n      swap6\n      swap5\n      swap4\n      swap3\n      swap2\n      swap1\n      tag_46\n      jump\t// in\n    tag_45:\n      mload(0x40)\n      dup1\n      swap2\n      sub\n      swap1\n      return\n        /* \"verifystud.sol\":5627:6166  function getPendingStudentByindex(... */\n    tag_7:\n      tag_47\n      0x04\n      dup1\n      calldatasize\n      sub\n      dup2\n      add\n      swap1\n      tag_48\n      swap2\n      swap1\n      tag_43\n      jump\t// in\n    tag_48:\n      tag_49\n      jump\t// in\n    tag_47:\n      mload(0x40)\n      tag_50\n      swap6\n      swap5\n      swap4\n      swap3\n      swap2\n      swap1\n      tag_46\n      jump\t// in\n    tag_50:\n      mload(0x40)\n      dup1\n      swap2\n      sub\n      swap1\n      return\n        /* \"verifystud.sol\":227:245  address public MOE */\n    tag_8:\n      tag_51\n      tag_52\n      jump\t// in\n    tag_51:\n      mload(0x40)\n      tag_53\n      swap2\n      swap1\n      tag_54\n      jump\t// in\n    tag_53:\n      mload(0x40)\n      dup1\n      swap2\n      sub\n      swap1\n      return\n        /* \"verifystud.sol\":1433:1990  function addStudToPending(string memory _name, address _student_address, string memory _email, string memory _id, address _instAddress) public onlystudent{... */\n    tag_9:\n      tag_55\n      0x04\n      dup1\n      calldatasize\n      sub\n      dup2\n      add\n      swap1\n      tag_56\n      swap2\n      swap1\n      tag_57\n      jump\t// in\n    tag_56:\n      tag_58\n      jump\t// in\n    tag_55:\n      stop\n        /* \"verifystud.sol\":6703:6854  function isStudent(address _studentAddress) public view returns (bool) {... */\n    tag_10:\n      tag_59\n      0x04\n      dup1\n      calldatasize\n      sub\n      dup2\n      add\n      swap1\n      tag_60\n      swap2\n      swap1\n      tag_61\n      jump\t// in\n    tag_60:\n      tag_62\n      jump\t// in\n    tag_59:\n      mload(0x40)\n      tag_63\n      swap2\n      swap1\n      tag_37\n      jump\t// in\n    tag_63:\n      mload(0x40)\n      dup1\n      swap2\n      sub\n      swap1\n      return\n        /* \"verifystud.sol\":2337:3110  function addTransferStudToPending(string memory _name, address _student_address, string memory _email, string memory _id, address _instAddress) public onlyverfiedInstitute{... */\n    tag_11:\n      tag_64\n      0x04\n      dup1\n      calldatasize\n      sub\n      dup2\n      add\n      swap1\n      tag_65\n      swap2\n      swap1\n      tag_57\n      jump\t// in\n    tag_65:\n      tag_66\n      jump\t// in\n    tag_64:\n      stop\n        /* \"verifystud.sol\":1244:1425  function generateKey(... */\n    tag_12:\n      tag_67\n      0x04\n      dup1\n      calldatasize\n      sub\n      dup2\n      add\n      swap1\n      tag_68\n      swap2\n      swap1\n      tag_34\n      jump\t// in\n    tag_68:\n      tag_69\n      jump\t// in\n    tag_67:\n      mload(0x40)\n      tag_70\n      swap2\n      swap1\n      tag_71\n      jump\t// in\n    tag_70:\n      mload(0x40)\n      dup1\n      swap2\n      sub\n      swap1\n      return\n        /* \"verifystud.sol\":402:432  uint256 public trialnumber = 0 */\n    tag_13:\n      tag_72\n      tag_73\n      jump\t// in\n    tag_72:\n      mload(0x40)\n      tag_74\n      swap2\n      swap1\n      tag_31\n      jump\t// in\n    tag_74:\n      mload(0x40)\n      dup1\n      swap2\n      sub\n      swap1\n      return\n        /* \"verifystud.sol\":5368:5488  function getTransferStudentsCount() public view returns (uint256) {... */\n    tag_14:\n      tag_75\n      tag_76\n      jump\t// in\n    tag_75:\n      mload(0x40)\n      tag_77\n      swap2\n      swap1\n      tag_31\n      jump\t// in\n    tag_77:\n      mload(0x40)\n      dup1\n      swap2\n      sub\n      swap1\n      return\n        /* \"verifystud.sol\":6174:6695  function getTransferStudentByindex(... */\n    tag_15:\n      tag_78\n      0x04\n      dup1\n      calldatasize\n      sub\n      dup2\n      add\n      swap1\n      tag_79\n      swap2\n      swap1\n      tag_43\n      jump\t// in\n    tag_79:\n      tag_80\n      jump\t// in\n    tag_78:\n      mload(0x40)\n      tag_81\n      swap6\n      swap5\n      swap4\n      swap3\n      swap2\n      swap1\n      tag_46\n      jump\t// in\n    tag_81:\n      mload(0x40)\n      dup1\n      swap2\n      sub\n      swap1\n      return\n        /* \"verifystud.sol\":5496:5614  function getPendingStudentsCount() public view returns (uint256) {... */\n    tag_16:\n      tag_82\n      tag_83\n      jump\t// in\n    tag_82:\n      mload(0x40)\n      tag_84\n      swap2\n      swap1\n      tag_31\n      jump\t// in\n    tag_84:\n      mload(0x40)\n      dup1\n      swap2\n      sub\n      swap1\n      return\n        /* \"verifystud.sol\":319:364  address public studentRegisterContractAddress */\n    tag_17:\n      tag_85\n      tag_86\n      jump\t// in\n    tag_85:\n      mload(0x40)\n      tag_87\n      swap2\n      swap1\n      tag_54\n      jump\t// in\n    tag_87:\n      mload(0x40)\n      dup1\n      swap2\n      sub\n      swap1\n      return\n        /* \"verifystud.sol\":286:312  verifyinst public instregd */\n    tag_18:\n      tag_88\n      tag_89\n      jump\t// in\n    tag_88:\n      mload(0x40)\n      tag_90\n      swap2\n      swap1\n      tag_91\n      jump\t// in\n    tag_90:\n      mload(0x40)\n      dup1\n      swap2\n      sub\n      swap1\n      return\n        /* \"verifystud.sol\":983:1028  pendingstudents[] public pendingStudentsarray */\n    tag_19:\n      tag_92\n      0x04\n      dup1\n      calldatasize\n      sub\n      dup2\n      add\n      swap1\n      tag_93\n      swap2\n      swap1\n      tag_43\n      jump\t// in\n    tag_93:\n      tag_94\n      jump\t// in\n    tag_92:\n      mload(0x40)\n      tag_95\n      swap6\n      swap5\n      swap4\n      swap3\n      swap2\n      swap1\n      tag_46\n      jump\t// in\n    tag_95:\n      mload(0x40)\n      dup1\n      swap2\n      sub\n      swap1\n      return\n        /* \"verifystud.sol\":252:279  registerStud public studreg */\n    tag_20:\n      tag_96\n      tag_97\n      jump\t// in\n    tag_96:\n      mload(0x40)\n      tag_98\n      swap2\n      swap1\n      tag_99\n      jump\t// in\n    tag_98:\n      mload(0x40)\n      dup1\n      swap2\n      sub\n      swap1\n      return\n        /* \"verifystud.sol\":6984:7144  function getStudentContractByAddress(... */\n    tag_21:\n      tag_100\n      0x04\n      dup1\n      calldatasize\n      sub\n      dup2\n      add\n      swap1\n      tag_101\n      swap2\n      swap1\n      tag_61\n      jump\t// in\n    tag_101:\n      tag_102\n      jump\t// in\n    tag_100:\n      mload(0x40)\n      tag_103\n      swap2\n      swap1\n      tag_54\n      jump\t// in\n    tag_103:\n      mload(0x40)\n      dup1\n      swap2\n      sub\n      swap1\n      return\n        /* \"verifystud.sol\":4018:4899  function verifyTransferstudent(uint256 index) public {... */\n    tag_22:\n      tag_104\n      0x04\n      dup1\n      calldatasize\n      sub\n      dup2\n      add\n      swap1\n      tag_105\n      swap2\n      swap1\n      tag_43\n      jump\t// in\n    tag_105:\n      tag_106\n      jump\t// in\n    tag_104:\n      stop\n        /* \"verifystud.sol\":3118:4009  function verifystudent(uint256 index) public onlyverfiedInstitute  {... */\n    tag_23:\n      tag_107\n      0x04\n      dup1\n      calldatasize\n      sub\n      dup2\n      add\n      swap1\n      tag_108\n      swap2\n      swap1\n      tag_43\n      jump\t// in\n    tag_108:\n      tag_109\n      jump\t// in\n    tag_107:\n      stop\n        /* \"verifystud.sol\":4905:5360  function removeGraduateStud(uint256 index,address student_address,string memory id) public {... */\n    tag_24:\n      tag_110\n      0x04\n      dup1\n      calldatasize\n      sub\n      dup2\n      add\n      swap1\n      tag_111\n      swap2\n      swap1\n      tag_112\n      jump\t// in\n    tag_111:\n      tag_113\n      jump\t// in\n    tag_110:\n      stop\n        /* \"verifystud.sol\":6870:6976  function StudentsCount() public view returns (uint256) {... */\n    tag_29:\n        /* \"verifystud.sol\":6916:6923  uint256 */\n      0x00\n        /* \"verifystud.sol\":6943:6961  registeredStudents */\n      0x08\n        /* \"verifystud.sol\":6943:6968  registeredStudents.length */\n      dup1\n      sload\n      swap1\n      pop\n        /* \"verifystud.sol\":6936:6968  return registeredStudents.length */\n      swap1\n      pop\n        /* \"verifystud.sol\":6870:6976  function StudentsCount() public view returns (uint256) {... */\n      swap1\n      jump\t// out\n        /* \"verifystud.sol\":1996:2329  function CheckReturn(address student_address,string memory id) public view returns (bool){... */\n    tag_35:\n        /* \"verifystud.sol\":2080:2084  bool */\n      0x00\n        /* \"verifystud.sol\":2096:2107  bytes32 key */\n      dup1\n        /* \"verifystud.sol\":2110:2117  studreg */\n      0x01\n      0x00\n      swap1\n      sload\n      swap1\n      0x0100\n      exp\n      swap1\n      div\n      0xffffffffffffffffffffffffffffffffffffffff\n      and\n        /* \"verifystud.sol\":2110:2129  studreg.generateKey */\n      0xffffffffffffffffffffffffffffffffffffffff\n      and\n      0x8a97503d\n        /* \"verifystud.sol\":2144:2159  student_address */\n      dup6\n        /* \"verifystud.sol\":2174:2176  id */\n      dup6\n        /* \"verifystud.sol\":2110:2187  studreg.generateKey(... */\n      mload(0x40)\n      dup4\n      0xffffffff\n      and\n      0xe0\n      shl\n      dup2\n      mstore\n      0x04\n      add\n      tag_116\n      swap3\n      swap2\n      swap1\n      tag_117\n      jump\t// in\n    tag_116:\n      0x20\n      mload(0x40)\n      dup1\n      dup4\n      sub\n      dup2\n      dup7\n      gas\n      staticcall\n      iszero\n      dup1\n      iszero\n      tag_119\n      jumpi\n      returndatasize\n      0x00\n      dup1\n      returndatacopy\n      revert(0x00, returndatasize)\n    tag_119:\n      pop\n      pop\n      pop\n      pop\n      mload(0x40)\n      returndatasize\n      not(0x1f)\n      0x1f\n      dup3\n      add\n      and\n      dup3\n      add\n      dup1\n      0x40\n      mstore\n      pop\n      dup2\n      add\n      swap1\n      tag_120\n      swap2\n      swap1\n      tag_121\n      jump\t// in\n    tag_120:\n        /* \"verifystud.sol\":2096:2187  bytes32 key = studreg.generateKey(... */\n      swap1\n      pop\n        /* \"verifystud.sol\":2203:2229  address currentInstAddress */\n      0x00\n        /* \"verifystud.sol\":2231:2238  studreg */\n      0x01\n      0x00\n      swap1\n      sload\n      swap1\n      0x0100\n      exp\n      swap1\n      div\n      0xffffffffffffffffffffffffffffffffffffffff\n      and\n        /* \"verifystud.sol\":2231:2264  studreg.getRegisteredStudentByKey */\n      0xffffffffffffffffffffffffffffffffffffffff\n      and\n      0x435df20d\n        /* \"verifystud.sol\":2265:2268  key */\n      dup4\n        /* \"verifystud.sol\":2231:2269  studreg.getRegisteredStudentByKey(key) */\n      mload(0x40)\n      dup3\n      0xffffffff\n      and\n      0xe0\n      shl\n      dup2\n      mstore\n      0x04\n      add\n      tag_122\n      swap2\n      swap1\n      tag_71\n      jump\t// in\n    tag_122:\n      0x00\n      mload(0x40)\n      dup1\n      dup4\n      sub\n      dup2\n      dup7\n      gas\n      staticcall\n      iszero\n      dup1\n      iszero\n      tag_124\n      jumpi\n      returndatasize\n      0x00\n      dup1\n      returndatacopy\n      revert(0x00, returndatasize)\n    tag_124:\n      pop\n      pop\n      pop\n      pop\n      mload(0x40)\n      returndatasize\n      0x00\n      dup3\n      returndatacopy\n      returndatasize\n      not(0x1f)\n      0x1f\n      dup3\n      add\n      and\n      dup3\n      add\n      dup1\n      0x40\n      mstore\n      pop\n      dup2\n      add\n      swap1\n      tag_125\n      swap2\n      swap1\n      tag_126\n      jump\t// in\n    tag_125:\n        /* \"verifystud.sol\":2198:2269  (,,,,address currentInstAddress)=studreg.getRegisteredStudentByKey(key) */\n      swap5\n      pop\n      pop\n      pop\n      pop\n      pop\n        /* \"verifystud.sol\":2302:2320  currentInstAddress */\n      dup1\n        /* \"verifystud.sol\":2288:2320  msg.sender == currentInstAddress */\n      0xffffffffffffffffffffffffffffffffffffffff\n      and\n        /* \"verifystud.sol\":2288:2298  msg.sender */\n      caller\n        /* \"verifystud.sol\":2288:2320  msg.sender == currentInstAddress */\n      0xffffffffffffffffffffffffffffffffffffffff\n      and\n      eq\n        /* \"verifystud.sol\":2280:2321  return (msg.sender == currentInstAddress) */\n      swap3\n      pop\n      pop\n      pop\n        /* \"verifystud.sol\":1996:2329  function CheckReturn(address student_address,string memory id) public view returns (bool){... */\n      swap3\n      swap2\n      pop\n      pop\n      jump\t// out\n        /* \"verifystud.sol\":7150:7285  function checkFunction() public view returns(bool){... */\n    tag_39:\n        /* \"verifystud.sol\":7195:7199  bool */\n      0x00\n        /* \"verifystud.sol\":7272:7273  0 */\n      dup1\n        /* \"verifystud.sol\":7218:7274  instregd.registeredinstitutesmap(msg.sender)!=address(0) */\n      0xffffffffffffffffffffffffffffffffffffffff\n      and\n        /* \"verifystud.sol\":7218:7226  instregd */\n      0x02\n      0x00\n      swap1\n      sload\n      swap1\n      0x0100\n      exp\n      swap1\n      div\n      0xffffffffffffffffffffffffffffffffffffffff\n      and\n        /* \"verifystud.sol\":7218:7250  instregd.registeredinstitutesmap */\n      0xffffffffffffffffffffffffffffffffffffffff\n      and\n      0x839f602d\n        /* \"verifystud.sol\":7251:7261  msg.sender */\n      caller\n        /* \"verifystud.sol\":7218:7262  instregd.registeredinstitutesmap(msg.sender) */\n      mload(0x40)\n      dup3\n      0xffffffff\n      and\n      0xe0\n      shl\n      dup2\n      mstore\n      0x04\n      add\n      tag_128\n      swap2\n      swap1\n      tag_54\n      jump\t// in\n    tag_128:\n      0x20\n      mload(0x40)\n      dup1\n      dup4\n      sub\n      dup2\n      dup7\n      gas\n      staticcall\n      iszero\n      dup1\n      iszero\n      tag_130\n      jumpi\n      returndatasize\n      0x00\n      dup1\n      returndatacopy\n      revert(0x00, returndatasize)\n    tag_130:\n      pop\n      pop\n      pop\n      pop\n      mload(0x40)\n      returndatasize\n      not(0x1f)\n      0x1f\n      dup3\n      add\n      and\n      dup3\n      add\n      dup1\n      0x40\n      mstore\n      pop\n      dup2\n      add\n      swap1\n      tag_131\n      swap2\n      swap1\n      tag_132\n      jump\t// in\n    tag_131:\n        /* \"verifystud.sol\":7218:7274  instregd.registeredinstitutesmap(msg.sender)!=address(0) */\n      0xffffffffffffffffffffffffffffffffffffffff\n      and\n      eq\n      iszero\n        /* \"verifystud.sol\":7211:7275  return(instregd.registeredinstitutesmap(msg.sender)!=address(0)) */\n      swap1\n      pop\n        /* \"verifystud.sol\":7150:7285  function checkFunction() public view returns(bool){... */\n      swap1\n      jump\t// out\n        /* \"verifystud.sol\":1035:1081  pendingstudents[] public transferStudentsarray */\n    tag_44:\n      0x06\n      dup2\n      dup2\n      sload\n      dup2\n      lt\n      tag_133\n      jumpi\n      0x00\n      dup1\n      revert\n    tag_133:\n      swap1\n      0x00\n      mstore\n      keccak256(0x00, 0x20)\n      swap1\n      0x05\n      mul\n      add\n      0x00\n      swap2\n      pop\n      swap1\n      pop\n      dup1\n      0x00\n      add\n      dup1\n      sload\n      tag_135\n      swap1\n      tag_136\n      jump\t// in\n    tag_135:\n      dup1\n      0x1f\n      add\n      0x20\n      dup1\n      swap2\n      div\n      mul\n      0x20\n      add\n      mload(0x40)\n      swap1\n      dup2\n      add\n      0x40\n      mstore\n      dup1\n      swap3\n      swap2\n      swap1\n      dup2\n      dup2\n      mstore\n      0x20\n      add\n      dup3\n      dup1\n      sload\n      tag_137\n      swap1\n      tag_136\n      jump\t// in\n    tag_137:\n      dup1\n      iszero\n      tag_138\n      jumpi\n      dup1\n      0x1f\n      lt\n      tag_139\n      jumpi\n      0x0100\n      dup1\n      dup4\n      sload\n      div\n      mul\n      dup4\n      mstore\n      swap2\n      0x20\n      add\n      swap2\n      jump(tag_138)\n    tag_139:\n      dup3\n      add\n      swap2\n      swap1\n      0x00\n      mstore\n      keccak256(0x00, 0x20)\n      swap1\n    tag_140:\n      dup2\n      sload\n      dup2\n      mstore\n      swap1\n      0x01\n      add\n      swap1\n      0x20\n      add\n      dup1\n      dup4\n      gt\n      tag_140\n      jumpi\n      dup3\n      swap1\n      sub\n      0x1f\n      and\n      dup3\n      add\n      swap2\n    tag_138:\n      pop\n      pop\n      pop\n      pop\n      pop\n      swap1\n      dup1\n      0x01\n      add\n      0x00\n      swap1\n      sload\n      swap1\n      0x0100\n      exp\n      swap1\n      div\n      0xffffffffffffffffffffffffffffffffffffffff\n      and\n      swap1\n      dup1\n      0x02\n      add\n      dup1\n      sload\n      tag_141\n      swap1\n      tag_136\n      jump\t// in\n    tag_141:\n      dup1\n      0x1f\n      add\n      0x20\n      dup1\n      swap2\n      div\n      mul\n      0x20\n      add\n      mload(0x40)\n      swap1\n      dup2\n      add\n      0x40\n      mstore\n      dup1\n      swap3\n      swap2\n      swap1\n      dup2\n      dup2\n      mstore\n      0x20\n      add\n      dup3\n      dup1\n      sload\n      tag_142\n      swap1\n      tag_136\n      jump\t// in\n    tag_142:\n      dup1\n      iszero\n      tag_143\n      jumpi\n      dup1\n      0x1f\n      lt\n      tag_144\n      jumpi\n      0x0100\n      dup1\n      dup4\n      sload\n      div\n      mul\n      dup4\n      mstore\n      swap2\n      0x20\n      add\n      swap2\n      jump(tag_143)\n    tag_144:\n      dup3\n      add\n      swap2\n      swap1\n      0x00\n      mstore\n      keccak256(0x00, 0x20)\n      swap1\n    tag_145:\n      dup2\n      sload\n      dup2\n      mstore\n      swap1\n      0x01\n      add\n      swap1\n      0x20\n      add\n      dup1\n      dup4\n      gt\n      tag_145\n      jumpi\n      dup3\n      swap1\n      sub\n      0x1f\n      and\n      dup3\n      add\n      swap2\n    tag_143:\n      pop\n      pop\n      pop\n      pop\n      pop\n      swap1\n      dup1\n      0x03\n      add\n      dup1\n      sload\n      tag_146\n      swap1\n      tag_136\n      jump\t// in\n    tag_146:\n      dup1\n      0x1f\n      add\n      0x20\n      dup1\n      swap2\n      div\n      mul\n      0x20\n      add\n      mload(0x40)\n      swap1\n      dup2\n      add\n      0x40\n      mstore\n      dup1\n      swap3\n      swap2\n      swap1\n      dup2\n      dup2\n      mstore\n      0x20\n      add\n      dup3\n      dup1\n      sload\n      tag_147\n      swap1\n      tag_136\n      jump\t// in\n    tag_147:\n      dup1\n      iszero\n      tag_148\n      jumpi\n      dup1\n      0x1f\n      lt\n      tag_149\n      jumpi\n      0x0100\n      dup1\n      dup4\n      sload\n      div\n      mul\n      dup4\n      mstore\n      swap2\n      0x20\n      add\n      swap2\n      jump(tag_148)\n    tag_149:\n      dup3\n      add\n      swap2\n      swap1\n      0x00\n      mstore\n      keccak256(0x00, 0x20)\n      swap1\n    tag_150:\n      dup2\n      sload\n      dup2\n      mstore\n      swap1\n      0x01\n      add\n      swap1\n      0x20\n      add\n      dup1\n      dup4\n      gt\n      tag_150\n      jumpi\n      dup3\n      swap1\n      sub\n      0x1f\n      and\n      dup3\n      add\n      swap2\n    tag_148:\n      pop\n      pop\n      pop\n      pop\n      pop\n      swap1\n      dup1\n      0x04\n      add\n      0x00\n      swap1\n      sload\n      swap1\n      0x0100\n      exp\n      swap1\n      div\n      0xffffffffffffffffffffffffffffffffffffffff\n      and\n      swap1\n      pop\n      dup6\n      jump\t// out\n        /* \"verifystud.sol\":5627:6166  function getPendingStudentByindex(... */\n    tag_49:\n        /* \"verifystud.sol\":5740:5753  string memory */\n      0x60\n        /* \"verifystud.sol\":5755:5762  address */\n      0x00\n        /* \"verifystud.sol\":5784:5797  string memory */\n      0x60\n        /* \"verifystud.sol\":5799:5812  string memory */\n      dup1\n        /* \"verifystud.sol\":5814:5821  address */\n      0x00\n        /* \"verifystud.sol\":5855:5875  pendingStudentsarray */\n      0x05\n        /* \"verifystud.sol\":5855:5882  pendingStudentsarray.length */\n      dup1\n      sload\n      swap1\n      pop\n        /* \"verifystud.sol\":5847:5852  index */\n      dup7\n        /* \"verifystud.sol\":5847:5882  index < pendingStudentsarray.length */\n      lt\n        /* \"verifystud.sol\":5839:5906  require(index < pendingStudentsarray.length, \"Index out of bounds\") */\n      tag_152\n      jumpi\n      mload(0x40)\n      0x08c379a000000000000000000000000000000000000000000000000000000000\n      dup2\n      mstore\n      0x04\n      add\n      tag_153\n      swap1\n      tag_154\n      jump\t// in\n    tag_153:\n      mload(0x40)\n      dup1\n      swap2\n      sub\n      swap1\n      revert\n    tag_152:\n        /* \"verifystud.sol\":5919:5953  pendingstudents memory studentinfo */\n      0x00\n        /* \"verifystud.sol\":5956:5976  pendingStudentsarray */\n      0x05\n        /* \"verifystud.sol\":5977:5982  index */\n      dup8\n        /* \"verifystud.sol\":5956:5983  pendingStudentsarray[index] */\n      dup2\n      sload\n      dup2\n      lt\n      tag_155\n      jumpi\n      tag_156\n      tag_157\n      jump\t// in\n    tag_156:\n    tag_155:\n      swap1\n      0x00\n      mstore\n      keccak256(0x00, 0x20)\n      swap1\n      0x05\n      mul\n      add\n        /* \"verifystud.sol\":5919:5983  pendingstudents memory studentinfo = pendingStudentsarray[index] */\n      mload(0x40)\n      dup1\n      0xa0\n      add\n      0x40\n      mstore\n      swap1\n      dup2\n      0x00\n      dup3\n      add\n      dup1\n      sload\n      tag_159\n      swap1\n      tag_136\n      jump\t// in\n    tag_159:\n      dup1\n      0x1f\n      add\n      0x20\n      dup1\n      swap2\n      div\n      mul\n      0x20\n      add\n      mload(0x40)\n      swap1\n      dup2\n      add\n      0x40\n      mstore\n      dup1\n      swap3\n      swap2\n      swap1\n      dup2\n      dup2\n      mstore\n      0x20\n      add\n      dup3\n      dup1\n      sload\n      tag_160\n      swap1\n      tag_136\n      jump\t// in\n    tag_160:\n      dup1\n      iszero\n      tag_161\n      jumpi\n      dup1\n      0x1f\n      lt\n      tag_162\n      jumpi\n      0x0100\n      dup1\n      dup4\n      sload\n      div\n      mul\n      dup4\n      mstore\n      swap2\n      0x20\n      add\n      swap2\n      jump(tag_161)\n    tag_162:\n      dup3\n      add\n      swap2\n      swap1\n      0x00\n      mstore\n      keccak256(0x00, 0x20)\n      swap1\n    tag_163:\n      dup2\n      sload\n      dup2\n      mstore\n      swap1\n      0x01\n      add\n      swap1\n      0x20\n      add\n      dup1\n      dup4\n      gt\n      tag_163\n      jumpi\n      dup3\n      swap1\n      sub\n      0x1f\n      and\n      dup3\n      add\n      swap2\n    tag_161:\n      pop\n      pop\n      pop\n      pop\n      pop\n      dup2\n      mstore\n      0x20\n      add\n      0x01\n      dup3\n      add\n      0x00\n      swap1\n      sload\n      swap1\n      0x0100\n      exp\n      swap1\n      div\n      0xffffffffffffffffffffffffffffffffffffffff\n      and\n      0xffffffffffffffffffffffffffffffffffffffff\n      and\n      0xffffffffffffffffffffffffffffffffffffffff\n      and\n      dup2\n      mstore\n      0x20\n      add\n      0x02\n      dup3\n      add\n      dup1\n      sload\n      tag_164\n      swap1\n      tag_136\n      jump\t// in\n    tag_164:\n      dup1\n      0x1f\n      add\n      0x20\n      dup1\n      swap2\n      div\n      mul\n      0x20\n      add\n      mload(0x40)\n      swap1\n      dup2\n      add\n      0x40\n      mstore\n      dup1\n      swap3\n      swap2\n      swap1\n      dup2\n      dup2\n      mstore\n      0x20\n      add\n      dup3\n      dup1\n      sload\n      tag_165\n      swap1\n      tag_136\n      jump\t// in\n    tag_165:\n      dup1\n      iszero\n      tag_166\n      jumpi\n      dup1\n      0x1f\n      lt\n      tag_167\n      jumpi\n      0x0100\n      dup1\n      dup4\n      sload\n      div\n      mul\n      dup4\n      mstore\n      swap2\n      0x20\n      add\n      swap2\n      jump(tag_166)\n    tag_167:\n      dup3\n      add\n      swap2\n      swap1\n      0x00\n      mstore\n      keccak256(0x00, 0x20)\n      swap1\n    tag_168:\n      dup2\n      sload\n      dup2\n      mstore\n      swap1\n      0x01\n      add\n      swap1\n      0x20\n      add\n      dup1\n      dup4\n      gt\n      tag_168\n      jumpi\n      dup3\n      swap1\n      sub\n      0x1f\n      and\n      dup3\n      add\n      swap2\n    tag_166:\n      pop\n      pop\n      pop\n      pop\n      pop\n      dup2\n      mstore\n      0x20\n      add\n      0x03\n      dup3\n      add\n      dup1\n      sload\n      tag_169\n      swap1\n      tag_136\n      jump\t// in\n    tag_169:\n      dup1\n      0x1f\n      add\n      0x20\n      dup1\n      swap2\n      div\n      mul\n      0x20\n      add\n      mload(0x40)\n      swap1\n      dup2\n      add\n      0x40\n      mstore\n      dup1\n      swap3\n      swap2\n      swap1\n      dup2\n      dup2\n      mstore\n      0x20\n      add\n      dup3\n      dup1\n      sload\n      tag_170\n      swap1\n      tag_136\n      jump\t// in\n    tag_170:\n      dup1\n      iszero\n      tag_171\n      jumpi\n      dup1\n      0x1f\n      lt\n      tag_172\n      jumpi\n      0x0100\n      dup1\n      dup4\n      sload\n      div\n      mul\n      dup4\n      mstore\n      swap2\n      0x20\n      add\n      swap2\n      jump(tag_171)\n    tag_172:\n      dup3\n      add\n      swap2\n      swap1\n      0x00\n      mstore\n      keccak256(0x00, 0x20)\n      swap1\n    tag_173:\n      dup2\n      sload\n      dup2\n      mstore\n      swap1\n      0x01\n      add\n      swap1\n      0x20\n      add\n      dup1\n      dup4\n      gt\n      tag_173\n      jumpi\n      dup3\n      swap1\n      sub\n      0x1f\n      and\n      dup3\n      add\n      swap2\n    tag_171:\n      pop\n      pop\n      pop\n      pop\n      pop\n      dup2\n      mstore\n      0x20\n      add\n      0x04\n      dup3\n      add\n      0x00\n      swap1\n      sload\n      swap1\n      0x0100\n      exp\n      swap1\n      div\n      0xffffffffffffffffffffffffffffffffffffffff\n      and\n      0xffffffffffffffffffffffffffffffffffffffff\n      and\n      0xffffffffffffffffffffffffffffffffffffffff\n      and\n      dup2\n      mstore\n      pop\n      pop\n      swap1\n      pop\n        /* \"verifystud.sol\":6010:6021  studentinfo */\n      dup1\n        /* \"verifystud.sol\":6010:6026  studentinfo.name */\n      0x00\n      add\n      mload\n        /* \"verifystud.sol\":6037:6048  studentinfo */\n      dup2\n        /* \"verifystud.sol\":6037:6064  studentinfo.student_address */\n      0x20\n      add\n      mload\n        /* \"verifystud.sol\":6075:6086  studentinfo */\n      dup3\n        /* \"verifystud.sol\":6075:6092  studentinfo.email */\n      0x40\n      add\n      mload\n        /* \"verifystud.sol\":6103:6114  studentinfo */\n      dup4\n        /* \"verifystud.sol\":6103:6117  studentinfo.id */\n      0x60\n      add\n      mload\n        /* \"verifystud.sol\":6128:6139  studentinfo */\n      dup5\n        /* \"verifystud.sol\":6128:6151  studentinfo.instAddress */\n      0x80\n      add\n      mload\n        /* \"verifystud.sol\":5992:6158  return (... */\n      swap6\n      pop\n      swap6\n      pop\n      swap6\n      pop\n      swap6\n      pop\n      swap6\n      pop\n      pop\n        /* \"verifystud.sol\":5627:6166  function getPendingStudentByindex(... */\n      swap2\n      swap4\n      swap6\n      swap1\n      swap3\n      swap5\n      pop\n      jump\t// out\n        /* \"verifystud.sol\":227:245  address public MOE */\n    tag_52:\n      0x00\n      dup1\n      sload\n      swap1\n      0x0100\n      exp\n      swap1\n      div\n      0xffffffffffffffffffffffffffffffffffffffff\n      and\n      dup2\n      jump\t// out\n        /* \"verifystud.sol\":1433:1990  function addStudToPending(string memory _name, address _student_address, string memory _email, string memory _id, address _instAddress) public onlystudent{... */\n    tag_58:\n        /* \"verifystud.sol\":7499:7506  studreg */\n      0x01\n      0x00\n      swap1\n      sload\n      swap1\n      0x0100\n      exp\n      swap1\n      div\n      0xffffffffffffffffffffffffffffffffffffffff\n      and\n        /* \"verifystud.sol\":7499:7516  studreg.isStudent */\n      0xffffffffffffffffffffffffffffffffffffffff\n      and\n      0x82f7d392\n        /* \"verifystud.sol\":7517:7527  msg.sender */\n      caller\n        /* \"verifystud.sol\":7499:7528  studreg.isStudent(msg.sender) */\n      mload(0x40)\n      dup3\n      0xffffffff\n      and\n      0xe0\n      shl\n      dup2\n      mstore\n      0x04\n      add\n      tag_175\n      swap2\n      swap1\n      tag_54\n      jump\t// in\n    tag_175:\n      0x20\n      mload(0x40)\n      dup1\n      dup4\n      sub\n      dup2\n      dup7\n      gas\n      staticcall\n      iszero\n      dup1\n      iszero\n      tag_177\n      jumpi\n      returndatasize\n      0x00\n      dup1\n      returndatacopy\n      revert(0x00, returndatasize)\n    tag_177:\n      pop\n      pop\n      pop\n      pop\n      mload(0x40)\n      returndatasize\n      not(0x1f)\n      0x1f\n      dup3\n      add\n      and\n      dup3\n      add\n      dup1\n      0x40\n      mstore\n      pop\n      dup2\n      add\n      swap1\n      tag_178\n      swap2\n      swap1\n      tag_179\n      jump\t// in\n    tag_178:\n        /* \"verifystud.sol\":7491:7547  require(studreg.isStudent(msg.sender), \"Not authorized\") */\n      tag_180\n      jumpi\n      mload(0x40)\n      0x08c379a000000000000000000000000000000000000000000000000000000000\n      dup2\n      mstore\n      0x04\n      add\n      tag_181\n      swap1\n      tag_182\n      jump\t// in\n    tag_181:\n      mload(0x40)\n      dup1\n      swap2\n      sub\n      swap1\n      revert\n    tag_180:\n        /* \"verifystud.sol\":1620:1636  _student_address */\n      dup4\n        /* \"verifystud.sol\":1606:1636  msg.sender == _student_address */\n      0xffffffffffffffffffffffffffffffffffffffff\n      and\n        /* \"verifystud.sol\":1606:1616  msg.sender */\n      caller\n        /* \"verifystud.sol\":1606:1636  msg.sender == _student_address */\n      0xffffffffffffffffffffffffffffffffffffffff\n      and\n      eq\n        /* \"verifystud.sol\":1598:1637  require(msg.sender == _student_address) */\n      tag_184\n      jumpi\n      0x00\n      dup1\n      revert\n    tag_184:\n        /* \"verifystud.sol\":1648:1688  pendingstudents memory newpendingstudent */\n      tag_185\n      tag_186\n      jump\t// in\n    tag_185:\n        /* \"verifystud.sol\":1724:1729  _name */\n      dup6\n        /* \"verifystud.sol\":1699:1716  newpendingstudent */\n      dup2\n        /* \"verifystud.sol\":1699:1721  newpendingstudent.name */\n      0x00\n      add\n        /* \"verifystud.sol\":1699:1729  newpendingstudent.name = _name */\n      dup2\n      swap1\n      mstore\n      pop\n        /* \"verifystud.sol\":1776:1792  _student_address */\n      dup5\n        /* \"verifystud.sol\":1740:1757  newpendingstudent */\n      dup2\n        /* \"verifystud.sol\":1740:1773  newpendingstudent.student_address */\n      0x20\n      add\n        /* \"verifystud.sol\":1740:1792  newpendingstudent.student_address = _student_address */\n      swap1\n      0xffffffffffffffffffffffffffffffffffffffff\n      and\n      swap1\n      dup2\n      0xffffffffffffffffffffffffffffffffffffffff\n      and\n      dup2\n      mstore\n      pop\n      pop\n        /* \"verifystud.sol\":1829:1835  _email */\n      dup4\n        /* \"verifystud.sol\":1803:1820  newpendingstudent */\n      dup2\n        /* \"verifystud.sol\":1803:1826  newpendingstudent.email */\n      0x40\n      add\n        /* \"verifystud.sol\":1803:1835  newpendingstudent.email = _email */\n      dup2\n      swap1\n      mstore\n      pop\n        /* \"verifystud.sol\":1869:1872  _id */\n      dup3\n        /* \"verifystud.sol\":1846:1863  newpendingstudent */\n      dup2\n        /* \"verifystud.sol\":1846:1866  newpendingstudent.id */\n      0x60\n      add\n        /* \"verifystud.sol\":1846:1872  newpendingstudent.id = _id */\n      dup2\n      swap1\n      mstore\n      pop\n        /* \"verifystud.sol\":1915:1927  _instAddress */\n      dup2\n        /* \"verifystud.sol\":1883:1900  newpendingstudent */\n      dup2\n        /* \"verifystud.sol\":1883:1912  newpendingstudent.instAddress */\n      0x80\n      add\n        /* \"verifystud.sol\":1883:1927  newpendingstudent.instAddress = _instAddress */\n      swap1\n      0xffffffffffffffffffffffffffffffffffffffff\n      and\n      swap1\n      dup2\n      0xffffffffffffffffffffffffffffffffffffffff\n      and\n      dup2\n      mstore\n      pop\n      pop\n        /* \"verifystud.sol\":1938:1958  pendingStudentsarray */\n      0x05\n        /* \"verifystud.sol\":1964:1981  newpendingstudent */\n      dup2\n        /* \"verifystud.sol\":1938:1982  pendingStudentsarray.push(newpendingstudent) */\n      swap1\n      dup1\n      0x01\n      dup2\n      sload\n      add\n      dup1\n      dup3\n      sstore\n      dup1\n      swap2\n      pop\n      pop\n      0x01\n      swap1\n      sub\n      swap1\n      0x00\n      mstore\n      keccak256(0x00, 0x20)\n      swap1\n      0x05\n      mul\n      add\n      0x00\n      swap1\n      swap2\n      swap1\n      swap2\n      swap1\n      swap2\n      pop\n      0x00\n      dup3\n      add\n      mload\n      dup2\n      0x00\n      add\n      swap1\n      dup1\n      mload\n      swap1\n      0x20\n      add\n      swap1\n      tag_188\n      swap3\n      swap2\n      swap1\n      tag_189\n      jump\t// in\n    tag_188:\n      pop\n      0x20\n      dup3\n      add\n      mload\n      dup2\n      0x01\n      add\n      exp(0x0100, 0x00)\n      dup2\n      sload\n      dup2\n      0xffffffffffffffffffffffffffffffffffffffff\n      mul\n      not\n      and\n      swap1\n      dup4\n      0xffffffffffffffffffffffffffffffffffffffff\n      and\n      mul\n      or\n      swap1\n      sstore\n      pop\n      0x40\n      dup3\n      add\n      mload\n      dup2\n      0x02\n      add\n      swap1\n      dup1\n      mload\n      swap1\n      0x20\n      add\n      swap1\n      tag_190\n      swap3\n      swap2\n      swap1\n      tag_189\n      jump\t// in\n    tag_190:\n      pop\n      0x60\n      dup3\n      add\n      mload\n      dup2\n      0x03\n      add\n      swap1\n      dup1\n      mload\n      swap1\n      0x20\n      add\n      swap1\n      tag_191\n      swap3\n      swap2\n      swap1\n      tag_189\n      jump\t// in\n    tag_191:\n      pop\n      0x80\n      dup3\n      add\n      mload\n      dup2\n      0x04\n      add\n      exp(0x0100, 0x00)\n      dup2\n      sload\n      dup2\n      0xffffffffffffffffffffffffffffffffffffffff\n      mul\n      not\n      and\n      swap1\n      dup4\n      0xffffffffffffffffffffffffffffffffffffffff\n      and\n      mul\n      or\n      swap1\n      sstore\n      pop\n      pop\n      pop\n        /* \"verifystud.sol\":1587:1990  {... */\n      pop\n        /* \"verifystud.sol\":1433:1990  function addStudToPending(string memory _name, address _student_address, string memory _email, string memory _id, address _instAddress) public onlystudent{... */\n      pop\n      pop\n      pop\n      pop\n      pop\n      jump\t// out\n        /* \"verifystud.sol\":6703:6854  function isStudent(address _studentAddress) public view returns (bool) {... */\n    tag_62:\n        /* \"verifystud.sol\":6768:6772  bool */\n      0x00\n        /* \"verifystud.sol\":6842:6845  0x0 */\n      dup1\n        /* \"verifystud.sol\":6792:6846  registeredStudentsmap[_studentAddress] != address(0x0) */\n      0xffffffffffffffffffffffffffffffffffffffff\n      and\n        /* \"verifystud.sol\":6792:6813  registeredStudentsmap */\n      0x07\n        /* \"verifystud.sol\":6792:6830  registeredStudentsmap[_studentAddress] */\n      0x00\n        /* \"verifystud.sol\":6814:6829  _studentAddress */\n      dup5\n        /* \"verifystud.sol\":6792:6830  registeredStudentsmap[_studentAddress] */\n      0xffffffffffffffffffffffffffffffffffffffff\n      and\n      0xffffffffffffffffffffffffffffffffffffffff\n      and\n      dup2\n      mstore\n      0x20\n      add\n      swap1\n      dup2\n      mstore\n      0x20\n      add\n      0x00\n      keccak256\n      0x00\n      swap1\n      sload\n      swap1\n      0x0100\n      exp\n      swap1\n      div\n      0xffffffffffffffffffffffffffffffffffffffff\n      and\n        /* \"verifystud.sol\":6792:6846  registeredStudentsmap[_studentAddress] != address(0x0) */\n      0xffffffffffffffffffffffffffffffffffffffff\n      and\n      eq\n      iszero\n        /* \"verifystud.sol\":6785:6846  return registeredStudentsmap[_studentAddress] != address(0x0) */\n      swap1\n      pop\n        /* \"verifystud.sol\":6703:6854  function isStudent(address _studentAddress) public view returns (bool) {... */\n      swap2\n      swap1\n      pop\n      jump\t// out\n        /* \"verifystud.sol\":2337:3110  function addTransferStudToPending(string memory _name, address _student_address, string memory _email, string memory _id, address _instAddress) public onlyverfiedInstitute{... */\n    tag_66:\n        /* \"verifystud.sol\":7400:7401  0 */\n      0x00\n        /* \"verifystud.sol\":7346:7402  instregd.registeredinstitutesmap(msg.sender)!=address(0) */\n      0xffffffffffffffffffffffffffffffffffffffff\n      and\n        /* \"verifystud.sol\":7346:7354  instregd */\n      0x02\n      0x00\n      swap1\n      sload\n      swap1\n      0x0100\n      exp\n      swap1\n      div\n      0xffffffffffffffffffffffffffffffffffffffff\n      and\n        /* \"verifystud.sol\":7346:7378  instregd.registeredinstitutesmap */\n      0xffffffffffffffffffffffffffffffffffffffff\n      and\n      0x839f602d\n        /* \"verifystud.sol\":7379:7389  msg.sender */\n      caller\n        /* \"verifystud.sol\":7346:7390  instregd.registeredinstitutesmap(msg.sender) */\n      mload(0x40)\n      dup3\n      0xffffffff\n      and\n      0xe0\n      shl\n      dup2\n      mstore\n      0x04\n      add\n      tag_194\n      swap2\n      swap1\n      tag_54\n      jump\t// in\n    tag_194:\n      0x20\n      mload(0x40)\n      dup1\n      dup4\n      sub\n      dup2\n      dup7\n      gas\n      staticcall\n      iszero\n      dup1\n      iszero\n      tag_196\n      jumpi\n      returndatasize\n      0x00\n      dup1\n      returndatacopy\n      revert(0x00, returndatasize)\n    tag_196:\n      pop\n      pop\n      pop\n      pop\n      mload(0x40)\n      returndatasize\n      not(0x1f)\n      0x1f\n      dup3\n      add\n      and\n      dup3\n      add\n      dup1\n      0x40\n      mstore\n      pop\n      dup2\n      add\n      swap1\n      tag_197\n      swap2\n      swap1\n      tag_132\n      jump\t// in\n    tag_197:\n        /* \"verifystud.sol\":7346:7402  instregd.registeredinstitutesmap(msg.sender)!=address(0) */\n      0xffffffffffffffffffffffffffffffffffffffff\n      and\n      eq\n      iszero\n        /* \"verifystud.sol\":7338:7430  require(instregd.registeredinstitutesmap(msg.sender)!=address(0), \"You are not Authorized!\") */\n      tag_198\n      jumpi\n      mload(0x40)\n      0x08c379a000000000000000000000000000000000000000000000000000000000\n      dup2\n      mstore\n      0x04\n      add\n      tag_199\n      swap1\n      tag_200\n      jump\t// in\n    tag_199:\n      mload(0x40)\n      dup1\n      swap2\n      sub\n      swap1\n      revert\n    tag_198:\n        /* \"verifystud.sol\":2519:2530  bytes32 key */\n      0x00\n        /* \"verifystud.sol\":2533:2540  studreg */\n      0x01\n      0x00\n      swap1\n      sload\n      swap1\n      0x0100\n      exp\n      swap1\n      div\n      0xffffffffffffffffffffffffffffffffffffffff\n      and\n        /* \"verifystud.sol\":2533:2552  studreg.generateKey */\n      0xffffffffffffffffffffffffffffffffffffffff\n      and\n      0x8a97503d\n        /* \"verifystud.sol\":2567:2583  _student_address */\n      dup7\n        /* \"verifystud.sol\":2598:2601  _id */\n      dup6\n        /* \"verifystud.sol\":2533:2612  studreg.generateKey(... */\n      mload(0x40)\n      dup4\n      0xffffffff\n      and\n      0xe0\n      shl\n      dup2\n      mstore\n      0x04\n      add\n      tag_202\n      swap3\n      swap2\n      swap1\n      tag_117\n      jump\t// in\n    tag_202:\n      0x20\n      mload(0x40)\n      dup1\n      dup4\n      sub\n      dup2\n      dup7\n      gas\n      staticcall\n      iszero\n      dup1\n      iszero\n      tag_204\n      jumpi\n      returndatasize\n      0x00\n      dup1\n      returndatacopy\n      revert(0x00, returndatasize)\n    tag_204:\n      pop\n      pop\n      pop\n      pop\n      mload(0x40)\n      returndatasize\n      not(0x1f)\n      0x1f\n      dup3\n      add\n      and\n      dup3\n      add\n      dup1\n      0x40\n      mstore\n      pop\n      dup2\n      add\n      swap1\n      tag_205\n      swap2\n      swap1\n      tag_121\n      jump\t// in\n    tag_205:\n        /* \"verifystud.sol\":2519:2612  bytes32 key = studreg.generateKey(... */\n      swap1\n      pop\n        /* \"verifystud.sol\":2638:2664  address currentInstAddress */\n      0x00\n        /* \"verifystud.sol\":2666:2673  studreg */\n      0x01\n      0x00\n      swap1\n      sload\n      swap1\n      0x0100\n      exp\n      swap1\n      div\n      0xffffffffffffffffffffffffffffffffffffffff\n      and\n        /* \"verifystud.sol\":2666:2699  studreg.getRegisteredStudentByKey */\n      0xffffffffffffffffffffffffffffffffffffffff\n      and\n      0x435df20d\n        /* \"verifystud.sol\":2700:2703  key */\n      dup4\n        /* \"verifystud.sol\":2666:2704  studreg.getRegisteredStudentByKey(key) */\n      mload(0x40)\n      dup3\n      0xffffffff\n      and\n      0xe0\n      shl\n      dup2\n      mstore\n      0x04\n      add\n      tag_206\n      swap2\n      swap1\n      tag_71\n      jump\t// in\n    tag_206:\n      0x00\n      mload(0x40)\n      dup1\n      dup4\n      sub\n      dup2\n      dup7\n      gas\n      staticcall\n      iszero\n      dup1\n      iszero\n      tag_208\n      jumpi\n      returndatasize\n      0x00\n      dup1\n      returndatacopy\n      revert(0x00, returndatasize)\n    tag_208:\n      pop\n      pop\n      pop\n      pop\n      mload(0x40)\n      returndatasize\n      0x00\n      dup3\n      returndatacopy\n      returndatasize\n      not(0x1f)\n      0x1f\n      dup3\n      add\n      and\n      dup3\n      add\n      dup1\n      0x40\n      mstore\n      pop\n      dup2\n      add\n      swap1\n      tag_209\n      swap2\n      swap1\n      tag_126\n      jump\t// in\n    tag_209:\n        /* \"verifystud.sol\":2633:2704  (,,,,address currentInstAddress)=studreg.getRegisteredStudentByKey(key) */\n      swap5\n      pop\n      pop\n      pop\n      pop\n      pop\n        /* \"verifystud.sol\":2737:2755  currentInstAddress */\n      dup1\n        /* \"verifystud.sol\":2723:2755  msg.sender == currentInstAddress */\n      0xffffffffffffffffffffffffffffffffffffffff\n      and\n        /* \"verifystud.sol\":2723:2733  msg.sender */\n      caller\n        /* \"verifystud.sol\":2723:2755  msg.sender == currentInstAddress */\n      0xffffffffffffffffffffffffffffffffffffffff\n      and\n      eq\n        /* \"verifystud.sol\":2715:2756  require(msg.sender == currentInstAddress) */\n      tag_210\n      jumpi\n      0x00\n      dup1\n      revert\n    tag_210:\n        /* \"verifystud.sol\":2767:2807  pendingstudents memory newpendingstudent */\n      tag_211\n      tag_186\n      jump\t// in\n    tag_211:\n        /* \"verifystud.sol\":2843:2848  _name */\n      dup8\n        /* \"verifystud.sol\":2818:2835  newpendingstudent */\n      dup2\n        /* \"verifystud.sol\":2818:2840  newpendingstudent.name */\n      0x00\n      add\n        /* \"verifystud.sol\":2818:2848  newpendingstudent.name = _name */\n      dup2\n      swap1\n      mstore\n      pop\n        /* \"verifystud.sol\":2895:2911  _student_address */\n      dup7\n        /* \"verifystud.sol\":2859:2876  newpendingstudent */\n      dup2\n        /* \"verifystud.sol\":2859:2892  newpendingstudent.student_address */\n      0x20\n      add\n        /* \"verifystud.sol\":2859:2911  newpendingstudent.student_address = _student_address */\n      swap1\n      0xffffffffffffffffffffffffffffffffffffffff\n      and\n      swap1\n      dup2\n      0xffffffffffffffffffffffffffffffffffffffff\n      and\n      dup2\n      mstore\n      pop\n      pop\n        /* \"verifystud.sol\":2948:2954  _email */\n      dup6\n        /* \"verifystud.sol\":2922:2939  newpendingstudent */\n      dup2\n        /* \"verifystud.sol\":2922:2945  newpendingstudent.email */\n      0x40\n      add\n        /* \"verifystud.sol\":2922:2954  newpendingstudent.email = _email */\n      dup2\n      swap1\n      mstore\n      pop\n        /* \"verifystud.sol\":2988:2991  _id */\n      dup5\n        /* \"verifystud.sol\":2965:2982  newpendingstudent */\n      dup2\n        /* \"verifystud.sol\":2965:2985  newpendingstudent.id */\n      0x60\n      add\n        /* \"verifystud.sol\":2965:2991  newpendingstudent.id = _id */\n      dup2\n      swap1\n      mstore\n      pop\n        /* \"verifystud.sol\":3034:3046  _instAddress */\n      dup4\n        /* \"verifystud.sol\":3002:3019  newpendingstudent */\n      dup2\n        /* \"verifystud.sol\":3002:3031  newpendingstudent.instAddress */\n      0x80\n      add\n        /* \"verifystud.sol\":3002:3046  newpendingstudent.instAddress = _instAddress */\n      swap1\n      0xffffffffffffffffffffffffffffffffffffffff\n      and\n      swap1\n      dup2\n      0xffffffffffffffffffffffffffffffffffffffff\n      and\n      dup2\n      mstore\n      pop\n      pop\n        /* \"verifystud.sol\":3057:3078  transferStudentsarray */\n      0x06\n        /* \"verifystud.sol\":3084:3101  newpendingstudent */\n      dup2\n        /* \"verifystud.sol\":3057:3102  transferStudentsarray.push(newpendingstudent) */\n      swap1\n      dup1\n      0x01\n      dup2\n      sload\n      add\n      dup1\n      dup3\n      sstore\n      dup1\n      swap2\n      pop\n      pop\n      0x01\n      swap1\n      sub\n      swap1\n      0x00\n      mstore\n      keccak256(0x00, 0x20)\n      swap1\n      0x05\n      mul\n      add\n      0x00\n      swap1\n      swap2\n      swap1\n      swap2\n      swap1\n      swap2\n      pop\n      0x00\n      dup3\n      add\n      mload\n      dup2\n      0x00\n      add\n      swap1\n      dup1\n      mload\n      swap1\n      0x20\n      add\n      swap1\n      tag_213\n      swap3\n      swap2\n      swap1\n      tag_189\n      jump\t// in\n    tag_213:\n      pop\n      0x20\n      dup3\n      add\n      mload\n      dup2\n      0x01\n      add\n      exp(0x0100, 0x00)\n      dup2\n      sload\n      dup2\n      0xffffffffffffffffffffffffffffffffffffffff\n      mul\n      not\n      and\n      swap1\n      dup4\n      0xffffffffffffffffffffffffffffffffffffffff\n      and\n      mul\n      or\n      swap1\n      sstore\n      pop\n      0x40\n      dup3\n      add\n      mload\n      dup2\n      0x02\n      add\n      swap1\n      dup1\n      mload\n      swap1\n      0x20\n      add\n      swap1\n      tag_214\n      swap3\n      swap2\n      swap1\n      tag_189\n      jump\t// in\n    tag_214:\n      pop\n      0x60\n      dup3\n      add\n      mload\n      dup2\n      0x03\n      add\n      swap1\n      dup1\n      mload\n      swap1\n      0x20\n      add\n      swap1\n      tag_215\n      swap3\n      swap2\n      swap1\n      tag_189\n      jump\t// in\n    tag_215:\n      pop\n      0x80\n      dup3\n      add\n      mload\n      dup2\n      0x04\n      add\n      exp(0x0100, 0x00)\n      dup2\n      sload\n      dup2\n      0xffffffffffffffffffffffffffffffffffffffff\n      mul\n      not\n      and\n      swap1\n      dup4\n      0xffffffffffffffffffffffffffffffffffffffff\n      and\n      mul\n      or\n      swap1\n      sstore\n      pop\n      pop\n      pop\n        /* \"verifystud.sol\":2508:3110  {... */\n      pop\n      pop\n      pop\n        /* \"verifystud.sol\":2337:3110  function addTransferStudToPending(string memory _name, address _student_address, string memory _email, string memory _id, address _instAddress) public onlyverfiedInstitute{... */\n      pop\n      pop\n      pop\n      pop\n      pop\n      jump\t// out\n        /* \"verifystud.sol\":1244:1425  function generateKey(... */\n    tag_69:\n        /* \"verifystud.sol\":1348:1355  bytes32 */\n      0x00\n        /* \"verifystud.sol\":1402:1410  _address */\n      dup3\n        /* \"verifystud.sol\":1412:1415  _id */\n      dup3\n        /* \"verifystud.sol\":1385:1416  abi.encodePacked(_address, _id) */\n      add(0x20, mload(0x40))\n      tag_217\n      swap3\n      swap2\n      swap1\n      tag_218\n      jump\t// in\n    tag_217:\n      mload(0x40)\n      0x20\n      dup2\n      dup4\n      sub\n      sub\n      dup2\n      mstore\n      swap1\n      0x40\n      mstore\n        /* \"verifystud.sol\":1375:1417  keccak256(abi.encodePacked(_address, _id)) */\n      dup1\n      mload\n      swap1\n      0x20\n      add\n      keccak256\n        /* \"verifystud.sol\":1368:1417  return keccak256(abi.encodePacked(_address, _id)) */\n      swap1\n      pop\n        /* \"verifystud.sol\":1244:1425  function generateKey(... */\n      swap3\n      swap2\n      pop\n      pop\n      jump\t// out\n        /* \"verifystud.sol\":402:432  uint256 public trialnumber = 0 */\n    tag_73:\n      sload(0x04)\n      dup2\n      jump\t// out\n        /* \"verifystud.sol\":5368:5488  function getTransferStudentsCount() public view returns (uint256) {... */\n    tag_76:\n        /* \"verifystud.sol\":5425:5432  uint256 */\n      0x00\n        /* \"verifystud.sol\":5452:5473  transferStudentsarray */\n      0x06\n        /* \"verifystud.sol\":5452:5480  transferStudentsarray.length */\n      dup1\n      sload\n      swap1\n      pop\n        /* \"verifystud.sol\":5445:5480  return transferStudentsarray.length */\n      swap1\n      pop\n        /* \"verifystud.sol\":5368:5488  function getTransferStudentsCount() public view returns (uint256) {... */\n      swap1\n      jump\t// out\n        /* \"verifystud.sol\":6174:6695  function getTransferStudentByindex(... */\n    tag_80:\n        /* \"verifystud.sol\":6288:6301  string memory */\n      0x60\n        /* \"verifystud.sol\":6303:6310  address */\n      0x00\n        /* \"verifystud.sol\":6312:6325  string memory */\n      0x60\n        /* \"verifystud.sol\":6327:6340  string memory */\n      dup1\n        /* \"verifystud.sol\":6342:6349  address */\n      0x00\n        /* \"verifystud.sol\":6383:6403  pendingStudentsarray */\n      0x05\n        /* \"verifystud.sol\":6383:6410  pendingStudentsarray.length */\n      dup1\n      sload\n      swap1\n      pop\n        /* \"verifystud.sol\":6375:6380  index */\n      dup7\n        /* \"verifystud.sol\":6375:6410  index < pendingStudentsarray.length */\n      lt\n        /* \"verifystud.sol\":6367:6434  require(index < pendingStudentsarray.length, \"Index out of bounds\") */\n      tag_221\n      jumpi\n      mload(0x40)\n      0x08c379a000000000000000000000000000000000000000000000000000000000\n      dup2\n      mstore\n      0x04\n      add\n      tag_222\n      swap1\n      tag_154\n      jump\t// in\n    tag_222:\n      mload(0x40)\n      dup1\n      swap2\n      sub\n      swap1\n      revert\n    tag_221:\n        /* \"verifystud.sol\":6447:6481  pendingstudents memory studentinfo */\n      0x00\n        /* \"verifystud.sol\":6484:6505  transferStudentsarray */\n      0x06\n        /* \"verifystud.sol\":6506:6511  index */\n      dup8\n        /* \"verifystud.sol\":6484:6512  transferStudentsarray[index] */\n      dup2\n      sload\n      dup2\n      lt\n      tag_223\n      jumpi\n      tag_224\n      tag_157\n      jump\t// in\n    tag_224:\n    tag_223:\n      swap1\n      0x00\n      mstore\n      keccak256(0x00, 0x20)\n      swap1\n      0x05\n      mul\n      add\n        /* \"verifystud.sol\":6447:6512  pendingstudents memory studentinfo = transferStudentsarray[index] */\n      mload(0x40)\n      dup1\n      0xa0\n      add\n      0x40\n      mstore\n      swap1\n      dup2\n      0x00\n      dup3\n      add\n      dup1\n      sload\n      tag_226\n      swap1\n      tag_136\n      jump\t// in\n    tag_226:\n      dup1\n      0x1f\n      add\n      0x20\n      dup1\n      swap2\n      div\n      mul\n      0x20\n      add\n      mload(0x40)\n      swap1\n      dup2\n      add\n      0x40\n      mstore\n      dup1\n      swap3\n      swap2\n      swap1\n      dup2\n      dup2\n      mstore\n      0x20\n      add\n      dup3\n      dup1\n      sload\n      tag_227\n      swap1\n      tag_136\n      jump\t// in\n    tag_227:\n      dup1\n      iszero\n      tag_228\n      jumpi\n      dup1\n      0x1f\n      lt\n      tag_229\n      jumpi\n      0x0100\n      dup1\n      dup4\n      sload\n      div\n      mul\n      dup4\n      mstore\n      swap2\n      0x20\n      add\n      swap2\n      jump(tag_228)\n    tag_229:\n      dup3\n      add\n      swap2\n      swap1\n      0x00\n      mstore\n      keccak256(0x00, 0x20)\n      swap1\n    tag_230:\n      dup2\n      sload\n      dup2\n      mstore\n      swap1\n      0x01\n      add\n      swap1\n      0x20\n      add\n      dup1\n      dup4\n      gt\n      tag_230\n      jumpi\n      dup3\n      swap1\n      sub\n      0x1f\n      and\n      dup3\n      add\n      swap2\n    tag_228:\n      pop\n      pop\n      pop\n      pop\n      pop\n      dup2\n      mstore\n      0x20\n      add\n      0x01\n      dup3\n      add\n      0x00\n      swap1\n      sload\n      swap1\n      0x0100\n      exp\n      swap1\n      div\n      0xffffffffffffffffffffffffffffffffffffffff\n      and\n      0xffffffffffffffffffffffffffffffffffffffff\n      and\n      0xffffffffffffffffffffffffffffffffffffffff\n      and\n      dup2\n      mstore\n      0x20\n      add\n      0x02\n      dup3\n      add\n      dup1\n      sload\n      tag_231\n      swap1\n      tag_136\n      jump\t// in\n    tag_231:\n      dup1\n      0x1f\n      add\n      0x20\n      dup1\n      swap2\n      div\n      mul\n      0x20\n      add\n      mload(0x40)\n      swap1\n      dup2\n      add\n      0x40\n      mstore\n      dup1\n      swap3\n      swap2\n      swap1\n      dup2\n      dup2\n      mstore\n      0x20\n      add\n      dup3\n      dup1\n      sload\n      tag_232\n      swap1\n      tag_136\n      jump\t// in\n    tag_232:\n      dup1\n      iszero\n      tag_233\n      jumpi\n      dup1\n      0x1f\n      lt\n      tag_234\n      jumpi\n      0x0100\n      dup1\n      dup4\n      sload\n      div\n      mul\n      dup4\n      mstore\n      swap2\n      0x20\n      add\n      swap2\n      jump(tag_233)\n    tag_234:\n      dup3\n      add\n      swap2\n      swap1\n      0x00\n      mstore\n      keccak256(0x00, 0x20)\n      swap1\n    tag_235:\n      dup2\n      sload\n      dup2\n      mstore\n      swap1\n      0x01\n      add\n      swap1\n      0x20\n      add\n      dup1\n      dup4\n      gt\n      tag_235\n      jumpi\n      dup3\n      swap1\n      sub\n      0x1f\n      and\n      dup3\n      add\n      swap2\n    tag_233:\n      pop\n      pop\n      pop\n      pop\n      pop\n      dup2\n      mstore\n      0x20\n      add\n      0x03\n      dup3\n      add\n      dup1\n      sload\n      tag_236\n      swap1\n      tag_136\n      jump\t// in\n    tag_236:\n      dup1\n      0x1f\n      add\n      0x20\n      dup1\n      swap2\n      div\n      mul\n      0x20\n      add\n      mload(0x40)\n      swap1\n      dup2\n      add\n      0x40\n      mstore\n      dup1\n      swap3\n      swap2\n      swap1\n      dup2\n      dup2\n      mstore\n      0x20\n      add\n      dup3\n      dup1\n      sload\n      tag_237\n      swap1\n      tag_136\n      jump\t// in\n    tag_237:\n      dup1\n      iszero\n      tag_238\n      jumpi\n      dup1\n      0x1f\n      lt\n      tag_239\n      jumpi\n      0x0100\n      dup1\n      dup4\n      sload\n      div\n      mul\n      dup4\n      mstore\n      swap2\n      0x20\n      add\n      swap2\n      jump(tag_238)\n    tag_239:\n      dup3\n      add\n      swap2\n      swap1\n      0x00\n      mstore\n      keccak256(0x00, 0x20)\n      swap1\n    tag_240:\n      dup2\n      sload\n      dup2\n      mstore\n      swap1\n      0x01\n      add\n      swap1\n      0x20\n      add\n      dup1\n      dup4\n      gt\n      tag_240\n      jumpi\n      dup3\n      swap1\n      sub\n      0x1f\n      and\n      dup3\n      add\n      swap2\n    tag_238:\n      pop\n      pop\n      pop\n      pop\n      pop\n      dup2\n      mstore\n      0x20\n      add\n      0x04\n      dup3\n      add\n      0x00\n      swap1\n      sload\n      swap1\n      0x0100\n      exp\n      swap1\n      div\n      0xffffffffffffffffffffffffffffffffffffffff\n      and\n      0xffffffffffffffffffffffffffffffffffffffff\n      and\n      0xffffffffffffffffffffffffffffffffffffffff\n      and\n      dup2\n      mstore\n      pop\n      pop\n      swap1\n      pop\n        /* \"verifystud.sol\":6539:6550  studentinfo */\n      dup1\n        /* \"verifystud.sol\":6539:6555  studentinfo.name */\n      0x00\n      add\n      mload\n        /* \"verifystud.sol\":6566:6577  studentinfo */\n      dup2\n        /* \"verifystud.sol\":6566:6593  studentinfo.student_address */\n      0x20\n      add\n      mload\n        /* \"verifystud.sol\":6604:6615  studentinfo */\n      dup3\n        /* \"verifystud.sol\":6604:6621  studentinfo.email */\n      0x40\n      add\n      mload\n        /* \"verifystud.sol\":6632:6643  studentinfo */\n      dup4\n        /* \"verifystud.sol\":6632:6646  studentinfo.id */\n      0x60\n      add\n      mload\n        /* \"verifystud.sol\":6657:6668  studentinfo */\n      dup5\n        /* \"verifystud.sol\":6657:6680  studentinfo.instAddress */\n      0x80\n      add\n      mload\n        /* \"verifystud.sol\":6521:6687  return (... */\n      swap6\n      pop\n      swap6\n      pop\n      swap6\n      pop\n      swap6\n      pop\n      swap6\n      pop\n      pop\n        /* \"verifystud.sol\":6174:6695  function getTransferStudentByindex(... */\n      swap2\n      swap4\n      swap6\n      swap1\n      swap3\n      swap5\n      pop\n      jump\t// out\n        /* \"verifystud.sol\":5496:5614  function getPendingStudentsCount() public view returns (uint256) {... */\n    tag_83:\n        /* \"verifystud.sol\":5552:5559  uint256 */\n      0x00\n        /* \"verifystud.sol\":5579:5599  pendingStudentsarray */\n      0x05\n        /* \"verifystud.sol\":5579:5606  pendingStudentsarray.length */\n      dup1\n      sload\n      swap1\n      pop\n        /* \"verifystud.sol\":5572:5606  return pendingStudentsarray.length */\n      swap1\n      pop\n        /* \"verifystud.sol\":5496:5614  function getPendingStudentsCount() public view returns (uint256) {... */\n      swap1\n      jump\t// out\n        /* \"verifystud.sol\":319:364  address public studentRegisterContractAddress */\n    tag_86:\n      0x03\n      0x00\n      swap1\n      sload\n      swap1\n      0x0100\n      exp\n      swap1\n      div\n      0xffffffffffffffffffffffffffffffffffffffff\n      and\n      dup2\n      jump\t// out\n        /* \"verifystud.sol\":286:312  verifyinst public instregd */\n    tag_89:\n      0x02\n      0x00\n      swap1\n      sload\n      swap1\n      0x0100\n      exp\n      swap1\n      div\n      0xffffffffffffffffffffffffffffffffffffffff\n      and\n      dup2\n      jump\t// out\n        /* \"verifystud.sol\":983:1028  pendingstudents[] public pendingStudentsarray */\n    tag_94:\n      0x05\n      dup2\n      dup2\n      sload\n      dup2\n      lt\n      tag_242\n      jumpi\n      0x00\n      dup1\n      revert\n    tag_242:\n      swap1\n      0x00\n      mstore\n      keccak256(0x00, 0x20)\n      swap1\n      0x05\n      mul\n      add\n      0x00\n      swap2\n      pop\n      swap1\n      pop\n      dup1\n      0x00\n      add\n      dup1\n      sload\n      tag_244\n      swap1\n      tag_136\n      jump\t// in\n    tag_244:\n      dup1\n      0x1f\n      add\n      0x20\n      dup1\n      swap2\n      div\n      mul\n      0x20\n      add\n      mload(0x40)\n      swap1\n      dup2\n      add\n      0x40\n      mstore\n      dup1\n      swap3\n      swap2\n      swap1\n      dup2\n      dup2\n      mstore\n      0x20\n      add\n      dup3\n      dup1\n      sload\n      tag_245\n      swap1\n      tag_136\n      jump\t// in\n    tag_245:\n      dup1\n      iszero\n      tag_246\n      jumpi\n      dup1\n      0x1f\n      lt\n      tag_247\n      jumpi\n      0x0100\n      dup1\n      dup4\n      sload\n      div\n      mul\n      dup4\n      mstore\n      swap2\n      0x20\n      add\n      swap2\n      jump(tag_246)\n    tag_247:\n      dup3\n      add\n      swap2\n      swap1\n      0x00\n      mstore\n      keccak256(0x00, 0x20)\n      swap1\n    tag_248:\n      dup2\n      sload\n      dup2\n      mstore\n      swap1\n      0x01\n      add\n      swap1\n      0x20\n      add\n      dup1\n      dup4\n      gt\n      tag_248\n      jumpi\n      dup3\n      swap1\n      sub\n      0x1f\n      and\n      dup3\n      add\n      swap2\n    tag_246:\n      pop\n      pop\n      pop\n      pop\n      pop\n      swap1\n      dup1\n      0x01\n      add\n      0x00\n      swap1\n      sload\n      swap1\n      0x0100\n      exp\n      swap1\n      div\n      0xffffffffffffffffffffffffffffffffffffffff\n      and\n      swap1\n      dup1\n      0x02\n      add\n      dup1\n      sload\n      tag_249\n      swap1\n      tag_136\n      jump\t// in\n    tag_249:\n      dup1\n      0x1f\n      add\n      0x20\n      dup1\n      swap2\n      div\n      mul\n      0x20\n      add\n      mload(0x40)\n      swap1\n      dup2\n      add\n      0x40\n      mstore\n      dup1\n      swap3\n      swap2\n      swap1\n      dup2\n      dup2\n      mstore\n      0x20\n      add\n      dup3\n      dup1\n      sload\n      tag_250\n      swap1\n      tag_136\n      jump\t// in\n    tag_250:\n      dup1\n      iszero\n      tag_251\n      jumpi\n      dup1\n      0x1f\n      lt\n      tag_252\n      jumpi\n      0x0100\n      dup1\n      dup4\n      sload\n      div\n      mul\n      dup4\n      mstore\n      swap2\n      0x20\n      add\n      swap2\n      jump(tag_251)\n    tag_252:\n      dup3\n      add\n      swap2\n      swap1\n      0x00\n      mstore\n      keccak256(0x00, 0x20)\n      swap1\n    tag_253:\n      dup2\n      sload\n      dup2\n      mstore\n      swap1\n      0x01\n      add\n      swap1\n      0x20\n      add\n      dup1\n      dup4\n      gt\n      tag_253\n      jumpi\n      dup3\n      swap1\n      sub\n      0x1f\n      and\n      dup3\n      add\n      swap2\n    tag_251:\n      pop\n      pop\n      pop\n      pop\n      pop\n      swap1\n      dup1\n      0x03\n      add\n      dup1\n      sload\n      tag_254\n      swap1\n      tag_136\n      jump\t// in\n    tag_254:\n      dup1\n      0x1f\n      add\n      0x20\n      dup1\n      swap2\n      div\n      mul\n      0x20\n      add\n      mload(0x40)\n      swap1\n      dup2\n      add\n      0x40\n      mstore\n      dup1\n      swap3\n      swap2\n      swap1\n      dup2\n      dup2\n      mstore\n      0x20\n      add\n      dup3\n      dup1\n      sload\n      tag_255\n      swap1\n      tag_136\n      jump\t// in\n    tag_255:\n      dup1\n      iszero\n      tag_256\n      jumpi\n      dup1\n      0x1f\n      lt\n      tag_257\n      jumpi\n      0x0100\n      dup1\n      dup4\n      sload\n      div\n      mul\n      dup4\n      mstore\n      swap2\n      0x20\n      add\n      swap2\n      jump(tag_256)\n    tag_257:\n      dup3\n      add\n      swap2\n      swap1\n      0x00\n      mstore\n      keccak256(0x00, 0x20)\n      swap1\n    tag_258:\n      dup2\n      sload\n      dup2\n      mstore\n      swap1\n      0x01\n      add\n      swap1\n      0x20\n      add\n      dup1\n      dup4\n      gt\n      tag_258\n      jumpi\n      dup3\n      swap1\n      sub\n      0x1f\n      and\n      dup3\n      add\n      swap2\n    tag_256:\n      pop\n      pop\n      pop\n      pop\n      pop\n      swap1\n      dup1\n      0x04\n      add\n      0x00\n      swap1\n      sload\n      swap1\n      0x0100\n      exp\n      swap1\n      div\n      0xffffffffffffffffffffffffffffffffffffffff\n      and\n      swap1\n      pop\n      dup6\n      jump\t// out\n        /* \"verifystud.sol\":252:279  registerStud public studreg */\n    tag_97:\n      0x01\n      0x00\n      swap1\n      sload\n      swap1\n      0x0100\n      exp\n      swap1\n      div\n      0xffffffffffffffffffffffffffffffffffffffff\n      and\n      dup2\n      jump\t// out\n        /* \"verifystud.sol\":6984:7144  function getStudentContractByAddress(... */\n    tag_102:\n        /* \"verifystud.sol\":7077:7084  address */\n      0x00\n        /* \"verifystud.sol\":7104:7125  registeredStudentsmap */\n      0x07\n        /* \"verifystud.sol\":7104:7136  registeredStudentsmap[_employee] */\n      0x00\n        /* \"verifystud.sol\":7126:7135  _employee */\n      dup4\n        /* \"verifystud.sol\":7104:7136  registeredStudentsmap[_employee] */\n      0xffffffffffffffffffffffffffffffffffffffff\n      and\n      0xffffffffffffffffffffffffffffffffffffffff\n      and\n      dup2\n      mstore\n      0x20\n      add\n      swap1\n      dup2\n      mstore\n      0x20\n      add\n      0x00\n      keccak256\n      0x00\n      swap1\n      sload\n      swap1\n      0x0100\n      exp\n      swap1\n      div\n      0xffffffffffffffffffffffffffffffffffffffff\n      and\n        /* \"verifystud.sol\":7097:7136  return registeredStudentsmap[_employee] */\n      swap1\n      pop\n        /* \"verifystud.sol\":6984:7144  function getStudentContractByAddress(... */\n      swap2\n      swap1\n      pop\n      jump\t// out\n        /* \"verifystud.sol\":4018:4899  function verifyTransferstudent(uint256 index) public {... */\n    tag_106:\n        /* \"verifystud.sol\":4083:4101  string memory name */\n      0x00\n        /* \"verifystud.sol\":4102:4125  address student_address */\n      dup1\n        /* \"verifystud.sol\":4126:4145  string memory email */\n      0x00\n        /* \"verifystud.sol\":4146:4162  string memory id */\n      dup1\n        /* \"verifystud.sol\":4163:4182  address instaddress */\n      0x00\n        /* \"verifystud.sol\":4184:4216  getTransferStudentByindex(index) */\n      tag_261\n        /* \"verifystud.sol\":4210:4215  index */\n      dup7\n        /* \"verifystud.sol\":4184:4209  getTransferStudentByindex */\n      tag_80\n        /* \"verifystud.sol\":4184:4216  getTransferStudentByindex(index) */\n      jump\t// in\n    tag_261:\n        /* \"verifystud.sol\":4082:4216  (string memory name,address student_address,string memory email,string memory id,address instaddress)=getTransferStudentByindex(index) */\n      swap5\n      pop\n      swap5\n      pop\n      swap5\n      pop\n      swap5\n      pop\n      swap5\n      pop\n        /* \"verifystud.sol\":4249:4260  instaddress */\n      dup1\n        /* \"verifystud.sol\":4235:4260  msg.sender == instaddress */\n      0xffffffffffffffffffffffffffffffffffffffff\n      and\n        /* \"verifystud.sol\":4235:4245  msg.sender */\n      caller\n        /* \"verifystud.sol\":4235:4260  msg.sender == instaddress */\n      0xffffffffffffffffffffffffffffffffffffffff\n      and\n      eq\n        /* \"verifystud.sol\":4227:4291  require(msg.sender == instaddress, \"Not the Stuent's Institute\") */\n      tag_262\n      jumpi\n      mload(0x40)\n      0x08c379a000000000000000000000000000000000000000000000000000000000\n      dup2\n      mstore\n      0x04\n      add\n      tag_263\n      swap1\n      tag_264\n      jump\t// in\n    tag_263:\n      mload(0x40)\n      dup1\n      swap2\n      sub\n      swap1\n      revert\n    tag_262:\n        /* \"verifystud.sol\":4567:4578  bytes32 key */\n      0x00\n        /* \"verifystud.sol\":4581:4588  studreg */\n      0x01\n      0x00\n      swap1\n      sload\n      swap1\n      0x0100\n      exp\n      swap1\n      div\n      0xffffffffffffffffffffffffffffffffffffffff\n      and\n        /* \"verifystud.sol\":4581:4600  studreg.generateKey */\n      0xffffffffffffffffffffffffffffffffffffffff\n      and\n      0x8a97503d\n        /* \"verifystud.sol\":4615:4630  student_address */\n      dup7\n        /* \"verifystud.sol\":4645:4647  id */\n      dup6\n        /* \"verifystud.sol\":4581:4658  studreg.generateKey(... */\n      mload(0x40)\n      dup4\n      0xffffffff\n      and\n      0xe0\n      shl\n      dup2\n      mstore\n      0x04\n      add\n      tag_265\n      swap3\n      swap2\n      swap1\n      tag_117\n      jump\t// in\n    tag_265:\n      0x20\n      mload(0x40)\n      dup1\n      dup4\n      sub\n      dup2\n      dup7\n      gas\n      staticcall\n      iszero\n      dup1\n      iszero\n      tag_267\n      jumpi\n      returndatasize\n      0x00\n      dup1\n      returndatacopy\n      revert(0x00, returndatasize)\n    tag_267:\n      pop\n      pop\n      pop\n      pop\n      mload(0x40)\n      returndatasize\n      not(0x1f)\n      0x1f\n      dup3\n      add\n      and\n      dup3\n      add\n      dup1\n      0x40\n      mstore\n      pop\n      dup2\n      add\n      swap1\n      tag_268\n      swap2\n      swap1\n      tag_121\n      jump\t// in\n    tag_268:\n        /* \"verifystud.sol\":4567:4658  bytes32 key = studreg.generateKey(... */\n      swap1\n      pop\n        /* \"verifystud.sol\":4677:4684  studreg */\n      0x01\n      0x00\n      swap1\n      sload\n      swap1\n      0x0100\n      exp\n      swap1\n      div\n      0xffffffffffffffffffffffffffffffffffffffff\n      and\n        /* \"verifystud.sol\":4677:4702  studreg.addInstTostudInfo */\n      0xffffffffffffffffffffffffffffffffffffffff\n      and\n      0x4268ddbd\n        /* \"verifystud.sol\":4703:4708  index */\n      dup9\n        /* \"verifystud.sol\":4710:4713  key */\n      dup4\n        /* \"verifystud.sol\":4715:4725  msg.sender */\n      caller\n        /* \"verifystud.sol\":4677:4726  studreg.addInstTostudInfo(index, key, msg.sender) */\n      mload(0x40)\n      dup5\n      0xffffffff\n      and\n      0xe0\n      shl\n      dup2\n      mstore\n      0x04\n      add\n      tag_269\n      swap4\n      swap3\n      swap2\n      swap1\n      tag_270\n      jump\t// in\n    tag_269:\n      0x20\n      mload(0x40)\n      dup1\n      dup4\n      sub\n      dup2\n      0x00\n      dup8\n      gas\n      call\n      iszero\n      dup1\n      iszero\n      tag_272\n      jumpi\n      returndatasize\n      0x00\n      dup1\n      returndatacopy\n      revert(0x00, returndatasize)\n    tag_272:\n      pop\n      pop\n      pop\n      pop\n      mload(0x40)\n      returndatasize\n      not(0x1f)\n      0x1f\n      dup3\n      add\n      and\n      dup3\n      add\n      dup1\n      0x40\n      mstore\n      pop\n      dup2\n      add\n      swap1\n      tag_273\n      swap2\n      swap1\n      tag_179\n      jump\t// in\n    tag_273:\n        /* \"verifystud.sol\":4669:4770  require(studreg.addInstTostudInfo(index, key, msg.sender), \"Failed to add institute to student info\") */\n      tag_274\n      jumpi\n      mload(0x40)\n      0x08c379a000000000000000000000000000000000000000000000000000000000\n      dup2\n      mstore\n      0x04\n      add\n      tag_275\n      swap1\n      tag_276\n      jump\t// in\n    tag_275:\n      mload(0x40)\n      dup1\n      swap2\n      sub\n      swap1\n      revert\n    tag_274:\n        /* \"verifystud.sol\":4788:4809  transferStudentsarray */\n      0x06\n        /* \"verifystud.sol\":4810:4815  index */\n      dup8\n        /* \"verifystud.sol\":4788:4816  transferStudentsarray[index] */\n      dup2\n      sload\n      dup2\n      lt\n      tag_277\n      jumpi\n      tag_278\n      tag_157\n      jump\t// in\n    tag_278:\n    tag_277:\n      swap1\n      0x00\n      mstore\n      keccak256(0x00, 0x20)\n      swap1\n      0x05\n      mul\n      add\n      0x00\n        /* \"verifystud.sol\":4781:4816  delete transferStudentsarray[index] */\n      dup1\n      dup3\n      add\n      0x00\n      tag_280\n      swap2\n      swap1\n      tag_281\n      jump\t// in\n    tag_280:\n      0x01\n      dup3\n      add\n      exp(0x0100, 0x00)\n      dup2\n      sload\n      swap1\n      0xffffffffffffffffffffffffffffffffffffffff\n      mul\n      not\n      and\n      swap1\n      sstore\n      0x02\n      dup3\n      add\n      0x00\n      tag_282\n      swap2\n      swap1\n      tag_281\n      jump\t// in\n    tag_282:\n      0x03\n      dup3\n      add\n      0x00\n      tag_283\n      swap2\n      swap1\n      tag_281\n      jump\t// in\n    tag_283:\n      0x04\n      dup3\n      add\n      exp(0x0100, 0x00)\n      dup2\n      sload\n      swap1\n      0xffffffffffffffffffffffffffffffffffffffff\n      mul\n      not\n      and\n      swap1\n      sstore\n      pop\n      pop\n        /* \"verifystud.sol\":4071:4899  {... */\n      pop\n      pop\n      pop\n      pop\n      pop\n      pop\n        /* \"verifystud.sol\":4018:4899  function verifyTransferstudent(uint256 index) public {... */\n      pop\n      jump\t// out\n        /* \"verifystud.sol\":3118:4009  function verifystudent(uint256 index) public onlyverfiedInstitute  {... */\n    tag_109:\n        /* \"verifystud.sol\":7400:7401  0 */\n      0x00\n        /* \"verifystud.sol\":7346:7402  instregd.registeredinstitutesmap(msg.sender)!=address(0) */\n      0xffffffffffffffffffffffffffffffffffffffff\n      and\n        /* \"verifystud.sol\":7346:7354  instregd */\n      0x02\n      0x00\n      swap1\n      sload\n      swap1\n      0x0100\n      exp\n      swap1\n      div\n      0xffffffffffffffffffffffffffffffffffffffff\n      and\n        /* \"verifystud.sol\":7346:7378  instregd.registeredinstitutesmap */\n      0xffffffffffffffffffffffffffffffffffffffff\n      and\n      0x839f602d\n        /* \"verifystud.sol\":7379:7389  msg.sender */\n      caller\n        /* \"verifystud.sol\":7346:7390  instregd.registeredinstitutesmap(msg.sender) */\n      mload(0x40)\n      dup3\n      0xffffffff\n      and\n      0xe0\n      shl\n      dup2\n      mstore\n      0x04\n      add\n      tag_285\n      swap2\n      swap1\n      tag_54\n      jump\t// in\n    tag_285:\n      0x20\n      mload(0x40)\n      dup1\n      dup4\n      sub\n      dup2\n      dup7\n      gas\n      staticcall\n      iszero\n      dup1\n      iszero\n      tag_287\n      jumpi\n      returndatasize\n      0x00\n      dup1\n      returndatacopy\n      revert(0x00, returndatasize)\n    tag_287:\n      pop\n      pop\n      pop\n      pop\n      mload(0x40)\n      returndatasize\n      not(0x1f)\n      0x1f\n      dup3\n      add\n      and\n      dup3\n      add\n      dup1\n      0x40\n      mstore\n      pop\n      dup2\n      add\n      swap1\n      tag_288\n      swap2\n      swap1\n      tag_132\n      jump\t// in\n    tag_288:\n        /* \"verifystud.sol\":7346:7402  instregd.registeredinstitutesmap(msg.sender)!=address(0) */\n      0xffffffffffffffffffffffffffffffffffffffff\n      and\n      eq\n      iszero\n        /* \"verifystud.sol\":7338:7430  require(instregd.registeredinstitutesmap(msg.sender)!=address(0), \"You are not Authorized!\") */\n      tag_289\n      jumpi\n      mload(0x40)\n      0x08c379a000000000000000000000000000000000000000000000000000000000\n      dup2\n      mstore\n      0x04\n      add\n      tag_290\n      swap1\n      tag_200\n      jump\t// in\n    tag_290:\n      mload(0x40)\n      dup1\n      swap2\n      sub\n      swap1\n      revert\n    tag_289:\n        /* \"verifystud.sol\":3197:3215  string memory name */\n      0x00\n        /* \"verifystud.sol\":3216:3239  address student_address */\n      dup1\n        /* \"verifystud.sol\":3240:3259  string memory email */\n      0x00\n        /* \"verifystud.sol\":3260:3276  string memory id */\n      dup1\n        /* \"verifystud.sol\":3277:3296  address instaddress */\n      0x00\n        /* \"verifystud.sol\":3298:3329  getPendingStudentByindex(index) */\n      tag_292\n        /* \"verifystud.sol\":3323:3328  index */\n      dup7\n        /* \"verifystud.sol\":3298:3322  getPendingStudentByindex */\n      tag_49\n        /* \"verifystud.sol\":3298:3329  getPendingStudentByindex(index) */\n      jump\t// in\n    tag_292:\n        /* \"verifystud.sol\":3196:3329  (string memory name,address student_address,string memory email,string memory id,address instaddress)=getPendingStudentByindex(index) */\n      swap5\n      pop\n      swap5\n      pop\n      swap5\n      pop\n      swap5\n      pop\n      swap5\n      pop\n        /* \"verifystud.sol\":3362:3373  instaddress */\n      dup1\n        /* \"verifystud.sol\":3348:3373  msg.sender == instaddress */\n      0xffffffffffffffffffffffffffffffffffffffff\n      and\n        /* \"verifystud.sol\":3348:3358  msg.sender */\n      caller\n        /* \"verifystud.sol\":3348:3373  msg.sender == instaddress */\n      0xffffffffffffffffffffffffffffffffffffffff\n      and\n      eq\n        /* \"verifystud.sol\":3340:3404  require(msg.sender == instaddress, \"Not the Stuent's Institute\") */\n      tag_293\n      jumpi\n      mload(0x40)\n      0x08c379a000000000000000000000000000000000000000000000000000000000\n      dup2\n      mstore\n      0x04\n      add\n      tag_294\n      swap1\n      tag_264\n      jump\t// in\n    tag_294:\n      mload(0x40)\n      dup1\n      swap2\n      sub\n      swap1\n      revert\n    tag_293:\n        /* \"verifystud.sol\":3680:3691  bytes32 key */\n      0x00\n        /* \"verifystud.sol\":3694:3701  studreg */\n      0x01\n      0x00\n      swap1\n      sload\n      swap1\n      0x0100\n      exp\n      swap1\n      div\n      0xffffffffffffffffffffffffffffffffffffffff\n      and\n        /* \"verifystud.sol\":3694:3713  studreg.generateKey */\n      0xffffffffffffffffffffffffffffffffffffffff\n      and\n      0x8a97503d\n        /* \"verifystud.sol\":3728:3743  student_address */\n      dup7\n        /* \"verifystud.sol\":3758:3760  id */\n      dup6\n        /* \"verifystud.sol\":3694:3771  studreg.generateKey(... */\n      mload(0x40)\n      dup4\n      0xffffffff\n      and\n      0xe0\n      shl\n      dup2\n      mstore\n      0x04\n      add\n      tag_295\n      swap3\n      swap2\n      swap1\n      tag_117\n      jump\t// in\n    tag_295:\n      0x20\n      mload(0x40)\n      dup1\n      dup4\n      sub\n      dup2\n      dup7\n      gas\n      staticcall\n      iszero\n      dup1\n      iszero\n      tag_297\n      jumpi\n      returndatasize\n      0x00\n      dup1\n      returndatacopy\n      revert(0x00, returndatasize)\n    tag_297:\n      pop\n      pop\n      pop\n      pop\n      mload(0x40)\n      returndatasize\n      not(0x1f)\n      0x1f\n      dup3\n      add\n      and\n      dup3\n      add\n      dup1\n      0x40\n      mstore\n      pop\n      dup2\n      add\n      swap1\n      tag_298\n      swap2\n      swap1\n      tag_121\n      jump\t// in\n    tag_298:\n        /* \"verifystud.sol\":3680:3771  bytes32 key = studreg.generateKey(... */\n      swap1\n      pop\n        /* \"verifystud.sol\":3790:3797  studreg */\n      0x01\n      0x00\n      swap1\n      sload\n      swap1\n      0x0100\n      exp\n      swap1\n      div\n      0xffffffffffffffffffffffffffffffffffffffff\n      and\n        /* \"verifystud.sol\":3790:3815  studreg.addInstTostudInfo */\n      0xffffffffffffffffffffffffffffffffffffffff\n      and\n      0x4268ddbd\n        /* \"verifystud.sol\":3816:3821  index */\n      dup9\n        /* \"verifystud.sol\":3823:3826  key */\n      dup4\n        /* \"verifystud.sol\":3828:3838  msg.sender */\n      caller\n        /* \"verifystud.sol\":3790:3839  studreg.addInstTostudInfo(index, key, msg.sender) */\n      mload(0x40)\n      dup5\n      0xffffffff\n      and\n      0xe0\n      shl\n      dup2\n      mstore\n      0x04\n      add\n      tag_299\n      swap4\n      swap3\n      swap2\n      swap1\n      tag_270\n      jump\t// in\n    tag_299:\n      0x20\n      mload(0x40)\n      dup1\n      dup4\n      sub\n      dup2\n      0x00\n      dup8\n      gas\n      call\n      iszero\n      dup1\n      iszero\n      tag_301\n      jumpi\n      returndatasize\n      0x00\n      dup1\n      returndatacopy\n      revert(0x00, returndatasize)\n    tag_301:\n      pop\n      pop\n      pop\n      pop\n      mload(0x40)\n      returndatasize\n      not(0x1f)\n      0x1f\n      dup3\n      add\n      and\n      dup3\n      add\n      dup1\n      0x40\n      mstore\n      pop\n      dup2\n      add\n      swap1\n      tag_302\n      swap2\n      swap1\n      tag_179\n      jump\t// in\n    tag_302:\n        /* \"verifystud.sol\":3782:3883  require(studreg.addInstTostudInfo(index, key, msg.sender), \"Failed to add institute to student info\") */\n      tag_303\n      jumpi\n      mload(0x40)\n      0x08c379a000000000000000000000000000000000000000000000000000000000\n      dup2\n      mstore\n      0x04\n      add\n      tag_304\n      swap1\n      tag_276\n      jump\t// in\n    tag_304:\n      mload(0x40)\n      dup1\n      swap2\n      sub\n      swap1\n      revert\n    tag_303:\n        /* \"verifystud.sol\":3901:3921  pendingStudentsarray */\n      0x05\n        /* \"verifystud.sol\":3922:3927  index */\n      dup8\n        /* \"verifystud.sol\":3901:3928  pendingStudentsarray[index] */\n      dup2\n      sload\n      dup2\n      lt\n      tag_305\n      jumpi\n      tag_306\n      tag_157\n      jump\t// in\n    tag_306:\n    tag_305:\n      swap1\n      0x00\n      mstore\n      keccak256(0x00, 0x20)\n      swap1\n      0x05\n      mul\n      add\n      0x00\n        /* \"verifystud.sol\":3894:3928  delete pendingStudentsarray[index] */\n      dup1\n      dup3\n      add\n      0x00\n      tag_308\n      swap2\n      swap1\n      tag_281\n      jump\t// in\n    tag_308:\n      0x01\n      dup3\n      add\n      exp(0x0100, 0x00)\n      dup2\n      sload\n      swap1\n      0xffffffffffffffffffffffffffffffffffffffff\n      mul\n      not\n      and\n      swap1\n      sstore\n      0x02\n      dup3\n      add\n      0x00\n      tag_309\n      swap2\n      swap1\n      tag_281\n      jump\t// in\n    tag_309:\n      0x03\n      dup3\n      add\n      0x00\n      tag_310\n      swap2\n      swap1\n      tag_281\n      jump\t// in\n    tag_310:\n      0x04\n      dup3\n      add\n      exp(0x0100, 0x00)\n      dup2\n      sload\n      swap1\n      0xffffffffffffffffffffffffffffffffffffffff\n      mul\n      not\n      and\n      swap1\n      sstore\n      pop\n      pop\n        /* \"verifystud.sol\":3185:4009  {... */\n      pop\n      pop\n      pop\n      pop\n      pop\n      pop\n        /* \"verifystud.sol\":3118:4009  function verifystudent(uint256 index) public onlyverfiedInstitute  {... */\n      pop\n      jump\t// out\n        /* \"verifystud.sol\":4905:5360  function removeGraduateStud(uint256 index,address student_address,string memory id) public {... */\n    tag_113:\n        /* \"verifystud.sol\":5007:5018  bytes32 key */\n      0x00\n        /* \"verifystud.sol\":5021:5028  studreg */\n      0x01\n      0x00\n      swap1\n      sload\n      swap1\n      0x0100\n      exp\n      swap1\n      div\n      0xffffffffffffffffffffffffffffffffffffffff\n      and\n        /* \"verifystud.sol\":5021:5040  studreg.generateKey */\n      0xffffffffffffffffffffffffffffffffffffffff\n      and\n      0x8a97503d\n        /* \"verifystud.sol\":5055:5070  student_address */\n      dup5\n        /* \"verifystud.sol\":5085:5087  id */\n      dup5\n        /* \"verifystud.sol\":5021:5098  studreg.generateKey(... */\n      mload(0x40)\n      dup4\n      0xffffffff\n      and\n      0xe0\n      shl\n      dup2\n      mstore\n      0x04\n      add\n      tag_312\n      swap3\n      swap2\n      swap1\n      tag_117\n      jump\t// in\n    tag_312:\n      0x20\n      mload(0x40)\n      dup1\n      dup4\n      sub\n      dup2\n      dup7\n      gas\n      staticcall\n      iszero\n      dup1\n      iszero\n      tag_314\n      jumpi\n      returndatasize\n      0x00\n      dup1\n      returndatacopy\n      revert(0x00, returndatasize)\n    tag_314:\n      pop\n      pop\n      pop\n      pop\n      mload(0x40)\n      returndatasize\n      not(0x1f)\n      0x1f\n      dup3\n      add\n      and\n      dup3\n      add\n      dup1\n      0x40\n      mstore\n      pop\n      dup2\n      add\n      swap1\n      tag_315\n      swap2\n      swap1\n      tag_121\n      jump\t// in\n    tag_315:\n        /* \"verifystud.sol\":5007:5098  bytes32 key = studreg.generateKey(... */\n      swap1\n      pop\n        /* \"verifystud.sol\":5124:5150  address currentInstAddress */\n      0x00\n        /* \"verifystud.sol\":5152:5159  studreg */\n      0x01\n      0x00\n      swap1\n      sload\n      swap1\n      0x0100\n      exp\n      swap1\n      div\n      0xffffffffffffffffffffffffffffffffffffffff\n      and\n        /* \"verifystud.sol\":5152:5185  studreg.getRegisteredStudentByKey */\n      0xffffffffffffffffffffffffffffffffffffffff\n      and\n      0x435df20d\n        /* \"verifystud.sol\":5186:5189  key */\n      dup4\n        /* \"verifystud.sol\":5152:5190  studreg.getRegisteredStudentByKey(key) */\n      mload(0x40)\n      dup3\n      0xffffffff\n      and\n      0xe0\n      shl\n      dup2\n      mstore\n      0x04\n      add\n      tag_316\n      swap2\n      swap1\n      tag_71\n      jump\t// in\n    tag_316:\n      0x00\n      mload(0x40)\n      dup1\n      dup4\n      sub\n      dup2\n      dup7\n      gas\n      staticcall\n      iszero\n      dup1\n      iszero\n      tag_318\n      jumpi\n      returndatasize\n      0x00\n      dup1\n      returndatacopy\n      revert(0x00, returndatasize)\n    tag_318:\n      pop\n      pop\n      pop\n      pop\n      mload(0x40)\n      returndatasize\n      0x00\n      dup3\n      returndatacopy\n      returndatasize\n      not(0x1f)\n      0x1f\n      dup3\n      add\n      and\n      dup3\n      add\n      dup1\n      0x40\n      mstore\n      pop\n      dup2\n      add\n      swap1\n      tag_319\n      swap2\n      swap1\n      tag_126\n      jump\t// in\n    tag_319:\n        /* \"verifystud.sol\":5119:5190  (,,,,address currentInstAddress)=studreg.getRegisteredStudentByKey(key) */\n      swap5\n      pop\n      pop\n      pop\n      pop\n      pop\n        /* \"verifystud.sol\":5223:5241  currentInstAddress */\n      dup1\n        /* \"verifystud.sol\":5209:5241  msg.sender == currentInstAddress */\n      0xffffffffffffffffffffffffffffffffffffffff\n      and\n        /* \"verifystud.sol\":5209:5219  msg.sender */\n      caller\n        /* \"verifystud.sol\":5209:5241  msg.sender == currentInstAddress */\n      0xffffffffffffffffffffffffffffffffffffffff\n      and\n      eq\n        /* \"verifystud.sol\":5201:5242  require(msg.sender == currentInstAddress) */\n      tag_320\n      jumpi\n      0x00\n      dup1\n      revert\n    tag_320:\n        /* \"verifystud.sol\":5261:5268  studreg */\n      0x01\n      0x00\n      swap1\n      sload\n      swap1\n      0x0100\n      exp\n      swap1\n      div\n      0xffffffffffffffffffffffffffffffffffffffff\n      and\n        /* \"verifystud.sol\":5261:5291  studreg.removeInstFromstudInfo */\n      0xffffffffffffffffffffffffffffffffffffffff\n      and\n      0x956a3545\n        /* \"verifystud.sol\":5292:5297  index */\n      dup7\n        /* \"verifystud.sol\":5299:5302  key */\n      dup5\n        /* \"verifystud.sol\":5261:5303  studreg.removeInstFromstudInfo(index, key) */\n      mload(0x40)\n      dup4\n      0xffffffff\n      and\n      0xe0\n      shl\n      dup2\n      mstore\n      0x04\n      add\n      tag_321\n      swap3\n      swap2\n      swap1\n      tag_322\n      jump\t// in\n    tag_321:\n      0x20\n      mload(0x40)\n      dup1\n      dup4\n      sub\n      dup2\n      0x00\n      dup8\n      gas\n      call\n      iszero\n      dup1\n      iszero\n      tag_324\n      jumpi\n      returndatasize\n      0x00\n      dup1\n      returndatacopy\n      revert(0x00, returndatasize)\n    tag_324:\n      pop\n      pop\n      pop\n      pop\n      mload(0x40)\n      returndatasize\n      not(0x1f)\n      0x1f\n      dup3\n      add\n      and\n      dup3\n      add\n      dup1\n      0x40\n      mstore\n      pop\n      dup2\n      add\n      swap1\n      tag_325\n      swap2\n      swap1\n      tag_179\n      jump\t// in\n    tag_325:\n        /* \"verifystud.sol\":5253:5352  require(studreg.removeInstFromstudInfo(index, key), \"Failed to remove institute from student info\") */\n      tag_326\n      jumpi\n      mload(0x40)\n      0x08c379a000000000000000000000000000000000000000000000000000000000\n      dup2\n      mstore\n      0x04\n      add\n      tag_327\n      swap1\n      tag_328\n      jump\t// in\n    tag_327:\n      mload(0x40)\n      dup1\n      swap2\n      sub\n      swap1\n      revert\n    tag_326:\n        /* \"verifystud.sol\":4996:5360  {... */\n      pop\n      pop\n        /* \"verifystud.sol\":4905:5360  function removeGraduateStud(uint256 index,address student_address,string memory id) public {... */\n      pop\n      pop\n      pop\n      jump\t// out\n    tag_186:\n      mload(0x40)\n      dup1\n      0xa0\n      add\n      0x40\n      mstore\n      dup1\n      0x60\n      dup2\n      mstore\n      0x20\n      add\n      and(0xffffffffffffffffffffffffffffffffffffffff, 0x00)\n      dup2\n      mstore\n      0x20\n      add\n      0x60\n      dup2\n      mstore\n      0x20\n      add\n      0x60\n      dup2\n      mstore\n      0x20\n      add\n      and(0xffffffffffffffffffffffffffffffffffffffff, 0x00)\n      dup2\n      mstore\n      pop\n      swap1\n      jump\t// out\n    tag_189:\n      dup3\n      dup1\n      sload\n      tag_329\n      swap1\n      tag_136\n      jump\t// in\n    tag_329:\n      swap1\n      0x00\n      mstore\n      keccak256(0x00, 0x20)\n      swap1\n      0x1f\n      add\n      0x20\n      swap1\n      div\n      dup2\n      add\n      swap3\n      dup3\n      tag_331\n      jumpi\n      0x00\n      dup6\n      sstore\n      jump(tag_330)\n    tag_331:\n      dup3\n      0x1f\n      lt\n      tag_332\n      jumpi\n      dup1\n      mload\n      not(0xff)\n      and\n      dup4\n      dup1\n      add\n      or\n      dup6\n      sstore\n      jump(tag_330)\n    tag_332:\n      dup3\n      dup1\n      add\n      0x01\n      add\n      dup6\n      sstore\n      dup3\n      iszero\n      tag_330\n      jumpi\n      swap2\n      dup3\n      add\n    tag_333:\n      dup3\n      dup2\n      gt\n      iszero\n      tag_334\n      jumpi\n      dup3\n      mload\n      dup3\n      sstore\n      swap2\n      0x20\n      add\n      swap2\n      swap1\n      0x01\n      add\n      swap1\n      jump(tag_333)\n    tag_334:\n    tag_330:\n      pop\n      swap1\n      pop\n      tag_335\n      swap2\n      swap1\n      tag_336\n      jump\t// in\n    tag_335:\n      pop\n      swap1\n      jump\t// out\n    tag_281:\n      pop\n      dup1\n      sload\n      tag_337\n      swap1\n      tag_136\n      jump\t// in\n    tag_337:\n      0x00\n      dup3\n      sstore\n      dup1\n      0x1f\n      lt\n      tag_339\n      jumpi\n      pop\n      jump(tag_338)\n    tag_339:\n      0x1f\n      add\n      0x20\n      swap1\n      div\n      swap1\n      0x00\n      mstore\n      keccak256(0x00, 0x20)\n      swap1\n      dup2\n      add\n      swap1\n      tag_340\n      swap2\n      swap1\n      tag_336\n      jump\t// in\n    tag_340:\n    tag_338:\n      pop\n      jump\t// out\n    tag_336:\n    tag_341:\n      dup1\n      dup3\n      gt\n      iszero\n      tag_342\n      jumpi\n      0x00\n      dup2\n      0x00\n      swap1\n      sstore\n      pop\n      0x01\n      add\n      jump(tag_341)\n    tag_342:\n      pop\n      swap1\n      jump\t// out\n        /* \"#utility.yul\":7:84   */\n    tag_343:\n        /* \"#utility.yul\":44:51   */\n      0x00\n        /* \"#utility.yul\":73:78   */\n      dup2\n        /* \"#utility.yul\":62:78   */\n      swap1\n      pop\n        /* \"#utility.yul\":7:84   */\n      swap2\n      swap1\n      pop\n      jump\t// out\n        /* \"#utility.yul\":90:208   */\n    tag_344:\n        /* \"#utility.yul\":177:201   */\n      tag_409\n        /* \"#utility.yul\":195:200   */\n      dup2\n        /* \"#utility.yul\":177:201   */\n      tag_343\n      jump\t// in\n    tag_409:\n        /* \"#utility.yul\":172:175   */\n      dup3\n        /* \"#utility.yul\":165:202   */\n      mstore\n        /* \"#utility.yul\":90:208   */\n      pop\n      pop\n      jump\t// out\n        /* \"#utility.yul\":214:436   */\n    tag_31:\n        /* \"#utility.yul\":307:311   */\n      0x00\n        /* \"#utility.yul\":345:347   */\n      0x20\n        /* \"#utility.yul\":334:343   */\n      dup3\n        /* \"#utility.yul\":330:348   */\n      add\n        /* \"#utility.yul\":322:348   */\n      swap1\n      pop\n        /* \"#utility.yul\":358:429   */\n      tag_411\n        /* \"#utility.yul\":426:427   */\n      0x00\n        /* \"#utility.yul\":415:424   */\n      dup4\n        /* \"#utility.yul\":411:428   */\n      add\n        /* \"#utility.yul\":402:408   */\n      dup5\n        /* \"#utility.yul\":358:429   */\n      tag_344\n      jump\t// in\n    tag_411:\n        /* \"#utility.yul\":214:436   */\n      swap3\n      swap2\n      pop\n      pop\n      jump\t// out\n        /* \"#utility.yul\":442:517   */\n    tag_345:\n        /* \"#utility.yul\":475:481   */\n      0x00\n        /* \"#utility.yul\":508:510   */\n      0x40\n        /* \"#utility.yul\":502:511   */\n      mload\n        /* \"#utility.yul\":492:511   */\n      swap1\n      pop\n        /* \"#utility.yul\":442:517   */\n      swap1\n      jump\t// out\n        /* \"#utility.yul\":523:640   */\n    tag_346:\n        /* \"#utility.yul\":632:633   */\n      0x00\n        /* \"#utility.yul\":629:630   */\n      dup1\n        /* \"#utility.yul\":622:634   */\n      revert\n        /* \"#utility.yul\":646:763   */\n    tag_347:\n        /* \"#utility.yul\":755:756   */\n      0x00\n        /* \"#utility.yul\":752:753   */\n      dup1\n        /* \"#utility.yul\":745:757   */\n      revert\n        /* \"#utility.yul\":769:895   */\n    tag_348:\n        /* \"#utility.yul\":806:813   */\n      0x00\n        /* \"#utility.yul\":846:888   */\n      0xffffffffffffffffffffffffffffffffffffffff\n        /* \"#utility.yul\":839:844   */\n      dup3\n        /* \"#utility.yul\":835:889   */\n      and\n        /* \"#utility.yul\":824:889   */\n      swap1\n      pop\n        /* \"#utility.yul\":769:895   */\n      swap2\n      swap1\n      pop\n      jump\t// out\n        /* \"#utility.yul\":901:997   */\n    tag_349:\n        /* \"#utility.yul\":938:945   */\n      0x00\n        /* \"#utility.yul\":967:991   */\n      tag_417\n        /* \"#utility.yul\":985:990   */\n      dup3\n        /* \"#utility.yul\":967:991   */\n      tag_348\n      jump\t// in\n    tag_417:\n        /* \"#utility.yul\":956:991   */\n      swap1\n      pop\n        /* \"#utility.yul\":901:997   */\n      swap2\n      swap1\n      pop\n      jump\t// out\n        /* \"#utility.yul\":1003:1125   */\n    tag_350:\n        /* \"#utility.yul\":1076:1100   */\n      tag_419\n        /* \"#utility.yul\":1094:1099   */\n      dup2\n        /* \"#utility.yul\":1076:1100   */\n      tag_349\n      jump\t// in\n    tag_419:\n        /* \"#utility.yul\":1069:1074   */\n      dup2\n        /* \"#utility.yul\":1066:1101   */\n      eq\n        /* \"#utility.yul\":1056:1119   */\n      tag_420\n      jumpi\n        /* \"#utility.yul\":1115:1116   */\n      0x00\n        /* \"#utility.yul\":1112:1113   */\n      dup1\n        /* \"#utility.yul\":1105:1117   */\n      revert\n        /* \"#utility.yul\":1056:1119   */\n    tag_420:\n        /* \"#utility.yul\":1003:1125   */\n      pop\n      jump\t// out\n        /* \"#utility.yul\":1131:1270   */\n    tag_351:\n        /* \"#utility.yul\":1177:1182   */\n      0x00\n        /* \"#utility.yul\":1215:1221   */\n      dup2\n        /* \"#utility.yul\":1202:1222   */\n      calldataload\n        /* \"#utility.yul\":1193:1222   */\n      swap1\n      pop\n        /* \"#utility.yul\":1231:1264   */\n      tag_422\n        /* \"#utility.yul\":1258:1263   */\n      dup2\n        /* \"#utility.yul\":1231:1264   */\n      tag_350\n      jump\t// in\n    tag_422:\n        /* \"#utility.yul\":1131:1270   */\n      swap3\n      swap2\n      pop\n      pop\n      jump\t// out\n        /* \"#utility.yul\":1276:1393   */\n    tag_352:\n        /* \"#utility.yul\":1385:1386   */\n      0x00\n        /* \"#utility.yul\":1382:1383   */\n      dup1\n        /* \"#utility.yul\":1375:1387   */\n      revert\n        /* \"#utility.yul\":1399:1516   */\n    tag_353:\n        /* \"#utility.yul\":1508:1509   */\n      0x00\n        /* \"#utility.yul\":1505:1506   */\n      dup1\n        /* \"#utility.yul\":1498:1510   */\n      revert\n        /* \"#utility.yul\":1522:1624   */\n    tag_354:\n        /* \"#utility.yul\":1563:1569   */\n      0x00\n        /* \"#utility.yul\":1614:1616   */\n      0x1f\n        /* \"#utility.yul\":1610:1617   */\n      not\n        /* \"#utility.yul\":1605:1607   */\n      0x1f\n        /* \"#utility.yul\":1598:1603   */\n      dup4\n        /* \"#utility.yul\":1594:1608   */\n      add\n        /* \"#utility.yul\":1590:1618   */\n      and\n        /* \"#utility.yul\":1580:1618   */\n      swap1\n      pop\n        /* \"#utility.yul\":1522:1624   */\n      swap2\n      swap1\n      pop\n      jump\t// out\n        /* \"#utility.yul\":1630:1810   */\n    tag_355:\n        /* \"#utility.yul\":1678:1755   */\n      0x4e487b7100000000000000000000000000000000000000000000000000000000\n        /* \"#utility.yul\":1675:1676   */\n      0x00\n        /* \"#utility.yul\":1668:1756   */\n      mstore\n        /* \"#utility.yul\":1775:1779   */\n      0x41\n        /* \"#utility.yul\":1772:1773   */\n      0x04\n        /* \"#utility.yul\":1765:1780   */\n      mstore\n        /* \"#utility.yul\":1799:1803   */\n      0x24\n        /* \"#utility.yul\":1796:1797   */\n      0x00\n        /* \"#utility.yul\":1789:1804   */\n      revert\n        /* \"#utility.yul\":1816:2097   */\n    tag_356:\n        /* \"#utility.yul\":1899:1926   */\n      tag_428\n        /* \"#utility.yul\":1921:1925   */\n      dup3\n        /* \"#utility.yul\":1899:1926   */\n      tag_354\n      jump\t// in\n    tag_428:\n        /* \"#utility.yul\":1891:1897   */\n      dup2\n        /* \"#utility.yul\":1887:1927   */\n      add\n        /* \"#utility.yul\":2029:2035   */\n      dup2\n        /* \"#utility.yul\":2017:2027   */\n      dup2\n        /* \"#utility.yul\":2014:2036   */\n      lt\n        /* \"#utility.yul\":1993:2011   */\n      0xffffffffffffffff\n        /* \"#utility.yul\":1981:1991   */\n      dup3\n        /* \"#utility.yul\":1978:2012   */\n      gt\n        /* \"#utility.yul\":1975:2037   */\n      or\n        /* \"#utility.yul\":1972:2060   */\n      iszero\n      tag_429\n      jumpi\n        /* \"#utility.yul\":2040:2058   */\n      tag_430\n      tag_355\n      jump\t// in\n    tag_430:\n        /* \"#utility.yul\":1972:2060   */\n    tag_429:\n        /* \"#utility.yul\":2080:2090   */\n      dup1\n        /* \"#utility.yul\":2076:2078   */\n      0x40\n        /* \"#utility.yul\":2069:2091   */\n      mstore\n        /* \"#utility.yul\":1859:2097   */\n      pop\n        /* \"#utility.yul\":1816:2097   */\n      pop\n      pop\n      jump\t// out\n        /* \"#utility.yul\":2103:2232   */\n    tag_357:\n        /* \"#utility.yul\":2137:2143   */\n      0x00\n        /* \"#utility.yul\":2164:2184   */\n      tag_432\n      tag_345\n      jump\t// in\n    tag_432:\n        /* \"#utility.yul\":2154:2184   */\n      swap1\n      pop\n        /* \"#utility.yul\":2193:2226   */\n      tag_433\n        /* \"#utility.yul\":2221:2225   */\n      dup3\n        /* \"#utility.yul\":2213:2219   */\n      dup3\n        /* \"#utility.yul\":2193:2226   */\n      tag_356\n      jump\t// in\n    tag_433:\n        /* \"#utility.yul\":2103:2232   */\n      swap2\n      swap1\n      pop\n      jump\t// out\n        /* \"#utility.yul\":2238:2546   */\n    tag_358:\n        /* \"#utility.yul\":2300:2304   */\n      0x00\n        /* \"#utility.yul\":2390:2408   */\n      0xffffffffffffffff\n        /* \"#utility.yul\":2382:2388   */\n      dup3\n        /* \"#utility.yul\":2379:2409   */\n      gt\n        /* \"#utility.yul\":2376:2432   */\n      iszero\n      tag_435\n      jumpi\n        /* \"#utility.yul\":2412:2430   */\n      tag_436\n      tag_355\n      jump\t// in\n    tag_436:\n        /* \"#utility.yul\":2376:2432   */\n    tag_435:\n        /* \"#utility.yul\":2450:2479   */\n      tag_437\n        /* \"#utility.yul\":2472:2478   */\n      dup3\n        /* \"#utility.yul\":2450:2479   */\n      tag_354\n      jump\t// in\n    tag_437:\n        /* \"#utility.yul\":2442:2479   */\n      swap1\n      pop\n        /* \"#utility.yul\":2534:2538   */\n      0x20\n        /* \"#utility.yul\":2528:2532   */\n      dup2\n        /* \"#utility.yul\":2524:2539   */\n      add\n        /* \"#utility.yul\":2516:2539   */\n      swap1\n      pop\n        /* \"#utility.yul\":2238:2546   */\n      swap2\n      swap1\n      pop\n      jump\t// out\n        /* \"#utility.yul\":2552:2706   */\n    tag_359:\n        /* \"#utility.yul\":2636:2642   */\n      dup3\n        /* \"#utility.yul\":2631:2634   */\n      dup2\n        /* \"#utility.yul\":2626:2629   */\n      dup4\n        /* \"#utility.yul\":2613:2643   */\n      calldatacopy\n        /* \"#utility.yul\":2698:2699   */\n      0x00\n        /* \"#utility.yul\":2689:2695   */\n      dup4\n        /* \"#utility.yul\":2684:2687   */\n      dup4\n        /* \"#utility.yul\":2680:2696   */\n      add\n        /* \"#utility.yul\":2673:2700   */\n      mstore\n        /* \"#utility.yul\":2552:2706   */\n      pop\n      pop\n      pop\n      jump\t// out\n        /* \"#utility.yul\":2712:3124   */\n    tag_360:\n        /* \"#utility.yul\":2790:2795   */\n      0x00\n        /* \"#utility.yul\":2815:2881   */\n      tag_440\n        /* \"#utility.yul\":2831:2880   */\n      tag_441\n        /* \"#utility.yul\":2873:2879   */\n      dup5\n        /* \"#utility.yul\":2831:2880   */\n      tag_358\n      jump\t// in\n    tag_441:\n        /* \"#utility.yul\":2815:2881   */\n      tag_357\n      jump\t// in\n    tag_440:\n        /* \"#utility.yul\":2806:2881   */\n      swap1\n      pop\n        /* \"#utility.yul\":2904:2910   */\n      dup3\n        /* \"#utility.yul\":2897:2902   */\n      dup2\n        /* \"#utility.yul\":2890:2911   */\n      mstore\n        /* \"#utility.yul\":2942:2946   */\n      0x20\n        /* \"#utility.yul\":2935:2940   */\n      dup2\n        /* \"#utility.yul\":2931:2947   */\n      add\n        /* \"#utility.yul\":2980:2983   */\n      dup5\n        /* \"#utility.yul\":2971:2977   */\n      dup5\n        /* \"#utility.yul\":2966:2969   */\n      dup5\n        /* \"#utility.yul\":2962:2978   */\n      add\n        /* \"#utility.yul\":2959:2984   */\n      gt\n        /* \"#utility.yul\":2956:3068   */\n      iszero\n      tag_442\n      jumpi\n        /* \"#utility.yul\":2987:3066   */\n      tag_443\n      tag_353\n      jump\t// in\n    tag_443:\n        /* \"#utility.yul\":2956:3068   */\n    tag_442:\n        /* \"#utility.yul\":3077:3118   */\n      tag_444\n        /* \"#utility.yul\":3111:3117   */\n      dup5\n        /* \"#utility.yul\":3106:3109   */\n      dup3\n        /* \"#utility.yul\":3101:3104   */\n      dup6\n        /* \"#utility.yul\":3077:3118   */\n      tag_359\n      jump\t// in\n    tag_444:\n        /* \"#utility.yul\":2796:3124   */\n      pop\n        /* \"#utility.yul\":2712:3124   */\n      swap4\n      swap3\n      pop\n      pop\n      pop\n      jump\t// out\n        /* \"#utility.yul\":3144:3484   */\n    tag_361:\n        /* \"#utility.yul\":3200:3205   */\n      0x00\n        /* \"#utility.yul\":3249:3252   */\n      dup3\n        /* \"#utility.yul\":3242:3246   */\n      0x1f\n        /* \"#utility.yul\":3234:3240   */\n      dup4\n        /* \"#utility.yul\":3230:3247   */\n      add\n        /* \"#utility.yul\":3226:3253   */\n      slt\n        /* \"#utility.yul\":3216:3338   */\n      tag_446\n      jumpi\n        /* \"#utility.yul\":3257:3336   */\n      tag_447\n      tag_352\n      jump\t// in\n    tag_447:\n        /* \"#utility.yul\":3216:3338   */\n    tag_446:\n        /* \"#utility.yul\":3374:3380   */\n      dup2\n        /* \"#utility.yul\":3361:3381   */\n      calldataload\n        /* \"#utility.yul\":3399:3478   */\n      tag_448\n        /* \"#utility.yul\":3474:3477   */\n      dup5\n        /* \"#utility.yul\":3466:3472   */\n      dup3\n        /* \"#utility.yul\":3459:3463   */\n      0x20\n        /* \"#utility.yul\":3451:3457   */\n      dup7\n        /* \"#utility.yul\":3447:3464   */\n      add\n        /* \"#utility.yul\":3399:3478   */\n      tag_360\n      jump\t// in\n    tag_448:\n        /* \"#utility.yul\":3390:3478   */\n      swap2\n      pop\n        /* \"#utility.yul\":3206:3484   */\n      pop\n        /* \"#utility.yul\":3144:3484   */\n      swap3\n      swap2\n      pop\n      pop\n      jump\t// out\n        /* \"#utility.yul\":3490:4144   */\n    tag_34:\n        /* \"#utility.yul\":3568:3574   */\n      0x00\n        /* \"#utility.yul\":3576:3582   */\n      dup1\n        /* \"#utility.yul\":3625:3627   */\n      0x40\n        /* \"#utility.yul\":3613:3622   */\n      dup4\n        /* \"#utility.yul\":3604:3611   */\n      dup6\n        /* \"#utility.yul\":3600:3623   */\n      sub\n        /* \"#utility.yul\":3596:3628   */\n      slt\n        /* \"#utility.yul\":3593:3712   */\n      iszero\n      tag_450\n      jumpi\n        /* \"#utility.yul\":3631:3710   */\n      tag_451\n      tag_346\n      jump\t// in\n    tag_451:\n        /* \"#utility.yul\":3593:3712   */\n    tag_450:\n        /* \"#utility.yul\":3751:3752   */\n      0x00\n        /* \"#utility.yul\":3776:3829   */\n      tag_452\n        /* \"#utility.yul\":3821:3828   */\n      dup6\n        /* \"#utility.yul\":3812:3818   */\n      dup3\n        /* \"#utility.yul\":3801:3810   */\n      dup7\n        /* \"#utility.yul\":3797:3819   */\n      add\n        /* \"#utility.yul\":3776:3829   */\n      tag_351\n      jump\t// in\n    tag_452:\n        /* \"#utility.yul\":3766:3829   */\n      swap3\n      pop\n        /* \"#utility.yul\":3722:3839   */\n      pop\n        /* \"#utility.yul\":3906:3908   */\n      0x20\n        /* \"#utility.yul\":3895:3904   */\n      dup4\n        /* \"#utility.yul\":3891:3909   */\n      add\n        /* \"#utility.yul\":3878:3910   */\n      calldataload\n        /* \"#utility.yul\":3937:3955   */\n      0xffffffffffffffff\n        /* \"#utility.yul\":3929:3935   */\n      dup2\n        /* \"#utility.yul\":3926:3956   */\n      gt\n        /* \"#utility.yul\":3923:4040   */\n      iszero\n      tag_453\n      jumpi\n        /* \"#utility.yul\":3959:4038   */\n      tag_454\n      tag_347\n      jump\t// in\n    tag_454:\n        /* \"#utility.yul\":3923:4040   */\n    tag_453:\n        /* \"#utility.yul\":4064:4127   */\n      tag_455\n        /* \"#utility.yul\":4119:4126   */\n      dup6\n        /* \"#utility.yul\":4110:4116   */\n      dup3\n        /* \"#utility.yul\":4099:4108   */\n      dup7\n        /* \"#utility.yul\":4095:4117   */\n      add\n        /* \"#utility.yul\":4064:4127   */\n      tag_361\n      jump\t// in\n    tag_455:\n        /* \"#utility.yul\":4054:4127   */\n      swap2\n      pop\n        /* \"#utility.yul\":3849:4137   */\n      pop\n        /* \"#utility.yul\":3490:4144   */\n      swap3\n      pop\n      swap3\n      swap1\n      pop\n      jump\t// out\n        /* \"#utility.yul\":4150:4240   */\n    tag_362:\n        /* \"#utility.yul\":4184:4191   */\n      0x00\n        /* \"#utility.yul\":4227:4232   */\n      dup2\n        /* \"#utility.yul\":4220:4233   */\n      iszero\n        /* \"#utility.yul\":4213:4234   */\n      iszero\n        /* \"#utility.yul\":4202:4234   */\n      swap1\n      pop\n        /* \"#utility.yul\":4150:4240   */\n      swap2\n      swap1\n      pop\n      jump\t// out\n        /* \"#utility.yul\":4246:4355   */\n    tag_363:\n        /* \"#utility.yul\":4327:4348   */\n      tag_458\n        /* \"#utility.yul\":4342:4347   */\n      dup2\n        /* \"#utility.yul\":4327:4348   */\n      tag_362\n      jump\t// in\n    tag_458:\n        /* \"#utility.yul\":4322:4325   */\n      dup3\n        /* \"#utility.yul\":4315:4349   */\n      mstore\n        /* \"#utility.yul\":4246:4355   */\n      pop\n      pop\n      jump\t// out\n        /* \"#utility.yul\":4361:4571   */\n    tag_37:\n        /* \"#utility.yul\":4448:4452   */\n      0x00\n        /* \"#utility.yul\":4486:4488   */\n      0x20\n        /* \"#utility.yul\":4475:4484   */\n      dup3\n        /* \"#utility.yul\":4471:4489   */\n      add\n        /* \"#utility.yul\":4463:4489   */\n      swap1\n      pop\n        /* \"#utility.yul\":4499:4564   */\n      tag_460\n        /* \"#utility.yul\":4561:4562   */\n      0x00\n        /* \"#utility.yul\":4550:4559   */\n      dup4\n        /* \"#utility.yul\":4546:4563   */\n      add\n        /* \"#utility.yul\":4537:4543   */\n      dup5\n        /* \"#utility.yul\":4499:4564   */\n      tag_363\n      jump\t// in\n    tag_460:\n        /* \"#utility.yul\":4361:4571   */\n      swap3\n      swap2\n      pop\n      pop\n      jump\t// out\n        /* \"#utility.yul\":4577:4699   */\n    tag_364:\n        /* \"#utility.yul\":4650:4674   */\n      tag_462\n        /* \"#utility.yul\":4668:4673   */\n      dup2\n        /* \"#utility.yul\":4650:4674   */\n      tag_343\n      jump\t// in\n    tag_462:\n        /* \"#utility.yul\":4643:4648   */\n      dup2\n        /* \"#utility.yul\":4640:4675   */\n      eq\n        /* \"#utility.yul\":4630:4693   */\n      tag_463\n      jumpi\n        /* \"#utility.yul\":4689:4690   */\n      0x00\n        /* \"#utility.yul\":4686:4687   */\n      dup1\n        /* \"#utility.yul\":4679:4691   */\n      revert\n        /* \"#utility.yul\":4630:4693   */\n    tag_463:\n        /* \"#utility.yul\":4577:4699   */\n      pop\n      jump\t// out\n        /* \"#utility.yul\":4705:4844   */\n    tag_365:\n        /* \"#utility.yul\":4751:4756   */\n      0x00\n        /* \"#utility.yul\":4789:4795   */\n      dup2\n        /* \"#utility.yul\":4776:4796   */\n      calldataload\n        /* \"#utility.yul\":4767:4796   */\n      swap1\n      pop\n        /* \"#utility.yul\":4805:4838   */\n      tag_465\n        /* \"#utility.yul\":4832:4837   */\n      dup2\n        /* \"#utility.yul\":4805:4838   */\n      tag_364\n      jump\t// in\n    tag_465:\n        /* \"#utility.yul\":4705:4844   */\n      swap3\n      swap2\n      pop\n      pop\n      jump\t// out\n        /* \"#utility.yul\":4850:5179   */\n    tag_43:\n        /* \"#utility.yul\":4909:4915   */\n      0x00\n        /* \"#utility.yul\":4958:4960   */\n      0x20\n        /* \"#utility.yul\":4946:4955   */\n      dup3\n        /* \"#utility.yul\":4937:4944   */\n      dup5\n        /* \"#utility.yul\":4933:4956   */\n      sub\n        /* \"#utility.yul\":4929:4961   */\n      slt\n        /* \"#utility.yul\":4926:5045   */\n      iszero\n      tag_467\n      jumpi\n        /* \"#utility.yul\":4964:5043   */\n      tag_468\n      tag_346\n      jump\t// in\n    tag_468:\n        /* \"#utility.yul\":4926:5045   */\n    tag_467:\n        /* \"#utility.yul\":5084:5085   */\n      0x00\n        /* \"#utility.yul\":5109:5162   */\n      tag_469\n        /* \"#utility.yul\":5154:5161   */\n      dup5\n        /* \"#utility.yul\":5145:5151   */\n      dup3\n        /* \"#utility.yul\":5134:5143   */\n      dup6\n        /* \"#utility.yul\":5130:5152   */\n      add\n        /* \"#utility.yul\":5109:5162   */\n      tag_365\n      jump\t// in\n    tag_469:\n        /* \"#utility.yul\":5099:5162   */\n      swap2\n      pop\n        /* \"#utility.yul\":5055:5172   */\n      pop\n        /* \"#utility.yul\":4850:5179   */\n      swap3\n      swap2\n      pop\n      pop\n      jump\t// out\n        /* \"#utility.yul\":5185:5284   */\n    tag_366:\n        /* \"#utility.yul\":5237:5243   */\n      0x00\n        /* \"#utility.yul\":5271:5276   */\n      dup2\n        /* \"#utility.yul\":5265:5277   */\n      mload\n        /* \"#utility.yul\":5255:5277   */\n      swap1\n      pop\n        /* \"#utility.yul\":5185:5284   */\n      swap2\n      swap1\n      pop\n      jump\t// out\n        /* \"#utility.yul\":5290:5459   */\n    tag_367:\n        /* \"#utility.yul\":5374:5385   */\n      0x00\n        /* \"#utility.yul\":5408:5414   */\n      dup3\n        /* \"#utility.yul\":5403:5406   */\n      dup3\n        /* \"#utility.yul\":5396:5415   */\n      mstore\n        /* \"#utility.yul\":5448:5452   */\n      0x20\n        /* \"#utility.yul\":5443:5446   */\n      dup3\n        /* \"#utility.yul\":5439:5453   */\n      add\n        /* \"#utility.yul\":5424:5453   */\n      swap1\n      pop\n        /* \"#utility.yul\":5290:5459   */\n      swap3\n      swap2\n      pop\n      pop\n      jump\t// out\n        /* \"#utility.yul\":5465:5772   */\n    tag_368:\n        /* \"#utility.yul\":5533:5534   */\n      0x00\n        /* \"#utility.yul\":5543:5656   */\n    tag_473:\n        /* \"#utility.yul\":5557:5563   */\n      dup4\n        /* \"#utility.yul\":5554:5555   */\n      dup2\n        /* \"#utility.yul\":5551:5564   */\n      lt\n        /* \"#utility.yul\":5543:5656   */\n      iszero\n      tag_475\n      jumpi\n        /* \"#utility.yul\":5642:5643   */\n      dup1\n        /* \"#utility.yul\":5637:5640   */\n      dup3\n        /* \"#utility.yul\":5633:5644   */\n      add\n        /* \"#utility.yul\":5627:5645   */\n      mload\n        /* \"#utility.yul\":5623:5624   */\n      dup2\n        /* \"#utility.yul\":5618:5621   */\n      dup5\n        /* \"#utility.yul\":5614:5625   */\n      add\n        /* \"#utility.yul\":5607:5646   */\n      mstore\n        /* \"#utility.yul\":5579:5581   */\n      0x20\n        /* \"#utility.yul\":5576:5577   */\n      dup2\n        /* \"#utility.yul\":5572:5582   */\n      add\n        /* \"#utility.yul\":5567:5582   */\n      swap1\n      pop\n        /* \"#utility.yul\":5543:5656   */\n      jump(tag_473)\n    tag_475:\n        /* \"#utility.yul\":5674:5680   */\n      dup4\n        /* \"#utility.yul\":5671:5672   */\n      dup2\n        /* \"#utility.yul\":5668:5681   */\n      gt\n        /* \"#utility.yul\":5665:5766   */\n      iszero\n      tag_476\n      jumpi\n        /* \"#utility.yul\":5754:5755   */\n      0x00\n        /* \"#utility.yul\":5745:5751   */\n      dup5\n        /* \"#utility.yul\":5740:5743   */\n      dup5\n        /* \"#utility.yul\":5736:5752   */\n      add\n        /* \"#utility.yul\":5729:5756   */\n      mstore\n        /* \"#utility.yul\":5665:5766   */\n    tag_476:\n        /* \"#utility.yul\":5514:5772   */\n      pop\n        /* \"#utility.yul\":5465:5772   */\n      pop\n      pop\n      pop\n      jump\t// out\n        /* \"#utility.yul\":5778:6142   */\n    tag_369:\n        /* \"#utility.yul\":5866:5869   */\n      0x00\n        /* \"#utility.yul\":5894:5933   */\n      tag_478\n        /* \"#utility.yul\":5927:5932   */\n      dup3\n        /* \"#utility.yul\":5894:5933   */\n      tag_366\n      jump\t// in\n    tag_478:\n        /* \"#utility.yul\":5949:6020   */\n      tag_479\n        /* \"#utility.yul\":6013:6019   */\n      dup2\n        /* \"#utility.yul\":6008:6011   */\n      dup6\n        /* \"#utility.yul\":5949:6020   */\n      tag_367\n      jump\t// in\n    tag_479:\n        /* \"#utility.yul\":5942:6020   */\n      swap4\n      pop\n        /* \"#utility.yul\":6029:6081   */\n      tag_480\n        /* \"#utility.yul\":6074:6080   */\n      dup2\n        /* \"#utility.yul\":6069:6072   */\n      dup6\n        /* \"#utility.yul\":6062:6066   */\n      0x20\n        /* \"#utility.yul\":6055:6060   */\n      dup7\n        /* \"#utility.yul\":6051:6067   */\n      add\n        /* \"#utility.yul\":6029:6081   */\n      tag_368\n      jump\t// in\n    tag_480:\n        /* \"#utility.yul\":6106:6135   */\n      tag_481\n        /* \"#utility.yul\":6128:6134   */\n      dup2\n        /* \"#utility.yul\":6106:6135   */\n      tag_354\n      jump\t// in\n    tag_481:\n        /* \"#utility.yul\":6101:6104   */\n      dup5\n        /* \"#utility.yul\":6097:6136   */\n      add\n        /* \"#utility.yul\":6090:6136   */\n      swap2\n      pop\n        /* \"#utility.yul\":5870:6142   */\n      pop\n        /* \"#utility.yul\":5778:6142   */\n      swap3\n      swap2\n      pop\n      pop\n      jump\t// out\n        /* \"#utility.yul\":6148:6266   */\n    tag_370:\n        /* \"#utility.yul\":6235:6259   */\n      tag_483\n        /* \"#utility.yul\":6253:6258   */\n      dup2\n        /* \"#utility.yul\":6235:6259   */\n      tag_349\n      jump\t// in\n    tag_483:\n        /* \"#utility.yul\":6230:6233   */\n      dup3\n        /* \"#utility.yul\":6223:6260   */\n      mstore\n        /* \"#utility.yul\":6148:6266   */\n      pop\n      pop\n      jump\t// out\n        /* \"#utility.yul\":6272:7209   */\n    tag_46:\n        /* \"#utility.yul\":6537:6541   */\n      0x00\n        /* \"#utility.yul\":6575:6578   */\n      0xa0\n        /* \"#utility.yul\":6564:6573   */\n      dup3\n        /* \"#utility.yul\":6560:6579   */\n      add\n        /* \"#utility.yul\":6552:6579   */\n      swap1\n      pop\n        /* \"#utility.yul\":6625:6634   */\n      dup2\n        /* \"#utility.yul\":6619:6623   */\n      dup2\n        /* \"#utility.yul\":6615:6635   */\n      sub\n        /* \"#utility.yul\":6611:6612   */\n      0x00\n        /* \"#utility.yul\":6600:6609   */\n      dup4\n        /* \"#utility.yul\":6596:6613   */\n      add\n        /* \"#utility.yul\":6589:6636   */\n      mstore\n        /* \"#utility.yul\":6653:6731   */\n      tag_485\n        /* \"#utility.yul\":6726:6730   */\n      dup2\n        /* \"#utility.yul\":6717:6723   */\n      dup9\n        /* \"#utility.yul\":6653:6731   */\n      tag_369\n      jump\t// in\n    tag_485:\n        /* \"#utility.yul\":6645:6731   */\n      swap1\n      pop\n        /* \"#utility.yul\":6741:6813   */\n      tag_486\n        /* \"#utility.yul\":6809:6811   */\n      0x20\n        /* \"#utility.yul\":6798:6807   */\n      dup4\n        /* \"#utility.yul\":6794:6812   */\n      add\n        /* \"#utility.yul\":6785:6791   */\n      dup8\n        /* \"#utility.yul\":6741:6813   */\n      tag_370\n      jump\t// in\n    tag_486:\n        /* \"#utility.yul\":6860:6869   */\n      dup2\n        /* \"#utility.yul\":6854:6858   */\n      dup2\n        /* \"#utility.yul\":6850:6870   */\n      sub\n        /* \"#utility.yul\":6845:6847   */\n      0x40\n        /* \"#utility.yul\":6834:6843   */\n      dup4\n        /* \"#utility.yul\":6830:6848   */\n      add\n        /* \"#utility.yul\":6823:6871   */\n      mstore\n        /* \"#utility.yul\":6888:6966   */\n      tag_487\n        /* \"#utility.yul\":6961:6965   */\n      dup2\n        /* \"#utility.yul\":6952:6958   */\n      dup7\n        /* \"#utility.yul\":6888:6966   */\n      tag_369\n      jump\t// in\n    tag_487:\n        /* \"#utility.yul\":6880:6966   */\n      swap1\n      pop\n        /* \"#utility.yul\":7013:7022   */\n      dup2\n        /* \"#utility.yul\":7007:7011   */\n      dup2\n        /* \"#utility.yul\":7003:7023   */\n      sub\n        /* \"#utility.yul\":6998:7000   */\n      0x60\n        /* \"#utility.yul\":6987:6996   */\n      dup4\n        /* \"#utility.yul\":6983:7001   */\n      add\n        /* \"#utility.yul\":6976:7024   */\n      mstore\n        /* \"#utility.yul\":7041:7119   */\n      tag_488\n        /* \"#utility.yul\":7114:7118   */\n      dup2\n        /* \"#utility.yul\":7105:7111   */\n      dup6\n        /* \"#utility.yul\":7041:7119   */\n      tag_369\n      jump\t// in\n    tag_488:\n        /* \"#utility.yul\":7033:7119   */\n      swap1\n      pop\n        /* \"#utility.yul\":7129:7202   */\n      tag_489\n        /* \"#utility.yul\":7197:7200   */\n      0x80\n        /* \"#utility.yul\":7186:7195   */\n      dup4\n        /* \"#utility.yul\":7182:7201   */\n      add\n        /* \"#utility.yul\":7173:7179   */\n      dup5\n        /* \"#utility.yul\":7129:7202   */\n      tag_370\n      jump\t// in\n    tag_489:\n        /* \"#utility.yul\":6272:7209   */\n      swap7\n      swap6\n      pop\n      pop\n      pop\n      pop\n      pop\n      pop\n      jump\t// out\n        /* \"#utility.yul\":7215:7437   */\n    tag_54:\n        /* \"#utility.yul\":7308:7312   */\n      0x00\n        /* \"#utility.yul\":7346:7348   */\n      0x20\n        /* \"#utility.yul\":7335:7344   */\n      dup3\n        /* \"#utility.yul\":7331:7349   */\n      add\n        /* \"#utility.yul\":7323:7349   */\n      swap1\n      pop\n        /* \"#utility.yul\":7359:7430   */\n      tag_491\n        /* \"#utility.yul\":7427:7428   */\n      0x00\n        /* \"#utility.yul\":7416:7425   */\n      dup4\n        /* \"#utility.yul\":7412:7429   */\n      add\n        /* \"#utility.yul\":7403:7409   */\n      dup5\n        /* \"#utility.yul\":7359:7430   */\n      tag_370\n      jump\t// in\n    tag_491:\n        /* \"#utility.yul\":7215:7437   */\n      swap3\n      swap2\n      pop\n      pop\n      jump\t// out\n        /* \"#utility.yul\":7443:8894   */\n    tag_57:\n        /* \"#utility.yul\":7568:7574   */\n      0x00\n        /* \"#utility.yul\":7576:7582   */\n      dup1\n        /* \"#utility.yul\":7584:7590   */\n      0x00\n        /* \"#utility.yul\":7592:7598   */\n      dup1\n        /* \"#utility.yul\":7600:7606   */\n      0x00\n        /* \"#utility.yul\":7649:7652   */\n      0xa0\n        /* \"#utility.yul\":7637:7646   */\n      dup7\n        /* \"#utility.yul\":7628:7635   */\n      dup9\n        /* \"#utility.yul\":7624:7647   */\n      sub\n        /* \"#utility.yul\":7620:7653   */\n      slt\n        /* \"#utility.yul\":7617:7737   */\n      iszero\n      tag_493\n      jumpi\n        /* \"#utility.yul\":7656:7735   */\n      tag_494\n      tag_346\n      jump\t// in\n    tag_494:\n        /* \"#utility.yul\":7617:7737   */\n    tag_493:\n        /* \"#utility.yul\":7804:7805   */\n      0x00\n        /* \"#utility.yul\":7793:7802   */\n      dup7\n        /* \"#utility.yul\":7789:7806   */\n      add\n        /* \"#utility.yul\":7776:7807   */\n      calldataload\n        /* \"#utility.yul\":7834:7852   */\n      0xffffffffffffffff\n        /* \"#utility.yul\":7826:7832   */\n      dup2\n        /* \"#utility.yul\":7823:7853   */\n      gt\n        /* \"#utility.yul\":7820:7937   */\n      iszero\n      tag_495\n      jumpi\n        /* \"#utility.yul\":7856:7935   */\n      tag_496\n      tag_347\n      jump\t// in\n    tag_496:\n        /* \"#utility.yul\":7820:7937   */\n    tag_495:\n        /* \"#utility.yul\":7961:8024   */\n      tag_497\n        /* \"#utility.yul\":8016:8023   */\n      dup9\n        /* \"#utility.yul\":8007:8013   */\n      dup3\n        /* \"#utility.yul\":7996:8005   */\n      dup10\n        /* \"#utility.yul\":7992:8014   */\n      add\n        /* \"#utility.yul\":7961:8024   */\n      tag_361\n      jump\t// in\n    tag_497:\n        /* \"#utility.yul\":7951:8024   */\n      swap6\n      pop\n        /* \"#utility.yul\":7747:8034   */\n      pop\n        /* \"#utility.yul\":8073:8075   */\n      0x20\n        /* \"#utility.yul\":8099:8152   */\n      tag_498\n        /* \"#utility.yul\":8144:8151   */\n      dup9\n        /* \"#utility.yul\":8135:8141   */\n      dup3\n        /* \"#utility.yul\":8124:8133   */\n      dup10\n        /* \"#utility.yul\":8120:8142   */\n      add\n        /* \"#utility.yul\":8099:8152   */\n      tag_351\n      jump\t// in\n    tag_498:\n        /* \"#utility.yul\":8089:8152   */\n      swap5\n      pop\n        /* \"#utility.yul\":8044:8162   */\n      pop\n        /* \"#utility.yul\":8229:8231   */\n      0x40\n        /* \"#utility.yul\":8218:8227   */\n      dup7\n        /* \"#utility.yul\":8214:8232   */\n      add\n        /* \"#utility.yul\":8201:8233   */\n      calldataload\n        /* \"#utility.yul\":8260:8278   */\n      0xffffffffffffffff\n        /* \"#utility.yul\":8252:8258   */\n      dup2\n        /* \"#utility.yul\":8249:8279   */\n      gt\n        /* \"#utility.yul\":8246:8363   */\n      iszero\n      tag_499\n      jumpi\n        /* \"#utility.yul\":8282:8361   */\n      tag_500\n      tag_347\n      jump\t// in\n    tag_500:\n        /* \"#utility.yul\":8246:8363   */\n    tag_499:\n        /* \"#utility.yul\":8387:8450   */\n      tag_501\n        /* \"#utility.yul\":8442:8449   */\n      dup9\n        /* \"#utility.yul\":8433:8439   */\n      dup3\n        /* \"#utility.yul\":8422:8431   */\n      dup10\n        /* \"#utility.yul\":8418:8440   */\n      add\n        /* \"#utility.yul\":8387:8450   */\n      tag_361\n      jump\t// in\n    tag_501:\n        /* \"#utility.yul\":8377:8450   */\n      swap4\n      pop\n        /* \"#utility.yul\":8172:8460   */\n      pop\n        /* \"#utility.yul\":8527:8529   */\n      0x60\n        /* \"#utility.yul\":8516:8525   */\n      dup7\n        /* \"#utility.yul\":8512:8530   */\n      add\n        /* \"#utility.yul\":8499:8531   */\n      calldataload\n        /* \"#utility.yul\":8558:8576   */\n      0xffffffffffffffff\n        /* \"#utility.yul\":8550:8556   */\n      dup2\n        /* \"#utility.yul\":8547:8577   */\n      gt\n        /* \"#utility.yul\":8544:8661   */\n      iszero\n      tag_502\n      jumpi\n        /* \"#utility.yul\":8580:8659   */\n      tag_503\n      tag_347\n      jump\t// in\n    tag_503:\n        /* \"#utility.yul\":8544:8661   */\n    tag_502:\n        /* \"#utility.yul\":8685:8748   */\n      tag_504\n        /* \"#utility.yul\":8740:8747   */\n      dup9\n        /* \"#utility.yul\":8731:8737   */\n      dup3\n        /* \"#utility.yul\":8720:8729   */\n      dup10\n        /* \"#utility.yul\":8716:8738   */\n      add\n        /* \"#utility.yul\":8685:8748   */\n      tag_361\n      jump\t// in\n    tag_504:\n        /* \"#utility.yul\":8675:8748   */\n      swap3\n      pop\n        /* \"#utility.yul\":8470:8758   */\n      pop\n        /* \"#utility.yul\":8797:8800   */\n      0x80\n        /* \"#utility.yul\":8824:8877   */\n      tag_505\n        /* \"#utility.yul\":8869:8876   */\n      dup9\n        /* \"#utility.yul\":8860:8866   */\n      dup3\n        /* \"#utility.yul\":8849:8858   */\n      dup10\n        /* \"#utility.yul\":8845:8867   */\n      add\n        /* \"#utility.yul\":8824:8877   */\n      tag_351\n      jump\t// in\n    tag_505:\n        /* \"#utility.yul\":8814:8877   */\n      swap2\n      pop\n        /* \"#utility.yul\":8768:8887   */\n      pop\n        /* \"#utility.yul\":7443:8894   */\n      swap3\n      swap6\n      pop\n      swap3\n      swap6\n      swap1\n      swap4\n      pop\n      jump\t// out\n        /* \"#utility.yul\":8900:9229   */\n    tag_61:\n        /* \"#utility.yul\":8959:8965   */\n      0x00\n        /* \"#utility.yul\":9008:9010   */\n      0x20\n        /* \"#utility.yul\":8996:9005   */\n      dup3\n        /* \"#utility.yul\":8987:8994   */\n      dup5\n        /* \"#utility.yul\":8983:9006   */\n      sub\n        /* \"#utility.yul\":8979:9011   */\n      slt\n        /* \"#utility.yul\":8976:9095   */\n      iszero\n      tag_507\n      jumpi\n        /* \"#utility.yul\":9014:9093   */\n      tag_508\n      tag_346\n      jump\t// in\n    tag_508:\n        /* \"#utility.yul\":8976:9095   */\n    tag_507:\n        /* \"#utility.yul\":9134:9135   */\n      0x00\n        /* \"#utility.yul\":9159:9212   */\n      tag_509\n        /* \"#utility.yul\":9204:9211   */\n      dup5\n        /* \"#utility.yul\":9195:9201   */\n      dup3\n        /* \"#utility.yul\":9184:9193   */\n      dup6\n        /* \"#utility.yul\":9180:9202   */\n      add\n        /* \"#utility.yul\":9159:9212   */\n      tag_351\n      jump\t// in\n    tag_509:\n        /* \"#utility.yul\":9149:9212   */\n      swap2\n      pop\n        /* \"#utility.yul\":9105:9222   */\n      pop\n        /* \"#utility.yul\":8900:9229   */\n      swap3\n      swap2\n      pop\n      pop\n      jump\t// out\n        /* \"#utility.yul\":9235:9312   */\n    tag_371:\n        /* \"#utility.yul\":9272:9279   */\n      0x00\n        /* \"#utility.yul\":9301:9306   */\n      dup2\n        /* \"#utility.yul\":9290:9306   */\n      swap1\n      pop\n        /* \"#utility.yul\":9235:9312   */\n      swap2\n      swap1\n      pop\n      jump\t// out\n        /* \"#utility.yul\":9318:9436   */\n    tag_372:\n        /* \"#utility.yul\":9405:9429   */\n      tag_512\n        /* \"#utility.yul\":9423:9428   */\n      dup2\n        /* \"#utility.yul\":9405:9429   */\n      tag_371\n      jump\t// in\n    tag_512:\n        /* \"#utility.yul\":9400:9403   */\n      dup3\n        /* \"#utility.yul\":9393:9430   */\n      mstore\n        /* \"#utility.yul\":9318:9436   */\n      pop\n      pop\n      jump\t// out\n        /* \"#utility.yul\":9442:9664   */\n    tag_71:\n        /* \"#utility.yul\":9535:9539   */\n      0x00\n        /* \"#utility.yul\":9573:9575   */\n      0x20\n        /* \"#utility.yul\":9562:9571   */\n      dup3\n        /* \"#utility.yul\":9558:9576   */\n      add\n        /* \"#utility.yul\":9550:9576   */\n      swap1\n      pop\n        /* \"#utility.yul\":9586:9657   */\n      tag_514\n        /* \"#utility.yul\":9654:9655   */\n      0x00\n        /* \"#utility.yul\":9643:9652   */\n      dup4\n        /* \"#utility.yul\":9639:9656   */\n      add\n        /* \"#utility.yul\":9630:9636   */\n      dup5\n        /* \"#utility.yul\":9586:9657   */\n      tag_372\n      jump\t// in\n    tag_514:\n        /* \"#utility.yul\":9442:9664   */\n      swap3\n      swap2\n      pop\n      pop\n      jump\t// out\n        /* \"#utility.yul\":9670:9730   */\n    tag_373:\n        /* \"#utility.yul\":9698:9701   */\n      0x00\n        /* \"#utility.yul\":9719:9724   */\n      dup2\n        /* \"#utility.yul\":9712:9724   */\n      swap1\n      pop\n        /* \"#utility.yul\":9670:9730   */\n      swap2\n      swap1\n      pop\n      jump\t// out\n        /* \"#utility.yul\":9736:9878   */\n    tag_374:\n        /* \"#utility.yul\":9786:9795   */\n      0x00\n        /* \"#utility.yul\":9819:9872   */\n      tag_517\n        /* \"#utility.yul\":9837:9871   */\n      tag_518\n        /* \"#utility.yul\":9846:9870   */\n      tag_519\n        /* \"#utility.yul\":9864:9869   */\n      dup5\n        /* \"#utility.yul\":9846:9870   */\n      tag_348\n      jump\t// in\n    tag_519:\n        /* \"#utility.yul\":9837:9871   */\n      tag_373\n      jump\t// in\n    tag_518:\n        /* \"#utility.yul\":9819:9872   */\n      tag_348\n      jump\t// in\n    tag_517:\n        /* \"#utility.yul\":9806:9872   */\n      swap1\n      pop\n        /* \"#utility.yul\":9736:9878   */\n      swap2\n      swap1\n      pop\n      jump\t// out\n        /* \"#utility.yul\":9884:10010   */\n    tag_375:\n        /* \"#utility.yul\":9934:9943   */\n      0x00\n        /* \"#utility.yul\":9967:10004   */\n      tag_521\n        /* \"#utility.yul\":9998:10003   */\n      dup3\n        /* \"#utility.yul\":9967:10004   */\n      tag_374\n      jump\t// in\n    tag_521:\n        /* \"#utility.yul\":9954:10004   */\n      swap1\n      pop\n        /* \"#utility.yul\":9884:10010   */\n      swap2\n      swap1\n      pop\n      jump\t// out\n        /* \"#utility.yul\":10016:10161   */\n    tag_376:\n        /* \"#utility.yul\":10085:10094   */\n      0x00\n        /* \"#utility.yul\":10118:10155   */\n      tag_523\n        /* \"#utility.yul\":10149:10154   */\n      dup3\n        /* \"#utility.yul\":10118:10155   */\n      tag_375\n      jump\t// in\n    tag_523:\n        /* \"#utility.yul\":10105:10155   */\n      swap1\n      pop\n        /* \"#utility.yul\":10016:10161   */\n      swap2\n      swap1\n      pop\n      jump\t// out\n        /* \"#utility.yul\":10167:10336   */\n    tag_377:\n        /* \"#utility.yul\":10273:10329   */\n      tag_525\n        /* \"#utility.yul\":10323:10328   */\n      dup2\n        /* \"#utility.yul\":10273:10329   */\n      tag_376\n      jump\t// in\n    tag_525:\n        /* \"#utility.yul\":10268:10271   */\n      dup3\n        /* \"#utility.yul\":10261:10330   */\n      mstore\n        /* \"#utility.yul\":10167:10336   */\n      pop\n      pop\n      jump\t// out\n        /* \"#utility.yul\":10342:10602   */\n    tag_91:\n        /* \"#utility.yul\":10454:10458   */\n      0x00\n        /* \"#utility.yul\":10492:10494   */\n      0x20\n        /* \"#utility.yul\":10481:10490   */\n      dup3\n        /* \"#utility.yul\":10477:10495   */\n      add\n        /* \"#utility.yul\":10469:10495   */\n      swap1\n      pop\n        /* \"#utility.yul\":10505:10595   */\n      tag_527\n        /* \"#utility.yul\":10592:10593   */\n      0x00\n        /* \"#utility.yul\":10581:10590   */\n      dup4\n        /* \"#utility.yul\":10577:10594   */\n      add\n        /* \"#utility.yul\":10568:10574   */\n      dup5\n        /* \"#utility.yul\":10505:10595   */\n      tag_377\n      jump\t// in\n    tag_527:\n        /* \"#utility.yul\":10342:10602   */\n      swap3\n      swap2\n      pop\n      pop\n      jump\t// out\n        /* \"#utility.yul\":10608:10755   */\n    tag_378:\n        /* \"#utility.yul\":10679:10688   */\n      0x00\n        /* \"#utility.yul\":10712:10749   */\n      tag_529\n        /* \"#utility.yul\":10743:10748   */\n      dup3\n        /* \"#utility.yul\":10712:10749   */\n      tag_375\n      jump\t// in\n    tag_529:\n        /* \"#utility.yul\":10699:10749   */\n      swap1\n      pop\n        /* \"#utility.yul\":10608:10755   */\n      swap2\n      swap1\n      pop\n      jump\t// out\n        /* \"#utility.yul\":10761:10934   */\n    tag_379:\n        /* \"#utility.yul\":10869:10927   */\n      tag_531\n        /* \"#utility.yul\":10921:10926   */\n      dup2\n        /* \"#utility.yul\":10869:10927   */\n      tag_378\n      jump\t// in\n    tag_531:\n        /* \"#utility.yul\":10864:10867   */\n      dup3\n        /* \"#utility.yul\":10857:10928   */\n      mstore\n        /* \"#utility.yul\":10761:10934   */\n      pop\n      pop\n      jump\t// out\n        /* \"#utility.yul\":10940:11204   */\n    tag_99:\n        /* \"#utility.yul\":11054:11058   */\n      0x00\n        /* \"#utility.yul\":11092:11094   */\n      0x20\n        /* \"#utility.yul\":11081:11090   */\n      dup3\n        /* \"#utility.yul\":11077:11095   */\n      add\n        /* \"#utility.yul\":11069:11095   */\n      swap1\n      pop\n        /* \"#utility.yul\":11105:11197   */\n      tag_533\n        /* \"#utility.yul\":11194:11195   */\n      0x00\n        /* \"#utility.yul\":11183:11192   */\n      dup4\n        /* \"#utility.yul\":11179:11196   */\n      add\n        /* \"#utility.yul\":11170:11176   */\n      dup5\n        /* \"#utility.yul\":11105:11197   */\n      tag_379\n      jump\t// in\n    tag_533:\n        /* \"#utility.yul\":10940:11204   */\n      swap3\n      swap2\n      pop\n      pop\n      jump\t// out\n        /* \"#utility.yul\":11210:12009   */\n    tag_112:\n        /* \"#utility.yul\":11297:11303   */\n      0x00\n        /* \"#utility.yul\":11305:11311   */\n      dup1\n        /* \"#utility.yul\":11313:11319   */\n      0x00\n        /* \"#utility.yul\":11362:11364   */\n      0x60\n        /* \"#utility.yul\":11350:11359   */\n      dup5\n        /* \"#utility.yul\":11341:11348   */\n      dup7\n        /* \"#utility.yul\":11337:11360   */\n      sub\n        /* \"#utility.yul\":11333:11365   */\n      slt\n        /* \"#utility.yul\":11330:11449   */\n      iszero\n      tag_535\n      jumpi\n        /* \"#utility.yul\":11368:11447   */\n      tag_536\n      tag_346\n      jump\t// in\n    tag_536:\n        /* \"#utility.yul\":11330:11449   */\n    tag_535:\n        /* \"#utility.yul\":11488:11489   */\n      0x00\n        /* \"#utility.yul\":11513:11566   */\n      tag_537\n        /* \"#utility.yul\":11558:11565   */\n      dup7\n        /* \"#utility.yul\":11549:11555   */\n      dup3\n        /* \"#utility.yul\":11538:11547   */\n      dup8\n        /* \"#utility.yul\":11534:11556   */\n      add\n        /* \"#utility.yul\":11513:11566   */\n      tag_365\n      jump\t// in\n    tag_537:\n        /* \"#utility.yul\":11503:11566   */\n      swap4\n      pop\n        /* \"#utility.yul\":11459:11576   */\n      pop\n        /* \"#utility.yul\":11615:11617   */\n      0x20\n        /* \"#utility.yul\":11641:11694   */\n      tag_538\n        /* \"#utility.yul\":11686:11693   */\n      dup7\n        /* \"#utility.yul\":11677:11683   */\n      dup3\n        /* \"#utility.yul\":11666:11675   */\n      dup8\n        /* \"#utility.yul\":11662:11684   */\n      add\n        /* \"#utility.yul\":11641:11694   */\n      tag_351\n      jump\t// in\n    tag_538:\n        /* \"#utility.yul\":11631:11694   */\n      swap3\n      pop\n        /* \"#utility.yul\":11586:11704   */\n      pop\n        /* \"#utility.yul\":11771:11773   */\n      0x40\n        /* \"#utility.yul\":11760:11769   */\n      dup5\n        /* \"#utility.yul\":11756:11774   */\n      add\n        /* \"#utility.yul\":11743:11775   */\n      calldataload\n        /* \"#utility.yul\":11802:11820   */\n      0xffffffffffffffff\n        /* \"#utility.yul\":11794:11800   */\n      dup2\n        /* \"#utility.yul\":11791:11821   */\n      gt\n        /* \"#utility.yul\":11788:11905   */\n      iszero\n      tag_539\n      jumpi\n        /* \"#utility.yul\":11824:11903   */\n      tag_540\n      tag_347\n      jump\t// in\n    tag_540:\n        /* \"#utility.yul\":11788:11905   */\n    tag_539:\n        /* \"#utility.yul\":11929:11992   */\n      tag_541\n        /* \"#utility.yul\":11984:11991   */\n      dup7\n        /* \"#utility.yul\":11975:11981   */\n      dup3\n        /* \"#utility.yul\":11964:11973   */\n      dup8\n        /* \"#utility.yul\":11960:11982   */\n      add\n        /* \"#utility.yul\":11929:11992   */\n      tag_361\n      jump\t// in\n    tag_541:\n        /* \"#utility.yul\":11919:11992   */\n      swap2\n      pop\n        /* \"#utility.yul\":11714:12002   */\n      pop\n        /* \"#utility.yul\":11210:12009   */\n      swap3\n      pop\n      swap3\n      pop\n      swap3\n      jump\t// out\n        /* \"#utility.yul\":12015:12438   */\n    tag_117:\n        /* \"#utility.yul\":12156:12160   */\n      0x00\n        /* \"#utility.yul\":12194:12196   */\n      0x40\n        /* \"#utility.yul\":12183:12192   */\n      dup3\n        /* \"#utility.yul\":12179:12197   */\n      add\n        /* \"#utility.yul\":12171:12197   */\n      swap1\n      pop\n        /* \"#utility.yul\":12207:12278   */\n      tag_543\n        /* \"#utility.yul\":12275:12276   */\n      0x00\n        /* \"#utility.yul\":12264:12273   */\n      dup4\n        /* \"#utility.yul\":12260:12277   */\n      add\n        /* \"#utility.yul\":12251:12257   */\n      dup6\n        /* \"#utility.yul\":12207:12278   */\n      tag_370\n      jump\t// in\n    tag_543:\n        /* \"#utility.yul\":12325:12334   */\n      dup2\n        /* \"#utility.yul\":12319:12323   */\n      dup2\n        /* \"#utility.yul\":12315:12335   */\n      sub\n        /* \"#utility.yul\":12310:12312   */\n      0x20\n        /* \"#utility.yul\":12299:12308   */\n      dup4\n        /* \"#utility.yul\":12295:12313   */\n      add\n        /* \"#utility.yul\":12288:12336   */\n      mstore\n        /* \"#utility.yul\":12353:12431   */\n      tag_544\n        /* \"#utility.yul\":12426:12430   */\n      dup2\n        /* \"#utility.yul\":12417:12423   */\n      dup5\n        /* \"#utility.yul\":12353:12431   */\n      tag_369\n      jump\t// in\n    tag_544:\n        /* \"#utility.yul\":12345:12431   */\n      swap1\n      pop\n        /* \"#utility.yul\":12015:12438   */\n      swap4\n      swap3\n      pop\n      pop\n      pop\n      jump\t// out\n        /* \"#utility.yul\":12444:12566   */\n    tag_380:\n        /* \"#utility.yul\":12517:12541   */\n      tag_546\n        /* \"#utility.yul\":12535:12540   */\n      dup2\n        /* \"#utility.yul\":12517:12541   */\n      tag_371\n      jump\t// in\n    tag_546:\n        /* \"#utility.yul\":12510:12515   */\n      dup2\n        /* \"#utility.yul\":12507:12542   */\n      eq\n        /* \"#utility.yul\":12497:12560   */\n      tag_547\n      jumpi\n        /* \"#utility.yul\":12556:12557   */\n      0x00\n        /* \"#utility.yul\":12553:12554   */\n      dup1\n        /* \"#utility.yul\":12546:12558   */\n      revert\n        /* \"#utility.yul\":12497:12560   */\n    tag_547:\n        /* \"#utility.yul\":12444:12566   */\n      pop\n      jump\t// out\n        /* \"#utility.yul\":12572:12715   */\n    tag_381:\n        /* \"#utility.yul\":12629:12634   */\n      0x00\n        /* \"#utility.yul\":12660:12666   */\n      dup2\n        /* \"#utility.yul\":12654:12667   */\n      mload\n        /* \"#utility.yul\":12645:12667   */\n      swap1\n      pop\n        /* \"#utility.yul\":12676:12709   */\n      tag_549\n        /* \"#utility.yul\":12703:12708   */\n      dup2\n        /* \"#utility.yul\":12676:12709   */\n      tag_380\n      jump\t// in\n    tag_549:\n        /* \"#utility.yul\":12572:12715   */\n      swap3\n      swap2\n      pop\n      pop\n      jump\t// out\n        /* \"#utility.yul\":12721:13072   */\n    tag_121:\n        /* \"#utility.yul\":12791:12797   */\n      0x00\n        /* \"#utility.yul\":12840:12842   */\n      0x20\n        /* \"#utility.yul\":12828:12837   */\n      dup3\n        /* \"#utility.yul\":12819:12826   */\n      dup5\n        /* \"#utility.yul\":12815:12838   */\n      sub\n        /* \"#utility.yul\":12811:12843   */\n      slt\n        /* \"#utility.yul\":12808:12927   */\n      iszero\n      tag_551\n      jumpi\n        /* \"#utility.yul\":12846:12925   */\n      tag_552\n      tag_346\n      jump\t// in\n    tag_552:\n        /* \"#utility.yul\":12808:12927   */\n    tag_551:\n        /* \"#utility.yul\":12966:12967   */\n      0x00\n        /* \"#utility.yul\":12991:13055   */\n      tag_553\n        /* \"#utility.yul\":13047:13054   */\n      dup5\n        /* \"#utility.yul\":13038:13044   */\n      dup3\n        /* \"#utility.yul\":13027:13036   */\n      dup6\n        /* \"#utility.yul\":13023:13045   */\n      add\n        /* \"#utility.yul\":12991:13055   */\n      tag_381\n      jump\t// in\n    tag_553:\n        /* \"#utility.yul\":12981:13055   */\n      swap2\n      pop\n        /* \"#utility.yul\":12937:13065   */\n      pop\n        /* \"#utility.yul\":12721:13072   */\n      swap3\n      swap2\n      pop\n      pop\n      jump\t// out\n        /* \"#utility.yul\":13078:13499   */\n    tag_382:\n        /* \"#utility.yul\":13167:13172   */\n      0x00\n        /* \"#utility.yul\":13192:13258   */\n      tag_555\n        /* \"#utility.yul\":13208:13257   */\n      tag_556\n        /* \"#utility.yul\":13250:13256   */\n      dup5\n        /* \"#utility.yul\":13208:13257   */\n      tag_358\n      jump\t// in\n    tag_556:\n        /* \"#utility.yul\":13192:13258   */\n      tag_357\n      jump\t// in\n    tag_555:\n        /* \"#utility.yul\":13183:13258   */\n      swap1\n      pop\n        /* \"#utility.yul\":13281:13287   */\n      dup3\n        /* \"#utility.yul\":13274:13279   */\n      dup2\n        /* \"#utility.yul\":13267:13288   */\n      mstore\n        /* \"#utility.yul\":13319:13323   */\n      0x20\n        /* \"#utility.yul\":13312:13317   */\n      dup2\n        /* \"#utility.yul\":13308:13324   */\n      add\n        /* \"#utility.yul\":13357:13360   */\n      dup5\n        /* \"#utility.yul\":13348:13354   */\n      dup5\n        /* \"#utility.yul\":13343:13346   */\n      dup5\n        /* \"#utility.yul\":13339:13355   */\n      add\n        /* \"#utility.yul\":13336:13361   */\n      gt\n        /* \"#utility.yul\":13333:13445   */\n      iszero\n      tag_557\n      jumpi\n        /* \"#utility.yul\":13364:13443   */\n      tag_558\n      tag_353\n      jump\t// in\n    tag_558:\n        /* \"#utility.yul\":13333:13445   */\n    tag_557:\n        /* \"#utility.yul\":13454:13493   */\n      tag_559\n        /* \"#utility.yul\":13486:13492   */\n      dup5\n        /* \"#utility.yul\":13481:13484   */\n      dup3\n        /* \"#utility.yul\":13476:13479   */\n      dup6\n        /* \"#utility.yul\":13454:13493   */\n      tag_368\n      jump\t// in\n    tag_559:\n        /* \"#utility.yul\":13173:13499   */\n      pop\n        /* \"#utility.yul\":13078:13499   */\n      swap4\n      swap3\n      pop\n      pop\n      pop\n      jump\t// out\n        /* \"#utility.yul\":13519:13874   */\n    tag_383:\n        /* \"#utility.yul\":13586:13591   */\n      0x00\n        /* \"#utility.yul\":13635:13638   */\n      dup3\n        /* \"#utility.yul\":13628:13632   */\n      0x1f\n        /* \"#utility.yul\":13620:13626   */\n      dup4\n        /* \"#utility.yul\":13616:13633   */\n      add\n        /* \"#utility.yul\":13612:13639   */\n      slt\n        /* \"#utility.yul\":13602:13724   */\n      tag_561\n      jumpi\n        /* \"#utility.yul\":13643:13722   */\n      tag_562\n      tag_352\n      jump\t// in\n    tag_562:\n        /* \"#utility.yul\":13602:13724   */\n    tag_561:\n        /* \"#utility.yul\":13753:13759   */\n      dup2\n        /* \"#utility.yul\":13747:13760   */\n      mload\n        /* \"#utility.yul\":13778:13868   */\n      tag_563\n        /* \"#utility.yul\":13864:13867   */\n      dup5\n        /* \"#utility.yul\":13856:13862   */\n      dup3\n        /* \"#utility.yul\":13849:13853   */\n      0x20\n        /* \"#utility.yul\":13841:13847   */\n      dup7\n        /* \"#utility.yul\":13837:13854   */\n      add\n        /* \"#utility.yul\":13778:13868   */\n      tag_382\n      jump\t// in\n    tag_563:\n        /* \"#utility.yul\":13769:13868   */\n      swap2\n      pop\n        /* \"#utility.yul\":13592:13874   */\n      pop\n        /* \"#utility.yul\":13519:13874   */\n      swap3\n      swap2\n      pop\n      pop\n      jump\t// out\n        /* \"#utility.yul\":13880:14023   */\n    tag_384:\n        /* \"#utility.yul\":13937:13942   */\n      0x00\n        /* \"#utility.yul\":13968:13974   */\n      dup2\n        /* \"#utility.yul\":13962:13975   */\n      mload\n        /* \"#utility.yul\":13953:13975   */\n      swap1\n      pop\n        /* \"#utility.yul\":13984:14017   */\n      tag_565\n        /* \"#utility.yul\":14011:14016   */\n      dup2\n        /* \"#utility.yul\":13984:14017   */\n      tag_350\n      jump\t// in\n    tag_565:\n        /* \"#utility.yul\":13880:14023   */\n      swap3\n      swap2\n      pop\n      pop\n      jump\t// out\n        /* \"#utility.yul\":14029:15525   */\n    tag_126:\n        /* \"#utility.yul\":14165:14171   */\n      0x00\n        /* \"#utility.yul\":14173:14179   */\n      dup1\n        /* \"#utility.yul\":14181:14187   */\n      0x00\n        /* \"#utility.yul\":14189:14195   */\n      dup1\n        /* \"#utility.yul\":14197:14203   */\n      0x00\n        /* \"#utility.yul\":14246:14249   */\n      0xa0\n        /* \"#utility.yul\":14234:14243   */\n      dup7\n        /* \"#utility.yul\":14225:14232   */\n      dup9\n        /* \"#utility.yul\":14221:14244   */\n      sub\n        /* \"#utility.yul\":14217:14250   */\n      slt\n        /* \"#utility.yul\":14214:14334   */\n      iszero\n      tag_567\n      jumpi\n        /* \"#utility.yul\":14253:14332   */\n      tag_568\n      tag_346\n      jump\t// in\n    tag_568:\n        /* \"#utility.yul\":14214:14334   */\n    tag_567:\n        /* \"#utility.yul\":14394:14395   */\n      0x00\n        /* \"#utility.yul\":14383:14392   */\n      dup7\n        /* \"#utility.yul\":14379:14396   */\n      add\n        /* \"#utility.yul\":14373:14397   */\n      mload\n        /* \"#utility.yul\":14424:14442   */\n      0xffffffffffffffff\n        /* \"#utility.yul\":14416:14422   */\n      dup2\n        /* \"#utility.yul\":14413:14443   */\n      gt\n        /* \"#utility.yul\":14410:14527   */\n      iszero\n      tag_569\n      jumpi\n        /* \"#utility.yul\":14446:14525   */\n      tag_570\n      tag_347\n      jump\t// in\n    tag_570:\n        /* \"#utility.yul\":14410:14527   */\n    tag_569:\n        /* \"#utility.yul\":14551:14625   */\n      tag_571\n        /* \"#utility.yul\":14617:14624   */\n      dup9\n        /* \"#utility.yul\":14608:14614   */\n      dup3\n        /* \"#utility.yul\":14597:14606   */\n      dup10\n        /* \"#utility.yul\":14593:14615   */\n      add\n        /* \"#utility.yul\":14551:14625   */\n      tag_383\n      jump\t// in\n    tag_571:\n        /* \"#utility.yul\":14541:14625   */\n      swap6\n      pop\n        /* \"#utility.yul\":14344:14635   */\n      pop\n        /* \"#utility.yul\":14674:14676   */\n      0x20\n        /* \"#utility.yul\":14700:14764   */\n      tag_572\n        /* \"#utility.yul\":14756:14763   */\n      dup9\n        /* \"#utility.yul\":14747:14753   */\n      dup3\n        /* \"#utility.yul\":14736:14745   */\n      dup10\n        /* \"#utility.yul\":14732:14754   */\n      add\n        /* \"#utility.yul\":14700:14764   */\n      tag_384\n      jump\t// in\n    tag_572:\n        /* \"#utility.yul\":14690:14764   */\n      swap5\n      pop\n        /* \"#utility.yul\":14645:14774   */\n      pop\n        /* \"#utility.yul\":14834:14836   */\n      0x40\n        /* \"#utility.yul\":14823:14832   */\n      dup7\n        /* \"#utility.yul\":14819:14837   */\n      add\n        /* \"#utility.yul\":14813:14838   */\n      mload\n        /* \"#utility.yul\":14865:14883   */\n      0xffffffffffffffff\n        /* \"#utility.yul\":14857:14863   */\n      dup2\n        /* \"#utility.yul\":14854:14884   */\n      gt\n        /* \"#utility.yul\":14851:14968   */\n      iszero\n      tag_573\n      jumpi\n        /* \"#utility.yul\":14887:14966   */\n      tag_574\n      tag_347\n      jump\t// in\n    tag_574:\n        /* \"#utility.yul\":14851:14968   */\n    tag_573:\n        /* \"#utility.yul\":14992:15066   */\n      tag_575\n        /* \"#utility.yul\":15058:15065   */\n      dup9\n        /* \"#utility.yul\":15049:15055   */\n      dup3\n        /* \"#utility.yul\":15038:15047   */\n      dup10\n        /* \"#utility.yul\":15034:15056   */\n      add\n        /* \"#utility.yul\":14992:15066   */\n      tag_383\n      jump\t// in\n    tag_575:\n        /* \"#utility.yul\":14982:15066   */\n      swap4\n      pop\n        /* \"#utility.yul\":14784:15076   */\n      pop\n        /* \"#utility.yul\":15136:15138   */\n      0x60\n        /* \"#utility.yul\":15125:15134   */\n      dup7\n        /* \"#utility.yul\":15121:15139   */\n      add\n        /* \"#utility.yul\":15115:15140   */\n      mload\n        /* \"#utility.yul\":15167:15185   */\n      0xffffffffffffffff\n        /* \"#utility.yul\":15159:15165   */\n      dup2\n        /* \"#utility.yul\":15156:15186   */\n      gt\n        /* \"#utility.yul\":15153:15270   */\n      iszero\n      tag_576\n      jumpi\n        /* \"#utility.yul\":15189:15268   */\n      tag_577\n      tag_347\n      jump\t// in\n    tag_577:\n        /* \"#utility.yul\":15153:15270   */\n    tag_576:\n        /* \"#utility.yul\":15294:15368   */\n      tag_578\n        /* \"#utility.yul\":15360:15367   */\n      dup9\n        /* \"#utility.yul\":15351:15357   */\n      dup3\n        /* \"#utility.yul\":15340:15349   */\n      dup10\n        /* \"#utility.yul\":15336:15358   */\n      add\n        /* \"#utility.yul\":15294:15368   */\n      tag_383\n      jump\t// in\n    tag_578:\n        /* \"#utility.yul\":15284:15368   */\n      swap3\n      pop\n        /* \"#utility.yul\":15086:15378   */\n      pop\n        /* \"#utility.yul\":15417:15420   */\n      0x80\n        /* \"#utility.yul\":15444:15508   */\n      tag_579\n        /* \"#utility.yul\":15500:15507   */\n      dup9\n        /* \"#utility.yul\":15491:15497   */\n      dup3\n        /* \"#utility.yul\":15480:15489   */\n      dup10\n        /* \"#utility.yul\":15476:15498   */\n      add\n        /* \"#utility.yul\":15444:15508   */\n      tag_384\n      jump\t// in\n    tag_579:\n        /* \"#utility.yul\":15434:15508   */\n      swap2\n      pop\n        /* \"#utility.yul\":15388:15518   */\n      pop\n        /* \"#utility.yul\":14029:15525   */\n      swap3\n      swap6\n      pop\n      swap3\n      swap6\n      swap1\n      swap4\n      pop\n      jump\t// out\n        /* \"#utility.yul\":15531:15882   */\n    tag_132:\n        /* \"#utility.yul\":15601:15607   */\n      0x00\n        /* \"#utility.yul\":15650:15652   */\n      0x20\n        /* \"#utility.yul\":15638:15647   */\n      dup3\n        /* \"#utility.yul\":15629:15636   */\n      dup5\n        /* \"#utility.yul\":15625:15648   */\n      sub\n        /* \"#utility.yul\":15621:15653   */\n      slt\n        /* \"#utility.yul\":15618:15737   */\n      iszero\n      tag_581\n      jumpi\n        /* \"#utility.yul\":15656:15735   */\n      tag_582\n      tag_346\n      jump\t// in\n    tag_582:\n        /* \"#utility.yul\":15618:15737   */\n    tag_581:\n        /* \"#utility.yul\":15776:15777   */\n      0x00\n        /* \"#utility.yul\":15801:15865   */\n      tag_583\n        /* \"#utility.yul\":15857:15864   */\n      dup5\n        /* \"#utility.yul\":15848:15854   */\n      dup3\n        /* \"#utility.yul\":15837:15846   */\n      dup6\n        /* \"#utility.yul\":15833:15855   */\n      add\n        /* \"#utility.yul\":15801:15865   */\n      tag_384\n      jump\t// in\n    tag_583:\n        /* \"#utility.yul\":15791:15865   */\n      swap2\n      pop\n        /* \"#utility.yul\":15747:15875   */\n      pop\n        /* \"#utility.yul\":15531:15882   */\n      swap3\n      swap2\n      pop\n      pop\n      jump\t// out\n        /* \"#utility.yul\":15888:16068   */\n    tag_385:\n        /* \"#utility.yul\":15936:16013   */\n      0x4e487b7100000000000000000000000000000000000000000000000000000000\n        /* \"#utility.yul\":15933:15934   */\n      0x00\n        /* \"#utility.yul\":15926:16014   */\n      mstore\n        /* \"#utility.yul\":16033:16037   */\n      0x22\n        /* \"#utility.yul\":16030:16031   */\n      0x04\n        /* \"#utility.yul\":16023:16038   */\n      mstore\n        /* \"#utility.yul\":16057:16061   */\n      0x24\n        /* \"#utility.yul\":16054:16055   */\n      0x00\n        /* \"#utility.yul\":16047:16062   */\n      revert\n        /* \"#utility.yul\":16074:16394   */\n    tag_136:\n        /* \"#utility.yul\":16118:16124   */\n      0x00\n        /* \"#utility.yul\":16155:16156   */\n      0x02\n        /* \"#utility.yul\":16149:16153   */\n      dup3\n        /* \"#utility.yul\":16145:16157   */\n      div\n        /* \"#utility.yul\":16135:16157   */\n      swap1\n      pop\n        /* \"#utility.yul\":16202:16203   */\n      0x01\n        /* \"#utility.yul\":16196:16200   */\n      dup3\n        /* \"#utility.yul\":16192:16204   */\n      and\n        /* \"#utility.yul\":16223:16241   */\n      dup1\n        /* \"#utility.yul\":16213:16294   */\n      tag_586\n      jumpi\n        /* \"#utility.yul\":16279:16283   */\n      0x7f\n        /* \"#utility.yul\":16271:16277   */\n      dup3\n        /* \"#utility.yul\":16267:16284   */\n      and\n        /* \"#utility.yul\":16257:16284   */\n      swap2\n      pop\n        /* \"#utility.yul\":16213:16294   */\n    tag_586:\n        /* \"#utility.yul\":16341:16343   */\n      0x20\n        /* \"#utility.yul\":16333:16339   */\n      dup3\n        /* \"#utility.yul\":16330:16344   */\n      lt\n        /* \"#utility.yul\":16310:16328   */\n      dup2\n        /* \"#utility.yul\":16307:16345   */\n      eq\n        /* \"#utility.yul\":16304:16388   */\n      iszero\n      tag_587\n      jumpi\n        /* \"#utility.yul\":16360:16378   */\n      tag_588\n      tag_385\n      jump\t// in\n    tag_588:\n        /* \"#utility.yul\":16304:16388   */\n    tag_587:\n        /* \"#utility.yul\":16125:16394   */\n      pop\n        /* \"#utility.yul\":16074:16394   */\n      swap2\n      swap1\n      pop\n      jump\t// out\n        /* \"#utility.yul\":16400:16569   */\n    tag_386:\n        /* \"#utility.yul\":16540:16561   */\n      0x496e646578206f7574206f6620626f756e647300000000000000000000000000\n        /* \"#utility.yul\":16536:16537   */\n      0x00\n        /* \"#utility.yul\":16528:16534   */\n      dup3\n        /* \"#utility.yul\":16524:16538   */\n      add\n        /* \"#utility.yul\":16517:16562   */\n      mstore\n        /* \"#utility.yul\":16400:16569   */\n      pop\n      jump\t// out\n        /* \"#utility.yul\":16575:16941   */\n    tag_387:\n        /* \"#utility.yul\":16717:16720   */\n      0x00\n        /* \"#utility.yul\":16738:16805   */\n      tag_591\n        /* \"#utility.yul\":16802:16804   */\n      0x13\n        /* \"#utility.yul\":16797:16800   */\n      dup4\n        /* \"#utility.yul\":16738:16805   */\n      tag_367\n      jump\t// in\n    tag_591:\n        /* \"#utility.yul\":16731:16805   */\n      swap2\n      pop\n        /* \"#utility.yul\":16814:16907   */\n      tag_592\n        /* \"#utility.yul\":16903:16906   */\n      dup3\n        /* \"#utility.yul\":16814:16907   */\n      tag_386\n      jump\t// in\n    tag_592:\n        /* \"#utility.yul\":16932:16934   */\n      0x20\n        /* \"#utility.yul\":16927:16930   */\n      dup3\n        /* \"#utility.yul\":16923:16935   */\n      add\n        /* \"#utility.yul\":16916:16935   */\n      swap1\n      pop\n        /* \"#utility.yul\":16575:16941   */\n      swap2\n      swap1\n      pop\n      jump\t// out\n        /* \"#utility.yul\":16947:17366   */\n    tag_154:\n        /* \"#utility.yul\":17113:17117   */\n      0x00\n        /* \"#utility.yul\":17151:17153   */\n      0x20\n        /* \"#utility.yul\":17140:17149   */\n      dup3\n        /* \"#utility.yul\":17136:17154   */\n      add\n        /* \"#utility.yul\":17128:17154   */\n      swap1\n      pop\n        /* \"#utility.yul\":17200:17209   */\n      dup2\n        /* \"#utility.yul\":17194:17198   */\n      dup2\n        /* \"#utility.yul\":17190:17210   */\n      sub\n        /* \"#utility.yul\":17186:17187   */\n      0x00\n        /* \"#utility.yul\":17175:17184   */\n      dup4\n        /* \"#utility.yul\":17171:17188   */\n      add\n        /* \"#utility.yul\":17164:17211   */\n      mstore\n        /* \"#utility.yul\":17228:17359   */\n      tag_594\n        /* \"#utility.yul\":17354:17358   */\n      dup2\n        /* \"#utility.yul\":17228:17359   */\n      tag_387\n      jump\t// in\n    tag_594:\n        /* \"#utility.yul\":17220:17359   */\n      swap1\n      pop\n        /* \"#utility.yul\":16947:17366   */\n      swap2\n      swap1\n      pop\n      jump\t// out\n        /* \"#utility.yul\":17372:17552   */\n    tag_157:\n        /* \"#utility.yul\":17420:17497   */\n      0x4e487b7100000000000000000000000000000000000000000000000000000000\n        /* \"#utility.yul\":17417:17418   */\n      0x00\n        /* \"#utility.yul\":17410:17498   */\n      mstore\n        /* \"#utility.yul\":17517:17521   */\n      0x32\n        /* \"#utility.yul\":17514:17515   */\n      0x04\n        /* \"#utility.yul\":17507:17522   */\n      mstore\n        /* \"#utility.yul\":17541:17545   */\n      0x24\n        /* \"#utility.yul\":17538:17539   */\n      0x00\n        /* \"#utility.yul\":17531:17546   */\n      revert\n        /* \"#utility.yul\":17558:17674   */\n    tag_388:\n        /* \"#utility.yul\":17628:17649   */\n      tag_597\n        /* \"#utility.yul\":17643:17648   */\n      dup2\n        /* \"#utility.yul\":17628:17649   */\n      tag_362\n      jump\t// in\n    tag_597:\n        /* \"#utility.yul\":17621:17626   */\n      dup2\n        /* \"#utility.yul\":17618:17650   */\n      eq\n        /* \"#utility.yul\":17608:17668   */\n      tag_598\n      jumpi\n        /* \"#utility.yul\":17664:17665   */\n      0x00\n        /* \"#utility.yul\":17661:17662   */\n      dup1\n        /* \"#utility.yul\":17654:17666   */\n      revert\n        /* \"#utility.yul\":17608:17668   */\n    tag_598:\n        /* \"#utility.yul\":17558:17674   */\n      pop\n      jump\t// out\n        /* \"#utility.yul\":17680:17817   */\n    tag_389:\n        /* \"#utility.yul\":17734:17739   */\n      0x00\n        /* \"#utility.yul\":17765:17771   */\n      dup2\n        /* \"#utility.yul\":17759:17772   */\n      mload\n        /* \"#utility.yul\":17750:17772   */\n      swap1\n      pop\n        /* \"#utility.yul\":17781:17811   */\n      tag_600\n        /* \"#utility.yul\":17805:17810   */\n      dup2\n        /* \"#utility.yul\":17781:17811   */\n      tag_388\n      jump\t// in\n    tag_600:\n        /* \"#utility.yul\":17680:17817   */\n      swap3\n      swap2\n      pop\n      pop\n      jump\t// out\n        /* \"#utility.yul\":17823:18168   */\n    tag_179:\n        /* \"#utility.yul\":17890:17896   */\n      0x00\n        /* \"#utility.yul\":17939:17941   */\n      0x20\n        /* \"#utility.yul\":17927:17936   */\n      dup3\n        /* \"#utility.yul\":17918:17925   */\n      dup5\n        /* \"#utility.yul\":17914:17937   */\n      sub\n        /* \"#utility.yul\":17910:17942   */\n      slt\n        /* \"#utility.yul\":17907:18026   */\n      iszero\n      tag_602\n      jumpi\n        /* \"#utility.yul\":17945:18024   */\n      tag_603\n      tag_346\n      jump\t// in\n    tag_603:\n        /* \"#utility.yul\":17907:18026   */\n    tag_602:\n        /* \"#utility.yul\":18065:18066   */\n      0x00\n        /* \"#utility.yul\":18090:18151   */\n      tag_604\n        /* \"#utility.yul\":18143:18150   */\n      dup5\n        /* \"#utility.yul\":18134:18140   */\n      dup3\n        /* \"#utility.yul\":18123:18132   */\n      dup6\n        /* \"#utility.yul\":18119:18141   */\n      add\n        /* \"#utility.yul\":18090:18151   */\n      tag_389\n      jump\t// in\n    tag_604:\n        /* \"#utility.yul\":18080:18151   */\n      swap2\n      pop\n        /* \"#utility.yul\":18036:18161   */\n      pop\n        /* \"#utility.yul\":17823:18168   */\n      swap3\n      swap2\n      pop\n      pop\n      jump\t// out\n        /* \"#utility.yul\":18174:18338   */\n    tag_390:\n        /* \"#utility.yul\":18314:18330   */\n      0x4e6f7420617574686f72697a6564000000000000000000000000000000000000\n        /* \"#utility.yul\":18310:18311   */\n      0x00\n        /* \"#utility.yul\":18302:18308   */\n      dup3\n        /* \"#utility.yul\":18298:18312   */\n      add\n        /* \"#utility.yul\":18291:18331   */\n      mstore\n        /* \"#utility.yul\":18174:18338   */\n      pop\n      jump\t// out\n        /* \"#utility.yul\":18344:18710   */\n    tag_391:\n        /* \"#utility.yul\":18486:18489   */\n      0x00\n        /* \"#utility.yul\":18507:18574   */\n      tag_607\n        /* \"#utility.yul\":18571:18573   */\n      0x0e\n        /* \"#utility.yul\":18566:18569   */\n      dup4\n        /* \"#utility.yul\":18507:18574   */\n      tag_367\n      jump\t// in\n    tag_607:\n        /* \"#utility.yul\":18500:18574   */\n      swap2\n      pop\n        /* \"#utility.yul\":18583:18676   */\n      tag_608\n        /* \"#utility.yul\":18672:18675   */\n      dup3\n        /* \"#utility.yul\":18583:18676   */\n      tag_390\n      jump\t// in\n    tag_608:\n        /* \"#utility.yul\":18701:18703   */\n      0x20\n        /* \"#utility.yul\":18696:18699   */\n      dup3\n        /* \"#utility.yul\":18692:18704   */\n      add\n        /* \"#utility.yul\":18685:18704   */\n      swap1\n      pop\n        /* \"#utility.yul\":18344:18710   */\n      swap2\n      swap1\n      pop\n      jump\t// out\n        /* \"#utility.yul\":18716:19135   */\n    tag_182:\n        /* \"#utility.yul\":18882:18886   */\n      0x00\n        /* \"#utility.yul\":18920:18922   */\n      0x20\n        /* \"#utility.yul\":18909:18918   */\n      dup3\n        /* \"#utility.yul\":18905:18923   */\n      add\n        /* \"#utility.yul\":18897:18923   */\n      swap1\n      pop\n        /* \"#utility.yul\":18969:18978   */\n      dup2\n        /* \"#utility.yul\":18963:18967   */\n      dup2\n        /* \"#utility.yul\":18959:18979   */\n      sub\n        /* \"#utility.yul\":18955:18956   */\n      0x00\n        /* \"#utility.yul\":18944:18953   */\n      dup4\n        /* \"#utility.yul\":18940:18957   */\n      add\n        /* \"#utility.yul\":18933:18980   */\n      mstore\n        /* \"#utility.yul\":18997:19128   */\n      tag_610\n        /* \"#utility.yul\":19123:19127   */\n      dup2\n        /* \"#utility.yul\":18997:19128   */\n      tag_391\n      jump\t// in\n    tag_610:\n        /* \"#utility.yul\":18989:19128   */\n      swap1\n      pop\n        /* \"#utility.yul\":18716:19135   */\n      swap2\n      swap1\n      pop\n      jump\t// out\n        /* \"#utility.yul\":19141:19314   */\n    tag_392:\n        /* \"#utility.yul\":19281:19306   */\n      0x596f7520617265206e6f7420417574686f72697a656421000000000000000000\n        /* \"#utility.yul\":19277:19278   */\n      0x00\n        /* \"#utility.yul\":19269:19275   */\n      dup3\n        /* \"#utility.yul\":19265:19279   */\n      add\n        /* \"#utility.yul\":19258:19307   */\n      mstore\n        /* \"#utility.yul\":19141:19314   */\n      pop\n      jump\t// out\n        /* \"#utility.yul\":19320:19686   */\n    tag_393:\n        /* \"#utility.yul\":19462:19465   */\n      0x00\n        /* \"#utility.yul\":19483:19550   */\n      tag_613\n        /* \"#utility.yul\":19547:19549   */\n      0x17\n        /* \"#utility.yul\":19542:19545   */\n      dup4\n        /* \"#utility.yul\":19483:19550   */\n      tag_367\n      jump\t// in\n    tag_613:\n        /* \"#utility.yul\":19476:19550   */\n      swap2\n      pop\n        /* \"#utility.yul\":19559:19652   */\n      tag_614\n        /* \"#utility.yul\":19648:19651   */\n      dup3\n        /* \"#utility.yul\":19559:19652   */\n      tag_392\n      jump\t// in\n    tag_614:\n        /* \"#utility.yul\":19677:19679   */\n      0x20\n        /* \"#utility.yul\":19672:19675   */\n      dup3\n        /* \"#utility.yul\":19668:19680   */\n      add\n        /* \"#utility.yul\":19661:19680   */\n      swap1\n      pop\n        /* \"#utility.yul\":19320:19686   */\n      swap2\n      swap1\n      pop\n      jump\t// out\n        /* \"#utility.yul\":19692:20111   */\n    tag_200:\n        /* \"#utility.yul\":19858:19862   */\n      0x00\n        /* \"#utility.yul\":19896:19898   */\n      0x20\n        /* \"#utility.yul\":19885:19894   */\n      dup3\n        /* \"#utility.yul\":19881:19899   */\n      add\n        /* \"#utility.yul\":19873:19899   */\n      swap1\n      pop\n        /* \"#utility.yul\":19945:19954   */\n      dup2\n        /* \"#utility.yul\":19939:19943   */\n      dup2\n        /* \"#utility.yul\":19935:19955   */\n      sub\n        /* \"#utility.yul\":19931:19932   */\n      0x00\n        /* \"#utility.yul\":19920:19929   */\n      dup4\n        /* \"#utility.yul\":19916:19933   */\n      add\n        /* \"#utility.yul\":19909:19956   */\n      mstore\n        /* \"#utility.yul\":19973:20104   */\n      tag_616\n        /* \"#utility.yul\":20099:20103   */\n      dup2\n        /* \"#utility.yul\":19973:20104   */\n      tag_393\n      jump\t// in\n    tag_616:\n        /* \"#utility.yul\":19965:20104   */\n      swap1\n      pop\n        /* \"#utility.yul\":19692:20111   */\n      swap2\n      swap1\n      pop\n      jump\t// out\n        /* \"#utility.yul\":20117:20211   */\n    tag_394:\n        /* \"#utility.yul\":20150:20158   */\n      0x00\n        /* \"#utility.yul\":20198:20203   */\n      dup2\n        /* \"#utility.yul\":20194:20196   */\n      0x60\n        /* \"#utility.yul\":20190:20204   */\n      shl\n        /* \"#utility.yul\":20169:20204   */\n      swap1\n      pop\n        /* \"#utility.yul\":20117:20211   */\n      swap2\n      swap1\n      pop\n      jump\t// out\n        /* \"#utility.yul\":20217:20311   */\n    tag_395:\n        /* \"#utility.yul\":20256:20263   */\n      0x00\n        /* \"#utility.yul\":20285:20305   */\n      tag_619\n        /* \"#utility.yul\":20299:20304   */\n      dup3\n        /* \"#utility.yul\":20285:20305   */\n      tag_394\n      jump\t// in\n    tag_619:\n        /* \"#utility.yul\":20274:20305   */\n      swap1\n      pop\n        /* \"#utility.yul\":20217:20311   */\n      swap2\n      swap1\n      pop\n      jump\t// out\n        /* \"#utility.yul\":20317:20417   */\n    tag_396:\n        /* \"#utility.yul\":20356:20363   */\n      0x00\n        /* \"#utility.yul\":20385:20411   */\n      tag_621\n        /* \"#utility.yul\":20405:20410   */\n      dup3\n        /* \"#utility.yul\":20385:20411   */\n      tag_395\n      jump\t// in\n    tag_621:\n        /* \"#utility.yul\":20374:20411   */\n      swap1\n      pop\n        /* \"#utility.yul\":20317:20417   */\n      swap2\n      swap1\n      pop\n      jump\t// out\n        /* \"#utility.yul\":20423:20580   */\n    tag_397:\n        /* \"#utility.yul\":20528:20573   */\n      tag_623\n        /* \"#utility.yul\":20548:20572   */\n      tag_624\n        /* \"#utility.yul\":20566:20571   */\n      dup3\n        /* \"#utility.yul\":20548:20572   */\n      tag_349\n      jump\t// in\n    tag_624:\n        /* \"#utility.yul\":20528:20573   */\n      tag_396\n      jump\t// in\n    tag_623:\n        /* \"#utility.yul\":20523:20526   */\n      dup3\n        /* \"#utility.yul\":20516:20574   */\n      mstore\n        /* \"#utility.yul\":20423:20580   */\n      pop\n      pop\n      jump\t// out\n        /* \"#utility.yul\":20586:20734   */\n    tag_398:\n        /* \"#utility.yul\":20688:20699   */\n      0x00\n        /* \"#utility.yul\":20725:20728   */\n      dup2\n        /* \"#utility.yul\":20710:20728   */\n      swap1\n      pop\n        /* \"#utility.yul\":20586:20734   */\n      swap3\n      swap2\n      pop\n      pop\n      jump\t// out\n        /* \"#utility.yul\":20740:21117   */\n    tag_399:\n        /* \"#utility.yul\":20846:20849   */\n      0x00\n        /* \"#utility.yul\":20874:20913   */\n      tag_627\n        /* \"#utility.yul\":20907:20912   */\n      dup3\n        /* \"#utility.yul\":20874:20913   */\n      tag_366\n      jump\t// in\n    tag_627:\n        /* \"#utility.yul\":20929:21018   */\n      tag_628\n        /* \"#utility.yul\":21011:21017   */\n      dup2\n        /* \"#utility.yul\":21006:21009   */\n      dup6\n        /* \"#utility.yul\":20929:21018   */\n      tag_398\n      jump\t// in\n    tag_628:\n        /* \"#utility.yul\":20922:21018   */\n      swap4\n      pop\n        /* \"#utility.yul\":21027:21079   */\n      tag_629\n        /* \"#utility.yul\":21072:21078   */\n      dup2\n        /* \"#utility.yul\":21067:21070   */\n      dup6\n        /* \"#utility.yul\":21060:21064   */\n      0x20\n        /* \"#utility.yul\":21053:21058   */\n      dup7\n        /* \"#utility.yul\":21049:21065   */\n      add\n        /* \"#utility.yul\":21027:21079   */\n      tag_368\n      jump\t// in\n    tag_629:\n        /* \"#utility.yul\":21104:21110   */\n      dup1\n        /* \"#utility.yul\":21099:21102   */\n      dup5\n        /* \"#utility.yul\":21095:21111   */\n      add\n        /* \"#utility.yul\":21088:21111   */\n      swap2\n      pop\n        /* \"#utility.yul\":20850:21117   */\n      pop\n        /* \"#utility.yul\":20740:21117   */\n      swap3\n      swap2\n      pop\n      pop\n      jump\t// out\n        /* \"#utility.yul\":21123:21539   */\n    tag_218:\n        /* \"#utility.yul\":21283:21286   */\n      0x00\n        /* \"#utility.yul\":21298:21373   */\n      tag_631\n        /* \"#utility.yul\":21369:21372   */\n      dup3\n        /* \"#utility.yul\":21360:21366   */\n      dup6\n        /* \"#utility.yul\":21298:21373   */\n      tag_397\n      jump\t// in\n    tag_631:\n        /* \"#utility.yul\":21398:21400   */\n      0x14\n        /* \"#utility.yul\":21393:21396   */\n      dup3\n        /* \"#utility.yul\":21389:21401   */\n      add\n        /* \"#utility.yul\":21382:21401   */\n      swap2\n      pop\n        /* \"#utility.yul\":21418:21513   */\n      tag_632\n        /* \"#utility.yul\":21509:21512   */\n      dup3\n        /* \"#utility.yul\":21500:21506   */\n      dup5\n        /* \"#utility.yul\":21418:21513   */\n      tag_399\n      jump\t// in\n    tag_632:\n        /* \"#utility.yul\":21411:21513   */\n      swap2\n      pop\n        /* \"#utility.yul\":21530:21533   */\n      dup2\n        /* \"#utility.yul\":21523:21533   */\n      swap1\n      pop\n        /* \"#utility.yul\":21123:21539   */\n      swap4\n      swap3\n      pop\n      pop\n      pop\n      jump\t// out\n        /* \"#utility.yul\":21545:21721   */\n    tag_400:\n        /* \"#utility.yul\":21685:21713   */\n      0x4e6f742074686520537475656e74277320496e73746974757465000000000000\n        /* \"#utility.yul\":21681:21682   */\n      0x00\n        /* \"#utility.yul\":21673:21679   */\n      dup3\n        /* \"#utility.yul\":21669:21683   */\n      add\n        /* \"#utility.yul\":21662:21714   */\n      mstore\n        /* \"#utility.yul\":21545:21721   */\n      pop\n      jump\t// out\n        /* \"#utility.yul\":21727:22093   */\n    tag_401:\n        /* \"#utility.yul\":21869:21872   */\n      0x00\n        /* \"#utility.yul\":21890:21957   */\n      tag_635\n        /* \"#utility.yul\":21954:21956   */\n      0x1a\n        /* \"#utility.yul\":21949:21952   */\n      dup4\n        /* \"#utility.yul\":21890:21957   */\n      tag_367\n      jump\t// in\n    tag_635:\n        /* \"#utility.yul\":21883:21957   */\n      swap2\n      pop\n        /* \"#utility.yul\":21966:22059   */\n      tag_636\n        /* \"#utility.yul\":22055:22058   */\n      dup3\n        /* \"#utility.yul\":21966:22059   */\n      tag_400\n      jump\t// in\n    tag_636:\n        /* \"#utility.yul\":22084:22086   */\n      0x20\n        /* \"#utility.yul\":22079:22082   */\n      dup3\n        /* \"#utility.yul\":22075:22087   */\n      add\n        /* \"#utility.yul\":22068:22087   */\n      swap1\n      pop\n        /* \"#utility.yul\":21727:22093   */\n      swap2\n      swap1\n      pop\n      jump\t// out\n        /* \"#utility.yul\":22099:22518   */\n    tag_264:\n        /* \"#utility.yul\":22265:22269   */\n      0x00\n        /* \"#utility.yul\":22303:22305   */\n      0x20\n        /* \"#utility.yul\":22292:22301   */\n      dup3\n        /* \"#utility.yul\":22288:22306   */\n      add\n        /* \"#utility.yul\":22280:22306   */\n      swap1\n      pop\n        /* \"#utility.yul\":22352:22361   */\n      dup2\n        /* \"#utility.yul\":22346:22350   */\n      dup2\n        /* \"#utility.yul\":22342:22362   */\n      sub\n        /* \"#utility.yul\":22338:22339   */\n      0x00\n        /* \"#utility.yul\":22327:22336   */\n      dup4\n        /* \"#utility.yul\":22323:22340   */\n      add\n        /* \"#utility.yul\":22316:22363   */\n      mstore\n        /* \"#utility.yul\":22380:22511   */\n      tag_638\n        /* \"#utility.yul\":22506:22510   */\n      dup2\n        /* \"#utility.yul\":22380:22511   */\n      tag_401\n      jump\t// in\n    tag_638:\n        /* \"#utility.yul\":22372:22511   */\n      swap1\n      pop\n        /* \"#utility.yul\":22099:22518   */\n      swap2\n      swap1\n      pop\n      jump\t// out\n        /* \"#utility.yul\":22524:22966   */\n    tag_270:\n        /* \"#utility.yul\":22673:22677   */\n      0x00\n        /* \"#utility.yul\":22711:22713   */\n      0x60\n        /* \"#utility.yul\":22700:22709   */\n      dup3\n        /* \"#utility.yul\":22696:22714   */\n      add\n        /* \"#utility.yul\":22688:22714   */\n      swap1\n      pop\n        /* \"#utility.yul\":22724:22795   */\n      tag_640\n        /* \"#utility.yul\":22792:22793   */\n      0x00\n        /* \"#utility.yul\":22781:22790   */\n      dup4\n        /* \"#utility.yul\":22777:22794   */\n      add\n        /* \"#utility.yul\":22768:22774   */\n      dup7\n        /* \"#utility.yul\":22724:22795   */\n      tag_344\n      jump\t// in\n    tag_640:\n        /* \"#utility.yul\":22805:22877   */\n      tag_641\n        /* \"#utility.yul\":22873:22875   */\n      0x20\n        /* \"#utility.yul\":22862:22871   */\n      dup4\n        /* \"#utility.yul\":22858:22876   */\n      add\n        /* \"#utility.yul\":22849:22855   */\n      dup6\n        /* \"#utility.yul\":22805:22877   */\n      tag_372\n      jump\t// in\n    tag_641:\n        /* \"#utility.yul\":22887:22959   */\n      tag_642\n        /* \"#utility.yul\":22955:22957   */\n      0x40\n        /* \"#utility.yul\":22944:22953   */\n      dup4\n        /* \"#utility.yul\":22940:22958   */\n      add\n        /* \"#utility.yul\":22931:22937   */\n      dup5\n        /* \"#utility.yul\":22887:22959   */\n      tag_370\n      jump\t// in\n    tag_642:\n        /* \"#utility.yul\":22524:22966   */\n      swap5\n      swap4\n      pop\n      pop\n      pop\n      pop\n      jump\t// out\n        /* \"#utility.yul\":22972:23198   */\n    tag_402:\n        /* \"#utility.yul\":23112:23146   */\n      0x4661696c656420746f2061646420696e7374697475746520746f207374756465\n        /* \"#utility.yul\":23108:23109   */\n      0x00\n        /* \"#utility.yul\":23100:23106   */\n      dup3\n        /* \"#utility.yul\":23096:23110   */\n      add\n        /* \"#utility.yul\":23089:23147   */\n      mstore\n        /* \"#utility.yul\":23181:23190   */\n      0x6e7420696e666f00000000000000000000000000000000000000000000000000\n        /* \"#utility.yul\":23176:23178   */\n      0x20\n        /* \"#utility.yul\":23168:23174   */\n      dup3\n        /* \"#utility.yul\":23164:23179   */\n      add\n        /* \"#utility.yul\":23157:23191   */\n      mstore\n        /* \"#utility.yul\":22972:23198   */\n      pop\n      jump\t// out\n        /* \"#utility.yul\":23204:23570   */\n    tag_403:\n        /* \"#utility.yul\":23346:23349   */\n      0x00\n        /* \"#utility.yul\":23367:23434   */\n      tag_645\n        /* \"#utility.yul\":23431:23433   */\n      0x27\n        /* \"#utility.yul\":23426:23429   */\n      dup4\n        /* \"#utility.yul\":23367:23434   */\n      tag_367\n      jump\t// in\n    tag_645:\n        /* \"#utility.yul\":23360:23434   */\n      swap2\n      pop\n        /* \"#utility.yul\":23443:23536   */\n      tag_646\n        /* \"#utility.yul\":23532:23535   */\n      dup3\n        /* \"#utility.yul\":23443:23536   */\n      tag_402\n      jump\t// in\n    tag_646:\n        /* \"#utility.yul\":23561:23563   */\n      0x40\n        /* \"#utility.yul\":23556:23559   */\n      dup3\n        /* \"#utility.yul\":23552:23564   */\n      add\n        /* \"#utility.yul\":23545:23564   */\n      swap1\n      pop\n        /* \"#utility.yul\":23204:23570   */\n      swap2\n      swap1\n      pop\n      jump\t// out\n        /* \"#utility.yul\":23576:23995   */\n    tag_276:\n        /* \"#utility.yul\":23742:23746   */\n      0x00\n        /* \"#utility.yul\":23780:23782   */\n      0x20\n        /* \"#utility.yul\":23769:23778   */\n      dup3\n        /* \"#utility.yul\":23765:23783   */\n      add\n        /* \"#utility.yul\":23757:23783   */\n      swap1\n      pop\n        /* \"#utility.yul\":23829:23838   */\n      dup2\n        /* \"#utility.yul\":23823:23827   */\n      dup2\n        /* \"#utility.yul\":23819:23839   */\n      sub\n        /* \"#utility.yul\":23815:23816   */\n      0x00\n        /* \"#utility.yul\":23804:23813   */\n      dup4\n        /* \"#utility.yul\":23800:23817   */\n      add\n        /* \"#utility.yul\":23793:23840   */\n      mstore\n        /* \"#utility.yul\":23857:23988   */\n      tag_648\n        /* \"#utility.yul\":23983:23987   */\n      dup2\n        /* \"#utility.yul\":23857:23988   */\n      tag_403\n      jump\t// in\n    tag_648:\n        /* \"#utility.yul\":23849:23988   */\n      swap1\n      pop\n        /* \"#utility.yul\":23576:23995   */\n      swap2\n      swap1\n      pop\n      jump\t// out\n        /* \"#utility.yul\":24001:24333   */\n    tag_322:\n        /* \"#utility.yul\":24122:24126   */\n      0x00\n        /* \"#utility.yul\":24160:24162   */\n      0x40\n        /* \"#utility.yul\":24149:24158   */\n      dup3\n        /* \"#utility.yul\":24145:24163   */\n      add\n        /* \"#utility.yul\":24137:24163   */\n      swap1\n      pop\n        /* \"#utility.yul\":24173:24244   */\n      tag_650\n        /* \"#utility.yul\":24241:24242   */\n      0x00\n        /* \"#utility.yul\":24230:24239   */\n      dup4\n        /* \"#utility.yul\":24226:24243   */\n      add\n        /* \"#utility.yul\":24217:24223   */\n      dup6\n        /* \"#utility.yul\":24173:24244   */\n      tag_344\n      jump\t// in\n    tag_650:\n        /* \"#utility.yul\":24254:24326   */\n      tag_651\n        /* \"#utility.yul\":24322:24324   */\n      0x20\n        /* \"#utility.yul\":24311:24320   */\n      dup4\n        /* \"#utility.yul\":24307:24325   */\n      add\n        /* \"#utility.yul\":24298:24304   */\n      dup5\n        /* \"#utility.yul\":24254:24326   */\n      tag_372\n      jump\t// in\n    tag_651:\n        /* \"#utility.yul\":24001:24333   */\n      swap4\n      swap3\n      pop\n      pop\n      pop\n      jump\t// out\n        /* \"#utility.yul\":24339:24570   */\n    tag_404:\n        /* \"#utility.yul\":24479:24513   */\n      0x4661696c656420746f2072656d6f766520696e737469747574652066726f6d20\n        /* \"#utility.yul\":24475:24476   */\n      0x00\n        /* \"#utility.yul\":24467:24473   */\n      dup3\n        /* \"#utility.yul\":24463:24477   */\n      add\n        /* \"#utility.yul\":24456:24514   */\n      mstore\n        /* \"#utility.yul\":24548:24562   */\n      0x73747564656e7420696e666f0000000000000000000000000000000000000000\n        /* \"#utility.yul\":24543:24545   */\n      0x20\n        /* \"#utility.yul\":24535:24541   */\n      dup3\n        /* \"#utility.yul\":24531:24546   */\n      add\n        /* \"#utility.yul\":24524:24563   */\n      mstore\n        /* \"#utility.yul\":24339:24570   */\n      pop\n      jump\t// out\n        /* \"#utility.yul\":24576:24942   */\n    tag_405:\n        /* \"#utility.yul\":24718:24721   */\n      0x00\n        /* \"#utility.yul\":24739:24806   */\n      tag_654\n        /* \"#utility.yul\":24803:24805   */\n      0x2c\n        /* \"#utility.yul\":24798:24801   */\n      dup4\n        /* \"#utility.yul\":24739:24806   */\n      tag_367\n      jump\t// in\n    tag_654:\n        /* \"#utility.yul\":24732:24806   */\n      swap2\n      pop\n        /* \"#utility.yul\":24815:24908   */\n      tag_655\n        /* \"#utility.yul\":24904:24907   */\n      dup3\n        /* \"#utility.yul\":24815:24908   */\n      tag_404\n      jump\t// in\n    tag_655:\n        /* \"#utility.yul\":24933:24935   */\n      0x40\n        /* \"#utility.yul\":24928:24931   */\n      dup3\n        /* \"#utility.yul\":24924:24936   */\n      add\n        /* \"#utility.yul\":24917:24936   */\n      swap1\n      pop\n        /* \"#utility.yul\":24576:24942   */\n      swap2\n      swap1\n      pop\n      jump\t// out\n        /* \"#utility.yul\":24948:25367   */\n    tag_328:\n        /* \"#utility.yul\":25114:25118   */\n      0x00\n        /* \"#utility.yul\":25152:25154   */\n      0x20\n        /* \"#utility.yul\":25141:25150   */\n      dup3\n        /* \"#utility.yul\":25137:25155   */\n      add\n        /* \"#utility.yul\":25129:25155   */\n      swap1\n      pop\n        /* \"#utility.yul\":25201:25210   */\n      dup2\n        /* \"#utility.yul\":25195:25199   */\n      dup2\n        /* \"#utility.yul\":25191:25211   */\n      sub\n        /* \"#utility.yul\":25187:25188   */\n      0x00\n        /* \"#utility.yul\":25176:25185   */\n      dup4\n        /* \"#utility.yul\":25172:25189   */\n      add\n        /* \"#utility.yul\":25165:25212   */\n      mstore\n        /* \"#utility.yul\":25229:25360   */\n      tag_657\n        /* \"#utility.yul\":25355:25359   */\n      dup2\n        /* \"#utility.yul\":25229:25360   */\n      tag_405\n      jump\t// in\n    tag_657:\n        /* \"#utility.yul\":25221:25360   */\n      swap1\n      pop\n        /* \"#utility.yul\":24948:25367   */\n      swap2\n      swap1\n      pop\n      jump\t// out\n\n    auxdata: 0xa26469706673582212204606d5781d7031be72bcf82d4e8a30f3b956003c207e9ddcf63284d76a9254ed64736f6c634300080a0033\n}\n",
    "bytecode": {
      "linkReferences": {},
      "object": "608060405260006004553480156200001657600080fd5b50604051620033933803806200339383398181016040528101906200003c9190620001b1565b336000806101000a81548173ffffffffffffffffffffffffffffffffffffffff021916908373ffffffffffffffffffffffffffffffffffffffff16021790555081600360006101000a81548173ffffffffffffffffffffffffffffffffffffffff021916908373ffffffffffffffffffffffffffffffffffffffff16021790555081600160006101000a81548173ffffffffffffffffffffffffffffffffffffffff021916908373ffffffffffffffffffffffffffffffffffffffff16021790555080600260006101000a81548173ffffffffffffffffffffffffffffffffffffffff021916908373ffffffffffffffffffffffffffffffffffffffff1602179055505050620001f8565b600080fd5b600073ffffffffffffffffffffffffffffffffffffffff82169050919050565b600062000179826200014c565b9050919050565b6200018b816200016c565b81146200019757600080fd5b50565b600081519050620001ab8162000180565b92915050565b60008060408385031215620001cb57620001ca62000147565b5b6000620001db858286016200019a565b9250506020620001ee858286016200019a565b9150509250929050565b61318b80620002086000396000f3fe608060405234801561001057600080fd5b50600436106101425760003560e01c8063a2a1fee5116100b8578063bd6a85041161007c578063bd6a85041461039b578063c865d881146103cf578063ca90543d146103ed578063da085b7a1461041d578063f00c848d14610439578063f20bcf9a1461045557610142565b8063a2a1fee5146102ef578063a4156aec1461030d578063b1be843d14610341578063b7774c1a1461035f578063bae0a5851461037d57610142565b8063673a17461161010a578063673a17461461021b57806378cfe85e1461023957806382f7d3921461025557806385af95ed146102855780638a97503d146102a1578063911018ef146102d157610142565b806320b260e314610147578063217fa765146101655780632ecca5fe14610195578063548d434e146101b35780635b969a04146101e7575b600080fd5b61014f610471565b60405161015c9190612455565b60405180910390f35b61017f600480360381019061017a9190612628565b61047e565b60405161018c919061269f565b60405180910390f35b61019d610603565b6040516101aa919061269f565b60405180910390f35b6101cd60048036038101906101c891906126e6565b6106d5565b6040516101de9594939291906127aa565b60405180910390f35b61020160048036038101906101fc91906126e6565b6108f3565b6040516102129594939291906127aa565b60405180910390f35b610223610c03565b6040516102309190612812565b60405180910390f35b610253600480360381019061024e919061282d565b610c27565b005b61026f600480360381019061026a91906128fc565b610ee8565b60405161027c919061269f565b60405180910390f35b61029f600480360381019061029a919061282d565b610f80565b005b6102bb60048036038101906102b69190612628565b6113be565b6040516102c89190612942565b60405180910390f35b6102d96113f1565b6040516102e69190612455565b60405180910390f35b6102f76113f7565b6040516103049190612455565b60405180910390f35b610327600480360381019061032291906126e6565b611404565b6040516103389594939291906127aa565b60405180910390f35b610349611714565b6040516103569190612455565b60405180910390f35b610367611721565b6040516103749190612812565b60405180910390f35b610385611747565b60405161039291906129bc565b60405180910390f35b6103b560048036038101906103b091906126e6565b61176d565b6040516103c69594939291906127aa565b60405180910390f35b6103d761198b565b6040516103e491906129f8565b60405180910390f35b610407600480360381019061040291906128fc565b6119b1565b6040516104149190612812565b60405180910390f35b610437600480360381019061043291906126e6565b611a1a565b005b610453600480360381019061044e91906126e6565b611cd2565b005b61046f600480360381019061046a9190612a13565b612095565b005b6000600880549050905090565b600080600160009054906101000a900473ffffffffffffffffffffffffffffffffffffffff1673ffffffffffffffffffffffffffffffffffffffff16638a97503d85856040518363ffffffff1660e01b81526004016104de929190612a82565b602060405180830381865afa1580156104fb573d6000803e3d6000fd5b505050506040513d601f19601f8201168201806040525081019061051f9190612ade565b90506000600160009054906101000a900473ffffffffffffffffffffffffffffffffffffffff1673ffffffffffffffffffffffffffffffffffffffff1663435df20d836040518263ffffffff1660e01b815260040161057e9190612942565b600060405180830381865afa15801561059b573d6000803e3d6000fd5b505050506040513d6000823e3d601f19601f820116820180604052508101906105c49190612b90565b9450505050508073ffffffffffffffffffffffffffffffffffffffff163373ffffffffffffffffffffffffffffffffffffffff16149250505092915050565b60008073ffffffffffffffffffffffffffffffffffffffff16600260009054906101000a900473ffffffffffffffffffffffffffffffffffffffff1673ffffffffffffffffffffffffffffffffffffffff1663839f602d336040518263ffffffff1660e01b81526004016106779190612812565b602060405180830381865afa158015610694573d6000803e3d6000fd5b505050506040513d601f19601f820116820180604052508101906106b89190612c5f565b73ffffffffffffffffffffffffffffffffffffffff161415905090565b600681815481106106e557600080fd5b906000526020600020906005020160009150905080600001805461070890612cbb565b80601f016020809104026020016040519081016040528092919081815260200182805461073490612cbb565b80156107815780601f1061075657610100808354040283529160200191610781565b820191906000526020600020905b81548152906001019060200180831161076457829003601f168201915b5050505050908060010160009054906101000a900473ffffffffffffffffffffffffffffffffffffffff16908060020180546107bc90612cbb565b80601f01602080910402602001604051908101604052809291908181526020018280546107e890612cbb565b80156108355780601f1061080a57610100808354040283529160200191610835565b820191906000526020600020905b81548152906001019060200180831161081857829003601f168201915b50505050509080600301805461084a90612cbb565b80601f016020809104026020016040519081016040528092919081815260200182805461087690612cbb565b80156108c35780601f10610898576101008083540402835291602001916108c3565b820191906000526020600020905b8154815290600101906020018083116108a657829003601f168201915b5050505050908060040160009054906101000a900473ffffffffffffffffffffffffffffffffffffffff16905085565b6060600060608060006005805490508610610943576040517f08c379a000000000000000000000000000000000000000000000000000000000815260040161093a90612d39565b60405180910390fd5b60006005878154811061095957610958612d59565b5b90600052602060002090600502016040518060a001604052908160008201805461098290612cbb565b80601f01602080910402602001604051908101604052809291908181526020018280546109ae90612cbb565b80156109fb5780601f106109d0576101008083540402835291602001916109fb565b820191906000526020600020905b8154815290600101906020018083116109de57829003601f168201915b505050505081526020016001820160009054906101000a900473ffffffffffffffffffffffffffffffffffffffff1673ffffffffffffffffffffffffffffffffffffffff1673ffffffffffffffffffffffffffffffffffffffff168152602001600282018054610a6a90612cbb565b80601f0160208091040260200160405190810160405280929190818152602001828054610a9690612cbb565b8015610ae35780601f10610ab857610100808354040283529160200191610ae3565b820191906000526020600020905b815481529060010190602001808311610ac657829003601f168201915b50505050508152602001600382018054610afc90612cbb565b80601f0160208091040260200160405190810160405280929190818152602001828054610b2890612cbb565b8015610b755780601f10610b4a57610100808354040283529160200191610b75565b820191906000526020600020905b815481529060010190602001808311610b5857829003601f168201915b505050505081526020016004820160009054906101000a900473ffffffffffffffffffffffffffffffffffffffff1673ffffffffffffffffffffffffffffffffffffffff1673ffffffffffffffffffffffffffffffffffffffff1681525050905080600001518160200151826040015183606001518460800151955095509550955095505091939590929450565b60008054906101000a900473ffffffffffffffffffffffffffffffffffffffff1681565b600160009054906101000a900473ffffffffffffffffffffffffffffffffffffffff1673ffffffffffffffffffffffffffffffffffffffff166382f7d392336040518263ffffffff1660e01b8152600401610c829190612812565b602060405180830381865afa158015610c9f573d6000803e3d6000fd5b505050506040513d601f19601f82011682018060405250810190610cc39190612db4565b610d02576040517f08c379a0000000000000000000000000000000000000000000000000000000008152600401610cf990612e2d565b60405180910390fd5b8373ffffffffffffffffffffffffffffffffffffffff163373ffffffffffffffffffffffffffffffffffffffff1614610d3a57600080fd5b610d426122fe565b85816000018190525084816020019073ffffffffffffffffffffffffffffffffffffffff16908173ffffffffffffffffffffffffffffffffffffffff168152505083816040018190525082816060018190525081816080019073ffffffffffffffffffffffffffffffffffffffff16908173ffffffffffffffffffffffffffffffffffffffff168152505060058190806001815401808255809150506001900390600052602060002090600502016000909190919091506000820151816000019080519060200190610e15929190612359565b5060208201518160010160006101000a81548173ffffffffffffffffffffffffffffffffffffffff021916908373ffffffffffffffffffffffffffffffffffffffff1602179055506040820151816002019080519060200190610e79929190612359565b506060820151816003019080519060200190610e96929190612359565b5060808201518160040160006101000a81548173ffffffffffffffffffffffffffffffffffffffff021916908373ffffffffffffffffffffffffffffffffffffffff1602179055505050505050505050565b60008073ffffffffffffffffffffffffffffffffffffffff16600760008473ffffffffffffffffffffffffffffffffffffffff1673ffffffffffffffffffffffffffffffffffffffff16815260200190815260200160002060009054906101000a900473ffffffffffffffffffffffffffffffffffffffff1673ffffffffffffffffffffffffffffffffffffffff1614159050919050565b600073ffffffffffffffffffffffffffffffffffffffff16600260009054906101000a900473ffffffffffffffffffffffffffffffffffffffff1673ffffffffffffffffffffffffffffffffffffffff1663839f602d336040518263ffffffff1660e01b8152600401610ff39190612812565b602060405180830381865afa158015611010573d6000803e3d6000fd5b505050506040513d601f19601f820116820180604052508101906110349190612c5f565b73ffffffffffffffffffffffffffffffffffffffff16141561108b576040517f08c379a000000000000000000000000000000000000000000000000000000000815260040161108290612e99565b60405180910390fd5b6000600160009054906101000a900473ffffffffffffffffffffffffffffffffffffffff1673ffffffffffffffffffffffffffffffffffffffff16638a97503d86856040518363ffffffff1660e01b81526004016110ea929190612a82565b602060405180830381865afa158015611107573d6000803e3d6000fd5b505050506040513d601f19601f8201168201806040525081019061112b9190612ade565b90506000600160009054906101000a900473ffffffffffffffffffffffffffffffffffffffff1673ffffffffffffffffffffffffffffffffffffffff1663435df20d836040518263ffffffff1660e01b815260040161118a9190612942565b600060405180830381865afa1580156111a7573d6000803e3d6000fd5b505050506040513d6000823e3d601f19601f820116820180604052508101906111d09190612b90565b9450505050508073ffffffffffffffffffffffffffffffffffffffff163373ffffffffffffffffffffffffffffffffffffffff161461120e57600080fd5b6112166122fe565b87816000018190525086816020019073ffffffffffffffffffffffffffffffffffffffff16908173ffffffffffffffffffffffffffffffffffffffff168152505085816040018190525084816060018190525083816080019073ffffffffffffffffffffffffffffffffffffffff16908173ffffffffffffffffffffffffffffffffffffffff1681525050600681908060018154018082558091505060019003906000526020600020906005020160009091909190915060008201518160000190805190602001906112e9929190612359565b5060208201518160010160006101000a81548173ffffffffffffffffffffffffffffffffffffffff021916908373ffffffffffffffffffffffffffffffffffffffff160217905550604082015181600201908051906020019061134d929190612359565b50606082015181600301908051906020019061136a929190612359565b5060808201518160040160006101000a81548173ffffffffffffffffffffffffffffffffffffffff021916908373ffffffffffffffffffffffffffffffffffffffff16021790555050505050505050505050565b600082826040516020016113d3929190612f3d565b60405160208183030381529060405280519060200120905092915050565b60045481565b6000600680549050905090565b6060600060608060006005805490508610611454576040517f08c379a000000000000000000000000000000000000000000000000000000000815260040161144b90612d39565b60405180910390fd5b60006006878154811061146a57611469612d59565b5b90600052602060002090600502016040518060a001604052908160008201805461149390612cbb565b80601f01602080910402602001604051908101604052809291908181526020018280546114bf90612cbb565b801561150c5780601f106114e15761010080835404028352916020019161150c565b820191906000526020600020905b8154815290600101906020018083116114ef57829003601f168201915b505050505081526020016001820160009054906101000a900473ffffffffffffffffffffffffffffffffffffffff1673ffffffffffffffffffffffffffffffffffffffff1673ffffffffffffffffffffffffffffffffffffffff16815260200160028201805461157b90612cbb565b80601f01602080910402602001604051908101604052809291908181526020018280546115a790612cbb565b80156115f45780601f106115c9576101008083540402835291602001916115f4565b820191906000526020600020905b8154815290600101906020018083116115d757829003601f168201915b5050505050815260200160038201805461160d90612cbb565b80601f016020809104026020016040519081016040528092919081815260200182805461163990612cbb565b80156116865780601f1061165b57610100808354040283529160200191611686565b820191906000526020600020905b81548152906001019060200180831161166957829003601f168201915b505050505081526020016004820160009054906101000a900473ffffffffffffffffffffffffffffffffffffffff1673ffffffffffffffffffffffffffffffffffffffff1673ffffffffffffffffffffffffffffffffffffffff1681525050905080600001518160200151826040015183606001518460800151955095509550955095505091939590929450565b6000600580549050905090565b600360009054906101000a900473ffffffffffffffffffffffffffffffffffffffff1681565b600260009054906101000a900473ffffffffffffffffffffffffffffffffffffffff1681565b6005818154811061177d57600080fd5b90600052602060002090600502016000915090508060000180546117a090612cbb565b80601f01602080910402602001604051908101604052809291908181526020018280546117cc90612cbb565b80156118195780601f106117ee57610100808354040283529160200191611819565b820191906000526020600020905b8154815290600101906020018083116117fc57829003601f168201915b5050505050908060010160009054906101000a900473ffffffffffffffffffffffffffffffffffffffff169080600201805461185490612cbb565b80601f016020809104026020016040519081016040528092919081815260200182805461188090612cbb565b80156118cd5780601f106118a2576101008083540402835291602001916118cd565b820191906000526020600020905b8154815290600101906020018083116118b057829003601f168201915b5050505050908060030180546118e290612cbb565b80601f016020809104026020016040519081016040528092919081815260200182805461190e90612cbb565b801561195b5780601f106119305761010080835404028352916020019161195b565b820191906000526020600020905b81548152906001019060200180831161193e57829003601f168201915b5050505050908060040160009054906101000a900473ffffffffffffffffffffffffffffffffffffffff16905085565b600160009054906101000a900473ffffffffffffffffffffffffffffffffffffffff1681565b6000600760008373ffffffffffffffffffffffffffffffffffffffff1673ffffffffffffffffffffffffffffffffffffffff16815260200190815260200160002060009054906101000a900473ffffffffffffffffffffffffffffffffffffffff169050919050565b6000806000806000611a2b86611404565b945094509450945094508073ffffffffffffffffffffffffffffffffffffffff163373ffffffffffffffffffffffffffffffffffffffff1614611aa3576040517f08c379a0000000000000000000000000000000000000000000000000000000008152600401611a9a90612fb1565b60405180910390fd5b6000600160009054906101000a900473ffffffffffffffffffffffffffffffffffffffff1673ffffffffffffffffffffffffffffffffffffffff16638a97503d86856040518363ffffffff1660e01b8152600401611b02929190612a82565b602060405180830381865afa158015611b1f573d6000803e3d6000fd5b505050506040513d601f19601f82011682018060405250810190611b439190612ade565b9050600160009054906101000a900473ffffffffffffffffffffffffffffffffffffffff1673ffffffffffffffffffffffffffffffffffffffff16634268ddbd8883336040518463ffffffff1660e01b8152600401611ba493929190612fd1565b6020604051808303816000875af1158015611bc3573d6000803e3d6000fd5b505050506040513d601f19601f82011682018060405250810190611be79190612db4565b611c26576040517f08c379a0000000000000000000000000000000000000000000000000000000008152600401611c1d9061307a565b60405180910390fd5b60068781548110611c3a57611c39612d59565b5b906000526020600020906005020160008082016000611c5991906123df565b6001820160006101000a81549073ffffffffffffffffffffffffffffffffffffffff0219169055600282016000611c9091906123df565b600382016000611ca091906123df565b6004820160006101000a81549073ffffffffffffffffffffffffffffffffffffffff0219169055505050505050505050565b600073ffffffffffffffffffffffffffffffffffffffff16600260009054906101000a900473ffffffffffffffffffffffffffffffffffffffff1673ffffffffffffffffffffffffffffffffffffffff1663839f602d336040518263ffffffff1660e01b8152600401611d459190612812565b602060405180830381865afa158015611d62573d6000803e3d6000fd5b505050506040513d601f19601f82011682018060405250810190611d869190612c5f565b73ffffffffffffffffffffffffffffffffffffffff161415611ddd576040517f08c379a0000000000000000000000000000000000000000000000000000000008152600401611dd490612e99565b60405180910390fd5b6000806000806000611dee866108f3565b945094509450945094508073ffffffffffffffffffffffffffffffffffffffff163373ffffffffffffffffffffffffffffffffffffffff1614611e66576040517f08c379a0000000000000000000000000000000000000000000000000000000008152600401611e5d90612fb1565b60405180910390fd5b6000600160009054906101000a900473ffffffffffffffffffffffffffffffffffffffff1673ffffffffffffffffffffffffffffffffffffffff16638a97503d86856040518363ffffffff1660e01b8152600401611ec5929190612a82565b602060405180830381865afa158015611ee2573d6000803e3d6000fd5b505050506040513d601f19601f82011682018060405250810190611f069190612ade565b9050600160009054906101000a900473ffffffffffffffffffffffffffffffffffffffff1673ffffffffffffffffffffffffffffffffffffffff16634268ddbd8883336040518463ffffffff1660e01b8152600401611f6793929190612fd1565b6020604051808303816000875af1158015611f86573d6000803e3d6000fd5b505050506040513d601f19601f82011682018060405250810190611faa9190612db4565b611fe9576040517f08c379a0000000000000000000000000000000000000000000000000000000008152600401611fe09061307a565b60405180910390fd5b60058781548110611ffd57611ffc612d59565b5b90600052602060002090600502016000808201600061201c91906123df565b6001820160006101000a81549073ffffffffffffffffffffffffffffffffffffffff021916905560028201600061205391906123df565b60038201600061206391906123df565b6004820160006101000a81549073ffffffffffffffffffffffffffffffffffffffff0219169055505050505050505050565b6000600160009054906101000a900473ffffffffffffffffffffffffffffffffffffffff1673ffffffffffffffffffffffffffffffffffffffff16638a97503d84846040518363ffffffff1660e01b81526004016120f4929190612a82565b602060405180830381865afa158015612111573d6000803e3d6000fd5b505050506040513d601f19601f820116820180604052508101906121359190612ade565b90506000600160009054906101000a900473ffffffffffffffffffffffffffffffffffffffff1673ffffffffffffffffffffffffffffffffffffffff1663435df20d836040518263ffffffff1660e01b81526004016121949190612942565b600060405180830381865afa1580156121b1573d6000803e3d6000fd5b505050506040513d6000823e3d601f19601f820116820180604052508101906121da9190612b90565b9450505050508073ffffffffffffffffffffffffffffffffffffffff163373ffffffffffffffffffffffffffffffffffffffff161461221857600080fd5b600160009054906101000a900473ffffffffffffffffffffffffffffffffffffffff1673ffffffffffffffffffffffffffffffffffffffff1663956a354586846040518363ffffffff1660e01b815260040161227592919061309a565b6020604051808303816000875af1158015612294573d6000803e3d6000fd5b505050506040513d601f19601f820116820180604052508101906122b89190612db4565b6122f7576040517f08c379a00000000000000000000000000000000000000000000000000000000081526004016122ee90613135565b60405180910390fd5b5050505050565b6040518060a0016040528060608152602001600073ffffffffffffffffffffffffffffffffffffffff1681526020016060815260200160608152602001600073ffffffffffffffffffffffffffffffffffffffff1681525090565b82805461236590612cbb565b90600052602060002090601f01602090048101928261238757600085556123ce565b82601f106123a057805160ff19168380011785556123ce565b828001600101855582156123ce579182015b828111156123cd5782518255916020019190600101906123b2565b5b5090506123db919061241f565b5090565b5080546123eb90612cbb565b6000825580601f106123fd575061241c565b601f01602090049060005260206000209081019061241b919061241f565b5b50565b5b80821115612438576000816000905550600101612420565b5090565b6000819050919050565b61244f8161243c565b82525050565b600060208201905061246a6000830184612446565b92915050565b6000604051905090565b600080fd5b600080fd5b600073ffffffffffffffffffffffffffffffffffffffff82169050919050565b60006124af82612484565b9050919050565b6124bf816124a4565b81146124ca57600080fd5b50565b6000813590506124dc816124b6565b92915050565b600080fd5b600080fd5b6000601f19601f8301169050919050565b7f4e487b7100000000000000000000000000000000000000000000000000000000600052604160045260246000fd5b612535826124ec565b810181811067ffffffffffffffff82111715612554576125536124fd565b5b80604052505050565b6000612567612470565b9050612573828261252c565b919050565b600067ffffffffffffffff821115612593576125926124fd565b5b61259c826124ec565b9050602081019050919050565b82818337600083830152505050565b60006125cb6125c684612578565b61255d565b9050828152602081018484840111156125e7576125e66124e7565b5b6125f28482856125a9565b509392505050565b600082601f83011261260f5761260e6124e2565b5b813561261f8482602086016125b8565b91505092915050565b6000806040838503121561263f5761263e61247a565b5b600061264d858286016124cd565b925050602083013567ffffffffffffffff81111561266e5761266d61247f565b5b61267a858286016125fa565b9150509250929050565b60008115159050919050565b61269981612684565b82525050565b60006020820190506126b46000830184612690565b92915050565b6126c38161243c565b81146126ce57600080fd5b50565b6000813590506126e0816126ba565b92915050565b6000602082840312156126fc576126fb61247a565b5b600061270a848285016126d1565b91505092915050565b600081519050919050565b600082825260208201905092915050565b60005b8381101561274d578082015181840152602081019050612732565b8381111561275c576000848401525b50505050565b600061276d82612713565b612777818561271e565b935061278781856020860161272f565b612790816124ec565b840191505092915050565b6127a4816124a4565b82525050565b600060a08201905081810360008301526127c48188612762565b90506127d3602083018761279b565b81810360408301526127e58186612762565b905081810360608301526127f98185612762565b9050612808608083018461279b565b9695505050505050565b6000602082019050612827600083018461279b565b92915050565b600080600080600060a086880312156128495761284861247a565b5b600086013567ffffffffffffffff8111156128675761286661247f565b5b612873888289016125fa565b9550506020612884888289016124cd565b945050604086013567ffffffffffffffff8111156128a5576128a461247f565b5b6128b1888289016125fa565b935050606086013567ffffffffffffffff8111156128d2576128d161247f565b5b6128de888289016125fa565b92505060806128ef888289016124cd565b9150509295509295909350565b6000602082840312156129125761291161247a565b5b6000612920848285016124cd565b91505092915050565b6000819050919050565b61293c81612929565b82525050565b60006020820190506129576000830184612933565b92915050565b6000819050919050565b600061298261297d61297884612484565b61295d565b612484565b9050919050565b600061299482612967565b9050919050565b60006129a682612989565b9050919050565b6129b68161299b565b82525050565b60006020820190506129d160008301846129ad565b92915050565b60006129e282612989565b9050919050565b6129f2816129d7565b82525050565b6000602082019050612a0d60008301846129e9565b92915050565b600080600060608486031215612a2c57612a2b61247a565b5b6000612a3a868287016126d1565b9350506020612a4b868287016124cd565b925050604084013567ffffffffffffffff811115612a6c57612a6b61247f565b5b612a78868287016125fa565b9150509250925092565b6000604082019050612a97600083018561279b565b8181036020830152612aa98184612762565b90509392505050565b612abb81612929565b8114612ac657600080fd5b50565b600081519050612ad881612ab2565b92915050565b600060208284031215612af457612af361247a565b5b6000612b0284828501612ac9565b91505092915050565b6000612b1e612b1984612578565b61255d565b905082815260208101848484011115612b3a57612b396124e7565b5b612b4584828561272f565b509392505050565b600082601f830112612b6257612b616124e2565b5b8151612b72848260208601612b0b565b91505092915050565b600081519050612b8a816124b6565b92915050565b600080600080600060a08688031215612bac57612bab61247a565b5b600086015167ffffffffffffffff811115612bca57612bc961247f565b5b612bd688828901612b4d565b9550506020612be788828901612b7b565b945050604086015167ffffffffffffffff811115612c0857612c0761247f565b5b612c1488828901612b4d565b935050606086015167ffffffffffffffff811115612c3557612c3461247f565b5b612c4188828901612b4d565b9250506080612c5288828901612b7b565b9150509295509295909350565b600060208284031215612c7557612c7461247a565b5b6000612c8384828501612b7b565b91505092915050565b7f4e487b7100000000000000000000000000000000000000000000000000000000600052602260045260246000fd5b60006002820490506001821680612cd357607f821691505b60208210811415612ce757612ce6612c8c565b5b50919050565b7f496e646578206f7574206f6620626f756e647300000000000000000000000000600082015250565b6000612d2360138361271e565b9150612d2e82612ced565b602082019050919050565b60006020820190508181036000830152612d5281612d16565b9050919050565b7f4e487b7100000000000000000000000000000000000000000000000000000000600052603260045260246000fd5b612d9181612684565b8114612d9c57600080fd5b50565b600081519050612dae81612d88565b92915050565b600060208284031215612dca57612dc961247a565b5b6000612dd884828501612d9f565b91505092915050565b7f4e6f7420617574686f72697a6564000000000000000000000000000000000000600082015250565b6000612e17600e8361271e565b9150612e2282612de1565b602082019050919050565b60006020820190508181036000830152612e4681612e0a565b9050919050565b7f596f7520617265206e6f7420417574686f72697a656421000000000000000000600082015250565b6000612e8360178361271e565b9150612e8e82612e4d565b602082019050919050565b60006020820190508181036000830152612eb281612e76565b9050919050565b60008160601b9050919050565b6000612ed182612eb9565b9050919050565b6000612ee382612ec6565b9050919050565b612efb612ef6826124a4565b612ed8565b82525050565b600081905092915050565b6000612f1782612713565b612f218185612f01565b9350612f3181856020860161272f565b80840191505092915050565b6000612f498285612eea565b601482019150612f598284612f0c565b91508190509392505050565b7f4e6f742074686520537475656e74277320496e73746974757465000000000000600082015250565b6000612f9b601a8361271e565b9150612fa682612f65565b602082019050919050565b60006020820190508181036000830152612fca81612f8e565b9050919050565b6000606082019050612fe66000830186612446565b612ff36020830185612933565b613000604083018461279b565b949350505050565b7f4661696c656420746f2061646420696e7374697475746520746f20737475646560008201527f6e7420696e666f00000000000000000000000000000000000000000000000000602082015250565b600061306460278361271e565b915061306f82613008565b604082019050919050565b6000602082019050818103600083015261309381613057565b9050919050565b60006040820190506130af6000830185612446565b6130bc6020830184612933565b9392505050565b7f4661696c656420746f2072656d6f766520696e737469747574652066726f6d2060008201527f73747564656e7420696e666f0000000000000000000000000000000000000000602082015250565b600061311f602c8361271e565b915061312a826130c3565b604082019050919050565b6000602082019050818103600083015261314e81613112565b905091905056fea26469706673582212204606d5781d7031be72bcf82d4e8a30f3b956003c207e9ddcf63284d76a9254ed64736f6c634300080a0033",
      "opcodes": "PUSH1 0x80 PUSH1 0x40 MSTORE PUSH1 0x0 PUSH1 0x4 SSTORE CALLVALUE DUP1 ISZERO PUSH3 0x16 JUMPI PUSH1 0x0 DUP1 REVERT JUMPDEST POP PUSH1 0x40 MLOAD PUSH3 0x3393 CODESIZE SUB DUP1 PUSH3 0x3393 DUP4 CODECOPY DUP2 DUP2 ADD PUSH1 0x40 MSTORE DUP2 ADD SWAP1 PUSH3 0x3C SWAP2 SWAP1 PUSH3 0x1B1 JUMP JUMPDEST CALLER PUSH1 0x0 DUP1 PUSH2 0x100 EXP DUP2 SLOAD DUP2 PUSH20 0xFFFFFFFFFFFFFFFFFFFFFFFFFFFFFFFFFFFFFFFF MUL NOT AND SWAP1 DUP4 PUSH20 0xFFFFFFFFFFFFFFFFFFFFFFFFFFFFFFFFFFFFFFFF AND MUL OR SWAP1 SSTORE POP DUP2 PUSH1 0x3 PUSH1 0x0 PUSH2 0x100 EXP DUP2 SLOAD DUP2 PUSH20 0xFFFFFFFFFFFFFFFFFFFFFFFFFFFFFFFFFFFFFFFF MUL NOT AND SWAP1 DUP4 PUSH20 0xFFFFFFFFFFFFFFFFFFFFFFFFFFFFFFFFFFFFFFFF AND MUL OR SWAP1 SSTORE POP DUP2 PUSH1 0x1 PUSH1 0x0 PUSH2 0x100 EXP DUP2 SLOAD DUP2 PUSH20 0xFFFFFFFFFFFFFFFFFFFFFFFFFFFFFFFFFFFFFFFF MUL NOT AND SWAP1 DUP4 PUSH20 0xFFFFFFFFFFFFFFFFFFFFFFFFFFFFFFFFFFFFFFFF AND MUL OR SWAP1 SSTORE POP DUP1 PUSH1 0x2 PUSH1 0x0 PUSH2 0x100 EXP DUP2 SLOAD DUP2 PUSH20 0xFFFFFFFFFFFFFFFFFFFFFFFFFFFFFFFFFFFFFFFF MUL NOT AND SWAP1 DUP4 PUSH20 0xFFFFFFFFFFFFFFFFFFFFFFFFFFFFFFFFFFFFFFFF AND MUL OR SWAP1 SSTORE POP POP POP PUSH3 0x1F8 JUMP JUMPDEST PUSH1 0x0 DUP1 REVERT JUMPDEST PUSH1 0x0 PUSH20 0xFFFFFFFFFFFFFFFFFFFFFFFFFFFFFFFFFFFFFFFF DUP3 AND SWAP1 POP SWAP2 SWAP1 POP JUMP JUMPDEST PUSH1 0x0 PUSH3 0x179 DUP3 PUSH3 0x14C JUMP JUMPDEST SWAP1 POP SWAP2 SWAP1 POP JUMP JUMPDEST PUSH3 0x18B DUP2 PUSH3 0x16C JUMP JUMPDEST DUP2 EQ PUSH3 0x197 JUMPI PUSH1 0x0 DUP1 REVERT JUMPDEST POP JUMP JUMPDEST PUSH1 0x0 DUP2 MLOAD SWAP1 POP PUSH3 0x1AB DUP2 PUSH3 0x180 JUMP JUMPDEST SWAP3 SWAP2 POP POP JUMP JUMPDEST PUSH1 0x0 DUP1 PUSH1 0x40 DUP4 DUP6 SUB SLT ISZERO PUSH3 0x1CB JUMPI PUSH3 0x1CA PUSH3 0x147 JUMP JUMPDEST JUMPDEST PUSH1 0x0 PUSH3 0x1DB DUP6 DUP3 DUP7 ADD PUSH3 0x19A JUMP JUMPDEST SWAP3 POP POP PUSH1 0x20 PUSH3 0x1EE DUP6 DUP3 DUP7 ADD PUSH3 0x19A JUMP JUMPDEST SWAP2 POP POP SWAP3 POP SWAP3 SWAP1 POP JUMP JUMPDEST PUSH2 0x318B DUP1 PUSH3 0x208 PUSH1 0x0 CODECOPY PUSH1 0x0 RETURN INVALID PUSH1 0x80 PUSH1 0x40 MSTORE CALLVALUE DUP1 ISZERO PUSH2 0x10 JUMPI PUSH1 0x0 DUP1 REVERT JUMPDEST POP PUSH1 0x4 CALLDATASIZE LT PUSH2 0x142 JUMPI PUSH1 0x0 CALLDATALOAD PUSH1 0xE0 SHR DUP1 PUSH4 0xA2A1FEE5 GT PUSH2 0xB8 JUMPI DUP1 PUSH4 0xBD6A8504 GT PUSH2 0x7C JUMPI DUP1 PUSH4 0xBD6A8504 EQ PUSH2 0x39B JUMPI DUP1 PUSH4 0xC865D881 EQ PUSH2 0x3CF JUMPI DUP1 PUSH4 0xCA90543D EQ PUSH2 0x3ED JUMPI DUP1 PUSH4 0xDA085B7A EQ PUSH2 0x41D JUMPI DUP1 PUSH4 0xF00C848D EQ PUSH2 0x439 JUMPI DUP1 PUSH4 0xF20BCF9A EQ PUSH2 0x455 JUMPI PUSH2 0x142 JUMP JUMPDEST DUP1 PUSH4 0xA2A1FEE5 EQ PUSH2 0x2EF JUMPI DUP1 PUSH4 0xA4156AEC EQ PUSH2 0x30D JUMPI DUP1 PUSH4 0xB1BE843D EQ PUSH2 0x341 JUMPI DUP1 PUSH4 0xB7774C1A EQ PUSH2 0x35F JUMPI DUP1 PUSH4 0xBAE0A585 EQ PUSH2 0x37D JUMPI PUSH2 0x142 JUMP JUMPDEST DUP1 PUSH4 0x673A1746 GT PUSH2 0x10A JUMPI DUP1 PUSH4 0x673A1746 EQ PUSH2 0x21B JUMPI DUP1 PUSH4 0x78CFE85E EQ PUSH2 0x239 JUMPI DUP1 PUSH4 0x82F7D392 EQ PUSH2 0x255 JUMPI DUP1 PUSH4 0x85AF95ED EQ PUSH2 0x285 JUMPI DUP1 PUSH4 0x8A97503D EQ PUSH2 0x2A1 JUMPI DUP1 PUSH4 0x911018EF EQ PUSH2 0x2D1 JUMPI PUSH2 0x142 JUMP JUMPDEST DUP1 PUSH4 0x20B260E3 EQ PUSH2 0x147 JUMPI DUP1 PUSH4 0x217FA765 EQ PUSH2 0x165 JUMPI DUP1 PUSH4 0x2ECCA5FE EQ PUSH2 0x195 JUMPI DUP1 PUSH4 0x548D434E EQ PUSH2 0x1B3 JUMPI DUP1 PUSH4 0x5B969A04 EQ PUSH2 0x1E7 JUMPI JUMPDEST PUSH1 0x0 DUP1 REVERT JUMPDEST PUSH2 0x14F PUSH2 0x471 JUMP JUMPDEST PUSH1 0x40 MLOAD PUSH2 0x15C SWAP2 SWAP1 PUSH2 0x2455 JUMP JUMPDEST PUSH1 0x40 MLOAD DUP1 SWAP2 SUB SWAP1 RETURN JUMPDEST PUSH2 0x17F PUSH1 0x4 DUP1 CALLDATASIZE SUB DUP2 ADD SWAP1 PUSH2 0x17A SWAP2 SWAP1 PUSH2 0x2628 JUMP JUMPDEST PUSH2 0x47E JUMP JUMPDEST PUSH1 0x40 MLOAD PUSH2 0x18C SWAP2 SWAP1 PUSH2 0x269F JUMP JUMPDEST PUSH1 0x40 MLOAD DUP1 SWAP2 SUB SWAP1 RETURN JUMPDEST PUSH2 0x19D PUSH2 0x603 JUMP JUMPDEST PUSH1 0x40 MLOAD PUSH2 0x1AA SWAP2 SWAP1 PUSH2 0x269F JUMP JUMPDEST PUSH1 0x40 MLOAD DUP1 SWAP2 SUB SWAP1 RETURN JUMPDEST PUSH2 0x1CD PUSH1 0x4 DUP1 CALLDATASIZE SUB DUP2 ADD SWAP1 PUSH2 0x1C8 SWAP2 SWAP1 PUSH2 0x26E6 JUMP JUMPDEST PUSH2 0x6D5 JUMP JUMPDEST PUSH1 0x40 MLOAD PUSH2 0x1DE SWAP6 SWAP5 SWAP4 SWAP3 SWAP2 SWAP1 PUSH2 0x27AA JUMP JUMPDEST PUSH1 0x40 MLOAD DUP1 SWAP2 SUB SWAP1 RETURN JUMPDEST PUSH2 0x201 PUSH1 0x4 DUP1 CALLDATASIZE SUB DUP2 ADD SWAP1 PUSH2 0x1FC SWAP2 SWAP1 PUSH2 0x26E6 JUMP JUMPDEST PUSH2 0x8F3 JUMP JUMPDEST PUSH1 0x40 MLOAD PUSH2 0x212 SWAP6 SWAP5 SWAP4 SWAP3 SWAP2 SWAP1 PUSH2 0x27AA JUMP JUMPDEST PUSH1 0x40 MLOAD DUP1 SWAP2 SUB SWAP1 RETURN JUMPDEST PUSH2 0x223 PUSH2 0xC03 JUMP JUMPDEST PUSH1 0x40 MLOAD PUSH2 0x230 SWAP2 SWAP1 PUSH2 0x2812 JUMP JUMPDEST PUSH1 0x40 MLOAD DUP1 SWAP2 SUB SWAP1 RETURN JUMPDEST PUSH2 0x253 PUSH1 0x4 DUP1 CALLDATASIZE SUB DUP2 ADD SWAP1 PUSH2 0x24E SWAP2 SWAP1 PUSH2 0x282D JUMP JUMPDEST PUSH2 0xC27 JUMP JUMPDEST STOP JUMPDEST PUSH2 0x26F PUSH1 0x4 DUP1 CALLDATASIZE SUB DUP2 ADD SWAP1 PUSH2 0x26A SWAP2 SWAP1 PUSH2 0x28FC JUMP JUMPDEST PUSH2 0xEE8 JUMP JUMPDEST PUSH1 0x40 MLOAD PUSH2 0x27C SWAP2 SWAP1 PUSH2 0x269F JUMP JUMPDEST PUSH1 0x40 MLOAD DUP1 SWAP2 SUB SWAP1 RETURN JUMPDEST PUSH2 0x29F PUSH1 0x4 DUP1 CALLDATASIZE SUB DUP2 ADD SWAP1 PUSH2 0x29A SWAP2 SWAP1 PUSH2 0x282D JUMP JUMPDEST PUSH2 0xF80 JUMP JUMPDEST STOP JUMPDEST PUSH2 0x2BB PUSH1 0x4 DUP1 CALLDATASIZE SUB DUP2 ADD SWAP1 PUSH2 0x2B6 SWAP2 SWAP1 PUSH2 0x2628 JUMP JUMPDEST PUSH2 0x13BE JUMP JUMPDEST PUSH1 0x40 MLOAD PUSH2 0x2C8 SWAP2 SWAP1 PUSH2 0x2942 JUMP JUMPDEST PUSH1 0x40 MLOAD DUP1 SWAP2 SUB SWAP1 RETURN JUMPDEST PUSH2 0x2D9 PUSH2 0x13F1 JUMP JUMPDEST PUSH1 0x40 MLOAD PUSH2 0x2E6 SWAP2 SWAP1 PUSH2 0x2455 JUMP JUMPDEST PUSH1 0x40 MLOAD DUP1 SWAP2 SUB SWAP1 RETURN JUMPDEST PUSH2 0x2F7 PUSH2 0x13F7 JUMP JUMPDEST PUSH1 0x40 MLOAD PUSH2 0x304 SWAP2 SWAP1 PUSH2 0x2455 JUMP JUMPDEST PUSH1 0x40 MLOAD DUP1 SWAP2 SUB SWAP1 RETURN JUMPDEST PUSH2 0x327 PUSH1 0x4 DUP1 CALLDATASIZE SUB DUP2 ADD SWAP1 PUSH2 0x322 SWAP2 SWAP1 PUSH2 0x26E6 JUMP JUMPDEST PUSH2 0x1404 JUMP JUMPDEST PUSH1 0x40 MLOAD PUSH2 0x338 SWAP6 SWAP5 SWAP4 SWAP3 SWAP2 SWAP1 PUSH2 0x27AA JUMP JUMPDEST PUSH1 0x40 MLOAD DUP1 SWAP2 SUB SWAP1 RETURN JUMPDEST PUSH2 0x349 PUSH2 0x1714 JUMP JUMPDEST PUSH1 0x40 MLOAD PUSH2 0x356 SWAP2 SWAP1 PUSH2 0x2455 JUMP JUMPDEST PUSH1 0x40 MLOAD DUP1 SWAP2 SUB SWAP1 RETURN JUMPDEST PUSH2 0x367 PUSH2 0x1721 JUMP JUMPDEST PUSH1 0x40 MLOAD PUSH2 0x374 SWAP2 SWAP1 PUSH2 0x2812 JUMP JUMPDEST PUSH1 0x40 MLOAD DUP1 SWAP2 SUB SWAP1 RETURN JUMPDEST PUSH2 0x385 PUSH2 0x1747 JUMP JUMPDEST PUSH1 0x40 MLOAD PUSH2 0x392 SWAP2 SWAP1 PUSH2 0x29BC JUMP JUMPDEST PUSH1 0x40 MLOAD DUP1 SWAP2 SUB SWAP1 RETURN JUMPDEST PUSH2 0x3B5 PUSH1 0x4 DUP1 CALLDATASIZE SUB DUP2 ADD SWAP1 PUSH2 0x3B0 SWAP2 SWAP1 PUSH2 0x26E6 JUMP JUMPDEST PUSH2 0x176D JUMP JUMPDEST PUSH1 0x40 MLOAD PUSH2 0x3C6 SWAP6 SWAP5 SWAP4 SWAP3 SWAP2 SWAP1 PUSH2 0x27AA JUMP JUMPDEST PUSH1 0x40 MLOAD DUP1 SWAP2 SUB SWAP1 RETURN JUMPDEST PUSH2 0x3D7 PUSH2 0x198B JUMP JUMPDEST PUSH1 0x40 MLOAD PUSH2 0x3E4 SWAP2 SWAP1 PUSH2 0x29F8 JUMP JUMPDEST PUSH1 0x40 MLOAD DUP1 SWAP2 SUB SWAP1 RETURN JUMPDEST PUSH2 0x407 PUSH1 0x4 DUP1 CALLDATASIZE SUB DUP2 ADD SWAP1 PUSH2 0x402 SWAP2 SWAP1 PUSH2 0x28FC JUMP JUMPDEST PUSH2 0x19B1 JUMP JUMPDEST PUSH1 0x40 MLOAD PUSH2 0x414 SWAP2 SWAP1 PUSH2 0x2812 JUMP JUMPDEST PUSH1 0x40 MLOAD DUP1 SWAP2 SUB SWAP1 RETURN JUMPDEST PUSH2 0x437 PUSH1 0x4 DUP1 CALLDATASIZE SUB DUP2 ADD SWAP1 PUSH2 0x432 SWAP2 SWAP1 PUSH2 0x26E6 JUMP JUMPDEST PUSH2 0x1A1A JUMP JUMPDEST STOP JUMPDEST PUSH2 0x453 PUSH1 0x4 DUP1 CALLDATASIZE SUB DUP2 ADD SWAP1 PUSH2 0x44E SWAP2 SWAP1 PUSH2 0x26E6 JUMP JUMPDEST PUSH2 0x1CD2 JUMP JUMPDEST STOP JUMPDEST PUSH2 0x46F PUSH1 0x4 DUP1 CALLDATASIZE SUB DUP2 ADD SWAP1 PUSH2 0x46A SWAP2 SWAP1 PUSH2 0x2A13 JUMP JUMPDEST PUSH2 0x2095 JUMP JUMPDEST STOP JUMPDEST PUSH1 0x0 PUSH1 0x8 DUP1 SLOAD SWAP1 POP SWAP1 POP SWAP1 JUMP JUMPDEST PUSH1 0x0 DUP1 PUSH1 0x1 PUSH1 0x0 SWAP1 SLOAD SWAP1 PUSH2 0x100 EXP SWAP1 DIV PUSH20 0xFFFFFFFFFFFFFFFFFFFFFFFFFFFFFFFFFFFFFFFF AND PUSH20 0xFFFFFFFFFFFFFFFFFFFFFFFFFFFFFFFFFFFFFFFF AND PUSH4 0x8A97503D DUP6 DUP6 PUSH1 0x40 MLOAD DUP4 PUSH4 0xFFFFFFFF AND PUSH1 0xE0 SHL DUP2 MSTORE PUSH1 0x4 ADD PUSH2 0x4DE SWAP3 SWAP2 SWAP1 PUSH2 0x2A82 JUMP JUMPDEST PUSH1 0x20 PUSH1 0x40 MLOAD DUP1 DUP4 SUB DUP2 DUP7 GAS STATICCALL ISZERO DUP1 ISZERO PUSH2 0x4FB JUMPI RETURNDATASIZE PUSH1 0x0 DUP1 RETURNDATACOPY RETURNDATASIZE PUSH1 0x0 REVERT JUMPDEST POP POP POP POP PUSH1 0x40 MLOAD RETURNDATASIZE PUSH1 0x1F NOT PUSH1 0x1F DUP3 ADD AND DUP3 ADD DUP1 PUSH1 0x40 MSTORE POP DUP2 ADD SWAP1 PUSH2 0x51F SWAP2 SWAP1 PUSH2 0x2ADE JUMP JUMPDEST SWAP1 POP PUSH1 0x0 PUSH1 0x1 PUSH1 0x0 SWAP1 SLOAD SWAP1 PUSH2 0x100 EXP SWAP1 DIV PUSH20 0xFFFFFFFFFFFFFFFFFFFFFFFFFFFFFFFFFFFFFFFF AND PUSH20 0xFFFFFFFFFFFFFFFFFFFFFFFFFFFFFFFFFFFFFFFF AND PUSH4 0x435DF20D DUP4 PUSH1 0x40 MLOAD DUP3 PUSH4 0xFFFFFFFF AND PUSH1 0xE0 SHL DUP2 MSTORE PUSH1 0x4 ADD PUSH2 0x57E SWAP2 SWAP1 PUSH2 0x2942 JUMP JUMPDEST PUSH1 0x0 PUSH1 0x40 MLOAD DUP1 DUP4 SUB DUP2 DUP7 GAS STATICCALL ISZERO DUP1 ISZERO PUSH2 0x59B JUMPI RETURNDATASIZE PUSH1 0x0 DUP1 RETURNDATACOPY RETURNDATASIZE PUSH1 0x0 REVERT JUMPDEST POP POP POP POP PUSH1 0x40 MLOAD RETURNDATASIZE PUSH1 0x0 DUP3 RETURNDATACOPY RETURNDATASIZE PUSH1 0x1F NOT PUSH1 0x1F DUP3 ADD AND DUP3 ADD DUP1 PUSH1 0x40 MSTORE POP DUP2 ADD SWAP1 PUSH2 0x5C4 SWAP2 SWAP1 PUSH2 0x2B90 JUMP JUMPDEST SWAP5 POP POP POP POP POP DUP1 PUSH20 0xFFFFFFFFFFFFFFFFFFFFFFFFFFFFFFFFFFFFFFFF AND CALLER PUSH20 0xFFFFFFFFFFFFFFFFFFFFFFFFFFFFFFFFFFFFFFFF AND EQ SWAP3 POP POP POP SWAP3 SWAP2 POP POP JUMP JUMPDEST PUSH1 0x0 DUP1 PUSH20 0xFFFFFFFFFFFFFFFFFFFFFFFFFFFFFFFFFFFFFFFF AND PUSH1 0x2 PUSH1 0x0 SWAP1 SLOAD SWAP1 PUSH2 0x100 EXP SWAP1 DIV PUSH20 0xFFFFFFFFFFFFFFFFFFFFFFFFFFFFFFFFFFFFFFFF AND PUSH20 0xFFFFFFFFFFFFFFFFFFFFFFFFFFFFFFFFFFFFFFFF AND PUSH4 0x839F602D CALLER PUSH1 0x40 MLOAD DUP3 PUSH4 0xFFFFFFFF AND PUSH1 0xE0 SHL DUP2 MSTORE PUSH1 0x4 ADD PUSH2 0x677 SWAP2 SWAP1 PUSH2 0x2812 JUMP JUMPDEST PUSH1 0x20 PUSH1 0x40 MLOAD DUP1 DUP4 SUB DUP2 DUP7 GAS STATICCALL ISZERO DUP1 ISZERO PUSH2 0x694 JUMPI RETURNDATASIZE PUSH1 0x0 DUP1 RETURNDATACOPY RETURNDATASIZE PUSH1 0x0 REVERT JUMPDEST POP POP POP POP PUSH1 0x40 MLOAD RETURNDATASIZE PUSH1 0x1F NOT PUSH1 0x1F DUP3 ADD AND DUP3 ADD DUP1 PUSH1 0x40 MSTORE POP DUP2 ADD SWAP1 PUSH2 0x6B8 SWAP2 SWAP1 PUSH2 0x2C5F JUMP JUMPDEST PUSH20 0xFFFFFFFFFFFFFFFFFFFFFFFFFFFFFFFFFFFFFFFF AND EQ ISZERO SWAP1 POP SWAP1 JUMP JUMPDEST PUSH1 0x6 DUP2 DUP2 SLOAD DUP2 LT PUSH2 0x6E5 JUMPI PUSH1 0x0 DUP1 REVERT JUMPDEST SWAP1 PUSH1 0x0 MSTORE PUSH1 0x20 PUSH1 0x0 KECCAK256 SWAP1 PUSH1 0x5 MUL ADD PUSH1 0x0 SWAP2 POP SWAP1 POP DUP1 PUSH1 0x0 ADD DUP1 SLOAD PUSH2 0x708 SWAP1 PUSH2 0x2CBB JUMP JUMPDEST DUP1 PUSH1 0x1F ADD PUSH1 0x20 DUP1 SWAP2 DIV MUL PUSH1 0x20 ADD PUSH1 0x40 MLOAD SWAP1 DUP2 ADD PUSH1 0x40 MSTORE DUP1 SWAP3 SWAP2 SWAP1 DUP2 DUP2 MSTORE PUSH1 0x20 ADD DUP3 DUP1 SLOAD PUSH2 0x734 SWAP1 PUSH2 0x2CBB JUMP JUMPDEST DUP1 ISZERO PUSH2 0x781 JUMPI DUP1 PUSH1 0x1F LT PUSH2 0x756 JUMPI PUSH2 0x100 DUP1 DUP4 SLOAD DIV MUL DUP4 MSTORE SWAP2 PUSH1 0x20 ADD SWAP2 PUSH2 0x781 JUMP JUMPDEST DUP3 ADD SWAP2 SWAP1 PUSH1 0x0 MSTORE PUSH1 0x20 PUSH1 0x0 KECCAK256 SWAP1 JUMPDEST DUP2 SLOAD DUP2 MSTORE SWAP1 PUSH1 0x1 ADD SWAP1 PUSH1 0x20 ADD DUP1 DUP4 GT PUSH2 0x764 JUMPI DUP3 SWAP1 SUB PUSH1 0x1F AND DUP3 ADD SWAP2 JUMPDEST POP POP POP POP POP SWAP1 DUP1 PUSH1 0x1 ADD PUSH1 0x0 SWAP1 SLOAD SWAP1 PUSH2 0x100 EXP SWAP1 DIV PUSH20 0xFFFFFFFFFFFFFFFFFFFFFFFFFFFFFFFFFFFFFFFF AND SWAP1 DUP1 PUSH1 0x2 ADD DUP1 SLOAD PUSH2 0x7BC SWAP1 PUSH2 0x2CBB JUMP JUMPDEST DUP1 PUSH1 0x1F ADD PUSH1 0x20 DUP1 SWAP2 DIV MUL PUSH1 0x20 ADD PUSH1 0x40 MLOAD SWAP1 DUP2 ADD PUSH1 0x40 MSTORE DUP1 SWAP3 SWAP2 SWAP1 DUP2 DUP2 MSTORE PUSH1 0x20 ADD DUP3 DUP1 SLOAD PUSH2 0x7E8 SWAP1 PUSH2 0x2CBB JUMP JUMPDEST DUP1 ISZERO PUSH2 0x835 JUMPI DUP1 PUSH1 0x1F LT PUSH2 0x80A JUMPI PUSH2 0x100 DUP1 DUP4 SLOAD DIV MUL DUP4 MSTORE SWAP2 PUSH1 0x20 ADD SWAP2 PUSH2 0x835 JUMP JUMPDEST DUP3 ADD SWAP2 SWAP1 PUSH1 0x0 MSTORE PUSH1 0x20 PUSH1 0x0 KECCAK256 SWAP1 JUMPDEST DUP2 SLOAD DUP2 MSTORE SWAP1 PUSH1 0x1 ADD SWAP1 PUSH1 0x20 ADD DUP1 DUP4 GT PUSH2 0x818 JUMPI DUP3 SWAP1 SUB PUSH1 0x1F AND DUP3 ADD SWAP2 JUMPDEST POP POP POP POP POP SWAP1 DUP1 PUSH1 0x3 ADD DUP1 SLOAD PUSH2 0x84A SWAP1 PUSH2 0x2CBB JUMP JUMPDEST DUP1 PUSH1 0x1F ADD PUSH1 0x20 DUP1 SWAP2 DIV MUL PUSH1 0x20 ADD PUSH1 0x40 MLOAD SWAP1 DUP2 ADD PUSH1 0x40 MSTORE DUP1 SWAP3 SWAP2 SWAP1 DUP2 DUP2 MSTORE PUSH1 0x20 ADD DUP3 DUP1 SLOAD PUSH2 0x876 SWAP1 PUSH2 0x2CBB JUMP JUMPDEST DUP1 ISZERO PUSH2 0x8C3 JUMPI DUP1 PUSH1 0x1F LT PUSH2 0x898 JUMPI PUSH2 0x100 DUP1 DUP4 SLOAD DIV MUL DUP4 MSTORE SWAP2 PUSH1 0x20 ADD SWAP2 PUSH2 0x8C3 JUMP JUMPDEST DUP3 ADD SWAP2 SWAP1 PUSH1 0x0 MSTORE PUSH1 0x20 PUSH1 0x0 KECCAK256 SWAP1 JUMPDEST DUP2 SLOAD DUP2 MSTORE SWAP1 PUSH1 0x1 ADD SWAP1 PUSH1 0x20 ADD DUP1 DUP4 GT PUSH2 0x8A6 JUMPI DUP3 SWAP1 SUB PUSH1 0x1F AND DUP3 ADD SWAP2 JUMPDEST POP POP POP POP POP SWAP1 DUP1 PUSH1 0x4 ADD PUSH1 0x0 SWAP1 SLOAD SWAP1 PUSH2 0x100 EXP SWAP1 DIV PUSH20 0xFFFFFFFFFFFFFFFFFFFFFFFFFFFFFFFFFFFFFFFF AND SWAP1 POP DUP6 JUMP JUMPDEST PUSH1 0x60 PUSH1 0x0 PUSH1 0x60 DUP1 PUSH1 0x0 PUSH1 0x5 DUP1 SLOAD SWAP1 POP DUP7 LT PUSH2 0x943 JUMPI PUSH1 0x40 MLOAD PUSH32 0x8C379A000000000000000000000000000000000000000000000000000000000 DUP2 MSTORE PUSH1 0x4 ADD PUSH2 0x93A SWAP1 PUSH2 0x2D39 JUMP JUMPDEST PUSH1 0x40 MLOAD DUP1 SWAP2 SUB SWAP1 REVERT JUMPDEST PUSH1 0x0 PUSH1 0x5 DUP8 DUP2 SLOAD DUP2 LT PUSH2 0x959 JUMPI PUSH2 0x958 PUSH2 0x2D59 JUMP JUMPDEST JUMPDEST SWAP1 PUSH1 0x0 MSTORE PUSH1 0x20 PUSH1 0x0 KECCAK256 SWAP1 PUSH1 0x5 MUL ADD PUSH1 0x40 MLOAD DUP1 PUSH1 0xA0 ADD PUSH1 0x40 MSTORE SWAP1 DUP2 PUSH1 0x0 DUP3 ADD DUP1 SLOAD PUSH2 0x982 SWAP1 PUSH2 0x2CBB JUMP JUMPDEST DUP1 PUSH1 0x1F ADD PUSH1 0x20 DUP1 SWAP2 DIV MUL PUSH1 0x20 ADD PUSH1 0x40 MLOAD SWAP1 DUP2 ADD PUSH1 0x40 MSTORE DUP1 SWAP3 SWAP2 SWAP1 DUP2 DUP2 MSTORE PUSH1 0x20 ADD DUP3 DUP1 SLOAD PUSH2 0x9AE SWAP1 PUSH2 0x2CBB JUMP JUMPDEST DUP1 ISZERO PUSH2 0x9FB JUMPI DUP1 PUSH1 0x1F LT PUSH2 0x9D0 JUMPI PUSH2 0x100 DUP1 DUP4 SLOAD DIV MUL DUP4 MSTORE SWAP2 PUSH1 0x20 ADD SWAP2 PUSH2 0x9FB JUMP JUMPDEST DUP3 ADD SWAP2 SWAP1 PUSH1 0x0 MSTORE PUSH1 0x20 PUSH1 0x0 KECCAK256 SWAP1 JUMPDEST DUP2 SLOAD DUP2 MSTORE SWAP1 PUSH1 0x1 ADD SWAP1 PUSH1 0x20 ADD DUP1 DUP4 GT PUSH2 0x9DE JUMPI DUP3 SWAP1 SUB PUSH1 0x1F AND DUP3 ADD SWAP2 JUMPDEST POP POP POP POP POP DUP2 MSTORE PUSH1 0x20 ADD PUSH1 0x1 DUP3 ADD PUSH1 0x0 SWAP1 SLOAD SWAP1 PUSH2 0x100 EXP SWAP1 DIV PUSH20 0xFFFFFFFFFFFFFFFFFFFFFFFFFFFFFFFFFFFFFFFF AND PUSH20 0xFFFFFFFFFFFFFFFFFFFFFFFFFFFFFFFFFFFFFFFF AND PUSH20 0xFFFFFFFFFFFFFFFFFFFFFFFFFFFFFFFFFFFFFFFF AND DUP2 MSTORE PUSH1 0x20 ADD PUSH1 0x2 DUP3 ADD DUP1 SLOAD PUSH2 0xA6A SWAP1 PUSH2 0x2CBB JUMP JUMPDEST DUP1 PUSH1 0x1F ADD PUSH1 0x20 DUP1 SWAP2 DIV MUL PUSH1 0x20 ADD PUSH1 0x40 MLOAD SWAP1 DUP2 ADD PUSH1 0x40 MSTORE DUP1 SWAP3 SWAP2 SWAP1 DUP2 DUP2 MSTORE PUSH1 0x20 ADD DUP3 DUP1 SLOAD PUSH2 0xA96 SWAP1 PUSH2 0x2CBB JUMP JUMPDEST DUP1 ISZERO PUSH2 0xAE3 JUMPI DUP1 PUSH1 0x1F LT PUSH2 0xAB8 JUMPI PUSH2 0x100 DUP1 DUP4 SLOAD DIV MUL DUP4 MSTORE SWAP2 PUSH1 0x20 ADD SWAP2 PUSH2 0xAE3 JUMP JUMPDEST DUP3 ADD SWAP2 SWAP1 PUSH1 0x0 MSTORE PUSH1 0x20 PUSH1 0x0 KECCAK256 SWAP1 JUMPDEST DUP2 SLOAD DUP2 MSTORE SWAP1 PUSH1 0x1 ADD SWAP1 PUSH1 0x20 ADD DUP1 DUP4 GT PUSH2 0xAC6 JUMPI DUP3 SWAP1 SUB PUSH1 0x1F AND DUP3 ADD SWAP2 JUMPDEST POP POP POP POP POP DUP2 MSTORE PUSH1 0x20 ADD PUSH1 0x3 DUP3 ADD DUP1 SLOAD PUSH2 0xAFC SWAP1 PUSH2 0x2CBB JUMP JUMPDEST DUP1 PUSH1 0x1F ADD PUSH1 0x20 DUP1 SWAP2 DIV MUL PUSH1 0x20 ADD PUSH1 0x40 MLOAD SWAP1 DUP2 ADD PUSH1 0x40 MSTORE DUP1 SWAP3 SWAP2 SWAP1 DUP2 DUP2 MSTORE PUSH1 0x20 ADD DUP3 DUP1 SLOAD PUSH2 0xB28 SWAP1 PUSH2 0x2CBB JUMP JUMPDEST DUP1 ISZERO PUSH2 0xB75 JUMPI DUP1 PUSH1 0x1F LT PUSH2 0xB4A JUMPI PUSH2 0x100 DUP1 DUP4 SLOAD DIV MUL DUP4 MSTORE SWAP2 PUSH1 0x20 ADD SWAP2 PUSH2 0xB75 JUMP JUMPDEST DUP3 ADD SWAP2 SWAP1 PUSH1 0x0 MSTORE PUSH1 0x20 PUSH1 0x0 KECCAK256 SWAP1 JUMPDEST DUP2 SLOAD DUP2 MSTORE SWAP1 PUSH1 0x1 ADD SWAP1 PUSH1 0x20 ADD DUP1 DUP4 GT PUSH2 0xB58 JUMPI DUP3 SWAP1 SUB PUSH1 0x1F AND DUP3 ADD SWAP2 JUMPDEST POP POP POP POP POP DUP2 MSTORE PUSH1 0x20 ADD PUSH1 0x4 DUP3 ADD PUSH1 0x0 SWAP1 SLOAD SWAP1 PUSH2 0x100 EXP SWAP1 DIV PUSH20 0xFFFFFFFFFFFFFFFFFFFFFFFFFFFFFFFFFFFFFFFF AND PUSH20 0xFFFFFFFFFFFFFFFFFFFFFFFFFFFFFFFFFFFFFFFF AND PUSH20 0xFFFFFFFFFFFFFFFFFFFFFFFFFFFFFFFFFFFFFFFF AND DUP2 MSTORE POP POP SWAP1 POP DUP1 PUSH1 0x0 ADD MLOAD DUP2 PUSH1 0x20 ADD MLOAD DUP3 PUSH1 0x40 ADD MLOAD DUP4 PUSH1 0x60 ADD MLOAD DUP5 PUSH1 0x80 ADD MLOAD SWAP6 POP SWAP6 POP SWAP6 POP SWAP6 POP SWAP6 POP POP SWAP2 SWAP4 SWAP6 SWAP1 SWAP3 SWAP5 POP JUMP JUMPDEST PUSH1 0x0 DUP1 SLOAD SWAP1 PUSH2 0x100 EXP SWAP1 DIV PUSH20 0xFFFFFFFFFFFFFFFFFFFFFFFFFFFFFFFFFFFFFFFF AND DUP2 JUMP JUMPDEST PUSH1 0x1 PUSH1 0x0 SWAP1 SLOAD SWAP1 PUSH2 0x100 EXP SWAP1 DIV PUSH20 0xFFFFFFFFFFFFFFFFFFFFFFFFFFFFFFFFFFFFFFFF AND PUSH20 0xFFFFFFFFFFFFFFFFFFFFFFFFFFFFFFFFFFFFFFFF AND PUSH4 0x82F7D392 CALLER PUSH1 0x40 MLOAD DUP3 PUSH4 0xFFFFFFFF AND PUSH1 0xE0 SHL DUP2 MSTORE PUSH1 0x4 ADD PUSH2 0xC82 SWAP2 SWAP1 PUSH2 0x2812 JUMP JUMPDEST PUSH1 0x20 PUSH1 0x40 MLOAD DUP1 DUP4 SUB DUP2 DUP7 GAS STATICCALL ISZERO DUP1 ISZERO PUSH2 0xC9F JUMPI RETURNDATASIZE PUSH1 0x0 DUP1 RETURNDATACOPY RETURNDATASIZE PUSH1 0x0 REVERT JUMPDEST POP POP POP POP PUSH1 0x40 MLOAD RETURNDATASIZE PUSH1 0x1F NOT PUSH1 0x1F DUP3 ADD AND DUP3 ADD DUP1 PUSH1 0x40 MSTORE POP DUP2 ADD SWAP1 PUSH2 0xCC3 SWAP2 SWAP1 PUSH2 0x2DB4 JUMP JUMPDEST PUSH2 0xD02 JUMPI PUSH1 0x40 MLOAD PUSH32 0x8C379A000000000000000000000000000000000000000000000000000000000 DUP2 MSTORE PUSH1 0x4 ADD PUSH2 0xCF9 SWAP1 PUSH2 0x2E2D JUMP JUMPDEST PUSH1 0x40 MLOAD DUP1 SWAP2 SUB SWAP1 REVERT JUMPDEST DUP4 PUSH20 0xFFFFFFFFFFFFFFFFFFFFFFFFFFFFFFFFFFFFFFFF AND CALLER PUSH20 0xFFFFFFFFFFFFFFFFFFFFFFFFFFFFFFFFFFFFFFFF AND EQ PUSH2 0xD3A JUMPI PUSH1 0x0 DUP1 REVERT JUMPDEST PUSH2 0xD42 PUSH2 0x22FE JUMP JUMPDEST DUP6 DUP2 PUSH1 0x0 ADD DUP2 SWAP1 MSTORE POP DUP5 DUP2 PUSH1 0x20 ADD SWAP1 PUSH20 0xFFFFFFFFFFFFFFFFFFFFFFFFFFFFFFFFFFFFFFFF AND SWAP1 DUP2 PUSH20 0xFFFFFFFFFFFFFFFFFFFFFFFFFFFFFFFFFFFFFFFF AND DUP2 MSTORE POP POP DUP4 DUP2 PUSH1 0x40 ADD DUP2 SWAP1 MSTORE POP DUP3 DUP2 PUSH1 0x60 ADD DUP2 SWAP1 MSTORE POP DUP2 DUP2 PUSH1 0x80 ADD SWAP1 PUSH20 0xFFFFFFFFFFFFFFFFFFFFFFFFFFFFFFFFFFFFFFFF AND SWAP1 DUP2 PUSH20 0xFFFFFFFFFFFFFFFFFFFFFFFFFFFFFFFFFFFFFFFF AND DUP2 MSTORE POP POP PUSH1 0x5 DUP2 SWAP1 DUP1 PUSH1 0x1 DUP2 SLOAD ADD DUP1 DUP3 SSTORE DUP1 SWAP2 POP POP PUSH1 0x1 SWAP1 SUB SWAP1 PUSH1 0x0 MSTORE PUSH1 0x20 PUSH1 0x0 KECCAK256 SWAP1 PUSH1 0x5 MUL ADD PUSH1 0x0 SWAP1 SWAP2 SWAP1 SWAP2 SWAP1 SWAP2 POP PUSH1 0x0 DUP3 ADD MLOAD DUP2 PUSH1 0x0 ADD SWAP1 DUP1 MLOAD SWAP1 PUSH1 0x20 ADD SWAP1 PUSH2 0xE15 SWAP3 SWAP2 SWAP1 PUSH2 0x2359 JUMP JUMPDEST POP PUSH1 0x20 DUP3 ADD MLOAD DUP2 PUSH1 0x1 ADD PUSH1 0x0 PUSH2 0x100 EXP DUP2 SLOAD DUP2 PUSH20 0xFFFFFFFFFFFFFFFFFFFFFFFFFFFFFFFFFFFFFFFF MUL NOT AND SWAP1 DUP4 PUSH20 0xFFFFFFFFFFFFFFFFFFFFFFFFFFFFFFFFFFFFFFFF AND MUL OR SWAP1 SSTORE POP PUSH1 0x40 DUP3 ADD MLOAD DUP2 PUSH1 0x2 ADD SWAP1 DUP1 MLOAD SWAP1 PUSH1 0x20 ADD SWAP1 PUSH2 0xE79 SWAP3 SWAP2 SWAP1 PUSH2 0x2359 JUMP JUMPDEST POP PUSH1 0x60 DUP3 ADD MLOAD DUP2 PUSH1 0x3 ADD SWAP1 DUP1 MLOAD SWAP1 PUSH1 0x20 ADD SWAP1 PUSH2 0xE96 SWAP3 SWAP2 SWAP1 PUSH2 0x2359 JUMP JUMPDEST POP PUSH1 0x80 DUP3 ADD MLOAD DUP2 PUSH1 0x4 ADD PUSH1 0x0 PUSH2 0x100 EXP DUP2 SLOAD DUP2 PUSH20 0xFFFFFFFFFFFFFFFFFFFFFFFFFFFFFFFFFFFFFFFF MUL NOT AND SWAP1 DUP4 PUSH20 0xFFFFFFFFFFFFFFFFFFFFFFFFFFFFFFFFFFFFFFFF AND MUL OR SWAP1 SSTORE POP POP POP POP POP POP POP POP POP JUMP JUMPDEST PUSH1 0x0 DUP1 PUSH20 0xFFFFFFFFFFFFFFFFFFFFFFFFFFFFFFFFFFFFFFFF AND PUSH1 0x7 PUSH1 0x0 DUP5 PUSH20 0xFFFFFFFFFFFFFFFFFFFFFFFFFFFFFFFFFFFFFFFF AND PUSH20 0xFFFFFFFFFFFFFFFFFFFFFFFFFFFFFFFFFFFFFFFF AND DUP2 MSTORE PUSH1 0x20 ADD SWAP1 DUP2 MSTORE PUSH1 0x20 ADD PUSH1 0x0 KECCAK256 PUSH1 0x0 SWAP1 SLOAD SWAP1 PUSH2 0x100 EXP SWAP1 DIV PUSH20 0xFFFFFFFFFFFFFFFFFFFFFFFFFFFFFFFFFFFFFFFF AND PUSH20 0xFFFFFFFFFFFFFFFFFFFFFFFFFFFFFFFFFFFFFFFF AND EQ ISZERO SWAP1 POP SWAP2 SWAP1 POP JUMP JUMPDEST PUSH1 0x0 PUSH20 0xFFFFFFFFFFFFFFFFFFFFFFFFFFFFFFFFFFFFFFFF AND PUSH1 0x2 PUSH1 0x0 SWAP1 SLOAD SWAP1 PUSH2 0x100 EXP SWAP1 DIV PUSH20 0xFFFFFFFFFFFFFFFFFFFFFFFFFFFFFFFFFFFFFFFF AND PUSH20 0xFFFFFFFFFFFFFFFFFFFFFFFFFFFFFFFFFFFFFFFF AND PUSH4 0x839F602D CALLER PUSH1 0x40 MLOAD DUP3 PUSH4 0xFFFFFFFF AND PUSH1 0xE0 SHL DUP2 MSTORE PUSH1 0x4 ADD PUSH2 0xFF3 SWAP2 SWAP1 PUSH2 0x2812 JUMP JUMPDEST PUSH1 0x20 PUSH1 0x40 MLOAD DUP1 DUP4 SUB DUP2 DUP7 GAS STATICCALL ISZERO DUP1 ISZERO PUSH2 0x1010 JUMPI RETURNDATASIZE PUSH1 0x0 DUP1 RETURNDATACOPY RETURNDATASIZE PUSH1 0x0 REVERT JUMPDEST POP POP POP POP PUSH1 0x40 MLOAD RETURNDATASIZE PUSH1 0x1F NOT PUSH1 0x1F DUP3 ADD AND DUP3 ADD DUP1 PUSH1 0x40 MSTORE POP DUP2 ADD SWAP1 PUSH2 0x1034 SWAP2 SWAP1 PUSH2 0x2C5F JUMP JUMPDEST PUSH20 0xFFFFFFFFFFFFFFFFFFFFFFFFFFFFFFFFFFFFFFFF AND EQ ISZERO PUSH2 0x108B JUMPI PUSH1 0x40 MLOAD PUSH32 0x8C379A000000000000000000000000000000000000000000000000000000000 DUP2 MSTORE PUSH1 0x4 ADD PUSH2 0x1082 SWAP1 PUSH2 0x2E99 JUMP JUMPDEST PUSH1 0x40 MLOAD DUP1 SWAP2 SUB SWAP1 REVERT JUMPDEST PUSH1 0x0 PUSH1 0x1 PUSH1 0x0 SWAP1 SLOAD SWAP1 PUSH2 0x100 EXP SWAP1 DIV PUSH20 0xFFFFFFFFFFFFFFFFFFFFFFFFFFFFFFFFFFFFFFFF AND PUSH20 0xFFFFFFFFFFFFFFFFFFFFFFFFFFFFFFFFFFFFFFFF AND PUSH4 0x8A97503D DUP7 DUP6 PUSH1 0x40 MLOAD DUP4 PUSH4 0xFFFFFFFF AND PUSH1 0xE0 SHL DUP2 MSTORE PUSH1 0x4 ADD PUSH2 0x10EA SWAP3 SWAP2 SWAP1 PUSH2 0x2A82 JUMP JUMPDEST PUSH1 0x20 PUSH1 0x40 MLOAD DUP1 DUP4 SUB DUP2 DUP7 GAS STATICCALL ISZERO DUP1 ISZERO PUSH2 0x1107 JUMPI RETURNDATASIZE PUSH1 0x0 DUP1 RETURNDATACOPY RETURNDATASIZE PUSH1 0x0 REVERT JUMPDEST POP POP POP POP PUSH1 0x40 MLOAD RETURNDATASIZE PUSH1 0x1F NOT PUSH1 0x1F DUP3 ADD AND DUP3 ADD DUP1 PUSH1 0x40 MSTORE POP DUP2 ADD SWAP1 PUSH2 0x112B SWAP2 SWAP1 PUSH2 0x2ADE JUMP JUMPDEST SWAP1 POP PUSH1 0x0 PUSH1 0x1 PUSH1 0x0 SWAP1 SLOAD SWAP1 PUSH2 0x100 EXP SWAP1 DIV PUSH20 0xFFFFFFFFFFFFFFFFFFFFFFFFFFFFFFFFFFFFFFFF AND PUSH20 0xFFFFFFFFFFFFFFFFFFFFFFFFFFFFFFFFFFFFFFFF AND PUSH4 0x435DF20D DUP4 PUSH1 0x40 MLOAD DUP3 PUSH4 0xFFFFFFFF AND PUSH1 0xE0 SHL DUP2 MSTORE PUSH1 0x4 ADD PUSH2 0x118A SWAP2 SWAP1 PUSH2 0x2942 JUMP JUMPDEST PUSH1 0x0 PUSH1 0x40 MLOAD DUP1 DUP4 SUB DUP2 DUP7 GAS STATICCALL ISZERO DUP1 ISZERO PUSH2 0x11A7 JUMPI RETURNDATASIZE PUSH1 0x0 DUP1 RETURNDATACOPY RETURNDATASIZE PUSH1 0x0 REVERT JUMPDEST POP POP POP POP PUSH1 0x40 MLOAD RETURNDATASIZE PUSH1 0x0 DUP3 RETURNDATACOPY RETURNDATASIZE PUSH1 0x1F NOT PUSH1 0x1F DUP3 ADD AND DUP3 ADD DUP1 PUSH1 0x40 MSTORE POP DUP2 ADD SWAP1 PUSH2 0x11D0 SWAP2 SWAP1 PUSH2 0x2B90 JUMP JUMPDEST SWAP5 POP POP POP POP POP DUP1 PUSH20 0xFFFFFFFFFFFFFFFFFFFFFFFFFFFFFFFFFFFFFFFF AND CALLER PUSH20 0xFFFFFFFFFFFFFFFFFFFFFFFFFFFFFFFFFFFFFFFF AND EQ PUSH2 0x120E JUMPI PUSH1 0x0 DUP1 REVERT JUMPDEST PUSH2 0x1216 PUSH2 0x22FE JUMP JUMPDEST DUP8 DUP2 PUSH1 0x0 ADD DUP2 SWAP1 MSTORE POP DUP7 DUP2 PUSH1 0x20 ADD SWAP1 PUSH20 0xFFFFFFFFFFFFFFFFFFFFFFFFFFFFFFFFFFFFFFFF AND SWAP1 DUP2 PUSH20 0xFFFFFFFFFFFFFFFFFFFFFFFFFFFFFFFFFFFFFFFF AND DUP2 MSTORE POP POP DUP6 DUP2 PUSH1 0x40 ADD DUP2 SWAP1 MSTORE POP DUP5 DUP2 PUSH1 0x60 ADD DUP2 SWAP1 MSTORE POP DUP4 DUP2 PUSH1 0x80 ADD SWAP1 PUSH20 0xFFFFFFFFFFFFFFFFFFFFFFFFFFFFFFFFFFFFFFFF AND SWAP1 DUP2 PUSH20 0xFFFFFFFFFFFFFFFFFFFFFFFFFFFFFFFFFFFFFFFF AND DUP2 MSTORE POP POP PUSH1 0x6 DUP2 SWAP1 DUP1 PUSH1 0x1 DUP2 SLOAD ADD DUP1 DUP3 SSTORE DUP1 SWAP2 POP POP PUSH1 0x1 SWAP1 SUB SWAP1 PUSH1 0x0 MSTORE PUSH1 0x20 PUSH1 0x0 KECCAK256 SWAP1 PUSH1 0x5 MUL ADD PUSH1 0x0 SWAP1 SWAP2 SWAP1 SWAP2 SWAP1 SWAP2 POP PUSH1 0x0 DUP3 ADD MLOAD DUP2 PUSH1 0x0 ADD SWAP1 DUP1 MLOAD SWAP1 PUSH1 0x20 ADD SWAP1 PUSH2 0x12E9 SWAP3 SWAP2 SWAP1 PUSH2 0x2359 JUMP JUMPDEST POP PUSH1 0x20 DUP3 ADD MLOAD DUP2 PUSH1 0x1 ADD PUSH1 0x0 PUSH2 0x100 EXP DUP2 SLOAD DUP2 PUSH20 0xFFFFFFFFFFFFFFFFFFFFFFFFFFFFFFFFFFFFFFFF MUL NOT AND SWAP1 DUP4 PUSH20 0xFFFFFFFFFFFFFFFFFFFFFFFFFFFFFFFFFFFFFFFF AND MUL OR SWAP1 SSTORE POP PUSH1 0x40 DUP3 ADD MLOAD DUP2 PUSH1 0x2 ADD SWAP1 DUP1 MLOAD SWAP1 PUSH1 0x20 ADD SWAP1 PUSH2 0x134D SWAP3 SWAP2 SWAP1 PUSH2 0x2359 JUMP JUMPDEST POP PUSH1 0x60 DUP3 ADD MLOAD DUP2 PUSH1 0x3 ADD SWAP1 DUP1 MLOAD SWAP1 PUSH1 0x20 ADD SWAP1 PUSH2 0x136A SWAP3 SWAP2 SWAP1 PUSH2 0x2359 JUMP JUMPDEST POP PUSH1 0x80 DUP3 ADD MLOAD DUP2 PUSH1 0x4 ADD PUSH1 0x0 PUSH2 0x100 EXP DUP2 SLOAD DUP2 PUSH20 0xFFFFFFFFFFFFFFFFFFFFFFFFFFFFFFFFFFFFFFFF MUL NOT AND SWAP1 DUP4 PUSH20 0xFFFFFFFFFFFFFFFFFFFFFFFFFFFFFFFFFFFFFFFF AND MUL OR SWAP1 SSTORE POP POP POP POP POP POP POP POP POP POP POP JUMP JUMPDEST PUSH1 0x0 DUP3 DUP3 PUSH1 0x40 MLOAD PUSH1 0x20 ADD PUSH2 0x13D3 SWAP3 SWAP2 SWAP1 PUSH2 0x2F3D JUMP JUMPDEST PUSH1 0x40 MLOAD PUSH1 0x20 DUP2 DUP4 SUB SUB DUP2 MSTORE SWAP1 PUSH1 0x40 MSTORE DUP1 MLOAD SWAP1 PUSH1 0x20 ADD KECCAK256 SWAP1 POP SWAP3 SWAP2 POP POP JUMP JUMPDEST PUSH1 0x4 SLOAD DUP2 JUMP JUMPDEST PUSH1 0x0 PUSH1 0x6 DUP1 SLOAD SWAP1 POP SWAP1 POP SWAP1 JUMP JUMPDEST PUSH1 0x60 PUSH1 0x0 PUSH1 0x60 DUP1 PUSH1 0x0 PUSH1 0x5 DUP1 SLOAD SWAP1 POP DUP7 LT PUSH2 0x1454 JUMPI PUSH1 0x40 MLOAD PUSH32 0x8C379A000000000000000000000000000000000000000000000000000000000 DUP2 MSTORE PUSH1 0x4 ADD PUSH2 0x144B SWAP1 PUSH2 0x2D39 JUMP JUMPDEST PUSH1 0x40 MLOAD DUP1 SWAP2 SUB SWAP1 REVERT JUMPDEST PUSH1 0x0 PUSH1 0x6 DUP8 DUP2 SLOAD DUP2 LT PUSH2 0x146A JUMPI PUSH2 0x1469 PUSH2 0x2D59 JUMP JUMPDEST JUMPDEST SWAP1 PUSH1 0x0 MSTORE PUSH1 0x20 PUSH1 0x0 KECCAK256 SWAP1 PUSH1 0x5 MUL ADD PUSH1 0x40 MLOAD DUP1 PUSH1 0xA0 ADD PUSH1 0x40 MSTORE SWAP1 DUP2 PUSH1 0x0 DUP3 ADD DUP1 SLOAD PUSH2 0x1493 SWAP1 PUSH2 0x2CBB JUMP JUMPDEST DUP1 PUSH1 0x1F ADD PUSH1 0x20 DUP1 SWAP2 DIV MUL PUSH1 0x20 ADD PUSH1 0x40 MLOAD SWAP1 DUP2 ADD PUSH1 0x40 MSTORE DUP1 SWAP3 SWAP2 SWAP1 DUP2 DUP2 MSTORE PUSH1 0x20 ADD DUP3 DUP1 SLOAD PUSH2 0x14BF SWAP1 PUSH2 0x2CBB JUMP JUMPDEST DUP1 ISZERO PUSH2 0x150C JUMPI DUP1 PUSH1 0x1F LT PUSH2 0x14E1 JUMPI PUSH2 0x100 DUP1 DUP4 SLOAD DIV MUL DUP4 MSTORE SWAP2 PUSH1 0x20 ADD SWAP2 PUSH2 0x150C JUMP JUMPDEST DUP3 ADD SWAP2 SWAP1 PUSH1 0x0 MSTORE PUSH1 0x20 PUSH1 0x0 KECCAK256 SWAP1 JUMPDEST DUP2 SLOAD DUP2 MSTORE SWAP1 PUSH1 0x1 ADD SWAP1 PUSH1 0x20 ADD DUP1 DUP4 GT PUSH2 0x14EF JUMPI DUP3 SWAP1 SUB PUSH1 0x1F AND DUP3 ADD SWAP2 JUMPDEST POP POP POP POP POP DUP2 MSTORE PUSH1 0x20 ADD PUSH1 0x1 DUP3 ADD PUSH1 0x0 SWAP1 SLOAD SWAP1 PUSH2 0x100 EXP SWAP1 DIV PUSH20 0xFFFFFFFFFFFFFFFFFFFFFFFFFFFFFFFFFFFFFFFF AND PUSH20 0xFFFFFFFFFFFFFFFFFFFFFFFFFFFFFFFFFFFFFFFF AND PUSH20 0xFFFFFFFFFFFFFFFFFFFFFFFFFFFFFFFFFFFFFFFF AND DUP2 MSTORE PUSH1 0x20 ADD PUSH1 0x2 DUP3 ADD DUP1 SLOAD PUSH2 0x157B SWAP1 PUSH2 0x2CBB JUMP JUMPDEST DUP1 PUSH1 0x1F ADD PUSH1 0x20 DUP1 SWAP2 DIV MUL PUSH1 0x20 ADD PUSH1 0x40 MLOAD SWAP1 DUP2 ADD PUSH1 0x40 MSTORE DUP1 SWAP3 SWAP2 SWAP1 DUP2 DUP2 MSTORE PUSH1 0x20 ADD DUP3 DUP1 SLOAD PUSH2 0x15A7 SWAP1 PUSH2 0x2CBB JUMP JUMPDEST DUP1 ISZERO PUSH2 0x15F4 JUMPI DUP1 PUSH1 0x1F LT PUSH2 0x15C9 JUMPI PUSH2 0x100 DUP1 DUP4 SLOAD DIV MUL DUP4 MSTORE SWAP2 PUSH1 0x20 ADD SWAP2 PUSH2 0x15F4 JUMP JUMPDEST DUP3 ADD SWAP2 SWAP1 PUSH1 0x0 MSTORE PUSH1 0x20 PUSH1 0x0 KECCAK256 SWAP1 JUMPDEST DUP2 SLOAD DUP2 MSTORE SWAP1 PUSH1 0x1 ADD SWAP1 PUSH1 0x20 ADD DUP1 DUP4 GT PUSH2 0x15D7 JUMPI DUP3 SWAP1 SUB PUSH1 0x1F AND DUP3 ADD SWAP2 JUMPDEST POP POP POP POP POP DUP2 MSTORE PUSH1 0x20 ADD PUSH1 0x3 DUP3 ADD DUP1 SLOAD PUSH2 0x160D SWAP1 PUSH2 0x2CBB JUMP JUMPDEST DUP1 PUSH1 0x1F ADD PUSH1 0x20 DUP1 SWAP2 DIV MUL PUSH1 0x20 ADD PUSH1 0x40 MLOAD SWAP1 DUP2 ADD PUSH1 0x40 MSTORE DUP1 SWAP3 SWAP2 SWAP1 DUP2 DUP2 MSTORE PUSH1 0x20 ADD DUP3 DUP1 SLOAD PUSH2 0x1639 SWAP1 PUSH2 0x2CBB JUMP JUMPDEST DUP1 ISZERO PUSH2 0x1686 JUMPI DUP1 PUSH1 0x1F LT PUSH2 0x165B JUMPI PUSH2 0x100 DUP1 DUP4 SLOAD DIV MUL DUP4 MSTORE SWAP2 PUSH1 0x20 ADD SWAP2 PUSH2 0x1686 JUMP JUMPDEST DUP3 ADD SWAP2 SWAP1 PUSH1 0x0 MSTORE PUSH1 0x20 PUSH1 0x0 KECCAK256 SWAP1 JUMPDEST DUP2 SLOAD DUP2 MSTORE SWAP1 PUSH1 0x1 ADD SWAP1 PUSH1 0x20 ADD DUP1 DUP4 GT PUSH2 0x1669 JUMPI DUP3 SWAP1 SUB PUSH1 0x1F AND DUP3 ADD SWAP2 JUMPDEST POP POP POP POP POP DUP2 MSTORE PUSH1 0x20 ADD PUSH1 0x4 DUP3 ADD PUSH1 0x0 SWAP1 SLOAD SWAP1 PUSH2 0x100 EXP SWAP1 DIV PUSH20 0xFFFFFFFFFFFFFFFFFFFFFFFFFFFFFFFFFFFFFFFF AND PUSH20 0xFFFFFFFFFFFFFFFFFFFFFFFFFFFFFFFFFFFFFFFF AND PUSH20 0xFFFFFFFFFFFFFFFFFFFFFFFFFFFFFFFFFFFFFFFF AND DUP2 MSTORE POP POP SWAP1 POP DUP1 PUSH1 0x0 ADD MLOAD DUP2 PUSH1 0x20 ADD MLOAD DUP3 PUSH1 0x40 ADD MLOAD DUP4 PUSH1 0x60 ADD MLOAD DUP5 PUSH1 0x80 ADD MLOAD SWAP6 POP SWAP6 POP SWAP6 POP SWAP6 POP SWAP6 POP POP SWAP2 SWAP4 SWAP6 SWAP1 SWAP3 SWAP5 POP JUMP JUMPDEST PUSH1 0x0 PUSH1 0x5 DUP1 SLOAD SWAP1 POP SWAP1 POP SWAP1 JUMP JUMPDEST PUSH1 0x3 PUSH1 0x0 SWAP1 SLOAD SWAP1 PUSH2 0x100 EXP SWAP1 DIV PUSH20 0xFFFFFFFFFFFFFFFFFFFFFFFFFFFFFFFFFFFFFFFF AND DUP2 JUMP JUMPDEST PUSH1 0x2 PUSH1 0x0 SWAP1 SLOAD SWAP1 PUSH2 0x100 EXP SWAP1 DIV PUSH20 0xFFFFFFFFFFFFFFFFFFFFFFFFFFFFFFFFFFFFFFFF AND DUP2 JUMP JUMPDEST PUSH1 0x5 DUP2 DUP2 SLOAD DUP2 LT PUSH2 0x177D JUMPI PUSH1 0x0 DUP1 REVERT JUMPDEST SWAP1 PUSH1 0x0 MSTORE PUSH1 0x20 PUSH1 0x0 KECCAK256 SWAP1 PUSH1 0x5 MUL ADD PUSH1 0x0 SWAP2 POP SWAP1 POP DUP1 PUSH1 0x0 ADD DUP1 SLOAD PUSH2 0x17A0 SWAP1 PUSH2 0x2CBB JUMP JUMPDEST DUP1 PUSH1 0x1F ADD PUSH1 0x20 DUP1 SWAP2 DIV MUL PUSH1 0x20 ADD PUSH1 0x40 MLOAD SWAP1 DUP2 ADD PUSH1 0x40 MSTORE DUP1 SWAP3 SWAP2 SWAP1 DUP2 DUP2 MSTORE PUSH1 0x20 ADD DUP3 DUP1 SLOAD PUSH2 0x17CC SWAP1 PUSH2 0x2CBB JUMP JUMPDEST DUP1 ISZERO PUSH2 0x1819 JUMPI DUP1 PUSH1 0x1F LT PUSH2 0x17EE JUMPI PUSH2 0x100 DUP1 DUP4 SLOAD DIV MUL DUP4 MSTORE SWAP2 PUSH1 0x20 ADD SWAP2 PUSH2 0x1819 JUMP JUMPDEST DUP3 ADD SWAP2 SWAP1 PUSH1 0x0 MSTORE PUSH1 0x20 PUSH1 0x0 KECCAK256 SWAP1 JUMPDEST DUP2 SLOAD DUP2 MSTORE SWAP1 PUSH1 0x1 ADD SWAP1 PUSH1 0x20 ADD DUP1 DUP4 GT PUSH2 0x17FC JUMPI DUP3 SWAP1 SUB PUSH1 0x1F AND DUP3 ADD SWAP2 JUMPDEST POP POP POP POP POP SWAP1 DUP1 PUSH1 0x1 ADD PUSH1 0x0 SWAP1 SLOAD SWAP1 PUSH2 0x100 EXP SWAP1 DIV PUSH20 0xFFFFFFFFFFFFFFFFFFFFFFFFFFFFFFFFFFFFFFFF AND SWAP1 DUP1 PUSH1 0x2 ADD DUP1 SLOAD PUSH2 0x1854 SWAP1 PUSH2 0x2CBB JUMP JUMPDEST DUP1 PUSH1 0x1F ADD PUSH1 0x20 DUP1 SWAP2 DIV MUL PUSH1 0x20 ADD PUSH1 0x40 MLOAD SWAP1 DUP2 ADD PUSH1 0x40 MSTORE DUP1 SWAP3 SWAP2 SWAP1 DUP2 DUP2 MSTORE PUSH1 0x20 ADD DUP3 DUP1 SLOAD PUSH2 0x1880 SWAP1 PUSH2 0x2CBB JUMP JUMPDEST DUP1 ISZERO PUSH2 0x18CD JUMPI DUP1 PUSH1 0x1F LT PUSH2 0x18A2 JUMPI PUSH2 0x100 DUP1 DUP4 SLOAD DIV MUL DUP4 MSTORE SWAP2 PUSH1 0x20 ADD SWAP2 PUSH2 0x18CD JUMP JUMPDEST DUP3 ADD SWAP2 SWAP1 PUSH1 0x0 MSTORE PUSH1 0x20 PUSH1 0x0 KECCAK256 SWAP1 JUMPDEST DUP2 SLOAD DUP2 MSTORE SWAP1 PUSH1 0x1 ADD SWAP1 PUSH1 0x20 ADD DUP1 DUP4 GT PUSH2 0x18B0 JUMPI DUP3 SWAP1 SUB PUSH1 0x1F AND DUP3 ADD SWAP2 JUMPDEST POP POP POP POP POP SWAP1 DUP1 PUSH1 0x3 ADD DUP1 SLOAD PUSH2 0x18E2 SWAP1 PUSH2 0x2CBB JUMP JUMPDEST DUP1 PUSH1 0x1F ADD PUSH1 0x20 DUP1 SWAP2 DIV MUL PUSH1 0x20 ADD PUSH1 0x40 MLOAD SWAP1 DUP2 ADD PUSH1 0x40 MSTORE DUP1 SWAP3 SWAP2 SWAP1 DUP2 DUP2 MSTORE PUSH1 0x20 ADD DUP3 DUP1 SLOAD PUSH2 0x190E SWAP1 PUSH2 0x2CBB JUMP JUMPDEST DUP1 ISZERO PUSH2 0x195B JUMPI DUP1 PUSH1 0x1F LT PUSH2 0x1930 JUMPI PUSH2 0x100 DUP1 DUP4 SLOAD DIV MUL DUP4 MSTORE SWAP2 PUSH1 0x20 ADD SWAP2 PUSH2 0x195B JUMP JUMPDEST DUP3 ADD SWAP2 SWAP1 PUSH1 0x0 MSTORE PUSH1 0x20 PUSH1 0x0 KECCAK256 SWAP1 JUMPDEST DUP2 SLOAD DUP2 MSTORE SWAP1 PUSH1 0x1 ADD SWAP1 PUSH1 0x20 ADD DUP1 DUP4 GT PUSH2 0x193E JUMPI DUP3 SWAP1 SUB PUSH1 0x1F AND DUP3 ADD SWAP2 JUMPDEST POP POP POP POP POP SWAP1 DUP1 PUSH1 0x4 ADD PUSH1 0x0 SWAP1 SLOAD SWAP1 PUSH2 0x100 EXP SWAP1 DIV PUSH20 0xFFFFFFFFFFFFFFFFFFFFFFFFFFFFFFFFFFFFFFFF AND SWAP1 POP DUP6 JUMP JUMPDEST PUSH1 0x1 PUSH1 0x0 SWAP1 SLOAD SWAP1 PUSH2 0x100 EXP SWAP1 DIV PUSH20 0xFFFFFFFFFFFFFFFFFFFFFFFFFFFFFFFFFFFFFFFF AND DUP2 JUMP JUMPDEST PUSH1 0x0 PUSH1 0x7 PUSH1 0x0 DUP4 PUSH20 0xFFFFFFFFFFFFFFFFFFFFFFFFFFFFFFFFFFFFFFFF AND PUSH20 0xFFFFFFFFFFFFFFFFFFFFFFFFFFFFFFFFFFFFFFFF AND DUP2 MSTORE PUSH1 0x20 ADD SWAP1 DUP2 MSTORE PUSH1 0x20 ADD PUSH1 0x0 KECCAK256 PUSH1 0x0 SWAP1 SLOAD SWAP1 PUSH2 0x100 EXP SWAP1 DIV PUSH20 0xFFFFFFFFFFFFFFFFFFFFFFFFFFFFFFFFFFFFFFFF AND SWAP1 POP SWAP2 SWAP1 POP JUMP JUMPDEST PUSH1 0x0 DUP1 PUSH1 0x0 DUP1 PUSH1 0x0 PUSH2 0x1A2B DUP7 PUSH2 0x1404 JUMP JUMPDEST SWAP5 POP SWAP5 POP SWAP5 POP SWAP5 POP SWAP5 POP DUP1 PUSH20 0xFFFFFFFFFFFFFFFFFFFFFFFFFFFFFFFFFFFFFFFF AND CALLER PUSH20 0xFFFFFFFFFFFFFFFFFFFFFFFFFFFFFFFFFFFFFFFF AND EQ PUSH2 0x1AA3 JUMPI PUSH1 0x40 MLOAD PUSH32 0x8C379A000000000000000000000000000000000000000000000000000000000 DUP2 MSTORE PUSH1 0x4 ADD PUSH2 0x1A9A SWAP1 PUSH2 0x2FB1 JUMP JUMPDEST PUSH1 0x40 MLOAD DUP1 SWAP2 SUB SWAP1 REVERT JUMPDEST PUSH1 0x0 PUSH1 0x1 PUSH1 0x0 SWAP1 SLOAD SWAP1 PUSH2 0x100 EXP SWAP1 DIV PUSH20 0xFFFFFFFFFFFFFFFFFFFFFFFFFFFFFFFFFFFFFFFF AND PUSH20 0xFFFFFFFFFFFFFFFFFFFFFFFFFFFFFFFFFFFFFFFF AND PUSH4 0x8A97503D DUP7 DUP6 PUSH1 0x40 MLOAD DUP4 PUSH4 0xFFFFFFFF AND PUSH1 0xE0 SHL DUP2 MSTORE PUSH1 0x4 ADD PUSH2 0x1B02 SWAP3 SWAP2 SWAP1 PUSH2 0x2A82 JUMP JUMPDEST PUSH1 0x20 PUSH1 0x40 MLOAD DUP1 DUP4 SUB DUP2 DUP7 GAS STATICCALL ISZERO DUP1 ISZERO PUSH2 0x1B1F JUMPI RETURNDATASIZE PUSH1 0x0 DUP1 RETURNDATACOPY RETURNDATASIZE PUSH1 0x0 REVERT JUMPDEST POP POP POP POP PUSH1 0x40 MLOAD RETURNDATASIZE PUSH1 0x1F NOT PUSH1 0x1F DUP3 ADD AND DUP3 ADD DUP1 PUSH1 0x40 MSTORE POP DUP2 ADD SWAP1 PUSH2 0x1B43 SWAP2 SWAP1 PUSH2 0x2ADE JUMP JUMPDEST SWAP1 POP PUSH1 0x1 PUSH1 0x0 SWAP1 SLOAD SWAP1 PUSH2 0x100 EXP SWAP1 DIV PUSH20 0xFFFFFFFFFFFFFFFFFFFFFFFFFFFFFFFFFFFFFFFF AND PUSH20 0xFFFFFFFFFFFFFFFFFFFFFFFFFFFFFFFFFFFFFFFF AND PUSH4 0x4268DDBD DUP9 DUP4 CALLER PUSH1 0x40 MLOAD DUP5 PUSH4 0xFFFFFFFF AND PUSH1 0xE0 SHL DUP2 MSTORE PUSH1 0x4 ADD PUSH2 0x1BA4 SWAP4 SWAP3 SWAP2 SWAP1 PUSH2 0x2FD1 JUMP JUMPDEST PUSH1 0x20 PUSH1 0x40 MLOAD DUP1 DUP4 SUB DUP2 PUSH1 0x0 DUP8 GAS CALL ISZERO DUP1 ISZERO PUSH2 0x1BC3 JUMPI RETURNDATASIZE PUSH1 0x0 DUP1 RETURNDATACOPY RETURNDATASIZE PUSH1 0x0 REVERT JUMPDEST POP POP POP POP PUSH1 0x40 MLOAD RETURNDATASIZE PUSH1 0x1F NOT PUSH1 0x1F DUP3 ADD AND DUP3 ADD DUP1 PUSH1 0x40 MSTORE POP DUP2 ADD SWAP1 PUSH2 0x1BE7 SWAP2 SWAP1 PUSH2 0x2DB4 JUMP JUMPDEST PUSH2 0x1C26 JUMPI PUSH1 0x40 MLOAD PUSH32 0x8C379A000000000000000000000000000000000000000000000000000000000 DUP2 MSTORE PUSH1 0x4 ADD PUSH2 0x1C1D SWAP1 PUSH2 0x307A JUMP JUMPDEST PUSH1 0x40 MLOAD DUP1 SWAP2 SUB SWAP1 REVERT JUMPDEST PUSH1 0x6 DUP8 DUP2 SLOAD DUP2 LT PUSH2 0x1C3A JUMPI PUSH2 0x1C39 PUSH2 0x2D59 JUMP JUMPDEST JUMPDEST SWAP1 PUSH1 0x0 MSTORE PUSH1 0x20 PUSH1 0x0 KECCAK256 SWAP1 PUSH1 0x5 MUL ADD PUSH1 0x0 DUP1 DUP3 ADD PUSH1 0x0 PUSH2 0x1C59 SWAP2 SWAP1 PUSH2 0x23DF JUMP JUMPDEST PUSH1 0x1 DUP3 ADD PUSH1 0x0 PUSH2 0x100 EXP DUP2 SLOAD SWAP1 PUSH20 0xFFFFFFFFFFFFFFFFFFFFFFFFFFFFFFFFFFFFFFFF MUL NOT AND SWAP1 SSTORE PUSH1 0x2 DUP3 ADD PUSH1 0x0 PUSH2 0x1C90 SWAP2 SWAP1 PUSH2 0x23DF JUMP JUMPDEST PUSH1 0x3 DUP3 ADD PUSH1 0x0 PUSH2 0x1CA0 SWAP2 SWAP1 PUSH2 0x23DF JUMP JUMPDEST PUSH1 0x4 DUP3 ADD PUSH1 0x0 PUSH2 0x100 EXP DUP2 SLOAD SWAP1 PUSH20 0xFFFFFFFFFFFFFFFFFFFFFFFFFFFFFFFFFFFFFFFF MUL NOT AND SWAP1 SSTORE POP POP POP POP POP POP POP POP POP JUMP JUMPDEST PUSH1 0x0 PUSH20 0xFFFFFFFFFFFFFFFFFFFFFFFFFFFFFFFFFFFFFFFF AND PUSH1 0x2 PUSH1 0x0 SWAP1 SLOAD SWAP1 PUSH2 0x100 EXP SWAP1 DIV PUSH20 0xFFFFFFFFFFFFFFFFFFFFFFFFFFFFFFFFFFFFFFFF AND PUSH20 0xFFFFFFFFFFFFFFFFFFFFFFFFFFFFFFFFFFFFFFFF AND PUSH4 0x839F602D CALLER PUSH1 0x40 MLOAD DUP3 PUSH4 0xFFFFFFFF AND PUSH1 0xE0 SHL DUP2 MSTORE PUSH1 0x4 ADD PUSH2 0x1D45 SWAP2 SWAP1 PUSH2 0x2812 JUMP JUMPDEST PUSH1 0x20 PUSH1 0x40 MLOAD DUP1 DUP4 SUB DUP2 DUP7 GAS STATICCALL ISZERO DUP1 ISZERO PUSH2 0x1D62 JUMPI RETURNDATASIZE PUSH1 0x0 DUP1 RETURNDATACOPY RETURNDATASIZE PUSH1 0x0 REVERT JUMPDEST POP POP POP POP PUSH1 0x40 MLOAD RETURNDATASIZE PUSH1 0x1F NOT PUSH1 0x1F DUP3 ADD AND DUP3 ADD DUP1 PUSH1 0x40 MSTORE POP DUP2 ADD SWAP1 PUSH2 0x1D86 SWAP2 SWAP1 PUSH2 0x2C5F JUMP JUMPDEST PUSH20 0xFFFFFFFFFFFFFFFFFFFFFFFFFFFFFFFFFFFFFFFF AND EQ ISZERO PUSH2 0x1DDD JUMPI PUSH1 0x40 MLOAD PUSH32 0x8C379A000000000000000000000000000000000000000000000000000000000 DUP2 MSTORE PUSH1 0x4 ADD PUSH2 0x1DD4 SWAP1 PUSH2 0x2E99 JUMP JUMPDEST PUSH1 0x40 MLOAD DUP1 SWAP2 SUB SWAP1 REVERT JUMPDEST PUSH1 0x0 DUP1 PUSH1 0x0 DUP1 PUSH1 0x0 PUSH2 0x1DEE DUP7 PUSH2 0x8F3 JUMP JUMPDEST SWAP5 POP SWAP5 POP SWAP5 POP SWAP5 POP SWAP5 POP DUP1 PUSH20 0xFFFFFFFFFFFFFFFFFFFFFFFFFFFFFFFFFFFFFFFF AND CALLER PUSH20 0xFFFFFFFFFFFFFFFFFFFFFFFFFFFFFFFFFFFFFFFF AND EQ PUSH2 0x1E66 JUMPI PUSH1 0x40 MLOAD PUSH32 0x8C379A000000000000000000000000000000000000000000000000000000000 DUP2 MSTORE PUSH1 0x4 ADD PUSH2 0x1E5D SWAP1 PUSH2 0x2FB1 JUMP JUMPDEST PUSH1 0x40 MLOAD DUP1 SWAP2 SUB SWAP1 REVERT JUMPDEST PUSH1 0x0 PUSH1 0x1 PUSH1 0x0 SWAP1 SLOAD SWAP1 PUSH2 0x100 EXP SWAP1 DIV PUSH20 0xFFFFFFFFFFFFFFFFFFFFFFFFFFFFFFFFFFFFFFFF AND PUSH20 0xFFFFFFFFFFFFFFFFFFFFFFFFFFFFFFFFFFFFFFFF AND PUSH4 0x8A97503D DUP7 DUP6 PUSH1 0x40 MLOAD DUP4 PUSH4 0xFFFFFFFF AND PUSH1 0xE0 SHL DUP2 MSTORE PUSH1 0x4 ADD PUSH2 0x1EC5 SWAP3 SWAP2 SWAP1 PUSH2 0x2A82 JUMP JUMPDEST PUSH1 0x20 PUSH1 0x40 MLOAD DUP1 DUP4 SUB DUP2 DUP7 GAS STATICCALL ISZERO DUP1 ISZERO PUSH2 0x1EE2 JUMPI RETURNDATASIZE PUSH1 0x0 DUP1 RETURNDATACOPY RETURNDATASIZE PUSH1 0x0 REVERT JUMPDEST POP POP POP POP PUSH1 0x40 MLOAD RETURNDATASIZE PUSH1 0x1F NOT PUSH1 0x1F DUP3 ADD AND DUP3 ADD DUP1 PUSH1 0x40 MSTORE POP DUP2 ADD SWAP1 PUSH2 0x1F06 SWAP2 SWAP1 PUSH2 0x2ADE JUMP JUMPDEST SWAP1 POP PUSH1 0x1 PUSH1 0x0 SWAP1 SLOAD SWAP1 PUSH2 0x100 EXP SWAP1 DIV PUSH20 0xFFFFFFFFFFFFFFFFFFFFFFFFFFFFFFFFFFFFFFFF AND PUSH20 0xFFFFFFFFFFFFFFFFFFFFFFFFFFFFFFFFFFFFFFFF AND PUSH4 0x4268DDBD DUP9 DUP4 CALLER PUSH1 0x40 MLOAD DUP5 PUSH4 0xFFFFFFFF AND PUSH1 0xE0 SHL DUP2 MSTORE PUSH1 0x4 ADD PUSH2 0x1F67 SWAP4 SWAP3 SWAP2 SWAP1 PUSH2 0x2FD1 JUMP JUMPDEST PUSH1 0x20 PUSH1 0x40 MLOAD DUP1 DUP4 SUB DUP2 PUSH1 0x0 DUP8 GAS CALL ISZERO DUP1 ISZERO PUSH2 0x1F86 JUMPI RETURNDATASIZE PUSH1 0x0 DUP1 RETURNDATACOPY RETURNDATASIZE PUSH1 0x0 REVERT JUMPDEST POP POP POP POP PUSH1 0x40 MLOAD RETURNDATASIZE PUSH1 0x1F NOT PUSH1 0x1F DUP3 ADD AND DUP3 ADD DUP1 PUSH1 0x40 MSTORE POP DUP2 ADD SWAP1 PUSH2 0x1FAA SWAP2 SWAP1 PUSH2 0x2DB4 JUMP JUMPDEST PUSH2 0x1FE9 JUMPI PUSH1 0x40 MLOAD PUSH32 0x8C379A000000000000000000000000000000000000000000000000000000000 DUP2 MSTORE PUSH1 0x4 ADD PUSH2 0x1FE0 SWAP1 PUSH2 0x307A JUMP JUMPDEST PUSH1 0x40 MLOAD DUP1 SWAP2 SUB SWAP1 REVERT JUMPDEST PUSH1 0x5 DUP8 DUP2 SLOAD DUP2 LT PUSH2 0x1FFD JUMPI PUSH2 0x1FFC PUSH2 0x2D59 JUMP JUMPDEST JUMPDEST SWAP1 PUSH1 0x0 MSTORE PUSH1 0x20 PUSH1 0x0 KECCAK256 SWAP1 PUSH1 0x5 MUL ADD PUSH1 0x0 DUP1 DUP3 ADD PUSH1 0x0 PUSH2 0x201C SWAP2 SWAP1 PUSH2 0x23DF JUMP JUMPDEST PUSH1 0x1 DUP3 ADD PUSH1 0x0 PUSH2 0x100 EXP DUP2 SLOAD SWAP1 PUSH20 0xFFFFFFFFFFFFFFFFFFFFFFFFFFFFFFFFFFFFFFFF MUL NOT AND SWAP1 SSTORE PUSH1 0x2 DUP3 ADD PUSH1 0x0 PUSH2 0x2053 SWAP2 SWAP1 PUSH2 0x23DF JUMP JUMPDEST PUSH1 0x3 DUP3 ADD PUSH1 0x0 PUSH2 0x2063 SWAP2 SWAP1 PUSH2 0x23DF JUMP JUMPDEST PUSH1 0x4 DUP3 ADD PUSH1 0x0 PUSH2 0x100 EXP DUP2 SLOAD SWAP1 PUSH20 0xFFFFFFFFFFFFFFFFFFFFFFFFFFFFFFFFFFFFFFFF MUL NOT AND SWAP1 SSTORE POP POP POP POP POP POP POP POP POP JUMP JUMPDEST PUSH1 0x0 PUSH1 0x1 PUSH1 0x0 SWAP1 SLOAD SWAP1 PUSH2 0x100 EXP SWAP1 DIV PUSH20 0xFFFFFFFFFFFFFFFFFFFFFFFFFFFFFFFFFFFFFFFF AND PUSH20 0xFFFFFFFFFFFFFFFFFFFFFFFFFFFFFFFFFFFFFFFF AND PUSH4 0x8A97503D DUP5 DUP5 PUSH1 0x40 MLOAD DUP4 PUSH4 0xFFFFFFFF AND PUSH1 0xE0 SHL DUP2 MSTORE PUSH1 0x4 ADD PUSH2 0x20F4 SWAP3 SWAP2 SWAP1 PUSH2 0x2A82 JUMP JUMPDEST PUSH1 0x20 PUSH1 0x40 MLOAD DUP1 DUP4 SUB DUP2 DUP7 GAS STATICCALL ISZERO DUP1 ISZERO PUSH2 0x2111 JUMPI RETURNDATASIZE PUSH1 0x0 DUP1 RETURNDATACOPY RETURNDATASIZE PUSH1 0x0 REVERT JUMPDEST POP POP POP POP PUSH1 0x40 MLOAD RETURNDATASIZE PUSH1 0x1F NOT PUSH1 0x1F DUP3 ADD AND DUP3 ADD DUP1 PUSH1 0x40 MSTORE POP DUP2 ADD SWAP1 PUSH2 0x2135 SWAP2 SWAP1 PUSH2 0x2ADE JUMP JUMPDEST SWAP1 POP PUSH1 0x0 PUSH1 0x1 PUSH1 0x0 SWAP1 SLOAD SWAP1 PUSH2 0x100 EXP SWAP1 DIV PUSH20 0xFFFFFFFFFFFFFFFFFFFFFFFFFFFFFFFFFFFFFFFF AND PUSH20 0xFFFFFFFFFFFFFFFFFFFFFFFFFFFFFFFFFFFFFFFF AND PUSH4 0x435DF20D DUP4 PUSH1 0x40 MLOAD DUP3 PUSH4 0xFFFFFFFF AND PUSH1 0xE0 SHL DUP2 MSTORE PUSH1 0x4 ADD PUSH2 0x2194 SWAP2 SWAP1 PUSH2 0x2942 JUMP JUMPDEST PUSH1 0x0 PUSH1 0x40 MLOAD DUP1 DUP4 SUB DUP2 DUP7 GAS STATICCALL ISZERO DUP1 ISZERO PUSH2 0x21B1 JUMPI RETURNDATASIZE PUSH1 0x0 DUP1 RETURNDATACOPY RETURNDATASIZE PUSH1 0x0 REVERT JUMPDEST POP POP POP POP PUSH1 0x40 MLOAD RETURNDATASIZE PUSH1 0x0 DUP3 RETURNDATACOPY RETURNDATASIZE PUSH1 0x1F NOT PUSH1 0x1F DUP3 ADD AND DUP3 ADD DUP1 PUSH1 0x40 MSTORE POP DUP2 ADD SWAP1 PUSH2 0x21DA SWAP2 SWAP1 PUSH2 0x2B90 JUMP JUMPDEST SWAP5 POP POP POP POP POP DUP1 PUSH20 0xFFFFFFFFFFFFFFFFFFFFFFFFFFFFFFFFFFFFFFFF AND CALLER PUSH20 0xFFFFFFFFFFFFFFFFFFFFFFFFFFFFFFFFFFFFFFFF AND EQ PUSH2 0x2218 JUMPI PUSH1 0x0 DUP1 REVERT JUMPDEST PUSH1 0x1 PUSH1 0x0 SWAP1 SLOAD SWAP1 PUSH2 0x100 EXP SWAP1 DIV PUSH20 0xFFFFFFFFFFFFFFFFFFFFFFFFFFFFFFFFFFFFFFFF AND PUSH20 0xFFFFFFFFFFFFFFFFFFFFFFFFFFFFFFFFFFFFFFFF AND PUSH4 0x956A3545 DUP7 DUP5 PUSH1 0x40 MLOAD DUP4 PUSH4 0xFFFFFFFF AND PUSH1 0xE0 SHL DUP2 MSTORE PUSH1 0x4 ADD PUSH2 0x2275 SWAP3 SWAP2 SWAP1 PUSH2 0x309A JUMP JUMPDEST PUSH1 0x20 PUSH1 0x40 MLOAD DUP1 DUP4 SUB DUP2 PUSH1 0x0 DUP8 GAS CALL ISZERO DUP1 ISZERO PUSH2 0x2294 JUMPI RETURNDATASIZE PUSH1 0x0 DUP1 RETURNDATACOPY RETURNDATASIZE PUSH1 0x0 REVERT JUMPDEST POP POP POP POP PUSH1 0x40 MLOAD RETURNDATASIZE PUSH1 0x1F NOT PUSH1 0x1F DUP3 ADD AND DUP3 ADD DUP1 PUSH1 0x40 MSTORE POP DUP2 ADD SWAP1 PUSH2 0x22B8 SWAP2 SWAP1 PUSH2 0x2DB4 JUMP JUMPDEST PUSH2 0x22F7 JUMPI PUSH1 0x40 MLOAD PUSH32 0x8C379A000000000000000000000000000000000000000000000000000000000 DUP2 MSTORE PUSH1 0x4 ADD PUSH2 0x22EE SWAP1 PUSH2 0x3135 JUMP JUMPDEST PUSH1 0x40 MLOAD DUP1 SWAP2 SUB SWAP1 REVERT JUMPDEST POP POP POP POP POP JUMP JUMPDEST PUSH1 0x40 MLOAD DUP1 PUSH1 0xA0 ADD PUSH1 0x40 MSTORE DUP1 PUSH1 0x60 DUP2 MSTORE PUSH1 0x20 ADD PUSH1 0x0 PUSH20 0xFFFFFFFFFFFFFFFFFFFFFFFFFFFFFFFFFFFFFFFF AND DUP2 MSTORE PUSH1 0x20 ADD PUSH1 0x60 DUP2 MSTORE PUSH1 0x20 ADD PUSH1 0x60 DUP2 MSTORE PUSH1 0x20 ADD PUSH1 0x0 PUSH20 0xFFFFFFFFFFFFFFFFFFFFFFFFFFFFFFFFFFFFFFFF AND DUP2 MSTORE POP SWAP1 JUMP JUMPDEST DUP3 DUP1 SLOAD PUSH2 0x2365 SWAP1 PUSH2 0x2CBB JUMP JUMPDEST SWAP1 PUSH1 0x0 MSTORE PUSH1 0x20 PUSH1 0x0 KECCAK256 SWAP1 PUSH1 0x1F ADD PUSH1 0x20 SWAP1 DIV DUP2 ADD SWAP3 DUP3 PUSH2 0x2387 JUMPI PUSH1 0x0 DUP6 SSTORE PUSH2 0x23CE JUMP JUMPDEST DUP3 PUSH1 0x1F LT PUSH2 0x23A0 JUMPI DUP1 MLOAD PUSH1 0xFF NOT AND DUP4 DUP1 ADD OR DUP6 SSTORE PUSH2 0x23CE JUMP JUMPDEST DUP3 DUP1 ADD PUSH1 0x1 ADD DUP6 SSTORE DUP3 ISZERO PUSH2 0x23CE JUMPI SWAP2 DUP3 ADD JUMPDEST DUP3 DUP2 GT ISZERO PUSH2 0x23CD JUMPI DUP3 MLOAD DUP3 SSTORE SWAP2 PUSH1 0x20 ADD SWAP2 SWAP1 PUSH1 0x1 ADD SWAP1 PUSH2 0x23B2 JUMP JUMPDEST JUMPDEST POP SWAP1 POP PUSH2 0x23DB SWAP2 SWAP1 PUSH2 0x241F JUMP JUMPDEST POP SWAP1 JUMP JUMPDEST POP DUP1 SLOAD PUSH2 0x23EB SWAP1 PUSH2 0x2CBB JUMP JUMPDEST PUSH1 0x0 DUP3 SSTORE DUP1 PUSH1 0x1F LT PUSH2 0x23FD JUMPI POP PUSH2 0x241C JUMP JUMPDEST PUSH1 0x1F ADD PUSH1 0x20 SWAP1 DIV SWAP1 PUSH1 0x0 MSTORE PUSH1 0x20 PUSH1 0x0 KECCAK256 SWAP1 DUP2 ADD SWAP1 PUSH2 0x241B SWAP2 SWAP1 PUSH2 0x241F JUMP JUMPDEST JUMPDEST POP JUMP JUMPDEST JUMPDEST DUP1 DUP3 GT ISZERO PUSH2 0x2438 JUMPI PUSH1 0x0 DUP2 PUSH1 0x0 SWAP1 SSTORE POP PUSH1 0x1 ADD PUSH2 0x2420 JUMP JUMPDEST POP SWAP1 JUMP JUMPDEST PUSH1 0x0 DUP2 SWAP1 POP SWAP2 SWAP1 POP JUMP JUMPDEST PUSH2 0x244F DUP2 PUSH2 0x243C JUMP JUMPDEST DUP3 MSTORE POP POP JUMP JUMPDEST PUSH1 0x0 PUSH1 0x20 DUP3 ADD SWAP1 POP PUSH2 0x246A PUSH1 0x0 DUP4 ADD DUP5 PUSH2 0x2446 JUMP JUMPDEST SWAP3 SWAP2 POP POP JUMP JUMPDEST PUSH1 0x0 PUSH1 0x40 MLOAD SWAP1 POP SWAP1 JUMP JUMPDEST PUSH1 0x0 DUP1 REVERT JUMPDEST PUSH1 0x0 DUP1 REVERT JUMPDEST PUSH1 0x0 PUSH20 0xFFFFFFFFFFFFFFFFFFFFFFFFFFFFFFFFFFFFFFFF DUP3 AND SWAP1 POP SWAP2 SWAP1 POP JUMP JUMPDEST PUSH1 0x0 PUSH2 0x24AF DUP3 PUSH2 0x2484 JUMP JUMPDEST SWAP1 POP SWAP2 SWAP1 POP JUMP JUMPDEST PUSH2 0x24BF DUP2 PUSH2 0x24A4 JUMP JUMPDEST DUP2 EQ PUSH2 0x24CA JUMPI PUSH1 0x0 DUP1 REVERT JUMPDEST POP JUMP JUMPDEST PUSH1 0x0 DUP2 CALLDATALOAD SWAP1 POP PUSH2 0x24DC DUP2 PUSH2 0x24B6 JUMP JUMPDEST SWAP3 SWAP2 POP POP JUMP JUMPDEST PUSH1 0x0 DUP1 REVERT JUMPDEST PUSH1 0x0 DUP1 REVERT JUMPDEST PUSH1 0x0 PUSH1 0x1F NOT PUSH1 0x1F DUP4 ADD AND SWAP1 POP SWAP2 SWAP1 POP JUMP JUMPDEST PUSH32 0x4E487B7100000000000000000000000000000000000000000000000000000000 PUSH1 0x0 MSTORE PUSH1 0x41 PUSH1 0x4 MSTORE PUSH1 0x24 PUSH1 0x0 REVERT JUMPDEST PUSH2 0x2535 DUP3 PUSH2 0x24EC JUMP JUMPDEST DUP2 ADD DUP2 DUP2 LT PUSH8 0xFFFFFFFFFFFFFFFF DUP3 GT OR ISZERO PUSH2 0x2554 JUMPI PUSH2 0x2553 PUSH2 0x24FD JUMP JUMPDEST JUMPDEST DUP1 PUSH1 0x40 MSTORE POP POP POP JUMP JUMPDEST PUSH1 0x0 PUSH2 0x2567 PUSH2 0x2470 JUMP JUMPDEST SWAP1 POP PUSH2 0x2573 DUP3 DUP3 PUSH2 0x252C JUMP JUMPDEST SWAP2 SWAP1 POP JUMP JUMPDEST PUSH1 0x0 PUSH8 0xFFFFFFFFFFFFFFFF DUP3 GT ISZERO PUSH2 0x2593 JUMPI PUSH2 0x2592 PUSH2 0x24FD JUMP JUMPDEST JUMPDEST PUSH2 0x259C DUP3 PUSH2 0x24EC JUMP JUMPDEST SWAP1 POP PUSH1 0x20 DUP2 ADD SWAP1 POP SWAP2 SWAP1 POP JUMP JUMPDEST DUP3 DUP2 DUP4 CALLDATACOPY PUSH1 0x0 DUP4 DUP4 ADD MSTORE POP POP POP JUMP JUMPDEST PUSH1 0x0 PUSH2 0x25CB PUSH2 0x25C6 DUP5 PUSH2 0x2578 JUMP JUMPDEST PUSH2 0x255D JUMP JUMPDEST SWAP1 POP DUP3 DUP2 MSTORE PUSH1 0x20 DUP2 ADD DUP5 DUP5 DUP5 ADD GT ISZERO PUSH2 0x25E7 JUMPI PUSH2 0x25E6 PUSH2 0x24E7 JUMP JUMPDEST JUMPDEST PUSH2 0x25F2 DUP5 DUP3 DUP6 PUSH2 0x25A9 JUMP JUMPDEST POP SWAP4 SWAP3 POP POP POP JUMP JUMPDEST PUSH1 0x0 DUP3 PUSH1 0x1F DUP4 ADD SLT PUSH2 0x260F JUMPI PUSH2 0x260E PUSH2 0x24E2 JUMP JUMPDEST JUMPDEST DUP2 CALLDATALOAD PUSH2 0x261F DUP5 DUP3 PUSH1 0x20 DUP7 ADD PUSH2 0x25B8 JUMP JUMPDEST SWAP2 POP POP SWAP3 SWAP2 POP POP JUMP JUMPDEST PUSH1 0x0 DUP1 PUSH1 0x40 DUP4 DUP6 SUB SLT ISZERO PUSH2 0x263F JUMPI PUSH2 0x263E PUSH2 0x247A JUMP JUMPDEST JUMPDEST PUSH1 0x0 PUSH2 0x264D DUP6 DUP3 DUP7 ADD PUSH2 0x24CD JUMP JUMPDEST SWAP3 POP POP PUSH1 0x20 DUP4 ADD CALLDATALOAD PUSH8 0xFFFFFFFFFFFFFFFF DUP2 GT ISZERO PUSH2 0x266E JUMPI PUSH2 0x266D PUSH2 0x247F JUMP JUMPDEST JUMPDEST PUSH2 0x267A DUP6 DUP3 DUP7 ADD PUSH2 0x25FA JUMP JUMPDEST SWAP2 POP POP SWAP3 POP SWAP3 SWAP1 POP JUMP JUMPDEST PUSH1 0x0 DUP2 ISZERO ISZERO SWAP1 POP SWAP2 SWAP1 POP JUMP JUMPDEST PUSH2 0x2699 DUP2 PUSH2 0x2684 JUMP JUMPDEST DUP3 MSTORE POP POP JUMP JUMPDEST PUSH1 0x0 PUSH1 0x20 DUP3 ADD SWAP1 POP PUSH2 0x26B4 PUSH1 0x0 DUP4 ADD DUP5 PUSH2 0x2690 JUMP JUMPDEST SWAP3 SWAP2 POP POP JUMP JUMPDEST PUSH2 0x26C3 DUP2 PUSH2 0x243C JUMP JUMPDEST DUP2 EQ PUSH2 0x26CE JUMPI PUSH1 0x0 DUP1 REVERT JUMPDEST POP JUMP JUMPDEST PUSH1 0x0 DUP2 CALLDATALOAD SWAP1 POP PUSH2 0x26E0 DUP2 PUSH2 0x26BA JUMP JUMPDEST SWAP3 SWAP2 POP POP JUMP JUMPDEST PUSH1 0x0 PUSH1 0x20 DUP3 DUP5 SUB SLT ISZERO PUSH2 0x26FC JUMPI PUSH2 0x26FB PUSH2 0x247A JUMP JUMPDEST JUMPDEST PUSH1 0x0 PUSH2 0x270A DUP5 DUP3 DUP6 ADD PUSH2 0x26D1 JUMP JUMPDEST SWAP2 POP POP SWAP3 SWAP2 POP POP JUMP JUMPDEST PUSH1 0x0 DUP2 MLOAD SWAP1 POP SWAP2 SWAP1 POP JUMP JUMPDEST PUSH1 0x0 DUP3 DUP3 MSTORE PUSH1 0x20 DUP3 ADD SWAP1 POP SWAP3 SWAP2 POP POP JUMP JUMPDEST PUSH1 0x0 JUMPDEST DUP4 DUP2 LT ISZERO PUSH2 0x274D JUMPI DUP1 DUP3 ADD MLOAD DUP2 DUP5 ADD MSTORE PUSH1 0x20 DUP2 ADD SWAP1 POP PUSH2 0x2732 JUMP JUMPDEST DUP4 DUP2 GT ISZERO PUSH2 0x275C JUMPI PUSH1 0x0 DUP5 DUP5 ADD MSTORE JUMPDEST POP POP POP POP JUMP JUMPDEST PUSH1 0x0 PUSH2 0x276D DUP3 PUSH2 0x2713 JUMP JUMPDEST PUSH2 0x2777 DUP2 DUP6 PUSH2 0x271E JUMP JUMPDEST SWAP4 POP PUSH2 0x2787 DUP2 DUP6 PUSH1 0x20 DUP7 ADD PUSH2 0x272F JUMP JUMPDEST PUSH2 0x2790 DUP2 PUSH2 0x24EC JUMP JUMPDEST DUP5 ADD SWAP2 POP POP SWAP3 SWAP2 POP POP JUMP JUMPDEST PUSH2 0x27A4 DUP2 PUSH2 0x24A4 JUMP JUMPDEST DUP3 MSTORE POP POP JUMP JUMPDEST PUSH1 0x0 PUSH1 0xA0 DUP3 ADD SWAP1 POP DUP2 DUP2 SUB PUSH1 0x0 DUP4 ADD MSTORE PUSH2 0x27C4 DUP2 DUP9 PUSH2 0x2762 JUMP JUMPDEST SWAP1 POP PUSH2 0x27D3 PUSH1 0x20 DUP4 ADD DUP8 PUSH2 0x279B JUMP JUMPDEST DUP2 DUP2 SUB PUSH1 0x40 DUP4 ADD MSTORE PUSH2 0x27E5 DUP2 DUP7 PUSH2 0x2762 JUMP JUMPDEST SWAP1 POP DUP2 DUP2 SUB PUSH1 0x60 DUP4 ADD MSTORE PUSH2 0x27F9 DUP2 DUP6 PUSH2 0x2762 JUMP JUMPDEST SWAP1 POP PUSH2 0x2808 PUSH1 0x80 DUP4 ADD DUP5 PUSH2 0x279B JUMP JUMPDEST SWAP7 SWAP6 POP POP POP POP POP POP JUMP JUMPDEST PUSH1 0x0 PUSH1 0x20 DUP3 ADD SWAP1 POP PUSH2 0x2827 PUSH1 0x0 DUP4 ADD DUP5 PUSH2 0x279B JUMP JUMPDEST SWAP3 SWAP2 POP POP JUMP JUMPDEST PUSH1 0x0 DUP1 PUSH1 0x0 DUP1 PUSH1 0x0 PUSH1 0xA0 DUP7 DUP9 SUB SLT ISZERO PUSH2 0x2849 JUMPI PUSH2 0x2848 PUSH2 0x247A JUMP JUMPDEST JUMPDEST PUSH1 0x0 DUP7 ADD CALLDATALOAD PUSH8 0xFFFFFFFFFFFFFFFF DUP2 GT ISZERO PUSH2 0x2867 JUMPI PUSH2 0x2866 PUSH2 0x247F JUMP JUMPDEST JUMPDEST PUSH2 0x2873 DUP9 DUP3 DUP10 ADD PUSH2 0x25FA JUMP JUMPDEST SWAP6 POP POP PUSH1 0x20 PUSH2 0x2884 DUP9 DUP3 DUP10 ADD PUSH2 0x24CD JUMP JUMPDEST SWAP5 POP POP PUSH1 0x40 DUP7 ADD CALLDATALOAD PUSH8 0xFFFFFFFFFFFFFFFF DUP2 GT ISZERO PUSH2 0x28A5 JUMPI PUSH2 0x28A4 PUSH2 0x247F JUMP JUMPDEST JUMPDEST PUSH2 0x28B1 DUP9 DUP3 DUP10 ADD PUSH2 0x25FA JUMP JUMPDEST SWAP4 POP POP PUSH1 0x60 DUP7 ADD CALLDATALOAD PUSH8 0xFFFFFFFFFFFFFFFF DUP2 GT ISZERO PUSH2 0x28D2 JUMPI PUSH2 0x28D1 PUSH2 0x247F JUMP JUMPDEST JUMPDEST PUSH2 0x28DE DUP9 DUP3 DUP10 ADD PUSH2 0x25FA JUMP JUMPDEST SWAP3 POP POP PUSH1 0x80 PUSH2 0x28EF DUP9 DUP3 DUP10 ADD PUSH2 0x24CD JUMP JUMPDEST SWAP2 POP POP SWAP3 SWAP6 POP SWAP3 SWAP6 SWAP1 SWAP4 POP JUMP JUMPDEST PUSH1 0x0 PUSH1 0x20 DUP3 DUP5 SUB SLT ISZERO PUSH2 0x2912 JUMPI PUSH2 0x2911 PUSH2 0x247A JUMP JUMPDEST JUMPDEST PUSH1 0x0 PUSH2 0x2920 DUP5 DUP3 DUP6 ADD PUSH2 0x24CD JUMP JUMPDEST SWAP2 POP POP SWAP3 SWAP2 POP POP JUMP JUMPDEST PUSH1 0x0 DUP2 SWAP1 POP SWAP2 SWAP1 POP JUMP JUMPDEST PUSH2 0x293C DUP2 PUSH2 0x2929 JUMP JUMPDEST DUP3 MSTORE POP POP JUMP JUMPDEST PUSH1 0x0 PUSH1 0x20 DUP3 ADD SWAP1 POP PUSH2 0x2957 PUSH1 0x0 DUP4 ADD DUP5 PUSH2 0x2933 JUMP JUMPDEST SWAP3 SWAP2 POP POP JUMP JUMPDEST PUSH1 0x0 DUP2 SWAP1 POP SWAP2 SWAP1 POP JUMP JUMPDEST PUSH1 0x0 PUSH2 0x2982 PUSH2 0x297D PUSH2 0x2978 DUP5 PUSH2 0x2484 JUMP JUMPDEST PUSH2 0x295D JUMP JUMPDEST PUSH2 0x2484 JUMP JUMPDEST SWAP1 POP SWAP2 SWAP1 POP JUMP JUMPDEST PUSH1 0x0 PUSH2 0x2994 DUP3 PUSH2 0x2967 JUMP JUMPDEST SWAP1 POP SWAP2 SWAP1 POP JUMP JUMPDEST PUSH1 0x0 PUSH2 0x29A6 DUP3 PUSH2 0x2989 JUMP JUMPDEST SWAP1 POP SWAP2 SWAP1 POP JUMP JUMPDEST PUSH2 0x29B6 DUP2 PUSH2 0x299B JUMP JUMPDEST DUP3 MSTORE POP POP JUMP JUMPDEST PUSH1 0x0 PUSH1 0x20 DUP3 ADD SWAP1 POP PUSH2 0x29D1 PUSH1 0x0 DUP4 ADD DUP5 PUSH2 0x29AD JUMP JUMPDEST SWAP3 SWAP2 POP POP JUMP JUMPDEST PUSH1 0x0 PUSH2 0x29E2 DUP3 PUSH2 0x2989 JUMP JUMPDEST SWAP1 POP SWAP2 SWAP1 POP JUMP JUMPDEST PUSH2 0x29F2 DUP2 PUSH2 0x29D7 JUMP JUMPDEST DUP3 MSTORE POP POP JUMP JUMPDEST PUSH1 0x0 PUSH1 0x20 DUP3 ADD SWAP1 POP PUSH2 0x2A0D PUSH1 0x0 DUP4 ADD DUP5 PUSH2 0x29E9 JUMP JUMPDEST SWAP3 SWAP2 POP POP JUMP JUMPDEST PUSH1 0x0 DUP1 PUSH1 0x0 PUSH1 0x60 DUP5 DUP7 SUB SLT ISZERO PUSH2 0x2A2C JUMPI PUSH2 0x2A2B PUSH2 0x247A JUMP JUMPDEST JUMPDEST PUSH1 0x0 PUSH2 0x2A3A DUP7 DUP3 DUP8 ADD PUSH2 0x26D1 JUMP JUMPDEST SWAP4 POP POP PUSH1 0x20 PUSH2 0x2A4B DUP7 DUP3 DUP8 ADD PUSH2 0x24CD JUMP JUMPDEST SWAP3 POP POP PUSH1 0x40 DUP5 ADD CALLDATALOAD PUSH8 0xFFFFFFFFFFFFFFFF DUP2 GT ISZERO PUSH2 0x2A6C JUMPI PUSH2 0x2A6B PUSH2 0x247F JUMP JUMPDEST JUMPDEST PUSH2 0x2A78 DUP7 DUP3 DUP8 ADD PUSH2 0x25FA JUMP JUMPDEST SWAP2 POP POP SWAP3 POP SWAP3 POP SWAP3 JUMP JUMPDEST PUSH1 0x0 PUSH1 0x40 DUP3 ADD SWAP1 POP PUSH2 0x2A97 PUSH1 0x0 DUP4 ADD DUP6 PUSH2 0x279B JUMP JUMPDEST DUP2 DUP2 SUB PUSH1 0x20 DUP4 ADD MSTORE PUSH2 0x2AA9 DUP2 DUP5 PUSH2 0x2762 JUMP JUMPDEST SWAP1 POP SWAP4 SWAP3 POP POP POP JUMP JUMPDEST PUSH2 0x2ABB DUP2 PUSH2 0x2929 JUMP JUMPDEST DUP2 EQ PUSH2 0x2AC6 JUMPI PUSH1 0x0 DUP1 REVERT JUMPDEST POP JUMP JUMPDEST PUSH1 0x0 DUP2 MLOAD SWAP1 POP PUSH2 0x2AD8 DUP2 PUSH2 0x2AB2 JUMP JUMPDEST SWAP3 SWAP2 POP POP JUMP JUMPDEST PUSH1 0x0 PUSH1 0x20 DUP3 DUP5 SUB SLT ISZERO PUSH2 0x2AF4 JUMPI PUSH2 0x2AF3 PUSH2 0x247A JUMP JUMPDEST JUMPDEST PUSH1 0x0 PUSH2 0x2B02 DUP5 DUP3 DUP6 ADD PUSH2 0x2AC9 JUMP JUMPDEST SWAP2 POP POP SWAP3 SWAP2 POP POP JUMP JUMPDEST PUSH1 0x0 PUSH2 0x2B1E PUSH2 0x2B19 DUP5 PUSH2 0x2578 JUMP JUMPDEST PUSH2 0x255D JUMP JUMPDEST SWAP1 POP DUP3 DUP2 MSTORE PUSH1 0x20 DUP2 ADD DUP5 DUP5 DUP5 ADD GT ISZERO PUSH2 0x2B3A JUMPI PUSH2 0x2B39 PUSH2 0x24E7 JUMP JUMPDEST JUMPDEST PUSH2 0x2B45 DUP5 DUP3 DUP6 PUSH2 0x272F JUMP JUMPDEST POP SWAP4 SWAP3 POP POP POP JUMP JUMPDEST PUSH1 0x0 DUP3 PUSH1 0x1F DUP4 ADD SLT PUSH2 0x2B62 JUMPI PUSH2 0x2B61 PUSH2 0x24E2 JUMP JUMPDEST JUMPDEST DUP2 MLOAD PUSH2 0x2B72 DUP5 DUP3 PUSH1 0x20 DUP7 ADD PUSH2 0x2B0B JUMP JUMPDEST SWAP2 POP POP SWAP3 SWAP2 POP POP JUMP JUMPDEST PUSH1 0x0 DUP2 MLOAD SWAP1 POP PUSH2 0x2B8A DUP2 PUSH2 0x24B6 JUMP JUMPDEST SWAP3 SWAP2 POP POP JUMP JUMPDEST PUSH1 0x0 DUP1 PUSH1 0x0 DUP1 PUSH1 0x0 PUSH1 0xA0 DUP7 DUP9 SUB SLT ISZERO PUSH2 0x2BAC JUMPI PUSH2 0x2BAB PUSH2 0x247A JUMP JUMPDEST JUMPDEST PUSH1 0x0 DUP7 ADD MLOAD PUSH8 0xFFFFFFFFFFFFFFFF DUP2 GT ISZERO PUSH2 0x2BCA JUMPI PUSH2 0x2BC9 PUSH2 0x247F JUMP JUMPDEST JUMPDEST PUSH2 0x2BD6 DUP9 DUP3 DUP10 ADD PUSH2 0x2B4D JUMP JUMPDEST SWAP6 POP POP PUSH1 0x20 PUSH2 0x2BE7 DUP9 DUP3 DUP10 ADD PUSH2 0x2B7B JUMP JUMPDEST SWAP5 POP POP PUSH1 0x40 DUP7 ADD MLOAD PUSH8 0xFFFFFFFFFFFFFFFF DUP2 GT ISZERO PUSH2 0x2C08 JUMPI PUSH2 0x2C07 PUSH2 0x247F JUMP JUMPDEST JUMPDEST PUSH2 0x2C14 DUP9 DUP3 DUP10 ADD PUSH2 0x2B4D JUMP JUMPDEST SWAP4 POP POP PUSH1 0x60 DUP7 ADD MLOAD PUSH8 0xFFFFFFFFFFFFFFFF DUP2 GT ISZERO PUSH2 0x2C35 JUMPI PUSH2 0x2C34 PUSH2 0x247F JUMP JUMPDEST JUMPDEST PUSH2 0x2C41 DUP9 DUP3 DUP10 ADD PUSH2 0x2B4D JUMP JUMPDEST SWAP3 POP POP PUSH1 0x80 PUSH2 0x2C52 DUP9 DUP3 DUP10 ADD PUSH2 0x2B7B JUMP JUMPDEST SWAP2 POP POP SWAP3 SWAP6 POP SWAP3 SWAP6 SWAP1 SWAP4 POP JUMP JUMPDEST PUSH1 0x0 PUSH1 0x20 DUP3 DUP5 SUB SLT ISZERO PUSH2 0x2C75 JUMPI PUSH2 0x2C74 PUSH2 0x247A JUMP JUMPDEST JUMPDEST PUSH1 0x0 PUSH2 0x2C83 DUP5 DUP3 DUP6 ADD PUSH2 0x2B7B JUMP JUMPDEST SWAP2 POP POP SWAP3 SWAP2 POP POP JUMP JUMPDEST PUSH32 0x4E487B7100000000000000000000000000000000000000000000000000000000 PUSH1 0x0 MSTORE PUSH1 0x22 PUSH1 0x4 MSTORE PUSH1 0x24 PUSH1 0x0 REVERT JUMPDEST PUSH1 0x0 PUSH1 0x2 DUP3 DIV SWAP1 POP PUSH1 0x1 DUP3 AND DUP1 PUSH2 0x2CD3 JUMPI PUSH1 0x7F DUP3 AND SWAP2 POP JUMPDEST PUSH1 0x20 DUP3 LT DUP2 EQ ISZERO PUSH2 0x2CE7 JUMPI PUSH2 0x2CE6 PUSH2 0x2C8C JUMP JUMPDEST JUMPDEST POP SWAP2 SWAP1 POP JUMP JUMPDEST PUSH32 0x496E646578206F7574206F6620626F756E647300000000000000000000000000 PUSH1 0x0 DUP3 ADD MSTORE POP JUMP JUMPDEST PUSH1 0x0 PUSH2 0x2D23 PUSH1 0x13 DUP4 PUSH2 0x271E JUMP JUMPDEST SWAP2 POP PUSH2 0x2D2E DUP3 PUSH2 0x2CED JUMP JUMPDEST PUSH1 0x20 DUP3 ADD SWAP1 POP SWAP2 SWAP1 POP JUMP JUMPDEST PUSH1 0x0 PUSH1 0x20 DUP3 ADD SWAP1 POP DUP2 DUP2 SUB PUSH1 0x0 DUP4 ADD MSTORE PUSH2 0x2D52 DUP2 PUSH2 0x2D16 JUMP JUMPDEST SWAP1 POP SWAP2 SWAP1 POP JUMP JUMPDEST PUSH32 0x4E487B7100000000000000000000000000000000000000000000000000000000 PUSH1 0x0 MSTORE PUSH1 0x32 PUSH1 0x4 MSTORE PUSH1 0x24 PUSH1 0x0 REVERT JUMPDEST PUSH2 0x2D91 DUP2 PUSH2 0x2684 JUMP JUMPDEST DUP2 EQ PUSH2 0x2D9C JUMPI PUSH1 0x0 DUP1 REVERT JUMPDEST POP JUMP JUMPDEST PUSH1 0x0 DUP2 MLOAD SWAP1 POP PUSH2 0x2DAE DUP2 PUSH2 0x2D88 JUMP JUMPDEST SWAP3 SWAP2 POP POP JUMP JUMPDEST PUSH1 0x0 PUSH1 0x20 DUP3 DUP5 SUB SLT ISZERO PUSH2 0x2DCA JUMPI PUSH2 0x2DC9 PUSH2 0x247A JUMP JUMPDEST JUMPDEST PUSH1 0x0 PUSH2 0x2DD8 DUP5 DUP3 DUP6 ADD PUSH2 0x2D9F JUMP JUMPDEST SWAP2 POP POP SWAP3 SWAP2 POP POP JUMP JUMPDEST PUSH32 0x4E6F7420617574686F72697A6564000000000000000000000000000000000000 PUSH1 0x0 DUP3 ADD MSTORE POP JUMP JUMPDEST PUSH1 0x0 PUSH2 0x2E17 PUSH1 0xE DUP4 PUSH2 0x271E JUMP JUMPDEST SWAP2 POP PUSH2 0x2E22 DUP3 PUSH2 0x2DE1 JUMP JUMPDEST PUSH1 0x20 DUP3 ADD SWAP1 POP SWAP2 SWAP1 POP JUMP JUMPDEST PUSH1 0x0 PUSH1 0x20 DUP3 ADD SWAP1 POP DUP2 DUP2 SUB PUSH1 0x0 DUP4 ADD MSTORE PUSH2 0x2E46 DUP2 PUSH2 0x2E0A JUMP JUMPDEST SWAP1 POP SWAP2 SWAP1 POP JUMP JUMPDEST PUSH32 0x596F7520617265206E6F7420417574686F72697A656421000000000000000000 PUSH1 0x0 DUP3 ADD MSTORE POP JUMP JUMPDEST PUSH1 0x0 PUSH2 0x2E83 PUSH1 0x17 DUP4 PUSH2 0x271E JUMP JUMPDEST SWAP2 POP PUSH2 0x2E8E DUP3 PUSH2 0x2E4D JUMP JUMPDEST PUSH1 0x20 DUP3 ADD SWAP1 POP SWAP2 SWAP1 POP JUMP JUMPDEST PUSH1 0x0 PUSH1 0x20 DUP3 ADD SWAP1 POP DUP2 DUP2 SUB PUSH1 0x0 DUP4 ADD MSTORE PUSH2 0x2EB2 DUP2 PUSH2 0x2E76 JUMP JUMPDEST SWAP1 POP SWAP2 SWAP1 POP JUMP JUMPDEST PUSH1 0x0 DUP2 PUSH1 0x60 SHL SWAP1 POP SWAP2 SWAP1 POP JUMP JUMPDEST PUSH1 0x0 PUSH2 0x2ED1 DUP3 PUSH2 0x2EB9 JUMP JUMPDEST SWAP1 POP SWAP2 SWAP1 POP JUMP JUMPDEST PUSH1 0x0 PUSH2 0x2EE3 DUP3 PUSH2 0x2EC6 JUMP JUMPDEST SWAP1 POP SWAP2 SWAP1 POP JUMP JUMPDEST PUSH2 0x2EFB PUSH2 0x2EF6 DUP3 PUSH2 0x24A4 JUMP JUMPDEST PUSH2 0x2ED8 JUMP JUMPDEST DUP3 MSTORE POP POP JUMP JUMPDEST PUSH1 0x0 DUP2 SWAP1 POP SWAP3 SWAP2 POP POP JUMP JUMPDEST PUSH1 0x0 PUSH2 0x2F17 DUP3 PUSH2 0x2713 JUMP JUMPDEST PUSH2 0x2F21 DUP2 DUP6 PUSH2 0x2F01 JUMP JUMPDEST SWAP4 POP PUSH2 0x2F31 DUP2 DUP6 PUSH1 0x20 DUP7 ADD PUSH2 0x272F JUMP JUMPDEST DUP1 DUP5 ADD SWAP2 POP POP SWAP3 SWAP2 POP POP JUMP JUMPDEST PUSH1 0x0 PUSH2 0x2F49 DUP3 DUP6 PUSH2 0x2EEA JUMP JUMPDEST PUSH1 0x14 DUP3 ADD SWAP2 POP PUSH2 0x2F59 DUP3 DUP5 PUSH2 0x2F0C JUMP JUMPDEST SWAP2 POP DUP2 SWAP1 POP SWAP4 SWAP3 POP POP POP JUMP JUMPDEST PUSH32 0x4E6F742074686520537475656E74277320496E73746974757465000000000000 PUSH1 0x0 DUP3 ADD MSTORE POP JUMP JUMPDEST PUSH1 0x0 PUSH2 0x2F9B PUSH1 0x1A DUP4 PUSH2 0x271E JUMP JUMPDEST SWAP2 POP PUSH2 0x2FA6 DUP3 PUSH2 0x2F65 JUMP JUMPDEST PUSH1 0x20 DUP3 ADD SWAP1 POP SWAP2 SWAP1 POP JUMP JUMPDEST PUSH1 0x0 PUSH1 0x20 DUP3 ADD SWAP1 POP DUP2 DUP2 SUB PUSH1 0x0 DUP4 ADD MSTORE PUSH2 0x2FCA DUP2 PUSH2 0x2F8E JUMP JUMPDEST SWAP1 POP SWAP2 SWAP1 POP JUMP JUMPDEST PUSH1 0x0 PUSH1 0x60 DUP3 ADD SWAP1 POP PUSH2 0x2FE6 PUSH1 0x0 DUP4 ADD DUP7 PUSH2 0x2446 JUMP JUMPDEST PUSH2 0x2FF3 PUSH1 0x20 DUP4 ADD DUP6 PUSH2 0x2933 JUMP JUMPDEST PUSH2 0x3000 PUSH1 0x40 DUP4 ADD DUP5 PUSH2 0x279B JUMP JUMPDEST SWAP5 SWAP4 POP POP POP POP JUMP JUMPDEST PUSH32 0x4661696C656420746F2061646420696E7374697475746520746F207374756465 PUSH1 0x0 DUP3 ADD MSTORE PUSH32 0x6E7420696E666F00000000000000000000000000000000000000000000000000 PUSH1 0x20 DUP3 ADD MSTORE POP JUMP JUMPDEST PUSH1 0x0 PUSH2 0x3064 PUSH1 0x27 DUP4 PUSH2 0x271E JUMP JUMPDEST SWAP2 POP PUSH2 0x306F DUP3 PUSH2 0x3008 JUMP JUMPDEST PUSH1 0x40 DUP3 ADD SWAP1 POP SWAP2 SWAP1 POP JUMP JUMPDEST PUSH1 0x0 PUSH1 0x20 DUP3 ADD SWAP1 POP DUP2 DUP2 SUB PUSH1 0x0 DUP4 ADD MSTORE PUSH2 0x3093 DUP2 PUSH2 0x3057 JUMP JUMPDEST SWAP1 POP SWAP2 SWAP1 POP JUMP JUMPDEST PUSH1 0x0 PUSH1 0x40 DUP3 ADD SWAP1 POP PUSH2 0x30AF PUSH1 0x0 DUP4 ADD DUP6 PUSH2 0x2446 JUMP JUMPDEST PUSH2 0x30BC PUSH1 0x20 DUP4 ADD DUP5 PUSH2 0x2933 JUMP JUMPDEST SWAP4 SWAP3 POP POP POP JUMP JUMPDEST PUSH32 0x4661696C656420746F2072656D6F766520696E737469747574652066726F6D20 PUSH1 0x0 DUP3 ADD MSTORE PUSH32 0x73747564656E7420696E666F0000000000000000000000000000000000000000 PUSH1 0x20 DUP3 ADD MSTORE POP JUMP JUMPDEST PUSH1 0x0 PUSH2 0x311F PUSH1 0x2C DUP4 PUSH2 0x271E JUMP JUMPDEST SWAP2 POP PUSH2 0x312A DUP3 PUSH2 0x30C3 JUMP JUMPDEST PUSH1 0x40 DUP3 ADD SWAP1 POP SWAP2 SWAP1 POP JUMP JUMPDEST PUSH1 0x0 PUSH1 0x20 DUP3 ADD SWAP1 POP DUP2 DUP2 SUB PUSH1 0x0 DUP4 ADD MSTORE PUSH2 0x314E DUP2 PUSH2 0x3112 JUMP JUMPDEST SWAP1 POP SWAP2 SWAP1 POP JUMP INVALID LOG2 PUSH5 0x6970667358 0x22 SLT KECCAK256 CHAINID MOD 0xD5 PUSH25 0x1D7031BE72BCF82D4E8A30F3B956003C207E9DDCF63284D76A SWAP3 SLOAD 0xED PUSH5 0x736F6C6343 STOP ADDMOD EXP STOP CALLER "
    },
    "gasEstimates": {
      "creation": {
        "codeDepositCost": "2536600",
        "executionCost": "infinite",
        "totalCost": "infinite"
      },
      "external": {
        "CheckReturn(address,string)": "infinite",
        "MOE()": "2534",
        "StudentsCount()": "2469",
        "addStudToPending(string,address,string,string,address)": "infinite",
        "addTransferStudToPending(string,address,string,string,address)": "infinite",
        "checkFunction()": "infinite",
        "generateKey(address,string)": "infinite",
        "getPendingStudentByindex(uint256)": "infinite",
        "getPendingStudentsCount()": "2512",
        "getStudentContractByAddress(address)": "infinite",
        "getTransferStudentByindex(uint256)": "infinite",
        "getTransferStudentsCount()": "2468",
        "instregd()": "infinite",
        "isStudent(address)": "2971",
        "pendingStudentsarray(uint256)": "infinite",
        "removeGraduateStud(uint256,address,string)": "infinite",
        "studentRegisterContractAddress()": "2603",
        "studreg()": "infinite",
        "transferStudentsarray(uint256)": "infinite",
        "trialnumber()": "2562",
        "verifyTransferstudent(uint256)": "infinite",
        "verifystudent(uint256)": "infinite"
      }
    },
    "methodIdentifiers": {
      "CheckReturn(address,string)": "217fa765",
      "MOE()": "673a1746",
      "StudentsCount()": "20b260e3",
      "addStudToPending(string,address,string,string,address)": "78cfe85e",
      "addTransferStudToPending(string,address,string,string,address)": "85af95ed",
      "checkFunction()": "2ecca5fe",
      "generateKey(address,string)": "8a97503d",
      "getPendingStudentByindex(uint256)": "5b969a04",
      "getPendingStudentsCount()": "b1be843d",
      "getStudentContractByAddress(address)": "ca90543d",
      "getTransferStudentByindex(uint256)": "a4156aec",
      "getTransferStudentsCount()": "a2a1fee5",
      "instregd()": "bae0a585",
      "isStudent(address)": "82f7d392",
      "pendingStudentsarray(uint256)": "bd6a8504",
      "removeGraduateStud(uint256,address,string)": "f20bcf9a",
      "studentRegisterContractAddress()": "b7774c1a",
      "studreg()": "c865d881",
      "transferStudentsarray(uint256)": "548d434e",
      "trialnumber()": "911018ef",
      "verifyTransferstudent(uint256)": "da085b7a",
      "verifystudent(uint256)": "f00c848d"
    }
  },
  "storageLayout": {
    "storage": [
      {
        "astId": 2267,
        "contract": "verifystud.sol:verifystud",
        "label": "MOE",
        "offset": 0,
        "slot": "0",
        "type": "t_address"
      },
      {
        "astId": 2270,
        "contract": "verifystud.sol:verifystud",
        "label": "studreg",
        "offset": 0,
        "slot": "1",
        "type": "t_contract(registerStud)1209"
      },
      {
        "astId": 2273,
        "contract": "verifystud.sol:verifystud",
        "label": "instregd",
        "offset": 0,
        "slot": "2",
        "type": "t_contract(verifyinst)2257"
      },
      {
        "astId": 2275,
        "contract": "verifystud.sol:verifystud",
        "label": "studentRegisterContractAddress",
        "offset": 0,
        "slot": "3",
        "type": "t_address"
      },
      {
        "astId": 2278,
        "contract": "verifystud.sol:verifystud",
        "label": "trialnumber",
        "offset": 0,
        "slot": "4",
        "type": "t_uint256"
      },
      {
        "astId": 2333,
        "contract": "verifystud.sol:verifystud",
        "label": "pendingStudentsarray",
        "offset": 0,
        "slot": "5",
        "type": "t_array(t_struct(pendingstudents)2329_storage)dyn_storage"
      },
      {
        "astId": 2337,
        "contract": "verifystud.sol:verifystud",
        "label": "transferStudentsarray",
        "offset": 0,
        "slot": "6",
        "type": "t_array(t_struct(pendingstudents)2329_storage)dyn_storage"
      },
      {
        "astId": 2341,
        "contract": "verifystud.sol:verifystud",
        "label": "registeredStudentsmap",
        "offset": 0,
        "slot": "7",
        "type": "t_mapping(t_address,t_address)"
      },
      {
        "astId": 2344,
        "contract": "verifystud.sol:verifystud",
        "label": "registeredStudents",
        "offset": 0,
        "slot": "8",
        "type": "t_array(t_address)dyn_storage"
      }
    ],
    "types": {
      "t_address": {
        "encoding": "inplace",
        "label": "address",
        "numberOfBytes": "20"
      },
      "t_array(t_address)dyn_storage": {
        "base": "t_address",
        "encoding": "dynamic_array",
        "label": "address[]",
        "numberOfBytes": "32"
      },
      "t_array(t_struct(pendingstudents)2329_storage)dyn_storage": {
        "base": "t_struct(pendingstudents)2329_storage",
        "encoding": "dynamic_array",
        "label": "struct verifystud.pendingstudents[]",
        "numberOfBytes": "32"
      },
      "t_contract(registerStud)1209": {
        "encoding": "inplace",
        "label": "contract registerStud",
        "numberOfBytes": "20"
      },
      "t_contract(verifyinst)2257": {
        "encoding": "inplace",
        "label": "contract verifyinst",
        "numberOfBytes": "20"
      },
      "t_mapping(t_address,t_address)": {
        "encoding": "mapping",
        "key": "t_address",
        "label": "mapping(address => address)",
        "numberOfBytes": "32",
        "value": "t_address"
      },
      "t_string_storage": {
        "encoding": "bytes",
        "label": "string",
        "numberOfBytes": "32"
      },
      "t_struct(pendingstudents)2329_storage": {
        "encoding": "inplace",
        "label": "struct verifystud.pendingstudents",
        "members": [
          {
            "astId": 2320,
            "contract": "verifystud.sol:verifystud",
            "label": "name",
            "offset": 0,
            "slot": "0",
            "type": "t_string_storage"
          },
          {
            "astId": 2322,
            "contract": "verifystud.sol:verifystud",
            "label": "student_address",
            "offset": 0,
            "slot": "1",
            "type": "t_address"
          },
          {
            "astId": 2324,
            "contract": "verifystud.sol:verifystud",
            "label": "email",
            "offset": 0,
            "slot": "2",
            "type": "t_string_storage"
          },
          {
            "astId": 2326,
            "contract": "verifystud.sol:verifystud",
            "label": "id",
            "offset": 0,
            "slot": "3",
            "type": "t_string_storage"
          },
          {
            "astId": 2328,
            "contract": "verifystud.sol:verifystud",
            "label": "instAddress",
            "offset": 0,
            "slot": "4",
            "type": "t_address"
          }
        ],
        "numberOfBytes": "160"
      },
      "t_uint256": {
        "encoding": "inplace",
        "label": "uint256",
        "numberOfBytes": "32"
      }
    }
  },
  "userdoc": {
    "kind": "user",
    "methods": {},
    "version": 1
  }
}