{
  "abi": [
    {
      "inputs": [
        {
          "internalType": "address",
          "name": "_registerInstAddress",
          "type": "address"
        }
      ],
      "stateMutability": "nonpayable",
      "type": "constructor"
    },
    {
      "inputs": [],
      "name": "MOE",
      "outputs": [
        {
          "internalType": "address",
          "name": "",
          "type": "address"
        }
      ],
      "stateMutability": "view",
      "type": "function"
    },
    {
      "inputs": [
        {
          "internalType": "string",
          "name": "name",
          "type": "string"
        }
      ],
      "name": "getAddresByName",
      "outputs": [
        {
          "internalType": "address",
          "name": "",
          "type": "address"
        }
      ],
      "stateMutability": "view",
      "type": "function"
    },
    {
      "inputs": [
        {
          "internalType": "uint256",
          "name": "index",
          "type": "uint256"
        }
      ],
      "name": "getInstituteByIndex",
      "outputs": [
        {
          "internalType": "string",
          "name": "",
          "type": "string"
        }
      ],
      "stateMutability": "view",
      "type": "function"
    },
    {
      "inputs": [],
      "name": "getInstitutesCount",
      "outputs": [
        {
          "internalType": "uint256",
          "name": "",
          "type": "uint256"
        }
      ],
      "stateMutability": "view",
      "type": "function"
    },
    {
      "inputs": [
        {
          "internalType": "bytes32",
          "name": "key",
          "type": "bytes32"
        }
      ],
      "name": "getPendingInstituteByKey",
      "outputs": [
        {
          "internalType": "string",
          "name": "",
          "type": "string"
        },
        {
          "internalType": "address",
          "name": "",
          "type": "address"
        },
        {
          "internalType": "string",
          "name": "",
          "type": "string"
        },
        {
          "internalType": "address",
          "name": "",
          "type": "address"
        }
      ],
      "stateMutability": "view",
      "type": "function"
    },
    {
      "inputs": [],
      "name": "getPendingInstitutesCount",
      "outputs": [
        {
          "internalType": "uint256",
          "name": "",
          "type": "uint256"
        }
      ],
      "stateMutability": "view",
      "type": "function"
    },
    {
      "inputs": [
        {
          "internalType": "address",
          "name": "_institutes",
          "type": "address"
        }
      ],
      "name": "getinstitutesContractByAddress",
      "outputs": [
        {
          "internalType": "address",
          "name": "",
          "type": "address"
        }
      ],
      "stateMutability": "view",
      "type": "function"
    },
    {
      "inputs": [
        {
          "internalType": "string",
          "name": "",
          "type": "string"
        }
      ],
      "name": "instNameToAddress",
      "outputs": [
        {
          "internalType": "address",
          "name": "",
          "type": "address"
        }
      ],
      "stateMutability": "view",
      "type": "function"
    },
    {
      "inputs": [],
      "name": "instituteCount",
      "outputs": [
        {
          "internalType": "uint256",
          "name": "",
          "type": "uint256"
        }
      ],
      "stateMutability": "view",
      "type": "function"
    },
    {
      "inputs": [
        {
          "internalType": "uint256",
          "name": "",
          "type": "uint256"
        }
      ],
      "name": "institution_names",
      "outputs": [
        {
          "internalType": "string",
          "name": "",
          "type": "string"
        }
      ],
      "stateMutability": "view",
      "type": "function"
    },
    {
      "inputs": [],
      "name": "instreg",
      "outputs": [
        {
          "internalType": "contract registerInst",
          "name": "",
          "type": "address"
        }
      ],
      "stateMutability": "view",
      "type": "function"
    },
    {
      "inputs": [
        {
          "internalType": "address",
          "name": "_institutes",
          "type": "address"
        }
      ],
      "name": "isinstitute",
      "outputs": [
        {
          "internalType": "bool",
          "name": "",
          "type": "bool"
        }
      ],
      "stateMutability": "view",
      "type": "function"
    },
    {
      "inputs": [
        {
          "internalType": "address",
          "name": "",
          "type": "address"
        }
      ],
      "name": "registeredinstitutesmap",
      "outputs": [
        {
          "internalType": "address",
          "name": "",
          "type": "address"
        }
      ],
      "stateMutability": "view",
      "type": "function"
    },
    {
      "inputs": [
        {
          "internalType": "bytes32",
          "name": "key",
          "type": "bytes32"
        },
        {
          "internalType": "uint256",
          "name": "index",
          "type": "uint256"
        },
        {
          "internalType": "address",
          "name": "newinst",
          "type": "address"
        }
      ],
      "name": "verifyInstitution",
      "outputs": [],
      "stateMutability": "nonpayable",
      "type": "function"
    }
  ],
  "devdoc": {
    "kind": "dev",
    "methods": {},
    "version": 1
  },
  "evm": {
    "assembly": "    /* \"verifyinst.sol\":121:2351  contract verifyinst {... */\n  mstore(0x40, 0x80)\n    /* \"verifyinst.sol\":207:339  constructor(address _registerInstAddress) {... */\n  callvalue\n  dup1\n  iszero\n  tag_1\n  jumpi\n  0x00\n  dup1\n  revert\ntag_1:\n  pop\n  mload(0x40)\n  sub(codesize, bytecodeSize)\n  dup1\n  bytecodeSize\n  dup4\n  codecopy\n  dup2\n  dup2\n  add\n  0x40\n  mstore\n  dup2\n  add\n  swap1\n  tag_2\n  swap2\n  swap1\n  tag_3\n  jump\t// in\ntag_2:\n    /* \"verifyinst.sol\":266:276  msg.sender */\n  caller\n    /* \"verifyinst.sol\":260:263  MOE */\n  0x00\n  dup1\n    /* \"verifyinst.sol\":260:276  MOE = msg.sender */\n  0x0100\n  exp\n  dup2\n  sload\n  dup2\n  0xffffffffffffffffffffffffffffffffffffffff\n  mul\n  not\n  and\n  swap1\n  dup4\n  0xffffffffffffffffffffffffffffffffffffffff\n  and\n  mul\n  or\n  swap1\n  sstore\n  pop\n    /* \"verifyinst.sol\":310:330  _registerInstAddress */\n  dup1\n    /* \"verifyinst.sol\":287:294  instreg */\n  0x01\n  0x00\n    /* \"verifyinst.sol\":287:331  instreg = registerInst(_registerInstAddress) */\n  0x0100\n  exp\n  dup2\n  sload\n  dup2\n  0xffffffffffffffffffffffffffffffffffffffff\n  mul\n  not\n  and\n  swap1\n  dup4\n  0xffffffffffffffffffffffffffffffffffffffff\n  and\n  mul\n  or\n  swap1\n  sstore\n  pop\n    /* \"verifyinst.sol\":207:339  constructor(address _registerInstAddress) {... */\n  pop\n    /* \"verifyinst.sol\":121:2351  contract verifyinst {... */\n  jump(tag_6)\n    /* \"#utility.yul\":88:205   */\ntag_8:\n    /* \"#utility.yul\":197:198   */\n  0x00\n    /* \"#utility.yul\":194:195   */\n  dup1\n    /* \"#utility.yul\":187:199   */\n  revert\n    /* \"#utility.yul\":334:460   */\ntag_10:\n    /* \"#utility.yul\":371:378   */\n  0x00\n    /* \"#utility.yul\":411:453   */\n  0xffffffffffffffffffffffffffffffffffffffff\n    /* \"#utility.yul\":404:409   */\n  dup3\n    /* \"#utility.yul\":400:454   */\n  and\n    /* \"#utility.yul\":389:454   */\n  swap1\n  pop\n    /* \"#utility.yul\":334:460   */\n  swap2\n  swap1\n  pop\n  jump\t// out\n    /* \"#utility.yul\":466:562   */\ntag_11:\n    /* \"#utility.yul\":503:510   */\n  0x00\n    /* \"#utility.yul\":532:556   */\n  tag_20\n    /* \"#utility.yul\":550:555   */\n  dup3\n    /* \"#utility.yul\":532:556   */\n  tag_10\n  jump\t// in\ntag_20:\n    /* \"#utility.yul\":521:556   */\n  swap1\n  pop\n    /* \"#utility.yul\":466:562   */\n  swap2\n  swap1\n  pop\n  jump\t// out\n    /* \"#utility.yul\":568:690   */\ntag_12:\n    /* \"#utility.yul\":641:665   */\n  tag_22\n    /* \"#utility.yul\":659:664   */\n  dup2\n    /* \"#utility.yul\":641:665   */\n  tag_11\n  jump\t// in\ntag_22:\n    /* \"#utility.yul\":634:639   */\n  dup2\n    /* \"#utility.yul\":631:666   */\n  eq\n    /* \"#utility.yul\":621:684   */\n  tag_23\n  jumpi\n    /* \"#utility.yul\":680:681   */\n  0x00\n    /* \"#utility.yul\":677:678   */\n  dup1\n    /* \"#utility.yul\":670:682   */\n  revert\n    /* \"#utility.yul\":621:684   */\ntag_23:\n    /* \"#utility.yul\":568:690   */\n  pop\n  jump\t// out\n    /* \"#utility.yul\":696:839   */\ntag_13:\n    /* \"#utility.yul\":753:758   */\n  0x00\n    /* \"#utility.yul\":784:790   */\n  dup2\n    /* \"#utility.yul\":778:791   */\n  mload\n    /* \"#utility.yul\":769:791   */\n  swap1\n  pop\n    /* \"#utility.yul\":800:833   */\n  tag_25\n    /* \"#utility.yul\":827:832   */\n  dup2\n    /* \"#utility.yul\":800:833   */\n  tag_12\n  jump\t// in\ntag_25:\n    /* \"#utility.yul\":696:839   */\n  swap3\n  swap2\n  pop\n  pop\n  jump\t// out\n    /* \"#utility.yul\":845:1196   */\ntag_3:\n    /* \"#utility.yul\":915:921   */\n  0x00\n    /* \"#utility.yul\":964:966   */\n  0x20\n    /* \"#utility.yul\":952:961   */\n  dup3\n    /* \"#utility.yul\":943:950   */\n  dup5\n    /* \"#utility.yul\":939:962   */\n  sub\n    /* \"#utility.yul\":935:967   */\n  slt\n    /* \"#utility.yul\":932:1051   */\n  iszero\n  tag_27\n  jumpi\n    /* \"#utility.yul\":970:1049   */\n  tag_28\n  tag_8\n  jump\t// in\ntag_28:\n    /* \"#utility.yul\":932:1051   */\ntag_27:\n    /* \"#utility.yul\":1090:1091   */\n  0x00\n    /* \"#utility.yul\":1115:1179   */\n  tag_29\n    /* \"#utility.yul\":1171:1178   */\n  dup5\n    /* \"#utility.yul\":1162:1168   */\n  dup3\n    /* \"#utility.yul\":1151:1160   */\n  dup6\n    /* \"#utility.yul\":1147:1169   */\n  add\n    /* \"#utility.yul\":1115:1179   */\n  tag_13\n  jump\t// in\ntag_29:\n    /* \"#utility.yul\":1105:1179   */\n  swap2\n  pop\n    /* \"#utility.yul\":1061:1189   */\n  pop\n    /* \"#utility.yul\":845:1196   */\n  swap3\n  swap2\n  pop\n  pop\n  jump\t// out\n    /* \"verifyinst.sol\":121:2351  contract verifyinst {... */\ntag_6:\n  dataSize(sub_0)\n  dup1\n  dataOffset(sub_0)\n  0x00\n  codecopy\n  0x00\n  return\nstop\n\nsub_0: assembly {\n        /* \"verifyinst.sol\":121:2351  contract verifyinst {... */\n      mstore(0x40, 0x80)\n      callvalue\n      dup1\n      iszero\n      tag_1\n      jumpi\n      0x00\n      dup1\n      revert\n    tag_1:\n      pop\n      jumpi(tag_2, lt(calldatasize, 0x04))\n      shr(0xe0, calldataload(0x00))\n      dup1\n      0xa2ea871c\n      gt\n      tag_17\n      jumpi\n      dup1\n      0xe6781079\n      gt\n      tag_18\n      jumpi\n      dup1\n      0xe6781079\n      eq\n      tag_13\n      jumpi\n      dup1\n      0xed279e8c\n      eq\n      tag_14\n      jumpi\n      dup1\n      0xfcb8ed49\n      eq\n      tag_15\n      jumpi\n      dup1\n      0xfefb21a4\n      eq\n      tag_16\n      jumpi\n      jump(tag_2)\n    tag_18:\n      dup1\n      0xa2ea871c\n      eq\n      tag_10\n      jumpi\n      dup1\n      0xa31de04f\n      eq\n      tag_11\n      jumpi\n      dup1\n      0xd987f5d6\n      eq\n      tag_12\n      jumpi\n      jump(tag_2)\n    tag_17:\n      dup1\n      0x673a1746\n      gt\n      tag_19\n      jumpi\n      dup1\n      0x673a1746\n      eq\n      tag_6\n      jumpi\n      dup1\n      0x68f5e301\n      eq\n      tag_7\n      jumpi\n      dup1\n      0x6dd7e0b3\n      eq\n      tag_8\n      jumpi\n      dup1\n      0x839f602d\n      eq\n      tag_9\n      jumpi\n      jump(tag_2)\n    tag_19:\n      dup1\n      0x11b81429\n      eq\n      tag_3\n      jumpi\n      dup1\n      0x24a3ed9d\n      eq\n      tag_4\n      jumpi\n      dup1\n      0x3e4af686\n      eq\n      tag_5\n      jumpi\n    tag_2:\n      0x00\n      dup1\n      revert\n        /* \"verifyinst.sol\":1905:2052  function isinstitute(address _institutes) public view returns (bool) {... */\n    tag_3:\n      tag_20\n      0x04\n      dup1\n      calldatasize\n      sub\n      dup2\n      add\n      swap1\n      tag_21\n      swap2\n      swap1\n      tag_22\n      jump\t// in\n    tag_21:\n      tag_23\n      jump\t// in\n    tag_20:\n      mload(0x40)\n      tag_24\n      swap2\n      swap1\n      tag_25\n      jump\t// in\n    tag_24:\n      mload(0x40)\n      dup1\n      swap2\n      sub\n      swap1\n      return\n        /* \"verifyinst.sol\":427:460  string[] public institution_names */\n    tag_4:\n      tag_26\n      0x04\n      dup1\n      calldatasize\n      sub\n      dup2\n      add\n      swap1\n      tag_27\n      swap2\n      swap1\n      tag_28\n      jump\t// in\n    tag_27:\n      tag_29\n      jump\t// in\n    tag_26:\n      mload(0x40)\n      tag_30\n      swap2\n      swap1\n      tag_31\n      jump\t// in\n    tag_30:\n      mload(0x40)\n      dup1\n      swap2\n      sub\n      swap1\n      return\n        /* \"verifyinst.sol\":1167:1277  function getInstitutesCount() public view returns (uint256) {... */\n    tag_5:\n      tag_32\n      tag_33\n      jump\t// in\n    tag_32:\n      mload(0x40)\n      tag_34\n      swap2\n      swap1\n      tag_35\n      jump\t// in\n    tag_34:\n      mload(0x40)\n      dup1\n      swap2\n      sub\n      swap1\n      return\n        /* \"verifyinst.sol\":148:166  address public MOE */\n    tag_6:\n      tag_36\n      tag_37\n      jump\t// in\n    tag_36:\n      mload(0x40)\n      tag_38\n      swap2\n      swap1\n      tag_39\n      jump\t// in\n    tag_38:\n      mload(0x40)\n      dup1\n      swap2\n      sub\n      swap1\n      return\n        /* \"verifyinst.sol\":628:1161  function verifyInstitution(bytes32 key, uint256 index,address newinst) public onlyMOE {... */\n    tag_7:\n      tag_40\n      0x04\n      dup1\n      calldatasize\n      sub\n      dup2\n      add\n      swap1\n      tag_41\n      swap2\n      swap1\n      tag_42\n      jump\t// in\n    tag_41:\n      tag_43\n      jump\t// in\n    tag_40:\n      stop\n        /* \"verifyinst.sol\":1702:1897  function getPendingInstituteByKey(... */\n    tag_8:\n      tag_44\n      0x04\n      dup1\n      calldatasize\n      sub\n      dup2\n      add\n      swap1\n      tag_45\n      swap2\n      swap1\n      tag_46\n      jump\t// in\n    tag_45:\n      tag_47\n      jump\t// in\n    tag_44:\n      mload(0x40)\n      tag_48\n      swap5\n      swap4\n      swap3\n      swap2\n      swap1\n      tag_49\n      jump\t// in\n    tag_48:\n      mload(0x40)\n      dup1\n      swap2\n      sub\n      swap1\n      return\n        /* \"verifyinst.sol\":467:525  mapping(address => address) public registeredinstitutesmap */\n    tag_9:\n      tag_50\n      0x04\n      dup1\n      calldatasize\n      sub\n      dup2\n      add\n      swap1\n      tag_51\n      swap2\n      swap1\n      tag_22\n      jump\t// in\n    tag_51:\n      tag_52\n      jump\t// in\n    tag_50:\n      mload(0x40)\n      tag_53\n      swap2\n      swap1\n      tag_39\n      jump\t// in\n    tag_53:\n      mload(0x40)\n      dup1\n      swap2\n      sub\n      swap1\n      return\n        /* \"verifyinst.sol\":1412:1558  function getInstituteByIndex(... */\n    tag_10:\n      tag_54\n      0x04\n      dup1\n      calldatasize\n      sub\n      dup2\n      add\n      swap1\n      tag_55\n      swap2\n      swap1\n      tag_28\n      jump\t// in\n    tag_55:\n      tag_56\n      jump\t// in\n    tag_54:\n      mload(0x40)\n      tag_57\n      swap2\n      swap1\n      tag_31\n      jump\t// in\n    tag_57:\n      mload(0x40)\n      dup1\n      swap2\n      sub\n      swap1\n      return\n        /* \"verifyinst.sol\":173:200  registerInst public instreg */\n    tag_11:\n      tag_58\n      tag_59\n      jump\t// in\n    tag_58:\n      mload(0x40)\n      tag_60\n      swap2\n      swap1\n      tag_61\n      jump\t// in\n    tag_60:\n      mload(0x40)\n      dup1\n      swap2\n      sub\n      swap1\n      return\n        /* \"verifyinst.sol\":1283:1406  function getAddresByName(string memory name) public view returns (address){... */\n    tag_12:\n      tag_62\n      0x04\n      dup1\n      calldatasize\n      sub\n      dup2\n      add\n      swap1\n      tag_63\n      swap2\n      swap1\n      tag_64\n      jump\t// in\n    tag_63:\n      tag_65\n      jump\t// in\n    tag_62:\n      mload(0x40)\n      tag_66\n      swap2\n      swap1\n      tag_39\n      jump\t// in\n    tag_66:\n      mload(0x40)\n      dup1\n      swap2\n      sub\n      swap1\n      return\n        /* \"verifyinst.sol\":1566:1694  function getPendingInstitutesCount() public view returns (uint256) {... */\n    tag_13:\n      tag_67\n      tag_68\n      jump\t// in\n    tag_67:\n      mload(0x40)\n      tag_69\n      swap2\n      swap1\n      tag_35\n      jump\t// in\n    tag_69:\n      mload(0x40)\n      dup1\n      swap2\n      sub\n      swap1\n      return\n        /* \"verifyinst.sol\":2177:2346  function getinstitutesContractByAddress(... */\n    tag_14:\n      tag_70\n      0x04\n      dup1\n      calldatasize\n      sub\n      dup2\n      add\n      swap1\n      tag_71\n      swap2\n      swap1\n      tag_22\n      jump\t// in\n    tag_71:\n      tag_72\n      jump\t// in\n    tag_70:\n      mload(0x40)\n      tag_73\n      swap2\n      swap1\n      tag_39\n      jump\t// in\n    tag_73:\n      mload(0x40)\n      dup1\n      swap2\n      sub\n      swap1\n      return\n        /* \"verifyinst.sol\":532:582  mapping(string =>address) public instNameToAddress */\n    tag_15:\n      tag_74\n      0x04\n      dup1\n      calldatasize\n      sub\n      dup2\n      add\n      swap1\n      tag_75\n      swap2\n      swap1\n      tag_64\n      jump\t// in\n    tag_75:\n      tag_76\n      jump\t// in\n    tag_74:\n      mload(0x40)\n      tag_77\n      swap2\n      swap1\n      tag_39\n      jump\t// in\n    tag_77:\n      mload(0x40)\n      dup1\n      swap2\n      sub\n      swap1\n      return\n        /* \"verifyinst.sol\":2060:2169  function instituteCount() public view returns (uint256) {... */\n    tag_16:\n      tag_78\n      tag_79\n      jump\t// in\n    tag_78:\n      mload(0x40)\n      tag_80\n      swap2\n      swap1\n      tag_35\n      jump\t// in\n    tag_80:\n      mload(0x40)\n      dup1\n      swap2\n      sub\n      swap1\n      return\n        /* \"verifyinst.sol\":1905:2052  function isinstitute(address _institutes) public view returns (bool) {... */\n    tag_23:\n        /* \"verifyinst.sol\":1968:1972  bool */\n      0x00\n        /* \"verifyinst.sol\":2040:2043  0x0 */\n      dup1\n        /* \"verifyinst.sol\":1992:2044  registeredinstitutesmap[_institutes] != address(0x0) */\n      0xffffffffffffffffffffffffffffffffffffffff\n      and\n        /* \"verifyinst.sol\":1992:2015  registeredinstitutesmap */\n      0x03\n        /* \"verifyinst.sol\":1992:2028  registeredinstitutesmap[_institutes] */\n      0x00\n        /* \"verifyinst.sol\":2016:2027  _institutes */\n      dup5\n        /* \"verifyinst.sol\":1992:2028  registeredinstitutesmap[_institutes] */\n      0xffffffffffffffffffffffffffffffffffffffff\n      and\n      0xffffffffffffffffffffffffffffffffffffffff\n      and\n      dup2\n      mstore\n      0x20\n      add\n      swap1\n      dup2\n      mstore\n      0x20\n      add\n      0x00\n      keccak256\n      0x00\n      swap1\n      sload\n      swap1\n      0x0100\n      exp\n      swap1\n      div\n      0xffffffffffffffffffffffffffffffffffffffff\n      and\n        /* \"verifyinst.sol\":1992:2044  registeredinstitutesmap[_institutes] != address(0x0) */\n      0xffffffffffffffffffffffffffffffffffffffff\n      and\n      eq\n      iszero\n        /* \"verifyinst.sol\":1985:2044  return registeredinstitutesmap[_institutes] != address(0x0) */\n      swap1\n      pop\n        /* \"verifyinst.sol\":1905:2052  function isinstitute(address _institutes) public view returns (bool) {... */\n      swap2\n      swap1\n      pop\n      jump\t// out\n        /* \"verifyinst.sol\":427:460  string[] public institution_names */\n    tag_29:\n      0x02\n      dup2\n      dup2\n      sload\n      dup2\n      lt\n      tag_82\n      jumpi\n      0x00\n      dup1\n      revert\n    tag_82:\n      swap1\n      0x00\n      mstore\n      keccak256(0x00, 0x20)\n      add\n      0x00\n      swap2\n      pop\n      swap1\n      pop\n      dup1\n      sload\n      tag_84\n      swap1\n      tag_85\n      jump\t// in\n    tag_84:\n      dup1\n      0x1f\n      add\n      0x20\n      dup1\n      swap2\n      div\n      mul\n      0x20\n      add\n      mload(0x40)\n      swap1\n      dup2\n      add\n      0x40\n      mstore\n      dup1\n      swap3\n      swap2\n      swap1\n      dup2\n      dup2\n      mstore\n      0x20\n      add\n      dup3\n      dup1\n      sload\n      tag_86\n      swap1\n      tag_85\n      jump\t// in\n    tag_86:\n      dup1\n      iszero\n      tag_87\n      jumpi\n      dup1\n      0x1f\n      lt\n      tag_88\n      jumpi\n      0x0100\n      dup1\n      dup4\n      sload\n      div\n      mul\n      dup4\n      mstore\n      swap2\n      0x20\n      add\n      swap2\n      jump(tag_87)\n    tag_88:\n      dup3\n      add\n      swap2\n      swap1\n      0x00\n      mstore\n      keccak256(0x00, 0x20)\n      swap1\n    tag_89:\n      dup2\n      sload\n      dup2\n      mstore\n      swap1\n      0x01\n      add\n      swap1\n      0x20\n      add\n      dup1\n      dup4\n      gt\n      tag_89\n      jumpi\n      dup3\n      swap1\n      sub\n      0x1f\n      and\n      dup3\n      add\n      swap2\n    tag_87:\n      pop\n      pop\n      pop\n      pop\n      pop\n      dup2\n      jump\t// out\n        /* \"verifyinst.sol\":1167:1277  function getInstitutesCount() public view returns (uint256) {... */\n    tag_33:\n        /* \"verifyinst.sol\":1218:1225  uint256 */\n      0x00\n        /* \"verifyinst.sol\":1245:1262  institution_names */\n      0x02\n        /* \"verifyinst.sol\":1245:1269  institution_names.length */\n      dup1\n      sload\n      swap1\n      pop\n        /* \"verifyinst.sol\":1238:1269  return institution_names.length */\n      swap1\n      pop\n        /* \"verifyinst.sol\":1167:1277  function getInstitutesCount() public view returns (uint256) {... */\n      swap1\n      jump\t// out\n        /* \"verifyinst.sol\":148:166  address public MOE */\n    tag_37:\n      0x00\n      dup1\n      sload\n      swap1\n      0x0100\n      exp\n      swap1\n      div\n      0xffffffffffffffffffffffffffffffffffffffff\n      and\n      dup2\n      jump\t// out\n        /* \"verifyinst.sol\":628:1161  function verifyInstitution(bytes32 key, uint256 index,address newinst) public onlyMOE {... */\n    tag_43:\n        /* \"verifyinst.sol\":397:400  MOE */\n      0x00\n      dup1\n      sload\n      swap1\n      0x0100\n      exp\n      swap1\n      div\n      0xffffffffffffffffffffffffffffffffffffffff\n      and\n        /* \"verifyinst.sol\":383:400  msg.sender == MOE */\n      0xffffffffffffffffffffffffffffffffffffffff\n      and\n        /* \"verifyinst.sol\":383:393  msg.sender */\n      caller\n        /* \"verifyinst.sol\":383:400  msg.sender == MOE */\n      0xffffffffffffffffffffffffffffffffffffffff\n      and\n      eq\n        /* \"verifyinst.sol\":375:401  require(msg.sender == MOE) */\n      tag_92\n      jumpi\n      0x00\n      dup1\n      revert\n    tag_92:\n        /* \"verifyinst.sol\":740:768  string memory institute_name */\n      0x00\n        /* \"verifyinst.sol\":783:808  address institute_address */\n      dup1\n        /* \"verifyinst.sol\":824:831  instreg */\n      0x01\n      0x00\n      swap1\n      sload\n      swap1\n      0x0100\n      exp\n      swap1\n      div\n      0xffffffffffffffffffffffffffffffffffffffff\n      and\n        /* \"verifyinst.sol\":824:856  instreg.getPendingInstituteByKey */\n      0xffffffffffffffffffffffffffffffffffffffff\n      and\n      0x6dd7e0b3\n        /* \"verifyinst.sol\":857:860  key */\n      dup7\n        /* \"verifyinst.sol\":824:861  instreg.getPendingInstituteByKey(key) */\n      mload(0x40)\n      dup3\n      0xffffffff\n      and\n      0xe0\n      shl\n      dup2\n      mstore\n      0x04\n      add\n      tag_94\n      swap2\n      swap1\n      tag_95\n      jump\t// in\n    tag_94:\n      0x00\n      mload(0x40)\n      dup1\n      dup4\n      sub\n      dup2\n      dup7\n      gas\n      staticcall\n      iszero\n      dup1\n      iszero\n      tag_97\n      jumpi\n      returndatasize\n      0x00\n      dup1\n      returndatacopy\n      revert(0x00, returndatasize)\n    tag_97:\n      pop\n      pop\n      pop\n      pop\n      mload(0x40)\n      returndatasize\n      0x00\n      dup3\n      returndatacopy\n      returndatasize\n      not(0x1f)\n      0x1f\n      dup3\n      add\n      and\n      dup3\n      add\n      dup1\n      0x40\n      mstore\n      pop\n      dup2\n      add\n      swap1\n      tag_98\n      swap2\n      swap1\n      tag_99\n      jump\t// in\n    tag_98:\n        /* \"verifyinst.sol\":725:861  (... */\n      pop\n      pop\n      swap2\n      pop\n      swap2\n      pop\n        /* \"verifyinst.sol\":927:934  newinst */\n      dup3\n        /* \"verifyinst.sol\":882:905  registeredinstitutesmap */\n      0x03\n        /* \"verifyinst.sol\":882:924  registeredinstitutesmap[institute_address] */\n      0x00\n        /* \"verifyinst.sol\":906:923  institute_address */\n      dup4\n        /* \"verifyinst.sol\":882:924  registeredinstitutesmap[institute_address] */\n      0xffffffffffffffffffffffffffffffffffffffff\n      and\n      0xffffffffffffffffffffffffffffffffffffffff\n      and\n      dup2\n      mstore\n      0x20\n      add\n      swap1\n      dup2\n      mstore\n      0x20\n      add\n      0x00\n      keccak256\n      0x00\n        /* \"verifyinst.sol\":882:934  registeredinstitutesmap[institute_address] = newinst */\n      0x0100\n      exp\n      dup2\n      sload\n      dup2\n      0xffffffffffffffffffffffffffffffffffffffff\n      mul\n      not\n      and\n      swap1\n      dup4\n      0xffffffffffffffffffffffffffffffffffffffff\n      and\n      mul\n      or\n      swap1\n      sstore\n      pop\n        /* \"verifyinst.sol\":945:965  registeredinstitutes */\n      0x05\n        /* \"verifyinst.sol\":971:988  institute_address */\n      dup2\n        /* \"verifyinst.sol\":945:989  registeredinstitutes.push(institute_address) */\n      swap1\n      dup1\n      0x01\n      dup2\n      sload\n      add\n      dup1\n      dup3\n      sstore\n      dup1\n      swap2\n      pop\n      pop\n      0x01\n      swap1\n      sub\n      swap1\n      0x00\n      mstore\n      keccak256(0x00, 0x20)\n      add\n      0x00\n      swap1\n      swap2\n      swap1\n      swap2\n      swap1\n      swap2\n      0x0100\n      exp\n      dup2\n      sload\n      dup2\n      0xffffffffffffffffffffffffffffffffffffffff\n      mul\n      not\n      and\n      swap1\n      dup4\n      0xffffffffffffffffffffffffffffffffffffffff\n      and\n      mul\n      or\n      swap1\n      sstore\n      pop\n        /* \"verifyinst.sol\":1000:1007  instreg */\n      0x01\n      0x00\n      swap1\n      sload\n      swap1\n      0x0100\n      exp\n      swap1\n      div\n      0xffffffffffffffffffffffffffffffffffffffff\n      and\n        /* \"verifyinst.sol\":1000:1030  instreg.removePendingInstitute */\n      0xffffffffffffffffffffffffffffffffffffffff\n      and\n      0x81dd1fa2\n        /* \"verifyinst.sol\":1031:1034  key */\n      dup7\n        /* \"verifyinst.sol\":1036:1041  index */\n      dup7\n        /* \"verifyinst.sol\":1000:1042  instreg.removePendingInstitute(key, index) */\n      mload(0x40)\n      dup4\n      0xffffffff\n      and\n      0xe0\n      shl\n      dup2\n      mstore\n      0x04\n      add\n      tag_101\n      swap3\n      swap2\n      swap1\n      tag_102\n      jump\t// in\n    tag_101:\n      0x00\n      mload(0x40)\n      dup1\n      dup4\n      sub\n      dup2\n      0x00\n      dup8\n      dup1\n      extcodesize\n      iszero\n      dup1\n      iszero\n      tag_103\n      jumpi\n      0x00\n      dup1\n      revert\n    tag_103:\n      pop\n      gas\n      call\n      iszero\n      dup1\n      iszero\n      tag_105\n      jumpi\n      returndatasize\n      0x00\n      dup1\n      returndatacopy\n      revert(0x00, returndatasize)\n    tag_105:\n      pop\n      pop\n      pop\n      pop\n        /* \"verifyinst.sol\":1087:1104  institute_address */\n      dup1\n        /* \"verifyinst.sol\":1053:1070  instNameToAddress */\n      0x04\n        /* \"verifyinst.sol\":1071:1085  institute_name */\n      dup4\n        /* \"verifyinst.sol\":1053:1086  instNameToAddress[institute_name] */\n      mload(0x40)\n      tag_106\n      swap2\n      swap1\n      tag_107\n      jump\t// in\n    tag_106:\n      swap1\n      dup2\n      mstore\n      0x20\n      add\n      mload(0x40)\n      dup1\n      swap2\n      sub\n      swap1\n      keccak256\n      0x00\n        /* \"verifyinst.sol\":1053:1104  instNameToAddress[institute_name]=institute_address */\n      0x0100\n      exp\n      dup2\n      sload\n      dup2\n      0xffffffffffffffffffffffffffffffffffffffff\n      mul\n      not\n      and\n      swap1\n      dup4\n      0xffffffffffffffffffffffffffffffffffffffff\n      and\n      mul\n      or\n      swap1\n      sstore\n      pop\n        /* \"verifyinst.sol\":1115:1132  institution_names */\n      0x02\n        /* \"verifyinst.sol\":1138:1152  institute_name */\n      dup3\n        /* \"verifyinst.sol\":1115:1153  institution_names.push(institute_name) */\n      swap1\n      dup1\n      0x01\n      dup2\n      sload\n      add\n      dup1\n      dup3\n      sstore\n      dup1\n      swap2\n      pop\n      pop\n      0x01\n      swap1\n      sub\n      swap1\n      0x00\n      mstore\n      keccak256(0x00, 0x20)\n      add\n      0x00\n      swap1\n      swap2\n      swap1\n      swap2\n      swap1\n      swap2\n      pop\n      swap1\n      dup1\n      mload\n      swap1\n      0x20\n      add\n      swap1\n      tag_109\n      swap3\n      swap2\n      swap1\n      tag_110\n      jump\t// in\n    tag_109:\n      pop\n        /* \"verifyinst.sol\":714:1161  {... */\n      pop\n      pop\n        /* \"verifyinst.sol\":628:1161  function verifyInstitution(bytes32 key, uint256 index,address newinst) public onlyMOE {... */\n      pop\n      pop\n      pop\n      jump\t// out\n        /* \"verifyinst.sol\":1702:1897  function getPendingInstituteByKey(... */\n    tag_47:\n        /* \"verifyinst.sol\":1786:1799  string memory */\n      0x60\n        /* \"verifyinst.sol\":1801:1808  address */\n      0x00\n        /* \"verifyinst.sol\":1810:1823  string memory */\n      0x60\n        /* \"verifyinst.sol\":1825:1832  address */\n      0x00\n        /* \"verifyinst.sol\":1852:1859  instreg */\n      0x01\n      0x00\n      swap1\n      sload\n      swap1\n      0x0100\n      exp\n      swap1\n      div\n      0xffffffffffffffffffffffffffffffffffffffff\n      and\n        /* \"verifyinst.sol\":1852:1884  instreg.getPendingInstituteByKey */\n      0xffffffffffffffffffffffffffffffffffffffff\n      and\n      0x6dd7e0b3\n        /* \"verifyinst.sol\":1885:1888  key */\n      dup7\n        /* \"verifyinst.sol\":1852:1889  instreg.getPendingInstituteByKey(key) */\n      mload(0x40)\n      dup3\n      0xffffffff\n      and\n      0xe0\n      shl\n      dup2\n      mstore\n      0x04\n      add\n      tag_112\n      swap2\n      swap1\n      tag_95\n      jump\t// in\n    tag_112:\n      0x00\n      mload(0x40)\n      dup1\n      dup4\n      sub\n      dup2\n      dup7\n      gas\n      staticcall\n      iszero\n      dup1\n      iszero\n      tag_114\n      jumpi\n      returndatasize\n      0x00\n      dup1\n      returndatacopy\n      revert(0x00, returndatasize)\n    tag_114:\n      pop\n      pop\n      pop\n      pop\n      mload(0x40)\n      returndatasize\n      0x00\n      dup3\n      returndatacopy\n      returndatasize\n      not(0x1f)\n      0x1f\n      dup3\n      add\n      and\n      dup3\n      add\n      dup1\n      0x40\n      mstore\n      pop\n      dup2\n      add\n      swap1\n      tag_115\n      swap2\n      swap1\n      tag_99\n      jump\t// in\n    tag_115:\n        /* \"verifyinst.sol\":1845:1889  return instreg.getPendingInstituteByKey(key) */\n      swap4\n      pop\n      swap4\n      pop\n      swap4\n      pop\n      swap4\n      pop\n        /* \"verifyinst.sol\":1702:1897  function getPendingInstituteByKey(... */\n      swap2\n      swap4\n      pop\n      swap2\n      swap4\n      jump\t// out\n        /* \"verifyinst.sol\":467:525  mapping(address => address) public registeredinstitutesmap */\n    tag_52:\n      mstore(0x20, 0x03)\n      dup1\n      0x00\n      mstore\n      keccak256(0x00, 0x40)\n      0x00\n      swap2\n      pop\n      sload\n      swap1\n      0x0100\n      exp\n      swap1\n      div\n      0xffffffffffffffffffffffffffffffffffffffff\n      and\n      dup2\n      jump\t// out\n        /* \"verifyinst.sol\":1412:1558  function getInstituteByIndex(... */\n    tag_56:\n        /* \"verifyinst.sol\":1493:1506  string memory */\n      0x60\n        /* \"verifyinst.sol\":1526:1543  institution_names */\n      0x02\n        /* \"verifyinst.sol\":1544:1549  index */\n      dup3\n        /* \"verifyinst.sol\":1526:1550  institution_names[index] */\n      dup2\n      sload\n      dup2\n      lt\n      tag_117\n      jumpi\n      tag_118\n      tag_119\n      jump\t// in\n    tag_118:\n    tag_117:\n      swap1\n      0x00\n      mstore\n      keccak256(0x00, 0x20)\n      add\n        /* \"verifyinst.sol\":1519:1550  return institution_names[index] */\n      dup1\n      sload\n      tag_121\n      swap1\n      tag_85\n      jump\t// in\n    tag_121:\n      dup1\n      0x1f\n      add\n      0x20\n      dup1\n      swap2\n      div\n      mul\n      0x20\n      add\n      mload(0x40)\n      swap1\n      dup2\n      add\n      0x40\n      mstore\n      dup1\n      swap3\n      swap2\n      swap1\n      dup2\n      dup2\n      mstore\n      0x20\n      add\n      dup3\n      dup1\n      sload\n      tag_122\n      swap1\n      tag_85\n      jump\t// in\n    tag_122:\n      dup1\n      iszero\n      tag_123\n      jumpi\n      dup1\n      0x1f\n      lt\n      tag_124\n      jumpi\n      0x0100\n      dup1\n      dup4\n      sload\n      div\n      mul\n      dup4\n      mstore\n      swap2\n      0x20\n      add\n      swap2\n      jump(tag_123)\n    tag_124:\n      dup3\n      add\n      swap2\n      swap1\n      0x00\n      mstore\n      keccak256(0x00, 0x20)\n      swap1\n    tag_125:\n      dup2\n      sload\n      dup2\n      mstore\n      swap1\n      0x01\n      add\n      swap1\n      0x20\n      add\n      dup1\n      dup4\n      gt\n      tag_125\n      jumpi\n      dup3\n      swap1\n      sub\n      0x1f\n      and\n      dup3\n      add\n      swap2\n    tag_123:\n      pop\n      pop\n      pop\n      pop\n      pop\n      swap1\n      pop\n        /* \"verifyinst.sol\":1412:1558  function getInstituteByIndex(... */\n      swap2\n      swap1\n      pop\n      jump\t// out\n        /* \"verifyinst.sol\":173:200  registerInst public instreg */\n    tag_59:\n      0x01\n      0x00\n      swap1\n      sload\n      swap1\n      0x0100\n      exp\n      swap1\n      div\n      0xffffffffffffffffffffffffffffffffffffffff\n      and\n      dup2\n      jump\t// out\n        /* \"verifyinst.sol\":1283:1406  function getAddresByName(string memory name) public view returns (address){... */\n    tag_65:\n        /* \"verifyinst.sol\":1349:1356  address */\n      0x00\n        /* \"verifyinst.sol\":1375:1392  instNameToAddress */\n      0x04\n        /* \"verifyinst.sol\":1393:1397  name */\n      dup3\n        /* \"verifyinst.sol\":1375:1398  instNameToAddress[name] */\n      mload(0x40)\n      tag_127\n      swap2\n      swap1\n      tag_107\n      jump\t// in\n    tag_127:\n      swap1\n      dup2\n      mstore\n      0x20\n      add\n      mload(0x40)\n      dup1\n      swap2\n      sub\n      swap1\n      keccak256\n      0x00\n      swap1\n      sload\n      swap1\n      0x0100\n      exp\n      swap1\n      div\n      0xffffffffffffffffffffffffffffffffffffffff\n      and\n        /* \"verifyinst.sol\":1368:1398  return instNameToAddress[name] */\n      swap1\n      pop\n        /* \"verifyinst.sol\":1283:1406  function getAddresByName(string memory name) public view returns (address){... */\n      swap2\n      swap1\n      pop\n      jump\t// out\n        /* \"verifyinst.sol\":1566:1694  function getPendingInstitutesCount() public view returns (uint256) {... */\n    tag_68:\n        /* \"verifyinst.sol\":1624:1631  uint256 */\n      0x00\n        /* \"verifyinst.sol\":1651:1658  instreg */\n      0x01\n      0x00\n      swap1\n      sload\n      swap1\n      0x0100\n      exp\n      swap1\n      div\n      0xffffffffffffffffffffffffffffffffffffffff\n      and\n        /* \"verifyinst.sol\":1651:1684  instreg.getPendingInstitutesCount */\n      0xffffffffffffffffffffffffffffffffffffffff\n      and\n      0xe6781079\n        /* \"verifyinst.sol\":1651:1686  instreg.getPendingInstitutesCount() */\n      mload(0x40)\n      dup2\n      0xffffffff\n      and\n      0xe0\n      shl\n      dup2\n      mstore\n      0x04\n      add\n      0x20\n      mload(0x40)\n      dup1\n      dup4\n      sub\n      dup2\n      dup7\n      gas\n      staticcall\n      iszero\n      dup1\n      iszero\n      tag_130\n      jumpi\n      returndatasize\n      0x00\n      dup1\n      returndatacopy\n      revert(0x00, returndatasize)\n    tag_130:\n      pop\n      pop\n      pop\n      pop\n      mload(0x40)\n      returndatasize\n      not(0x1f)\n      0x1f\n      dup3\n      add\n      and\n      dup3\n      add\n      dup1\n      0x40\n      mstore\n      pop\n      dup2\n      add\n      swap1\n      tag_131\n      swap2\n      swap1\n      tag_132\n      jump\t// in\n    tag_131:\n        /* \"verifyinst.sol\":1644:1686  return instreg.getPendingInstitutesCount() */\n      swap1\n      pop\n        /* \"verifyinst.sol\":1566:1694  function getPendingInstitutesCount() public view returns (uint256) {... */\n      swap1\n      jump\t// out\n        /* \"verifyinst.sol\":2177:2346  function getinstitutesContractByAddress(... */\n    tag_72:\n        /* \"verifyinst.sol\":2275:2282  address */\n      0x00\n        /* \"verifyinst.sol\":2302:2325  registeredinstitutesmap */\n      0x03\n        /* \"verifyinst.sol\":2302:2338  registeredinstitutesmap[_institutes] */\n      0x00\n        /* \"verifyinst.sol\":2326:2337  _institutes */\n      dup4\n        /* \"verifyinst.sol\":2302:2338  registeredinstitutesmap[_institutes] */\n      0xffffffffffffffffffffffffffffffffffffffff\n      and\n      0xffffffffffffffffffffffffffffffffffffffff\n      and\n      dup2\n      mstore\n      0x20\n      add\n      swap1\n      dup2\n      mstore\n      0x20\n      add\n      0x00\n      keccak256\n      0x00\n      swap1\n      sload\n      swap1\n      0x0100\n      exp\n      swap1\n      div\n      0xffffffffffffffffffffffffffffffffffffffff\n      and\n        /* \"verifyinst.sol\":2295:2338  return registeredinstitutesmap[_institutes] */\n      swap1\n      pop\n        /* \"verifyinst.sol\":2177:2346  function getinstitutesContractByAddress(... */\n      swap2\n      swap1\n      pop\n      jump\t// out\n        /* \"verifyinst.sol\":532:582  mapping(string =>address) public instNameToAddress */\n    tag_76:\n      0x04\n      dup2\n      dup1\n      mload\n      0x20\n      dup2\n      add\n      dup3\n      add\n      dup1\n      mload\n      dup5\n      dup3\n      mstore\n      0x20\n      dup4\n      add\n      0x20\n      dup6\n      add\n      keccak256\n      dup2\n      dup4\n      mstore\n      dup1\n      swap6\n      pop\n      pop\n      pop\n      pop\n      pop\n      pop\n      0x00\n      swap2\n      pop\n      sload\n      swap1\n      0x0100\n      exp\n      swap1\n      div\n      0xffffffffffffffffffffffffffffffffffffffff\n      and\n      dup2\n      jump\t// out\n        /* \"verifyinst.sol\":2060:2169  function instituteCount() public view returns (uint256) {... */\n    tag_79:\n        /* \"verifyinst.sol\":2107:2114  uint256 */\n      0x00\n        /* \"verifyinst.sol\":2134:2154  registeredinstitutes */\n      0x05\n        /* \"verifyinst.sol\":2134:2161  registeredinstitutes.length */\n      dup1\n      sload\n      swap1\n      pop\n        /* \"verifyinst.sol\":2127:2161  return registeredinstitutes.length */\n      swap1\n      pop\n        /* \"verifyinst.sol\":2060:2169  function instituteCount() public view returns (uint256) {... */\n      swap1\n      jump\t// out\n    tag_110:\n      dup3\n      dup1\n      sload\n      tag_135\n      swap1\n      tag_85\n      jump\t// in\n    tag_135:\n      swap1\n      0x00\n      mstore\n      keccak256(0x00, 0x20)\n      swap1\n      0x1f\n      add\n      0x20\n      swap1\n      div\n      dup2\n      add\n      swap3\n      dup3\n      tag_137\n      jumpi\n      0x00\n      dup6\n      sstore\n      jump(tag_136)\n    tag_137:\n      dup3\n      0x1f\n      lt\n      tag_138\n      jumpi\n      dup1\n      mload\n      not(0xff)\n      and\n      dup4\n      dup1\n      add\n      or\n      dup6\n      sstore\n      jump(tag_136)\n    tag_138:\n      dup3\n      dup1\n      add\n      0x01\n      add\n      dup6\n      sstore\n      dup3\n      iszero\n      tag_136\n      jumpi\n      swap2\n      dup3\n      add\n    tag_139:\n      dup3\n      dup2\n      gt\n      iszero\n      tag_140\n      jumpi\n      dup3\n      mload\n      dup3\n      sstore\n      swap2\n      0x20\n      add\n      swap2\n      swap1\n      0x01\n      add\n      swap1\n      jump(tag_139)\n    tag_140:\n    tag_136:\n      pop\n      swap1\n      pop\n      tag_141\n      swap2\n      swap1\n      tag_142\n      jump\t// in\n    tag_141:\n      pop\n      swap1\n      jump\t// out\n    tag_142:\n    tag_143:\n      dup1\n      dup3\n      gt\n      iszero\n      tag_144\n      jumpi\n      0x00\n      dup2\n      0x00\n      swap1\n      sstore\n      pop\n      0x01\n      add\n      jump(tag_143)\n    tag_144:\n      pop\n      swap1\n      jump\t// out\n        /* \"#utility.yul\":7:82   */\n    tag_145:\n        /* \"#utility.yul\":40:46   */\n      0x00\n        /* \"#utility.yul\":73:75   */\n      0x40\n        /* \"#utility.yul\":67:76   */\n      mload\n        /* \"#utility.yul\":57:76   */\n      swap1\n      pop\n        /* \"#utility.yul\":7:82   */\n      swap1\n      jump\t// out\n        /* \"#utility.yul\":88:205   */\n    tag_146:\n        /* \"#utility.yul\":197:198   */\n      0x00\n        /* \"#utility.yul\":194:195   */\n      dup1\n        /* \"#utility.yul\":187:199   */\n      revert\n        /* \"#utility.yul\":211:328   */\n    tag_147:\n        /* \"#utility.yul\":320:321   */\n      0x00\n        /* \"#utility.yul\":317:318   */\n      dup1\n        /* \"#utility.yul\":310:322   */\n      revert\n        /* \"#utility.yul\":334:460   */\n    tag_148:\n        /* \"#utility.yul\":371:378   */\n      0x00\n        /* \"#utility.yul\":411:453   */\n      0xffffffffffffffffffffffffffffffffffffffff\n        /* \"#utility.yul\":404:409   */\n      dup3\n        /* \"#utility.yul\":400:454   */\n      and\n        /* \"#utility.yul\":389:454   */\n      swap1\n      pop\n        /* \"#utility.yul\":334:460   */\n      swap2\n      swap1\n      pop\n      jump\t// out\n        /* \"#utility.yul\":466:562   */\n    tag_149:\n        /* \"#utility.yul\":503:510   */\n      0x00\n        /* \"#utility.yul\":532:556   */\n      tag_195\n        /* \"#utility.yul\":550:555   */\n      dup3\n        /* \"#utility.yul\":532:556   */\n      tag_148\n      jump\t// in\n    tag_195:\n        /* \"#utility.yul\":521:556   */\n      swap1\n      pop\n        /* \"#utility.yul\":466:562   */\n      swap2\n      swap1\n      pop\n      jump\t// out\n        /* \"#utility.yul\":568:690   */\n    tag_150:\n        /* \"#utility.yul\":641:665   */\n      tag_197\n        /* \"#utility.yul\":659:664   */\n      dup2\n        /* \"#utility.yul\":641:665   */\n      tag_149\n      jump\t// in\n    tag_197:\n        /* \"#utility.yul\":634:639   */\n      dup2\n        /* \"#utility.yul\":631:666   */\n      eq\n        /* \"#utility.yul\":621:684   */\n      tag_198\n      jumpi\n        /* \"#utility.yul\":680:681   */\n      0x00\n        /* \"#utility.yul\":677:678   */\n      dup1\n        /* \"#utility.yul\":670:682   */\n      revert\n        /* \"#utility.yul\":621:684   */\n    tag_198:\n        /* \"#utility.yul\":568:690   */\n      pop\n      jump\t// out\n        /* \"#utility.yul\":696:835   */\n    tag_151:\n        /* \"#utility.yul\":742:747   */\n      0x00\n        /* \"#utility.yul\":780:786   */\n      dup2\n        /* \"#utility.yul\":767:787   */\n      calldataload\n        /* \"#utility.yul\":758:787   */\n      swap1\n      pop\n        /* \"#utility.yul\":796:829   */\n      tag_200\n        /* \"#utility.yul\":823:828   */\n      dup2\n        /* \"#utility.yul\":796:829   */\n      tag_150\n      jump\t// in\n    tag_200:\n        /* \"#utility.yul\":696:835   */\n      swap3\n      swap2\n      pop\n      pop\n      jump\t// out\n        /* \"#utility.yul\":841:1170   */\n    tag_22:\n        /* \"#utility.yul\":900:906   */\n      0x00\n        /* \"#utility.yul\":949:951   */\n      0x20\n        /* \"#utility.yul\":937:946   */\n      dup3\n        /* \"#utility.yul\":928:935   */\n      dup5\n        /* \"#utility.yul\":924:947   */\n      sub\n        /* \"#utility.yul\":920:952   */\n      slt\n        /* \"#utility.yul\":917:1036   */\n      iszero\n      tag_202\n      jumpi\n        /* \"#utility.yul\":955:1034   */\n      tag_203\n      tag_146\n      jump\t// in\n    tag_203:\n        /* \"#utility.yul\":917:1036   */\n    tag_202:\n        /* \"#utility.yul\":1075:1076   */\n      0x00\n        /* \"#utility.yul\":1100:1153   */\n      tag_204\n        /* \"#utility.yul\":1145:1152   */\n      dup5\n        /* \"#utility.yul\":1136:1142   */\n      dup3\n        /* \"#utility.yul\":1125:1134   */\n      dup6\n        /* \"#utility.yul\":1121:1143   */\n      add\n        /* \"#utility.yul\":1100:1153   */\n      tag_151\n      jump\t// in\n    tag_204:\n        /* \"#utility.yul\":1090:1153   */\n      swap2\n      pop\n        /* \"#utility.yul\":1046:1163   */\n      pop\n        /* \"#utility.yul\":841:1170   */\n      swap3\n      swap2\n      pop\n      pop\n      jump\t// out\n        /* \"#utility.yul\":1176:1266   */\n    tag_152:\n        /* \"#utility.yul\":1210:1217   */\n      0x00\n        /* \"#utility.yul\":1253:1258   */\n      dup2\n        /* \"#utility.yul\":1246:1259   */\n      iszero\n        /* \"#utility.yul\":1239:1260   */\n      iszero\n        /* \"#utility.yul\":1228:1260   */\n      swap1\n      pop\n        /* \"#utility.yul\":1176:1266   */\n      swap2\n      swap1\n      pop\n      jump\t// out\n        /* \"#utility.yul\":1272:1381   */\n    tag_153:\n        /* \"#utility.yul\":1353:1374   */\n      tag_207\n        /* \"#utility.yul\":1368:1373   */\n      dup2\n        /* \"#utility.yul\":1353:1374   */\n      tag_152\n      jump\t// in\n    tag_207:\n        /* \"#utility.yul\":1348:1351   */\n      dup3\n        /* \"#utility.yul\":1341:1375   */\n      mstore\n        /* \"#utility.yul\":1272:1381   */\n      pop\n      pop\n      jump\t// out\n        /* \"#utility.yul\":1387:1597   */\n    tag_25:\n        /* \"#utility.yul\":1474:1478   */\n      0x00\n        /* \"#utility.yul\":1512:1514   */\n      0x20\n        /* \"#utility.yul\":1501:1510   */\n      dup3\n        /* \"#utility.yul\":1497:1515   */\n      add\n        /* \"#utility.yul\":1489:1515   */\n      swap1\n      pop\n        /* \"#utility.yul\":1525:1590   */\n      tag_209\n        /* \"#utility.yul\":1587:1588   */\n      0x00\n        /* \"#utility.yul\":1576:1585   */\n      dup4\n        /* \"#utility.yul\":1572:1589   */\n      add\n        /* \"#utility.yul\":1563:1569   */\n      dup5\n        /* \"#utility.yul\":1525:1590   */\n      tag_153\n      jump\t// in\n    tag_209:\n        /* \"#utility.yul\":1387:1597   */\n      swap3\n      swap2\n      pop\n      pop\n      jump\t// out\n        /* \"#utility.yul\":1603:1680   */\n    tag_154:\n        /* \"#utility.yul\":1640:1647   */\n      0x00\n        /* \"#utility.yul\":1669:1674   */\n      dup2\n        /* \"#utility.yul\":1658:1674   */\n      swap1\n      pop\n        /* \"#utility.yul\":1603:1680   */\n      swap2\n      swap1\n      pop\n      jump\t// out\n        /* \"#utility.yul\":1686:1808   */\n    tag_155:\n        /* \"#utility.yul\":1759:1783   */\n      tag_212\n        /* \"#utility.yul\":1777:1782   */\n      dup2\n        /* \"#utility.yul\":1759:1783   */\n      tag_154\n      jump\t// in\n    tag_212:\n        /* \"#utility.yul\":1752:1757   */\n      dup2\n        /* \"#utility.yul\":1749:1784   */\n      eq\n        /* \"#utility.yul\":1739:1802   */\n      tag_213\n      jumpi\n        /* \"#utility.yul\":1798:1799   */\n      0x00\n        /* \"#utility.yul\":1795:1796   */\n      dup1\n        /* \"#utility.yul\":1788:1800   */\n      revert\n        /* \"#utility.yul\":1739:1802   */\n    tag_213:\n        /* \"#utility.yul\":1686:1808   */\n      pop\n      jump\t// out\n        /* \"#utility.yul\":1814:1953   */\n    tag_156:\n        /* \"#utility.yul\":1860:1865   */\n      0x00\n        /* \"#utility.yul\":1898:1904   */\n      dup2\n        /* \"#utility.yul\":1885:1905   */\n      calldataload\n        /* \"#utility.yul\":1876:1905   */\n      swap1\n      pop\n        /* \"#utility.yul\":1914:1947   */\n      tag_215\n        /* \"#utility.yul\":1941:1946   */\n      dup2\n        /* \"#utility.yul\":1914:1947   */\n      tag_155\n      jump\t// in\n    tag_215:\n        /* \"#utility.yul\":1814:1953   */\n      swap3\n      swap2\n      pop\n      pop\n      jump\t// out\n        /* \"#utility.yul\":1959:2288   */\n    tag_28:\n        /* \"#utility.yul\":2018:2024   */\n      0x00\n        /* \"#utility.yul\":2067:2069   */\n      0x20\n        /* \"#utility.yul\":2055:2064   */\n      dup3\n        /* \"#utility.yul\":2046:2053   */\n      dup5\n        /* \"#utility.yul\":2042:2065   */\n      sub\n        /* \"#utility.yul\":2038:2070   */\n      slt\n        /* \"#utility.yul\":2035:2154   */\n      iszero\n      tag_217\n      jumpi\n        /* \"#utility.yul\":2073:2152   */\n      tag_218\n      tag_146\n      jump\t// in\n    tag_218:\n        /* \"#utility.yul\":2035:2154   */\n    tag_217:\n        /* \"#utility.yul\":2193:2194   */\n      0x00\n        /* \"#utility.yul\":2218:2271   */\n      tag_219\n        /* \"#utility.yul\":2263:2270   */\n      dup5\n        /* \"#utility.yul\":2254:2260   */\n      dup3\n        /* \"#utility.yul\":2243:2252   */\n      dup6\n        /* \"#utility.yul\":2239:2261   */\n      add\n        /* \"#utility.yul\":2218:2271   */\n      tag_156\n      jump\t// in\n    tag_219:\n        /* \"#utility.yul\":2208:2271   */\n      swap2\n      pop\n        /* \"#utility.yul\":2164:2281   */\n      pop\n        /* \"#utility.yul\":1959:2288   */\n      swap3\n      swap2\n      pop\n      pop\n      jump\t// out\n        /* \"#utility.yul\":2294:2393   */\n    tag_157:\n        /* \"#utility.yul\":2346:2352   */\n      0x00\n        /* \"#utility.yul\":2380:2385   */\n      dup2\n        /* \"#utility.yul\":2374:2386   */\n      mload\n        /* \"#utility.yul\":2364:2386   */\n      swap1\n      pop\n        /* \"#utility.yul\":2294:2393   */\n      swap2\n      swap1\n      pop\n      jump\t// out\n        /* \"#utility.yul\":2399:2568   */\n    tag_158:\n        /* \"#utility.yul\":2483:2494   */\n      0x00\n        /* \"#utility.yul\":2517:2523   */\n      dup3\n        /* \"#utility.yul\":2512:2515   */\n      dup3\n        /* \"#utility.yul\":2505:2524   */\n      mstore\n        /* \"#utility.yul\":2557:2561   */\n      0x20\n        /* \"#utility.yul\":2552:2555   */\n      dup3\n        /* \"#utility.yul\":2548:2562   */\n      add\n        /* \"#utility.yul\":2533:2562   */\n      swap1\n      pop\n        /* \"#utility.yul\":2399:2568   */\n      swap3\n      swap2\n      pop\n      pop\n      jump\t// out\n        /* \"#utility.yul\":2574:2881   */\n    tag_159:\n        /* \"#utility.yul\":2642:2643   */\n      0x00\n        /* \"#utility.yul\":2652:2765   */\n    tag_223:\n        /* \"#utility.yul\":2666:2672   */\n      dup4\n        /* \"#utility.yul\":2663:2664   */\n      dup2\n        /* \"#utility.yul\":2660:2673   */\n      lt\n        /* \"#utility.yul\":2652:2765   */\n      iszero\n      tag_225\n      jumpi\n        /* \"#utility.yul\":2751:2752   */\n      dup1\n        /* \"#utility.yul\":2746:2749   */\n      dup3\n        /* \"#utility.yul\":2742:2753   */\n      add\n        /* \"#utility.yul\":2736:2754   */\n      mload\n        /* \"#utility.yul\":2732:2733   */\n      dup2\n        /* \"#utility.yul\":2727:2730   */\n      dup5\n        /* \"#utility.yul\":2723:2734   */\n      add\n        /* \"#utility.yul\":2716:2755   */\n      mstore\n        /* \"#utility.yul\":2688:2690   */\n      0x20\n        /* \"#utility.yul\":2685:2686   */\n      dup2\n        /* \"#utility.yul\":2681:2691   */\n      add\n        /* \"#utility.yul\":2676:2691   */\n      swap1\n      pop\n        /* \"#utility.yul\":2652:2765   */\n      jump(tag_223)\n    tag_225:\n        /* \"#utility.yul\":2783:2789   */\n      dup4\n        /* \"#utility.yul\":2780:2781   */\n      dup2\n        /* \"#utility.yul\":2777:2790   */\n      gt\n        /* \"#utility.yul\":2774:2875   */\n      iszero\n      tag_226\n      jumpi\n        /* \"#utility.yul\":2863:2864   */\n      0x00\n        /* \"#utility.yul\":2854:2860   */\n      dup5\n        /* \"#utility.yul\":2849:2852   */\n      dup5\n        /* \"#utility.yul\":2845:2861   */\n      add\n        /* \"#utility.yul\":2838:2865   */\n      mstore\n        /* \"#utility.yul\":2774:2875   */\n    tag_226:\n        /* \"#utility.yul\":2623:2881   */\n      pop\n        /* \"#utility.yul\":2574:2881   */\n      pop\n      pop\n      pop\n      jump\t// out\n        /* \"#utility.yul\":2887:2989   */\n    tag_160:\n        /* \"#utility.yul\":2928:2934   */\n      0x00\n        /* \"#utility.yul\":2979:2981   */\n      0x1f\n        /* \"#utility.yul\":2975:2982   */\n      not\n        /* \"#utility.yul\":2970:2972   */\n      0x1f\n        /* \"#utility.yul\":2963:2968   */\n      dup4\n        /* \"#utility.yul\":2959:2973   */\n      add\n        /* \"#utility.yul\":2955:2983   */\n      and\n        /* \"#utility.yul\":2945:2983   */\n      swap1\n      pop\n        /* \"#utility.yul\":2887:2989   */\n      swap2\n      swap1\n      pop\n      jump\t// out\n        /* \"#utility.yul\":2995:3359   */\n    tag_161:\n        /* \"#utility.yul\":3083:3086   */\n      0x00\n        /* \"#utility.yul\":3111:3150   */\n      tag_229\n        /* \"#utility.yul\":3144:3149   */\n      dup3\n        /* \"#utility.yul\":3111:3150   */\n      tag_157\n      jump\t// in\n    tag_229:\n        /* \"#utility.yul\":3166:3237   */\n      tag_230\n        /* \"#utility.yul\":3230:3236   */\n      dup2\n        /* \"#utility.yul\":3225:3228   */\n      dup6\n        /* \"#utility.yul\":3166:3237   */\n      tag_158\n      jump\t// in\n    tag_230:\n        /* \"#utility.yul\":3159:3237   */\n      swap4\n      pop\n        /* \"#utility.yul\":3246:3298   */\n      tag_231\n        /* \"#utility.yul\":3291:3297   */\n      dup2\n        /* \"#utility.yul\":3286:3289   */\n      dup6\n        /* \"#utility.yul\":3279:3283   */\n      0x20\n        /* \"#utility.yul\":3272:3277   */\n      dup7\n        /* \"#utility.yul\":3268:3284   */\n      add\n        /* \"#utility.yul\":3246:3298   */\n      tag_159\n      jump\t// in\n    tag_231:\n        /* \"#utility.yul\":3323:3352   */\n      tag_232\n        /* \"#utility.yul\":3345:3351   */\n      dup2\n        /* \"#utility.yul\":3323:3352   */\n      tag_160\n      jump\t// in\n    tag_232:\n        /* \"#utility.yul\":3318:3321   */\n      dup5\n        /* \"#utility.yul\":3314:3353   */\n      add\n        /* \"#utility.yul\":3307:3353   */\n      swap2\n      pop\n        /* \"#utility.yul\":3087:3359   */\n      pop\n        /* \"#utility.yul\":2995:3359   */\n      swap3\n      swap2\n      pop\n      pop\n      jump\t// out\n        /* \"#utility.yul\":3365:3678   */\n    tag_31:\n        /* \"#utility.yul\":3478:3482   */\n      0x00\n        /* \"#utility.yul\":3516:3518   */\n      0x20\n        /* \"#utility.yul\":3505:3514   */\n      dup3\n        /* \"#utility.yul\":3501:3519   */\n      add\n        /* \"#utility.yul\":3493:3519   */\n      swap1\n      pop\n        /* \"#utility.yul\":3565:3574   */\n      dup2\n        /* \"#utility.yul\":3559:3563   */\n      dup2\n        /* \"#utility.yul\":3555:3575   */\n      sub\n        /* \"#utility.yul\":3551:3552   */\n      0x00\n        /* \"#utility.yul\":3540:3549   */\n      dup4\n        /* \"#utility.yul\":3536:3553   */\n      add\n        /* \"#utility.yul\":3529:3576   */\n      mstore\n        /* \"#utility.yul\":3593:3671   */\n      tag_234\n        /* \"#utility.yul\":3666:3670   */\n      dup2\n        /* \"#utility.yul\":3657:3663   */\n      dup5\n        /* \"#utility.yul\":3593:3671   */\n      tag_161\n      jump\t// in\n    tag_234:\n        /* \"#utility.yul\":3585:3671   */\n      swap1\n      pop\n        /* \"#utility.yul\":3365:3678   */\n      swap3\n      swap2\n      pop\n      pop\n      jump\t// out\n        /* \"#utility.yul\":3684:3802   */\n    tag_162:\n        /* \"#utility.yul\":3771:3795   */\n      tag_236\n        /* \"#utility.yul\":3789:3794   */\n      dup2\n        /* \"#utility.yul\":3771:3795   */\n      tag_154\n      jump\t// in\n    tag_236:\n        /* \"#utility.yul\":3766:3769   */\n      dup3\n        /* \"#utility.yul\":3759:3796   */\n      mstore\n        /* \"#utility.yul\":3684:3802   */\n      pop\n      pop\n      jump\t// out\n        /* \"#utility.yul\":3808:4030   */\n    tag_35:\n        /* \"#utility.yul\":3901:3905   */\n      0x00\n        /* \"#utility.yul\":3939:3941   */\n      0x20\n        /* \"#utility.yul\":3928:3937   */\n      dup3\n        /* \"#utility.yul\":3924:3942   */\n      add\n        /* \"#utility.yul\":3916:3942   */\n      swap1\n      pop\n        /* \"#utility.yul\":3952:4023   */\n      tag_238\n        /* \"#utility.yul\":4020:4021   */\n      0x00\n        /* \"#utility.yul\":4009:4018   */\n      dup4\n        /* \"#utility.yul\":4005:4022   */\n      add\n        /* \"#utility.yul\":3996:4002   */\n      dup5\n        /* \"#utility.yul\":3952:4023   */\n      tag_162\n      jump\t// in\n    tag_238:\n        /* \"#utility.yul\":3808:4030   */\n      swap3\n      swap2\n      pop\n      pop\n      jump\t// out\n        /* \"#utility.yul\":4036:4154   */\n    tag_163:\n        /* \"#utility.yul\":4123:4147   */\n      tag_240\n        /* \"#utility.yul\":4141:4146   */\n      dup2\n        /* \"#utility.yul\":4123:4147   */\n      tag_149\n      jump\t// in\n    tag_240:\n        /* \"#utility.yul\":4118:4121   */\n      dup3\n        /* \"#utility.yul\":4111:4148   */\n      mstore\n        /* \"#utility.yul\":4036:4154   */\n      pop\n      pop\n      jump\t// out\n        /* \"#utility.yul\":4160:4382   */\n    tag_39:\n        /* \"#utility.yul\":4253:4257   */\n      0x00\n        /* \"#utility.yul\":4291:4293   */\n      0x20\n        /* \"#utility.yul\":4280:4289   */\n      dup3\n        /* \"#utility.yul\":4276:4294   */\n      add\n        /* \"#utility.yul\":4268:4294   */\n      swap1\n      pop\n        /* \"#utility.yul\":4304:4375   */\n      tag_242\n        /* \"#utility.yul\":4372:4373   */\n      0x00\n        /* \"#utility.yul\":4361:4370   */\n      dup4\n        /* \"#utility.yul\":4357:4374   */\n      add\n        /* \"#utility.yul\":4348:4354   */\n      dup5\n        /* \"#utility.yul\":4304:4375   */\n      tag_163\n      jump\t// in\n    tag_242:\n        /* \"#utility.yul\":4160:4382   */\n      swap3\n      swap2\n      pop\n      pop\n      jump\t// out\n        /* \"#utility.yul\":4388:4465   */\n    tag_164:\n        /* \"#utility.yul\":4425:4432   */\n      0x00\n        /* \"#utility.yul\":4454:4459   */\n      dup2\n        /* \"#utility.yul\":4443:4459   */\n      swap1\n      pop\n        /* \"#utility.yul\":4388:4465   */\n      swap2\n      swap1\n      pop\n      jump\t// out\n        /* \"#utility.yul\":4471:4593   */\n    tag_165:\n        /* \"#utility.yul\":4544:4568   */\n      tag_245\n        /* \"#utility.yul\":4562:4567   */\n      dup2\n        /* \"#utility.yul\":4544:4568   */\n      tag_164\n      jump\t// in\n    tag_245:\n        /* \"#utility.yul\":4537:4542   */\n      dup2\n        /* \"#utility.yul\":4534:4569   */\n      eq\n        /* \"#utility.yul\":4524:4587   */\n      tag_246\n      jumpi\n        /* \"#utility.yul\":4583:4584   */\n      0x00\n        /* \"#utility.yul\":4580:4581   */\n      dup1\n        /* \"#utility.yul\":4573:4585   */\n      revert\n        /* \"#utility.yul\":4524:4587   */\n    tag_246:\n        /* \"#utility.yul\":4471:4593   */\n      pop\n      jump\t// out\n        /* \"#utility.yul\":4599:4738   */\n    tag_166:\n        /* \"#utility.yul\":4645:4650   */\n      0x00\n        /* \"#utility.yul\":4683:4689   */\n      dup2\n        /* \"#utility.yul\":4670:4690   */\n      calldataload\n        /* \"#utility.yul\":4661:4690   */\n      swap1\n      pop\n        /* \"#utility.yul\":4699:4732   */\n      tag_248\n        /* \"#utility.yul\":4726:4731   */\n      dup2\n        /* \"#utility.yul\":4699:4732   */\n      tag_165\n      jump\t// in\n    tag_248:\n        /* \"#utility.yul\":4599:4738   */\n      swap3\n      swap2\n      pop\n      pop\n      jump\t// out\n        /* \"#utility.yul\":4744:5363   */\n    tag_42:\n        /* \"#utility.yul\":4821:4827   */\n      0x00\n        /* \"#utility.yul\":4829:4835   */\n      dup1\n        /* \"#utility.yul\":4837:4843   */\n      0x00\n        /* \"#utility.yul\":4886:4888   */\n      0x60\n        /* \"#utility.yul\":4874:4883   */\n      dup5\n        /* \"#utility.yul\":4865:4872   */\n      dup7\n        /* \"#utility.yul\":4861:4884   */\n      sub\n        /* \"#utility.yul\":4857:4889   */\n      slt\n        /* \"#utility.yul\":4854:4973   */\n      iszero\n      tag_250\n      jumpi\n        /* \"#utility.yul\":4892:4971   */\n      tag_251\n      tag_146\n      jump\t// in\n    tag_251:\n        /* \"#utility.yul\":4854:4973   */\n    tag_250:\n        /* \"#utility.yul\":5012:5013   */\n      0x00\n        /* \"#utility.yul\":5037:5090   */\n      tag_252\n        /* \"#utility.yul\":5082:5089   */\n      dup7\n        /* \"#utility.yul\":5073:5079   */\n      dup3\n        /* \"#utility.yul\":5062:5071   */\n      dup8\n        /* \"#utility.yul\":5058:5080   */\n      add\n        /* \"#utility.yul\":5037:5090   */\n      tag_166\n      jump\t// in\n    tag_252:\n        /* \"#utility.yul\":5027:5090   */\n      swap4\n      pop\n        /* \"#utility.yul\":4983:5100   */\n      pop\n        /* \"#utility.yul\":5139:5141   */\n      0x20\n        /* \"#utility.yul\":5165:5218   */\n      tag_253\n        /* \"#utility.yul\":5210:5217   */\n      dup7\n        /* \"#utility.yul\":5201:5207   */\n      dup3\n        /* \"#utility.yul\":5190:5199   */\n      dup8\n        /* \"#utility.yul\":5186:5208   */\n      add\n        /* \"#utility.yul\":5165:5218   */\n      tag_156\n      jump\t// in\n    tag_253:\n        /* \"#utility.yul\":5155:5218   */\n      swap3\n      pop\n        /* \"#utility.yul\":5110:5228   */\n      pop\n        /* \"#utility.yul\":5267:5269   */\n      0x40\n        /* \"#utility.yul\":5293:5346   */\n      tag_254\n        /* \"#utility.yul\":5338:5345   */\n      dup7\n        /* \"#utility.yul\":5329:5335   */\n      dup3\n        /* \"#utility.yul\":5318:5327   */\n      dup8\n        /* \"#utility.yul\":5314:5336   */\n      add\n        /* \"#utility.yul\":5293:5346   */\n      tag_151\n      jump\t// in\n    tag_254:\n        /* \"#utility.yul\":5283:5346   */\n      swap2\n      pop\n        /* \"#utility.yul\":5238:5356   */\n      pop\n        /* \"#utility.yul\":4744:5363   */\n      swap3\n      pop\n      swap3\n      pop\n      swap3\n      jump\t// out\n        /* \"#utility.yul\":5369:5698   */\n    tag_46:\n        /* \"#utility.yul\":5428:5434   */\n      0x00\n        /* \"#utility.yul\":5477:5479   */\n      0x20\n        /* \"#utility.yul\":5465:5474   */\n      dup3\n        /* \"#utility.yul\":5456:5463   */\n      dup5\n        /* \"#utility.yul\":5452:5475   */\n      sub\n        /* \"#utility.yul\":5448:5480   */\n      slt\n        /* \"#utility.yul\":5445:5564   */\n      iszero\n      tag_256\n      jumpi\n        /* \"#utility.yul\":5483:5562   */\n      tag_257\n      tag_146\n      jump\t// in\n    tag_257:\n        /* \"#utility.yul\":5445:5564   */\n    tag_256:\n        /* \"#utility.yul\":5603:5604   */\n      0x00\n        /* \"#utility.yul\":5628:5681   */\n      tag_258\n        /* \"#utility.yul\":5673:5680   */\n      dup5\n        /* \"#utility.yul\":5664:5670   */\n      dup3\n        /* \"#utility.yul\":5653:5662   */\n      dup6\n        /* \"#utility.yul\":5649:5671   */\n      add\n        /* \"#utility.yul\":5628:5681   */\n      tag_166\n      jump\t// in\n    tag_258:\n        /* \"#utility.yul\":5618:5681   */\n      swap2\n      pop\n        /* \"#utility.yul\":5574:5691   */\n      pop\n        /* \"#utility.yul\":5369:5698   */\n      swap3\n      swap2\n      pop\n      pop\n      jump\t// out\n        /* \"#utility.yul\":5704:6439   */\n    tag_49:\n        /* \"#utility.yul\":5921:5925   */\n      0x00\n        /* \"#utility.yul\":5959:5962   */\n      0x80\n        /* \"#utility.yul\":5948:5957   */\n      dup3\n        /* \"#utility.yul\":5944:5963   */\n      add\n        /* \"#utility.yul\":5936:5963   */\n      swap1\n      pop\n        /* \"#utility.yul\":6009:6018   */\n      dup2\n        /* \"#utility.yul\":6003:6007   */\n      dup2\n        /* \"#utility.yul\":5999:6019   */\n      sub\n        /* \"#utility.yul\":5995:5996   */\n      0x00\n        /* \"#utility.yul\":5984:5993   */\n      dup4\n        /* \"#utility.yul\":5980:5997   */\n      add\n        /* \"#utility.yul\":5973:6020   */\n      mstore\n        /* \"#utility.yul\":6037:6115   */\n      tag_260\n        /* \"#utility.yul\":6110:6114   */\n      dup2\n        /* \"#utility.yul\":6101:6107   */\n      dup8\n        /* \"#utility.yul\":6037:6115   */\n      tag_161\n      jump\t// in\n    tag_260:\n        /* \"#utility.yul\":6029:6115   */\n      swap1\n      pop\n        /* \"#utility.yul\":6125:6197   */\n      tag_261\n        /* \"#utility.yul\":6193:6195   */\n      0x20\n        /* \"#utility.yul\":6182:6191   */\n      dup4\n        /* \"#utility.yul\":6178:6196   */\n      add\n        /* \"#utility.yul\":6169:6175   */\n      dup7\n        /* \"#utility.yul\":6125:6197   */\n      tag_163\n      jump\t// in\n    tag_261:\n        /* \"#utility.yul\":6244:6253   */\n      dup2\n        /* \"#utility.yul\":6238:6242   */\n      dup2\n        /* \"#utility.yul\":6234:6254   */\n      sub\n        /* \"#utility.yul\":6229:6231   */\n      0x40\n        /* \"#utility.yul\":6218:6227   */\n      dup4\n        /* \"#utility.yul\":6214:6232   */\n      add\n        /* \"#utility.yul\":6207:6255   */\n      mstore\n        /* \"#utility.yul\":6272:6350   */\n      tag_262\n        /* \"#utility.yul\":6345:6349   */\n      dup2\n        /* \"#utility.yul\":6336:6342   */\n      dup6\n        /* \"#utility.yul\":6272:6350   */\n      tag_161\n      jump\t// in\n    tag_262:\n        /* \"#utility.yul\":6264:6350   */\n      swap1\n      pop\n        /* \"#utility.yul\":6360:6432   */\n      tag_263\n        /* \"#utility.yul\":6428:6430   */\n      0x60\n        /* \"#utility.yul\":6417:6426   */\n      dup4\n        /* \"#utility.yul\":6413:6431   */\n      add\n        /* \"#utility.yul\":6404:6410   */\n      dup5\n        /* \"#utility.yul\":6360:6432   */\n      tag_163\n      jump\t// in\n    tag_263:\n        /* \"#utility.yul\":5704:6439   */\n      swap6\n      swap5\n      pop\n      pop\n      pop\n      pop\n      pop\n      jump\t// out\n        /* \"#utility.yul\":6445:6505   */\n    tag_167:\n        /* \"#utility.yul\":6473:6476   */\n      0x00\n        /* \"#utility.yul\":6494:6499   */\n      dup2\n        /* \"#utility.yul\":6487:6499   */\n      swap1\n      pop\n        /* \"#utility.yul\":6445:6505   */\n      swap2\n      swap1\n      pop\n      jump\t// out\n        /* \"#utility.yul\":6511:6653   */\n    tag_168:\n        /* \"#utility.yul\":6561:6570   */\n      0x00\n        /* \"#utility.yul\":6594:6647   */\n      tag_266\n        /* \"#utility.yul\":6612:6646   */\n      tag_267\n        /* \"#utility.yul\":6621:6645   */\n      tag_268\n        /* \"#utility.yul\":6639:6644   */\n      dup5\n        /* \"#utility.yul\":6621:6645   */\n      tag_148\n      jump\t// in\n    tag_268:\n        /* \"#utility.yul\":6612:6646   */\n      tag_167\n      jump\t// in\n    tag_267:\n        /* \"#utility.yul\":6594:6647   */\n      tag_148\n      jump\t// in\n    tag_266:\n        /* \"#utility.yul\":6581:6647   */\n      swap1\n      pop\n        /* \"#utility.yul\":6511:6653   */\n      swap2\n      swap1\n      pop\n      jump\t// out\n        /* \"#utility.yul\":6659:6785   */\n    tag_169:\n        /* \"#utility.yul\":6709:6718   */\n      0x00\n        /* \"#utility.yul\":6742:6779   */\n      tag_270\n        /* \"#utility.yul\":6773:6778   */\n      dup3\n        /* \"#utility.yul\":6742:6779   */\n      tag_168\n      jump\t// in\n    tag_270:\n        /* \"#utility.yul\":6729:6779   */\n      swap1\n      pop\n        /* \"#utility.yul\":6659:6785   */\n      swap2\n      swap1\n      pop\n      jump\t// out\n        /* \"#utility.yul\":6791:6937   */\n    tag_170:\n        /* \"#utility.yul\":6861:6870   */\n      0x00\n        /* \"#utility.yul\":6894:6931   */\n      tag_272\n        /* \"#utility.yul\":6925:6930   */\n      dup3\n        /* \"#utility.yul\":6894:6931   */\n      tag_169\n      jump\t// in\n    tag_272:\n        /* \"#utility.yul\":6881:6931   */\n      swap1\n      pop\n        /* \"#utility.yul\":6791:6937   */\n      swap2\n      swap1\n      pop\n      jump\t// out\n        /* \"#utility.yul\":6943:7114   */\n    tag_171:\n        /* \"#utility.yul\":7050:7107   */\n      tag_274\n        /* \"#utility.yul\":7101:7106   */\n      dup2\n        /* \"#utility.yul\":7050:7107   */\n      tag_170\n      jump\t// in\n    tag_274:\n        /* \"#utility.yul\":7045:7048   */\n      dup3\n        /* \"#utility.yul\":7038:7108   */\n      mstore\n        /* \"#utility.yul\":6943:7114   */\n      pop\n      pop\n      jump\t// out\n        /* \"#utility.yul\":7120:7382   */\n    tag_61:\n        /* \"#utility.yul\":7233:7237   */\n      0x00\n        /* \"#utility.yul\":7271:7273   */\n      0x20\n        /* \"#utility.yul\":7260:7269   */\n      dup3\n        /* \"#utility.yul\":7256:7274   */\n      add\n        /* \"#utility.yul\":7248:7274   */\n      swap1\n      pop\n        /* \"#utility.yul\":7284:7375   */\n      tag_276\n        /* \"#utility.yul\":7372:7373   */\n      0x00\n        /* \"#utility.yul\":7361:7370   */\n      dup4\n        /* \"#utility.yul\":7357:7374   */\n      add\n        /* \"#utility.yul\":7348:7354   */\n      dup5\n        /* \"#utility.yul\":7284:7375   */\n      tag_171\n      jump\t// in\n    tag_276:\n        /* \"#utility.yul\":7120:7382   */\n      swap3\n      swap2\n      pop\n      pop\n      jump\t// out\n        /* \"#utility.yul\":7388:7505   */\n    tag_172:\n        /* \"#utility.yul\":7497:7498   */\n      0x00\n        /* \"#utility.yul\":7494:7495   */\n      dup1\n        /* \"#utility.yul\":7487:7499   */\n      revert\n        /* \"#utility.yul\":7511:7628   */\n    tag_173:\n        /* \"#utility.yul\":7620:7621   */\n      0x00\n        /* \"#utility.yul\":7617:7618   */\n      dup1\n        /* \"#utility.yul\":7610:7622   */\n      revert\n        /* \"#utility.yul\":7634:7814   */\n    tag_174:\n        /* \"#utility.yul\":7682:7759   */\n      0x4e487b7100000000000000000000000000000000000000000000000000000000\n        /* \"#utility.yul\":7679:7680   */\n      0x00\n        /* \"#utility.yul\":7672:7760   */\n      mstore\n        /* \"#utility.yul\":7779:7783   */\n      0x41\n        /* \"#utility.yul\":7776:7777   */\n      0x04\n        /* \"#utility.yul\":7769:7784   */\n      mstore\n        /* \"#utility.yul\":7803:7807   */\n      0x24\n        /* \"#utility.yul\":7800:7801   */\n      0x00\n        /* \"#utility.yul\":7793:7808   */\n      revert\n        /* \"#utility.yul\":7820:8101   */\n    tag_175:\n        /* \"#utility.yul\":7903:7930   */\n      tag_281\n        /* \"#utility.yul\":7925:7929   */\n      dup3\n        /* \"#utility.yul\":7903:7930   */\n      tag_160\n      jump\t// in\n    tag_281:\n        /* \"#utility.yul\":7895:7901   */\n      dup2\n        /* \"#utility.yul\":7891:7931   */\n      add\n        /* \"#utility.yul\":8033:8039   */\n      dup2\n        /* \"#utility.yul\":8021:8031   */\n      dup2\n        /* \"#utility.yul\":8018:8040   */\n      lt\n        /* \"#utility.yul\":7997:8015   */\n      0xffffffffffffffff\n        /* \"#utility.yul\":7985:7995   */\n      dup3\n        /* \"#utility.yul\":7982:8016   */\n      gt\n        /* \"#utility.yul\":7979:8041   */\n      or\n        /* \"#utility.yul\":7976:8064   */\n      iszero\n      tag_282\n      jumpi\n        /* \"#utility.yul\":8044:8062   */\n      tag_283\n      tag_174\n      jump\t// in\n    tag_283:\n        /* \"#utility.yul\":7976:8064   */\n    tag_282:\n        /* \"#utility.yul\":8084:8094   */\n      dup1\n        /* \"#utility.yul\":8080:8082   */\n      0x40\n        /* \"#utility.yul\":8073:8095   */\n      mstore\n        /* \"#utility.yul\":7863:8101   */\n      pop\n        /* \"#utility.yul\":7820:8101   */\n      pop\n      pop\n      jump\t// out\n        /* \"#utility.yul\":8107:8236   */\n    tag_176:\n        /* \"#utility.yul\":8141:8147   */\n      0x00\n        /* \"#utility.yul\":8168:8188   */\n      tag_285\n      tag_145\n      jump\t// in\n    tag_285:\n        /* \"#utility.yul\":8158:8188   */\n      swap1\n      pop\n        /* \"#utility.yul\":8197:8230   */\n      tag_286\n        /* \"#utility.yul\":8225:8229   */\n      dup3\n        /* \"#utility.yul\":8217:8223   */\n      dup3\n        /* \"#utility.yul\":8197:8230   */\n      tag_175\n      jump\t// in\n    tag_286:\n        /* \"#utility.yul\":8107:8236   */\n      swap2\n      swap1\n      pop\n      jump\t// out\n        /* \"#utility.yul\":8242:8550   */\n    tag_177:\n        /* \"#utility.yul\":8304:8308   */\n      0x00\n        /* \"#utility.yul\":8394:8412   */\n      0xffffffffffffffff\n        /* \"#utility.yul\":8386:8392   */\n      dup3\n        /* \"#utility.yul\":8383:8413   */\n      gt\n        /* \"#utility.yul\":8380:8436   */\n      iszero\n      tag_288\n      jumpi\n        /* \"#utility.yul\":8416:8434   */\n      tag_289\n      tag_174\n      jump\t// in\n    tag_289:\n        /* \"#utility.yul\":8380:8436   */\n    tag_288:\n        /* \"#utility.yul\":8454:8483   */\n      tag_290\n        /* \"#utility.yul\":8476:8482   */\n      dup3\n        /* \"#utility.yul\":8454:8483   */\n      tag_160\n      jump\t// in\n    tag_290:\n        /* \"#utility.yul\":8446:8483   */\n      swap1\n      pop\n        /* \"#utility.yul\":8538:8542   */\n      0x20\n        /* \"#utility.yul\":8532:8536   */\n      dup2\n        /* \"#utility.yul\":8528:8543   */\n      add\n        /* \"#utility.yul\":8520:8543   */\n      swap1\n      pop\n        /* \"#utility.yul\":8242:8550   */\n      swap2\n      swap1\n      pop\n      jump\t// out\n        /* \"#utility.yul\":8556:8710   */\n    tag_178:\n        /* \"#utility.yul\":8640:8646   */\n      dup3\n        /* \"#utility.yul\":8635:8638   */\n      dup2\n        /* \"#utility.yul\":8630:8633   */\n      dup4\n        /* \"#utility.yul\":8617:8647   */\n      calldatacopy\n        /* \"#utility.yul\":8702:8703   */\n      0x00\n        /* \"#utility.yul\":8693:8699   */\n      dup4\n        /* \"#utility.yul\":8688:8691   */\n      dup4\n        /* \"#utility.yul\":8684:8700   */\n      add\n        /* \"#utility.yul\":8677:8704   */\n      mstore\n        /* \"#utility.yul\":8556:8710   */\n      pop\n      pop\n      pop\n      jump\t// out\n        /* \"#utility.yul\":8716:9128   */\n    tag_179:\n        /* \"#utility.yul\":8794:8799   */\n      0x00\n        /* \"#utility.yul\":8819:8885   */\n      tag_293\n        /* \"#utility.yul\":8835:8884   */\n      tag_294\n        /* \"#utility.yul\":8877:8883   */\n      dup5\n        /* \"#utility.yul\":8835:8884   */\n      tag_177\n      jump\t// in\n    tag_294:\n        /* \"#utility.yul\":8819:8885   */\n      tag_176\n      jump\t// in\n    tag_293:\n        /* \"#utility.yul\":8810:8885   */\n      swap1\n      pop\n        /* \"#utility.yul\":8908:8914   */\n      dup3\n        /* \"#utility.yul\":8901:8906   */\n      dup2\n        /* \"#utility.yul\":8894:8915   */\n      mstore\n        /* \"#utility.yul\":8946:8950   */\n      0x20\n        /* \"#utility.yul\":8939:8944   */\n      dup2\n        /* \"#utility.yul\":8935:8951   */\n      add\n        /* \"#utility.yul\":8984:8987   */\n      dup5\n        /* \"#utility.yul\":8975:8981   */\n      dup5\n        /* \"#utility.yul\":8970:8973   */\n      dup5\n        /* \"#utility.yul\":8966:8982   */\n      add\n        /* \"#utility.yul\":8963:8988   */\n      gt\n        /* \"#utility.yul\":8960:9072   */\n      iszero\n      tag_295\n      jumpi\n        /* \"#utility.yul\":8991:9070   */\n      tag_296\n      tag_173\n      jump\t// in\n    tag_296:\n        /* \"#utility.yul\":8960:9072   */\n    tag_295:\n        /* \"#utility.yul\":9081:9122   */\n      tag_297\n        /* \"#utility.yul\":9115:9121   */\n      dup5\n        /* \"#utility.yul\":9110:9113   */\n      dup3\n        /* \"#utility.yul\":9105:9108   */\n      dup6\n        /* \"#utility.yul\":9081:9122   */\n      tag_178\n      jump\t// in\n    tag_297:\n        /* \"#utility.yul\":8800:9128   */\n      pop\n        /* \"#utility.yul\":8716:9128   */\n      swap4\n      swap3\n      pop\n      pop\n      pop\n      jump\t// out\n        /* \"#utility.yul\":9148:9488   */\n    tag_180:\n        /* \"#utility.yul\":9204:9209   */\n      0x00\n        /* \"#utility.yul\":9253:9256   */\n      dup3\n        /* \"#utility.yul\":9246:9250   */\n      0x1f\n        /* \"#utility.yul\":9238:9244   */\n      dup4\n        /* \"#utility.yul\":9234:9251   */\n      add\n        /* \"#utility.yul\":9230:9257   */\n      slt\n        /* \"#utility.yul\":9220:9342   */\n      tag_299\n      jumpi\n        /* \"#utility.yul\":9261:9340   */\n      tag_300\n      tag_172\n      jump\t// in\n    tag_300:\n        /* \"#utility.yul\":9220:9342   */\n    tag_299:\n        /* \"#utility.yul\":9378:9384   */\n      dup2\n        /* \"#utility.yul\":9365:9385   */\n      calldataload\n        /* \"#utility.yul\":9403:9482   */\n      tag_301\n        /* \"#utility.yul\":9478:9481   */\n      dup5\n        /* \"#utility.yul\":9470:9476   */\n      dup3\n        /* \"#utility.yul\":9463:9467   */\n      0x20\n        /* \"#utility.yul\":9455:9461   */\n      dup7\n        /* \"#utility.yul\":9451:9468   */\n      add\n        /* \"#utility.yul\":9403:9482   */\n      tag_179\n      jump\t// in\n    tag_301:\n        /* \"#utility.yul\":9394:9482   */\n      swap2\n      pop\n        /* \"#utility.yul\":9210:9488   */\n      pop\n        /* \"#utility.yul\":9148:9488   */\n      swap3\n      swap2\n      pop\n      pop\n      jump\t// out\n        /* \"#utility.yul\":9494:10003   */\n    tag_64:\n        /* \"#utility.yul\":9563:9569   */\n      0x00\n        /* \"#utility.yul\":9612:9614   */\n      0x20\n        /* \"#utility.yul\":9600:9609   */\n      dup3\n        /* \"#utility.yul\":9591:9598   */\n      dup5\n        /* \"#utility.yul\":9587:9610   */\n      sub\n        /* \"#utility.yul\":9583:9615   */\n      slt\n        /* \"#utility.yul\":9580:9699   */\n      iszero\n      tag_303\n      jumpi\n        /* \"#utility.yul\":9618:9697   */\n      tag_304\n      tag_146\n      jump\t// in\n    tag_304:\n        /* \"#utility.yul\":9580:9699   */\n    tag_303:\n        /* \"#utility.yul\":9766:9767   */\n      0x00\n        /* \"#utility.yul\":9755:9764   */\n      dup3\n        /* \"#utility.yul\":9751:9768   */\n      add\n        /* \"#utility.yul\":9738:9769   */\n      calldataload\n        /* \"#utility.yul\":9796:9814   */\n      0xffffffffffffffff\n        /* \"#utility.yul\":9788:9794   */\n      dup2\n        /* \"#utility.yul\":9785:9815   */\n      gt\n        /* \"#utility.yul\":9782:9899   */\n      iszero\n      tag_305\n      jumpi\n        /* \"#utility.yul\":9818:9897   */\n      tag_306\n      tag_147\n      jump\t// in\n    tag_306:\n        /* \"#utility.yul\":9782:9899   */\n    tag_305:\n        /* \"#utility.yul\":9923:9986   */\n      tag_307\n        /* \"#utility.yul\":9978:9985   */\n      dup5\n        /* \"#utility.yul\":9969:9975   */\n      dup3\n        /* \"#utility.yul\":9958:9967   */\n      dup6\n        /* \"#utility.yul\":9954:9976   */\n      add\n        /* \"#utility.yul\":9923:9986   */\n      tag_180\n      jump\t// in\n    tag_307:\n        /* \"#utility.yul\":9913:9986   */\n      swap2\n      pop\n        /* \"#utility.yul\":9709:9996   */\n      pop\n        /* \"#utility.yul\":9494:10003   */\n      swap3\n      swap2\n      pop\n      pop\n      jump\t// out\n        /* \"#utility.yul\":10009:10189   */\n    tag_181:\n        /* \"#utility.yul\":10057:10134   */\n      0x4e487b7100000000000000000000000000000000000000000000000000000000\n        /* \"#utility.yul\":10054:10055   */\n      0x00\n        /* \"#utility.yul\":10047:10135   */\n      mstore\n        /* \"#utility.yul\":10154:10158   */\n      0x22\n        /* \"#utility.yul\":10151:10152   */\n      0x04\n        /* \"#utility.yul\":10144:10159   */\n      mstore\n        /* \"#utility.yul\":10178:10182   */\n      0x24\n        /* \"#utility.yul\":10175:10176   */\n      0x00\n        /* \"#utility.yul\":10168:10183   */\n      revert\n        /* \"#utility.yul\":10195:10515   */\n    tag_85:\n        /* \"#utility.yul\":10239:10245   */\n      0x00\n        /* \"#utility.yul\":10276:10277   */\n      0x02\n        /* \"#utility.yul\":10270:10274   */\n      dup3\n        /* \"#utility.yul\":10266:10278   */\n      div\n        /* \"#utility.yul\":10256:10278   */\n      swap1\n      pop\n        /* \"#utility.yul\":10323:10324   */\n      0x01\n        /* \"#utility.yul\":10317:10321   */\n      dup3\n        /* \"#utility.yul\":10313:10325   */\n      and\n        /* \"#utility.yul\":10344:10362   */\n      dup1\n        /* \"#utility.yul\":10334:10415   */\n      tag_310\n      jumpi\n        /* \"#utility.yul\":10400:10404   */\n      0x7f\n        /* \"#utility.yul\":10392:10398   */\n      dup3\n        /* \"#utility.yul\":10388:10405   */\n      and\n        /* \"#utility.yul\":10378:10405   */\n      swap2\n      pop\n        /* \"#utility.yul\":10334:10415   */\n    tag_310:\n        /* \"#utility.yul\":10462:10464   */\n      0x20\n        /* \"#utility.yul\":10454:10460   */\n      dup3\n        /* \"#utility.yul\":10451:10465   */\n      lt\n        /* \"#utility.yul\":10431:10449   */\n      dup2\n        /* \"#utility.yul\":10428:10466   */\n      eq\n        /* \"#utility.yul\":10425:10509   */\n      iszero\n      tag_311\n      jumpi\n        /* \"#utility.yul\":10481:10499   */\n      tag_312\n      tag_181\n      jump\t// in\n    tag_312:\n        /* \"#utility.yul\":10425:10509   */\n    tag_311:\n        /* \"#utility.yul\":10246:10515   */\n      pop\n        /* \"#utility.yul\":10195:10515   */\n      swap2\n      swap1\n      pop\n      jump\t// out\n        /* \"#utility.yul\":10521:10639   */\n    tag_182:\n        /* \"#utility.yul\":10608:10632   */\n      tag_314\n        /* \"#utility.yul\":10626:10631   */\n      dup2\n        /* \"#utility.yul\":10608:10632   */\n      tag_164\n      jump\t// in\n    tag_314:\n        /* \"#utility.yul\":10603:10606   */\n      dup3\n        /* \"#utility.yul\":10596:10633   */\n      mstore\n        /* \"#utility.yul\":10521:10639   */\n      pop\n      pop\n      jump\t// out\n        /* \"#utility.yul\":10645:10867   */\n    tag_95:\n        /* \"#utility.yul\":10738:10742   */\n      0x00\n        /* \"#utility.yul\":10776:10778   */\n      0x20\n        /* \"#utility.yul\":10765:10774   */\n      dup3\n        /* \"#utility.yul\":10761:10779   */\n      add\n        /* \"#utility.yul\":10753:10779   */\n      swap1\n      pop\n        /* \"#utility.yul\":10789:10860   */\n      tag_316\n        /* \"#utility.yul\":10857:10858   */\n      0x00\n        /* \"#utility.yul\":10846:10855   */\n      dup4\n        /* \"#utility.yul\":10842:10859   */\n      add\n        /* \"#utility.yul\":10833:10839   */\n      dup5\n        /* \"#utility.yul\":10789:10860   */\n      tag_182\n      jump\t// in\n    tag_316:\n        /* \"#utility.yul\":10645:10867   */\n      swap3\n      swap2\n      pop\n      pop\n      jump\t// out\n        /* \"#utility.yul\":10873:11294   */\n    tag_183:\n        /* \"#utility.yul\":10962:10967   */\n      0x00\n        /* \"#utility.yul\":10987:11053   */\n      tag_318\n        /* \"#utility.yul\":11003:11052   */\n      tag_319\n        /* \"#utility.yul\":11045:11051   */\n      dup5\n        /* \"#utility.yul\":11003:11052   */\n      tag_177\n      jump\t// in\n    tag_319:\n        /* \"#utility.yul\":10987:11053   */\n      tag_176\n      jump\t// in\n    tag_318:\n        /* \"#utility.yul\":10978:11053   */\n      swap1\n      pop\n        /* \"#utility.yul\":11076:11082   */\n      dup3\n        /* \"#utility.yul\":11069:11074   */\n      dup2\n        /* \"#utility.yul\":11062:11083   */\n      mstore\n        /* \"#utility.yul\":11114:11118   */\n      0x20\n        /* \"#utility.yul\":11107:11112   */\n      dup2\n        /* \"#utility.yul\":11103:11119   */\n      add\n        /* \"#utility.yul\":11152:11155   */\n      dup5\n        /* \"#utility.yul\":11143:11149   */\n      dup5\n        /* \"#utility.yul\":11138:11141   */\n      dup5\n        /* \"#utility.yul\":11134:11150   */\n      add\n        /* \"#utility.yul\":11131:11156   */\n      gt\n        /* \"#utility.yul\":11128:11240   */\n      iszero\n      tag_320\n      jumpi\n        /* \"#utility.yul\":11159:11238   */\n      tag_321\n      tag_173\n      jump\t// in\n    tag_321:\n        /* \"#utility.yul\":11128:11240   */\n    tag_320:\n        /* \"#utility.yul\":11249:11288   */\n      tag_322\n        /* \"#utility.yul\":11281:11287   */\n      dup5\n        /* \"#utility.yul\":11276:11279   */\n      dup3\n        /* \"#utility.yul\":11271:11274   */\n      dup6\n        /* \"#utility.yul\":11249:11288   */\n      tag_159\n      jump\t// in\n    tag_322:\n        /* \"#utility.yul\":10968:11294   */\n      pop\n        /* \"#utility.yul\":10873:11294   */\n      swap4\n      swap3\n      pop\n      pop\n      pop\n      jump\t// out\n        /* \"#utility.yul\":11314:11669   */\n    tag_184:\n        /* \"#utility.yul\":11381:11386   */\n      0x00\n        /* \"#utility.yul\":11430:11433   */\n      dup3\n        /* \"#utility.yul\":11423:11427   */\n      0x1f\n        /* \"#utility.yul\":11415:11421   */\n      dup4\n        /* \"#utility.yul\":11411:11428   */\n      add\n        /* \"#utility.yul\":11407:11434   */\n      slt\n        /* \"#utility.yul\":11397:11519   */\n      tag_324\n      jumpi\n        /* \"#utility.yul\":11438:11517   */\n      tag_325\n      tag_172\n      jump\t// in\n    tag_325:\n        /* \"#utility.yul\":11397:11519   */\n    tag_324:\n        /* \"#utility.yul\":11548:11554   */\n      dup2\n        /* \"#utility.yul\":11542:11555   */\n      mload\n        /* \"#utility.yul\":11573:11663   */\n      tag_326\n        /* \"#utility.yul\":11659:11662   */\n      dup5\n        /* \"#utility.yul\":11651:11657   */\n      dup3\n        /* \"#utility.yul\":11644:11648   */\n      0x20\n        /* \"#utility.yul\":11636:11642   */\n      dup7\n        /* \"#utility.yul\":11632:11649   */\n      add\n        /* \"#utility.yul\":11573:11663   */\n      tag_183\n      jump\t// in\n    tag_326:\n        /* \"#utility.yul\":11564:11663   */\n      swap2\n      pop\n        /* \"#utility.yul\":11387:11669   */\n      pop\n        /* \"#utility.yul\":11314:11669   */\n      swap3\n      swap2\n      pop\n      pop\n      jump\t// out\n        /* \"#utility.yul\":11675:11818   */\n    tag_185:\n        /* \"#utility.yul\":11732:11737   */\n      0x00\n        /* \"#utility.yul\":11763:11769   */\n      dup2\n        /* \"#utility.yul\":11757:11770   */\n      mload\n        /* \"#utility.yul\":11748:11770   */\n      swap1\n      pop\n        /* \"#utility.yul\":11779:11812   */\n      tag_328\n        /* \"#utility.yul\":11806:11811   */\n      dup2\n        /* \"#utility.yul\":11779:11812   */\n      tag_150\n      jump\t// in\n    tag_328:\n        /* \"#utility.yul\":11675:11818   */\n      swap3\n      swap2\n      pop\n      pop\n      jump\t// out\n        /* \"#utility.yul\":11824:12990   */\n    tag_99:\n        /* \"#utility.yul\":11941:11947   */\n      0x00\n        /* \"#utility.yul\":11949:11955   */\n      dup1\n        /* \"#utility.yul\":11957:11963   */\n      0x00\n        /* \"#utility.yul\":11965:11971   */\n      dup1\n        /* \"#utility.yul\":12014:12017   */\n      0x80\n        /* \"#utility.yul\":12002:12011   */\n      dup6\n        /* \"#utility.yul\":11993:12000   */\n      dup8\n        /* \"#utility.yul\":11989:12012   */\n      sub\n        /* \"#utility.yul\":11985:12018   */\n      slt\n        /* \"#utility.yul\":11982:12102   */\n      iszero\n      tag_330\n      jumpi\n        /* \"#utility.yul\":12021:12100   */\n      tag_331\n      tag_146\n      jump\t// in\n    tag_331:\n        /* \"#utility.yul\":11982:12102   */\n    tag_330:\n        /* \"#utility.yul\":12162:12163   */\n      0x00\n        /* \"#utility.yul\":12151:12160   */\n      dup6\n        /* \"#utility.yul\":12147:12164   */\n      add\n        /* \"#utility.yul\":12141:12165   */\n      mload\n        /* \"#utility.yul\":12192:12210   */\n      0xffffffffffffffff\n        /* \"#utility.yul\":12184:12190   */\n      dup2\n        /* \"#utility.yul\":12181:12211   */\n      gt\n        /* \"#utility.yul\":12178:12295   */\n      iszero\n      tag_332\n      jumpi\n        /* \"#utility.yul\":12214:12293   */\n      tag_333\n      tag_147\n      jump\t// in\n    tag_333:\n        /* \"#utility.yul\":12178:12295   */\n    tag_332:\n        /* \"#utility.yul\":12319:12393   */\n      tag_334\n        /* \"#utility.yul\":12385:12392   */\n      dup8\n        /* \"#utility.yul\":12376:12382   */\n      dup3\n        /* \"#utility.yul\":12365:12374   */\n      dup9\n        /* \"#utility.yul\":12361:12383   */\n      add\n        /* \"#utility.yul\":12319:12393   */\n      tag_184\n      jump\t// in\n    tag_334:\n        /* \"#utility.yul\":12309:12393   */\n      swap5\n      pop\n        /* \"#utility.yul\":12112:12403   */\n      pop\n        /* \"#utility.yul\":12442:12444   */\n      0x20\n        /* \"#utility.yul\":12468:12532   */\n      tag_335\n        /* \"#utility.yul\":12524:12531   */\n      dup8\n        /* \"#utility.yul\":12515:12521   */\n      dup3\n        /* \"#utility.yul\":12504:12513   */\n      dup9\n        /* \"#utility.yul\":12500:12522   */\n      add\n        /* \"#utility.yul\":12468:12532   */\n      tag_185\n      jump\t// in\n    tag_335:\n        /* \"#utility.yul\":12458:12532   */\n      swap4\n      pop\n        /* \"#utility.yul\":12413:12542   */\n      pop\n        /* \"#utility.yul\":12602:12604   */\n      0x40\n        /* \"#utility.yul\":12591:12600   */\n      dup6\n        /* \"#utility.yul\":12587:12605   */\n      add\n        /* \"#utility.yul\":12581:12606   */\n      mload\n        /* \"#utility.yul\":12633:12651   */\n      0xffffffffffffffff\n        /* \"#utility.yul\":12625:12631   */\n      dup2\n        /* \"#utility.yul\":12622:12652   */\n      gt\n        /* \"#utility.yul\":12619:12736   */\n      iszero\n      tag_336\n      jumpi\n        /* \"#utility.yul\":12655:12734   */\n      tag_337\n      tag_147\n      jump\t// in\n    tag_337:\n        /* \"#utility.yul\":12619:12736   */\n    tag_336:\n        /* \"#utility.yul\":12760:12834   */\n      tag_338\n        /* \"#utility.yul\":12826:12833   */\n      dup8\n        /* \"#utility.yul\":12817:12823   */\n      dup3\n        /* \"#utility.yul\":12806:12815   */\n      dup9\n        /* \"#utility.yul\":12802:12824   */\n      add\n        /* \"#utility.yul\":12760:12834   */\n      tag_184\n      jump\t// in\n    tag_338:\n        /* \"#utility.yul\":12750:12834   */\n      swap3\n      pop\n        /* \"#utility.yul\":12552:12844   */\n      pop\n        /* \"#utility.yul\":12883:12885   */\n      0x60\n        /* \"#utility.yul\":12909:12973   */\n      tag_339\n        /* \"#utility.yul\":12965:12972   */\n      dup8\n        /* \"#utility.yul\":12956:12962   */\n      dup3\n        /* \"#utility.yul\":12945:12954   */\n      dup9\n        /* \"#utility.yul\":12941:12963   */\n      add\n        /* \"#utility.yul\":12909:12973   */\n      tag_185\n      jump\t// in\n    tag_339:\n        /* \"#utility.yul\":12899:12973   */\n      swap2\n      pop\n        /* \"#utility.yul\":12854:12983   */\n      pop\n        /* \"#utility.yul\":11824:12990   */\n      swap3\n      swap6\n      swap2\n      swap5\n      pop\n      swap3\n      pop\n      jump\t// out\n        /* \"#utility.yul\":12996:13328   */\n    tag_102:\n        /* \"#utility.yul\":13117:13121   */\n      0x00\n        /* \"#utility.yul\":13155:13157   */\n      0x40\n        /* \"#utility.yul\":13144:13153   */\n      dup3\n        /* \"#utility.yul\":13140:13158   */\n      add\n        /* \"#utility.yul\":13132:13158   */\n      swap1\n      pop\n        /* \"#utility.yul\":13168:13239   */\n      tag_341\n        /* \"#utility.yul\":13236:13237   */\n      0x00\n        /* \"#utility.yul\":13225:13234   */\n      dup4\n        /* \"#utility.yul\":13221:13238   */\n      add\n        /* \"#utility.yul\":13212:13218   */\n      dup6\n        /* \"#utility.yul\":13168:13239   */\n      tag_182\n      jump\t// in\n    tag_341:\n        /* \"#utility.yul\":13249:13321   */\n      tag_342\n        /* \"#utility.yul\":13317:13319   */\n      0x20\n        /* \"#utility.yul\":13306:13315   */\n      dup4\n        /* \"#utility.yul\":13302:13320   */\n      add\n        /* \"#utility.yul\":13293:13299   */\n      dup5\n        /* \"#utility.yul\":13249:13321   */\n      tag_162\n      jump\t// in\n    tag_342:\n        /* \"#utility.yul\":12996:13328   */\n      swap4\n      swap3\n      pop\n      pop\n      pop\n      jump\t// out\n        /* \"#utility.yul\":13334:13482   */\n    tag_186:\n        /* \"#utility.yul\":13436:13447   */\n      0x00\n        /* \"#utility.yul\":13473:13476   */\n      dup2\n        /* \"#utility.yul\":13458:13476   */\n      swap1\n      pop\n        /* \"#utility.yul\":13334:13482   */\n      swap3\n      swap2\n      pop\n      pop\n      jump\t// out\n        /* \"#utility.yul\":13488:13865   */\n    tag_187:\n        /* \"#utility.yul\":13594:13597   */\n      0x00\n        /* \"#utility.yul\":13622:13661   */\n      tag_345\n        /* \"#utility.yul\":13655:13660   */\n      dup3\n        /* \"#utility.yul\":13622:13661   */\n      tag_157\n      jump\t// in\n    tag_345:\n        /* \"#utility.yul\":13677:13766   */\n      tag_346\n        /* \"#utility.yul\":13759:13765   */\n      dup2\n        /* \"#utility.yul\":13754:13757   */\n      dup6\n        /* \"#utility.yul\":13677:13766   */\n      tag_186\n      jump\t// in\n    tag_346:\n        /* \"#utility.yul\":13670:13766   */\n      swap4\n      pop\n        /* \"#utility.yul\":13775:13827   */\n      tag_347\n        /* \"#utility.yul\":13820:13826   */\n      dup2\n        /* \"#utility.yul\":13815:13818   */\n      dup6\n        /* \"#utility.yul\":13808:13812   */\n      0x20\n        /* \"#utility.yul\":13801:13806   */\n      dup7\n        /* \"#utility.yul\":13797:13813   */\n      add\n        /* \"#utility.yul\":13775:13827   */\n      tag_159\n      jump\t// in\n    tag_347:\n        /* \"#utility.yul\":13852:13858   */\n      dup1\n        /* \"#utility.yul\":13847:13850   */\n      dup5\n        /* \"#utility.yul\":13843:13859   */\n      add\n        /* \"#utility.yul\":13836:13859   */\n      swap2\n      pop\n        /* \"#utility.yul\":13598:13865   */\n      pop\n        /* \"#utility.yul\":13488:13865   */\n      swap3\n      swap2\n      pop\n      pop\n      jump\t// out\n        /* \"#utility.yul\":13871:14146   */\n    tag_107:\n        /* \"#utility.yul\":14003:14006   */\n      0x00\n        /* \"#utility.yul\":14025:14120   */\n      tag_349\n        /* \"#utility.yul\":14116:14119   */\n      dup3\n        /* \"#utility.yul\":14107:14113   */\n      dup5\n        /* \"#utility.yul\":14025:14120   */\n      tag_187\n      jump\t// in\n    tag_349:\n        /* \"#utility.yul\":14018:14120   */\n      swap2\n      pop\n        /* \"#utility.yul\":14137:14140   */\n      dup2\n        /* \"#utility.yul\":14130:14140   */\n      swap1\n      pop\n        /* \"#utility.yul\":13871:14146   */\n      swap3\n      swap2\n      pop\n      pop\n      jump\t// out\n        /* \"#utility.yul\":14152:14332   */\n    tag_119:\n        /* \"#utility.yul\":14200:14277   */\n      0x4e487b7100000000000000000000000000000000000000000000000000000000\n        /* \"#utility.yul\":14197:14198   */\n      0x00\n        /* \"#utility.yul\":14190:14278   */\n      mstore\n        /* \"#utility.yul\":14297:14301   */\n      0x32\n        /* \"#utility.yul\":14294:14295   */\n      0x04\n        /* \"#utility.yul\":14287:14302   */\n      mstore\n        /* \"#utility.yul\":14321:14325   */\n      0x24\n        /* \"#utility.yul\":14318:14319   */\n      0x00\n        /* \"#utility.yul\":14311:14326   */\n      revert\n        /* \"#utility.yul\":14338:14481   */\n    tag_188:\n        /* \"#utility.yul\":14395:14400   */\n      0x00\n        /* \"#utility.yul\":14426:14432   */\n      dup2\n        /* \"#utility.yul\":14420:14433   */\n      mload\n        /* \"#utility.yul\":14411:14433   */\n      swap1\n      pop\n        /* \"#utility.yul\":14442:14475   */\n      tag_352\n        /* \"#utility.yul\":14469:14474   */\n      dup2\n        /* \"#utility.yul\":14442:14475   */\n      tag_155\n      jump\t// in\n    tag_352:\n        /* \"#utility.yul\":14338:14481   */\n      swap3\n      swap2\n      pop\n      pop\n      jump\t// out\n        /* \"#utility.yul\":14487:14838   */\n    tag_132:\n        /* \"#utility.yul\":14557:14563   */\n      0x00\n        /* \"#utility.yul\":14606:14608   */\n      0x20\n        /* \"#utility.yul\":14594:14603   */\n      dup3\n        /* \"#utility.yul\":14585:14592   */\n      dup5\n        /* \"#utility.yul\":14581:14604   */\n      sub\n        /* \"#utility.yul\":14577:14609   */\n      slt\n        /* \"#utility.yul\":14574:14693   */\n      iszero\n      tag_354\n      jumpi\n        /* \"#utility.yul\":14612:14691   */\n      tag_355\n      tag_146\n      jump\t// in\n    tag_355:\n        /* \"#utility.yul\":14574:14693   */\n    tag_354:\n        /* \"#utility.yul\":14732:14733   */\n      0x00\n        /* \"#utility.yul\":14757:14821   */\n      tag_356\n        /* \"#utility.yul\":14813:14820   */\n      dup5\n        /* \"#utility.yul\":14804:14810   */\n      dup3\n        /* \"#utility.yul\":14793:14802   */\n      dup6\n        /* \"#utility.yul\":14789:14811   */\n      add\n        /* \"#utility.yul\":14757:14821   */\n      tag_188\n      jump\t// in\n    tag_356:\n        /* \"#utility.yul\":14747:14821   */\n      swap2\n      pop\n        /* \"#utility.yul\":14703:14831   */\n      pop\n        /* \"#utility.yul\":14487:14838   */\n      swap3\n      swap2\n      pop\n      pop\n      jump\t// out\n\n    auxdata: 0xa26469706673582212208d61e0f48cfe6152d538b653885d0d69f0dd7d55b3fe5492a135c7e758a0767464736f6c634300080a0033\n}\n",
    "bytecode": {
      "linkReferences": {},
      "object": "60806040523480156200001157600080fd5b506040516200153338038062001533833981810160405281019062000037919062000129565b336000806101000a81548173ffffffffffffffffffffffffffffffffffffffff021916908373ffffffffffffffffffffffffffffffffffffffff16021790555080600160006101000a81548173ffffffffffffffffffffffffffffffffffffffff021916908373ffffffffffffffffffffffffffffffffffffffff160217905550506200015b565b600080fd5b600073ffffffffffffffffffffffffffffffffffffffff82169050919050565b6000620000f182620000c4565b9050919050565b6200010381620000e4565b81146200010f57600080fd5b50565b6000815190506200012381620000f8565b92915050565b600060208284031215620001425762000141620000bf565b5b6000620001528482850162000112565b91505092915050565b6113c8806200016b6000396000f3fe608060405234801561001057600080fd5b50600436106100ea5760003560e01c8063a2ea871c1161008c578063e678107911610066578063e678107914610288578063ed279e8c146102a6578063fcb8ed49146102d6578063fefb21a414610306576100ea565b8063a2ea871c1461020a578063a31de04f1461023a578063d987f5d614610258576100ea565b8063673a1746116100c8578063673a17461461016d57806368f5e3011461018b5780636dd7e0b3146101a7578063839f602d146101da576100ea565b806311b81429146100ef57806324a3ed9d1461011f5780633e4af6861461014f575b600080fd5b61010960048036038101906101049190610c20565b610324565b6040516101169190610c68565b60405180910390f35b61013960048036038101906101349190610cb9565b6103bc565b6040516101469190610d7f565b60405180910390f35b610157610468565b6040516101649190610db0565b60405180910390f35b610175610475565b6040516101829190610dda565b60405180910390f35b6101a560048036038101906101a09190610e2b565b610499565b005b6101c160048036038101906101bc9190610e7e565b6107ab565b6040516101d19493929190610eab565b60405180910390f35b6101f460048036038101906101ef9190610c20565b610863565b6040516102019190610dda565b60405180910390f35b610224600480360381019061021f9190610cb9565b610896565b6040516102319190610d7f565b60405180910390f35b610242610946565b60405161024f9190610f5d565b60405180910390f35b610272600480360381019061026d91906110ad565b61096c565b60405161027f9190610dda565b60405180910390f35b6102906109b4565b60405161029d9190610db0565b60405180910390f35b6102c060048036038101906102bb9190610c20565b610a4c565b6040516102cd9190610dda565b60405180910390f35b6102f060048036038101906102eb91906110ad565b610ab5565b6040516102fd9190610dda565b60405180910390f35b61030e610afe565b60405161031b9190610db0565b60405180910390f35b60008073ffffffffffffffffffffffffffffffffffffffff16600360008473ffffffffffffffffffffffffffffffffffffffff1673ffffffffffffffffffffffffffffffffffffffff16815260200190815260200160002060009054906101000a900473ffffffffffffffffffffffffffffffffffffffff1673ffffffffffffffffffffffffffffffffffffffff1614159050919050565b600281815481106103cc57600080fd5b9060005260206000200160009150905080546103e790611125565b80601f016020809104026020016040519081016040528092919081815260200182805461041390611125565b80156104605780601f1061043557610100808354040283529160200191610460565b820191906000526020600020905b81548152906001019060200180831161044357829003601f168201915b505050505081565b6000600280549050905090565b60008054906101000a900473ffffffffffffffffffffffffffffffffffffffff1681565b60008054906101000a900473ffffffffffffffffffffffffffffffffffffffff1673ffffffffffffffffffffffffffffffffffffffff163373ffffffffffffffffffffffffffffffffffffffff16146104f157600080fd5b600080600160009054906101000a900473ffffffffffffffffffffffffffffffffffffffff1673ffffffffffffffffffffffffffffffffffffffff16636dd7e0b3866040518263ffffffff1660e01b815260040161054f9190611166565b600060405180830381865afa15801561056c573d6000803e3d6000fd5b505050506040513d6000823e3d601f19601f820116820180604052508101906105959190611206565b50509150915082600360008373ffffffffffffffffffffffffffffffffffffffff1673ffffffffffffffffffffffffffffffffffffffff16815260200190815260200160002060006101000a81548173ffffffffffffffffffffffffffffffffffffffff021916908373ffffffffffffffffffffffffffffffffffffffff1602179055506005819080600181540180825580915050600190039060005260206000200160009091909190916101000a81548173ffffffffffffffffffffffffffffffffffffffff021916908373ffffffffffffffffffffffffffffffffffffffff160217905550600160009054906101000a900473ffffffffffffffffffffffffffffffffffffffff1673ffffffffffffffffffffffffffffffffffffffff166381dd1fa286866040518363ffffffff1660e01b81526004016106d99291906112a5565b600060405180830381600087803b1580156106f357600080fd5b505af1158015610707573d6000803e3d6000fd5b505050508060048360405161071c919061130a565b908152602001604051809103902060006101000a81548173ffffffffffffffffffffffffffffffffffffffff021916908373ffffffffffffffffffffffffffffffffffffffff1602179055506002829080600181540180825580915050600190039060005260206000200160009091909190915090805190602001906107a3929190610b0b565b505050505050565b6060600060606000600160009054906101000a900473ffffffffffffffffffffffffffffffffffffffff1673ffffffffffffffffffffffffffffffffffffffff16636dd7e0b3866040518263ffffffff1660e01b815260040161080e9190611166565b600060405180830381865afa15801561082b573d6000803e3d6000fd5b505050506040513d6000823e3d601f19601f820116820180604052508101906108549190611206565b93509350935093509193509193565b60036020528060005260406000206000915054906101000a900473ffffffffffffffffffffffffffffffffffffffff1681565b6060600282815481106108ac576108ab611321565b5b9060005260206000200180546108c190611125565b80601f01602080910402602001604051908101604052809291908181526020018280546108ed90611125565b801561093a5780601f1061090f5761010080835404028352916020019161093a565b820191906000526020600020905b81548152906001019060200180831161091d57829003601f168201915b50505050509050919050565b600160009054906101000a900473ffffffffffffffffffffffffffffffffffffffff1681565b600060048260405161097e919061130a565b908152602001604051809103902060009054906101000a900473ffffffffffffffffffffffffffffffffffffffff169050919050565b6000600160009054906101000a900473ffffffffffffffffffffffffffffffffffffffff1673ffffffffffffffffffffffffffffffffffffffff1663e67810796040518163ffffffff1660e01b8152600401602060405180830381865afa158015610a23573d6000803e3d6000fd5b505050506040513d601f19601f82011682018060405250810190610a479190611365565b905090565b6000600360008373ffffffffffffffffffffffffffffffffffffffff1673ffffffffffffffffffffffffffffffffffffffff16815260200190815260200160002060009054906101000a900473ffffffffffffffffffffffffffffffffffffffff169050919050565b6004818051602081018201805184825260208301602085012081835280955050505050506000915054906101000a900473ffffffffffffffffffffffffffffffffffffffff1681565b6000600580549050905090565b828054610b1790611125565b90600052602060002090601f016020900481019282610b395760008555610b80565b82601f10610b5257805160ff1916838001178555610b80565b82800160010185558215610b80579182015b82811115610b7f578251825591602001919060010190610b64565b5b509050610b8d9190610b91565b5090565b5b80821115610baa576000816000905550600101610b92565b5090565b6000604051905090565b600080fd5b600080fd5b600073ffffffffffffffffffffffffffffffffffffffff82169050919050565b6000610bed82610bc2565b9050919050565b610bfd81610be2565b8114610c0857600080fd5b50565b600081359050610c1a81610bf4565b92915050565b600060208284031215610c3657610c35610bb8565b5b6000610c4484828501610c0b565b91505092915050565b60008115159050919050565b610c6281610c4d565b82525050565b6000602082019050610c7d6000830184610c59565b92915050565b6000819050919050565b610c9681610c83565b8114610ca157600080fd5b50565b600081359050610cb381610c8d565b92915050565b600060208284031215610ccf57610cce610bb8565b5b6000610cdd84828501610ca4565b91505092915050565b600081519050919050565b600082825260208201905092915050565b60005b83811015610d20578082015181840152602081019050610d05565b83811115610d2f576000848401525b50505050565b6000601f19601f8301169050919050565b6000610d5182610ce6565b610d5b8185610cf1565b9350610d6b818560208601610d02565b610d7481610d35565b840191505092915050565b60006020820190508181036000830152610d998184610d46565b905092915050565b610daa81610c83565b82525050565b6000602082019050610dc56000830184610da1565b92915050565b610dd481610be2565b82525050565b6000602082019050610def6000830184610dcb565b92915050565b6000819050919050565b610e0881610df5565b8114610e1357600080fd5b50565b600081359050610e2581610dff565b92915050565b600080600060608486031215610e4457610e43610bb8565b5b6000610e5286828701610e16565b9350506020610e6386828701610ca4565b9250506040610e7486828701610c0b565b9150509250925092565b600060208284031215610e9457610e93610bb8565b5b6000610ea284828501610e16565b91505092915050565b60006080820190508181036000830152610ec58187610d46565b9050610ed46020830186610dcb565b8181036040830152610ee68185610d46565b9050610ef56060830184610dcb565b95945050505050565b6000819050919050565b6000610f23610f1e610f1984610bc2565b610efe565b610bc2565b9050919050565b6000610f3582610f08565b9050919050565b6000610f4782610f2a565b9050919050565b610f5781610f3c565b82525050565b6000602082019050610f726000830184610f4e565b92915050565b600080fd5b600080fd5b7f4e487b7100000000000000000000000000000000000000000000000000000000600052604160045260246000fd5b610fba82610d35565b810181811067ffffffffffffffff82111715610fd957610fd8610f82565b5b80604052505050565b6000610fec610bae565b9050610ff88282610fb1565b919050565b600067ffffffffffffffff82111561101857611017610f82565b5b61102182610d35565b9050602081019050919050565b82818337600083830152505050565b600061105061104b84610ffd565b610fe2565b90508281526020810184848401111561106c5761106b610f7d565b5b61107784828561102e565b509392505050565b600082601f83011261109457611093610f78565b5b81356110a484826020860161103d565b91505092915050565b6000602082840312156110c3576110c2610bb8565b5b600082013567ffffffffffffffff8111156110e1576110e0610bbd565b5b6110ed8482850161107f565b91505092915050565b7f4e487b7100000000000000000000000000000000000000000000000000000000600052602260045260246000fd5b6000600282049050600182168061113d57607f821691505b60208210811415611151576111506110f6565b5b50919050565b61116081610df5565b82525050565b600060208201905061117b6000830184611157565b92915050565b600061119461118f84610ffd565b610fe2565b9050828152602081018484840111156111b0576111af610f7d565b5b6111bb848285610d02565b509392505050565b600082601f8301126111d8576111d7610f78565b5b81516111e8848260208601611181565b91505092915050565b60008151905061120081610bf4565b92915050565b600080600080608085870312156112205761121f610bb8565b5b600085015167ffffffffffffffff81111561123e5761123d610bbd565b5b61124a878288016111c3565b945050602061125b878288016111f1565b935050604085015167ffffffffffffffff81111561127c5761127b610bbd565b5b611288878288016111c3565b9250506060611299878288016111f1565b91505092959194509250565b60006040820190506112ba6000830185611157565b6112c76020830184610da1565b9392505050565b600081905092915050565b60006112e482610ce6565b6112ee81856112ce565b93506112fe818560208601610d02565b80840191505092915050565b600061131682846112d9565b915081905092915050565b7f4e487b7100000000000000000000000000000000000000000000000000000000600052603260045260246000fd5b60008151905061135f81610c8d565b92915050565b60006020828403121561137b5761137a610bb8565b5b600061138984828501611350565b9150509291505056fea26469706673582212208d61e0f48cfe6152d538b653885d0d69f0dd7d55b3fe5492a135c7e758a0767464736f6c634300080a0033",
      "opcodes": "PUSH1 0x80 PUSH1 0x40 MSTORE CALLVALUE DUP1 ISZERO PUSH3 0x11 JUMPI PUSH1 0x0 DUP1 REVERT JUMPDEST POP PUSH1 0x40 MLOAD PUSH3 0x1533 CODESIZE SUB DUP1 PUSH3 0x1533 DUP4 CODECOPY DUP2 DUP2 ADD PUSH1 0x40 MSTORE DUP2 ADD SWAP1 PUSH3 0x37 SWAP2 SWAP1 PUSH3 0x129 JUMP JUMPDEST CALLER PUSH1 0x0 DUP1 PUSH2 0x100 EXP DUP2 SLOAD DUP2 PUSH20 0xFFFFFFFFFFFFFFFFFFFFFFFFFFFFFFFFFFFFFFFF MUL NOT AND SWAP1 DUP4 PUSH20 0xFFFFFFFFFFFFFFFFFFFFFFFFFFFFFFFFFFFFFFFF AND MUL OR SWAP1 SSTORE POP DUP1 PUSH1 0x1 PUSH1 0x0 PUSH2 0x100 EXP DUP2 SLOAD DUP2 PUSH20 0xFFFFFFFFFFFFFFFFFFFFFFFFFFFFFFFFFFFFFFFF MUL NOT AND SWAP1 DUP4 PUSH20 0xFFFFFFFFFFFFFFFFFFFFFFFFFFFFFFFFFFFFFFFF AND MUL OR SWAP1 SSTORE POP POP PUSH3 0x15B JUMP JUMPDEST PUSH1 0x0 DUP1 REVERT JUMPDEST PUSH1 0x0 PUSH20 0xFFFFFFFFFFFFFFFFFFFFFFFFFFFFFFFFFFFFFFFF DUP3 AND SWAP1 POP SWAP2 SWAP1 POP JUMP JUMPDEST PUSH1 0x0 PUSH3 0xF1 DUP3 PUSH3 0xC4 JUMP JUMPDEST SWAP1 POP SWAP2 SWAP1 POP JUMP JUMPDEST PUSH3 0x103 DUP2 PUSH3 0xE4 JUMP JUMPDEST DUP2 EQ PUSH3 0x10F JUMPI PUSH1 0x0 DUP1 REVERT JUMPDEST POP JUMP JUMPDEST PUSH1 0x0 DUP2 MLOAD SWAP1 POP PUSH3 0x123 DUP2 PUSH3 0xF8 JUMP JUMPDEST SWAP3 SWAP2 POP POP JUMP JUMPDEST PUSH1 0x0 PUSH1 0x20 DUP3 DUP5 SUB SLT ISZERO PUSH3 0x142 JUMPI PUSH3 0x141 PUSH3 0xBF JUMP JUMPDEST JUMPDEST PUSH1 0x0 PUSH3 0x152 DUP5 DUP3 DUP6 ADD PUSH3 0x112 JUMP JUMPDEST SWAP2 POP POP SWAP3 SWAP2 POP POP JUMP JUMPDEST PUSH2 0x13C8 DUP1 PUSH3 0x16B PUSH1 0x0 CODECOPY PUSH1 0x0 RETURN INVALID PUSH1 0x80 PUSH1 0x40 MSTORE CALLVALUE DUP1 ISZERO PUSH2 0x10 JUMPI PUSH1 0x0 DUP1 REVERT JUMPDEST POP PUSH1 0x4 CALLDATASIZE LT PUSH2 0xEA JUMPI PUSH1 0x0 CALLDATALOAD PUSH1 0xE0 SHR DUP1 PUSH4 0xA2EA871C GT PUSH2 0x8C JUMPI DUP1 PUSH4 0xE6781079 GT PUSH2 0x66 JUMPI DUP1 PUSH4 0xE6781079 EQ PUSH2 0x288 JUMPI DUP1 PUSH4 0xED279E8C EQ PUSH2 0x2A6 JUMPI DUP1 PUSH4 0xFCB8ED49 EQ PUSH2 0x2D6 JUMPI DUP1 PUSH4 0xFEFB21A4 EQ PUSH2 0x306 JUMPI PUSH2 0xEA JUMP JUMPDEST DUP1 PUSH4 0xA2EA871C EQ PUSH2 0x20A JUMPI DUP1 PUSH4 0xA31DE04F EQ PUSH2 0x23A JUMPI DUP1 PUSH4 0xD987F5D6 EQ PUSH2 0x258 JUMPI PUSH2 0xEA JUMP JUMPDEST DUP1 PUSH4 0x673A1746 GT PUSH2 0xC8 JUMPI DUP1 PUSH4 0x673A1746 EQ PUSH2 0x16D JUMPI DUP1 PUSH4 0x68F5E301 EQ PUSH2 0x18B JUMPI DUP1 PUSH4 0x6DD7E0B3 EQ PUSH2 0x1A7 JUMPI DUP1 PUSH4 0x839F602D EQ PUSH2 0x1DA JUMPI PUSH2 0xEA JUMP JUMPDEST DUP1 PUSH4 0x11B81429 EQ PUSH2 0xEF JUMPI DUP1 PUSH4 0x24A3ED9D EQ PUSH2 0x11F JUMPI DUP1 PUSH4 0x3E4AF686 EQ PUSH2 0x14F JUMPI JUMPDEST PUSH1 0x0 DUP1 REVERT JUMPDEST PUSH2 0x109 PUSH1 0x4 DUP1 CALLDATASIZE SUB DUP2 ADD SWAP1 PUSH2 0x104 SWAP2 SWAP1 PUSH2 0xC20 JUMP JUMPDEST PUSH2 0x324 JUMP JUMPDEST PUSH1 0x40 MLOAD PUSH2 0x116 SWAP2 SWAP1 PUSH2 0xC68 JUMP JUMPDEST PUSH1 0x40 MLOAD DUP1 SWAP2 SUB SWAP1 RETURN JUMPDEST PUSH2 0x139 PUSH1 0x4 DUP1 CALLDATASIZE SUB DUP2 ADD SWAP1 PUSH2 0x134 SWAP2 SWAP1 PUSH2 0xCB9 JUMP JUMPDEST PUSH2 0x3BC JUMP JUMPDEST PUSH1 0x40 MLOAD PUSH2 0x146 SWAP2 SWAP1 PUSH2 0xD7F JUMP JUMPDEST PUSH1 0x40 MLOAD DUP1 SWAP2 SUB SWAP1 RETURN JUMPDEST PUSH2 0x157 PUSH2 0x468 JUMP JUMPDEST PUSH1 0x40 MLOAD PUSH2 0x164 SWAP2 SWAP1 PUSH2 0xDB0 JUMP JUMPDEST PUSH1 0x40 MLOAD DUP1 SWAP2 SUB SWAP1 RETURN JUMPDEST PUSH2 0x175 PUSH2 0x475 JUMP JUMPDEST PUSH1 0x40 MLOAD PUSH2 0x182 SWAP2 SWAP1 PUSH2 0xDDA JUMP JUMPDEST PUSH1 0x40 MLOAD DUP1 SWAP2 SUB SWAP1 RETURN JUMPDEST PUSH2 0x1A5 PUSH1 0x4 DUP1 CALLDATASIZE SUB DUP2 ADD SWAP1 PUSH2 0x1A0 SWAP2 SWAP1 PUSH2 0xE2B JUMP JUMPDEST PUSH2 0x499 JUMP JUMPDEST STOP JUMPDEST PUSH2 0x1C1 PUSH1 0x4 DUP1 CALLDATASIZE SUB DUP2 ADD SWAP1 PUSH2 0x1BC SWAP2 SWAP1 PUSH2 0xE7E JUMP JUMPDEST PUSH2 0x7AB JUMP JUMPDEST PUSH1 0x40 MLOAD PUSH2 0x1D1 SWAP5 SWAP4 SWAP3 SWAP2 SWAP1 PUSH2 0xEAB JUMP JUMPDEST PUSH1 0x40 MLOAD DUP1 SWAP2 SUB SWAP1 RETURN JUMPDEST PUSH2 0x1F4 PUSH1 0x4 DUP1 CALLDATASIZE SUB DUP2 ADD SWAP1 PUSH2 0x1EF SWAP2 SWAP1 PUSH2 0xC20 JUMP JUMPDEST PUSH2 0x863 JUMP JUMPDEST PUSH1 0x40 MLOAD PUSH2 0x201 SWAP2 SWAP1 PUSH2 0xDDA JUMP JUMPDEST PUSH1 0x40 MLOAD DUP1 SWAP2 SUB SWAP1 RETURN JUMPDEST PUSH2 0x224 PUSH1 0x4 DUP1 CALLDATASIZE SUB DUP2 ADD SWAP1 PUSH2 0x21F SWAP2 SWAP1 PUSH2 0xCB9 JUMP JUMPDEST PUSH2 0x896 JUMP JUMPDEST PUSH1 0x40 MLOAD PUSH2 0x231 SWAP2 SWAP1 PUSH2 0xD7F JUMP JUMPDEST PUSH1 0x40 MLOAD DUP1 SWAP2 SUB SWAP1 RETURN JUMPDEST PUSH2 0x242 PUSH2 0x946 JUMP JUMPDEST PUSH1 0x40 MLOAD PUSH2 0x24F SWAP2 SWAP1 PUSH2 0xF5D JUMP JUMPDEST PUSH1 0x40 MLOAD DUP1 SWAP2 SUB SWAP1 RETURN JUMPDEST PUSH2 0x272 PUSH1 0x4 DUP1 CALLDATASIZE SUB DUP2 ADD SWAP1 PUSH2 0x26D SWAP2 SWAP1 PUSH2 0x10AD JUMP JUMPDEST PUSH2 0x96C JUMP JUMPDEST PUSH1 0x40 MLOAD PUSH2 0x27F SWAP2 SWAP1 PUSH2 0xDDA JUMP JUMPDEST PUSH1 0x40 MLOAD DUP1 SWAP2 SUB SWAP1 RETURN JUMPDEST PUSH2 0x290 PUSH2 0x9B4 JUMP JUMPDEST PUSH1 0x40 MLOAD PUSH2 0x29D SWAP2 SWAP1 PUSH2 0xDB0 JUMP JUMPDEST PUSH1 0x40 MLOAD DUP1 SWAP2 SUB SWAP1 RETURN JUMPDEST PUSH2 0x2C0 PUSH1 0x4 DUP1 CALLDATASIZE SUB DUP2 ADD SWAP1 PUSH2 0x2BB SWAP2 SWAP1 PUSH2 0xC20 JUMP JUMPDEST PUSH2 0xA4C JUMP JUMPDEST PUSH1 0x40 MLOAD PUSH2 0x2CD SWAP2 SWAP1 PUSH2 0xDDA JUMP JUMPDEST PUSH1 0x40 MLOAD DUP1 SWAP2 SUB SWAP1 RETURN JUMPDEST PUSH2 0x2F0 PUSH1 0x4 DUP1 CALLDATASIZE SUB DUP2 ADD SWAP1 PUSH2 0x2EB SWAP2 SWAP1 PUSH2 0x10AD JUMP JUMPDEST PUSH2 0xAB5 JUMP JUMPDEST PUSH1 0x40 MLOAD PUSH2 0x2FD SWAP2 SWAP1 PUSH2 0xDDA JUMP JUMPDEST PUSH1 0x40 MLOAD DUP1 SWAP2 SUB SWAP1 RETURN JUMPDEST PUSH2 0x30E PUSH2 0xAFE JUMP JUMPDEST PUSH1 0x40 MLOAD PUSH2 0x31B SWAP2 SWAP1 PUSH2 0xDB0 JUMP JUMPDEST PUSH1 0x40 MLOAD DUP1 SWAP2 SUB SWAP1 RETURN JUMPDEST PUSH1 0x0 DUP1 PUSH20 0xFFFFFFFFFFFFFFFFFFFFFFFFFFFFFFFFFFFFFFFF AND PUSH1 0x3 PUSH1 0x0 DUP5 PUSH20 0xFFFFFFFFFFFFFFFFFFFFFFFFFFFFFFFFFFFFFFFF AND PUSH20 0xFFFFFFFFFFFFFFFFFFFFFFFFFFFFFFFFFFFFFFFF AND DUP2 MSTORE PUSH1 0x20 ADD SWAP1 DUP2 MSTORE PUSH1 0x20 ADD PUSH1 0x0 KECCAK256 PUSH1 0x0 SWAP1 SLOAD SWAP1 PUSH2 0x100 EXP SWAP1 DIV PUSH20 0xFFFFFFFFFFFFFFFFFFFFFFFFFFFFFFFFFFFFFFFF AND PUSH20 0xFFFFFFFFFFFFFFFFFFFFFFFFFFFFFFFFFFFFFFFF AND EQ ISZERO SWAP1 POP SWAP2 SWAP1 POP JUMP JUMPDEST PUSH1 0x2 DUP2 DUP2 SLOAD DUP2 LT PUSH2 0x3CC JUMPI PUSH1 0x0 DUP1 REVERT JUMPDEST SWAP1 PUSH1 0x0 MSTORE PUSH1 0x20 PUSH1 0x0 KECCAK256 ADD PUSH1 0x0 SWAP2 POP SWAP1 POP DUP1 SLOAD PUSH2 0x3E7 SWAP1 PUSH2 0x1125 JUMP JUMPDEST DUP1 PUSH1 0x1F ADD PUSH1 0x20 DUP1 SWAP2 DIV MUL PUSH1 0x20 ADD PUSH1 0x40 MLOAD SWAP1 DUP2 ADD PUSH1 0x40 MSTORE DUP1 SWAP3 SWAP2 SWAP1 DUP2 DUP2 MSTORE PUSH1 0x20 ADD DUP3 DUP1 SLOAD PUSH2 0x413 SWAP1 PUSH2 0x1125 JUMP JUMPDEST DUP1 ISZERO PUSH2 0x460 JUMPI DUP1 PUSH1 0x1F LT PUSH2 0x435 JUMPI PUSH2 0x100 DUP1 DUP4 SLOAD DIV MUL DUP4 MSTORE SWAP2 PUSH1 0x20 ADD SWAP2 PUSH2 0x460 JUMP JUMPDEST DUP3 ADD SWAP2 SWAP1 PUSH1 0x0 MSTORE PUSH1 0x20 PUSH1 0x0 KECCAK256 SWAP1 JUMPDEST DUP2 SLOAD DUP2 MSTORE SWAP1 PUSH1 0x1 ADD SWAP1 PUSH1 0x20 ADD DUP1 DUP4 GT PUSH2 0x443 JUMPI DUP3 SWAP1 SUB PUSH1 0x1F AND DUP3 ADD SWAP2 JUMPDEST POP POP POP POP POP DUP2 JUMP JUMPDEST PUSH1 0x0 PUSH1 0x2 DUP1 SLOAD SWAP1 POP SWAP1 POP SWAP1 JUMP JUMPDEST PUSH1 0x0 DUP1 SLOAD SWAP1 PUSH2 0x100 EXP SWAP1 DIV PUSH20 0xFFFFFFFFFFFFFFFFFFFFFFFFFFFFFFFFFFFFFFFF AND DUP2 JUMP JUMPDEST PUSH1 0x0 DUP1 SLOAD SWAP1 PUSH2 0x100 EXP SWAP1 DIV PUSH20 0xFFFFFFFFFFFFFFFFFFFFFFFFFFFFFFFFFFFFFFFF AND PUSH20 0xFFFFFFFFFFFFFFFFFFFFFFFFFFFFFFFFFFFFFFFF AND CALLER PUSH20 0xFFFFFFFFFFFFFFFFFFFFFFFFFFFFFFFFFFFFFFFF AND EQ PUSH2 0x4F1 JUMPI PUSH1 0x0 DUP1 REVERT JUMPDEST PUSH1 0x0 DUP1 PUSH1 0x1 PUSH1 0x0 SWAP1 SLOAD SWAP1 PUSH2 0x100 EXP SWAP1 DIV PUSH20 0xFFFFFFFFFFFFFFFFFFFFFFFFFFFFFFFFFFFFFFFF AND PUSH20 0xFFFFFFFFFFFFFFFFFFFFFFFFFFFFFFFFFFFFFFFF AND PUSH4 0x6DD7E0B3 DUP7 PUSH1 0x40 MLOAD DUP3 PUSH4 0xFFFFFFFF AND PUSH1 0xE0 SHL DUP2 MSTORE PUSH1 0x4 ADD PUSH2 0x54F SWAP2 SWAP1 PUSH2 0x1166 JUMP JUMPDEST PUSH1 0x0 PUSH1 0x40 MLOAD DUP1 DUP4 SUB DUP2 DUP7 GAS STATICCALL ISZERO DUP1 ISZERO PUSH2 0x56C JUMPI RETURNDATASIZE PUSH1 0x0 DUP1 RETURNDATACOPY RETURNDATASIZE PUSH1 0x0 REVERT JUMPDEST POP POP POP POP PUSH1 0x40 MLOAD RETURNDATASIZE PUSH1 0x0 DUP3 RETURNDATACOPY RETURNDATASIZE PUSH1 0x1F NOT PUSH1 0x1F DUP3 ADD AND DUP3 ADD DUP1 PUSH1 0x40 MSTORE POP DUP2 ADD SWAP1 PUSH2 0x595 SWAP2 SWAP1 PUSH2 0x1206 JUMP JUMPDEST POP POP SWAP2 POP SWAP2 POP DUP3 PUSH1 0x3 PUSH1 0x0 DUP4 PUSH20 0xFFFFFFFFFFFFFFFFFFFFFFFFFFFFFFFFFFFFFFFF AND PUSH20 0xFFFFFFFFFFFFFFFFFFFFFFFFFFFFFFFFFFFFFFFF AND DUP2 MSTORE PUSH1 0x20 ADD SWAP1 DUP2 MSTORE PUSH1 0x20 ADD PUSH1 0x0 KECCAK256 PUSH1 0x0 PUSH2 0x100 EXP DUP2 SLOAD DUP2 PUSH20 0xFFFFFFFFFFFFFFFFFFFFFFFFFFFFFFFFFFFFFFFF MUL NOT AND SWAP1 DUP4 PUSH20 0xFFFFFFFFFFFFFFFFFFFFFFFFFFFFFFFFFFFFFFFF AND MUL OR SWAP1 SSTORE POP PUSH1 0x5 DUP2 SWAP1 DUP1 PUSH1 0x1 DUP2 SLOAD ADD DUP1 DUP3 SSTORE DUP1 SWAP2 POP POP PUSH1 0x1 SWAP1 SUB SWAP1 PUSH1 0x0 MSTORE PUSH1 0x20 PUSH1 0x0 KECCAK256 ADD PUSH1 0x0 SWAP1 SWAP2 SWAP1 SWAP2 SWAP1 SWAP2 PUSH2 0x100 EXP DUP2 SLOAD DUP2 PUSH20 0xFFFFFFFFFFFFFFFFFFFFFFFFFFFFFFFFFFFFFFFF MUL NOT AND SWAP1 DUP4 PUSH20 0xFFFFFFFFFFFFFFFFFFFFFFFFFFFFFFFFFFFFFFFF AND MUL OR SWAP1 SSTORE POP PUSH1 0x1 PUSH1 0x0 SWAP1 SLOAD SWAP1 PUSH2 0x100 EXP SWAP1 DIV PUSH20 0xFFFFFFFFFFFFFFFFFFFFFFFFFFFFFFFFFFFFFFFF AND PUSH20 0xFFFFFFFFFFFFFFFFFFFFFFFFFFFFFFFFFFFFFFFF AND PUSH4 0x81DD1FA2 DUP7 DUP7 PUSH1 0x40 MLOAD DUP4 PUSH4 0xFFFFFFFF AND PUSH1 0xE0 SHL DUP2 MSTORE PUSH1 0x4 ADD PUSH2 0x6D9 SWAP3 SWAP2 SWAP1 PUSH2 0x12A5 JUMP JUMPDEST PUSH1 0x0 PUSH1 0x40 MLOAD DUP1 DUP4 SUB DUP2 PUSH1 0x0 DUP8 DUP1 EXTCODESIZE ISZERO DUP1 ISZERO PUSH2 0x6F3 JUMPI PUSH1 0x0 DUP1 REVERT JUMPDEST POP GAS CALL ISZERO DUP1 ISZERO PUSH2 0x707 JUMPI RETURNDATASIZE PUSH1 0x0 DUP1 RETURNDATACOPY RETURNDATASIZE PUSH1 0x0 REVERT JUMPDEST POP POP POP POP DUP1 PUSH1 0x4 DUP4 PUSH1 0x40 MLOAD PUSH2 0x71C SWAP2 SWAP1 PUSH2 0x130A JUMP JUMPDEST SWAP1 DUP2 MSTORE PUSH1 0x20 ADD PUSH1 0x40 MLOAD DUP1 SWAP2 SUB SWAP1 KECCAK256 PUSH1 0x0 PUSH2 0x100 EXP DUP2 SLOAD DUP2 PUSH20 0xFFFFFFFFFFFFFFFFFFFFFFFFFFFFFFFFFFFFFFFF MUL NOT AND SWAP1 DUP4 PUSH20 0xFFFFFFFFFFFFFFFFFFFFFFFFFFFFFFFFFFFFFFFF AND MUL OR SWAP1 SSTORE POP PUSH1 0x2 DUP3 SWAP1 DUP1 PUSH1 0x1 DUP2 SLOAD ADD DUP1 DUP3 SSTORE DUP1 SWAP2 POP POP PUSH1 0x1 SWAP1 SUB SWAP1 PUSH1 0x0 MSTORE PUSH1 0x20 PUSH1 0x0 KECCAK256 ADD PUSH1 0x0 SWAP1 SWAP2 SWAP1 SWAP2 SWAP1 SWAP2 POP SWAP1 DUP1 MLOAD SWAP1 PUSH1 0x20 ADD SWAP1 PUSH2 0x7A3 SWAP3 SWAP2 SWAP1 PUSH2 0xB0B JUMP JUMPDEST POP POP POP POP POP POP JUMP JUMPDEST PUSH1 0x60 PUSH1 0x0 PUSH1 0x60 PUSH1 0x0 PUSH1 0x1 PUSH1 0x0 SWAP1 SLOAD SWAP1 PUSH2 0x100 EXP SWAP1 DIV PUSH20 0xFFFFFFFFFFFFFFFFFFFFFFFFFFFFFFFFFFFFFFFF AND PUSH20 0xFFFFFFFFFFFFFFFFFFFFFFFFFFFFFFFFFFFFFFFF AND PUSH4 0x6DD7E0B3 DUP7 PUSH1 0x40 MLOAD DUP3 PUSH4 0xFFFFFFFF AND PUSH1 0xE0 SHL DUP2 MSTORE PUSH1 0x4 ADD PUSH2 0x80E SWAP2 SWAP1 PUSH2 0x1166 JUMP JUMPDEST PUSH1 0x0 PUSH1 0x40 MLOAD DUP1 DUP4 SUB DUP2 DUP7 GAS STATICCALL ISZERO DUP1 ISZERO PUSH2 0x82B JUMPI RETURNDATASIZE PUSH1 0x0 DUP1 RETURNDATACOPY RETURNDATASIZE PUSH1 0x0 REVERT JUMPDEST POP POP POP POP PUSH1 0x40 MLOAD RETURNDATASIZE PUSH1 0x0 DUP3 RETURNDATACOPY RETURNDATASIZE PUSH1 0x1F NOT PUSH1 0x1F DUP3 ADD AND DUP3 ADD DUP1 PUSH1 0x40 MSTORE POP DUP2 ADD SWAP1 PUSH2 0x854 SWAP2 SWAP1 PUSH2 0x1206 JUMP JUMPDEST SWAP4 POP SWAP4 POP SWAP4 POP SWAP4 POP SWAP2 SWAP4 POP SWAP2 SWAP4 JUMP JUMPDEST PUSH1 0x3 PUSH1 0x20 MSTORE DUP1 PUSH1 0x0 MSTORE PUSH1 0x40 PUSH1 0x0 KECCAK256 PUSH1 0x0 SWAP2 POP SLOAD SWAP1 PUSH2 0x100 EXP SWAP1 DIV PUSH20 0xFFFFFFFFFFFFFFFFFFFFFFFFFFFFFFFFFFFFFFFF AND DUP2 JUMP JUMPDEST PUSH1 0x60 PUSH1 0x2 DUP3 DUP2 SLOAD DUP2 LT PUSH2 0x8AC JUMPI PUSH2 0x8AB PUSH2 0x1321 JUMP JUMPDEST JUMPDEST SWAP1 PUSH1 0x0 MSTORE PUSH1 0x20 PUSH1 0x0 KECCAK256 ADD DUP1 SLOAD PUSH2 0x8C1 SWAP1 PUSH2 0x1125 JUMP JUMPDEST DUP1 PUSH1 0x1F ADD PUSH1 0x20 DUP1 SWAP2 DIV MUL PUSH1 0x20 ADD PUSH1 0x40 MLOAD SWAP1 DUP2 ADD PUSH1 0x40 MSTORE DUP1 SWAP3 SWAP2 SWAP1 DUP2 DUP2 MSTORE PUSH1 0x20 ADD DUP3 DUP1 SLOAD PUSH2 0x8ED SWAP1 PUSH2 0x1125 JUMP JUMPDEST DUP1 ISZERO PUSH2 0x93A JUMPI DUP1 PUSH1 0x1F LT PUSH2 0x90F JUMPI PUSH2 0x100 DUP1 DUP4 SLOAD DIV MUL DUP4 MSTORE SWAP2 PUSH1 0x20 ADD SWAP2 PUSH2 0x93A JUMP JUMPDEST DUP3 ADD SWAP2 SWAP1 PUSH1 0x0 MSTORE PUSH1 0x20 PUSH1 0x0 KECCAK256 SWAP1 JUMPDEST DUP2 SLOAD DUP2 MSTORE SWAP1 PUSH1 0x1 ADD SWAP1 PUSH1 0x20 ADD DUP1 DUP4 GT PUSH2 0x91D JUMPI DUP3 SWAP1 SUB PUSH1 0x1F AND DUP3 ADD SWAP2 JUMPDEST POP POP POP POP POP SWAP1 POP SWAP2 SWAP1 POP JUMP JUMPDEST PUSH1 0x1 PUSH1 0x0 SWAP1 SLOAD SWAP1 PUSH2 0x100 EXP SWAP1 DIV PUSH20 0xFFFFFFFFFFFFFFFFFFFFFFFFFFFFFFFFFFFFFFFF AND DUP2 JUMP JUMPDEST PUSH1 0x0 PUSH1 0x4 DUP3 PUSH1 0x40 MLOAD PUSH2 0x97E SWAP2 SWAP1 PUSH2 0x130A JUMP JUMPDEST SWAP1 DUP2 MSTORE PUSH1 0x20 ADD PUSH1 0x40 MLOAD DUP1 SWAP2 SUB SWAP1 KECCAK256 PUSH1 0x0 SWAP1 SLOAD SWAP1 PUSH2 0x100 EXP SWAP1 DIV PUSH20 0xFFFFFFFFFFFFFFFFFFFFFFFFFFFFFFFFFFFFFFFF AND SWAP1 POP SWAP2 SWAP1 POP JUMP JUMPDEST PUSH1 0x0 PUSH1 0x1 PUSH1 0x0 SWAP1 SLOAD SWAP1 PUSH2 0x100 EXP SWAP1 DIV PUSH20 0xFFFFFFFFFFFFFFFFFFFFFFFFFFFFFFFFFFFFFFFF AND PUSH20 0xFFFFFFFFFFFFFFFFFFFFFFFFFFFFFFFFFFFFFFFF AND PUSH4 0xE6781079 PUSH1 0x40 MLOAD DUP2 PUSH4 0xFFFFFFFF AND PUSH1 0xE0 SHL DUP2 MSTORE PUSH1 0x4 ADD PUSH1 0x20 PUSH1 0x40 MLOAD DUP1 DUP4 SUB DUP2 DUP7 GAS STATICCALL ISZERO DUP1 ISZERO PUSH2 0xA23 JUMPI RETURNDATASIZE PUSH1 0x0 DUP1 RETURNDATACOPY RETURNDATASIZE PUSH1 0x0 REVERT JUMPDEST POP POP POP POP PUSH1 0x40 MLOAD RETURNDATASIZE PUSH1 0x1F NOT PUSH1 0x1F DUP3 ADD AND DUP3 ADD DUP1 PUSH1 0x40 MSTORE POP DUP2 ADD SWAP1 PUSH2 0xA47 SWAP2 SWAP1 PUSH2 0x1365 JUMP JUMPDEST SWAP1 POP SWAP1 JUMP JUMPDEST PUSH1 0x0 PUSH1 0x3 PUSH1 0x0 DUP4 PUSH20 0xFFFFFFFFFFFFFFFFFFFFFFFFFFFFFFFFFFFFFFFF AND PUSH20 0xFFFFFFFFFFFFFFFFFFFFFFFFFFFFFFFFFFFFFFFF AND DUP2 MSTORE PUSH1 0x20 ADD SWAP1 DUP2 MSTORE PUSH1 0x20 ADD PUSH1 0x0 KECCAK256 PUSH1 0x0 SWAP1 SLOAD SWAP1 PUSH2 0x100 EXP SWAP1 DIV PUSH20 0xFFFFFFFFFFFFFFFFFFFFFFFFFFFFFFFFFFFFFFFF AND SWAP1 POP SWAP2 SWAP1 POP JUMP JUMPDEST PUSH1 0x4 DUP2 DUP1 MLOAD PUSH1 0x20 DUP2 ADD DUP3 ADD DUP1 MLOAD DUP5 DUP3 MSTORE PUSH1 0x20 DUP4 ADD PUSH1 0x20 DUP6 ADD KECCAK256 DUP2 DUP4 MSTORE DUP1 SWAP6 POP POP POP POP POP POP PUSH1 0x0 SWAP2 POP SLOAD SWAP1 PUSH2 0x100 EXP SWAP1 DIV PUSH20 0xFFFFFFFFFFFFFFFFFFFFFFFFFFFFFFFFFFFFFFFF AND DUP2 JUMP JUMPDEST PUSH1 0x0 PUSH1 0x5 DUP1 SLOAD SWAP1 POP SWAP1 POP SWAP1 JUMP JUMPDEST DUP3 DUP1 SLOAD PUSH2 0xB17 SWAP1 PUSH2 0x1125 JUMP JUMPDEST SWAP1 PUSH1 0x0 MSTORE PUSH1 0x20 PUSH1 0x0 KECCAK256 SWAP1 PUSH1 0x1F ADD PUSH1 0x20 SWAP1 DIV DUP2 ADD SWAP3 DUP3 PUSH2 0xB39 JUMPI PUSH1 0x0 DUP6 SSTORE PUSH2 0xB80 JUMP JUMPDEST DUP3 PUSH1 0x1F LT PUSH2 0xB52 JUMPI DUP1 MLOAD PUSH1 0xFF NOT AND DUP4 DUP1 ADD OR DUP6 SSTORE PUSH2 0xB80 JUMP JUMPDEST DUP3 DUP1 ADD PUSH1 0x1 ADD DUP6 SSTORE DUP3 ISZERO PUSH2 0xB80 JUMPI SWAP2 DUP3 ADD JUMPDEST DUP3 DUP2 GT ISZERO PUSH2 0xB7F JUMPI DUP3 MLOAD DUP3 SSTORE SWAP2 PUSH1 0x20 ADD SWAP2 SWAP1 PUSH1 0x1 ADD SWAP1 PUSH2 0xB64 JUMP JUMPDEST JUMPDEST POP SWAP1 POP PUSH2 0xB8D SWAP2 SWAP1 PUSH2 0xB91 JUMP JUMPDEST POP SWAP1 JUMP JUMPDEST JUMPDEST DUP1 DUP3 GT ISZERO PUSH2 0xBAA JUMPI PUSH1 0x0 DUP2 PUSH1 0x0 SWAP1 SSTORE POP PUSH1 0x1 ADD PUSH2 0xB92 JUMP JUMPDEST POP SWAP1 JUMP JUMPDEST PUSH1 0x0 PUSH1 0x40 MLOAD SWAP1 POP SWAP1 JUMP JUMPDEST PUSH1 0x0 DUP1 REVERT JUMPDEST PUSH1 0x0 DUP1 REVERT JUMPDEST PUSH1 0x0 PUSH20 0xFFFFFFFFFFFFFFFFFFFFFFFFFFFFFFFFFFFFFFFF DUP3 AND SWAP1 POP SWAP2 SWAP1 POP JUMP JUMPDEST PUSH1 0x0 PUSH2 0xBED DUP3 PUSH2 0xBC2 JUMP JUMPDEST SWAP1 POP SWAP2 SWAP1 POP JUMP JUMPDEST PUSH2 0xBFD DUP2 PUSH2 0xBE2 JUMP JUMPDEST DUP2 EQ PUSH2 0xC08 JUMPI PUSH1 0x0 DUP1 REVERT JUMPDEST POP JUMP JUMPDEST PUSH1 0x0 DUP2 CALLDATALOAD SWAP1 POP PUSH2 0xC1A DUP2 PUSH2 0xBF4 JUMP JUMPDEST SWAP3 SWAP2 POP POP JUMP JUMPDEST PUSH1 0x0 PUSH1 0x20 DUP3 DUP5 SUB SLT ISZERO PUSH2 0xC36 JUMPI PUSH2 0xC35 PUSH2 0xBB8 JUMP JUMPDEST JUMPDEST PUSH1 0x0 PUSH2 0xC44 DUP5 DUP3 DUP6 ADD PUSH2 0xC0B JUMP JUMPDEST SWAP2 POP POP SWAP3 SWAP2 POP POP JUMP JUMPDEST PUSH1 0x0 DUP2 ISZERO ISZERO SWAP1 POP SWAP2 SWAP1 POP JUMP JUMPDEST PUSH2 0xC62 DUP2 PUSH2 0xC4D JUMP JUMPDEST DUP3 MSTORE POP POP JUMP JUMPDEST PUSH1 0x0 PUSH1 0x20 DUP3 ADD SWAP1 POP PUSH2 0xC7D PUSH1 0x0 DUP4 ADD DUP5 PUSH2 0xC59 JUMP JUMPDEST SWAP3 SWAP2 POP POP JUMP JUMPDEST PUSH1 0x0 DUP2 SWAP1 POP SWAP2 SWAP1 POP JUMP JUMPDEST PUSH2 0xC96 DUP2 PUSH2 0xC83 JUMP JUMPDEST DUP2 EQ PUSH2 0xCA1 JUMPI PUSH1 0x0 DUP1 REVERT JUMPDEST POP JUMP JUMPDEST PUSH1 0x0 DUP2 CALLDATALOAD SWAP1 POP PUSH2 0xCB3 DUP2 PUSH2 0xC8D JUMP JUMPDEST SWAP3 SWAP2 POP POP JUMP JUMPDEST PUSH1 0x0 PUSH1 0x20 DUP3 DUP5 SUB SLT ISZERO PUSH2 0xCCF JUMPI PUSH2 0xCCE PUSH2 0xBB8 JUMP JUMPDEST JUMPDEST PUSH1 0x0 PUSH2 0xCDD DUP5 DUP3 DUP6 ADD PUSH2 0xCA4 JUMP JUMPDEST SWAP2 POP POP SWAP3 SWAP2 POP POP JUMP JUMPDEST PUSH1 0x0 DUP2 MLOAD SWAP1 POP SWAP2 SWAP1 POP JUMP JUMPDEST PUSH1 0x0 DUP3 DUP3 MSTORE PUSH1 0x20 DUP3 ADD SWAP1 POP SWAP3 SWAP2 POP POP JUMP JUMPDEST PUSH1 0x0 JUMPDEST DUP4 DUP2 LT ISZERO PUSH2 0xD20 JUMPI DUP1 DUP3 ADD MLOAD DUP2 DUP5 ADD MSTORE PUSH1 0x20 DUP2 ADD SWAP1 POP PUSH2 0xD05 JUMP JUMPDEST DUP4 DUP2 GT ISZERO PUSH2 0xD2F JUMPI PUSH1 0x0 DUP5 DUP5 ADD MSTORE JUMPDEST POP POP POP POP JUMP JUMPDEST PUSH1 0x0 PUSH1 0x1F NOT PUSH1 0x1F DUP4 ADD AND SWAP1 POP SWAP2 SWAP1 POP JUMP JUMPDEST PUSH1 0x0 PUSH2 0xD51 DUP3 PUSH2 0xCE6 JUMP JUMPDEST PUSH2 0xD5B DUP2 DUP6 PUSH2 0xCF1 JUMP JUMPDEST SWAP4 POP PUSH2 0xD6B DUP2 DUP6 PUSH1 0x20 DUP7 ADD PUSH2 0xD02 JUMP JUMPDEST PUSH2 0xD74 DUP2 PUSH2 0xD35 JUMP JUMPDEST DUP5 ADD SWAP2 POP POP SWAP3 SWAP2 POP POP JUMP JUMPDEST PUSH1 0x0 PUSH1 0x20 DUP3 ADD SWAP1 POP DUP2 DUP2 SUB PUSH1 0x0 DUP4 ADD MSTORE PUSH2 0xD99 DUP2 DUP5 PUSH2 0xD46 JUMP JUMPDEST SWAP1 POP SWAP3 SWAP2 POP POP JUMP JUMPDEST PUSH2 0xDAA DUP2 PUSH2 0xC83 JUMP JUMPDEST DUP3 MSTORE POP POP JUMP JUMPDEST PUSH1 0x0 PUSH1 0x20 DUP3 ADD SWAP1 POP PUSH2 0xDC5 PUSH1 0x0 DUP4 ADD DUP5 PUSH2 0xDA1 JUMP JUMPDEST SWAP3 SWAP2 POP POP JUMP JUMPDEST PUSH2 0xDD4 DUP2 PUSH2 0xBE2 JUMP JUMPDEST DUP3 MSTORE POP POP JUMP JUMPDEST PUSH1 0x0 PUSH1 0x20 DUP3 ADD SWAP1 POP PUSH2 0xDEF PUSH1 0x0 DUP4 ADD DUP5 PUSH2 0xDCB JUMP JUMPDEST SWAP3 SWAP2 POP POP JUMP JUMPDEST PUSH1 0x0 DUP2 SWAP1 POP SWAP2 SWAP1 POP JUMP JUMPDEST PUSH2 0xE08 DUP2 PUSH2 0xDF5 JUMP JUMPDEST DUP2 EQ PUSH2 0xE13 JUMPI PUSH1 0x0 DUP1 REVERT JUMPDEST POP JUMP JUMPDEST PUSH1 0x0 DUP2 CALLDATALOAD SWAP1 POP PUSH2 0xE25 DUP2 PUSH2 0xDFF JUMP JUMPDEST SWAP3 SWAP2 POP POP JUMP JUMPDEST PUSH1 0x0 DUP1 PUSH1 0x0 PUSH1 0x60 DUP5 DUP7 SUB SLT ISZERO PUSH2 0xE44 JUMPI PUSH2 0xE43 PUSH2 0xBB8 JUMP JUMPDEST JUMPDEST PUSH1 0x0 PUSH2 0xE52 DUP7 DUP3 DUP8 ADD PUSH2 0xE16 JUMP JUMPDEST SWAP4 POP POP PUSH1 0x20 PUSH2 0xE63 DUP7 DUP3 DUP8 ADD PUSH2 0xCA4 JUMP JUMPDEST SWAP3 POP POP PUSH1 0x40 PUSH2 0xE74 DUP7 DUP3 DUP8 ADD PUSH2 0xC0B JUMP JUMPDEST SWAP2 POP POP SWAP3 POP SWAP3 POP SWAP3 JUMP JUMPDEST PUSH1 0x0 PUSH1 0x20 DUP3 DUP5 SUB SLT ISZERO PUSH2 0xE94 JUMPI PUSH2 0xE93 PUSH2 0xBB8 JUMP JUMPDEST JUMPDEST PUSH1 0x0 PUSH2 0xEA2 DUP5 DUP3 DUP6 ADD PUSH2 0xE16 JUMP JUMPDEST SWAP2 POP POP SWAP3 SWAP2 POP POP JUMP JUMPDEST PUSH1 0x0 PUSH1 0x80 DUP3 ADD SWAP1 POP DUP2 DUP2 SUB PUSH1 0x0 DUP4 ADD MSTORE PUSH2 0xEC5 DUP2 DUP8 PUSH2 0xD46 JUMP JUMPDEST SWAP1 POP PUSH2 0xED4 PUSH1 0x20 DUP4 ADD DUP7 PUSH2 0xDCB JUMP JUMPDEST DUP2 DUP2 SUB PUSH1 0x40 DUP4 ADD MSTORE PUSH2 0xEE6 DUP2 DUP6 PUSH2 0xD46 JUMP JUMPDEST SWAP1 POP PUSH2 0xEF5 PUSH1 0x60 DUP4 ADD DUP5 PUSH2 0xDCB JUMP JUMPDEST SWAP6 SWAP5 POP POP POP POP POP JUMP JUMPDEST PUSH1 0x0 DUP2 SWAP1 POP SWAP2 SWAP1 POP JUMP JUMPDEST PUSH1 0x0 PUSH2 0xF23 PUSH2 0xF1E PUSH2 0xF19 DUP5 PUSH2 0xBC2 JUMP JUMPDEST PUSH2 0xEFE JUMP JUMPDEST PUSH2 0xBC2 JUMP JUMPDEST SWAP1 POP SWAP2 SWAP1 POP JUMP JUMPDEST PUSH1 0x0 PUSH2 0xF35 DUP3 PUSH2 0xF08 JUMP JUMPDEST SWAP1 POP SWAP2 SWAP1 POP JUMP JUMPDEST PUSH1 0x0 PUSH2 0xF47 DUP3 PUSH2 0xF2A JUMP JUMPDEST SWAP1 POP SWAP2 SWAP1 POP JUMP JUMPDEST PUSH2 0xF57 DUP2 PUSH2 0xF3C JUMP JUMPDEST DUP3 MSTORE POP POP JUMP JUMPDEST PUSH1 0x0 PUSH1 0x20 DUP3 ADD SWAP1 POP PUSH2 0xF72 PUSH1 0x0 DUP4 ADD DUP5 PUSH2 0xF4E JUMP JUMPDEST SWAP3 SWAP2 POP POP JUMP JUMPDEST PUSH1 0x0 DUP1 REVERT JUMPDEST PUSH1 0x0 DUP1 REVERT JUMPDEST PUSH32 0x4E487B7100000000000000000000000000000000000000000000000000000000 PUSH1 0x0 MSTORE PUSH1 0x41 PUSH1 0x4 MSTORE PUSH1 0x24 PUSH1 0x0 REVERT JUMPDEST PUSH2 0xFBA DUP3 PUSH2 0xD35 JUMP JUMPDEST DUP2 ADD DUP2 DUP2 LT PUSH8 0xFFFFFFFFFFFFFFFF DUP3 GT OR ISZERO PUSH2 0xFD9 JUMPI PUSH2 0xFD8 PUSH2 0xF82 JUMP JUMPDEST JUMPDEST DUP1 PUSH1 0x40 MSTORE POP POP POP JUMP JUMPDEST PUSH1 0x0 PUSH2 0xFEC PUSH2 0xBAE JUMP JUMPDEST SWAP1 POP PUSH2 0xFF8 DUP3 DUP3 PUSH2 0xFB1 JUMP JUMPDEST SWAP2 SWAP1 POP JUMP JUMPDEST PUSH1 0x0 PUSH8 0xFFFFFFFFFFFFFFFF DUP3 GT ISZERO PUSH2 0x1018 JUMPI PUSH2 0x1017 PUSH2 0xF82 JUMP JUMPDEST JUMPDEST PUSH2 0x1021 DUP3 PUSH2 0xD35 JUMP JUMPDEST SWAP1 POP PUSH1 0x20 DUP2 ADD SWAP1 POP SWAP2 SWAP1 POP JUMP JUMPDEST DUP3 DUP2 DUP4 CALLDATACOPY PUSH1 0x0 DUP4 DUP4 ADD MSTORE POP POP POP JUMP JUMPDEST PUSH1 0x0 PUSH2 0x1050 PUSH2 0x104B DUP5 PUSH2 0xFFD JUMP JUMPDEST PUSH2 0xFE2 JUMP JUMPDEST SWAP1 POP DUP3 DUP2 MSTORE PUSH1 0x20 DUP2 ADD DUP5 DUP5 DUP5 ADD GT ISZERO PUSH2 0x106C JUMPI PUSH2 0x106B PUSH2 0xF7D JUMP JUMPDEST JUMPDEST PUSH2 0x1077 DUP5 DUP3 DUP6 PUSH2 0x102E JUMP JUMPDEST POP SWAP4 SWAP3 POP POP POP JUMP JUMPDEST PUSH1 0x0 DUP3 PUSH1 0x1F DUP4 ADD SLT PUSH2 0x1094 JUMPI PUSH2 0x1093 PUSH2 0xF78 JUMP JUMPDEST JUMPDEST DUP2 CALLDATALOAD PUSH2 0x10A4 DUP5 DUP3 PUSH1 0x20 DUP7 ADD PUSH2 0x103D JUMP JUMPDEST SWAP2 POP POP SWAP3 SWAP2 POP POP JUMP JUMPDEST PUSH1 0x0 PUSH1 0x20 DUP3 DUP5 SUB SLT ISZERO PUSH2 0x10C3 JUMPI PUSH2 0x10C2 PUSH2 0xBB8 JUMP JUMPDEST JUMPDEST PUSH1 0x0 DUP3 ADD CALLDATALOAD PUSH8 0xFFFFFFFFFFFFFFFF DUP2 GT ISZERO PUSH2 0x10E1 JUMPI PUSH2 0x10E0 PUSH2 0xBBD JUMP JUMPDEST JUMPDEST PUSH2 0x10ED DUP5 DUP3 DUP6 ADD PUSH2 0x107F JUMP JUMPDEST SWAP2 POP POP SWAP3 SWAP2 POP POP JUMP JUMPDEST PUSH32 0x4E487B7100000000000000000000000000000000000000000000000000000000 PUSH1 0x0 MSTORE PUSH1 0x22 PUSH1 0x4 MSTORE PUSH1 0x24 PUSH1 0x0 REVERT JUMPDEST PUSH1 0x0 PUSH1 0x2 DUP3 DIV SWAP1 POP PUSH1 0x1 DUP3 AND DUP1 PUSH2 0x113D JUMPI PUSH1 0x7F DUP3 AND SWAP2 POP JUMPDEST PUSH1 0x20 DUP3 LT DUP2 EQ ISZERO PUSH2 0x1151 JUMPI PUSH2 0x1150 PUSH2 0x10F6 JUMP JUMPDEST JUMPDEST POP SWAP2 SWAP1 POP JUMP JUMPDEST PUSH2 0x1160 DUP2 PUSH2 0xDF5 JUMP JUMPDEST DUP3 MSTORE POP POP JUMP JUMPDEST PUSH1 0x0 PUSH1 0x20 DUP3 ADD SWAP1 POP PUSH2 0x117B PUSH1 0x0 DUP4 ADD DUP5 PUSH2 0x1157 JUMP JUMPDEST SWAP3 SWAP2 POP POP JUMP JUMPDEST PUSH1 0x0 PUSH2 0x1194 PUSH2 0x118F DUP5 PUSH2 0xFFD JUMP JUMPDEST PUSH2 0xFE2 JUMP JUMPDEST SWAP1 POP DUP3 DUP2 MSTORE PUSH1 0x20 DUP2 ADD DUP5 DUP5 DUP5 ADD GT ISZERO PUSH2 0x11B0 JUMPI PUSH2 0x11AF PUSH2 0xF7D JUMP JUMPDEST JUMPDEST PUSH2 0x11BB DUP5 DUP3 DUP6 PUSH2 0xD02 JUMP JUMPDEST POP SWAP4 SWAP3 POP POP POP JUMP JUMPDEST PUSH1 0x0 DUP3 PUSH1 0x1F DUP4 ADD SLT PUSH2 0x11D8 JUMPI PUSH2 0x11D7 PUSH2 0xF78 JUMP JUMPDEST JUMPDEST DUP2 MLOAD PUSH2 0x11E8 DUP5 DUP3 PUSH1 0x20 DUP7 ADD PUSH2 0x1181 JUMP JUMPDEST SWAP2 POP POP SWAP3 SWAP2 POP POP JUMP JUMPDEST PUSH1 0x0 DUP2 MLOAD SWAP1 POP PUSH2 0x1200 DUP2 PUSH2 0xBF4 JUMP JUMPDEST SWAP3 SWAP2 POP POP JUMP JUMPDEST PUSH1 0x0 DUP1 PUSH1 0x0 DUP1 PUSH1 0x80 DUP6 DUP8 SUB SLT ISZERO PUSH2 0x1220 JUMPI PUSH2 0x121F PUSH2 0xBB8 JUMP JUMPDEST JUMPDEST PUSH1 0x0 DUP6 ADD MLOAD PUSH8 0xFFFFFFFFFFFFFFFF DUP2 GT ISZERO PUSH2 0x123E JUMPI PUSH2 0x123D PUSH2 0xBBD JUMP JUMPDEST JUMPDEST PUSH2 0x124A DUP8 DUP3 DUP9 ADD PUSH2 0x11C3 JUMP JUMPDEST SWAP5 POP POP PUSH1 0x20 PUSH2 0x125B DUP8 DUP3 DUP9 ADD PUSH2 0x11F1 JUMP JUMPDEST SWAP4 POP POP PUSH1 0x40 DUP6 ADD MLOAD PUSH8 0xFFFFFFFFFFFFFFFF DUP2 GT ISZERO PUSH2 0x127C JUMPI PUSH2 0x127B PUSH2 0xBBD JUMP JUMPDEST JUMPDEST PUSH2 0x1288 DUP8 DUP3 DUP9 ADD PUSH2 0x11C3 JUMP JUMPDEST SWAP3 POP POP PUSH1 0x60 PUSH2 0x1299 DUP8 DUP3 DUP9 ADD PUSH2 0x11F1 JUMP JUMPDEST SWAP2 POP POP SWAP3 SWAP6 SWAP2 SWAP5 POP SWAP3 POP JUMP JUMPDEST PUSH1 0x0 PUSH1 0x40 DUP3 ADD SWAP1 POP PUSH2 0x12BA PUSH1 0x0 DUP4 ADD DUP6 PUSH2 0x1157 JUMP JUMPDEST PUSH2 0x12C7 PUSH1 0x20 DUP4 ADD DUP5 PUSH2 0xDA1 JUMP JUMPDEST SWAP4 SWAP3 POP POP POP JUMP JUMPDEST PUSH1 0x0 DUP2 SWAP1 POP SWAP3 SWAP2 POP POP JUMP JUMPDEST PUSH1 0x0 PUSH2 0x12E4 DUP3 PUSH2 0xCE6 JUMP JUMPDEST PUSH2 0x12EE DUP2 DUP6 PUSH2 0x12CE JUMP JUMPDEST SWAP4 POP PUSH2 0x12FE DUP2 DUP6 PUSH1 0x20 DUP7 ADD PUSH2 0xD02 JUMP JUMPDEST DUP1 DUP5 ADD SWAP2 POP POP SWAP3 SWAP2 POP POP JUMP JUMPDEST PUSH1 0x0 PUSH2 0x1316 DUP3 DUP5 PUSH2 0x12D9 JUMP JUMPDEST SWAP2 POP DUP2 SWAP1 POP SWAP3 SWAP2 POP POP JUMP JUMPDEST PUSH32 0x4E487B7100000000000000000000000000000000000000000000000000000000 PUSH1 0x0 MSTORE PUSH1 0x32 PUSH1 0x4 MSTORE PUSH1 0x24 PUSH1 0x0 REVERT JUMPDEST PUSH1 0x0 DUP2 MLOAD SWAP1 POP PUSH2 0x135F DUP2 PUSH2 0xC8D JUMP JUMPDEST SWAP3 SWAP2 POP POP JUMP JUMPDEST PUSH1 0x0 PUSH1 0x20 DUP3 DUP5 SUB SLT ISZERO PUSH2 0x137B JUMPI PUSH2 0x137A PUSH2 0xBB8 JUMP JUMPDEST JUMPDEST PUSH1 0x0 PUSH2 0x1389 DUP5 DUP3 DUP6 ADD PUSH2 0x1350 JUMP JUMPDEST SWAP2 POP POP SWAP3 SWAP2 POP POP JUMP INVALID LOG2 PUSH5 0x6970667358 0x22 SLT KECCAK256 DUP14 PUSH2 0xE0F4 DUP13 INVALID PUSH2 0x52D5 CODESIZE 0xB6 MSTORE8 DUP9 0x5D 0xD PUSH10 0xF0DD7D55B3FE5492A135 0xC7 0xE7 PC LOG0 PUSH23 0x7464736F6C634300080A00330000000000000000000000 "
    },
    "gasEstimates": {
      "creation": {
        "codeDepositCost": "1012800",
        "executionCost": "infinite",
        "totalCost": "infinite"
      },
      "external": {
        "MOE()": "2534",
        "getAddresByName(string)": "infinite",
        "getInstituteByIndex(uint256)": "infinite",
        "getInstitutesCount()": "2513",
        "getPendingInstituteByKey(bytes32)": "infinite",
        "getPendingInstitutesCount()": "infinite",
        "getinstitutesContractByAddress(address)": "infinite",
        "instNameToAddress(string)": "infinite",
        "instituteCount()": "2533",
        "institution_names(uint256)": "infinite",
        "instreg()": "infinite",
        "isinstitute(address)": "2928",
        "registeredinstitutesmap(address)": "infinite",
        "verifyInstitution(bytes32,uint256,address)": "infinite"
      }
    },
    "methodIdentifiers": {
      "MOE()": "673a1746",
      "getAddresByName(string)": "d987f5d6",
      "getInstituteByIndex(uint256)": "a2ea871c",
      "getInstitutesCount()": "3e4af686",
      "getPendingInstituteByKey(bytes32)": "6dd7e0b3",
      "getPendingInstitutesCount()": "e6781079",
      "getinstitutesContractByAddress(address)": "ed279e8c",
      "instNameToAddress(string)": "fcb8ed49",
      "instituteCount()": "fefb21a4",
      "institution_names(uint256)": "24a3ed9d",
      "instreg()": "a31de04f",
      "isinstitute(address)": "11b81429",
      "registeredinstitutesmap(address)": "839f602d",
      "verifyInstitution(bytes32,uint256,address)": "68f5e301"
    }
  },
  "storageLayout": {
    "storage": [
      {
        "astId": 2023,
        "contract": "verifyinst.sol:verifyinst",
        "label": "MOE",
        "offset": 0,
        "slot": "0",
        "type": "t_address"
      },
      {
        "astId": 2026,
        "contract": "verifyinst.sol:verifyinst",
        "label": "instreg",
        "offset": 0,
        "slot": "1",
        "type": "t_contract(registerInst)888"
      },
      {
        "astId": 2057,
        "contract": "verifyinst.sol:verifyinst",
        "label": "institution_names",
        "offset": 0,
        "slot": "2",
        "type": "t_array(t_string_storage)dyn_storage"
      },
      {
        "astId": 2061,
        "contract": "verifyinst.sol:verifyinst",
        "label": "registeredinstitutesmap",
        "offset": 0,
        "slot": "3",
        "type": "t_mapping(t_address,t_address)"
      },
      {
        "astId": 2065,
        "contract": "verifyinst.sol:verifyinst",
        "label": "instNameToAddress",
        "offset": 0,
        "slot": "4",
        "type": "t_mapping(t_string_memory_ptr,t_address)"
      },
      {
        "astId": 2068,
        "contract": "verifyinst.sol:verifyinst",
        "label": "registeredinstitutes",
        "offset": 0,
        "slot": "5",
        "type": "t_array(t_address)dyn_storage"
      }
    ],
    "types": {
      "t_address": {
        "encoding": "inplace",
        "label": "address",
        "numberOfBytes": "20"
      },
      "t_array(t_address)dyn_storage": {
        "base": "t_address",
        "encoding": "dynamic_array",
        "label": "address[]",
        "numberOfBytes": "32"
      },
      "t_array(t_string_storage)dyn_storage": {
        "base": "t_string_storage",
        "encoding": "dynamic_array",
        "label": "string[]",
        "numberOfBytes": "32"
      },
      "t_contract(registerInst)888": {
        "encoding": "inplace",
        "label": "contract registerInst",
        "numberOfBytes": "20"
      },
      "t_mapping(t_address,t_address)": {
        "encoding": "mapping",
        "key": "t_address",
        "label": "mapping(address => address)",
        "numberOfBytes": "32",
        "value": "t_address"
      },
      "t_mapping(t_string_memory_ptr,t_address)": {
        "encoding": "mapping",
        "key": "t_string_memory_ptr",
        "label": "mapping(string => address)",
        "numberOfBytes": "32",
        "value": "t_address"
      },
      "t_string_memory_ptr": {
        "encoding": "bytes",
        "label": "string",
        "numberOfBytes": "32"
      },
      "t_string_storage": {
        "encoding": "bytes",
        "label": "string",
        "numberOfBytes": "32"
      }
    }
  },
  "userdoc": {
    "kind": "user",
    "methods": {},
    "version": 1
  }
}