{
  "abi": [
    {
      "inputs": [
        {
          "internalType": "address",
          "name": "_registerStudAddress",
          "type": "address"
        },
        {
          "internalType": "address",
          "name": "_registeredInstAddress",
          "type": "address"
        }
      ],
      "stateMutability": "nonpayable",
      "type": "constructor"
    },
    {
      "inputs": [],
      "name": "MOE",
      "outputs": [
        {
          "internalType": "address",
          "name": "",
          "type": "address"
        }
      ],
      "stateMutability": "view",
      "type": "function"
    },
    {
      "inputs": [],
      "name": "StudentsCount",
      "outputs": [
        {
          "internalType": "uint256",
          "name": "",
          "type": "uint256"
        }
      ],
      "stateMutability": "view",
      "type": "function"
    },
    {
      "inputs": [
        {
          "internalType": "string",
          "name": "_name",
          "type": "string"
        },
        {
          "internalType": "address",
          "name": "_student_address",
          "type": "address"
        },
        {
          "internalType": "string",
          "name": "_email",
          "type": "string"
        },
        {
          "internalType": "string",
          "name": "_id",
          "type": "string"
        },
        {
          "internalType": "address",
          "name": "_instAddress",
          "type": "address"
        }
      ],
      "name": "addStudToPending",
      "outputs": [],
      "stateMutability": "nonpayable",
      "type": "function"
    },
    {
      "inputs": [
        {
          "internalType": "string",
          "name": "_name",
          "type": "string"
        },
        {
          "internalType": "address",
          "name": "_student_address",
          "type": "address"
        },
        {
          "internalType": "string",
          "name": "_email",
          "type": "string"
        },
        {
          "internalType": "string",
          "name": "_id",
          "type": "string"
        },
        {
          "internalType": "address",
          "name": "_currentInstAddress",
          "type": "address"
        },
        {
          "internalType": "address",
          "name": "_newinstAddress",
          "type": "address"
        }
      ],
      "name": "addTransferStudToPending",
      "outputs": [],
      "stateMutability": "nonpayable",
      "type": "function"
    },
    {
      "inputs": [],
      "name": "checkFunction",
      "outputs": [
        {
          "internalType": "bool",
          "name": "",
          "type": "bool"
        }
      ],
      "stateMutability": "view",
      "type": "function"
    },
    {
      "inputs": [
        {
          "internalType": "address",
          "name": "_address",
          "type": "address"
        },
        {
          "internalType": "string",
          "name": "_id",
          "type": "string"
        }
      ],
      "name": "generateKey",
      "outputs": [
        {
          "internalType": "bytes32",
          "name": "",
          "type": "bytes32"
        }
      ],
      "stateMutability": "pure",
      "type": "function"
    },
    {
      "inputs": [
        {
          "internalType": "uint256",
          "name": "index",
          "type": "uint256"
        }
      ],
      "name": "getPendingStudentByindex",
      "outputs": [
        {
          "internalType": "string",
          "name": "",
          "type": "string"
        },
        {
          "internalType": "address",
          "name": "",
          "type": "address"
        },
        {
          "internalType": "string",
          "name": "",
          "type": "string"
        },
        {
          "internalType": "string",
          "name": "",
          "type": "string"
        },
        {
          "internalType": "address",
          "name": "",
          "type": "address"
        }
      ],
      "stateMutability": "view",
      "type": "function"
    },
    {
      "inputs": [],
      "name": "getPendingStudentsCount",
      "outputs": [
        {
          "internalType": "uint256",
          "name": "",
          "type": "uint256"
        }
      ],
      "stateMutability": "view",
      "type": "function"
    },
    {
      "inputs": [
        {
          "internalType": "address",
          "name": "_employee",
          "type": "address"
        }
      ],
      "name": "getStudentContractByAddress",
      "outputs": [
        {
          "internalType": "address",
          "name": "",
          "type": "address"
        }
      ],
      "stateMutability": "view",
      "type": "function"
    },
    {
      "inputs": [
        {
          "internalType": "uint256",
          "name": "index",
          "type": "uint256"
        }
      ],
      "name": "getTransferStudentByindex",
      "outputs": [
        {
          "internalType": "string",
          "name": "",
          "type": "string"
        },
        {
          "internalType": "address",
          "name": "",
          "type": "address"
        },
        {
          "internalType": "string",
          "name": "",
          "type": "string"
        },
        {
          "internalType": "string",
          "name": "",
          "type": "string"
        },
        {
          "internalType": "address",
          "name": "",
          "type": "address"
        }
      ],
      "stateMutability": "view",
      "type": "function"
    },
    {
      "inputs": [],
      "name": "getTransferStudentsCount",
      "outputs": [
        {
          "internalType": "uint256",
          "name": "",
          "type": "uint256"
        }
      ],
      "stateMutability": "view",
      "type": "function"
    },
    {
      "inputs": [],
      "name": "instregd",
      "outputs": [
        {
          "internalType": "contract verifyinst",
          "name": "",
          "type": "address"
        }
      ],
      "stateMutability": "view",
      "type": "function"
    },
    {
      "inputs": [
        {
          "internalType": "address",
          "name": "_studentAddress",
          "type": "address"
        }
      ],
      "name": "isStudent",
      "outputs": [
        {
          "internalType": "bool",
          "name": "",
          "type": "bool"
        }
      ],
      "stateMutability": "view",
      "type": "function"
    },
    {
      "inputs": [
        {
          "internalType": "uint256",
          "name": "",
          "type": "uint256"
        }
      ],
      "name": "pendingStudentsarray",
      "outputs": [
        {
          "internalType": "string",
          "name": "name",
          "type": "string"
        },
        {
          "internalType": "address",
          "name": "student_address",
          "type": "address"
        },
        {
          "internalType": "string",
          "name": "email",
          "type": "string"
        },
        {
          "internalType": "string",
          "name": "id",
          "type": "string"
        },
        {
          "internalType": "address",
          "name": "instAddress",
          "type": "address"
        }
      ],
      "stateMutability": "view",
      "type": "function"
    },
    {
      "inputs": [
        {
          "internalType": "uint256",
          "name": "index",
          "type": "uint256"
        },
        {
          "internalType": "address",
          "name": "student_address",
          "type": "address"
        },
        {
          "internalType": "string",
          "name": "id",
          "type": "string"
        }
      ],
      "name": "removeGraduateStud",
      "outputs": [],
      "stateMutability": "nonpayable",
      "type": "function"
    },
    {
      "inputs": [],
      "name": "studentRegisterContractAddress",
      "outputs": [
        {
          "internalType": "address",
          "name": "",
          "type": "address"
        }
      ],
      "stateMutability": "view",
      "type": "function"
    },
    {
      "inputs": [],
      "name": "studreg",
      "outputs": [
        {
          "internalType": "contract registerStud",
          "name": "",
          "type": "address"
        }
      ],
      "stateMutability": "view",
      "type": "function"
    },
    {
      "inputs": [
        {
          "internalType": "uint256",
          "name": "",
          "type": "uint256"
        }
      ],
      "name": "transferStudentsarray",
      "outputs": [
        {
          "internalType": "string",
          "name": "name",
          "type": "string"
        },
        {
          "internalType": "address",
          "name": "student_address",
          "type": "address"
        },
        {
          "internalType": "string",
          "name": "email",
          "type": "string"
        },
        {
          "internalType": "string",
          "name": "id",
          "type": "string"
        },
        {
          "internalType": "address",
          "name": "instAddress",
          "type": "address"
        }
      ],
      "stateMutability": "view",
      "type": "function"
    },
    {
      "inputs": [],
      "name": "trialnumber",
      "outputs": [
        {
          "internalType": "uint256",
          "name": "",
          "type": "uint256"
        }
      ],
      "stateMutability": "view",
      "type": "function"
    },
    {
      "inputs": [
        {
          "internalType": "uint256",
          "name": "index",
          "type": "uint256"
        }
      ],
      "name": "verifyTransferstudent",
      "outputs": [],
      "stateMutability": "nonpayable",
      "type": "function"
    },
    {
      "inputs": [
        {
          "internalType": "uint256",
          "name": "index",
          "type": "uint256"
        }
      ],
      "name": "verifystudent",
      "outputs": [],
      "stateMutability": "nonpayable",
      "type": "function"
    }
  ],
  "devdoc": {
    "kind": "dev",
    "methods": {},
    "version": 1
  },
  "evm": {
    "assembly": "    /* \"verifystud.sol\":200:7127  contract verifystud {... */\n  mstore(0x40, 0x80)\n    /* \"verifystud.sol\":431:432  0 */\n  0x00\n    /* \"verifystud.sol\":402:432  uint256 public trialnumber = 0 */\n  0x04\n  sstore\n    /* \"verifystud.sol\":441:725  constructor(address _registerStudAddress, address _registeredInstAddress) {... */\n  callvalue\n  dup1\n  iszero\n  tag_1\n  jumpi\n  0x00\n  dup1\n  revert\ntag_1:\n  pop\n  mload(0x40)\n  sub(codesize, bytecodeSize)\n  dup1\n  bytecodeSize\n  dup4\n  codecopy\n  dup2\n  dup2\n  add\n  0x40\n  mstore\n  dup2\n  add\n  swap1\n  tag_2\n  swap2\n  swap1\n  tag_3\n  jump\t// in\ntag_2:\n    /* \"verifystud.sol\":532:542  msg.sender */\n  caller\n    /* \"verifystud.sol\":526:529  MOE */\n  0x00\n  dup1\n    /* \"verifystud.sol\":526:542  MOE = msg.sender */\n  0x0100\n  exp\n  dup2\n  sload\n  dup2\n  0xffffffffffffffffffffffffffffffffffffffff\n  mul\n  not\n  and\n  swap1\n  dup4\n  0xffffffffffffffffffffffffffffffffffffffff\n  and\n  mul\n  or\n  swap1\n  sstore\n  pop\n    /* \"verifystud.sol\":586:606  _registerStudAddress */\n  dup2\n    /* \"verifystud.sol\":553:583  studentRegisterContractAddress */\n  0x03\n  0x00\n    /* \"verifystud.sol\":553:606  studentRegisterContractAddress = _registerStudAddress */\n  0x0100\n  exp\n  dup2\n  sload\n  dup2\n  0xffffffffffffffffffffffffffffffffffffffff\n  mul\n  not\n  and\n  swap1\n  dup4\n  0xffffffffffffffffffffffffffffffffffffffff\n  and\n  mul\n  or\n  swap1\n  sstore\n  pop\n    /* \"verifystud.sol\":640:660  _registerStudAddress */\n  dup2\n    /* \"verifystud.sol\":617:624  studreg */\n  0x01\n  0x00\n    /* \"verifystud.sol\":617:661  studreg = registerStud(_registerStudAddress) */\n  0x0100\n  exp\n  dup2\n  sload\n  dup2\n  0xffffffffffffffffffffffffffffffffffffffff\n  mul\n  not\n  and\n  swap1\n  dup4\n  0xffffffffffffffffffffffffffffffffffffffff\n  and\n  mul\n  or\n  swap1\n  sstore\n  pop\n    /* \"verifystud.sol\":694:716  _registeredInstAddress */\n  dup1\n    /* \"verifystud.sol\":672:680  instregd */\n  0x02\n  0x00\n    /* \"verifystud.sol\":672:717  instregd = verifyinst(_registeredInstAddress) */\n  0x0100\n  exp\n  dup2\n  sload\n  dup2\n  0xffffffffffffffffffffffffffffffffffffffff\n  mul\n  not\n  and\n  swap1\n  dup4\n  0xffffffffffffffffffffffffffffffffffffffff\n  and\n  mul\n  or\n  swap1\n  sstore\n  pop\n    /* \"verifystud.sol\":441:725  constructor(address _registerStudAddress, address _registeredInstAddress) {... */\n  pop\n  pop\n    /* \"verifystud.sol\":200:7127  contract verifystud {... */\n  jump(tag_6)\n    /* \"#utility.yul\":88:205   */\ntag_8:\n    /* \"#utility.yul\":197:198   */\n  0x00\n    /* \"#utility.yul\":194:195   */\n  dup1\n    /* \"#utility.yul\":187:199   */\n  revert\n    /* \"#utility.yul\":334:460   */\ntag_10:\n    /* \"#utility.yul\":371:378   */\n  0x00\n    /* \"#utility.yul\":411:453   */\n  0xffffffffffffffffffffffffffffffffffffffff\n    /* \"#utility.yul\":404:409   */\n  dup3\n    /* \"#utility.yul\":400:454   */\n  and\n    /* \"#utility.yul\":389:454   */\n  swap1\n  pop\n    /* \"#utility.yul\":334:460   */\n  swap2\n  swap1\n  pop\n  jump\t// out\n    /* \"#utility.yul\":466:562   */\ntag_11:\n    /* \"#utility.yul\":503:510   */\n  0x00\n    /* \"#utility.yul\":532:556   */\n  tag_20\n    /* \"#utility.yul\":550:555   */\n  dup3\n    /* \"#utility.yul\":532:556   */\n  tag_10\n  jump\t// in\ntag_20:\n    /* \"#utility.yul\":521:556   */\n  swap1\n  pop\n    /* \"#utility.yul\":466:562   */\n  swap2\n  swap1\n  pop\n  jump\t// out\n    /* \"#utility.yul\":568:690   */\ntag_12:\n    /* \"#utility.yul\":641:665   */\n  tag_22\n    /* \"#utility.yul\":659:664   */\n  dup2\n    /* \"#utility.yul\":641:665   */\n  tag_11\n  jump\t// in\ntag_22:\n    /* \"#utility.yul\":634:639   */\n  dup2\n    /* \"#utility.yul\":631:666   */\n  eq\n    /* \"#utility.yul\":621:684   */\n  tag_23\n  jumpi\n    /* \"#utility.yul\":680:681   */\n  0x00\n    /* \"#utility.yul\":677:678   */\n  dup1\n    /* \"#utility.yul\":670:682   */\n  revert\n    /* \"#utility.yul\":621:684   */\ntag_23:\n    /* \"#utility.yul\":568:690   */\n  pop\n  jump\t// out\n    /* \"#utility.yul\":696:839   */\ntag_13:\n    /* \"#utility.yul\":753:758   */\n  0x00\n    /* \"#utility.yul\":784:790   */\n  dup2\n    /* \"#utility.yul\":778:791   */\n  mload\n    /* \"#utility.yul\":769:791   */\n  swap1\n  pop\n    /* \"#utility.yul\":800:833   */\n  tag_25\n    /* \"#utility.yul\":827:832   */\n  dup2\n    /* \"#utility.yul\":800:833   */\n  tag_12\n  jump\t// in\ntag_25:\n    /* \"#utility.yul\":696:839   */\n  swap3\n  swap2\n  pop\n  pop\n  jump\t// out\n    /* \"#utility.yul\":845:1352   */\ntag_3:\n    /* \"#utility.yul\":924:930   */\n  0x00\n    /* \"#utility.yul\":932:938   */\n  dup1\n    /* \"#utility.yul\":981:983   */\n  0x40\n    /* \"#utility.yul\":969:978   */\n  dup4\n    /* \"#utility.yul\":960:967   */\n  dup6\n    /* \"#utility.yul\":956:979   */\n  sub\n    /* \"#utility.yul\":952:984   */\n  slt\n    /* \"#utility.yul\":949:1068   */\n  iszero\n  tag_27\n  jumpi\n    /* \"#utility.yul\":987:1066   */\n  tag_28\n  tag_8\n  jump\t// in\ntag_28:\n    /* \"#utility.yul\":949:1068   */\ntag_27:\n    /* \"#utility.yul\":1107:1108   */\n  0x00\n    /* \"#utility.yul\":1132:1196   */\n  tag_29\n    /* \"#utility.yul\":1188:1195   */\n  dup6\n    /* \"#utility.yul\":1179:1185   */\n  dup3\n    /* \"#utility.yul\":1168:1177   */\n  dup7\n    /* \"#utility.yul\":1164:1186   */\n  add\n    /* \"#utility.yul\":1132:1196   */\n  tag_13\n  jump\t// in\ntag_29:\n    /* \"#utility.yul\":1122:1196   */\n  swap3\n  pop\n    /* \"#utility.yul\":1078:1206   */\n  pop\n    /* \"#utility.yul\":1245:1247   */\n  0x20\n    /* \"#utility.yul\":1271:1335   */\n  tag_30\n    /* \"#utility.yul\":1327:1334   */\n  dup6\n    /* \"#utility.yul\":1318:1324   */\n  dup3\n    /* \"#utility.yul\":1307:1316   */\n  dup7\n    /* \"#utility.yul\":1303:1325   */\n  add\n    /* \"#utility.yul\":1271:1335   */\n  tag_13\n  jump\t// in\ntag_30:\n    /* \"#utility.yul\":1261:1335   */\n  swap2\n  pop\n    /* \"#utility.yul\":1216:1345   */\n  pop\n    /* \"#utility.yul\":845:1352   */\n  swap3\n  pop\n  swap3\n  swap1\n  pop\n  jump\t// out\n    /* \"verifystud.sol\":200:7127  contract verifystud {... */\ntag_6:\n  dataSize(sub_0)\n  dup1\n  dataOffset(sub_0)\n  0x00\n  codecopy\n  0x00\n  return\nstop\n\nsub_0: assembly {\n        /* \"verifystud.sol\":200:7127  contract verifystud {... */\n      mstore(0x40, 0x80)\n      callvalue\n      dup1\n      iszero\n      tag_1\n      jumpi\n      0x00\n      dup1\n      revert\n    tag_1:\n      pop\n      jumpi(tag_2, lt(calldatasize, 0x04))\n      shr(0xe0, calldataload(0x00))\n      dup1\n      0xa4156aec\n      gt\n      tag_24\n      jumpi\n      dup1\n      0xbd6a8504\n      gt\n      tag_25\n      jumpi\n      dup1\n      0xbd6a8504\n      eq\n      tag_18\n      jumpi\n      dup1\n      0xc865d881\n      eq\n      tag_19\n      jumpi\n      dup1\n      0xca90543d\n      eq\n      tag_20\n      jumpi\n      dup1\n      0xda085b7a\n      eq\n      tag_21\n      jumpi\n      dup1\n      0xf00c848d\n      eq\n      tag_22\n      jumpi\n      dup1\n      0xf20bcf9a\n      eq\n      tag_23\n      jumpi\n      jump(tag_2)\n    tag_25:\n      dup1\n      0xa4156aec\n      eq\n      tag_13\n      jumpi\n      dup1\n      0xb16f9023\n      eq\n      tag_14\n      jumpi\n      dup1\n      0xb1be843d\n      eq\n      tag_15\n      jumpi\n      dup1\n      0xb7774c1a\n      eq\n      tag_16\n      jumpi\n      dup1\n      0xbae0a585\n      eq\n      tag_17\n      jumpi\n      jump(tag_2)\n    tag_24:\n      dup1\n      0x78cfe85e\n      gt\n      tag_26\n      jumpi\n      dup1\n      0x78cfe85e\n      eq\n      tag_8\n      jumpi\n      dup1\n      0x82f7d392\n      eq\n      tag_9\n      jumpi\n      dup1\n      0x8a97503d\n      eq\n      tag_10\n      jumpi\n      dup1\n      0x911018ef\n      eq\n      tag_11\n      jumpi\n      dup1\n      0xa2a1fee5\n      eq\n      tag_12\n      jumpi\n      jump(tag_2)\n    tag_26:\n      dup1\n      0x20b260e3\n      eq\n      tag_3\n      jumpi\n      dup1\n      0x2ecca5fe\n      eq\n      tag_4\n      jumpi\n      dup1\n      0x548d434e\n      eq\n      tag_5\n      jumpi\n      dup1\n      0x5b969a04\n      eq\n      tag_6\n      jumpi\n      dup1\n      0x673a1746\n      eq\n      tag_7\n      jumpi\n    tag_2:\n      0x00\n      dup1\n      revert\n        /* \"verifystud.sol\":6427:6533  function StudentsCount() public view returns (uint256) {... */\n    tag_3:\n      tag_27\n      tag_28\n      jump\t// in\n    tag_27:\n      mload(0x40)\n      tag_29\n      swap2\n      swap1\n      tag_30\n      jump\t// in\n    tag_29:\n      mload(0x40)\n      dup1\n      swap2\n      sub\n      swap1\n      return\n        /* \"verifystud.sol\":6707:6842  function checkFunction() public view returns(bool){... */\n    tag_4:\n      tag_31\n      tag_32\n      jump\t// in\n    tag_31:\n      mload(0x40)\n      tag_33\n      swap2\n      swap1\n      tag_34\n      jump\t// in\n    tag_33:\n      mload(0x40)\n      dup1\n      swap2\n      sub\n      swap1\n      return\n        /* \"verifystud.sol\":1035:1081  pendingstudents[] public transferStudentsarray */\n    tag_5:\n      tag_35\n      0x04\n      dup1\n      calldatasize\n      sub\n      dup2\n      add\n      swap1\n      tag_36\n      swap2\n      swap1\n      tag_37\n      jump\t// in\n    tag_36:\n      tag_38\n      jump\t// in\n    tag_35:\n      mload(0x40)\n      tag_39\n      swap6\n      swap5\n      swap4\n      swap3\n      swap2\n      swap1\n      tag_40\n      jump\t// in\n    tag_39:\n      mload(0x40)\n      dup1\n      swap2\n      sub\n      swap1\n      return\n        /* \"verifystud.sol\":5184:5723  function getPendingStudentByindex(... */\n    tag_6:\n      tag_41\n      0x04\n      dup1\n      calldatasize\n      sub\n      dup2\n      add\n      swap1\n      tag_42\n      swap2\n      swap1\n      tag_37\n      jump\t// in\n    tag_42:\n      tag_43\n      jump\t// in\n    tag_41:\n      mload(0x40)\n      tag_44\n      swap6\n      swap5\n      swap4\n      swap3\n      swap2\n      swap1\n      tag_40\n      jump\t// in\n    tag_44:\n      mload(0x40)\n      dup1\n      swap2\n      sub\n      swap1\n      return\n        /* \"verifystud.sol\":227:245  address public MOE */\n    tag_7:\n      tag_45\n      tag_46\n      jump\t// in\n    tag_45:\n      mload(0x40)\n      tag_47\n      swap2\n      swap1\n      tag_48\n      jump\t// in\n    tag_47:\n      mload(0x40)\n      dup1\n      swap2\n      sub\n      swap1\n      return\n        /* \"verifystud.sol\":1433:1940  function addStudToPending(string memory _name, address _student_address, string memory _email, string memory _id, address _instAddress) public{... */\n    tag_8:\n      tag_49\n      0x04\n      dup1\n      calldatasize\n      sub\n      dup2\n      add\n      swap1\n      tag_50\n      swap2\n      swap1\n      tag_51\n      jump\t// in\n    tag_50:\n      tag_52\n      jump\t// in\n    tag_49:\n      stop\n        /* \"verifystud.sol\":6260:6411  function isStudent(address _studentAddress) public view returns (bool) {... */\n    tag_9:\n      tag_53\n      0x04\n      dup1\n      calldatasize\n      sub\n      dup2\n      add\n      swap1\n      tag_54\n      swap2\n      swap1\n      tag_55\n      jump\t// in\n    tag_54:\n      tag_56\n      jump\t// in\n    tag_53:\n      mload(0x40)\n      tag_57\n      swap2\n      swap1\n      tag_34\n      jump\t// in\n    tag_57:\n      mload(0x40)\n      dup1\n      swap2\n      sub\n      swap1\n      return\n        /* \"verifystud.sol\":1244:1425  function generateKey(... */\n    tag_10:\n      tag_58\n      0x04\n      dup1\n      calldatasize\n      sub\n      dup2\n      add\n      swap1\n      tag_59\n      swap2\n      swap1\n      tag_60\n      jump\t// in\n    tag_59:\n      tag_61\n      jump\t// in\n    tag_58:\n      mload(0x40)\n      tag_62\n      swap2\n      swap1\n      tag_63\n      jump\t// in\n    tag_62:\n      mload(0x40)\n      dup1\n      swap2\n      sub\n      swap1\n      return\n        /* \"verifystud.sol\":402:432  uint256 public trialnumber = 0 */\n    tag_11:\n      tag_64\n      tag_65\n      jump\t// in\n    tag_64:\n      mload(0x40)\n      tag_66\n      swap2\n      swap1\n      tag_30\n      jump\t// in\n    tag_66:\n      mload(0x40)\n      dup1\n      swap2\n      sub\n      swap1\n      return\n        /* \"verifystud.sol\":4925:5045  function getTransferStudentsCount() public view returns (uint256) {... */\n    tag_12:\n      tag_67\n      tag_68\n      jump\t// in\n    tag_67:\n      mload(0x40)\n      tag_69\n      swap2\n      swap1\n      tag_30\n      jump\t// in\n    tag_69:\n      mload(0x40)\n      dup1\n      swap2\n      sub\n      swap1\n      return\n        /* \"verifystud.sol\":5731:6252  function getTransferStudentByindex(... */\n    tag_13:\n      tag_70\n      0x04\n      dup1\n      calldatasize\n      sub\n      dup2\n      add\n      swap1\n      tag_71\n      swap2\n      swap1\n      tag_37\n      jump\t// in\n    tag_71:\n      tag_72\n      jump\t// in\n    tag_70:\n      mload(0x40)\n      tag_73\n      swap6\n      swap5\n      swap4\n      swap3\n      swap2\n      swap1\n      tag_40\n      jump\t// in\n    tag_73:\n      mload(0x40)\n      dup1\n      swap2\n      sub\n      swap1\n      return\n        /* \"verifystud.sol\":1954:2828  function addTransferStudToPending(string memory _name, address _student_address, string memory _email, string memory _id, address _currentInstAddress, address _newinstAddress) public{... */\n    tag_14:\n      tag_74\n      0x04\n      dup1\n      calldatasize\n      sub\n      dup2\n      add\n      swap1\n      tag_75\n      swap2\n      swap1\n      tag_76\n      jump\t// in\n    tag_75:\n      tag_77\n      jump\t// in\n    tag_74:\n      stop\n        /* \"verifystud.sol\":5053:5171  function getPendingStudentsCount() public view returns (uint256) {... */\n    tag_15:\n      tag_78\n      tag_79\n      jump\t// in\n    tag_78:\n      mload(0x40)\n      tag_80\n      swap2\n      swap1\n      tag_30\n      jump\t// in\n    tag_80:\n      mload(0x40)\n      dup1\n      swap2\n      sub\n      swap1\n      return\n        /* \"verifystud.sol\":319:364  address public studentRegisterContractAddress */\n    tag_16:\n      tag_81\n      tag_82\n      jump\t// in\n    tag_81:\n      mload(0x40)\n      tag_83\n      swap2\n      swap1\n      tag_48\n      jump\t// in\n    tag_83:\n      mload(0x40)\n      dup1\n      swap2\n      sub\n      swap1\n      return\n        /* \"verifystud.sol\":286:312  verifyinst public instregd */\n    tag_17:\n      tag_84\n      tag_85\n      jump\t// in\n    tag_84:\n      mload(0x40)\n      tag_86\n      swap2\n      swap1\n      tag_87\n      jump\t// in\n    tag_86:\n      mload(0x40)\n      dup1\n      swap2\n      sub\n      swap1\n      return\n        /* \"verifystud.sol\":983:1028  pendingstudents[] public pendingStudentsarray */\n    tag_18:\n      tag_88\n      0x04\n      dup1\n      calldatasize\n      sub\n      dup2\n      add\n      swap1\n      tag_89\n      swap2\n      swap1\n      tag_37\n      jump\t// in\n    tag_89:\n      tag_90\n      jump\t// in\n    tag_88:\n      mload(0x40)\n      tag_91\n      swap6\n      swap5\n      swap4\n      swap3\n      swap2\n      swap1\n      tag_40\n      jump\t// in\n    tag_91:\n      mload(0x40)\n      dup1\n      swap2\n      sub\n      swap1\n      return\n        /* \"verifystud.sol\":252:279  registerStud public studreg */\n    tag_19:\n      tag_92\n      tag_93\n      jump\t// in\n    tag_92:\n      mload(0x40)\n      tag_94\n      swap2\n      swap1\n      tag_95\n      jump\t// in\n    tag_94:\n      mload(0x40)\n      dup1\n      swap2\n      sub\n      swap1\n      return\n        /* \"verifystud.sol\":6541:6701  function getStudentContractByAddress(... */\n    tag_20:\n      tag_96\n      0x04\n      dup1\n      calldatasize\n      sub\n      dup2\n      add\n      swap1\n      tag_97\n      swap2\n      swap1\n      tag_55\n      jump\t// in\n    tag_97:\n      tag_98\n      jump\t// in\n    tag_96:\n      mload(0x40)\n      tag_99\n      swap2\n      swap1\n      tag_48\n      jump\t// in\n    tag_99:\n      mload(0x40)\n      dup1\n      swap2\n      sub\n      swap1\n      return\n        /* \"verifystud.sol\":3640:4456  function verifyTransferstudent(uint256 index) public {... */\n    tag_21:\n      tag_100\n      0x04\n      dup1\n      calldatasize\n      sub\n      dup2\n      add\n      swap1\n      tag_101\n      swap2\n      swap1\n      tag_37\n      jump\t// in\n    tag_101:\n      tag_102\n      jump\t// in\n    tag_100:\n      stop\n        /* \"verifystud.sol\":2836:3631  function verifystudent(uint256 index) public  {... */\n    tag_22:\n      tag_103\n      0x04\n      dup1\n      calldatasize\n      sub\n      dup2\n      add\n      swap1\n      tag_104\n      swap2\n      swap1\n      tag_37\n      jump\t// in\n    tag_104:\n      tag_105\n      jump\t// in\n    tag_103:\n      stop\n        /* \"verifystud.sol\":4462:4917  function removeGraduateStud(uint256 index,address student_address,string memory id) public {... */\n    tag_23:\n      tag_106\n      0x04\n      dup1\n      calldatasize\n      sub\n      dup2\n      add\n      swap1\n      tag_107\n      swap2\n      swap1\n      tag_108\n      jump\t// in\n    tag_107:\n      tag_109\n      jump\t// in\n    tag_106:\n      stop\n        /* \"verifystud.sol\":6427:6533  function StudentsCount() public view returns (uint256) {... */\n    tag_28:\n        /* \"verifystud.sol\":6473:6480  uint256 */\n      0x00\n        /* \"verifystud.sol\":6500:6518  registeredStudents */\n      0x08\n        /* \"verifystud.sol\":6500:6525  registeredStudents.length */\n      dup1\n      sload\n      swap1\n      pop\n        /* \"verifystud.sol\":6493:6525  return registeredStudents.length */\n      swap1\n      pop\n        /* \"verifystud.sol\":6427:6533  function StudentsCount() public view returns (uint256) {... */\n      swap1\n      jump\t// out\n        /* \"verifystud.sol\":6707:6842  function checkFunction() public view returns(bool){... */\n    tag_32:\n        /* \"verifystud.sol\":6752:6756  bool */\n      0x00\n        /* \"verifystud.sol\":6829:6830  0 */\n      dup1\n        /* \"verifystud.sol\":6775:6831  instregd.registeredinstitutesmap(msg.sender)!=address(0) */\n      0xffffffffffffffffffffffffffffffffffffffff\n      and\n        /* \"verifystud.sol\":6775:6783  instregd */\n      0x02\n      0x00\n      swap1\n      sload\n      swap1\n      0x0100\n      exp\n      swap1\n      div\n      0xffffffffffffffffffffffffffffffffffffffff\n      and\n        /* \"verifystud.sol\":6775:6807  instregd.registeredinstitutesmap */\n      0xffffffffffffffffffffffffffffffffffffffff\n      and\n      0x839f602d\n        /* \"verifystud.sol\":6808:6818  msg.sender */\n      caller\n        /* \"verifystud.sol\":6775:6819  instregd.registeredinstitutesmap(msg.sender) */\n      mload(0x40)\n      dup3\n      0xffffffff\n      and\n      0xe0\n      shl\n      dup2\n      mstore\n      0x04\n      add\n      tag_112\n      swap2\n      swap1\n      tag_48\n      jump\t// in\n    tag_112:\n      0x20\n      mload(0x40)\n      dup1\n      dup4\n      sub\n      dup2\n      dup7\n      gas\n      staticcall\n      iszero\n      dup1\n      iszero\n      tag_114\n      jumpi\n      returndatasize\n      0x00\n      dup1\n      returndatacopy\n      revert(0x00, returndatasize)\n    tag_114:\n      pop\n      pop\n      pop\n      pop\n      mload(0x40)\n      returndatasize\n      not(0x1f)\n      0x1f\n      dup3\n      add\n      and\n      dup3\n      add\n      dup1\n      0x40\n      mstore\n      pop\n      dup2\n      add\n      swap1\n      tag_115\n      swap2\n      swap1\n      tag_116\n      jump\t// in\n    tag_115:\n        /* \"verifystud.sol\":6775:6831  instregd.registeredinstitutesmap(msg.sender)!=address(0) */\n      0xffffffffffffffffffffffffffffffffffffffff\n      and\n      eq\n      iszero\n        /* \"verifystud.sol\":6768:6832  return(instregd.registeredinstitutesmap(msg.sender)!=address(0)) */\n      swap1\n      pop\n        /* \"verifystud.sol\":6707:6842  function checkFunction() public view returns(bool){... */\n      swap1\n      jump\t// out\n        /* \"verifystud.sol\":1035:1081  pendingstudents[] public transferStudentsarray */\n    tag_38:\n      0x06\n      dup2\n      dup2\n      sload\n      dup2\n      lt\n      tag_117\n      jumpi\n      0x00\n      dup1\n      revert\n    tag_117:\n      swap1\n      0x00\n      mstore\n      keccak256(0x00, 0x20)\n      swap1\n      0x05\n      mul\n      add\n      0x00\n      swap2\n      pop\n      swap1\n      pop\n      dup1\n      0x00\n      add\n      dup1\n      sload\n      tag_119\n      swap1\n      tag_120\n      jump\t// in\n    tag_119:\n      dup1\n      0x1f\n      add\n      0x20\n      dup1\n      swap2\n      div\n      mul\n      0x20\n      add\n      mload(0x40)\n      swap1\n      dup2\n      add\n      0x40\n      mstore\n      dup1\n      swap3\n      swap2\n      swap1\n      dup2\n      dup2\n      mstore\n      0x20\n      add\n      dup3\n      dup1\n      sload\n      tag_121\n      swap1\n      tag_120\n      jump\t// in\n    tag_121:\n      dup1\n      iszero\n      tag_122\n      jumpi\n      dup1\n      0x1f\n      lt\n      tag_123\n      jumpi\n      0x0100\n      dup1\n      dup4\n      sload\n      div\n      mul\n      dup4\n      mstore\n      swap2\n      0x20\n      add\n      swap2\n      jump(tag_122)\n    tag_123:\n      dup3\n      add\n      swap2\n      swap1\n      0x00\n      mstore\n      keccak256(0x00, 0x20)\n      swap1\n    tag_124:\n      dup2\n      sload\n      dup2\n      mstore\n      swap1\n      0x01\n      add\n      swap1\n      0x20\n      add\n      dup1\n      dup4\n      gt\n      tag_124\n      jumpi\n      dup3\n      swap1\n      sub\n      0x1f\n      and\n      dup3\n      add\n      swap2\n    tag_122:\n      pop\n      pop\n      pop\n      pop\n      pop\n      swap1\n      dup1\n      0x01\n      add\n      0x00\n      swap1\n      sload\n      swap1\n      0x0100\n      exp\n      swap1\n      div\n      0xffffffffffffffffffffffffffffffffffffffff\n      and\n      swap1\n      dup1\n      0x02\n      add\n      dup1\n      sload\n      tag_125\n      swap1\n      tag_120\n      jump\t// in\n    tag_125:\n      dup1\n      0x1f\n      add\n      0x20\n      dup1\n      swap2\n      div\n      mul\n      0x20\n      add\n      mload(0x40)\n      swap1\n      dup2\n      add\n      0x40\n      mstore\n      dup1\n      swap3\n      swap2\n      swap1\n      dup2\n      dup2\n      mstore\n      0x20\n      add\n      dup3\n      dup1\n      sload\n      tag_126\n      swap1\n      tag_120\n      jump\t// in\n    tag_126:\n      dup1\n      iszero\n      tag_127\n      jumpi\n      dup1\n      0x1f\n      lt\n      tag_128\n      jumpi\n      0x0100\n      dup1\n      dup4\n      sload\n      div\n      mul\n      dup4\n      mstore\n      swap2\n      0x20\n      add\n      swap2\n      jump(tag_127)\n    tag_128:\n      dup3\n      add\n      swap2\n      swap1\n      0x00\n      mstore\n      keccak256(0x00, 0x20)\n      swap1\n    tag_129:\n      dup2\n      sload\n      dup2\n      mstore\n      swap1\n      0x01\n      add\n      swap1\n      0x20\n      add\n      dup1\n      dup4\n      gt\n      tag_129\n      jumpi\n      dup3\n      swap1\n      sub\n      0x1f\n      and\n      dup3\n      add\n      swap2\n    tag_127:\n      pop\n      pop\n      pop\n      pop\n      pop\n      swap1\n      dup1\n      0x03\n      add\n      dup1\n      sload\n      tag_130\n      swap1\n      tag_120\n      jump\t// in\n    tag_130:\n      dup1\n      0x1f\n      add\n      0x20\n      dup1\n      swap2\n      div\n      mul\n      0x20\n      add\n      mload(0x40)\n      swap1\n      dup2\n      add\n      0x40\n      mstore\n      dup1\n      swap3\n      swap2\n      swap1\n      dup2\n      dup2\n      mstore\n      0x20\n      add\n      dup3\n      dup1\n      sload\n      tag_131\n      swap1\n      tag_120\n      jump\t// in\n    tag_131:\n      dup1\n      iszero\n      tag_132\n      jumpi\n      dup1\n      0x1f\n      lt\n      tag_133\n      jumpi\n      0x0100\n      dup1\n      dup4\n      sload\n      div\n      mul\n      dup4\n      mstore\n      swap2\n      0x20\n      add\n      swap2\n      jump(tag_132)\n    tag_133:\n      dup3\n      add\n      swap2\n      swap1\n      0x00\n      mstore\n      keccak256(0x00, 0x20)\n      swap1\n    tag_134:\n      dup2\n      sload\n      dup2\n      mstore\n      swap1\n      0x01\n      add\n      swap1\n      0x20\n      add\n      dup1\n      dup4\n      gt\n      tag_134\n      jumpi\n      dup3\n      swap1\n      sub\n      0x1f\n      and\n      dup3\n      add\n      swap2\n    tag_132:\n      pop\n      pop\n      pop\n      pop\n      pop\n      swap1\n      dup1\n      0x04\n      add\n      0x00\n      swap1\n      sload\n      swap1\n      0x0100\n      exp\n      swap1\n      div\n      0xffffffffffffffffffffffffffffffffffffffff\n      and\n      swap1\n      pop\n      dup6\n      jump\t// out\n        /* \"verifystud.sol\":5184:5723  function getPendingStudentByindex(... */\n    tag_43:\n        /* \"verifystud.sol\":5297:5310  string memory */\n      0x60\n        /* \"verifystud.sol\":5312:5319  address */\n      0x00\n        /* \"verifystud.sol\":5341:5354  string memory */\n      0x60\n        /* \"verifystud.sol\":5356:5369  string memory */\n      dup1\n        /* \"verifystud.sol\":5371:5378  address */\n      0x00\n        /* \"verifystud.sol\":5412:5432  pendingStudentsarray */\n      0x05\n        /* \"verifystud.sol\":5412:5439  pendingStudentsarray.length */\n      dup1\n      sload\n      swap1\n      pop\n        /* \"verifystud.sol\":5404:5409  index */\n      dup7\n        /* \"verifystud.sol\":5404:5439  index < pendingStudentsarray.length */\n      lt\n        /* \"verifystud.sol\":5396:5463  require(index < pendingStudentsarray.length, \"Index out of bounds\") */\n      tag_136\n      jumpi\n      mload(0x40)\n      0x08c379a000000000000000000000000000000000000000000000000000000000\n      dup2\n      mstore\n      0x04\n      add\n      tag_137\n      swap1\n      tag_138\n      jump\t// in\n    tag_137:\n      mload(0x40)\n      dup1\n      swap2\n      sub\n      swap1\n      revert\n    tag_136:\n        /* \"verifystud.sol\":5476:5510  pendingstudents memory studentinfo */\n      0x00\n        /* \"verifystud.sol\":5513:5533  pendingStudentsarray */\n      0x05\n        /* \"verifystud.sol\":5534:5539  index */\n      dup8\n        /* \"verifystud.sol\":5513:5540  pendingStudentsarray[index] */\n      dup2\n      sload\n      dup2\n      lt\n      tag_139\n      jumpi\n      tag_140\n      tag_141\n      jump\t// in\n    tag_140:\n    tag_139:\n      swap1\n      0x00\n      mstore\n      keccak256(0x00, 0x20)\n      swap1\n      0x05\n      mul\n      add\n        /* \"verifystud.sol\":5476:5540  pendingstudents memory studentinfo = pendingStudentsarray[index] */\n      mload(0x40)\n      dup1\n      0xa0\n      add\n      0x40\n      mstore\n      swap1\n      dup2\n      0x00\n      dup3\n      add\n      dup1\n      sload\n      tag_143\n      swap1\n      tag_120\n      jump\t// in\n    tag_143:\n      dup1\n      0x1f\n      add\n      0x20\n      dup1\n      swap2\n      div\n      mul\n      0x20\n      add\n      mload(0x40)\n      swap1\n      dup2\n      add\n      0x40\n      mstore\n      dup1\n      swap3\n      swap2\n      swap1\n      dup2\n      dup2\n      mstore\n      0x20\n      add\n      dup3\n      dup1\n      sload\n      tag_144\n      swap1\n      tag_120\n      jump\t// in\n    tag_144:\n      dup1\n      iszero\n      tag_145\n      jumpi\n      dup1\n      0x1f\n      lt\n      tag_146\n      jumpi\n      0x0100\n      dup1\n      dup4\n      sload\n      div\n      mul\n      dup4\n      mstore\n      swap2\n      0x20\n      add\n      swap2\n      jump(tag_145)\n    tag_146:\n      dup3\n      add\n      swap2\n      swap1\n      0x00\n      mstore\n      keccak256(0x00, 0x20)\n      swap1\n    tag_147:\n      dup2\n      sload\n      dup2\n      mstore\n      swap1\n      0x01\n      add\n      swap1\n      0x20\n      add\n      dup1\n      dup4\n      gt\n      tag_147\n      jumpi\n      dup3\n      swap1\n      sub\n      0x1f\n      and\n      dup3\n      add\n      swap2\n    tag_145:\n      pop\n      pop\n      pop\n      pop\n      pop\n      dup2\n      mstore\n      0x20\n      add\n      0x01\n      dup3\n      add\n      0x00\n      swap1\n      sload\n      swap1\n      0x0100\n      exp\n      swap1\n      div\n      0xffffffffffffffffffffffffffffffffffffffff\n      and\n      0xffffffffffffffffffffffffffffffffffffffff\n      and\n      0xffffffffffffffffffffffffffffffffffffffff\n      and\n      dup2\n      mstore\n      0x20\n      add\n      0x02\n      dup3\n      add\n      dup1\n      sload\n      tag_148\n      swap1\n      tag_120\n      jump\t// in\n    tag_148:\n      dup1\n      0x1f\n      add\n      0x20\n      dup1\n      swap2\n      div\n      mul\n      0x20\n      add\n      mload(0x40)\n      swap1\n      dup2\n      add\n      0x40\n      mstore\n      dup1\n      swap3\n      swap2\n      swap1\n      dup2\n      dup2\n      mstore\n      0x20\n      add\n      dup3\n      dup1\n      sload\n      tag_149\n      swap1\n      tag_120\n      jump\t// in\n    tag_149:\n      dup1\n      iszero\n      tag_150\n      jumpi\n      dup1\n      0x1f\n      lt\n      tag_151\n      jumpi\n      0x0100\n      dup1\n      dup4\n      sload\n      div\n      mul\n      dup4\n      mstore\n      swap2\n      0x20\n      add\n      swap2\n      jump(tag_150)\n    tag_151:\n      dup3\n      add\n      swap2\n      swap1\n      0x00\n      mstore\n      keccak256(0x00, 0x20)\n      swap1\n    tag_152:\n      dup2\n      sload\n      dup2\n      mstore\n      swap1\n      0x01\n      add\n      swap1\n      0x20\n      add\n      dup1\n      dup4\n      gt\n      tag_152\n      jumpi\n      dup3\n      swap1\n      sub\n      0x1f\n      and\n      dup3\n      add\n      swap2\n    tag_150:\n      pop\n      pop\n      pop\n      pop\n      pop\n      dup2\n      mstore\n      0x20\n      add\n      0x03\n      dup3\n      add\n      dup1\n      sload\n      tag_153\n      swap1\n      tag_120\n      jump\t// in\n    tag_153:\n      dup1\n      0x1f\n      add\n      0x20\n      dup1\n      swap2\n      div\n      mul\n      0x20\n      add\n      mload(0x40)\n      swap1\n      dup2\n      add\n      0x40\n      mstore\n      dup1\n      swap3\n      swap2\n      swap1\n      dup2\n      dup2\n      mstore\n      0x20\n      add\n      dup3\n      dup1\n      sload\n      tag_154\n      swap1\n      tag_120\n      jump\t// in\n    tag_154:\n      dup1\n      iszero\n      tag_155\n      jumpi\n      dup1\n      0x1f\n      lt\n      tag_156\n      jumpi\n      0x0100\n      dup1\n      dup4\n      sload\n      div\n      mul\n      dup4\n      mstore\n      swap2\n      0x20\n      add\n      swap2\n      jump(tag_155)\n    tag_156:\n      dup3\n      add\n      swap2\n      swap1\n      0x00\n      mstore\n      keccak256(0x00, 0x20)\n      swap1\n    tag_157:\n      dup2\n      sload\n      dup2\n      mstore\n      swap1\n      0x01\n      add\n      swap1\n      0x20\n      add\n      dup1\n      dup4\n      gt\n      tag_157\n      jumpi\n      dup3\n      swap1\n      sub\n      0x1f\n      and\n      dup3\n      add\n      swap2\n    tag_155:\n      pop\n      pop\n      pop\n      pop\n      pop\n      dup2\n      mstore\n      0x20\n      add\n      0x04\n      dup3\n      add\n      0x00\n      swap1\n      sload\n      swap1\n      0x0100\n      exp\n      swap1\n      div\n      0xffffffffffffffffffffffffffffffffffffffff\n      and\n      0xffffffffffffffffffffffffffffffffffffffff\n      and\n      0xffffffffffffffffffffffffffffffffffffffff\n      and\n      dup2\n      mstore\n      pop\n      pop\n      swap1\n      pop\n        /* \"verifystud.sol\":5567:5578  studentinfo */\n      dup1\n        /* \"verifystud.sol\":5567:5583  studentinfo.name */\n      0x00\n      add\n      mload\n        /* \"verifystud.sol\":5594:5605  studentinfo */\n      dup2\n        /* \"verifystud.sol\":5594:5621  studentinfo.student_address */\n      0x20\n      add\n      mload\n        /* \"verifystud.sol\":5632:5643  studentinfo */\n      dup3\n        /* \"verifystud.sol\":5632:5649  studentinfo.email */\n      0x40\n      add\n      mload\n        /* \"verifystud.sol\":5660:5671  studentinfo */\n      dup4\n        /* \"verifystud.sol\":5660:5674  studentinfo.id */\n      0x60\n      add\n      mload\n        /* \"verifystud.sol\":5685:5696  studentinfo */\n      dup5\n        /* \"verifystud.sol\":5685:5708  studentinfo.instAddress */\n      0x80\n      add\n      mload\n        /* \"verifystud.sol\":5549:5715  return (... */\n      swap6\n      pop\n      swap6\n      pop\n      swap6\n      pop\n      swap6\n      pop\n      swap6\n      pop\n      pop\n        /* \"verifystud.sol\":5184:5723  function getPendingStudentByindex(... */\n      swap2\n      swap4\n      swap6\n      swap1\n      swap3\n      swap5\n      pop\n      jump\t// out\n        /* \"verifystud.sol\":227:245  address public MOE */\n    tag_46:\n      0x00\n      dup1\n      sload\n      swap1\n      0x0100\n      exp\n      swap1\n      div\n      0xffffffffffffffffffffffffffffffffffffffff\n      and\n      dup2\n      jump\t// out\n        /* \"verifystud.sol\":1433:1940  function addStudToPending(string memory _name, address _student_address, string memory _email, string memory _id, address _instAddress) public{... */\n    tag_52:\n        /* \"verifystud.sol\":1598:1638  pendingstudents memory newpendingstudent */\n      tag_159\n      tag_160\n      jump\t// in\n    tag_159:\n        /* \"verifystud.sol\":1674:1679  _name */\n      dup6\n        /* \"verifystud.sol\":1649:1666  newpendingstudent */\n      dup2\n        /* \"verifystud.sol\":1649:1671  newpendingstudent.name */\n      0x00\n      add\n        /* \"verifystud.sol\":1649:1679  newpendingstudent.name = _name */\n      dup2\n      swap1\n      mstore\n      pop\n        /* \"verifystud.sol\":1726:1742  _student_address */\n      dup5\n        /* \"verifystud.sol\":1690:1707  newpendingstudent */\n      dup2\n        /* \"verifystud.sol\":1690:1723  newpendingstudent.student_address */\n      0x20\n      add\n        /* \"verifystud.sol\":1690:1742  newpendingstudent.student_address = _student_address */\n      swap1\n      0xffffffffffffffffffffffffffffffffffffffff\n      and\n      swap1\n      dup2\n      0xffffffffffffffffffffffffffffffffffffffff\n      and\n      dup2\n      mstore\n      pop\n      pop\n        /* \"verifystud.sol\":1779:1785  _email */\n      dup4\n        /* \"verifystud.sol\":1753:1770  newpendingstudent */\n      dup2\n        /* \"verifystud.sol\":1753:1776  newpendingstudent.email */\n      0x40\n      add\n        /* \"verifystud.sol\":1753:1785  newpendingstudent.email = _email */\n      dup2\n      swap1\n      mstore\n      pop\n        /* \"verifystud.sol\":1819:1822  _id */\n      dup3\n        /* \"verifystud.sol\":1796:1813  newpendingstudent */\n      dup2\n        /* \"verifystud.sol\":1796:1816  newpendingstudent.id */\n      0x60\n      add\n        /* \"verifystud.sol\":1796:1822  newpendingstudent.id = _id */\n      dup2\n      swap1\n      mstore\n      pop\n        /* \"verifystud.sol\":1865:1877  _instAddress */\n      dup2\n        /* \"verifystud.sol\":1833:1850  newpendingstudent */\n      dup2\n        /* \"verifystud.sol\":1833:1862  newpendingstudent.instAddress */\n      0x80\n      add\n        /* \"verifystud.sol\":1833:1877  newpendingstudent.instAddress = _instAddress */\n      swap1\n      0xffffffffffffffffffffffffffffffffffffffff\n      and\n      swap1\n      dup2\n      0xffffffffffffffffffffffffffffffffffffffff\n      and\n      dup2\n      mstore\n      pop\n      pop\n        /* \"verifystud.sol\":1888:1908  pendingStudentsarray */\n      0x05\n        /* \"verifystud.sol\":1914:1931  newpendingstudent */\n      dup2\n        /* \"verifystud.sol\":1888:1932  pendingStudentsarray.push(newpendingstudent) */\n      swap1\n      dup1\n      0x01\n      dup2\n      sload\n      add\n      dup1\n      dup3\n      sstore\n      dup1\n      swap2\n      pop\n      pop\n      0x01\n      swap1\n      sub\n      swap1\n      0x00\n      mstore\n      keccak256(0x00, 0x20)\n      swap1\n      0x05\n      mul\n      add\n      0x00\n      swap1\n      swap2\n      swap1\n      swap2\n      swap1\n      swap2\n      pop\n      0x00\n      dup3\n      add\n      mload\n      dup2\n      0x00\n      add\n      swap1\n      dup1\n      mload\n      swap1\n      0x20\n      add\n      swap1\n      tag_162\n      swap3\n      swap2\n      swap1\n      tag_163\n      jump\t// in\n    tag_162:\n      pop\n      0x20\n      dup3\n      add\n      mload\n      dup2\n      0x01\n      add\n      exp(0x0100, 0x00)\n      dup2\n      sload\n      dup2\n      0xffffffffffffffffffffffffffffffffffffffff\n      mul\n      not\n      and\n      swap1\n      dup4\n      0xffffffffffffffffffffffffffffffffffffffff\n      and\n      mul\n      or\n      swap1\n      sstore\n      pop\n      0x40\n      dup3\n      add\n      mload\n      dup2\n      0x02\n      add\n      swap1\n      dup1\n      mload\n      swap1\n      0x20\n      add\n      swap1\n      tag_164\n      swap3\n      swap2\n      swap1\n      tag_163\n      jump\t// in\n    tag_164:\n      pop\n      0x60\n      dup3\n      add\n      mload\n      dup2\n      0x03\n      add\n      swap1\n      dup1\n      mload\n      swap1\n      0x20\n      add\n      swap1\n      tag_165\n      swap3\n      swap2\n      swap1\n      tag_163\n      jump\t// in\n    tag_165:\n      pop\n      0x80\n      dup3\n      add\n      mload\n      dup2\n      0x04\n      add\n      exp(0x0100, 0x00)\n      dup2\n      sload\n      dup2\n      0xffffffffffffffffffffffffffffffffffffffff\n      mul\n      not\n      and\n      swap1\n      dup4\n      0xffffffffffffffffffffffffffffffffffffffff\n      and\n      mul\n      or\n      swap1\n      sstore\n      pop\n      pop\n      pop\n        /* \"verifystud.sol\":1575:1940  {... */\n      pop\n        /* \"verifystud.sol\":1433:1940  function addStudToPending(string memory _name, address _student_address, string memory _email, string memory _id, address _instAddress) public{... */\n      pop\n      pop\n      pop\n      pop\n      pop\n      jump\t// out\n        /* \"verifystud.sol\":6260:6411  function isStudent(address _studentAddress) public view returns (bool) {... */\n    tag_56:\n        /* \"verifystud.sol\":6325:6329  bool */\n      0x00\n        /* \"verifystud.sol\":6399:6402  0x0 */\n      dup1\n        /* \"verifystud.sol\":6349:6403  registeredStudentsmap[_studentAddress] != address(0x0) */\n      0xffffffffffffffffffffffffffffffffffffffff\n      and\n        /* \"verifystud.sol\":6349:6370  registeredStudentsmap */\n      0x07\n        /* \"verifystud.sol\":6349:6387  registeredStudentsmap[_studentAddress] */\n      0x00\n        /* \"verifystud.sol\":6371:6386  _studentAddress */\n      dup5\n        /* \"verifystud.sol\":6349:6387  registeredStudentsmap[_studentAddress] */\n      0xffffffffffffffffffffffffffffffffffffffff\n      and\n      0xffffffffffffffffffffffffffffffffffffffff\n      and\n      dup2\n      mstore\n      0x20\n      add\n      swap1\n      dup2\n      mstore\n      0x20\n      add\n      0x00\n      keccak256\n      0x00\n      swap1\n      sload\n      swap1\n      0x0100\n      exp\n      swap1\n      div\n      0xffffffffffffffffffffffffffffffffffffffff\n      and\n        /* \"verifystud.sol\":6349:6403  registeredStudentsmap[_studentAddress] != address(0x0) */\n      0xffffffffffffffffffffffffffffffffffffffff\n      and\n      eq\n      iszero\n        /* \"verifystud.sol\":6342:6403  return registeredStudentsmap[_studentAddress] != address(0x0) */\n      swap1\n      pop\n        /* \"verifystud.sol\":6260:6411  function isStudent(address _studentAddress) public view returns (bool) {... */\n      swap2\n      swap1\n      pop\n      jump\t// out\n        /* \"verifystud.sol\":1244:1425  function generateKey(... */\n    tag_61:\n        /* \"verifystud.sol\":1348:1355  bytes32 */\n      0x00\n        /* \"verifystud.sol\":1402:1410  _address */\n      dup3\n        /* \"verifystud.sol\":1412:1415  _id */\n      dup3\n        /* \"verifystud.sol\":1385:1416  abi.encodePacked(_address, _id) */\n      add(0x20, mload(0x40))\n      tag_168\n      swap3\n      swap2\n      swap1\n      tag_169\n      jump\t// in\n    tag_168:\n      mload(0x40)\n      0x20\n      dup2\n      dup4\n      sub\n      sub\n      dup2\n      mstore\n      swap1\n      0x40\n      mstore\n        /* \"verifystud.sol\":1375:1417  keccak256(abi.encodePacked(_address, _id)) */\n      dup1\n      mload\n      swap1\n      0x20\n      add\n      keccak256\n        /* \"verifystud.sol\":1368:1417  return keccak256(abi.encodePacked(_address, _id)) */\n      swap1\n      pop\n        /* \"verifystud.sol\":1244:1425  function generateKey(... */\n      swap3\n      swap2\n      pop\n      pop\n      jump\t// out\n        /* \"verifystud.sol\":402:432  uint256 public trialnumber = 0 */\n    tag_65:\n      sload(0x04)\n      dup2\n      jump\t// out\n        /* \"verifystud.sol\":4925:5045  function getTransferStudentsCount() public view returns (uint256) {... */\n    tag_68:\n        /* \"verifystud.sol\":4982:4989  uint256 */\n      0x00\n        /* \"verifystud.sol\":5009:5030  transferStudentsarray */\n      0x06\n        /* \"verifystud.sol\":5009:5037  transferStudentsarray.length */\n      dup1\n      sload\n      swap1\n      pop\n        /* \"verifystud.sol\":5002:5037  return transferStudentsarray.length */\n      swap1\n      pop\n        /* \"verifystud.sol\":4925:5045  function getTransferStudentsCount() public view returns (uint256) {... */\n      swap1\n      jump\t// out\n        /* \"verifystud.sol\":5731:6252  function getTransferStudentByindex(... */\n    tag_72:\n        /* \"verifystud.sol\":5845:5858  string memory */\n      0x60\n        /* \"verifystud.sol\":5860:5867  address */\n      0x00\n        /* \"verifystud.sol\":5869:5882  string memory */\n      0x60\n        /* \"verifystud.sol\":5884:5897  string memory */\n      dup1\n        /* \"verifystud.sol\":5899:5906  address */\n      0x00\n        /* \"verifystud.sol\":5940:5960  pendingStudentsarray */\n      0x05\n        /* \"verifystud.sol\":5940:5967  pendingStudentsarray.length */\n      dup1\n      sload\n      swap1\n      pop\n        /* \"verifystud.sol\":5932:5937  index */\n      dup7\n        /* \"verifystud.sol\":5932:5967  index < pendingStudentsarray.length */\n      lt\n        /* \"verifystud.sol\":5924:5991  require(index < pendingStudentsarray.length, \"Index out of bounds\") */\n      tag_172\n      jumpi\n      mload(0x40)\n      0x08c379a000000000000000000000000000000000000000000000000000000000\n      dup2\n      mstore\n      0x04\n      add\n      tag_173\n      swap1\n      tag_138\n      jump\t// in\n    tag_173:\n      mload(0x40)\n      dup1\n      swap2\n      sub\n      swap1\n      revert\n    tag_172:\n        /* \"verifystud.sol\":6004:6038  pendingstudents memory studentinfo */\n      0x00\n        /* \"verifystud.sol\":6041:6062  transferStudentsarray */\n      0x06\n        /* \"verifystud.sol\":6063:6068  index */\n      dup8\n        /* \"verifystud.sol\":6041:6069  transferStudentsarray[index] */\n      dup2\n      sload\n      dup2\n      lt\n      tag_174\n      jumpi\n      tag_175\n      tag_141\n      jump\t// in\n    tag_175:\n    tag_174:\n      swap1\n      0x00\n      mstore\n      keccak256(0x00, 0x20)\n      swap1\n      0x05\n      mul\n      add\n        /* \"verifystud.sol\":6004:6069  pendingstudents memory studentinfo = transferStudentsarray[index] */\n      mload(0x40)\n      dup1\n      0xa0\n      add\n      0x40\n      mstore\n      swap1\n      dup2\n      0x00\n      dup3\n      add\n      dup1\n      sload\n      tag_177\n      swap1\n      tag_120\n      jump\t// in\n    tag_177:\n      dup1\n      0x1f\n      add\n      0x20\n      dup1\n      swap2\n      div\n      mul\n      0x20\n      add\n      mload(0x40)\n      swap1\n      dup2\n      add\n      0x40\n      mstore\n      dup1\n      swap3\n      swap2\n      swap1\n      dup2\n      dup2\n      mstore\n      0x20\n      add\n      dup3\n      dup1\n      sload\n      tag_178\n      swap1\n      tag_120\n      jump\t// in\n    tag_178:\n      dup1\n      iszero\n      tag_179\n      jumpi\n      dup1\n      0x1f\n      lt\n      tag_180\n      jumpi\n      0x0100\n      dup1\n      dup4\n      sload\n      div\n      mul\n      dup4\n      mstore\n      swap2\n      0x20\n      add\n      swap2\n      jump(tag_179)\n    tag_180:\n      dup3\n      add\n      swap2\n      swap1\n      0x00\n      mstore\n      keccak256(0x00, 0x20)\n      swap1\n    tag_181:\n      dup2\n      sload\n      dup2\n      mstore\n      swap1\n      0x01\n      add\n      swap1\n      0x20\n      add\n      dup1\n      dup4\n      gt\n      tag_181\n      jumpi\n      dup3\n      swap1\n      sub\n      0x1f\n      and\n      dup3\n      add\n      swap2\n    tag_179:\n      pop\n      pop\n      pop\n      pop\n      pop\n      dup2\n      mstore\n      0x20\n      add\n      0x01\n      dup3\n      add\n      0x00\n      swap1\n      sload\n      swap1\n      0x0100\n      exp\n      swap1\n      div\n      0xffffffffffffffffffffffffffffffffffffffff\n      and\n      0xffffffffffffffffffffffffffffffffffffffff\n      and\n      0xffffffffffffffffffffffffffffffffffffffff\n      and\n      dup2\n      mstore\n      0x20\n      add\n      0x02\n      dup3\n      add\n      dup1\n      sload\n      tag_182\n      swap1\n      tag_120\n      jump\t// in\n    tag_182:\n      dup1\n      0x1f\n      add\n      0x20\n      dup1\n      swap2\n      div\n      mul\n      0x20\n      add\n      mload(0x40)\n      swap1\n      dup2\n      add\n      0x40\n      mstore\n      dup1\n      swap3\n      swap2\n      swap1\n      dup2\n      dup2\n      mstore\n      0x20\n      add\n      dup3\n      dup1\n      sload\n      tag_183\n      swap1\n      tag_120\n      jump\t// in\n    tag_183:\n      dup1\n      iszero\n      tag_184\n      jumpi\n      dup1\n      0x1f\n      lt\n      tag_185\n      jumpi\n      0x0100\n      dup1\n      dup4\n      sload\n      div\n      mul\n      dup4\n      mstore\n      swap2\n      0x20\n      add\n      swap2\n      jump(tag_184)\n    tag_185:\n      dup3\n      add\n      swap2\n      swap1\n      0x00\n      mstore\n      keccak256(0x00, 0x20)\n      swap1\n    tag_186:\n      dup2\n      sload\n      dup2\n      mstore\n      swap1\n      0x01\n      add\n      swap1\n      0x20\n      add\n      dup1\n      dup4\n      gt\n      tag_186\n      jumpi\n      dup3\n      swap1\n      sub\n      0x1f\n      and\n      dup3\n      add\n      swap2\n    tag_184:\n      pop\n      pop\n      pop\n      pop\n      pop\n      dup2\n      mstore\n      0x20\n      add\n      0x03\n      dup3\n      add\n      dup1\n      sload\n      tag_187\n      swap1\n      tag_120\n      jump\t// in\n    tag_187:\n      dup1\n      0x1f\n      add\n      0x20\n      dup1\n      swap2\n      div\n      mul\n      0x20\n      add\n      mload(0x40)\n      swap1\n      dup2\n      add\n      0x40\n      mstore\n      dup1\n      swap3\n      swap2\n      swap1\n      dup2\n      dup2\n      mstore\n      0x20\n      add\n      dup3\n      dup1\n      sload\n      tag_188\n      swap1\n      tag_120\n      jump\t// in\n    tag_188:\n      dup1\n      iszero\n      tag_189\n      jumpi\n      dup1\n      0x1f\n      lt\n      tag_190\n      jumpi\n      0x0100\n      dup1\n      dup4\n      sload\n      div\n      mul\n      dup4\n      mstore\n      swap2\n      0x20\n      add\n      swap2\n      jump(tag_189)\n    tag_190:\n      dup3\n      add\n      swap2\n      swap1\n      0x00\n      mstore\n      keccak256(0x00, 0x20)\n      swap1\n    tag_191:\n      dup2\n      sload\n      dup2\n      mstore\n      swap1\n      0x01\n      add\n      swap1\n      0x20\n      add\n      dup1\n      dup4\n      gt\n      tag_191\n      jumpi\n      dup3\n      swap1\n      sub\n      0x1f\n      and\n      dup3\n      add\n      swap2\n    tag_189:\n      pop\n      pop\n      pop\n      pop\n      pop\n      dup2\n      mstore\n      0x20\n      add\n      0x04\n      dup3\n      add\n      0x00\n      swap1\n      sload\n      swap1\n      0x0100\n      exp\n      swap1\n      div\n      0xffffffffffffffffffffffffffffffffffffffff\n      and\n      0xffffffffffffffffffffffffffffffffffffffff\n      and\n      0xffffffffffffffffffffffffffffffffffffffff\n      and\n      dup2\n      mstore\n      pop\n      pop\n      swap1\n      pop\n        /* \"verifystud.sol\":6096:6107  studentinfo */\n      dup1\n        /* \"verifystud.sol\":6096:6112  studentinfo.name */\n      0x00\n      add\n      mload\n        /* \"verifystud.sol\":6123:6134  studentinfo */\n      dup2\n        /* \"verifystud.sol\":6123:6150  studentinfo.student_address */\n      0x20\n      add\n      mload\n        /* \"verifystud.sol\":6161:6172  studentinfo */\n      dup3\n        /* \"verifystud.sol\":6161:6178  studentinfo.email */\n      0x40\n      add\n      mload\n        /* \"verifystud.sol\":6189:6200  studentinfo */\n      dup4\n        /* \"verifystud.sol\":6189:6203  studentinfo.id */\n      0x60\n      add\n      mload\n        /* \"verifystud.sol\":6214:6225  studentinfo */\n      dup5\n        /* \"verifystud.sol\":6214:6237  studentinfo.instAddress */\n      0x80\n      add\n      mload\n        /* \"verifystud.sol\":6078:6244  return (... */\n      swap6\n      pop\n      swap6\n      pop\n      swap6\n      pop\n      swap6\n      pop\n      swap6\n      pop\n      pop\n        /* \"verifystud.sol\":5731:6252  function getTransferStudentByindex(... */\n      swap2\n      swap4\n      swap6\n      swap1\n      swap3\n      swap5\n      pop\n      jump\t// out\n        /* \"verifystud.sol\":1954:2828  function addTransferStudToPending(string memory _name, address _student_address, string memory _email, string memory _id, address _currentInstAddress, address _newinstAddress) public{... */\n    tag_77:\n        /* \"verifystud.sol\":2147:2158  bytes32 key */\n      0x00\n        /* \"verifystud.sol\":2161:2168  studreg */\n      0x01\n      0x00\n      swap1\n      sload\n      swap1\n      0x0100\n      exp\n      swap1\n      div\n      0xffffffffffffffffffffffffffffffffffffffff\n      and\n        /* \"verifystud.sol\":2161:2180  studreg.generateKey */\n      0xffffffffffffffffffffffffffffffffffffffff\n      and\n      0x8a97503d\n        /* \"verifystud.sol\":2195:2211  _student_address */\n      dup8\n        /* \"verifystud.sol\":2226:2229  _id */\n      dup7\n        /* \"verifystud.sol\":2161:2240  studreg.generateKey(... */\n      mload(0x40)\n      dup4\n      0xffffffff\n      and\n      0xe0\n      shl\n      dup2\n      mstore\n      0x04\n      add\n      tag_193\n      swap3\n      swap2\n      swap1\n      tag_194\n      jump\t// in\n    tag_193:\n      0x20\n      mload(0x40)\n      dup1\n      dup4\n      sub\n      dup2\n      dup7\n      gas\n      staticcall\n      iszero\n      dup1\n      iszero\n      tag_196\n      jumpi\n      returndatasize\n      0x00\n      dup1\n      returndatacopy\n      revert(0x00, returndatasize)\n    tag_196:\n      pop\n      pop\n      pop\n      pop\n      mload(0x40)\n      returndatasize\n      not(0x1f)\n      0x1f\n      dup3\n      add\n      and\n      dup3\n      add\n      dup1\n      0x40\n      mstore\n      pop\n      dup2\n      add\n      swap1\n      tag_197\n      swap2\n      swap1\n      tag_198\n      jump\t// in\n    tag_197:\n        /* \"verifystud.sol\":2147:2240  bytes32 key = studreg.generateKey(... */\n      swap1\n      pop\n        /* \"verifystud.sol\":2482:2522  pendingstudents memory newpendingstudent */\n      tag_199\n      tag_160\n      jump\t// in\n    tag_199:\n        /* \"verifystud.sol\":2558:2563  _name */\n      dup8\n        /* \"verifystud.sol\":2533:2550  newpendingstudent */\n      dup2\n        /* \"verifystud.sol\":2533:2555  newpendingstudent.name */\n      0x00\n      add\n        /* \"verifystud.sol\":2533:2563  newpendingstudent.name = _name */\n      dup2\n      swap1\n      mstore\n      pop\n        /* \"verifystud.sol\":2610:2626  _student_address */\n      dup7\n        /* \"verifystud.sol\":2574:2591  newpendingstudent */\n      dup2\n        /* \"verifystud.sol\":2574:2607  newpendingstudent.student_address */\n      0x20\n      add\n        /* \"verifystud.sol\":2574:2626  newpendingstudent.student_address = _student_address */\n      swap1\n      0xffffffffffffffffffffffffffffffffffffffff\n      and\n      swap1\n      dup2\n      0xffffffffffffffffffffffffffffffffffffffff\n      and\n      dup2\n      mstore\n      pop\n      pop\n        /* \"verifystud.sol\":2663:2669  _email */\n      dup6\n        /* \"verifystud.sol\":2637:2654  newpendingstudent */\n      dup2\n        /* \"verifystud.sol\":2637:2660  newpendingstudent.email */\n      0x40\n      add\n        /* \"verifystud.sol\":2637:2669  newpendingstudent.email = _email */\n      dup2\n      swap1\n      mstore\n      pop\n        /* \"verifystud.sol\":2703:2706  _id */\n      dup5\n        /* \"verifystud.sol\":2680:2697  newpendingstudent */\n      dup2\n        /* \"verifystud.sol\":2680:2700  newpendingstudent.id */\n      0x60\n      add\n        /* \"verifystud.sol\":2680:2706  newpendingstudent.id = _id */\n      dup2\n      swap1\n      mstore\n      pop\n        /* \"verifystud.sol\":2749:2764  _newinstAddress */\n      dup3\n        /* \"verifystud.sol\":2717:2734  newpendingstudent */\n      dup2\n        /* \"verifystud.sol\":2717:2746  newpendingstudent.instAddress */\n      0x80\n      add\n        /* \"verifystud.sol\":2717:2764  newpendingstudent.instAddress = _newinstAddress */\n      swap1\n      0xffffffffffffffffffffffffffffffffffffffff\n      and\n      swap1\n      dup2\n      0xffffffffffffffffffffffffffffffffffffffff\n      and\n      dup2\n      mstore\n      pop\n      pop\n        /* \"verifystud.sol\":2775:2796  transferStudentsarray */\n      0x06\n        /* \"verifystud.sol\":2802:2819  newpendingstudent */\n      dup2\n        /* \"verifystud.sol\":2775:2820  transferStudentsarray.push(newpendingstudent) */\n      swap1\n      dup1\n      0x01\n      dup2\n      sload\n      add\n      dup1\n      dup3\n      sstore\n      dup1\n      swap2\n      pop\n      pop\n      0x01\n      swap1\n      sub\n      swap1\n      0x00\n      mstore\n      keccak256(0x00, 0x20)\n      swap1\n      0x05\n      mul\n      add\n      0x00\n      swap1\n      swap2\n      swap1\n      swap2\n      swap1\n      swap2\n      pop\n      0x00\n      dup3\n      add\n      mload\n      dup2\n      0x00\n      add\n      swap1\n      dup1\n      mload\n      swap1\n      0x20\n      add\n      swap1\n      tag_201\n      swap3\n      swap2\n      swap1\n      tag_163\n      jump\t// in\n    tag_201:\n      pop\n      0x20\n      dup3\n      add\n      mload\n      dup2\n      0x01\n      add\n      exp(0x0100, 0x00)\n      dup2\n      sload\n      dup2\n      0xffffffffffffffffffffffffffffffffffffffff\n      mul\n      not\n      and\n      swap1\n      dup4\n      0xffffffffffffffffffffffffffffffffffffffff\n      and\n      mul\n      or\n      swap1\n      sstore\n      pop\n      0x40\n      dup3\n      add\n      mload\n      dup2\n      0x02\n      add\n      swap1\n      dup1\n      mload\n      swap1\n      0x20\n      add\n      swap1\n      tag_202\n      swap3\n      swap2\n      swap1\n      tag_163\n      jump\t// in\n    tag_202:\n      pop\n      0x60\n      dup3\n      add\n      mload\n      dup2\n      0x03\n      add\n      swap1\n      dup1\n      mload\n      swap1\n      0x20\n      add\n      swap1\n      tag_203\n      swap3\n      swap2\n      swap1\n      tag_163\n      jump\t// in\n    tag_203:\n      pop\n      0x80\n      dup3\n      add\n      mload\n      dup2\n      0x04\n      add\n      exp(0x0100, 0x00)\n      dup2\n      sload\n      dup2\n      0xffffffffffffffffffffffffffffffffffffffff\n      mul\n      not\n      and\n      swap1\n      dup4\n      0xffffffffffffffffffffffffffffffffffffffff\n      and\n      mul\n      or\n      swap1\n      sstore\n      pop\n      pop\n      pop\n        /* \"verifystud.sol\":2136:2828  {... */\n      pop\n      pop\n        /* \"verifystud.sol\":1954:2828  function addTransferStudToPending(string memory _name, address _student_address, string memory _email, string memory _id, address _currentInstAddress, address _newinstAddress) public{... */\n      pop\n      pop\n      pop\n      pop\n      pop\n      pop\n      jump\t// out\n        /* \"verifystud.sol\":5053:5171  function getPendingStudentsCount() public view returns (uint256) {... */\n    tag_79:\n        /* \"verifystud.sol\":5109:5116  uint256 */\n      0x00\n        /* \"verifystud.sol\":5136:5156  pendingStudentsarray */\n      0x05\n        /* \"verifystud.sol\":5136:5163  pendingStudentsarray.length */\n      dup1\n      sload\n      swap1\n      pop\n        /* \"verifystud.sol\":5129:5163  return pendingStudentsarray.length */\n      swap1\n      pop\n        /* \"verifystud.sol\":5053:5171  function getPendingStudentsCount() public view returns (uint256) {... */\n      swap1\n      jump\t// out\n        /* \"verifystud.sol\":319:364  address public studentRegisterContractAddress */\n    tag_82:\n      0x03\n      0x00\n      swap1\n      sload\n      swap1\n      0x0100\n      exp\n      swap1\n      div\n      0xffffffffffffffffffffffffffffffffffffffff\n      and\n      dup2\n      jump\t// out\n        /* \"verifystud.sol\":286:312  verifyinst public instregd */\n    tag_85:\n      0x02\n      0x00\n      swap1\n      sload\n      swap1\n      0x0100\n      exp\n      swap1\n      div\n      0xffffffffffffffffffffffffffffffffffffffff\n      and\n      dup2\n      jump\t// out\n        /* \"verifystud.sol\":983:1028  pendingstudents[] public pendingStudentsarray */\n    tag_90:\n      0x05\n      dup2\n      dup2\n      sload\n      dup2\n      lt\n      tag_205\n      jumpi\n      0x00\n      dup1\n      revert\n    tag_205:\n      swap1\n      0x00\n      mstore\n      keccak256(0x00, 0x20)\n      swap1\n      0x05\n      mul\n      add\n      0x00\n      swap2\n      pop\n      swap1\n      pop\n      dup1\n      0x00\n      add\n      dup1\n      sload\n      tag_207\n      swap1\n      tag_120\n      jump\t// in\n    tag_207:\n      dup1\n      0x1f\n      add\n      0x20\n      dup1\n      swap2\n      div\n      mul\n      0x20\n      add\n      mload(0x40)\n      swap1\n      dup2\n      add\n      0x40\n      mstore\n      dup1\n      swap3\n      swap2\n      swap1\n      dup2\n      dup2\n      mstore\n      0x20\n      add\n      dup3\n      dup1\n      sload\n      tag_208\n      swap1\n      tag_120\n      jump\t// in\n    tag_208:\n      dup1\n      iszero\n      tag_209\n      jumpi\n      dup1\n      0x1f\n      lt\n      tag_210\n      jumpi\n      0x0100\n      dup1\n      dup4\n      sload\n      div\n      mul\n      dup4\n      mstore\n      swap2\n      0x20\n      add\n      swap2\n      jump(tag_209)\n    tag_210:\n      dup3\n      add\n      swap2\n      swap1\n      0x00\n      mstore\n      keccak256(0x00, 0x20)\n      swap1\n    tag_211:\n      dup2\n      sload\n      dup2\n      mstore\n      swap1\n      0x01\n      add\n      swap1\n      0x20\n      add\n      dup1\n      dup4\n      gt\n      tag_211\n      jumpi\n      dup3\n      swap1\n      sub\n      0x1f\n      and\n      dup3\n      add\n      swap2\n    tag_209:\n      pop\n      pop\n      pop\n      pop\n      pop\n      swap1\n      dup1\n      0x01\n      add\n      0x00\n      swap1\n      sload\n      swap1\n      0x0100\n      exp\n      swap1\n      div\n      0xffffffffffffffffffffffffffffffffffffffff\n      and\n      swap1\n      dup1\n      0x02\n      add\n      dup1\n      sload\n      tag_212\n      swap1\n      tag_120\n      jump\t// in\n    tag_212:\n      dup1\n      0x1f\n      add\n      0x20\n      dup1\n      swap2\n      div\n      mul\n      0x20\n      add\n      mload(0x40)\n      swap1\n      dup2\n      add\n      0x40\n      mstore\n      dup1\n      swap3\n      swap2\n      swap1\n      dup2\n      dup2\n      mstore\n      0x20\n      add\n      dup3\n      dup1\n      sload\n      tag_213\n      swap1\n      tag_120\n      jump\t// in\n    tag_213:\n      dup1\n      iszero\n      tag_214\n      jumpi\n      dup1\n      0x1f\n      lt\n      tag_215\n      jumpi\n      0x0100\n      dup1\n      dup4\n      sload\n      div\n      mul\n      dup4\n      mstore\n      swap2\n      0x20\n      add\n      swap2\n      jump(tag_214)\n    tag_215:\n      dup3\n      add\n      swap2\n      swap1\n      0x00\n      mstore\n      keccak256(0x00, 0x20)\n      swap1\n    tag_216:\n      dup2\n      sload\n      dup2\n      mstore\n      swap1\n      0x01\n      add\n      swap1\n      0x20\n      add\n      dup1\n      dup4\n      gt\n      tag_216\n      jumpi\n      dup3\n      swap1\n      sub\n      0x1f\n      and\n      dup3\n      add\n      swap2\n    tag_214:\n      pop\n      pop\n      pop\n      pop\n      pop\n      swap1\n      dup1\n      0x03\n      add\n      dup1\n      sload\n      tag_217\n      swap1\n      tag_120\n      jump\t// in\n    tag_217:\n      dup1\n      0x1f\n      add\n      0x20\n      dup1\n      swap2\n      div\n      mul\n      0x20\n      add\n      mload(0x40)\n      swap1\n      dup2\n      add\n      0x40\n      mstore\n      dup1\n      swap3\n      swap2\n      swap1\n      dup2\n      dup2\n      mstore\n      0x20\n      add\n      dup3\n      dup1\n      sload\n      tag_218\n      swap1\n      tag_120\n      jump\t// in\n    tag_218:\n      dup1\n      iszero\n      tag_219\n      jumpi\n      dup1\n      0x1f\n      lt\n      tag_220\n      jumpi\n      0x0100\n      dup1\n      dup4\n      sload\n      div\n      mul\n      dup4\n      mstore\n      swap2\n      0x20\n      add\n      swap2\n      jump(tag_219)\n    tag_220:\n      dup3\n      add\n      swap2\n      swap1\n      0x00\n      mstore\n      keccak256(0x00, 0x20)\n      swap1\n    tag_221:\n      dup2\n      sload\n      dup2\n      mstore\n      swap1\n      0x01\n      add\n      swap1\n      0x20\n      add\n      dup1\n      dup4\n      gt\n      tag_221\n      jumpi\n      dup3\n      swap1\n      sub\n      0x1f\n      and\n      dup3\n      add\n      swap2\n    tag_219:\n      pop\n      pop\n      pop\n      pop\n      pop\n      swap1\n      dup1\n      0x04\n      add\n      0x00\n      swap1\n      sload\n      swap1\n      0x0100\n      exp\n      swap1\n      div\n      0xffffffffffffffffffffffffffffffffffffffff\n      and\n      swap1\n      pop\n      dup6\n      jump\t// out\n        /* \"verifystud.sol\":252:279  registerStud public studreg */\n    tag_93:\n      0x01\n      0x00\n      swap1\n      sload\n      swap1\n      0x0100\n      exp\n      swap1\n      div\n      0xffffffffffffffffffffffffffffffffffffffff\n      and\n      dup2\n      jump\t// out\n        /* \"verifystud.sol\":6541:6701  function getStudentContractByAddress(... */\n    tag_98:\n        /* \"verifystud.sol\":6634:6641  address */\n      0x00\n        /* \"verifystud.sol\":6661:6682  registeredStudentsmap */\n      0x07\n        /* \"verifystud.sol\":6661:6693  registeredStudentsmap[_employee] */\n      0x00\n        /* \"verifystud.sol\":6683:6692  _employee */\n      dup4\n        /* \"verifystud.sol\":6661:6693  registeredStudentsmap[_employee] */\n      0xffffffffffffffffffffffffffffffffffffffff\n      and\n      0xffffffffffffffffffffffffffffffffffffffff\n      and\n      dup2\n      mstore\n      0x20\n      add\n      swap1\n      dup2\n      mstore\n      0x20\n      add\n      0x00\n      keccak256\n      0x00\n      swap1\n      sload\n      swap1\n      0x0100\n      exp\n      swap1\n      div\n      0xffffffffffffffffffffffffffffffffffffffff\n      and\n        /* \"verifystud.sol\":6654:6693  return registeredStudentsmap[_employee] */\n      swap1\n      pop\n        /* \"verifystud.sol\":6541:6701  function getStudentContractByAddress(... */\n      swap2\n      swap1\n      pop\n      jump\t// out\n        /* \"verifystud.sol\":3640:4456  function verifyTransferstudent(uint256 index) public {... */\n    tag_102:\n        /* \"verifystud.sol\":3705:3723  string memory name */\n      0x00\n        /* \"verifystud.sol\":3724:3747  address student_address */\n      dup1\n        /* \"verifystud.sol\":3748:3767  string memory email */\n      0x00\n        /* \"verifystud.sol\":3768:3784  string memory id */\n      dup1\n        /* \"verifystud.sol\":3785:3804  address instaddress */\n      0x00\n        /* \"verifystud.sol\":3806:3838  getTransferStudentByindex(index) */\n      tag_224\n        /* \"verifystud.sol\":3832:3837  index */\n      dup7\n        /* \"verifystud.sol\":3806:3831  getTransferStudentByindex */\n      tag_72\n        /* \"verifystud.sol\":3806:3838  getTransferStudentByindex(index) */\n      jump\t// in\n    tag_224:\n        /* \"verifystud.sol\":3704:3838  (string memory name,address student_address,string memory email,string memory id,address instaddress)=getTransferStudentByindex(index) */\n      swap5\n      pop\n      swap5\n      pop\n      swap5\n      pop\n      swap5\n      pop\n      swap5\n      pop\n        /* \"verifystud.sol\":4124:4135  bytes32 key */\n      0x00\n        /* \"verifystud.sol\":4138:4145  studreg */\n      0x01\n      0x00\n      swap1\n      sload\n      swap1\n      0x0100\n      exp\n      swap1\n      div\n      0xffffffffffffffffffffffffffffffffffffffff\n      and\n        /* \"verifystud.sol\":4138:4157  studreg.generateKey */\n      0xffffffffffffffffffffffffffffffffffffffff\n      and\n      0x8a97503d\n        /* \"verifystud.sol\":4172:4187  student_address */\n      dup7\n        /* \"verifystud.sol\":4202:4204  id */\n      dup6\n        /* \"verifystud.sol\":4138:4215  studreg.generateKey(... */\n      mload(0x40)\n      dup4\n      0xffffffff\n      and\n      0xe0\n      shl\n      dup2\n      mstore\n      0x04\n      add\n      tag_225\n      swap3\n      swap2\n      swap1\n      tag_194\n      jump\t// in\n    tag_225:\n      0x20\n      mload(0x40)\n      dup1\n      dup4\n      sub\n      dup2\n      dup7\n      gas\n      staticcall\n      iszero\n      dup1\n      iszero\n      tag_227\n      jumpi\n      returndatasize\n      0x00\n      dup1\n      returndatacopy\n      revert(0x00, returndatasize)\n    tag_227:\n      pop\n      pop\n      pop\n      pop\n      mload(0x40)\n      returndatasize\n      not(0x1f)\n      0x1f\n      dup3\n      add\n      and\n      dup3\n      add\n      dup1\n      0x40\n      mstore\n      pop\n      dup2\n      add\n      swap1\n      tag_228\n      swap2\n      swap1\n      tag_198\n      jump\t// in\n    tag_228:\n        /* \"verifystud.sol\":4124:4215  bytes32 key = studreg.generateKey(... */\n      swap1\n      pop\n        /* \"verifystud.sol\":4234:4241  studreg */\n      0x01\n      0x00\n      swap1\n      sload\n      swap1\n      0x0100\n      exp\n      swap1\n      div\n      0xffffffffffffffffffffffffffffffffffffffff\n      and\n        /* \"verifystud.sol\":4234:4259  studreg.addInstTostudInfo */\n      0xffffffffffffffffffffffffffffffffffffffff\n      and\n      0x4268ddbd\n        /* \"verifystud.sol\":4260:4265  index */\n      dup9\n        /* \"verifystud.sol\":4267:4270  key */\n      dup4\n        /* \"verifystud.sol\":4272:4282  msg.sender */\n      caller\n        /* \"verifystud.sol\":4234:4283  studreg.addInstTostudInfo(index, key, msg.sender) */\n      mload(0x40)\n      dup5\n      0xffffffff\n      and\n      0xe0\n      shl\n      dup2\n      mstore\n      0x04\n      add\n      tag_229\n      swap4\n      swap3\n      swap2\n      swap1\n      tag_230\n      jump\t// in\n    tag_229:\n      0x20\n      mload(0x40)\n      dup1\n      dup4\n      sub\n      dup2\n      0x00\n      dup8\n      gas\n      call\n      iszero\n      dup1\n      iszero\n      tag_232\n      jumpi\n      returndatasize\n      0x00\n      dup1\n      returndatacopy\n      revert(0x00, returndatasize)\n    tag_232:\n      pop\n      pop\n      pop\n      pop\n      mload(0x40)\n      returndatasize\n      not(0x1f)\n      0x1f\n      dup3\n      add\n      and\n      dup3\n      add\n      dup1\n      0x40\n      mstore\n      pop\n      dup2\n      add\n      swap1\n      tag_233\n      swap2\n      swap1\n      tag_234\n      jump\t// in\n    tag_233:\n        /* \"verifystud.sol\":4226:4327  require(studreg.addInstTostudInfo(index, key, msg.sender), \"Failed to add institute to student info\") */\n      tag_235\n      jumpi\n      mload(0x40)\n      0x08c379a000000000000000000000000000000000000000000000000000000000\n      dup2\n      mstore\n      0x04\n      add\n      tag_236\n      swap1\n      tag_237\n      jump\t// in\n    tag_236:\n      mload(0x40)\n      dup1\n      swap2\n      sub\n      swap1\n      revert\n    tag_235:\n        /* \"verifystud.sol\":4345:4366  transferStudentsarray */\n      0x06\n        /* \"verifystud.sol\":4367:4372  index */\n      dup8\n        /* \"verifystud.sol\":4345:4373  transferStudentsarray[index] */\n      dup2\n      sload\n      dup2\n      lt\n      tag_238\n      jumpi\n      tag_239\n      tag_141\n      jump\t// in\n    tag_239:\n    tag_238:\n      swap1\n      0x00\n      mstore\n      keccak256(0x00, 0x20)\n      swap1\n      0x05\n      mul\n      add\n      0x00\n        /* \"verifystud.sol\":4338:4373  delete transferStudentsarray[index] */\n      dup1\n      dup3\n      add\n      0x00\n      tag_241\n      swap2\n      swap1\n      tag_242\n      jump\t// in\n    tag_241:\n      0x01\n      dup3\n      add\n      exp(0x0100, 0x00)\n      dup2\n      sload\n      swap1\n      0xffffffffffffffffffffffffffffffffffffffff\n      mul\n      not\n      and\n      swap1\n      sstore\n      0x02\n      dup3\n      add\n      0x00\n      tag_243\n      swap2\n      swap1\n      tag_242\n      jump\t// in\n    tag_243:\n      0x03\n      dup3\n      add\n      0x00\n      tag_244\n      swap2\n      swap1\n      tag_242\n      jump\t// in\n    tag_244:\n      0x04\n      dup3\n      add\n      exp(0x0100, 0x00)\n      dup2\n      sload\n      swap1\n      0xffffffffffffffffffffffffffffffffffffffff\n      mul\n      not\n      and\n      swap1\n      sstore\n      pop\n      pop\n        /* \"verifystud.sol\":3693:4456  {... */\n      pop\n      pop\n      pop\n      pop\n      pop\n      pop\n        /* \"verifystud.sol\":3640:4456  function verifyTransferstudent(uint256 index) public {... */\n      pop\n      jump\t// out\n        /* \"verifystud.sol\":2836:3631  function verifystudent(uint256 index) public  {... */\n    tag_105:\n        /* \"verifystud.sol\":2894:2912  string memory name */\n      0x00\n        /* \"verifystud.sol\":2913:2936  address student_address */\n      dup1\n        /* \"verifystud.sol\":2937:2956  string memory email */\n      0x00\n        /* \"verifystud.sol\":2957:2973  string memory id */\n      dup1\n        /* \"verifystud.sol\":2974:2993  address instaddress */\n      0x00\n        /* \"verifystud.sol\":2995:3026  getPendingStudentByindex(index) */\n      tag_246\n        /* \"verifystud.sol\":3020:3025  index */\n      dup7\n        /* \"verifystud.sol\":2995:3019  getPendingStudentByindex */\n      tag_43\n        /* \"verifystud.sol\":2995:3026  getPendingStudentByindex(index) */\n      jump\t// in\n    tag_246:\n        /* \"verifystud.sol\":2893:3026  (string memory name,address student_address,string memory email,string memory id,address instaddress)=getPendingStudentByindex(index) */\n      swap5\n      pop\n      swap5\n      pop\n      swap5\n      pop\n      swap5\n      pop\n      swap5\n      pop\n        /* \"verifystud.sol\":3302:3313  bytes32 key */\n      0x00\n        /* \"verifystud.sol\":3316:3323  studreg */\n      0x01\n      0x00\n      swap1\n      sload\n      swap1\n      0x0100\n      exp\n      swap1\n      div\n      0xffffffffffffffffffffffffffffffffffffffff\n      and\n        /* \"verifystud.sol\":3316:3335  studreg.generateKey */\n      0xffffffffffffffffffffffffffffffffffffffff\n      and\n      0x8a97503d\n        /* \"verifystud.sol\":3350:3365  student_address */\n      dup7\n        /* \"verifystud.sol\":3380:3382  id */\n      dup6\n        /* \"verifystud.sol\":3316:3393  studreg.generateKey(... */\n      mload(0x40)\n      dup4\n      0xffffffff\n      and\n      0xe0\n      shl\n      dup2\n      mstore\n      0x04\n      add\n      tag_247\n      swap3\n      swap2\n      swap1\n      tag_194\n      jump\t// in\n    tag_247:\n      0x20\n      mload(0x40)\n      dup1\n      dup4\n      sub\n      dup2\n      dup7\n      gas\n      staticcall\n      iszero\n      dup1\n      iszero\n      tag_249\n      jumpi\n      returndatasize\n      0x00\n      dup1\n      returndatacopy\n      revert(0x00, returndatasize)\n    tag_249:\n      pop\n      pop\n      pop\n      pop\n      mload(0x40)\n      returndatasize\n      not(0x1f)\n      0x1f\n      dup3\n      add\n      and\n      dup3\n      add\n      dup1\n      0x40\n      mstore\n      pop\n      dup2\n      add\n      swap1\n      tag_250\n      swap2\n      swap1\n      tag_198\n      jump\t// in\n    tag_250:\n        /* \"verifystud.sol\":3302:3393  bytes32 key = studreg.generateKey(... */\n      swap1\n      pop\n        /* \"verifystud.sol\":3412:3419  studreg */\n      0x01\n      0x00\n      swap1\n      sload\n      swap1\n      0x0100\n      exp\n      swap1\n      div\n      0xffffffffffffffffffffffffffffffffffffffff\n      and\n        /* \"verifystud.sol\":3412:3437  studreg.addInstTostudInfo */\n      0xffffffffffffffffffffffffffffffffffffffff\n      and\n      0x4268ddbd\n        /* \"verifystud.sol\":3438:3443  index */\n      dup9\n        /* \"verifystud.sol\":3445:3448  key */\n      dup4\n        /* \"verifystud.sol\":3450:3460  msg.sender */\n      caller\n        /* \"verifystud.sol\":3412:3461  studreg.addInstTostudInfo(index, key, msg.sender) */\n      mload(0x40)\n      dup5\n      0xffffffff\n      and\n      0xe0\n      shl\n      dup2\n      mstore\n      0x04\n      add\n      tag_251\n      swap4\n      swap3\n      swap2\n      swap1\n      tag_230\n      jump\t// in\n    tag_251:\n      0x20\n      mload(0x40)\n      dup1\n      dup4\n      sub\n      dup2\n      0x00\n      dup8\n      gas\n      call\n      iszero\n      dup1\n      iszero\n      tag_253\n      jumpi\n      returndatasize\n      0x00\n      dup1\n      returndatacopy\n      revert(0x00, returndatasize)\n    tag_253:\n      pop\n      pop\n      pop\n      pop\n      mload(0x40)\n      returndatasize\n      not(0x1f)\n      0x1f\n      dup3\n      add\n      and\n      dup3\n      add\n      dup1\n      0x40\n      mstore\n      pop\n      dup2\n      add\n      swap1\n      tag_254\n      swap2\n      swap1\n      tag_234\n      jump\t// in\n    tag_254:\n        /* \"verifystud.sol\":3404:3505  require(studreg.addInstTostudInfo(index, key, msg.sender), \"Failed to add institute to student info\") */\n      tag_255\n      jumpi\n      mload(0x40)\n      0x08c379a000000000000000000000000000000000000000000000000000000000\n      dup2\n      mstore\n      0x04\n      add\n      tag_256\n      swap1\n      tag_237\n      jump\t// in\n    tag_256:\n      mload(0x40)\n      dup1\n      swap2\n      sub\n      swap1\n      revert\n    tag_255:\n        /* \"verifystud.sol\":3523:3543  pendingStudentsarray */\n      0x05\n        /* \"verifystud.sol\":3544:3549  index */\n      dup8\n        /* \"verifystud.sol\":3523:3550  pendingStudentsarray[index] */\n      dup2\n      sload\n      dup2\n      lt\n      tag_257\n      jumpi\n      tag_258\n      tag_141\n      jump\t// in\n    tag_258:\n    tag_257:\n      swap1\n      0x00\n      mstore\n      keccak256(0x00, 0x20)\n      swap1\n      0x05\n      mul\n      add\n      0x00\n        /* \"verifystud.sol\":3516:3550  delete pendingStudentsarray[index] */\n      dup1\n      dup3\n      add\n      0x00\n      tag_260\n      swap2\n      swap1\n      tag_242\n      jump\t// in\n    tag_260:\n      0x01\n      dup3\n      add\n      exp(0x0100, 0x00)\n      dup2\n      sload\n      swap1\n      0xffffffffffffffffffffffffffffffffffffffff\n      mul\n      not\n      and\n      swap1\n      sstore\n      0x02\n      dup3\n      add\n      0x00\n      tag_261\n      swap2\n      swap1\n      tag_242\n      jump\t// in\n    tag_261:\n      0x03\n      dup3\n      add\n      0x00\n      tag_262\n      swap2\n      swap1\n      tag_242\n      jump\t// in\n    tag_262:\n      0x04\n      dup3\n      add\n      exp(0x0100, 0x00)\n      dup2\n      sload\n      swap1\n      0xffffffffffffffffffffffffffffffffffffffff\n      mul\n      not\n      and\n      swap1\n      sstore\n      pop\n      pop\n        /* \"verifystud.sol\":2882:3631  {... */\n      pop\n      pop\n      pop\n      pop\n      pop\n      pop\n        /* \"verifystud.sol\":2836:3631  function verifystudent(uint256 index) public  {... */\n      pop\n      jump\t// out\n        /* \"verifystud.sol\":4462:4917  function removeGraduateStud(uint256 index,address student_address,string memory id) public {... */\n    tag_109:\n        /* \"verifystud.sol\":4564:4575  bytes32 key */\n      0x00\n        /* \"verifystud.sol\":4578:4585  studreg */\n      0x01\n      0x00\n      swap1\n      sload\n      swap1\n      0x0100\n      exp\n      swap1\n      div\n      0xffffffffffffffffffffffffffffffffffffffff\n      and\n        /* \"verifystud.sol\":4578:4597  studreg.generateKey */\n      0xffffffffffffffffffffffffffffffffffffffff\n      and\n      0x8a97503d\n        /* \"verifystud.sol\":4612:4627  student_address */\n      dup5\n        /* \"verifystud.sol\":4642:4644  id */\n      dup5\n        /* \"verifystud.sol\":4578:4655  studreg.generateKey(... */\n      mload(0x40)\n      dup4\n      0xffffffff\n      and\n      0xe0\n      shl\n      dup2\n      mstore\n      0x04\n      add\n      tag_264\n      swap3\n      swap2\n      swap1\n      tag_194\n      jump\t// in\n    tag_264:\n      0x20\n      mload(0x40)\n      dup1\n      dup4\n      sub\n      dup2\n      dup7\n      gas\n      staticcall\n      iszero\n      dup1\n      iszero\n      tag_266\n      jumpi\n      returndatasize\n      0x00\n      dup1\n      returndatacopy\n      revert(0x00, returndatasize)\n    tag_266:\n      pop\n      pop\n      pop\n      pop\n      mload(0x40)\n      returndatasize\n      not(0x1f)\n      0x1f\n      dup3\n      add\n      and\n      dup3\n      add\n      dup1\n      0x40\n      mstore\n      pop\n      dup2\n      add\n      swap1\n      tag_267\n      swap2\n      swap1\n      tag_198\n      jump\t// in\n    tag_267:\n        /* \"verifystud.sol\":4564:4655  bytes32 key = studreg.generateKey(... */\n      swap1\n      pop\n        /* \"verifystud.sol\":4681:4707  address currentInstAddress */\n      0x00\n        /* \"verifystud.sol\":4709:4716  studreg */\n      0x01\n      0x00\n      swap1\n      sload\n      swap1\n      0x0100\n      exp\n      swap1\n      div\n      0xffffffffffffffffffffffffffffffffffffffff\n      and\n        /* \"verifystud.sol\":4709:4742  studreg.getRegisteredStudentByKey */\n      0xffffffffffffffffffffffffffffffffffffffff\n      and\n      0x435df20d\n        /* \"verifystud.sol\":4743:4746  key */\n      dup4\n        /* \"verifystud.sol\":4709:4747  studreg.getRegisteredStudentByKey(key) */\n      mload(0x40)\n      dup3\n      0xffffffff\n      and\n      0xe0\n      shl\n      dup2\n      mstore\n      0x04\n      add\n      tag_268\n      swap2\n      swap1\n      tag_63\n      jump\t// in\n    tag_268:\n      0x00\n      mload(0x40)\n      dup1\n      dup4\n      sub\n      dup2\n      dup7\n      gas\n      staticcall\n      iszero\n      dup1\n      iszero\n      tag_270\n      jumpi\n      returndatasize\n      0x00\n      dup1\n      returndatacopy\n      revert(0x00, returndatasize)\n    tag_270:\n      pop\n      pop\n      pop\n      pop\n      mload(0x40)\n      returndatasize\n      0x00\n      dup3\n      returndatacopy\n      returndatasize\n      not(0x1f)\n      0x1f\n      dup3\n      add\n      and\n      dup3\n      add\n      dup1\n      0x40\n      mstore\n      pop\n      dup2\n      add\n      swap1\n      tag_271\n      swap2\n      swap1\n      tag_272\n      jump\t// in\n    tag_271:\n        /* \"verifystud.sol\":4676:4747  (,,,,address currentInstAddress)=studreg.getRegisteredStudentByKey(key) */\n      swap5\n      pop\n      pop\n      pop\n      pop\n      pop\n        /* \"verifystud.sol\":4780:4798  currentInstAddress */\n      dup1\n        /* \"verifystud.sol\":4766:4798  msg.sender == currentInstAddress */\n      0xffffffffffffffffffffffffffffffffffffffff\n      and\n        /* \"verifystud.sol\":4766:4776  msg.sender */\n      caller\n        /* \"verifystud.sol\":4766:4798  msg.sender == currentInstAddress */\n      0xffffffffffffffffffffffffffffffffffffffff\n      and\n      eq\n        /* \"verifystud.sol\":4758:4799  require(msg.sender == currentInstAddress) */\n      tag_273\n      jumpi\n      0x00\n      dup1\n      revert\n    tag_273:\n        /* \"verifystud.sol\":4818:4825  studreg */\n      0x01\n      0x00\n      swap1\n      sload\n      swap1\n      0x0100\n      exp\n      swap1\n      div\n      0xffffffffffffffffffffffffffffffffffffffff\n      and\n        /* \"verifystud.sol\":4818:4848  studreg.removeInstFromstudInfo */\n      0xffffffffffffffffffffffffffffffffffffffff\n      and\n      0x956a3545\n        /* \"verifystud.sol\":4849:4854  index */\n      dup7\n        /* \"verifystud.sol\":4856:4859  key */\n      dup5\n        /* \"verifystud.sol\":4818:4860  studreg.removeInstFromstudInfo(index, key) */\n      mload(0x40)\n      dup4\n      0xffffffff\n      and\n      0xe0\n      shl\n      dup2\n      mstore\n      0x04\n      add\n      tag_274\n      swap3\n      swap2\n      swap1\n      tag_275\n      jump\t// in\n    tag_274:\n      0x20\n      mload(0x40)\n      dup1\n      dup4\n      sub\n      dup2\n      0x00\n      dup8\n      gas\n      call\n      iszero\n      dup1\n      iszero\n      tag_277\n      jumpi\n      returndatasize\n      0x00\n      dup1\n      returndatacopy\n      revert(0x00, returndatasize)\n    tag_277:\n      pop\n      pop\n      pop\n      pop\n      mload(0x40)\n      returndatasize\n      not(0x1f)\n      0x1f\n      dup3\n      add\n      and\n      dup3\n      add\n      dup1\n      0x40\n      mstore\n      pop\n      dup2\n      add\n      swap1\n      tag_278\n      swap2\n      swap1\n      tag_234\n      jump\t// in\n    tag_278:\n        /* \"verifystud.sol\":4810:4909  require(studreg.removeInstFromstudInfo(index, key), \"Failed to remove institute from student info\") */\n      tag_279\n      jumpi\n      mload(0x40)\n      0x08c379a000000000000000000000000000000000000000000000000000000000\n      dup2\n      mstore\n      0x04\n      add\n      tag_280\n      swap1\n      tag_281\n      jump\t// in\n    tag_280:\n      mload(0x40)\n      dup1\n      swap2\n      sub\n      swap1\n      revert\n    tag_279:\n        /* \"verifystud.sol\":4553:4917  {... */\n      pop\n      pop\n        /* \"verifystud.sol\":4462:4917  function removeGraduateStud(uint256 index,address student_address,string memory id) public {... */\n      pop\n      pop\n      pop\n      jump\t// out\n    tag_160:\n      mload(0x40)\n      dup1\n      0xa0\n      add\n      0x40\n      mstore\n      dup1\n      0x60\n      dup2\n      mstore\n      0x20\n      add\n      and(0xffffffffffffffffffffffffffffffffffffffff, 0x00)\n      dup2\n      mstore\n      0x20\n      add\n      0x60\n      dup2\n      mstore\n      0x20\n      add\n      0x60\n      dup2\n      mstore\n      0x20\n      add\n      and(0xffffffffffffffffffffffffffffffffffffffff, 0x00)\n      dup2\n      mstore\n      pop\n      swap1\n      jump\t// out\n    tag_163:\n      dup3\n      dup1\n      sload\n      tag_282\n      swap1\n      tag_120\n      jump\t// in\n    tag_282:\n      swap1\n      0x00\n      mstore\n      keccak256(0x00, 0x20)\n      swap1\n      0x1f\n      add\n      0x20\n      swap1\n      div\n      dup2\n      add\n      swap3\n      dup3\n      tag_284\n      jumpi\n      0x00\n      dup6\n      sstore\n      jump(tag_283)\n    tag_284:\n      dup3\n      0x1f\n      lt\n      tag_285\n      jumpi\n      dup1\n      mload\n      not(0xff)\n      and\n      dup4\n      dup1\n      add\n      or\n      dup6\n      sstore\n      jump(tag_283)\n    tag_285:\n      dup3\n      dup1\n      add\n      0x01\n      add\n      dup6\n      sstore\n      dup3\n      iszero\n      tag_283\n      jumpi\n      swap2\n      dup3\n      add\n    tag_286:\n      dup3\n      dup2\n      gt\n      iszero\n      tag_287\n      jumpi\n      dup3\n      mload\n      dup3\n      sstore\n      swap2\n      0x20\n      add\n      swap2\n      swap1\n      0x01\n      add\n      swap1\n      jump(tag_286)\n    tag_287:\n    tag_283:\n      pop\n      swap1\n      pop\n      tag_288\n      swap2\n      swap1\n      tag_289\n      jump\t// in\n    tag_288:\n      pop\n      swap1\n      jump\t// out\n    tag_242:\n      pop\n      dup1\n      sload\n      tag_290\n      swap1\n      tag_120\n      jump\t// in\n    tag_290:\n      0x00\n      dup3\n      sstore\n      dup1\n      0x1f\n      lt\n      tag_292\n      jumpi\n      pop\n      jump(tag_291)\n    tag_292:\n      0x1f\n      add\n      0x20\n      swap1\n      div\n      swap1\n      0x00\n      mstore\n      keccak256(0x00, 0x20)\n      swap1\n      dup2\n      add\n      swap1\n      tag_293\n      swap2\n      swap1\n      tag_289\n      jump\t// in\n    tag_293:\n    tag_291:\n      pop\n      jump\t// out\n    tag_289:\n    tag_294:\n      dup1\n      dup3\n      gt\n      iszero\n      tag_295\n      jumpi\n      0x00\n      dup2\n      0x00\n      swap1\n      sstore\n      pop\n      0x01\n      add\n      jump(tag_294)\n    tag_295:\n      pop\n      swap1\n      jump\t// out\n        /* \"#utility.yul\":7:84   */\n    tag_296:\n        /* \"#utility.yul\":44:51   */\n      0x00\n        /* \"#utility.yul\":73:78   */\n      dup2\n        /* \"#utility.yul\":62:78   */\n      swap1\n      pop\n        /* \"#utility.yul\":7:84   */\n      swap2\n      swap1\n      pop\n      jump\t// out\n        /* \"#utility.yul\":90:208   */\n    tag_297:\n        /* \"#utility.yul\":177:201   */\n      tag_356\n        /* \"#utility.yul\":195:200   */\n      dup2\n        /* \"#utility.yul\":177:201   */\n      tag_296\n      jump\t// in\n    tag_356:\n        /* \"#utility.yul\":172:175   */\n      dup3\n        /* \"#utility.yul\":165:202   */\n      mstore\n        /* \"#utility.yul\":90:208   */\n      pop\n      pop\n      jump\t// out\n        /* \"#utility.yul\":214:436   */\n    tag_30:\n        /* \"#utility.yul\":307:311   */\n      0x00\n        /* \"#utility.yul\":345:347   */\n      0x20\n        /* \"#utility.yul\":334:343   */\n      dup3\n        /* \"#utility.yul\":330:348   */\n      add\n        /* \"#utility.yul\":322:348   */\n      swap1\n      pop\n        /* \"#utility.yul\":358:429   */\n      tag_358\n        /* \"#utility.yul\":426:427   */\n      0x00\n        /* \"#utility.yul\":415:424   */\n      dup4\n        /* \"#utility.yul\":411:428   */\n      add\n        /* \"#utility.yul\":402:408   */\n      dup5\n        /* \"#utility.yul\":358:429   */\n      tag_297\n      jump\t// in\n    tag_358:\n        /* \"#utility.yul\":214:436   */\n      swap3\n      swap2\n      pop\n      pop\n      jump\t// out\n        /* \"#utility.yul\":442:532   */\n    tag_298:\n        /* \"#utility.yul\":476:483   */\n      0x00\n        /* \"#utility.yul\":519:524   */\n      dup2\n        /* \"#utility.yul\":512:525   */\n      iszero\n        /* \"#utility.yul\":505:526   */\n      iszero\n        /* \"#utility.yul\":494:526   */\n      swap1\n      pop\n        /* \"#utility.yul\":442:532   */\n      swap2\n      swap1\n      pop\n      jump\t// out\n        /* \"#utility.yul\":538:647   */\n    tag_299:\n        /* \"#utility.yul\":619:640   */\n      tag_361\n        /* \"#utility.yul\":634:639   */\n      dup2\n        /* \"#utility.yul\":619:640   */\n      tag_298\n      jump\t// in\n    tag_361:\n        /* \"#utility.yul\":614:617   */\n      dup3\n        /* \"#utility.yul\":607:641   */\n      mstore\n        /* \"#utility.yul\":538:647   */\n      pop\n      pop\n      jump\t// out\n        /* \"#utility.yul\":653:863   */\n    tag_34:\n        /* \"#utility.yul\":740:744   */\n      0x00\n        /* \"#utility.yul\":778:780   */\n      0x20\n        /* \"#utility.yul\":767:776   */\n      dup3\n        /* \"#utility.yul\":763:781   */\n      add\n        /* \"#utility.yul\":755:781   */\n      swap1\n      pop\n        /* \"#utility.yul\":791:856   */\n      tag_363\n        /* \"#utility.yul\":853:854   */\n      0x00\n        /* \"#utility.yul\":842:851   */\n      dup4\n        /* \"#utility.yul\":838:855   */\n      add\n        /* \"#utility.yul\":829:835   */\n      dup5\n        /* \"#utility.yul\":791:856   */\n      tag_299\n      jump\t// in\n    tag_363:\n        /* \"#utility.yul\":653:863   */\n      swap3\n      swap2\n      pop\n      pop\n      jump\t// out\n        /* \"#utility.yul\":869:944   */\n    tag_300:\n        /* \"#utility.yul\":902:908   */\n      0x00\n        /* \"#utility.yul\":935:937   */\n      0x40\n        /* \"#utility.yul\":929:938   */\n      mload\n        /* \"#utility.yul\":919:938   */\n      swap1\n      pop\n        /* \"#utility.yul\":869:944   */\n      swap1\n      jump\t// out\n        /* \"#utility.yul\":950:1067   */\n    tag_301:\n        /* \"#utility.yul\":1059:1060   */\n      0x00\n        /* \"#utility.yul\":1056:1057   */\n      dup1\n        /* \"#utility.yul\":1049:1061   */\n      revert\n        /* \"#utility.yul\":1073:1190   */\n    tag_302:\n        /* \"#utility.yul\":1182:1183   */\n      0x00\n        /* \"#utility.yul\":1179:1180   */\n      dup1\n        /* \"#utility.yul\":1172:1184   */\n      revert\n        /* \"#utility.yul\":1196:1318   */\n    tag_303:\n        /* \"#utility.yul\":1269:1293   */\n      tag_368\n        /* \"#utility.yul\":1287:1292   */\n      dup2\n        /* \"#utility.yul\":1269:1293   */\n      tag_296\n      jump\t// in\n    tag_368:\n        /* \"#utility.yul\":1262:1267   */\n      dup2\n        /* \"#utility.yul\":1259:1294   */\n      eq\n        /* \"#utility.yul\":1249:1312   */\n      tag_369\n      jumpi\n        /* \"#utility.yul\":1308:1309   */\n      0x00\n        /* \"#utility.yul\":1305:1306   */\n      dup1\n        /* \"#utility.yul\":1298:1310   */\n      revert\n        /* \"#utility.yul\":1249:1312   */\n    tag_369:\n        /* \"#utility.yul\":1196:1318   */\n      pop\n      jump\t// out\n        /* \"#utility.yul\":1324:1463   */\n    tag_304:\n        /* \"#utility.yul\":1370:1375   */\n      0x00\n        /* \"#utility.yul\":1408:1414   */\n      dup2\n        /* \"#utility.yul\":1395:1415   */\n      calldataload\n        /* \"#utility.yul\":1386:1415   */\n      swap1\n      pop\n        /* \"#utility.yul\":1424:1457   */\n      tag_371\n        /* \"#utility.yul\":1451:1456   */\n      dup2\n        /* \"#utility.yul\":1424:1457   */\n      tag_303\n      jump\t// in\n    tag_371:\n        /* \"#utility.yul\":1324:1463   */\n      swap3\n      swap2\n      pop\n      pop\n      jump\t// out\n        /* \"#utility.yul\":1469:1798   */\n    tag_37:\n        /* \"#utility.yul\":1528:1534   */\n      0x00\n        /* \"#utility.yul\":1577:1579   */\n      0x20\n        /* \"#utility.yul\":1565:1574   */\n      dup3\n        /* \"#utility.yul\":1556:1563   */\n      dup5\n        /* \"#utility.yul\":1552:1575   */\n      sub\n        /* \"#utility.yul\":1548:1580   */\n      slt\n        /* \"#utility.yul\":1545:1664   */\n      iszero\n      tag_373\n      jumpi\n        /* \"#utility.yul\":1583:1662   */\n      tag_374\n      tag_301\n      jump\t// in\n    tag_374:\n        /* \"#utility.yul\":1545:1664   */\n    tag_373:\n        /* \"#utility.yul\":1703:1704   */\n      0x00\n        /* \"#utility.yul\":1728:1781   */\n      tag_375\n        /* \"#utility.yul\":1773:1780   */\n      dup5\n        /* \"#utility.yul\":1764:1770   */\n      dup3\n        /* \"#utility.yul\":1753:1762   */\n      dup6\n        /* \"#utility.yul\":1749:1771   */\n      add\n        /* \"#utility.yul\":1728:1781   */\n      tag_304\n      jump\t// in\n    tag_375:\n        /* \"#utility.yul\":1718:1781   */\n      swap2\n      pop\n        /* \"#utility.yul\":1674:1791   */\n      pop\n        /* \"#utility.yul\":1469:1798   */\n      swap3\n      swap2\n      pop\n      pop\n      jump\t// out\n        /* \"#utility.yul\":1804:1903   */\n    tag_305:\n        /* \"#utility.yul\":1856:1862   */\n      0x00\n        /* \"#utility.yul\":1890:1895   */\n      dup2\n        /* \"#utility.yul\":1884:1896   */\n      mload\n        /* \"#utility.yul\":1874:1896   */\n      swap1\n      pop\n        /* \"#utility.yul\":1804:1903   */\n      swap2\n      swap1\n      pop\n      jump\t// out\n        /* \"#utility.yul\":1909:2078   */\n    tag_306:\n        /* \"#utility.yul\":1993:2004   */\n      0x00\n        /* \"#utility.yul\":2027:2033   */\n      dup3\n        /* \"#utility.yul\":2022:2025   */\n      dup3\n        /* \"#utility.yul\":2015:2034   */\n      mstore\n        /* \"#utility.yul\":2067:2071   */\n      0x20\n        /* \"#utility.yul\":2062:2065   */\n      dup3\n        /* \"#utility.yul\":2058:2072   */\n      add\n        /* \"#utility.yul\":2043:2072   */\n      swap1\n      pop\n        /* \"#utility.yul\":1909:2078   */\n      swap3\n      swap2\n      pop\n      pop\n      jump\t// out\n        /* \"#utility.yul\":2084:2391   */\n    tag_307:\n        /* \"#utility.yul\":2152:2153   */\n      0x00\n        /* \"#utility.yul\":2162:2275   */\n    tag_379:\n        /* \"#utility.yul\":2176:2182   */\n      dup4\n        /* \"#utility.yul\":2173:2174   */\n      dup2\n        /* \"#utility.yul\":2170:2183   */\n      lt\n        /* \"#utility.yul\":2162:2275   */\n      iszero\n      tag_381\n      jumpi\n        /* \"#utility.yul\":2261:2262   */\n      dup1\n        /* \"#utility.yul\":2256:2259   */\n      dup3\n        /* \"#utility.yul\":2252:2263   */\n      add\n        /* \"#utility.yul\":2246:2264   */\n      mload\n        /* \"#utility.yul\":2242:2243   */\n      dup2\n        /* \"#utility.yul\":2237:2240   */\n      dup5\n        /* \"#utility.yul\":2233:2244   */\n      add\n        /* \"#utility.yul\":2226:2265   */\n      mstore\n        /* \"#utility.yul\":2198:2200   */\n      0x20\n        /* \"#utility.yul\":2195:2196   */\n      dup2\n        /* \"#utility.yul\":2191:2201   */\n      add\n        /* \"#utility.yul\":2186:2201   */\n      swap1\n      pop\n        /* \"#utility.yul\":2162:2275   */\n      jump(tag_379)\n    tag_381:\n        /* \"#utility.yul\":2293:2299   */\n      dup4\n        /* \"#utility.yul\":2290:2291   */\n      dup2\n        /* \"#utility.yul\":2287:2300   */\n      gt\n        /* \"#utility.yul\":2284:2385   */\n      iszero\n      tag_382\n      jumpi\n        /* \"#utility.yul\":2373:2374   */\n      0x00\n        /* \"#utility.yul\":2364:2370   */\n      dup5\n        /* \"#utility.yul\":2359:2362   */\n      dup5\n        /* \"#utility.yul\":2355:2371   */\n      add\n        /* \"#utility.yul\":2348:2375   */\n      mstore\n        /* \"#utility.yul\":2284:2385   */\n    tag_382:\n        /* \"#utility.yul\":2133:2391   */\n      pop\n        /* \"#utility.yul\":2084:2391   */\n      pop\n      pop\n      pop\n      jump\t// out\n        /* \"#utility.yul\":2397:2499   */\n    tag_308:\n        /* \"#utility.yul\":2438:2444   */\n      0x00\n        /* \"#utility.yul\":2489:2491   */\n      0x1f\n        /* \"#utility.yul\":2485:2492   */\n      not\n        /* \"#utility.yul\":2480:2482   */\n      0x1f\n        /* \"#utility.yul\":2473:2478   */\n      dup4\n        /* \"#utility.yul\":2469:2483   */\n      add\n        /* \"#utility.yul\":2465:2493   */\n      and\n        /* \"#utility.yul\":2455:2493   */\n      swap1\n      pop\n        /* \"#utility.yul\":2397:2499   */\n      swap2\n      swap1\n      pop\n      jump\t// out\n        /* \"#utility.yul\":2505:2869   */\n    tag_309:\n        /* \"#utility.yul\":2593:2596   */\n      0x00\n        /* \"#utility.yul\":2621:2660   */\n      tag_385\n        /* \"#utility.yul\":2654:2659   */\n      dup3\n        /* \"#utility.yul\":2621:2660   */\n      tag_305\n      jump\t// in\n    tag_385:\n        /* \"#utility.yul\":2676:2747   */\n      tag_386\n        /* \"#utility.yul\":2740:2746   */\n      dup2\n        /* \"#utility.yul\":2735:2738   */\n      dup6\n        /* \"#utility.yul\":2676:2747   */\n      tag_306\n      jump\t// in\n    tag_386:\n        /* \"#utility.yul\":2669:2747   */\n      swap4\n      pop\n        /* \"#utility.yul\":2756:2808   */\n      tag_387\n        /* \"#utility.yul\":2801:2807   */\n      dup2\n        /* \"#utility.yul\":2796:2799   */\n      dup6\n        /* \"#utility.yul\":2789:2793   */\n      0x20\n        /* \"#utility.yul\":2782:2787   */\n      dup7\n        /* \"#utility.yul\":2778:2794   */\n      add\n        /* \"#utility.yul\":2756:2808   */\n      tag_307\n      jump\t// in\n    tag_387:\n        /* \"#utility.yul\":2833:2862   */\n      tag_388\n        /* \"#utility.yul\":2855:2861   */\n      dup2\n        /* \"#utility.yul\":2833:2862   */\n      tag_308\n      jump\t// in\n    tag_388:\n        /* \"#utility.yul\":2828:2831   */\n      dup5\n        /* \"#utility.yul\":2824:2863   */\n      add\n        /* \"#utility.yul\":2817:2863   */\n      swap2\n      pop\n        /* \"#utility.yul\":2597:2869   */\n      pop\n        /* \"#utility.yul\":2505:2869   */\n      swap3\n      swap2\n      pop\n      pop\n      jump\t// out\n        /* \"#utility.yul\":2875:3001   */\n    tag_310:\n        /* \"#utility.yul\":2912:2919   */\n      0x00\n        /* \"#utility.yul\":2952:2994   */\n      0xffffffffffffffffffffffffffffffffffffffff\n        /* \"#utility.yul\":2945:2950   */\n      dup3\n        /* \"#utility.yul\":2941:2995   */\n      and\n        /* \"#utility.yul\":2930:2995   */\n      swap1\n      pop\n        /* \"#utility.yul\":2875:3001   */\n      swap2\n      swap1\n      pop\n      jump\t// out\n        /* \"#utility.yul\":3007:3103   */\n    tag_311:\n        /* \"#utility.yul\":3044:3051   */\n      0x00\n        /* \"#utility.yul\":3073:3097   */\n      tag_391\n        /* \"#utility.yul\":3091:3096   */\n      dup3\n        /* \"#utility.yul\":3073:3097   */\n      tag_310\n      jump\t// in\n    tag_391:\n        /* \"#utility.yul\":3062:3097   */\n      swap1\n      pop\n        /* \"#utility.yul\":3007:3103   */\n      swap2\n      swap1\n      pop\n      jump\t// out\n        /* \"#utility.yul\":3109:3227   */\n    tag_312:\n        /* \"#utility.yul\":3196:3220   */\n      tag_393\n        /* \"#utility.yul\":3214:3219   */\n      dup2\n        /* \"#utility.yul\":3196:3220   */\n      tag_311\n      jump\t// in\n    tag_393:\n        /* \"#utility.yul\":3191:3194   */\n      dup3\n        /* \"#utility.yul\":3184:3221   */\n      mstore\n        /* \"#utility.yul\":3109:3227   */\n      pop\n      pop\n      jump\t// out\n        /* \"#utility.yul\":3233:4170   */\n    tag_40:\n        /* \"#utility.yul\":3498:3502   */\n      0x00\n        /* \"#utility.yul\":3536:3539   */\n      0xa0\n        /* \"#utility.yul\":3525:3534   */\n      dup3\n        /* \"#utility.yul\":3521:3540   */\n      add\n        /* \"#utility.yul\":3513:3540   */\n      swap1\n      pop\n        /* \"#utility.yul\":3586:3595   */\n      dup2\n        /* \"#utility.yul\":3580:3584   */\n      dup2\n        /* \"#utility.yul\":3576:3596   */\n      sub\n        /* \"#utility.yul\":3572:3573   */\n      0x00\n        /* \"#utility.yul\":3561:3570   */\n      dup4\n        /* \"#utility.yul\":3557:3574   */\n      add\n        /* \"#utility.yul\":3550:3597   */\n      mstore\n        /* \"#utility.yul\":3614:3692   */\n      tag_395\n        /* \"#utility.yul\":3687:3691   */\n      dup2\n        /* \"#utility.yul\":3678:3684   */\n      dup9\n        /* \"#utility.yul\":3614:3692   */\n      tag_309\n      jump\t// in\n    tag_395:\n        /* \"#utility.yul\":3606:3692   */\n      swap1\n      pop\n        /* \"#utility.yul\":3702:3774   */\n      tag_396\n        /* \"#utility.yul\":3770:3772   */\n      0x20\n        /* \"#utility.yul\":3759:3768   */\n      dup4\n        /* \"#utility.yul\":3755:3773   */\n      add\n        /* \"#utility.yul\":3746:3752   */\n      dup8\n        /* \"#utility.yul\":3702:3774   */\n      tag_312\n      jump\t// in\n    tag_396:\n        /* \"#utility.yul\":3821:3830   */\n      dup2\n        /* \"#utility.yul\":3815:3819   */\n      dup2\n        /* \"#utility.yul\":3811:3831   */\n      sub\n        /* \"#utility.yul\":3806:3808   */\n      0x40\n        /* \"#utility.yul\":3795:3804   */\n      dup4\n        /* \"#utility.yul\":3791:3809   */\n      add\n        /* \"#utility.yul\":3784:3832   */\n      mstore\n        /* \"#utility.yul\":3849:3927   */\n      tag_397\n        /* \"#utility.yul\":3922:3926   */\n      dup2\n        /* \"#utility.yul\":3913:3919   */\n      dup7\n        /* \"#utility.yul\":3849:3927   */\n      tag_309\n      jump\t// in\n    tag_397:\n        /* \"#utility.yul\":3841:3927   */\n      swap1\n      pop\n        /* \"#utility.yul\":3974:3983   */\n      dup2\n        /* \"#utility.yul\":3968:3972   */\n      dup2\n        /* \"#utility.yul\":3964:3984   */\n      sub\n        /* \"#utility.yul\":3959:3961   */\n      0x60\n        /* \"#utility.yul\":3948:3957   */\n      dup4\n        /* \"#utility.yul\":3944:3962   */\n      add\n        /* \"#utility.yul\":3937:3985   */\n      mstore\n        /* \"#utility.yul\":4002:4080   */\n      tag_398\n        /* \"#utility.yul\":4075:4079   */\n      dup2\n        /* \"#utility.yul\":4066:4072   */\n      dup6\n        /* \"#utility.yul\":4002:4080   */\n      tag_309\n      jump\t// in\n    tag_398:\n        /* \"#utility.yul\":3994:4080   */\n      swap1\n      pop\n        /* \"#utility.yul\":4090:4163   */\n      tag_399\n        /* \"#utility.yul\":4158:4161   */\n      0x80\n        /* \"#utility.yul\":4147:4156   */\n      dup4\n        /* \"#utility.yul\":4143:4162   */\n      add\n        /* \"#utility.yul\":4134:4140   */\n      dup5\n        /* \"#utility.yul\":4090:4163   */\n      tag_312\n      jump\t// in\n    tag_399:\n        /* \"#utility.yul\":3233:4170   */\n      swap7\n      swap6\n      pop\n      pop\n      pop\n      pop\n      pop\n      pop\n      jump\t// out\n        /* \"#utility.yul\":4176:4398   */\n    tag_48:\n        /* \"#utility.yul\":4269:4273   */\n      0x00\n        /* \"#utility.yul\":4307:4309   */\n      0x20\n        /* \"#utility.yul\":4296:4305   */\n      dup3\n        /* \"#utility.yul\":4292:4310   */\n      add\n        /* \"#utility.yul\":4284:4310   */\n      swap1\n      pop\n        /* \"#utility.yul\":4320:4391   */\n      tag_401\n        /* \"#utility.yul\":4388:4389   */\n      0x00\n        /* \"#utility.yul\":4377:4386   */\n      dup4\n        /* \"#utility.yul\":4373:4390   */\n      add\n        /* \"#utility.yul\":4364:4370   */\n      dup5\n        /* \"#utility.yul\":4320:4391   */\n      tag_312\n      jump\t// in\n    tag_401:\n        /* \"#utility.yul\":4176:4398   */\n      swap3\n      swap2\n      pop\n      pop\n      jump\t// out\n        /* \"#utility.yul\":4404:4521   */\n    tag_313:\n        /* \"#utility.yul\":4513:4514   */\n      0x00\n        /* \"#utility.yul\":4510:4511   */\n      dup1\n        /* \"#utility.yul\":4503:4515   */\n      revert\n        /* \"#utility.yul\":4527:4644   */\n    tag_314:\n        /* \"#utility.yul\":4636:4637   */\n      0x00\n        /* \"#utility.yul\":4633:4634   */\n      dup1\n        /* \"#utility.yul\":4626:4638   */\n      revert\n        /* \"#utility.yul\":4650:4830   */\n    tag_315:\n        /* \"#utility.yul\":4698:4775   */\n      0x4e487b7100000000000000000000000000000000000000000000000000000000\n        /* \"#utility.yul\":4695:4696   */\n      0x00\n        /* \"#utility.yul\":4688:4776   */\n      mstore\n        /* \"#utility.yul\":4795:4799   */\n      0x41\n        /* \"#utility.yul\":4792:4793   */\n      0x04\n        /* \"#utility.yul\":4785:4800   */\n      mstore\n        /* \"#utility.yul\":4819:4823   */\n      0x24\n        /* \"#utility.yul\":4816:4817   */\n      0x00\n        /* \"#utility.yul\":4809:4824   */\n      revert\n        /* \"#utility.yul\":4836:5117   */\n    tag_316:\n        /* \"#utility.yul\":4919:4946   */\n      tag_406\n        /* \"#utility.yul\":4941:4945   */\n      dup3\n        /* \"#utility.yul\":4919:4946   */\n      tag_308\n      jump\t// in\n    tag_406:\n        /* \"#utility.yul\":4911:4917   */\n      dup2\n        /* \"#utility.yul\":4907:4947   */\n      add\n        /* \"#utility.yul\":5049:5055   */\n      dup2\n        /* \"#utility.yul\":5037:5047   */\n      dup2\n        /* \"#utility.yul\":5034:5056   */\n      lt\n        /* \"#utility.yul\":5013:5031   */\n      0xffffffffffffffff\n        /* \"#utility.yul\":5001:5011   */\n      dup3\n        /* \"#utility.yul\":4998:5032   */\n      gt\n        /* \"#utility.yul\":4995:5057   */\n      or\n        /* \"#utility.yul\":4992:5080   */\n      iszero\n      tag_407\n      jumpi\n        /* \"#utility.yul\":5060:5078   */\n      tag_408\n      tag_315\n      jump\t// in\n    tag_408:\n        /* \"#utility.yul\":4992:5080   */\n    tag_407:\n        /* \"#utility.yul\":5100:5110   */\n      dup1\n        /* \"#utility.yul\":5096:5098   */\n      0x40\n        /* \"#utility.yul\":5089:5111   */\n      mstore\n        /* \"#utility.yul\":4879:5117   */\n      pop\n        /* \"#utility.yul\":4836:5117   */\n      pop\n      pop\n      jump\t// out\n        /* \"#utility.yul\":5123:5252   */\n    tag_317:\n        /* \"#utility.yul\":5157:5163   */\n      0x00\n        /* \"#utility.yul\":5184:5204   */\n      tag_410\n      tag_300\n      jump\t// in\n    tag_410:\n        /* \"#utility.yul\":5174:5204   */\n      swap1\n      pop\n        /* \"#utility.yul\":5213:5246   */\n      tag_411\n        /* \"#utility.yul\":5241:5245   */\n      dup3\n        /* \"#utility.yul\":5233:5239   */\n      dup3\n        /* \"#utility.yul\":5213:5246   */\n      tag_316\n      jump\t// in\n    tag_411:\n        /* \"#utility.yul\":5123:5252   */\n      swap2\n      swap1\n      pop\n      jump\t// out\n        /* \"#utility.yul\":5258:5566   */\n    tag_318:\n        /* \"#utility.yul\":5320:5324   */\n      0x00\n        /* \"#utility.yul\":5410:5428   */\n      0xffffffffffffffff\n        /* \"#utility.yul\":5402:5408   */\n      dup3\n        /* \"#utility.yul\":5399:5429   */\n      gt\n        /* \"#utility.yul\":5396:5452   */\n      iszero\n      tag_413\n      jumpi\n        /* \"#utility.yul\":5432:5450   */\n      tag_414\n      tag_315\n      jump\t// in\n    tag_414:\n        /* \"#utility.yul\":5396:5452   */\n    tag_413:\n        /* \"#utility.yul\":5470:5499   */\n      tag_415\n        /* \"#utility.yul\":5492:5498   */\n      dup3\n        /* \"#utility.yul\":5470:5499   */\n      tag_308\n      jump\t// in\n    tag_415:\n        /* \"#utility.yul\":5462:5499   */\n      swap1\n      pop\n        /* \"#utility.yul\":5554:5558   */\n      0x20\n        /* \"#utility.yul\":5548:5552   */\n      dup2\n        /* \"#utility.yul\":5544:5559   */\n      add\n        /* \"#utility.yul\":5536:5559   */\n      swap1\n      pop\n        /* \"#utility.yul\":5258:5566   */\n      swap2\n      swap1\n      pop\n      jump\t// out\n        /* \"#utility.yul\":5572:5726   */\n    tag_319:\n        /* \"#utility.yul\":5656:5662   */\n      dup3\n        /* \"#utility.yul\":5651:5654   */\n      dup2\n        /* \"#utility.yul\":5646:5649   */\n      dup4\n        /* \"#utility.yul\":5633:5663   */\n      calldatacopy\n        /* \"#utility.yul\":5718:5719   */\n      0x00\n        /* \"#utility.yul\":5709:5715   */\n      dup4\n        /* \"#utility.yul\":5704:5707   */\n      dup4\n        /* \"#utility.yul\":5700:5716   */\n      add\n        /* \"#utility.yul\":5693:5720   */\n      mstore\n        /* \"#utility.yul\":5572:5726   */\n      pop\n      pop\n      pop\n      jump\t// out\n        /* \"#utility.yul\":5732:6144   */\n    tag_320:\n        /* \"#utility.yul\":5810:5815   */\n      0x00\n        /* \"#utility.yul\":5835:5901   */\n      tag_418\n        /* \"#utility.yul\":5851:5900   */\n      tag_419\n        /* \"#utility.yul\":5893:5899   */\n      dup5\n        /* \"#utility.yul\":5851:5900   */\n      tag_318\n      jump\t// in\n    tag_419:\n        /* \"#utility.yul\":5835:5901   */\n      tag_317\n      jump\t// in\n    tag_418:\n        /* \"#utility.yul\":5826:5901   */\n      swap1\n      pop\n        /* \"#utility.yul\":5924:5930   */\n      dup3\n        /* \"#utility.yul\":5917:5922   */\n      dup2\n        /* \"#utility.yul\":5910:5931   */\n      mstore\n        /* \"#utility.yul\":5962:5966   */\n      0x20\n        /* \"#utility.yul\":5955:5960   */\n      dup2\n        /* \"#utility.yul\":5951:5967   */\n      add\n        /* \"#utility.yul\":6000:6003   */\n      dup5\n        /* \"#utility.yul\":5991:5997   */\n      dup5\n        /* \"#utility.yul\":5986:5989   */\n      dup5\n        /* \"#utility.yul\":5982:5998   */\n      add\n        /* \"#utility.yul\":5979:6004   */\n      gt\n        /* \"#utility.yul\":5976:6088   */\n      iszero\n      tag_420\n      jumpi\n        /* \"#utility.yul\":6007:6086   */\n      tag_421\n      tag_314\n      jump\t// in\n    tag_421:\n        /* \"#utility.yul\":5976:6088   */\n    tag_420:\n        /* \"#utility.yul\":6097:6138   */\n      tag_422\n        /* \"#utility.yul\":6131:6137   */\n      dup5\n        /* \"#utility.yul\":6126:6129   */\n      dup3\n        /* \"#utility.yul\":6121:6124   */\n      dup6\n        /* \"#utility.yul\":6097:6138   */\n      tag_319\n      jump\t// in\n    tag_422:\n        /* \"#utility.yul\":5816:6144   */\n      pop\n        /* \"#utility.yul\":5732:6144   */\n      swap4\n      swap3\n      pop\n      pop\n      pop\n      jump\t// out\n        /* \"#utility.yul\":6164:6504   */\n    tag_321:\n        /* \"#utility.yul\":6220:6225   */\n      0x00\n        /* \"#utility.yul\":6269:6272   */\n      dup3\n        /* \"#utility.yul\":6262:6266   */\n      0x1f\n        /* \"#utility.yul\":6254:6260   */\n      dup4\n        /* \"#utility.yul\":6250:6267   */\n      add\n        /* \"#utility.yul\":6246:6273   */\n      slt\n        /* \"#utility.yul\":6236:6358   */\n      tag_424\n      jumpi\n        /* \"#utility.yul\":6277:6356   */\n      tag_425\n      tag_313\n      jump\t// in\n    tag_425:\n        /* \"#utility.yul\":6236:6358   */\n    tag_424:\n        /* \"#utility.yul\":6394:6400   */\n      dup2\n        /* \"#utility.yul\":6381:6401   */\n      calldataload\n        /* \"#utility.yul\":6419:6498   */\n      tag_426\n        /* \"#utility.yul\":6494:6497   */\n      dup5\n        /* \"#utility.yul\":6486:6492   */\n      dup3\n        /* \"#utility.yul\":6479:6483   */\n      0x20\n        /* \"#utility.yul\":6471:6477   */\n      dup7\n        /* \"#utility.yul\":6467:6484   */\n      add\n        /* \"#utility.yul\":6419:6498   */\n      tag_320\n      jump\t// in\n    tag_426:\n        /* \"#utility.yul\":6410:6498   */\n      swap2\n      pop\n        /* \"#utility.yul\":6226:6504   */\n      pop\n        /* \"#utility.yul\":6164:6504   */\n      swap3\n      swap2\n      pop\n      pop\n      jump\t// out\n        /* \"#utility.yul\":6510:6632   */\n    tag_322:\n        /* \"#utility.yul\":6583:6607   */\n      tag_428\n        /* \"#utility.yul\":6601:6606   */\n      dup2\n        /* \"#utility.yul\":6583:6607   */\n      tag_311\n      jump\t// in\n    tag_428:\n        /* \"#utility.yul\":6576:6581   */\n      dup2\n        /* \"#utility.yul\":6573:6608   */\n      eq\n        /* \"#utility.yul\":6563:6626   */\n      tag_429\n      jumpi\n        /* \"#utility.yul\":6622:6623   */\n      0x00\n        /* \"#utility.yul\":6619:6620   */\n      dup1\n        /* \"#utility.yul\":6612:6624   */\n      revert\n        /* \"#utility.yul\":6563:6626   */\n    tag_429:\n        /* \"#utility.yul\":6510:6632   */\n      pop\n      jump\t// out\n        /* \"#utility.yul\":6638:6777   */\n    tag_323:\n        /* \"#utility.yul\":6684:6689   */\n      0x00\n        /* \"#utility.yul\":6722:6728   */\n      dup2\n        /* \"#utility.yul\":6709:6729   */\n      calldataload\n        /* \"#utility.yul\":6700:6729   */\n      swap1\n      pop\n        /* \"#utility.yul\":6738:6771   */\n      tag_431\n        /* \"#utility.yul\":6765:6770   */\n      dup2\n        /* \"#utility.yul\":6738:6771   */\n      tag_322\n      jump\t// in\n    tag_431:\n        /* \"#utility.yul\":6638:6777   */\n      swap3\n      swap2\n      pop\n      pop\n      jump\t// out\n        /* \"#utility.yul\":6783:8234   */\n    tag_51:\n        /* \"#utility.yul\":6908:6914   */\n      0x00\n        /* \"#utility.yul\":6916:6922   */\n      dup1\n        /* \"#utility.yul\":6924:6930   */\n      0x00\n        /* \"#utility.yul\":6932:6938   */\n      dup1\n        /* \"#utility.yul\":6940:6946   */\n      0x00\n        /* \"#utility.yul\":6989:6992   */\n      0xa0\n        /* \"#utility.yul\":6977:6986   */\n      dup7\n        /* \"#utility.yul\":6968:6975   */\n      dup9\n        /* \"#utility.yul\":6964:6987   */\n      sub\n        /* \"#utility.yul\":6960:6993   */\n      slt\n        /* \"#utility.yul\":6957:7077   */\n      iszero\n      tag_433\n      jumpi\n        /* \"#utility.yul\":6996:7075   */\n      tag_434\n      tag_301\n      jump\t// in\n    tag_434:\n        /* \"#utility.yul\":6957:7077   */\n    tag_433:\n        /* \"#utility.yul\":7144:7145   */\n      0x00\n        /* \"#utility.yul\":7133:7142   */\n      dup7\n        /* \"#utility.yul\":7129:7146   */\n      add\n        /* \"#utility.yul\":7116:7147   */\n      calldataload\n        /* \"#utility.yul\":7174:7192   */\n      0xffffffffffffffff\n        /* \"#utility.yul\":7166:7172   */\n      dup2\n        /* \"#utility.yul\":7163:7193   */\n      gt\n        /* \"#utility.yul\":7160:7277   */\n      iszero\n      tag_435\n      jumpi\n        /* \"#utility.yul\":7196:7275   */\n      tag_436\n      tag_302\n      jump\t// in\n    tag_436:\n        /* \"#utility.yul\":7160:7277   */\n    tag_435:\n        /* \"#utility.yul\":7301:7364   */\n      tag_437\n        /* \"#utility.yul\":7356:7363   */\n      dup9\n        /* \"#utility.yul\":7347:7353   */\n      dup3\n        /* \"#utility.yul\":7336:7345   */\n      dup10\n        /* \"#utility.yul\":7332:7354   */\n      add\n        /* \"#utility.yul\":7301:7364   */\n      tag_321\n      jump\t// in\n    tag_437:\n        /* \"#utility.yul\":7291:7364   */\n      swap6\n      pop\n        /* \"#utility.yul\":7087:7374   */\n      pop\n        /* \"#utility.yul\":7413:7415   */\n      0x20\n        /* \"#utility.yul\":7439:7492   */\n      tag_438\n        /* \"#utility.yul\":7484:7491   */\n      dup9\n        /* \"#utility.yul\":7475:7481   */\n      dup3\n        /* \"#utility.yul\":7464:7473   */\n      dup10\n        /* \"#utility.yul\":7460:7482   */\n      add\n        /* \"#utility.yul\":7439:7492   */\n      tag_323\n      jump\t// in\n    tag_438:\n        /* \"#utility.yul\":7429:7492   */\n      swap5\n      pop\n        /* \"#utility.yul\":7384:7502   */\n      pop\n        /* \"#utility.yul\":7569:7571   */\n      0x40\n        /* \"#utility.yul\":7558:7567   */\n      dup7\n        /* \"#utility.yul\":7554:7572   */\n      add\n        /* \"#utility.yul\":7541:7573   */\n      calldataload\n        /* \"#utility.yul\":7600:7618   */\n      0xffffffffffffffff\n        /* \"#utility.yul\":7592:7598   */\n      dup2\n        /* \"#utility.yul\":7589:7619   */\n      gt\n        /* \"#utility.yul\":7586:7703   */\n      iszero\n      tag_439\n      jumpi\n        /* \"#utility.yul\":7622:7701   */\n      tag_440\n      tag_302\n      jump\t// in\n    tag_440:\n        /* \"#utility.yul\":7586:7703   */\n    tag_439:\n        /* \"#utility.yul\":7727:7790   */\n      tag_441\n        /* \"#utility.yul\":7782:7789   */\n      dup9\n        /* \"#utility.yul\":7773:7779   */\n      dup3\n        /* \"#utility.yul\":7762:7771   */\n      dup10\n        /* \"#utility.yul\":7758:7780   */\n      add\n        /* \"#utility.yul\":7727:7790   */\n      tag_321\n      jump\t// in\n    tag_441:\n        /* \"#utility.yul\":7717:7790   */\n      swap4\n      pop\n        /* \"#utility.yul\":7512:7800   */\n      pop\n        /* \"#utility.yul\":7867:7869   */\n      0x60\n        /* \"#utility.yul\":7856:7865   */\n      dup7\n        /* \"#utility.yul\":7852:7870   */\n      add\n        /* \"#utility.yul\":7839:7871   */\n      calldataload\n        /* \"#utility.yul\":7898:7916   */\n      0xffffffffffffffff\n        /* \"#utility.yul\":7890:7896   */\n      dup2\n        /* \"#utility.yul\":7887:7917   */\n      gt\n        /* \"#utility.yul\":7884:8001   */\n      iszero\n      tag_442\n      jumpi\n        /* \"#utility.yul\":7920:7999   */\n      tag_443\n      tag_302\n      jump\t// in\n    tag_443:\n        /* \"#utility.yul\":7884:8001   */\n    tag_442:\n        /* \"#utility.yul\":8025:8088   */\n      tag_444\n        /* \"#utility.yul\":8080:8087   */\n      dup9\n        /* \"#utility.yul\":8071:8077   */\n      dup3\n        /* \"#utility.yul\":8060:8069   */\n      dup10\n        /* \"#utility.yul\":8056:8078   */\n      add\n        /* \"#utility.yul\":8025:8088   */\n      tag_321\n      jump\t// in\n    tag_444:\n        /* \"#utility.yul\":8015:8088   */\n      swap3\n      pop\n        /* \"#utility.yul\":7810:8098   */\n      pop\n        /* \"#utility.yul\":8137:8140   */\n      0x80\n        /* \"#utility.yul\":8164:8217   */\n      tag_445\n        /* \"#utility.yul\":8209:8216   */\n      dup9\n        /* \"#utility.yul\":8200:8206   */\n      dup3\n        /* \"#utility.yul\":8189:8198   */\n      dup10\n        /* \"#utility.yul\":8185:8207   */\n      add\n        /* \"#utility.yul\":8164:8217   */\n      tag_323\n      jump\t// in\n    tag_445:\n        /* \"#utility.yul\":8154:8217   */\n      swap2\n      pop\n        /* \"#utility.yul\":8108:8227   */\n      pop\n        /* \"#utility.yul\":6783:8234   */\n      swap3\n      swap6\n      pop\n      swap3\n      swap6\n      swap1\n      swap4\n      pop\n      jump\t// out\n        /* \"#utility.yul\":8240:8569   */\n    tag_55:\n        /* \"#utility.yul\":8299:8305   */\n      0x00\n        /* \"#utility.yul\":8348:8350   */\n      0x20\n        /* \"#utility.yul\":8336:8345   */\n      dup3\n        /* \"#utility.yul\":8327:8334   */\n      dup5\n        /* \"#utility.yul\":8323:8346   */\n      sub\n        /* \"#utility.yul\":8319:8351   */\n      slt\n        /* \"#utility.yul\":8316:8435   */\n      iszero\n      tag_447\n      jumpi\n        /* \"#utility.yul\":8354:8433   */\n      tag_448\n      tag_301\n      jump\t// in\n    tag_448:\n        /* \"#utility.yul\":8316:8435   */\n    tag_447:\n        /* \"#utility.yul\":8474:8475   */\n      0x00\n        /* \"#utility.yul\":8499:8552   */\n      tag_449\n        /* \"#utility.yul\":8544:8551   */\n      dup5\n        /* \"#utility.yul\":8535:8541   */\n      dup3\n        /* \"#utility.yul\":8524:8533   */\n      dup6\n        /* \"#utility.yul\":8520:8542   */\n      add\n        /* \"#utility.yul\":8499:8552   */\n      tag_323\n      jump\t// in\n    tag_449:\n        /* \"#utility.yul\":8489:8552   */\n      swap2\n      pop\n        /* \"#utility.yul\":8445:8562   */\n      pop\n        /* \"#utility.yul\":8240:8569   */\n      swap3\n      swap2\n      pop\n      pop\n      jump\t// out\n        /* \"#utility.yul\":8575:9229   */\n    tag_60:\n        /* \"#utility.yul\":8653:8659   */\n      0x00\n        /* \"#utility.yul\":8661:8667   */\n      dup1\n        /* \"#utility.yul\":8710:8712   */\n      0x40\n        /* \"#utility.yul\":8698:8707   */\n      dup4\n        /* \"#utility.yul\":8689:8696   */\n      dup6\n        /* \"#utility.yul\":8685:8708   */\n      sub\n        /* \"#utility.yul\":8681:8713   */\n      slt\n        /* \"#utility.yul\":8678:8797   */\n      iszero\n      tag_451\n      jumpi\n        /* \"#utility.yul\":8716:8795   */\n      tag_452\n      tag_301\n      jump\t// in\n    tag_452:\n        /* \"#utility.yul\":8678:8797   */\n    tag_451:\n        /* \"#utility.yul\":8836:8837   */\n      0x00\n        /* \"#utility.yul\":8861:8914   */\n      tag_453\n        /* \"#utility.yul\":8906:8913   */\n      dup6\n        /* \"#utility.yul\":8897:8903   */\n      dup3\n        /* \"#utility.yul\":8886:8895   */\n      dup7\n        /* \"#utility.yul\":8882:8904   */\n      add\n        /* \"#utility.yul\":8861:8914   */\n      tag_323\n      jump\t// in\n    tag_453:\n        /* \"#utility.yul\":8851:8914   */\n      swap3\n      pop\n        /* \"#utility.yul\":8807:8924   */\n      pop\n        /* \"#utility.yul\":8991:8993   */\n      0x20\n        /* \"#utility.yul\":8980:8989   */\n      dup4\n        /* \"#utility.yul\":8976:8994   */\n      add\n        /* \"#utility.yul\":8963:8995   */\n      calldataload\n        /* \"#utility.yul\":9022:9040   */\n      0xffffffffffffffff\n        /* \"#utility.yul\":9014:9020   */\n      dup2\n        /* \"#utility.yul\":9011:9041   */\n      gt\n        /* \"#utility.yul\":9008:9125   */\n      iszero\n      tag_454\n      jumpi\n        /* \"#utility.yul\":9044:9123   */\n      tag_455\n      tag_302\n      jump\t// in\n    tag_455:\n        /* \"#utility.yul\":9008:9125   */\n    tag_454:\n        /* \"#utility.yul\":9149:9212   */\n      tag_456\n        /* \"#utility.yul\":9204:9211   */\n      dup6\n        /* \"#utility.yul\":9195:9201   */\n      dup3\n        /* \"#utility.yul\":9184:9193   */\n      dup7\n        /* \"#utility.yul\":9180:9202   */\n      add\n        /* \"#utility.yul\":9149:9212   */\n      tag_321\n      jump\t// in\n    tag_456:\n        /* \"#utility.yul\":9139:9212   */\n      swap2\n      pop\n        /* \"#utility.yul\":8934:9222   */\n      pop\n        /* \"#utility.yul\":8575:9229   */\n      swap3\n      pop\n      swap3\n      swap1\n      pop\n      jump\t// out\n        /* \"#utility.yul\":9235:9312   */\n    tag_324:\n        /* \"#utility.yul\":9272:9279   */\n      0x00\n        /* \"#utility.yul\":9301:9306   */\n      dup2\n        /* \"#utility.yul\":9290:9306   */\n      swap1\n      pop\n        /* \"#utility.yul\":9235:9312   */\n      swap2\n      swap1\n      pop\n      jump\t// out\n        /* \"#utility.yul\":9318:9436   */\n    tag_325:\n        /* \"#utility.yul\":9405:9429   */\n      tag_459\n        /* \"#utility.yul\":9423:9428   */\n      dup2\n        /* \"#utility.yul\":9405:9429   */\n      tag_324\n      jump\t// in\n    tag_459:\n        /* \"#utility.yul\":9400:9403   */\n      dup3\n        /* \"#utility.yul\":9393:9430   */\n      mstore\n        /* \"#utility.yul\":9318:9436   */\n      pop\n      pop\n      jump\t// out\n        /* \"#utility.yul\":9442:9664   */\n    tag_63:\n        /* \"#utility.yul\":9535:9539   */\n      0x00\n        /* \"#utility.yul\":9573:9575   */\n      0x20\n        /* \"#utility.yul\":9562:9571   */\n      dup3\n        /* \"#utility.yul\":9558:9576   */\n      add\n        /* \"#utility.yul\":9550:9576   */\n      swap1\n      pop\n        /* \"#utility.yul\":9586:9657   */\n      tag_461\n        /* \"#utility.yul\":9654:9655   */\n      0x00\n        /* \"#utility.yul\":9643:9652   */\n      dup4\n        /* \"#utility.yul\":9639:9656   */\n      add\n        /* \"#utility.yul\":9630:9636   */\n      dup5\n        /* \"#utility.yul\":9586:9657   */\n      tag_325\n      jump\t// in\n    tag_461:\n        /* \"#utility.yul\":9442:9664   */\n      swap3\n      swap2\n      pop\n      pop\n      jump\t// out\n        /* \"#utility.yul\":9670:11267   */\n    tag_76:\n        /* \"#utility.yul\":9804:9810   */\n      0x00\n        /* \"#utility.yul\":9812:9818   */\n      dup1\n        /* \"#utility.yul\":9820:9826   */\n      0x00\n        /* \"#utility.yul\":9828:9834   */\n      dup1\n        /* \"#utility.yul\":9836:9842   */\n      0x00\n        /* \"#utility.yul\":9844:9850   */\n      dup1\n        /* \"#utility.yul\":9893:9896   */\n      0xc0\n        /* \"#utility.yul\":9881:9890   */\n      dup8\n        /* \"#utility.yul\":9872:9879   */\n      dup10\n        /* \"#utility.yul\":9868:9891   */\n      sub\n        /* \"#utility.yul\":9864:9897   */\n      slt\n        /* \"#utility.yul\":9861:9981   */\n      iszero\n      tag_463\n      jumpi\n        /* \"#utility.yul\":9900:9979   */\n      tag_464\n      tag_301\n      jump\t// in\n    tag_464:\n        /* \"#utility.yul\":9861:9981   */\n    tag_463:\n        /* \"#utility.yul\":10048:10049   */\n      0x00\n        /* \"#utility.yul\":10037:10046   */\n      dup8\n        /* \"#utility.yul\":10033:10050   */\n      add\n        /* \"#utility.yul\":10020:10051   */\n      calldataload\n        /* \"#utility.yul\":10078:10096   */\n      0xffffffffffffffff\n        /* \"#utility.yul\":10070:10076   */\n      dup2\n        /* \"#utility.yul\":10067:10097   */\n      gt\n        /* \"#utility.yul\":10064:10181   */\n      iszero\n      tag_465\n      jumpi\n        /* \"#utility.yul\":10100:10179   */\n      tag_466\n      tag_302\n      jump\t// in\n    tag_466:\n        /* \"#utility.yul\":10064:10181   */\n    tag_465:\n        /* \"#utility.yul\":10205:10268   */\n      tag_467\n        /* \"#utility.yul\":10260:10267   */\n      dup10\n        /* \"#utility.yul\":10251:10257   */\n      dup3\n        /* \"#utility.yul\":10240:10249   */\n      dup11\n        /* \"#utility.yul\":10236:10258   */\n      add\n        /* \"#utility.yul\":10205:10268   */\n      tag_321\n      jump\t// in\n    tag_467:\n        /* \"#utility.yul\":10195:10268   */\n      swap7\n      pop\n        /* \"#utility.yul\":9991:10278   */\n      pop\n        /* \"#utility.yul\":10317:10319   */\n      0x20\n        /* \"#utility.yul\":10343:10396   */\n      tag_468\n        /* \"#utility.yul\":10388:10395   */\n      dup10\n        /* \"#utility.yul\":10379:10385   */\n      dup3\n        /* \"#utility.yul\":10368:10377   */\n      dup11\n        /* \"#utility.yul\":10364:10386   */\n      add\n        /* \"#utility.yul\":10343:10396   */\n      tag_323\n      jump\t// in\n    tag_468:\n        /* \"#utility.yul\":10333:10396   */\n      swap6\n      pop\n        /* \"#utility.yul\":10288:10406   */\n      pop\n        /* \"#utility.yul\":10473:10475   */\n      0x40\n        /* \"#utility.yul\":10462:10471   */\n      dup8\n        /* \"#utility.yul\":10458:10476   */\n      add\n        /* \"#utility.yul\":10445:10477   */\n      calldataload\n        /* \"#utility.yul\":10504:10522   */\n      0xffffffffffffffff\n        /* \"#utility.yul\":10496:10502   */\n      dup2\n        /* \"#utility.yul\":10493:10523   */\n      gt\n        /* \"#utility.yul\":10490:10607   */\n      iszero\n      tag_469\n      jumpi\n        /* \"#utility.yul\":10526:10605   */\n      tag_470\n      tag_302\n      jump\t// in\n    tag_470:\n        /* \"#utility.yul\":10490:10607   */\n    tag_469:\n        /* \"#utility.yul\":10631:10694   */\n      tag_471\n        /* \"#utility.yul\":10686:10693   */\n      dup10\n        /* \"#utility.yul\":10677:10683   */\n      dup3\n        /* \"#utility.yul\":10666:10675   */\n      dup11\n        /* \"#utility.yul\":10662:10684   */\n      add\n        /* \"#utility.yul\":10631:10694   */\n      tag_321\n      jump\t// in\n    tag_471:\n        /* \"#utility.yul\":10621:10694   */\n      swap5\n      pop\n        /* \"#utility.yul\":10416:10704   */\n      pop\n        /* \"#utility.yul\":10771:10773   */\n      0x60\n        /* \"#utility.yul\":10760:10769   */\n      dup8\n        /* \"#utility.yul\":10756:10774   */\n      add\n        /* \"#utility.yul\":10743:10775   */\n      calldataload\n        /* \"#utility.yul\":10802:10820   */\n      0xffffffffffffffff\n        /* \"#utility.yul\":10794:10800   */\n      dup2\n        /* \"#utility.yul\":10791:10821   */\n      gt\n        /* \"#utility.yul\":10788:10905   */\n      iszero\n      tag_472\n      jumpi\n        /* \"#utility.yul\":10824:10903   */\n      tag_473\n      tag_302\n      jump\t// in\n    tag_473:\n        /* \"#utility.yul\":10788:10905   */\n    tag_472:\n        /* \"#utility.yul\":10929:10992   */\n      tag_474\n        /* \"#utility.yul\":10984:10991   */\n      dup10\n        /* \"#utility.yul\":10975:10981   */\n      dup3\n        /* \"#utility.yul\":10964:10973   */\n      dup11\n        /* \"#utility.yul\":10960:10982   */\n      add\n        /* \"#utility.yul\":10929:10992   */\n      tag_321\n      jump\t// in\n    tag_474:\n        /* \"#utility.yul\":10919:10992   */\n      swap4\n      pop\n        /* \"#utility.yul\":10714:11002   */\n      pop\n        /* \"#utility.yul\":11041:11044   */\n      0x80\n        /* \"#utility.yul\":11068:11121   */\n      tag_475\n        /* \"#utility.yul\":11113:11120   */\n      dup10\n        /* \"#utility.yul\":11104:11110   */\n      dup3\n        /* \"#utility.yul\":11093:11102   */\n      dup11\n        /* \"#utility.yul\":11089:11111   */\n      add\n        /* \"#utility.yul\":11068:11121   */\n      tag_323\n      jump\t// in\n    tag_475:\n        /* \"#utility.yul\":11058:11121   */\n      swap3\n      pop\n        /* \"#utility.yul\":11012:11131   */\n      pop\n        /* \"#utility.yul\":11170:11173   */\n      0xa0\n        /* \"#utility.yul\":11197:11250   */\n      tag_476\n        /* \"#utility.yul\":11242:11249   */\n      dup10\n        /* \"#utility.yul\":11233:11239   */\n      dup3\n        /* \"#utility.yul\":11222:11231   */\n      dup11\n        /* \"#utility.yul\":11218:11240   */\n      add\n        /* \"#utility.yul\":11197:11250   */\n      tag_323\n      jump\t// in\n    tag_476:\n        /* \"#utility.yul\":11187:11250   */\n      swap2\n      pop\n        /* \"#utility.yul\":11141:11260   */\n      pop\n        /* \"#utility.yul\":9670:11267   */\n      swap3\n      swap6\n      pop\n      swap3\n      swap6\n      pop\n      swap3\n      swap6\n      jump\t// out\n        /* \"#utility.yul\":11273:11333   */\n    tag_326:\n        /* \"#utility.yul\":11301:11304   */\n      0x00\n        /* \"#utility.yul\":11322:11327   */\n      dup2\n        /* \"#utility.yul\":11315:11327   */\n      swap1\n      pop\n        /* \"#utility.yul\":11273:11333   */\n      swap2\n      swap1\n      pop\n      jump\t// out\n        /* \"#utility.yul\":11339:11481   */\n    tag_327:\n        /* \"#utility.yul\":11389:11398   */\n      0x00\n        /* \"#utility.yul\":11422:11475   */\n      tag_479\n        /* \"#utility.yul\":11440:11474   */\n      tag_480\n        /* \"#utility.yul\":11449:11473   */\n      tag_481\n        /* \"#utility.yul\":11467:11472   */\n      dup5\n        /* \"#utility.yul\":11449:11473   */\n      tag_310\n      jump\t// in\n    tag_481:\n        /* \"#utility.yul\":11440:11474   */\n      tag_326\n      jump\t// in\n    tag_480:\n        /* \"#utility.yul\":11422:11475   */\n      tag_310\n      jump\t// in\n    tag_479:\n        /* \"#utility.yul\":11409:11475   */\n      swap1\n      pop\n        /* \"#utility.yul\":11339:11481   */\n      swap2\n      swap1\n      pop\n      jump\t// out\n        /* \"#utility.yul\":11487:11613   */\n    tag_328:\n        /* \"#utility.yul\":11537:11546   */\n      0x00\n        /* \"#utility.yul\":11570:11607   */\n      tag_483\n        /* \"#utility.yul\":11601:11606   */\n      dup3\n        /* \"#utility.yul\":11570:11607   */\n      tag_327\n      jump\t// in\n    tag_483:\n        /* \"#utility.yul\":11557:11607   */\n      swap1\n      pop\n        /* \"#utility.yul\":11487:11613   */\n      swap2\n      swap1\n      pop\n      jump\t// out\n        /* \"#utility.yul\":11619:11764   */\n    tag_329:\n        /* \"#utility.yul\":11688:11697   */\n      0x00\n        /* \"#utility.yul\":11721:11758   */\n      tag_485\n        /* \"#utility.yul\":11752:11757   */\n      dup3\n        /* \"#utility.yul\":11721:11758   */\n      tag_328\n      jump\t// in\n    tag_485:\n        /* \"#utility.yul\":11708:11758   */\n      swap1\n      pop\n        /* \"#utility.yul\":11619:11764   */\n      swap2\n      swap1\n      pop\n      jump\t// out\n        /* \"#utility.yul\":11770:11939   */\n    tag_330:\n        /* \"#utility.yul\":11876:11932   */\n      tag_487\n        /* \"#utility.yul\":11926:11931   */\n      dup2\n        /* \"#utility.yul\":11876:11932   */\n      tag_329\n      jump\t// in\n    tag_487:\n        /* \"#utility.yul\":11871:11874   */\n      dup3\n        /* \"#utility.yul\":11864:11933   */\n      mstore\n        /* \"#utility.yul\":11770:11939   */\n      pop\n      pop\n      jump\t// out\n        /* \"#utility.yul\":11945:12205   */\n    tag_87:\n        /* \"#utility.yul\":12057:12061   */\n      0x00\n        /* \"#utility.yul\":12095:12097   */\n      0x20\n        /* \"#utility.yul\":12084:12093   */\n      dup3\n        /* \"#utility.yul\":12080:12098   */\n      add\n        /* \"#utility.yul\":12072:12098   */\n      swap1\n      pop\n        /* \"#utility.yul\":12108:12198   */\n      tag_489\n        /* \"#utility.yul\":12195:12196   */\n      0x00\n        /* \"#utility.yul\":12184:12193   */\n      dup4\n        /* \"#utility.yul\":12180:12197   */\n      add\n        /* \"#utility.yul\":12171:12177   */\n      dup5\n        /* \"#utility.yul\":12108:12198   */\n      tag_330\n      jump\t// in\n    tag_489:\n        /* \"#utility.yul\":11945:12205   */\n      swap3\n      swap2\n      pop\n      pop\n      jump\t// out\n        /* \"#utility.yul\":12211:12358   */\n    tag_331:\n        /* \"#utility.yul\":12282:12291   */\n      0x00\n        /* \"#utility.yul\":12315:12352   */\n      tag_491\n        /* \"#utility.yul\":12346:12351   */\n      dup3\n        /* \"#utility.yul\":12315:12352   */\n      tag_328\n      jump\t// in\n    tag_491:\n        /* \"#utility.yul\":12302:12352   */\n      swap1\n      pop\n        /* \"#utility.yul\":12211:12358   */\n      swap2\n      swap1\n      pop\n      jump\t// out\n        /* \"#utility.yul\":12364:12537   */\n    tag_332:\n        /* \"#utility.yul\":12472:12530   */\n      tag_493\n        /* \"#utility.yul\":12524:12529   */\n      dup2\n        /* \"#utility.yul\":12472:12530   */\n      tag_331\n      jump\t// in\n    tag_493:\n        /* \"#utility.yul\":12467:12470   */\n      dup3\n        /* \"#utility.yul\":12460:12531   */\n      mstore\n        /* \"#utility.yul\":12364:12537   */\n      pop\n      pop\n      jump\t// out\n        /* \"#utility.yul\":12543:12807   */\n    tag_95:\n        /* \"#utility.yul\":12657:12661   */\n      0x00\n        /* \"#utility.yul\":12695:12697   */\n      0x20\n        /* \"#utility.yul\":12684:12693   */\n      dup3\n        /* \"#utility.yul\":12680:12698   */\n      add\n        /* \"#utility.yul\":12672:12698   */\n      swap1\n      pop\n        /* \"#utility.yul\":12708:12800   */\n      tag_495\n        /* \"#utility.yul\":12797:12798   */\n      0x00\n        /* \"#utility.yul\":12786:12795   */\n      dup4\n        /* \"#utility.yul\":12782:12799   */\n      add\n        /* \"#utility.yul\":12773:12779   */\n      dup5\n        /* \"#utility.yul\":12708:12800   */\n      tag_332\n      jump\t// in\n    tag_495:\n        /* \"#utility.yul\":12543:12807   */\n      swap3\n      swap2\n      pop\n      pop\n      jump\t// out\n        /* \"#utility.yul\":12813:13612   */\n    tag_108:\n        /* \"#utility.yul\":12900:12906   */\n      0x00\n        /* \"#utility.yul\":12908:12914   */\n      dup1\n        /* \"#utility.yul\":12916:12922   */\n      0x00\n        /* \"#utility.yul\":12965:12967   */\n      0x60\n        /* \"#utility.yul\":12953:12962   */\n      dup5\n        /* \"#utility.yul\":12944:12951   */\n      dup7\n        /* \"#utility.yul\":12940:12963   */\n      sub\n        /* \"#utility.yul\":12936:12968   */\n      slt\n        /* \"#utility.yul\":12933:13052   */\n      iszero\n      tag_497\n      jumpi\n        /* \"#utility.yul\":12971:13050   */\n      tag_498\n      tag_301\n      jump\t// in\n    tag_498:\n        /* \"#utility.yul\":12933:13052   */\n    tag_497:\n        /* \"#utility.yul\":13091:13092   */\n      0x00\n        /* \"#utility.yul\":13116:13169   */\n      tag_499\n        /* \"#utility.yul\":13161:13168   */\n      dup7\n        /* \"#utility.yul\":13152:13158   */\n      dup3\n        /* \"#utility.yul\":13141:13150   */\n      dup8\n        /* \"#utility.yul\":13137:13159   */\n      add\n        /* \"#utility.yul\":13116:13169   */\n      tag_304\n      jump\t// in\n    tag_499:\n        /* \"#utility.yul\":13106:13169   */\n      swap4\n      pop\n        /* \"#utility.yul\":13062:13179   */\n      pop\n        /* \"#utility.yul\":13218:13220   */\n      0x20\n        /* \"#utility.yul\":13244:13297   */\n      tag_500\n        /* \"#utility.yul\":13289:13296   */\n      dup7\n        /* \"#utility.yul\":13280:13286   */\n      dup3\n        /* \"#utility.yul\":13269:13278   */\n      dup8\n        /* \"#utility.yul\":13265:13287   */\n      add\n        /* \"#utility.yul\":13244:13297   */\n      tag_323\n      jump\t// in\n    tag_500:\n        /* \"#utility.yul\":13234:13297   */\n      swap3\n      pop\n        /* \"#utility.yul\":13189:13307   */\n      pop\n        /* \"#utility.yul\":13374:13376   */\n      0x40\n        /* \"#utility.yul\":13363:13372   */\n      dup5\n        /* \"#utility.yul\":13359:13377   */\n      add\n        /* \"#utility.yul\":13346:13378   */\n      calldataload\n        /* \"#utility.yul\":13405:13423   */\n      0xffffffffffffffff\n        /* \"#utility.yul\":13397:13403   */\n      dup2\n        /* \"#utility.yul\":13394:13424   */\n      gt\n        /* \"#utility.yul\":13391:13508   */\n      iszero\n      tag_501\n      jumpi\n        /* \"#utility.yul\":13427:13506   */\n      tag_502\n      tag_302\n      jump\t// in\n    tag_502:\n        /* \"#utility.yul\":13391:13508   */\n    tag_501:\n        /* \"#utility.yul\":13532:13595   */\n      tag_503\n        /* \"#utility.yul\":13587:13594   */\n      dup7\n        /* \"#utility.yul\":13578:13584   */\n      dup3\n        /* \"#utility.yul\":13567:13576   */\n      dup8\n        /* \"#utility.yul\":13563:13585   */\n      add\n        /* \"#utility.yul\":13532:13595   */\n      tag_321\n      jump\t// in\n    tag_503:\n        /* \"#utility.yul\":13522:13595   */\n      swap2\n      pop\n        /* \"#utility.yul\":13317:13605   */\n      pop\n        /* \"#utility.yul\":12813:13612   */\n      swap3\n      pop\n      swap3\n      pop\n      swap3\n      jump\t// out\n        /* \"#utility.yul\":13618:13761   */\n    tag_333:\n        /* \"#utility.yul\":13675:13680   */\n      0x00\n        /* \"#utility.yul\":13706:13712   */\n      dup2\n        /* \"#utility.yul\":13700:13713   */\n      mload\n        /* \"#utility.yul\":13691:13713   */\n      swap1\n      pop\n        /* \"#utility.yul\":13722:13755   */\n      tag_505\n        /* \"#utility.yul\":13749:13754   */\n      dup2\n        /* \"#utility.yul\":13722:13755   */\n      tag_322\n      jump\t// in\n    tag_505:\n        /* \"#utility.yul\":13618:13761   */\n      swap3\n      swap2\n      pop\n      pop\n      jump\t// out\n        /* \"#utility.yul\":13767:14118   */\n    tag_116:\n        /* \"#utility.yul\":13837:13843   */\n      0x00\n        /* \"#utility.yul\":13886:13888   */\n      0x20\n        /* \"#utility.yul\":13874:13883   */\n      dup3\n        /* \"#utility.yul\":13865:13872   */\n      dup5\n        /* \"#utility.yul\":13861:13884   */\n      sub\n        /* \"#utility.yul\":13857:13889   */\n      slt\n        /* \"#utility.yul\":13854:13973   */\n      iszero\n      tag_507\n      jumpi\n        /* \"#utility.yul\":13892:13971   */\n      tag_508\n      tag_301\n      jump\t// in\n    tag_508:\n        /* \"#utility.yul\":13854:13973   */\n    tag_507:\n        /* \"#utility.yul\":14012:14013   */\n      0x00\n        /* \"#utility.yul\":14037:14101   */\n      tag_509\n        /* \"#utility.yul\":14093:14100   */\n      dup5\n        /* \"#utility.yul\":14084:14090   */\n      dup3\n        /* \"#utility.yul\":14073:14082   */\n      dup6\n        /* \"#utility.yul\":14069:14091   */\n      add\n        /* \"#utility.yul\":14037:14101   */\n      tag_333\n      jump\t// in\n    tag_509:\n        /* \"#utility.yul\":14027:14101   */\n      swap2\n      pop\n        /* \"#utility.yul\":13983:14111   */\n      pop\n        /* \"#utility.yul\":13767:14118   */\n      swap3\n      swap2\n      pop\n      pop\n      jump\t// out\n        /* \"#utility.yul\":14124:14304   */\n    tag_334:\n        /* \"#utility.yul\":14172:14249   */\n      0x4e487b7100000000000000000000000000000000000000000000000000000000\n        /* \"#utility.yul\":14169:14170   */\n      0x00\n        /* \"#utility.yul\":14162:14250   */\n      mstore\n        /* \"#utility.yul\":14269:14273   */\n      0x22\n        /* \"#utility.yul\":14266:14267   */\n      0x04\n        /* \"#utility.yul\":14259:14274   */\n      mstore\n        /* \"#utility.yul\":14293:14297   */\n      0x24\n        /* \"#utility.yul\":14290:14291   */\n      0x00\n        /* \"#utility.yul\":14283:14298   */\n      revert\n        /* \"#utility.yul\":14310:14630   */\n    tag_120:\n        /* \"#utility.yul\":14354:14360   */\n      0x00\n        /* \"#utility.yul\":14391:14392   */\n      0x02\n        /* \"#utility.yul\":14385:14389   */\n      dup3\n        /* \"#utility.yul\":14381:14393   */\n      div\n        /* \"#utility.yul\":14371:14393   */\n      swap1\n      pop\n        /* \"#utility.yul\":14438:14439   */\n      0x01\n        /* \"#utility.yul\":14432:14436   */\n      dup3\n        /* \"#utility.yul\":14428:14440   */\n      and\n        /* \"#utility.yul\":14459:14477   */\n      dup1\n        /* \"#utility.yul\":14449:14530   */\n      tag_512\n      jumpi\n        /* \"#utility.yul\":14515:14519   */\n      0x7f\n        /* \"#utility.yul\":14507:14513   */\n      dup3\n        /* \"#utility.yul\":14503:14520   */\n      and\n        /* \"#utility.yul\":14493:14520   */\n      swap2\n      pop\n        /* \"#utility.yul\":14449:14530   */\n    tag_512:\n        /* \"#utility.yul\":14577:14579   */\n      0x20\n        /* \"#utility.yul\":14569:14575   */\n      dup3\n        /* \"#utility.yul\":14566:14580   */\n      lt\n        /* \"#utility.yul\":14546:14564   */\n      dup2\n        /* \"#utility.yul\":14543:14581   */\n      eq\n        /* \"#utility.yul\":14540:14624   */\n      iszero\n      tag_513\n      jumpi\n        /* \"#utility.yul\":14596:14614   */\n      tag_514\n      tag_334\n      jump\t// in\n    tag_514:\n        /* \"#utility.yul\":14540:14624   */\n    tag_513:\n        /* \"#utility.yul\":14361:14630   */\n      pop\n        /* \"#utility.yul\":14310:14630   */\n      swap2\n      swap1\n      pop\n      jump\t// out\n        /* \"#utility.yul\":14636:14805   */\n    tag_335:\n        /* \"#utility.yul\":14776:14797   */\n      0x496e646578206f7574206f6620626f756e647300000000000000000000000000\n        /* \"#utility.yul\":14772:14773   */\n      0x00\n        /* \"#utility.yul\":14764:14770   */\n      dup3\n        /* \"#utility.yul\":14760:14774   */\n      add\n        /* \"#utility.yul\":14753:14798   */\n      mstore\n        /* \"#utility.yul\":14636:14805   */\n      pop\n      jump\t// out\n        /* \"#utility.yul\":14811:15177   */\n    tag_336:\n        /* \"#utility.yul\":14953:14956   */\n      0x00\n        /* \"#utility.yul\":14974:15041   */\n      tag_517\n        /* \"#utility.yul\":15038:15040   */\n      0x13\n        /* \"#utility.yul\":15033:15036   */\n      dup4\n        /* \"#utility.yul\":14974:15041   */\n      tag_306\n      jump\t// in\n    tag_517:\n        /* \"#utility.yul\":14967:15041   */\n      swap2\n      pop\n        /* \"#utility.yul\":15050:15143   */\n      tag_518\n        /* \"#utility.yul\":15139:15142   */\n      dup3\n        /* \"#utility.yul\":15050:15143   */\n      tag_335\n      jump\t// in\n    tag_518:\n        /* \"#utility.yul\":15168:15170   */\n      0x20\n        /* \"#utility.yul\":15163:15166   */\n      dup3\n        /* \"#utility.yul\":15159:15171   */\n      add\n        /* \"#utility.yul\":15152:15171   */\n      swap1\n      pop\n        /* \"#utility.yul\":14811:15177   */\n      swap2\n      swap1\n      pop\n      jump\t// out\n        /* \"#utility.yul\":15183:15602   */\n    tag_138:\n        /* \"#utility.yul\":15349:15353   */\n      0x00\n        /* \"#utility.yul\":15387:15389   */\n      0x20\n        /* \"#utility.yul\":15376:15385   */\n      dup3\n        /* \"#utility.yul\":15372:15390   */\n      add\n        /* \"#utility.yul\":15364:15390   */\n      swap1\n      pop\n        /* \"#utility.yul\":15436:15445   */\n      dup2\n        /* \"#utility.yul\":15430:15434   */\n      dup2\n        /* \"#utility.yul\":15426:15446   */\n      sub\n        /* \"#utility.yul\":15422:15423   */\n      0x00\n        /* \"#utility.yul\":15411:15420   */\n      dup4\n        /* \"#utility.yul\":15407:15424   */\n      add\n        /* \"#utility.yul\":15400:15447   */\n      mstore\n        /* \"#utility.yul\":15464:15595   */\n      tag_520\n        /* \"#utility.yul\":15590:15594   */\n      dup2\n        /* \"#utility.yul\":15464:15595   */\n      tag_336\n      jump\t// in\n    tag_520:\n        /* \"#utility.yul\":15456:15595   */\n      swap1\n      pop\n        /* \"#utility.yul\":15183:15602   */\n      swap2\n      swap1\n      pop\n      jump\t// out\n        /* \"#utility.yul\":15608:15788   */\n    tag_141:\n        /* \"#utility.yul\":15656:15733   */\n      0x4e487b7100000000000000000000000000000000000000000000000000000000\n        /* \"#utility.yul\":15653:15654   */\n      0x00\n        /* \"#utility.yul\":15646:15734   */\n      mstore\n        /* \"#utility.yul\":15753:15757   */\n      0x32\n        /* \"#utility.yul\":15750:15751   */\n      0x04\n        /* \"#utility.yul\":15743:15758   */\n      mstore\n        /* \"#utility.yul\":15777:15781   */\n      0x24\n        /* \"#utility.yul\":15774:15775   */\n      0x00\n        /* \"#utility.yul\":15767:15782   */\n      revert\n        /* \"#utility.yul\":15794:15888   */\n    tag_337:\n        /* \"#utility.yul\":15827:15835   */\n      0x00\n        /* \"#utility.yul\":15875:15880   */\n      dup2\n        /* \"#utility.yul\":15871:15873   */\n      0x60\n        /* \"#utility.yul\":15867:15881   */\n      shl\n        /* \"#utility.yul\":15846:15881   */\n      swap1\n      pop\n        /* \"#utility.yul\":15794:15888   */\n      swap2\n      swap1\n      pop\n      jump\t// out\n        /* \"#utility.yul\":15894:15988   */\n    tag_338:\n        /* \"#utility.yul\":15933:15940   */\n      0x00\n        /* \"#utility.yul\":15962:15982   */\n      tag_524\n        /* \"#utility.yul\":15976:15981   */\n      dup3\n        /* \"#utility.yul\":15962:15982   */\n      tag_337\n      jump\t// in\n    tag_524:\n        /* \"#utility.yul\":15951:15982   */\n      swap1\n      pop\n        /* \"#utility.yul\":15894:15988   */\n      swap2\n      swap1\n      pop\n      jump\t// out\n        /* \"#utility.yul\":15994:16094   */\n    tag_339:\n        /* \"#utility.yul\":16033:16040   */\n      0x00\n        /* \"#utility.yul\":16062:16088   */\n      tag_526\n        /* \"#utility.yul\":16082:16087   */\n      dup3\n        /* \"#utility.yul\":16062:16088   */\n      tag_338\n      jump\t// in\n    tag_526:\n        /* \"#utility.yul\":16051:16088   */\n      swap1\n      pop\n        /* \"#utility.yul\":15994:16094   */\n      swap2\n      swap1\n      pop\n      jump\t// out\n        /* \"#utility.yul\":16100:16257   */\n    tag_340:\n        /* \"#utility.yul\":16205:16250   */\n      tag_528\n        /* \"#utility.yul\":16225:16249   */\n      tag_529\n        /* \"#utility.yul\":16243:16248   */\n      dup3\n        /* \"#utility.yul\":16225:16249   */\n      tag_311\n      jump\t// in\n    tag_529:\n        /* \"#utility.yul\":16205:16250   */\n      tag_339\n      jump\t// in\n    tag_528:\n        /* \"#utility.yul\":16200:16203   */\n      dup3\n        /* \"#utility.yul\":16193:16251   */\n      mstore\n        /* \"#utility.yul\":16100:16257   */\n      pop\n      pop\n      jump\t// out\n        /* \"#utility.yul\":16263:16411   */\n    tag_341:\n        /* \"#utility.yul\":16365:16376   */\n      0x00\n        /* \"#utility.yul\":16402:16405   */\n      dup2\n        /* \"#utility.yul\":16387:16405   */\n      swap1\n      pop\n        /* \"#utility.yul\":16263:16411   */\n      swap3\n      swap2\n      pop\n      pop\n      jump\t// out\n        /* \"#utility.yul\":16417:16794   */\n    tag_342:\n        /* \"#utility.yul\":16523:16526   */\n      0x00\n        /* \"#utility.yul\":16551:16590   */\n      tag_532\n        /* \"#utility.yul\":16584:16589   */\n      dup3\n        /* \"#utility.yul\":16551:16590   */\n      tag_305\n      jump\t// in\n    tag_532:\n        /* \"#utility.yul\":16606:16695   */\n      tag_533\n        /* \"#utility.yul\":16688:16694   */\n      dup2\n        /* \"#utility.yul\":16683:16686   */\n      dup6\n        /* \"#utility.yul\":16606:16695   */\n      tag_341\n      jump\t// in\n    tag_533:\n        /* \"#utility.yul\":16599:16695   */\n      swap4\n      pop\n        /* \"#utility.yul\":16704:16756   */\n      tag_534\n        /* \"#utility.yul\":16749:16755   */\n      dup2\n        /* \"#utility.yul\":16744:16747   */\n      dup6\n        /* \"#utility.yul\":16737:16741   */\n      0x20\n        /* \"#utility.yul\":16730:16735   */\n      dup7\n        /* \"#utility.yul\":16726:16742   */\n      add\n        /* \"#utility.yul\":16704:16756   */\n      tag_307\n      jump\t// in\n    tag_534:\n        /* \"#utility.yul\":16781:16787   */\n      dup1\n        /* \"#utility.yul\":16776:16779   */\n      dup5\n        /* \"#utility.yul\":16772:16788   */\n      add\n        /* \"#utility.yul\":16765:16788   */\n      swap2\n      pop\n        /* \"#utility.yul\":16527:16794   */\n      pop\n        /* \"#utility.yul\":16417:16794   */\n      swap3\n      swap2\n      pop\n      pop\n      jump\t// out\n        /* \"#utility.yul\":16800:17216   */\n    tag_169:\n        /* \"#utility.yul\":16960:16963   */\n      0x00\n        /* \"#utility.yul\":16975:17050   */\n      tag_536\n        /* \"#utility.yul\":17046:17049   */\n      dup3\n        /* \"#utility.yul\":17037:17043   */\n      dup6\n        /* \"#utility.yul\":16975:17050   */\n      tag_340\n      jump\t// in\n    tag_536:\n        /* \"#utility.yul\":17075:17077   */\n      0x14\n        /* \"#utility.yul\":17070:17073   */\n      dup3\n        /* \"#utility.yul\":17066:17078   */\n      add\n        /* \"#utility.yul\":17059:17078   */\n      swap2\n      pop\n        /* \"#utility.yul\":17095:17190   */\n      tag_537\n        /* \"#utility.yul\":17186:17189   */\n      dup3\n        /* \"#utility.yul\":17177:17183   */\n      dup5\n        /* \"#utility.yul\":17095:17190   */\n      tag_342\n      jump\t// in\n    tag_537:\n        /* \"#utility.yul\":17088:17190   */\n      swap2\n      pop\n        /* \"#utility.yul\":17207:17210   */\n      dup2\n        /* \"#utility.yul\":17200:17210   */\n      swap1\n      pop\n        /* \"#utility.yul\":16800:17216   */\n      swap4\n      swap3\n      pop\n      pop\n      pop\n      jump\t// out\n        /* \"#utility.yul\":17222:17645   */\n    tag_194:\n        /* \"#utility.yul\":17363:17367   */\n      0x00\n        /* \"#utility.yul\":17401:17403   */\n      0x40\n        /* \"#utility.yul\":17390:17399   */\n      dup3\n        /* \"#utility.yul\":17386:17404   */\n      add\n        /* \"#utility.yul\":17378:17404   */\n      swap1\n      pop\n        /* \"#utility.yul\":17414:17485   */\n      tag_539\n        /* \"#utility.yul\":17482:17483   */\n      0x00\n        /* \"#utility.yul\":17471:17480   */\n      dup4\n        /* \"#utility.yul\":17467:17484   */\n      add\n        /* \"#utility.yul\":17458:17464   */\n      dup6\n        /* \"#utility.yul\":17414:17485   */\n      tag_312\n      jump\t// in\n    tag_539:\n        /* \"#utility.yul\":17532:17541   */\n      dup2\n        /* \"#utility.yul\":17526:17530   */\n      dup2\n        /* \"#utility.yul\":17522:17542   */\n      sub\n        /* \"#utility.yul\":17517:17519   */\n      0x20\n        /* \"#utility.yul\":17506:17515   */\n      dup4\n        /* \"#utility.yul\":17502:17520   */\n      add\n        /* \"#utility.yul\":17495:17543   */\n      mstore\n        /* \"#utility.yul\":17560:17638   */\n      tag_540\n        /* \"#utility.yul\":17633:17637   */\n      dup2\n        /* \"#utility.yul\":17624:17630   */\n      dup5\n        /* \"#utility.yul\":17560:17638   */\n      tag_309\n      jump\t// in\n    tag_540:\n        /* \"#utility.yul\":17552:17638   */\n      swap1\n      pop\n        /* \"#utility.yul\":17222:17645   */\n      swap4\n      swap3\n      pop\n      pop\n      pop\n      jump\t// out\n        /* \"#utility.yul\":17651:17773   */\n    tag_343:\n        /* \"#utility.yul\":17724:17748   */\n      tag_542\n        /* \"#utility.yul\":17742:17747   */\n      dup2\n        /* \"#utility.yul\":17724:17748   */\n      tag_324\n      jump\t// in\n    tag_542:\n        /* \"#utility.yul\":17717:17722   */\n      dup2\n        /* \"#utility.yul\":17714:17749   */\n      eq\n        /* \"#utility.yul\":17704:17767   */\n      tag_543\n      jumpi\n        /* \"#utility.yul\":17763:17764   */\n      0x00\n        /* \"#utility.yul\":17760:17761   */\n      dup1\n        /* \"#utility.yul\":17753:17765   */\n      revert\n        /* \"#utility.yul\":17704:17767   */\n    tag_543:\n        /* \"#utility.yul\":17651:17773   */\n      pop\n      jump\t// out\n        /* \"#utility.yul\":17779:17922   */\n    tag_344:\n        /* \"#utility.yul\":17836:17841   */\n      0x00\n        /* \"#utility.yul\":17867:17873   */\n      dup2\n        /* \"#utility.yul\":17861:17874   */\n      mload\n        /* \"#utility.yul\":17852:17874   */\n      swap1\n      pop\n        /* \"#utility.yul\":17883:17916   */\n      tag_545\n        /* \"#utility.yul\":17910:17915   */\n      dup2\n        /* \"#utility.yul\":17883:17916   */\n      tag_343\n      jump\t// in\n    tag_545:\n        /* \"#utility.yul\":17779:17922   */\n      swap3\n      swap2\n      pop\n      pop\n      jump\t// out\n        /* \"#utility.yul\":17928:18279   */\n    tag_198:\n        /* \"#utility.yul\":17998:18004   */\n      0x00\n        /* \"#utility.yul\":18047:18049   */\n      0x20\n        /* \"#utility.yul\":18035:18044   */\n      dup3\n        /* \"#utility.yul\":18026:18033   */\n      dup5\n        /* \"#utility.yul\":18022:18045   */\n      sub\n        /* \"#utility.yul\":18018:18050   */\n      slt\n        /* \"#utility.yul\":18015:18134   */\n      iszero\n      tag_547\n      jumpi\n        /* \"#utility.yul\":18053:18132   */\n      tag_548\n      tag_301\n      jump\t// in\n    tag_548:\n        /* \"#utility.yul\":18015:18134   */\n    tag_547:\n        /* \"#utility.yul\":18173:18174   */\n      0x00\n        /* \"#utility.yul\":18198:18262   */\n      tag_549\n        /* \"#utility.yul\":18254:18261   */\n      dup5\n        /* \"#utility.yul\":18245:18251   */\n      dup3\n        /* \"#utility.yul\":18234:18243   */\n      dup6\n        /* \"#utility.yul\":18230:18252   */\n      add\n        /* \"#utility.yul\":18198:18262   */\n      tag_344\n      jump\t// in\n    tag_549:\n        /* \"#utility.yul\":18188:18262   */\n      swap2\n      pop\n        /* \"#utility.yul\":18144:18272   */\n      pop\n        /* \"#utility.yul\":17928:18279   */\n      swap3\n      swap2\n      pop\n      pop\n      jump\t// out\n        /* \"#utility.yul\":18285:18727   */\n    tag_230:\n        /* \"#utility.yul\":18434:18438   */\n      0x00\n        /* \"#utility.yul\":18472:18474   */\n      0x60\n        /* \"#utility.yul\":18461:18470   */\n      dup3\n        /* \"#utility.yul\":18457:18475   */\n      add\n        /* \"#utility.yul\":18449:18475   */\n      swap1\n      pop\n        /* \"#utility.yul\":18485:18556   */\n      tag_551\n        /* \"#utility.yul\":18553:18554   */\n      0x00\n        /* \"#utility.yul\":18542:18551   */\n      dup4\n        /* \"#utility.yul\":18538:18555   */\n      add\n        /* \"#utility.yul\":18529:18535   */\n      dup7\n        /* \"#utility.yul\":18485:18556   */\n      tag_297\n      jump\t// in\n    tag_551:\n        /* \"#utility.yul\":18566:18638   */\n      tag_552\n        /* \"#utility.yul\":18634:18636   */\n      0x20\n        /* \"#utility.yul\":18623:18632   */\n      dup4\n        /* \"#utility.yul\":18619:18637   */\n      add\n        /* \"#utility.yul\":18610:18616   */\n      dup6\n        /* \"#utility.yul\":18566:18638   */\n      tag_325\n      jump\t// in\n    tag_552:\n        /* \"#utility.yul\":18648:18720   */\n      tag_553\n        /* \"#utility.yul\":18716:18718   */\n      0x40\n        /* \"#utility.yul\":18705:18714   */\n      dup4\n        /* \"#utility.yul\":18701:18719   */\n      add\n        /* \"#utility.yul\":18692:18698   */\n      dup5\n        /* \"#utility.yul\":18648:18720   */\n      tag_312\n      jump\t// in\n    tag_553:\n        /* \"#utility.yul\":18285:18727   */\n      swap5\n      swap4\n      pop\n      pop\n      pop\n      pop\n      jump\t// out\n        /* \"#utility.yul\":18733:18849   */\n    tag_345:\n        /* \"#utility.yul\":18803:18824   */\n      tag_555\n        /* \"#utility.yul\":18818:18823   */\n      dup2\n        /* \"#utility.yul\":18803:18824   */\n      tag_298\n      jump\t// in\n    tag_555:\n        /* \"#utility.yul\":18796:18801   */\n      dup2\n        /* \"#utility.yul\":18793:18825   */\n      eq\n        /* \"#utility.yul\":18783:18843   */\n      tag_556\n      jumpi\n        /* \"#utility.yul\":18839:18840   */\n      0x00\n        /* \"#utility.yul\":18836:18837   */\n      dup1\n        /* \"#utility.yul\":18829:18841   */\n      revert\n        /* \"#utility.yul\":18783:18843   */\n    tag_556:\n        /* \"#utility.yul\":18733:18849   */\n      pop\n      jump\t// out\n        /* \"#utility.yul\":18855:18992   */\n    tag_346:\n        /* \"#utility.yul\":18909:18914   */\n      0x00\n        /* \"#utility.yul\":18940:18946   */\n      dup2\n        /* \"#utility.yul\":18934:18947   */\n      mload\n        /* \"#utility.yul\":18925:18947   */\n      swap1\n      pop\n        /* \"#utility.yul\":18956:18986   */\n      tag_558\n        /* \"#utility.yul\":18980:18985   */\n      dup2\n        /* \"#utility.yul\":18956:18986   */\n      tag_345\n      jump\t// in\n    tag_558:\n        /* \"#utility.yul\":18855:18992   */\n      swap3\n      swap2\n      pop\n      pop\n      jump\t// out\n        /* \"#utility.yul\":18998:19343   */\n    tag_234:\n        /* \"#utility.yul\":19065:19071   */\n      0x00\n        /* \"#utility.yul\":19114:19116   */\n      0x20\n        /* \"#utility.yul\":19102:19111   */\n      dup3\n        /* \"#utility.yul\":19093:19100   */\n      dup5\n        /* \"#utility.yul\":19089:19112   */\n      sub\n        /* \"#utility.yul\":19085:19117   */\n      slt\n        /* \"#utility.yul\":19082:19201   */\n      iszero\n      tag_560\n      jumpi\n        /* \"#utility.yul\":19120:19199   */\n      tag_561\n      tag_301\n      jump\t// in\n    tag_561:\n        /* \"#utility.yul\":19082:19201   */\n    tag_560:\n        /* \"#utility.yul\":19240:19241   */\n      0x00\n        /* \"#utility.yul\":19265:19326   */\n      tag_562\n        /* \"#utility.yul\":19318:19325   */\n      dup5\n        /* \"#utility.yul\":19309:19315   */\n      dup3\n        /* \"#utility.yul\":19298:19307   */\n      dup6\n        /* \"#utility.yul\":19294:19316   */\n      add\n        /* \"#utility.yul\":19265:19326   */\n      tag_346\n      jump\t// in\n    tag_562:\n        /* \"#utility.yul\":19255:19326   */\n      swap2\n      pop\n        /* \"#utility.yul\":19211:19336   */\n      pop\n        /* \"#utility.yul\":18998:19343   */\n      swap3\n      swap2\n      pop\n      pop\n      jump\t// out\n        /* \"#utility.yul\":19349:19575   */\n    tag_347:\n        /* \"#utility.yul\":19489:19523   */\n      0x4661696c656420746f2061646420696e7374697475746520746f207374756465\n        /* \"#utility.yul\":19485:19486   */\n      0x00\n        /* \"#utility.yul\":19477:19483   */\n      dup3\n        /* \"#utility.yul\":19473:19487   */\n      add\n        /* \"#utility.yul\":19466:19524   */\n      mstore\n        /* \"#utility.yul\":19558:19567   */\n      0x6e7420696e666f00000000000000000000000000000000000000000000000000\n        /* \"#utility.yul\":19553:19555   */\n      0x20\n        /* \"#utility.yul\":19545:19551   */\n      dup3\n        /* \"#utility.yul\":19541:19556   */\n      add\n        /* \"#utility.yul\":19534:19568   */\n      mstore\n        /* \"#utility.yul\":19349:19575   */\n      pop\n      jump\t// out\n        /* \"#utility.yul\":19581:19947   */\n    tag_348:\n        /* \"#utility.yul\":19723:19726   */\n      0x00\n        /* \"#utility.yul\":19744:19811   */\n      tag_565\n        /* \"#utility.yul\":19808:19810   */\n      0x27\n        /* \"#utility.yul\":19803:19806   */\n      dup4\n        /* \"#utility.yul\":19744:19811   */\n      tag_306\n      jump\t// in\n    tag_565:\n        /* \"#utility.yul\":19737:19811   */\n      swap2\n      pop\n        /* \"#utility.yul\":19820:19913   */\n      tag_566\n        /* \"#utility.yul\":19909:19912   */\n      dup3\n        /* \"#utility.yul\":19820:19913   */\n      tag_347\n      jump\t// in\n    tag_566:\n        /* \"#utility.yul\":19938:19940   */\n      0x40\n        /* \"#utility.yul\":19933:19936   */\n      dup3\n        /* \"#utility.yul\":19929:19941   */\n      add\n        /* \"#utility.yul\":19922:19941   */\n      swap1\n      pop\n        /* \"#utility.yul\":19581:19947   */\n      swap2\n      swap1\n      pop\n      jump\t// out\n        /* \"#utility.yul\":19953:20372   */\n    tag_237:\n        /* \"#utility.yul\":20119:20123   */\n      0x00\n        /* \"#utility.yul\":20157:20159   */\n      0x20\n        /* \"#utility.yul\":20146:20155   */\n      dup3\n        /* \"#utility.yul\":20142:20160   */\n      add\n        /* \"#utility.yul\":20134:20160   */\n      swap1\n      pop\n        /* \"#utility.yul\":20206:20215   */\n      dup2\n        /* \"#utility.yul\":20200:20204   */\n      dup2\n        /* \"#utility.yul\":20196:20216   */\n      sub\n        /* \"#utility.yul\":20192:20193   */\n      0x00\n        /* \"#utility.yul\":20181:20190   */\n      dup4\n        /* \"#utility.yul\":20177:20194   */\n      add\n        /* \"#utility.yul\":20170:20217   */\n      mstore\n        /* \"#utility.yul\":20234:20365   */\n      tag_568\n        /* \"#utility.yul\":20360:20364   */\n      dup2\n        /* \"#utility.yul\":20234:20365   */\n      tag_348\n      jump\t// in\n    tag_568:\n        /* \"#utility.yul\":20226:20365   */\n      swap1\n      pop\n        /* \"#utility.yul\":19953:20372   */\n      swap2\n      swap1\n      pop\n      jump\t// out\n        /* \"#utility.yul\":20378:20799   */\n    tag_349:\n        /* \"#utility.yul\":20467:20472   */\n      0x00\n        /* \"#utility.yul\":20492:20558   */\n      tag_570\n        /* \"#utility.yul\":20508:20557   */\n      tag_571\n        /* \"#utility.yul\":20550:20556   */\n      dup5\n        /* \"#utility.yul\":20508:20557   */\n      tag_318\n      jump\t// in\n    tag_571:\n        /* \"#utility.yul\":20492:20558   */\n      tag_317\n      jump\t// in\n    tag_570:\n        /* \"#utility.yul\":20483:20558   */\n      swap1\n      pop\n        /* \"#utility.yul\":20581:20587   */\n      dup3\n        /* \"#utility.yul\":20574:20579   */\n      dup2\n        /* \"#utility.yul\":20567:20588   */\n      mstore\n        /* \"#utility.yul\":20619:20623   */\n      0x20\n        /* \"#utility.yul\":20612:20617   */\n      dup2\n        /* \"#utility.yul\":20608:20624   */\n      add\n        /* \"#utility.yul\":20657:20660   */\n      dup5\n        /* \"#utility.yul\":20648:20654   */\n      dup5\n        /* \"#utility.yul\":20643:20646   */\n      dup5\n        /* \"#utility.yul\":20639:20655   */\n      add\n        /* \"#utility.yul\":20636:20661   */\n      gt\n        /* \"#utility.yul\":20633:20745   */\n      iszero\n      tag_572\n      jumpi\n        /* \"#utility.yul\":20664:20743   */\n      tag_573\n      tag_314\n      jump\t// in\n    tag_573:\n        /* \"#utility.yul\":20633:20745   */\n    tag_572:\n        /* \"#utility.yul\":20754:20793   */\n      tag_574\n        /* \"#utility.yul\":20786:20792   */\n      dup5\n        /* \"#utility.yul\":20781:20784   */\n      dup3\n        /* \"#utility.yul\":20776:20779   */\n      dup6\n        /* \"#utility.yul\":20754:20793   */\n      tag_307\n      jump\t// in\n    tag_574:\n        /* \"#utility.yul\":20473:20799   */\n      pop\n        /* \"#utility.yul\":20378:20799   */\n      swap4\n      swap3\n      pop\n      pop\n      pop\n      jump\t// out\n        /* \"#utility.yul\":20819:21174   */\n    tag_350:\n        /* \"#utility.yul\":20886:20891   */\n      0x00\n        /* \"#utility.yul\":20935:20938   */\n      dup3\n        /* \"#utility.yul\":20928:20932   */\n      0x1f\n        /* \"#utility.yul\":20920:20926   */\n      dup4\n        /* \"#utility.yul\":20916:20933   */\n      add\n        /* \"#utility.yul\":20912:20939   */\n      slt\n        /* \"#utility.yul\":20902:21024   */\n      tag_576\n      jumpi\n        /* \"#utility.yul\":20943:21022   */\n      tag_577\n      tag_313\n      jump\t// in\n    tag_577:\n        /* \"#utility.yul\":20902:21024   */\n    tag_576:\n        /* \"#utility.yul\":21053:21059   */\n      dup2\n        /* \"#utility.yul\":21047:21060   */\n      mload\n        /* \"#utility.yul\":21078:21168   */\n      tag_578\n        /* \"#utility.yul\":21164:21167   */\n      dup5\n        /* \"#utility.yul\":21156:21162   */\n      dup3\n        /* \"#utility.yul\":21149:21153   */\n      0x20\n        /* \"#utility.yul\":21141:21147   */\n      dup7\n        /* \"#utility.yul\":21137:21154   */\n      add\n        /* \"#utility.yul\":21078:21168   */\n      tag_349\n      jump\t// in\n    tag_578:\n        /* \"#utility.yul\":21069:21168   */\n      swap2\n      pop\n        /* \"#utility.yul\":20892:21174   */\n      pop\n        /* \"#utility.yul\":20819:21174   */\n      swap3\n      swap2\n      pop\n      pop\n      jump\t// out\n        /* \"#utility.yul\":21180:22676   */\n    tag_272:\n        /* \"#utility.yul\":21316:21322   */\n      0x00\n        /* \"#utility.yul\":21324:21330   */\n      dup1\n        /* \"#utility.yul\":21332:21338   */\n      0x00\n        /* \"#utility.yul\":21340:21346   */\n      dup1\n        /* \"#utility.yul\":21348:21354   */\n      0x00\n        /* \"#utility.yul\":21397:21400   */\n      0xa0\n        /* \"#utility.yul\":21385:21394   */\n      dup7\n        /* \"#utility.yul\":21376:21383   */\n      dup9\n        /* \"#utility.yul\":21372:21395   */\n      sub\n        /* \"#utility.yul\":21368:21401   */\n      slt\n        /* \"#utility.yul\":21365:21485   */\n      iszero\n      tag_580\n      jumpi\n        /* \"#utility.yul\":21404:21483   */\n      tag_581\n      tag_301\n      jump\t// in\n    tag_581:\n        /* \"#utility.yul\":21365:21485   */\n    tag_580:\n        /* \"#utility.yul\":21545:21546   */\n      0x00\n        /* \"#utility.yul\":21534:21543   */\n      dup7\n        /* \"#utility.yul\":21530:21547   */\n      add\n        /* \"#utility.yul\":21524:21548   */\n      mload\n        /* \"#utility.yul\":21575:21593   */\n      0xffffffffffffffff\n        /* \"#utility.yul\":21567:21573   */\n      dup2\n        /* \"#utility.yul\":21564:21594   */\n      gt\n        /* \"#utility.yul\":21561:21678   */\n      iszero\n      tag_582\n      jumpi\n        /* \"#utility.yul\":21597:21676   */\n      tag_583\n      tag_302\n      jump\t// in\n    tag_583:\n        /* \"#utility.yul\":21561:21678   */\n    tag_582:\n        /* \"#utility.yul\":21702:21776   */\n      tag_584\n        /* \"#utility.yul\":21768:21775   */\n      dup9\n        /* \"#utility.yul\":21759:21765   */\n      dup3\n        /* \"#utility.yul\":21748:21757   */\n      dup10\n        /* \"#utility.yul\":21744:21766   */\n      add\n        /* \"#utility.yul\":21702:21776   */\n      tag_350\n      jump\t// in\n    tag_584:\n        /* \"#utility.yul\":21692:21776   */\n      swap6\n      pop\n        /* \"#utility.yul\":21495:21786   */\n      pop\n        /* \"#utility.yul\":21825:21827   */\n      0x20\n        /* \"#utility.yul\":21851:21915   */\n      tag_585\n        /* \"#utility.yul\":21907:21914   */\n      dup9\n        /* \"#utility.yul\":21898:21904   */\n      dup3\n        /* \"#utility.yul\":21887:21896   */\n      dup10\n        /* \"#utility.yul\":21883:21905   */\n      add\n        /* \"#utility.yul\":21851:21915   */\n      tag_333\n      jump\t// in\n    tag_585:\n        /* \"#utility.yul\":21841:21915   */\n      swap5\n      pop\n        /* \"#utility.yul\":21796:21925   */\n      pop\n        /* \"#utility.yul\":21985:21987   */\n      0x40\n        /* \"#utility.yul\":21974:21983   */\n      dup7\n        /* \"#utility.yul\":21970:21988   */\n      add\n        /* \"#utility.yul\":21964:21989   */\n      mload\n        /* \"#utility.yul\":22016:22034   */\n      0xffffffffffffffff\n        /* \"#utility.yul\":22008:22014   */\n      dup2\n        /* \"#utility.yul\":22005:22035   */\n      gt\n        /* \"#utility.yul\":22002:22119   */\n      iszero\n      tag_586\n      jumpi\n        /* \"#utility.yul\":22038:22117   */\n      tag_587\n      tag_302\n      jump\t// in\n    tag_587:\n        /* \"#utility.yul\":22002:22119   */\n    tag_586:\n        /* \"#utility.yul\":22143:22217   */\n      tag_588\n        /* \"#utility.yul\":22209:22216   */\n      dup9\n        /* \"#utility.yul\":22200:22206   */\n      dup3\n        /* \"#utility.yul\":22189:22198   */\n      dup10\n        /* \"#utility.yul\":22185:22207   */\n      add\n        /* \"#utility.yul\":22143:22217   */\n      tag_350\n      jump\t// in\n    tag_588:\n        /* \"#utility.yul\":22133:22217   */\n      swap4\n      pop\n        /* \"#utility.yul\":21935:22227   */\n      pop\n        /* \"#utility.yul\":22287:22289   */\n      0x60\n        /* \"#utility.yul\":22276:22285   */\n      dup7\n        /* \"#utility.yul\":22272:22290   */\n      add\n        /* \"#utility.yul\":22266:22291   */\n      mload\n        /* \"#utility.yul\":22318:22336   */\n      0xffffffffffffffff\n        /* \"#utility.yul\":22310:22316   */\n      dup2\n        /* \"#utility.yul\":22307:22337   */\n      gt\n        /* \"#utility.yul\":22304:22421   */\n      iszero\n      tag_589\n      jumpi\n        /* \"#utility.yul\":22340:22419   */\n      tag_590\n      tag_302\n      jump\t// in\n    tag_590:\n        /* \"#utility.yul\":22304:22421   */\n    tag_589:\n        /* \"#utility.yul\":22445:22519   */\n      tag_591\n        /* \"#utility.yul\":22511:22518   */\n      dup9\n        /* \"#utility.yul\":22502:22508   */\n      dup3\n        /* \"#utility.yul\":22491:22500   */\n      dup10\n        /* \"#utility.yul\":22487:22509   */\n      add\n        /* \"#utility.yul\":22445:22519   */\n      tag_350\n      jump\t// in\n    tag_591:\n        /* \"#utility.yul\":22435:22519   */\n      swap3\n      pop\n        /* \"#utility.yul\":22237:22529   */\n      pop\n        /* \"#utility.yul\":22568:22571   */\n      0x80\n        /* \"#utility.yul\":22595:22659   */\n      tag_592\n        /* \"#utility.yul\":22651:22658   */\n      dup9\n        /* \"#utility.yul\":22642:22648   */\n      dup3\n        /* \"#utility.yul\":22631:22640   */\n      dup10\n        /* \"#utility.yul\":22627:22649   */\n      add\n        /* \"#utility.yul\":22595:22659   */\n      tag_333\n      jump\t// in\n    tag_592:\n        /* \"#utility.yul\":22585:22659   */\n      swap2\n      pop\n        /* \"#utility.yul\":22539:22669   */\n      pop\n        /* \"#utility.yul\":21180:22676   */\n      swap3\n      swap6\n      pop\n      swap3\n      swap6\n      swap1\n      swap4\n      pop\n      jump\t// out\n        /* \"#utility.yul\":22682:23014   */\n    tag_275:\n        /* \"#utility.yul\":22803:22807   */\n      0x00\n        /* \"#utility.yul\":22841:22843   */\n      0x40\n        /* \"#utility.yul\":22830:22839   */\n      dup3\n        /* \"#utility.yul\":22826:22844   */\n      add\n        /* \"#utility.yul\":22818:22844   */\n      swap1\n      pop\n        /* \"#utility.yul\":22854:22925   */\n      tag_594\n        /* \"#utility.yul\":22922:22923   */\n      0x00\n        /* \"#utility.yul\":22911:22920   */\n      dup4\n        /* \"#utility.yul\":22907:22924   */\n      add\n        /* \"#utility.yul\":22898:22904   */\n      dup6\n        /* \"#utility.yul\":22854:22925   */\n      tag_297\n      jump\t// in\n    tag_594:\n        /* \"#utility.yul\":22935:23007   */\n      tag_595\n        /* \"#utility.yul\":23003:23005   */\n      0x20\n        /* \"#utility.yul\":22992:23001   */\n      dup4\n        /* \"#utility.yul\":22988:23006   */\n      add\n        /* \"#utility.yul\":22979:22985   */\n      dup5\n        /* \"#utility.yul\":22935:23007   */\n      tag_325\n      jump\t// in\n    tag_595:\n        /* \"#utility.yul\":22682:23014   */\n      swap4\n      swap3\n      pop\n      pop\n      pop\n      jump\t// out\n        /* \"#utility.yul\":23020:23251   */\n    tag_351:\n        /* \"#utility.yul\":23160:23194   */\n      0x4661696c656420746f2072656d6f766520696e737469747574652066726f6d20\n        /* \"#utility.yul\":23156:23157   */\n      0x00\n        /* \"#utility.yul\":23148:23154   */\n      dup3\n        /* \"#utility.yul\":23144:23158   */\n      add\n        /* \"#utility.yul\":23137:23195   */\n      mstore\n        /* \"#utility.yul\":23229:23243   */\n      0x73747564656e7420696e666f0000000000000000000000000000000000000000\n        /* \"#utility.yul\":23224:23226   */\n      0x20\n        /* \"#utility.yul\":23216:23222   */\n      dup3\n        /* \"#utility.yul\":23212:23227   */\n      add\n        /* \"#utility.yul\":23205:23244   */\n      mstore\n        /* \"#utility.yul\":23020:23251   */\n      pop\n      jump\t// out\n        /* \"#utility.yul\":23257:23623   */\n    tag_352:\n        /* \"#utility.yul\":23399:23402   */\n      0x00\n        /* \"#utility.yul\":23420:23487   */\n      tag_598\n        /* \"#utility.yul\":23484:23486   */\n      0x2c\n        /* \"#utility.yul\":23479:23482   */\n      dup4\n        /* \"#utility.yul\":23420:23487   */\n      tag_306\n      jump\t// in\n    tag_598:\n        /* \"#utility.yul\":23413:23487   */\n      swap2\n      pop\n        /* \"#utility.yul\":23496:23589   */\n      tag_599\n        /* \"#utility.yul\":23585:23588   */\n      dup3\n        /* \"#utility.yul\":23496:23589   */\n      tag_351\n      jump\t// in\n    tag_599:\n        /* \"#utility.yul\":23614:23616   */\n      0x40\n        /* \"#utility.yul\":23609:23612   */\n      dup3\n        /* \"#utility.yul\":23605:23617   */\n      add\n        /* \"#utility.yul\":23598:23617   */\n      swap1\n      pop\n        /* \"#utility.yul\":23257:23623   */\n      swap2\n      swap1\n      pop\n      jump\t// out\n        /* \"#utility.yul\":23629:24048   */\n    tag_281:\n        /* \"#utility.yul\":23795:23799   */\n      0x00\n        /* \"#utility.yul\":23833:23835   */\n      0x20\n        /* \"#utility.yul\":23822:23831   */\n      dup3\n        /* \"#utility.yul\":23818:23836   */\n      add\n        /* \"#utility.yul\":23810:23836   */\n      swap1\n      pop\n        /* \"#utility.yul\":23882:23891   */\n      dup2\n        /* \"#utility.yul\":23876:23880   */\n      dup2\n        /* \"#utility.yul\":23872:23892   */\n      sub\n        /* \"#utility.yul\":23868:23869   */\n      0x00\n        /* \"#utility.yul\":23857:23866   */\n      dup4\n        /* \"#utility.yul\":23853:23870   */\n      add\n        /* \"#utility.yul\":23846:23893   */\n      mstore\n        /* \"#utility.yul\":23910:24041   */\n      tag_601\n        /* \"#utility.yul\":24036:24040   */\n      dup2\n        /* \"#utility.yul\":23910:24041   */\n      tag_352\n      jump\t// in\n    tag_601:\n        /* \"#utility.yul\":23902:24041   */\n      swap1\n      pop\n        /* \"#utility.yul\":23629:24048   */\n      swap2\n      swap1\n      pop\n      jump\t// out\n\n    auxdata: 0xa2646970667358221220021d744577f07e171ff494dfc720d98d65da633d1f99166421d862cffafad1d964736f6c634300080a0033\n}\n",
    "bytecode": {
      "linkReferences": {},
      "object": "608060405260006004553480156200001657600080fd5b5060405162002c8a38038062002c8a83398181016040528101906200003c9190620001b1565b336000806101000a81548173ffffffffffffffffffffffffffffffffffffffff021916908373ffffffffffffffffffffffffffffffffffffffff16021790555081600360006101000a81548173ffffffffffffffffffffffffffffffffffffffff021916908373ffffffffffffffffffffffffffffffffffffffff16021790555081600160006101000a81548173ffffffffffffffffffffffffffffffffffffffff021916908373ffffffffffffffffffffffffffffffffffffffff16021790555080600260006101000a81548173ffffffffffffffffffffffffffffffffffffffff021916908373ffffffffffffffffffffffffffffffffffffffff1602179055505050620001f8565b600080fd5b600073ffffffffffffffffffffffffffffffffffffffff82169050919050565b600062000179826200014c565b9050919050565b6200018b816200016c565b81146200019757600080fd5b50565b600081519050620001ab8162000180565b92915050565b60008060408385031215620001cb57620001ca62000147565b5b6000620001db858286016200019a565b9250506020620001ee858286016200019a565b9150509250929050565b612a8280620002086000396000f3fe608060405234801561001057600080fd5b50600436106101375760003560e01c8063a4156aec116100b8578063bd6a85041161007c578063bd6a850414610360578063c865d88114610394578063ca90543d146103b2578063da085b7a146103e2578063f00c848d146103fe578063f20bcf9a1461041a57610137565b8063a4156aec146102b6578063b16f9023146102ea578063b1be843d14610306578063b7774c1a14610324578063bae0a5851461034257610137565b806378cfe85e116100ff57806378cfe85e146101fe57806382f7d3921461021a5780638a97503d1461024a578063911018ef1461027a578063a2a1fee51461029857610137565b806320b260e31461013c5780632ecca5fe1461015a578063548d434e146101785780635b969a04146101ac578063673a1746146101e0575b600080fd5b610144610436565b6040516101519190611daf565b60405180910390f35b610162610443565b60405161016f9190611de5565b60405180910390f35b610192600480360381019061018d9190611e40565b610515565b6040516101a3959493929190611f47565b60405180910390f35b6101c660048036038101906101c19190611e40565b610733565b6040516101d7959493929190611f47565b60405180910390f35b6101e8610a43565b6040516101f59190611faf565b60405180910390f35b6102186004803603810190610213919061212b565b610a67565b005b610234600480360381019061022f91906121fa565b610c15565b6040516102419190611de5565b60405180910390f35b610264600480360381019061025f9190612227565b610cad565b604051610271919061229c565b60405180910390f35b610282610ce0565b60405161028f9190611daf565b60405180910390f35b6102a0610ce6565b6040516102ad9190611daf565b60405180910390f35b6102d060048036038101906102cb9190611e40565b610cf3565b6040516102e1959493929190611f47565b60405180910390f35b61030460048036038101906102ff91906122b7565b611003565b005b61030e611255565b60405161031b9190611daf565b60405180910390f35b61032c611262565b6040516103399190611faf565b60405180910390f35b61034a611288565b60405161035791906123f7565b60405180910390f35b61037a60048036038101906103759190611e40565b6112ae565b60405161038b959493929190611f47565b60405180910390f35b61039c6114cc565b6040516103a99190612433565b60405180910390f35b6103cc60048036038101906103c791906121fa565b6114f2565b6040516103d99190611faf565b60405180910390f35b6103fc60048036038101906103f79190611e40565b61155b565b005b61041860048036038101906104139190611e40565b6117a5565b005b610434600480360381019061042f919061244e565b6119ef565b005b6000600880549050905090565b60008073ffffffffffffffffffffffffffffffffffffffff16600260009054906101000a900473ffffffffffffffffffffffffffffffffffffffff1673ffffffffffffffffffffffffffffffffffffffff1663839f602d336040518263ffffffff1660e01b81526004016104b79190611faf565b602060405180830381865afa1580156104d4573d6000803e3d6000fd5b505050506040513d601f19601f820116820180604052508101906104f891906124d2565b73ffffffffffffffffffffffffffffffffffffffff161415905090565b6006818154811061052557600080fd5b90600052602060002090600502016000915090508060000180546105489061252e565b80601f01602080910402602001604051908101604052809291908181526020018280546105749061252e565b80156105c15780601f10610596576101008083540402835291602001916105c1565b820191906000526020600020905b8154815290600101906020018083116105a457829003601f168201915b5050505050908060010160009054906101000a900473ffffffffffffffffffffffffffffffffffffffff16908060020180546105fc9061252e565b80601f01602080910402602001604051908101604052809291908181526020018280546106289061252e565b80156106755780601f1061064a57610100808354040283529160200191610675565b820191906000526020600020905b81548152906001019060200180831161065857829003601f168201915b50505050509080600301805461068a9061252e565b80601f01602080910402602001604051908101604052809291908181526020018280546106b69061252e565b80156107035780601f106106d857610100808354040283529160200191610703565b820191906000526020600020905b8154815290600101906020018083116106e657829003601f168201915b5050505050908060040160009054906101000a900473ffffffffffffffffffffffffffffffffffffffff16905085565b6060600060608060006005805490508610610783576040517f08c379a000000000000000000000000000000000000000000000000000000000815260040161077a906125ac565b60405180910390fd5b600060058781548110610799576107986125cc565b5b90600052602060002090600502016040518060a00160405290816000820180546107c29061252e565b80601f01602080910402602001604051908101604052809291908181526020018280546107ee9061252e565b801561083b5780601f106108105761010080835404028352916020019161083b565b820191906000526020600020905b81548152906001019060200180831161081e57829003601f168201915b505050505081526020016001820160009054906101000a900473ffffffffffffffffffffffffffffffffffffffff1673ffffffffffffffffffffffffffffffffffffffff1673ffffffffffffffffffffffffffffffffffffffff1681526020016002820180546108aa9061252e565b80601f01602080910402602001604051908101604052809291908181526020018280546108d69061252e565b80156109235780601f106108f857610100808354040283529160200191610923565b820191906000526020600020905b81548152906001019060200180831161090657829003601f168201915b5050505050815260200160038201805461093c9061252e565b80601f01602080910402602001604051908101604052809291908181526020018280546109689061252e565b80156109b55780601f1061098a576101008083540402835291602001916109b5565b820191906000526020600020905b81548152906001019060200180831161099857829003601f168201915b505050505081526020016004820160009054906101000a900473ffffffffffffffffffffffffffffffffffffffff1673ffffffffffffffffffffffffffffffffffffffff1673ffffffffffffffffffffffffffffffffffffffff1681525050905080600001518160200151826040015183606001518460800151955095509550955095505091939590929450565b60008054906101000a900473ffffffffffffffffffffffffffffffffffffffff1681565b610a6f611c58565b85816000018190525084816020019073ffffffffffffffffffffffffffffffffffffffff16908173ffffffffffffffffffffffffffffffffffffffff168152505083816040018190525082816060018190525081816080019073ffffffffffffffffffffffffffffffffffffffff16908173ffffffffffffffffffffffffffffffffffffffff168152505060058190806001815401808255809150506001900390600052602060002090600502016000909190919091506000820151816000019080519060200190610b42929190611cb3565b5060208201518160010160006101000a81548173ffffffffffffffffffffffffffffffffffffffff021916908373ffffffffffffffffffffffffffffffffffffffff1602179055506040820151816002019080519060200190610ba6929190611cb3565b506060820151816003019080519060200190610bc3929190611cb3565b5060808201518160040160006101000a81548173ffffffffffffffffffffffffffffffffffffffff021916908373ffffffffffffffffffffffffffffffffffffffff1602179055505050505050505050565b60008073ffffffffffffffffffffffffffffffffffffffff16600760008473ffffffffffffffffffffffffffffffffffffffff1673ffffffffffffffffffffffffffffffffffffffff16815260200190815260200160002060009054906101000a900473ffffffffffffffffffffffffffffffffffffffff1673ffffffffffffffffffffffffffffffffffffffff1614159050919050565b60008282604051602001610cc292919061267f565b60405160208183030381529060405280519060200120905092915050565b60045481565b6000600680549050905090565b6060600060608060006005805490508610610d43576040517f08c379a0000000000000000000000000000000000000000000000000000000008152600401610d3a906125ac565b60405180910390fd5b600060068781548110610d5957610d586125cc565b5b90600052602060002090600502016040518060a0016040529081600082018054610d829061252e565b80601f0160208091040260200160405190810160405280929190818152602001828054610dae9061252e565b8015610dfb5780601f10610dd057610100808354040283529160200191610dfb565b820191906000526020600020905b815481529060010190602001808311610dde57829003601f168201915b505050505081526020016001820160009054906101000a900473ffffffffffffffffffffffffffffffffffffffff1673ffffffffffffffffffffffffffffffffffffffff1673ffffffffffffffffffffffffffffffffffffffff168152602001600282018054610e6a9061252e565b80601f0160208091040260200160405190810160405280929190818152602001828054610e969061252e565b8015610ee35780601f10610eb857610100808354040283529160200191610ee3565b820191906000526020600020905b815481529060010190602001808311610ec657829003601f168201915b50505050508152602001600382018054610efc9061252e565b80601f0160208091040260200160405190810160405280929190818152602001828054610f289061252e565b8015610f755780601f10610f4a57610100808354040283529160200191610f75565b820191906000526020600020905b815481529060010190602001808311610f5857829003601f168201915b505050505081526020016004820160009054906101000a900473ffffffffffffffffffffffffffffffffffffffff1673ffffffffffffffffffffffffffffffffffffffff1673ffffffffffffffffffffffffffffffffffffffff1681525050905080600001518160200151826040015183606001518460800151955095509550955095505091939590929450565b6000600160009054906101000a900473ffffffffffffffffffffffffffffffffffffffff1673ffffffffffffffffffffffffffffffffffffffff16638a97503d87866040518363ffffffff1660e01b81526004016110629291906126a7565b602060405180830381865afa15801561107f573d6000803e3d6000fd5b505050506040513d601f19601f820116820180604052508101906110a39190612703565b90506110ad611c58565b87816000018190525086816020019073ffffffffffffffffffffffffffffffffffffffff16908173ffffffffffffffffffffffffffffffffffffffff168152505085816040018190525084816060018190525082816080019073ffffffffffffffffffffffffffffffffffffffff16908173ffffffffffffffffffffffffffffffffffffffff168152505060068190806001815401808255809150506001900390600052602060002090600502016000909190919091506000820151816000019080519060200190611180929190611cb3565b5060208201518160010160006101000a81548173ffffffffffffffffffffffffffffffffffffffff021916908373ffffffffffffffffffffffffffffffffffffffff16021790555060408201518160020190805190602001906111e4929190611cb3565b506060820151816003019080519060200190611201929190611cb3565b5060808201518160040160006101000a81548173ffffffffffffffffffffffffffffffffffffffff021916908373ffffffffffffffffffffffffffffffffffffffff16021790555050505050505050505050565b6000600580549050905090565b600360009054906101000a900473ffffffffffffffffffffffffffffffffffffffff1681565b600260009054906101000a900473ffffffffffffffffffffffffffffffffffffffff1681565b600581815481106112be57600080fd5b90600052602060002090600502016000915090508060000180546112e19061252e565b80601f016020809104026020016040519081016040528092919081815260200182805461130d9061252e565b801561135a5780601f1061132f5761010080835404028352916020019161135a565b820191906000526020600020905b81548152906001019060200180831161133d57829003601f168201915b5050505050908060010160009054906101000a900473ffffffffffffffffffffffffffffffffffffffff16908060020180546113959061252e565b80601f01602080910402602001604051908101604052809291908181526020018280546113c19061252e565b801561140e5780601f106113e35761010080835404028352916020019161140e565b820191906000526020600020905b8154815290600101906020018083116113f157829003601f168201915b5050505050908060030180546114239061252e565b80601f016020809104026020016040519081016040528092919081815260200182805461144f9061252e565b801561149c5780601f106114715761010080835404028352916020019161149c565b820191906000526020600020905b81548152906001019060200180831161147f57829003601f168201915b5050505050908060040160009054906101000a900473ffffffffffffffffffffffffffffffffffffffff16905085565b600160009054906101000a900473ffffffffffffffffffffffffffffffffffffffff1681565b6000600760008373ffffffffffffffffffffffffffffffffffffffff1673ffffffffffffffffffffffffffffffffffffffff16815260200190815260200160002060009054906101000a900473ffffffffffffffffffffffffffffffffffffffff169050919050565b600080600080600061156c86610cf3565b945094509450945094506000600160009054906101000a900473ffffffffffffffffffffffffffffffffffffffff1673ffffffffffffffffffffffffffffffffffffffff16638a97503d86856040518363ffffffff1660e01b81526004016115d59291906126a7565b602060405180830381865afa1580156115f2573d6000803e3d6000fd5b505050506040513d601f19601f820116820180604052508101906116169190612703565b9050600160009054906101000a900473ffffffffffffffffffffffffffffffffffffffff1673ffffffffffffffffffffffffffffffffffffffff16634268ddbd8883336040518463ffffffff1660e01b815260040161167793929190612730565b6020604051808303816000875af1158015611696573d6000803e3d6000fd5b505050506040513d601f19601f820116820180604052508101906116ba9190612793565b6116f9576040517f08c379a00000000000000000000000000000000000000000000000000000000081526004016116f090612832565b60405180910390fd5b6006878154811061170d5761170c6125cc565b5b90600052602060002090600502016000808201600061172c9190611d39565b6001820160006101000a81549073ffffffffffffffffffffffffffffffffffffffff02191690556002820160006117639190611d39565b6003820160006117739190611d39565b6004820160006101000a81549073ffffffffffffffffffffffffffffffffffffffff0219169055505050505050505050565b60008060008060006117b686610733565b945094509450945094506000600160009054906101000a900473ffffffffffffffffffffffffffffffffffffffff1673ffffffffffffffffffffffffffffffffffffffff16638a97503d86856040518363ffffffff1660e01b815260040161181f9291906126a7565b602060405180830381865afa15801561183c573d6000803e3d6000fd5b505050506040513d601f19601f820116820180604052508101906118609190612703565b9050600160009054906101000a900473ffffffffffffffffffffffffffffffffffffffff1673ffffffffffffffffffffffffffffffffffffffff16634268ddbd8883336040518463ffffffff1660e01b81526004016118c193929190612730565b6020604051808303816000875af11580156118e0573d6000803e3d6000fd5b505050506040513d601f19601f820116820180604052508101906119049190612793565b611943576040517f08c379a000000000000000000000000000000000000000000000000000000000815260040161193a90612832565b60405180910390fd5b60058781548110611957576119566125cc565b5b9060005260206000209060050201600080820160006119769190611d39565b6001820160006101000a81549073ffffffffffffffffffffffffffffffffffffffff02191690556002820160006119ad9190611d39565b6003820160006119bd9190611d39565b6004820160006101000a81549073ffffffffffffffffffffffffffffffffffffffff0219169055505050505050505050565b6000600160009054906101000a900473ffffffffffffffffffffffffffffffffffffffff1673ffffffffffffffffffffffffffffffffffffffff16638a97503d84846040518363ffffffff1660e01b8152600401611a4e9291906126a7565b602060405180830381865afa158015611a6b573d6000803e3d6000fd5b505050506040513d601f19601f82011682018060405250810190611a8f9190612703565b90506000600160009054906101000a900473ffffffffffffffffffffffffffffffffffffffff1673ffffffffffffffffffffffffffffffffffffffff1663435df20d836040518263ffffffff1660e01b8152600401611aee919061229c565b600060405180830381865afa158015611b0b573d6000803e3d6000fd5b505050506040513d6000823e3d601f19601f82011682018060405250810190611b3491906128c2565b9450505050508073ffffffffffffffffffffffffffffffffffffffff163373ffffffffffffffffffffffffffffffffffffffff1614611b7257600080fd5b600160009054906101000a900473ffffffffffffffffffffffffffffffffffffffff1673ffffffffffffffffffffffffffffffffffffffff1663956a354586846040518363ffffffff1660e01b8152600401611bcf929190612991565b6020604051808303816000875af1158015611bee573d6000803e3d6000fd5b505050506040513d601f19601f82011682018060405250810190611c129190612793565b611c51576040517f08c379a0000000000000000000000000000000000000000000000000000000008152600401611c4890612a2c565b60405180910390fd5b5050505050565b6040518060a0016040528060608152602001600073ffffffffffffffffffffffffffffffffffffffff1681526020016060815260200160608152602001600073ffffffffffffffffffffffffffffffffffffffff1681525090565b828054611cbf9061252e565b90600052602060002090601f016020900481019282611ce15760008555611d28565b82601f10611cfa57805160ff1916838001178555611d28565b82800160010185558215611d28579182015b82811115611d27578251825591602001919060010190611d0c565b5b509050611d359190611d79565b5090565b508054611d459061252e565b6000825580601f10611d575750611d76565b601f016020900490600052602060002090810190611d759190611d79565b5b50565b5b80821115611d92576000816000905550600101611d7a565b5090565b6000819050919050565b611da981611d96565b82525050565b6000602082019050611dc46000830184611da0565b92915050565b60008115159050919050565b611ddf81611dca565b82525050565b6000602082019050611dfa6000830184611dd6565b92915050565b6000604051905090565b600080fd5b600080fd5b611e1d81611d96565b8114611e2857600080fd5b50565b600081359050611e3a81611e14565b92915050565b600060208284031215611e5657611e55611e0a565b5b6000611e6484828501611e2b565b91505092915050565b600081519050919050565b600082825260208201905092915050565b60005b83811015611ea7578082015181840152602081019050611e8c565b83811115611eb6576000848401525b50505050565b6000601f19601f8301169050919050565b6000611ed882611e6d565b611ee28185611e78565b9350611ef2818560208601611e89565b611efb81611ebc565b840191505092915050565b600073ffffffffffffffffffffffffffffffffffffffff82169050919050565b6000611f3182611f06565b9050919050565b611f4181611f26565b82525050565b600060a0820190508181036000830152611f618188611ecd565b9050611f706020830187611f38565b8181036040830152611f828186611ecd565b90508181036060830152611f968185611ecd565b9050611fa56080830184611f38565b9695505050505050565b6000602082019050611fc46000830184611f38565b92915050565b600080fd5b600080fd5b7f4e487b7100000000000000000000000000000000000000000000000000000000600052604160045260246000fd5b61200c82611ebc565b810181811067ffffffffffffffff8211171561202b5761202a611fd4565b5b80604052505050565b600061203e611e00565b905061204a8282612003565b919050565b600067ffffffffffffffff82111561206a57612069611fd4565b5b61207382611ebc565b9050602081019050919050565b82818337600083830152505050565b60006120a261209d8461204f565b612034565b9050828152602081018484840111156120be576120bd611fcf565b5b6120c9848285612080565b509392505050565b600082601f8301126120e6576120e5611fca565b5b81356120f684826020860161208f565b91505092915050565b61210881611f26565b811461211357600080fd5b50565b600081359050612125816120ff565b92915050565b600080600080600060a0868803121561214757612146611e0a565b5b600086013567ffffffffffffffff81111561216557612164611e0f565b5b612171888289016120d1565b955050602061218288828901612116565b945050604086013567ffffffffffffffff8111156121a3576121a2611e0f565b5b6121af888289016120d1565b935050606086013567ffffffffffffffff8111156121d0576121cf611e0f565b5b6121dc888289016120d1565b92505060806121ed88828901612116565b9150509295509295909350565b6000602082840312156122105761220f611e0a565b5b600061221e84828501612116565b91505092915050565b6000806040838503121561223e5761223d611e0a565b5b600061224c85828601612116565b925050602083013567ffffffffffffffff81111561226d5761226c611e0f565b5b612279858286016120d1565b9150509250929050565b6000819050919050565b61229681612283565b82525050565b60006020820190506122b1600083018461228d565b92915050565b60008060008060008060c087890312156122d4576122d3611e0a565b5b600087013567ffffffffffffffff8111156122f2576122f1611e0f565b5b6122fe89828a016120d1565b965050602061230f89828a01612116565b955050604087013567ffffffffffffffff8111156123305761232f611e0f565b5b61233c89828a016120d1565b945050606087013567ffffffffffffffff81111561235d5761235c611e0f565b5b61236989828a016120d1565b935050608061237a89828a01612116565b92505060a061238b89828a01612116565b9150509295509295509295565b6000819050919050565b60006123bd6123b86123b384611f06565b612398565b611f06565b9050919050565b60006123cf826123a2565b9050919050565b60006123e1826123c4565b9050919050565b6123f1816123d6565b82525050565b600060208201905061240c60008301846123e8565b92915050565b600061241d826123c4565b9050919050565b61242d81612412565b82525050565b60006020820190506124486000830184612424565b92915050565b60008060006060848603121561246757612466611e0a565b5b600061247586828701611e2b565b935050602061248686828701612116565b925050604084013567ffffffffffffffff8111156124a7576124a6611e0f565b5b6124b3868287016120d1565b9150509250925092565b6000815190506124cc816120ff565b92915050565b6000602082840312156124e8576124e7611e0a565b5b60006124f6848285016124bd565b91505092915050565b7f4e487b7100000000000000000000000000000000000000000000000000000000600052602260045260246000fd5b6000600282049050600182168061254657607f821691505b6020821081141561255a576125596124ff565b5b50919050565b7f496e646578206f7574206f6620626f756e647300000000000000000000000000600082015250565b6000612596601383611e78565b91506125a182612560565b602082019050919050565b600060208201905081810360008301526125c581612589565b9050919050565b7f4e487b7100000000000000000000000000000000000000000000000000000000600052603260045260246000fd5b60008160601b9050919050565b6000612613826125fb565b9050919050565b600061262582612608565b9050919050565b61263d61263882611f26565b61261a565b82525050565b600081905092915050565b600061265982611e6d565b6126638185612643565b9350612673818560208601611e89565b80840191505092915050565b600061268b828561262c565b60148201915061269b828461264e565b91508190509392505050565b60006040820190506126bc6000830185611f38565b81810360208301526126ce8184611ecd565b90509392505050565b6126e081612283565b81146126eb57600080fd5b50565b6000815190506126fd816126d7565b92915050565b60006020828403121561271957612718611e0a565b5b6000612727848285016126ee565b91505092915050565b60006060820190506127456000830186611da0565b612752602083018561228d565b61275f6040830184611f38565b949350505050565b61277081611dca565b811461277b57600080fd5b50565b60008151905061278d81612767565b92915050565b6000602082840312156127a9576127a8611e0a565b5b60006127b78482850161277e565b91505092915050565b7f4661696c656420746f2061646420696e7374697475746520746f20737475646560008201527f6e7420696e666f00000000000000000000000000000000000000000000000000602082015250565b600061281c602783611e78565b9150612827826127c0565b604082019050919050565b6000602082019050818103600083015261284b8161280f565b9050919050565b60006128656128608461204f565b612034565b90508281526020810184848401111561288157612880611fcf565b5b61288c848285611e89565b509392505050565b600082601f8301126128a9576128a8611fca565b5b81516128b9848260208601612852565b91505092915050565b600080600080600060a086880312156128de576128dd611e0a565b5b600086015167ffffffffffffffff8111156128fc576128fb611e0f565b5b61290888828901612894565b9550506020612919888289016124bd565b945050604086015167ffffffffffffffff81111561293a57612939611e0f565b5b61294688828901612894565b935050606086015167ffffffffffffffff81111561296757612966611e0f565b5b61297388828901612894565b9250506080612984888289016124bd565b9150509295509295909350565b60006040820190506129a66000830185611da0565b6129b3602083018461228d565b9392505050565b7f4661696c656420746f2072656d6f766520696e737469747574652066726f6d2060008201527f73747564656e7420696e666f0000000000000000000000000000000000000000602082015250565b6000612a16602c83611e78565b9150612a21826129ba565b604082019050919050565b60006020820190508181036000830152612a4581612a09565b905091905056fea2646970667358221220021d744577f07e171ff494dfc720d98d65da633d1f99166421d862cffafad1d964736f6c634300080a0033",
      "opcodes": "PUSH1 0x80 PUSH1 0x40 MSTORE PUSH1 0x0 PUSH1 0x4 SSTORE CALLVALUE DUP1 ISZERO PUSH3 0x16 JUMPI PUSH1 0x0 DUP1 REVERT JUMPDEST POP PUSH1 0x40 MLOAD PUSH3 0x2C8A CODESIZE SUB DUP1 PUSH3 0x2C8A DUP4 CODECOPY DUP2 DUP2 ADD PUSH1 0x40 MSTORE DUP2 ADD SWAP1 PUSH3 0x3C SWAP2 SWAP1 PUSH3 0x1B1 JUMP JUMPDEST CALLER PUSH1 0x0 DUP1 PUSH2 0x100 EXP DUP2 SLOAD DUP2 PUSH20 0xFFFFFFFFFFFFFFFFFFFFFFFFFFFFFFFFFFFFFFFF MUL NOT AND SWAP1 DUP4 PUSH20 0xFFFFFFFFFFFFFFFFFFFFFFFFFFFFFFFFFFFFFFFF AND MUL OR SWAP1 SSTORE POP DUP2 PUSH1 0x3 PUSH1 0x0 PUSH2 0x100 EXP DUP2 SLOAD DUP2 PUSH20 0xFFFFFFFFFFFFFFFFFFFFFFFFFFFFFFFFFFFFFFFF MUL NOT AND SWAP1 DUP4 PUSH20 0xFFFFFFFFFFFFFFFFFFFFFFFFFFFFFFFFFFFFFFFF AND MUL OR SWAP1 SSTORE POP DUP2 PUSH1 0x1 PUSH1 0x0 PUSH2 0x100 EXP DUP2 SLOAD DUP2 PUSH20 0xFFFFFFFFFFFFFFFFFFFFFFFFFFFFFFFFFFFFFFFF MUL NOT AND SWAP1 DUP4 PUSH20 0xFFFFFFFFFFFFFFFFFFFFFFFFFFFFFFFFFFFFFFFF AND MUL OR SWAP1 SSTORE POP DUP1 PUSH1 0x2 PUSH1 0x0 PUSH2 0x100 EXP DUP2 SLOAD DUP2 PUSH20 0xFFFFFFFFFFFFFFFFFFFFFFFFFFFFFFFFFFFFFFFF MUL NOT AND SWAP1 DUP4 PUSH20 0xFFFFFFFFFFFFFFFFFFFFFFFFFFFFFFFFFFFFFFFF AND MUL OR SWAP1 SSTORE POP POP POP PUSH3 0x1F8 JUMP JUMPDEST PUSH1 0x0 DUP1 REVERT JUMPDEST PUSH1 0x0 PUSH20 0xFFFFFFFFFFFFFFFFFFFFFFFFFFFFFFFFFFFFFFFF DUP3 AND SWAP1 POP SWAP2 SWAP1 POP JUMP JUMPDEST PUSH1 0x0 PUSH3 0x179 DUP3 PUSH3 0x14C JUMP JUMPDEST SWAP1 POP SWAP2 SWAP1 POP JUMP JUMPDEST PUSH3 0x18B DUP2 PUSH3 0x16C JUMP JUMPDEST DUP2 EQ PUSH3 0x197 JUMPI PUSH1 0x0 DUP1 REVERT JUMPDEST POP JUMP JUMPDEST PUSH1 0x0 DUP2 MLOAD SWAP1 POP PUSH3 0x1AB DUP2 PUSH3 0x180 JUMP JUMPDEST SWAP3 SWAP2 POP POP JUMP JUMPDEST PUSH1 0x0 DUP1 PUSH1 0x40 DUP4 DUP6 SUB SLT ISZERO PUSH3 0x1CB JUMPI PUSH3 0x1CA PUSH3 0x147 JUMP JUMPDEST JUMPDEST PUSH1 0x0 PUSH3 0x1DB DUP6 DUP3 DUP7 ADD PUSH3 0x19A JUMP JUMPDEST SWAP3 POP POP PUSH1 0x20 PUSH3 0x1EE DUP6 DUP3 DUP7 ADD PUSH3 0x19A JUMP JUMPDEST SWAP2 POP POP SWAP3 POP SWAP3 SWAP1 POP JUMP JUMPDEST PUSH2 0x2A82 DUP1 PUSH3 0x208 PUSH1 0x0 CODECOPY PUSH1 0x0 RETURN INVALID PUSH1 0x80 PUSH1 0x40 MSTORE CALLVALUE DUP1 ISZERO PUSH2 0x10 JUMPI PUSH1 0x0 DUP1 REVERT JUMPDEST POP PUSH1 0x4 CALLDATASIZE LT PUSH2 0x137 JUMPI PUSH1 0x0 CALLDATALOAD PUSH1 0xE0 SHR DUP1 PUSH4 0xA4156AEC GT PUSH2 0xB8 JUMPI DUP1 PUSH4 0xBD6A8504 GT PUSH2 0x7C JUMPI DUP1 PUSH4 0xBD6A8504 EQ PUSH2 0x360 JUMPI DUP1 PUSH4 0xC865D881 EQ PUSH2 0x394 JUMPI DUP1 PUSH4 0xCA90543D EQ PUSH2 0x3B2 JUMPI DUP1 PUSH4 0xDA085B7A EQ PUSH2 0x3E2 JUMPI DUP1 PUSH4 0xF00C848D EQ PUSH2 0x3FE JUMPI DUP1 PUSH4 0xF20BCF9A EQ PUSH2 0x41A JUMPI PUSH2 0x137 JUMP JUMPDEST DUP1 PUSH4 0xA4156AEC EQ PUSH2 0x2B6 JUMPI DUP1 PUSH4 0xB16F9023 EQ PUSH2 0x2EA JUMPI DUP1 PUSH4 0xB1BE843D EQ PUSH2 0x306 JUMPI DUP1 PUSH4 0xB7774C1A EQ PUSH2 0x324 JUMPI DUP1 PUSH4 0xBAE0A585 EQ PUSH2 0x342 JUMPI PUSH2 0x137 JUMP JUMPDEST DUP1 PUSH4 0x78CFE85E GT PUSH2 0xFF JUMPI DUP1 PUSH4 0x78CFE85E EQ PUSH2 0x1FE JUMPI DUP1 PUSH4 0x82F7D392 EQ PUSH2 0x21A JUMPI DUP1 PUSH4 0x8A97503D EQ PUSH2 0x24A JUMPI DUP1 PUSH4 0x911018EF EQ PUSH2 0x27A JUMPI DUP1 PUSH4 0xA2A1FEE5 EQ PUSH2 0x298 JUMPI PUSH2 0x137 JUMP JUMPDEST DUP1 PUSH4 0x20B260E3 EQ PUSH2 0x13C JUMPI DUP1 PUSH4 0x2ECCA5FE EQ PUSH2 0x15A JUMPI DUP1 PUSH4 0x548D434E EQ PUSH2 0x178 JUMPI DUP1 PUSH4 0x5B969A04 EQ PUSH2 0x1AC JUMPI DUP1 PUSH4 0x673A1746 EQ PUSH2 0x1E0 JUMPI JUMPDEST PUSH1 0x0 DUP1 REVERT JUMPDEST PUSH2 0x144 PUSH2 0x436 JUMP JUMPDEST PUSH1 0x40 MLOAD PUSH2 0x151 SWAP2 SWAP1 PUSH2 0x1DAF JUMP JUMPDEST PUSH1 0x40 MLOAD DUP1 SWAP2 SUB SWAP1 RETURN JUMPDEST PUSH2 0x162 PUSH2 0x443 JUMP JUMPDEST PUSH1 0x40 MLOAD PUSH2 0x16F SWAP2 SWAP1 PUSH2 0x1DE5 JUMP JUMPDEST PUSH1 0x40 MLOAD DUP1 SWAP2 SUB SWAP1 RETURN JUMPDEST PUSH2 0x192 PUSH1 0x4 DUP1 CALLDATASIZE SUB DUP2 ADD SWAP1 PUSH2 0x18D SWAP2 SWAP1 PUSH2 0x1E40 JUMP JUMPDEST PUSH2 0x515 JUMP JUMPDEST PUSH1 0x40 MLOAD PUSH2 0x1A3 SWAP6 SWAP5 SWAP4 SWAP3 SWAP2 SWAP1 PUSH2 0x1F47 JUMP JUMPDEST PUSH1 0x40 MLOAD DUP1 SWAP2 SUB SWAP1 RETURN JUMPDEST PUSH2 0x1C6 PUSH1 0x4 DUP1 CALLDATASIZE SUB DUP2 ADD SWAP1 PUSH2 0x1C1 SWAP2 SWAP1 PUSH2 0x1E40 JUMP JUMPDEST PUSH2 0x733 JUMP JUMPDEST PUSH1 0x40 MLOAD PUSH2 0x1D7 SWAP6 SWAP5 SWAP4 SWAP3 SWAP2 SWAP1 PUSH2 0x1F47 JUMP JUMPDEST PUSH1 0x40 MLOAD DUP1 SWAP2 SUB SWAP1 RETURN JUMPDEST PUSH2 0x1E8 PUSH2 0xA43 JUMP JUMPDEST PUSH1 0x40 MLOAD PUSH2 0x1F5 SWAP2 SWAP1 PUSH2 0x1FAF JUMP JUMPDEST PUSH1 0x40 MLOAD DUP1 SWAP2 SUB SWAP1 RETURN JUMPDEST PUSH2 0x218 PUSH1 0x4 DUP1 CALLDATASIZE SUB DUP2 ADD SWAP1 PUSH2 0x213 SWAP2 SWAP1 PUSH2 0x212B JUMP JUMPDEST PUSH2 0xA67 JUMP JUMPDEST STOP JUMPDEST PUSH2 0x234 PUSH1 0x4 DUP1 CALLDATASIZE SUB DUP2 ADD SWAP1 PUSH2 0x22F SWAP2 SWAP1 PUSH2 0x21FA JUMP JUMPDEST PUSH2 0xC15 JUMP JUMPDEST PUSH1 0x40 MLOAD PUSH2 0x241 SWAP2 SWAP1 PUSH2 0x1DE5 JUMP JUMPDEST PUSH1 0x40 MLOAD DUP1 SWAP2 SUB SWAP1 RETURN JUMPDEST PUSH2 0x264 PUSH1 0x4 DUP1 CALLDATASIZE SUB DUP2 ADD SWAP1 PUSH2 0x25F SWAP2 SWAP1 PUSH2 0x2227 JUMP JUMPDEST PUSH2 0xCAD JUMP JUMPDEST PUSH1 0x40 MLOAD PUSH2 0x271 SWAP2 SWAP1 PUSH2 0x229C JUMP JUMPDEST PUSH1 0x40 MLOAD DUP1 SWAP2 SUB SWAP1 RETURN JUMPDEST PUSH2 0x282 PUSH2 0xCE0 JUMP JUMPDEST PUSH1 0x40 MLOAD PUSH2 0x28F SWAP2 SWAP1 PUSH2 0x1DAF JUMP JUMPDEST PUSH1 0x40 MLOAD DUP1 SWAP2 SUB SWAP1 RETURN JUMPDEST PUSH2 0x2A0 PUSH2 0xCE6 JUMP JUMPDEST PUSH1 0x40 MLOAD PUSH2 0x2AD SWAP2 SWAP1 PUSH2 0x1DAF JUMP JUMPDEST PUSH1 0x40 MLOAD DUP1 SWAP2 SUB SWAP1 RETURN JUMPDEST PUSH2 0x2D0 PUSH1 0x4 DUP1 CALLDATASIZE SUB DUP2 ADD SWAP1 PUSH2 0x2CB SWAP2 SWAP1 PUSH2 0x1E40 JUMP JUMPDEST PUSH2 0xCF3 JUMP JUMPDEST PUSH1 0x40 MLOAD PUSH2 0x2E1 SWAP6 SWAP5 SWAP4 SWAP3 SWAP2 SWAP1 PUSH2 0x1F47 JUMP JUMPDEST PUSH1 0x40 MLOAD DUP1 SWAP2 SUB SWAP1 RETURN JUMPDEST PUSH2 0x304 PUSH1 0x4 DUP1 CALLDATASIZE SUB DUP2 ADD SWAP1 PUSH2 0x2FF SWAP2 SWAP1 PUSH2 0x22B7 JUMP JUMPDEST PUSH2 0x1003 JUMP JUMPDEST STOP JUMPDEST PUSH2 0x30E PUSH2 0x1255 JUMP JUMPDEST PUSH1 0x40 MLOAD PUSH2 0x31B SWAP2 SWAP1 PUSH2 0x1DAF JUMP JUMPDEST PUSH1 0x40 MLOAD DUP1 SWAP2 SUB SWAP1 RETURN JUMPDEST PUSH2 0x32C PUSH2 0x1262 JUMP JUMPDEST PUSH1 0x40 MLOAD PUSH2 0x339 SWAP2 SWAP1 PUSH2 0x1FAF JUMP JUMPDEST PUSH1 0x40 MLOAD DUP1 SWAP2 SUB SWAP1 RETURN JUMPDEST PUSH2 0x34A PUSH2 0x1288 JUMP JUMPDEST PUSH1 0x40 MLOAD PUSH2 0x357 SWAP2 SWAP1 PUSH2 0x23F7 JUMP JUMPDEST PUSH1 0x40 MLOAD DUP1 SWAP2 SUB SWAP1 RETURN JUMPDEST PUSH2 0x37A PUSH1 0x4 DUP1 CALLDATASIZE SUB DUP2 ADD SWAP1 PUSH2 0x375 SWAP2 SWAP1 PUSH2 0x1E40 JUMP JUMPDEST PUSH2 0x12AE JUMP JUMPDEST PUSH1 0x40 MLOAD PUSH2 0x38B SWAP6 SWAP5 SWAP4 SWAP3 SWAP2 SWAP1 PUSH2 0x1F47 JUMP JUMPDEST PUSH1 0x40 MLOAD DUP1 SWAP2 SUB SWAP1 RETURN JUMPDEST PUSH2 0x39C PUSH2 0x14CC JUMP JUMPDEST PUSH1 0x40 MLOAD PUSH2 0x3A9 SWAP2 SWAP1 PUSH2 0x2433 JUMP JUMPDEST PUSH1 0x40 MLOAD DUP1 SWAP2 SUB SWAP1 RETURN JUMPDEST PUSH2 0x3CC PUSH1 0x4 DUP1 CALLDATASIZE SUB DUP2 ADD SWAP1 PUSH2 0x3C7 SWAP2 SWAP1 PUSH2 0x21FA JUMP JUMPDEST PUSH2 0x14F2 JUMP JUMPDEST PUSH1 0x40 MLOAD PUSH2 0x3D9 SWAP2 SWAP1 PUSH2 0x1FAF JUMP JUMPDEST PUSH1 0x40 MLOAD DUP1 SWAP2 SUB SWAP1 RETURN JUMPDEST PUSH2 0x3FC PUSH1 0x4 DUP1 CALLDATASIZE SUB DUP2 ADD SWAP1 PUSH2 0x3F7 SWAP2 SWAP1 PUSH2 0x1E40 JUMP JUMPDEST PUSH2 0x155B JUMP JUMPDEST STOP JUMPDEST PUSH2 0x418 PUSH1 0x4 DUP1 CALLDATASIZE SUB DUP2 ADD SWAP1 PUSH2 0x413 SWAP2 SWAP1 PUSH2 0x1E40 JUMP JUMPDEST PUSH2 0x17A5 JUMP JUMPDEST STOP JUMPDEST PUSH2 0x434 PUSH1 0x4 DUP1 CALLDATASIZE SUB DUP2 ADD SWAP1 PUSH2 0x42F SWAP2 SWAP1 PUSH2 0x244E JUMP JUMPDEST PUSH2 0x19EF JUMP JUMPDEST STOP JUMPDEST PUSH1 0x0 PUSH1 0x8 DUP1 SLOAD SWAP1 POP SWAP1 POP SWAP1 JUMP JUMPDEST PUSH1 0x0 DUP1 PUSH20 0xFFFFFFFFFFFFFFFFFFFFFFFFFFFFFFFFFFFFFFFF AND PUSH1 0x2 PUSH1 0x0 SWAP1 SLOAD SWAP1 PUSH2 0x100 EXP SWAP1 DIV PUSH20 0xFFFFFFFFFFFFFFFFFFFFFFFFFFFFFFFFFFFFFFFF AND PUSH20 0xFFFFFFFFFFFFFFFFFFFFFFFFFFFFFFFFFFFFFFFF AND PUSH4 0x839F602D CALLER PUSH1 0x40 MLOAD DUP3 PUSH4 0xFFFFFFFF AND PUSH1 0xE0 SHL DUP2 MSTORE PUSH1 0x4 ADD PUSH2 0x4B7 SWAP2 SWAP1 PUSH2 0x1FAF JUMP JUMPDEST PUSH1 0x20 PUSH1 0x40 MLOAD DUP1 DUP4 SUB DUP2 DUP7 GAS STATICCALL ISZERO DUP1 ISZERO PUSH2 0x4D4 JUMPI RETURNDATASIZE PUSH1 0x0 DUP1 RETURNDATACOPY RETURNDATASIZE PUSH1 0x0 REVERT JUMPDEST POP POP POP POP PUSH1 0x40 MLOAD RETURNDATASIZE PUSH1 0x1F NOT PUSH1 0x1F DUP3 ADD AND DUP3 ADD DUP1 PUSH1 0x40 MSTORE POP DUP2 ADD SWAP1 PUSH2 0x4F8 SWAP2 SWAP1 PUSH2 0x24D2 JUMP JUMPDEST PUSH20 0xFFFFFFFFFFFFFFFFFFFFFFFFFFFFFFFFFFFFFFFF AND EQ ISZERO SWAP1 POP SWAP1 JUMP JUMPDEST PUSH1 0x6 DUP2 DUP2 SLOAD DUP2 LT PUSH2 0x525 JUMPI PUSH1 0x0 DUP1 REVERT JUMPDEST SWAP1 PUSH1 0x0 MSTORE PUSH1 0x20 PUSH1 0x0 KECCAK256 SWAP1 PUSH1 0x5 MUL ADD PUSH1 0x0 SWAP2 POP SWAP1 POP DUP1 PUSH1 0x0 ADD DUP1 SLOAD PUSH2 0x548 SWAP1 PUSH2 0x252E JUMP JUMPDEST DUP1 PUSH1 0x1F ADD PUSH1 0x20 DUP1 SWAP2 DIV MUL PUSH1 0x20 ADD PUSH1 0x40 MLOAD SWAP1 DUP2 ADD PUSH1 0x40 MSTORE DUP1 SWAP3 SWAP2 SWAP1 DUP2 DUP2 MSTORE PUSH1 0x20 ADD DUP3 DUP1 SLOAD PUSH2 0x574 SWAP1 PUSH2 0x252E JUMP JUMPDEST DUP1 ISZERO PUSH2 0x5C1 JUMPI DUP1 PUSH1 0x1F LT PUSH2 0x596 JUMPI PUSH2 0x100 DUP1 DUP4 SLOAD DIV MUL DUP4 MSTORE SWAP2 PUSH1 0x20 ADD SWAP2 PUSH2 0x5C1 JUMP JUMPDEST DUP3 ADD SWAP2 SWAP1 PUSH1 0x0 MSTORE PUSH1 0x20 PUSH1 0x0 KECCAK256 SWAP1 JUMPDEST DUP2 SLOAD DUP2 MSTORE SWAP1 PUSH1 0x1 ADD SWAP1 PUSH1 0x20 ADD DUP1 DUP4 GT PUSH2 0x5A4 JUMPI DUP3 SWAP1 SUB PUSH1 0x1F AND DUP3 ADD SWAP2 JUMPDEST POP POP POP POP POP SWAP1 DUP1 PUSH1 0x1 ADD PUSH1 0x0 SWAP1 SLOAD SWAP1 PUSH2 0x100 EXP SWAP1 DIV PUSH20 0xFFFFFFFFFFFFFFFFFFFFFFFFFFFFFFFFFFFFFFFF AND SWAP1 DUP1 PUSH1 0x2 ADD DUP1 SLOAD PUSH2 0x5FC SWAP1 PUSH2 0x252E JUMP JUMPDEST DUP1 PUSH1 0x1F ADD PUSH1 0x20 DUP1 SWAP2 DIV MUL PUSH1 0x20 ADD PUSH1 0x40 MLOAD SWAP1 DUP2 ADD PUSH1 0x40 MSTORE DUP1 SWAP3 SWAP2 SWAP1 DUP2 DUP2 MSTORE PUSH1 0x20 ADD DUP3 DUP1 SLOAD PUSH2 0x628 SWAP1 PUSH2 0x252E JUMP JUMPDEST DUP1 ISZERO PUSH2 0x675 JUMPI DUP1 PUSH1 0x1F LT PUSH2 0x64A JUMPI PUSH2 0x100 DUP1 DUP4 SLOAD DIV MUL DUP4 MSTORE SWAP2 PUSH1 0x20 ADD SWAP2 PUSH2 0x675 JUMP JUMPDEST DUP3 ADD SWAP2 SWAP1 PUSH1 0x0 MSTORE PUSH1 0x20 PUSH1 0x0 KECCAK256 SWAP1 JUMPDEST DUP2 SLOAD DUP2 MSTORE SWAP1 PUSH1 0x1 ADD SWAP1 PUSH1 0x20 ADD DUP1 DUP4 GT PUSH2 0x658 JUMPI DUP3 SWAP1 SUB PUSH1 0x1F AND DUP3 ADD SWAP2 JUMPDEST POP POP POP POP POP SWAP1 DUP1 PUSH1 0x3 ADD DUP1 SLOAD PUSH2 0x68A SWAP1 PUSH2 0x252E JUMP JUMPDEST DUP1 PUSH1 0x1F ADD PUSH1 0x20 DUP1 SWAP2 DIV MUL PUSH1 0x20 ADD PUSH1 0x40 MLOAD SWAP1 DUP2 ADD PUSH1 0x40 MSTORE DUP1 SWAP3 SWAP2 SWAP1 DUP2 DUP2 MSTORE PUSH1 0x20 ADD DUP3 DUP1 SLOAD PUSH2 0x6B6 SWAP1 PUSH2 0x252E JUMP JUMPDEST DUP1 ISZERO PUSH2 0x703 JUMPI DUP1 PUSH1 0x1F LT PUSH2 0x6D8 JUMPI PUSH2 0x100 DUP1 DUP4 SLOAD DIV MUL DUP4 MSTORE SWAP2 PUSH1 0x20 ADD SWAP2 PUSH2 0x703 JUMP JUMPDEST DUP3 ADD SWAP2 SWAP1 PUSH1 0x0 MSTORE PUSH1 0x20 PUSH1 0x0 KECCAK256 SWAP1 JUMPDEST DUP2 SLOAD DUP2 MSTORE SWAP1 PUSH1 0x1 ADD SWAP1 PUSH1 0x20 ADD DUP1 DUP4 GT PUSH2 0x6E6 JUMPI DUP3 SWAP1 SUB PUSH1 0x1F AND DUP3 ADD SWAP2 JUMPDEST POP POP POP POP POP SWAP1 DUP1 PUSH1 0x4 ADD PUSH1 0x0 SWAP1 SLOAD SWAP1 PUSH2 0x100 EXP SWAP1 DIV PUSH20 0xFFFFFFFFFFFFFFFFFFFFFFFFFFFFFFFFFFFFFFFF AND SWAP1 POP DUP6 JUMP JUMPDEST PUSH1 0x60 PUSH1 0x0 PUSH1 0x60 DUP1 PUSH1 0x0 PUSH1 0x5 DUP1 SLOAD SWAP1 POP DUP7 LT PUSH2 0x783 JUMPI PUSH1 0x40 MLOAD PUSH32 0x8C379A000000000000000000000000000000000000000000000000000000000 DUP2 MSTORE PUSH1 0x4 ADD PUSH2 0x77A SWAP1 PUSH2 0x25AC JUMP JUMPDEST PUSH1 0x40 MLOAD DUP1 SWAP2 SUB SWAP1 REVERT JUMPDEST PUSH1 0x0 PUSH1 0x5 DUP8 DUP2 SLOAD DUP2 LT PUSH2 0x799 JUMPI PUSH2 0x798 PUSH2 0x25CC JUMP JUMPDEST JUMPDEST SWAP1 PUSH1 0x0 MSTORE PUSH1 0x20 PUSH1 0x0 KECCAK256 SWAP1 PUSH1 0x5 MUL ADD PUSH1 0x40 MLOAD DUP1 PUSH1 0xA0 ADD PUSH1 0x40 MSTORE SWAP1 DUP2 PUSH1 0x0 DUP3 ADD DUP1 SLOAD PUSH2 0x7C2 SWAP1 PUSH2 0x252E JUMP JUMPDEST DUP1 PUSH1 0x1F ADD PUSH1 0x20 DUP1 SWAP2 DIV MUL PUSH1 0x20 ADD PUSH1 0x40 MLOAD SWAP1 DUP2 ADD PUSH1 0x40 MSTORE DUP1 SWAP3 SWAP2 SWAP1 DUP2 DUP2 MSTORE PUSH1 0x20 ADD DUP3 DUP1 SLOAD PUSH2 0x7EE SWAP1 PUSH2 0x252E JUMP JUMPDEST DUP1 ISZERO PUSH2 0x83B JUMPI DUP1 PUSH1 0x1F LT PUSH2 0x810 JUMPI PUSH2 0x100 DUP1 DUP4 SLOAD DIV MUL DUP4 MSTORE SWAP2 PUSH1 0x20 ADD SWAP2 PUSH2 0x83B JUMP JUMPDEST DUP3 ADD SWAP2 SWAP1 PUSH1 0x0 MSTORE PUSH1 0x20 PUSH1 0x0 KECCAK256 SWAP1 JUMPDEST DUP2 SLOAD DUP2 MSTORE SWAP1 PUSH1 0x1 ADD SWAP1 PUSH1 0x20 ADD DUP1 DUP4 GT PUSH2 0x81E JUMPI DUP3 SWAP1 SUB PUSH1 0x1F AND DUP3 ADD SWAP2 JUMPDEST POP POP POP POP POP DUP2 MSTORE PUSH1 0x20 ADD PUSH1 0x1 DUP3 ADD PUSH1 0x0 SWAP1 SLOAD SWAP1 PUSH2 0x100 EXP SWAP1 DIV PUSH20 0xFFFFFFFFFFFFFFFFFFFFFFFFFFFFFFFFFFFFFFFF AND PUSH20 0xFFFFFFFFFFFFFFFFFFFFFFFFFFFFFFFFFFFFFFFF AND PUSH20 0xFFFFFFFFFFFFFFFFFFFFFFFFFFFFFFFFFFFFFFFF AND DUP2 MSTORE PUSH1 0x20 ADD PUSH1 0x2 DUP3 ADD DUP1 SLOAD PUSH2 0x8AA SWAP1 PUSH2 0x252E JUMP JUMPDEST DUP1 PUSH1 0x1F ADD PUSH1 0x20 DUP1 SWAP2 DIV MUL PUSH1 0x20 ADD PUSH1 0x40 MLOAD SWAP1 DUP2 ADD PUSH1 0x40 MSTORE DUP1 SWAP3 SWAP2 SWAP1 DUP2 DUP2 MSTORE PUSH1 0x20 ADD DUP3 DUP1 SLOAD PUSH2 0x8D6 SWAP1 PUSH2 0x252E JUMP JUMPDEST DUP1 ISZERO PUSH2 0x923 JUMPI DUP1 PUSH1 0x1F LT PUSH2 0x8F8 JUMPI PUSH2 0x100 DUP1 DUP4 SLOAD DIV MUL DUP4 MSTORE SWAP2 PUSH1 0x20 ADD SWAP2 PUSH2 0x923 JUMP JUMPDEST DUP3 ADD SWAP2 SWAP1 PUSH1 0x0 MSTORE PUSH1 0x20 PUSH1 0x0 KECCAK256 SWAP1 JUMPDEST DUP2 SLOAD DUP2 MSTORE SWAP1 PUSH1 0x1 ADD SWAP1 PUSH1 0x20 ADD DUP1 DUP4 GT PUSH2 0x906 JUMPI DUP3 SWAP1 SUB PUSH1 0x1F AND DUP3 ADD SWAP2 JUMPDEST POP POP POP POP POP DUP2 MSTORE PUSH1 0x20 ADD PUSH1 0x3 DUP3 ADD DUP1 SLOAD PUSH2 0x93C SWAP1 PUSH2 0x252E JUMP JUMPDEST DUP1 PUSH1 0x1F ADD PUSH1 0x20 DUP1 SWAP2 DIV MUL PUSH1 0x20 ADD PUSH1 0x40 MLOAD SWAP1 DUP2 ADD PUSH1 0x40 MSTORE DUP1 SWAP3 SWAP2 SWAP1 DUP2 DUP2 MSTORE PUSH1 0x20 ADD DUP3 DUP1 SLOAD PUSH2 0x968 SWAP1 PUSH2 0x252E JUMP JUMPDEST DUP1 ISZERO PUSH2 0x9B5 JUMPI DUP1 PUSH1 0x1F LT PUSH2 0x98A JUMPI PUSH2 0x100 DUP1 DUP4 SLOAD DIV MUL DUP4 MSTORE SWAP2 PUSH1 0x20 ADD SWAP2 PUSH2 0x9B5 JUMP JUMPDEST DUP3 ADD SWAP2 SWAP1 PUSH1 0x0 MSTORE PUSH1 0x20 PUSH1 0x0 KECCAK256 SWAP1 JUMPDEST DUP2 SLOAD DUP2 MSTORE SWAP1 PUSH1 0x1 ADD SWAP1 PUSH1 0x20 ADD DUP1 DUP4 GT PUSH2 0x998 JUMPI DUP3 SWAP1 SUB PUSH1 0x1F AND DUP3 ADD SWAP2 JUMPDEST POP POP POP POP POP DUP2 MSTORE PUSH1 0x20 ADD PUSH1 0x4 DUP3 ADD PUSH1 0x0 SWAP1 SLOAD SWAP1 PUSH2 0x100 EXP SWAP1 DIV PUSH20 0xFFFFFFFFFFFFFFFFFFFFFFFFFFFFFFFFFFFFFFFF AND PUSH20 0xFFFFFFFFFFFFFFFFFFFFFFFFFFFFFFFFFFFFFFFF AND PUSH20 0xFFFFFFFFFFFFFFFFFFFFFFFFFFFFFFFFFFFFFFFF AND DUP2 MSTORE POP POP SWAP1 POP DUP1 PUSH1 0x0 ADD MLOAD DUP2 PUSH1 0x20 ADD MLOAD DUP3 PUSH1 0x40 ADD MLOAD DUP4 PUSH1 0x60 ADD MLOAD DUP5 PUSH1 0x80 ADD MLOAD SWAP6 POP SWAP6 POP SWAP6 POP SWAP6 POP SWAP6 POP POP SWAP2 SWAP4 SWAP6 SWAP1 SWAP3 SWAP5 POP JUMP JUMPDEST PUSH1 0x0 DUP1 SLOAD SWAP1 PUSH2 0x100 EXP SWAP1 DIV PUSH20 0xFFFFFFFFFFFFFFFFFFFFFFFFFFFFFFFFFFFFFFFF AND DUP2 JUMP JUMPDEST PUSH2 0xA6F PUSH2 0x1C58 JUMP JUMPDEST DUP6 DUP2 PUSH1 0x0 ADD DUP2 SWAP1 MSTORE POP DUP5 DUP2 PUSH1 0x20 ADD SWAP1 PUSH20 0xFFFFFFFFFFFFFFFFFFFFFFFFFFFFFFFFFFFFFFFF AND SWAP1 DUP2 PUSH20 0xFFFFFFFFFFFFFFFFFFFFFFFFFFFFFFFFFFFFFFFF AND DUP2 MSTORE POP POP DUP4 DUP2 PUSH1 0x40 ADD DUP2 SWAP1 MSTORE POP DUP3 DUP2 PUSH1 0x60 ADD DUP2 SWAP1 MSTORE POP DUP2 DUP2 PUSH1 0x80 ADD SWAP1 PUSH20 0xFFFFFFFFFFFFFFFFFFFFFFFFFFFFFFFFFFFFFFFF AND SWAP1 DUP2 PUSH20 0xFFFFFFFFFFFFFFFFFFFFFFFFFFFFFFFFFFFFFFFF AND DUP2 MSTORE POP POP PUSH1 0x5 DUP2 SWAP1 DUP1 PUSH1 0x1 DUP2 SLOAD ADD DUP1 DUP3 SSTORE DUP1 SWAP2 POP POP PUSH1 0x1 SWAP1 SUB SWAP1 PUSH1 0x0 MSTORE PUSH1 0x20 PUSH1 0x0 KECCAK256 SWAP1 PUSH1 0x5 MUL ADD PUSH1 0x0 SWAP1 SWAP2 SWAP1 SWAP2 SWAP1 SWAP2 POP PUSH1 0x0 DUP3 ADD MLOAD DUP2 PUSH1 0x0 ADD SWAP1 DUP1 MLOAD SWAP1 PUSH1 0x20 ADD SWAP1 PUSH2 0xB42 SWAP3 SWAP2 SWAP1 PUSH2 0x1CB3 JUMP JUMPDEST POP PUSH1 0x20 DUP3 ADD MLOAD DUP2 PUSH1 0x1 ADD PUSH1 0x0 PUSH2 0x100 EXP DUP2 SLOAD DUP2 PUSH20 0xFFFFFFFFFFFFFFFFFFFFFFFFFFFFFFFFFFFFFFFF MUL NOT AND SWAP1 DUP4 PUSH20 0xFFFFFFFFFFFFFFFFFFFFFFFFFFFFFFFFFFFFFFFF AND MUL OR SWAP1 SSTORE POP PUSH1 0x40 DUP3 ADD MLOAD DUP2 PUSH1 0x2 ADD SWAP1 DUP1 MLOAD SWAP1 PUSH1 0x20 ADD SWAP1 PUSH2 0xBA6 SWAP3 SWAP2 SWAP1 PUSH2 0x1CB3 JUMP JUMPDEST POP PUSH1 0x60 DUP3 ADD MLOAD DUP2 PUSH1 0x3 ADD SWAP1 DUP1 MLOAD SWAP1 PUSH1 0x20 ADD SWAP1 PUSH2 0xBC3 SWAP3 SWAP2 SWAP1 PUSH2 0x1CB3 JUMP JUMPDEST POP PUSH1 0x80 DUP3 ADD MLOAD DUP2 PUSH1 0x4 ADD PUSH1 0x0 PUSH2 0x100 EXP DUP2 SLOAD DUP2 PUSH20 0xFFFFFFFFFFFFFFFFFFFFFFFFFFFFFFFFFFFFFFFF MUL NOT AND SWAP1 DUP4 PUSH20 0xFFFFFFFFFFFFFFFFFFFFFFFFFFFFFFFFFFFFFFFF AND MUL OR SWAP1 SSTORE POP POP POP POP POP POP POP POP POP JUMP JUMPDEST PUSH1 0x0 DUP1 PUSH20 0xFFFFFFFFFFFFFFFFFFFFFFFFFFFFFFFFFFFFFFFF AND PUSH1 0x7 PUSH1 0x0 DUP5 PUSH20 0xFFFFFFFFFFFFFFFFFFFFFFFFFFFFFFFFFFFFFFFF AND PUSH20 0xFFFFFFFFFFFFFFFFFFFFFFFFFFFFFFFFFFFFFFFF AND DUP2 MSTORE PUSH1 0x20 ADD SWAP1 DUP2 MSTORE PUSH1 0x20 ADD PUSH1 0x0 KECCAK256 PUSH1 0x0 SWAP1 SLOAD SWAP1 PUSH2 0x100 EXP SWAP1 DIV PUSH20 0xFFFFFFFFFFFFFFFFFFFFFFFFFFFFFFFFFFFFFFFF AND PUSH20 0xFFFFFFFFFFFFFFFFFFFFFFFFFFFFFFFFFFFFFFFF AND EQ ISZERO SWAP1 POP SWAP2 SWAP1 POP JUMP JUMPDEST PUSH1 0x0 DUP3 DUP3 PUSH1 0x40 MLOAD PUSH1 0x20 ADD PUSH2 0xCC2 SWAP3 SWAP2 SWAP1 PUSH2 0x267F JUMP JUMPDEST PUSH1 0x40 MLOAD PUSH1 0x20 DUP2 DUP4 SUB SUB DUP2 MSTORE SWAP1 PUSH1 0x40 MSTORE DUP1 MLOAD SWAP1 PUSH1 0x20 ADD KECCAK256 SWAP1 POP SWAP3 SWAP2 POP POP JUMP JUMPDEST PUSH1 0x4 SLOAD DUP2 JUMP JUMPDEST PUSH1 0x0 PUSH1 0x6 DUP1 SLOAD SWAP1 POP SWAP1 POP SWAP1 JUMP JUMPDEST PUSH1 0x60 PUSH1 0x0 PUSH1 0x60 DUP1 PUSH1 0x0 PUSH1 0x5 DUP1 SLOAD SWAP1 POP DUP7 LT PUSH2 0xD43 JUMPI PUSH1 0x40 MLOAD PUSH32 0x8C379A000000000000000000000000000000000000000000000000000000000 DUP2 MSTORE PUSH1 0x4 ADD PUSH2 0xD3A SWAP1 PUSH2 0x25AC JUMP JUMPDEST PUSH1 0x40 MLOAD DUP1 SWAP2 SUB SWAP1 REVERT JUMPDEST PUSH1 0x0 PUSH1 0x6 DUP8 DUP2 SLOAD DUP2 LT PUSH2 0xD59 JUMPI PUSH2 0xD58 PUSH2 0x25CC JUMP JUMPDEST JUMPDEST SWAP1 PUSH1 0x0 MSTORE PUSH1 0x20 PUSH1 0x0 KECCAK256 SWAP1 PUSH1 0x5 MUL ADD PUSH1 0x40 MLOAD DUP1 PUSH1 0xA0 ADD PUSH1 0x40 MSTORE SWAP1 DUP2 PUSH1 0x0 DUP3 ADD DUP1 SLOAD PUSH2 0xD82 SWAP1 PUSH2 0x252E JUMP JUMPDEST DUP1 PUSH1 0x1F ADD PUSH1 0x20 DUP1 SWAP2 DIV MUL PUSH1 0x20 ADD PUSH1 0x40 MLOAD SWAP1 DUP2 ADD PUSH1 0x40 MSTORE DUP1 SWAP3 SWAP2 SWAP1 DUP2 DUP2 MSTORE PUSH1 0x20 ADD DUP3 DUP1 SLOAD PUSH2 0xDAE SWAP1 PUSH2 0x252E JUMP JUMPDEST DUP1 ISZERO PUSH2 0xDFB JUMPI DUP1 PUSH1 0x1F LT PUSH2 0xDD0 JUMPI PUSH2 0x100 DUP1 DUP4 SLOAD DIV MUL DUP4 MSTORE SWAP2 PUSH1 0x20 ADD SWAP2 PUSH2 0xDFB JUMP JUMPDEST DUP3 ADD SWAP2 SWAP1 PUSH1 0x0 MSTORE PUSH1 0x20 PUSH1 0x0 KECCAK256 SWAP1 JUMPDEST DUP2 SLOAD DUP2 MSTORE SWAP1 PUSH1 0x1 ADD SWAP1 PUSH1 0x20 ADD DUP1 DUP4 GT PUSH2 0xDDE JUMPI DUP3 SWAP1 SUB PUSH1 0x1F AND DUP3 ADD SWAP2 JUMPDEST POP POP POP POP POP DUP2 MSTORE PUSH1 0x20 ADD PUSH1 0x1 DUP3 ADD PUSH1 0x0 SWAP1 SLOAD SWAP1 PUSH2 0x100 EXP SWAP1 DIV PUSH20 0xFFFFFFFFFFFFFFFFFFFFFFFFFFFFFFFFFFFFFFFF AND PUSH20 0xFFFFFFFFFFFFFFFFFFFFFFFFFFFFFFFFFFFFFFFF AND PUSH20 0xFFFFFFFFFFFFFFFFFFFFFFFFFFFFFFFFFFFFFFFF AND DUP2 MSTORE PUSH1 0x20 ADD PUSH1 0x2 DUP3 ADD DUP1 SLOAD PUSH2 0xE6A SWAP1 PUSH2 0x252E JUMP JUMPDEST DUP1 PUSH1 0x1F ADD PUSH1 0x20 DUP1 SWAP2 DIV MUL PUSH1 0x20 ADD PUSH1 0x40 MLOAD SWAP1 DUP2 ADD PUSH1 0x40 MSTORE DUP1 SWAP3 SWAP2 SWAP1 DUP2 DUP2 MSTORE PUSH1 0x20 ADD DUP3 DUP1 SLOAD PUSH2 0xE96 SWAP1 PUSH2 0x252E JUMP JUMPDEST DUP1 ISZERO PUSH2 0xEE3 JUMPI DUP1 PUSH1 0x1F LT PUSH2 0xEB8 JUMPI PUSH2 0x100 DUP1 DUP4 SLOAD DIV MUL DUP4 MSTORE SWAP2 PUSH1 0x20 ADD SWAP2 PUSH2 0xEE3 JUMP JUMPDEST DUP3 ADD SWAP2 SWAP1 PUSH1 0x0 MSTORE PUSH1 0x20 PUSH1 0x0 KECCAK256 SWAP1 JUMPDEST DUP2 SLOAD DUP2 MSTORE SWAP1 PUSH1 0x1 ADD SWAP1 PUSH1 0x20 ADD DUP1 DUP4 GT PUSH2 0xEC6 JUMPI DUP3 SWAP1 SUB PUSH1 0x1F AND DUP3 ADD SWAP2 JUMPDEST POP POP POP POP POP DUP2 MSTORE PUSH1 0x20 ADD PUSH1 0x3 DUP3 ADD DUP1 SLOAD PUSH2 0xEFC SWAP1 PUSH2 0x252E JUMP JUMPDEST DUP1 PUSH1 0x1F ADD PUSH1 0x20 DUP1 SWAP2 DIV MUL PUSH1 0x20 ADD PUSH1 0x40 MLOAD SWAP1 DUP2 ADD PUSH1 0x40 MSTORE DUP1 SWAP3 SWAP2 SWAP1 DUP2 DUP2 MSTORE PUSH1 0x20 ADD DUP3 DUP1 SLOAD PUSH2 0xF28 SWAP1 PUSH2 0x252E JUMP JUMPDEST DUP1 ISZERO PUSH2 0xF75 JUMPI DUP1 PUSH1 0x1F LT PUSH2 0xF4A JUMPI PUSH2 0x100 DUP1 DUP4 SLOAD DIV MUL DUP4 MSTORE SWAP2 PUSH1 0x20 ADD SWAP2 PUSH2 0xF75 JUMP JUMPDEST DUP3 ADD SWAP2 SWAP1 PUSH1 0x0 MSTORE PUSH1 0x20 PUSH1 0x0 KECCAK256 SWAP1 JUMPDEST DUP2 SLOAD DUP2 MSTORE SWAP1 PUSH1 0x1 ADD SWAP1 PUSH1 0x20 ADD DUP1 DUP4 GT PUSH2 0xF58 JUMPI DUP3 SWAP1 SUB PUSH1 0x1F AND DUP3 ADD SWAP2 JUMPDEST POP POP POP POP POP DUP2 MSTORE PUSH1 0x20 ADD PUSH1 0x4 DUP3 ADD PUSH1 0x0 SWAP1 SLOAD SWAP1 PUSH2 0x100 EXP SWAP1 DIV PUSH20 0xFFFFFFFFFFFFFFFFFFFFFFFFFFFFFFFFFFFFFFFF AND PUSH20 0xFFFFFFFFFFFFFFFFFFFFFFFFFFFFFFFFFFFFFFFF AND PUSH20 0xFFFFFFFFFFFFFFFFFFFFFFFFFFFFFFFFFFFFFFFF AND DUP2 MSTORE POP POP SWAP1 POP DUP1 PUSH1 0x0 ADD MLOAD DUP2 PUSH1 0x20 ADD MLOAD DUP3 PUSH1 0x40 ADD MLOAD DUP4 PUSH1 0x60 ADD MLOAD DUP5 PUSH1 0x80 ADD MLOAD SWAP6 POP SWAP6 POP SWAP6 POP SWAP6 POP SWAP6 POP POP SWAP2 SWAP4 SWAP6 SWAP1 SWAP3 SWAP5 POP JUMP JUMPDEST PUSH1 0x0 PUSH1 0x1 PUSH1 0x0 SWAP1 SLOAD SWAP1 PUSH2 0x100 EXP SWAP1 DIV PUSH20 0xFFFFFFFFFFFFFFFFFFFFFFFFFFFFFFFFFFFFFFFF AND PUSH20 0xFFFFFFFFFFFFFFFFFFFFFFFFFFFFFFFFFFFFFFFF AND PUSH4 0x8A97503D DUP8 DUP7 PUSH1 0x40 MLOAD DUP4 PUSH4 0xFFFFFFFF AND PUSH1 0xE0 SHL DUP2 MSTORE PUSH1 0x4 ADD PUSH2 0x1062 SWAP3 SWAP2 SWAP1 PUSH2 0x26A7 JUMP JUMPDEST PUSH1 0x20 PUSH1 0x40 MLOAD DUP1 DUP4 SUB DUP2 DUP7 GAS STATICCALL ISZERO DUP1 ISZERO PUSH2 0x107F JUMPI RETURNDATASIZE PUSH1 0x0 DUP1 RETURNDATACOPY RETURNDATASIZE PUSH1 0x0 REVERT JUMPDEST POP POP POP POP PUSH1 0x40 MLOAD RETURNDATASIZE PUSH1 0x1F NOT PUSH1 0x1F DUP3 ADD AND DUP3 ADD DUP1 PUSH1 0x40 MSTORE POP DUP2 ADD SWAP1 PUSH2 0x10A3 SWAP2 SWAP1 PUSH2 0x2703 JUMP JUMPDEST SWAP1 POP PUSH2 0x10AD PUSH2 0x1C58 JUMP JUMPDEST DUP8 DUP2 PUSH1 0x0 ADD DUP2 SWAP1 MSTORE POP DUP7 DUP2 PUSH1 0x20 ADD SWAP1 PUSH20 0xFFFFFFFFFFFFFFFFFFFFFFFFFFFFFFFFFFFFFFFF AND SWAP1 DUP2 PUSH20 0xFFFFFFFFFFFFFFFFFFFFFFFFFFFFFFFFFFFFFFFF AND DUP2 MSTORE POP POP DUP6 DUP2 PUSH1 0x40 ADD DUP2 SWAP1 MSTORE POP DUP5 DUP2 PUSH1 0x60 ADD DUP2 SWAP1 MSTORE POP DUP3 DUP2 PUSH1 0x80 ADD SWAP1 PUSH20 0xFFFFFFFFFFFFFFFFFFFFFFFFFFFFFFFFFFFFFFFF AND SWAP1 DUP2 PUSH20 0xFFFFFFFFFFFFFFFFFFFFFFFFFFFFFFFFFFFFFFFF AND DUP2 MSTORE POP POP PUSH1 0x6 DUP2 SWAP1 DUP1 PUSH1 0x1 DUP2 SLOAD ADD DUP1 DUP3 SSTORE DUP1 SWAP2 POP POP PUSH1 0x1 SWAP1 SUB SWAP1 PUSH1 0x0 MSTORE PUSH1 0x20 PUSH1 0x0 KECCAK256 SWAP1 PUSH1 0x5 MUL ADD PUSH1 0x0 SWAP1 SWAP2 SWAP1 SWAP2 SWAP1 SWAP2 POP PUSH1 0x0 DUP3 ADD MLOAD DUP2 PUSH1 0x0 ADD SWAP1 DUP1 MLOAD SWAP1 PUSH1 0x20 ADD SWAP1 PUSH2 0x1180 SWAP3 SWAP2 SWAP1 PUSH2 0x1CB3 JUMP JUMPDEST POP PUSH1 0x20 DUP3 ADD MLOAD DUP2 PUSH1 0x1 ADD PUSH1 0x0 PUSH2 0x100 EXP DUP2 SLOAD DUP2 PUSH20 0xFFFFFFFFFFFFFFFFFFFFFFFFFFFFFFFFFFFFFFFF MUL NOT AND SWAP1 DUP4 PUSH20 0xFFFFFFFFFFFFFFFFFFFFFFFFFFFFFFFFFFFFFFFF AND MUL OR SWAP1 SSTORE POP PUSH1 0x40 DUP3 ADD MLOAD DUP2 PUSH1 0x2 ADD SWAP1 DUP1 MLOAD SWAP1 PUSH1 0x20 ADD SWAP1 PUSH2 0x11E4 SWAP3 SWAP2 SWAP1 PUSH2 0x1CB3 JUMP JUMPDEST POP PUSH1 0x60 DUP3 ADD MLOAD DUP2 PUSH1 0x3 ADD SWAP1 DUP1 MLOAD SWAP1 PUSH1 0x20 ADD SWAP1 PUSH2 0x1201 SWAP3 SWAP2 SWAP1 PUSH2 0x1CB3 JUMP JUMPDEST POP PUSH1 0x80 DUP3 ADD MLOAD DUP2 PUSH1 0x4 ADD PUSH1 0x0 PUSH2 0x100 EXP DUP2 SLOAD DUP2 PUSH20 0xFFFFFFFFFFFFFFFFFFFFFFFFFFFFFFFFFFFFFFFF MUL NOT AND SWAP1 DUP4 PUSH20 0xFFFFFFFFFFFFFFFFFFFFFFFFFFFFFFFFFFFFFFFF AND MUL OR SWAP1 SSTORE POP POP POP POP POP POP POP POP POP POP POP JUMP JUMPDEST PUSH1 0x0 PUSH1 0x5 DUP1 SLOAD SWAP1 POP SWAP1 POP SWAP1 JUMP JUMPDEST PUSH1 0x3 PUSH1 0x0 SWAP1 SLOAD SWAP1 PUSH2 0x100 EXP SWAP1 DIV PUSH20 0xFFFFFFFFFFFFFFFFFFFFFFFFFFFFFFFFFFFFFFFF AND DUP2 JUMP JUMPDEST PUSH1 0x2 PUSH1 0x0 SWAP1 SLOAD SWAP1 PUSH2 0x100 EXP SWAP1 DIV PUSH20 0xFFFFFFFFFFFFFFFFFFFFFFFFFFFFFFFFFFFFFFFF AND DUP2 JUMP JUMPDEST PUSH1 0x5 DUP2 DUP2 SLOAD DUP2 LT PUSH2 0x12BE JUMPI PUSH1 0x0 DUP1 REVERT JUMPDEST SWAP1 PUSH1 0x0 MSTORE PUSH1 0x20 PUSH1 0x0 KECCAK256 SWAP1 PUSH1 0x5 MUL ADD PUSH1 0x0 SWAP2 POP SWAP1 POP DUP1 PUSH1 0x0 ADD DUP1 SLOAD PUSH2 0x12E1 SWAP1 PUSH2 0x252E JUMP JUMPDEST DUP1 PUSH1 0x1F ADD PUSH1 0x20 DUP1 SWAP2 DIV MUL PUSH1 0x20 ADD PUSH1 0x40 MLOAD SWAP1 DUP2 ADD PUSH1 0x40 MSTORE DUP1 SWAP3 SWAP2 SWAP1 DUP2 DUP2 MSTORE PUSH1 0x20 ADD DUP3 DUP1 SLOAD PUSH2 0x130D SWAP1 PUSH2 0x252E JUMP JUMPDEST DUP1 ISZERO PUSH2 0x135A JUMPI DUP1 PUSH1 0x1F LT PUSH2 0x132F JUMPI PUSH2 0x100 DUP1 DUP4 SLOAD DIV MUL DUP4 MSTORE SWAP2 PUSH1 0x20 ADD SWAP2 PUSH2 0x135A JUMP JUMPDEST DUP3 ADD SWAP2 SWAP1 PUSH1 0x0 MSTORE PUSH1 0x20 PUSH1 0x0 KECCAK256 SWAP1 JUMPDEST DUP2 SLOAD DUP2 MSTORE SWAP1 PUSH1 0x1 ADD SWAP1 PUSH1 0x20 ADD DUP1 DUP4 GT PUSH2 0x133D JUMPI DUP3 SWAP1 SUB PUSH1 0x1F AND DUP3 ADD SWAP2 JUMPDEST POP POP POP POP POP SWAP1 DUP1 PUSH1 0x1 ADD PUSH1 0x0 SWAP1 SLOAD SWAP1 PUSH2 0x100 EXP SWAP1 DIV PUSH20 0xFFFFFFFFFFFFFFFFFFFFFFFFFFFFFFFFFFFFFFFF AND SWAP1 DUP1 PUSH1 0x2 ADD DUP1 SLOAD PUSH2 0x1395 SWAP1 PUSH2 0x252E JUMP JUMPDEST DUP1 PUSH1 0x1F ADD PUSH1 0x20 DUP1 SWAP2 DIV MUL PUSH1 0x20 ADD PUSH1 0x40 MLOAD SWAP1 DUP2 ADD PUSH1 0x40 MSTORE DUP1 SWAP3 SWAP2 SWAP1 DUP2 DUP2 MSTORE PUSH1 0x20 ADD DUP3 DUP1 SLOAD PUSH2 0x13C1 SWAP1 PUSH2 0x252E JUMP JUMPDEST DUP1 ISZERO PUSH2 0x140E JUMPI DUP1 PUSH1 0x1F LT PUSH2 0x13E3 JUMPI PUSH2 0x100 DUP1 DUP4 SLOAD DIV MUL DUP4 MSTORE SWAP2 PUSH1 0x20 ADD SWAP2 PUSH2 0x140E JUMP JUMPDEST DUP3 ADD SWAP2 SWAP1 PUSH1 0x0 MSTORE PUSH1 0x20 PUSH1 0x0 KECCAK256 SWAP1 JUMPDEST DUP2 SLOAD DUP2 MSTORE SWAP1 PUSH1 0x1 ADD SWAP1 PUSH1 0x20 ADD DUP1 DUP4 GT PUSH2 0x13F1 JUMPI DUP3 SWAP1 SUB PUSH1 0x1F AND DUP3 ADD SWAP2 JUMPDEST POP POP POP POP POP SWAP1 DUP1 PUSH1 0x3 ADD DUP1 SLOAD PUSH2 0x1423 SWAP1 PUSH2 0x252E JUMP JUMPDEST DUP1 PUSH1 0x1F ADD PUSH1 0x20 DUP1 SWAP2 DIV MUL PUSH1 0x20 ADD PUSH1 0x40 MLOAD SWAP1 DUP2 ADD PUSH1 0x40 MSTORE DUP1 SWAP3 SWAP2 SWAP1 DUP2 DUP2 MSTORE PUSH1 0x20 ADD DUP3 DUP1 SLOAD PUSH2 0x144F SWAP1 PUSH2 0x252E JUMP JUMPDEST DUP1 ISZERO PUSH2 0x149C JUMPI DUP1 PUSH1 0x1F LT PUSH2 0x1471 JUMPI PUSH2 0x100 DUP1 DUP4 SLOAD DIV MUL DUP4 MSTORE SWAP2 PUSH1 0x20 ADD SWAP2 PUSH2 0x149C JUMP JUMPDEST DUP3 ADD SWAP2 SWAP1 PUSH1 0x0 MSTORE PUSH1 0x20 PUSH1 0x0 KECCAK256 SWAP1 JUMPDEST DUP2 SLOAD DUP2 MSTORE SWAP1 PUSH1 0x1 ADD SWAP1 PUSH1 0x20 ADD DUP1 DUP4 GT PUSH2 0x147F JUMPI DUP3 SWAP1 SUB PUSH1 0x1F AND DUP3 ADD SWAP2 JUMPDEST POP POP POP POP POP SWAP1 DUP1 PUSH1 0x4 ADD PUSH1 0x0 SWAP1 SLOAD SWAP1 PUSH2 0x100 EXP SWAP1 DIV PUSH20 0xFFFFFFFFFFFFFFFFFFFFFFFFFFFFFFFFFFFFFFFF AND SWAP1 POP DUP6 JUMP JUMPDEST PUSH1 0x1 PUSH1 0x0 SWAP1 SLOAD SWAP1 PUSH2 0x100 EXP SWAP1 DIV PUSH20 0xFFFFFFFFFFFFFFFFFFFFFFFFFFFFFFFFFFFFFFFF AND DUP2 JUMP JUMPDEST PUSH1 0x0 PUSH1 0x7 PUSH1 0x0 DUP4 PUSH20 0xFFFFFFFFFFFFFFFFFFFFFFFFFFFFFFFFFFFFFFFF AND PUSH20 0xFFFFFFFFFFFFFFFFFFFFFFFFFFFFFFFFFFFFFFFF AND DUP2 MSTORE PUSH1 0x20 ADD SWAP1 DUP2 MSTORE PUSH1 0x20 ADD PUSH1 0x0 KECCAK256 PUSH1 0x0 SWAP1 SLOAD SWAP1 PUSH2 0x100 EXP SWAP1 DIV PUSH20 0xFFFFFFFFFFFFFFFFFFFFFFFFFFFFFFFFFFFFFFFF AND SWAP1 POP SWAP2 SWAP1 POP JUMP JUMPDEST PUSH1 0x0 DUP1 PUSH1 0x0 DUP1 PUSH1 0x0 PUSH2 0x156C DUP7 PUSH2 0xCF3 JUMP JUMPDEST SWAP5 POP SWAP5 POP SWAP5 POP SWAP5 POP SWAP5 POP PUSH1 0x0 PUSH1 0x1 PUSH1 0x0 SWAP1 SLOAD SWAP1 PUSH2 0x100 EXP SWAP1 DIV PUSH20 0xFFFFFFFFFFFFFFFFFFFFFFFFFFFFFFFFFFFFFFFF AND PUSH20 0xFFFFFFFFFFFFFFFFFFFFFFFFFFFFFFFFFFFFFFFF AND PUSH4 0x8A97503D DUP7 DUP6 PUSH1 0x40 MLOAD DUP4 PUSH4 0xFFFFFFFF AND PUSH1 0xE0 SHL DUP2 MSTORE PUSH1 0x4 ADD PUSH2 0x15D5 SWAP3 SWAP2 SWAP1 PUSH2 0x26A7 JUMP JUMPDEST PUSH1 0x20 PUSH1 0x40 MLOAD DUP1 DUP4 SUB DUP2 DUP7 GAS STATICCALL ISZERO DUP1 ISZERO PUSH2 0x15F2 JUMPI RETURNDATASIZE PUSH1 0x0 DUP1 RETURNDATACOPY RETURNDATASIZE PUSH1 0x0 REVERT JUMPDEST POP POP POP POP PUSH1 0x40 MLOAD RETURNDATASIZE PUSH1 0x1F NOT PUSH1 0x1F DUP3 ADD AND DUP3 ADD DUP1 PUSH1 0x40 MSTORE POP DUP2 ADD SWAP1 PUSH2 0x1616 SWAP2 SWAP1 PUSH2 0x2703 JUMP JUMPDEST SWAP1 POP PUSH1 0x1 PUSH1 0x0 SWAP1 SLOAD SWAP1 PUSH2 0x100 EXP SWAP1 DIV PUSH20 0xFFFFFFFFFFFFFFFFFFFFFFFFFFFFFFFFFFFFFFFF AND PUSH20 0xFFFFFFFFFFFFFFFFFFFFFFFFFFFFFFFFFFFFFFFF AND PUSH4 0x4268DDBD DUP9 DUP4 CALLER PUSH1 0x40 MLOAD DUP5 PUSH4 0xFFFFFFFF AND PUSH1 0xE0 SHL DUP2 MSTORE PUSH1 0x4 ADD PUSH2 0x1677 SWAP4 SWAP3 SWAP2 SWAP1 PUSH2 0x2730 JUMP JUMPDEST PUSH1 0x20 PUSH1 0x40 MLOAD DUP1 DUP4 SUB DUP2 PUSH1 0x0 DUP8 GAS CALL ISZERO DUP1 ISZERO PUSH2 0x1696 JUMPI RETURNDATASIZE PUSH1 0x0 DUP1 RETURNDATACOPY RETURNDATASIZE PUSH1 0x0 REVERT JUMPDEST POP POP POP POP PUSH1 0x40 MLOAD RETURNDATASIZE PUSH1 0x1F NOT PUSH1 0x1F DUP3 ADD AND DUP3 ADD DUP1 PUSH1 0x40 MSTORE POP DUP2 ADD SWAP1 PUSH2 0x16BA SWAP2 SWAP1 PUSH2 0x2793 JUMP JUMPDEST PUSH2 0x16F9 JUMPI PUSH1 0x40 MLOAD PUSH32 0x8C379A000000000000000000000000000000000000000000000000000000000 DUP2 MSTORE PUSH1 0x4 ADD PUSH2 0x16F0 SWAP1 PUSH2 0x2832 JUMP JUMPDEST PUSH1 0x40 MLOAD DUP1 SWAP2 SUB SWAP1 REVERT JUMPDEST PUSH1 0x6 DUP8 DUP2 SLOAD DUP2 LT PUSH2 0x170D JUMPI PUSH2 0x170C PUSH2 0x25CC JUMP JUMPDEST JUMPDEST SWAP1 PUSH1 0x0 MSTORE PUSH1 0x20 PUSH1 0x0 KECCAK256 SWAP1 PUSH1 0x5 MUL ADD PUSH1 0x0 DUP1 DUP3 ADD PUSH1 0x0 PUSH2 0x172C SWAP2 SWAP1 PUSH2 0x1D39 JUMP JUMPDEST PUSH1 0x1 DUP3 ADD PUSH1 0x0 PUSH2 0x100 EXP DUP2 SLOAD SWAP1 PUSH20 0xFFFFFFFFFFFFFFFFFFFFFFFFFFFFFFFFFFFFFFFF MUL NOT AND SWAP1 SSTORE PUSH1 0x2 DUP3 ADD PUSH1 0x0 PUSH2 0x1763 SWAP2 SWAP1 PUSH2 0x1D39 JUMP JUMPDEST PUSH1 0x3 DUP3 ADD PUSH1 0x0 PUSH2 0x1773 SWAP2 SWAP1 PUSH2 0x1D39 JUMP JUMPDEST PUSH1 0x4 DUP3 ADD PUSH1 0x0 PUSH2 0x100 EXP DUP2 SLOAD SWAP1 PUSH20 0xFFFFFFFFFFFFFFFFFFFFFFFFFFFFFFFFFFFFFFFF MUL NOT AND SWAP1 SSTORE POP POP POP POP POP POP POP POP POP JUMP JUMPDEST PUSH1 0x0 DUP1 PUSH1 0x0 DUP1 PUSH1 0x0 PUSH2 0x17B6 DUP7 PUSH2 0x733 JUMP JUMPDEST SWAP5 POP SWAP5 POP SWAP5 POP SWAP5 POP SWAP5 POP PUSH1 0x0 PUSH1 0x1 PUSH1 0x0 SWAP1 SLOAD SWAP1 PUSH2 0x100 EXP SWAP1 DIV PUSH20 0xFFFFFFFFFFFFFFFFFFFFFFFFFFFFFFFFFFFFFFFF AND PUSH20 0xFFFFFFFFFFFFFFFFFFFFFFFFFFFFFFFFFFFFFFFF AND PUSH4 0x8A97503D DUP7 DUP6 PUSH1 0x40 MLOAD DUP4 PUSH4 0xFFFFFFFF AND PUSH1 0xE0 SHL DUP2 MSTORE PUSH1 0x4 ADD PUSH2 0x181F SWAP3 SWAP2 SWAP1 PUSH2 0x26A7 JUMP JUMPDEST PUSH1 0x20 PUSH1 0x40 MLOAD DUP1 DUP4 SUB DUP2 DUP7 GAS STATICCALL ISZERO DUP1 ISZERO PUSH2 0x183C JUMPI RETURNDATASIZE PUSH1 0x0 DUP1 RETURNDATACOPY RETURNDATASIZE PUSH1 0x0 REVERT JUMPDEST POP POP POP POP PUSH1 0x40 MLOAD RETURNDATASIZE PUSH1 0x1F NOT PUSH1 0x1F DUP3 ADD AND DUP3 ADD DUP1 PUSH1 0x40 MSTORE POP DUP2 ADD SWAP1 PUSH2 0x1860 SWAP2 SWAP1 PUSH2 0x2703 JUMP JUMPDEST SWAP1 POP PUSH1 0x1 PUSH1 0x0 SWAP1 SLOAD SWAP1 PUSH2 0x100 EXP SWAP1 DIV PUSH20 0xFFFFFFFFFFFFFFFFFFFFFFFFFFFFFFFFFFFFFFFF AND PUSH20 0xFFFFFFFFFFFFFFFFFFFFFFFFFFFFFFFFFFFFFFFF AND PUSH4 0x4268DDBD DUP9 DUP4 CALLER PUSH1 0x40 MLOAD DUP5 PUSH4 0xFFFFFFFF AND PUSH1 0xE0 SHL DUP2 MSTORE PUSH1 0x4 ADD PUSH2 0x18C1 SWAP4 SWAP3 SWAP2 SWAP1 PUSH2 0x2730 JUMP JUMPDEST PUSH1 0x20 PUSH1 0x40 MLOAD DUP1 DUP4 SUB DUP2 PUSH1 0x0 DUP8 GAS CALL ISZERO DUP1 ISZERO PUSH2 0x18E0 JUMPI RETURNDATASIZE PUSH1 0x0 DUP1 RETURNDATACOPY RETURNDATASIZE PUSH1 0x0 REVERT JUMPDEST POP POP POP POP PUSH1 0x40 MLOAD RETURNDATASIZE PUSH1 0x1F NOT PUSH1 0x1F DUP3 ADD AND DUP3 ADD DUP1 PUSH1 0x40 MSTORE POP DUP2 ADD SWAP1 PUSH2 0x1904 SWAP2 SWAP1 PUSH2 0x2793 JUMP JUMPDEST PUSH2 0x1943 JUMPI PUSH1 0x40 MLOAD PUSH32 0x8C379A000000000000000000000000000000000000000000000000000000000 DUP2 MSTORE PUSH1 0x4 ADD PUSH2 0x193A SWAP1 PUSH2 0x2832 JUMP JUMPDEST PUSH1 0x40 MLOAD DUP1 SWAP2 SUB SWAP1 REVERT JUMPDEST PUSH1 0x5 DUP8 DUP2 SLOAD DUP2 LT PUSH2 0x1957 JUMPI PUSH2 0x1956 PUSH2 0x25CC JUMP JUMPDEST JUMPDEST SWAP1 PUSH1 0x0 MSTORE PUSH1 0x20 PUSH1 0x0 KECCAK256 SWAP1 PUSH1 0x5 MUL ADD PUSH1 0x0 DUP1 DUP3 ADD PUSH1 0x0 PUSH2 0x1976 SWAP2 SWAP1 PUSH2 0x1D39 JUMP JUMPDEST PUSH1 0x1 DUP3 ADD PUSH1 0x0 PUSH2 0x100 EXP DUP2 SLOAD SWAP1 PUSH20 0xFFFFFFFFFFFFFFFFFFFFFFFFFFFFFFFFFFFFFFFF MUL NOT AND SWAP1 SSTORE PUSH1 0x2 DUP3 ADD PUSH1 0x0 PUSH2 0x19AD SWAP2 SWAP1 PUSH2 0x1D39 JUMP JUMPDEST PUSH1 0x3 DUP3 ADD PUSH1 0x0 PUSH2 0x19BD SWAP2 SWAP1 PUSH2 0x1D39 JUMP JUMPDEST PUSH1 0x4 DUP3 ADD PUSH1 0x0 PUSH2 0x100 EXP DUP2 SLOAD SWAP1 PUSH20 0xFFFFFFFFFFFFFFFFFFFFFFFFFFFFFFFFFFFFFFFF MUL NOT AND SWAP1 SSTORE POP POP POP POP POP POP POP POP POP JUMP JUMPDEST PUSH1 0x0 PUSH1 0x1 PUSH1 0x0 SWAP1 SLOAD SWAP1 PUSH2 0x100 EXP SWAP1 DIV PUSH20 0xFFFFFFFFFFFFFFFFFFFFFFFFFFFFFFFFFFFFFFFF AND PUSH20 0xFFFFFFFFFFFFFFFFFFFFFFFFFFFFFFFFFFFFFFFF AND PUSH4 0x8A97503D DUP5 DUP5 PUSH1 0x40 MLOAD DUP4 PUSH4 0xFFFFFFFF AND PUSH1 0xE0 SHL DUP2 MSTORE PUSH1 0x4 ADD PUSH2 0x1A4E SWAP3 SWAP2 SWAP1 PUSH2 0x26A7 JUMP JUMPDEST PUSH1 0x20 PUSH1 0x40 MLOAD DUP1 DUP4 SUB DUP2 DUP7 GAS STATICCALL ISZERO DUP1 ISZERO PUSH2 0x1A6B JUMPI RETURNDATASIZE PUSH1 0x0 DUP1 RETURNDATACOPY RETURNDATASIZE PUSH1 0x0 REVERT JUMPDEST POP POP POP POP PUSH1 0x40 MLOAD RETURNDATASIZE PUSH1 0x1F NOT PUSH1 0x1F DUP3 ADD AND DUP3 ADD DUP1 PUSH1 0x40 MSTORE POP DUP2 ADD SWAP1 PUSH2 0x1A8F SWAP2 SWAP1 PUSH2 0x2703 JUMP JUMPDEST SWAP1 POP PUSH1 0x0 PUSH1 0x1 PUSH1 0x0 SWAP1 SLOAD SWAP1 PUSH2 0x100 EXP SWAP1 DIV PUSH20 0xFFFFFFFFFFFFFFFFFFFFFFFFFFFFFFFFFFFFFFFF AND PUSH20 0xFFFFFFFFFFFFFFFFFFFFFFFFFFFFFFFFFFFFFFFF AND PUSH4 0x435DF20D DUP4 PUSH1 0x40 MLOAD DUP3 PUSH4 0xFFFFFFFF AND PUSH1 0xE0 SHL DUP2 MSTORE PUSH1 0x4 ADD PUSH2 0x1AEE SWAP2 SWAP1 PUSH2 0x229C JUMP JUMPDEST PUSH1 0x0 PUSH1 0x40 MLOAD DUP1 DUP4 SUB DUP2 DUP7 GAS STATICCALL ISZERO DUP1 ISZERO PUSH2 0x1B0B JUMPI RETURNDATASIZE PUSH1 0x0 DUP1 RETURNDATACOPY RETURNDATASIZE PUSH1 0x0 REVERT JUMPDEST POP POP POP POP PUSH1 0x40 MLOAD RETURNDATASIZE PUSH1 0x0 DUP3 RETURNDATACOPY RETURNDATASIZE PUSH1 0x1F NOT PUSH1 0x1F DUP3 ADD AND DUP3 ADD DUP1 PUSH1 0x40 MSTORE POP DUP2 ADD SWAP1 PUSH2 0x1B34 SWAP2 SWAP1 PUSH2 0x28C2 JUMP JUMPDEST SWAP5 POP POP POP POP POP DUP1 PUSH20 0xFFFFFFFFFFFFFFFFFFFFFFFFFFFFFFFFFFFFFFFF AND CALLER PUSH20 0xFFFFFFFFFFFFFFFFFFFFFFFFFFFFFFFFFFFFFFFF AND EQ PUSH2 0x1B72 JUMPI PUSH1 0x0 DUP1 REVERT JUMPDEST PUSH1 0x1 PUSH1 0x0 SWAP1 SLOAD SWAP1 PUSH2 0x100 EXP SWAP1 DIV PUSH20 0xFFFFFFFFFFFFFFFFFFFFFFFFFFFFFFFFFFFFFFFF AND PUSH20 0xFFFFFFFFFFFFFFFFFFFFFFFFFFFFFFFFFFFFFFFF AND PUSH4 0x956A3545 DUP7 DUP5 PUSH1 0x40 MLOAD DUP4 PUSH4 0xFFFFFFFF AND PUSH1 0xE0 SHL DUP2 MSTORE PUSH1 0x4 ADD PUSH2 0x1BCF SWAP3 SWAP2 SWAP1 PUSH2 0x2991 JUMP JUMPDEST PUSH1 0x20 PUSH1 0x40 MLOAD DUP1 DUP4 SUB DUP2 PUSH1 0x0 DUP8 GAS CALL ISZERO DUP1 ISZERO PUSH2 0x1BEE JUMPI RETURNDATASIZE PUSH1 0x0 DUP1 RETURNDATACOPY RETURNDATASIZE PUSH1 0x0 REVERT JUMPDEST POP POP POP POP PUSH1 0x40 MLOAD RETURNDATASIZE PUSH1 0x1F NOT PUSH1 0x1F DUP3 ADD AND DUP3 ADD DUP1 PUSH1 0x40 MSTORE POP DUP2 ADD SWAP1 PUSH2 0x1C12 SWAP2 SWAP1 PUSH2 0x2793 JUMP JUMPDEST PUSH2 0x1C51 JUMPI PUSH1 0x40 MLOAD PUSH32 0x8C379A000000000000000000000000000000000000000000000000000000000 DUP2 MSTORE PUSH1 0x4 ADD PUSH2 0x1C48 SWAP1 PUSH2 0x2A2C JUMP JUMPDEST PUSH1 0x40 MLOAD DUP1 SWAP2 SUB SWAP1 REVERT JUMPDEST POP POP POP POP POP JUMP JUMPDEST PUSH1 0x40 MLOAD DUP1 PUSH1 0xA0 ADD PUSH1 0x40 MSTORE DUP1 PUSH1 0x60 DUP2 MSTORE PUSH1 0x20 ADD PUSH1 0x0 PUSH20 0xFFFFFFFFFFFFFFFFFFFFFFFFFFFFFFFFFFFFFFFF AND DUP2 MSTORE PUSH1 0x20 ADD PUSH1 0x60 DUP2 MSTORE PUSH1 0x20 ADD PUSH1 0x60 DUP2 MSTORE PUSH1 0x20 ADD PUSH1 0x0 PUSH20 0xFFFFFFFFFFFFFFFFFFFFFFFFFFFFFFFFFFFFFFFF AND DUP2 MSTORE POP SWAP1 JUMP JUMPDEST DUP3 DUP1 SLOAD PUSH2 0x1CBF SWAP1 PUSH2 0x252E JUMP JUMPDEST SWAP1 PUSH1 0x0 MSTORE PUSH1 0x20 PUSH1 0x0 KECCAK256 SWAP1 PUSH1 0x1F ADD PUSH1 0x20 SWAP1 DIV DUP2 ADD SWAP3 DUP3 PUSH2 0x1CE1 JUMPI PUSH1 0x0 DUP6 SSTORE PUSH2 0x1D28 JUMP JUMPDEST DUP3 PUSH1 0x1F LT PUSH2 0x1CFA JUMPI DUP1 MLOAD PUSH1 0xFF NOT AND DUP4 DUP1 ADD OR DUP6 SSTORE PUSH2 0x1D28 JUMP JUMPDEST DUP3 DUP1 ADD PUSH1 0x1 ADD DUP6 SSTORE DUP3 ISZERO PUSH2 0x1D28 JUMPI SWAP2 DUP3 ADD JUMPDEST DUP3 DUP2 GT ISZERO PUSH2 0x1D27 JUMPI DUP3 MLOAD DUP3 SSTORE SWAP2 PUSH1 0x20 ADD SWAP2 SWAP1 PUSH1 0x1 ADD SWAP1 PUSH2 0x1D0C JUMP JUMPDEST JUMPDEST POP SWAP1 POP PUSH2 0x1D35 SWAP2 SWAP1 PUSH2 0x1D79 JUMP JUMPDEST POP SWAP1 JUMP JUMPDEST POP DUP1 SLOAD PUSH2 0x1D45 SWAP1 PUSH2 0x252E JUMP JUMPDEST PUSH1 0x0 DUP3 SSTORE DUP1 PUSH1 0x1F LT PUSH2 0x1D57 JUMPI POP PUSH2 0x1D76 JUMP JUMPDEST PUSH1 0x1F ADD PUSH1 0x20 SWAP1 DIV SWAP1 PUSH1 0x0 MSTORE PUSH1 0x20 PUSH1 0x0 KECCAK256 SWAP1 DUP2 ADD SWAP1 PUSH2 0x1D75 SWAP2 SWAP1 PUSH2 0x1D79 JUMP JUMPDEST JUMPDEST POP JUMP JUMPDEST JUMPDEST DUP1 DUP3 GT ISZERO PUSH2 0x1D92 JUMPI PUSH1 0x0 DUP2 PUSH1 0x0 SWAP1 SSTORE POP PUSH1 0x1 ADD PUSH2 0x1D7A JUMP JUMPDEST POP SWAP1 JUMP JUMPDEST PUSH1 0x0 DUP2 SWAP1 POP SWAP2 SWAP1 POP JUMP JUMPDEST PUSH2 0x1DA9 DUP2 PUSH2 0x1D96 JUMP JUMPDEST DUP3 MSTORE POP POP JUMP JUMPDEST PUSH1 0x0 PUSH1 0x20 DUP3 ADD SWAP1 POP PUSH2 0x1DC4 PUSH1 0x0 DUP4 ADD DUP5 PUSH2 0x1DA0 JUMP JUMPDEST SWAP3 SWAP2 POP POP JUMP JUMPDEST PUSH1 0x0 DUP2 ISZERO ISZERO SWAP1 POP SWAP2 SWAP1 POP JUMP JUMPDEST PUSH2 0x1DDF DUP2 PUSH2 0x1DCA JUMP JUMPDEST DUP3 MSTORE POP POP JUMP JUMPDEST PUSH1 0x0 PUSH1 0x20 DUP3 ADD SWAP1 POP PUSH2 0x1DFA PUSH1 0x0 DUP4 ADD DUP5 PUSH2 0x1DD6 JUMP JUMPDEST SWAP3 SWAP2 POP POP JUMP JUMPDEST PUSH1 0x0 PUSH1 0x40 MLOAD SWAP1 POP SWAP1 JUMP JUMPDEST PUSH1 0x0 DUP1 REVERT JUMPDEST PUSH1 0x0 DUP1 REVERT JUMPDEST PUSH2 0x1E1D DUP2 PUSH2 0x1D96 JUMP JUMPDEST DUP2 EQ PUSH2 0x1E28 JUMPI PUSH1 0x0 DUP1 REVERT JUMPDEST POP JUMP JUMPDEST PUSH1 0x0 DUP2 CALLDATALOAD SWAP1 POP PUSH2 0x1E3A DUP2 PUSH2 0x1E14 JUMP JUMPDEST SWAP3 SWAP2 POP POP JUMP JUMPDEST PUSH1 0x0 PUSH1 0x20 DUP3 DUP5 SUB SLT ISZERO PUSH2 0x1E56 JUMPI PUSH2 0x1E55 PUSH2 0x1E0A JUMP JUMPDEST JUMPDEST PUSH1 0x0 PUSH2 0x1E64 DUP5 DUP3 DUP6 ADD PUSH2 0x1E2B JUMP JUMPDEST SWAP2 POP POP SWAP3 SWAP2 POP POP JUMP JUMPDEST PUSH1 0x0 DUP2 MLOAD SWAP1 POP SWAP2 SWAP1 POP JUMP JUMPDEST PUSH1 0x0 DUP3 DUP3 MSTORE PUSH1 0x20 DUP3 ADD SWAP1 POP SWAP3 SWAP2 POP POP JUMP JUMPDEST PUSH1 0x0 JUMPDEST DUP4 DUP2 LT ISZERO PUSH2 0x1EA7 JUMPI DUP1 DUP3 ADD MLOAD DUP2 DUP5 ADD MSTORE PUSH1 0x20 DUP2 ADD SWAP1 POP PUSH2 0x1E8C JUMP JUMPDEST DUP4 DUP2 GT ISZERO PUSH2 0x1EB6 JUMPI PUSH1 0x0 DUP5 DUP5 ADD MSTORE JUMPDEST POP POP POP POP JUMP JUMPDEST PUSH1 0x0 PUSH1 0x1F NOT PUSH1 0x1F DUP4 ADD AND SWAP1 POP SWAP2 SWAP1 POP JUMP JUMPDEST PUSH1 0x0 PUSH2 0x1ED8 DUP3 PUSH2 0x1E6D JUMP JUMPDEST PUSH2 0x1EE2 DUP2 DUP6 PUSH2 0x1E78 JUMP JUMPDEST SWAP4 POP PUSH2 0x1EF2 DUP2 DUP6 PUSH1 0x20 DUP7 ADD PUSH2 0x1E89 JUMP JUMPDEST PUSH2 0x1EFB DUP2 PUSH2 0x1EBC JUMP JUMPDEST DUP5 ADD SWAP2 POP POP SWAP3 SWAP2 POP POP JUMP JUMPDEST PUSH1 0x0 PUSH20 0xFFFFFFFFFFFFFFFFFFFFFFFFFFFFFFFFFFFFFFFF DUP3 AND SWAP1 POP SWAP2 SWAP1 POP JUMP JUMPDEST PUSH1 0x0 PUSH2 0x1F31 DUP3 PUSH2 0x1F06 JUMP JUMPDEST SWAP1 POP SWAP2 SWAP1 POP JUMP JUMPDEST PUSH2 0x1F41 DUP2 PUSH2 0x1F26 JUMP JUMPDEST DUP3 MSTORE POP POP JUMP JUMPDEST PUSH1 0x0 PUSH1 0xA0 DUP3 ADD SWAP1 POP DUP2 DUP2 SUB PUSH1 0x0 DUP4 ADD MSTORE PUSH2 0x1F61 DUP2 DUP9 PUSH2 0x1ECD JUMP JUMPDEST SWAP1 POP PUSH2 0x1F70 PUSH1 0x20 DUP4 ADD DUP8 PUSH2 0x1F38 JUMP JUMPDEST DUP2 DUP2 SUB PUSH1 0x40 DUP4 ADD MSTORE PUSH2 0x1F82 DUP2 DUP7 PUSH2 0x1ECD JUMP JUMPDEST SWAP1 POP DUP2 DUP2 SUB PUSH1 0x60 DUP4 ADD MSTORE PUSH2 0x1F96 DUP2 DUP6 PUSH2 0x1ECD JUMP JUMPDEST SWAP1 POP PUSH2 0x1FA5 PUSH1 0x80 DUP4 ADD DUP5 PUSH2 0x1F38 JUMP JUMPDEST SWAP7 SWAP6 POP POP POP POP POP POP JUMP JUMPDEST PUSH1 0x0 PUSH1 0x20 DUP3 ADD SWAP1 POP PUSH2 0x1FC4 PUSH1 0x0 DUP4 ADD DUP5 PUSH2 0x1F38 JUMP JUMPDEST SWAP3 SWAP2 POP POP JUMP JUMPDEST PUSH1 0x0 DUP1 REVERT JUMPDEST PUSH1 0x0 DUP1 REVERT JUMPDEST PUSH32 0x4E487B7100000000000000000000000000000000000000000000000000000000 PUSH1 0x0 MSTORE PUSH1 0x41 PUSH1 0x4 MSTORE PUSH1 0x24 PUSH1 0x0 REVERT JUMPDEST PUSH2 0x200C DUP3 PUSH2 0x1EBC JUMP JUMPDEST DUP2 ADD DUP2 DUP2 LT PUSH8 0xFFFFFFFFFFFFFFFF DUP3 GT OR ISZERO PUSH2 0x202B JUMPI PUSH2 0x202A PUSH2 0x1FD4 JUMP JUMPDEST JUMPDEST DUP1 PUSH1 0x40 MSTORE POP POP POP JUMP JUMPDEST PUSH1 0x0 PUSH2 0x203E PUSH2 0x1E00 JUMP JUMPDEST SWAP1 POP PUSH2 0x204A DUP3 DUP3 PUSH2 0x2003 JUMP JUMPDEST SWAP2 SWAP1 POP JUMP JUMPDEST PUSH1 0x0 PUSH8 0xFFFFFFFFFFFFFFFF DUP3 GT ISZERO PUSH2 0x206A JUMPI PUSH2 0x2069 PUSH2 0x1FD4 JUMP JUMPDEST JUMPDEST PUSH2 0x2073 DUP3 PUSH2 0x1EBC JUMP JUMPDEST SWAP1 POP PUSH1 0x20 DUP2 ADD SWAP1 POP SWAP2 SWAP1 POP JUMP JUMPDEST DUP3 DUP2 DUP4 CALLDATACOPY PUSH1 0x0 DUP4 DUP4 ADD MSTORE POP POP POP JUMP JUMPDEST PUSH1 0x0 PUSH2 0x20A2 PUSH2 0x209D DUP5 PUSH2 0x204F JUMP JUMPDEST PUSH2 0x2034 JUMP JUMPDEST SWAP1 POP DUP3 DUP2 MSTORE PUSH1 0x20 DUP2 ADD DUP5 DUP5 DUP5 ADD GT ISZERO PUSH2 0x20BE JUMPI PUSH2 0x20BD PUSH2 0x1FCF JUMP JUMPDEST JUMPDEST PUSH2 0x20C9 DUP5 DUP3 DUP6 PUSH2 0x2080 JUMP JUMPDEST POP SWAP4 SWAP3 POP POP POP JUMP JUMPDEST PUSH1 0x0 DUP3 PUSH1 0x1F DUP4 ADD SLT PUSH2 0x20E6 JUMPI PUSH2 0x20E5 PUSH2 0x1FCA JUMP JUMPDEST JUMPDEST DUP2 CALLDATALOAD PUSH2 0x20F6 DUP5 DUP3 PUSH1 0x20 DUP7 ADD PUSH2 0x208F JUMP JUMPDEST SWAP2 POP POP SWAP3 SWAP2 POP POP JUMP JUMPDEST PUSH2 0x2108 DUP2 PUSH2 0x1F26 JUMP JUMPDEST DUP2 EQ PUSH2 0x2113 JUMPI PUSH1 0x0 DUP1 REVERT JUMPDEST POP JUMP JUMPDEST PUSH1 0x0 DUP2 CALLDATALOAD SWAP1 POP PUSH2 0x2125 DUP2 PUSH2 0x20FF JUMP JUMPDEST SWAP3 SWAP2 POP POP JUMP JUMPDEST PUSH1 0x0 DUP1 PUSH1 0x0 DUP1 PUSH1 0x0 PUSH1 0xA0 DUP7 DUP9 SUB SLT ISZERO PUSH2 0x2147 JUMPI PUSH2 0x2146 PUSH2 0x1E0A JUMP JUMPDEST JUMPDEST PUSH1 0x0 DUP7 ADD CALLDATALOAD PUSH8 0xFFFFFFFFFFFFFFFF DUP2 GT ISZERO PUSH2 0x2165 JUMPI PUSH2 0x2164 PUSH2 0x1E0F JUMP JUMPDEST JUMPDEST PUSH2 0x2171 DUP9 DUP3 DUP10 ADD PUSH2 0x20D1 JUMP JUMPDEST SWAP6 POP POP PUSH1 0x20 PUSH2 0x2182 DUP9 DUP3 DUP10 ADD PUSH2 0x2116 JUMP JUMPDEST SWAP5 POP POP PUSH1 0x40 DUP7 ADD CALLDATALOAD PUSH8 0xFFFFFFFFFFFFFFFF DUP2 GT ISZERO PUSH2 0x21A3 JUMPI PUSH2 0x21A2 PUSH2 0x1E0F JUMP JUMPDEST JUMPDEST PUSH2 0x21AF DUP9 DUP3 DUP10 ADD PUSH2 0x20D1 JUMP JUMPDEST SWAP4 POP POP PUSH1 0x60 DUP7 ADD CALLDATALOAD PUSH8 0xFFFFFFFFFFFFFFFF DUP2 GT ISZERO PUSH2 0x21D0 JUMPI PUSH2 0x21CF PUSH2 0x1E0F JUMP JUMPDEST JUMPDEST PUSH2 0x21DC DUP9 DUP3 DUP10 ADD PUSH2 0x20D1 JUMP JUMPDEST SWAP3 POP POP PUSH1 0x80 PUSH2 0x21ED DUP9 DUP3 DUP10 ADD PUSH2 0x2116 JUMP JUMPDEST SWAP2 POP POP SWAP3 SWAP6 POP SWAP3 SWAP6 SWAP1 SWAP4 POP JUMP JUMPDEST PUSH1 0x0 PUSH1 0x20 DUP3 DUP5 SUB SLT ISZERO PUSH2 0x2210 JUMPI PUSH2 0x220F PUSH2 0x1E0A JUMP JUMPDEST JUMPDEST PUSH1 0x0 PUSH2 0x221E DUP5 DUP3 DUP6 ADD PUSH2 0x2116 JUMP JUMPDEST SWAP2 POP POP SWAP3 SWAP2 POP POP JUMP JUMPDEST PUSH1 0x0 DUP1 PUSH1 0x40 DUP4 DUP6 SUB SLT ISZERO PUSH2 0x223E JUMPI PUSH2 0x223D PUSH2 0x1E0A JUMP JUMPDEST JUMPDEST PUSH1 0x0 PUSH2 0x224C DUP6 DUP3 DUP7 ADD PUSH2 0x2116 JUMP JUMPDEST SWAP3 POP POP PUSH1 0x20 DUP4 ADD CALLDATALOAD PUSH8 0xFFFFFFFFFFFFFFFF DUP2 GT ISZERO PUSH2 0x226D JUMPI PUSH2 0x226C PUSH2 0x1E0F JUMP JUMPDEST JUMPDEST PUSH2 0x2279 DUP6 DUP3 DUP7 ADD PUSH2 0x20D1 JUMP JUMPDEST SWAP2 POP POP SWAP3 POP SWAP3 SWAP1 POP JUMP JUMPDEST PUSH1 0x0 DUP2 SWAP1 POP SWAP2 SWAP1 POP JUMP JUMPDEST PUSH2 0x2296 DUP2 PUSH2 0x2283 JUMP JUMPDEST DUP3 MSTORE POP POP JUMP JUMPDEST PUSH1 0x0 PUSH1 0x20 DUP3 ADD SWAP1 POP PUSH2 0x22B1 PUSH1 0x0 DUP4 ADD DUP5 PUSH2 0x228D JUMP JUMPDEST SWAP3 SWAP2 POP POP JUMP JUMPDEST PUSH1 0x0 DUP1 PUSH1 0x0 DUP1 PUSH1 0x0 DUP1 PUSH1 0xC0 DUP8 DUP10 SUB SLT ISZERO PUSH2 0x22D4 JUMPI PUSH2 0x22D3 PUSH2 0x1E0A JUMP JUMPDEST JUMPDEST PUSH1 0x0 DUP8 ADD CALLDATALOAD PUSH8 0xFFFFFFFFFFFFFFFF DUP2 GT ISZERO PUSH2 0x22F2 JUMPI PUSH2 0x22F1 PUSH2 0x1E0F JUMP JUMPDEST JUMPDEST PUSH2 0x22FE DUP10 DUP3 DUP11 ADD PUSH2 0x20D1 JUMP JUMPDEST SWAP7 POP POP PUSH1 0x20 PUSH2 0x230F DUP10 DUP3 DUP11 ADD PUSH2 0x2116 JUMP JUMPDEST SWAP6 POP POP PUSH1 0x40 DUP8 ADD CALLDATALOAD PUSH8 0xFFFFFFFFFFFFFFFF DUP2 GT ISZERO PUSH2 0x2330 JUMPI PUSH2 0x232F PUSH2 0x1E0F JUMP JUMPDEST JUMPDEST PUSH2 0x233C DUP10 DUP3 DUP11 ADD PUSH2 0x20D1 JUMP JUMPDEST SWAP5 POP POP PUSH1 0x60 DUP8 ADD CALLDATALOAD PUSH8 0xFFFFFFFFFFFFFFFF DUP2 GT ISZERO PUSH2 0x235D JUMPI PUSH2 0x235C PUSH2 0x1E0F JUMP JUMPDEST JUMPDEST PUSH2 0x2369 DUP10 DUP3 DUP11 ADD PUSH2 0x20D1 JUMP JUMPDEST SWAP4 POP POP PUSH1 0x80 PUSH2 0x237A DUP10 DUP3 DUP11 ADD PUSH2 0x2116 JUMP JUMPDEST SWAP3 POP POP PUSH1 0xA0 PUSH2 0x238B DUP10 DUP3 DUP11 ADD PUSH2 0x2116 JUMP JUMPDEST SWAP2 POP POP SWAP3 SWAP6 POP SWAP3 SWAP6 POP SWAP3 SWAP6 JUMP JUMPDEST PUSH1 0x0 DUP2 SWAP1 POP SWAP2 SWAP1 POP JUMP JUMPDEST PUSH1 0x0 PUSH2 0x23BD PUSH2 0x23B8 PUSH2 0x23B3 DUP5 PUSH2 0x1F06 JUMP JUMPDEST PUSH2 0x2398 JUMP JUMPDEST PUSH2 0x1F06 JUMP JUMPDEST SWAP1 POP SWAP2 SWAP1 POP JUMP JUMPDEST PUSH1 0x0 PUSH2 0x23CF DUP3 PUSH2 0x23A2 JUMP JUMPDEST SWAP1 POP SWAP2 SWAP1 POP JUMP JUMPDEST PUSH1 0x0 PUSH2 0x23E1 DUP3 PUSH2 0x23C4 JUMP JUMPDEST SWAP1 POP SWAP2 SWAP1 POP JUMP JUMPDEST PUSH2 0x23F1 DUP2 PUSH2 0x23D6 JUMP JUMPDEST DUP3 MSTORE POP POP JUMP JUMPDEST PUSH1 0x0 PUSH1 0x20 DUP3 ADD SWAP1 POP PUSH2 0x240C PUSH1 0x0 DUP4 ADD DUP5 PUSH2 0x23E8 JUMP JUMPDEST SWAP3 SWAP2 POP POP JUMP JUMPDEST PUSH1 0x0 PUSH2 0x241D DUP3 PUSH2 0x23C4 JUMP JUMPDEST SWAP1 POP SWAP2 SWAP1 POP JUMP JUMPDEST PUSH2 0x242D DUP2 PUSH2 0x2412 JUMP JUMPDEST DUP3 MSTORE POP POP JUMP JUMPDEST PUSH1 0x0 PUSH1 0x20 DUP3 ADD SWAP1 POP PUSH2 0x2448 PUSH1 0x0 DUP4 ADD DUP5 PUSH2 0x2424 JUMP JUMPDEST SWAP3 SWAP2 POP POP JUMP JUMPDEST PUSH1 0x0 DUP1 PUSH1 0x0 PUSH1 0x60 DUP5 DUP7 SUB SLT ISZERO PUSH2 0x2467 JUMPI PUSH2 0x2466 PUSH2 0x1E0A JUMP JUMPDEST JUMPDEST PUSH1 0x0 PUSH2 0x2475 DUP7 DUP3 DUP8 ADD PUSH2 0x1E2B JUMP JUMPDEST SWAP4 POP POP PUSH1 0x20 PUSH2 0x2486 DUP7 DUP3 DUP8 ADD PUSH2 0x2116 JUMP JUMPDEST SWAP3 POP POP PUSH1 0x40 DUP5 ADD CALLDATALOAD PUSH8 0xFFFFFFFFFFFFFFFF DUP2 GT ISZERO PUSH2 0x24A7 JUMPI PUSH2 0x24A6 PUSH2 0x1E0F JUMP JUMPDEST JUMPDEST PUSH2 0x24B3 DUP7 DUP3 DUP8 ADD PUSH2 0x20D1 JUMP JUMPDEST SWAP2 POP POP SWAP3 POP SWAP3 POP SWAP3 JUMP JUMPDEST PUSH1 0x0 DUP2 MLOAD SWAP1 POP PUSH2 0x24CC DUP2 PUSH2 0x20FF JUMP JUMPDEST SWAP3 SWAP2 POP POP JUMP JUMPDEST PUSH1 0x0 PUSH1 0x20 DUP3 DUP5 SUB SLT ISZERO PUSH2 0x24E8 JUMPI PUSH2 0x24E7 PUSH2 0x1E0A JUMP JUMPDEST JUMPDEST PUSH1 0x0 PUSH2 0x24F6 DUP5 DUP3 DUP6 ADD PUSH2 0x24BD JUMP JUMPDEST SWAP2 POP POP SWAP3 SWAP2 POP POP JUMP JUMPDEST PUSH32 0x4E487B7100000000000000000000000000000000000000000000000000000000 PUSH1 0x0 MSTORE PUSH1 0x22 PUSH1 0x4 MSTORE PUSH1 0x24 PUSH1 0x0 REVERT JUMPDEST PUSH1 0x0 PUSH1 0x2 DUP3 DIV SWAP1 POP PUSH1 0x1 DUP3 AND DUP1 PUSH2 0x2546 JUMPI PUSH1 0x7F DUP3 AND SWAP2 POP JUMPDEST PUSH1 0x20 DUP3 LT DUP2 EQ ISZERO PUSH2 0x255A JUMPI PUSH2 0x2559 PUSH2 0x24FF JUMP JUMPDEST JUMPDEST POP SWAP2 SWAP1 POP JUMP JUMPDEST PUSH32 0x496E646578206F7574206F6620626F756E647300000000000000000000000000 PUSH1 0x0 DUP3 ADD MSTORE POP JUMP JUMPDEST PUSH1 0x0 PUSH2 0x2596 PUSH1 0x13 DUP4 PUSH2 0x1E78 JUMP JUMPDEST SWAP2 POP PUSH2 0x25A1 DUP3 PUSH2 0x2560 JUMP JUMPDEST PUSH1 0x20 DUP3 ADD SWAP1 POP SWAP2 SWAP1 POP JUMP JUMPDEST PUSH1 0x0 PUSH1 0x20 DUP3 ADD SWAP1 POP DUP2 DUP2 SUB PUSH1 0x0 DUP4 ADD MSTORE PUSH2 0x25C5 DUP2 PUSH2 0x2589 JUMP JUMPDEST SWAP1 POP SWAP2 SWAP1 POP JUMP JUMPDEST PUSH32 0x4E487B7100000000000000000000000000000000000000000000000000000000 PUSH1 0x0 MSTORE PUSH1 0x32 PUSH1 0x4 MSTORE PUSH1 0x24 PUSH1 0x0 REVERT JUMPDEST PUSH1 0x0 DUP2 PUSH1 0x60 SHL SWAP1 POP SWAP2 SWAP1 POP JUMP JUMPDEST PUSH1 0x0 PUSH2 0x2613 DUP3 PUSH2 0x25FB JUMP JUMPDEST SWAP1 POP SWAP2 SWAP1 POP JUMP JUMPDEST PUSH1 0x0 PUSH2 0x2625 DUP3 PUSH2 0x2608 JUMP JUMPDEST SWAP1 POP SWAP2 SWAP1 POP JUMP JUMPDEST PUSH2 0x263D PUSH2 0x2638 DUP3 PUSH2 0x1F26 JUMP JUMPDEST PUSH2 0x261A JUMP JUMPDEST DUP3 MSTORE POP POP JUMP JUMPDEST PUSH1 0x0 DUP2 SWAP1 POP SWAP3 SWAP2 POP POP JUMP JUMPDEST PUSH1 0x0 PUSH2 0x2659 DUP3 PUSH2 0x1E6D JUMP JUMPDEST PUSH2 0x2663 DUP2 DUP6 PUSH2 0x2643 JUMP JUMPDEST SWAP4 POP PUSH2 0x2673 DUP2 DUP6 PUSH1 0x20 DUP7 ADD PUSH2 0x1E89 JUMP JUMPDEST DUP1 DUP5 ADD SWAP2 POP POP SWAP3 SWAP2 POP POP JUMP JUMPDEST PUSH1 0x0 PUSH2 0x268B DUP3 DUP6 PUSH2 0x262C JUMP JUMPDEST PUSH1 0x14 DUP3 ADD SWAP2 POP PUSH2 0x269B DUP3 DUP5 PUSH2 0x264E JUMP JUMPDEST SWAP2 POP DUP2 SWAP1 POP SWAP4 SWAP3 POP POP POP JUMP JUMPDEST PUSH1 0x0 PUSH1 0x40 DUP3 ADD SWAP1 POP PUSH2 0x26BC PUSH1 0x0 DUP4 ADD DUP6 PUSH2 0x1F38 JUMP JUMPDEST DUP2 DUP2 SUB PUSH1 0x20 DUP4 ADD MSTORE PUSH2 0x26CE DUP2 DUP5 PUSH2 0x1ECD JUMP JUMPDEST SWAP1 POP SWAP4 SWAP3 POP POP POP JUMP JUMPDEST PUSH2 0x26E0 DUP2 PUSH2 0x2283 JUMP JUMPDEST DUP2 EQ PUSH2 0x26EB JUMPI PUSH1 0x0 DUP1 REVERT JUMPDEST POP JUMP JUMPDEST PUSH1 0x0 DUP2 MLOAD SWAP1 POP PUSH2 0x26FD DUP2 PUSH2 0x26D7 JUMP JUMPDEST SWAP3 SWAP2 POP POP JUMP JUMPDEST PUSH1 0x0 PUSH1 0x20 DUP3 DUP5 SUB SLT ISZERO PUSH2 0x2719 JUMPI PUSH2 0x2718 PUSH2 0x1E0A JUMP JUMPDEST JUMPDEST PUSH1 0x0 PUSH2 0x2727 DUP5 DUP3 DUP6 ADD PUSH2 0x26EE JUMP JUMPDEST SWAP2 POP POP SWAP3 SWAP2 POP POP JUMP JUMPDEST PUSH1 0x0 PUSH1 0x60 DUP3 ADD SWAP1 POP PUSH2 0x2745 PUSH1 0x0 DUP4 ADD DUP7 PUSH2 0x1DA0 JUMP JUMPDEST PUSH2 0x2752 PUSH1 0x20 DUP4 ADD DUP6 PUSH2 0x228D JUMP JUMPDEST PUSH2 0x275F PUSH1 0x40 DUP4 ADD DUP5 PUSH2 0x1F38 JUMP JUMPDEST SWAP5 SWAP4 POP POP POP POP JUMP JUMPDEST PUSH2 0x2770 DUP2 PUSH2 0x1DCA JUMP JUMPDEST DUP2 EQ PUSH2 0x277B JUMPI PUSH1 0x0 DUP1 REVERT JUMPDEST POP JUMP JUMPDEST PUSH1 0x0 DUP2 MLOAD SWAP1 POP PUSH2 0x278D DUP2 PUSH2 0x2767 JUMP JUMPDEST SWAP3 SWAP2 POP POP JUMP JUMPDEST PUSH1 0x0 PUSH1 0x20 DUP3 DUP5 SUB SLT ISZERO PUSH2 0x27A9 JUMPI PUSH2 0x27A8 PUSH2 0x1E0A JUMP JUMPDEST JUMPDEST PUSH1 0x0 PUSH2 0x27B7 DUP5 DUP3 DUP6 ADD PUSH2 0x277E JUMP JUMPDEST SWAP2 POP POP SWAP3 SWAP2 POP POP JUMP JUMPDEST PUSH32 0x4661696C656420746F2061646420696E7374697475746520746F207374756465 PUSH1 0x0 DUP3 ADD MSTORE PUSH32 0x6E7420696E666F00000000000000000000000000000000000000000000000000 PUSH1 0x20 DUP3 ADD MSTORE POP JUMP JUMPDEST PUSH1 0x0 PUSH2 0x281C PUSH1 0x27 DUP4 PUSH2 0x1E78 JUMP JUMPDEST SWAP2 POP PUSH2 0x2827 DUP3 PUSH2 0x27C0 JUMP JUMPDEST PUSH1 0x40 DUP3 ADD SWAP1 POP SWAP2 SWAP1 POP JUMP JUMPDEST PUSH1 0x0 PUSH1 0x20 DUP3 ADD SWAP1 POP DUP2 DUP2 SUB PUSH1 0x0 DUP4 ADD MSTORE PUSH2 0x284B DUP2 PUSH2 0x280F JUMP JUMPDEST SWAP1 POP SWAP2 SWAP1 POP JUMP JUMPDEST PUSH1 0x0 PUSH2 0x2865 PUSH2 0x2860 DUP5 PUSH2 0x204F JUMP JUMPDEST PUSH2 0x2034 JUMP JUMPDEST SWAP1 POP DUP3 DUP2 MSTORE PUSH1 0x20 DUP2 ADD DUP5 DUP5 DUP5 ADD GT ISZERO PUSH2 0x2881 JUMPI PUSH2 0x2880 PUSH2 0x1FCF JUMP JUMPDEST JUMPDEST PUSH2 0x288C DUP5 DUP3 DUP6 PUSH2 0x1E89 JUMP JUMPDEST POP SWAP4 SWAP3 POP POP POP JUMP JUMPDEST PUSH1 0x0 DUP3 PUSH1 0x1F DUP4 ADD SLT PUSH2 0x28A9 JUMPI PUSH2 0x28A8 PUSH2 0x1FCA JUMP JUMPDEST JUMPDEST DUP2 MLOAD PUSH2 0x28B9 DUP5 DUP3 PUSH1 0x20 DUP7 ADD PUSH2 0x2852 JUMP JUMPDEST SWAP2 POP POP SWAP3 SWAP2 POP POP JUMP JUMPDEST PUSH1 0x0 DUP1 PUSH1 0x0 DUP1 PUSH1 0x0 PUSH1 0xA0 DUP7 DUP9 SUB SLT ISZERO PUSH2 0x28DE JUMPI PUSH2 0x28DD PUSH2 0x1E0A JUMP JUMPDEST JUMPDEST PUSH1 0x0 DUP7 ADD MLOAD PUSH8 0xFFFFFFFFFFFFFFFF DUP2 GT ISZERO PUSH2 0x28FC JUMPI PUSH2 0x28FB PUSH2 0x1E0F JUMP JUMPDEST JUMPDEST PUSH2 0x2908 DUP9 DUP3 DUP10 ADD PUSH2 0x2894 JUMP JUMPDEST SWAP6 POP POP PUSH1 0x20 PUSH2 0x2919 DUP9 DUP3 DUP10 ADD PUSH2 0x24BD JUMP JUMPDEST SWAP5 POP POP PUSH1 0x40 DUP7 ADD MLOAD PUSH8 0xFFFFFFFFFFFFFFFF DUP2 GT ISZERO PUSH2 0x293A JUMPI PUSH2 0x2939 PUSH2 0x1E0F JUMP JUMPDEST JUMPDEST PUSH2 0x2946 DUP9 DUP3 DUP10 ADD PUSH2 0x2894 JUMP JUMPDEST SWAP4 POP POP PUSH1 0x60 DUP7 ADD MLOAD PUSH8 0xFFFFFFFFFFFFFFFF DUP2 GT ISZERO PUSH2 0x2967 JUMPI PUSH2 0x2966 PUSH2 0x1E0F JUMP JUMPDEST JUMPDEST PUSH2 0x2973 DUP9 DUP3 DUP10 ADD PUSH2 0x2894 JUMP JUMPDEST SWAP3 POP POP PUSH1 0x80 PUSH2 0x2984 DUP9 DUP3 DUP10 ADD PUSH2 0x24BD JUMP JUMPDEST SWAP2 POP POP SWAP3 SWAP6 POP SWAP3 SWAP6 SWAP1 SWAP4 POP JUMP JUMPDEST PUSH1 0x0 PUSH1 0x40 DUP3 ADD SWAP1 POP PUSH2 0x29A6 PUSH1 0x0 DUP4 ADD DUP6 PUSH2 0x1DA0 JUMP JUMPDEST PUSH2 0x29B3 PUSH1 0x20 DUP4 ADD DUP5 PUSH2 0x228D JUMP JUMPDEST SWAP4 SWAP3 POP POP POP JUMP JUMPDEST PUSH32 0x4661696C656420746F2072656D6F766520696E737469747574652066726F6D20 PUSH1 0x0 DUP3 ADD MSTORE PUSH32 0x73747564656E7420696E666F0000000000000000000000000000000000000000 PUSH1 0x20 DUP3 ADD MSTORE POP JUMP JUMPDEST PUSH1 0x0 PUSH2 0x2A16 PUSH1 0x2C DUP4 PUSH2 0x1E78 JUMP JUMPDEST SWAP2 POP PUSH2 0x2A21 DUP3 PUSH2 0x29BA JUMP JUMPDEST PUSH1 0x40 DUP3 ADD SWAP1 POP SWAP2 SWAP1 POP JUMP JUMPDEST PUSH1 0x0 PUSH1 0x20 DUP3 ADD SWAP1 POP DUP2 DUP2 SUB PUSH1 0x0 DUP4 ADD MSTORE PUSH2 0x2A45 DUP2 PUSH2 0x2A09 JUMP JUMPDEST SWAP1 POP SWAP2 SWAP1 POP JUMP INVALID LOG2 PUSH5 0x6970667358 0x22 SLT KECCAK256 MUL SAR PUSH21 0x4577F07E171FF494DFC720D98D65DA633D1F991664 0x21 0xD8 PUSH3 0xCFFAFA 0xD1 0xD9 PUSH5 0x736F6C6343 STOP ADDMOD EXP STOP CALLER "
    },
    "gasEstimates": {
      "creation": {
        "codeDepositCost": "2176400",
        "executionCost": "infinite",
        "totalCost": "infinite"
      },
      "external": {
        "MOE()": "2623",
        "StudentsCount()": "2469",
        "addStudToPending(string,address,string,string,address)": "infinite",
        "addTransferStudToPending(string,address,string,string,address,address)": "infinite",
        "checkFunction()": "infinite",
        "generateKey(address,string)": "infinite",
        "getPendingStudentByindex(uint256)": "infinite",
        "getPendingStudentsCount()": "2512",
        "getStudentContractByAddress(address)": "infinite",
        "getTransferStudentByindex(uint256)": "infinite",
        "getTransferStudentsCount()": "2556",
        "instregd()": "infinite",
        "isStudent(address)": "2949",
        "pendingStudentsarray(uint256)": "infinite",
        "removeGraduateStud(uint256,address,string)": "infinite",
        "studentRegisterContractAddress()": "2603",
        "studreg()": "infinite",
        "transferStudentsarray(uint256)": "infinite",
        "trialnumber()": "2518",
        "verifyTransferstudent(uint256)": "infinite",
        "verifystudent(uint256)": "infinite"
      }
    },
    "methodIdentifiers": {
      "MOE()": "673a1746",
      "StudentsCount()": "20b260e3",
      "addStudToPending(string,address,string,string,address)": "78cfe85e",
      "addTransferStudToPending(string,address,string,string,address,address)": "b16f9023",
      "checkFunction()": "2ecca5fe",
      "generateKey(address,string)": "8a97503d",
      "getPendingStudentByindex(uint256)": "5b969a04",
      "getPendingStudentsCount()": "b1be843d",
      "getStudentContractByAddress(address)": "ca90543d",
      "getTransferStudentByindex(uint256)": "a4156aec",
      "getTransferStudentsCount()": "a2a1fee5",
      "instregd()": "bae0a585",
      "isStudent(address)": "82f7d392",
      "pendingStudentsarray(uint256)": "bd6a8504",
      "removeGraduateStud(uint256,address,string)": "f20bcf9a",
      "studentRegisterContractAddress()": "b7774c1a",
      "studreg()": "c865d881",
      "transferStudentsarray(uint256)": "548d434e",
      "trialnumber()": "911018ef",
      "verifyTransferstudent(uint256)": "da085b7a",
      "verifystudent(uint256)": "f00c848d"
    }
  },
  "storageLayout": {
    "storage": [
      {
        "astId": 2243,
        "contract": "verifystud.sol:verifystud",
        "label": "MOE",
        "offset": 0,
        "slot": "0",
        "type": "t_address"
      },
      {
        "astId": 2246,
        "contract": "verifystud.sol:verifystud",
        "label": "studreg",
        "offset": 0,
        "slot": "1",
        "type": "t_contract(registerStud)1202"
      },
      {
        "astId": 2249,
        "contract": "verifystud.sol:verifystud",
        "label": "instregd",
        "offset": 0,
        "slot": "2",
        "type": "t_contract(verifyinst)2233"
      },
      {
        "astId": 2251,
        "contract": "verifystud.sol:verifystud",
        "label": "studentRegisterContractAddress",
        "offset": 0,
        "slot": "3",
        "type": "t_address"
      },
      {
        "astId": 2254,
        "contract": "verifystud.sol:verifystud",
        "label": "trialnumber",
        "offset": 0,
        "slot": "4",
        "type": "t_uint256"
      },
      {
        "astId": 2309,
        "contract": "verifystud.sol:verifystud",
        "label": "pendingStudentsarray",
        "offset": 0,
        "slot": "5",
        "type": "t_array(t_struct(pendingstudents)2305_storage)dyn_storage"
      },
      {
        "astId": 2313,
        "contract": "verifystud.sol:verifystud",
        "label": "transferStudentsarray",
        "offset": 0,
        "slot": "6",
        "type": "t_array(t_struct(pendingstudents)2305_storage)dyn_storage"
      },
      {
        "astId": 2317,
        "contract": "verifystud.sol:verifystud",
        "label": "registeredStudentsmap",
        "offset": 0,
        "slot": "7",
        "type": "t_mapping(t_address,t_address)"
      },
      {
        "astId": 2320,
        "contract": "verifystud.sol:verifystud",
        "label": "registeredStudents",
        "offset": 0,
        "slot": "8",
        "type": "t_array(t_address)dyn_storage"
      }
    ],
    "types": {
      "t_address": {
        "encoding": "inplace",
        "label": "address",
        "numberOfBytes": "20"
      },
      "t_array(t_address)dyn_storage": {
        "base": "t_address",
        "encoding": "dynamic_array",
        "label": "address[]",
        "numberOfBytes": "32"
      },
      "t_array(t_struct(pendingstudents)2305_storage)dyn_storage": {
        "base": "t_struct(pendingstudents)2305_storage",
        "encoding": "dynamic_array",
        "label": "struct verifystud.pendingstudents[]",
        "numberOfBytes": "32"
      },
      "t_contract(registerStud)1202": {
        "encoding": "inplace",
        "label": "contract registerStud",
        "numberOfBytes": "20"
      },
      "t_contract(verifyinst)2233": {
        "encoding": "inplace",
        "label": "contract verifyinst",
        "numberOfBytes": "20"
      },
      "t_mapping(t_address,t_address)": {
        "encoding": "mapping",
        "key": "t_address",
        "label": "mapping(address => address)",
        "numberOfBytes": "32",
        "value": "t_address"
      },
      "t_string_storage": {
        "encoding": "bytes",
        "label": "string",
        "numberOfBytes": "32"
      },
      "t_struct(pendingstudents)2305_storage": {
        "encoding": "inplace",
        "label": "struct verifystud.pendingstudents",
        "members": [
          {
            "astId": 2296,
            "contract": "verifystud.sol:verifystud",
            "label": "name",
            "offset": 0,
            "slot": "0",
            "type": "t_string_storage"
          },
          {
            "astId": 2298,
            "contract": "verifystud.sol:verifystud",
            "label": "student_address",
            "offset": 0,
            "slot": "1",
            "type": "t_address"
          },
          {
            "astId": 2300,
            "contract": "verifystud.sol:verifystud",
            "label": "email",
            "offset": 0,
            "slot": "2",
            "type": "t_string_storage"
          },
          {
            "astId": 2302,
            "contract": "verifystud.sol:verifystud",
            "label": "id",
            "offset": 0,
            "slot": "3",
            "type": "t_string_storage"
          },
          {
            "astId": 2304,
            "contract": "verifystud.sol:verifystud",
            "label": "instAddress",
            "offset": 0,
            "slot": "4",
            "type": "t_address"
          }
        ],
        "numberOfBytes": "160"
      },
      "t_uint256": {
        "encoding": "inplace",
        "label": "uint256",
        "numberOfBytes": "32"
      }
    }
  },
  "userdoc": {
    "kind": "user",
    "methods": {},
    "version": 1
  }
}