{
  "abi": [
    {
      "inputs": [
        {
          "internalType": "address",
          "name": "_registerStudAddress",
          "type": "address"
        },
        {
          "internalType": "address",
          "name": "_registeredInstAddress",
          "type": "address"
        }
      ],
      "stateMutability": "nonpayable",
      "type": "constructor"
    },
    {
      "inputs": [],
      "name": "MOE",
      "outputs": [
        {
          "internalType": "address",
          "name": "",
          "type": "address"
        }
      ],
      "stateMutability": "view",
      "type": "function"
    },
    {
      "inputs": [],
      "name": "StudentsCount",
      "outputs": [
        {
          "internalType": "uint256",
          "name": "",
          "type": "uint256"
        }
      ],
      "stateMutability": "view",
      "type": "function"
    },
    {
      "inputs": [
        {
          "internalType": "string",
          "name": "_name",
          "type": "string"
        },
        {
          "internalType": "address",
          "name": "_student_address",
          "type": "address"
        },
        {
          "internalType": "string",
          "name": "_email",
          "type": "string"
        },
        {
          "internalType": "string",
          "name": "_id",
          "type": "string"
        },
        {
          "internalType": "address",
          "name": "_instAddress",
          "type": "address"
        }
      ],
      "name": "addStudToPending",
      "outputs": [],
      "stateMutability": "nonpayable",
      "type": "function"
    },
    {
      "inputs": [
        {
          "internalType": "string",
          "name": "_name",
          "type": "string"
        },
        {
          "internalType": "address",
          "name": "_student_address",
          "type": "address"
        },
        {
          "internalType": "string",
          "name": "_email",
          "type": "string"
        },
        {
          "internalType": "string",
          "name": "_id",
          "type": "string"
        },
        {
          "internalType": "address",
          "name": "_currentInstAddress",
          "type": "address"
        },
        {
          "internalType": "address",
          "name": "_newinstAddress",
          "type": "address"
        }
      ],
      "name": "addTransferStudToPending",
      "outputs": [],
      "stateMutability": "nonpayable",
      "type": "function"
    },
    {
      "inputs": [],
      "name": "checkFunction",
      "outputs": [
        {
          "internalType": "bool",
          "name": "",
          "type": "bool"
        }
      ],
      "stateMutability": "view",
      "type": "function"
    },
    {
      "inputs": [
        {
          "internalType": "address",
          "name": "_address",
          "type": "address"
        },
        {
          "internalType": "string",
          "name": "_id",
          "type": "string"
        }
      ],
      "name": "generateKey",
      "outputs": [
        {
          "internalType": "bytes32",
          "name": "",
          "type": "bytes32"
        }
      ],
      "stateMutability": "pure",
      "type": "function"
    },
    {
      "inputs": [
        {
          "internalType": "uint256",
          "name": "index",
          "type": "uint256"
        }
      ],
      "name": "getPendingStudentByindex",
      "outputs": [
        {
          "internalType": "string",
          "name": "",
          "type": "string"
        },
        {
          "internalType": "address",
          "name": "",
          "type": "address"
        },
        {
          "internalType": "string",
          "name": "",
          "type": "string"
        },
        {
          "internalType": "string",
          "name": "",
          "type": "string"
        },
        {
          "internalType": "address",
          "name": "",
          "type": "address"
        }
      ],
      "stateMutability": "view",
      "type": "function"
    },
    {
      "inputs": [],
      "name": "getPendingStudentsCount",
      "outputs": [
        {
          "internalType": "uint256",
          "name": "",
          "type": "uint256"
        }
      ],
      "stateMutability": "view",
      "type": "function"
    },
    {
      "inputs": [
        {
          "internalType": "address",
          "name": "_employee",
          "type": "address"
        }
      ],
      "name": "getStudentContractByAddress",
      "outputs": [
        {
          "internalType": "address",
          "name": "",
          "type": "address"
        }
      ],
      "stateMutability": "view",
      "type": "function"
    },
    {
      "inputs": [
        {
          "internalType": "uint256",
          "name": "index",
          "type": "uint256"
        }
      ],
      "name": "getTransferStudentByindex",
      "outputs": [
        {
          "internalType": "string",
          "name": "",
          "type": "string"
        },
        {
          "internalType": "address",
          "name": "",
          "type": "address"
        },
        {
          "internalType": "string",
          "name": "",
          "type": "string"
        },
        {
          "internalType": "string",
          "name": "",
          "type": "string"
        },
        {
          "internalType": "address",
          "name": "",
          "type": "address"
        }
      ],
      "stateMutability": "view",
      "type": "function"
    },
    {
      "inputs": [],
      "name": "getTransferStudentsCount",
      "outputs": [
        {
          "internalType": "uint256",
          "name": "",
          "type": "uint256"
        }
      ],
      "stateMutability": "view",
      "type": "function"
    },
    {
      "inputs": [],
      "name": "instregd",
      "outputs": [
        {
          "internalType": "contract verifyinst",
          "name": "",
          "type": "address"
        }
      ],
      "stateMutability": "view",
      "type": "function"
    },
    {
      "inputs": [
        {
          "internalType": "address",
          "name": "_studentAddress",
          "type": "address"
        }
      ],
      "name": "isStudent",
      "outputs": [
        {
          "internalType": "bool",
          "name": "",
          "type": "bool"
        }
      ],
      "stateMutability": "view",
      "type": "function"
    },
    {
      "inputs": [
        {
          "internalType": "uint256",
          "name": "",
          "type": "uint256"
        }
      ],
      "name": "pendingStudentsarray",
      "outputs": [
        {
          "internalType": "string",
          "name": "name",
          "type": "string"
        },
        {
          "internalType": "address",
          "name": "student_address",
          "type": "address"
        },
        {
          "internalType": "string",
          "name": "email",
          "type": "string"
        },
        {
          "internalType": "string",
          "name": "id",
          "type": "string"
        },
        {
          "internalType": "address",
          "name": "instAddress",
          "type": "address"
        }
      ],
      "stateMutability": "view",
      "type": "function"
    },
    {
      "inputs": [
        {
          "internalType": "uint256",
          "name": "index",
          "type": "uint256"
        },
        {
          "internalType": "address",
          "name": "student_address",
          "type": "address"
        },
        {
          "internalType": "string",
          "name": "id",
          "type": "string"
        }
      ],
      "name": "removeGraduateStud",
      "outputs": [],
      "stateMutability": "nonpayable",
      "type": "function"
    },
    {
      "inputs": [],
      "name": "studentRegisterContractAddress",
      "outputs": [
        {
          "internalType": "address",
          "name": "",
          "type": "address"
        }
      ],
      "stateMutability": "view",
      "type": "function"
    },
    {
      "inputs": [],
      "name": "studreg",
      "outputs": [
        {
          "internalType": "contract registerStud",
          "name": "",
          "type": "address"
        }
      ],
      "stateMutability": "view",
      "type": "function"
    },
    {
      "inputs": [
        {
          "internalType": "uint256",
          "name": "",
          "type": "uint256"
        }
      ],
      "name": "transferStudentsarray",
      "outputs": [
        {
          "internalType": "string",
          "name": "name",
          "type": "string"
        },
        {
          "internalType": "address",
          "name": "student_address",
          "type": "address"
        },
        {
          "internalType": "string",
          "name": "email",
          "type": "string"
        },
        {
          "internalType": "string",
          "name": "id",
          "type": "string"
        },
        {
          "internalType": "address",
          "name": "instAddress",
          "type": "address"
        }
      ],
      "stateMutability": "view",
      "type": "function"
    },
    {
      "inputs": [],
      "name": "trialnumber",
      "outputs": [
        {
          "internalType": "uint256",
          "name": "",
          "type": "uint256"
        }
      ],
      "stateMutability": "view",
      "type": "function"
    },
    {
      "inputs": [
        {
          "internalType": "uint256",
          "name": "index",
          "type": "uint256"
        },
        {
          "internalType": "bytes32",
          "name": "key",
          "type": "bytes32"
        }
      ],
      "name": "verifyTransferstudent",
      "outputs": [],
      "stateMutability": "nonpayable",
      "type": "function"
    },
    {
      "inputs": [
        {
          "internalType": "uint256",
          "name": "index",
          "type": "uint256"
        },
        {
          "internalType": "bytes32",
          "name": "key",
          "type": "bytes32"
        }
      ],
      "name": "verifystudent",
      "outputs": [],
      "stateMutability": "nonpayable",
      "type": "function"
    }
  ],
  "devdoc": {
    "kind": "dev",
    "methods": {},
    "version": 1
  },
  "evm": {
    "assembly": "    /* \"verifystud.sol\":200:6308  contract verifystud {... */\n  mstore(0x40, 0x80)\n    /* \"verifystud.sol\":431:432  0 */\n  0x00\n    /* \"verifystud.sol\":402:432  uint256 public trialnumber = 0 */\n  0x04\n  sstore\n    /* \"verifystud.sol\":441:725  constructor(address _registerStudAddress, address _registeredInstAddress) {... */\n  callvalue\n  dup1\n  iszero\n  tag_1\n  jumpi\n  0x00\n  dup1\n  revert\ntag_1:\n  pop\n  mload(0x40)\n  sub(codesize, bytecodeSize)\n  dup1\n  bytecodeSize\n  dup4\n  codecopy\n  dup2\n  dup2\n  add\n  0x40\n  mstore\n  dup2\n  add\n  swap1\n  tag_2\n  swap2\n  swap1\n  tag_3\n  jump\t// in\ntag_2:\n    /* \"verifystud.sol\":532:542  msg.sender */\n  caller\n    /* \"verifystud.sol\":526:529  MOE */\n  0x00\n  dup1\n    /* \"verifystud.sol\":526:542  MOE = msg.sender */\n  0x0100\n  exp\n  dup2\n  sload\n  dup2\n  0xffffffffffffffffffffffffffffffffffffffff\n  mul\n  not\n  and\n  swap1\n  dup4\n  0xffffffffffffffffffffffffffffffffffffffff\n  and\n  mul\n  or\n  swap1\n  sstore\n  pop\n    /* \"verifystud.sol\":586:606  _registerStudAddress */\n  dup2\n    /* \"verifystud.sol\":553:583  studentRegisterContractAddress */\n  0x03\n  0x00\n    /* \"verifystud.sol\":553:606  studentRegisterContractAddress = _registerStudAddress */\n  0x0100\n  exp\n  dup2\n  sload\n  dup2\n  0xffffffffffffffffffffffffffffffffffffffff\n  mul\n  not\n  and\n  swap1\n  dup4\n  0xffffffffffffffffffffffffffffffffffffffff\n  and\n  mul\n  or\n  swap1\n  sstore\n  pop\n    /* \"verifystud.sol\":640:660  _registerStudAddress */\n  dup2\n    /* \"verifystud.sol\":617:624  studreg */\n  0x01\n  0x00\n    /* \"verifystud.sol\":617:661  studreg = registerStud(_registerStudAddress) */\n  0x0100\n  exp\n  dup2\n  sload\n  dup2\n  0xffffffffffffffffffffffffffffffffffffffff\n  mul\n  not\n  and\n  swap1\n  dup4\n  0xffffffffffffffffffffffffffffffffffffffff\n  and\n  mul\n  or\n  swap1\n  sstore\n  pop\n    /* \"verifystud.sol\":694:716  _registeredInstAddress */\n  dup1\n    /* \"verifystud.sol\":672:680  instregd */\n  0x02\n  0x00\n    /* \"verifystud.sol\":672:717  instregd = verifyinst(_registeredInstAddress) */\n  0x0100\n  exp\n  dup2\n  sload\n  dup2\n  0xffffffffffffffffffffffffffffffffffffffff\n  mul\n  not\n  and\n  swap1\n  dup4\n  0xffffffffffffffffffffffffffffffffffffffff\n  and\n  mul\n  or\n  swap1\n  sstore\n  pop\n    /* \"verifystud.sol\":441:725  constructor(address _registerStudAddress, address _registeredInstAddress) {... */\n  pop\n  pop\n    /* \"verifystud.sol\":200:6308  contract verifystud {... */\n  jump(tag_6)\n    /* \"#utility.yul\":88:205   */\ntag_8:\n    /* \"#utility.yul\":197:198   */\n  0x00\n    /* \"#utility.yul\":194:195   */\n  dup1\n    /* \"#utility.yul\":187:199   */\n  revert\n    /* \"#utility.yul\":334:460   */\ntag_10:\n    /* \"#utility.yul\":371:378   */\n  0x00\n    /* \"#utility.yul\":411:453   */\n  0xffffffffffffffffffffffffffffffffffffffff\n    /* \"#utility.yul\":404:409   */\n  dup3\n    /* \"#utility.yul\":400:454   */\n  and\n    /* \"#utility.yul\":389:454   */\n  swap1\n  pop\n    /* \"#utility.yul\":334:460   */\n  swap2\n  swap1\n  pop\n  jump\t// out\n    /* \"#utility.yul\":466:562   */\ntag_11:\n    /* \"#utility.yul\":503:510   */\n  0x00\n    /* \"#utility.yul\":532:556   */\n  tag_20\n    /* \"#utility.yul\":550:555   */\n  dup3\n    /* \"#utility.yul\":532:556   */\n  tag_10\n  jump\t// in\ntag_20:\n    /* \"#utility.yul\":521:556   */\n  swap1\n  pop\n    /* \"#utility.yul\":466:562   */\n  swap2\n  swap1\n  pop\n  jump\t// out\n    /* \"#utility.yul\":568:690   */\ntag_12:\n    /* \"#utility.yul\":641:665   */\n  tag_22\n    /* \"#utility.yul\":659:664   */\n  dup2\n    /* \"#utility.yul\":641:665   */\n  tag_11\n  jump\t// in\ntag_22:\n    /* \"#utility.yul\":634:639   */\n  dup2\n    /* \"#utility.yul\":631:666   */\n  eq\n    /* \"#utility.yul\":621:684   */\n  tag_23\n  jumpi\n    /* \"#utility.yul\":680:681   */\n  0x00\n    /* \"#utility.yul\":677:678   */\n  dup1\n    /* \"#utility.yul\":670:682   */\n  revert\n    /* \"#utility.yul\":621:684   */\ntag_23:\n    /* \"#utility.yul\":568:690   */\n  pop\n  jump\t// out\n    /* \"#utility.yul\":696:839   */\ntag_13:\n    /* \"#utility.yul\":753:758   */\n  0x00\n    /* \"#utility.yul\":784:790   */\n  dup2\n    /* \"#utility.yul\":778:791   */\n  mload\n    /* \"#utility.yul\":769:791   */\n  swap1\n  pop\n    /* \"#utility.yul\":800:833   */\n  tag_25\n    /* \"#utility.yul\":827:832   */\n  dup2\n    /* \"#utility.yul\":800:833   */\n  tag_12\n  jump\t// in\ntag_25:\n    /* \"#utility.yul\":696:839   */\n  swap3\n  swap2\n  pop\n  pop\n  jump\t// out\n    /* \"#utility.yul\":845:1352   */\ntag_3:\n    /* \"#utility.yul\":924:930   */\n  0x00\n    /* \"#utility.yul\":932:938   */\n  dup1\n    /* \"#utility.yul\":981:983   */\n  0x40\n    /* \"#utility.yul\":969:978   */\n  dup4\n    /* \"#utility.yul\":960:967   */\n  dup6\n    /* \"#utility.yul\":956:979   */\n  sub\n    /* \"#utility.yul\":952:984   */\n  slt\n    /* \"#utility.yul\":949:1068   */\n  iszero\n  tag_27\n  jumpi\n    /* \"#utility.yul\":987:1066   */\n  tag_28\n  tag_8\n  jump\t// in\ntag_28:\n    /* \"#utility.yul\":949:1068   */\ntag_27:\n    /* \"#utility.yul\":1107:1108   */\n  0x00\n    /* \"#utility.yul\":1132:1196   */\n  tag_29\n    /* \"#utility.yul\":1188:1195   */\n  dup6\n    /* \"#utility.yul\":1179:1185   */\n  dup3\n    /* \"#utility.yul\":1168:1177   */\n  dup7\n    /* \"#utility.yul\":1164:1186   */\n  add\n    /* \"#utility.yul\":1132:1196   */\n  tag_13\n  jump\t// in\ntag_29:\n    /* \"#utility.yul\":1122:1196   */\n  swap3\n  pop\n    /* \"#utility.yul\":1078:1206   */\n  pop\n    /* \"#utility.yul\":1245:1247   */\n  0x20\n    /* \"#utility.yul\":1271:1335   */\n  tag_30\n    /* \"#utility.yul\":1327:1334   */\n  dup6\n    /* \"#utility.yul\":1318:1324   */\n  dup3\n    /* \"#utility.yul\":1307:1316   */\n  dup7\n    /* \"#utility.yul\":1303:1325   */\n  add\n    /* \"#utility.yul\":1271:1335   */\n  tag_13\n  jump\t// in\ntag_30:\n    /* \"#utility.yul\":1261:1335   */\n  swap2\n  pop\n    /* \"#utility.yul\":1216:1345   */\n  pop\n    /* \"#utility.yul\":845:1352   */\n  swap3\n  pop\n  swap3\n  swap1\n  pop\n  jump\t// out\n    /* \"verifystud.sol\":200:6308  contract verifystud {... */\ntag_6:\n  dataSize(sub_0)\n  dup1\n  dataOffset(sub_0)\n  0x00\n  codecopy\n  0x00\n  return\nstop\n\nsub_0: assembly {\n        /* \"verifystud.sol\":200:6308  contract verifystud {... */\n      mstore(0x40, 0x80)\n      callvalue\n      dup1\n      iszero\n      tag_1\n      jumpi\n      0x00\n      dup1\n      revert\n    tag_1:\n      pop\n      jumpi(tag_2, lt(calldatasize, 0x04))\n      shr(0xe0, calldataload(0x00))\n      dup1\n      0x911018ef\n      gt\n      tag_24\n      jumpi\n      dup1\n      0xb7774c1a\n      gt\n      tag_25\n      jumpi\n      dup1\n      0xb7774c1a\n      eq\n      tag_18\n      jumpi\n      dup1\n      0xbae0a585\n      eq\n      tag_19\n      jumpi\n      dup1\n      0xbd6a8504\n      eq\n      tag_20\n      jumpi\n      dup1\n      0xc865d881\n      eq\n      tag_21\n      jumpi\n      dup1\n      0xca90543d\n      eq\n      tag_22\n      jumpi\n      dup1\n      0xf20bcf9a\n      eq\n      tag_23\n      jumpi\n      jump(tag_2)\n    tag_25:\n      dup1\n      0x911018ef\n      eq\n      tag_13\n      jumpi\n      dup1\n      0xa2a1fee5\n      eq\n      tag_14\n      jumpi\n      dup1\n      0xa4156aec\n      eq\n      tag_15\n      jumpi\n      dup1\n      0xb16f9023\n      eq\n      tag_16\n      jumpi\n      dup1\n      0xb1be843d\n      eq\n      tag_17\n      jumpi\n      jump(tag_2)\n    tag_24:\n      dup1\n      0x673a1746\n      gt\n      tag_26\n      jumpi\n      dup1\n      0x673a1746\n      eq\n      tag_8\n      jumpi\n      dup1\n      0x78cfe85e\n      eq\n      tag_9\n      jumpi\n      dup1\n      0x7cd27141\n      eq\n      tag_10\n      jumpi\n      dup1\n      0x82f7d392\n      eq\n      tag_11\n      jumpi\n      dup1\n      0x8a97503d\n      eq\n      tag_12\n      jumpi\n      jump(tag_2)\n    tag_26:\n      dup1\n      0x20b260e3\n      eq\n      tag_3\n      jumpi\n      dup1\n      0x2ecca5fe\n      eq\n      tag_4\n      jumpi\n      dup1\n      0x548d434e\n      eq\n      tag_5\n      jumpi\n      dup1\n      0x5b969a04\n      eq\n      tag_6\n      jumpi\n      dup1\n      0x5fb06357\n      eq\n      tag_7\n      jumpi\n    tag_2:\n      0x00\n      dup1\n      revert\n        /* \"verifystud.sol\":5608:5714  function StudentsCount() public view returns (uint256) {... */\n    tag_3:\n      tag_27\n      tag_28\n      jump\t// in\n    tag_27:\n      mload(0x40)\n      tag_29\n      swap2\n      swap1\n      tag_30\n      jump\t// in\n    tag_29:\n      mload(0x40)\n      dup1\n      swap2\n      sub\n      swap1\n      return\n        /* \"verifystud.sol\":5888:6023  function checkFunction() public view returns(bool){... */\n    tag_4:\n      tag_31\n      tag_32\n      jump\t// in\n    tag_31:\n      mload(0x40)\n      tag_33\n      swap2\n      swap1\n      tag_34\n      jump\t// in\n    tag_33:\n      mload(0x40)\n      dup1\n      swap2\n      sub\n      swap1\n      return\n        /* \"verifystud.sol\":1035:1081  pendingstudents[] public transferStudentsarray */\n    tag_5:\n      tag_35\n      0x04\n      dup1\n      calldatasize\n      sub\n      dup2\n      add\n      swap1\n      tag_36\n      swap2\n      swap1\n      tag_37\n      jump\t// in\n    tag_36:\n      tag_38\n      jump\t// in\n    tag_35:\n      mload(0x40)\n      tag_39\n      swap6\n      swap5\n      swap4\n      swap3\n      swap2\n      swap1\n      tag_40\n      jump\t// in\n    tag_39:\n      mload(0x40)\n      dup1\n      swap2\n      sub\n      swap1\n      return\n        /* \"verifystud.sol\":4365:4904  function getPendingStudentByindex(... */\n    tag_6:\n      tag_41\n      0x04\n      dup1\n      calldatasize\n      sub\n      dup2\n      add\n      swap1\n      tag_42\n      swap2\n      swap1\n      tag_37\n      jump\t// in\n    tag_42:\n      tag_43\n      jump\t// in\n    tag_41:\n      mload(0x40)\n      tag_44\n      swap6\n      swap5\n      swap4\n      swap3\n      swap2\n      swap1\n      tag_40\n      jump\t// in\n    tag_44:\n      mload(0x40)\n      dup1\n      swap2\n      sub\n      swap1\n      return\n        /* \"verifystud.sol\":2836:3230  function verifystudent(uint256 index, bytes32 key) public  {... */\n    tag_7:\n      tag_45\n      0x04\n      dup1\n      calldatasize\n      sub\n      dup2\n      add\n      swap1\n      tag_46\n      swap2\n      swap1\n      tag_47\n      jump\t// in\n    tag_46:\n      tag_48\n      jump\t// in\n    tag_45:\n      stop\n        /* \"verifystud.sol\":227:245  address public MOE */\n    tag_8:\n      tag_49\n      tag_50\n      jump\t// in\n    tag_49:\n      mload(0x40)\n      tag_51\n      swap2\n      swap1\n      tag_52\n      jump\t// in\n    tag_51:\n      mload(0x40)\n      dup1\n      swap2\n      sub\n      swap1\n      return\n        /* \"verifystud.sol\":1433:1940  function addStudToPending(string memory _name, address _student_address, string memory _email, string memory _id, address _instAddress) public{... */\n    tag_9:\n      tag_53\n      0x04\n      dup1\n      calldatasize\n      sub\n      dup2\n      add\n      swap1\n      tag_54\n      swap2\n      swap1\n      tag_55\n      jump\t// in\n    tag_54:\n      tag_56\n      jump\t// in\n    tag_53:\n      stop\n        /* \"verifystud.sol\":3239:3637  function verifyTransferstudent(uint256 index, bytes32 key) public {... */\n    tag_10:\n      tag_57\n      0x04\n      dup1\n      calldatasize\n      sub\n      dup2\n      add\n      swap1\n      tag_58\n      swap2\n      swap1\n      tag_47\n      jump\t// in\n    tag_58:\n      tag_59\n      jump\t// in\n    tag_57:\n      stop\n        /* \"verifystud.sol\":5441:5592  function isStudent(address _studentAddress) public view returns (bool) {... */\n    tag_11:\n      tag_60\n      0x04\n      dup1\n      calldatasize\n      sub\n      dup2\n      add\n      swap1\n      tag_61\n      swap2\n      swap1\n      tag_62\n      jump\t// in\n    tag_61:\n      tag_63\n      jump\t// in\n    tag_60:\n      mload(0x40)\n      tag_64\n      swap2\n      swap1\n      tag_34\n      jump\t// in\n    tag_64:\n      mload(0x40)\n      dup1\n      swap2\n      sub\n      swap1\n      return\n        /* \"verifystud.sol\":1244:1425  function generateKey(... */\n    tag_12:\n      tag_65\n      0x04\n      dup1\n      calldatasize\n      sub\n      dup2\n      add\n      swap1\n      tag_66\n      swap2\n      swap1\n      tag_67\n      jump\t// in\n    tag_66:\n      tag_68\n      jump\t// in\n    tag_65:\n      mload(0x40)\n      tag_69\n      swap2\n      swap1\n      tag_70\n      jump\t// in\n    tag_69:\n      mload(0x40)\n      dup1\n      swap2\n      sub\n      swap1\n      return\n        /* \"verifystud.sol\":402:432  uint256 public trialnumber = 0 */\n    tag_13:\n      tag_71\n      tag_72\n      jump\t// in\n    tag_71:\n      mload(0x40)\n      tag_73\n      swap2\n      swap1\n      tag_30\n      jump\t// in\n    tag_73:\n      mload(0x40)\n      dup1\n      swap2\n      sub\n      swap1\n      return\n        /* \"verifystud.sol\":4106:4226  function getTransferStudentsCount() public view returns (uint256) {... */\n    tag_14:\n      tag_74\n      tag_75\n      jump\t// in\n    tag_74:\n      mload(0x40)\n      tag_76\n      swap2\n      swap1\n      tag_30\n      jump\t// in\n    tag_76:\n      mload(0x40)\n      dup1\n      swap2\n      sub\n      swap1\n      return\n        /* \"verifystud.sol\":4912:5433  function getTransferStudentByindex(... */\n    tag_15:\n      tag_77\n      0x04\n      dup1\n      calldatasize\n      sub\n      dup2\n      add\n      swap1\n      tag_78\n      swap2\n      swap1\n      tag_37\n      jump\t// in\n    tag_78:\n      tag_79\n      jump\t// in\n    tag_77:\n      mload(0x40)\n      tag_80\n      swap6\n      swap5\n      swap4\n      swap3\n      swap2\n      swap1\n      tag_40\n      jump\t// in\n    tag_80:\n      mload(0x40)\n      dup1\n      swap2\n      sub\n      swap1\n      return\n        /* \"verifystud.sol\":1954:2828  function addTransferStudToPending(string memory _name, address _student_address, string memory _email, string memory _id, address _currentInstAddress, address _newinstAddress) public{... */\n    tag_16:\n      tag_81\n      0x04\n      dup1\n      calldatasize\n      sub\n      dup2\n      add\n      swap1\n      tag_82\n      swap2\n      swap1\n      tag_83\n      jump\t// in\n    tag_82:\n      tag_84\n      jump\t// in\n    tag_81:\n      stop\n        /* \"verifystud.sol\":4234:4352  function getPendingStudentsCount() public view returns (uint256) {... */\n    tag_17:\n      tag_85\n      tag_86\n      jump\t// in\n    tag_85:\n      mload(0x40)\n      tag_87\n      swap2\n      swap1\n      tag_30\n      jump\t// in\n    tag_87:\n      mload(0x40)\n      dup1\n      swap2\n      sub\n      swap1\n      return\n        /* \"verifystud.sol\":319:364  address public studentRegisterContractAddress */\n    tag_18:\n      tag_88\n      tag_89\n      jump\t// in\n    tag_88:\n      mload(0x40)\n      tag_90\n      swap2\n      swap1\n      tag_52\n      jump\t// in\n    tag_90:\n      mload(0x40)\n      dup1\n      swap2\n      sub\n      swap1\n      return\n        /* \"verifystud.sol\":286:312  verifyinst public instregd */\n    tag_19:\n      tag_91\n      tag_92\n      jump\t// in\n    tag_91:\n      mload(0x40)\n      tag_93\n      swap2\n      swap1\n      tag_94\n      jump\t// in\n    tag_93:\n      mload(0x40)\n      dup1\n      swap2\n      sub\n      swap1\n      return\n        /* \"verifystud.sol\":983:1028  pendingstudents[] public pendingStudentsarray */\n    tag_20:\n      tag_95\n      0x04\n      dup1\n      calldatasize\n      sub\n      dup2\n      add\n      swap1\n      tag_96\n      swap2\n      swap1\n      tag_37\n      jump\t// in\n    tag_96:\n      tag_97\n      jump\t// in\n    tag_95:\n      mload(0x40)\n      tag_98\n      swap6\n      swap5\n      swap4\n      swap3\n      swap2\n      swap1\n      tag_40\n      jump\t// in\n    tag_98:\n      mload(0x40)\n      dup1\n      swap2\n      sub\n      swap1\n      return\n        /* \"verifystud.sol\":252:279  registerStud public studreg */\n    tag_21:\n      tag_99\n      tag_100\n      jump\t// in\n    tag_99:\n      mload(0x40)\n      tag_101\n      swap2\n      swap1\n      tag_102\n      jump\t// in\n    tag_101:\n      mload(0x40)\n      dup1\n      swap2\n      sub\n      swap1\n      return\n        /* \"verifystud.sol\":5722:5882  function getStudentContractByAddress(... */\n    tag_22:\n      tag_103\n      0x04\n      dup1\n      calldatasize\n      sub\n      dup2\n      add\n      swap1\n      tag_104\n      swap2\n      swap1\n      tag_62\n      jump\t// in\n    tag_104:\n      tag_105\n      jump\t// in\n    tag_103:\n      mload(0x40)\n      tag_106\n      swap2\n      swap1\n      tag_52\n      jump\t// in\n    tag_106:\n      mload(0x40)\n      dup1\n      swap2\n      sub\n      swap1\n      return\n        /* \"verifystud.sol\":3643:4098  function removeGraduateStud(uint256 index,address student_address,string memory id) public {... */\n    tag_23:\n      tag_107\n      0x04\n      dup1\n      calldatasize\n      sub\n      dup2\n      add\n      swap1\n      tag_108\n      swap2\n      swap1\n      tag_109\n      jump\t// in\n    tag_108:\n      tag_110\n      jump\t// in\n    tag_107:\n      stop\n        /* \"verifystud.sol\":5608:5714  function StudentsCount() public view returns (uint256) {... */\n    tag_28:\n        /* \"verifystud.sol\":5654:5661  uint256 */\n      0x00\n        /* \"verifystud.sol\":5681:5699  registeredStudents */\n      0x08\n        /* \"verifystud.sol\":5681:5706  registeredStudents.length */\n      dup1\n      sload\n      swap1\n      pop\n        /* \"verifystud.sol\":5674:5706  return registeredStudents.length */\n      swap1\n      pop\n        /* \"verifystud.sol\":5608:5714  function StudentsCount() public view returns (uint256) {... */\n      swap1\n      jump\t// out\n        /* \"verifystud.sol\":5888:6023  function checkFunction() public view returns(bool){... */\n    tag_32:\n        /* \"verifystud.sol\":5933:5937  bool */\n      0x00\n        /* \"verifystud.sol\":6010:6011  0 */\n      dup1\n        /* \"verifystud.sol\":5956:6012  instregd.registeredinstitutesmap(msg.sender)!=address(0) */\n      0xffffffffffffffffffffffffffffffffffffffff\n      and\n        /* \"verifystud.sol\":5956:5964  instregd */\n      0x02\n      0x00\n      swap1\n      sload\n      swap1\n      0x0100\n      exp\n      swap1\n      div\n      0xffffffffffffffffffffffffffffffffffffffff\n      and\n        /* \"verifystud.sol\":5956:5988  instregd.registeredinstitutesmap */\n      0xffffffffffffffffffffffffffffffffffffffff\n      and\n      0x839f602d\n        /* \"verifystud.sol\":5989:5999  msg.sender */\n      caller\n        /* \"verifystud.sol\":5956:6000  instregd.registeredinstitutesmap(msg.sender) */\n      mload(0x40)\n      dup3\n      0xffffffff\n      and\n      0xe0\n      shl\n      dup2\n      mstore\n      0x04\n      add\n      tag_113\n      swap2\n      swap1\n      tag_52\n      jump\t// in\n    tag_113:\n      0x20\n      mload(0x40)\n      dup1\n      dup4\n      sub\n      dup2\n      dup7\n      gas\n      staticcall\n      iszero\n      dup1\n      iszero\n      tag_115\n      jumpi\n      returndatasize\n      0x00\n      dup1\n      returndatacopy\n      revert(0x00, returndatasize)\n    tag_115:\n      pop\n      pop\n      pop\n      pop\n      mload(0x40)\n      returndatasize\n      not(0x1f)\n      0x1f\n      dup3\n      add\n      and\n      dup3\n      add\n      dup1\n      0x40\n      mstore\n      pop\n      dup2\n      add\n      swap1\n      tag_116\n      swap2\n      swap1\n      tag_117\n      jump\t// in\n    tag_116:\n        /* \"verifystud.sol\":5956:6012  instregd.registeredinstitutesmap(msg.sender)!=address(0) */\n      0xffffffffffffffffffffffffffffffffffffffff\n      and\n      eq\n      iszero\n        /* \"verifystud.sol\":5949:6013  return(instregd.registeredinstitutesmap(msg.sender)!=address(0)) */\n      swap1\n      pop\n        /* \"verifystud.sol\":5888:6023  function checkFunction() public view returns(bool){... */\n      swap1\n      jump\t// out\n        /* \"verifystud.sol\":1035:1081  pendingstudents[] public transferStudentsarray */\n    tag_38:\n      0x06\n      dup2\n      dup2\n      sload\n      dup2\n      lt\n      tag_118\n      jumpi\n      0x00\n      dup1\n      revert\n    tag_118:\n      swap1\n      0x00\n      mstore\n      keccak256(0x00, 0x20)\n      swap1\n      0x05\n      mul\n      add\n      0x00\n      swap2\n      pop\n      swap1\n      pop\n      dup1\n      0x00\n      add\n      dup1\n      sload\n      tag_120\n      swap1\n      tag_121\n      jump\t// in\n    tag_120:\n      dup1\n      0x1f\n      add\n      0x20\n      dup1\n      swap2\n      div\n      mul\n      0x20\n      add\n      mload(0x40)\n      swap1\n      dup2\n      add\n      0x40\n      mstore\n      dup1\n      swap3\n      swap2\n      swap1\n      dup2\n      dup2\n      mstore\n      0x20\n      add\n      dup3\n      dup1\n      sload\n      tag_122\n      swap1\n      tag_121\n      jump\t// in\n    tag_122:\n      dup1\n      iszero\n      tag_123\n      jumpi\n      dup1\n      0x1f\n      lt\n      tag_124\n      jumpi\n      0x0100\n      dup1\n      dup4\n      sload\n      div\n      mul\n      dup4\n      mstore\n      swap2\n      0x20\n      add\n      swap2\n      jump(tag_123)\n    tag_124:\n      dup3\n      add\n      swap2\n      swap1\n      0x00\n      mstore\n      keccak256(0x00, 0x20)\n      swap1\n    tag_125:\n      dup2\n      sload\n      dup2\n      mstore\n      swap1\n      0x01\n      add\n      swap1\n      0x20\n      add\n      dup1\n      dup4\n      gt\n      tag_125\n      jumpi\n      dup3\n      swap1\n      sub\n      0x1f\n      and\n      dup3\n      add\n      swap2\n    tag_123:\n      pop\n      pop\n      pop\n      pop\n      pop\n      swap1\n      dup1\n      0x01\n      add\n      0x00\n      swap1\n      sload\n      swap1\n      0x0100\n      exp\n      swap1\n      div\n      0xffffffffffffffffffffffffffffffffffffffff\n      and\n      swap1\n      dup1\n      0x02\n      add\n      dup1\n      sload\n      tag_126\n      swap1\n      tag_121\n      jump\t// in\n    tag_126:\n      dup1\n      0x1f\n      add\n      0x20\n      dup1\n      swap2\n      div\n      mul\n      0x20\n      add\n      mload(0x40)\n      swap1\n      dup2\n      add\n      0x40\n      mstore\n      dup1\n      swap3\n      swap2\n      swap1\n      dup2\n      dup2\n      mstore\n      0x20\n      add\n      dup3\n      dup1\n      sload\n      tag_127\n      swap1\n      tag_121\n      jump\t// in\n    tag_127:\n      dup1\n      iszero\n      tag_128\n      jumpi\n      dup1\n      0x1f\n      lt\n      tag_129\n      jumpi\n      0x0100\n      dup1\n      dup4\n      sload\n      div\n      mul\n      dup4\n      mstore\n      swap2\n      0x20\n      add\n      swap2\n      jump(tag_128)\n    tag_129:\n      dup3\n      add\n      swap2\n      swap1\n      0x00\n      mstore\n      keccak256(0x00, 0x20)\n      swap1\n    tag_130:\n      dup2\n      sload\n      dup2\n      mstore\n      swap1\n      0x01\n      add\n      swap1\n      0x20\n      add\n      dup1\n      dup4\n      gt\n      tag_130\n      jumpi\n      dup3\n      swap1\n      sub\n      0x1f\n      and\n      dup3\n      add\n      swap2\n    tag_128:\n      pop\n      pop\n      pop\n      pop\n      pop\n      swap1\n      dup1\n      0x03\n      add\n      dup1\n      sload\n      tag_131\n      swap1\n      tag_121\n      jump\t// in\n    tag_131:\n      dup1\n      0x1f\n      add\n      0x20\n      dup1\n      swap2\n      div\n      mul\n      0x20\n      add\n      mload(0x40)\n      swap1\n      dup2\n      add\n      0x40\n      mstore\n      dup1\n      swap3\n      swap2\n      swap1\n      dup2\n      dup2\n      mstore\n      0x20\n      add\n      dup3\n      dup1\n      sload\n      tag_132\n      swap1\n      tag_121\n      jump\t// in\n    tag_132:\n      dup1\n      iszero\n      tag_133\n      jumpi\n      dup1\n      0x1f\n      lt\n      tag_134\n      jumpi\n      0x0100\n      dup1\n      dup4\n      sload\n      div\n      mul\n      dup4\n      mstore\n      swap2\n      0x20\n      add\n      swap2\n      jump(tag_133)\n    tag_134:\n      dup3\n      add\n      swap2\n      swap1\n      0x00\n      mstore\n      keccak256(0x00, 0x20)\n      swap1\n    tag_135:\n      dup2\n      sload\n      dup2\n      mstore\n      swap1\n      0x01\n      add\n      swap1\n      0x20\n      add\n      dup1\n      dup4\n      gt\n      tag_135\n      jumpi\n      dup3\n      swap1\n      sub\n      0x1f\n      and\n      dup3\n      add\n      swap2\n    tag_133:\n      pop\n      pop\n      pop\n      pop\n      pop\n      swap1\n      dup1\n      0x04\n      add\n      0x00\n      swap1\n      sload\n      swap1\n      0x0100\n      exp\n      swap1\n      div\n      0xffffffffffffffffffffffffffffffffffffffff\n      and\n      swap1\n      pop\n      dup6\n      jump\t// out\n        /* \"verifystud.sol\":4365:4904  function getPendingStudentByindex(... */\n    tag_43:\n        /* \"verifystud.sol\":4478:4491  string memory */\n      0x60\n        /* \"verifystud.sol\":4493:4500  address */\n      0x00\n        /* \"verifystud.sol\":4522:4535  string memory */\n      0x60\n        /* \"verifystud.sol\":4537:4550  string memory */\n      dup1\n        /* \"verifystud.sol\":4552:4559  address */\n      0x00\n        /* \"verifystud.sol\":4593:4613  pendingStudentsarray */\n      0x05\n        /* \"verifystud.sol\":4593:4620  pendingStudentsarray.length */\n      dup1\n      sload\n      swap1\n      pop\n        /* \"verifystud.sol\":4585:4590  index */\n      dup7\n        /* \"verifystud.sol\":4585:4620  index < pendingStudentsarray.length */\n      lt\n        /* \"verifystud.sol\":4577:4644  require(index < pendingStudentsarray.length, \"Index out of bounds\") */\n      tag_137\n      jumpi\n      mload(0x40)\n      0x08c379a000000000000000000000000000000000000000000000000000000000\n      dup2\n      mstore\n      0x04\n      add\n      tag_138\n      swap1\n      tag_139\n      jump\t// in\n    tag_138:\n      mload(0x40)\n      dup1\n      swap2\n      sub\n      swap1\n      revert\n    tag_137:\n        /* \"verifystud.sol\":4657:4691  pendingstudents memory studentinfo */\n      0x00\n        /* \"verifystud.sol\":4694:4714  pendingStudentsarray */\n      0x05\n        /* \"verifystud.sol\":4715:4720  index */\n      dup8\n        /* \"verifystud.sol\":4694:4721  pendingStudentsarray[index] */\n      dup2\n      sload\n      dup2\n      lt\n      tag_140\n      jumpi\n      tag_141\n      tag_142\n      jump\t// in\n    tag_141:\n    tag_140:\n      swap1\n      0x00\n      mstore\n      keccak256(0x00, 0x20)\n      swap1\n      0x05\n      mul\n      add\n        /* \"verifystud.sol\":4657:4721  pendingstudents memory studentinfo = pendingStudentsarray[index] */\n      mload(0x40)\n      dup1\n      0xa0\n      add\n      0x40\n      mstore\n      swap1\n      dup2\n      0x00\n      dup3\n      add\n      dup1\n      sload\n      tag_144\n      swap1\n      tag_121\n      jump\t// in\n    tag_144:\n      dup1\n      0x1f\n      add\n      0x20\n      dup1\n      swap2\n      div\n      mul\n      0x20\n      add\n      mload(0x40)\n      swap1\n      dup2\n      add\n      0x40\n      mstore\n      dup1\n      swap3\n      swap2\n      swap1\n      dup2\n      dup2\n      mstore\n      0x20\n      add\n      dup3\n      dup1\n      sload\n      tag_145\n      swap1\n      tag_121\n      jump\t// in\n    tag_145:\n      dup1\n      iszero\n      tag_146\n      jumpi\n      dup1\n      0x1f\n      lt\n      tag_147\n      jumpi\n      0x0100\n      dup1\n      dup4\n      sload\n      div\n      mul\n      dup4\n      mstore\n      swap2\n      0x20\n      add\n      swap2\n      jump(tag_146)\n    tag_147:\n      dup3\n      add\n      swap2\n      swap1\n      0x00\n      mstore\n      keccak256(0x00, 0x20)\n      swap1\n    tag_148:\n      dup2\n      sload\n      dup2\n      mstore\n      swap1\n      0x01\n      add\n      swap1\n      0x20\n      add\n      dup1\n      dup4\n      gt\n      tag_148\n      jumpi\n      dup3\n      swap1\n      sub\n      0x1f\n      and\n      dup3\n      add\n      swap2\n    tag_146:\n      pop\n      pop\n      pop\n      pop\n      pop\n      dup2\n      mstore\n      0x20\n      add\n      0x01\n      dup3\n      add\n      0x00\n      swap1\n      sload\n      swap1\n      0x0100\n      exp\n      swap1\n      div\n      0xffffffffffffffffffffffffffffffffffffffff\n      and\n      0xffffffffffffffffffffffffffffffffffffffff\n      and\n      0xffffffffffffffffffffffffffffffffffffffff\n      and\n      dup2\n      mstore\n      0x20\n      add\n      0x02\n      dup3\n      add\n      dup1\n      sload\n      tag_149\n      swap1\n      tag_121\n      jump\t// in\n    tag_149:\n      dup1\n      0x1f\n      add\n      0x20\n      dup1\n      swap2\n      div\n      mul\n      0x20\n      add\n      mload(0x40)\n      swap1\n      dup2\n      add\n      0x40\n      mstore\n      dup1\n      swap3\n      swap2\n      swap1\n      dup2\n      dup2\n      mstore\n      0x20\n      add\n      dup3\n      dup1\n      sload\n      tag_150\n      swap1\n      tag_121\n      jump\t// in\n    tag_150:\n      dup1\n      iszero\n      tag_151\n      jumpi\n      dup1\n      0x1f\n      lt\n      tag_152\n      jumpi\n      0x0100\n      dup1\n      dup4\n      sload\n      div\n      mul\n      dup4\n      mstore\n      swap2\n      0x20\n      add\n      swap2\n      jump(tag_151)\n    tag_152:\n      dup3\n      add\n      swap2\n      swap1\n      0x00\n      mstore\n      keccak256(0x00, 0x20)\n      swap1\n    tag_153:\n      dup2\n      sload\n      dup2\n      mstore\n      swap1\n      0x01\n      add\n      swap1\n      0x20\n      add\n      dup1\n      dup4\n      gt\n      tag_153\n      jumpi\n      dup3\n      swap1\n      sub\n      0x1f\n      and\n      dup3\n      add\n      swap2\n    tag_151:\n      pop\n      pop\n      pop\n      pop\n      pop\n      dup2\n      mstore\n      0x20\n      add\n      0x03\n      dup3\n      add\n      dup1\n      sload\n      tag_154\n      swap1\n      tag_121\n      jump\t// in\n    tag_154:\n      dup1\n      0x1f\n      add\n      0x20\n      dup1\n      swap2\n      div\n      mul\n      0x20\n      add\n      mload(0x40)\n      swap1\n      dup2\n      add\n      0x40\n      mstore\n      dup1\n      swap3\n      swap2\n      swap1\n      dup2\n      dup2\n      mstore\n      0x20\n      add\n      dup3\n      dup1\n      sload\n      tag_155\n      swap1\n      tag_121\n      jump\t// in\n    tag_155:\n      dup1\n      iszero\n      tag_156\n      jumpi\n      dup1\n      0x1f\n      lt\n      tag_157\n      jumpi\n      0x0100\n      dup1\n      dup4\n      sload\n      div\n      mul\n      dup4\n      mstore\n      swap2\n      0x20\n      add\n      swap2\n      jump(tag_156)\n    tag_157:\n      dup3\n      add\n      swap2\n      swap1\n      0x00\n      mstore\n      keccak256(0x00, 0x20)\n      swap1\n    tag_158:\n      dup2\n      sload\n      dup2\n      mstore\n      swap1\n      0x01\n      add\n      swap1\n      0x20\n      add\n      dup1\n      dup4\n      gt\n      tag_158\n      jumpi\n      dup3\n      swap1\n      sub\n      0x1f\n      and\n      dup3\n      add\n      swap2\n    tag_156:\n      pop\n      pop\n      pop\n      pop\n      pop\n      dup2\n      mstore\n      0x20\n      add\n      0x04\n      dup3\n      add\n      0x00\n      swap1\n      sload\n      swap1\n      0x0100\n      exp\n      swap1\n      div\n      0xffffffffffffffffffffffffffffffffffffffff\n      and\n      0xffffffffffffffffffffffffffffffffffffffff\n      and\n      0xffffffffffffffffffffffffffffffffffffffff\n      and\n      dup2\n      mstore\n      pop\n      pop\n      swap1\n      pop\n        /* \"verifystud.sol\":4748:4759  studentinfo */\n      dup1\n        /* \"verifystud.sol\":4748:4764  studentinfo.name */\n      0x00\n      add\n      mload\n        /* \"verifystud.sol\":4775:4786  studentinfo */\n      dup2\n        /* \"verifystud.sol\":4775:4802  studentinfo.student_address */\n      0x20\n      add\n      mload\n        /* \"verifystud.sol\":4813:4824  studentinfo */\n      dup3\n        /* \"verifystud.sol\":4813:4830  studentinfo.email */\n      0x40\n      add\n      mload\n        /* \"verifystud.sol\":4841:4852  studentinfo */\n      dup4\n        /* \"verifystud.sol\":4841:4855  studentinfo.id */\n      0x60\n      add\n      mload\n        /* \"verifystud.sol\":4866:4877  studentinfo */\n      dup5\n        /* \"verifystud.sol\":4866:4889  studentinfo.instAddress */\n      0x80\n      add\n      mload\n        /* \"verifystud.sol\":4730:4896  return (... */\n      swap6\n      pop\n      swap6\n      pop\n      swap6\n      pop\n      swap6\n      pop\n      swap6\n      pop\n      pop\n        /* \"verifystud.sol\":4365:4904  function getPendingStudentByindex(... */\n      swap2\n      swap4\n      swap6\n      swap1\n      swap3\n      swap5\n      pop\n      jump\t// out\n        /* \"verifystud.sol\":2836:3230  function verifystudent(uint256 index, bytes32 key) public  {... */\n    tag_48:\n        /* \"verifystud.sol\":2907:2925  string memory name */\n      0x00\n        /* \"verifystud.sol\":2926:2949  address student_address */\n      dup1\n        /* \"verifystud.sol\":2950:2969  string memory email */\n      0x00\n        /* \"verifystud.sol\":2970:2986  string memory id */\n      dup1\n        /* \"verifystud.sol\":2987:3006  address instaddress */\n      0x00\n        /* \"verifystud.sol\":3008:3039  getPendingStudentByindex(index) */\n      tag_160\n        /* \"verifystud.sol\":3033:3038  index */\n      dup8\n        /* \"verifystud.sol\":3008:3032  getPendingStudentByindex */\n      tag_43\n        /* \"verifystud.sol\":3008:3039  getPendingStudentByindex(index) */\n      jump\t// in\n    tag_160:\n        /* \"verifystud.sol\":2906:3039  (string memory name,address student_address,string memory email,string memory id,address instaddress)=getPendingStudentByindex(index) */\n      swap5\n      pop\n      swap5\n      pop\n      swap5\n      pop\n      swap5\n      pop\n      swap5\n      pop\n        /* \"verifystud.sol\":3081:3088  studreg */\n      0x01\n      0x00\n      swap1\n      sload\n      swap1\n      0x0100\n      exp\n      swap1\n      div\n      0xffffffffffffffffffffffffffffffffffffffff\n      and\n        /* \"verifystud.sol\":3081:3106  studreg.addInstTostudInfo */\n      0xffffffffffffffffffffffffffffffffffffffff\n      and\n      0x4268ddbd\n        /* \"verifystud.sol\":3107:3112  index */\n      dup9\n        /* \"verifystud.sol\":3114:3117  key */\n      dup9\n        /* \"verifystud.sol\":3119:3130  instaddress */\n      dup5\n        /* \"verifystud.sol\":3081:3131  studreg.addInstTostudInfo(index, key, instaddress) */\n      mload(0x40)\n      dup5\n      0xffffffff\n      and\n      0xe0\n      shl\n      dup2\n      mstore\n      0x04\n      add\n      tag_161\n      swap4\n      swap3\n      swap2\n      swap1\n      tag_162\n      jump\t// in\n    tag_161:\n      0x20\n      mload(0x40)\n      dup1\n      dup4\n      sub\n      dup2\n      0x00\n      dup8\n      gas\n      call\n      iszero\n      dup1\n      iszero\n      tag_164\n      jumpi\n      returndatasize\n      0x00\n      dup1\n      returndatacopy\n      revert(0x00, returndatasize)\n    tag_164:\n      pop\n      pop\n      pop\n      pop\n      mload(0x40)\n      returndatasize\n      not(0x1f)\n      0x1f\n      dup3\n      add\n      and\n      dup3\n      add\n      dup1\n      0x40\n      mstore\n      pop\n      dup2\n      add\n      swap1\n      tag_165\n      swap2\n      swap1\n      tag_166\n      jump\t// in\n    tag_165:\n        /* \"verifystud.sol\":3073:3175  require(studreg.addInstTostudInfo(index, key, instaddress), \"Failed to add institute to student info\") */\n      tag_167\n      jumpi\n      mload(0x40)\n      0x08c379a000000000000000000000000000000000000000000000000000000000\n      dup2\n      mstore\n      0x04\n      add\n      tag_168\n      swap1\n      tag_169\n      jump\t// in\n    tag_168:\n      mload(0x40)\n      dup1\n      swap2\n      sub\n      swap1\n      revert\n    tag_167:\n        /* \"verifystud.sol\":3193:3213  pendingStudentsarray */\n      0x05\n        /* \"verifystud.sol\":3214:3219  index */\n      dup8\n        /* \"verifystud.sol\":3193:3220  pendingStudentsarray[index] */\n      dup2\n      sload\n      dup2\n      lt\n      tag_170\n      jumpi\n      tag_171\n      tag_142\n      jump\t// in\n    tag_171:\n    tag_170:\n      swap1\n      0x00\n      mstore\n      keccak256(0x00, 0x20)\n      swap1\n      0x05\n      mul\n      add\n      0x00\n        /* \"verifystud.sol\":3186:3220  delete pendingStudentsarray[index] */\n      dup1\n      dup3\n      add\n      0x00\n      tag_173\n      swap2\n      swap1\n      tag_174\n      jump\t// in\n    tag_173:\n      0x01\n      dup3\n      add\n      exp(0x0100, 0x00)\n      dup2\n      sload\n      swap1\n      0xffffffffffffffffffffffffffffffffffffffff\n      mul\n      not\n      and\n      swap1\n      sstore\n      0x02\n      dup3\n      add\n      0x00\n      tag_175\n      swap2\n      swap1\n      tag_174\n      jump\t// in\n    tag_175:\n      0x03\n      dup3\n      add\n      0x00\n      tag_176\n      swap2\n      swap1\n      tag_174\n      jump\t// in\n    tag_176:\n      0x04\n      dup3\n      add\n      exp(0x0100, 0x00)\n      dup2\n      sload\n      swap1\n      0xffffffffffffffffffffffffffffffffffffffff\n      mul\n      not\n      and\n      swap1\n      sstore\n      pop\n      pop\n        /* \"verifystud.sol\":2895:3230  {... */\n      pop\n      pop\n      pop\n      pop\n      pop\n        /* \"verifystud.sol\":2836:3230  function verifystudent(uint256 index, bytes32 key) public  {... */\n      pop\n      pop\n      jump\t// out\n        /* \"verifystud.sol\":227:245  address public MOE */\n    tag_50:\n      0x00\n      dup1\n      sload\n      swap1\n      0x0100\n      exp\n      swap1\n      div\n      0xffffffffffffffffffffffffffffffffffffffff\n      and\n      dup2\n      jump\t// out\n        /* \"verifystud.sol\":1433:1940  function addStudToPending(string memory _name, address _student_address, string memory _email, string memory _id, address _instAddress) public{... */\n    tag_56:\n        /* \"verifystud.sol\":1598:1638  pendingstudents memory newpendingstudent */\n      tag_178\n      tag_179\n      jump\t// in\n    tag_178:\n        /* \"verifystud.sol\":1674:1679  _name */\n      dup6\n        /* \"verifystud.sol\":1649:1666  newpendingstudent */\n      dup2\n        /* \"verifystud.sol\":1649:1671  newpendingstudent.name */\n      0x00\n      add\n        /* \"verifystud.sol\":1649:1679  newpendingstudent.name = _name */\n      dup2\n      swap1\n      mstore\n      pop\n        /* \"verifystud.sol\":1726:1742  _student_address */\n      dup5\n        /* \"verifystud.sol\":1690:1707  newpendingstudent */\n      dup2\n        /* \"verifystud.sol\":1690:1723  newpendingstudent.student_address */\n      0x20\n      add\n        /* \"verifystud.sol\":1690:1742  newpendingstudent.student_address = _student_address */\n      swap1\n      0xffffffffffffffffffffffffffffffffffffffff\n      and\n      swap1\n      dup2\n      0xffffffffffffffffffffffffffffffffffffffff\n      and\n      dup2\n      mstore\n      pop\n      pop\n        /* \"verifystud.sol\":1779:1785  _email */\n      dup4\n        /* \"verifystud.sol\":1753:1770  newpendingstudent */\n      dup2\n        /* \"verifystud.sol\":1753:1776  newpendingstudent.email */\n      0x40\n      add\n        /* \"verifystud.sol\":1753:1785  newpendingstudent.email = _email */\n      dup2\n      swap1\n      mstore\n      pop\n        /* \"verifystud.sol\":1819:1822  _id */\n      dup3\n        /* \"verifystud.sol\":1796:1813  newpendingstudent */\n      dup2\n        /* \"verifystud.sol\":1796:1816  newpendingstudent.id */\n      0x60\n      add\n        /* \"verifystud.sol\":1796:1822  newpendingstudent.id = _id */\n      dup2\n      swap1\n      mstore\n      pop\n        /* \"verifystud.sol\":1865:1877  _instAddress */\n      dup2\n        /* \"verifystud.sol\":1833:1850  newpendingstudent */\n      dup2\n        /* \"verifystud.sol\":1833:1862  newpendingstudent.instAddress */\n      0x80\n      add\n        /* \"verifystud.sol\":1833:1877  newpendingstudent.instAddress = _instAddress */\n      swap1\n      0xffffffffffffffffffffffffffffffffffffffff\n      and\n      swap1\n      dup2\n      0xffffffffffffffffffffffffffffffffffffffff\n      and\n      dup2\n      mstore\n      pop\n      pop\n        /* \"verifystud.sol\":1888:1908  pendingStudentsarray */\n      0x05\n        /* \"verifystud.sol\":1914:1931  newpendingstudent */\n      dup2\n        /* \"verifystud.sol\":1888:1932  pendingStudentsarray.push(newpendingstudent) */\n      swap1\n      dup1\n      0x01\n      dup2\n      sload\n      add\n      dup1\n      dup3\n      sstore\n      dup1\n      swap2\n      pop\n      pop\n      0x01\n      swap1\n      sub\n      swap1\n      0x00\n      mstore\n      keccak256(0x00, 0x20)\n      swap1\n      0x05\n      mul\n      add\n      0x00\n      swap1\n      swap2\n      swap1\n      swap2\n      swap1\n      swap2\n      pop\n      0x00\n      dup3\n      add\n      mload\n      dup2\n      0x00\n      add\n      swap1\n      dup1\n      mload\n      swap1\n      0x20\n      add\n      swap1\n      tag_181\n      swap3\n      swap2\n      swap1\n      tag_182\n      jump\t// in\n    tag_181:\n      pop\n      0x20\n      dup3\n      add\n      mload\n      dup2\n      0x01\n      add\n      exp(0x0100, 0x00)\n      dup2\n      sload\n      dup2\n      0xffffffffffffffffffffffffffffffffffffffff\n      mul\n      not\n      and\n      swap1\n      dup4\n      0xffffffffffffffffffffffffffffffffffffffff\n      and\n      mul\n      or\n      swap1\n      sstore\n      pop\n      0x40\n      dup3\n      add\n      mload\n      dup2\n      0x02\n      add\n      swap1\n      dup1\n      mload\n      swap1\n      0x20\n      add\n      swap1\n      tag_183\n      swap3\n      swap2\n      swap1\n      tag_182\n      jump\t// in\n    tag_183:\n      pop\n      0x60\n      dup3\n      add\n      mload\n      dup2\n      0x03\n      add\n      swap1\n      dup1\n      mload\n      swap1\n      0x20\n      add\n      swap1\n      tag_184\n      swap3\n      swap2\n      swap1\n      tag_182\n      jump\t// in\n    tag_184:\n      pop\n      0x80\n      dup3\n      add\n      mload\n      dup2\n      0x04\n      add\n      exp(0x0100, 0x00)\n      dup2\n      sload\n      dup2\n      0xffffffffffffffffffffffffffffffffffffffff\n      mul\n      not\n      and\n      swap1\n      dup4\n      0xffffffffffffffffffffffffffffffffffffffff\n      and\n      mul\n      or\n      swap1\n      sstore\n      pop\n      pop\n      pop\n        /* \"verifystud.sol\":1575:1940  {... */\n      pop\n        /* \"verifystud.sol\":1433:1940  function addStudToPending(string memory _name, address _student_address, string memory _email, string memory _id, address _instAddress) public{... */\n      pop\n      pop\n      pop\n      pop\n      pop\n      jump\t// out\n        /* \"verifystud.sol\":3239:3637  function verifyTransferstudent(uint256 index, bytes32 key) public {... */\n    tag_59:\n        /* \"verifystud.sol\":3317:3335  string memory name */\n      0x00\n        /* \"verifystud.sol\":3336:3359  address student_address */\n      dup1\n        /* \"verifystud.sol\":3360:3379  string memory email */\n      0x00\n        /* \"verifystud.sol\":3380:3396  string memory id */\n      dup1\n        /* \"verifystud.sol\":3397:3416  address instaddress */\n      0x00\n        /* \"verifystud.sol\":3418:3450  getTransferStudentByindex(index) */\n      tag_186\n        /* \"verifystud.sol\":3444:3449  index */\n      dup8\n        /* \"verifystud.sol\":3418:3443  getTransferStudentByindex */\n      tag_79\n        /* \"verifystud.sol\":3418:3450  getTransferStudentByindex(index) */\n      jump\t// in\n    tag_186:\n        /* \"verifystud.sol\":3316:3450  (string memory name,address student_address,string memory email,string memory id,address instaddress)=getTransferStudentByindex(index) */\n      swap5\n      pop\n      swap5\n      pop\n      swap5\n      pop\n      swap5\n      pop\n      swap5\n      pop\n        /* \"verifystud.sol\":3487:3494  studreg */\n      0x01\n      0x00\n      swap1\n      sload\n      swap1\n      0x0100\n      exp\n      swap1\n      div\n      0xffffffffffffffffffffffffffffffffffffffff\n      and\n        /* \"verifystud.sol\":3487:3512  studreg.addInstTostudInfo */\n      0xffffffffffffffffffffffffffffffffffffffff\n      and\n      0x4268ddbd\n        /* \"verifystud.sol\":3513:3518  index */\n      dup9\n        /* \"verifystud.sol\":3520:3523  key */\n      dup9\n        /* \"verifystud.sol\":3525:3536  instaddress */\n      dup5\n        /* \"verifystud.sol\":3487:3537  studreg.addInstTostudInfo(index, key, instaddress) */\n      mload(0x40)\n      dup5\n      0xffffffff\n      and\n      0xe0\n      shl\n      dup2\n      mstore\n      0x04\n      add\n      tag_187\n      swap4\n      swap3\n      swap2\n      swap1\n      tag_162\n      jump\t// in\n    tag_187:\n      0x20\n      mload(0x40)\n      dup1\n      dup4\n      sub\n      dup2\n      0x00\n      dup8\n      gas\n      call\n      iszero\n      dup1\n      iszero\n      tag_189\n      jumpi\n      returndatasize\n      0x00\n      dup1\n      returndatacopy\n      revert(0x00, returndatasize)\n    tag_189:\n      pop\n      pop\n      pop\n      pop\n      mload(0x40)\n      returndatasize\n      not(0x1f)\n      0x1f\n      dup3\n      add\n      and\n      dup3\n      add\n      dup1\n      0x40\n      mstore\n      pop\n      dup2\n      add\n      swap1\n      tag_190\n      swap2\n      swap1\n      tag_166\n      jump\t// in\n    tag_190:\n        /* \"verifystud.sol\":3479:3581  require(studreg.addInstTostudInfo(index, key, instaddress), \"Failed to add institute to student info\") */\n      tag_191\n      jumpi\n      mload(0x40)\n      0x08c379a000000000000000000000000000000000000000000000000000000000\n      dup2\n      mstore\n      0x04\n      add\n      tag_192\n      swap1\n      tag_169\n      jump\t// in\n    tag_192:\n      mload(0x40)\n      dup1\n      swap2\n      sub\n      swap1\n      revert\n    tag_191:\n        /* \"verifystud.sol\":3599:3620  transferStudentsarray */\n      0x06\n        /* \"verifystud.sol\":3621:3626  index */\n      dup8\n        /* \"verifystud.sol\":3599:3627  transferStudentsarray[index] */\n      dup2\n      sload\n      dup2\n      lt\n      tag_193\n      jumpi\n      tag_194\n      tag_142\n      jump\t// in\n    tag_194:\n    tag_193:\n      swap1\n      0x00\n      mstore\n      keccak256(0x00, 0x20)\n      swap1\n      0x05\n      mul\n      add\n      0x00\n        /* \"verifystud.sol\":3592:3627  delete transferStudentsarray[index] */\n      dup1\n      dup3\n      add\n      0x00\n      tag_196\n      swap2\n      swap1\n      tag_174\n      jump\t// in\n    tag_196:\n      0x01\n      dup3\n      add\n      exp(0x0100, 0x00)\n      dup2\n      sload\n      swap1\n      0xffffffffffffffffffffffffffffffffffffffff\n      mul\n      not\n      and\n      swap1\n      sstore\n      0x02\n      dup3\n      add\n      0x00\n      tag_197\n      swap2\n      swap1\n      tag_174\n      jump\t// in\n    tag_197:\n      0x03\n      dup3\n      add\n      0x00\n      tag_198\n      swap2\n      swap1\n      tag_174\n      jump\t// in\n    tag_198:\n      0x04\n      dup3\n      add\n      exp(0x0100, 0x00)\n      dup2\n      sload\n      swap1\n      0xffffffffffffffffffffffffffffffffffffffff\n      mul\n      not\n      and\n      swap1\n      sstore\n      pop\n      pop\n        /* \"verifystud.sol\":3305:3637  {... */\n      pop\n      pop\n      pop\n      pop\n      pop\n        /* \"verifystud.sol\":3239:3637  function verifyTransferstudent(uint256 index, bytes32 key) public {... */\n      pop\n      pop\n      jump\t// out\n        /* \"verifystud.sol\":5441:5592  function isStudent(address _studentAddress) public view returns (bool) {... */\n    tag_63:\n        /* \"verifystud.sol\":5506:5510  bool */\n      0x00\n        /* \"verifystud.sol\":5580:5583  0x0 */\n      dup1\n        /* \"verifystud.sol\":5530:5584  registeredStudentsmap[_studentAddress] != address(0x0) */\n      0xffffffffffffffffffffffffffffffffffffffff\n      and\n        /* \"verifystud.sol\":5530:5551  registeredStudentsmap */\n      0x07\n        /* \"verifystud.sol\":5530:5568  registeredStudentsmap[_studentAddress] */\n      0x00\n        /* \"verifystud.sol\":5552:5567  _studentAddress */\n      dup5\n        /* \"verifystud.sol\":5530:5568  registeredStudentsmap[_studentAddress] */\n      0xffffffffffffffffffffffffffffffffffffffff\n      and\n      0xffffffffffffffffffffffffffffffffffffffff\n      and\n      dup2\n      mstore\n      0x20\n      add\n      swap1\n      dup2\n      mstore\n      0x20\n      add\n      0x00\n      keccak256\n      0x00\n      swap1\n      sload\n      swap1\n      0x0100\n      exp\n      swap1\n      div\n      0xffffffffffffffffffffffffffffffffffffffff\n      and\n        /* \"verifystud.sol\":5530:5584  registeredStudentsmap[_studentAddress] != address(0x0) */\n      0xffffffffffffffffffffffffffffffffffffffff\n      and\n      eq\n      iszero\n        /* \"verifystud.sol\":5523:5584  return registeredStudentsmap[_studentAddress] != address(0x0) */\n      swap1\n      pop\n        /* \"verifystud.sol\":5441:5592  function isStudent(address _studentAddress) public view returns (bool) {... */\n      swap2\n      swap1\n      pop\n      jump\t// out\n        /* \"verifystud.sol\":1244:1425  function generateKey(... */\n    tag_68:\n        /* \"verifystud.sol\":1348:1355  bytes32 */\n      0x00\n        /* \"verifystud.sol\":1402:1410  _address */\n      dup3\n        /* \"verifystud.sol\":1412:1415  _id */\n      dup3\n        /* \"verifystud.sol\":1385:1416  abi.encodePacked(_address, _id) */\n      add(0x20, mload(0x40))\n      tag_201\n      swap3\n      swap2\n      swap1\n      tag_202\n      jump\t// in\n    tag_201:\n      mload(0x40)\n      0x20\n      dup2\n      dup4\n      sub\n      sub\n      dup2\n      mstore\n      swap1\n      0x40\n      mstore\n        /* \"verifystud.sol\":1375:1417  keccak256(abi.encodePacked(_address, _id)) */\n      dup1\n      mload\n      swap1\n      0x20\n      add\n      keccak256\n        /* \"verifystud.sol\":1368:1417  return keccak256(abi.encodePacked(_address, _id)) */\n      swap1\n      pop\n        /* \"verifystud.sol\":1244:1425  function generateKey(... */\n      swap3\n      swap2\n      pop\n      pop\n      jump\t// out\n        /* \"verifystud.sol\":402:432  uint256 public trialnumber = 0 */\n    tag_72:\n      sload(0x04)\n      dup2\n      jump\t// out\n        /* \"verifystud.sol\":4106:4226  function getTransferStudentsCount() public view returns (uint256) {... */\n    tag_75:\n        /* \"verifystud.sol\":4163:4170  uint256 */\n      0x00\n        /* \"verifystud.sol\":4190:4211  transferStudentsarray */\n      0x06\n        /* \"verifystud.sol\":4190:4218  transferStudentsarray.length */\n      dup1\n      sload\n      swap1\n      pop\n        /* \"verifystud.sol\":4183:4218  return transferStudentsarray.length */\n      swap1\n      pop\n        /* \"verifystud.sol\":4106:4226  function getTransferStudentsCount() public view returns (uint256) {... */\n      swap1\n      jump\t// out\n        /* \"verifystud.sol\":4912:5433  function getTransferStudentByindex(... */\n    tag_79:\n        /* \"verifystud.sol\":5026:5039  string memory */\n      0x60\n        /* \"verifystud.sol\":5041:5048  address */\n      0x00\n        /* \"verifystud.sol\":5050:5063  string memory */\n      0x60\n        /* \"verifystud.sol\":5065:5078  string memory */\n      dup1\n        /* \"verifystud.sol\":5080:5087  address */\n      0x00\n        /* \"verifystud.sol\":5121:5141  pendingStudentsarray */\n      0x05\n        /* \"verifystud.sol\":5121:5148  pendingStudentsarray.length */\n      dup1\n      sload\n      swap1\n      pop\n        /* \"verifystud.sol\":5113:5118  index */\n      dup7\n        /* \"verifystud.sol\":5113:5148  index < pendingStudentsarray.length */\n      lt\n        /* \"verifystud.sol\":5105:5172  require(index < pendingStudentsarray.length, \"Index out of bounds\") */\n      tag_205\n      jumpi\n      mload(0x40)\n      0x08c379a000000000000000000000000000000000000000000000000000000000\n      dup2\n      mstore\n      0x04\n      add\n      tag_206\n      swap1\n      tag_139\n      jump\t// in\n    tag_206:\n      mload(0x40)\n      dup1\n      swap2\n      sub\n      swap1\n      revert\n    tag_205:\n        /* \"verifystud.sol\":5185:5219  pendingstudents memory studentinfo */\n      0x00\n        /* \"verifystud.sol\":5222:5243  transferStudentsarray */\n      0x06\n        /* \"verifystud.sol\":5244:5249  index */\n      dup8\n        /* \"verifystud.sol\":5222:5250  transferStudentsarray[index] */\n      dup2\n      sload\n      dup2\n      lt\n      tag_207\n      jumpi\n      tag_208\n      tag_142\n      jump\t// in\n    tag_208:\n    tag_207:\n      swap1\n      0x00\n      mstore\n      keccak256(0x00, 0x20)\n      swap1\n      0x05\n      mul\n      add\n        /* \"verifystud.sol\":5185:5250  pendingstudents memory studentinfo = transferStudentsarray[index] */\n      mload(0x40)\n      dup1\n      0xa0\n      add\n      0x40\n      mstore\n      swap1\n      dup2\n      0x00\n      dup3\n      add\n      dup1\n      sload\n      tag_210\n      swap1\n      tag_121\n      jump\t// in\n    tag_210:\n      dup1\n      0x1f\n      add\n      0x20\n      dup1\n      swap2\n      div\n      mul\n      0x20\n      add\n      mload(0x40)\n      swap1\n      dup2\n      add\n      0x40\n      mstore\n      dup1\n      swap3\n      swap2\n      swap1\n      dup2\n      dup2\n      mstore\n      0x20\n      add\n      dup3\n      dup1\n      sload\n      tag_211\n      swap1\n      tag_121\n      jump\t// in\n    tag_211:\n      dup1\n      iszero\n      tag_212\n      jumpi\n      dup1\n      0x1f\n      lt\n      tag_213\n      jumpi\n      0x0100\n      dup1\n      dup4\n      sload\n      div\n      mul\n      dup4\n      mstore\n      swap2\n      0x20\n      add\n      swap2\n      jump(tag_212)\n    tag_213:\n      dup3\n      add\n      swap2\n      swap1\n      0x00\n      mstore\n      keccak256(0x00, 0x20)\n      swap1\n    tag_214:\n      dup2\n      sload\n      dup2\n      mstore\n      swap1\n      0x01\n      add\n      swap1\n      0x20\n      add\n      dup1\n      dup4\n      gt\n      tag_214\n      jumpi\n      dup3\n      swap1\n      sub\n      0x1f\n      and\n      dup3\n      add\n      swap2\n    tag_212:\n      pop\n      pop\n      pop\n      pop\n      pop\n      dup2\n      mstore\n      0x20\n      add\n      0x01\n      dup3\n      add\n      0x00\n      swap1\n      sload\n      swap1\n      0x0100\n      exp\n      swap1\n      div\n      0xffffffffffffffffffffffffffffffffffffffff\n      and\n      0xffffffffffffffffffffffffffffffffffffffff\n      and\n      0xffffffffffffffffffffffffffffffffffffffff\n      and\n      dup2\n      mstore\n      0x20\n      add\n      0x02\n      dup3\n      add\n      dup1\n      sload\n      tag_215\n      swap1\n      tag_121\n      jump\t// in\n    tag_215:\n      dup1\n      0x1f\n      add\n      0x20\n      dup1\n      swap2\n      div\n      mul\n      0x20\n      add\n      mload(0x40)\n      swap1\n      dup2\n      add\n      0x40\n      mstore\n      dup1\n      swap3\n      swap2\n      swap1\n      dup2\n      dup2\n      mstore\n      0x20\n      add\n      dup3\n      dup1\n      sload\n      tag_216\n      swap1\n      tag_121\n      jump\t// in\n    tag_216:\n      dup1\n      iszero\n      tag_217\n      jumpi\n      dup1\n      0x1f\n      lt\n      tag_218\n      jumpi\n      0x0100\n      dup1\n      dup4\n      sload\n      div\n      mul\n      dup4\n      mstore\n      swap2\n      0x20\n      add\n      swap2\n      jump(tag_217)\n    tag_218:\n      dup3\n      add\n      swap2\n      swap1\n      0x00\n      mstore\n      keccak256(0x00, 0x20)\n      swap1\n    tag_219:\n      dup2\n      sload\n      dup2\n      mstore\n      swap1\n      0x01\n      add\n      swap1\n      0x20\n      add\n      dup1\n      dup4\n      gt\n      tag_219\n      jumpi\n      dup3\n      swap1\n      sub\n      0x1f\n      and\n      dup3\n      add\n      swap2\n    tag_217:\n      pop\n      pop\n      pop\n      pop\n      pop\n      dup2\n      mstore\n      0x20\n      add\n      0x03\n      dup3\n      add\n      dup1\n      sload\n      tag_220\n      swap1\n      tag_121\n      jump\t// in\n    tag_220:\n      dup1\n      0x1f\n      add\n      0x20\n      dup1\n      swap2\n      div\n      mul\n      0x20\n      add\n      mload(0x40)\n      swap1\n      dup2\n      add\n      0x40\n      mstore\n      dup1\n      swap3\n      swap2\n      swap1\n      dup2\n      dup2\n      mstore\n      0x20\n      add\n      dup3\n      dup1\n      sload\n      tag_221\n      swap1\n      tag_121\n      jump\t// in\n    tag_221:\n      dup1\n      iszero\n      tag_222\n      jumpi\n      dup1\n      0x1f\n      lt\n      tag_223\n      jumpi\n      0x0100\n      dup1\n      dup4\n      sload\n      div\n      mul\n      dup4\n      mstore\n      swap2\n      0x20\n      add\n      swap2\n      jump(tag_222)\n    tag_223:\n      dup3\n      add\n      swap2\n      swap1\n      0x00\n      mstore\n      keccak256(0x00, 0x20)\n      swap1\n    tag_224:\n      dup2\n      sload\n      dup2\n      mstore\n      swap1\n      0x01\n      add\n      swap1\n      0x20\n      add\n      dup1\n      dup4\n      gt\n      tag_224\n      jumpi\n      dup3\n      swap1\n      sub\n      0x1f\n      and\n      dup3\n      add\n      swap2\n    tag_222:\n      pop\n      pop\n      pop\n      pop\n      pop\n      dup2\n      mstore\n      0x20\n      add\n      0x04\n      dup3\n      add\n      0x00\n      swap1\n      sload\n      swap1\n      0x0100\n      exp\n      swap1\n      div\n      0xffffffffffffffffffffffffffffffffffffffff\n      and\n      0xffffffffffffffffffffffffffffffffffffffff\n      and\n      0xffffffffffffffffffffffffffffffffffffffff\n      and\n      dup2\n      mstore\n      pop\n      pop\n      swap1\n      pop\n        /* \"verifystud.sol\":5277:5288  studentinfo */\n      dup1\n        /* \"verifystud.sol\":5277:5293  studentinfo.name */\n      0x00\n      add\n      mload\n        /* \"verifystud.sol\":5304:5315  studentinfo */\n      dup2\n        /* \"verifystud.sol\":5304:5331  studentinfo.student_address */\n      0x20\n      add\n      mload\n        /* \"verifystud.sol\":5342:5353  studentinfo */\n      dup3\n        /* \"verifystud.sol\":5342:5359  studentinfo.email */\n      0x40\n      add\n      mload\n        /* \"verifystud.sol\":5370:5381  studentinfo */\n      dup4\n        /* \"verifystud.sol\":5370:5384  studentinfo.id */\n      0x60\n      add\n      mload\n        /* \"verifystud.sol\":5395:5406  studentinfo */\n      dup5\n        /* \"verifystud.sol\":5395:5418  studentinfo.instAddress */\n      0x80\n      add\n      mload\n        /* \"verifystud.sol\":5259:5425  return (... */\n      swap6\n      pop\n      swap6\n      pop\n      swap6\n      pop\n      swap6\n      pop\n      swap6\n      pop\n      pop\n        /* \"verifystud.sol\":4912:5433  function getTransferStudentByindex(... */\n      swap2\n      swap4\n      swap6\n      swap1\n      swap3\n      swap5\n      pop\n      jump\t// out\n        /* \"verifystud.sol\":1954:2828  function addTransferStudToPending(string memory _name, address _student_address, string memory _email, string memory _id, address _currentInstAddress, address _newinstAddress) public{... */\n    tag_84:\n        /* \"verifystud.sol\":2147:2158  bytes32 key */\n      0x00\n        /* \"verifystud.sol\":2161:2168  studreg */\n      0x01\n      0x00\n      swap1\n      sload\n      swap1\n      0x0100\n      exp\n      swap1\n      div\n      0xffffffffffffffffffffffffffffffffffffffff\n      and\n        /* \"verifystud.sol\":2161:2180  studreg.generateKey */\n      0xffffffffffffffffffffffffffffffffffffffff\n      and\n      0x8a97503d\n        /* \"verifystud.sol\":2195:2211  _student_address */\n      dup8\n        /* \"verifystud.sol\":2226:2229  _id */\n      dup7\n        /* \"verifystud.sol\":2161:2240  studreg.generateKey(... */\n      mload(0x40)\n      dup4\n      0xffffffff\n      and\n      0xe0\n      shl\n      dup2\n      mstore\n      0x04\n      add\n      tag_226\n      swap3\n      swap2\n      swap1\n      tag_227\n      jump\t// in\n    tag_226:\n      0x20\n      mload(0x40)\n      dup1\n      dup4\n      sub\n      dup2\n      dup7\n      gas\n      staticcall\n      iszero\n      dup1\n      iszero\n      tag_229\n      jumpi\n      returndatasize\n      0x00\n      dup1\n      returndatacopy\n      revert(0x00, returndatasize)\n    tag_229:\n      pop\n      pop\n      pop\n      pop\n      mload(0x40)\n      returndatasize\n      not(0x1f)\n      0x1f\n      dup3\n      add\n      and\n      dup3\n      add\n      dup1\n      0x40\n      mstore\n      pop\n      dup2\n      add\n      swap1\n      tag_230\n      swap2\n      swap1\n      tag_231\n      jump\t// in\n    tag_230:\n        /* \"verifystud.sol\":2147:2240  bytes32 key = studreg.generateKey(... */\n      swap1\n      pop\n        /* \"verifystud.sol\":2482:2522  pendingstudents memory newpendingstudent */\n      tag_232\n      tag_179\n      jump\t// in\n    tag_232:\n        /* \"verifystud.sol\":2558:2563  _name */\n      dup8\n        /* \"verifystud.sol\":2533:2550  newpendingstudent */\n      dup2\n        /* \"verifystud.sol\":2533:2555  newpendingstudent.name */\n      0x00\n      add\n        /* \"verifystud.sol\":2533:2563  newpendingstudent.name = _name */\n      dup2\n      swap1\n      mstore\n      pop\n        /* \"verifystud.sol\":2610:2626  _student_address */\n      dup7\n        /* \"verifystud.sol\":2574:2591  newpendingstudent */\n      dup2\n        /* \"verifystud.sol\":2574:2607  newpendingstudent.student_address */\n      0x20\n      add\n        /* \"verifystud.sol\":2574:2626  newpendingstudent.student_address = _student_address */\n      swap1\n      0xffffffffffffffffffffffffffffffffffffffff\n      and\n      swap1\n      dup2\n      0xffffffffffffffffffffffffffffffffffffffff\n      and\n      dup2\n      mstore\n      pop\n      pop\n        /* \"verifystud.sol\":2663:2669  _email */\n      dup6\n        /* \"verifystud.sol\":2637:2654  newpendingstudent */\n      dup2\n        /* \"verifystud.sol\":2637:2660  newpendingstudent.email */\n      0x40\n      add\n        /* \"verifystud.sol\":2637:2669  newpendingstudent.email = _email */\n      dup2\n      swap1\n      mstore\n      pop\n        /* \"verifystud.sol\":2703:2706  _id */\n      dup5\n        /* \"verifystud.sol\":2680:2697  newpendingstudent */\n      dup2\n        /* \"verifystud.sol\":2680:2700  newpendingstudent.id */\n      0x60\n      add\n        /* \"verifystud.sol\":2680:2706  newpendingstudent.id = _id */\n      dup2\n      swap1\n      mstore\n      pop\n        /* \"verifystud.sol\":2749:2764  _newinstAddress */\n      dup3\n        /* \"verifystud.sol\":2717:2734  newpendingstudent */\n      dup2\n        /* \"verifystud.sol\":2717:2746  newpendingstudent.instAddress */\n      0x80\n      add\n        /* \"verifystud.sol\":2717:2764  newpendingstudent.instAddress = _newinstAddress */\n      swap1\n      0xffffffffffffffffffffffffffffffffffffffff\n      and\n      swap1\n      dup2\n      0xffffffffffffffffffffffffffffffffffffffff\n      and\n      dup2\n      mstore\n      pop\n      pop\n        /* \"verifystud.sol\":2775:2796  transferStudentsarray */\n      0x06\n        /* \"verifystud.sol\":2802:2819  newpendingstudent */\n      dup2\n        /* \"verifystud.sol\":2775:2820  transferStudentsarray.push(newpendingstudent) */\n      swap1\n      dup1\n      0x01\n      dup2\n      sload\n      add\n      dup1\n      dup3\n      sstore\n      dup1\n      swap2\n      pop\n      pop\n      0x01\n      swap1\n      sub\n      swap1\n      0x00\n      mstore\n      keccak256(0x00, 0x20)\n      swap1\n      0x05\n      mul\n      add\n      0x00\n      swap1\n      swap2\n      swap1\n      swap2\n      swap1\n      swap2\n      pop\n      0x00\n      dup3\n      add\n      mload\n      dup2\n      0x00\n      add\n      swap1\n      dup1\n      mload\n      swap1\n      0x20\n      add\n      swap1\n      tag_234\n      swap3\n      swap2\n      swap1\n      tag_182\n      jump\t// in\n    tag_234:\n      pop\n      0x20\n      dup3\n      add\n      mload\n      dup2\n      0x01\n      add\n      exp(0x0100, 0x00)\n      dup2\n      sload\n      dup2\n      0xffffffffffffffffffffffffffffffffffffffff\n      mul\n      not\n      and\n      swap1\n      dup4\n      0xffffffffffffffffffffffffffffffffffffffff\n      and\n      mul\n      or\n      swap1\n      sstore\n      pop\n      0x40\n      dup3\n      add\n      mload\n      dup2\n      0x02\n      add\n      swap1\n      dup1\n      mload\n      swap1\n      0x20\n      add\n      swap1\n      tag_235\n      swap3\n      swap2\n      swap1\n      tag_182\n      jump\t// in\n    tag_235:\n      pop\n      0x60\n      dup3\n      add\n      mload\n      dup2\n      0x03\n      add\n      swap1\n      dup1\n      mload\n      swap1\n      0x20\n      add\n      swap1\n      tag_236\n      swap3\n      swap2\n      swap1\n      tag_182\n      jump\t// in\n    tag_236:\n      pop\n      0x80\n      dup3\n      add\n      mload\n      dup2\n      0x04\n      add\n      exp(0x0100, 0x00)\n      dup2\n      sload\n      dup2\n      0xffffffffffffffffffffffffffffffffffffffff\n      mul\n      not\n      and\n      swap1\n      dup4\n      0xffffffffffffffffffffffffffffffffffffffff\n      and\n      mul\n      or\n      swap1\n      sstore\n      pop\n      pop\n      pop\n        /* \"verifystud.sol\":2136:2828  {... */\n      pop\n      pop\n        /* \"verifystud.sol\":1954:2828  function addTransferStudToPending(string memory _name, address _student_address, string memory _email, string memory _id, address _currentInstAddress, address _newinstAddress) public{... */\n      pop\n      pop\n      pop\n      pop\n      pop\n      pop\n      jump\t// out\n        /* \"verifystud.sol\":4234:4352  function getPendingStudentsCount() public view returns (uint256) {... */\n    tag_86:\n        /* \"verifystud.sol\":4290:4297  uint256 */\n      0x00\n        /* \"verifystud.sol\":4317:4337  pendingStudentsarray */\n      0x05\n        /* \"verifystud.sol\":4317:4344  pendingStudentsarray.length */\n      dup1\n      sload\n      swap1\n      pop\n        /* \"verifystud.sol\":4310:4344  return pendingStudentsarray.length */\n      swap1\n      pop\n        /* \"verifystud.sol\":4234:4352  function getPendingStudentsCount() public view returns (uint256) {... */\n      swap1\n      jump\t// out\n        /* \"verifystud.sol\":319:364  address public studentRegisterContractAddress */\n    tag_89:\n      0x03\n      0x00\n      swap1\n      sload\n      swap1\n      0x0100\n      exp\n      swap1\n      div\n      0xffffffffffffffffffffffffffffffffffffffff\n      and\n      dup2\n      jump\t// out\n        /* \"verifystud.sol\":286:312  verifyinst public instregd */\n    tag_92:\n      0x02\n      0x00\n      swap1\n      sload\n      swap1\n      0x0100\n      exp\n      swap1\n      div\n      0xffffffffffffffffffffffffffffffffffffffff\n      and\n      dup2\n      jump\t// out\n        /* \"verifystud.sol\":983:1028  pendingstudents[] public pendingStudentsarray */\n    tag_97:\n      0x05\n      dup2\n      dup2\n      sload\n      dup2\n      lt\n      tag_238\n      jumpi\n      0x00\n      dup1\n      revert\n    tag_238:\n      swap1\n      0x00\n      mstore\n      keccak256(0x00, 0x20)\n      swap1\n      0x05\n      mul\n      add\n      0x00\n      swap2\n      pop\n      swap1\n      pop\n      dup1\n      0x00\n      add\n      dup1\n      sload\n      tag_240\n      swap1\n      tag_121\n      jump\t// in\n    tag_240:\n      dup1\n      0x1f\n      add\n      0x20\n      dup1\n      swap2\n      div\n      mul\n      0x20\n      add\n      mload(0x40)\n      swap1\n      dup2\n      add\n      0x40\n      mstore\n      dup1\n      swap3\n      swap2\n      swap1\n      dup2\n      dup2\n      mstore\n      0x20\n      add\n      dup3\n      dup1\n      sload\n      tag_241\n      swap1\n      tag_121\n      jump\t// in\n    tag_241:\n      dup1\n      iszero\n      tag_242\n      jumpi\n      dup1\n      0x1f\n      lt\n      tag_243\n      jumpi\n      0x0100\n      dup1\n      dup4\n      sload\n      div\n      mul\n      dup4\n      mstore\n      swap2\n      0x20\n      add\n      swap2\n      jump(tag_242)\n    tag_243:\n      dup3\n      add\n      swap2\n      swap1\n      0x00\n      mstore\n      keccak256(0x00, 0x20)\n      swap1\n    tag_244:\n      dup2\n      sload\n      dup2\n      mstore\n      swap1\n      0x01\n      add\n      swap1\n      0x20\n      add\n      dup1\n      dup4\n      gt\n      tag_244\n      jumpi\n      dup3\n      swap1\n      sub\n      0x1f\n      and\n      dup3\n      add\n      swap2\n    tag_242:\n      pop\n      pop\n      pop\n      pop\n      pop\n      swap1\n      dup1\n      0x01\n      add\n      0x00\n      swap1\n      sload\n      swap1\n      0x0100\n      exp\n      swap1\n      div\n      0xffffffffffffffffffffffffffffffffffffffff\n      and\n      swap1\n      dup1\n      0x02\n      add\n      dup1\n      sload\n      tag_245\n      swap1\n      tag_121\n      jump\t// in\n    tag_245:\n      dup1\n      0x1f\n      add\n      0x20\n      dup1\n      swap2\n      div\n      mul\n      0x20\n      add\n      mload(0x40)\n      swap1\n      dup2\n      add\n      0x40\n      mstore\n      dup1\n      swap3\n      swap2\n      swap1\n      dup2\n      dup2\n      mstore\n      0x20\n      add\n      dup3\n      dup1\n      sload\n      tag_246\n      swap1\n      tag_121\n      jump\t// in\n    tag_246:\n      dup1\n      iszero\n      tag_247\n      jumpi\n      dup1\n      0x1f\n      lt\n      tag_248\n      jumpi\n      0x0100\n      dup1\n      dup4\n      sload\n      div\n      mul\n      dup4\n      mstore\n      swap2\n      0x20\n      add\n      swap2\n      jump(tag_247)\n    tag_248:\n      dup3\n      add\n      swap2\n      swap1\n      0x00\n      mstore\n      keccak256(0x00, 0x20)\n      swap1\n    tag_249:\n      dup2\n      sload\n      dup2\n      mstore\n      swap1\n      0x01\n      add\n      swap1\n      0x20\n      add\n      dup1\n      dup4\n      gt\n      tag_249\n      jumpi\n      dup3\n      swap1\n      sub\n      0x1f\n      and\n      dup3\n      add\n      swap2\n    tag_247:\n      pop\n      pop\n      pop\n      pop\n      pop\n      swap1\n      dup1\n      0x03\n      add\n      dup1\n      sload\n      tag_250\n      swap1\n      tag_121\n      jump\t// in\n    tag_250:\n      dup1\n      0x1f\n      add\n      0x20\n      dup1\n      swap2\n      div\n      mul\n      0x20\n      add\n      mload(0x40)\n      swap1\n      dup2\n      add\n      0x40\n      mstore\n      dup1\n      swap3\n      swap2\n      swap1\n      dup2\n      dup2\n      mstore\n      0x20\n      add\n      dup3\n      dup1\n      sload\n      tag_251\n      swap1\n      tag_121\n      jump\t// in\n    tag_251:\n      dup1\n      iszero\n      tag_252\n      jumpi\n      dup1\n      0x1f\n      lt\n      tag_253\n      jumpi\n      0x0100\n      dup1\n      dup4\n      sload\n      div\n      mul\n      dup4\n      mstore\n      swap2\n      0x20\n      add\n      swap2\n      jump(tag_252)\n    tag_253:\n      dup3\n      add\n      swap2\n      swap1\n      0x00\n      mstore\n      keccak256(0x00, 0x20)\n      swap1\n    tag_254:\n      dup2\n      sload\n      dup2\n      mstore\n      swap1\n      0x01\n      add\n      swap1\n      0x20\n      add\n      dup1\n      dup4\n      gt\n      tag_254\n      jumpi\n      dup3\n      swap1\n      sub\n      0x1f\n      and\n      dup3\n      add\n      swap2\n    tag_252:\n      pop\n      pop\n      pop\n      pop\n      pop\n      swap1\n      dup1\n      0x04\n      add\n      0x00\n      swap1\n      sload\n      swap1\n      0x0100\n      exp\n      swap1\n      div\n      0xffffffffffffffffffffffffffffffffffffffff\n      and\n      swap1\n      pop\n      dup6\n      jump\t// out\n        /* \"verifystud.sol\":252:279  registerStud public studreg */\n    tag_100:\n      0x01\n      0x00\n      swap1\n      sload\n      swap1\n      0x0100\n      exp\n      swap1\n      div\n      0xffffffffffffffffffffffffffffffffffffffff\n      and\n      dup2\n      jump\t// out\n        /* \"verifystud.sol\":5722:5882  function getStudentContractByAddress(... */\n    tag_105:\n        /* \"verifystud.sol\":5815:5822  address */\n      0x00\n        /* \"verifystud.sol\":5842:5863  registeredStudentsmap */\n      0x07\n        /* \"verifystud.sol\":5842:5874  registeredStudentsmap[_employee] */\n      0x00\n        /* \"verifystud.sol\":5864:5873  _employee */\n      dup4\n        /* \"verifystud.sol\":5842:5874  registeredStudentsmap[_employee] */\n      0xffffffffffffffffffffffffffffffffffffffff\n      and\n      0xffffffffffffffffffffffffffffffffffffffff\n      and\n      dup2\n      mstore\n      0x20\n      add\n      swap1\n      dup2\n      mstore\n      0x20\n      add\n      0x00\n      keccak256\n      0x00\n      swap1\n      sload\n      swap1\n      0x0100\n      exp\n      swap1\n      div\n      0xffffffffffffffffffffffffffffffffffffffff\n      and\n        /* \"verifystud.sol\":5835:5874  return registeredStudentsmap[_employee] */\n      swap1\n      pop\n        /* \"verifystud.sol\":5722:5882  function getStudentContractByAddress(... */\n      swap2\n      swap1\n      pop\n      jump\t// out\n        /* \"verifystud.sol\":3643:4098  function removeGraduateStud(uint256 index,address student_address,string memory id) public {... */\n    tag_110:\n        /* \"verifystud.sol\":3745:3756  bytes32 key */\n      0x00\n        /* \"verifystud.sol\":3759:3766  studreg */\n      0x01\n      0x00\n      swap1\n      sload\n      swap1\n      0x0100\n      exp\n      swap1\n      div\n      0xffffffffffffffffffffffffffffffffffffffff\n      and\n        /* \"verifystud.sol\":3759:3778  studreg.generateKey */\n      0xffffffffffffffffffffffffffffffffffffffff\n      and\n      0x8a97503d\n        /* \"verifystud.sol\":3793:3808  student_address */\n      dup5\n        /* \"verifystud.sol\":3823:3825  id */\n      dup5\n        /* \"verifystud.sol\":3759:3836  studreg.generateKey(... */\n      mload(0x40)\n      dup4\n      0xffffffff\n      and\n      0xe0\n      shl\n      dup2\n      mstore\n      0x04\n      add\n      tag_257\n      swap3\n      swap2\n      swap1\n      tag_227\n      jump\t// in\n    tag_257:\n      0x20\n      mload(0x40)\n      dup1\n      dup4\n      sub\n      dup2\n      dup7\n      gas\n      staticcall\n      iszero\n      dup1\n      iszero\n      tag_259\n      jumpi\n      returndatasize\n      0x00\n      dup1\n      returndatacopy\n      revert(0x00, returndatasize)\n    tag_259:\n      pop\n      pop\n      pop\n      pop\n      mload(0x40)\n      returndatasize\n      not(0x1f)\n      0x1f\n      dup3\n      add\n      and\n      dup3\n      add\n      dup1\n      0x40\n      mstore\n      pop\n      dup2\n      add\n      swap1\n      tag_260\n      swap2\n      swap1\n      tag_231\n      jump\t// in\n    tag_260:\n        /* \"verifystud.sol\":3745:3836  bytes32 key = studreg.generateKey(... */\n      swap1\n      pop\n        /* \"verifystud.sol\":3862:3888  address currentInstAddress */\n      0x00\n        /* \"verifystud.sol\":3890:3897  studreg */\n      0x01\n      0x00\n      swap1\n      sload\n      swap1\n      0x0100\n      exp\n      swap1\n      div\n      0xffffffffffffffffffffffffffffffffffffffff\n      and\n        /* \"verifystud.sol\":3890:3923  studreg.getRegisteredStudentByKey */\n      0xffffffffffffffffffffffffffffffffffffffff\n      and\n      0x435df20d\n        /* \"verifystud.sol\":3924:3927  key */\n      dup4\n        /* \"verifystud.sol\":3890:3928  studreg.getRegisteredStudentByKey(key) */\n      mload(0x40)\n      dup3\n      0xffffffff\n      and\n      0xe0\n      shl\n      dup2\n      mstore\n      0x04\n      add\n      tag_261\n      swap2\n      swap1\n      tag_70\n      jump\t// in\n    tag_261:\n      0x00\n      mload(0x40)\n      dup1\n      dup4\n      sub\n      dup2\n      dup7\n      gas\n      staticcall\n      iszero\n      dup1\n      iszero\n      tag_263\n      jumpi\n      returndatasize\n      0x00\n      dup1\n      returndatacopy\n      revert(0x00, returndatasize)\n    tag_263:\n      pop\n      pop\n      pop\n      pop\n      mload(0x40)\n      returndatasize\n      0x00\n      dup3\n      returndatacopy\n      returndatasize\n      not(0x1f)\n      0x1f\n      dup3\n      add\n      and\n      dup3\n      add\n      dup1\n      0x40\n      mstore\n      pop\n      dup2\n      add\n      swap1\n      tag_264\n      swap2\n      swap1\n      tag_265\n      jump\t// in\n    tag_264:\n        /* \"verifystud.sol\":3857:3928  (,,,,address currentInstAddress)=studreg.getRegisteredStudentByKey(key) */\n      swap5\n      pop\n      pop\n      pop\n      pop\n      pop\n        /* \"verifystud.sol\":3961:3979  currentInstAddress */\n      dup1\n        /* \"verifystud.sol\":3947:3979  msg.sender == currentInstAddress */\n      0xffffffffffffffffffffffffffffffffffffffff\n      and\n        /* \"verifystud.sol\":3947:3957  msg.sender */\n      caller\n        /* \"verifystud.sol\":3947:3979  msg.sender == currentInstAddress */\n      0xffffffffffffffffffffffffffffffffffffffff\n      and\n      eq\n        /* \"verifystud.sol\":3939:3980  require(msg.sender == currentInstAddress) */\n      tag_266\n      jumpi\n      0x00\n      dup1\n      revert\n    tag_266:\n        /* \"verifystud.sol\":3999:4006  studreg */\n      0x01\n      0x00\n      swap1\n      sload\n      swap1\n      0x0100\n      exp\n      swap1\n      div\n      0xffffffffffffffffffffffffffffffffffffffff\n      and\n        /* \"verifystud.sol\":3999:4029  studreg.removeInstFromstudInfo */\n      0xffffffffffffffffffffffffffffffffffffffff\n      and\n      0x956a3545\n        /* \"verifystud.sol\":4030:4035  index */\n      dup7\n        /* \"verifystud.sol\":4037:4040  key */\n      dup5\n        /* \"verifystud.sol\":3999:4041  studreg.removeInstFromstudInfo(index, key) */\n      mload(0x40)\n      dup4\n      0xffffffff\n      and\n      0xe0\n      shl\n      dup2\n      mstore\n      0x04\n      add\n      tag_267\n      swap3\n      swap2\n      swap1\n      tag_268\n      jump\t// in\n    tag_267:\n      0x20\n      mload(0x40)\n      dup1\n      dup4\n      sub\n      dup2\n      0x00\n      dup8\n      gas\n      call\n      iszero\n      dup1\n      iszero\n      tag_270\n      jumpi\n      returndatasize\n      0x00\n      dup1\n      returndatacopy\n      revert(0x00, returndatasize)\n    tag_270:\n      pop\n      pop\n      pop\n      pop\n      mload(0x40)\n      returndatasize\n      not(0x1f)\n      0x1f\n      dup3\n      add\n      and\n      dup3\n      add\n      dup1\n      0x40\n      mstore\n      pop\n      dup2\n      add\n      swap1\n      tag_271\n      swap2\n      swap1\n      tag_166\n      jump\t// in\n    tag_271:\n        /* \"verifystud.sol\":3991:4090  require(studreg.removeInstFromstudInfo(index, key), \"Failed to remove institute from student info\") */\n      tag_272\n      jumpi\n      mload(0x40)\n      0x08c379a000000000000000000000000000000000000000000000000000000000\n      dup2\n      mstore\n      0x04\n      add\n      tag_273\n      swap1\n      tag_274\n      jump\t// in\n    tag_273:\n      mload(0x40)\n      dup1\n      swap2\n      sub\n      swap1\n      revert\n    tag_272:\n        /* \"verifystud.sol\":3734:4098  {... */\n      pop\n      pop\n        /* \"verifystud.sol\":3643:4098  function removeGraduateStud(uint256 index,address student_address,string memory id) public {... */\n      pop\n      pop\n      pop\n      jump\t// out\n    tag_174:\n      pop\n      dup1\n      sload\n      tag_275\n      swap1\n      tag_121\n      jump\t// in\n    tag_275:\n      0x00\n      dup3\n      sstore\n      dup1\n      0x1f\n      lt\n      tag_277\n      jumpi\n      pop\n      jump(tag_276)\n    tag_277:\n      0x1f\n      add\n      0x20\n      swap1\n      div\n      swap1\n      0x00\n      mstore\n      keccak256(0x00, 0x20)\n      swap1\n      dup2\n      add\n      swap1\n      tag_278\n      swap2\n      swap1\n      tag_279\n      jump\t// in\n    tag_278:\n    tag_276:\n      pop\n      jump\t// out\n    tag_179:\n      mload(0x40)\n      dup1\n      0xa0\n      add\n      0x40\n      mstore\n      dup1\n      0x60\n      dup2\n      mstore\n      0x20\n      add\n      and(0xffffffffffffffffffffffffffffffffffffffff, 0x00)\n      dup2\n      mstore\n      0x20\n      add\n      0x60\n      dup2\n      mstore\n      0x20\n      add\n      0x60\n      dup2\n      mstore\n      0x20\n      add\n      and(0xffffffffffffffffffffffffffffffffffffffff, 0x00)\n      dup2\n      mstore\n      pop\n      swap1\n      jump\t// out\n    tag_182:\n      dup3\n      dup1\n      sload\n      tag_280\n      swap1\n      tag_121\n      jump\t// in\n    tag_280:\n      swap1\n      0x00\n      mstore\n      keccak256(0x00, 0x20)\n      swap1\n      0x1f\n      add\n      0x20\n      swap1\n      div\n      dup2\n      add\n      swap3\n      dup3\n      tag_282\n      jumpi\n      0x00\n      dup6\n      sstore\n      jump(tag_281)\n    tag_282:\n      dup3\n      0x1f\n      lt\n      tag_283\n      jumpi\n      dup1\n      mload\n      not(0xff)\n      and\n      dup4\n      dup1\n      add\n      or\n      dup6\n      sstore\n      jump(tag_281)\n    tag_283:\n      dup3\n      dup1\n      add\n      0x01\n      add\n      dup6\n      sstore\n      dup3\n      iszero\n      tag_281\n      jumpi\n      swap2\n      dup3\n      add\n    tag_284:\n      dup3\n      dup2\n      gt\n      iszero\n      tag_285\n      jumpi\n      dup3\n      mload\n      dup3\n      sstore\n      swap2\n      0x20\n      add\n      swap2\n      swap1\n      0x01\n      add\n      swap1\n      jump(tag_284)\n    tag_285:\n    tag_281:\n      pop\n      swap1\n      pop\n      tag_286\n      swap2\n      swap1\n      tag_279\n      jump\t// in\n    tag_286:\n      pop\n      swap1\n      jump\t// out\n    tag_279:\n    tag_287:\n      dup1\n      dup3\n      gt\n      iszero\n      tag_288\n      jumpi\n      0x00\n      dup2\n      0x00\n      swap1\n      sstore\n      pop\n      0x01\n      add\n      jump(tag_287)\n    tag_288:\n      pop\n      swap1\n      jump\t// out\n        /* \"#utility.yul\":7:84   */\n    tag_289:\n        /* \"#utility.yul\":44:51   */\n      0x00\n        /* \"#utility.yul\":73:78   */\n      dup2\n        /* \"#utility.yul\":62:78   */\n      swap1\n      pop\n        /* \"#utility.yul\":7:84   */\n      swap2\n      swap1\n      pop\n      jump\t// out\n        /* \"#utility.yul\":90:208   */\n    tag_290:\n        /* \"#utility.yul\":177:201   */\n      tag_350\n        /* \"#utility.yul\":195:200   */\n      dup2\n        /* \"#utility.yul\":177:201   */\n      tag_289\n      jump\t// in\n    tag_350:\n        /* \"#utility.yul\":172:175   */\n      dup3\n        /* \"#utility.yul\":165:202   */\n      mstore\n        /* \"#utility.yul\":90:208   */\n      pop\n      pop\n      jump\t// out\n        /* \"#utility.yul\":214:436   */\n    tag_30:\n        /* \"#utility.yul\":307:311   */\n      0x00\n        /* \"#utility.yul\":345:347   */\n      0x20\n        /* \"#utility.yul\":334:343   */\n      dup3\n        /* \"#utility.yul\":330:348   */\n      add\n        /* \"#utility.yul\":322:348   */\n      swap1\n      pop\n        /* \"#utility.yul\":358:429   */\n      tag_352\n        /* \"#utility.yul\":426:427   */\n      0x00\n        /* \"#utility.yul\":415:424   */\n      dup4\n        /* \"#utility.yul\":411:428   */\n      add\n        /* \"#utility.yul\":402:408   */\n      dup5\n        /* \"#utility.yul\":358:429   */\n      tag_290\n      jump\t// in\n    tag_352:\n        /* \"#utility.yul\":214:436   */\n      swap3\n      swap2\n      pop\n      pop\n      jump\t// out\n        /* \"#utility.yul\":442:532   */\n    tag_291:\n        /* \"#utility.yul\":476:483   */\n      0x00\n        /* \"#utility.yul\":519:524   */\n      dup2\n        /* \"#utility.yul\":512:525   */\n      iszero\n        /* \"#utility.yul\":505:526   */\n      iszero\n        /* \"#utility.yul\":494:526   */\n      swap1\n      pop\n        /* \"#utility.yul\":442:532   */\n      swap2\n      swap1\n      pop\n      jump\t// out\n        /* \"#utility.yul\":538:647   */\n    tag_292:\n        /* \"#utility.yul\":619:640   */\n      tag_355\n        /* \"#utility.yul\":634:639   */\n      dup2\n        /* \"#utility.yul\":619:640   */\n      tag_291\n      jump\t// in\n    tag_355:\n        /* \"#utility.yul\":614:617   */\n      dup3\n        /* \"#utility.yul\":607:641   */\n      mstore\n        /* \"#utility.yul\":538:647   */\n      pop\n      pop\n      jump\t// out\n        /* \"#utility.yul\":653:863   */\n    tag_34:\n        /* \"#utility.yul\":740:744   */\n      0x00\n        /* \"#utility.yul\":778:780   */\n      0x20\n        /* \"#utility.yul\":767:776   */\n      dup3\n        /* \"#utility.yul\":763:781   */\n      add\n        /* \"#utility.yul\":755:781   */\n      swap1\n      pop\n        /* \"#utility.yul\":791:856   */\n      tag_357\n        /* \"#utility.yul\":853:854   */\n      0x00\n        /* \"#utility.yul\":842:851   */\n      dup4\n        /* \"#utility.yul\":838:855   */\n      add\n        /* \"#utility.yul\":829:835   */\n      dup5\n        /* \"#utility.yul\":791:856   */\n      tag_292\n      jump\t// in\n    tag_357:\n        /* \"#utility.yul\":653:863   */\n      swap3\n      swap2\n      pop\n      pop\n      jump\t// out\n        /* \"#utility.yul\":869:944   */\n    tag_293:\n        /* \"#utility.yul\":902:908   */\n      0x00\n        /* \"#utility.yul\":935:937   */\n      0x40\n        /* \"#utility.yul\":929:938   */\n      mload\n        /* \"#utility.yul\":919:938   */\n      swap1\n      pop\n        /* \"#utility.yul\":869:944   */\n      swap1\n      jump\t// out\n        /* \"#utility.yul\":950:1067   */\n    tag_294:\n        /* \"#utility.yul\":1059:1060   */\n      0x00\n        /* \"#utility.yul\":1056:1057   */\n      dup1\n        /* \"#utility.yul\":1049:1061   */\n      revert\n        /* \"#utility.yul\":1073:1190   */\n    tag_295:\n        /* \"#utility.yul\":1182:1183   */\n      0x00\n        /* \"#utility.yul\":1179:1180   */\n      dup1\n        /* \"#utility.yul\":1172:1184   */\n      revert\n        /* \"#utility.yul\":1196:1318   */\n    tag_296:\n        /* \"#utility.yul\":1269:1293   */\n      tag_362\n        /* \"#utility.yul\":1287:1292   */\n      dup2\n        /* \"#utility.yul\":1269:1293   */\n      tag_289\n      jump\t// in\n    tag_362:\n        /* \"#utility.yul\":1262:1267   */\n      dup2\n        /* \"#utility.yul\":1259:1294   */\n      eq\n        /* \"#utility.yul\":1249:1312   */\n      tag_363\n      jumpi\n        /* \"#utility.yul\":1308:1309   */\n      0x00\n        /* \"#utility.yul\":1305:1306   */\n      dup1\n        /* \"#utility.yul\":1298:1310   */\n      revert\n        /* \"#utility.yul\":1249:1312   */\n    tag_363:\n        /* \"#utility.yul\":1196:1318   */\n      pop\n      jump\t// out\n        /* \"#utility.yul\":1324:1463   */\n    tag_297:\n        /* \"#utility.yul\":1370:1375   */\n      0x00\n        /* \"#utility.yul\":1408:1414   */\n      dup2\n        /* \"#utility.yul\":1395:1415   */\n      calldataload\n        /* \"#utility.yul\":1386:1415   */\n      swap1\n      pop\n        /* \"#utility.yul\":1424:1457   */\n      tag_365\n        /* \"#utility.yul\":1451:1456   */\n      dup2\n        /* \"#utility.yul\":1424:1457   */\n      tag_296\n      jump\t// in\n    tag_365:\n        /* \"#utility.yul\":1324:1463   */\n      swap3\n      swap2\n      pop\n      pop\n      jump\t// out\n        /* \"#utility.yul\":1469:1798   */\n    tag_37:\n        /* \"#utility.yul\":1528:1534   */\n      0x00\n        /* \"#utility.yul\":1577:1579   */\n      0x20\n        /* \"#utility.yul\":1565:1574   */\n      dup3\n        /* \"#utility.yul\":1556:1563   */\n      dup5\n        /* \"#utility.yul\":1552:1575   */\n      sub\n        /* \"#utility.yul\":1548:1580   */\n      slt\n        /* \"#utility.yul\":1545:1664   */\n      iszero\n      tag_367\n      jumpi\n        /* \"#utility.yul\":1583:1662   */\n      tag_368\n      tag_294\n      jump\t// in\n    tag_368:\n        /* \"#utility.yul\":1545:1664   */\n    tag_367:\n        /* \"#utility.yul\":1703:1704   */\n      0x00\n        /* \"#utility.yul\":1728:1781   */\n      tag_369\n        /* \"#utility.yul\":1773:1780   */\n      dup5\n        /* \"#utility.yul\":1764:1770   */\n      dup3\n        /* \"#utility.yul\":1753:1762   */\n      dup6\n        /* \"#utility.yul\":1749:1771   */\n      add\n        /* \"#utility.yul\":1728:1781   */\n      tag_297\n      jump\t// in\n    tag_369:\n        /* \"#utility.yul\":1718:1781   */\n      swap2\n      pop\n        /* \"#utility.yul\":1674:1791   */\n      pop\n        /* \"#utility.yul\":1469:1798   */\n      swap3\n      swap2\n      pop\n      pop\n      jump\t// out\n        /* \"#utility.yul\":1804:1903   */\n    tag_298:\n        /* \"#utility.yul\":1856:1862   */\n      0x00\n        /* \"#utility.yul\":1890:1895   */\n      dup2\n        /* \"#utility.yul\":1884:1896   */\n      mload\n        /* \"#utility.yul\":1874:1896   */\n      swap1\n      pop\n        /* \"#utility.yul\":1804:1903   */\n      swap2\n      swap1\n      pop\n      jump\t// out\n        /* \"#utility.yul\":1909:2078   */\n    tag_299:\n        /* \"#utility.yul\":1993:2004   */\n      0x00\n        /* \"#utility.yul\":2027:2033   */\n      dup3\n        /* \"#utility.yul\":2022:2025   */\n      dup3\n        /* \"#utility.yul\":2015:2034   */\n      mstore\n        /* \"#utility.yul\":2067:2071   */\n      0x20\n        /* \"#utility.yul\":2062:2065   */\n      dup3\n        /* \"#utility.yul\":2058:2072   */\n      add\n        /* \"#utility.yul\":2043:2072   */\n      swap1\n      pop\n        /* \"#utility.yul\":1909:2078   */\n      swap3\n      swap2\n      pop\n      pop\n      jump\t// out\n        /* \"#utility.yul\":2084:2391   */\n    tag_300:\n        /* \"#utility.yul\":2152:2153   */\n      0x00\n        /* \"#utility.yul\":2162:2275   */\n    tag_373:\n        /* \"#utility.yul\":2176:2182   */\n      dup4\n        /* \"#utility.yul\":2173:2174   */\n      dup2\n        /* \"#utility.yul\":2170:2183   */\n      lt\n        /* \"#utility.yul\":2162:2275   */\n      iszero\n      tag_375\n      jumpi\n        /* \"#utility.yul\":2261:2262   */\n      dup1\n        /* \"#utility.yul\":2256:2259   */\n      dup3\n        /* \"#utility.yul\":2252:2263   */\n      add\n        /* \"#utility.yul\":2246:2264   */\n      mload\n        /* \"#utility.yul\":2242:2243   */\n      dup2\n        /* \"#utility.yul\":2237:2240   */\n      dup5\n        /* \"#utility.yul\":2233:2244   */\n      add\n        /* \"#utility.yul\":2226:2265   */\n      mstore\n        /* \"#utility.yul\":2198:2200   */\n      0x20\n        /* \"#utility.yul\":2195:2196   */\n      dup2\n        /* \"#utility.yul\":2191:2201   */\n      add\n        /* \"#utility.yul\":2186:2201   */\n      swap1\n      pop\n        /* \"#utility.yul\":2162:2275   */\n      jump(tag_373)\n    tag_375:\n        /* \"#utility.yul\":2293:2299   */\n      dup4\n        /* \"#utility.yul\":2290:2291   */\n      dup2\n        /* \"#utility.yul\":2287:2300   */\n      gt\n        /* \"#utility.yul\":2284:2385   */\n      iszero\n      tag_376\n      jumpi\n        /* \"#utility.yul\":2373:2374   */\n      0x00\n        /* \"#utility.yul\":2364:2370   */\n      dup5\n        /* \"#utility.yul\":2359:2362   */\n      dup5\n        /* \"#utility.yul\":2355:2371   */\n      add\n        /* \"#utility.yul\":2348:2375   */\n      mstore\n        /* \"#utility.yul\":2284:2385   */\n    tag_376:\n        /* \"#utility.yul\":2133:2391   */\n      pop\n        /* \"#utility.yul\":2084:2391   */\n      pop\n      pop\n      pop\n      jump\t// out\n        /* \"#utility.yul\":2397:2499   */\n    tag_301:\n        /* \"#utility.yul\":2438:2444   */\n      0x00\n        /* \"#utility.yul\":2489:2491   */\n      0x1f\n        /* \"#utility.yul\":2485:2492   */\n      not\n        /* \"#utility.yul\":2480:2482   */\n      0x1f\n        /* \"#utility.yul\":2473:2478   */\n      dup4\n        /* \"#utility.yul\":2469:2483   */\n      add\n        /* \"#utility.yul\":2465:2493   */\n      and\n        /* \"#utility.yul\":2455:2493   */\n      swap1\n      pop\n        /* \"#utility.yul\":2397:2499   */\n      swap2\n      swap1\n      pop\n      jump\t// out\n        /* \"#utility.yul\":2505:2869   */\n    tag_302:\n        /* \"#utility.yul\":2593:2596   */\n      0x00\n        /* \"#utility.yul\":2621:2660   */\n      tag_379\n        /* \"#utility.yul\":2654:2659   */\n      dup3\n        /* \"#utility.yul\":2621:2660   */\n      tag_298\n      jump\t// in\n    tag_379:\n        /* \"#utility.yul\":2676:2747   */\n      tag_380\n        /* \"#utility.yul\":2740:2746   */\n      dup2\n        /* \"#utility.yul\":2735:2738   */\n      dup6\n        /* \"#utility.yul\":2676:2747   */\n      tag_299\n      jump\t// in\n    tag_380:\n        /* \"#utility.yul\":2669:2747   */\n      swap4\n      pop\n        /* \"#utility.yul\":2756:2808   */\n      tag_381\n        /* \"#utility.yul\":2801:2807   */\n      dup2\n        /* \"#utility.yul\":2796:2799   */\n      dup6\n        /* \"#utility.yul\":2789:2793   */\n      0x20\n        /* \"#utility.yul\":2782:2787   */\n      dup7\n        /* \"#utility.yul\":2778:2794   */\n      add\n        /* \"#utility.yul\":2756:2808   */\n      tag_300\n      jump\t// in\n    tag_381:\n        /* \"#utility.yul\":2833:2862   */\n      tag_382\n        /* \"#utility.yul\":2855:2861   */\n      dup2\n        /* \"#utility.yul\":2833:2862   */\n      tag_301\n      jump\t// in\n    tag_382:\n        /* \"#utility.yul\":2828:2831   */\n      dup5\n        /* \"#utility.yul\":2824:2863   */\n      add\n        /* \"#utility.yul\":2817:2863   */\n      swap2\n      pop\n        /* \"#utility.yul\":2597:2869   */\n      pop\n        /* \"#utility.yul\":2505:2869   */\n      swap3\n      swap2\n      pop\n      pop\n      jump\t// out\n        /* \"#utility.yul\":2875:3001   */\n    tag_303:\n        /* \"#utility.yul\":2912:2919   */\n      0x00\n        /* \"#utility.yul\":2952:2994   */\n      0xffffffffffffffffffffffffffffffffffffffff\n        /* \"#utility.yul\":2945:2950   */\n      dup3\n        /* \"#utility.yul\":2941:2995   */\n      and\n        /* \"#utility.yul\":2930:2995   */\n      swap1\n      pop\n        /* \"#utility.yul\":2875:3001   */\n      swap2\n      swap1\n      pop\n      jump\t// out\n        /* \"#utility.yul\":3007:3103   */\n    tag_304:\n        /* \"#utility.yul\":3044:3051   */\n      0x00\n        /* \"#utility.yul\":3073:3097   */\n      tag_385\n        /* \"#utility.yul\":3091:3096   */\n      dup3\n        /* \"#utility.yul\":3073:3097   */\n      tag_303\n      jump\t// in\n    tag_385:\n        /* \"#utility.yul\":3062:3097   */\n      swap1\n      pop\n        /* \"#utility.yul\":3007:3103   */\n      swap2\n      swap1\n      pop\n      jump\t// out\n        /* \"#utility.yul\":3109:3227   */\n    tag_305:\n        /* \"#utility.yul\":3196:3220   */\n      tag_387\n        /* \"#utility.yul\":3214:3219   */\n      dup2\n        /* \"#utility.yul\":3196:3220   */\n      tag_304\n      jump\t// in\n    tag_387:\n        /* \"#utility.yul\":3191:3194   */\n      dup3\n        /* \"#utility.yul\":3184:3221   */\n      mstore\n        /* \"#utility.yul\":3109:3227   */\n      pop\n      pop\n      jump\t// out\n        /* \"#utility.yul\":3233:4170   */\n    tag_40:\n        /* \"#utility.yul\":3498:3502   */\n      0x00\n        /* \"#utility.yul\":3536:3539   */\n      0xa0\n        /* \"#utility.yul\":3525:3534   */\n      dup3\n        /* \"#utility.yul\":3521:3540   */\n      add\n        /* \"#utility.yul\":3513:3540   */\n      swap1\n      pop\n        /* \"#utility.yul\":3586:3595   */\n      dup2\n        /* \"#utility.yul\":3580:3584   */\n      dup2\n        /* \"#utility.yul\":3576:3596   */\n      sub\n        /* \"#utility.yul\":3572:3573   */\n      0x00\n        /* \"#utility.yul\":3561:3570   */\n      dup4\n        /* \"#utility.yul\":3557:3574   */\n      add\n        /* \"#utility.yul\":3550:3597   */\n      mstore\n        /* \"#utility.yul\":3614:3692   */\n      tag_389\n        /* \"#utility.yul\":3687:3691   */\n      dup2\n        /* \"#utility.yul\":3678:3684   */\n      dup9\n        /* \"#utility.yul\":3614:3692   */\n      tag_302\n      jump\t// in\n    tag_389:\n        /* \"#utility.yul\":3606:3692   */\n      swap1\n      pop\n        /* \"#utility.yul\":3702:3774   */\n      tag_390\n        /* \"#utility.yul\":3770:3772   */\n      0x20\n        /* \"#utility.yul\":3759:3768   */\n      dup4\n        /* \"#utility.yul\":3755:3773   */\n      add\n        /* \"#utility.yul\":3746:3752   */\n      dup8\n        /* \"#utility.yul\":3702:3774   */\n      tag_305\n      jump\t// in\n    tag_390:\n        /* \"#utility.yul\":3821:3830   */\n      dup2\n        /* \"#utility.yul\":3815:3819   */\n      dup2\n        /* \"#utility.yul\":3811:3831   */\n      sub\n        /* \"#utility.yul\":3806:3808   */\n      0x40\n        /* \"#utility.yul\":3795:3804   */\n      dup4\n        /* \"#utility.yul\":3791:3809   */\n      add\n        /* \"#utility.yul\":3784:3832   */\n      mstore\n        /* \"#utility.yul\":3849:3927   */\n      tag_391\n        /* \"#utility.yul\":3922:3926   */\n      dup2\n        /* \"#utility.yul\":3913:3919   */\n      dup7\n        /* \"#utility.yul\":3849:3927   */\n      tag_302\n      jump\t// in\n    tag_391:\n        /* \"#utility.yul\":3841:3927   */\n      swap1\n      pop\n        /* \"#utility.yul\":3974:3983   */\n      dup2\n        /* \"#utility.yul\":3968:3972   */\n      dup2\n        /* \"#utility.yul\":3964:3984   */\n      sub\n        /* \"#utility.yul\":3959:3961   */\n      0x60\n        /* \"#utility.yul\":3948:3957   */\n      dup4\n        /* \"#utility.yul\":3944:3962   */\n      add\n        /* \"#utility.yul\":3937:3985   */\n      mstore\n        /* \"#utility.yul\":4002:4080   */\n      tag_392\n        /* \"#utility.yul\":4075:4079   */\n      dup2\n        /* \"#utility.yul\":4066:4072   */\n      dup6\n        /* \"#utility.yul\":4002:4080   */\n      tag_302\n      jump\t// in\n    tag_392:\n        /* \"#utility.yul\":3994:4080   */\n      swap1\n      pop\n        /* \"#utility.yul\":4090:4163   */\n      tag_393\n        /* \"#utility.yul\":4158:4161   */\n      0x80\n        /* \"#utility.yul\":4147:4156   */\n      dup4\n        /* \"#utility.yul\":4143:4162   */\n      add\n        /* \"#utility.yul\":4134:4140   */\n      dup5\n        /* \"#utility.yul\":4090:4163   */\n      tag_305\n      jump\t// in\n    tag_393:\n        /* \"#utility.yul\":3233:4170   */\n      swap7\n      swap6\n      pop\n      pop\n      pop\n      pop\n      pop\n      pop\n      jump\t// out\n        /* \"#utility.yul\":4176:4253   */\n    tag_306:\n        /* \"#utility.yul\":4213:4220   */\n      0x00\n        /* \"#utility.yul\":4242:4247   */\n      dup2\n        /* \"#utility.yul\":4231:4247   */\n      swap1\n      pop\n        /* \"#utility.yul\":4176:4253   */\n      swap2\n      swap1\n      pop\n      jump\t// out\n        /* \"#utility.yul\":4259:4381   */\n    tag_307:\n        /* \"#utility.yul\":4332:4356   */\n      tag_396\n        /* \"#utility.yul\":4350:4355   */\n      dup2\n        /* \"#utility.yul\":4332:4356   */\n      tag_306\n      jump\t// in\n    tag_396:\n        /* \"#utility.yul\":4325:4330   */\n      dup2\n        /* \"#utility.yul\":4322:4357   */\n      eq\n        /* \"#utility.yul\":4312:4375   */\n      tag_397\n      jumpi\n        /* \"#utility.yul\":4371:4372   */\n      0x00\n        /* \"#utility.yul\":4368:4369   */\n      dup1\n        /* \"#utility.yul\":4361:4373   */\n      revert\n        /* \"#utility.yul\":4312:4375   */\n    tag_397:\n        /* \"#utility.yul\":4259:4381   */\n      pop\n      jump\t// out\n        /* \"#utility.yul\":4387:4526   */\n    tag_308:\n        /* \"#utility.yul\":4433:4438   */\n      0x00\n        /* \"#utility.yul\":4471:4477   */\n      dup2\n        /* \"#utility.yul\":4458:4478   */\n      calldataload\n        /* \"#utility.yul\":4449:4478   */\n      swap1\n      pop\n        /* \"#utility.yul\":4487:4520   */\n      tag_399\n        /* \"#utility.yul\":4514:4519   */\n      dup2\n        /* \"#utility.yul\":4487:4520   */\n      tag_307\n      jump\t// in\n    tag_399:\n        /* \"#utility.yul\":4387:4526   */\n      swap3\n      swap2\n      pop\n      pop\n      jump\t// out\n        /* \"#utility.yul\":4532:5006   */\n    tag_47:\n        /* \"#utility.yul\":4600:4606   */\n      0x00\n        /* \"#utility.yul\":4608:4614   */\n      dup1\n        /* \"#utility.yul\":4657:4659   */\n      0x40\n        /* \"#utility.yul\":4645:4654   */\n      dup4\n        /* \"#utility.yul\":4636:4643   */\n      dup6\n        /* \"#utility.yul\":4632:4655   */\n      sub\n        /* \"#utility.yul\":4628:4660   */\n      slt\n        /* \"#utility.yul\":4625:4744   */\n      iszero\n      tag_401\n      jumpi\n        /* \"#utility.yul\":4663:4742   */\n      tag_402\n      tag_294\n      jump\t// in\n    tag_402:\n        /* \"#utility.yul\":4625:4744   */\n    tag_401:\n        /* \"#utility.yul\":4783:4784   */\n      0x00\n        /* \"#utility.yul\":4808:4861   */\n      tag_403\n        /* \"#utility.yul\":4853:4860   */\n      dup6\n        /* \"#utility.yul\":4844:4850   */\n      dup3\n        /* \"#utility.yul\":4833:4842   */\n      dup7\n        /* \"#utility.yul\":4829:4851   */\n      add\n        /* \"#utility.yul\":4808:4861   */\n      tag_297\n      jump\t// in\n    tag_403:\n        /* \"#utility.yul\":4798:4861   */\n      swap3\n      pop\n        /* \"#utility.yul\":4754:4871   */\n      pop\n        /* \"#utility.yul\":4910:4912   */\n      0x20\n        /* \"#utility.yul\":4936:4989   */\n      tag_404\n        /* \"#utility.yul\":4981:4988   */\n      dup6\n        /* \"#utility.yul\":4972:4978   */\n      dup3\n        /* \"#utility.yul\":4961:4970   */\n      dup7\n        /* \"#utility.yul\":4957:4979   */\n      add\n        /* \"#utility.yul\":4936:4989   */\n      tag_308\n      jump\t// in\n    tag_404:\n        /* \"#utility.yul\":4926:4989   */\n      swap2\n      pop\n        /* \"#utility.yul\":4881:4999   */\n      pop\n        /* \"#utility.yul\":4532:5006   */\n      swap3\n      pop\n      swap3\n      swap1\n      pop\n      jump\t// out\n        /* \"#utility.yul\":5012:5234   */\n    tag_52:\n        /* \"#utility.yul\":5105:5109   */\n      0x00\n        /* \"#utility.yul\":5143:5145   */\n      0x20\n        /* \"#utility.yul\":5132:5141   */\n      dup3\n        /* \"#utility.yul\":5128:5146   */\n      add\n        /* \"#utility.yul\":5120:5146   */\n      swap1\n      pop\n        /* \"#utility.yul\":5156:5227   */\n      tag_406\n        /* \"#utility.yul\":5224:5225   */\n      0x00\n        /* \"#utility.yul\":5213:5222   */\n      dup4\n        /* \"#utility.yul\":5209:5226   */\n      add\n        /* \"#utility.yul\":5200:5206   */\n      dup5\n        /* \"#utility.yul\":5156:5227   */\n      tag_305\n      jump\t// in\n    tag_406:\n        /* \"#utility.yul\":5012:5234   */\n      swap3\n      swap2\n      pop\n      pop\n      jump\t// out\n        /* \"#utility.yul\":5240:5357   */\n    tag_309:\n        /* \"#utility.yul\":5349:5350   */\n      0x00\n        /* \"#utility.yul\":5346:5347   */\n      dup1\n        /* \"#utility.yul\":5339:5351   */\n      revert\n        /* \"#utility.yul\":5363:5480   */\n    tag_310:\n        /* \"#utility.yul\":5472:5473   */\n      0x00\n        /* \"#utility.yul\":5469:5470   */\n      dup1\n        /* \"#utility.yul\":5462:5474   */\n      revert\n        /* \"#utility.yul\":5486:5666   */\n    tag_311:\n        /* \"#utility.yul\":5534:5611   */\n      0x4e487b7100000000000000000000000000000000000000000000000000000000\n        /* \"#utility.yul\":5531:5532   */\n      0x00\n        /* \"#utility.yul\":5524:5612   */\n      mstore\n        /* \"#utility.yul\":5631:5635   */\n      0x41\n        /* \"#utility.yul\":5628:5629   */\n      0x04\n        /* \"#utility.yul\":5621:5636   */\n      mstore\n        /* \"#utility.yul\":5655:5659   */\n      0x24\n        /* \"#utility.yul\":5652:5653   */\n      0x00\n        /* \"#utility.yul\":5645:5660   */\n      revert\n        /* \"#utility.yul\":5672:5953   */\n    tag_312:\n        /* \"#utility.yul\":5755:5782   */\n      tag_411\n        /* \"#utility.yul\":5777:5781   */\n      dup3\n        /* \"#utility.yul\":5755:5782   */\n      tag_301\n      jump\t// in\n    tag_411:\n        /* \"#utility.yul\":5747:5753   */\n      dup2\n        /* \"#utility.yul\":5743:5783   */\n      add\n        /* \"#utility.yul\":5885:5891   */\n      dup2\n        /* \"#utility.yul\":5873:5883   */\n      dup2\n        /* \"#utility.yul\":5870:5892   */\n      lt\n        /* \"#utility.yul\":5849:5867   */\n      0xffffffffffffffff\n        /* \"#utility.yul\":5837:5847   */\n      dup3\n        /* \"#utility.yul\":5834:5868   */\n      gt\n        /* \"#utility.yul\":5831:5893   */\n      or\n        /* \"#utility.yul\":5828:5916   */\n      iszero\n      tag_412\n      jumpi\n        /* \"#utility.yul\":5896:5914   */\n      tag_413\n      tag_311\n      jump\t// in\n    tag_413:\n        /* \"#utility.yul\":5828:5916   */\n    tag_412:\n        /* \"#utility.yul\":5936:5946   */\n      dup1\n        /* \"#utility.yul\":5932:5934   */\n      0x40\n        /* \"#utility.yul\":5925:5947   */\n      mstore\n        /* \"#utility.yul\":5715:5953   */\n      pop\n        /* \"#utility.yul\":5672:5953   */\n      pop\n      pop\n      jump\t// out\n        /* \"#utility.yul\":5959:6088   */\n    tag_313:\n        /* \"#utility.yul\":5993:5999   */\n      0x00\n        /* \"#utility.yul\":6020:6040   */\n      tag_415\n      tag_293\n      jump\t// in\n    tag_415:\n        /* \"#utility.yul\":6010:6040   */\n      swap1\n      pop\n        /* \"#utility.yul\":6049:6082   */\n      tag_416\n        /* \"#utility.yul\":6077:6081   */\n      dup3\n        /* \"#utility.yul\":6069:6075   */\n      dup3\n        /* \"#utility.yul\":6049:6082   */\n      tag_312\n      jump\t// in\n    tag_416:\n        /* \"#utility.yul\":5959:6088   */\n      swap2\n      swap1\n      pop\n      jump\t// out\n        /* \"#utility.yul\":6094:6402   */\n    tag_314:\n        /* \"#utility.yul\":6156:6160   */\n      0x00\n        /* \"#utility.yul\":6246:6264   */\n      0xffffffffffffffff\n        /* \"#utility.yul\":6238:6244   */\n      dup3\n        /* \"#utility.yul\":6235:6265   */\n      gt\n        /* \"#utility.yul\":6232:6288   */\n      iszero\n      tag_418\n      jumpi\n        /* \"#utility.yul\":6268:6286   */\n      tag_419\n      tag_311\n      jump\t// in\n    tag_419:\n        /* \"#utility.yul\":6232:6288   */\n    tag_418:\n        /* \"#utility.yul\":6306:6335   */\n      tag_420\n        /* \"#utility.yul\":6328:6334   */\n      dup3\n        /* \"#utility.yul\":6306:6335   */\n      tag_301\n      jump\t// in\n    tag_420:\n        /* \"#utility.yul\":6298:6335   */\n      swap1\n      pop\n        /* \"#utility.yul\":6390:6394   */\n      0x20\n        /* \"#utility.yul\":6384:6388   */\n      dup2\n        /* \"#utility.yul\":6380:6395   */\n      add\n        /* \"#utility.yul\":6372:6395   */\n      swap1\n      pop\n        /* \"#utility.yul\":6094:6402   */\n      swap2\n      swap1\n      pop\n      jump\t// out\n        /* \"#utility.yul\":6408:6562   */\n    tag_315:\n        /* \"#utility.yul\":6492:6498   */\n      dup3\n        /* \"#utility.yul\":6487:6490   */\n      dup2\n        /* \"#utility.yul\":6482:6485   */\n      dup4\n        /* \"#utility.yul\":6469:6499   */\n      calldatacopy\n        /* \"#utility.yul\":6554:6555   */\n      0x00\n        /* \"#utility.yul\":6545:6551   */\n      dup4\n        /* \"#utility.yul\":6540:6543   */\n      dup4\n        /* \"#utility.yul\":6536:6552   */\n      add\n        /* \"#utility.yul\":6529:6556   */\n      mstore\n        /* \"#utility.yul\":6408:6562   */\n      pop\n      pop\n      pop\n      jump\t// out\n        /* \"#utility.yul\":6568:6980   */\n    tag_316:\n        /* \"#utility.yul\":6646:6651   */\n      0x00\n        /* \"#utility.yul\":6671:6737   */\n      tag_423\n        /* \"#utility.yul\":6687:6736   */\n      tag_424\n        /* \"#utility.yul\":6729:6735   */\n      dup5\n        /* \"#utility.yul\":6687:6736   */\n      tag_314\n      jump\t// in\n    tag_424:\n        /* \"#utility.yul\":6671:6737   */\n      tag_313\n      jump\t// in\n    tag_423:\n        /* \"#utility.yul\":6662:6737   */\n      swap1\n      pop\n        /* \"#utility.yul\":6760:6766   */\n      dup3\n        /* \"#utility.yul\":6753:6758   */\n      dup2\n        /* \"#utility.yul\":6746:6767   */\n      mstore\n        /* \"#utility.yul\":6798:6802   */\n      0x20\n        /* \"#utility.yul\":6791:6796   */\n      dup2\n        /* \"#utility.yul\":6787:6803   */\n      add\n        /* \"#utility.yul\":6836:6839   */\n      dup5\n        /* \"#utility.yul\":6827:6833   */\n      dup5\n        /* \"#utility.yul\":6822:6825   */\n      dup5\n        /* \"#utility.yul\":6818:6834   */\n      add\n        /* \"#utility.yul\":6815:6840   */\n      gt\n        /* \"#utility.yul\":6812:6924   */\n      iszero\n      tag_425\n      jumpi\n        /* \"#utility.yul\":6843:6922   */\n      tag_426\n      tag_310\n      jump\t// in\n    tag_426:\n        /* \"#utility.yul\":6812:6924   */\n    tag_425:\n        /* \"#utility.yul\":6933:6974   */\n      tag_427\n        /* \"#utility.yul\":6967:6973   */\n      dup5\n        /* \"#utility.yul\":6962:6965   */\n      dup3\n        /* \"#utility.yul\":6957:6960   */\n      dup6\n        /* \"#utility.yul\":6933:6974   */\n      tag_315\n      jump\t// in\n    tag_427:\n        /* \"#utility.yul\":6652:6980   */\n      pop\n        /* \"#utility.yul\":6568:6980   */\n      swap4\n      swap3\n      pop\n      pop\n      pop\n      jump\t// out\n        /* \"#utility.yul\":7000:7340   */\n    tag_317:\n        /* \"#utility.yul\":7056:7061   */\n      0x00\n        /* \"#utility.yul\":7105:7108   */\n      dup3\n        /* \"#utility.yul\":7098:7102   */\n      0x1f\n        /* \"#utility.yul\":7090:7096   */\n      dup4\n        /* \"#utility.yul\":7086:7103   */\n      add\n        /* \"#utility.yul\":7082:7109   */\n      slt\n        /* \"#utility.yul\":7072:7194   */\n      tag_429\n      jumpi\n        /* \"#utility.yul\":7113:7192   */\n      tag_430\n      tag_309\n      jump\t// in\n    tag_430:\n        /* \"#utility.yul\":7072:7194   */\n    tag_429:\n        /* \"#utility.yul\":7230:7236   */\n      dup2\n        /* \"#utility.yul\":7217:7237   */\n      calldataload\n        /* \"#utility.yul\":7255:7334   */\n      tag_431\n        /* \"#utility.yul\":7330:7333   */\n      dup5\n        /* \"#utility.yul\":7322:7328   */\n      dup3\n        /* \"#utility.yul\":7315:7319   */\n      0x20\n        /* \"#utility.yul\":7307:7313   */\n      dup7\n        /* \"#utility.yul\":7303:7320   */\n      add\n        /* \"#utility.yul\":7255:7334   */\n      tag_316\n      jump\t// in\n    tag_431:\n        /* \"#utility.yul\":7246:7334   */\n      swap2\n      pop\n        /* \"#utility.yul\":7062:7340   */\n      pop\n        /* \"#utility.yul\":7000:7340   */\n      swap3\n      swap2\n      pop\n      pop\n      jump\t// out\n        /* \"#utility.yul\":7346:7468   */\n    tag_318:\n        /* \"#utility.yul\":7419:7443   */\n      tag_433\n        /* \"#utility.yul\":7437:7442   */\n      dup2\n        /* \"#utility.yul\":7419:7443   */\n      tag_304\n      jump\t// in\n    tag_433:\n        /* \"#utility.yul\":7412:7417   */\n      dup2\n        /* \"#utility.yul\":7409:7444   */\n      eq\n        /* \"#utility.yul\":7399:7462   */\n      tag_434\n      jumpi\n        /* \"#utility.yul\":7458:7459   */\n      0x00\n        /* \"#utility.yul\":7455:7456   */\n      dup1\n        /* \"#utility.yul\":7448:7460   */\n      revert\n        /* \"#utility.yul\":7399:7462   */\n    tag_434:\n        /* \"#utility.yul\":7346:7468   */\n      pop\n      jump\t// out\n        /* \"#utility.yul\":7474:7613   */\n    tag_319:\n        /* \"#utility.yul\":7520:7525   */\n      0x00\n        /* \"#utility.yul\":7558:7564   */\n      dup2\n        /* \"#utility.yul\":7545:7565   */\n      calldataload\n        /* \"#utility.yul\":7536:7565   */\n      swap1\n      pop\n        /* \"#utility.yul\":7574:7607   */\n      tag_436\n        /* \"#utility.yul\":7601:7606   */\n      dup2\n        /* \"#utility.yul\":7574:7607   */\n      tag_318\n      jump\t// in\n    tag_436:\n        /* \"#utility.yul\":7474:7613   */\n      swap3\n      swap2\n      pop\n      pop\n      jump\t// out\n        /* \"#utility.yul\":7619:9070   */\n    tag_55:\n        /* \"#utility.yul\":7744:7750   */\n      0x00\n        /* \"#utility.yul\":7752:7758   */\n      dup1\n        /* \"#utility.yul\":7760:7766   */\n      0x00\n        /* \"#utility.yul\":7768:7774   */\n      dup1\n        /* \"#utility.yul\":7776:7782   */\n      0x00\n        /* \"#utility.yul\":7825:7828   */\n      0xa0\n        /* \"#utility.yul\":7813:7822   */\n      dup7\n        /* \"#utility.yul\":7804:7811   */\n      dup9\n        /* \"#utility.yul\":7800:7823   */\n      sub\n        /* \"#utility.yul\":7796:7829   */\n      slt\n        /* \"#utility.yul\":7793:7913   */\n      iszero\n      tag_438\n      jumpi\n        /* \"#utility.yul\":7832:7911   */\n      tag_439\n      tag_294\n      jump\t// in\n    tag_439:\n        /* \"#utility.yul\":7793:7913   */\n    tag_438:\n        /* \"#utility.yul\":7980:7981   */\n      0x00\n        /* \"#utility.yul\":7969:7978   */\n      dup7\n        /* \"#utility.yul\":7965:7982   */\n      add\n        /* \"#utility.yul\":7952:7983   */\n      calldataload\n        /* \"#utility.yul\":8010:8028   */\n      0xffffffffffffffff\n        /* \"#utility.yul\":8002:8008   */\n      dup2\n        /* \"#utility.yul\":7999:8029   */\n      gt\n        /* \"#utility.yul\":7996:8113   */\n      iszero\n      tag_440\n      jumpi\n        /* \"#utility.yul\":8032:8111   */\n      tag_441\n      tag_295\n      jump\t// in\n    tag_441:\n        /* \"#utility.yul\":7996:8113   */\n    tag_440:\n        /* \"#utility.yul\":8137:8200   */\n      tag_442\n        /* \"#utility.yul\":8192:8199   */\n      dup9\n        /* \"#utility.yul\":8183:8189   */\n      dup3\n        /* \"#utility.yul\":8172:8181   */\n      dup10\n        /* \"#utility.yul\":8168:8190   */\n      add\n        /* \"#utility.yul\":8137:8200   */\n      tag_317\n      jump\t// in\n    tag_442:\n        /* \"#utility.yul\":8127:8200   */\n      swap6\n      pop\n        /* \"#utility.yul\":7923:8210   */\n      pop\n        /* \"#utility.yul\":8249:8251   */\n      0x20\n        /* \"#utility.yul\":8275:8328   */\n      tag_443\n        /* \"#utility.yul\":8320:8327   */\n      dup9\n        /* \"#utility.yul\":8311:8317   */\n      dup3\n        /* \"#utility.yul\":8300:8309   */\n      dup10\n        /* \"#utility.yul\":8296:8318   */\n      add\n        /* \"#utility.yul\":8275:8328   */\n      tag_319\n      jump\t// in\n    tag_443:\n        /* \"#utility.yul\":8265:8328   */\n      swap5\n      pop\n        /* \"#utility.yul\":8220:8338   */\n      pop\n        /* \"#utility.yul\":8405:8407   */\n      0x40\n        /* \"#utility.yul\":8394:8403   */\n      dup7\n        /* \"#utility.yul\":8390:8408   */\n      add\n        /* \"#utility.yul\":8377:8409   */\n      calldataload\n        /* \"#utility.yul\":8436:8454   */\n      0xffffffffffffffff\n        /* \"#utility.yul\":8428:8434   */\n      dup2\n        /* \"#utility.yul\":8425:8455   */\n      gt\n        /* \"#utility.yul\":8422:8539   */\n      iszero\n      tag_444\n      jumpi\n        /* \"#utility.yul\":8458:8537   */\n      tag_445\n      tag_295\n      jump\t// in\n    tag_445:\n        /* \"#utility.yul\":8422:8539   */\n    tag_444:\n        /* \"#utility.yul\":8563:8626   */\n      tag_446\n        /* \"#utility.yul\":8618:8625   */\n      dup9\n        /* \"#utility.yul\":8609:8615   */\n      dup3\n        /* \"#utility.yul\":8598:8607   */\n      dup10\n        /* \"#utility.yul\":8594:8616   */\n      add\n        /* \"#utility.yul\":8563:8626   */\n      tag_317\n      jump\t// in\n    tag_446:\n        /* \"#utility.yul\":8553:8626   */\n      swap4\n      pop\n        /* \"#utility.yul\":8348:8636   */\n      pop\n        /* \"#utility.yul\":8703:8705   */\n      0x60\n        /* \"#utility.yul\":8692:8701   */\n      dup7\n        /* \"#utility.yul\":8688:8706   */\n      add\n        /* \"#utility.yul\":8675:8707   */\n      calldataload\n        /* \"#utility.yul\":8734:8752   */\n      0xffffffffffffffff\n        /* \"#utility.yul\":8726:8732   */\n      dup2\n        /* \"#utility.yul\":8723:8753   */\n      gt\n        /* \"#utility.yul\":8720:8837   */\n      iszero\n      tag_447\n      jumpi\n        /* \"#utility.yul\":8756:8835   */\n      tag_448\n      tag_295\n      jump\t// in\n    tag_448:\n        /* \"#utility.yul\":8720:8837   */\n    tag_447:\n        /* \"#utility.yul\":8861:8924   */\n      tag_449\n        /* \"#utility.yul\":8916:8923   */\n      dup9\n        /* \"#utility.yul\":8907:8913   */\n      dup3\n        /* \"#utility.yul\":8896:8905   */\n      dup10\n        /* \"#utility.yul\":8892:8914   */\n      add\n        /* \"#utility.yul\":8861:8924   */\n      tag_317\n      jump\t// in\n    tag_449:\n        /* \"#utility.yul\":8851:8924   */\n      swap3\n      pop\n        /* \"#utility.yul\":8646:8934   */\n      pop\n        /* \"#utility.yul\":8973:8976   */\n      0x80\n        /* \"#utility.yul\":9000:9053   */\n      tag_450\n        /* \"#utility.yul\":9045:9052   */\n      dup9\n        /* \"#utility.yul\":9036:9042   */\n      dup3\n        /* \"#utility.yul\":9025:9034   */\n      dup10\n        /* \"#utility.yul\":9021:9043   */\n      add\n        /* \"#utility.yul\":9000:9053   */\n      tag_319\n      jump\t// in\n    tag_450:\n        /* \"#utility.yul\":8990:9053   */\n      swap2\n      pop\n        /* \"#utility.yul\":8944:9063   */\n      pop\n        /* \"#utility.yul\":7619:9070   */\n      swap3\n      swap6\n      pop\n      swap3\n      swap6\n      swap1\n      swap4\n      pop\n      jump\t// out\n        /* \"#utility.yul\":9076:9405   */\n    tag_62:\n        /* \"#utility.yul\":9135:9141   */\n      0x00\n        /* \"#utility.yul\":9184:9186   */\n      0x20\n        /* \"#utility.yul\":9172:9181   */\n      dup3\n        /* \"#utility.yul\":9163:9170   */\n      dup5\n        /* \"#utility.yul\":9159:9182   */\n      sub\n        /* \"#utility.yul\":9155:9187   */\n      slt\n        /* \"#utility.yul\":9152:9271   */\n      iszero\n      tag_452\n      jumpi\n        /* \"#utility.yul\":9190:9269   */\n      tag_453\n      tag_294\n      jump\t// in\n    tag_453:\n        /* \"#utility.yul\":9152:9271   */\n    tag_452:\n        /* \"#utility.yul\":9310:9311   */\n      0x00\n        /* \"#utility.yul\":9335:9388   */\n      tag_454\n        /* \"#utility.yul\":9380:9387   */\n      dup5\n        /* \"#utility.yul\":9371:9377   */\n      dup3\n        /* \"#utility.yul\":9360:9369   */\n      dup6\n        /* \"#utility.yul\":9356:9378   */\n      add\n        /* \"#utility.yul\":9335:9388   */\n      tag_319\n      jump\t// in\n    tag_454:\n        /* \"#utility.yul\":9325:9388   */\n      swap2\n      pop\n        /* \"#utility.yul\":9281:9398   */\n      pop\n        /* \"#utility.yul\":9076:9405   */\n      swap3\n      swap2\n      pop\n      pop\n      jump\t// out\n        /* \"#utility.yul\":9411:10065   */\n    tag_67:\n        /* \"#utility.yul\":9489:9495   */\n      0x00\n        /* \"#utility.yul\":9497:9503   */\n      dup1\n        /* \"#utility.yul\":9546:9548   */\n      0x40\n        /* \"#utility.yul\":9534:9543   */\n      dup4\n        /* \"#utility.yul\":9525:9532   */\n      dup6\n        /* \"#utility.yul\":9521:9544   */\n      sub\n        /* \"#utility.yul\":9517:9549   */\n      slt\n        /* \"#utility.yul\":9514:9633   */\n      iszero\n      tag_456\n      jumpi\n        /* \"#utility.yul\":9552:9631   */\n      tag_457\n      tag_294\n      jump\t// in\n    tag_457:\n        /* \"#utility.yul\":9514:9633   */\n    tag_456:\n        /* \"#utility.yul\":9672:9673   */\n      0x00\n        /* \"#utility.yul\":9697:9750   */\n      tag_458\n        /* \"#utility.yul\":9742:9749   */\n      dup6\n        /* \"#utility.yul\":9733:9739   */\n      dup3\n        /* \"#utility.yul\":9722:9731   */\n      dup7\n        /* \"#utility.yul\":9718:9740   */\n      add\n        /* \"#utility.yul\":9697:9750   */\n      tag_319\n      jump\t// in\n    tag_458:\n        /* \"#utility.yul\":9687:9750   */\n      swap3\n      pop\n        /* \"#utility.yul\":9643:9760   */\n      pop\n        /* \"#utility.yul\":9827:9829   */\n      0x20\n        /* \"#utility.yul\":9816:9825   */\n      dup4\n        /* \"#utility.yul\":9812:9830   */\n      add\n        /* \"#utility.yul\":9799:9831   */\n      calldataload\n        /* \"#utility.yul\":9858:9876   */\n      0xffffffffffffffff\n        /* \"#utility.yul\":9850:9856   */\n      dup2\n        /* \"#utility.yul\":9847:9877   */\n      gt\n        /* \"#utility.yul\":9844:9961   */\n      iszero\n      tag_459\n      jumpi\n        /* \"#utility.yul\":9880:9959   */\n      tag_460\n      tag_295\n      jump\t// in\n    tag_460:\n        /* \"#utility.yul\":9844:9961   */\n    tag_459:\n        /* \"#utility.yul\":9985:10048   */\n      tag_461\n        /* \"#utility.yul\":10040:10047   */\n      dup6\n        /* \"#utility.yul\":10031:10037   */\n      dup3\n        /* \"#utility.yul\":10020:10029   */\n      dup7\n        /* \"#utility.yul\":10016:10038   */\n      add\n        /* \"#utility.yul\":9985:10048   */\n      tag_317\n      jump\t// in\n    tag_461:\n        /* \"#utility.yul\":9975:10048   */\n      swap2\n      pop\n        /* \"#utility.yul\":9770:10058   */\n      pop\n        /* \"#utility.yul\":9411:10065   */\n      swap3\n      pop\n      swap3\n      swap1\n      pop\n      jump\t// out\n        /* \"#utility.yul\":10071:10189   */\n    tag_320:\n        /* \"#utility.yul\":10158:10182   */\n      tag_463\n        /* \"#utility.yul\":10176:10181   */\n      dup2\n        /* \"#utility.yul\":10158:10182   */\n      tag_306\n      jump\t// in\n    tag_463:\n        /* \"#utility.yul\":10153:10156   */\n      dup3\n        /* \"#utility.yul\":10146:10183   */\n      mstore\n        /* \"#utility.yul\":10071:10189   */\n      pop\n      pop\n      jump\t// out\n        /* \"#utility.yul\":10195:10417   */\n    tag_70:\n        /* \"#utility.yul\":10288:10292   */\n      0x00\n        /* \"#utility.yul\":10326:10328   */\n      0x20\n        /* \"#utility.yul\":10315:10324   */\n      dup3\n        /* \"#utility.yul\":10311:10329   */\n      add\n        /* \"#utility.yul\":10303:10329   */\n      swap1\n      pop\n        /* \"#utility.yul\":10339:10410   */\n      tag_465\n        /* \"#utility.yul\":10407:10408   */\n      0x00\n        /* \"#utility.yul\":10396:10405   */\n      dup4\n        /* \"#utility.yul\":10392:10409   */\n      add\n        /* \"#utility.yul\":10383:10389   */\n      dup5\n        /* \"#utility.yul\":10339:10410   */\n      tag_320\n      jump\t// in\n    tag_465:\n        /* \"#utility.yul\":10195:10417   */\n      swap3\n      swap2\n      pop\n      pop\n      jump\t// out\n        /* \"#utility.yul\":10423:12020   */\n    tag_83:\n        /* \"#utility.yul\":10557:10563   */\n      0x00\n        /* \"#utility.yul\":10565:10571   */\n      dup1\n        /* \"#utility.yul\":10573:10579   */\n      0x00\n        /* \"#utility.yul\":10581:10587   */\n      dup1\n        /* \"#utility.yul\":10589:10595   */\n      0x00\n        /* \"#utility.yul\":10597:10603   */\n      dup1\n        /* \"#utility.yul\":10646:10649   */\n      0xc0\n        /* \"#utility.yul\":10634:10643   */\n      dup8\n        /* \"#utility.yul\":10625:10632   */\n      dup10\n        /* \"#utility.yul\":10621:10644   */\n      sub\n        /* \"#utility.yul\":10617:10650   */\n      slt\n        /* \"#utility.yul\":10614:10734   */\n      iszero\n      tag_467\n      jumpi\n        /* \"#utility.yul\":10653:10732   */\n      tag_468\n      tag_294\n      jump\t// in\n    tag_468:\n        /* \"#utility.yul\":10614:10734   */\n    tag_467:\n        /* \"#utility.yul\":10801:10802   */\n      0x00\n        /* \"#utility.yul\":10790:10799   */\n      dup8\n        /* \"#utility.yul\":10786:10803   */\n      add\n        /* \"#utility.yul\":10773:10804   */\n      calldataload\n        /* \"#utility.yul\":10831:10849   */\n      0xffffffffffffffff\n        /* \"#utility.yul\":10823:10829   */\n      dup2\n        /* \"#utility.yul\":10820:10850   */\n      gt\n        /* \"#utility.yul\":10817:10934   */\n      iszero\n      tag_469\n      jumpi\n        /* \"#utility.yul\":10853:10932   */\n      tag_470\n      tag_295\n      jump\t// in\n    tag_470:\n        /* \"#utility.yul\":10817:10934   */\n    tag_469:\n        /* \"#utility.yul\":10958:11021   */\n      tag_471\n        /* \"#utility.yul\":11013:11020   */\n      dup10\n        /* \"#utility.yul\":11004:11010   */\n      dup3\n        /* \"#utility.yul\":10993:11002   */\n      dup11\n        /* \"#utility.yul\":10989:11011   */\n      add\n        /* \"#utility.yul\":10958:11021   */\n      tag_317\n      jump\t// in\n    tag_471:\n        /* \"#utility.yul\":10948:11021   */\n      swap7\n      pop\n        /* \"#utility.yul\":10744:11031   */\n      pop\n        /* \"#utility.yul\":11070:11072   */\n      0x20\n        /* \"#utility.yul\":11096:11149   */\n      tag_472\n        /* \"#utility.yul\":11141:11148   */\n      dup10\n        /* \"#utility.yul\":11132:11138   */\n      dup3\n        /* \"#utility.yul\":11121:11130   */\n      dup11\n        /* \"#utility.yul\":11117:11139   */\n      add\n        /* \"#utility.yul\":11096:11149   */\n      tag_319\n      jump\t// in\n    tag_472:\n        /* \"#utility.yul\":11086:11149   */\n      swap6\n      pop\n        /* \"#utility.yul\":11041:11159   */\n      pop\n        /* \"#utility.yul\":11226:11228   */\n      0x40\n        /* \"#utility.yul\":11215:11224   */\n      dup8\n        /* \"#utility.yul\":11211:11229   */\n      add\n        /* \"#utility.yul\":11198:11230   */\n      calldataload\n        /* \"#utility.yul\":11257:11275   */\n      0xffffffffffffffff\n        /* \"#utility.yul\":11249:11255   */\n      dup2\n        /* \"#utility.yul\":11246:11276   */\n      gt\n        /* \"#utility.yul\":11243:11360   */\n      iszero\n      tag_473\n      jumpi\n        /* \"#utility.yul\":11279:11358   */\n      tag_474\n      tag_295\n      jump\t// in\n    tag_474:\n        /* \"#utility.yul\":11243:11360   */\n    tag_473:\n        /* \"#utility.yul\":11384:11447   */\n      tag_475\n        /* \"#utility.yul\":11439:11446   */\n      dup10\n        /* \"#utility.yul\":11430:11436   */\n      dup3\n        /* \"#utility.yul\":11419:11428   */\n      dup11\n        /* \"#utility.yul\":11415:11437   */\n      add\n        /* \"#utility.yul\":11384:11447   */\n      tag_317\n      jump\t// in\n    tag_475:\n        /* \"#utility.yul\":11374:11447   */\n      swap5\n      pop\n        /* \"#utility.yul\":11169:11457   */\n      pop\n        /* \"#utility.yul\":11524:11526   */\n      0x60\n        /* \"#utility.yul\":11513:11522   */\n      dup8\n        /* \"#utility.yul\":11509:11527   */\n      add\n        /* \"#utility.yul\":11496:11528   */\n      calldataload\n        /* \"#utility.yul\":11555:11573   */\n      0xffffffffffffffff\n        /* \"#utility.yul\":11547:11553   */\n      dup2\n        /* \"#utility.yul\":11544:11574   */\n      gt\n        /* \"#utility.yul\":11541:11658   */\n      iszero\n      tag_476\n      jumpi\n        /* \"#utility.yul\":11577:11656   */\n      tag_477\n      tag_295\n      jump\t// in\n    tag_477:\n        /* \"#utility.yul\":11541:11658   */\n    tag_476:\n        /* \"#utility.yul\":11682:11745   */\n      tag_478\n        /* \"#utility.yul\":11737:11744   */\n      dup10\n        /* \"#utility.yul\":11728:11734   */\n      dup3\n        /* \"#utility.yul\":11717:11726   */\n      dup11\n        /* \"#utility.yul\":11713:11735   */\n      add\n        /* \"#utility.yul\":11682:11745   */\n      tag_317\n      jump\t// in\n    tag_478:\n        /* \"#utility.yul\":11672:11745   */\n      swap4\n      pop\n        /* \"#utility.yul\":11467:11755   */\n      pop\n        /* \"#utility.yul\":11794:11797   */\n      0x80\n        /* \"#utility.yul\":11821:11874   */\n      tag_479\n        /* \"#utility.yul\":11866:11873   */\n      dup10\n        /* \"#utility.yul\":11857:11863   */\n      dup3\n        /* \"#utility.yul\":11846:11855   */\n      dup11\n        /* \"#utility.yul\":11842:11864   */\n      add\n        /* \"#utility.yul\":11821:11874   */\n      tag_319\n      jump\t// in\n    tag_479:\n        /* \"#utility.yul\":11811:11874   */\n      swap3\n      pop\n        /* \"#utility.yul\":11765:11884   */\n      pop\n        /* \"#utility.yul\":11923:11926   */\n      0xa0\n        /* \"#utility.yul\":11950:12003   */\n      tag_480\n        /* \"#utility.yul\":11995:12002   */\n      dup10\n        /* \"#utility.yul\":11986:11992   */\n      dup3\n        /* \"#utility.yul\":11975:11984   */\n      dup11\n        /* \"#utility.yul\":11971:11993   */\n      add\n        /* \"#utility.yul\":11950:12003   */\n      tag_319\n      jump\t// in\n    tag_480:\n        /* \"#utility.yul\":11940:12003   */\n      swap2\n      pop\n        /* \"#utility.yul\":11894:12013   */\n      pop\n        /* \"#utility.yul\":10423:12020   */\n      swap3\n      swap6\n      pop\n      swap3\n      swap6\n      pop\n      swap3\n      swap6\n      jump\t// out\n        /* \"#utility.yul\":12026:12086   */\n    tag_321:\n        /* \"#utility.yul\":12054:12057   */\n      0x00\n        /* \"#utility.yul\":12075:12080   */\n      dup2\n        /* \"#utility.yul\":12068:12080   */\n      swap1\n      pop\n        /* \"#utility.yul\":12026:12086   */\n      swap2\n      swap1\n      pop\n      jump\t// out\n        /* \"#utility.yul\":12092:12234   */\n    tag_322:\n        /* \"#utility.yul\":12142:12151   */\n      0x00\n        /* \"#utility.yul\":12175:12228   */\n      tag_483\n        /* \"#utility.yul\":12193:12227   */\n      tag_484\n        /* \"#utility.yul\":12202:12226   */\n      tag_485\n        /* \"#utility.yul\":12220:12225   */\n      dup5\n        /* \"#utility.yul\":12202:12226   */\n      tag_303\n      jump\t// in\n    tag_485:\n        /* \"#utility.yul\":12193:12227   */\n      tag_321\n      jump\t// in\n    tag_484:\n        /* \"#utility.yul\":12175:12228   */\n      tag_303\n      jump\t// in\n    tag_483:\n        /* \"#utility.yul\":12162:12228   */\n      swap1\n      pop\n        /* \"#utility.yul\":12092:12234   */\n      swap2\n      swap1\n      pop\n      jump\t// out\n        /* \"#utility.yul\":12240:12366   */\n    tag_323:\n        /* \"#utility.yul\":12290:12299   */\n      0x00\n        /* \"#utility.yul\":12323:12360   */\n      tag_487\n        /* \"#utility.yul\":12354:12359   */\n      dup3\n        /* \"#utility.yul\":12323:12360   */\n      tag_322\n      jump\t// in\n    tag_487:\n        /* \"#utility.yul\":12310:12360   */\n      swap1\n      pop\n        /* \"#utility.yul\":12240:12366   */\n      swap2\n      swap1\n      pop\n      jump\t// out\n        /* \"#utility.yul\":12372:12517   */\n    tag_324:\n        /* \"#utility.yul\":12441:12450   */\n      0x00\n        /* \"#utility.yul\":12474:12511   */\n      tag_489\n        /* \"#utility.yul\":12505:12510   */\n      dup3\n        /* \"#utility.yul\":12474:12511   */\n      tag_323\n      jump\t// in\n    tag_489:\n        /* \"#utility.yul\":12461:12511   */\n      swap1\n      pop\n        /* \"#utility.yul\":12372:12517   */\n      swap2\n      swap1\n      pop\n      jump\t// out\n        /* \"#utility.yul\":12523:12692   */\n    tag_325:\n        /* \"#utility.yul\":12629:12685   */\n      tag_491\n        /* \"#utility.yul\":12679:12684   */\n      dup2\n        /* \"#utility.yul\":12629:12685   */\n      tag_324\n      jump\t// in\n    tag_491:\n        /* \"#utility.yul\":12624:12627   */\n      dup3\n        /* \"#utility.yul\":12617:12686   */\n      mstore\n        /* \"#utility.yul\":12523:12692   */\n      pop\n      pop\n      jump\t// out\n        /* \"#utility.yul\":12698:12958   */\n    tag_94:\n        /* \"#utility.yul\":12810:12814   */\n      0x00\n        /* \"#utility.yul\":12848:12850   */\n      0x20\n        /* \"#utility.yul\":12837:12846   */\n      dup3\n        /* \"#utility.yul\":12833:12851   */\n      add\n        /* \"#utility.yul\":12825:12851   */\n      swap1\n      pop\n        /* \"#utility.yul\":12861:12951   */\n      tag_493\n        /* \"#utility.yul\":12948:12949   */\n      0x00\n        /* \"#utility.yul\":12937:12946   */\n      dup4\n        /* \"#utility.yul\":12933:12950   */\n      add\n        /* \"#utility.yul\":12924:12930   */\n      dup5\n        /* \"#utility.yul\":12861:12951   */\n      tag_325\n      jump\t// in\n    tag_493:\n        /* \"#utility.yul\":12698:12958   */\n      swap3\n      swap2\n      pop\n      pop\n      jump\t// out\n        /* \"#utility.yul\":12964:13111   */\n    tag_326:\n        /* \"#utility.yul\":13035:13044   */\n      0x00\n        /* \"#utility.yul\":13068:13105   */\n      tag_495\n        /* \"#utility.yul\":13099:13104   */\n      dup3\n        /* \"#utility.yul\":13068:13105   */\n      tag_323\n      jump\t// in\n    tag_495:\n        /* \"#utility.yul\":13055:13105   */\n      swap1\n      pop\n        /* \"#utility.yul\":12964:13111   */\n      swap2\n      swap1\n      pop\n      jump\t// out\n        /* \"#utility.yul\":13117:13290   */\n    tag_327:\n        /* \"#utility.yul\":13225:13283   */\n      tag_497\n        /* \"#utility.yul\":13277:13282   */\n      dup2\n        /* \"#utility.yul\":13225:13283   */\n      tag_326\n      jump\t// in\n    tag_497:\n        /* \"#utility.yul\":13220:13223   */\n      dup3\n        /* \"#utility.yul\":13213:13284   */\n      mstore\n        /* \"#utility.yul\":13117:13290   */\n      pop\n      pop\n      jump\t// out\n        /* \"#utility.yul\":13296:13560   */\n    tag_102:\n        /* \"#utility.yul\":13410:13414   */\n      0x00\n        /* \"#utility.yul\":13448:13450   */\n      0x20\n        /* \"#utility.yul\":13437:13446   */\n      dup3\n        /* \"#utility.yul\":13433:13451   */\n      add\n        /* \"#utility.yul\":13425:13451   */\n      swap1\n      pop\n        /* \"#utility.yul\":13461:13553   */\n      tag_499\n        /* \"#utility.yul\":13550:13551   */\n      0x00\n        /* \"#utility.yul\":13539:13548   */\n      dup4\n        /* \"#utility.yul\":13535:13552   */\n      add\n        /* \"#utility.yul\":13526:13532   */\n      dup5\n        /* \"#utility.yul\":13461:13553   */\n      tag_327\n      jump\t// in\n    tag_499:\n        /* \"#utility.yul\":13296:13560   */\n      swap3\n      swap2\n      pop\n      pop\n      jump\t// out\n        /* \"#utility.yul\":13566:14365   */\n    tag_109:\n        /* \"#utility.yul\":13653:13659   */\n      0x00\n        /* \"#utility.yul\":13661:13667   */\n      dup1\n        /* \"#utility.yul\":13669:13675   */\n      0x00\n        /* \"#utility.yul\":13718:13720   */\n      0x60\n        /* \"#utility.yul\":13706:13715   */\n      dup5\n        /* \"#utility.yul\":13697:13704   */\n      dup7\n        /* \"#utility.yul\":13693:13716   */\n      sub\n        /* \"#utility.yul\":13689:13721   */\n      slt\n        /* \"#utility.yul\":13686:13805   */\n      iszero\n      tag_501\n      jumpi\n        /* \"#utility.yul\":13724:13803   */\n      tag_502\n      tag_294\n      jump\t// in\n    tag_502:\n        /* \"#utility.yul\":13686:13805   */\n    tag_501:\n        /* \"#utility.yul\":13844:13845   */\n      0x00\n        /* \"#utility.yul\":13869:13922   */\n      tag_503\n        /* \"#utility.yul\":13914:13921   */\n      dup7\n        /* \"#utility.yul\":13905:13911   */\n      dup3\n        /* \"#utility.yul\":13894:13903   */\n      dup8\n        /* \"#utility.yul\":13890:13912   */\n      add\n        /* \"#utility.yul\":13869:13922   */\n      tag_297\n      jump\t// in\n    tag_503:\n        /* \"#utility.yul\":13859:13922   */\n      swap4\n      pop\n        /* \"#utility.yul\":13815:13932   */\n      pop\n        /* \"#utility.yul\":13971:13973   */\n      0x20\n        /* \"#utility.yul\":13997:14050   */\n      tag_504\n        /* \"#utility.yul\":14042:14049   */\n      dup7\n        /* \"#utility.yul\":14033:14039   */\n      dup3\n        /* \"#utility.yul\":14022:14031   */\n      dup8\n        /* \"#utility.yul\":14018:14040   */\n      add\n        /* \"#utility.yul\":13997:14050   */\n      tag_319\n      jump\t// in\n    tag_504:\n        /* \"#utility.yul\":13987:14050   */\n      swap3\n      pop\n        /* \"#utility.yul\":13942:14060   */\n      pop\n        /* \"#utility.yul\":14127:14129   */\n      0x40\n        /* \"#utility.yul\":14116:14125   */\n      dup5\n        /* \"#utility.yul\":14112:14130   */\n      add\n        /* \"#utility.yul\":14099:14131   */\n      calldataload\n        /* \"#utility.yul\":14158:14176   */\n      0xffffffffffffffff\n        /* \"#utility.yul\":14150:14156   */\n      dup2\n        /* \"#utility.yul\":14147:14177   */\n      gt\n        /* \"#utility.yul\":14144:14261   */\n      iszero\n      tag_505\n      jumpi\n        /* \"#utility.yul\":14180:14259   */\n      tag_506\n      tag_295\n      jump\t// in\n    tag_506:\n        /* \"#utility.yul\":14144:14261   */\n    tag_505:\n        /* \"#utility.yul\":14285:14348   */\n      tag_507\n        /* \"#utility.yul\":14340:14347   */\n      dup7\n        /* \"#utility.yul\":14331:14337   */\n      dup3\n        /* \"#utility.yul\":14320:14329   */\n      dup8\n        /* \"#utility.yul\":14316:14338   */\n      add\n        /* \"#utility.yul\":14285:14348   */\n      tag_317\n      jump\t// in\n    tag_507:\n        /* \"#utility.yul\":14275:14348   */\n      swap2\n      pop\n        /* \"#utility.yul\":14070:14358   */\n      pop\n        /* \"#utility.yul\":13566:14365   */\n      swap3\n      pop\n      swap3\n      pop\n      swap3\n      jump\t// out\n        /* \"#utility.yul\":14371:14514   */\n    tag_328:\n        /* \"#utility.yul\":14428:14433   */\n      0x00\n        /* \"#utility.yul\":14459:14465   */\n      dup2\n        /* \"#utility.yul\":14453:14466   */\n      mload\n        /* \"#utility.yul\":14444:14466   */\n      swap1\n      pop\n        /* \"#utility.yul\":14475:14508   */\n      tag_509\n        /* \"#utility.yul\":14502:14507   */\n      dup2\n        /* \"#utility.yul\":14475:14508   */\n      tag_318\n      jump\t// in\n    tag_509:\n        /* \"#utility.yul\":14371:14514   */\n      swap3\n      swap2\n      pop\n      pop\n      jump\t// out\n        /* \"#utility.yul\":14520:14871   */\n    tag_117:\n        /* \"#utility.yul\":14590:14596   */\n      0x00\n        /* \"#utility.yul\":14639:14641   */\n      0x20\n        /* \"#utility.yul\":14627:14636   */\n      dup3\n        /* \"#utility.yul\":14618:14625   */\n      dup5\n        /* \"#utility.yul\":14614:14637   */\n      sub\n        /* \"#utility.yul\":14610:14642   */\n      slt\n        /* \"#utility.yul\":14607:14726   */\n      iszero\n      tag_511\n      jumpi\n        /* \"#utility.yul\":14645:14724   */\n      tag_512\n      tag_294\n      jump\t// in\n    tag_512:\n        /* \"#utility.yul\":14607:14726   */\n    tag_511:\n        /* \"#utility.yul\":14765:14766   */\n      0x00\n        /* \"#utility.yul\":14790:14854   */\n      tag_513\n        /* \"#utility.yul\":14846:14853   */\n      dup5\n        /* \"#utility.yul\":14837:14843   */\n      dup3\n        /* \"#utility.yul\":14826:14835   */\n      dup6\n        /* \"#utility.yul\":14822:14844   */\n      add\n        /* \"#utility.yul\":14790:14854   */\n      tag_328\n      jump\t// in\n    tag_513:\n        /* \"#utility.yul\":14780:14854   */\n      swap2\n      pop\n        /* \"#utility.yul\":14736:14864   */\n      pop\n        /* \"#utility.yul\":14520:14871   */\n      swap3\n      swap2\n      pop\n      pop\n      jump\t// out\n        /* \"#utility.yul\":14877:15057   */\n    tag_329:\n        /* \"#utility.yul\":14925:15002   */\n      0x4e487b7100000000000000000000000000000000000000000000000000000000\n        /* \"#utility.yul\":14922:14923   */\n      0x00\n        /* \"#utility.yul\":14915:15003   */\n      mstore\n        /* \"#utility.yul\":15022:15026   */\n      0x22\n        /* \"#utility.yul\":15019:15020   */\n      0x04\n        /* \"#utility.yul\":15012:15027   */\n      mstore\n        /* \"#utility.yul\":15046:15050   */\n      0x24\n        /* \"#utility.yul\":15043:15044   */\n      0x00\n        /* \"#utility.yul\":15036:15051   */\n      revert\n        /* \"#utility.yul\":15063:15383   */\n    tag_121:\n        /* \"#utility.yul\":15107:15113   */\n      0x00\n        /* \"#utility.yul\":15144:15145   */\n      0x02\n        /* \"#utility.yul\":15138:15142   */\n      dup3\n        /* \"#utility.yul\":15134:15146   */\n      div\n        /* \"#utility.yul\":15124:15146   */\n      swap1\n      pop\n        /* \"#utility.yul\":15191:15192   */\n      0x01\n        /* \"#utility.yul\":15185:15189   */\n      dup3\n        /* \"#utility.yul\":15181:15193   */\n      and\n        /* \"#utility.yul\":15212:15230   */\n      dup1\n        /* \"#utility.yul\":15202:15283   */\n      tag_516\n      jumpi\n        /* \"#utility.yul\":15268:15272   */\n      0x7f\n        /* \"#utility.yul\":15260:15266   */\n      dup3\n        /* \"#utility.yul\":15256:15273   */\n      and\n        /* \"#utility.yul\":15246:15273   */\n      swap2\n      pop\n        /* \"#utility.yul\":15202:15283   */\n    tag_516:\n        /* \"#utility.yul\":15330:15332   */\n      0x20\n        /* \"#utility.yul\":15322:15328   */\n      dup3\n        /* \"#utility.yul\":15319:15333   */\n      lt\n        /* \"#utility.yul\":15299:15317   */\n      dup2\n        /* \"#utility.yul\":15296:15334   */\n      eq\n        /* \"#utility.yul\":15293:15377   */\n      iszero\n      tag_517\n      jumpi\n        /* \"#utility.yul\":15349:15367   */\n      tag_518\n      tag_329\n      jump\t// in\n    tag_518:\n        /* \"#utility.yul\":15293:15377   */\n    tag_517:\n        /* \"#utility.yul\":15114:15383   */\n      pop\n        /* \"#utility.yul\":15063:15383   */\n      swap2\n      swap1\n      pop\n      jump\t// out\n        /* \"#utility.yul\":15389:15558   */\n    tag_330:\n        /* \"#utility.yul\":15529:15550   */\n      0x496e646578206f7574206f6620626f756e647300000000000000000000000000\n        /* \"#utility.yul\":15525:15526   */\n      0x00\n        /* \"#utility.yul\":15517:15523   */\n      dup3\n        /* \"#utility.yul\":15513:15527   */\n      add\n        /* \"#utility.yul\":15506:15551   */\n      mstore\n        /* \"#utility.yul\":15389:15558   */\n      pop\n      jump\t// out\n        /* \"#utility.yul\":15564:15930   */\n    tag_331:\n        /* \"#utility.yul\":15706:15709   */\n      0x00\n        /* \"#utility.yul\":15727:15794   */\n      tag_521\n        /* \"#utility.yul\":15791:15793   */\n      0x13\n        /* \"#utility.yul\":15786:15789   */\n      dup4\n        /* \"#utility.yul\":15727:15794   */\n      tag_299\n      jump\t// in\n    tag_521:\n        /* \"#utility.yul\":15720:15794   */\n      swap2\n      pop\n        /* \"#utility.yul\":15803:15896   */\n      tag_522\n        /* \"#utility.yul\":15892:15895   */\n      dup3\n        /* \"#utility.yul\":15803:15896   */\n      tag_330\n      jump\t// in\n    tag_522:\n        /* \"#utility.yul\":15921:15923   */\n      0x20\n        /* \"#utility.yul\":15916:15919   */\n      dup3\n        /* \"#utility.yul\":15912:15924   */\n      add\n        /* \"#utility.yul\":15905:15924   */\n      swap1\n      pop\n        /* \"#utility.yul\":15564:15930   */\n      swap2\n      swap1\n      pop\n      jump\t// out\n        /* \"#utility.yul\":15936:16355   */\n    tag_139:\n        /* \"#utility.yul\":16102:16106   */\n      0x00\n        /* \"#utility.yul\":16140:16142   */\n      0x20\n        /* \"#utility.yul\":16129:16138   */\n      dup3\n        /* \"#utility.yul\":16125:16143   */\n      add\n        /* \"#utility.yul\":16117:16143   */\n      swap1\n      pop\n        /* \"#utility.yul\":16189:16198   */\n      dup2\n        /* \"#utility.yul\":16183:16187   */\n      dup2\n        /* \"#utility.yul\":16179:16199   */\n      sub\n        /* \"#utility.yul\":16175:16176   */\n      0x00\n        /* \"#utility.yul\":16164:16173   */\n      dup4\n        /* \"#utility.yul\":16160:16177   */\n      add\n        /* \"#utility.yul\":16153:16200   */\n      mstore\n        /* \"#utility.yul\":16217:16348   */\n      tag_524\n        /* \"#utility.yul\":16343:16347   */\n      dup2\n        /* \"#utility.yul\":16217:16348   */\n      tag_331\n      jump\t// in\n    tag_524:\n        /* \"#utility.yul\":16209:16348   */\n      swap1\n      pop\n        /* \"#utility.yul\":15936:16355   */\n      swap2\n      swap1\n      pop\n      jump\t// out\n        /* \"#utility.yul\":16361:16541   */\n    tag_142:\n        /* \"#utility.yul\":16409:16486   */\n      0x4e487b7100000000000000000000000000000000000000000000000000000000\n        /* \"#utility.yul\":16406:16407   */\n      0x00\n        /* \"#utility.yul\":16399:16487   */\n      mstore\n        /* \"#utility.yul\":16506:16510   */\n      0x32\n        /* \"#utility.yul\":16503:16504   */\n      0x04\n        /* \"#utility.yul\":16496:16511   */\n      mstore\n        /* \"#utility.yul\":16530:16534   */\n      0x24\n        /* \"#utility.yul\":16527:16528   */\n      0x00\n        /* \"#utility.yul\":16520:16535   */\n      revert\n        /* \"#utility.yul\":16547:16989   */\n    tag_162:\n        /* \"#utility.yul\":16696:16700   */\n      0x00\n        /* \"#utility.yul\":16734:16736   */\n      0x60\n        /* \"#utility.yul\":16723:16732   */\n      dup3\n        /* \"#utility.yul\":16719:16737   */\n      add\n        /* \"#utility.yul\":16711:16737   */\n      swap1\n      pop\n        /* \"#utility.yul\":16747:16818   */\n      tag_527\n        /* \"#utility.yul\":16815:16816   */\n      0x00\n        /* \"#utility.yul\":16804:16813   */\n      dup4\n        /* \"#utility.yul\":16800:16817   */\n      add\n        /* \"#utility.yul\":16791:16797   */\n      dup7\n        /* \"#utility.yul\":16747:16818   */\n      tag_290\n      jump\t// in\n    tag_527:\n        /* \"#utility.yul\":16828:16900   */\n      tag_528\n        /* \"#utility.yul\":16896:16898   */\n      0x20\n        /* \"#utility.yul\":16885:16894   */\n      dup4\n        /* \"#utility.yul\":16881:16899   */\n      add\n        /* \"#utility.yul\":16872:16878   */\n      dup6\n        /* \"#utility.yul\":16828:16900   */\n      tag_320\n      jump\t// in\n    tag_528:\n        /* \"#utility.yul\":16910:16982   */\n      tag_529\n        /* \"#utility.yul\":16978:16980   */\n      0x40\n        /* \"#utility.yul\":16967:16976   */\n      dup4\n        /* \"#utility.yul\":16963:16981   */\n      add\n        /* \"#utility.yul\":16954:16960   */\n      dup5\n        /* \"#utility.yul\":16910:16982   */\n      tag_305\n      jump\t// in\n    tag_529:\n        /* \"#utility.yul\":16547:16989   */\n      swap5\n      swap4\n      pop\n      pop\n      pop\n      pop\n      jump\t// out\n        /* \"#utility.yul\":16995:17111   */\n    tag_332:\n        /* \"#utility.yul\":17065:17086   */\n      tag_531\n        /* \"#utility.yul\":17080:17085   */\n      dup2\n        /* \"#utility.yul\":17065:17086   */\n      tag_291\n      jump\t// in\n    tag_531:\n        /* \"#utility.yul\":17058:17063   */\n      dup2\n        /* \"#utility.yul\":17055:17087   */\n      eq\n        /* \"#utility.yul\":17045:17105   */\n      tag_532\n      jumpi\n        /* \"#utility.yul\":17101:17102   */\n      0x00\n        /* \"#utility.yul\":17098:17099   */\n      dup1\n        /* \"#utility.yul\":17091:17103   */\n      revert\n        /* \"#utility.yul\":17045:17105   */\n    tag_532:\n        /* \"#utility.yul\":16995:17111   */\n      pop\n      jump\t// out\n        /* \"#utility.yul\":17117:17254   */\n    tag_333:\n        /* \"#utility.yul\":17171:17176   */\n      0x00\n        /* \"#utility.yul\":17202:17208   */\n      dup2\n        /* \"#utility.yul\":17196:17209   */\n      mload\n        /* \"#utility.yul\":17187:17209   */\n      swap1\n      pop\n        /* \"#utility.yul\":17218:17248   */\n      tag_534\n        /* \"#utility.yul\":17242:17247   */\n      dup2\n        /* \"#utility.yul\":17218:17248   */\n      tag_332\n      jump\t// in\n    tag_534:\n        /* \"#utility.yul\":17117:17254   */\n      swap3\n      swap2\n      pop\n      pop\n      jump\t// out\n        /* \"#utility.yul\":17260:17605   */\n    tag_166:\n        /* \"#utility.yul\":17327:17333   */\n      0x00\n        /* \"#utility.yul\":17376:17378   */\n      0x20\n        /* \"#utility.yul\":17364:17373   */\n      dup3\n        /* \"#utility.yul\":17355:17362   */\n      dup5\n        /* \"#utility.yul\":17351:17374   */\n      sub\n        /* \"#utility.yul\":17347:17379   */\n      slt\n        /* \"#utility.yul\":17344:17463   */\n      iszero\n      tag_536\n      jumpi\n        /* \"#utility.yul\":17382:17461   */\n      tag_537\n      tag_294\n      jump\t// in\n    tag_537:\n        /* \"#utility.yul\":17344:17463   */\n    tag_536:\n        /* \"#utility.yul\":17502:17503   */\n      0x00\n        /* \"#utility.yul\":17527:17588   */\n      tag_538\n        /* \"#utility.yul\":17580:17587   */\n      dup5\n        /* \"#utility.yul\":17571:17577   */\n      dup3\n        /* \"#utility.yul\":17560:17569   */\n      dup6\n        /* \"#utility.yul\":17556:17578   */\n      add\n        /* \"#utility.yul\":17527:17588   */\n      tag_333\n      jump\t// in\n    tag_538:\n        /* \"#utility.yul\":17517:17588   */\n      swap2\n      pop\n        /* \"#utility.yul\":17473:17598   */\n      pop\n        /* \"#utility.yul\":17260:17605   */\n      swap3\n      swap2\n      pop\n      pop\n      jump\t// out\n        /* \"#utility.yul\":17611:17837   */\n    tag_334:\n        /* \"#utility.yul\":17751:17785   */\n      0x4661696c656420746f2061646420696e7374697475746520746f207374756465\n        /* \"#utility.yul\":17747:17748   */\n      0x00\n        /* \"#utility.yul\":17739:17745   */\n      dup3\n        /* \"#utility.yul\":17735:17749   */\n      add\n        /* \"#utility.yul\":17728:17786   */\n      mstore\n        /* \"#utility.yul\":17820:17829   */\n      0x6e7420696e666f00000000000000000000000000000000000000000000000000\n        /* \"#utility.yul\":17815:17817   */\n      0x20\n        /* \"#utility.yul\":17807:17813   */\n      dup3\n        /* \"#utility.yul\":17803:17818   */\n      add\n        /* \"#utility.yul\":17796:17830   */\n      mstore\n        /* \"#utility.yul\":17611:17837   */\n      pop\n      jump\t// out\n        /* \"#utility.yul\":17843:18209   */\n    tag_335:\n        /* \"#utility.yul\":17985:17988   */\n      0x00\n        /* \"#utility.yul\":18006:18073   */\n      tag_541\n        /* \"#utility.yul\":18070:18072   */\n      0x27\n        /* \"#utility.yul\":18065:18068   */\n      dup4\n        /* \"#utility.yul\":18006:18073   */\n      tag_299\n      jump\t// in\n    tag_541:\n        /* \"#utility.yul\":17999:18073   */\n      swap2\n      pop\n        /* \"#utility.yul\":18082:18175   */\n      tag_542\n        /* \"#utility.yul\":18171:18174   */\n      dup3\n        /* \"#utility.yul\":18082:18175   */\n      tag_334\n      jump\t// in\n    tag_542:\n        /* \"#utility.yul\":18200:18202   */\n      0x40\n        /* \"#utility.yul\":18195:18198   */\n      dup3\n        /* \"#utility.yul\":18191:18203   */\n      add\n        /* \"#utility.yul\":18184:18203   */\n      swap1\n      pop\n        /* \"#utility.yul\":17843:18209   */\n      swap2\n      swap1\n      pop\n      jump\t// out\n        /* \"#utility.yul\":18215:18634   */\n    tag_169:\n        /* \"#utility.yul\":18381:18385   */\n      0x00\n        /* \"#utility.yul\":18419:18421   */\n      0x20\n        /* \"#utility.yul\":18408:18417   */\n      dup3\n        /* \"#utility.yul\":18404:18422   */\n      add\n        /* \"#utility.yul\":18396:18422   */\n      swap1\n      pop\n        /* \"#utility.yul\":18468:18477   */\n      dup2\n        /* \"#utility.yul\":18462:18466   */\n      dup2\n        /* \"#utility.yul\":18458:18478   */\n      sub\n        /* \"#utility.yul\":18454:18455   */\n      0x00\n        /* \"#utility.yul\":18443:18452   */\n      dup4\n        /* \"#utility.yul\":18439:18456   */\n      add\n        /* \"#utility.yul\":18432:18479   */\n      mstore\n        /* \"#utility.yul\":18496:18627   */\n      tag_544\n        /* \"#utility.yul\":18622:18626   */\n      dup2\n        /* \"#utility.yul\":18496:18627   */\n      tag_335\n      jump\t// in\n    tag_544:\n        /* \"#utility.yul\":18488:18627   */\n      swap1\n      pop\n        /* \"#utility.yul\":18215:18634   */\n      swap2\n      swap1\n      pop\n      jump\t// out\n        /* \"#utility.yul\":18640:18734   */\n    tag_336:\n        /* \"#utility.yul\":18673:18681   */\n      0x00\n        /* \"#utility.yul\":18721:18726   */\n      dup2\n        /* \"#utility.yul\":18717:18719   */\n      0x60\n        /* \"#utility.yul\":18713:18727   */\n      shl\n        /* \"#utility.yul\":18692:18727   */\n      swap1\n      pop\n        /* \"#utility.yul\":18640:18734   */\n      swap2\n      swap1\n      pop\n      jump\t// out\n        /* \"#utility.yul\":18740:18834   */\n    tag_337:\n        /* \"#utility.yul\":18779:18786   */\n      0x00\n        /* \"#utility.yul\":18808:18828   */\n      tag_547\n        /* \"#utility.yul\":18822:18827   */\n      dup3\n        /* \"#utility.yul\":18808:18828   */\n      tag_336\n      jump\t// in\n    tag_547:\n        /* \"#utility.yul\":18797:18828   */\n      swap1\n      pop\n        /* \"#utility.yul\":18740:18834   */\n      swap2\n      swap1\n      pop\n      jump\t// out\n        /* \"#utility.yul\":18840:18940   */\n    tag_338:\n        /* \"#utility.yul\":18879:18886   */\n      0x00\n        /* \"#utility.yul\":18908:18934   */\n      tag_549\n        /* \"#utility.yul\":18928:18933   */\n      dup3\n        /* \"#utility.yul\":18908:18934   */\n      tag_337\n      jump\t// in\n    tag_549:\n        /* \"#utility.yul\":18897:18934   */\n      swap1\n      pop\n        /* \"#utility.yul\":18840:18940   */\n      swap2\n      swap1\n      pop\n      jump\t// out\n        /* \"#utility.yul\":18946:19103   */\n    tag_339:\n        /* \"#utility.yul\":19051:19096   */\n      tag_551\n        /* \"#utility.yul\":19071:19095   */\n      tag_552\n        /* \"#utility.yul\":19089:19094   */\n      dup3\n        /* \"#utility.yul\":19071:19095   */\n      tag_304\n      jump\t// in\n    tag_552:\n        /* \"#utility.yul\":19051:19096   */\n      tag_338\n      jump\t// in\n    tag_551:\n        /* \"#utility.yul\":19046:19049   */\n      dup3\n        /* \"#utility.yul\":19039:19097   */\n      mstore\n        /* \"#utility.yul\":18946:19103   */\n      pop\n      pop\n      jump\t// out\n        /* \"#utility.yul\":19109:19257   */\n    tag_340:\n        /* \"#utility.yul\":19211:19222   */\n      0x00\n        /* \"#utility.yul\":19248:19251   */\n      dup2\n        /* \"#utility.yul\":19233:19251   */\n      swap1\n      pop\n        /* \"#utility.yul\":19109:19257   */\n      swap3\n      swap2\n      pop\n      pop\n      jump\t// out\n        /* \"#utility.yul\":19263:19640   */\n    tag_341:\n        /* \"#utility.yul\":19369:19372   */\n      0x00\n        /* \"#utility.yul\":19397:19436   */\n      tag_555\n        /* \"#utility.yul\":19430:19435   */\n      dup3\n        /* \"#utility.yul\":19397:19436   */\n      tag_298\n      jump\t// in\n    tag_555:\n        /* \"#utility.yul\":19452:19541   */\n      tag_556\n        /* \"#utility.yul\":19534:19540   */\n      dup2\n        /* \"#utility.yul\":19529:19532   */\n      dup6\n        /* \"#utility.yul\":19452:19541   */\n      tag_340\n      jump\t// in\n    tag_556:\n        /* \"#utility.yul\":19445:19541   */\n      swap4\n      pop\n        /* \"#utility.yul\":19550:19602   */\n      tag_557\n        /* \"#utility.yul\":19595:19601   */\n      dup2\n        /* \"#utility.yul\":19590:19593   */\n      dup6\n        /* \"#utility.yul\":19583:19587   */\n      0x20\n        /* \"#utility.yul\":19576:19581   */\n      dup7\n        /* \"#utility.yul\":19572:19588   */\n      add\n        /* \"#utility.yul\":19550:19602   */\n      tag_300\n      jump\t// in\n    tag_557:\n        /* \"#utility.yul\":19627:19633   */\n      dup1\n        /* \"#utility.yul\":19622:19625   */\n      dup5\n        /* \"#utility.yul\":19618:19634   */\n      add\n        /* \"#utility.yul\":19611:19634   */\n      swap2\n      pop\n        /* \"#utility.yul\":19373:19640   */\n      pop\n        /* \"#utility.yul\":19263:19640   */\n      swap3\n      swap2\n      pop\n      pop\n      jump\t// out\n        /* \"#utility.yul\":19646:20062   */\n    tag_202:\n        /* \"#utility.yul\":19806:19809   */\n      0x00\n        /* \"#utility.yul\":19821:19896   */\n      tag_559\n        /* \"#utility.yul\":19892:19895   */\n      dup3\n        /* \"#utility.yul\":19883:19889   */\n      dup6\n        /* \"#utility.yul\":19821:19896   */\n      tag_339\n      jump\t// in\n    tag_559:\n        /* \"#utility.yul\":19921:19923   */\n      0x14\n        /* \"#utility.yul\":19916:19919   */\n      dup3\n        /* \"#utility.yul\":19912:19924   */\n      add\n        /* \"#utility.yul\":19905:19924   */\n      swap2\n      pop\n        /* \"#utility.yul\":19941:20036   */\n      tag_560\n        /* \"#utility.yul\":20032:20035   */\n      dup3\n        /* \"#utility.yul\":20023:20029   */\n      dup5\n        /* \"#utility.yul\":19941:20036   */\n      tag_341\n      jump\t// in\n    tag_560:\n        /* \"#utility.yul\":19934:20036   */\n      swap2\n      pop\n        /* \"#utility.yul\":20053:20056   */\n      dup2\n        /* \"#utility.yul\":20046:20056   */\n      swap1\n      pop\n        /* \"#utility.yul\":19646:20062   */\n      swap4\n      swap3\n      pop\n      pop\n      pop\n      jump\t// out\n        /* \"#utility.yul\":20068:20491   */\n    tag_227:\n        /* \"#utility.yul\":20209:20213   */\n      0x00\n        /* \"#utility.yul\":20247:20249   */\n      0x40\n        /* \"#utility.yul\":20236:20245   */\n      dup3\n        /* \"#utility.yul\":20232:20250   */\n      add\n        /* \"#utility.yul\":20224:20250   */\n      swap1\n      pop\n        /* \"#utility.yul\":20260:20331   */\n      tag_562\n        /* \"#utility.yul\":20328:20329   */\n      0x00\n        /* \"#utility.yul\":20317:20326   */\n      dup4\n        /* \"#utility.yul\":20313:20330   */\n      add\n        /* \"#utility.yul\":20304:20310   */\n      dup6\n        /* \"#utility.yul\":20260:20331   */\n      tag_305\n      jump\t// in\n    tag_562:\n        /* \"#utility.yul\":20378:20387   */\n      dup2\n        /* \"#utility.yul\":20372:20376   */\n      dup2\n        /* \"#utility.yul\":20368:20388   */\n      sub\n        /* \"#utility.yul\":20363:20365   */\n      0x20\n        /* \"#utility.yul\":20352:20361   */\n      dup4\n        /* \"#utility.yul\":20348:20366   */\n      add\n        /* \"#utility.yul\":20341:20389   */\n      mstore\n        /* \"#utility.yul\":20406:20484   */\n      tag_563\n        /* \"#utility.yul\":20479:20483   */\n      dup2\n        /* \"#utility.yul\":20470:20476   */\n      dup5\n        /* \"#utility.yul\":20406:20484   */\n      tag_302\n      jump\t// in\n    tag_563:\n        /* \"#utility.yul\":20398:20484   */\n      swap1\n      pop\n        /* \"#utility.yul\":20068:20491   */\n      swap4\n      swap3\n      pop\n      pop\n      pop\n      jump\t// out\n        /* \"#utility.yul\":20497:20640   */\n    tag_342:\n        /* \"#utility.yul\":20554:20559   */\n      0x00\n        /* \"#utility.yul\":20585:20591   */\n      dup2\n        /* \"#utility.yul\":20579:20592   */\n      mload\n        /* \"#utility.yul\":20570:20592   */\n      swap1\n      pop\n        /* \"#utility.yul\":20601:20634   */\n      tag_565\n        /* \"#utility.yul\":20628:20633   */\n      dup2\n        /* \"#utility.yul\":20601:20634   */\n      tag_307\n      jump\t// in\n    tag_565:\n        /* \"#utility.yul\":20497:20640   */\n      swap3\n      swap2\n      pop\n      pop\n      jump\t// out\n        /* \"#utility.yul\":20646:20997   */\n    tag_231:\n        /* \"#utility.yul\":20716:20722   */\n      0x00\n        /* \"#utility.yul\":20765:20767   */\n      0x20\n        /* \"#utility.yul\":20753:20762   */\n      dup3\n        /* \"#utility.yul\":20744:20751   */\n      dup5\n        /* \"#utility.yul\":20740:20763   */\n      sub\n        /* \"#utility.yul\":20736:20768   */\n      slt\n        /* \"#utility.yul\":20733:20852   */\n      iszero\n      tag_567\n      jumpi\n        /* \"#utility.yul\":20771:20850   */\n      tag_568\n      tag_294\n      jump\t// in\n    tag_568:\n        /* \"#utility.yul\":20733:20852   */\n    tag_567:\n        /* \"#utility.yul\":20891:20892   */\n      0x00\n        /* \"#utility.yul\":20916:20980   */\n      tag_569\n        /* \"#utility.yul\":20972:20979   */\n      dup5\n        /* \"#utility.yul\":20963:20969   */\n      dup3\n        /* \"#utility.yul\":20952:20961   */\n      dup6\n        /* \"#utility.yul\":20948:20970   */\n      add\n        /* \"#utility.yul\":20916:20980   */\n      tag_342\n      jump\t// in\n    tag_569:\n        /* \"#utility.yul\":20906:20980   */\n      swap2\n      pop\n        /* \"#utility.yul\":20862:20990   */\n      pop\n        /* \"#utility.yul\":20646:20997   */\n      swap3\n      swap2\n      pop\n      pop\n      jump\t// out\n        /* \"#utility.yul\":21003:21424   */\n    tag_343:\n        /* \"#utility.yul\":21092:21097   */\n      0x00\n        /* \"#utility.yul\":21117:21183   */\n      tag_571\n        /* \"#utility.yul\":21133:21182   */\n      tag_572\n        /* \"#utility.yul\":21175:21181   */\n      dup5\n        /* \"#utility.yul\":21133:21182   */\n      tag_314\n      jump\t// in\n    tag_572:\n        /* \"#utility.yul\":21117:21183   */\n      tag_313\n      jump\t// in\n    tag_571:\n        /* \"#utility.yul\":21108:21183   */\n      swap1\n      pop\n        /* \"#utility.yul\":21206:21212   */\n      dup3\n        /* \"#utility.yul\":21199:21204   */\n      dup2\n        /* \"#utility.yul\":21192:21213   */\n      mstore\n        /* \"#utility.yul\":21244:21248   */\n      0x20\n        /* \"#utility.yul\":21237:21242   */\n      dup2\n        /* \"#utility.yul\":21233:21249   */\n      add\n        /* \"#utility.yul\":21282:21285   */\n      dup5\n        /* \"#utility.yul\":21273:21279   */\n      dup5\n        /* \"#utility.yul\":21268:21271   */\n      dup5\n        /* \"#utility.yul\":21264:21280   */\n      add\n        /* \"#utility.yul\":21261:21286   */\n      gt\n        /* \"#utility.yul\":21258:21370   */\n      iszero\n      tag_573\n      jumpi\n        /* \"#utility.yul\":21289:21368   */\n      tag_574\n      tag_310\n      jump\t// in\n    tag_574:\n        /* \"#utility.yul\":21258:21370   */\n    tag_573:\n        /* \"#utility.yul\":21379:21418   */\n      tag_575\n        /* \"#utility.yul\":21411:21417   */\n      dup5\n        /* \"#utility.yul\":21406:21409   */\n      dup3\n        /* \"#utility.yul\":21401:21404   */\n      dup6\n        /* \"#utility.yul\":21379:21418   */\n      tag_300\n      jump\t// in\n    tag_575:\n        /* \"#utility.yul\":21098:21424   */\n      pop\n        /* \"#utility.yul\":21003:21424   */\n      swap4\n      swap3\n      pop\n      pop\n      pop\n      jump\t// out\n        /* \"#utility.yul\":21444:21799   */\n    tag_344:\n        /* \"#utility.yul\":21511:21516   */\n      0x00\n        /* \"#utility.yul\":21560:21563   */\n      dup3\n        /* \"#utility.yul\":21553:21557   */\n      0x1f\n        /* \"#utility.yul\":21545:21551   */\n      dup4\n        /* \"#utility.yul\":21541:21558   */\n      add\n        /* \"#utility.yul\":21537:21564   */\n      slt\n        /* \"#utility.yul\":21527:21649   */\n      tag_577\n      jumpi\n        /* \"#utility.yul\":21568:21647   */\n      tag_578\n      tag_309\n      jump\t// in\n    tag_578:\n        /* \"#utility.yul\":21527:21649   */\n    tag_577:\n        /* \"#utility.yul\":21678:21684   */\n      dup2\n        /* \"#utility.yul\":21672:21685   */\n      mload\n        /* \"#utility.yul\":21703:21793   */\n      tag_579\n        /* \"#utility.yul\":21789:21792   */\n      dup5\n        /* \"#utility.yul\":21781:21787   */\n      dup3\n        /* \"#utility.yul\":21774:21778   */\n      0x20\n        /* \"#utility.yul\":21766:21772   */\n      dup7\n        /* \"#utility.yul\":21762:21779   */\n      add\n        /* \"#utility.yul\":21703:21793   */\n      tag_343\n      jump\t// in\n    tag_579:\n        /* \"#utility.yul\":21694:21793   */\n      swap2\n      pop\n        /* \"#utility.yul\":21517:21799   */\n      pop\n        /* \"#utility.yul\":21444:21799   */\n      swap3\n      swap2\n      pop\n      pop\n      jump\t// out\n        /* \"#utility.yul\":21805:23301   */\n    tag_265:\n        /* \"#utility.yul\":21941:21947   */\n      0x00\n        /* \"#utility.yul\":21949:21955   */\n      dup1\n        /* \"#utility.yul\":21957:21963   */\n      0x00\n        /* \"#utility.yul\":21965:21971   */\n      dup1\n        /* \"#utility.yul\":21973:21979   */\n      0x00\n        /* \"#utility.yul\":22022:22025   */\n      0xa0\n        /* \"#utility.yul\":22010:22019   */\n      dup7\n        /* \"#utility.yul\":22001:22008   */\n      dup9\n        /* \"#utility.yul\":21997:22020   */\n      sub\n        /* \"#utility.yul\":21993:22026   */\n      slt\n        /* \"#utility.yul\":21990:22110   */\n      iszero\n      tag_581\n      jumpi\n        /* \"#utility.yul\":22029:22108   */\n      tag_582\n      tag_294\n      jump\t// in\n    tag_582:\n        /* \"#utility.yul\":21990:22110   */\n    tag_581:\n        /* \"#utility.yul\":22170:22171   */\n      0x00\n        /* \"#utility.yul\":22159:22168   */\n      dup7\n        /* \"#utility.yul\":22155:22172   */\n      add\n        /* \"#utility.yul\":22149:22173   */\n      mload\n        /* \"#utility.yul\":22200:22218   */\n      0xffffffffffffffff\n        /* \"#utility.yul\":22192:22198   */\n      dup2\n        /* \"#utility.yul\":22189:22219   */\n      gt\n        /* \"#utility.yul\":22186:22303   */\n      iszero\n      tag_583\n      jumpi\n        /* \"#utility.yul\":22222:22301   */\n      tag_584\n      tag_295\n      jump\t// in\n    tag_584:\n        /* \"#utility.yul\":22186:22303   */\n    tag_583:\n        /* \"#utility.yul\":22327:22401   */\n      tag_585\n        /* \"#utility.yul\":22393:22400   */\n      dup9\n        /* \"#utility.yul\":22384:22390   */\n      dup3\n        /* \"#utility.yul\":22373:22382   */\n      dup10\n        /* \"#utility.yul\":22369:22391   */\n      add\n        /* \"#utility.yul\":22327:22401   */\n      tag_344\n      jump\t// in\n    tag_585:\n        /* \"#utility.yul\":22317:22401   */\n      swap6\n      pop\n        /* \"#utility.yul\":22120:22411   */\n      pop\n        /* \"#utility.yul\":22450:22452   */\n      0x20\n        /* \"#utility.yul\":22476:22540   */\n      tag_586\n        /* \"#utility.yul\":22532:22539   */\n      dup9\n        /* \"#utility.yul\":22523:22529   */\n      dup3\n        /* \"#utility.yul\":22512:22521   */\n      dup10\n        /* \"#utility.yul\":22508:22530   */\n      add\n        /* \"#utility.yul\":22476:22540   */\n      tag_328\n      jump\t// in\n    tag_586:\n        /* \"#utility.yul\":22466:22540   */\n      swap5\n      pop\n        /* \"#utility.yul\":22421:22550   */\n      pop\n        /* \"#utility.yul\":22610:22612   */\n      0x40\n        /* \"#utility.yul\":22599:22608   */\n      dup7\n        /* \"#utility.yul\":22595:22613   */\n      add\n        /* \"#utility.yul\":22589:22614   */\n      mload\n        /* \"#utility.yul\":22641:22659   */\n      0xffffffffffffffff\n        /* \"#utility.yul\":22633:22639   */\n      dup2\n        /* \"#utility.yul\":22630:22660   */\n      gt\n        /* \"#utility.yul\":22627:22744   */\n      iszero\n      tag_587\n      jumpi\n        /* \"#utility.yul\":22663:22742   */\n      tag_588\n      tag_295\n      jump\t// in\n    tag_588:\n        /* \"#utility.yul\":22627:22744   */\n    tag_587:\n        /* \"#utility.yul\":22768:22842   */\n      tag_589\n        /* \"#utility.yul\":22834:22841   */\n      dup9\n        /* \"#utility.yul\":22825:22831   */\n      dup3\n        /* \"#utility.yul\":22814:22823   */\n      dup10\n        /* \"#utility.yul\":22810:22832   */\n      add\n        /* \"#utility.yul\":22768:22842   */\n      tag_344\n      jump\t// in\n    tag_589:\n        /* \"#utility.yul\":22758:22842   */\n      swap4\n      pop\n        /* \"#utility.yul\":22560:22852   */\n      pop\n        /* \"#utility.yul\":22912:22914   */\n      0x60\n        /* \"#utility.yul\":22901:22910   */\n      dup7\n        /* \"#utility.yul\":22897:22915   */\n      add\n        /* \"#utility.yul\":22891:22916   */\n      mload\n        /* \"#utility.yul\":22943:22961   */\n      0xffffffffffffffff\n        /* \"#utility.yul\":22935:22941   */\n      dup2\n        /* \"#utility.yul\":22932:22962   */\n      gt\n        /* \"#utility.yul\":22929:23046   */\n      iszero\n      tag_590\n      jumpi\n        /* \"#utility.yul\":22965:23044   */\n      tag_591\n      tag_295\n      jump\t// in\n    tag_591:\n        /* \"#utility.yul\":22929:23046   */\n    tag_590:\n        /* \"#utility.yul\":23070:23144   */\n      tag_592\n        /* \"#utility.yul\":23136:23143   */\n      dup9\n        /* \"#utility.yul\":23127:23133   */\n      dup3\n        /* \"#utility.yul\":23116:23125   */\n      dup10\n        /* \"#utility.yul\":23112:23134   */\n      add\n        /* \"#utility.yul\":23070:23144   */\n      tag_344\n      jump\t// in\n    tag_592:\n        /* \"#utility.yul\":23060:23144   */\n      swap3\n      pop\n        /* \"#utility.yul\":22862:23154   */\n      pop\n        /* \"#utility.yul\":23193:23196   */\n      0x80\n        /* \"#utility.yul\":23220:23284   */\n      tag_593\n        /* \"#utility.yul\":23276:23283   */\n      dup9\n        /* \"#utility.yul\":23267:23273   */\n      dup3\n        /* \"#utility.yul\":23256:23265   */\n      dup10\n        /* \"#utility.yul\":23252:23274   */\n      add\n        /* \"#utility.yul\":23220:23284   */\n      tag_328\n      jump\t// in\n    tag_593:\n        /* \"#utility.yul\":23210:23284   */\n      swap2\n      pop\n        /* \"#utility.yul\":23164:23294   */\n      pop\n        /* \"#utility.yul\":21805:23301   */\n      swap3\n      swap6\n      pop\n      swap3\n      swap6\n      swap1\n      swap4\n      pop\n      jump\t// out\n        /* \"#utility.yul\":23307:23639   */\n    tag_268:\n        /* \"#utility.yul\":23428:23432   */\n      0x00\n        /* \"#utility.yul\":23466:23468   */\n      0x40\n        /* \"#utility.yul\":23455:23464   */\n      dup3\n        /* \"#utility.yul\":23451:23469   */\n      add\n        /* \"#utility.yul\":23443:23469   */\n      swap1\n      pop\n        /* \"#utility.yul\":23479:23550   */\n      tag_595\n        /* \"#utility.yul\":23547:23548   */\n      0x00\n        /* \"#utility.yul\":23536:23545   */\n      dup4\n        /* \"#utility.yul\":23532:23549   */\n      add\n        /* \"#utility.yul\":23523:23529   */\n      dup6\n        /* \"#utility.yul\":23479:23550   */\n      tag_290\n      jump\t// in\n    tag_595:\n        /* \"#utility.yul\":23560:23632   */\n      tag_596\n        /* \"#utility.yul\":23628:23630   */\n      0x20\n        /* \"#utility.yul\":23617:23626   */\n      dup4\n        /* \"#utility.yul\":23613:23631   */\n      add\n        /* \"#utility.yul\":23604:23610   */\n      dup5\n        /* \"#utility.yul\":23560:23632   */\n      tag_320\n      jump\t// in\n    tag_596:\n        /* \"#utility.yul\":23307:23639   */\n      swap4\n      swap3\n      pop\n      pop\n      pop\n      jump\t// out\n        /* \"#utility.yul\":23645:23876   */\n    tag_345:\n        /* \"#utility.yul\":23785:23819   */\n      0x4661696c656420746f2072656d6f766520696e737469747574652066726f6d20\n        /* \"#utility.yul\":23781:23782   */\n      0x00\n        /* \"#utility.yul\":23773:23779   */\n      dup3\n        /* \"#utility.yul\":23769:23783   */\n      add\n        /* \"#utility.yul\":23762:23820   */\n      mstore\n        /* \"#utility.yul\":23854:23868   */\n      0x73747564656e7420696e666f0000000000000000000000000000000000000000\n        /* \"#utility.yul\":23849:23851   */\n      0x20\n        /* \"#utility.yul\":23841:23847   */\n      dup3\n        /* \"#utility.yul\":23837:23852   */\n      add\n        /* \"#utility.yul\":23830:23869   */\n      mstore\n        /* \"#utility.yul\":23645:23876   */\n      pop\n      jump\t// out\n        /* \"#utility.yul\":23882:24248   */\n    tag_346:\n        /* \"#utility.yul\":24024:24027   */\n      0x00\n        /* \"#utility.yul\":24045:24112   */\n      tag_599\n        /* \"#utility.yul\":24109:24111   */\n      0x2c\n        /* \"#utility.yul\":24104:24107   */\n      dup4\n        /* \"#utility.yul\":24045:24112   */\n      tag_299\n      jump\t// in\n    tag_599:\n        /* \"#utility.yul\":24038:24112   */\n      swap2\n      pop\n        /* \"#utility.yul\":24121:24214   */\n      tag_600\n        /* \"#utility.yul\":24210:24213   */\n      dup3\n        /* \"#utility.yul\":24121:24214   */\n      tag_345\n      jump\t// in\n    tag_600:\n        /* \"#utility.yul\":24239:24241   */\n      0x40\n        /* \"#utility.yul\":24234:24237   */\n      dup3\n        /* \"#utility.yul\":24230:24242   */\n      add\n        /* \"#utility.yul\":24223:24242   */\n      swap1\n      pop\n        /* \"#utility.yul\":23882:24248   */\n      swap2\n      swap1\n      pop\n      jump\t// out\n        /* \"#utility.yul\":24254:24673   */\n    tag_274:\n        /* \"#utility.yul\":24420:24424   */\n      0x00\n        /* \"#utility.yul\":24458:24460   */\n      0x20\n        /* \"#utility.yul\":24447:24456   */\n      dup3\n        /* \"#utility.yul\":24443:24461   */\n      add\n        /* \"#utility.yul\":24435:24461   */\n      swap1\n      pop\n        /* \"#utility.yul\":24507:24516   */\n      dup2\n        /* \"#utility.yul\":24501:24505   */\n      dup2\n        /* \"#utility.yul\":24497:24517   */\n      sub\n        /* \"#utility.yul\":24493:24494   */\n      0x00\n        /* \"#utility.yul\":24482:24491   */\n      dup4\n        /* \"#utility.yul\":24478:24495   */\n      add\n        /* \"#utility.yul\":24471:24518   */\n      mstore\n        /* \"#utility.yul\":24535:24666   */\n      tag_602\n        /* \"#utility.yul\":24661:24665   */\n      dup2\n        /* \"#utility.yul\":24535:24666   */\n      tag_346\n      jump\t// in\n    tag_602:\n        /* \"#utility.yul\":24527:24666   */\n      swap1\n      pop\n        /* \"#utility.yul\":24254:24673   */\n      swap2\n      swap1\n      pop\n      jump\t// out\n\n    auxdata: 0xa26469706673582212201b201b410aedcc8b800e71568afdbd82c21a2d421e9fa397b9f70a3e42816b1d64736f6c634300080a0033\n}\n",
    "bytecode": {
      "linkReferences": {},
      "object": "608060405260006004553480156200001657600080fd5b5060405162002b9b38038062002b9b83398181016040528101906200003c9190620001b1565b336000806101000a81548173ffffffffffffffffffffffffffffffffffffffff021916908373ffffffffffffffffffffffffffffffffffffffff16021790555081600360006101000a81548173ffffffffffffffffffffffffffffffffffffffff021916908373ffffffffffffffffffffffffffffffffffffffff16021790555081600160006101000a81548173ffffffffffffffffffffffffffffffffffffffff021916908373ffffffffffffffffffffffffffffffffffffffff16021790555080600260006101000a81548173ffffffffffffffffffffffffffffffffffffffff021916908373ffffffffffffffffffffffffffffffffffffffff1602179055505050620001f8565b600080fd5b600073ffffffffffffffffffffffffffffffffffffffff82169050919050565b600062000179826200014c565b9050919050565b6200018b816200016c565b81146200019757600080fd5b50565b600081519050620001ab8162000180565b92915050565b60008060408385031215620001cb57620001ca62000147565b5b6000620001db858286016200019a565b9250506020620001ee858286016200019a565b9150509250929050565b61299380620002086000396000f3fe608060405234801561001057600080fd5b50600436106101375760003560e01c8063911018ef116100b8578063b7774c1a1161007c578063b7774c1a1461035c578063bae0a5851461037a578063bd6a850414610398578063c865d881146103cc578063ca90543d146103ea578063f20bcf9a1461041a57610137565b8063911018ef146102b2578063a2a1fee5146102d0578063a4156aec146102ee578063b16f902314610322578063b1be843d1461033e57610137565b8063673a1746116100ff578063673a1746146101fc57806378cfe85e1461021a5780637cd271411461023657806382f7d392146102525780638a97503d1461028257610137565b806320b260e31461013c5780632ecca5fe1461015a578063548d434e146101785780635b969a04146101ac5780635fb06357146101e0575b600080fd5b610144610436565b6040516101519190611c6b565b60405180910390f35b610162610443565b60405161016f9190611ca1565b60405180910390f35b610192600480360381019061018d9190611cfc565b610515565b6040516101a3959493929190611e03565b60405180910390f35b6101c660048036038101906101c19190611cfc565b610733565b6040516101d7959493929190611e03565b60405180910390f35b6101fa60048036038101906101f59190611ea1565b610a43565b005b610204610beb565b6040516102119190611ee1565b60405180910390f35b610234600480360381019061022f919061205d565b610c0f565b005b610250600480360381019061024b9190611ea1565b610dbd565b005b61026c6004803603810190610267919061212c565b610f65565b6040516102799190611ca1565b60405180910390f35b61029c60048036038101906102979190612159565b610ffd565b6040516102a991906121c4565b60405180910390f35b6102ba611030565b6040516102c79190611c6b565b60405180910390f35b6102d8611036565b6040516102e59190611c6b565b60405180910390f35b61030860048036038101906103039190611cfc565b611043565b604051610319959493929190611e03565b60405180910390f35b61033c600480360381019061033791906121df565b611353565b005b6103466115a5565b6040516103539190611c6b565b60405180910390f35b6103646115b2565b6040516103719190611ee1565b60405180910390f35b6103826115d8565b60405161038f919061231f565b60405180910390f35b6103b260048036038101906103ad9190611cfc565b6115fe565b6040516103c3959493929190611e03565b60405180910390f35b6103d461181c565b6040516103e1919061235b565b60405180910390f35b61040460048036038101906103ff919061212c565b611842565b6040516104119190611ee1565b60405180910390f35b610434600480360381019061042f9190612376565b6118ab565b005b6000600880549050905090565b60008073ffffffffffffffffffffffffffffffffffffffff16600260009054906101000a900473ffffffffffffffffffffffffffffffffffffffff1673ffffffffffffffffffffffffffffffffffffffff1663839f602d336040518263ffffffff1660e01b81526004016104b79190611ee1565b602060405180830381865afa1580156104d4573d6000803e3d6000fd5b505050506040513d601f19601f820116820180604052508101906104f891906123fa565b73ffffffffffffffffffffffffffffffffffffffff161415905090565b6006818154811061052557600080fd5b906000526020600020906005020160009150905080600001805461054890612456565b80601f016020809104026020016040519081016040528092919081815260200182805461057490612456565b80156105c15780601f10610596576101008083540402835291602001916105c1565b820191906000526020600020905b8154815290600101906020018083116105a457829003601f168201915b5050505050908060010160009054906101000a900473ffffffffffffffffffffffffffffffffffffffff16908060020180546105fc90612456565b80601f016020809104026020016040519081016040528092919081815260200182805461062890612456565b80156106755780601f1061064a57610100808354040283529160200191610675565b820191906000526020600020905b81548152906001019060200180831161065857829003601f168201915b50505050509080600301805461068a90612456565b80601f01602080910402602001604051908101604052809291908181526020018280546106b690612456565b80156107035780601f106106d857610100808354040283529160200191610703565b820191906000526020600020905b8154815290600101906020018083116106e657829003601f168201915b5050505050908060040160009054906101000a900473ffffffffffffffffffffffffffffffffffffffff16905085565b6060600060608060006005805490508610610783576040517f08c379a000000000000000000000000000000000000000000000000000000000815260040161077a906124d4565b60405180910390fd5b600060058781548110610799576107986124f4565b5b90600052602060002090600502016040518060a00160405290816000820180546107c290612456565b80601f01602080910402602001604051908101604052809291908181526020018280546107ee90612456565b801561083b5780601f106108105761010080835404028352916020019161083b565b820191906000526020600020905b81548152906001019060200180831161081e57829003601f168201915b505050505081526020016001820160009054906101000a900473ffffffffffffffffffffffffffffffffffffffff1673ffffffffffffffffffffffffffffffffffffffff1673ffffffffffffffffffffffffffffffffffffffff1681526020016002820180546108aa90612456565b80601f01602080910402602001604051908101604052809291908181526020018280546108d690612456565b80156109235780601f106108f857610100808354040283529160200191610923565b820191906000526020600020905b81548152906001019060200180831161090657829003601f168201915b5050505050815260200160038201805461093c90612456565b80601f016020809104026020016040519081016040528092919081815260200182805461096890612456565b80156109b55780601f1061098a576101008083540402835291602001916109b5565b820191906000526020600020905b81548152906001019060200180831161099857829003601f168201915b505050505081526020016004820160009054906101000a900473ffffffffffffffffffffffffffffffffffffffff1673ffffffffffffffffffffffffffffffffffffffff1673ffffffffffffffffffffffffffffffffffffffff1681525050905080600001518160200151826040015183606001518460800151955095509550955095505091939590929450565b6000806000806000610a5487610733565b94509450945094509450600160009054906101000a900473ffffffffffffffffffffffffffffffffffffffff1673ffffffffffffffffffffffffffffffffffffffff16634268ddbd8888846040518463ffffffff1660e01b8152600401610abd93929190612523565b6020604051808303816000875af1158015610adc573d6000803e3d6000fd5b505050506040513d601f19601f82011682018060405250810190610b009190612586565b610b3f576040517f08c379a0000000000000000000000000000000000000000000000000000000008152600401610b3690612625565b60405180910390fd5b60058781548110610b5357610b526124f4565b5b906000526020600020906005020160008082016000610b729190611b14565b6001820160006101000a81549073ffffffffffffffffffffffffffffffffffffffff0219169055600282016000610ba99190611b14565b600382016000610bb99190611b14565b6004820160006101000a81549073ffffffffffffffffffffffffffffffffffffffff0219169055505050505050505050565b60008054906101000a900473ffffffffffffffffffffffffffffffffffffffff1681565b610c17611b54565b85816000018190525084816020019073ffffffffffffffffffffffffffffffffffffffff16908173ffffffffffffffffffffffffffffffffffffffff168152505083816040018190525082816060018190525081816080019073ffffffffffffffffffffffffffffffffffffffff16908173ffffffffffffffffffffffffffffffffffffffff168152505060058190806001815401808255809150506001900390600052602060002090600502016000909190919091506000820151816000019080519060200190610cea929190611baf565b5060208201518160010160006101000a81548173ffffffffffffffffffffffffffffffffffffffff021916908373ffffffffffffffffffffffffffffffffffffffff1602179055506040820151816002019080519060200190610d4e929190611baf565b506060820151816003019080519060200190610d6b929190611baf565b5060808201518160040160006101000a81548173ffffffffffffffffffffffffffffffffffffffff021916908373ffffffffffffffffffffffffffffffffffffffff1602179055505050505050505050565b6000806000806000610dce87611043565b94509450945094509450600160009054906101000a900473ffffffffffffffffffffffffffffffffffffffff1673ffffffffffffffffffffffffffffffffffffffff16634268ddbd8888846040518463ffffffff1660e01b8152600401610e3793929190612523565b6020604051808303816000875af1158015610e56573d6000803e3d6000fd5b505050506040513d601f19601f82011682018060405250810190610e7a9190612586565b610eb9576040517f08c379a0000000000000000000000000000000000000000000000000000000008152600401610eb090612625565b60405180910390fd5b60068781548110610ecd57610ecc6124f4565b5b906000526020600020906005020160008082016000610eec9190611b14565b6001820160006101000a81549073ffffffffffffffffffffffffffffffffffffffff0219169055600282016000610f239190611b14565b600382016000610f339190611b14565b6004820160006101000a81549073ffffffffffffffffffffffffffffffffffffffff0219169055505050505050505050565b60008073ffffffffffffffffffffffffffffffffffffffff16600760008473ffffffffffffffffffffffffffffffffffffffff1673ffffffffffffffffffffffffffffffffffffffff16815260200190815260200160002060009054906101000a900473ffffffffffffffffffffffffffffffffffffffff1673ffffffffffffffffffffffffffffffffffffffff1614159050919050565b600082826040516020016110129291906126c9565b60405160208183030381529060405280519060200120905092915050565b60045481565b6000600680549050905090565b6060600060608060006005805490508610611093576040517f08c379a000000000000000000000000000000000000000000000000000000000815260040161108a906124d4565b60405180910390fd5b6000600687815481106110a9576110a86124f4565b5b90600052602060002090600502016040518060a00160405290816000820180546110d290612456565b80601f01602080910402602001604051908101604052809291908181526020018280546110fe90612456565b801561114b5780601f106111205761010080835404028352916020019161114b565b820191906000526020600020905b81548152906001019060200180831161112e57829003601f168201915b505050505081526020016001820160009054906101000a900473ffffffffffffffffffffffffffffffffffffffff1673ffffffffffffffffffffffffffffffffffffffff1673ffffffffffffffffffffffffffffffffffffffff1681526020016002820180546111ba90612456565b80601f01602080910402602001604051908101604052809291908181526020018280546111e690612456565b80156112335780601f1061120857610100808354040283529160200191611233565b820191906000526020600020905b81548152906001019060200180831161121657829003601f168201915b5050505050815260200160038201805461124c90612456565b80601f016020809104026020016040519081016040528092919081815260200182805461127890612456565b80156112c55780601f1061129a576101008083540402835291602001916112c5565b820191906000526020600020905b8154815290600101906020018083116112a857829003601f168201915b505050505081526020016004820160009054906101000a900473ffffffffffffffffffffffffffffffffffffffff1673ffffffffffffffffffffffffffffffffffffffff1673ffffffffffffffffffffffffffffffffffffffff1681525050905080600001518160200151826040015183606001518460800151955095509550955095505091939590929450565b6000600160009054906101000a900473ffffffffffffffffffffffffffffffffffffffff1673ffffffffffffffffffffffffffffffffffffffff16638a97503d87866040518363ffffffff1660e01b81526004016113b29291906126f1565b602060405180830381865afa1580156113cf573d6000803e3d6000fd5b505050506040513d601f19601f820116820180604052508101906113f39190612736565b90506113fd611b54565b87816000018190525086816020019073ffffffffffffffffffffffffffffffffffffffff16908173ffffffffffffffffffffffffffffffffffffffff168152505085816040018190525084816060018190525082816080019073ffffffffffffffffffffffffffffffffffffffff16908173ffffffffffffffffffffffffffffffffffffffff1681525050600681908060018154018082558091505060019003906000526020600020906005020160009091909190915060008201518160000190805190602001906114d0929190611baf565b5060208201518160010160006101000a81548173ffffffffffffffffffffffffffffffffffffffff021916908373ffffffffffffffffffffffffffffffffffffffff1602179055506040820151816002019080519060200190611534929190611baf565b506060820151816003019080519060200190611551929190611baf565b5060808201518160040160006101000a81548173ffffffffffffffffffffffffffffffffffffffff021916908373ffffffffffffffffffffffffffffffffffffffff16021790555050505050505050505050565b6000600580549050905090565b600360009054906101000a900473ffffffffffffffffffffffffffffffffffffffff1681565b600260009054906101000a900473ffffffffffffffffffffffffffffffffffffffff1681565b6005818154811061160e57600080fd5b906000526020600020906005020160009150905080600001805461163190612456565b80601f016020809104026020016040519081016040528092919081815260200182805461165d90612456565b80156116aa5780601f1061167f576101008083540402835291602001916116aa565b820191906000526020600020905b81548152906001019060200180831161168d57829003601f168201915b5050505050908060010160009054906101000a900473ffffffffffffffffffffffffffffffffffffffff16908060020180546116e590612456565b80601f016020809104026020016040519081016040528092919081815260200182805461171190612456565b801561175e5780601f106117335761010080835404028352916020019161175e565b820191906000526020600020905b81548152906001019060200180831161174157829003601f168201915b50505050509080600301805461177390612456565b80601f016020809104026020016040519081016040528092919081815260200182805461179f90612456565b80156117ec5780601f106117c1576101008083540402835291602001916117ec565b820191906000526020600020905b8154815290600101906020018083116117cf57829003601f168201915b5050505050908060040160009054906101000a900473ffffffffffffffffffffffffffffffffffffffff16905085565b600160009054906101000a900473ffffffffffffffffffffffffffffffffffffffff1681565b6000600760008373ffffffffffffffffffffffffffffffffffffffff1673ffffffffffffffffffffffffffffffffffffffff16815260200190815260200160002060009054906101000a900473ffffffffffffffffffffffffffffffffffffffff169050919050565b6000600160009054906101000a900473ffffffffffffffffffffffffffffffffffffffff1673ffffffffffffffffffffffffffffffffffffffff16638a97503d84846040518363ffffffff1660e01b815260040161190a9291906126f1565b602060405180830381865afa158015611927573d6000803e3d6000fd5b505050506040513d601f19601f8201168201806040525081019061194b9190612736565b90506000600160009054906101000a900473ffffffffffffffffffffffffffffffffffffffff1673ffffffffffffffffffffffffffffffffffffffff1663435df20d836040518263ffffffff1660e01b81526004016119aa91906121c4565b600060405180830381865afa1580156119c7573d6000803e3d6000fd5b505050506040513d6000823e3d601f19601f820116820180604052508101906119f091906127d3565b9450505050508073ffffffffffffffffffffffffffffffffffffffff163373ffffffffffffffffffffffffffffffffffffffff1614611a2e57600080fd5b600160009054906101000a900473ffffffffffffffffffffffffffffffffffffffff1673ffffffffffffffffffffffffffffffffffffffff1663956a354586846040518363ffffffff1660e01b8152600401611a8b9291906128a2565b6020604051808303816000875af1158015611aaa573d6000803e3d6000fd5b505050506040513d601f19601f82011682018060405250810190611ace9190612586565b611b0d576040517f08c379a0000000000000000000000000000000000000000000000000000000008152600401611b049061293d565b60405180910390fd5b5050505050565b508054611b2090612456565b6000825580601f10611b325750611b51565b601f016020900490600052602060002090810190611b509190611c35565b5b50565b6040518060a0016040528060608152602001600073ffffffffffffffffffffffffffffffffffffffff1681526020016060815260200160608152602001600073ffffffffffffffffffffffffffffffffffffffff1681525090565b828054611bbb90612456565b90600052602060002090601f016020900481019282611bdd5760008555611c24565b82601f10611bf657805160ff1916838001178555611c24565b82800160010185558215611c24579182015b82811115611c23578251825591602001919060010190611c08565b5b509050611c319190611c35565b5090565b5b80821115611c4e576000816000905550600101611c36565b5090565b6000819050919050565b611c6581611c52565b82525050565b6000602082019050611c806000830184611c5c565b92915050565b60008115159050919050565b611c9b81611c86565b82525050565b6000602082019050611cb66000830184611c92565b92915050565b6000604051905090565b600080fd5b600080fd5b611cd981611c52565b8114611ce457600080fd5b50565b600081359050611cf681611cd0565b92915050565b600060208284031215611d1257611d11611cc6565b5b6000611d2084828501611ce7565b91505092915050565b600081519050919050565b600082825260208201905092915050565b60005b83811015611d63578082015181840152602081019050611d48565b83811115611d72576000848401525b50505050565b6000601f19601f8301169050919050565b6000611d9482611d29565b611d9e8185611d34565b9350611dae818560208601611d45565b611db781611d78565b840191505092915050565b600073ffffffffffffffffffffffffffffffffffffffff82169050919050565b6000611ded82611dc2565b9050919050565b611dfd81611de2565b82525050565b600060a0820190508181036000830152611e1d8188611d89565b9050611e2c6020830187611df4565b8181036040830152611e3e8186611d89565b90508181036060830152611e528185611d89565b9050611e616080830184611df4565b9695505050505050565b6000819050919050565b611e7e81611e6b565b8114611e8957600080fd5b50565b600081359050611e9b81611e75565b92915050565b60008060408385031215611eb857611eb7611cc6565b5b6000611ec685828601611ce7565b9250506020611ed785828601611e8c565b9150509250929050565b6000602082019050611ef66000830184611df4565b92915050565b600080fd5b600080fd5b7f4e487b7100000000000000000000000000000000000000000000000000000000600052604160045260246000fd5b611f3e82611d78565b810181811067ffffffffffffffff82111715611f5d57611f5c611f06565b5b80604052505050565b6000611f70611cbc565b9050611f7c8282611f35565b919050565b600067ffffffffffffffff821115611f9c57611f9b611f06565b5b611fa582611d78565b9050602081019050919050565b82818337600083830152505050565b6000611fd4611fcf84611f81565b611f66565b905082815260208101848484011115611ff057611fef611f01565b5b611ffb848285611fb2565b509392505050565b600082601f83011261201857612017611efc565b5b8135612028848260208601611fc1565b91505092915050565b61203a81611de2565b811461204557600080fd5b50565b60008135905061205781612031565b92915050565b600080600080600060a0868803121561207957612078611cc6565b5b600086013567ffffffffffffffff81111561209757612096611ccb565b5b6120a388828901612003565b95505060206120b488828901612048565b945050604086013567ffffffffffffffff8111156120d5576120d4611ccb565b5b6120e188828901612003565b935050606086013567ffffffffffffffff81111561210257612101611ccb565b5b61210e88828901612003565b925050608061211f88828901612048565b9150509295509295909350565b60006020828403121561214257612141611cc6565b5b600061215084828501612048565b91505092915050565b600080604083850312156121705761216f611cc6565b5b600061217e85828601612048565b925050602083013567ffffffffffffffff81111561219f5761219e611ccb565b5b6121ab85828601612003565b9150509250929050565b6121be81611e6b565b82525050565b60006020820190506121d960008301846121b5565b92915050565b60008060008060008060c087890312156121fc576121fb611cc6565b5b600087013567ffffffffffffffff81111561221a57612219611ccb565b5b61222689828a01612003565b965050602061223789828a01612048565b955050604087013567ffffffffffffffff81111561225857612257611ccb565b5b61226489828a01612003565b945050606087013567ffffffffffffffff81111561228557612284611ccb565b5b61229189828a01612003565b93505060806122a289828a01612048565b92505060a06122b389828a01612048565b9150509295509295509295565b6000819050919050565b60006122e56122e06122db84611dc2565b6122c0565b611dc2565b9050919050565b60006122f7826122ca565b9050919050565b6000612309826122ec565b9050919050565b612319816122fe565b82525050565b60006020820190506123346000830184612310565b92915050565b6000612345826122ec565b9050919050565b6123558161233a565b82525050565b6000602082019050612370600083018461234c565b92915050565b60008060006060848603121561238f5761238e611cc6565b5b600061239d86828701611ce7565b93505060206123ae86828701612048565b925050604084013567ffffffffffffffff8111156123cf576123ce611ccb565b5b6123db86828701612003565b9150509250925092565b6000815190506123f481612031565b92915050565b6000602082840312156124105761240f611cc6565b5b600061241e848285016123e5565b91505092915050565b7f4e487b7100000000000000000000000000000000000000000000000000000000600052602260045260246000fd5b6000600282049050600182168061246e57607f821691505b6020821081141561248257612481612427565b5b50919050565b7f496e646578206f7574206f6620626f756e647300000000000000000000000000600082015250565b60006124be601383611d34565b91506124c982612488565b602082019050919050565b600060208201905081810360008301526124ed816124b1565b9050919050565b7f4e487b7100000000000000000000000000000000000000000000000000000000600052603260045260246000fd5b60006060820190506125386000830186611c5c565b61254560208301856121b5565b6125526040830184611df4565b949350505050565b61256381611c86565b811461256e57600080fd5b50565b6000815190506125808161255a565b92915050565b60006020828403121561259c5761259b611cc6565b5b60006125aa84828501612571565b91505092915050565b7f4661696c656420746f2061646420696e7374697475746520746f20737475646560008201527f6e7420696e666f00000000000000000000000000000000000000000000000000602082015250565b600061260f602783611d34565b915061261a826125b3565b604082019050919050565b6000602082019050818103600083015261263e81612602565b9050919050565b60008160601b9050919050565b600061265d82612645565b9050919050565b600061266f82612652565b9050919050565b61268761268282611de2565b612664565b82525050565b600081905092915050565b60006126a382611d29565b6126ad818561268d565b93506126bd818560208601611d45565b80840191505092915050565b60006126d58285612676565b6014820191506126e58284612698565b91508190509392505050565b60006040820190506127066000830185611df4565b81810360208301526127188184611d89565b90509392505050565b60008151905061273081611e75565b92915050565b60006020828403121561274c5761274b611cc6565b5b600061275a84828501612721565b91505092915050565b600061277661277184611f81565b611f66565b90508281526020810184848401111561279257612791611f01565b5b61279d848285611d45565b509392505050565b600082601f8301126127ba576127b9611efc565b5b81516127ca848260208601612763565b91505092915050565b600080600080600060a086880312156127ef576127ee611cc6565b5b600086015167ffffffffffffffff81111561280d5761280c611ccb565b5b612819888289016127a5565b955050602061282a888289016123e5565b945050604086015167ffffffffffffffff81111561284b5761284a611ccb565b5b612857888289016127a5565b935050606086015167ffffffffffffffff81111561287857612877611ccb565b5b612884888289016127a5565b9250506080612895888289016123e5565b9150509295509295909350565b60006040820190506128b76000830185611c5c565b6128c460208301846121b5565b9392505050565b7f4661696c656420746f2072656d6f766520696e737469747574652066726f6d2060008201527f73747564656e7420696e666f0000000000000000000000000000000000000000602082015250565b6000612927602c83611d34565b9150612932826128cb565b604082019050919050565b600060208201905081810360008301526129568161291a565b905091905056fea26469706673582212201b201b410aedcc8b800e71568afdbd82c21a2d421e9fa397b9f70a3e42816b1d64736f6c634300080a0033",
      "opcodes": "PUSH1 0x80 PUSH1 0x40 MSTORE PUSH1 0x0 PUSH1 0x4 SSTORE CALLVALUE DUP1 ISZERO PUSH3 0x16 JUMPI PUSH1 0x0 DUP1 REVERT JUMPDEST POP PUSH1 0x40 MLOAD PUSH3 0x2B9B CODESIZE SUB DUP1 PUSH3 0x2B9B DUP4 CODECOPY DUP2 DUP2 ADD PUSH1 0x40 MSTORE DUP2 ADD SWAP1 PUSH3 0x3C SWAP2 SWAP1 PUSH3 0x1B1 JUMP JUMPDEST CALLER PUSH1 0x0 DUP1 PUSH2 0x100 EXP DUP2 SLOAD DUP2 PUSH20 0xFFFFFFFFFFFFFFFFFFFFFFFFFFFFFFFFFFFFFFFF MUL NOT AND SWAP1 DUP4 PUSH20 0xFFFFFFFFFFFFFFFFFFFFFFFFFFFFFFFFFFFFFFFF AND MUL OR SWAP1 SSTORE POP DUP2 PUSH1 0x3 PUSH1 0x0 PUSH2 0x100 EXP DUP2 SLOAD DUP2 PUSH20 0xFFFFFFFFFFFFFFFFFFFFFFFFFFFFFFFFFFFFFFFF MUL NOT AND SWAP1 DUP4 PUSH20 0xFFFFFFFFFFFFFFFFFFFFFFFFFFFFFFFFFFFFFFFF AND MUL OR SWAP1 SSTORE POP DUP2 PUSH1 0x1 PUSH1 0x0 PUSH2 0x100 EXP DUP2 SLOAD DUP2 PUSH20 0xFFFFFFFFFFFFFFFFFFFFFFFFFFFFFFFFFFFFFFFF MUL NOT AND SWAP1 DUP4 PUSH20 0xFFFFFFFFFFFFFFFFFFFFFFFFFFFFFFFFFFFFFFFF AND MUL OR SWAP1 SSTORE POP DUP1 PUSH1 0x2 PUSH1 0x0 PUSH2 0x100 EXP DUP2 SLOAD DUP2 PUSH20 0xFFFFFFFFFFFFFFFFFFFFFFFFFFFFFFFFFFFFFFFF MUL NOT AND SWAP1 DUP4 PUSH20 0xFFFFFFFFFFFFFFFFFFFFFFFFFFFFFFFFFFFFFFFF AND MUL OR SWAP1 SSTORE POP POP POP PUSH3 0x1F8 JUMP JUMPDEST PUSH1 0x0 DUP1 REVERT JUMPDEST PUSH1 0x0 PUSH20 0xFFFFFFFFFFFFFFFFFFFFFFFFFFFFFFFFFFFFFFFF DUP3 AND SWAP1 POP SWAP2 SWAP1 POP JUMP JUMPDEST PUSH1 0x0 PUSH3 0x179 DUP3 PUSH3 0x14C JUMP JUMPDEST SWAP1 POP SWAP2 SWAP1 POP JUMP JUMPDEST PUSH3 0x18B DUP2 PUSH3 0x16C JUMP JUMPDEST DUP2 EQ PUSH3 0x197 JUMPI PUSH1 0x0 DUP1 REVERT JUMPDEST POP JUMP JUMPDEST PUSH1 0x0 DUP2 MLOAD SWAP1 POP PUSH3 0x1AB DUP2 PUSH3 0x180 JUMP JUMPDEST SWAP3 SWAP2 POP POP JUMP JUMPDEST PUSH1 0x0 DUP1 PUSH1 0x40 DUP4 DUP6 SUB SLT ISZERO PUSH3 0x1CB JUMPI PUSH3 0x1CA PUSH3 0x147 JUMP JUMPDEST JUMPDEST PUSH1 0x0 PUSH3 0x1DB DUP6 DUP3 DUP7 ADD PUSH3 0x19A JUMP JUMPDEST SWAP3 POP POP PUSH1 0x20 PUSH3 0x1EE DUP6 DUP3 DUP7 ADD PUSH3 0x19A JUMP JUMPDEST SWAP2 POP POP SWAP3 POP SWAP3 SWAP1 POP JUMP JUMPDEST PUSH2 0x2993 DUP1 PUSH3 0x208 PUSH1 0x0 CODECOPY PUSH1 0x0 RETURN INVALID PUSH1 0x80 PUSH1 0x40 MSTORE CALLVALUE DUP1 ISZERO PUSH2 0x10 JUMPI PUSH1 0x0 DUP1 REVERT JUMPDEST POP PUSH1 0x4 CALLDATASIZE LT PUSH2 0x137 JUMPI PUSH1 0x0 CALLDATALOAD PUSH1 0xE0 SHR DUP1 PUSH4 0x911018EF GT PUSH2 0xB8 JUMPI DUP1 PUSH4 0xB7774C1A GT PUSH2 0x7C JUMPI DUP1 PUSH4 0xB7774C1A EQ PUSH2 0x35C JUMPI DUP1 PUSH4 0xBAE0A585 EQ PUSH2 0x37A JUMPI DUP1 PUSH4 0xBD6A8504 EQ PUSH2 0x398 JUMPI DUP1 PUSH4 0xC865D881 EQ PUSH2 0x3CC JUMPI DUP1 PUSH4 0xCA90543D EQ PUSH2 0x3EA JUMPI DUP1 PUSH4 0xF20BCF9A EQ PUSH2 0x41A JUMPI PUSH2 0x137 JUMP JUMPDEST DUP1 PUSH4 0x911018EF EQ PUSH2 0x2B2 JUMPI DUP1 PUSH4 0xA2A1FEE5 EQ PUSH2 0x2D0 JUMPI DUP1 PUSH4 0xA4156AEC EQ PUSH2 0x2EE JUMPI DUP1 PUSH4 0xB16F9023 EQ PUSH2 0x322 JUMPI DUP1 PUSH4 0xB1BE843D EQ PUSH2 0x33E JUMPI PUSH2 0x137 JUMP JUMPDEST DUP1 PUSH4 0x673A1746 GT PUSH2 0xFF JUMPI DUP1 PUSH4 0x673A1746 EQ PUSH2 0x1FC JUMPI DUP1 PUSH4 0x78CFE85E EQ PUSH2 0x21A JUMPI DUP1 PUSH4 0x7CD27141 EQ PUSH2 0x236 JUMPI DUP1 PUSH4 0x82F7D392 EQ PUSH2 0x252 JUMPI DUP1 PUSH4 0x8A97503D EQ PUSH2 0x282 JUMPI PUSH2 0x137 JUMP JUMPDEST DUP1 PUSH4 0x20B260E3 EQ PUSH2 0x13C JUMPI DUP1 PUSH4 0x2ECCA5FE EQ PUSH2 0x15A JUMPI DUP1 PUSH4 0x548D434E EQ PUSH2 0x178 JUMPI DUP1 PUSH4 0x5B969A04 EQ PUSH2 0x1AC JUMPI DUP1 PUSH4 0x5FB06357 EQ PUSH2 0x1E0 JUMPI JUMPDEST PUSH1 0x0 DUP1 REVERT JUMPDEST PUSH2 0x144 PUSH2 0x436 JUMP JUMPDEST PUSH1 0x40 MLOAD PUSH2 0x151 SWAP2 SWAP1 PUSH2 0x1C6B JUMP JUMPDEST PUSH1 0x40 MLOAD DUP1 SWAP2 SUB SWAP1 RETURN JUMPDEST PUSH2 0x162 PUSH2 0x443 JUMP JUMPDEST PUSH1 0x40 MLOAD PUSH2 0x16F SWAP2 SWAP1 PUSH2 0x1CA1 JUMP JUMPDEST PUSH1 0x40 MLOAD DUP1 SWAP2 SUB SWAP1 RETURN JUMPDEST PUSH2 0x192 PUSH1 0x4 DUP1 CALLDATASIZE SUB DUP2 ADD SWAP1 PUSH2 0x18D SWAP2 SWAP1 PUSH2 0x1CFC JUMP JUMPDEST PUSH2 0x515 JUMP JUMPDEST PUSH1 0x40 MLOAD PUSH2 0x1A3 SWAP6 SWAP5 SWAP4 SWAP3 SWAP2 SWAP1 PUSH2 0x1E03 JUMP JUMPDEST PUSH1 0x40 MLOAD DUP1 SWAP2 SUB SWAP1 RETURN JUMPDEST PUSH2 0x1C6 PUSH1 0x4 DUP1 CALLDATASIZE SUB DUP2 ADD SWAP1 PUSH2 0x1C1 SWAP2 SWAP1 PUSH2 0x1CFC JUMP JUMPDEST PUSH2 0x733 JUMP JUMPDEST PUSH1 0x40 MLOAD PUSH2 0x1D7 SWAP6 SWAP5 SWAP4 SWAP3 SWAP2 SWAP1 PUSH2 0x1E03 JUMP JUMPDEST PUSH1 0x40 MLOAD DUP1 SWAP2 SUB SWAP1 RETURN JUMPDEST PUSH2 0x1FA PUSH1 0x4 DUP1 CALLDATASIZE SUB DUP2 ADD SWAP1 PUSH2 0x1F5 SWAP2 SWAP1 PUSH2 0x1EA1 JUMP JUMPDEST PUSH2 0xA43 JUMP JUMPDEST STOP JUMPDEST PUSH2 0x204 PUSH2 0xBEB JUMP JUMPDEST PUSH1 0x40 MLOAD PUSH2 0x211 SWAP2 SWAP1 PUSH2 0x1EE1 JUMP JUMPDEST PUSH1 0x40 MLOAD DUP1 SWAP2 SUB SWAP1 RETURN JUMPDEST PUSH2 0x234 PUSH1 0x4 DUP1 CALLDATASIZE SUB DUP2 ADD SWAP1 PUSH2 0x22F SWAP2 SWAP1 PUSH2 0x205D JUMP JUMPDEST PUSH2 0xC0F JUMP JUMPDEST STOP JUMPDEST PUSH2 0x250 PUSH1 0x4 DUP1 CALLDATASIZE SUB DUP2 ADD SWAP1 PUSH2 0x24B SWAP2 SWAP1 PUSH2 0x1EA1 JUMP JUMPDEST PUSH2 0xDBD JUMP JUMPDEST STOP JUMPDEST PUSH2 0x26C PUSH1 0x4 DUP1 CALLDATASIZE SUB DUP2 ADD SWAP1 PUSH2 0x267 SWAP2 SWAP1 PUSH2 0x212C JUMP JUMPDEST PUSH2 0xF65 JUMP JUMPDEST PUSH1 0x40 MLOAD PUSH2 0x279 SWAP2 SWAP1 PUSH2 0x1CA1 JUMP JUMPDEST PUSH1 0x40 MLOAD DUP1 SWAP2 SUB SWAP1 RETURN JUMPDEST PUSH2 0x29C PUSH1 0x4 DUP1 CALLDATASIZE SUB DUP2 ADD SWAP1 PUSH2 0x297 SWAP2 SWAP1 PUSH2 0x2159 JUMP JUMPDEST PUSH2 0xFFD JUMP JUMPDEST PUSH1 0x40 MLOAD PUSH2 0x2A9 SWAP2 SWAP1 PUSH2 0x21C4 JUMP JUMPDEST PUSH1 0x40 MLOAD DUP1 SWAP2 SUB SWAP1 RETURN JUMPDEST PUSH2 0x2BA PUSH2 0x1030 JUMP JUMPDEST PUSH1 0x40 MLOAD PUSH2 0x2C7 SWAP2 SWAP1 PUSH2 0x1C6B JUMP JUMPDEST PUSH1 0x40 MLOAD DUP1 SWAP2 SUB SWAP1 RETURN JUMPDEST PUSH2 0x2D8 PUSH2 0x1036 JUMP JUMPDEST PUSH1 0x40 MLOAD PUSH2 0x2E5 SWAP2 SWAP1 PUSH2 0x1C6B JUMP JUMPDEST PUSH1 0x40 MLOAD DUP1 SWAP2 SUB SWAP1 RETURN JUMPDEST PUSH2 0x308 PUSH1 0x4 DUP1 CALLDATASIZE SUB DUP2 ADD SWAP1 PUSH2 0x303 SWAP2 SWAP1 PUSH2 0x1CFC JUMP JUMPDEST PUSH2 0x1043 JUMP JUMPDEST PUSH1 0x40 MLOAD PUSH2 0x319 SWAP6 SWAP5 SWAP4 SWAP3 SWAP2 SWAP1 PUSH2 0x1E03 JUMP JUMPDEST PUSH1 0x40 MLOAD DUP1 SWAP2 SUB SWAP1 RETURN JUMPDEST PUSH2 0x33C PUSH1 0x4 DUP1 CALLDATASIZE SUB DUP2 ADD SWAP1 PUSH2 0x337 SWAP2 SWAP1 PUSH2 0x21DF JUMP JUMPDEST PUSH2 0x1353 JUMP JUMPDEST STOP JUMPDEST PUSH2 0x346 PUSH2 0x15A5 JUMP JUMPDEST PUSH1 0x40 MLOAD PUSH2 0x353 SWAP2 SWAP1 PUSH2 0x1C6B JUMP JUMPDEST PUSH1 0x40 MLOAD DUP1 SWAP2 SUB SWAP1 RETURN JUMPDEST PUSH2 0x364 PUSH2 0x15B2 JUMP JUMPDEST PUSH1 0x40 MLOAD PUSH2 0x371 SWAP2 SWAP1 PUSH2 0x1EE1 JUMP JUMPDEST PUSH1 0x40 MLOAD DUP1 SWAP2 SUB SWAP1 RETURN JUMPDEST PUSH2 0x382 PUSH2 0x15D8 JUMP JUMPDEST PUSH1 0x40 MLOAD PUSH2 0x38F SWAP2 SWAP1 PUSH2 0x231F JUMP JUMPDEST PUSH1 0x40 MLOAD DUP1 SWAP2 SUB SWAP1 RETURN JUMPDEST PUSH2 0x3B2 PUSH1 0x4 DUP1 CALLDATASIZE SUB DUP2 ADD SWAP1 PUSH2 0x3AD SWAP2 SWAP1 PUSH2 0x1CFC JUMP JUMPDEST PUSH2 0x15FE JUMP JUMPDEST PUSH1 0x40 MLOAD PUSH2 0x3C3 SWAP6 SWAP5 SWAP4 SWAP3 SWAP2 SWAP1 PUSH2 0x1E03 JUMP JUMPDEST PUSH1 0x40 MLOAD DUP1 SWAP2 SUB SWAP1 RETURN JUMPDEST PUSH2 0x3D4 PUSH2 0x181C JUMP JUMPDEST PUSH1 0x40 MLOAD PUSH2 0x3E1 SWAP2 SWAP1 PUSH2 0x235B JUMP JUMPDEST PUSH1 0x40 MLOAD DUP1 SWAP2 SUB SWAP1 RETURN JUMPDEST PUSH2 0x404 PUSH1 0x4 DUP1 CALLDATASIZE SUB DUP2 ADD SWAP1 PUSH2 0x3FF SWAP2 SWAP1 PUSH2 0x212C JUMP JUMPDEST PUSH2 0x1842 JUMP JUMPDEST PUSH1 0x40 MLOAD PUSH2 0x411 SWAP2 SWAP1 PUSH2 0x1EE1 JUMP JUMPDEST PUSH1 0x40 MLOAD DUP1 SWAP2 SUB SWAP1 RETURN JUMPDEST PUSH2 0x434 PUSH1 0x4 DUP1 CALLDATASIZE SUB DUP2 ADD SWAP1 PUSH2 0x42F SWAP2 SWAP1 PUSH2 0x2376 JUMP JUMPDEST PUSH2 0x18AB JUMP JUMPDEST STOP JUMPDEST PUSH1 0x0 PUSH1 0x8 DUP1 SLOAD SWAP1 POP SWAP1 POP SWAP1 JUMP JUMPDEST PUSH1 0x0 DUP1 PUSH20 0xFFFFFFFFFFFFFFFFFFFFFFFFFFFFFFFFFFFFFFFF AND PUSH1 0x2 PUSH1 0x0 SWAP1 SLOAD SWAP1 PUSH2 0x100 EXP SWAP1 DIV PUSH20 0xFFFFFFFFFFFFFFFFFFFFFFFFFFFFFFFFFFFFFFFF AND PUSH20 0xFFFFFFFFFFFFFFFFFFFFFFFFFFFFFFFFFFFFFFFF AND PUSH4 0x839F602D CALLER PUSH1 0x40 MLOAD DUP3 PUSH4 0xFFFFFFFF AND PUSH1 0xE0 SHL DUP2 MSTORE PUSH1 0x4 ADD PUSH2 0x4B7 SWAP2 SWAP1 PUSH2 0x1EE1 JUMP JUMPDEST PUSH1 0x20 PUSH1 0x40 MLOAD DUP1 DUP4 SUB DUP2 DUP7 GAS STATICCALL ISZERO DUP1 ISZERO PUSH2 0x4D4 JUMPI RETURNDATASIZE PUSH1 0x0 DUP1 RETURNDATACOPY RETURNDATASIZE PUSH1 0x0 REVERT JUMPDEST POP POP POP POP PUSH1 0x40 MLOAD RETURNDATASIZE PUSH1 0x1F NOT PUSH1 0x1F DUP3 ADD AND DUP3 ADD DUP1 PUSH1 0x40 MSTORE POP DUP2 ADD SWAP1 PUSH2 0x4F8 SWAP2 SWAP1 PUSH2 0x23FA JUMP JUMPDEST PUSH20 0xFFFFFFFFFFFFFFFFFFFFFFFFFFFFFFFFFFFFFFFF AND EQ ISZERO SWAP1 POP SWAP1 JUMP JUMPDEST PUSH1 0x6 DUP2 DUP2 SLOAD DUP2 LT PUSH2 0x525 JUMPI PUSH1 0x0 DUP1 REVERT JUMPDEST SWAP1 PUSH1 0x0 MSTORE PUSH1 0x20 PUSH1 0x0 KECCAK256 SWAP1 PUSH1 0x5 MUL ADD PUSH1 0x0 SWAP2 POP SWAP1 POP DUP1 PUSH1 0x0 ADD DUP1 SLOAD PUSH2 0x548 SWAP1 PUSH2 0x2456 JUMP JUMPDEST DUP1 PUSH1 0x1F ADD PUSH1 0x20 DUP1 SWAP2 DIV MUL PUSH1 0x20 ADD PUSH1 0x40 MLOAD SWAP1 DUP2 ADD PUSH1 0x40 MSTORE DUP1 SWAP3 SWAP2 SWAP1 DUP2 DUP2 MSTORE PUSH1 0x20 ADD DUP3 DUP1 SLOAD PUSH2 0x574 SWAP1 PUSH2 0x2456 JUMP JUMPDEST DUP1 ISZERO PUSH2 0x5C1 JUMPI DUP1 PUSH1 0x1F LT PUSH2 0x596 JUMPI PUSH2 0x100 DUP1 DUP4 SLOAD DIV MUL DUP4 MSTORE SWAP2 PUSH1 0x20 ADD SWAP2 PUSH2 0x5C1 JUMP JUMPDEST DUP3 ADD SWAP2 SWAP1 PUSH1 0x0 MSTORE PUSH1 0x20 PUSH1 0x0 KECCAK256 SWAP1 JUMPDEST DUP2 SLOAD DUP2 MSTORE SWAP1 PUSH1 0x1 ADD SWAP1 PUSH1 0x20 ADD DUP1 DUP4 GT PUSH2 0x5A4 JUMPI DUP3 SWAP1 SUB PUSH1 0x1F AND DUP3 ADD SWAP2 JUMPDEST POP POP POP POP POP SWAP1 DUP1 PUSH1 0x1 ADD PUSH1 0x0 SWAP1 SLOAD SWAP1 PUSH2 0x100 EXP SWAP1 DIV PUSH20 0xFFFFFFFFFFFFFFFFFFFFFFFFFFFFFFFFFFFFFFFF AND SWAP1 DUP1 PUSH1 0x2 ADD DUP1 SLOAD PUSH2 0x5FC SWAP1 PUSH2 0x2456 JUMP JUMPDEST DUP1 PUSH1 0x1F ADD PUSH1 0x20 DUP1 SWAP2 DIV MUL PUSH1 0x20 ADD PUSH1 0x40 MLOAD SWAP1 DUP2 ADD PUSH1 0x40 MSTORE DUP1 SWAP3 SWAP2 SWAP1 DUP2 DUP2 MSTORE PUSH1 0x20 ADD DUP3 DUP1 SLOAD PUSH2 0x628 SWAP1 PUSH2 0x2456 JUMP JUMPDEST DUP1 ISZERO PUSH2 0x675 JUMPI DUP1 PUSH1 0x1F LT PUSH2 0x64A JUMPI PUSH2 0x100 DUP1 DUP4 SLOAD DIV MUL DUP4 MSTORE SWAP2 PUSH1 0x20 ADD SWAP2 PUSH2 0x675 JUMP JUMPDEST DUP3 ADD SWAP2 SWAP1 PUSH1 0x0 MSTORE PUSH1 0x20 PUSH1 0x0 KECCAK256 SWAP1 JUMPDEST DUP2 SLOAD DUP2 MSTORE SWAP1 PUSH1 0x1 ADD SWAP1 PUSH1 0x20 ADD DUP1 DUP4 GT PUSH2 0x658 JUMPI DUP3 SWAP1 SUB PUSH1 0x1F AND DUP3 ADD SWAP2 JUMPDEST POP POP POP POP POP SWAP1 DUP1 PUSH1 0x3 ADD DUP1 SLOAD PUSH2 0x68A SWAP1 PUSH2 0x2456 JUMP JUMPDEST DUP1 PUSH1 0x1F ADD PUSH1 0x20 DUP1 SWAP2 DIV MUL PUSH1 0x20 ADD PUSH1 0x40 MLOAD SWAP1 DUP2 ADD PUSH1 0x40 MSTORE DUP1 SWAP3 SWAP2 SWAP1 DUP2 DUP2 MSTORE PUSH1 0x20 ADD DUP3 DUP1 SLOAD PUSH2 0x6B6 SWAP1 PUSH2 0x2456 JUMP JUMPDEST DUP1 ISZERO PUSH2 0x703 JUMPI DUP1 PUSH1 0x1F LT PUSH2 0x6D8 JUMPI PUSH2 0x100 DUP1 DUP4 SLOAD DIV MUL DUP4 MSTORE SWAP2 PUSH1 0x20 ADD SWAP2 PUSH2 0x703 JUMP JUMPDEST DUP3 ADD SWAP2 SWAP1 PUSH1 0x0 MSTORE PUSH1 0x20 PUSH1 0x0 KECCAK256 SWAP1 JUMPDEST DUP2 SLOAD DUP2 MSTORE SWAP1 PUSH1 0x1 ADD SWAP1 PUSH1 0x20 ADD DUP1 DUP4 GT PUSH2 0x6E6 JUMPI DUP3 SWAP1 SUB PUSH1 0x1F AND DUP3 ADD SWAP2 JUMPDEST POP POP POP POP POP SWAP1 DUP1 PUSH1 0x4 ADD PUSH1 0x0 SWAP1 SLOAD SWAP1 PUSH2 0x100 EXP SWAP1 DIV PUSH20 0xFFFFFFFFFFFFFFFFFFFFFFFFFFFFFFFFFFFFFFFF AND SWAP1 POP DUP6 JUMP JUMPDEST PUSH1 0x60 PUSH1 0x0 PUSH1 0x60 DUP1 PUSH1 0x0 PUSH1 0x5 DUP1 SLOAD SWAP1 POP DUP7 LT PUSH2 0x783 JUMPI PUSH1 0x40 MLOAD PUSH32 0x8C379A000000000000000000000000000000000000000000000000000000000 DUP2 MSTORE PUSH1 0x4 ADD PUSH2 0x77A SWAP1 PUSH2 0x24D4 JUMP JUMPDEST PUSH1 0x40 MLOAD DUP1 SWAP2 SUB SWAP1 REVERT JUMPDEST PUSH1 0x0 PUSH1 0x5 DUP8 DUP2 SLOAD DUP2 LT PUSH2 0x799 JUMPI PUSH2 0x798 PUSH2 0x24F4 JUMP JUMPDEST JUMPDEST SWAP1 PUSH1 0x0 MSTORE PUSH1 0x20 PUSH1 0x0 KECCAK256 SWAP1 PUSH1 0x5 MUL ADD PUSH1 0x40 MLOAD DUP1 PUSH1 0xA0 ADD PUSH1 0x40 MSTORE SWAP1 DUP2 PUSH1 0x0 DUP3 ADD DUP1 SLOAD PUSH2 0x7C2 SWAP1 PUSH2 0x2456 JUMP JUMPDEST DUP1 PUSH1 0x1F ADD PUSH1 0x20 DUP1 SWAP2 DIV MUL PUSH1 0x20 ADD PUSH1 0x40 MLOAD SWAP1 DUP2 ADD PUSH1 0x40 MSTORE DUP1 SWAP3 SWAP2 SWAP1 DUP2 DUP2 MSTORE PUSH1 0x20 ADD DUP3 DUP1 SLOAD PUSH2 0x7EE SWAP1 PUSH2 0x2456 JUMP JUMPDEST DUP1 ISZERO PUSH2 0x83B JUMPI DUP1 PUSH1 0x1F LT PUSH2 0x810 JUMPI PUSH2 0x100 DUP1 DUP4 SLOAD DIV MUL DUP4 MSTORE SWAP2 PUSH1 0x20 ADD SWAP2 PUSH2 0x83B JUMP JUMPDEST DUP3 ADD SWAP2 SWAP1 PUSH1 0x0 MSTORE PUSH1 0x20 PUSH1 0x0 KECCAK256 SWAP1 JUMPDEST DUP2 SLOAD DUP2 MSTORE SWAP1 PUSH1 0x1 ADD SWAP1 PUSH1 0x20 ADD DUP1 DUP4 GT PUSH2 0x81E JUMPI DUP3 SWAP1 SUB PUSH1 0x1F AND DUP3 ADD SWAP2 JUMPDEST POP POP POP POP POP DUP2 MSTORE PUSH1 0x20 ADD PUSH1 0x1 DUP3 ADD PUSH1 0x0 SWAP1 SLOAD SWAP1 PUSH2 0x100 EXP SWAP1 DIV PUSH20 0xFFFFFFFFFFFFFFFFFFFFFFFFFFFFFFFFFFFFFFFF AND PUSH20 0xFFFFFFFFFFFFFFFFFFFFFFFFFFFFFFFFFFFFFFFF AND PUSH20 0xFFFFFFFFFFFFFFFFFFFFFFFFFFFFFFFFFFFFFFFF AND DUP2 MSTORE PUSH1 0x20 ADD PUSH1 0x2 DUP3 ADD DUP1 SLOAD PUSH2 0x8AA SWAP1 PUSH2 0x2456 JUMP JUMPDEST DUP1 PUSH1 0x1F ADD PUSH1 0x20 DUP1 SWAP2 DIV MUL PUSH1 0x20 ADD PUSH1 0x40 MLOAD SWAP1 DUP2 ADD PUSH1 0x40 MSTORE DUP1 SWAP3 SWAP2 SWAP1 DUP2 DUP2 MSTORE PUSH1 0x20 ADD DUP3 DUP1 SLOAD PUSH2 0x8D6 SWAP1 PUSH2 0x2456 JUMP JUMPDEST DUP1 ISZERO PUSH2 0x923 JUMPI DUP1 PUSH1 0x1F LT PUSH2 0x8F8 JUMPI PUSH2 0x100 DUP1 DUP4 SLOAD DIV MUL DUP4 MSTORE SWAP2 PUSH1 0x20 ADD SWAP2 PUSH2 0x923 JUMP JUMPDEST DUP3 ADD SWAP2 SWAP1 PUSH1 0x0 MSTORE PUSH1 0x20 PUSH1 0x0 KECCAK256 SWAP1 JUMPDEST DUP2 SLOAD DUP2 MSTORE SWAP1 PUSH1 0x1 ADD SWAP1 PUSH1 0x20 ADD DUP1 DUP4 GT PUSH2 0x906 JUMPI DUP3 SWAP1 SUB PUSH1 0x1F AND DUP3 ADD SWAP2 JUMPDEST POP POP POP POP POP DUP2 MSTORE PUSH1 0x20 ADD PUSH1 0x3 DUP3 ADD DUP1 SLOAD PUSH2 0x93C SWAP1 PUSH2 0x2456 JUMP JUMPDEST DUP1 PUSH1 0x1F ADD PUSH1 0x20 DUP1 SWAP2 DIV MUL PUSH1 0x20 ADD PUSH1 0x40 MLOAD SWAP1 DUP2 ADD PUSH1 0x40 MSTORE DUP1 SWAP3 SWAP2 SWAP1 DUP2 DUP2 MSTORE PUSH1 0x20 ADD DUP3 DUP1 SLOAD PUSH2 0x968 SWAP1 PUSH2 0x2456 JUMP JUMPDEST DUP1 ISZERO PUSH2 0x9B5 JUMPI DUP1 PUSH1 0x1F LT PUSH2 0x98A JUMPI PUSH2 0x100 DUP1 DUP4 SLOAD DIV MUL DUP4 MSTORE SWAP2 PUSH1 0x20 ADD SWAP2 PUSH2 0x9B5 JUMP JUMPDEST DUP3 ADD SWAP2 SWAP1 PUSH1 0x0 MSTORE PUSH1 0x20 PUSH1 0x0 KECCAK256 SWAP1 JUMPDEST DUP2 SLOAD DUP2 MSTORE SWAP1 PUSH1 0x1 ADD SWAP1 PUSH1 0x20 ADD DUP1 DUP4 GT PUSH2 0x998 JUMPI DUP3 SWAP1 SUB PUSH1 0x1F AND DUP3 ADD SWAP2 JUMPDEST POP POP POP POP POP DUP2 MSTORE PUSH1 0x20 ADD PUSH1 0x4 DUP3 ADD PUSH1 0x0 SWAP1 SLOAD SWAP1 PUSH2 0x100 EXP SWAP1 DIV PUSH20 0xFFFFFFFFFFFFFFFFFFFFFFFFFFFFFFFFFFFFFFFF AND PUSH20 0xFFFFFFFFFFFFFFFFFFFFFFFFFFFFFFFFFFFFFFFF AND PUSH20 0xFFFFFFFFFFFFFFFFFFFFFFFFFFFFFFFFFFFFFFFF AND DUP2 MSTORE POP POP SWAP1 POP DUP1 PUSH1 0x0 ADD MLOAD DUP2 PUSH1 0x20 ADD MLOAD DUP3 PUSH1 0x40 ADD MLOAD DUP4 PUSH1 0x60 ADD MLOAD DUP5 PUSH1 0x80 ADD MLOAD SWAP6 POP SWAP6 POP SWAP6 POP SWAP6 POP SWAP6 POP POP SWAP2 SWAP4 SWAP6 SWAP1 SWAP3 SWAP5 POP JUMP JUMPDEST PUSH1 0x0 DUP1 PUSH1 0x0 DUP1 PUSH1 0x0 PUSH2 0xA54 DUP8 PUSH2 0x733 JUMP JUMPDEST SWAP5 POP SWAP5 POP SWAP5 POP SWAP5 POP SWAP5 POP PUSH1 0x1 PUSH1 0x0 SWAP1 SLOAD SWAP1 PUSH2 0x100 EXP SWAP1 DIV PUSH20 0xFFFFFFFFFFFFFFFFFFFFFFFFFFFFFFFFFFFFFFFF AND PUSH20 0xFFFFFFFFFFFFFFFFFFFFFFFFFFFFFFFFFFFFFFFF AND PUSH4 0x4268DDBD DUP9 DUP9 DUP5 PUSH1 0x40 MLOAD DUP5 PUSH4 0xFFFFFFFF AND PUSH1 0xE0 SHL DUP2 MSTORE PUSH1 0x4 ADD PUSH2 0xABD SWAP4 SWAP3 SWAP2 SWAP1 PUSH2 0x2523 JUMP JUMPDEST PUSH1 0x20 PUSH1 0x40 MLOAD DUP1 DUP4 SUB DUP2 PUSH1 0x0 DUP8 GAS CALL ISZERO DUP1 ISZERO PUSH2 0xADC JUMPI RETURNDATASIZE PUSH1 0x0 DUP1 RETURNDATACOPY RETURNDATASIZE PUSH1 0x0 REVERT JUMPDEST POP POP POP POP PUSH1 0x40 MLOAD RETURNDATASIZE PUSH1 0x1F NOT PUSH1 0x1F DUP3 ADD AND DUP3 ADD DUP1 PUSH1 0x40 MSTORE POP DUP2 ADD SWAP1 PUSH2 0xB00 SWAP2 SWAP1 PUSH2 0x2586 JUMP JUMPDEST PUSH2 0xB3F JUMPI PUSH1 0x40 MLOAD PUSH32 0x8C379A000000000000000000000000000000000000000000000000000000000 DUP2 MSTORE PUSH1 0x4 ADD PUSH2 0xB36 SWAP1 PUSH2 0x2625 JUMP JUMPDEST PUSH1 0x40 MLOAD DUP1 SWAP2 SUB SWAP1 REVERT JUMPDEST PUSH1 0x5 DUP8 DUP2 SLOAD DUP2 LT PUSH2 0xB53 JUMPI PUSH2 0xB52 PUSH2 0x24F4 JUMP JUMPDEST JUMPDEST SWAP1 PUSH1 0x0 MSTORE PUSH1 0x20 PUSH1 0x0 KECCAK256 SWAP1 PUSH1 0x5 MUL ADD PUSH1 0x0 DUP1 DUP3 ADD PUSH1 0x0 PUSH2 0xB72 SWAP2 SWAP1 PUSH2 0x1B14 JUMP JUMPDEST PUSH1 0x1 DUP3 ADD PUSH1 0x0 PUSH2 0x100 EXP DUP2 SLOAD SWAP1 PUSH20 0xFFFFFFFFFFFFFFFFFFFFFFFFFFFFFFFFFFFFFFFF MUL NOT AND SWAP1 SSTORE PUSH1 0x2 DUP3 ADD PUSH1 0x0 PUSH2 0xBA9 SWAP2 SWAP1 PUSH2 0x1B14 JUMP JUMPDEST PUSH1 0x3 DUP3 ADD PUSH1 0x0 PUSH2 0xBB9 SWAP2 SWAP1 PUSH2 0x1B14 JUMP JUMPDEST PUSH1 0x4 DUP3 ADD PUSH1 0x0 PUSH2 0x100 EXP DUP2 SLOAD SWAP1 PUSH20 0xFFFFFFFFFFFFFFFFFFFFFFFFFFFFFFFFFFFFFFFF MUL NOT AND SWAP1 SSTORE POP POP POP POP POP POP POP POP POP JUMP JUMPDEST PUSH1 0x0 DUP1 SLOAD SWAP1 PUSH2 0x100 EXP SWAP1 DIV PUSH20 0xFFFFFFFFFFFFFFFFFFFFFFFFFFFFFFFFFFFFFFFF AND DUP2 JUMP JUMPDEST PUSH2 0xC17 PUSH2 0x1B54 JUMP JUMPDEST DUP6 DUP2 PUSH1 0x0 ADD DUP2 SWAP1 MSTORE POP DUP5 DUP2 PUSH1 0x20 ADD SWAP1 PUSH20 0xFFFFFFFFFFFFFFFFFFFFFFFFFFFFFFFFFFFFFFFF AND SWAP1 DUP2 PUSH20 0xFFFFFFFFFFFFFFFFFFFFFFFFFFFFFFFFFFFFFFFF AND DUP2 MSTORE POP POP DUP4 DUP2 PUSH1 0x40 ADD DUP2 SWAP1 MSTORE POP DUP3 DUP2 PUSH1 0x60 ADD DUP2 SWAP1 MSTORE POP DUP2 DUP2 PUSH1 0x80 ADD SWAP1 PUSH20 0xFFFFFFFFFFFFFFFFFFFFFFFFFFFFFFFFFFFFFFFF AND SWAP1 DUP2 PUSH20 0xFFFFFFFFFFFFFFFFFFFFFFFFFFFFFFFFFFFFFFFF AND DUP2 MSTORE POP POP PUSH1 0x5 DUP2 SWAP1 DUP1 PUSH1 0x1 DUP2 SLOAD ADD DUP1 DUP3 SSTORE DUP1 SWAP2 POP POP PUSH1 0x1 SWAP1 SUB SWAP1 PUSH1 0x0 MSTORE PUSH1 0x20 PUSH1 0x0 KECCAK256 SWAP1 PUSH1 0x5 MUL ADD PUSH1 0x0 SWAP1 SWAP2 SWAP1 SWAP2 SWAP1 SWAP2 POP PUSH1 0x0 DUP3 ADD MLOAD DUP2 PUSH1 0x0 ADD SWAP1 DUP1 MLOAD SWAP1 PUSH1 0x20 ADD SWAP1 PUSH2 0xCEA SWAP3 SWAP2 SWAP1 PUSH2 0x1BAF JUMP JUMPDEST POP PUSH1 0x20 DUP3 ADD MLOAD DUP2 PUSH1 0x1 ADD PUSH1 0x0 PUSH2 0x100 EXP DUP2 SLOAD DUP2 PUSH20 0xFFFFFFFFFFFFFFFFFFFFFFFFFFFFFFFFFFFFFFFF MUL NOT AND SWAP1 DUP4 PUSH20 0xFFFFFFFFFFFFFFFFFFFFFFFFFFFFFFFFFFFFFFFF AND MUL OR SWAP1 SSTORE POP PUSH1 0x40 DUP3 ADD MLOAD DUP2 PUSH1 0x2 ADD SWAP1 DUP1 MLOAD SWAP1 PUSH1 0x20 ADD SWAP1 PUSH2 0xD4E SWAP3 SWAP2 SWAP1 PUSH2 0x1BAF JUMP JUMPDEST POP PUSH1 0x60 DUP3 ADD MLOAD DUP2 PUSH1 0x3 ADD SWAP1 DUP1 MLOAD SWAP1 PUSH1 0x20 ADD SWAP1 PUSH2 0xD6B SWAP3 SWAP2 SWAP1 PUSH2 0x1BAF JUMP JUMPDEST POP PUSH1 0x80 DUP3 ADD MLOAD DUP2 PUSH1 0x4 ADD PUSH1 0x0 PUSH2 0x100 EXP DUP2 SLOAD DUP2 PUSH20 0xFFFFFFFFFFFFFFFFFFFFFFFFFFFFFFFFFFFFFFFF MUL NOT AND SWAP1 DUP4 PUSH20 0xFFFFFFFFFFFFFFFFFFFFFFFFFFFFFFFFFFFFFFFF AND MUL OR SWAP1 SSTORE POP POP POP POP POP POP POP POP POP JUMP JUMPDEST PUSH1 0x0 DUP1 PUSH1 0x0 DUP1 PUSH1 0x0 PUSH2 0xDCE DUP8 PUSH2 0x1043 JUMP JUMPDEST SWAP5 POP SWAP5 POP SWAP5 POP SWAP5 POP SWAP5 POP PUSH1 0x1 PUSH1 0x0 SWAP1 SLOAD SWAP1 PUSH2 0x100 EXP SWAP1 DIV PUSH20 0xFFFFFFFFFFFFFFFFFFFFFFFFFFFFFFFFFFFFFFFF AND PUSH20 0xFFFFFFFFFFFFFFFFFFFFFFFFFFFFFFFFFFFFFFFF AND PUSH4 0x4268DDBD DUP9 DUP9 DUP5 PUSH1 0x40 MLOAD DUP5 PUSH4 0xFFFFFFFF AND PUSH1 0xE0 SHL DUP2 MSTORE PUSH1 0x4 ADD PUSH2 0xE37 SWAP4 SWAP3 SWAP2 SWAP1 PUSH2 0x2523 JUMP JUMPDEST PUSH1 0x20 PUSH1 0x40 MLOAD DUP1 DUP4 SUB DUP2 PUSH1 0x0 DUP8 GAS CALL ISZERO DUP1 ISZERO PUSH2 0xE56 JUMPI RETURNDATASIZE PUSH1 0x0 DUP1 RETURNDATACOPY RETURNDATASIZE PUSH1 0x0 REVERT JUMPDEST POP POP POP POP PUSH1 0x40 MLOAD RETURNDATASIZE PUSH1 0x1F NOT PUSH1 0x1F DUP3 ADD AND DUP3 ADD DUP1 PUSH1 0x40 MSTORE POP DUP2 ADD SWAP1 PUSH2 0xE7A SWAP2 SWAP1 PUSH2 0x2586 JUMP JUMPDEST PUSH2 0xEB9 JUMPI PUSH1 0x40 MLOAD PUSH32 0x8C379A000000000000000000000000000000000000000000000000000000000 DUP2 MSTORE PUSH1 0x4 ADD PUSH2 0xEB0 SWAP1 PUSH2 0x2625 JUMP JUMPDEST PUSH1 0x40 MLOAD DUP1 SWAP2 SUB SWAP1 REVERT JUMPDEST PUSH1 0x6 DUP8 DUP2 SLOAD DUP2 LT PUSH2 0xECD JUMPI PUSH2 0xECC PUSH2 0x24F4 JUMP JUMPDEST JUMPDEST SWAP1 PUSH1 0x0 MSTORE PUSH1 0x20 PUSH1 0x0 KECCAK256 SWAP1 PUSH1 0x5 MUL ADD PUSH1 0x0 DUP1 DUP3 ADD PUSH1 0x0 PUSH2 0xEEC SWAP2 SWAP1 PUSH2 0x1B14 JUMP JUMPDEST PUSH1 0x1 DUP3 ADD PUSH1 0x0 PUSH2 0x100 EXP DUP2 SLOAD SWAP1 PUSH20 0xFFFFFFFFFFFFFFFFFFFFFFFFFFFFFFFFFFFFFFFF MUL NOT AND SWAP1 SSTORE PUSH1 0x2 DUP3 ADD PUSH1 0x0 PUSH2 0xF23 SWAP2 SWAP1 PUSH2 0x1B14 JUMP JUMPDEST PUSH1 0x3 DUP3 ADD PUSH1 0x0 PUSH2 0xF33 SWAP2 SWAP1 PUSH2 0x1B14 JUMP JUMPDEST PUSH1 0x4 DUP3 ADD PUSH1 0x0 PUSH2 0x100 EXP DUP2 SLOAD SWAP1 PUSH20 0xFFFFFFFFFFFFFFFFFFFFFFFFFFFFFFFFFFFFFFFF MUL NOT AND SWAP1 SSTORE POP POP POP POP POP POP POP POP POP JUMP JUMPDEST PUSH1 0x0 DUP1 PUSH20 0xFFFFFFFFFFFFFFFFFFFFFFFFFFFFFFFFFFFFFFFF AND PUSH1 0x7 PUSH1 0x0 DUP5 PUSH20 0xFFFFFFFFFFFFFFFFFFFFFFFFFFFFFFFFFFFFFFFF AND PUSH20 0xFFFFFFFFFFFFFFFFFFFFFFFFFFFFFFFFFFFFFFFF AND DUP2 MSTORE PUSH1 0x20 ADD SWAP1 DUP2 MSTORE PUSH1 0x20 ADD PUSH1 0x0 KECCAK256 PUSH1 0x0 SWAP1 SLOAD SWAP1 PUSH2 0x100 EXP SWAP1 DIV PUSH20 0xFFFFFFFFFFFFFFFFFFFFFFFFFFFFFFFFFFFFFFFF AND PUSH20 0xFFFFFFFFFFFFFFFFFFFFFFFFFFFFFFFFFFFFFFFF AND EQ ISZERO SWAP1 POP SWAP2 SWAP1 POP JUMP JUMPDEST PUSH1 0x0 DUP3 DUP3 PUSH1 0x40 MLOAD PUSH1 0x20 ADD PUSH2 0x1012 SWAP3 SWAP2 SWAP1 PUSH2 0x26C9 JUMP JUMPDEST PUSH1 0x40 MLOAD PUSH1 0x20 DUP2 DUP4 SUB SUB DUP2 MSTORE SWAP1 PUSH1 0x40 MSTORE DUP1 MLOAD SWAP1 PUSH1 0x20 ADD KECCAK256 SWAP1 POP SWAP3 SWAP2 POP POP JUMP JUMPDEST PUSH1 0x4 SLOAD DUP2 JUMP JUMPDEST PUSH1 0x0 PUSH1 0x6 DUP1 SLOAD SWAP1 POP SWAP1 POP SWAP1 JUMP JUMPDEST PUSH1 0x60 PUSH1 0x0 PUSH1 0x60 DUP1 PUSH1 0x0 PUSH1 0x5 DUP1 SLOAD SWAP1 POP DUP7 LT PUSH2 0x1093 JUMPI PUSH1 0x40 MLOAD PUSH32 0x8C379A000000000000000000000000000000000000000000000000000000000 DUP2 MSTORE PUSH1 0x4 ADD PUSH2 0x108A SWAP1 PUSH2 0x24D4 JUMP JUMPDEST PUSH1 0x40 MLOAD DUP1 SWAP2 SUB SWAP1 REVERT JUMPDEST PUSH1 0x0 PUSH1 0x6 DUP8 DUP2 SLOAD DUP2 LT PUSH2 0x10A9 JUMPI PUSH2 0x10A8 PUSH2 0x24F4 JUMP JUMPDEST JUMPDEST SWAP1 PUSH1 0x0 MSTORE PUSH1 0x20 PUSH1 0x0 KECCAK256 SWAP1 PUSH1 0x5 MUL ADD PUSH1 0x40 MLOAD DUP1 PUSH1 0xA0 ADD PUSH1 0x40 MSTORE SWAP1 DUP2 PUSH1 0x0 DUP3 ADD DUP1 SLOAD PUSH2 0x10D2 SWAP1 PUSH2 0x2456 JUMP JUMPDEST DUP1 PUSH1 0x1F ADD PUSH1 0x20 DUP1 SWAP2 DIV MUL PUSH1 0x20 ADD PUSH1 0x40 MLOAD SWAP1 DUP2 ADD PUSH1 0x40 MSTORE DUP1 SWAP3 SWAP2 SWAP1 DUP2 DUP2 MSTORE PUSH1 0x20 ADD DUP3 DUP1 SLOAD PUSH2 0x10FE SWAP1 PUSH2 0x2456 JUMP JUMPDEST DUP1 ISZERO PUSH2 0x114B JUMPI DUP1 PUSH1 0x1F LT PUSH2 0x1120 JUMPI PUSH2 0x100 DUP1 DUP4 SLOAD DIV MUL DUP4 MSTORE SWAP2 PUSH1 0x20 ADD SWAP2 PUSH2 0x114B JUMP JUMPDEST DUP3 ADD SWAP2 SWAP1 PUSH1 0x0 MSTORE PUSH1 0x20 PUSH1 0x0 KECCAK256 SWAP1 JUMPDEST DUP2 SLOAD DUP2 MSTORE SWAP1 PUSH1 0x1 ADD SWAP1 PUSH1 0x20 ADD DUP1 DUP4 GT PUSH2 0x112E JUMPI DUP3 SWAP1 SUB PUSH1 0x1F AND DUP3 ADD SWAP2 JUMPDEST POP POP POP POP POP DUP2 MSTORE PUSH1 0x20 ADD PUSH1 0x1 DUP3 ADD PUSH1 0x0 SWAP1 SLOAD SWAP1 PUSH2 0x100 EXP SWAP1 DIV PUSH20 0xFFFFFFFFFFFFFFFFFFFFFFFFFFFFFFFFFFFFFFFF AND PUSH20 0xFFFFFFFFFFFFFFFFFFFFFFFFFFFFFFFFFFFFFFFF AND PUSH20 0xFFFFFFFFFFFFFFFFFFFFFFFFFFFFFFFFFFFFFFFF AND DUP2 MSTORE PUSH1 0x20 ADD PUSH1 0x2 DUP3 ADD DUP1 SLOAD PUSH2 0x11BA SWAP1 PUSH2 0x2456 JUMP JUMPDEST DUP1 PUSH1 0x1F ADD PUSH1 0x20 DUP1 SWAP2 DIV MUL PUSH1 0x20 ADD PUSH1 0x40 MLOAD SWAP1 DUP2 ADD PUSH1 0x40 MSTORE DUP1 SWAP3 SWAP2 SWAP1 DUP2 DUP2 MSTORE PUSH1 0x20 ADD DUP3 DUP1 SLOAD PUSH2 0x11E6 SWAP1 PUSH2 0x2456 JUMP JUMPDEST DUP1 ISZERO PUSH2 0x1233 JUMPI DUP1 PUSH1 0x1F LT PUSH2 0x1208 JUMPI PUSH2 0x100 DUP1 DUP4 SLOAD DIV MUL DUP4 MSTORE SWAP2 PUSH1 0x20 ADD SWAP2 PUSH2 0x1233 JUMP JUMPDEST DUP3 ADD SWAP2 SWAP1 PUSH1 0x0 MSTORE PUSH1 0x20 PUSH1 0x0 KECCAK256 SWAP1 JUMPDEST DUP2 SLOAD DUP2 MSTORE SWAP1 PUSH1 0x1 ADD SWAP1 PUSH1 0x20 ADD DUP1 DUP4 GT PUSH2 0x1216 JUMPI DUP3 SWAP1 SUB PUSH1 0x1F AND DUP3 ADD SWAP2 JUMPDEST POP POP POP POP POP DUP2 MSTORE PUSH1 0x20 ADD PUSH1 0x3 DUP3 ADD DUP1 SLOAD PUSH2 0x124C SWAP1 PUSH2 0x2456 JUMP JUMPDEST DUP1 PUSH1 0x1F ADD PUSH1 0x20 DUP1 SWAP2 DIV MUL PUSH1 0x20 ADD PUSH1 0x40 MLOAD SWAP1 DUP2 ADD PUSH1 0x40 MSTORE DUP1 SWAP3 SWAP2 SWAP1 DUP2 DUP2 MSTORE PUSH1 0x20 ADD DUP3 DUP1 SLOAD PUSH2 0x1278 SWAP1 PUSH2 0x2456 JUMP JUMPDEST DUP1 ISZERO PUSH2 0x12C5 JUMPI DUP1 PUSH1 0x1F LT PUSH2 0x129A JUMPI PUSH2 0x100 DUP1 DUP4 SLOAD DIV MUL DUP4 MSTORE SWAP2 PUSH1 0x20 ADD SWAP2 PUSH2 0x12C5 JUMP JUMPDEST DUP3 ADD SWAP2 SWAP1 PUSH1 0x0 MSTORE PUSH1 0x20 PUSH1 0x0 KECCAK256 SWAP1 JUMPDEST DUP2 SLOAD DUP2 MSTORE SWAP1 PUSH1 0x1 ADD SWAP1 PUSH1 0x20 ADD DUP1 DUP4 GT PUSH2 0x12A8 JUMPI DUP3 SWAP1 SUB PUSH1 0x1F AND DUP3 ADD SWAP2 JUMPDEST POP POP POP POP POP DUP2 MSTORE PUSH1 0x20 ADD PUSH1 0x4 DUP3 ADD PUSH1 0x0 SWAP1 SLOAD SWAP1 PUSH2 0x100 EXP SWAP1 DIV PUSH20 0xFFFFFFFFFFFFFFFFFFFFFFFFFFFFFFFFFFFFFFFF AND PUSH20 0xFFFFFFFFFFFFFFFFFFFFFFFFFFFFFFFFFFFFFFFF AND PUSH20 0xFFFFFFFFFFFFFFFFFFFFFFFFFFFFFFFFFFFFFFFF AND DUP2 MSTORE POP POP SWAP1 POP DUP1 PUSH1 0x0 ADD MLOAD DUP2 PUSH1 0x20 ADD MLOAD DUP3 PUSH1 0x40 ADD MLOAD DUP4 PUSH1 0x60 ADD MLOAD DUP5 PUSH1 0x80 ADD MLOAD SWAP6 POP SWAP6 POP SWAP6 POP SWAP6 POP SWAP6 POP POP SWAP2 SWAP4 SWAP6 SWAP1 SWAP3 SWAP5 POP JUMP JUMPDEST PUSH1 0x0 PUSH1 0x1 PUSH1 0x0 SWAP1 SLOAD SWAP1 PUSH2 0x100 EXP SWAP1 DIV PUSH20 0xFFFFFFFFFFFFFFFFFFFFFFFFFFFFFFFFFFFFFFFF AND PUSH20 0xFFFFFFFFFFFFFFFFFFFFFFFFFFFFFFFFFFFFFFFF AND PUSH4 0x8A97503D DUP8 DUP7 PUSH1 0x40 MLOAD DUP4 PUSH4 0xFFFFFFFF AND PUSH1 0xE0 SHL DUP2 MSTORE PUSH1 0x4 ADD PUSH2 0x13B2 SWAP3 SWAP2 SWAP1 PUSH2 0x26F1 JUMP JUMPDEST PUSH1 0x20 PUSH1 0x40 MLOAD DUP1 DUP4 SUB DUP2 DUP7 GAS STATICCALL ISZERO DUP1 ISZERO PUSH2 0x13CF JUMPI RETURNDATASIZE PUSH1 0x0 DUP1 RETURNDATACOPY RETURNDATASIZE PUSH1 0x0 REVERT JUMPDEST POP POP POP POP PUSH1 0x40 MLOAD RETURNDATASIZE PUSH1 0x1F NOT PUSH1 0x1F DUP3 ADD AND DUP3 ADD DUP1 PUSH1 0x40 MSTORE POP DUP2 ADD SWAP1 PUSH2 0x13F3 SWAP2 SWAP1 PUSH2 0x2736 JUMP JUMPDEST SWAP1 POP PUSH2 0x13FD PUSH2 0x1B54 JUMP JUMPDEST DUP8 DUP2 PUSH1 0x0 ADD DUP2 SWAP1 MSTORE POP DUP7 DUP2 PUSH1 0x20 ADD SWAP1 PUSH20 0xFFFFFFFFFFFFFFFFFFFFFFFFFFFFFFFFFFFFFFFF AND SWAP1 DUP2 PUSH20 0xFFFFFFFFFFFFFFFFFFFFFFFFFFFFFFFFFFFFFFFF AND DUP2 MSTORE POP POP DUP6 DUP2 PUSH1 0x40 ADD DUP2 SWAP1 MSTORE POP DUP5 DUP2 PUSH1 0x60 ADD DUP2 SWAP1 MSTORE POP DUP3 DUP2 PUSH1 0x80 ADD SWAP1 PUSH20 0xFFFFFFFFFFFFFFFFFFFFFFFFFFFFFFFFFFFFFFFF AND SWAP1 DUP2 PUSH20 0xFFFFFFFFFFFFFFFFFFFFFFFFFFFFFFFFFFFFFFFF AND DUP2 MSTORE POP POP PUSH1 0x6 DUP2 SWAP1 DUP1 PUSH1 0x1 DUP2 SLOAD ADD DUP1 DUP3 SSTORE DUP1 SWAP2 POP POP PUSH1 0x1 SWAP1 SUB SWAP1 PUSH1 0x0 MSTORE PUSH1 0x20 PUSH1 0x0 KECCAK256 SWAP1 PUSH1 0x5 MUL ADD PUSH1 0x0 SWAP1 SWAP2 SWAP1 SWAP2 SWAP1 SWAP2 POP PUSH1 0x0 DUP3 ADD MLOAD DUP2 PUSH1 0x0 ADD SWAP1 DUP1 MLOAD SWAP1 PUSH1 0x20 ADD SWAP1 PUSH2 0x14D0 SWAP3 SWAP2 SWAP1 PUSH2 0x1BAF JUMP JUMPDEST POP PUSH1 0x20 DUP3 ADD MLOAD DUP2 PUSH1 0x1 ADD PUSH1 0x0 PUSH2 0x100 EXP DUP2 SLOAD DUP2 PUSH20 0xFFFFFFFFFFFFFFFFFFFFFFFFFFFFFFFFFFFFFFFF MUL NOT AND SWAP1 DUP4 PUSH20 0xFFFFFFFFFFFFFFFFFFFFFFFFFFFFFFFFFFFFFFFF AND MUL OR SWAP1 SSTORE POP PUSH1 0x40 DUP3 ADD MLOAD DUP2 PUSH1 0x2 ADD SWAP1 DUP1 MLOAD SWAP1 PUSH1 0x20 ADD SWAP1 PUSH2 0x1534 SWAP3 SWAP2 SWAP1 PUSH2 0x1BAF JUMP JUMPDEST POP PUSH1 0x60 DUP3 ADD MLOAD DUP2 PUSH1 0x3 ADD SWAP1 DUP1 MLOAD SWAP1 PUSH1 0x20 ADD SWAP1 PUSH2 0x1551 SWAP3 SWAP2 SWAP1 PUSH2 0x1BAF JUMP JUMPDEST POP PUSH1 0x80 DUP3 ADD MLOAD DUP2 PUSH1 0x4 ADD PUSH1 0x0 PUSH2 0x100 EXP DUP2 SLOAD DUP2 PUSH20 0xFFFFFFFFFFFFFFFFFFFFFFFFFFFFFFFFFFFFFFFF MUL NOT AND SWAP1 DUP4 PUSH20 0xFFFFFFFFFFFFFFFFFFFFFFFFFFFFFFFFFFFFFFFF AND MUL OR SWAP1 SSTORE POP POP POP POP POP POP POP POP POP POP POP JUMP JUMPDEST PUSH1 0x0 PUSH1 0x5 DUP1 SLOAD SWAP1 POP SWAP1 POP SWAP1 JUMP JUMPDEST PUSH1 0x3 PUSH1 0x0 SWAP1 SLOAD SWAP1 PUSH2 0x100 EXP SWAP1 DIV PUSH20 0xFFFFFFFFFFFFFFFFFFFFFFFFFFFFFFFFFFFFFFFF AND DUP2 JUMP JUMPDEST PUSH1 0x2 PUSH1 0x0 SWAP1 SLOAD SWAP1 PUSH2 0x100 EXP SWAP1 DIV PUSH20 0xFFFFFFFFFFFFFFFFFFFFFFFFFFFFFFFFFFFFFFFF AND DUP2 JUMP JUMPDEST PUSH1 0x5 DUP2 DUP2 SLOAD DUP2 LT PUSH2 0x160E JUMPI PUSH1 0x0 DUP1 REVERT JUMPDEST SWAP1 PUSH1 0x0 MSTORE PUSH1 0x20 PUSH1 0x0 KECCAK256 SWAP1 PUSH1 0x5 MUL ADD PUSH1 0x0 SWAP2 POP SWAP1 POP DUP1 PUSH1 0x0 ADD DUP1 SLOAD PUSH2 0x1631 SWAP1 PUSH2 0x2456 JUMP JUMPDEST DUP1 PUSH1 0x1F ADD PUSH1 0x20 DUP1 SWAP2 DIV MUL PUSH1 0x20 ADD PUSH1 0x40 MLOAD SWAP1 DUP2 ADD PUSH1 0x40 MSTORE DUP1 SWAP3 SWAP2 SWAP1 DUP2 DUP2 MSTORE PUSH1 0x20 ADD DUP3 DUP1 SLOAD PUSH2 0x165D SWAP1 PUSH2 0x2456 JUMP JUMPDEST DUP1 ISZERO PUSH2 0x16AA JUMPI DUP1 PUSH1 0x1F LT PUSH2 0x167F JUMPI PUSH2 0x100 DUP1 DUP4 SLOAD DIV MUL DUP4 MSTORE SWAP2 PUSH1 0x20 ADD SWAP2 PUSH2 0x16AA JUMP JUMPDEST DUP3 ADD SWAP2 SWAP1 PUSH1 0x0 MSTORE PUSH1 0x20 PUSH1 0x0 KECCAK256 SWAP1 JUMPDEST DUP2 SLOAD DUP2 MSTORE SWAP1 PUSH1 0x1 ADD SWAP1 PUSH1 0x20 ADD DUP1 DUP4 GT PUSH2 0x168D JUMPI DUP3 SWAP1 SUB PUSH1 0x1F AND DUP3 ADD SWAP2 JUMPDEST POP POP POP POP POP SWAP1 DUP1 PUSH1 0x1 ADD PUSH1 0x0 SWAP1 SLOAD SWAP1 PUSH2 0x100 EXP SWAP1 DIV PUSH20 0xFFFFFFFFFFFFFFFFFFFFFFFFFFFFFFFFFFFFFFFF AND SWAP1 DUP1 PUSH1 0x2 ADD DUP1 SLOAD PUSH2 0x16E5 SWAP1 PUSH2 0x2456 JUMP JUMPDEST DUP1 PUSH1 0x1F ADD PUSH1 0x20 DUP1 SWAP2 DIV MUL PUSH1 0x20 ADD PUSH1 0x40 MLOAD SWAP1 DUP2 ADD PUSH1 0x40 MSTORE DUP1 SWAP3 SWAP2 SWAP1 DUP2 DUP2 MSTORE PUSH1 0x20 ADD DUP3 DUP1 SLOAD PUSH2 0x1711 SWAP1 PUSH2 0x2456 JUMP JUMPDEST DUP1 ISZERO PUSH2 0x175E JUMPI DUP1 PUSH1 0x1F LT PUSH2 0x1733 JUMPI PUSH2 0x100 DUP1 DUP4 SLOAD DIV MUL DUP4 MSTORE SWAP2 PUSH1 0x20 ADD SWAP2 PUSH2 0x175E JUMP JUMPDEST DUP3 ADD SWAP2 SWAP1 PUSH1 0x0 MSTORE PUSH1 0x20 PUSH1 0x0 KECCAK256 SWAP1 JUMPDEST DUP2 SLOAD DUP2 MSTORE SWAP1 PUSH1 0x1 ADD SWAP1 PUSH1 0x20 ADD DUP1 DUP4 GT PUSH2 0x1741 JUMPI DUP3 SWAP1 SUB PUSH1 0x1F AND DUP3 ADD SWAP2 JUMPDEST POP POP POP POP POP SWAP1 DUP1 PUSH1 0x3 ADD DUP1 SLOAD PUSH2 0x1773 SWAP1 PUSH2 0x2456 JUMP JUMPDEST DUP1 PUSH1 0x1F ADD PUSH1 0x20 DUP1 SWAP2 DIV MUL PUSH1 0x20 ADD PUSH1 0x40 MLOAD SWAP1 DUP2 ADD PUSH1 0x40 MSTORE DUP1 SWAP3 SWAP2 SWAP1 DUP2 DUP2 MSTORE PUSH1 0x20 ADD DUP3 DUP1 SLOAD PUSH2 0x179F SWAP1 PUSH2 0x2456 JUMP JUMPDEST DUP1 ISZERO PUSH2 0x17EC JUMPI DUP1 PUSH1 0x1F LT PUSH2 0x17C1 JUMPI PUSH2 0x100 DUP1 DUP4 SLOAD DIV MUL DUP4 MSTORE SWAP2 PUSH1 0x20 ADD SWAP2 PUSH2 0x17EC JUMP JUMPDEST DUP3 ADD SWAP2 SWAP1 PUSH1 0x0 MSTORE PUSH1 0x20 PUSH1 0x0 KECCAK256 SWAP1 JUMPDEST DUP2 SLOAD DUP2 MSTORE SWAP1 PUSH1 0x1 ADD SWAP1 PUSH1 0x20 ADD DUP1 DUP4 GT PUSH2 0x17CF JUMPI DUP3 SWAP1 SUB PUSH1 0x1F AND DUP3 ADD SWAP2 JUMPDEST POP POP POP POP POP SWAP1 DUP1 PUSH1 0x4 ADD PUSH1 0x0 SWAP1 SLOAD SWAP1 PUSH2 0x100 EXP SWAP1 DIV PUSH20 0xFFFFFFFFFFFFFFFFFFFFFFFFFFFFFFFFFFFFFFFF AND SWAP1 POP DUP6 JUMP JUMPDEST PUSH1 0x1 PUSH1 0x0 SWAP1 SLOAD SWAP1 PUSH2 0x100 EXP SWAP1 DIV PUSH20 0xFFFFFFFFFFFFFFFFFFFFFFFFFFFFFFFFFFFFFFFF AND DUP2 JUMP JUMPDEST PUSH1 0x0 PUSH1 0x7 PUSH1 0x0 DUP4 PUSH20 0xFFFFFFFFFFFFFFFFFFFFFFFFFFFFFFFFFFFFFFFF AND PUSH20 0xFFFFFFFFFFFFFFFFFFFFFFFFFFFFFFFFFFFFFFFF AND DUP2 MSTORE PUSH1 0x20 ADD SWAP1 DUP2 MSTORE PUSH1 0x20 ADD PUSH1 0x0 KECCAK256 PUSH1 0x0 SWAP1 SLOAD SWAP1 PUSH2 0x100 EXP SWAP1 DIV PUSH20 0xFFFFFFFFFFFFFFFFFFFFFFFFFFFFFFFFFFFFFFFF AND SWAP1 POP SWAP2 SWAP1 POP JUMP JUMPDEST PUSH1 0x0 PUSH1 0x1 PUSH1 0x0 SWAP1 SLOAD SWAP1 PUSH2 0x100 EXP SWAP1 DIV PUSH20 0xFFFFFFFFFFFFFFFFFFFFFFFFFFFFFFFFFFFFFFFF AND PUSH20 0xFFFFFFFFFFFFFFFFFFFFFFFFFFFFFFFFFFFFFFFF AND PUSH4 0x8A97503D DUP5 DUP5 PUSH1 0x40 MLOAD DUP4 PUSH4 0xFFFFFFFF AND PUSH1 0xE0 SHL DUP2 MSTORE PUSH1 0x4 ADD PUSH2 0x190A SWAP3 SWAP2 SWAP1 PUSH2 0x26F1 JUMP JUMPDEST PUSH1 0x20 PUSH1 0x40 MLOAD DUP1 DUP4 SUB DUP2 DUP7 GAS STATICCALL ISZERO DUP1 ISZERO PUSH2 0x1927 JUMPI RETURNDATASIZE PUSH1 0x0 DUP1 RETURNDATACOPY RETURNDATASIZE PUSH1 0x0 REVERT JUMPDEST POP POP POP POP PUSH1 0x40 MLOAD RETURNDATASIZE PUSH1 0x1F NOT PUSH1 0x1F DUP3 ADD AND DUP3 ADD DUP1 PUSH1 0x40 MSTORE POP DUP2 ADD SWAP1 PUSH2 0x194B SWAP2 SWAP1 PUSH2 0x2736 JUMP JUMPDEST SWAP1 POP PUSH1 0x0 PUSH1 0x1 PUSH1 0x0 SWAP1 SLOAD SWAP1 PUSH2 0x100 EXP SWAP1 DIV PUSH20 0xFFFFFFFFFFFFFFFFFFFFFFFFFFFFFFFFFFFFFFFF AND PUSH20 0xFFFFFFFFFFFFFFFFFFFFFFFFFFFFFFFFFFFFFFFF AND PUSH4 0x435DF20D DUP4 PUSH1 0x40 MLOAD DUP3 PUSH4 0xFFFFFFFF AND PUSH1 0xE0 SHL DUP2 MSTORE PUSH1 0x4 ADD PUSH2 0x19AA SWAP2 SWAP1 PUSH2 0x21C4 JUMP JUMPDEST PUSH1 0x0 PUSH1 0x40 MLOAD DUP1 DUP4 SUB DUP2 DUP7 GAS STATICCALL ISZERO DUP1 ISZERO PUSH2 0x19C7 JUMPI RETURNDATASIZE PUSH1 0x0 DUP1 RETURNDATACOPY RETURNDATASIZE PUSH1 0x0 REVERT JUMPDEST POP POP POP POP PUSH1 0x40 MLOAD RETURNDATASIZE PUSH1 0x0 DUP3 RETURNDATACOPY RETURNDATASIZE PUSH1 0x1F NOT PUSH1 0x1F DUP3 ADD AND DUP3 ADD DUP1 PUSH1 0x40 MSTORE POP DUP2 ADD SWAP1 PUSH2 0x19F0 SWAP2 SWAP1 PUSH2 0x27D3 JUMP JUMPDEST SWAP5 POP POP POP POP POP DUP1 PUSH20 0xFFFFFFFFFFFFFFFFFFFFFFFFFFFFFFFFFFFFFFFF AND CALLER PUSH20 0xFFFFFFFFFFFFFFFFFFFFFFFFFFFFFFFFFFFFFFFF AND EQ PUSH2 0x1A2E JUMPI PUSH1 0x0 DUP1 REVERT JUMPDEST PUSH1 0x1 PUSH1 0x0 SWAP1 SLOAD SWAP1 PUSH2 0x100 EXP SWAP1 DIV PUSH20 0xFFFFFFFFFFFFFFFFFFFFFFFFFFFFFFFFFFFFFFFF AND PUSH20 0xFFFFFFFFFFFFFFFFFFFFFFFFFFFFFFFFFFFFFFFF AND PUSH4 0x956A3545 DUP7 DUP5 PUSH1 0x40 MLOAD DUP4 PUSH4 0xFFFFFFFF AND PUSH1 0xE0 SHL DUP2 MSTORE PUSH1 0x4 ADD PUSH2 0x1A8B SWAP3 SWAP2 SWAP1 PUSH2 0x28A2 JUMP JUMPDEST PUSH1 0x20 PUSH1 0x40 MLOAD DUP1 DUP4 SUB DUP2 PUSH1 0x0 DUP8 GAS CALL ISZERO DUP1 ISZERO PUSH2 0x1AAA JUMPI RETURNDATASIZE PUSH1 0x0 DUP1 RETURNDATACOPY RETURNDATASIZE PUSH1 0x0 REVERT JUMPDEST POP POP POP POP PUSH1 0x40 MLOAD RETURNDATASIZE PUSH1 0x1F NOT PUSH1 0x1F DUP3 ADD AND DUP3 ADD DUP1 PUSH1 0x40 MSTORE POP DUP2 ADD SWAP1 PUSH2 0x1ACE SWAP2 SWAP1 PUSH2 0x2586 JUMP JUMPDEST PUSH2 0x1B0D JUMPI PUSH1 0x40 MLOAD PUSH32 0x8C379A000000000000000000000000000000000000000000000000000000000 DUP2 MSTORE PUSH1 0x4 ADD PUSH2 0x1B04 SWAP1 PUSH2 0x293D JUMP JUMPDEST PUSH1 0x40 MLOAD DUP1 SWAP2 SUB SWAP1 REVERT JUMPDEST POP POP POP POP POP JUMP JUMPDEST POP DUP1 SLOAD PUSH2 0x1B20 SWAP1 PUSH2 0x2456 JUMP JUMPDEST PUSH1 0x0 DUP3 SSTORE DUP1 PUSH1 0x1F LT PUSH2 0x1B32 JUMPI POP PUSH2 0x1B51 JUMP JUMPDEST PUSH1 0x1F ADD PUSH1 0x20 SWAP1 DIV SWAP1 PUSH1 0x0 MSTORE PUSH1 0x20 PUSH1 0x0 KECCAK256 SWAP1 DUP2 ADD SWAP1 PUSH2 0x1B50 SWAP2 SWAP1 PUSH2 0x1C35 JUMP JUMPDEST JUMPDEST POP JUMP JUMPDEST PUSH1 0x40 MLOAD DUP1 PUSH1 0xA0 ADD PUSH1 0x40 MSTORE DUP1 PUSH1 0x60 DUP2 MSTORE PUSH1 0x20 ADD PUSH1 0x0 PUSH20 0xFFFFFFFFFFFFFFFFFFFFFFFFFFFFFFFFFFFFFFFF AND DUP2 MSTORE PUSH1 0x20 ADD PUSH1 0x60 DUP2 MSTORE PUSH1 0x20 ADD PUSH1 0x60 DUP2 MSTORE PUSH1 0x20 ADD PUSH1 0x0 PUSH20 0xFFFFFFFFFFFFFFFFFFFFFFFFFFFFFFFFFFFFFFFF AND DUP2 MSTORE POP SWAP1 JUMP JUMPDEST DUP3 DUP1 SLOAD PUSH2 0x1BBB SWAP1 PUSH2 0x2456 JUMP JUMPDEST SWAP1 PUSH1 0x0 MSTORE PUSH1 0x20 PUSH1 0x0 KECCAK256 SWAP1 PUSH1 0x1F ADD PUSH1 0x20 SWAP1 DIV DUP2 ADD SWAP3 DUP3 PUSH2 0x1BDD JUMPI PUSH1 0x0 DUP6 SSTORE PUSH2 0x1C24 JUMP JUMPDEST DUP3 PUSH1 0x1F LT PUSH2 0x1BF6 JUMPI DUP1 MLOAD PUSH1 0xFF NOT AND DUP4 DUP1 ADD OR DUP6 SSTORE PUSH2 0x1C24 JUMP JUMPDEST DUP3 DUP1 ADD PUSH1 0x1 ADD DUP6 SSTORE DUP3 ISZERO PUSH2 0x1C24 JUMPI SWAP2 DUP3 ADD JUMPDEST DUP3 DUP2 GT ISZERO PUSH2 0x1C23 JUMPI DUP3 MLOAD DUP3 SSTORE SWAP2 PUSH1 0x20 ADD SWAP2 SWAP1 PUSH1 0x1 ADD SWAP1 PUSH2 0x1C08 JUMP JUMPDEST JUMPDEST POP SWAP1 POP PUSH2 0x1C31 SWAP2 SWAP1 PUSH2 0x1C35 JUMP JUMPDEST POP SWAP1 JUMP JUMPDEST JUMPDEST DUP1 DUP3 GT ISZERO PUSH2 0x1C4E JUMPI PUSH1 0x0 DUP2 PUSH1 0x0 SWAP1 SSTORE POP PUSH1 0x1 ADD PUSH2 0x1C36 JUMP JUMPDEST POP SWAP1 JUMP JUMPDEST PUSH1 0x0 DUP2 SWAP1 POP SWAP2 SWAP1 POP JUMP JUMPDEST PUSH2 0x1C65 DUP2 PUSH2 0x1C52 JUMP JUMPDEST DUP3 MSTORE POP POP JUMP JUMPDEST PUSH1 0x0 PUSH1 0x20 DUP3 ADD SWAP1 POP PUSH2 0x1C80 PUSH1 0x0 DUP4 ADD DUP5 PUSH2 0x1C5C JUMP JUMPDEST SWAP3 SWAP2 POP POP JUMP JUMPDEST PUSH1 0x0 DUP2 ISZERO ISZERO SWAP1 POP SWAP2 SWAP1 POP JUMP JUMPDEST PUSH2 0x1C9B DUP2 PUSH2 0x1C86 JUMP JUMPDEST DUP3 MSTORE POP POP JUMP JUMPDEST PUSH1 0x0 PUSH1 0x20 DUP3 ADD SWAP1 POP PUSH2 0x1CB6 PUSH1 0x0 DUP4 ADD DUP5 PUSH2 0x1C92 JUMP JUMPDEST SWAP3 SWAP2 POP POP JUMP JUMPDEST PUSH1 0x0 PUSH1 0x40 MLOAD SWAP1 POP SWAP1 JUMP JUMPDEST PUSH1 0x0 DUP1 REVERT JUMPDEST PUSH1 0x0 DUP1 REVERT JUMPDEST PUSH2 0x1CD9 DUP2 PUSH2 0x1C52 JUMP JUMPDEST DUP2 EQ PUSH2 0x1CE4 JUMPI PUSH1 0x0 DUP1 REVERT JUMPDEST POP JUMP JUMPDEST PUSH1 0x0 DUP2 CALLDATALOAD SWAP1 POP PUSH2 0x1CF6 DUP2 PUSH2 0x1CD0 JUMP JUMPDEST SWAP3 SWAP2 POP POP JUMP JUMPDEST PUSH1 0x0 PUSH1 0x20 DUP3 DUP5 SUB SLT ISZERO PUSH2 0x1D12 JUMPI PUSH2 0x1D11 PUSH2 0x1CC6 JUMP JUMPDEST JUMPDEST PUSH1 0x0 PUSH2 0x1D20 DUP5 DUP3 DUP6 ADD PUSH2 0x1CE7 JUMP JUMPDEST SWAP2 POP POP SWAP3 SWAP2 POP POP JUMP JUMPDEST PUSH1 0x0 DUP2 MLOAD SWAP1 POP SWAP2 SWAP1 POP JUMP JUMPDEST PUSH1 0x0 DUP3 DUP3 MSTORE PUSH1 0x20 DUP3 ADD SWAP1 POP SWAP3 SWAP2 POP POP JUMP JUMPDEST PUSH1 0x0 JUMPDEST DUP4 DUP2 LT ISZERO PUSH2 0x1D63 JUMPI DUP1 DUP3 ADD MLOAD DUP2 DUP5 ADD MSTORE PUSH1 0x20 DUP2 ADD SWAP1 POP PUSH2 0x1D48 JUMP JUMPDEST DUP4 DUP2 GT ISZERO PUSH2 0x1D72 JUMPI PUSH1 0x0 DUP5 DUP5 ADD MSTORE JUMPDEST POP POP POP POP JUMP JUMPDEST PUSH1 0x0 PUSH1 0x1F NOT PUSH1 0x1F DUP4 ADD AND SWAP1 POP SWAP2 SWAP1 POP JUMP JUMPDEST PUSH1 0x0 PUSH2 0x1D94 DUP3 PUSH2 0x1D29 JUMP JUMPDEST PUSH2 0x1D9E DUP2 DUP6 PUSH2 0x1D34 JUMP JUMPDEST SWAP4 POP PUSH2 0x1DAE DUP2 DUP6 PUSH1 0x20 DUP7 ADD PUSH2 0x1D45 JUMP JUMPDEST PUSH2 0x1DB7 DUP2 PUSH2 0x1D78 JUMP JUMPDEST DUP5 ADD SWAP2 POP POP SWAP3 SWAP2 POP POP JUMP JUMPDEST PUSH1 0x0 PUSH20 0xFFFFFFFFFFFFFFFFFFFFFFFFFFFFFFFFFFFFFFFF DUP3 AND SWAP1 POP SWAP2 SWAP1 POP JUMP JUMPDEST PUSH1 0x0 PUSH2 0x1DED DUP3 PUSH2 0x1DC2 JUMP JUMPDEST SWAP1 POP SWAP2 SWAP1 POP JUMP JUMPDEST PUSH2 0x1DFD DUP2 PUSH2 0x1DE2 JUMP JUMPDEST DUP3 MSTORE POP POP JUMP JUMPDEST PUSH1 0x0 PUSH1 0xA0 DUP3 ADD SWAP1 POP DUP2 DUP2 SUB PUSH1 0x0 DUP4 ADD MSTORE PUSH2 0x1E1D DUP2 DUP9 PUSH2 0x1D89 JUMP JUMPDEST SWAP1 POP PUSH2 0x1E2C PUSH1 0x20 DUP4 ADD DUP8 PUSH2 0x1DF4 JUMP JUMPDEST DUP2 DUP2 SUB PUSH1 0x40 DUP4 ADD MSTORE PUSH2 0x1E3E DUP2 DUP7 PUSH2 0x1D89 JUMP JUMPDEST SWAP1 POP DUP2 DUP2 SUB PUSH1 0x60 DUP4 ADD MSTORE PUSH2 0x1E52 DUP2 DUP6 PUSH2 0x1D89 JUMP JUMPDEST SWAP1 POP PUSH2 0x1E61 PUSH1 0x80 DUP4 ADD DUP5 PUSH2 0x1DF4 JUMP JUMPDEST SWAP7 SWAP6 POP POP POP POP POP POP JUMP JUMPDEST PUSH1 0x0 DUP2 SWAP1 POP SWAP2 SWAP1 POP JUMP JUMPDEST PUSH2 0x1E7E DUP2 PUSH2 0x1E6B JUMP JUMPDEST DUP2 EQ PUSH2 0x1E89 JUMPI PUSH1 0x0 DUP1 REVERT JUMPDEST POP JUMP JUMPDEST PUSH1 0x0 DUP2 CALLDATALOAD SWAP1 POP PUSH2 0x1E9B DUP2 PUSH2 0x1E75 JUMP JUMPDEST SWAP3 SWAP2 POP POP JUMP JUMPDEST PUSH1 0x0 DUP1 PUSH1 0x40 DUP4 DUP6 SUB SLT ISZERO PUSH2 0x1EB8 JUMPI PUSH2 0x1EB7 PUSH2 0x1CC6 JUMP JUMPDEST JUMPDEST PUSH1 0x0 PUSH2 0x1EC6 DUP6 DUP3 DUP7 ADD PUSH2 0x1CE7 JUMP JUMPDEST SWAP3 POP POP PUSH1 0x20 PUSH2 0x1ED7 DUP6 DUP3 DUP7 ADD PUSH2 0x1E8C JUMP JUMPDEST SWAP2 POP POP SWAP3 POP SWAP3 SWAP1 POP JUMP JUMPDEST PUSH1 0x0 PUSH1 0x20 DUP3 ADD SWAP1 POP PUSH2 0x1EF6 PUSH1 0x0 DUP4 ADD DUP5 PUSH2 0x1DF4 JUMP JUMPDEST SWAP3 SWAP2 POP POP JUMP JUMPDEST PUSH1 0x0 DUP1 REVERT JUMPDEST PUSH1 0x0 DUP1 REVERT JUMPDEST PUSH32 0x4E487B7100000000000000000000000000000000000000000000000000000000 PUSH1 0x0 MSTORE PUSH1 0x41 PUSH1 0x4 MSTORE PUSH1 0x24 PUSH1 0x0 REVERT JUMPDEST PUSH2 0x1F3E DUP3 PUSH2 0x1D78 JUMP JUMPDEST DUP2 ADD DUP2 DUP2 LT PUSH8 0xFFFFFFFFFFFFFFFF DUP3 GT OR ISZERO PUSH2 0x1F5D JUMPI PUSH2 0x1F5C PUSH2 0x1F06 JUMP JUMPDEST JUMPDEST DUP1 PUSH1 0x40 MSTORE POP POP POP JUMP JUMPDEST PUSH1 0x0 PUSH2 0x1F70 PUSH2 0x1CBC JUMP JUMPDEST SWAP1 POP PUSH2 0x1F7C DUP3 DUP3 PUSH2 0x1F35 JUMP JUMPDEST SWAP2 SWAP1 POP JUMP JUMPDEST PUSH1 0x0 PUSH8 0xFFFFFFFFFFFFFFFF DUP3 GT ISZERO PUSH2 0x1F9C JUMPI PUSH2 0x1F9B PUSH2 0x1F06 JUMP JUMPDEST JUMPDEST PUSH2 0x1FA5 DUP3 PUSH2 0x1D78 JUMP JUMPDEST SWAP1 POP PUSH1 0x20 DUP2 ADD SWAP1 POP SWAP2 SWAP1 POP JUMP JUMPDEST DUP3 DUP2 DUP4 CALLDATACOPY PUSH1 0x0 DUP4 DUP4 ADD MSTORE POP POP POP JUMP JUMPDEST PUSH1 0x0 PUSH2 0x1FD4 PUSH2 0x1FCF DUP5 PUSH2 0x1F81 JUMP JUMPDEST PUSH2 0x1F66 JUMP JUMPDEST SWAP1 POP DUP3 DUP2 MSTORE PUSH1 0x20 DUP2 ADD DUP5 DUP5 DUP5 ADD GT ISZERO PUSH2 0x1FF0 JUMPI PUSH2 0x1FEF PUSH2 0x1F01 JUMP JUMPDEST JUMPDEST PUSH2 0x1FFB DUP5 DUP3 DUP6 PUSH2 0x1FB2 JUMP JUMPDEST POP SWAP4 SWAP3 POP POP POP JUMP JUMPDEST PUSH1 0x0 DUP3 PUSH1 0x1F DUP4 ADD SLT PUSH2 0x2018 JUMPI PUSH2 0x2017 PUSH2 0x1EFC JUMP JUMPDEST JUMPDEST DUP2 CALLDATALOAD PUSH2 0x2028 DUP5 DUP3 PUSH1 0x20 DUP7 ADD PUSH2 0x1FC1 JUMP JUMPDEST SWAP2 POP POP SWAP3 SWAP2 POP POP JUMP JUMPDEST PUSH2 0x203A DUP2 PUSH2 0x1DE2 JUMP JUMPDEST DUP2 EQ PUSH2 0x2045 JUMPI PUSH1 0x0 DUP1 REVERT JUMPDEST POP JUMP JUMPDEST PUSH1 0x0 DUP2 CALLDATALOAD SWAP1 POP PUSH2 0x2057 DUP2 PUSH2 0x2031 JUMP JUMPDEST SWAP3 SWAP2 POP POP JUMP JUMPDEST PUSH1 0x0 DUP1 PUSH1 0x0 DUP1 PUSH1 0x0 PUSH1 0xA0 DUP7 DUP9 SUB SLT ISZERO PUSH2 0x2079 JUMPI PUSH2 0x2078 PUSH2 0x1CC6 JUMP JUMPDEST JUMPDEST PUSH1 0x0 DUP7 ADD CALLDATALOAD PUSH8 0xFFFFFFFFFFFFFFFF DUP2 GT ISZERO PUSH2 0x2097 JUMPI PUSH2 0x2096 PUSH2 0x1CCB JUMP JUMPDEST JUMPDEST PUSH2 0x20A3 DUP9 DUP3 DUP10 ADD PUSH2 0x2003 JUMP JUMPDEST SWAP6 POP POP PUSH1 0x20 PUSH2 0x20B4 DUP9 DUP3 DUP10 ADD PUSH2 0x2048 JUMP JUMPDEST SWAP5 POP POP PUSH1 0x40 DUP7 ADD CALLDATALOAD PUSH8 0xFFFFFFFFFFFFFFFF DUP2 GT ISZERO PUSH2 0x20D5 JUMPI PUSH2 0x20D4 PUSH2 0x1CCB JUMP JUMPDEST JUMPDEST PUSH2 0x20E1 DUP9 DUP3 DUP10 ADD PUSH2 0x2003 JUMP JUMPDEST SWAP4 POP POP PUSH1 0x60 DUP7 ADD CALLDATALOAD PUSH8 0xFFFFFFFFFFFFFFFF DUP2 GT ISZERO PUSH2 0x2102 JUMPI PUSH2 0x2101 PUSH2 0x1CCB JUMP JUMPDEST JUMPDEST PUSH2 0x210E DUP9 DUP3 DUP10 ADD PUSH2 0x2003 JUMP JUMPDEST SWAP3 POP POP PUSH1 0x80 PUSH2 0x211F DUP9 DUP3 DUP10 ADD PUSH2 0x2048 JUMP JUMPDEST SWAP2 POP POP SWAP3 SWAP6 POP SWAP3 SWAP6 SWAP1 SWAP4 POP JUMP JUMPDEST PUSH1 0x0 PUSH1 0x20 DUP3 DUP5 SUB SLT ISZERO PUSH2 0x2142 JUMPI PUSH2 0x2141 PUSH2 0x1CC6 JUMP JUMPDEST JUMPDEST PUSH1 0x0 PUSH2 0x2150 DUP5 DUP3 DUP6 ADD PUSH2 0x2048 JUMP JUMPDEST SWAP2 POP POP SWAP3 SWAP2 POP POP JUMP JUMPDEST PUSH1 0x0 DUP1 PUSH1 0x40 DUP4 DUP6 SUB SLT ISZERO PUSH2 0x2170 JUMPI PUSH2 0x216F PUSH2 0x1CC6 JUMP JUMPDEST JUMPDEST PUSH1 0x0 PUSH2 0x217E DUP6 DUP3 DUP7 ADD PUSH2 0x2048 JUMP JUMPDEST SWAP3 POP POP PUSH1 0x20 DUP4 ADD CALLDATALOAD PUSH8 0xFFFFFFFFFFFFFFFF DUP2 GT ISZERO PUSH2 0x219F JUMPI PUSH2 0x219E PUSH2 0x1CCB JUMP JUMPDEST JUMPDEST PUSH2 0x21AB DUP6 DUP3 DUP7 ADD PUSH2 0x2003 JUMP JUMPDEST SWAP2 POP POP SWAP3 POP SWAP3 SWAP1 POP JUMP JUMPDEST PUSH2 0x21BE DUP2 PUSH2 0x1E6B JUMP JUMPDEST DUP3 MSTORE POP POP JUMP JUMPDEST PUSH1 0x0 PUSH1 0x20 DUP3 ADD SWAP1 POP PUSH2 0x21D9 PUSH1 0x0 DUP4 ADD DUP5 PUSH2 0x21B5 JUMP JUMPDEST SWAP3 SWAP2 POP POP JUMP JUMPDEST PUSH1 0x0 DUP1 PUSH1 0x0 DUP1 PUSH1 0x0 DUP1 PUSH1 0xC0 DUP8 DUP10 SUB SLT ISZERO PUSH2 0x21FC JUMPI PUSH2 0x21FB PUSH2 0x1CC6 JUMP JUMPDEST JUMPDEST PUSH1 0x0 DUP8 ADD CALLDATALOAD PUSH8 0xFFFFFFFFFFFFFFFF DUP2 GT ISZERO PUSH2 0x221A JUMPI PUSH2 0x2219 PUSH2 0x1CCB JUMP JUMPDEST JUMPDEST PUSH2 0x2226 DUP10 DUP3 DUP11 ADD PUSH2 0x2003 JUMP JUMPDEST SWAP7 POP POP PUSH1 0x20 PUSH2 0x2237 DUP10 DUP3 DUP11 ADD PUSH2 0x2048 JUMP JUMPDEST SWAP6 POP POP PUSH1 0x40 DUP8 ADD CALLDATALOAD PUSH8 0xFFFFFFFFFFFFFFFF DUP2 GT ISZERO PUSH2 0x2258 JUMPI PUSH2 0x2257 PUSH2 0x1CCB JUMP JUMPDEST JUMPDEST PUSH2 0x2264 DUP10 DUP3 DUP11 ADD PUSH2 0x2003 JUMP JUMPDEST SWAP5 POP POP PUSH1 0x60 DUP8 ADD CALLDATALOAD PUSH8 0xFFFFFFFFFFFFFFFF DUP2 GT ISZERO PUSH2 0x2285 JUMPI PUSH2 0x2284 PUSH2 0x1CCB JUMP JUMPDEST JUMPDEST PUSH2 0x2291 DUP10 DUP3 DUP11 ADD PUSH2 0x2003 JUMP JUMPDEST SWAP4 POP POP PUSH1 0x80 PUSH2 0x22A2 DUP10 DUP3 DUP11 ADD PUSH2 0x2048 JUMP JUMPDEST SWAP3 POP POP PUSH1 0xA0 PUSH2 0x22B3 DUP10 DUP3 DUP11 ADD PUSH2 0x2048 JUMP JUMPDEST SWAP2 POP POP SWAP3 SWAP6 POP SWAP3 SWAP6 POP SWAP3 SWAP6 JUMP JUMPDEST PUSH1 0x0 DUP2 SWAP1 POP SWAP2 SWAP1 POP JUMP JUMPDEST PUSH1 0x0 PUSH2 0x22E5 PUSH2 0x22E0 PUSH2 0x22DB DUP5 PUSH2 0x1DC2 JUMP JUMPDEST PUSH2 0x22C0 JUMP JUMPDEST PUSH2 0x1DC2 JUMP JUMPDEST SWAP1 POP SWAP2 SWAP1 POP JUMP JUMPDEST PUSH1 0x0 PUSH2 0x22F7 DUP3 PUSH2 0x22CA JUMP JUMPDEST SWAP1 POP SWAP2 SWAP1 POP JUMP JUMPDEST PUSH1 0x0 PUSH2 0x2309 DUP3 PUSH2 0x22EC JUMP JUMPDEST SWAP1 POP SWAP2 SWAP1 POP JUMP JUMPDEST PUSH2 0x2319 DUP2 PUSH2 0x22FE JUMP JUMPDEST DUP3 MSTORE POP POP JUMP JUMPDEST PUSH1 0x0 PUSH1 0x20 DUP3 ADD SWAP1 POP PUSH2 0x2334 PUSH1 0x0 DUP4 ADD DUP5 PUSH2 0x2310 JUMP JUMPDEST SWAP3 SWAP2 POP POP JUMP JUMPDEST PUSH1 0x0 PUSH2 0x2345 DUP3 PUSH2 0x22EC JUMP JUMPDEST SWAP1 POP SWAP2 SWAP1 POP JUMP JUMPDEST PUSH2 0x2355 DUP2 PUSH2 0x233A JUMP JUMPDEST DUP3 MSTORE POP POP JUMP JUMPDEST PUSH1 0x0 PUSH1 0x20 DUP3 ADD SWAP1 POP PUSH2 0x2370 PUSH1 0x0 DUP4 ADD DUP5 PUSH2 0x234C JUMP JUMPDEST SWAP3 SWAP2 POP POP JUMP JUMPDEST PUSH1 0x0 DUP1 PUSH1 0x0 PUSH1 0x60 DUP5 DUP7 SUB SLT ISZERO PUSH2 0x238F JUMPI PUSH2 0x238E PUSH2 0x1CC6 JUMP JUMPDEST JUMPDEST PUSH1 0x0 PUSH2 0x239D DUP7 DUP3 DUP8 ADD PUSH2 0x1CE7 JUMP JUMPDEST SWAP4 POP POP PUSH1 0x20 PUSH2 0x23AE DUP7 DUP3 DUP8 ADD PUSH2 0x2048 JUMP JUMPDEST SWAP3 POP POP PUSH1 0x40 DUP5 ADD CALLDATALOAD PUSH8 0xFFFFFFFFFFFFFFFF DUP2 GT ISZERO PUSH2 0x23CF JUMPI PUSH2 0x23CE PUSH2 0x1CCB JUMP JUMPDEST JUMPDEST PUSH2 0x23DB DUP7 DUP3 DUP8 ADD PUSH2 0x2003 JUMP JUMPDEST SWAP2 POP POP SWAP3 POP SWAP3 POP SWAP3 JUMP JUMPDEST PUSH1 0x0 DUP2 MLOAD SWAP1 POP PUSH2 0x23F4 DUP2 PUSH2 0x2031 JUMP JUMPDEST SWAP3 SWAP2 POP POP JUMP JUMPDEST PUSH1 0x0 PUSH1 0x20 DUP3 DUP5 SUB SLT ISZERO PUSH2 0x2410 JUMPI PUSH2 0x240F PUSH2 0x1CC6 JUMP JUMPDEST JUMPDEST PUSH1 0x0 PUSH2 0x241E DUP5 DUP3 DUP6 ADD PUSH2 0x23E5 JUMP JUMPDEST SWAP2 POP POP SWAP3 SWAP2 POP POP JUMP JUMPDEST PUSH32 0x4E487B7100000000000000000000000000000000000000000000000000000000 PUSH1 0x0 MSTORE PUSH1 0x22 PUSH1 0x4 MSTORE PUSH1 0x24 PUSH1 0x0 REVERT JUMPDEST PUSH1 0x0 PUSH1 0x2 DUP3 DIV SWAP1 POP PUSH1 0x1 DUP3 AND DUP1 PUSH2 0x246E JUMPI PUSH1 0x7F DUP3 AND SWAP2 POP JUMPDEST PUSH1 0x20 DUP3 LT DUP2 EQ ISZERO PUSH2 0x2482 JUMPI PUSH2 0x2481 PUSH2 0x2427 JUMP JUMPDEST JUMPDEST POP SWAP2 SWAP1 POP JUMP JUMPDEST PUSH32 0x496E646578206F7574206F6620626F756E647300000000000000000000000000 PUSH1 0x0 DUP3 ADD MSTORE POP JUMP JUMPDEST PUSH1 0x0 PUSH2 0x24BE PUSH1 0x13 DUP4 PUSH2 0x1D34 JUMP JUMPDEST SWAP2 POP PUSH2 0x24C9 DUP3 PUSH2 0x2488 JUMP JUMPDEST PUSH1 0x20 DUP3 ADD SWAP1 POP SWAP2 SWAP1 POP JUMP JUMPDEST PUSH1 0x0 PUSH1 0x20 DUP3 ADD SWAP1 POP DUP2 DUP2 SUB PUSH1 0x0 DUP4 ADD MSTORE PUSH2 0x24ED DUP2 PUSH2 0x24B1 JUMP JUMPDEST SWAP1 POP SWAP2 SWAP1 POP JUMP JUMPDEST PUSH32 0x4E487B7100000000000000000000000000000000000000000000000000000000 PUSH1 0x0 MSTORE PUSH1 0x32 PUSH1 0x4 MSTORE PUSH1 0x24 PUSH1 0x0 REVERT JUMPDEST PUSH1 0x0 PUSH1 0x60 DUP3 ADD SWAP1 POP PUSH2 0x2538 PUSH1 0x0 DUP4 ADD DUP7 PUSH2 0x1C5C JUMP JUMPDEST PUSH2 0x2545 PUSH1 0x20 DUP4 ADD DUP6 PUSH2 0x21B5 JUMP JUMPDEST PUSH2 0x2552 PUSH1 0x40 DUP4 ADD DUP5 PUSH2 0x1DF4 JUMP JUMPDEST SWAP5 SWAP4 POP POP POP POP JUMP JUMPDEST PUSH2 0x2563 DUP2 PUSH2 0x1C86 JUMP JUMPDEST DUP2 EQ PUSH2 0x256E JUMPI PUSH1 0x0 DUP1 REVERT JUMPDEST POP JUMP JUMPDEST PUSH1 0x0 DUP2 MLOAD SWAP1 POP PUSH2 0x2580 DUP2 PUSH2 0x255A JUMP JUMPDEST SWAP3 SWAP2 POP POP JUMP JUMPDEST PUSH1 0x0 PUSH1 0x20 DUP3 DUP5 SUB SLT ISZERO PUSH2 0x259C JUMPI PUSH2 0x259B PUSH2 0x1CC6 JUMP JUMPDEST JUMPDEST PUSH1 0x0 PUSH2 0x25AA DUP5 DUP3 DUP6 ADD PUSH2 0x2571 JUMP JUMPDEST SWAP2 POP POP SWAP3 SWAP2 POP POP JUMP JUMPDEST PUSH32 0x4661696C656420746F2061646420696E7374697475746520746F207374756465 PUSH1 0x0 DUP3 ADD MSTORE PUSH32 0x6E7420696E666F00000000000000000000000000000000000000000000000000 PUSH1 0x20 DUP3 ADD MSTORE POP JUMP JUMPDEST PUSH1 0x0 PUSH2 0x260F PUSH1 0x27 DUP4 PUSH2 0x1D34 JUMP JUMPDEST SWAP2 POP PUSH2 0x261A DUP3 PUSH2 0x25B3 JUMP JUMPDEST PUSH1 0x40 DUP3 ADD SWAP1 POP SWAP2 SWAP1 POP JUMP JUMPDEST PUSH1 0x0 PUSH1 0x20 DUP3 ADD SWAP1 POP DUP2 DUP2 SUB PUSH1 0x0 DUP4 ADD MSTORE PUSH2 0x263E DUP2 PUSH2 0x2602 JUMP JUMPDEST SWAP1 POP SWAP2 SWAP1 POP JUMP JUMPDEST PUSH1 0x0 DUP2 PUSH1 0x60 SHL SWAP1 POP SWAP2 SWAP1 POP JUMP JUMPDEST PUSH1 0x0 PUSH2 0x265D DUP3 PUSH2 0x2645 JUMP JUMPDEST SWAP1 POP SWAP2 SWAP1 POP JUMP JUMPDEST PUSH1 0x0 PUSH2 0x266F DUP3 PUSH2 0x2652 JUMP JUMPDEST SWAP1 POP SWAP2 SWAP1 POP JUMP JUMPDEST PUSH2 0x2687 PUSH2 0x2682 DUP3 PUSH2 0x1DE2 JUMP JUMPDEST PUSH2 0x2664 JUMP JUMPDEST DUP3 MSTORE POP POP JUMP JUMPDEST PUSH1 0x0 DUP2 SWAP1 POP SWAP3 SWAP2 POP POP JUMP JUMPDEST PUSH1 0x0 PUSH2 0x26A3 DUP3 PUSH2 0x1D29 JUMP JUMPDEST PUSH2 0x26AD DUP2 DUP6 PUSH2 0x268D JUMP JUMPDEST SWAP4 POP PUSH2 0x26BD DUP2 DUP6 PUSH1 0x20 DUP7 ADD PUSH2 0x1D45 JUMP JUMPDEST DUP1 DUP5 ADD SWAP2 POP POP SWAP3 SWAP2 POP POP JUMP JUMPDEST PUSH1 0x0 PUSH2 0x26D5 DUP3 DUP6 PUSH2 0x2676 JUMP JUMPDEST PUSH1 0x14 DUP3 ADD SWAP2 POP PUSH2 0x26E5 DUP3 DUP5 PUSH2 0x2698 JUMP JUMPDEST SWAP2 POP DUP2 SWAP1 POP SWAP4 SWAP3 POP POP POP JUMP JUMPDEST PUSH1 0x0 PUSH1 0x40 DUP3 ADD SWAP1 POP PUSH2 0x2706 PUSH1 0x0 DUP4 ADD DUP6 PUSH2 0x1DF4 JUMP JUMPDEST DUP2 DUP2 SUB PUSH1 0x20 DUP4 ADD MSTORE PUSH2 0x2718 DUP2 DUP5 PUSH2 0x1D89 JUMP JUMPDEST SWAP1 POP SWAP4 SWAP3 POP POP POP JUMP JUMPDEST PUSH1 0x0 DUP2 MLOAD SWAP1 POP PUSH2 0x2730 DUP2 PUSH2 0x1E75 JUMP JUMPDEST SWAP3 SWAP2 POP POP JUMP JUMPDEST PUSH1 0x0 PUSH1 0x20 DUP3 DUP5 SUB SLT ISZERO PUSH2 0x274C JUMPI PUSH2 0x274B PUSH2 0x1CC6 JUMP JUMPDEST JUMPDEST PUSH1 0x0 PUSH2 0x275A DUP5 DUP3 DUP6 ADD PUSH2 0x2721 JUMP JUMPDEST SWAP2 POP POP SWAP3 SWAP2 POP POP JUMP JUMPDEST PUSH1 0x0 PUSH2 0x2776 PUSH2 0x2771 DUP5 PUSH2 0x1F81 JUMP JUMPDEST PUSH2 0x1F66 JUMP JUMPDEST SWAP1 POP DUP3 DUP2 MSTORE PUSH1 0x20 DUP2 ADD DUP5 DUP5 DUP5 ADD GT ISZERO PUSH2 0x2792 JUMPI PUSH2 0x2791 PUSH2 0x1F01 JUMP JUMPDEST JUMPDEST PUSH2 0x279D DUP5 DUP3 DUP6 PUSH2 0x1D45 JUMP JUMPDEST POP SWAP4 SWAP3 POP POP POP JUMP JUMPDEST PUSH1 0x0 DUP3 PUSH1 0x1F DUP4 ADD SLT PUSH2 0x27BA JUMPI PUSH2 0x27B9 PUSH2 0x1EFC JUMP JUMPDEST JUMPDEST DUP2 MLOAD PUSH2 0x27CA DUP5 DUP3 PUSH1 0x20 DUP7 ADD PUSH2 0x2763 JUMP JUMPDEST SWAP2 POP POP SWAP3 SWAP2 POP POP JUMP JUMPDEST PUSH1 0x0 DUP1 PUSH1 0x0 DUP1 PUSH1 0x0 PUSH1 0xA0 DUP7 DUP9 SUB SLT ISZERO PUSH2 0x27EF JUMPI PUSH2 0x27EE PUSH2 0x1CC6 JUMP JUMPDEST JUMPDEST PUSH1 0x0 DUP7 ADD MLOAD PUSH8 0xFFFFFFFFFFFFFFFF DUP2 GT ISZERO PUSH2 0x280D JUMPI PUSH2 0x280C PUSH2 0x1CCB JUMP JUMPDEST JUMPDEST PUSH2 0x2819 DUP9 DUP3 DUP10 ADD PUSH2 0x27A5 JUMP JUMPDEST SWAP6 POP POP PUSH1 0x20 PUSH2 0x282A DUP9 DUP3 DUP10 ADD PUSH2 0x23E5 JUMP JUMPDEST SWAP5 POP POP PUSH1 0x40 DUP7 ADD MLOAD PUSH8 0xFFFFFFFFFFFFFFFF DUP2 GT ISZERO PUSH2 0x284B JUMPI PUSH2 0x284A PUSH2 0x1CCB JUMP JUMPDEST JUMPDEST PUSH2 0x2857 DUP9 DUP3 DUP10 ADD PUSH2 0x27A5 JUMP JUMPDEST SWAP4 POP POP PUSH1 0x60 DUP7 ADD MLOAD PUSH8 0xFFFFFFFFFFFFFFFF DUP2 GT ISZERO PUSH2 0x2878 JUMPI PUSH2 0x2877 PUSH2 0x1CCB JUMP JUMPDEST JUMPDEST PUSH2 0x2884 DUP9 DUP3 DUP10 ADD PUSH2 0x27A5 JUMP JUMPDEST SWAP3 POP POP PUSH1 0x80 PUSH2 0x2895 DUP9 DUP3 DUP10 ADD PUSH2 0x23E5 JUMP JUMPDEST SWAP2 POP POP SWAP3 SWAP6 POP SWAP3 SWAP6 SWAP1 SWAP4 POP JUMP JUMPDEST PUSH1 0x0 PUSH1 0x40 DUP3 ADD SWAP1 POP PUSH2 0x28B7 PUSH1 0x0 DUP4 ADD DUP6 PUSH2 0x1C5C JUMP JUMPDEST PUSH2 0x28C4 PUSH1 0x20 DUP4 ADD DUP5 PUSH2 0x21B5 JUMP JUMPDEST SWAP4 SWAP3 POP POP POP JUMP JUMPDEST PUSH32 0x4661696C656420746F2072656D6F766520696E737469747574652066726F6D20 PUSH1 0x0 DUP3 ADD MSTORE PUSH32 0x73747564656E7420696E666F0000000000000000000000000000000000000000 PUSH1 0x20 DUP3 ADD MSTORE POP JUMP JUMPDEST PUSH1 0x0 PUSH2 0x2927 PUSH1 0x2C DUP4 PUSH2 0x1D34 JUMP JUMPDEST SWAP2 POP PUSH2 0x2932 DUP3 PUSH2 0x28CB JUMP JUMPDEST PUSH1 0x40 DUP3 ADD SWAP1 POP SWAP2 SWAP1 POP JUMP JUMPDEST PUSH1 0x0 PUSH1 0x20 DUP3 ADD SWAP1 POP DUP2 DUP2 SUB PUSH1 0x0 DUP4 ADD MSTORE PUSH2 0x2956 DUP2 PUSH2 0x291A JUMP JUMPDEST SWAP1 POP SWAP2 SWAP1 POP JUMP INVALID LOG2 PUSH5 0x6970667358 0x22 SLT KECCAK256 SHL KECCAK256 SHL COINBASE EXP 0xED 0xCC DUP12 DUP1 0xE PUSH18 0x568AFDBD82C21A2D421E9FA397B9F70A3E42 DUP2 PUSH12 0x1D64736F6C634300080A0033 "
    },
    "gasEstimates": {
      "creation": {
        "codeDepositCost": "2128600",
        "executionCost": "infinite",
        "totalCost": "infinite"
      },
      "external": {
        "MOE()": "2534",
        "StudentsCount()": "2469",
        "addStudToPending(string,address,string,string,address)": "infinite",
        "addTransferStudToPending(string,address,string,string,address,address)": "infinite",
        "checkFunction()": "infinite",
        "generateKey(address,string)": "infinite",
        "getPendingStudentByindex(uint256)": "infinite",
        "getPendingStudentsCount()": "2556",
        "getStudentContractByAddress(address)": "infinite",
        "getTransferStudentByindex(uint256)": "infinite",
        "getTransferStudentsCount()": "2490",
        "instregd()": "infinite",
        "isStudent(address)": "2993",
        "pendingStudentsarray(uint256)": "infinite",
        "removeGraduateStud(uint256,address,string)": "infinite",
        "studentRegisterContractAddress()": "2536",
        "studreg()": "infinite",
        "transferStudentsarray(uint256)": "infinite",
        "trialnumber()": "2452",
        "verifyTransferstudent(uint256,bytes32)": "infinite",
        "verifystudent(uint256,bytes32)": "infinite"
      }
    },
    "methodIdentifiers": {
      "MOE()": "673a1746",
      "StudentsCount()": "20b260e3",
      "addStudToPending(string,address,string,string,address)": "78cfe85e",
      "addTransferStudToPending(string,address,string,string,address,address)": "b16f9023",
      "checkFunction()": "2ecca5fe",
      "generateKey(address,string)": "8a97503d",
      "getPendingStudentByindex(uint256)": "5b969a04",
      "getPendingStudentsCount()": "b1be843d",
      "getStudentContractByAddress(address)": "ca90543d",
      "getTransferStudentByindex(uint256)": "a4156aec",
      "getTransferStudentsCount()": "a2a1fee5",
      "instregd()": "bae0a585",
      "isStudent(address)": "82f7d392",
      "pendingStudentsarray(uint256)": "bd6a8504",
      "removeGraduateStud(uint256,address,string)": "f20bcf9a",
      "studentRegisterContractAddress()": "b7774c1a",
      "studreg()": "c865d881",
      "transferStudentsarray(uint256)": "548d434e",
      "trialnumber()": "911018ef",
      "verifyTransferstudent(uint256,bytes32)": "7cd27141",
      "verifystudent(uint256,bytes32)": "5fb06357"
    }
  },
  "storageLayout": {
    "storage": [
      {
        "astId": 2243,
        "contract": "verifystud.sol:verifystud",
        "label": "MOE",
        "offset": 0,
        "slot": "0",
        "type": "t_address"
      },
      {
        "astId": 2246,
        "contract": "verifystud.sol:verifystud",
        "label": "studreg",
        "offset": 0,
        "slot": "1",
        "type": "t_contract(registerStud)1202"
      },
      {
        "astId": 2249,
        "contract": "verifystud.sol:verifystud",
        "label": "instregd",
        "offset": 0,
        "slot": "2",
        "type": "t_contract(verifyinst)2233"
      },
      {
        "astId": 2251,
        "contract": "verifystud.sol:verifystud",
        "label": "studentRegisterContractAddress",
        "offset": 0,
        "slot": "3",
        "type": "t_address"
      },
      {
        "astId": 2254,
        "contract": "verifystud.sol:verifystud",
        "label": "trialnumber",
        "offset": 0,
        "slot": "4",
        "type": "t_uint256"
      },
      {
        "astId": 2309,
        "contract": "verifystud.sol:verifystud",
        "label": "pendingStudentsarray",
        "offset": 0,
        "slot": "5",
        "type": "t_array(t_struct(pendingstudents)2305_storage)dyn_storage"
      },
      {
        "astId": 2313,
        "contract": "verifystud.sol:verifystud",
        "label": "transferStudentsarray",
        "offset": 0,
        "slot": "6",
        "type": "t_array(t_struct(pendingstudents)2305_storage)dyn_storage"
      },
      {
        "astId": 2317,
        "contract": "verifystud.sol:verifystud",
        "label": "registeredStudentsmap",
        "offset": 0,
        "slot": "7",
        "type": "t_mapping(t_address,t_address)"
      },
      {
        "astId": 2320,
        "contract": "verifystud.sol:verifystud",
        "label": "registeredStudents",
        "offset": 0,
        "slot": "8",
        "type": "t_array(t_address)dyn_storage"
      }
    ],
    "types": {
      "t_address": {
        "encoding": "inplace",
        "label": "address",
        "numberOfBytes": "20"
      },
      "t_array(t_address)dyn_storage": {
        "base": "t_address",
        "encoding": "dynamic_array",
        "label": "address[]",
        "numberOfBytes": "32"
      },
      "t_array(t_struct(pendingstudents)2305_storage)dyn_storage": {
        "base": "t_struct(pendingstudents)2305_storage",
        "encoding": "dynamic_array",
        "label": "struct verifystud.pendingstudents[]",
        "numberOfBytes": "32"
      },
      "t_contract(registerStud)1202": {
        "encoding": "inplace",
        "label": "contract registerStud",
        "numberOfBytes": "20"
      },
      "t_contract(verifyinst)2233": {
        "encoding": "inplace",
        "label": "contract verifyinst",
        "numberOfBytes": "20"
      },
      "t_mapping(t_address,t_address)": {
        "encoding": "mapping",
        "key": "t_address",
        "label": "mapping(address => address)",
        "numberOfBytes": "32",
        "value": "t_address"
      },
      "t_string_storage": {
        "encoding": "bytes",
        "label": "string",
        "numberOfBytes": "32"
      },
      "t_struct(pendingstudents)2305_storage": {
        "encoding": "inplace",
        "label": "struct verifystud.pendingstudents",
        "members": [
          {
            "astId": 2296,
            "contract": "verifystud.sol:verifystud",
            "label": "name",
            "offset": 0,
            "slot": "0",
            "type": "t_string_storage"
          },
          {
            "astId": 2298,
            "contract": "verifystud.sol:verifystud",
            "label": "student_address",
            "offset": 0,
            "slot": "1",
            "type": "t_address"
          },
          {
            "astId": 2300,
            "contract": "verifystud.sol:verifystud",
            "label": "email",
            "offset": 0,
            "slot": "2",
            "type": "t_string_storage"
          },
          {
            "astId": 2302,
            "contract": "verifystud.sol:verifystud",
            "label": "id",
            "offset": 0,
            "slot": "3",
            "type": "t_string_storage"
          },
          {
            "astId": 2304,
            "contract": "verifystud.sol:verifystud",
            "label": "instAddress",
            "offset": 0,
            "slot": "4",
            "type": "t_address"
          }
        ],
        "numberOfBytes": "160"
      },
      "t_uint256": {
        "encoding": "inplace",
        "label": "uint256",
        "numberOfBytes": "32"
      }
    }
  },
  "userdoc": {
    "kind": "user",
    "methods": {},
    "version": 1
  }
}